{
	"data": {
		"bytecode": {
			"linkReferences": {},
			"object": "60806040526040518060400160405280601181526020017f5754462044757463682041756374696f6e0000000000000000000000000000008152506040518060400160405280601181526020017f5754462044757463682041756374696f6e000000000000000000000000000000815250335f73ffffffffffffffffffffffffffffffffffffffff168173ffffffffffffffffffffffffffffffffffffffff16036100e1575f6040517f1e4fbdf70000000000000000000000000000000000000000000000000000000081526004016100d89190610226565b60405180910390fd5b6100f08161012660201b60201c565b5081600190816101009190610479565b5080600290816101109190610479565b5050504260078190555034600a81905550610548565b5f805f9054906101000a900473ffffffffffffffffffffffffffffffffffffffff169050815f806101000a81548173ffffffffffffffffffffffffffffffffffffffff021916908373ffffffffffffffffffffffffffffffffffffffff1602179055508173ffffffffffffffffffffffffffffffffffffffff168173ffffffffffffffffffffffffffffffffffffffff167f8be0079c531659141344cd1fd0a4f28419497f9722a3daafe3b4186f6b6457e060405160405180910390a35050565b5f73ffffffffffffffffffffffffffffffffffffffff82169050919050565b5f610210826101e7565b9050919050565b61022081610206565b82525050565b5f6020820190506102395f830184610217565b92915050565b5f81519050919050565b7f4e487b71000000000000000000000000000000000000000000000000000000005f52604160045260245ffd5b7f4e487b71000000000000000000000000000000000000000000000000000000005f52602260045260245ffd5b5f60028204905060018216806102ba57607f821691505b6020821081036102cd576102cc610276565b5b50919050565b5f819050815f5260205f209050919050565b5f6020601f8301049050919050565b5f82821b905092915050565b5f6008830261032f7fffffffffffffffffffffffffffffffffffffffffffffffffffffffffffffffff826102f4565b61033986836102f4565b95508019841693508086168417925050509392505050565b5f819050919050565b5f819050919050565b5f61037d61037861037384610351565b61035a565b610351565b9050919050565b5f819050919050565b61039683610363565b6103aa6103a282610384565b848454610300565b825550505050565b5f90565b6103be6103b2565b6103c981848461038d565b505050565b5b818110156103ec576103e15f826103b6565b6001810190506103cf565b5050565b601f82111561043157610402816102d3565b61040b846102e5565b8101602085101561041a578190505b61042e610426856102e5565b8301826103ce565b50505b505050565b5f82821c905092915050565b5f6104515f1984600802610436565b1980831691505092915050565b5f6104698383610442565b9150826002028217905092915050565b6104828261023f565b67ffffffffffffffff81111561049b5761049a610249565b5b6104a582546102a3565b6104b08282856103f0565b5f60209050601f8311600181146104e1575f84156104cf578287015190505b6104d9858261045e565b865550610540565b601f1984166104ef866102d3565b5f5b82811015610516578489015182556001820191506020850194506020810190506104f1565b86831015610533578489015161052f601f891682610442565b8355505b6001600288020188555050505b505050505050565b6132b7806105555f395ff3fe6080604052600436106101d7575f3560e01c80636b9241fc11610101578063b88d4fde11610094578063e592301a11610063578063e592301a1461065f578063e985e9c514610689578063eb54f9ec146106c5578063f2fde38b146106ef576101d7565b8063b88d4fde146105a7578063c87b56dd146105cf578063caf8a6d11461060b578063d8258d9514610635576101d7565b80638da5cb5b116100d05780638da5cb5b1461051557806395d89b411461053f578063a22cb46514610569578063ac44600214610591576101d7565b80636b9241fc1461046f57806370a0823114610499578063715018a6146104d55780637a1c4a56146104eb576101d7565b80632ddbd13a1161017957806355f804b31161014857806355f804b3146103b757806359f369fe146103df5780635cae01d3146104095780636352211e14610433576101d7565b80632ddbd13a1461031f57806342842e0e146103495780634bd25c6f146103715780634d3554c31461039b576101d7565b8063081812fc116101b5578063081812fc14610269578063095ea7b3146102a557806318160ddd146102cd57806323b872dd146102f7576101d7565b806301ffc9a7146101db5780630697346f1461021757806306fdde031461023f575b5f80fd5b3480156101e6575f80fd5b5061020160048036038101906101fc9190612099565b610717565b60405161020e91906120de565b60405180910390f35b348015610222575f80fd5b5061023d60048036038101906102389190612130565b610850565b005b34801561024a575f80fd5b50610253610868565b60405161026091906121cb565b60405180910390f35b348015610274575f80fd5b5061028f600480360381019061028a919061221e565b6108f4565b60405161029c9190612288565b60405180910390f35b3480156102b0575f80fd5b506102cb60048036038101906102c691906122cb565b6109cb565b005b3480156102d8575f80fd5b506102e1610b09565b6040516102ee9190612318565b60405180910390f35b348015610302575f80fd5b5061031d60048036038101906103189190612331565b610b15565b005b34801561032a575f80fd5b50610333610b7d565b6040516103409190612318565b60405180910390f35b348015610354575f80fd5b5061036f600480360381019061036a9190612331565b610b83565b005b34801561037c575f80fd5b50610385610ba2565b6040516103929190612318565b60405180910390f35b6103b560048036038101906103b0919061221e565b610c5a565b005b3480156103c2575f80fd5b506103dd60048036038101906103d891906123e2565b610df3565b005b3480156103ea575f80fd5b506103f3610e11565b6040516104009190612318565b60405180910390f35b348015610414575f80fd5b5061041d610e49565b60405161042a9190612318565b60405180910390f35b34801561043e575f80fd5b506104596004803603810190610454919061221e565b610e4e565b6040516104669190612288565b60405180910390f35b34801561047a575f80fd5b50610483610ef5565b604051610490919061243c565b60405180910390f35b3480156104a4575f80fd5b506104bf60048036038101906104ba9190612455565b610f1c565b6040516104cc9190612318565b60405180910390f35b3480156104e0575f80fd5b506104e9610fd0565b005b3480156104f6575f80fd5b506104ff610fe3565b60405161050c9190612318565b60405180910390f35b348015610520575f80fd5b50610529610fef565b6040516105369190612288565b60405180910390f35b34801561054a575f80fd5b50610553611016565b60405161056091906121cb565b60405180910390f35b348015610574575f80fd5b5061058f600480360381019061058a91906124aa565b6110a2565b005b34801561059c575f80fd5b506105a561119a565b005b3480156105b2575f80fd5b506105cd60048036038101906105c89190612610565b61124d565b005b3480156105da575f80fd5b506105f560048036038101906105f0919061221e565b6112b7565b60405161060291906121cb565b60405180910390f35b348015610616575f80fd5b5061061f6113b1565b60405161062c9190612318565b60405180910390f35b348015610640575f80fd5b506106496113bd565b6040516106569190612318565b60405180910390f35b34801561066a575f80fd5b506106736113c3565b6040516106809190612318565b60405180910390f35b348015610694575f80fd5b506106af60048036038101906106aa9190612690565b6113c9565b6040516106bc91906120de565b60405180910390f35b3480156106d0575f80fd5b506106d9611457565b6040516106e69190612318565b60405180910390f35b3480156106fa575f80fd5b5061071560048036038101906107109190612455565b61145d565b005b5f7f80ac58cd000000000000000000000000000000000000000000000000000000007bffffffffffffffffffffffffffffffffffffffffffffffffffffffff1916827bffffffffffffffffffffffffffffffffffffffffffffffffffffffff191614806107e157507f01ffc9a7000000000000000000000000000000000000000000000000000000007bffffffffffffffffffffffffffffffffffffffffffffffffffffffff1916827bffffffffffffffffffffffffffffffffffffffffffffffffffffffff1916145b8061084957507f5b5e139f000000000000000000000000000000000000000000000000000000007bffffffffffffffffffffffffffffffffffffffffffffffffffffffff1916827bffffffffffffffffffffffffffffffffffffffffffffffffffffffff1916145b9050919050565b6108586114e1565b8063ffffffff1660078190555050565b60018054610875906126fb565b80601f01602080910402602001604051908101604052809291908181526020018280546108a1906126fb565b80156108ec5780601f106108c3576101008083540402835291602001916108ec565b820191905f5260205f20905b8154815290600101906020018083116108cf57829003601f168201915b505050505081565b5f8073ffffffffffffffffffffffffffffffffffffffff1660035f8481526020019081526020015f205f9054906101000a900473ffffffffffffffffffffffffffffffffffffffff1673ffffffffffffffffffffffffffffffffffffffff1603610993576040517f08c379a000000000000000000000000000000000000000000000000000000000815260040161098a90612775565b60405180910390fd5b60055f8381526020019081526020015f205f9054906101000a900473ffffffffffffffffffffffffffffffffffffffff169050919050565b5f60035f8381526020019081526020015f205f9054906101000a900473ffffffffffffffffffffffffffffffffffffffff1690508073ffffffffffffffffffffffffffffffffffffffff163373ffffffffffffffffffffffffffffffffffffffff161480610aba575060065f8273ffffffffffffffffffffffffffffffffffffffff1673ffffffffffffffffffffffffffffffffffffffff1681526020019081526020015f205f3373ffffffffffffffffffffffffffffffffffffffff1673ffffffffffffffffffffffffffffffffffffffff1681526020019081526020015f205f9054906101000a900460ff165b610af9576040517f08c379a0000000000000000000000000000000000000000000000000000000008152600401610af0906127dd565b60405180910390fd5b610b04818484611568565b505050565b5f600980549050905090565b5f610b1f82610e4e565b9050610b2c813384611617565b610b6b576040517f08c379a0000000000000000000000000000000000000000000000000000000008152600401610b6290612845565b60405180910390fd5b610b7781858585611742565b50505050565b600a5481565b610b9d83838360405180602001604052805f81525061124d565b505050565b5f600754421015610bbd57670de0b6b3a76400009050610c57565b61025860075442610bce9190612890565b10610be35767016345785d8a00009050610c57565b5f603c60075442610bf49190612890565b610bfe91906128f0565b9050603c610258610c0f91906128f0565b67016345785d8a0000670de0b6b3a7640000610c2b9190612890565b610c3591906128f0565b81610c409190612920565b670de0b6b3a7640000610c539190612890565b9150505b90565b5f60075490505f8114158015610c705750804210155b610caf576040517f08c379a0000000000000000000000000000000000000000000000000000000008152600401610ca6906129ab565b60405180910390fd5b61271082610cbb610b09565b610cc591906129c9565b1115610d06576040517f08c379a0000000000000000000000000000000000000000000000000000000008152600401610cfd90612a92565b60405180910390fd5b5f82610d10610ba2565b610d1a9190612920565b905080341015610d5f576040517f08c379a0000000000000000000000000000000000000000000000000000000008152600401610d5690612afa565b60405180910390fd5b5f5b83811015610d95575f610d72610b09565b9050610d7e3382611981565b610d8781611b8f565b508080600101915050610d61565b5080341115610dee573373ffffffffffffffffffffffffffffffffffffffff166108fc8234610dc49190612890565b90811502906040515f60405180830381858888f19350505050158015610dec573d5f803e3d5ffd5b505b505050565b610dfb6114e1565b818160089182610e0c929190612cbf565b505050565b603c610258610e2091906128f0565b67016345785d8a0000670de0b6b3a7640000610e3c9190612890565b610e4691906128f0565b81565b603c81565b5f60035f8381526020019081526020015f205f9054906101000a900473ffffffffffffffffffffffffffffffffffffffff1690505f73ffffffffffffffffffffffffffffffffffffffff168173ffffffffffffffffffffffffffffffffffffffff1603610ef0576040517f08c379a0000000000000000000000000000000000000000000000000000000008152600401610ee790612775565b60405180910390fd5b919050565b5f7f150b7a0200000000000000000000000000000000000000000000000000000000905090565b5f8073ffffffffffffffffffffffffffffffffffffffff168273ffffffffffffffffffffffffffffffffffffffff1603610f8b576040517f08c379a0000000000000000000000000000000000000000000000000000000008152600401610f8290612dd6565b60405180910390fd5b60045f8373ffffffffffffffffffffffffffffffffffffffff1673ffffffffffffffffffffffffffffffffffffffff1681526020019081526020015f20549050919050565b610fd86114e1565b610fe15f611bb8565b565b670de0b6b3a764000081565b5f805f9054906101000a900473ffffffffffffffffffffffffffffffffffffffff16905090565b60028054611023906126fb565b80601f016020809104026020016040519081016040528092919081815260200182805461104f906126fb565b801561109a5780601f106110715761010080835404028352916020019161109a565b820191905f5260205f20905b81548152906001019060200180831161107d57829003601f168201915b505050505081565b8060065f3373ffffffffffffffffffffffffffffffffffffffff1673ffffffffffffffffffffffffffffffffffffffff1681526020019081526020015f205f8473ffffffffffffffffffffffffffffffffffffffff1673ffffffffffffffffffffffffffffffffffffffff1681526020019081526020015f205f6101000a81548160ff0219169083151502179055508173ffffffffffffffffffffffffffffffffffffffff163373ffffffffffffffffffffffffffffffffffffffff167f17307eab39ab6107e8899845ad3d59bd9653f200f220920489ca2b5937696c318360405161118e91906120de565b60405180910390a35050565b6111a26114e1565b5f3373ffffffffffffffffffffffffffffffffffffffff16476040516111c790612e21565b5f6040518083038185875af1925050503d805f8114611201576040519150601f19603f3d011682016040523d82523d5f602084013e611206565b606091505b505090508061124a576040517f08c379a000000000000000000000000000000000000000000000000000000000815260040161124190612e7f565b60405180910390fd5b50565b5f61125783610e4e565b9050611264813385611617565b6112a3576040517f08c379a000000000000000000000000000000000000000000000000000000000815260040161129a90612845565b60405180910390fd5b6112b08186868686611c79565b5050505050565b60605f73ffffffffffffffffffffffffffffffffffffffff1660035f8481526020019081526020015f205f9054906101000a900473ffffffffffffffffffffffffffffffffffffffff1673ffffffffffffffffffffffffffffffffffffffff1603611357576040517f08c379a000000000000000000000000000000000000000000000000000000000815260040161134e90612ee7565b60405180910390fd5b5f611360611c98565b90505f81511161137e5760405180602001604052805f8152506113a9565b8061138884611d28565b604051602001611399929190612f3f565b6040516020818303038152906040525b915050919050565b67016345785d8a000081565b61271081565b61025881565b5f60065f8473ffffffffffffffffffffffffffffffffffffffff1673ffffffffffffffffffffffffffffffffffffffff1681526020019081526020015f205f8373ffffffffffffffffffffffffffffffffffffffff1673ffffffffffffffffffffffffffffffffffffffff1681526020019081526020015f205f9054906101000a900460ff16905092915050565b60075481565b6114656114e1565b5f73ffffffffffffffffffffffffffffffffffffffff168173ffffffffffffffffffffffffffffffffffffffff16036114d5575f6040517f1e4fbdf70000000000000000000000000000000000000000000000000000000081526004016114cc9190612288565b60405180910390fd5b6114de81611bb8565b50565b6114e9611e81565b73ffffffffffffffffffffffffffffffffffffffff16611507610fef565b73ffffffffffffffffffffffffffffffffffffffff16146115665761152a611e81565b6040517f118cdaa700000000000000000000000000000000000000000000000000000000815260040161155d9190612288565b60405180910390fd5b565b8160055f8381526020019081526020015f205f6101000a81548173ffffffffffffffffffffffffffffffffffffffff021916908373ffffffffffffffffffffffffffffffffffffffff160217905550808273ffffffffffffffffffffffffffffffffffffffff168473ffffffffffffffffffffffffffffffffffffffff167f8c5be1e5ebec7d5bd14f71427d1e84f3dd0314c0f7b2291e5b200ac8c7c3b92560405160405180910390a4505050565b5f8373ffffffffffffffffffffffffffffffffffffffff168373ffffffffffffffffffffffffffffffffffffffff1614806116ad57508273ffffffffffffffffffffffffffffffffffffffff1660055f8481526020019081526020015f205f9054906101000a900473ffffffffffffffffffffffffffffffffffffffff1673ffffffffffffffffffffffffffffffffffffffff16145b80611739575060065f8573ffffffffffffffffffffffffffffffffffffffff1673ffffffffffffffffffffffffffffffffffffffff1681526020019081526020015f205f8473ffffffffffffffffffffffffffffffffffffffff1673ffffffffffffffffffffffffffffffffffffffff1681526020019081526020015f205f9054906101000a900460ff165b90509392505050565b8373ffffffffffffffffffffffffffffffffffffffff168373ffffffffffffffffffffffffffffffffffffffff16146117b0576040517f08c379a00000000000000000000000000000000000000000000000000000000081526004016117a790612fac565b60405180910390fd5b5f73ffffffffffffffffffffffffffffffffffffffff168273ffffffffffffffffffffffffffffffffffffffff160361181e576040517f08c379a000000000000000000000000000000000000000000000000000000000815260040161181590613014565b60405180910390fd5b611829845f83611568565b600160045f8573ffffffffffffffffffffffffffffffffffffffff1673ffffffffffffffffffffffffffffffffffffffff1681526020019081526020015f205f8282546118769190612890565b92505081905550600160045f8473ffffffffffffffffffffffffffffffffffffffff1673ffffffffffffffffffffffffffffffffffffffff1681526020019081526020015f205f8282546118ca91906129c9565b925050819055508160035f8381526020019081526020015f205f6101000a81548173ffffffffffffffffffffffffffffffffffffffff021916908373ffffffffffffffffffffffffffffffffffffffff160217905550808273ffffffffffffffffffffffffffffffffffffffff168473ffffffffffffffffffffffffffffffffffffffff167fddf252ad1be2c89b69c2b068fc378daa952ba7f163c4a11628f55a4df523b3ef60405160405180910390a450505050565b5f73ffffffffffffffffffffffffffffffffffffffff168273ffffffffffffffffffffffffffffffffffffffff16036119ef576040517f08c379a00000000000000000000000000000000000000000000000000000000081526004016119e69061307c565b60405180910390fd5b5f73ffffffffffffffffffffffffffffffffffffffff1660035f8381526020019081526020015f205f9054906101000a900473ffffffffffffffffffffffffffffffffffffffff1673ffffffffffffffffffffffffffffffffffffffff1614611a8d576040517f08c379a0000000000000000000000000000000000000000000000000000000008152600401611a84906130e4565b60405180910390fd5b600160045f8473ffffffffffffffffffffffffffffffffffffffff1673ffffffffffffffffffffffffffffffffffffffff1681526020019081526020015f205f828254611ada91906129c9565b925050819055508160035f8381526020019081526020015f205f6101000a81548173ffffffffffffffffffffffffffffffffffffffff021916908373ffffffffffffffffffffffffffffffffffffffff160217905550808273ffffffffffffffffffffffffffffffffffffffff165f73ffffffffffffffffffffffffffffffffffffffff167fddf252ad1be2c89b69c2b068fc378daa952ba7f163c4a11628f55a4df523b3ef60405160405180910390a45050565b600981908060018154018082558091505060019003905f5260205f20015f909190919091505550565b5f805f9054906101000a900473ffffffffffffffffffffffffffffffffffffffff169050815f806101000a81548173ffffffffffffffffffffffffffffffffffffffff021916908373ffffffffffffffffffffffffffffffffffffffff1602179055508173ffffffffffffffffffffffffffffffffffffffff168173ffffffffffffffffffffffffffffffffffffffff167f8be0079c531659141344cd1fd0a4f28419497f9722a3daafe3b4186f6b6457e060405160405180910390a35050565b611c8585858585611742565b611c9184848484611e88565b5050505050565b606060088054611ca7906126fb565b80601f0160208091040260200160405190810160405280929190818152602001828054611cd3906126fb565b8015611d1e5780601f10611cf557610100808354040283529160200191611d1e565b820191905f5260205f20905b815481529060010190602001808311611d0157829003601f168201915b5050505050905090565b60605f8203611d6e576040518060400160405280600181526020017f30000000000000000000000000000000000000000000000000000000000000008152509050611e7c565b5f8290505f5b5f8214611d9d578080611d8690613102565b915050600a82611d9691906128f0565b9150611d74565b5f8167ffffffffffffffff811115611db857611db76124ec565b5b6040519080825280601f01601f191660200182016040528015611dea5781602001600182028036833780820191505090505b5090505b5f8514611e7557600182611e029190612890565b9150600a85611e119190613149565b6030611e1d91906129c9565b60f81b818381518110611e3357611e32613179565b5b60200101907effffffffffffffffffffffffffffffffffffffffffffffffffffffffffffff191690815f1a905350600a85611e6e91906128f0565b9450611dee565b8093505050505b919050565b5f33905090565b5f8373ffffffffffffffffffffffffffffffffffffffff163b111561202d578273ffffffffffffffffffffffffffffffffffffffff1663150b7a02338685856040518563ffffffff1660e01b8152600401611ee694939291906131f8565b6020604051808303815f875af1925050508015611f2157506040513d601f19601f82011682018060405250810190611f1e9190613256565b60015b611fa2573d805f8114611f4f576040519150601f19603f3d011682016040523d82523d5f602084013e611f54565b606091505b505f815103611f9a57836040517f64a0ae92000000000000000000000000000000000000000000000000000000008152600401611f919190612288565b60405180910390fd5b805181602001fd5b63150b7a0260e01b7bffffffffffffffffffffffffffffffffffffffffffffffffffffffff1916817bffffffffffffffffffffffffffffffffffffffffffffffffffffffff19161461202b57836040517f64a0ae920000000000000000000000000000000000000000000000000000000081526004016120229190612288565b60405180910390fd5b505b50505050565b5f604051905090565b5f80fd5b5f80fd5b5f7fffffffff0000000000000000000000000000000000000000000000000000000082169050919050565b61207881612044565b8114612082575f80fd5b50565b5f813590506120938161206f565b92915050565b5f602082840312156120ae576120ad61203c565b5b5f6120bb84828501612085565b91505092915050565b5f8115159050919050565b6120d8816120c4565b82525050565b5f6020820190506120f15f8301846120cf565b92915050565b5f63ffffffff82169050919050565b61210f816120f7565b8114612119575f80fd5b50565b5f8135905061212a81612106565b92915050565b5f602082840312156121455761214461203c565b5b5f6121528482850161211c565b91505092915050565b5f81519050919050565b5f82825260208201905092915050565b8281835e5f83830152505050565b5f601f19601f8301169050919050565b5f61219d8261215b565b6121a78185612165565b93506121b7818560208601612175565b6121c081612183565b840191505092915050565b5f6020820190508181035f8301526121e38184612193565b905092915050565b5f819050919050565b6121fd816121eb565b8114612207575f80fd5b50565b5f81359050612218816121f4565b92915050565b5f602082840312156122335761223261203c565b5b5f6122408482850161220a565b91505092915050565b5f73ffffffffffffffffffffffffffffffffffffffff82169050919050565b5f61227282612249565b9050919050565b61228281612268565b82525050565b5f60208201905061229b5f830184612279565b92915050565b6122aa81612268565b81146122b4575f80fd5b50565b5f813590506122c5816122a1565b92915050565b5f80604083850312156122e1576122e061203c565b5b5f6122ee858286016122b7565b92505060206122ff8582860161220a565b9150509250929050565b612312816121eb565b82525050565b5f60208201905061232b5f830184612309565b92915050565b5f805f606084860312156123485761234761203c565b5b5f612355868287016122b7565b9350506020612366868287016122b7565b92505060406123778682870161220a565b9150509250925092565b5f80fd5b5f80fd5b5f80fd5b5f8083601f8401126123a2576123a1612381565b5b8235905067ffffffffffffffff8111156123bf576123be612385565b5b6020830191508360018202830111156123db576123da612389565b5b9250929050565b5f80602083850312156123f8576123f761203c565b5b5f83013567ffffffffffffffff81111561241557612414612040565b5b6124218582860161238d565b92509250509250929050565b61243681612044565b82525050565b5f60208201905061244f5f83018461242d565b92915050565b5f6020828403121561246a5761246961203c565b5b5f612477848285016122b7565b91505092915050565b612489816120c4565b8114612493575f80fd5b50565b5f813590506124a481612480565b92915050565b5f80604083850312156124c0576124bf61203c565b5b5f6124cd858286016122b7565b92505060206124de85828601612496565b9150509250929050565b5f80fd5b7f4e487b71000000000000000000000000000000000000000000000000000000005f52604160045260245ffd5b61252282612183565b810181811067ffffffffffffffff82111715612541576125406124ec565b5b80604052505050565b5f612553612033565b905061255f8282612519565b919050565b5f67ffffffffffffffff82111561257e5761257d6124ec565b5b61258782612183565b9050602081019050919050565b828183375f83830152505050565b5f6125b46125af84612564565b61254a565b9050828152602081018484840111156125d0576125cf6124e8565b5b6125db848285612594565b509392505050565b5f82601f8301126125f7576125f6612381565b5b81356126078482602086016125a2565b91505092915050565b5f805f80608085870312156126285761262761203c565b5b5f612635878288016122b7565b9450506020612646878288016122b7565b93505060406126578782880161220a565b925050606085013567ffffffffffffffff81111561267857612677612040565b5b612684878288016125e3565b91505092959194509250565b5f80604083850312156126a6576126a561203c565b5b5f6126b3858286016122b7565b92505060206126c4858286016122b7565b9150509250929050565b7f4e487b71000000000000000000000000000000000000000000000000000000005f52602260045260245ffd5b5f600282049050600182168061271257607f821691505b602082108103612725576127246126ce565b5b50919050565b7f746f6b656e20646f65736e2774206578697374000000000000000000000000005f82015250565b5f61275f601383612165565b915061276a8261272b565b602082019050919050565b5f6020820190508181035f83015261278c81612753565b9050919050565b7f6e6f74206f776e6572206e6f7220617070726f76656420666f7220616c6c00005f82015250565b5f6127c7601e83612165565b91506127d282612793565b602082019050919050565b5f6020820190508181035f8301526127f4816127bb565b9050919050565b7f6e6f74206f776e6572206e6f7220617070726f766564000000000000000000005f82015250565b5f61282f601683612165565b915061283a826127fb565b602082019050919050565b5f6020820190508181035f83015261285c81612823565b9050919050565b7f4e487b71000000000000000000000000000000000000000000000000000000005f52601160045260245ffd5b5f61289a826121eb565b91506128a5836121eb565b92508282039050818111156128bd576128bc612863565b5b92915050565b7f4e487b71000000000000000000000000000000000000000000000000000000005f52601260045260245ffd5b5f6128fa826121eb565b9150612905836121eb565b925082612915576129146128c3565b5b828204905092915050565b5f61292a826121eb565b9150612935836121eb565b9250828202612943816121eb565b9150828204841483151761295a57612959612863565b5b5092915050565b7f73616c6520686173206e6f7420737461727465642079657400000000000000005f82015250565b5f612995601883612165565b91506129a082612961565b602082019050919050565b5f6020820190508181035f8301526129c281612989565b9050919050565b5f6129d3826121eb565b91506129de836121eb565b92508282019050808211156129f6576129f5612863565b5b92915050565b7f6e6f7420656e6f7567682072656d61696e696e6720726573657276656420666f5f8201527f722061756374696f6e20746f20737570706f72742064657369726564206d696e60208201527f7420616d6f756e74000000000000000000000000000000000000000000000000604082015250565b5f612a7c604883612165565b9150612a87826129fc565b606082019050919050565b5f6020820190508181035f830152612aa981612a70565b9050919050565b7f4e65656420746f2073656e64206d6f7265204554482e000000000000000000005f82015250565b5f612ae4601683612165565b9150612aef82612ab0565b602082019050919050565b5f6020820190508181035f830152612b1181612ad8565b9050919050565b5f82905092915050565b5f819050815f5260205f209050919050565b5f6020601f8301049050919050565b5f82821b905092915050565b5f60088302612b7e7fffffffffffffffffffffffffffffffffffffffffffffffffffffffffffffffff82612b43565b612b888683612b43565b95508019841693508086168417925050509392505050565b5f819050919050565b5f612bc3612bbe612bb9846121eb565b612ba0565b6121eb565b9050919050565b5f819050919050565b612bdc83612ba9565b612bf0612be882612bca565b848454612b4f565b825550505050565b5f90565b612c04612bf8565b612c0f818484612bd3565b505050565b5b81811015612c3257612c275f82612bfc565b600181019050612c15565b5050565b601f821115612c7757612c4881612b22565b612c5184612b34565b81016020851015612c60578190505b612c74612c6c85612b34565b830182612c14565b50505b505050565b5f82821c905092915050565b5f612c975f1984600802612c7c565b1980831691505092915050565b5f612caf8383612c88565b9150826002028217905092915050565b612cc98383612b18565b67ffffffffffffffff811115612ce257612ce16124ec565b5b612cec82546126fb565b612cf7828285612c36565b5f601f831160018114612d24575f8415612d12578287013590505b612d1c8582612ca4565b865550612d83565b601f198416612d3286612b22565b5f5b82811015612d5957848901358255600182019150602085019450602081019050612d34565b86831015612d765784890135612d72601f891682612c88565b8355505b6001600288020188555050505b50505050505050565b7f6f776e6572203d207a65726f20616464726573730000000000000000000000005f82015250565b5f612dc0601483612165565b9150612dcb82612d8c565b602082019050919050565b5f6020820190508181035f830152612ded81612db4565b9050919050565b5f81905092915050565b50565b5f612e0c5f83612df4565b9150612e1782612dfe565b5f82019050919050565b5f612e2b82612e01565b9150819050919050565b7f5472616e73666572206661696c65642e000000000000000000000000000000005f82015250565b5f612e69601083612165565b9150612e7482612e35565b602082019050919050565b5f6020820190508181035f830152612e9681612e5d565b9050919050565b7f546f6b656e204e6f7420457869737400000000000000000000000000000000005f82015250565b5f612ed1600f83612165565b9150612edc82612e9d565b602082019050919050565b5f6020820190508181035f830152612efe81612ec5565b9050919050565b5f81905092915050565b5f612f198261215b565b612f238185612f05565b9350612f33818560208601612175565b80840191505092915050565b5f612f4a8285612f0f565b9150612f568284612f0f565b91508190509392505050565b7f6e6f74206f776e657200000000000000000000000000000000000000000000005f82015250565b5f612f96600983612165565b9150612fa182612f62565b602082019050919050565b5f6020820190508181035f830152612fc381612f8a565b9050919050565b7f7472616e7366657220746f20746865207a65726f2061646472657373000000005f82015250565b5f612ffe601c83612165565b915061300982612fca565b602082019050919050565b5f6020820190508181035f83015261302b81612ff2565b9050919050565b7f6d696e7420746f207a65726f20616464726573730000000000000000000000005f82015250565b5f613066601483612165565b915061307182613032565b602082019050919050565b5f6020820190508181035f8301526130938161305a565b9050919050565b7f746f6b656e20616c7265616479206d696e7465640000000000000000000000005f82015250565b5f6130ce601483612165565b91506130d98261309a565b602082019050919050565b5f6020820190508181035f8301526130fb816130c2565b9050919050565b5f61310c826121eb565b91507fffffffffffffffffffffffffffffffffffffffffffffffffffffffffffffffff820361313e5761313d612863565b5b600182019050919050565b5f613153826121eb565b915061315e836121eb565b92508261316e5761316d6128c3565b5b828206905092915050565b7f4e487b71000000000000000000000000000000000000000000000000000000005f52603260045260245ffd5b5f81519050919050565b5f82825260208201905092915050565b5f6131ca826131a6565b6131d481856131b0565b93506131e4818560208601612175565b6131ed81612183565b840191505092915050565b5f60808201905061320b5f830187612279565b6132186020830186612279565b6132256040830185612309565b818103606083015261323781846131c0565b905095945050505050565b5f815190506132508161206f565b92915050565b5f6020828403121561326b5761326a61203c565b5b5f61327884828501613242565b9150509291505056fea26469706673582212200a9b451da5fdebdcd00b74d37b738e73a5bb42a987ff882f26c512fb358b7f4864736f6c634300081a0033",
			"opcodes": "PUSH1 0x80 PUSH1 0x40 MSTORE PUSH1 0x40 MLOAD DUP1 PUSH1 0x40 ADD PUSH1 0x40 MSTORE DUP1 PUSH1 0x11 DUP2 MSTORE PUSH1 0x20 ADD PUSH32 0x5754462044757463682041756374696F6E000000000000000000000000000000 DUP2 MSTORE POP PUSH1 0x40 MLOAD DUP1 PUSH1 0x40 ADD PUSH1 0x40 MSTORE DUP1 PUSH1 0x11 DUP2 MSTORE PUSH1 0x20 ADD PUSH32 0x5754462044757463682041756374696F6E000000000000000000000000000000 DUP2 MSTORE POP CALLER PUSH0 PUSH20 0xFFFFFFFFFFFFFFFFFFFFFFFFFFFFFFFFFFFFFFFF AND DUP2 PUSH20 0xFFFFFFFFFFFFFFFFFFFFFFFFFFFFFFFFFFFFFFFF AND SUB PUSH2 0xE1 JUMPI PUSH0 PUSH1 0x40 MLOAD PUSH32 0x1E4FBDF700000000000000000000000000000000000000000000000000000000 DUP2 MSTORE PUSH1 0x4 ADD PUSH2 0xD8 SWAP2 SWAP1 PUSH2 0x226 JUMP JUMPDEST PUSH1 0x40 MLOAD DUP1 SWAP2 SUB SWAP1 REVERT JUMPDEST PUSH2 0xF0 DUP2 PUSH2 0x126 PUSH1 0x20 SHL PUSH1 0x20 SHR JUMP JUMPDEST POP DUP2 PUSH1 0x1 SWAP1 DUP2 PUSH2 0x100 SWAP2 SWAP1 PUSH2 0x479 JUMP JUMPDEST POP DUP1 PUSH1 0x2 SWAP1 DUP2 PUSH2 0x110 SWAP2 SWAP1 PUSH2 0x479 JUMP JUMPDEST POP POP POP TIMESTAMP PUSH1 0x7 DUP2 SWAP1 SSTORE POP CALLVALUE PUSH1 0xA DUP2 SWAP1 SSTORE POP PUSH2 0x548 JUMP JUMPDEST PUSH0 DUP1 PUSH0 SWAP1 SLOAD SWAP1 PUSH2 0x100 EXP SWAP1 DIV PUSH20 0xFFFFFFFFFFFFFFFFFFFFFFFFFFFFFFFFFFFFFFFF AND SWAP1 POP DUP2 PUSH0 DUP1 PUSH2 0x100 EXP DUP2 SLOAD DUP2 PUSH20 0xFFFFFFFFFFFFFFFFFFFFFFFFFFFFFFFFFFFFFFFF MUL NOT AND SWAP1 DUP4 PUSH20 0xFFFFFFFFFFFFFFFFFFFFFFFFFFFFFFFFFFFFFFFF AND MUL OR SWAP1 SSTORE POP DUP2 PUSH20 0xFFFFFFFFFFFFFFFFFFFFFFFFFFFFFFFFFFFFFFFF AND DUP2 PUSH20 0xFFFFFFFFFFFFFFFFFFFFFFFFFFFFFFFFFFFFFFFF AND PUSH32 0x8BE0079C531659141344CD1FD0A4F28419497F9722A3DAAFE3B4186F6B6457E0 PUSH1 0x40 MLOAD PUSH1 0x40 MLOAD DUP1 SWAP2 SUB SWAP1 LOG3 POP POP JUMP JUMPDEST PUSH0 PUSH20 0xFFFFFFFFFFFFFFFFFFFFFFFFFFFFFFFFFFFFFFFF DUP3 AND SWAP1 POP SWAP2 SWAP1 POP JUMP JUMPDEST PUSH0 PUSH2 0x210 DUP3 PUSH2 0x1E7 JUMP JUMPDEST SWAP1 POP SWAP2 SWAP1 POP JUMP JUMPDEST PUSH2 0x220 DUP2 PUSH2 0x206 JUMP JUMPDEST DUP3 MSTORE POP POP JUMP JUMPDEST PUSH0 PUSH1 0x20 DUP3 ADD SWAP1 POP PUSH2 0x239 PUSH0 DUP4 ADD DUP5 PUSH2 0x217 JUMP JUMPDEST SWAP3 SWAP2 POP POP JUMP JUMPDEST PUSH0 DUP2 MLOAD SWAP1 POP SWAP2 SWAP1 POP JUMP JUMPDEST PUSH32 0x4E487B7100000000000000000000000000000000000000000000000000000000 PUSH0 MSTORE PUSH1 0x41 PUSH1 0x4 MSTORE PUSH1 0x24 PUSH0 REVERT JUMPDEST PUSH32 0x4E487B7100000000000000000000000000000000000000000000000000000000 PUSH0 MSTORE PUSH1 0x22 PUSH1 0x4 MSTORE PUSH1 0x24 PUSH0 REVERT JUMPDEST PUSH0 PUSH1 0x2 DUP3 DIV SWAP1 POP PUSH1 0x1 DUP3 AND DUP1 PUSH2 0x2BA JUMPI PUSH1 0x7F DUP3 AND SWAP2 POP JUMPDEST PUSH1 0x20 DUP3 LT DUP2 SUB PUSH2 0x2CD JUMPI PUSH2 0x2CC PUSH2 0x276 JUMP JUMPDEST JUMPDEST POP SWAP2 SWAP1 POP JUMP JUMPDEST PUSH0 DUP2 SWAP1 POP DUP2 PUSH0 MSTORE PUSH1 0x20 PUSH0 KECCAK256 SWAP1 POP SWAP2 SWAP1 POP JUMP JUMPDEST PUSH0 PUSH1 0x20 PUSH1 0x1F DUP4 ADD DIV SWAP1 POP SWAP2 SWAP1 POP JUMP JUMPDEST PUSH0 DUP3 DUP3 SHL SWAP1 POP SWAP3 SWAP2 POP POP JUMP JUMPDEST PUSH0 PUSH1 0x8 DUP4 MUL PUSH2 0x32F PUSH32 0xFFFFFFFFFFFFFFFFFFFFFFFFFFFFFFFFFFFFFFFFFFFFFFFFFFFFFFFFFFFFFFFF DUP3 PUSH2 0x2F4 JUMP JUMPDEST PUSH2 0x339 DUP7 DUP4 PUSH2 0x2F4 JUMP JUMPDEST SWAP6 POP DUP1 NOT DUP5 AND SWAP4 POP DUP1 DUP7 AND DUP5 OR SWAP3 POP POP POP SWAP4 SWAP3 POP POP POP JUMP JUMPDEST PUSH0 DUP2 SWAP1 POP SWAP2 SWAP1 POP JUMP JUMPDEST PUSH0 DUP2 SWAP1 POP SWAP2 SWAP1 POP JUMP JUMPDEST PUSH0 PUSH2 0x37D PUSH2 0x378 PUSH2 0x373 DUP5 PUSH2 0x351 JUMP JUMPDEST PUSH2 0x35A JUMP JUMPDEST PUSH2 0x351 JUMP JUMPDEST SWAP1 POP SWAP2 SWAP1 POP JUMP JUMPDEST PUSH0 DUP2 SWAP1 POP SWAP2 SWAP1 POP JUMP JUMPDEST PUSH2 0x396 DUP4 PUSH2 0x363 JUMP JUMPDEST PUSH2 0x3AA PUSH2 0x3A2 DUP3 PUSH2 0x384 JUMP JUMPDEST DUP5 DUP5 SLOAD PUSH2 0x300 JUMP JUMPDEST DUP3 SSTORE POP POP POP POP JUMP JUMPDEST PUSH0 SWAP1 JUMP JUMPDEST PUSH2 0x3BE PUSH2 0x3B2 JUMP JUMPDEST PUSH2 0x3C9 DUP2 DUP5 DUP5 PUSH2 0x38D JUMP JUMPDEST POP POP POP JUMP JUMPDEST JUMPDEST DUP2 DUP2 LT ISZERO PUSH2 0x3EC JUMPI PUSH2 0x3E1 PUSH0 DUP3 PUSH2 0x3B6 JUMP JUMPDEST PUSH1 0x1 DUP2 ADD SWAP1 POP PUSH2 0x3CF JUMP JUMPDEST POP POP JUMP JUMPDEST PUSH1 0x1F DUP3 GT ISZERO PUSH2 0x431 JUMPI PUSH2 0x402 DUP2 PUSH2 0x2D3 JUMP JUMPDEST PUSH2 0x40B DUP5 PUSH2 0x2E5 JUMP JUMPDEST DUP2 ADD PUSH1 0x20 DUP6 LT ISZERO PUSH2 0x41A JUMPI DUP2 SWAP1 POP JUMPDEST PUSH2 0x42E PUSH2 0x426 DUP6 PUSH2 0x2E5 JUMP JUMPDEST DUP4 ADD DUP3 PUSH2 0x3CE JUMP JUMPDEST POP POP JUMPDEST POP POP POP JUMP JUMPDEST PUSH0 DUP3 DUP3 SHR SWAP1 POP SWAP3 SWAP2 POP POP JUMP JUMPDEST PUSH0 PUSH2 0x451 PUSH0 NOT DUP5 PUSH1 0x8 MUL PUSH2 0x436 JUMP JUMPDEST NOT DUP1 DUP4 AND SWAP2 POP POP SWAP3 SWAP2 POP POP JUMP JUMPDEST PUSH0 PUSH2 0x469 DUP4 DUP4 PUSH2 0x442 JUMP JUMPDEST SWAP2 POP DUP3 PUSH1 0x2 MUL DUP3 OR SWAP1 POP SWAP3 SWAP2 POP POP JUMP JUMPDEST PUSH2 0x482 DUP3 PUSH2 0x23F JUMP JUMPDEST PUSH8 0xFFFFFFFFFFFFFFFF DUP2 GT ISZERO PUSH2 0x49B JUMPI PUSH2 0x49A PUSH2 0x249 JUMP JUMPDEST JUMPDEST PUSH2 0x4A5 DUP3 SLOAD PUSH2 0x2A3 JUMP JUMPDEST PUSH2 0x4B0 DUP3 DUP3 DUP6 PUSH2 0x3F0 JUMP JUMPDEST PUSH0 PUSH1 0x20 SWAP1 POP PUSH1 0x1F DUP4 GT PUSH1 0x1 DUP2 EQ PUSH2 0x4E1 JUMPI PUSH0 DUP5 ISZERO PUSH2 0x4CF JUMPI DUP3 DUP8 ADD MLOAD SWAP1 POP JUMPDEST PUSH2 0x4D9 DUP6 DUP3 PUSH2 0x45E JUMP JUMPDEST DUP7 SSTORE POP PUSH2 0x540 JUMP JUMPDEST PUSH1 0x1F NOT DUP5 AND PUSH2 0x4EF DUP7 PUSH2 0x2D3 JUMP JUMPDEST PUSH0 JUMPDEST DUP3 DUP2 LT ISZERO PUSH2 0x516 JUMPI DUP5 DUP10 ADD MLOAD DUP3 SSTORE PUSH1 0x1 DUP3 ADD SWAP2 POP PUSH1 0x20 DUP6 ADD SWAP5 POP PUSH1 0x20 DUP2 ADD SWAP1 POP PUSH2 0x4F1 JUMP JUMPDEST DUP7 DUP4 LT ISZERO PUSH2 0x533 JUMPI DUP5 DUP10 ADD MLOAD PUSH2 0x52F PUSH1 0x1F DUP10 AND DUP3 PUSH2 0x442 JUMP JUMPDEST DUP4 SSTORE POP JUMPDEST PUSH1 0x1 PUSH1 0x2 DUP9 MUL ADD DUP9 SSTORE POP POP POP JUMPDEST POP POP POP POP POP POP JUMP JUMPDEST PUSH2 0x32B7 DUP1 PUSH2 0x555 PUSH0 CODECOPY PUSH0 RETURN INVALID PUSH1 0x80 PUSH1 0x40 MSTORE PUSH1 0x4 CALLDATASIZE LT PUSH2 0x1D7 JUMPI PUSH0 CALLDATALOAD PUSH1 0xE0 SHR DUP1 PUSH4 0x6B9241FC GT PUSH2 0x101 JUMPI DUP1 PUSH4 0xB88D4FDE GT PUSH2 0x94 JUMPI DUP1 PUSH4 0xE592301A GT PUSH2 0x63 JUMPI DUP1 PUSH4 0xE592301A EQ PUSH2 0x65F JUMPI DUP1 PUSH4 0xE985E9C5 EQ PUSH2 0x689 JUMPI DUP1 PUSH4 0xEB54F9EC EQ PUSH2 0x6C5 JUMPI DUP1 PUSH4 0xF2FDE38B EQ PUSH2 0x6EF JUMPI PUSH2 0x1D7 JUMP JUMPDEST DUP1 PUSH4 0xB88D4FDE EQ PUSH2 0x5A7 JUMPI DUP1 PUSH4 0xC87B56DD EQ PUSH2 0x5CF JUMPI DUP1 PUSH4 0xCAF8A6D1 EQ PUSH2 0x60B JUMPI DUP1 PUSH4 0xD8258D95 EQ PUSH2 0x635 JUMPI PUSH2 0x1D7 JUMP JUMPDEST DUP1 PUSH4 0x8DA5CB5B GT PUSH2 0xD0 JUMPI DUP1 PUSH4 0x8DA5CB5B EQ PUSH2 0x515 JUMPI DUP1 PUSH4 0x95D89B41 EQ PUSH2 0x53F JUMPI DUP1 PUSH4 0xA22CB465 EQ PUSH2 0x569 JUMPI DUP1 PUSH4 0xAC446002 EQ PUSH2 0x591 JUMPI PUSH2 0x1D7 JUMP JUMPDEST DUP1 PUSH4 0x6B9241FC EQ PUSH2 0x46F JUMPI DUP1 PUSH4 0x70A08231 EQ PUSH2 0x499 JUMPI DUP1 PUSH4 0x715018A6 EQ PUSH2 0x4D5 JUMPI DUP1 PUSH4 0x7A1C4A56 EQ PUSH2 0x4EB JUMPI PUSH2 0x1D7 JUMP JUMPDEST DUP1 PUSH4 0x2DDBD13A GT PUSH2 0x179 JUMPI DUP1 PUSH4 0x55F804B3 GT PUSH2 0x148 JUMPI DUP1 PUSH4 0x55F804B3 EQ PUSH2 0x3B7 JUMPI DUP1 PUSH4 0x59F369FE EQ PUSH2 0x3DF JUMPI DUP1 PUSH4 0x5CAE01D3 EQ PUSH2 0x409 JUMPI DUP1 PUSH4 0x6352211E EQ PUSH2 0x433 JUMPI PUSH2 0x1D7 JUMP JUMPDEST DUP1 PUSH4 0x2DDBD13A EQ PUSH2 0x31F JUMPI DUP1 PUSH4 0x42842E0E EQ PUSH2 0x349 JUMPI DUP1 PUSH4 0x4BD25C6F EQ PUSH2 0x371 JUMPI DUP1 PUSH4 0x4D3554C3 EQ PUSH2 0x39B JUMPI PUSH2 0x1D7 JUMP JUMPDEST DUP1 PUSH4 0x81812FC GT PUSH2 0x1B5 JUMPI DUP1 PUSH4 0x81812FC EQ PUSH2 0x269 JUMPI DUP1 PUSH4 0x95EA7B3 EQ PUSH2 0x2A5 JUMPI DUP1 PUSH4 0x18160DDD EQ PUSH2 0x2CD JUMPI DUP1 PUSH4 0x23B872DD EQ PUSH2 0x2F7 JUMPI PUSH2 0x1D7 JUMP JUMPDEST DUP1 PUSH4 0x1FFC9A7 EQ PUSH2 0x1DB JUMPI DUP1 PUSH4 0x697346F EQ PUSH2 0x217 JUMPI DUP1 PUSH4 0x6FDDE03 EQ PUSH2 0x23F JUMPI JUMPDEST PUSH0 DUP1 REVERT JUMPDEST CALLVALUE DUP1 ISZERO PUSH2 0x1E6 JUMPI PUSH0 DUP1 REVERT JUMPDEST POP PUSH2 0x201 PUSH1 0x4 DUP1 CALLDATASIZE SUB DUP2 ADD SWAP1 PUSH2 0x1FC SWAP2 SWAP1 PUSH2 0x2099 JUMP JUMPDEST PUSH2 0x717 JUMP JUMPDEST PUSH1 0x40 MLOAD PUSH2 0x20E SWAP2 SWAP1 PUSH2 0x20DE JUMP JUMPDEST PUSH1 0x40 MLOAD DUP1 SWAP2 SUB SWAP1 RETURN JUMPDEST CALLVALUE DUP1 ISZERO PUSH2 0x222 JUMPI PUSH0 DUP1 REVERT JUMPDEST POP PUSH2 0x23D PUSH1 0x4 DUP1 CALLDATASIZE SUB DUP2 ADD SWAP1 PUSH2 0x238 SWAP2 SWAP1 PUSH2 0x2130 JUMP JUMPDEST PUSH2 0x850 JUMP JUMPDEST STOP JUMPDEST CALLVALUE DUP1 ISZERO PUSH2 0x24A JUMPI PUSH0 DUP1 REVERT JUMPDEST POP PUSH2 0x253 PUSH2 0x868 JUMP JUMPDEST PUSH1 0x40 MLOAD PUSH2 0x260 SWAP2 SWAP1 PUSH2 0x21CB JUMP JUMPDEST PUSH1 0x40 MLOAD DUP1 SWAP2 SUB SWAP1 RETURN JUMPDEST CALLVALUE DUP1 ISZERO PUSH2 0x274 JUMPI PUSH0 DUP1 REVERT JUMPDEST POP PUSH2 0x28F PUSH1 0x4 DUP1 CALLDATASIZE SUB DUP2 ADD SWAP1 PUSH2 0x28A SWAP2 SWAP1 PUSH2 0x221E JUMP JUMPDEST PUSH2 0x8F4 JUMP JUMPDEST PUSH1 0x40 MLOAD PUSH2 0x29C SWAP2 SWAP1 PUSH2 0x2288 JUMP JUMPDEST PUSH1 0x40 MLOAD DUP1 SWAP2 SUB SWAP1 RETURN JUMPDEST CALLVALUE DUP1 ISZERO PUSH2 0x2B0 JUMPI PUSH0 DUP1 REVERT JUMPDEST POP PUSH2 0x2CB PUSH1 0x4 DUP1 CALLDATASIZE SUB DUP2 ADD SWAP1 PUSH2 0x2C6 SWAP2 SWAP1 PUSH2 0x22CB JUMP JUMPDEST PUSH2 0x9CB JUMP JUMPDEST STOP JUMPDEST CALLVALUE DUP1 ISZERO PUSH2 0x2D8 JUMPI PUSH0 DUP1 REVERT JUMPDEST POP PUSH2 0x2E1 PUSH2 0xB09 JUMP JUMPDEST PUSH1 0x40 MLOAD PUSH2 0x2EE SWAP2 SWAP1 PUSH2 0x2318 JUMP JUMPDEST PUSH1 0x40 MLOAD DUP1 SWAP2 SUB SWAP1 RETURN JUMPDEST CALLVALUE DUP1 ISZERO PUSH2 0x302 JUMPI PUSH0 DUP1 REVERT JUMPDEST POP PUSH2 0x31D PUSH1 0x4 DUP1 CALLDATASIZE SUB DUP2 ADD SWAP1 PUSH2 0x318 SWAP2 SWAP1 PUSH2 0x2331 JUMP JUMPDEST PUSH2 0xB15 JUMP JUMPDEST STOP JUMPDEST CALLVALUE DUP1 ISZERO PUSH2 0x32A JUMPI PUSH0 DUP1 REVERT JUMPDEST POP PUSH2 0x333 PUSH2 0xB7D JUMP JUMPDEST PUSH1 0x40 MLOAD PUSH2 0x340 SWAP2 SWAP1 PUSH2 0x2318 JUMP JUMPDEST PUSH1 0x40 MLOAD DUP1 SWAP2 SUB SWAP1 RETURN JUMPDEST CALLVALUE DUP1 ISZERO PUSH2 0x354 JUMPI PUSH0 DUP1 REVERT JUMPDEST POP PUSH2 0x36F PUSH1 0x4 DUP1 CALLDATASIZE SUB DUP2 ADD SWAP1 PUSH2 0x36A SWAP2 SWAP1 PUSH2 0x2331 JUMP JUMPDEST PUSH2 0xB83 JUMP JUMPDEST STOP JUMPDEST CALLVALUE DUP1 ISZERO PUSH2 0x37C JUMPI PUSH0 DUP1 REVERT JUMPDEST POP PUSH2 0x385 PUSH2 0xBA2 JUMP JUMPDEST PUSH1 0x40 MLOAD PUSH2 0x392 SWAP2 SWAP1 PUSH2 0x2318 JUMP JUMPDEST PUSH1 0x40 MLOAD DUP1 SWAP2 SUB SWAP1 RETURN JUMPDEST PUSH2 0x3B5 PUSH1 0x4 DUP1 CALLDATASIZE SUB DUP2 ADD SWAP1 PUSH2 0x3B0 SWAP2 SWAP1 PUSH2 0x221E JUMP JUMPDEST PUSH2 0xC5A JUMP JUMPDEST STOP JUMPDEST CALLVALUE DUP1 ISZERO PUSH2 0x3C2 JUMPI PUSH0 DUP1 REVERT JUMPDEST POP PUSH2 0x3DD PUSH1 0x4 DUP1 CALLDATASIZE SUB DUP2 ADD SWAP1 PUSH2 0x3D8 SWAP2 SWAP1 PUSH2 0x23E2 JUMP JUMPDEST PUSH2 0xDF3 JUMP JUMPDEST STOP JUMPDEST CALLVALUE DUP1 ISZERO PUSH2 0x3EA JUMPI PUSH0 DUP1 REVERT JUMPDEST POP PUSH2 0x3F3 PUSH2 0xE11 JUMP JUMPDEST PUSH1 0x40 MLOAD PUSH2 0x400 SWAP2 SWAP1 PUSH2 0x2318 JUMP JUMPDEST PUSH1 0x40 MLOAD DUP1 SWAP2 SUB SWAP1 RETURN JUMPDEST CALLVALUE DUP1 ISZERO PUSH2 0x414 JUMPI PUSH0 DUP1 REVERT JUMPDEST POP PUSH2 0x41D PUSH2 0xE49 JUMP JUMPDEST PUSH1 0x40 MLOAD PUSH2 0x42A SWAP2 SWAP1 PUSH2 0x2318 JUMP JUMPDEST PUSH1 0x40 MLOAD DUP1 SWAP2 SUB SWAP1 RETURN JUMPDEST CALLVALUE DUP1 ISZERO PUSH2 0x43E JUMPI PUSH0 DUP1 REVERT JUMPDEST POP PUSH2 0x459 PUSH1 0x4 DUP1 CALLDATASIZE SUB DUP2 ADD SWAP1 PUSH2 0x454 SWAP2 SWAP1 PUSH2 0x221E JUMP JUMPDEST PUSH2 0xE4E JUMP JUMPDEST PUSH1 0x40 MLOAD PUSH2 0x466 SWAP2 SWAP1 PUSH2 0x2288 JUMP JUMPDEST PUSH1 0x40 MLOAD DUP1 SWAP2 SUB SWAP1 RETURN JUMPDEST CALLVALUE DUP1 ISZERO PUSH2 0x47A JUMPI PUSH0 DUP1 REVERT JUMPDEST POP PUSH2 0x483 PUSH2 0xEF5 JUMP JUMPDEST PUSH1 0x40 MLOAD PUSH2 0x490 SWAP2 SWAP1 PUSH2 0x243C JUMP JUMPDEST PUSH1 0x40 MLOAD DUP1 SWAP2 SUB SWAP1 RETURN JUMPDEST CALLVALUE DUP1 ISZERO PUSH2 0x4A4 JUMPI PUSH0 DUP1 REVERT JUMPDEST POP PUSH2 0x4BF PUSH1 0x4 DUP1 CALLDATASIZE SUB DUP2 ADD SWAP1 PUSH2 0x4BA SWAP2 SWAP1 PUSH2 0x2455 JUMP JUMPDEST PUSH2 0xF1C JUMP JUMPDEST PUSH1 0x40 MLOAD PUSH2 0x4CC SWAP2 SWAP1 PUSH2 0x2318 JUMP JUMPDEST PUSH1 0x40 MLOAD DUP1 SWAP2 SUB SWAP1 RETURN JUMPDEST CALLVALUE DUP1 ISZERO PUSH2 0x4E0 JUMPI PUSH0 DUP1 REVERT JUMPDEST POP PUSH2 0x4E9 PUSH2 0xFD0 JUMP JUMPDEST STOP JUMPDEST CALLVALUE DUP1 ISZERO PUSH2 0x4F6 JUMPI PUSH0 DUP1 REVERT JUMPDEST POP PUSH2 0x4FF PUSH2 0xFE3 JUMP JUMPDEST PUSH1 0x40 MLOAD PUSH2 0x50C SWAP2 SWAP1 PUSH2 0x2318 JUMP JUMPDEST PUSH1 0x40 MLOAD DUP1 SWAP2 SUB SWAP1 RETURN JUMPDEST CALLVALUE DUP1 ISZERO PUSH2 0x520 JUMPI PUSH0 DUP1 REVERT JUMPDEST POP PUSH2 0x529 PUSH2 0xFEF JUMP JUMPDEST PUSH1 0x40 MLOAD PUSH2 0x536 SWAP2 SWAP1 PUSH2 0x2288 JUMP JUMPDEST PUSH1 0x40 MLOAD DUP1 SWAP2 SUB SWAP1 RETURN JUMPDEST CALLVALUE DUP1 ISZERO PUSH2 0x54A JUMPI PUSH0 DUP1 REVERT JUMPDEST POP PUSH2 0x553 PUSH2 0x1016 JUMP JUMPDEST PUSH1 0x40 MLOAD PUSH2 0x560 SWAP2 SWAP1 PUSH2 0x21CB JUMP JUMPDEST PUSH1 0x40 MLOAD DUP1 SWAP2 SUB SWAP1 RETURN JUMPDEST CALLVALUE DUP1 ISZERO PUSH2 0x574 JUMPI PUSH0 DUP1 REVERT JUMPDEST POP PUSH2 0x58F PUSH1 0x4 DUP1 CALLDATASIZE SUB DUP2 ADD SWAP1 PUSH2 0x58A SWAP2 SWAP1 PUSH2 0x24AA JUMP JUMPDEST PUSH2 0x10A2 JUMP JUMPDEST STOP JUMPDEST CALLVALUE DUP1 ISZERO PUSH2 0x59C JUMPI PUSH0 DUP1 REVERT JUMPDEST POP PUSH2 0x5A5 PUSH2 0x119A JUMP JUMPDEST STOP JUMPDEST CALLVALUE DUP1 ISZERO PUSH2 0x5B2 JUMPI PUSH0 DUP1 REVERT JUMPDEST POP PUSH2 0x5CD PUSH1 0x4 DUP1 CALLDATASIZE SUB DUP2 ADD SWAP1 PUSH2 0x5C8 SWAP2 SWAP1 PUSH2 0x2610 JUMP JUMPDEST PUSH2 0x124D JUMP JUMPDEST STOP JUMPDEST CALLVALUE DUP1 ISZERO PUSH2 0x5DA JUMPI PUSH0 DUP1 REVERT JUMPDEST POP PUSH2 0x5F5 PUSH1 0x4 DUP1 CALLDATASIZE SUB DUP2 ADD SWAP1 PUSH2 0x5F0 SWAP2 SWAP1 PUSH2 0x221E JUMP JUMPDEST PUSH2 0x12B7 JUMP JUMPDEST PUSH1 0x40 MLOAD PUSH2 0x602 SWAP2 SWAP1 PUSH2 0x21CB JUMP JUMPDEST PUSH1 0x40 MLOAD DUP1 SWAP2 SUB SWAP1 RETURN JUMPDEST CALLVALUE DUP1 ISZERO PUSH2 0x616 JUMPI PUSH0 DUP1 REVERT JUMPDEST POP PUSH2 0x61F PUSH2 0x13B1 JUMP JUMPDEST PUSH1 0x40 MLOAD PUSH2 0x62C SWAP2 SWAP1 PUSH2 0x2318 JUMP JUMPDEST PUSH1 0x40 MLOAD DUP1 SWAP2 SUB SWAP1 RETURN JUMPDEST CALLVALUE DUP1 ISZERO PUSH2 0x640 JUMPI PUSH0 DUP1 REVERT JUMPDEST POP PUSH2 0x649 PUSH2 0x13BD JUMP JUMPDEST PUSH1 0x40 MLOAD PUSH2 0x656 SWAP2 SWAP1 PUSH2 0x2318 JUMP JUMPDEST PUSH1 0x40 MLOAD DUP1 SWAP2 SUB SWAP1 RETURN JUMPDEST CALLVALUE DUP1 ISZERO PUSH2 0x66A JUMPI PUSH0 DUP1 REVERT JUMPDEST POP PUSH2 0x673 PUSH2 0x13C3 JUMP JUMPDEST PUSH1 0x40 MLOAD PUSH2 0x680 SWAP2 SWAP1 PUSH2 0x2318 JUMP JUMPDEST PUSH1 0x40 MLOAD DUP1 SWAP2 SUB SWAP1 RETURN JUMPDEST CALLVALUE DUP1 ISZERO PUSH2 0x694 JUMPI PUSH0 DUP1 REVERT JUMPDEST POP PUSH2 0x6AF PUSH1 0x4 DUP1 CALLDATASIZE SUB DUP2 ADD SWAP1 PUSH2 0x6AA SWAP2 SWAP1 PUSH2 0x2690 JUMP JUMPDEST PUSH2 0x13C9 JUMP JUMPDEST PUSH1 0x40 MLOAD PUSH2 0x6BC SWAP2 SWAP1 PUSH2 0x20DE JUMP JUMPDEST PUSH1 0x40 MLOAD DUP1 SWAP2 SUB SWAP1 RETURN JUMPDEST CALLVALUE DUP1 ISZERO PUSH2 0x6D0 JUMPI PUSH0 DUP1 REVERT JUMPDEST POP PUSH2 0x6D9 PUSH2 0x1457 JUMP JUMPDEST PUSH1 0x40 MLOAD PUSH2 0x6E6 SWAP2 SWAP1 PUSH2 0x2318 JUMP JUMPDEST PUSH1 0x40 MLOAD DUP1 SWAP2 SUB SWAP1 RETURN JUMPDEST CALLVALUE DUP1 ISZERO PUSH2 0x6FA JUMPI PUSH0 DUP1 REVERT JUMPDEST POP PUSH2 0x715 PUSH1 0x4 DUP1 CALLDATASIZE SUB DUP2 ADD SWAP1 PUSH2 0x710 SWAP2 SWAP1 PUSH2 0x2455 JUMP JUMPDEST PUSH2 0x145D JUMP JUMPDEST STOP JUMPDEST PUSH0 PUSH32 0x80AC58CD00000000000000000000000000000000000000000000000000000000 PUSH28 0xFFFFFFFFFFFFFFFFFFFFFFFFFFFFFFFFFFFFFFFFFFFFFFFFFFFFFFFF NOT AND DUP3 PUSH28 0xFFFFFFFFFFFFFFFFFFFFFFFFFFFFFFFFFFFFFFFFFFFFFFFFFFFFFFFF NOT AND EQ DUP1 PUSH2 0x7E1 JUMPI POP PUSH32 0x1FFC9A700000000000000000000000000000000000000000000000000000000 PUSH28 0xFFFFFFFFFFFFFFFFFFFFFFFFFFFFFFFFFFFFFFFFFFFFFFFFFFFFFFFF NOT AND DUP3 PUSH28 0xFFFFFFFFFFFFFFFFFFFFFFFFFFFFFFFFFFFFFFFFFFFFFFFFFFFFFFFF NOT AND EQ JUMPDEST DUP1 PUSH2 0x849 JUMPI POP PUSH32 0x5B5E139F00000000000000000000000000000000000000000000000000000000 PUSH28 0xFFFFFFFFFFFFFFFFFFFFFFFFFFFFFFFFFFFFFFFFFFFFFFFFFFFFFFFF NOT AND DUP3 PUSH28 0xFFFFFFFFFFFFFFFFFFFFFFFFFFFFFFFFFFFFFFFFFFFFFFFFFFFFFFFF NOT AND EQ JUMPDEST SWAP1 POP SWAP2 SWAP1 POP JUMP JUMPDEST PUSH2 0x858 PUSH2 0x14E1 JUMP JUMPDEST DUP1 PUSH4 0xFFFFFFFF AND PUSH1 0x7 DUP2 SWAP1 SSTORE POP POP JUMP JUMPDEST PUSH1 0x1 DUP1 SLOAD PUSH2 0x875 SWAP1 PUSH2 0x26FB JUMP JUMPDEST DUP1 PUSH1 0x1F ADD PUSH1 0x20 DUP1 SWAP2 DIV MUL PUSH1 0x20 ADD PUSH1 0x40 MLOAD SWAP1 DUP2 ADD PUSH1 0x40 MSTORE DUP1 SWAP3 SWAP2 SWAP1 DUP2 DUP2 MSTORE PUSH1 0x20 ADD DUP3 DUP1 SLOAD PUSH2 0x8A1 SWAP1 PUSH2 0x26FB JUMP JUMPDEST DUP1 ISZERO PUSH2 0x8EC JUMPI DUP1 PUSH1 0x1F LT PUSH2 0x8C3 JUMPI PUSH2 0x100 DUP1 DUP4 SLOAD DIV MUL DUP4 MSTORE SWAP2 PUSH1 0x20 ADD SWAP2 PUSH2 0x8EC JUMP JUMPDEST DUP3 ADD SWAP2 SWAP1 PUSH0 MSTORE PUSH1 0x20 PUSH0 KECCAK256 SWAP1 JUMPDEST DUP2 SLOAD DUP2 MSTORE SWAP1 PUSH1 0x1 ADD SWAP1 PUSH1 0x20 ADD DUP1 DUP4 GT PUSH2 0x8CF JUMPI DUP3 SWAP1 SUB PUSH1 0x1F AND DUP3 ADD SWAP2 JUMPDEST POP POP POP POP POP DUP2 JUMP JUMPDEST PUSH0 DUP1 PUSH20 0xFFFFFFFFFFFFFFFFFFFFFFFFFFFFFFFFFFFFFFFF AND PUSH1 0x3 PUSH0 DUP5 DUP2 MSTORE PUSH1 0x20 ADD SWAP1 DUP2 MSTORE PUSH1 0x20 ADD PUSH0 KECCAK256 PUSH0 SWAP1 SLOAD SWAP1 PUSH2 0x100 EXP SWAP1 DIV PUSH20 0xFFFFFFFFFFFFFFFFFFFFFFFFFFFFFFFFFFFFFFFF AND PUSH20 0xFFFFFFFFFFFFFFFFFFFFFFFFFFFFFFFFFFFFFFFF AND SUB PUSH2 0x993 JUMPI PUSH1 0x40 MLOAD PUSH32 0x8C379A000000000000000000000000000000000000000000000000000000000 DUP2 MSTORE PUSH1 0x4 ADD PUSH2 0x98A SWAP1 PUSH2 0x2775 JUMP JUMPDEST PUSH1 0x40 MLOAD DUP1 SWAP2 SUB SWAP1 REVERT JUMPDEST PUSH1 0x5 PUSH0 DUP4 DUP2 MSTORE PUSH1 0x20 ADD SWAP1 DUP2 MSTORE PUSH1 0x20 ADD PUSH0 KECCAK256 PUSH0 SWAP1 SLOAD SWAP1 PUSH2 0x100 EXP SWAP1 DIV PUSH20 0xFFFFFFFFFFFFFFFFFFFFFFFFFFFFFFFFFFFFFFFF AND SWAP1 POP SWAP2 SWAP1 POP JUMP JUMPDEST PUSH0 PUSH1 0x3 PUSH0 DUP4 DUP2 MSTORE PUSH1 0x20 ADD SWAP1 DUP2 MSTORE PUSH1 0x20 ADD PUSH0 KECCAK256 PUSH0 SWAP1 SLOAD SWAP1 PUSH2 0x100 EXP SWAP1 DIV PUSH20 0xFFFFFFFFFFFFFFFFFFFFFFFFFFFFFFFFFFFFFFFF AND SWAP1 POP DUP1 PUSH20 0xFFFFFFFFFFFFFFFFFFFFFFFFFFFFFFFFFFFFFFFF AND CALLER PUSH20 0xFFFFFFFFFFFFFFFFFFFFFFFFFFFFFFFFFFFFFFFF AND EQ DUP1 PUSH2 0xABA JUMPI POP PUSH1 0x6 PUSH0 DUP3 PUSH20 0xFFFFFFFFFFFFFFFFFFFFFFFFFFFFFFFFFFFFFFFF AND PUSH20 0xFFFFFFFFFFFFFFFFFFFFFFFFFFFFFFFFFFFFFFFF AND DUP2 MSTORE PUSH1 0x20 ADD SWAP1 DUP2 MSTORE PUSH1 0x20 ADD PUSH0 KECCAK256 PUSH0 CALLER PUSH20 0xFFFFFFFFFFFFFFFFFFFFFFFFFFFFFFFFFFFFFFFF AND PUSH20 0xFFFFFFFFFFFFFFFFFFFFFFFFFFFFFFFFFFFFFFFF AND DUP2 MSTORE PUSH1 0x20 ADD SWAP1 DUP2 MSTORE PUSH1 0x20 ADD PUSH0 KECCAK256 PUSH0 SWAP1 SLOAD SWAP1 PUSH2 0x100 EXP SWAP1 DIV PUSH1 0xFF AND JUMPDEST PUSH2 0xAF9 JUMPI PUSH1 0x40 MLOAD PUSH32 0x8C379A000000000000000000000000000000000000000000000000000000000 DUP2 MSTORE PUSH1 0x4 ADD PUSH2 0xAF0 SWAP1 PUSH2 0x27DD JUMP JUMPDEST PUSH1 0x40 MLOAD DUP1 SWAP2 SUB SWAP1 REVERT JUMPDEST PUSH2 0xB04 DUP2 DUP5 DUP5 PUSH2 0x1568 JUMP JUMPDEST POP POP POP JUMP JUMPDEST PUSH0 PUSH1 0x9 DUP1 SLOAD SWAP1 POP SWAP1 POP SWAP1 JUMP JUMPDEST PUSH0 PUSH2 0xB1F DUP3 PUSH2 0xE4E JUMP JUMPDEST SWAP1 POP PUSH2 0xB2C DUP2 CALLER DUP5 PUSH2 0x1617 JUMP JUMPDEST PUSH2 0xB6B JUMPI PUSH1 0x40 MLOAD PUSH32 0x8C379A000000000000000000000000000000000000000000000000000000000 DUP2 MSTORE PUSH1 0x4 ADD PUSH2 0xB62 SWAP1 PUSH2 0x2845 JUMP JUMPDEST PUSH1 0x40 MLOAD DUP1 SWAP2 SUB SWAP1 REVERT JUMPDEST PUSH2 0xB77 DUP2 DUP6 DUP6 DUP6 PUSH2 0x1742 JUMP JUMPDEST POP POP POP POP JUMP JUMPDEST PUSH1 0xA SLOAD DUP2 JUMP JUMPDEST PUSH2 0xB9D DUP4 DUP4 DUP4 PUSH1 0x40 MLOAD DUP1 PUSH1 0x20 ADD PUSH1 0x40 MSTORE DUP1 PUSH0 DUP2 MSTORE POP PUSH2 0x124D JUMP JUMPDEST POP POP POP JUMP JUMPDEST PUSH0 PUSH1 0x7 SLOAD TIMESTAMP LT ISZERO PUSH2 0xBBD JUMPI PUSH8 0xDE0B6B3A7640000 SWAP1 POP PUSH2 0xC57 JUMP JUMPDEST PUSH2 0x258 PUSH1 0x7 SLOAD TIMESTAMP PUSH2 0xBCE SWAP2 SWAP1 PUSH2 0x2890 JUMP JUMPDEST LT PUSH2 0xBE3 JUMPI PUSH8 0x16345785D8A0000 SWAP1 POP PUSH2 0xC57 JUMP JUMPDEST PUSH0 PUSH1 0x3C PUSH1 0x7 SLOAD TIMESTAMP PUSH2 0xBF4 SWAP2 SWAP1 PUSH2 0x2890 JUMP JUMPDEST PUSH2 0xBFE SWAP2 SWAP1 PUSH2 0x28F0 JUMP JUMPDEST SWAP1 POP PUSH1 0x3C PUSH2 0x258 PUSH2 0xC0F SWAP2 SWAP1 PUSH2 0x28F0 JUMP JUMPDEST PUSH8 0x16345785D8A0000 PUSH8 0xDE0B6B3A7640000 PUSH2 0xC2B SWAP2 SWAP1 PUSH2 0x2890 JUMP JUMPDEST PUSH2 0xC35 SWAP2 SWAP1 PUSH2 0x28F0 JUMP JUMPDEST DUP2 PUSH2 0xC40 SWAP2 SWAP1 PUSH2 0x2920 JUMP JUMPDEST PUSH8 0xDE0B6B3A7640000 PUSH2 0xC53 SWAP2 SWAP1 PUSH2 0x2890 JUMP JUMPDEST SWAP2 POP POP JUMPDEST SWAP1 JUMP JUMPDEST PUSH0 PUSH1 0x7 SLOAD SWAP1 POP PUSH0 DUP2 EQ ISZERO DUP1 ISZERO PUSH2 0xC70 JUMPI POP DUP1 TIMESTAMP LT ISZERO JUMPDEST PUSH2 0xCAF JUMPI PUSH1 0x40 MLOAD PUSH32 0x8C379A000000000000000000000000000000000000000000000000000000000 DUP2 MSTORE PUSH1 0x4 ADD PUSH2 0xCA6 SWAP1 PUSH2 0x29AB JUMP JUMPDEST PUSH1 0x40 MLOAD DUP1 SWAP2 SUB SWAP1 REVERT JUMPDEST PUSH2 0x2710 DUP3 PUSH2 0xCBB PUSH2 0xB09 JUMP JUMPDEST PUSH2 0xCC5 SWAP2 SWAP1 PUSH2 0x29C9 JUMP JUMPDEST GT ISZERO PUSH2 0xD06 JUMPI PUSH1 0x40 MLOAD PUSH32 0x8C379A000000000000000000000000000000000000000000000000000000000 DUP2 MSTORE PUSH1 0x4 ADD PUSH2 0xCFD SWAP1 PUSH2 0x2A92 JUMP JUMPDEST PUSH1 0x40 MLOAD DUP1 SWAP2 SUB SWAP1 REVERT JUMPDEST PUSH0 DUP3 PUSH2 0xD10 PUSH2 0xBA2 JUMP JUMPDEST PUSH2 0xD1A SWAP2 SWAP1 PUSH2 0x2920 JUMP JUMPDEST SWAP1 POP DUP1 CALLVALUE LT ISZERO PUSH2 0xD5F JUMPI PUSH1 0x40 MLOAD PUSH32 0x8C379A000000000000000000000000000000000000000000000000000000000 DUP2 MSTORE PUSH1 0x4 ADD PUSH2 0xD56 SWAP1 PUSH2 0x2AFA JUMP JUMPDEST PUSH1 0x40 MLOAD DUP1 SWAP2 SUB SWAP1 REVERT JUMPDEST PUSH0 JUMPDEST DUP4 DUP2 LT ISZERO PUSH2 0xD95 JUMPI PUSH0 PUSH2 0xD72 PUSH2 0xB09 JUMP JUMPDEST SWAP1 POP PUSH2 0xD7E CALLER DUP3 PUSH2 0x1981 JUMP JUMPDEST PUSH2 0xD87 DUP2 PUSH2 0x1B8F JUMP JUMPDEST POP DUP1 DUP1 PUSH1 0x1 ADD SWAP2 POP POP PUSH2 0xD61 JUMP JUMPDEST POP DUP1 CALLVALUE GT ISZERO PUSH2 0xDEE JUMPI CALLER PUSH20 0xFFFFFFFFFFFFFFFFFFFFFFFFFFFFFFFFFFFFFFFF AND PUSH2 0x8FC DUP3 CALLVALUE PUSH2 0xDC4 SWAP2 SWAP1 PUSH2 0x2890 JUMP JUMPDEST SWAP1 DUP2 ISZERO MUL SWAP1 PUSH1 0x40 MLOAD PUSH0 PUSH1 0x40 MLOAD DUP1 DUP4 SUB DUP2 DUP6 DUP9 DUP9 CALL SWAP4 POP POP POP POP ISZERO DUP1 ISZERO PUSH2 0xDEC JUMPI RETURNDATASIZE PUSH0 DUP1 RETURNDATACOPY RETURNDATASIZE PUSH0 REVERT JUMPDEST POP JUMPDEST POP POP POP JUMP JUMPDEST PUSH2 0xDFB PUSH2 0x14E1 JUMP JUMPDEST DUP2 DUP2 PUSH1 0x8 SWAP2 DUP3 PUSH2 0xE0C SWAP3 SWAP2 SWAP1 PUSH2 0x2CBF JUMP JUMPDEST POP POP POP JUMP JUMPDEST PUSH1 0x3C PUSH2 0x258 PUSH2 0xE20 SWAP2 SWAP1 PUSH2 0x28F0 JUMP JUMPDEST PUSH8 0x16345785D8A0000 PUSH8 0xDE0B6B3A7640000 PUSH2 0xE3C SWAP2 SWAP1 PUSH2 0x2890 JUMP JUMPDEST PUSH2 0xE46 SWAP2 SWAP1 PUSH2 0x28F0 JUMP JUMPDEST DUP2 JUMP JUMPDEST PUSH1 0x3C DUP2 JUMP JUMPDEST PUSH0 PUSH1 0x3 PUSH0 DUP4 DUP2 MSTORE PUSH1 0x20 ADD SWAP1 DUP2 MSTORE PUSH1 0x20 ADD PUSH0 KECCAK256 PUSH0 SWAP1 SLOAD SWAP1 PUSH2 0x100 EXP SWAP1 DIV PUSH20 0xFFFFFFFFFFFFFFFFFFFFFFFFFFFFFFFFFFFFFFFF AND SWAP1 POP PUSH0 PUSH20 0xFFFFFFFFFFFFFFFFFFFFFFFFFFFFFFFFFFFFFFFF AND DUP2 PUSH20 0xFFFFFFFFFFFFFFFFFFFFFFFFFFFFFFFFFFFFFFFF AND SUB PUSH2 0xEF0 JUMPI PUSH1 0x40 MLOAD PUSH32 0x8C379A000000000000000000000000000000000000000000000000000000000 DUP2 MSTORE PUSH1 0x4 ADD PUSH2 0xEE7 SWAP1 PUSH2 0x2775 JUMP JUMPDEST PUSH1 0x40 MLOAD DUP1 SWAP2 SUB SWAP1 REVERT JUMPDEST SWAP2 SWAP1 POP JUMP JUMPDEST PUSH0 PUSH32 0x150B7A0200000000000000000000000000000000000000000000000000000000 SWAP1 POP SWAP1 JUMP JUMPDEST PUSH0 DUP1 PUSH20 0xFFFFFFFFFFFFFFFFFFFFFFFFFFFFFFFFFFFFFFFF AND DUP3 PUSH20 0xFFFFFFFFFFFFFFFFFFFFFFFFFFFFFFFFFFFFFFFF AND SUB PUSH2 0xF8B JUMPI PUSH1 0x40 MLOAD PUSH32 0x8C379A000000000000000000000000000000000000000000000000000000000 DUP2 MSTORE PUSH1 0x4 ADD PUSH2 0xF82 SWAP1 PUSH2 0x2DD6 JUMP JUMPDEST PUSH1 0x40 MLOAD DUP1 SWAP2 SUB SWAP1 REVERT JUMPDEST PUSH1 0x4 PUSH0 DUP4 PUSH20 0xFFFFFFFFFFFFFFFFFFFFFFFFFFFFFFFFFFFFFFFF AND PUSH20 0xFFFFFFFFFFFFFFFFFFFFFFFFFFFFFFFFFFFFFFFF AND DUP2 MSTORE PUSH1 0x20 ADD SWAP1 DUP2 MSTORE PUSH1 0x20 ADD PUSH0 KECCAK256 SLOAD SWAP1 POP SWAP2 SWAP1 POP JUMP JUMPDEST PUSH2 0xFD8 PUSH2 0x14E1 JUMP JUMPDEST PUSH2 0xFE1 PUSH0 PUSH2 0x1BB8 JUMP JUMPDEST JUMP JUMPDEST PUSH8 0xDE0B6B3A7640000 DUP2 JUMP JUMPDEST PUSH0 DUP1 PUSH0 SWAP1 SLOAD SWAP1 PUSH2 0x100 EXP SWAP1 DIV PUSH20 0xFFFFFFFFFFFFFFFFFFFFFFFFFFFFFFFFFFFFFFFF AND SWAP1 POP SWAP1 JUMP JUMPDEST PUSH1 0x2 DUP1 SLOAD PUSH2 0x1023 SWAP1 PUSH2 0x26FB JUMP JUMPDEST DUP1 PUSH1 0x1F ADD PUSH1 0x20 DUP1 SWAP2 DIV MUL PUSH1 0x20 ADD PUSH1 0x40 MLOAD SWAP1 DUP2 ADD PUSH1 0x40 MSTORE DUP1 SWAP3 SWAP2 SWAP1 DUP2 DUP2 MSTORE PUSH1 0x20 ADD DUP3 DUP1 SLOAD PUSH2 0x104F SWAP1 PUSH2 0x26FB JUMP JUMPDEST DUP1 ISZERO PUSH2 0x109A JUMPI DUP1 PUSH1 0x1F LT PUSH2 0x1071 JUMPI PUSH2 0x100 DUP1 DUP4 SLOAD DIV MUL DUP4 MSTORE SWAP2 PUSH1 0x20 ADD SWAP2 PUSH2 0x109A JUMP JUMPDEST DUP3 ADD SWAP2 SWAP1 PUSH0 MSTORE PUSH1 0x20 PUSH0 KECCAK256 SWAP1 JUMPDEST DUP2 SLOAD DUP2 MSTORE SWAP1 PUSH1 0x1 ADD SWAP1 PUSH1 0x20 ADD DUP1 DUP4 GT PUSH2 0x107D JUMPI DUP3 SWAP1 SUB PUSH1 0x1F AND DUP3 ADD SWAP2 JUMPDEST POP POP POP POP POP DUP2 JUMP JUMPDEST DUP1 PUSH1 0x6 PUSH0 CALLER PUSH20 0xFFFFFFFFFFFFFFFFFFFFFFFFFFFFFFFFFFFFFFFF AND PUSH20 0xFFFFFFFFFFFFFFFFFFFFFFFFFFFFFFFFFFFFFFFF AND DUP2 MSTORE PUSH1 0x20 ADD SWAP1 DUP2 MSTORE PUSH1 0x20 ADD PUSH0 KECCAK256 PUSH0 DUP5 PUSH20 0xFFFFFFFFFFFFFFFFFFFFFFFFFFFFFFFFFFFFFFFF AND PUSH20 0xFFFFFFFFFFFFFFFFFFFFFFFFFFFFFFFFFFFFFFFF AND DUP2 MSTORE PUSH1 0x20 ADD SWAP1 DUP2 MSTORE PUSH1 0x20 ADD PUSH0 KECCAK256 PUSH0 PUSH2 0x100 EXP DUP2 SLOAD DUP2 PUSH1 0xFF MUL NOT AND SWAP1 DUP4 ISZERO ISZERO MUL OR SWAP1 SSTORE POP DUP2 PUSH20 0xFFFFFFFFFFFFFFFFFFFFFFFFFFFFFFFFFFFFFFFF AND CALLER PUSH20 0xFFFFFFFFFFFFFFFFFFFFFFFFFFFFFFFFFFFFFFFF AND PUSH32 0x17307EAB39AB6107E8899845AD3D59BD9653F200F220920489CA2B5937696C31 DUP4 PUSH1 0x40 MLOAD PUSH2 0x118E SWAP2 SWAP1 PUSH2 0x20DE JUMP JUMPDEST PUSH1 0x40 MLOAD DUP1 SWAP2 SUB SWAP1 LOG3 POP POP JUMP JUMPDEST PUSH2 0x11A2 PUSH2 0x14E1 JUMP JUMPDEST PUSH0 CALLER PUSH20 0xFFFFFFFFFFFFFFFFFFFFFFFFFFFFFFFFFFFFFFFF AND SELFBALANCE PUSH1 0x40 MLOAD PUSH2 0x11C7 SWAP1 PUSH2 0x2E21 JUMP JUMPDEST PUSH0 PUSH1 0x40 MLOAD DUP1 DUP4 SUB DUP2 DUP6 DUP8 GAS CALL SWAP3 POP POP POP RETURNDATASIZE DUP1 PUSH0 DUP2 EQ PUSH2 0x1201 JUMPI PUSH1 0x40 MLOAD SWAP2 POP PUSH1 0x1F NOT PUSH1 0x3F RETURNDATASIZE ADD AND DUP3 ADD PUSH1 0x40 MSTORE RETURNDATASIZE DUP3 MSTORE RETURNDATASIZE PUSH0 PUSH1 0x20 DUP5 ADD RETURNDATACOPY PUSH2 0x1206 JUMP JUMPDEST PUSH1 0x60 SWAP2 POP JUMPDEST POP POP SWAP1 POP DUP1 PUSH2 0x124A JUMPI PUSH1 0x40 MLOAD PUSH32 0x8C379A000000000000000000000000000000000000000000000000000000000 DUP2 MSTORE PUSH1 0x4 ADD PUSH2 0x1241 SWAP1 PUSH2 0x2E7F JUMP JUMPDEST PUSH1 0x40 MLOAD DUP1 SWAP2 SUB SWAP1 REVERT JUMPDEST POP JUMP JUMPDEST PUSH0 PUSH2 0x1257 DUP4 PUSH2 0xE4E JUMP JUMPDEST SWAP1 POP PUSH2 0x1264 DUP2 CALLER DUP6 PUSH2 0x1617 JUMP JUMPDEST PUSH2 0x12A3 JUMPI PUSH1 0x40 MLOAD PUSH32 0x8C379A000000000000000000000000000000000000000000000000000000000 DUP2 MSTORE PUSH1 0x4 ADD PUSH2 0x129A SWAP1 PUSH2 0x2845 JUMP JUMPDEST PUSH1 0x40 MLOAD DUP1 SWAP2 SUB SWAP1 REVERT JUMPDEST PUSH2 0x12B0 DUP2 DUP7 DUP7 DUP7 DUP7 PUSH2 0x1C79 JUMP JUMPDEST POP POP POP POP POP JUMP JUMPDEST PUSH1 0x60 PUSH0 PUSH20 0xFFFFFFFFFFFFFFFFFFFFFFFFFFFFFFFFFFFFFFFF AND PUSH1 0x3 PUSH0 DUP5 DUP2 MSTORE PUSH1 0x20 ADD SWAP1 DUP2 MSTORE PUSH1 0x20 ADD PUSH0 KECCAK256 PUSH0 SWAP1 SLOAD SWAP1 PUSH2 0x100 EXP SWAP1 DIV PUSH20 0xFFFFFFFFFFFFFFFFFFFFFFFFFFFFFFFFFFFFFFFF AND PUSH20 0xFFFFFFFFFFFFFFFFFFFFFFFFFFFFFFFFFFFFFFFF AND SUB PUSH2 0x1357 JUMPI PUSH1 0x40 MLOAD PUSH32 0x8C379A000000000000000000000000000000000000000000000000000000000 DUP2 MSTORE PUSH1 0x4 ADD PUSH2 0x134E SWAP1 PUSH2 0x2EE7 JUMP JUMPDEST PUSH1 0x40 MLOAD DUP1 SWAP2 SUB SWAP1 REVERT JUMPDEST PUSH0 PUSH2 0x1360 PUSH2 0x1C98 JUMP JUMPDEST SWAP1 POP PUSH0 DUP2 MLOAD GT PUSH2 0x137E JUMPI PUSH1 0x40 MLOAD DUP1 PUSH1 0x20 ADD PUSH1 0x40 MSTORE DUP1 PUSH0 DUP2 MSTORE POP PUSH2 0x13A9 JUMP JUMPDEST DUP1 PUSH2 0x1388 DUP5 PUSH2 0x1D28 JUMP JUMPDEST PUSH1 0x40 MLOAD PUSH1 0x20 ADD PUSH2 0x1399 SWAP3 SWAP2 SWAP1 PUSH2 0x2F3F JUMP JUMPDEST PUSH1 0x40 MLOAD PUSH1 0x20 DUP2 DUP4 SUB SUB DUP2 MSTORE SWAP1 PUSH1 0x40 MSTORE JUMPDEST SWAP2 POP POP SWAP2 SWAP1 POP JUMP JUMPDEST PUSH8 0x16345785D8A0000 DUP2 JUMP JUMPDEST PUSH2 0x2710 DUP2 JUMP JUMPDEST PUSH2 0x258 DUP2 JUMP JUMPDEST PUSH0 PUSH1 0x6 PUSH0 DUP5 PUSH20 0xFFFFFFFFFFFFFFFFFFFFFFFFFFFFFFFFFFFFFFFF AND PUSH20 0xFFFFFFFFFFFFFFFFFFFFFFFFFFFFFFFFFFFFFFFF AND DUP2 MSTORE PUSH1 0x20 ADD SWAP1 DUP2 MSTORE PUSH1 0x20 ADD PUSH0 KECCAK256 PUSH0 DUP4 PUSH20 0xFFFFFFFFFFFFFFFFFFFFFFFFFFFFFFFFFFFFFFFF AND PUSH20 0xFFFFFFFFFFFFFFFFFFFFFFFFFFFFFFFFFFFFFFFF AND DUP2 MSTORE PUSH1 0x20 ADD SWAP1 DUP2 MSTORE PUSH1 0x20 ADD PUSH0 KECCAK256 PUSH0 SWAP1 SLOAD SWAP1 PUSH2 0x100 EXP SWAP1 DIV PUSH1 0xFF AND SWAP1 POP SWAP3 SWAP2 POP POP JUMP JUMPDEST PUSH1 0x7 SLOAD DUP2 JUMP JUMPDEST PUSH2 0x1465 PUSH2 0x14E1 JUMP JUMPDEST PUSH0 PUSH20 0xFFFFFFFFFFFFFFFFFFFFFFFFFFFFFFFFFFFFFFFF AND DUP2 PUSH20 0xFFFFFFFFFFFFFFFFFFFFFFFFFFFFFFFFFFFFFFFF AND SUB PUSH2 0x14D5 JUMPI PUSH0 PUSH1 0x40 MLOAD PUSH32 0x1E4FBDF700000000000000000000000000000000000000000000000000000000 DUP2 MSTORE PUSH1 0x4 ADD PUSH2 0x14CC SWAP2 SWAP1 PUSH2 0x2288 JUMP JUMPDEST PUSH1 0x40 MLOAD DUP1 SWAP2 SUB SWAP1 REVERT JUMPDEST PUSH2 0x14DE DUP2 PUSH2 0x1BB8 JUMP JUMPDEST POP JUMP JUMPDEST PUSH2 0x14E9 PUSH2 0x1E81 JUMP JUMPDEST PUSH20 0xFFFFFFFFFFFFFFFFFFFFFFFFFFFFFFFFFFFFFFFF AND PUSH2 0x1507 PUSH2 0xFEF JUMP JUMPDEST PUSH20 0xFFFFFFFFFFFFFFFFFFFFFFFFFFFFFFFFFFFFFFFF AND EQ PUSH2 0x1566 JUMPI PUSH2 0x152A PUSH2 0x1E81 JUMP JUMPDEST PUSH1 0x40 MLOAD PUSH32 0x118CDAA700000000000000000000000000000000000000000000000000000000 DUP2 MSTORE PUSH1 0x4 ADD PUSH2 0x155D SWAP2 SWAP1 PUSH2 0x2288 JUMP JUMPDEST PUSH1 0x40 MLOAD DUP1 SWAP2 SUB SWAP1 REVERT JUMPDEST JUMP JUMPDEST DUP2 PUSH1 0x5 PUSH0 DUP4 DUP2 MSTORE PUSH1 0x20 ADD SWAP1 DUP2 MSTORE PUSH1 0x20 ADD PUSH0 KECCAK256 PUSH0 PUSH2 0x100 EXP DUP2 SLOAD DUP2 PUSH20 0xFFFFFFFFFFFFFFFFFFFFFFFFFFFFFFFFFFFFFFFF MUL NOT AND SWAP1 DUP4 PUSH20 0xFFFFFFFFFFFFFFFFFFFFFFFFFFFFFFFFFFFFFFFF AND MUL OR SWAP1 SSTORE POP DUP1 DUP3 PUSH20 0xFFFFFFFFFFFFFFFFFFFFFFFFFFFFFFFFFFFFFFFF AND DUP5 PUSH20 0xFFFFFFFFFFFFFFFFFFFFFFFFFFFFFFFFFFFFFFFF AND PUSH32 0x8C5BE1E5EBEC7D5BD14F71427D1E84F3DD0314C0F7B2291E5B200AC8C7C3B925 PUSH1 0x40 MLOAD PUSH1 0x40 MLOAD DUP1 SWAP2 SUB SWAP1 LOG4 POP POP POP JUMP JUMPDEST PUSH0 DUP4 PUSH20 0xFFFFFFFFFFFFFFFFFFFFFFFFFFFFFFFFFFFFFFFF AND DUP4 PUSH20 0xFFFFFFFFFFFFFFFFFFFFFFFFFFFFFFFFFFFFFFFF AND EQ DUP1 PUSH2 0x16AD JUMPI POP DUP3 PUSH20 0xFFFFFFFFFFFFFFFFFFFFFFFFFFFFFFFFFFFFFFFF AND PUSH1 0x5 PUSH0 DUP5 DUP2 MSTORE PUSH1 0x20 ADD SWAP1 DUP2 MSTORE PUSH1 0x20 ADD PUSH0 KECCAK256 PUSH0 SWAP1 SLOAD SWAP1 PUSH2 0x100 EXP SWAP1 DIV PUSH20 0xFFFFFFFFFFFFFFFFFFFFFFFFFFFFFFFFFFFFFFFF AND PUSH20 0xFFFFFFFFFFFFFFFFFFFFFFFFFFFFFFFFFFFFFFFF AND EQ JUMPDEST DUP1 PUSH2 0x1739 JUMPI POP PUSH1 0x6 PUSH0 DUP6 PUSH20 0xFFFFFFFFFFFFFFFFFFFFFFFFFFFFFFFFFFFFFFFF AND PUSH20 0xFFFFFFFFFFFFFFFFFFFFFFFFFFFFFFFFFFFFFFFF AND DUP2 MSTORE PUSH1 0x20 ADD SWAP1 DUP2 MSTORE PUSH1 0x20 ADD PUSH0 KECCAK256 PUSH0 DUP5 PUSH20 0xFFFFFFFFFFFFFFFFFFFFFFFFFFFFFFFFFFFFFFFF AND PUSH20 0xFFFFFFFFFFFFFFFFFFFFFFFFFFFFFFFFFFFFFFFF AND DUP2 MSTORE PUSH1 0x20 ADD SWAP1 DUP2 MSTORE PUSH1 0x20 ADD PUSH0 KECCAK256 PUSH0 SWAP1 SLOAD SWAP1 PUSH2 0x100 EXP SWAP1 DIV PUSH1 0xFF AND JUMPDEST SWAP1 POP SWAP4 SWAP3 POP POP POP JUMP JUMPDEST DUP4 PUSH20 0xFFFFFFFFFFFFFFFFFFFFFFFFFFFFFFFFFFFFFFFF AND DUP4 PUSH20 0xFFFFFFFFFFFFFFFFFFFFFFFFFFFFFFFFFFFFFFFF AND EQ PUSH2 0x17B0 JUMPI PUSH1 0x40 MLOAD PUSH32 0x8C379A000000000000000000000000000000000000000000000000000000000 DUP2 MSTORE PUSH1 0x4 ADD PUSH2 0x17A7 SWAP1 PUSH2 0x2FAC JUMP JUMPDEST PUSH1 0x40 MLOAD DUP1 SWAP2 SUB SWAP1 REVERT JUMPDEST PUSH0 PUSH20 0xFFFFFFFFFFFFFFFFFFFFFFFFFFFFFFFFFFFFFFFF AND DUP3 PUSH20 0xFFFFFFFFFFFFFFFFFFFFFFFFFFFFFFFFFFFFFFFF AND SUB PUSH2 0x181E JUMPI PUSH1 0x40 MLOAD PUSH32 0x8C379A000000000000000000000000000000000000000000000000000000000 DUP2 MSTORE PUSH1 0x4 ADD PUSH2 0x1815 SWAP1 PUSH2 0x3014 JUMP JUMPDEST PUSH1 0x40 MLOAD DUP1 SWAP2 SUB SWAP1 REVERT JUMPDEST PUSH2 0x1829 DUP5 PUSH0 DUP4 PUSH2 0x1568 JUMP JUMPDEST PUSH1 0x1 PUSH1 0x4 PUSH0 DUP6 PUSH20 0xFFFFFFFFFFFFFFFFFFFFFFFFFFFFFFFFFFFFFFFF AND PUSH20 0xFFFFFFFFFFFFFFFFFFFFFFFFFFFFFFFFFFFFFFFF AND DUP2 MSTORE PUSH1 0x20 ADD SWAP1 DUP2 MSTORE PUSH1 0x20 ADD PUSH0 KECCAK256 PUSH0 DUP3 DUP3 SLOAD PUSH2 0x1876 SWAP2 SWAP1 PUSH2 0x2890 JUMP JUMPDEST SWAP3 POP POP DUP2 SWAP1 SSTORE POP PUSH1 0x1 PUSH1 0x4 PUSH0 DUP5 PUSH20 0xFFFFFFFFFFFFFFFFFFFFFFFFFFFFFFFFFFFFFFFF AND PUSH20 0xFFFFFFFFFFFFFFFFFFFFFFFFFFFFFFFFFFFFFFFF AND DUP2 MSTORE PUSH1 0x20 ADD SWAP1 DUP2 MSTORE PUSH1 0x20 ADD PUSH0 KECCAK256 PUSH0 DUP3 DUP3 SLOAD PUSH2 0x18CA SWAP2 SWAP1 PUSH2 0x29C9 JUMP JUMPDEST SWAP3 POP POP DUP2 SWAP1 SSTORE POP DUP2 PUSH1 0x3 PUSH0 DUP4 DUP2 MSTORE PUSH1 0x20 ADD SWAP1 DUP2 MSTORE PUSH1 0x20 ADD PUSH0 KECCAK256 PUSH0 PUSH2 0x100 EXP DUP2 SLOAD DUP2 PUSH20 0xFFFFFFFFFFFFFFFFFFFFFFFFFFFFFFFFFFFFFFFF MUL NOT AND SWAP1 DUP4 PUSH20 0xFFFFFFFFFFFFFFFFFFFFFFFFFFFFFFFFFFFFFFFF AND MUL OR SWAP1 SSTORE POP DUP1 DUP3 PUSH20 0xFFFFFFFFFFFFFFFFFFFFFFFFFFFFFFFFFFFFFFFF AND DUP5 PUSH20 0xFFFFFFFFFFFFFFFFFFFFFFFFFFFFFFFFFFFFFFFF AND PUSH32 0xDDF252AD1BE2C89B69C2B068FC378DAA952BA7F163C4A11628F55A4DF523B3EF PUSH1 0x40 MLOAD PUSH1 0x40 MLOAD DUP1 SWAP2 SUB SWAP1 LOG4 POP POP POP POP JUMP JUMPDEST PUSH0 PUSH20 0xFFFFFFFFFFFFFFFFFFFFFFFFFFFFFFFFFFFFFFFF AND DUP3 PUSH20 0xFFFFFFFFFFFFFFFFFFFFFFFFFFFFFFFFFFFFFFFF AND SUB PUSH2 0x19EF JUMPI PUSH1 0x40 MLOAD PUSH32 0x8C379A000000000000000000000000000000000000000000000000000000000 DUP2 MSTORE PUSH1 0x4 ADD PUSH2 0x19E6 SWAP1 PUSH2 0x307C JUMP JUMPDEST PUSH1 0x40 MLOAD DUP1 SWAP2 SUB SWAP1 REVERT JUMPDEST PUSH0 PUSH20 0xFFFFFFFFFFFFFFFFFFFFFFFFFFFFFFFFFFFFFFFF AND PUSH1 0x3 PUSH0 DUP4 DUP2 MSTORE PUSH1 0x20 ADD SWAP1 DUP2 MSTORE PUSH1 0x20 ADD PUSH0 KECCAK256 PUSH0 SWAP1 SLOAD SWAP1 PUSH2 0x100 EXP SWAP1 DIV PUSH20 0xFFFFFFFFFFFFFFFFFFFFFFFFFFFFFFFFFFFFFFFF AND PUSH20 0xFFFFFFFFFFFFFFFFFFFFFFFFFFFFFFFFFFFFFFFF AND EQ PUSH2 0x1A8D JUMPI PUSH1 0x40 MLOAD PUSH32 0x8C379A000000000000000000000000000000000000000000000000000000000 DUP2 MSTORE PUSH1 0x4 ADD PUSH2 0x1A84 SWAP1 PUSH2 0x30E4 JUMP JUMPDEST PUSH1 0x40 MLOAD DUP1 SWAP2 SUB SWAP1 REVERT JUMPDEST PUSH1 0x1 PUSH1 0x4 PUSH0 DUP5 PUSH20 0xFFFFFFFFFFFFFFFFFFFFFFFFFFFFFFFFFFFFFFFF AND PUSH20 0xFFFFFFFFFFFFFFFFFFFFFFFFFFFFFFFFFFFFFFFF AND DUP2 MSTORE PUSH1 0x20 ADD SWAP1 DUP2 MSTORE PUSH1 0x20 ADD PUSH0 KECCAK256 PUSH0 DUP3 DUP3 SLOAD PUSH2 0x1ADA SWAP2 SWAP1 PUSH2 0x29C9 JUMP JUMPDEST SWAP3 POP POP DUP2 SWAP1 SSTORE POP DUP2 PUSH1 0x3 PUSH0 DUP4 DUP2 MSTORE PUSH1 0x20 ADD SWAP1 DUP2 MSTORE PUSH1 0x20 ADD PUSH0 KECCAK256 PUSH0 PUSH2 0x100 EXP DUP2 SLOAD DUP2 PUSH20 0xFFFFFFFFFFFFFFFFFFFFFFFFFFFFFFFFFFFFFFFF MUL NOT AND SWAP1 DUP4 PUSH20 0xFFFFFFFFFFFFFFFFFFFFFFFFFFFFFFFFFFFFFFFF AND MUL OR SWAP1 SSTORE POP DUP1 DUP3 PUSH20 0xFFFFFFFFFFFFFFFFFFFFFFFFFFFFFFFFFFFFFFFF AND PUSH0 PUSH20 0xFFFFFFFFFFFFFFFFFFFFFFFFFFFFFFFFFFFFFFFF AND PUSH32 0xDDF252AD1BE2C89B69C2B068FC378DAA952BA7F163C4A11628F55A4DF523B3EF PUSH1 0x40 MLOAD PUSH1 0x40 MLOAD DUP1 SWAP2 SUB SWAP1 LOG4 POP POP JUMP JUMPDEST PUSH1 0x9 DUP2 SWAP1 DUP1 PUSH1 0x1 DUP2 SLOAD ADD DUP1 DUP3 SSTORE DUP1 SWAP2 POP POP PUSH1 0x1 SWAP1 SUB SWAP1 PUSH0 MSTORE PUSH1 0x20 PUSH0 KECCAK256 ADD PUSH0 SWAP1 SWAP2 SWAP1 SWAP2 SWAP1 SWAP2 POP SSTORE POP JUMP JUMPDEST PUSH0 DUP1 PUSH0 SWAP1 SLOAD SWAP1 PUSH2 0x100 EXP SWAP1 DIV PUSH20 0xFFFFFFFFFFFFFFFFFFFFFFFFFFFFFFFFFFFFFFFF AND SWAP1 POP DUP2 PUSH0 DUP1 PUSH2 0x100 EXP DUP2 SLOAD DUP2 PUSH20 0xFFFFFFFFFFFFFFFFFFFFFFFFFFFFFFFFFFFFFFFF MUL NOT AND SWAP1 DUP4 PUSH20 0xFFFFFFFFFFFFFFFFFFFFFFFFFFFFFFFFFFFFFFFF AND MUL OR SWAP1 SSTORE POP DUP2 PUSH20 0xFFFFFFFFFFFFFFFFFFFFFFFFFFFFFFFFFFFFFFFF AND DUP2 PUSH20 0xFFFFFFFFFFFFFFFFFFFFFFFFFFFFFFFFFFFFFFFF AND PUSH32 0x8BE0079C531659141344CD1FD0A4F28419497F9722A3DAAFE3B4186F6B6457E0 PUSH1 0x40 MLOAD PUSH1 0x40 MLOAD DUP1 SWAP2 SUB SWAP1 LOG3 POP POP JUMP JUMPDEST PUSH2 0x1C85 DUP6 DUP6 DUP6 DUP6 PUSH2 0x1742 JUMP JUMPDEST PUSH2 0x1C91 DUP5 DUP5 DUP5 DUP5 PUSH2 0x1E88 JUMP JUMPDEST POP POP POP POP POP JUMP JUMPDEST PUSH1 0x60 PUSH1 0x8 DUP1 SLOAD PUSH2 0x1CA7 SWAP1 PUSH2 0x26FB JUMP JUMPDEST DUP1 PUSH1 0x1F ADD PUSH1 0x20 DUP1 SWAP2 DIV MUL PUSH1 0x20 ADD PUSH1 0x40 MLOAD SWAP1 DUP2 ADD PUSH1 0x40 MSTORE DUP1 SWAP3 SWAP2 SWAP1 DUP2 DUP2 MSTORE PUSH1 0x20 ADD DUP3 DUP1 SLOAD PUSH2 0x1CD3 SWAP1 PUSH2 0x26FB JUMP JUMPDEST DUP1 ISZERO PUSH2 0x1D1E JUMPI DUP1 PUSH1 0x1F LT PUSH2 0x1CF5 JUMPI PUSH2 0x100 DUP1 DUP4 SLOAD DIV MUL DUP4 MSTORE SWAP2 PUSH1 0x20 ADD SWAP2 PUSH2 0x1D1E JUMP JUMPDEST DUP3 ADD SWAP2 SWAP1 PUSH0 MSTORE PUSH1 0x20 PUSH0 KECCAK256 SWAP1 JUMPDEST DUP2 SLOAD DUP2 MSTORE SWAP1 PUSH1 0x1 ADD SWAP1 PUSH1 0x20 ADD DUP1 DUP4 GT PUSH2 0x1D01 JUMPI DUP3 SWAP1 SUB PUSH1 0x1F AND DUP3 ADD SWAP2 JUMPDEST POP POP POP POP POP SWAP1 POP SWAP1 JUMP JUMPDEST PUSH1 0x60 PUSH0 DUP3 SUB PUSH2 0x1D6E JUMPI PUSH1 0x40 MLOAD DUP1 PUSH1 0x40 ADD PUSH1 0x40 MSTORE DUP1 PUSH1 0x1 DUP2 MSTORE PUSH1 0x20 ADD PUSH32 0x3000000000000000000000000000000000000000000000000000000000000000 DUP2 MSTORE POP SWAP1 POP PUSH2 0x1E7C JUMP JUMPDEST PUSH0 DUP3 SWAP1 POP PUSH0 JUMPDEST PUSH0 DUP3 EQ PUSH2 0x1D9D JUMPI DUP1 DUP1 PUSH2 0x1D86 SWAP1 PUSH2 0x3102 JUMP JUMPDEST SWAP2 POP POP PUSH1 0xA DUP3 PUSH2 0x1D96 SWAP2 SWAP1 PUSH2 0x28F0 JUMP JUMPDEST SWAP2 POP PUSH2 0x1D74 JUMP JUMPDEST PUSH0 DUP2 PUSH8 0xFFFFFFFFFFFFFFFF DUP2 GT ISZERO PUSH2 0x1DB8 JUMPI PUSH2 0x1DB7 PUSH2 0x24EC JUMP JUMPDEST JUMPDEST PUSH1 0x40 MLOAD SWAP1 DUP1 DUP3 MSTORE DUP1 PUSH1 0x1F ADD PUSH1 0x1F NOT AND PUSH1 0x20 ADD DUP3 ADD PUSH1 0x40 MSTORE DUP1 ISZERO PUSH2 0x1DEA JUMPI DUP2 PUSH1 0x20 ADD PUSH1 0x1 DUP3 MUL DUP1 CALLDATASIZE DUP4 CALLDATACOPY DUP1 DUP3 ADD SWAP2 POP POP SWAP1 POP JUMPDEST POP SWAP1 POP JUMPDEST PUSH0 DUP6 EQ PUSH2 0x1E75 JUMPI PUSH1 0x1 DUP3 PUSH2 0x1E02 SWAP2 SWAP1 PUSH2 0x2890 JUMP JUMPDEST SWAP2 POP PUSH1 0xA DUP6 PUSH2 0x1E11 SWAP2 SWAP1 PUSH2 0x3149 JUMP JUMPDEST PUSH1 0x30 PUSH2 0x1E1D SWAP2 SWAP1 PUSH2 0x29C9 JUMP JUMPDEST PUSH1 0xF8 SHL DUP2 DUP4 DUP2 MLOAD DUP2 LT PUSH2 0x1E33 JUMPI PUSH2 0x1E32 PUSH2 0x3179 JUMP JUMPDEST JUMPDEST PUSH1 0x20 ADD ADD SWAP1 PUSH31 0xFFFFFFFFFFFFFFFFFFFFFFFFFFFFFFFFFFFFFFFFFFFFFFFFFFFFFFFFFFFFFF NOT AND SWAP1 DUP2 PUSH0 BYTE SWAP1 MSTORE8 POP PUSH1 0xA DUP6 PUSH2 0x1E6E SWAP2 SWAP1 PUSH2 0x28F0 JUMP JUMPDEST SWAP5 POP PUSH2 0x1DEE JUMP JUMPDEST DUP1 SWAP4 POP POP POP POP JUMPDEST SWAP2 SWAP1 POP JUMP JUMPDEST PUSH0 CALLER SWAP1 POP SWAP1 JUMP JUMPDEST PUSH0 DUP4 PUSH20 0xFFFFFFFFFFFFFFFFFFFFFFFFFFFFFFFFFFFFFFFF AND EXTCODESIZE GT ISZERO PUSH2 0x202D JUMPI DUP3 PUSH20 0xFFFFFFFFFFFFFFFFFFFFFFFFFFFFFFFFFFFFFFFF AND PUSH4 0x150B7A02 CALLER DUP7 DUP6 DUP6 PUSH1 0x40 MLOAD DUP6 PUSH4 0xFFFFFFFF AND PUSH1 0xE0 SHL DUP2 MSTORE PUSH1 0x4 ADD PUSH2 0x1EE6 SWAP5 SWAP4 SWAP3 SWAP2 SWAP1 PUSH2 0x31F8 JUMP JUMPDEST PUSH1 0x20 PUSH1 0x40 MLOAD DUP1 DUP4 SUB DUP2 PUSH0 DUP8 GAS CALL SWAP3 POP POP POP DUP1 ISZERO PUSH2 0x1F21 JUMPI POP PUSH1 0x40 MLOAD RETURNDATASIZE PUSH1 0x1F NOT PUSH1 0x1F DUP3 ADD AND DUP3 ADD DUP1 PUSH1 0x40 MSTORE POP DUP2 ADD SWAP1 PUSH2 0x1F1E SWAP2 SWAP1 PUSH2 0x3256 JUMP JUMPDEST PUSH1 0x1 JUMPDEST PUSH2 0x1FA2 JUMPI RETURNDATASIZE DUP1 PUSH0 DUP2 EQ PUSH2 0x1F4F JUMPI PUSH1 0x40 MLOAD SWAP2 POP PUSH1 0x1F NOT PUSH1 0x3F RETURNDATASIZE ADD AND DUP3 ADD PUSH1 0x40 MSTORE RETURNDATASIZE DUP3 MSTORE RETURNDATASIZE PUSH0 PUSH1 0x20 DUP5 ADD RETURNDATACOPY PUSH2 0x1F54 JUMP JUMPDEST PUSH1 0x60 SWAP2 POP JUMPDEST POP PUSH0 DUP2 MLOAD SUB PUSH2 0x1F9A JUMPI DUP4 PUSH1 0x40 MLOAD PUSH32 0x64A0AE9200000000000000000000000000000000000000000000000000000000 DUP2 MSTORE PUSH1 0x4 ADD PUSH2 0x1F91 SWAP2 SWAP1 PUSH2 0x2288 JUMP JUMPDEST PUSH1 0x40 MLOAD DUP1 SWAP2 SUB SWAP1 REVERT JUMPDEST DUP1 MLOAD DUP2 PUSH1 0x20 ADD REVERT JUMPDEST PUSH4 0x150B7A02 PUSH1 0xE0 SHL PUSH28 0xFFFFFFFFFFFFFFFFFFFFFFFFFFFFFFFFFFFFFFFFFFFFFFFFFFFFFFFF NOT AND DUP2 PUSH28 0xFFFFFFFFFFFFFFFFFFFFFFFFFFFFFFFFFFFFFFFFFFFFFFFFFFFFFFFF NOT AND EQ PUSH2 0x202B JUMPI DUP4 PUSH1 0x40 MLOAD PUSH32 0x64A0AE9200000000000000000000000000000000000000000000000000000000 DUP2 MSTORE PUSH1 0x4 ADD PUSH2 0x2022 SWAP2 SWAP1 PUSH2 0x2288 JUMP JUMPDEST PUSH1 0x40 MLOAD DUP1 SWAP2 SUB SWAP1 REVERT JUMPDEST POP JUMPDEST POP POP POP POP JUMP JUMPDEST PUSH0 PUSH1 0x40 MLOAD SWAP1 POP SWAP1 JUMP JUMPDEST PUSH0 DUP1 REVERT JUMPDEST PUSH0 DUP1 REVERT JUMPDEST PUSH0 PUSH32 0xFFFFFFFF00000000000000000000000000000000000000000000000000000000 DUP3 AND SWAP1 POP SWAP2 SWAP1 POP JUMP JUMPDEST PUSH2 0x2078 DUP2 PUSH2 0x2044 JUMP JUMPDEST DUP2 EQ PUSH2 0x2082 JUMPI PUSH0 DUP1 REVERT JUMPDEST POP JUMP JUMPDEST PUSH0 DUP2 CALLDATALOAD SWAP1 POP PUSH2 0x2093 DUP2 PUSH2 0x206F JUMP JUMPDEST SWAP3 SWAP2 POP POP JUMP JUMPDEST PUSH0 PUSH1 0x20 DUP3 DUP5 SUB SLT ISZERO PUSH2 0x20AE JUMPI PUSH2 0x20AD PUSH2 0x203C JUMP JUMPDEST JUMPDEST PUSH0 PUSH2 0x20BB DUP5 DUP3 DUP6 ADD PUSH2 0x2085 JUMP JUMPDEST SWAP2 POP POP SWAP3 SWAP2 POP POP JUMP JUMPDEST PUSH0 DUP2 ISZERO ISZERO SWAP1 POP SWAP2 SWAP1 POP JUMP JUMPDEST PUSH2 0x20D8 DUP2 PUSH2 0x20C4 JUMP JUMPDEST DUP3 MSTORE POP POP JUMP JUMPDEST PUSH0 PUSH1 0x20 DUP3 ADD SWAP1 POP PUSH2 0x20F1 PUSH0 DUP4 ADD DUP5 PUSH2 0x20CF JUMP JUMPDEST SWAP3 SWAP2 POP POP JUMP JUMPDEST PUSH0 PUSH4 0xFFFFFFFF DUP3 AND SWAP1 POP SWAP2 SWAP1 POP JUMP JUMPDEST PUSH2 0x210F DUP2 PUSH2 0x20F7 JUMP JUMPDEST DUP2 EQ PUSH2 0x2119 JUMPI PUSH0 DUP1 REVERT JUMPDEST POP JUMP JUMPDEST PUSH0 DUP2 CALLDATALOAD SWAP1 POP PUSH2 0x212A DUP2 PUSH2 0x2106 JUMP JUMPDEST SWAP3 SWAP2 POP POP JUMP JUMPDEST PUSH0 PUSH1 0x20 DUP3 DUP5 SUB SLT ISZERO PUSH2 0x2145 JUMPI PUSH2 0x2144 PUSH2 0x203C JUMP JUMPDEST JUMPDEST PUSH0 PUSH2 0x2152 DUP5 DUP3 DUP6 ADD PUSH2 0x211C JUMP JUMPDEST SWAP2 POP POP SWAP3 SWAP2 POP POP JUMP JUMPDEST PUSH0 DUP2 MLOAD SWAP1 POP SWAP2 SWAP1 POP JUMP JUMPDEST PUSH0 DUP3 DUP3 MSTORE PUSH1 0x20 DUP3 ADD SWAP1 POP SWAP3 SWAP2 POP POP JUMP JUMPDEST DUP3 DUP2 DUP4 MCOPY PUSH0 DUP4 DUP4 ADD MSTORE POP POP POP JUMP JUMPDEST PUSH0 PUSH1 0x1F NOT PUSH1 0x1F DUP4 ADD AND SWAP1 POP SWAP2 SWAP1 POP JUMP JUMPDEST PUSH0 PUSH2 0x219D DUP3 PUSH2 0x215B JUMP JUMPDEST PUSH2 0x21A7 DUP2 DUP6 PUSH2 0x2165 JUMP JUMPDEST SWAP4 POP PUSH2 0x21B7 DUP2 DUP6 PUSH1 0x20 DUP7 ADD PUSH2 0x2175 JUMP JUMPDEST PUSH2 0x21C0 DUP2 PUSH2 0x2183 JUMP JUMPDEST DUP5 ADD SWAP2 POP POP SWAP3 SWAP2 POP POP JUMP JUMPDEST PUSH0 PUSH1 0x20 DUP3 ADD SWAP1 POP DUP2 DUP2 SUB PUSH0 DUP4 ADD MSTORE PUSH2 0x21E3 DUP2 DUP5 PUSH2 0x2193 JUMP JUMPDEST SWAP1 POP SWAP3 SWAP2 POP POP JUMP JUMPDEST PUSH0 DUP2 SWAP1 POP SWAP2 SWAP1 POP JUMP JUMPDEST PUSH2 0x21FD DUP2 PUSH2 0x21EB JUMP JUMPDEST DUP2 EQ PUSH2 0x2207 JUMPI PUSH0 DUP1 REVERT JUMPDEST POP JUMP JUMPDEST PUSH0 DUP2 CALLDATALOAD SWAP1 POP PUSH2 0x2218 DUP2 PUSH2 0x21F4 JUMP JUMPDEST SWAP3 SWAP2 POP POP JUMP JUMPDEST PUSH0 PUSH1 0x20 DUP3 DUP5 SUB SLT ISZERO PUSH2 0x2233 JUMPI PUSH2 0x2232 PUSH2 0x203C JUMP JUMPDEST JUMPDEST PUSH0 PUSH2 0x2240 DUP5 DUP3 DUP6 ADD PUSH2 0x220A JUMP JUMPDEST SWAP2 POP POP SWAP3 SWAP2 POP POP JUMP JUMPDEST PUSH0 PUSH20 0xFFFFFFFFFFFFFFFFFFFFFFFFFFFFFFFFFFFFFFFF DUP3 AND SWAP1 POP SWAP2 SWAP1 POP JUMP JUMPDEST PUSH0 PUSH2 0x2272 DUP3 PUSH2 0x2249 JUMP JUMPDEST SWAP1 POP SWAP2 SWAP1 POP JUMP JUMPDEST PUSH2 0x2282 DUP2 PUSH2 0x2268 JUMP JUMPDEST DUP3 MSTORE POP POP JUMP JUMPDEST PUSH0 PUSH1 0x20 DUP3 ADD SWAP1 POP PUSH2 0x229B PUSH0 DUP4 ADD DUP5 PUSH2 0x2279 JUMP JUMPDEST SWAP3 SWAP2 POP POP JUMP JUMPDEST PUSH2 0x22AA DUP2 PUSH2 0x2268 JUMP JUMPDEST DUP2 EQ PUSH2 0x22B4 JUMPI PUSH0 DUP1 REVERT JUMPDEST POP JUMP JUMPDEST PUSH0 DUP2 CALLDATALOAD SWAP1 POP PUSH2 0x22C5 DUP2 PUSH2 0x22A1 JUMP JUMPDEST SWAP3 SWAP2 POP POP JUMP JUMPDEST PUSH0 DUP1 PUSH1 0x40 DUP4 DUP6 SUB SLT ISZERO PUSH2 0x22E1 JUMPI PUSH2 0x22E0 PUSH2 0x203C JUMP JUMPDEST JUMPDEST PUSH0 PUSH2 0x22EE DUP6 DUP3 DUP7 ADD PUSH2 0x22B7 JUMP JUMPDEST SWAP3 POP POP PUSH1 0x20 PUSH2 0x22FF DUP6 DUP3 DUP7 ADD PUSH2 0x220A JUMP JUMPDEST SWAP2 POP POP SWAP3 POP SWAP3 SWAP1 POP JUMP JUMPDEST PUSH2 0x2312 DUP2 PUSH2 0x21EB JUMP JUMPDEST DUP3 MSTORE POP POP JUMP JUMPDEST PUSH0 PUSH1 0x20 DUP3 ADD SWAP1 POP PUSH2 0x232B PUSH0 DUP4 ADD DUP5 PUSH2 0x2309 JUMP JUMPDEST SWAP3 SWAP2 POP POP JUMP JUMPDEST PUSH0 DUP1 PUSH0 PUSH1 0x60 DUP5 DUP7 SUB SLT ISZERO PUSH2 0x2348 JUMPI PUSH2 0x2347 PUSH2 0x203C JUMP JUMPDEST JUMPDEST PUSH0 PUSH2 0x2355 DUP7 DUP3 DUP8 ADD PUSH2 0x22B7 JUMP JUMPDEST SWAP4 POP POP PUSH1 0x20 PUSH2 0x2366 DUP7 DUP3 DUP8 ADD PUSH2 0x22B7 JUMP JUMPDEST SWAP3 POP POP PUSH1 0x40 PUSH2 0x2377 DUP7 DUP3 DUP8 ADD PUSH2 0x220A JUMP JUMPDEST SWAP2 POP POP SWAP3 POP SWAP3 POP SWAP3 JUMP JUMPDEST PUSH0 DUP1 REVERT JUMPDEST PUSH0 DUP1 REVERT JUMPDEST PUSH0 DUP1 REVERT JUMPDEST PUSH0 DUP1 DUP4 PUSH1 0x1F DUP5 ADD SLT PUSH2 0x23A2 JUMPI PUSH2 0x23A1 PUSH2 0x2381 JUMP JUMPDEST JUMPDEST DUP3 CALLDATALOAD SWAP1 POP PUSH8 0xFFFFFFFFFFFFFFFF DUP2 GT ISZERO PUSH2 0x23BF JUMPI PUSH2 0x23BE PUSH2 0x2385 JUMP JUMPDEST JUMPDEST PUSH1 0x20 DUP4 ADD SWAP2 POP DUP4 PUSH1 0x1 DUP3 MUL DUP4 ADD GT ISZERO PUSH2 0x23DB JUMPI PUSH2 0x23DA PUSH2 0x2389 JUMP JUMPDEST JUMPDEST SWAP3 POP SWAP3 SWAP1 POP JUMP JUMPDEST PUSH0 DUP1 PUSH1 0x20 DUP4 DUP6 SUB SLT ISZERO PUSH2 0x23F8 JUMPI PUSH2 0x23F7 PUSH2 0x203C JUMP JUMPDEST JUMPDEST PUSH0 DUP4 ADD CALLDATALOAD PUSH8 0xFFFFFFFFFFFFFFFF DUP2 GT ISZERO PUSH2 0x2415 JUMPI PUSH2 0x2414 PUSH2 0x2040 JUMP JUMPDEST JUMPDEST PUSH2 0x2421 DUP6 DUP3 DUP7 ADD PUSH2 0x238D JUMP JUMPDEST SWAP3 POP SWAP3 POP POP SWAP3 POP SWAP3 SWAP1 POP JUMP JUMPDEST PUSH2 0x2436 DUP2 PUSH2 0x2044 JUMP JUMPDEST DUP3 MSTORE POP POP JUMP JUMPDEST PUSH0 PUSH1 0x20 DUP3 ADD SWAP1 POP PUSH2 0x244F PUSH0 DUP4 ADD DUP5 PUSH2 0x242D JUMP JUMPDEST SWAP3 SWAP2 POP POP JUMP JUMPDEST PUSH0 PUSH1 0x20 DUP3 DUP5 SUB SLT ISZERO PUSH2 0x246A JUMPI PUSH2 0x2469 PUSH2 0x203C JUMP JUMPDEST JUMPDEST PUSH0 PUSH2 0x2477 DUP5 DUP3 DUP6 ADD PUSH2 0x22B7 JUMP JUMPDEST SWAP2 POP POP SWAP3 SWAP2 POP POP JUMP JUMPDEST PUSH2 0x2489 DUP2 PUSH2 0x20C4 JUMP JUMPDEST DUP2 EQ PUSH2 0x2493 JUMPI PUSH0 DUP1 REVERT JUMPDEST POP JUMP JUMPDEST PUSH0 DUP2 CALLDATALOAD SWAP1 POP PUSH2 0x24A4 DUP2 PUSH2 0x2480 JUMP JUMPDEST SWAP3 SWAP2 POP POP JUMP JUMPDEST PUSH0 DUP1 PUSH1 0x40 DUP4 DUP6 SUB SLT ISZERO PUSH2 0x24C0 JUMPI PUSH2 0x24BF PUSH2 0x203C JUMP JUMPDEST JUMPDEST PUSH0 PUSH2 0x24CD DUP6 DUP3 DUP7 ADD PUSH2 0x22B7 JUMP JUMPDEST SWAP3 POP POP PUSH1 0x20 PUSH2 0x24DE DUP6 DUP3 DUP7 ADD PUSH2 0x2496 JUMP JUMPDEST SWAP2 POP POP SWAP3 POP SWAP3 SWAP1 POP JUMP JUMPDEST PUSH0 DUP1 REVERT JUMPDEST PUSH32 0x4E487B7100000000000000000000000000000000000000000000000000000000 PUSH0 MSTORE PUSH1 0x41 PUSH1 0x4 MSTORE PUSH1 0x24 PUSH0 REVERT JUMPDEST PUSH2 0x2522 DUP3 PUSH2 0x2183 JUMP JUMPDEST DUP2 ADD DUP2 DUP2 LT PUSH8 0xFFFFFFFFFFFFFFFF DUP3 GT OR ISZERO PUSH2 0x2541 JUMPI PUSH2 0x2540 PUSH2 0x24EC JUMP JUMPDEST JUMPDEST DUP1 PUSH1 0x40 MSTORE POP POP POP JUMP JUMPDEST PUSH0 PUSH2 0x2553 PUSH2 0x2033 JUMP JUMPDEST SWAP1 POP PUSH2 0x255F DUP3 DUP3 PUSH2 0x2519 JUMP JUMPDEST SWAP2 SWAP1 POP JUMP JUMPDEST PUSH0 PUSH8 0xFFFFFFFFFFFFFFFF DUP3 GT ISZERO PUSH2 0x257E JUMPI PUSH2 0x257D PUSH2 0x24EC JUMP JUMPDEST JUMPDEST PUSH2 0x2587 DUP3 PUSH2 0x2183 JUMP JUMPDEST SWAP1 POP PUSH1 0x20 DUP2 ADD SWAP1 POP SWAP2 SWAP1 POP JUMP JUMPDEST DUP3 DUP2 DUP4 CALLDATACOPY PUSH0 DUP4 DUP4 ADD MSTORE POP POP POP JUMP JUMPDEST PUSH0 PUSH2 0x25B4 PUSH2 0x25AF DUP5 PUSH2 0x2564 JUMP JUMPDEST PUSH2 0x254A JUMP JUMPDEST SWAP1 POP DUP3 DUP2 MSTORE PUSH1 0x20 DUP2 ADD DUP5 DUP5 DUP5 ADD GT ISZERO PUSH2 0x25D0 JUMPI PUSH2 0x25CF PUSH2 0x24E8 JUMP JUMPDEST JUMPDEST PUSH2 0x25DB DUP5 DUP3 DUP6 PUSH2 0x2594 JUMP JUMPDEST POP SWAP4 SWAP3 POP POP POP JUMP JUMPDEST PUSH0 DUP3 PUSH1 0x1F DUP4 ADD SLT PUSH2 0x25F7 JUMPI PUSH2 0x25F6 PUSH2 0x2381 JUMP JUMPDEST JUMPDEST DUP2 CALLDATALOAD PUSH2 0x2607 DUP5 DUP3 PUSH1 0x20 DUP7 ADD PUSH2 0x25A2 JUMP JUMPDEST SWAP2 POP POP SWAP3 SWAP2 POP POP JUMP JUMPDEST PUSH0 DUP1 PUSH0 DUP1 PUSH1 0x80 DUP6 DUP8 SUB SLT ISZERO PUSH2 0x2628 JUMPI PUSH2 0x2627 PUSH2 0x203C JUMP JUMPDEST JUMPDEST PUSH0 PUSH2 0x2635 DUP8 DUP3 DUP9 ADD PUSH2 0x22B7 JUMP JUMPDEST SWAP5 POP POP PUSH1 0x20 PUSH2 0x2646 DUP8 DUP3 DUP9 ADD PUSH2 0x22B7 JUMP JUMPDEST SWAP4 POP POP PUSH1 0x40 PUSH2 0x2657 DUP8 DUP3 DUP9 ADD PUSH2 0x220A JUMP JUMPDEST SWAP3 POP POP PUSH1 0x60 DUP6 ADD CALLDATALOAD PUSH8 0xFFFFFFFFFFFFFFFF DUP2 GT ISZERO PUSH2 0x2678 JUMPI PUSH2 0x2677 PUSH2 0x2040 JUMP JUMPDEST JUMPDEST PUSH2 0x2684 DUP8 DUP3 DUP9 ADD PUSH2 0x25E3 JUMP JUMPDEST SWAP2 POP POP SWAP3 SWAP6 SWAP2 SWAP5 POP SWAP3 POP JUMP JUMPDEST PUSH0 DUP1 PUSH1 0x40 DUP4 DUP6 SUB SLT ISZERO PUSH2 0x26A6 JUMPI PUSH2 0x26A5 PUSH2 0x203C JUMP JUMPDEST JUMPDEST PUSH0 PUSH2 0x26B3 DUP6 DUP3 DUP7 ADD PUSH2 0x22B7 JUMP JUMPDEST SWAP3 POP POP PUSH1 0x20 PUSH2 0x26C4 DUP6 DUP3 DUP7 ADD PUSH2 0x22B7 JUMP JUMPDEST SWAP2 POP POP SWAP3 POP SWAP3 SWAP1 POP JUMP JUMPDEST PUSH32 0x4E487B7100000000000000000000000000000000000000000000000000000000 PUSH0 MSTORE PUSH1 0x22 PUSH1 0x4 MSTORE PUSH1 0x24 PUSH0 REVERT JUMPDEST PUSH0 PUSH1 0x2 DUP3 DIV SWAP1 POP PUSH1 0x1 DUP3 AND DUP1 PUSH2 0x2712 JUMPI PUSH1 0x7F DUP3 AND SWAP2 POP JUMPDEST PUSH1 0x20 DUP3 LT DUP2 SUB PUSH2 0x2725 JUMPI PUSH2 0x2724 PUSH2 0x26CE JUMP JUMPDEST JUMPDEST POP SWAP2 SWAP1 POP JUMP JUMPDEST PUSH32 0x746F6B656E20646F65736E277420657869737400000000000000000000000000 PUSH0 DUP3 ADD MSTORE POP JUMP JUMPDEST PUSH0 PUSH2 0x275F PUSH1 0x13 DUP4 PUSH2 0x2165 JUMP JUMPDEST SWAP2 POP PUSH2 0x276A DUP3 PUSH2 0x272B JUMP JUMPDEST PUSH1 0x20 DUP3 ADD SWAP1 POP SWAP2 SWAP1 POP JUMP JUMPDEST PUSH0 PUSH1 0x20 DUP3 ADD SWAP1 POP DUP2 DUP2 SUB PUSH0 DUP4 ADD MSTORE PUSH2 0x278C DUP2 PUSH2 0x2753 JUMP JUMPDEST SWAP1 POP SWAP2 SWAP1 POP JUMP JUMPDEST PUSH32 0x6E6F74206F776E6572206E6F7220617070726F76656420666F7220616C6C0000 PUSH0 DUP3 ADD MSTORE POP JUMP JUMPDEST PUSH0 PUSH2 0x27C7 PUSH1 0x1E DUP4 PUSH2 0x2165 JUMP JUMPDEST SWAP2 POP PUSH2 0x27D2 DUP3 PUSH2 0x2793 JUMP JUMPDEST PUSH1 0x20 DUP3 ADD SWAP1 POP SWAP2 SWAP1 POP JUMP JUMPDEST PUSH0 PUSH1 0x20 DUP3 ADD SWAP1 POP DUP2 DUP2 SUB PUSH0 DUP4 ADD MSTORE PUSH2 0x27F4 DUP2 PUSH2 0x27BB JUMP JUMPDEST SWAP1 POP SWAP2 SWAP1 POP JUMP JUMPDEST PUSH32 0x6E6F74206F776E6572206E6F7220617070726F76656400000000000000000000 PUSH0 DUP3 ADD MSTORE POP JUMP JUMPDEST PUSH0 PUSH2 0x282F PUSH1 0x16 DUP4 PUSH2 0x2165 JUMP JUMPDEST SWAP2 POP PUSH2 0x283A DUP3 PUSH2 0x27FB JUMP JUMPDEST PUSH1 0x20 DUP3 ADD SWAP1 POP SWAP2 SWAP1 POP JUMP JUMPDEST PUSH0 PUSH1 0x20 DUP3 ADD SWAP1 POP DUP2 DUP2 SUB PUSH0 DUP4 ADD MSTORE PUSH2 0x285C DUP2 PUSH2 0x2823 JUMP JUMPDEST SWAP1 POP SWAP2 SWAP1 POP JUMP JUMPDEST PUSH32 0x4E487B7100000000000000000000000000000000000000000000000000000000 PUSH0 MSTORE PUSH1 0x11 PUSH1 0x4 MSTORE PUSH1 0x24 PUSH0 REVERT JUMPDEST PUSH0 PUSH2 0x289A DUP3 PUSH2 0x21EB JUMP JUMPDEST SWAP2 POP PUSH2 0x28A5 DUP4 PUSH2 0x21EB JUMP JUMPDEST SWAP3 POP DUP3 DUP3 SUB SWAP1 POP DUP2 DUP2 GT ISZERO PUSH2 0x28BD JUMPI PUSH2 0x28BC PUSH2 0x2863 JUMP JUMPDEST JUMPDEST SWAP3 SWAP2 POP POP JUMP JUMPDEST PUSH32 0x4E487B7100000000000000000000000000000000000000000000000000000000 PUSH0 MSTORE PUSH1 0x12 PUSH1 0x4 MSTORE PUSH1 0x24 PUSH0 REVERT JUMPDEST PUSH0 PUSH2 0x28FA DUP3 PUSH2 0x21EB JUMP JUMPDEST SWAP2 POP PUSH2 0x2905 DUP4 PUSH2 0x21EB JUMP JUMPDEST SWAP3 POP DUP3 PUSH2 0x2915 JUMPI PUSH2 0x2914 PUSH2 0x28C3 JUMP JUMPDEST JUMPDEST DUP3 DUP3 DIV SWAP1 POP SWAP3 SWAP2 POP POP JUMP JUMPDEST PUSH0 PUSH2 0x292A DUP3 PUSH2 0x21EB JUMP JUMPDEST SWAP2 POP PUSH2 0x2935 DUP4 PUSH2 0x21EB JUMP JUMPDEST SWAP3 POP DUP3 DUP3 MUL PUSH2 0x2943 DUP2 PUSH2 0x21EB JUMP JUMPDEST SWAP2 POP DUP3 DUP3 DIV DUP5 EQ DUP4 ISZERO OR PUSH2 0x295A JUMPI PUSH2 0x2959 PUSH2 0x2863 JUMP JUMPDEST JUMPDEST POP SWAP3 SWAP2 POP POP JUMP JUMPDEST PUSH32 0x73616C6520686173206E6F742073746172746564207965740000000000000000 PUSH0 DUP3 ADD MSTORE POP JUMP JUMPDEST PUSH0 PUSH2 0x2995 PUSH1 0x18 DUP4 PUSH2 0x2165 JUMP JUMPDEST SWAP2 POP PUSH2 0x29A0 DUP3 PUSH2 0x2961 JUMP JUMPDEST PUSH1 0x20 DUP3 ADD SWAP1 POP SWAP2 SWAP1 POP JUMP JUMPDEST PUSH0 PUSH1 0x20 DUP3 ADD SWAP1 POP DUP2 DUP2 SUB PUSH0 DUP4 ADD MSTORE PUSH2 0x29C2 DUP2 PUSH2 0x2989 JUMP JUMPDEST SWAP1 POP SWAP2 SWAP1 POP JUMP JUMPDEST PUSH0 PUSH2 0x29D3 DUP3 PUSH2 0x21EB JUMP JUMPDEST SWAP2 POP PUSH2 0x29DE DUP4 PUSH2 0x21EB JUMP JUMPDEST SWAP3 POP DUP3 DUP3 ADD SWAP1 POP DUP1 DUP3 GT ISZERO PUSH2 0x29F6 JUMPI PUSH2 0x29F5 PUSH2 0x2863 JUMP JUMPDEST JUMPDEST SWAP3 SWAP2 POP POP JUMP JUMPDEST PUSH32 0x6E6F7420656E6F7567682072656D61696E696E6720726573657276656420666F PUSH0 DUP3 ADD MSTORE PUSH32 0x722061756374696F6E20746F20737570706F72742064657369726564206D696E PUSH1 0x20 DUP3 ADD MSTORE PUSH32 0x7420616D6F756E74000000000000000000000000000000000000000000000000 PUSH1 0x40 DUP3 ADD MSTORE POP JUMP JUMPDEST PUSH0 PUSH2 0x2A7C PUSH1 0x48 DUP4 PUSH2 0x2165 JUMP JUMPDEST SWAP2 POP PUSH2 0x2A87 DUP3 PUSH2 0x29FC JUMP JUMPDEST PUSH1 0x60 DUP3 ADD SWAP1 POP SWAP2 SWAP1 POP JUMP JUMPDEST PUSH0 PUSH1 0x20 DUP3 ADD SWAP1 POP DUP2 DUP2 SUB PUSH0 DUP4 ADD MSTORE PUSH2 0x2AA9 DUP2 PUSH2 0x2A70 JUMP JUMPDEST SWAP1 POP SWAP2 SWAP1 POP JUMP JUMPDEST PUSH32 0x4E65656420746F2073656E64206D6F7265204554482E00000000000000000000 PUSH0 DUP3 ADD MSTORE POP JUMP JUMPDEST PUSH0 PUSH2 0x2AE4 PUSH1 0x16 DUP4 PUSH2 0x2165 JUMP JUMPDEST SWAP2 POP PUSH2 0x2AEF DUP3 PUSH2 0x2AB0 JUMP JUMPDEST PUSH1 0x20 DUP3 ADD SWAP1 POP SWAP2 SWAP1 POP JUMP JUMPDEST PUSH0 PUSH1 0x20 DUP3 ADD SWAP1 POP DUP2 DUP2 SUB PUSH0 DUP4 ADD MSTORE PUSH2 0x2B11 DUP2 PUSH2 0x2AD8 JUMP JUMPDEST SWAP1 POP SWAP2 SWAP1 POP JUMP JUMPDEST PUSH0 DUP3 SWAP1 POP SWAP3 SWAP2 POP POP JUMP JUMPDEST PUSH0 DUP2 SWAP1 POP DUP2 PUSH0 MSTORE PUSH1 0x20 PUSH0 KECCAK256 SWAP1 POP SWAP2 SWAP1 POP JUMP JUMPDEST PUSH0 PUSH1 0x20 PUSH1 0x1F DUP4 ADD DIV SWAP1 POP SWAP2 SWAP1 POP JUMP JUMPDEST PUSH0 DUP3 DUP3 SHL SWAP1 POP SWAP3 SWAP2 POP POP JUMP JUMPDEST PUSH0 PUSH1 0x8 DUP4 MUL PUSH2 0x2B7E PUSH32 0xFFFFFFFFFFFFFFFFFFFFFFFFFFFFFFFFFFFFFFFFFFFFFFFFFFFFFFFFFFFFFFFF DUP3 PUSH2 0x2B43 JUMP JUMPDEST PUSH2 0x2B88 DUP7 DUP4 PUSH2 0x2B43 JUMP JUMPDEST SWAP6 POP DUP1 NOT DUP5 AND SWAP4 POP DUP1 DUP7 AND DUP5 OR SWAP3 POP POP POP SWAP4 SWAP3 POP POP POP JUMP JUMPDEST PUSH0 DUP2 SWAP1 POP SWAP2 SWAP1 POP JUMP JUMPDEST PUSH0 PUSH2 0x2BC3 PUSH2 0x2BBE PUSH2 0x2BB9 DUP5 PUSH2 0x21EB JUMP JUMPDEST PUSH2 0x2BA0 JUMP JUMPDEST PUSH2 0x21EB JUMP JUMPDEST SWAP1 POP SWAP2 SWAP1 POP JUMP JUMPDEST PUSH0 DUP2 SWAP1 POP SWAP2 SWAP1 POP JUMP JUMPDEST PUSH2 0x2BDC DUP4 PUSH2 0x2BA9 JUMP JUMPDEST PUSH2 0x2BF0 PUSH2 0x2BE8 DUP3 PUSH2 0x2BCA JUMP JUMPDEST DUP5 DUP5 SLOAD PUSH2 0x2B4F JUMP JUMPDEST DUP3 SSTORE POP POP POP POP JUMP JUMPDEST PUSH0 SWAP1 JUMP JUMPDEST PUSH2 0x2C04 PUSH2 0x2BF8 JUMP JUMPDEST PUSH2 0x2C0F DUP2 DUP5 DUP5 PUSH2 0x2BD3 JUMP JUMPDEST POP POP POP JUMP JUMPDEST JUMPDEST DUP2 DUP2 LT ISZERO PUSH2 0x2C32 JUMPI PUSH2 0x2C27 PUSH0 DUP3 PUSH2 0x2BFC JUMP JUMPDEST PUSH1 0x1 DUP2 ADD SWAP1 POP PUSH2 0x2C15 JUMP JUMPDEST POP POP JUMP JUMPDEST PUSH1 0x1F DUP3 GT ISZERO PUSH2 0x2C77 JUMPI PUSH2 0x2C48 DUP2 PUSH2 0x2B22 JUMP JUMPDEST PUSH2 0x2C51 DUP5 PUSH2 0x2B34 JUMP JUMPDEST DUP2 ADD PUSH1 0x20 DUP6 LT ISZERO PUSH2 0x2C60 JUMPI DUP2 SWAP1 POP JUMPDEST PUSH2 0x2C74 PUSH2 0x2C6C DUP6 PUSH2 0x2B34 JUMP JUMPDEST DUP4 ADD DUP3 PUSH2 0x2C14 JUMP JUMPDEST POP POP JUMPDEST POP POP POP JUMP JUMPDEST PUSH0 DUP3 DUP3 SHR SWAP1 POP SWAP3 SWAP2 POP POP JUMP JUMPDEST PUSH0 PUSH2 0x2C97 PUSH0 NOT DUP5 PUSH1 0x8 MUL PUSH2 0x2C7C JUMP JUMPDEST NOT DUP1 DUP4 AND SWAP2 POP POP SWAP3 SWAP2 POP POP JUMP JUMPDEST PUSH0 PUSH2 0x2CAF DUP4 DUP4 PUSH2 0x2C88 JUMP JUMPDEST SWAP2 POP DUP3 PUSH1 0x2 MUL DUP3 OR SWAP1 POP SWAP3 SWAP2 POP POP JUMP JUMPDEST PUSH2 0x2CC9 DUP4 DUP4 PUSH2 0x2B18 JUMP JUMPDEST PUSH8 0xFFFFFFFFFFFFFFFF DUP2 GT ISZERO PUSH2 0x2CE2 JUMPI PUSH2 0x2CE1 PUSH2 0x24EC JUMP JUMPDEST JUMPDEST PUSH2 0x2CEC DUP3 SLOAD PUSH2 0x26FB JUMP JUMPDEST PUSH2 0x2CF7 DUP3 DUP3 DUP6 PUSH2 0x2C36 JUMP JUMPDEST PUSH0 PUSH1 0x1F DUP4 GT PUSH1 0x1 DUP2 EQ PUSH2 0x2D24 JUMPI PUSH0 DUP5 ISZERO PUSH2 0x2D12 JUMPI DUP3 DUP8 ADD CALLDATALOAD SWAP1 POP JUMPDEST PUSH2 0x2D1C DUP6 DUP3 PUSH2 0x2CA4 JUMP JUMPDEST DUP7 SSTORE POP PUSH2 0x2D83 JUMP JUMPDEST PUSH1 0x1F NOT DUP5 AND PUSH2 0x2D32 DUP7 PUSH2 0x2B22 JUMP JUMPDEST PUSH0 JUMPDEST DUP3 DUP2 LT ISZERO PUSH2 0x2D59 JUMPI DUP5 DUP10 ADD CALLDATALOAD DUP3 SSTORE PUSH1 0x1 DUP3 ADD SWAP2 POP PUSH1 0x20 DUP6 ADD SWAP5 POP PUSH1 0x20 DUP2 ADD SWAP1 POP PUSH2 0x2D34 JUMP JUMPDEST DUP7 DUP4 LT ISZERO PUSH2 0x2D76 JUMPI DUP5 DUP10 ADD CALLDATALOAD PUSH2 0x2D72 PUSH1 0x1F DUP10 AND DUP3 PUSH2 0x2C88 JUMP JUMPDEST DUP4 SSTORE POP JUMPDEST PUSH1 0x1 PUSH1 0x2 DUP9 MUL ADD DUP9 SSTORE POP POP POP JUMPDEST POP POP POP POP POP POP POP JUMP JUMPDEST PUSH32 0x6F776E6572203D207A65726F2061646472657373000000000000000000000000 PUSH0 DUP3 ADD MSTORE POP JUMP JUMPDEST PUSH0 PUSH2 0x2DC0 PUSH1 0x14 DUP4 PUSH2 0x2165 JUMP JUMPDEST SWAP2 POP PUSH2 0x2DCB DUP3 PUSH2 0x2D8C JUMP JUMPDEST PUSH1 0x20 DUP3 ADD SWAP1 POP SWAP2 SWAP1 POP JUMP JUMPDEST PUSH0 PUSH1 0x20 DUP3 ADD SWAP1 POP DUP2 DUP2 SUB PUSH0 DUP4 ADD MSTORE PUSH2 0x2DED DUP2 PUSH2 0x2DB4 JUMP JUMPDEST SWAP1 POP SWAP2 SWAP1 POP JUMP JUMPDEST PUSH0 DUP2 SWAP1 POP SWAP3 SWAP2 POP POP JUMP JUMPDEST POP JUMP JUMPDEST PUSH0 PUSH2 0x2E0C PUSH0 DUP4 PUSH2 0x2DF4 JUMP JUMPDEST SWAP2 POP PUSH2 0x2E17 DUP3 PUSH2 0x2DFE JUMP JUMPDEST PUSH0 DUP3 ADD SWAP1 POP SWAP2 SWAP1 POP JUMP JUMPDEST PUSH0 PUSH2 0x2E2B DUP3 PUSH2 0x2E01 JUMP JUMPDEST SWAP2 POP DUP2 SWAP1 POP SWAP2 SWAP1 POP JUMP JUMPDEST PUSH32 0x5472616E73666572206661696C65642E00000000000000000000000000000000 PUSH0 DUP3 ADD MSTORE POP JUMP JUMPDEST PUSH0 PUSH2 0x2E69 PUSH1 0x10 DUP4 PUSH2 0x2165 JUMP JUMPDEST SWAP2 POP PUSH2 0x2E74 DUP3 PUSH2 0x2E35 JUMP JUMPDEST PUSH1 0x20 DUP3 ADD SWAP1 POP SWAP2 SWAP1 POP JUMP JUMPDEST PUSH0 PUSH1 0x20 DUP3 ADD SWAP1 POP DUP2 DUP2 SUB PUSH0 DUP4 ADD MSTORE PUSH2 0x2E96 DUP2 PUSH2 0x2E5D JUMP JUMPDEST SWAP1 POP SWAP2 SWAP1 POP JUMP JUMPDEST PUSH32 0x546F6B656E204E6F742045786973740000000000000000000000000000000000 PUSH0 DUP3 ADD MSTORE POP JUMP JUMPDEST PUSH0 PUSH2 0x2ED1 PUSH1 0xF DUP4 PUSH2 0x2165 JUMP JUMPDEST SWAP2 POP PUSH2 0x2EDC DUP3 PUSH2 0x2E9D JUMP JUMPDEST PUSH1 0x20 DUP3 ADD SWAP1 POP SWAP2 SWAP1 POP JUMP JUMPDEST PUSH0 PUSH1 0x20 DUP3 ADD SWAP1 POP DUP2 DUP2 SUB PUSH0 DUP4 ADD MSTORE PUSH2 0x2EFE DUP2 PUSH2 0x2EC5 JUMP JUMPDEST SWAP1 POP SWAP2 SWAP1 POP JUMP JUMPDEST PUSH0 DUP2 SWAP1 POP SWAP3 SWAP2 POP POP JUMP JUMPDEST PUSH0 PUSH2 0x2F19 DUP3 PUSH2 0x215B JUMP JUMPDEST PUSH2 0x2F23 DUP2 DUP6 PUSH2 0x2F05 JUMP JUMPDEST SWAP4 POP PUSH2 0x2F33 DUP2 DUP6 PUSH1 0x20 DUP7 ADD PUSH2 0x2175 JUMP JUMPDEST DUP1 DUP5 ADD SWAP2 POP POP SWAP3 SWAP2 POP POP JUMP JUMPDEST PUSH0 PUSH2 0x2F4A DUP3 DUP6 PUSH2 0x2F0F JUMP JUMPDEST SWAP2 POP PUSH2 0x2F56 DUP3 DUP5 PUSH2 0x2F0F JUMP JUMPDEST SWAP2 POP DUP2 SWAP1 POP SWAP4 SWAP3 POP POP POP JUMP JUMPDEST PUSH32 0x6E6F74206F776E65720000000000000000000000000000000000000000000000 PUSH0 DUP3 ADD MSTORE POP JUMP JUMPDEST PUSH0 PUSH2 0x2F96 PUSH1 0x9 DUP4 PUSH2 0x2165 JUMP JUMPDEST SWAP2 POP PUSH2 0x2FA1 DUP3 PUSH2 0x2F62 JUMP JUMPDEST PUSH1 0x20 DUP3 ADD SWAP1 POP SWAP2 SWAP1 POP JUMP JUMPDEST PUSH0 PUSH1 0x20 DUP3 ADD SWAP1 POP DUP2 DUP2 SUB PUSH0 DUP4 ADD MSTORE PUSH2 0x2FC3 DUP2 PUSH2 0x2F8A JUMP JUMPDEST SWAP1 POP SWAP2 SWAP1 POP JUMP JUMPDEST PUSH32 0x7472616E7366657220746F20746865207A65726F206164647265737300000000 PUSH0 DUP3 ADD MSTORE POP JUMP JUMPDEST PUSH0 PUSH2 0x2FFE PUSH1 0x1C DUP4 PUSH2 0x2165 JUMP JUMPDEST SWAP2 POP PUSH2 0x3009 DUP3 PUSH2 0x2FCA JUMP JUMPDEST PUSH1 0x20 DUP3 ADD SWAP1 POP SWAP2 SWAP1 POP JUMP JUMPDEST PUSH0 PUSH1 0x20 DUP3 ADD SWAP1 POP DUP2 DUP2 SUB PUSH0 DUP4 ADD MSTORE PUSH2 0x302B DUP2 PUSH2 0x2FF2 JUMP JUMPDEST SWAP1 POP SWAP2 SWAP1 POP JUMP JUMPDEST PUSH32 0x6D696E7420746F207A65726F2061646472657373000000000000000000000000 PUSH0 DUP3 ADD MSTORE POP JUMP JUMPDEST PUSH0 PUSH2 0x3066 PUSH1 0x14 DUP4 PUSH2 0x2165 JUMP JUMPDEST SWAP2 POP PUSH2 0x3071 DUP3 PUSH2 0x3032 JUMP JUMPDEST PUSH1 0x20 DUP3 ADD SWAP1 POP SWAP2 SWAP1 POP JUMP JUMPDEST PUSH0 PUSH1 0x20 DUP3 ADD SWAP1 POP DUP2 DUP2 SUB PUSH0 DUP4 ADD MSTORE PUSH2 0x3093 DUP2 PUSH2 0x305A JUMP JUMPDEST SWAP1 POP SWAP2 SWAP1 POP JUMP JUMPDEST PUSH32 0x746F6B656E20616C7265616479206D696E746564000000000000000000000000 PUSH0 DUP3 ADD MSTORE POP JUMP JUMPDEST PUSH0 PUSH2 0x30CE PUSH1 0x14 DUP4 PUSH2 0x2165 JUMP JUMPDEST SWAP2 POP PUSH2 0x30D9 DUP3 PUSH2 0x309A JUMP JUMPDEST PUSH1 0x20 DUP3 ADD SWAP1 POP SWAP2 SWAP1 POP JUMP JUMPDEST PUSH0 PUSH1 0x20 DUP3 ADD SWAP1 POP DUP2 DUP2 SUB PUSH0 DUP4 ADD MSTORE PUSH2 0x30FB DUP2 PUSH2 0x30C2 JUMP JUMPDEST SWAP1 POP SWAP2 SWAP1 POP JUMP JUMPDEST PUSH0 PUSH2 0x310C DUP3 PUSH2 0x21EB JUMP JUMPDEST SWAP2 POP PUSH32 0xFFFFFFFFFFFFFFFFFFFFFFFFFFFFFFFFFFFFFFFFFFFFFFFFFFFFFFFFFFFFFFFF DUP3 SUB PUSH2 0x313E JUMPI PUSH2 0x313D PUSH2 0x2863 JUMP JUMPDEST JUMPDEST PUSH1 0x1 DUP3 ADD SWAP1 POP SWAP2 SWAP1 POP JUMP JUMPDEST PUSH0 PUSH2 0x3153 DUP3 PUSH2 0x21EB JUMP JUMPDEST SWAP2 POP PUSH2 0x315E DUP4 PUSH2 0x21EB JUMP JUMPDEST SWAP3 POP DUP3 PUSH2 0x316E JUMPI PUSH2 0x316D PUSH2 0x28C3 JUMP JUMPDEST JUMPDEST DUP3 DUP3 MOD SWAP1 POP SWAP3 SWAP2 POP POP JUMP JUMPDEST PUSH32 0x4E487B7100000000000000000000000000000000000000000000000000000000 PUSH0 MSTORE PUSH1 0x32 PUSH1 0x4 MSTORE PUSH1 0x24 PUSH0 REVERT JUMPDEST PUSH0 DUP2 MLOAD SWAP1 POP SWAP2 SWAP1 POP JUMP JUMPDEST PUSH0 DUP3 DUP3 MSTORE PUSH1 0x20 DUP3 ADD SWAP1 POP SWAP3 SWAP2 POP POP JUMP JUMPDEST PUSH0 PUSH2 0x31CA DUP3 PUSH2 0x31A6 JUMP JUMPDEST PUSH2 0x31D4 DUP2 DUP6 PUSH2 0x31B0 JUMP JUMPDEST SWAP4 POP PUSH2 0x31E4 DUP2 DUP6 PUSH1 0x20 DUP7 ADD PUSH2 0x2175 JUMP JUMPDEST PUSH2 0x31ED DUP2 PUSH2 0x2183 JUMP JUMPDEST DUP5 ADD SWAP2 POP POP SWAP3 SWAP2 POP POP JUMP JUMPDEST PUSH0 PUSH1 0x80 DUP3 ADD SWAP1 POP PUSH2 0x320B PUSH0 DUP4 ADD DUP8 PUSH2 0x2279 JUMP JUMPDEST PUSH2 0x3218 PUSH1 0x20 DUP4 ADD DUP7 PUSH2 0x2279 JUMP JUMPDEST PUSH2 0x3225 PUSH1 0x40 DUP4 ADD DUP6 PUSH2 0x2309 JUMP JUMPDEST DUP2 DUP2 SUB PUSH1 0x60 DUP4 ADD MSTORE PUSH2 0x3237 DUP2 DUP5 PUSH2 0x31C0 JUMP JUMPDEST SWAP1 POP SWAP6 SWAP5 POP POP POP POP POP JUMP JUMPDEST PUSH0 DUP2 MLOAD SWAP1 POP PUSH2 0x3250 DUP2 PUSH2 0x206F JUMP JUMPDEST SWAP3 SWAP2 POP POP JUMP JUMPDEST PUSH0 PUSH1 0x20 DUP3 DUP5 SUB SLT ISZERO PUSH2 0x326B JUMPI PUSH2 0x326A PUSH2 0x203C JUMP JUMPDEST JUMPDEST PUSH0 PUSH2 0x3278 DUP5 DUP3 DUP6 ADD PUSH2 0x3242 JUMP JUMPDEST SWAP2 POP POP SWAP3 SWAP2 POP POP JUMP INVALID LOG2 PUSH5 0x6970667358 0x22 SLT KECCAK256 EXP SWAP12 GASLIMIT SAR 0xA5 REVERT 0xEB 0xDC 0xD0 SIGNEXTEND PUSH21 0xD37B738E73A5BB42A987FF882F26C512FB358B7F48 PUSH5 0x736F6C6343 STOP ADDMOD BYTE STOP CALLER "
		},
		"gasEstimates": {
			"creation": {
				"codeDepositCost": "2596600",
				"executionCost": "infinite",
				"totalCost": "infinite"
			},
			"external": {
				"AUCTION_DROP_INTERVAL()": "414",
				"AUCTION_DROP_PER_STEP()": "infinite",
				"AUCTION_END_PRICE()": "414",
				"AUCTION_START_PRICE()": "437",
				"AUCTION_TIME()": "369",
				"COLLECTION_SIZE()": "436",
				"approve(address,uint256)": "31581",
				"auctionMint(uint256)": "infinite",
				"auctionStartTime()": "2513",
				"balanceOf(address)": "2932",
				"getApproved(uint256)": "5144",
				"getAuctionPrice()": "infinite",
				"getInterfaceId()": "384",
				"isApprovedForAll(address,address)": "infinite",
				"name()": "infinite",
				"owner()": "2560",
				"ownerOf(uint256)": "3049",
				"renounceOwnership()": "infinite",
				"safeTransferFrom(address,address,uint256)": "infinite",
				"safeTransferFrom(address,address,uint256,bytes)": "infinite",
				"setApprovalForAll(address,bool)": "infinite",
				"setAuctionStartTime(uint32)": "infinite",
				"setBaseURI(string)": "infinite",
				"supportsInterface(bytes4)": "768",
				"symbol()": "infinite",
				"tokenURI(uint256)": "infinite",
				"total()": "2471",
				"totalSupply()": "2530",
				"transferFrom(address,address,uint256)": "infinite",
				"transferOwnership(address)": "infinite",
				"withdrawMoney()": "infinite"
			},
			"internal": {
				"_addTokenToAllTokensEnumeration(uint256)": "46434",
				"_baseURI()": "infinite"
			}
		},
		"methodIdentifiers": {
			"AUCTION_DROP_INTERVAL()": "5cae01d3",
			"AUCTION_DROP_PER_STEP()": "59f369fe",
			"AUCTION_END_PRICE()": "caf8a6d1",
			"AUCTION_START_PRICE()": "7a1c4a56",
			"AUCTION_TIME()": "e592301a",
			"COLLECTION_SIZE()": "d8258d95",
			"approve(address,uint256)": "095ea7b3",
			"auctionMint(uint256)": "4d3554c3",
			"auctionStartTime()": "eb54f9ec",
			"balanceOf(address)": "70a08231",
			"getApproved(uint256)": "081812fc",
			"getAuctionPrice()": "4bd25c6f",
			"getInterfaceId()": "6b9241fc",
			"isApprovedForAll(address,address)": "e985e9c5",
			"name()": "06fdde03",
			"owner()": "8da5cb5b",
			"ownerOf(uint256)": "6352211e",
			"renounceOwnership()": "715018a6",
			"safeTransferFrom(address,address,uint256)": "42842e0e",
			"safeTransferFrom(address,address,uint256,bytes)": "b88d4fde",
			"setApprovalForAll(address,bool)": "a22cb465",
			"setAuctionStartTime(uint32)": "0697346f",
			"setBaseURI(string)": "55f804b3",
			"supportsInterface(bytes4)": "01ffc9a7",
			"symbol()": "95d89b41",
			"tokenURI(uint256)": "c87b56dd",
			"total()": "2ddbd13a",
			"totalSupply()": "18160ddd",
			"transferFrom(address,address,uint256)": "23b872dd",
			"transferOwnership(address)": "f2fde38b",
			"withdrawMoney()": "ac446002"
		}
	},
	"abi": [
		{
			"inputs": [],
			"stateMutability": "payable",
			"type": "constructor"
		},
		{
			"inputs": [
				{
					"internalType": "address",
					"name": "receiver",
					"type": "address"
				}
			],
			"name": "ERC721InvalidReceiver",
			"type": "error"
		},
		{
			"inputs": [
				{
					"internalType": "address",
					"name": "owner",
					"type": "address"
				}
			],
			"name": "OwnableInvalidOwner",
			"type": "error"
		},
		{
			"inputs": [
				{
					"internalType": "address",
					"name": "account",
					"type": "address"
				}
			],
			"name": "OwnableUnauthorizedAccount",
			"type": "error"
		},
		{
			"anonymous": false,
			"inputs": [
				{
					"indexed": true,
					"internalType": "address",
					"name": "owner",
					"type": "address"
				},
				{
					"indexed": true,
					"internalType": "address",
					"name": "approved",
					"type": "address"
				},
				{
					"indexed": true,
					"internalType": "uint256",
					"name": "tokenId",
					"type": "uint256"
				}
			],
			"name": "Approval",
			"type": "event"
		},
		{
			"anonymous": false,
			"inputs": [
				{
					"indexed": true,
					"internalType": "address",
					"name": "owner",
					"type": "address"
				},
				{
					"indexed": true,
					"internalType": "address",
					"name": "operator",
					"type": "address"
				},
				{
					"indexed": false,
					"internalType": "bool",
					"name": "approved",
					"type": "bool"
				}
			],
			"name": "ApprovalForAll",
			"type": "event"
		},
		{
			"anonymous": false,
			"inputs": [
				{
					"indexed": true,
					"internalType": "address",
					"name": "previousOwner",
					"type": "address"
				},
				{
					"indexed": true,
					"internalType": "address",
					"name": "newOwner",
					"type": "address"
				}
			],
			"name": "OwnershipTransferred",
			"type": "event"
		},
		{
			"anonymous": false,
			"inputs": [
				{
					"indexed": true,
					"internalType": "address",
					"name": "from",
					"type": "address"
				},
				{
					"indexed": true,
					"internalType": "address",
					"name": "to",
					"type": "address"
				},
				{
					"indexed": true,
					"internalType": "uint256",
					"name": "tokenId",
					"type": "uint256"
				}
			],
			"name": "Transfer",
			"type": "event"
		},
		{
			"inputs": [],
			"name": "AUCTION_DROP_INTERVAL",
			"outputs": [
				{
					"internalType": "uint256",
					"name": "",
					"type": "uint256"
				}
			],
			"stateMutability": "view",
			"type": "function"
		},
		{
			"inputs": [],
			"name": "AUCTION_DROP_PER_STEP",
			"outputs": [
				{
					"internalType": "uint256",
					"name": "",
					"type": "uint256"
				}
			],
			"stateMutability": "view",
			"type": "function"
		},
		{
			"inputs": [],
			"name": "AUCTION_END_PRICE",
			"outputs": [
				{
					"internalType": "uint256",
					"name": "",
					"type": "uint256"
				}
			],
			"stateMutability": "view",
			"type": "function"
		},
		{
			"inputs": [],
			"name": "AUCTION_START_PRICE",
			"outputs": [
				{
					"internalType": "uint256",
					"name": "",
					"type": "uint256"
				}
			],
			"stateMutability": "view",
			"type": "function"
		},
		{
			"inputs": [],
			"name": "AUCTION_TIME",
			"outputs": [
				{
					"internalType": "uint256",
					"name": "",
					"type": "uint256"
				}
			],
			"stateMutability": "view",
			"type": "function"
		},
		{
			"inputs": [],
			"name": "COLLECTION_SIZE",
			"outputs": [
				{
					"internalType": "uint256",
					"name": "",
					"type": "uint256"
				}
			],
			"stateMutability": "view",
			"type": "function"
		},
		{
			"inputs": [
				{
					"internalType": "address",
					"name": "to",
					"type": "address"
				},
				{
					"internalType": "uint256",
					"name": "tokenId",
					"type": "uint256"
				}
			],
			"name": "approve",
			"outputs": [],
			"stateMutability": "nonpayable",
			"type": "function"
		},
		{
			"inputs": [
				{
					"internalType": "uint256",
					"name": "quantity",
					"type": "uint256"
				}
			],
			"name": "auctionMint",
			"outputs": [],
			"stateMutability": "payable",
			"type": "function"
		},
		{
			"inputs": [],
			"name": "auctionStartTime",
			"outputs": [
				{
					"internalType": "uint256",
					"name": "",
					"type": "uint256"
				}
			],
			"stateMutability": "view",
			"type": "function"
		},
		{
			"inputs": [
				{
					"internalType": "address",
					"name": "owner",
					"type": "address"
				}
			],
			"name": "balanceOf",
			"outputs": [
				{
					"internalType": "uint256",
					"name": "",
					"type": "uint256"
				}
			],
			"stateMutability": "view",
			"type": "function"
		},
		{
			"inputs": [
				{
					"internalType": "uint256",
					"name": "tokenId",
					"type": "uint256"
				}
			],
			"name": "getApproved",
			"outputs": [
				{
					"internalType": "address",
					"name": "",
					"type": "address"
				}
			],
			"stateMutability": "view",
			"type": "function"
		},
		{
			"inputs": [],
			"name": "getAuctionPrice",
			"outputs": [
				{
					"internalType": "uint256",
					"name": "",
					"type": "uint256"
				}
			],
			"stateMutability": "view",
			"type": "function"
		},
		{
			"inputs": [],
			"name": "getInterfaceId",
			"outputs": [
				{
					"internalType": "bytes4",
					"name": "",
					"type": "bytes4"
				}
			],
			"stateMutability": "view",
			"type": "function"
		},
		{
			"inputs": [
				{
					"internalType": "address",
					"name": "owner",
					"type": "address"
				},
				{
					"internalType": "address",
					"name": "operator",
					"type": "address"
				}
			],
			"name": "isApprovedForAll",
			"outputs": [
				{
					"internalType": "bool",
					"name": "",
					"type": "bool"
				}
			],
			"stateMutability": "view",
			"type": "function"
		},
		{
			"inputs": [],
			"name": "name",
			"outputs": [
				{
					"internalType": "string",
					"name": "",
					"type": "string"
				}
			],
			"stateMutability": "view",
			"type": "function"
		},
		{
			"inputs": [],
			"name": "owner",
			"outputs": [
				{
					"internalType": "address",
					"name": "",
					"type": "address"
				}
			],
			"stateMutability": "view",
			"type": "function"
		},
		{
			"inputs": [
				{
					"internalType": "uint256",
					"name": "tokenId",
					"type": "uint256"
				}
			],
			"name": "ownerOf",
			"outputs": [
				{
					"internalType": "address",
					"name": "owner",
					"type": "address"
				}
			],
			"stateMutability": "view",
			"type": "function"
		},
		{
			"inputs": [],
			"name": "renounceOwnership",
			"outputs": [],
			"stateMutability": "nonpayable",
			"type": "function"
		},
		{
			"inputs": [
				{
					"internalType": "address",
					"name": "from",
					"type": "address"
				},
				{
					"internalType": "address",
					"name": "to",
					"type": "address"
				},
				{
					"internalType": "uint256",
					"name": "tokenId",
					"type": "uint256"
				}
			],
			"name": "safeTransferFrom",
			"outputs": [],
			"stateMutability": "nonpayable",
			"type": "function"
		},
		{
			"inputs": [
				{
					"internalType": "address",
					"name": "from",
					"type": "address"
				},
				{
					"internalType": "address",
					"name": "to",
					"type": "address"
				},
				{
					"internalType": "uint256",
					"name": "tokenId",
					"type": "uint256"
				},
				{
					"internalType": "bytes",
					"name": "_data",
					"type": "bytes"
				}
			],
			"name": "safeTransferFrom",
			"outputs": [],
			"stateMutability": "nonpayable",
			"type": "function"
		},
		{
			"inputs": [
				{
					"internalType": "address",
					"name": "operator",
					"type": "address"
				},
				{
					"internalType": "bool",
					"name": "approved",
					"type": "bool"
				}
			],
			"name": "setApprovalForAll",
			"outputs": [],
			"stateMutability": "nonpayable",
			"type": "function"
		},
		{
			"inputs": [
				{
					"internalType": "uint32",
					"name": "timestamp",
					"type": "uint32"
				}
			],
			"name": "setAuctionStartTime",
			"outputs": [],
			"stateMutability": "nonpayable",
			"type": "function"
		},
		{
			"inputs": [
				{
					"internalType": "string",
					"name": "baseURI",
					"type": "string"
				}
			],
			"name": "setBaseURI",
			"outputs": [],
			"stateMutability": "nonpayable",
			"type": "function"
		},
		{
			"inputs": [
				{
					"internalType": "bytes4",
					"name": "interfaceId",
					"type": "bytes4"
				}
			],
			"name": "supportsInterface",
			"outputs": [
				{
					"internalType": "bool",
					"name": "",
					"type": "bool"
				}
			],
			"stateMutability": "pure",
			"type": "function"
		},
		{
			"inputs": [],
			"name": "symbol",
			"outputs": [
				{
					"internalType": "string",
					"name": "",
					"type": "string"
				}
			],
			"stateMutability": "view",
			"type": "function"
		},
		{
			"inputs": [
				{
					"internalType": "uint256",
					"name": "tokenId",
					"type": "uint256"
				}
			],
			"name": "tokenURI",
			"outputs": [
				{
					"internalType": "string",
					"name": "",
					"type": "string"
				}
			],
			"stateMutability": "view",
			"type": "function"
		},
		{
			"inputs": [],
			"name": "total",
			"outputs": [
				{
					"internalType": "uint256",
					"name": "",
					"type": "uint256"
				}
			],
			"stateMutability": "view",
			"type": "function"
		},
		{
			"inputs": [],
			"name": "totalSupply",
			"outputs": [
				{
					"internalType": "uint256",
					"name": "",
					"type": "uint256"
				}
			],
			"stateMutability": "view",
			"type": "function"
		},
		{
			"inputs": [
				{
					"internalType": "address",
					"name": "from",
					"type": "address"
				},
				{
					"internalType": "address",
					"name": "to",
					"type": "address"
				},
				{
					"internalType": "uint256",
					"name": "tokenId",
					"type": "uint256"
				}
			],
			"name": "transferFrom",
			"outputs": [],
			"stateMutability": "nonpayable",
			"type": "function"
		},
		{
			"inputs": [
				{
					"internalType": "address",
					"name": "newOwner",
					"type": "address"
				}
			],
			"name": "transferOwnership",
			"outputs": [],
			"stateMutability": "nonpayable",
			"type": "function"
		},
		{
			"inputs": [],
			"name": "withdrawMoney",
			"outputs": [],
			"stateMutability": "nonpayable",
			"type": "function"
		}
	]
}