{
	"data": {
		"bytecode": {
			"linkReferences": {},
			"object": "60a060405234801561000f575f80fd5b50604051612ffb380380612ffb833981810160405281019061003191906101e4565b8282815f90816100419190610479565b5080600190816100519190610479565b5050508060808181525050505050610548565b5f604051905090565b5f80fd5b5f80fd5b5f80fd5b5f80fd5b5f601f19601f8301169050919050565b7f4e487b71000000000000000000000000000000000000000000000000000000005f52604160045260245ffd5b6100c38261007d565b810181811067ffffffffffffffff821117156100e2576100e161008d565b5b80604052505050565b5f6100f4610064565b905061010082826100ba565b919050565b5f67ffffffffffffffff82111561011f5761011e61008d565b5b6101288261007d565b9050602081019050919050565b8281835e5f83830152505050565b5f61015561015084610105565b6100eb565b90508281526020810184848401111561017157610170610079565b5b61017c848285610135565b509392505050565b5f82601f83011261019857610197610075565b5b81516101a8848260208601610143565b91505092915050565b5f819050919050565b6101c3816101b1565b81146101cd575f80fd5b50565b5f815190506101de816101ba565b92915050565b5f805f606084860312156101fb576101fa61006d565b5b5f84015167ffffffffffffffff81111561021857610217610071565b5b61022486828701610184565b935050602084015167ffffffffffffffff81111561024557610244610071565b5b61025186828701610184565b9250506040610262868287016101d0565b9150509250925092565b5f81519050919050565b7f4e487b71000000000000000000000000000000000000000000000000000000005f52602260045260245ffd5b5f60028204905060018216806102ba57607f821691505b6020821081036102cd576102cc610276565b5b50919050565b5f819050815f5260205f209050919050565b5f6020601f8301049050919050565b5f82821b905092915050565b5f6008830261032f7fffffffffffffffffffffffffffffffffffffffffffffffffffffffffffffffff826102f4565b61033986836102f4565b95508019841693508086168417925050509392505050565b5f819050919050565b5f819050919050565b5f61037d61037861037384610351565b61035a565b610351565b9050919050565b5f819050919050565b61039683610363565b6103aa6103a282610384565b848454610300565b825550505050565b5f90565b6103be6103b2565b6103c981848461038d565b505050565b5b818110156103ec576103e15f826103b6565b6001810190506103cf565b5050565b601f82111561043157610402816102d3565b61040b846102e5565b8101602085101561041a578190505b61042e610426856102e5565b8301826103ce565b50505b505050565b5f82821c905092915050565b5f6104515f1984600802610436565b1980831691505092915050565b5f6104698383610442565b9150826002028217905092915050565b6104828261026c565b67ffffffffffffffff81111561049b5761049a61008d565b5b6104a582546102a3565b6104b08282856103f0565b5f60209050601f8311600181146104e1575f84156104cf578287015190505b6104d9858261045e565b865550610540565b601f1984166104ef866102d3565b5f5b82811015610516578489015182556001820191506020850194506020810190506104f1565b86831015610533578489015161052f601f891682610442565b8355505b6001600288020188555050505b505050505050565b608051612a946105675f395f818161085a0152610f860152612a945ff3fe608060405234801561000f575f80fd5b506004361061011f575f3560e01c8063641ce140116100ab578063b88d4fde1161006f578063b88d4fde14610329578063c7cec48714610345578063c87b56dd14610375578063e985e9c5146103a5578063ebf0c717146103d55761011f565b8063641ce140146102855780636b9241fc146102a157806370a08231146102bf57806395d89b41146102ef578063a22cb4651461030d5761011f565b806323b872dd116100f257806323b872dd146101bd57806342842e0e146101d957806346f265fd146101f5578063630303c6146102255780636352211e146102555761011f565b806301ffc9a71461012357806306fdde0314610153578063081812fc14610171578063095ea7b3146101a1575b5f80fd5b61013d60048036038101906101389190611a69565b6103f3565b60405161014a9190611aae565b60405180910390f35b61015b61052c565b6040516101689190611b37565b60405180910390f35b61018b60048036038101906101869190611b8a565b6105b7565b6040516101989190611bf4565b60405180910390f35b6101bb60048036038101906101b69190611c37565b61068e565b005b6101d760048036038101906101d29190611c75565b6107cc565b005b6101f360048036038101906101ee9190611c75565b610834565b005b61020f600480360381019061020a9190611e38565b610853565b60405161021c9190611aae565b60405180910390f35b61023f600480360381019061023a9190611e92565b610887565b60405161024c9190611aae565b60405180910390f35b61026f600480360381019061026a9190611b8a565b6108a4565b60405161027c9190611bf4565b60405180910390f35b61029f600480360381019061029a9190611f16565b61094b565b005b6102a9610acb565b6040516102b69190611f96565b60405180910390f35b6102d960048036038101906102d49190611e92565b610af2565b6040516102e69190611fbe565b60405180910390f35b6102f7610ba6565b6040516103049190611b37565b60405180910390f35b61032760048036038101906103229190612001565b610c32565b005b610343600480360381019061033e91906120ef565b610d2a565b005b61035f600480360381019061035a919061216f565b610d94565b60405161036c91906121bc565b60405180910390f35b61038f600480360381019061038a9190611b8a565b610dfc565b60405161039c9190611b37565b60405180910390f35b6103bf60048036038101906103ba91906121d5565b610ef6565b6040516103cc9190611aae565b60405180910390f35b6103dd610f84565b6040516103ea91906121bc565b60405180910390f35b5f7f80ac58cd000000000000000000000000000000000000000000000000000000007bffffffffffffffffffffffffffffffffffffffffffffffffffffffff1916827bffffffffffffffffffffffffffffffffffffffffffffffffffffffff191614806104bd57507f01ffc9a7000000000000000000000000000000000000000000000000000000007bffffffffffffffffffffffffffffffffffffffffffffffffffffffff1916827bffffffffffffffffffffffffffffffffffffffffffffffffffffffff1916145b8061052557507f5b5e139f000000000000000000000000000000000000000000000000000000007bffffffffffffffffffffffffffffffffffffffffffffffffffffffff1916827bffffffffffffffffffffffffffffffffffffffffffffffffffffffff1916145b9050919050565b5f805461053890612240565b80601f016020809104026020016040519081016040528092919081815260200182805461056490612240565b80156105af5780601f10610586576101008083540402835291602001916105af565b820191905f5260205f20905b81548152906001019060200180831161059257829003601f168201915b505050505081565b5f8073ffffffffffffffffffffffffffffffffffffffff1660025f8481526020019081526020015f205f9054906101000a900473ffffffffffffffffffffffffffffffffffffffff1673ffffffffffffffffffffffffffffffffffffffff1603610656576040517f08c379a000000000000000000000000000000000000000000000000000000000815260040161064d906122ba565b60405180910390fd5b60045f8381526020019081526020015f205f9054906101000a900473ffffffffffffffffffffffffffffffffffffffff169050919050565b5f60025f8381526020019081526020015f205f9054906101000a900473ffffffffffffffffffffffffffffffffffffffff1690508073ffffffffffffffffffffffffffffffffffffffff163373ffffffffffffffffffffffffffffffffffffffff16148061077d575060055f8273ffffffffffffffffffffffffffffffffffffffff1673ffffffffffffffffffffffffffffffffffffffff1681526020019081526020015f205f3373ffffffffffffffffffffffffffffffffffffffff1673ffffffffffffffffffffffffffffffffffffffff1681526020019081526020015f205f9054906101000a900460ff165b6107bc576040517f08c379a00000000000000000000000000000000000000000000000000000000081526004016107b390612322565b60405180910390fd5b6107c7818484610fa8565b505050565b5f6107d6826108a4565b90506107e3813384611057565b610822576040517f08c379a00000000000000000000000000000000000000000000000000000000081526004016108199061238a565b60405180910390fd5b61082e81858585611182565b50505050565b61084e83838360405180602001604052805f815250610d2a565b505050565b5f61087f827f0000000000000000000000000000000000000000000000000000000000000000856113c1565b905092915050565b6006602052805f5260405f205f915054906101000a900460ff1681565b5f60025f8381526020019081526020015f205f9054906101000a900473ffffffffffffffffffffffffffffffffffffffff1690505f73ffffffffffffffffffffffffffffffffffffffff168173ffffffffffffffffffffffffffffffffffffffff1603610946576040517f08c379a000000000000000000000000000000000000000000000000000000000815260040161093d906122ba565b60405180910390fd5b919050565b61099d610957856113d7565b8383808060200260200160405190810160405280939291908181526020018383602002808284375f81840152601f19601f82011690508083019250505050505050610853565b6109dc576040517f08c379a00000000000000000000000000000000000000000000000000000000081526004016109d3906123f2565b60405180910390fd5b60065f8573ffffffffffffffffffffffffffffffffffffffff1673ffffffffffffffffffffffffffffffffffffffff1681526020019081526020015f205f9054906101000a900460ff1615610a66576040517f08c379a0000000000000000000000000000000000000000000000000000000008152600401610a5d9061245a565b60405180910390fd5b600160065f8673ffffffffffffffffffffffffffffffffffffffff1673ffffffffffffffffffffffffffffffffffffffff1681526020019081526020015f205f6101000a81548160ff021916908315150217905550610ac58484611406565b50505050565b5f7f150b7a0200000000000000000000000000000000000000000000000000000000905090565b5f8073ffffffffffffffffffffffffffffffffffffffff168273ffffffffffffffffffffffffffffffffffffffff1603610b61576040517f08c379a0000000000000000000000000000000000000000000000000000000008152600401610b58906124c2565b60405180910390fd5b60035f8373ffffffffffffffffffffffffffffffffffffffff1673ffffffffffffffffffffffffffffffffffffffff1681526020019081526020015f20549050919050565b60018054610bb390612240565b80601f0160208091040260200160405190810160405280929190818152602001828054610bdf90612240565b8015610c2a5780601f10610c0157610100808354040283529160200191610c2a565b820191905f5260205f20905b815481529060010190602001808311610c0d57829003601f168201915b505050505081565b8060055f3373ffffffffffffffffffffffffffffffffffffffff1673ffffffffffffffffffffffffffffffffffffffff1681526020019081526020015f205f8473ffffffffffffffffffffffffffffffffffffffff1673ffffffffffffffffffffffffffffffffffffffff1681526020019081526020015f205f6101000a81548160ff0219169083151502179055508173ffffffffffffffffffffffffffffffffffffffff163373ffffffffffffffffffffffffffffffffffffffff167f17307eab39ab6107e8899845ad3d59bd9653f200f220920489ca2b5937696c3183604051610d1e9190611aae565b60405180910390a35050565b5f610d34836108a4565b9050610d41813385611057565b610d80576040517f08c379a0000000000000000000000000000000000000000000000000000000008152600401610d779061238a565b60405180910390fd5b610d8d8186868686611614565b5050505050565b5f818310610dca578183604051602001610daf929190612500565b60405160208183030381529060405280519060200120610df4565b8282604051602001610ddd929190612500565b604051602081830303815290604052805190602001205b905092915050565b60605f73ffffffffffffffffffffffffffffffffffffffff1660025f8481526020019081526020015f205f9054906101000a900473ffffffffffffffffffffffffffffffffffffffff1673ffffffffffffffffffffffffffffffffffffffff1603610e9c576040517f08c379a0000000000000000000000000000000000000000000000000000000008152600401610e9390612575565b60405180910390fd5b5f610ea5611633565b90505f815111610ec35760405180602001604052805f815250610eee565b80610ecd84611649565b604051602001610ede9291906125cd565b6040516020818303038152906040525b915050919050565b5f60055f8473ffffffffffffffffffffffffffffffffffffffff1673ffffffffffffffffffffffffffffffffffffffff1681526020019081526020015f205f8373ffffffffffffffffffffffffffffffffffffffff1673ffffffffffffffffffffffffffffffffffffffff1681526020019081526020015f205f9054906101000a900460ff16905092915050565b7f000000000000000000000000000000000000000000000000000000000000000081565b8160045f8381526020019081526020015f205f6101000a81548173ffffffffffffffffffffffffffffffffffffffff021916908373ffffffffffffffffffffffffffffffffffffffff160217905550808273ffffffffffffffffffffffffffffffffffffffff168473ffffffffffffffffffffffffffffffffffffffff167f8c5be1e5ebec7d5bd14f71427d1e84f3dd0314c0f7b2291e5b200ac8c7c3b92560405160405180910390a4505050565b5f8373ffffffffffffffffffffffffffffffffffffffff168373ffffffffffffffffffffffffffffffffffffffff1614806110ed57508273ffffffffffffffffffffffffffffffffffffffff1660045f8481526020019081526020015f205f9054906101000a900473ffffffffffffffffffffffffffffffffffffffff1673ffffffffffffffffffffffffffffffffffffffff16145b80611179575060055f8573ffffffffffffffffffffffffffffffffffffffff1673ffffffffffffffffffffffffffffffffffffffff1681526020019081526020015f205f8473ffffffffffffffffffffffffffffffffffffffff1673ffffffffffffffffffffffffffffffffffffffff1681526020019081526020015f205f9054906101000a900460ff165b90509392505050565b8373ffffffffffffffffffffffffffffffffffffffff168373ffffffffffffffffffffffffffffffffffffffff16146111f0576040517f08c379a00000000000000000000000000000000000000000000000000000000081526004016111e79061263a565b60405180910390fd5b5f73ffffffffffffffffffffffffffffffffffffffff168273ffffffffffffffffffffffffffffffffffffffff160361125e576040517f08c379a0000000000000000000000000000000000000000000000000000000008152600401611255906126a2565b60405180910390fd5b611269845f83610fa8565b600160035f8573ffffffffffffffffffffffffffffffffffffffff1673ffffffffffffffffffffffffffffffffffffffff1681526020019081526020015f205f8282546112b691906126ed565b92505081905550600160035f8473ffffffffffffffffffffffffffffffffffffffff1673ffffffffffffffffffffffffffffffffffffffff1681526020019081526020015f205f82825461130a9190612720565b925050819055508160025f8381526020019081526020015f205f6101000a81548173ffffffffffffffffffffffffffffffffffffffff021916908373ffffffffffffffffffffffffffffffffffffffff160217905550808273ffffffffffffffffffffffffffffffffffffffff168473ffffffffffffffffffffffffffffffffffffffff167fddf252ad1be2c89b69c2b068fc378daa952ba7f163c4a11628f55a4df523b3ef60405160405180910390a450505050565b5f826113cd85846117a2565b1490509392505050565b5f816040516020016113e99190612798565b604051602081830303815290604052805190602001209050919050565b5f73ffffffffffffffffffffffffffffffffffffffff168273ffffffffffffffffffffffffffffffffffffffff1603611474576040517f08c379a000000000000000000000000000000000000000000000000000000000815260040161146b906127fc565b60405180910390fd5b5f73ffffffffffffffffffffffffffffffffffffffff1660025f8381526020019081526020015f205f9054906101000a900473ffffffffffffffffffffffffffffffffffffffff1673ffffffffffffffffffffffffffffffffffffffff1614611512576040517f08c379a000000000000000000000000000000000000000000000000000000000815260040161150990612864565b60405180910390fd5b600160035f8473ffffffffffffffffffffffffffffffffffffffff1673ffffffffffffffffffffffffffffffffffffffff1681526020019081526020015f205f82825461155f9190612720565b925050819055508160025f8381526020019081526020015f205f6101000a81548173ffffffffffffffffffffffffffffffffffffffff021916908373ffffffffffffffffffffffffffffffffffffffff160217905550808273ffffffffffffffffffffffffffffffffffffffff165f73ffffffffffffffffffffffffffffffffffffffff167fddf252ad1be2c89b69c2b068fc378daa952ba7f163c4a11628f55a4df523b3ef60405160405180910390a45050565b61162085858585611182565b61162c848484846117f0565b5050505050565b606060405180602001604052805f815250905090565b60605f820361168f576040518060400160405280600181526020017f3000000000000000000000000000000000000000000000000000000000000000815250905061179d565b5f8290505f5b5f82146116be5780806116a790612882565b915050600a826116b791906128f6565b9150611695565b5f8167ffffffffffffffff8111156116d9576116d8611cfc565b5b6040519080825280601f01601f19166020018201604052801561170b5781602001600182028036833780820191505090505b5090505b5f85146117965760018261172391906126ed565b9150600a856117329190612926565b603061173e9190612720565b60f81b81838151811061175457611753612956565b5b60200101907effffffffffffffffffffffffffffffffffffffffffffffffffffffffffffff191690815f1a905350600a8561178f91906128f6565b945061170f565b8093505050505b919050565b5f808290505f5b84518110156117e5576117d6828683815181106117c9576117c8612956565b5b602002602001015161199b565b915080806001019150506117a9565b508091505092915050565b5f8373ffffffffffffffffffffffffffffffffffffffff163b1115611995578273ffffffffffffffffffffffffffffffffffffffff1663150b7a02338685856040518563ffffffff1660e01b815260040161184e94939291906129d5565b6020604051808303815f875af192505050801561188957506040513d601f19601f820116820180604052508101906118869190612a33565b60015b61190a573d805f81146118b7576040519150601f19603f3d011682016040523d82523d5f602084013e6118bc565b606091505b505f81510361190257836040517f64a0ae920000000000000000000000000000000000000000000000000000000081526004016118f99190611bf4565b60405180910390fd5b805181602001fd5b63150b7a0260e01b7bffffffffffffffffffffffffffffffffffffffffffffffffffffffff1916817bffffffffffffffffffffffffffffffffffffffffffffffffffffffff19161461199357836040517f64a0ae9200000000000000000000000000000000000000000000000000000000815260040161198a9190611bf4565b60405180910390fd5b505b50505050565b5f8183106119d15781836040516020016119b6929190612500565b604051602081830303815290604052805190602001206119fb565b82826040516020016119e4929190612500565b604051602081830303815290604052805190602001205b905092915050565b5f604051905090565b5f80fd5b5f80fd5b5f7fffffffff0000000000000000000000000000000000000000000000000000000082169050919050565b611a4881611a14565b8114611a52575f80fd5b50565b5f81359050611a6381611a3f565b92915050565b5f60208284031215611a7e57611a7d611a0c565b5b5f611a8b84828501611a55565b91505092915050565b5f8115159050919050565b611aa881611a94565b82525050565b5f602082019050611ac15f830184611a9f565b92915050565b5f81519050919050565b5f82825260208201905092915050565b8281835e5f83830152505050565b5f601f19601f8301169050919050565b5f611b0982611ac7565b611b138185611ad1565b9350611b23818560208601611ae1565b611b2c81611aef565b840191505092915050565b5f6020820190508181035f830152611b4f8184611aff565b905092915050565b5f819050919050565b611b6981611b57565b8114611b73575f80fd5b50565b5f81359050611b8481611b60565b92915050565b5f60208284031215611b9f57611b9e611a0c565b5b5f611bac84828501611b76565b91505092915050565b5f73ffffffffffffffffffffffffffffffffffffffff82169050919050565b5f611bde82611bb5565b9050919050565b611bee81611bd4565b82525050565b5f602082019050611c075f830184611be5565b92915050565b611c1681611bd4565b8114611c20575f80fd5b50565b5f81359050611c3181611c0d565b92915050565b5f8060408385031215611c4d57611c4c611a0c565b5b5f611c5a85828601611c23565b9250506020611c6b85828601611b76565b9150509250929050565b5f805f60608486031215611c8c57611c8b611a0c565b5b5f611c9986828701611c23565b9350506020611caa86828701611c23565b9250506040611cbb86828701611b76565b9150509250925092565b5f819050919050565b611cd781611cc5565b8114611ce1575f80fd5b50565b5f81359050611cf281611cce565b92915050565b5f80fd5b7f4e487b71000000000000000000000000000000000000000000000000000000005f52604160045260245ffd5b611d3282611aef565b810181811067ffffffffffffffff82111715611d5157611d50611cfc565b5b80604052505050565b5f611d63611a03565b9050611d6f8282611d29565b919050565b5f67ffffffffffffffff821115611d8e57611d8d611cfc565b5b602082029050602081019050919050565b5f80fd5b5f611db5611db084611d74565b611d5a565b90508083825260208201905060208402830185811115611dd857611dd7611d9f565b5b835b81811015611e015780611ded8882611ce4565b845260208401935050602081019050611dda565b5050509392505050565b5f82601f830112611e1f57611e1e611cf8565b5b8135611e2f848260208601611da3565b91505092915050565b5f8060408385031215611e4e57611e4d611a0c565b5b5f611e5b85828601611ce4565b925050602083013567ffffffffffffffff811115611e7c57611e7b611a10565b5b611e8885828601611e0b565b9150509250929050565b5f60208284031215611ea757611ea6611a0c565b5b5f611eb484828501611c23565b91505092915050565b5f80fd5b5f8083601f840112611ed657611ed5611cf8565b5b8235905067ffffffffffffffff811115611ef357611ef2611ebd565b5b602083019150836020820283011115611f0f57611f0e611d9f565b5b9250929050565b5f805f8060608587031215611f2e57611f2d611a0c565b5b5f611f3b87828801611c23565b9450506020611f4c87828801611b76565b935050604085013567ffffffffffffffff811115611f6d57611f6c611a10565b5b611f7987828801611ec1565b925092505092959194509250565b611f9081611a14565b82525050565b5f602082019050611fa95f830184611f87565b92915050565b611fb881611b57565b82525050565b5f602082019050611fd15f830184611faf565b92915050565b611fe081611a94565b8114611fea575f80fd5b50565b5f81359050611ffb81611fd7565b92915050565b5f806040838503121561201757612016611a0c565b5b5f61202485828601611c23565b925050602061203585828601611fed565b9150509250929050565b5f80fd5b5f67ffffffffffffffff82111561205d5761205c611cfc565b5b61206682611aef565b9050602081019050919050565b828183375f83830152505050565b5f61209361208e84612043565b611d5a565b9050828152602081018484840111156120af576120ae61203f565b5b6120ba848285612073565b509392505050565b5f82601f8301126120d6576120d5611cf8565b5b81356120e6848260208601612081565b91505092915050565b5f805f806080858703121561210757612106611a0c565b5b5f61211487828801611c23565b945050602061212587828801611c23565b935050604061213687828801611b76565b925050606085013567ffffffffffffffff81111561215757612156611a10565b5b612163878288016120c2565b91505092959194509250565b5f806040838503121561218557612184611a0c565b5b5f61219285828601611ce4565b92505060206121a385828601611ce4565b9150509250929050565b6121b681611cc5565b82525050565b5f6020820190506121cf5f8301846121ad565b92915050565b5f80604083850312156121eb576121ea611a0c565b5b5f6121f885828601611c23565b925050602061220985828601611c23565b9150509250929050565b7f4e487b71000000000000000000000000000000000000000000000000000000005f52602260045260245ffd5b5f600282049050600182168061225757607f821691505b60208210810361226a57612269612213565b5b50919050565b7f746f6b656e20646f65736e2774206578697374000000000000000000000000005f82015250565b5f6122a4601383611ad1565b91506122af82612270565b602082019050919050565b5f6020820190508181035f8301526122d181612298565b9050919050565b7f6e6f74206f776e6572206e6f7220617070726f76656420666f7220616c6c00005f82015250565b5f61230c601e83611ad1565b9150612317826122d8565b602082019050919050565b5f6020820190508181035f83015261233981612300565b9050919050565b7f6e6f74206f776e6572206e6f7220617070726f766564000000000000000000005f82015250565b5f612374601683611ad1565b915061237f82612340565b602082019050919050565b5f6020820190508181035f8301526123a181612368565b9050919050565b7f496e76616c6964206d65726b6c652070726f6f660000000000000000000000005f82015250565b5f6123dc601483611ad1565b91506123e7826123a8565b602082019050919050565b5f6020820190508181035f830152612409816123d0565b9050919050565b7f416c7265616479206d696e7465642100000000000000000000000000000000005f82015250565b5f612444600f83611ad1565b915061244f82612410565b602082019050919050565b5f6020820190508181035f83015261247181612438565b9050919050565b7f6f776e6572203d207a65726f20616464726573730000000000000000000000005f82015250565b5f6124ac601483611ad1565b91506124b782612478565b602082019050919050565b5f6020820190508181035f8301526124d9816124a0565b9050919050565b5f819050919050565b6124fa6124f582611cc5565b6124e0565b82525050565b5f61250b82856124e9565b60208201915061251b82846124e9565b6020820191508190509392505050565b7f546f6b656e204e6f7420457869737400000000000000000000000000000000005f82015250565b5f61255f600f83611ad1565b915061256a8261252b565b602082019050919050565b5f6020820190508181035f83015261258c81612553565b9050919050565b5f81905092915050565b5f6125a782611ac7565b6125b18185612593565b93506125c1818560208601611ae1565b80840191505092915050565b5f6125d8828561259d565b91506125e4828461259d565b91508190509392505050565b7f6e6f74206f776e657200000000000000000000000000000000000000000000005f82015250565b5f612624600983611ad1565b915061262f826125f0565b602082019050919050565b5f6020820190508181035f83015261265181612618565b9050919050565b7f7472616e7366657220746f20746865207a65726f2061646472657373000000005f82015250565b5f61268c601c83611ad1565b915061269782612658565b602082019050919050565b5f6020820190508181035f8301526126b981612680565b9050919050565b7f4e487b71000000000000000000000000000000000000000000000000000000005f52601160045260245ffd5b5f6126f782611b57565b915061270283611b57565b925082820390508181111561271a576127196126c0565b5b92915050565b5f61272a82611b57565b915061273583611b57565b925082820190508082111561274d5761274c6126c0565b5b92915050565b5f8160601b9050919050565b5f61276982612753565b9050919050565b5f61277a8261275f565b9050919050565b61279261278d82611bd4565b612770565b82525050565b5f6127a38284612781565b60148201915081905092915050565b7f6d696e7420746f207a65726f20616464726573730000000000000000000000005f82015250565b5f6127e6601483611ad1565b91506127f1826127b2565b602082019050919050565b5f6020820190508181035f830152612813816127da565b9050919050565b7f746f6b656e20616c7265616479206d696e7465640000000000000000000000005f82015250565b5f61284e601483611ad1565b91506128598261281a565b602082019050919050565b5f6020820190508181035f83015261287b81612842565b9050919050565b5f61288c82611b57565b91507fffffffffffffffffffffffffffffffffffffffffffffffffffffffffffffffff82036128be576128bd6126c0565b5b600182019050919050565b7f4e487b71000000000000000000000000000000000000000000000000000000005f52601260045260245ffd5b5f61290082611b57565b915061290b83611b57565b92508261291b5761291a6128c9565b5b828204905092915050565b5f61293082611b57565b915061293b83611b57565b92508261294b5761294a6128c9565b5b828206905092915050565b7f4e487b71000000000000000000000000000000000000000000000000000000005f52603260045260245ffd5b5f81519050919050565b5f82825260208201905092915050565b5f6129a782612983565b6129b1818561298d565b93506129c1818560208601611ae1565b6129ca81611aef565b840191505092915050565b5f6080820190506129e85f830187611be5565b6129f56020830186611be5565b612a026040830185611faf565b8181036060830152612a14818461299d565b905095945050505050565b5f81519050612a2d81611a3f565b92915050565b5f60208284031215612a4857612a47611a0c565b5b5f612a5584828501612a1f565b9150509291505056fea26469706673582212200ae6e8e4f60625fdd281fc66d328a5e06c6c71db0c1192b95273356b995e7a3764736f6c634300081a0033",
			"opcodes": "PUSH1 0xA0 PUSH1 0x40 MSTORE CALLVALUE DUP1 ISZERO PUSH2 0xF JUMPI PUSH0 DUP1 REVERT JUMPDEST POP PUSH1 0x40 MLOAD PUSH2 0x2FFB CODESIZE SUB DUP1 PUSH2 0x2FFB DUP4 CODECOPY DUP2 DUP2 ADD PUSH1 0x40 MSTORE DUP2 ADD SWAP1 PUSH2 0x31 SWAP2 SWAP1 PUSH2 0x1E4 JUMP JUMPDEST DUP3 DUP3 DUP2 PUSH0 SWAP1 DUP2 PUSH2 0x41 SWAP2 SWAP1 PUSH2 0x479 JUMP JUMPDEST POP DUP1 PUSH1 0x1 SWAP1 DUP2 PUSH2 0x51 SWAP2 SWAP1 PUSH2 0x479 JUMP JUMPDEST POP POP POP DUP1 PUSH1 0x80 DUP2 DUP2 MSTORE POP POP POP POP POP PUSH2 0x548 JUMP JUMPDEST PUSH0 PUSH1 0x40 MLOAD SWAP1 POP SWAP1 JUMP JUMPDEST PUSH0 DUP1 REVERT JUMPDEST PUSH0 DUP1 REVERT JUMPDEST PUSH0 DUP1 REVERT JUMPDEST PUSH0 DUP1 REVERT JUMPDEST PUSH0 PUSH1 0x1F NOT PUSH1 0x1F DUP4 ADD AND SWAP1 POP SWAP2 SWAP1 POP JUMP JUMPDEST PUSH32 0x4E487B7100000000000000000000000000000000000000000000000000000000 PUSH0 MSTORE PUSH1 0x41 PUSH1 0x4 MSTORE PUSH1 0x24 PUSH0 REVERT JUMPDEST PUSH2 0xC3 DUP3 PUSH2 0x7D JUMP JUMPDEST DUP2 ADD DUP2 DUP2 LT PUSH8 0xFFFFFFFFFFFFFFFF DUP3 GT OR ISZERO PUSH2 0xE2 JUMPI PUSH2 0xE1 PUSH2 0x8D JUMP JUMPDEST JUMPDEST DUP1 PUSH1 0x40 MSTORE POP POP POP JUMP JUMPDEST PUSH0 PUSH2 0xF4 PUSH2 0x64 JUMP JUMPDEST SWAP1 POP PUSH2 0x100 DUP3 DUP3 PUSH2 0xBA JUMP JUMPDEST SWAP2 SWAP1 POP JUMP JUMPDEST PUSH0 PUSH8 0xFFFFFFFFFFFFFFFF DUP3 GT ISZERO PUSH2 0x11F JUMPI PUSH2 0x11E PUSH2 0x8D JUMP JUMPDEST JUMPDEST PUSH2 0x128 DUP3 PUSH2 0x7D JUMP JUMPDEST SWAP1 POP PUSH1 0x20 DUP2 ADD SWAP1 POP SWAP2 SWAP1 POP JUMP JUMPDEST DUP3 DUP2 DUP4 MCOPY PUSH0 DUP4 DUP4 ADD MSTORE POP POP POP JUMP JUMPDEST PUSH0 PUSH2 0x155 PUSH2 0x150 DUP5 PUSH2 0x105 JUMP JUMPDEST PUSH2 0xEB JUMP JUMPDEST SWAP1 POP DUP3 DUP2 MSTORE PUSH1 0x20 DUP2 ADD DUP5 DUP5 DUP5 ADD GT ISZERO PUSH2 0x171 JUMPI PUSH2 0x170 PUSH2 0x79 JUMP JUMPDEST JUMPDEST PUSH2 0x17C DUP5 DUP3 DUP6 PUSH2 0x135 JUMP JUMPDEST POP SWAP4 SWAP3 POP POP POP JUMP JUMPDEST PUSH0 DUP3 PUSH1 0x1F DUP4 ADD SLT PUSH2 0x198 JUMPI PUSH2 0x197 PUSH2 0x75 JUMP JUMPDEST JUMPDEST DUP2 MLOAD PUSH2 0x1A8 DUP5 DUP3 PUSH1 0x20 DUP7 ADD PUSH2 0x143 JUMP JUMPDEST SWAP2 POP POP SWAP3 SWAP2 POP POP JUMP JUMPDEST PUSH0 DUP2 SWAP1 POP SWAP2 SWAP1 POP JUMP JUMPDEST PUSH2 0x1C3 DUP2 PUSH2 0x1B1 JUMP JUMPDEST DUP2 EQ PUSH2 0x1CD JUMPI PUSH0 DUP1 REVERT JUMPDEST POP JUMP JUMPDEST PUSH0 DUP2 MLOAD SWAP1 POP PUSH2 0x1DE DUP2 PUSH2 0x1BA JUMP JUMPDEST SWAP3 SWAP2 POP POP JUMP JUMPDEST PUSH0 DUP1 PUSH0 PUSH1 0x60 DUP5 DUP7 SUB SLT ISZERO PUSH2 0x1FB JUMPI PUSH2 0x1FA PUSH2 0x6D JUMP JUMPDEST JUMPDEST PUSH0 DUP5 ADD MLOAD PUSH8 0xFFFFFFFFFFFFFFFF DUP2 GT ISZERO PUSH2 0x218 JUMPI PUSH2 0x217 PUSH2 0x71 JUMP JUMPDEST JUMPDEST PUSH2 0x224 DUP7 DUP3 DUP8 ADD PUSH2 0x184 JUMP JUMPDEST SWAP4 POP POP PUSH1 0x20 DUP5 ADD MLOAD PUSH8 0xFFFFFFFFFFFFFFFF DUP2 GT ISZERO PUSH2 0x245 JUMPI PUSH2 0x244 PUSH2 0x71 JUMP JUMPDEST JUMPDEST PUSH2 0x251 DUP7 DUP3 DUP8 ADD PUSH2 0x184 JUMP JUMPDEST SWAP3 POP POP PUSH1 0x40 PUSH2 0x262 DUP7 DUP3 DUP8 ADD PUSH2 0x1D0 JUMP JUMPDEST SWAP2 POP POP SWAP3 POP SWAP3 POP SWAP3 JUMP JUMPDEST PUSH0 DUP2 MLOAD SWAP1 POP SWAP2 SWAP1 POP JUMP JUMPDEST PUSH32 0x4E487B7100000000000000000000000000000000000000000000000000000000 PUSH0 MSTORE PUSH1 0x22 PUSH1 0x4 MSTORE PUSH1 0x24 PUSH0 REVERT JUMPDEST PUSH0 PUSH1 0x2 DUP3 DIV SWAP1 POP PUSH1 0x1 DUP3 AND DUP1 PUSH2 0x2BA JUMPI PUSH1 0x7F DUP3 AND SWAP2 POP JUMPDEST PUSH1 0x20 DUP3 LT DUP2 SUB PUSH2 0x2CD JUMPI PUSH2 0x2CC PUSH2 0x276 JUMP JUMPDEST JUMPDEST POP SWAP2 SWAP1 POP JUMP JUMPDEST PUSH0 DUP2 SWAP1 POP DUP2 PUSH0 MSTORE PUSH1 0x20 PUSH0 KECCAK256 SWAP1 POP SWAP2 SWAP1 POP JUMP JUMPDEST PUSH0 PUSH1 0x20 PUSH1 0x1F DUP4 ADD DIV SWAP1 POP SWAP2 SWAP1 POP JUMP JUMPDEST PUSH0 DUP3 DUP3 SHL SWAP1 POP SWAP3 SWAP2 POP POP JUMP JUMPDEST PUSH0 PUSH1 0x8 DUP4 MUL PUSH2 0x32F PUSH32 0xFFFFFFFFFFFFFFFFFFFFFFFFFFFFFFFFFFFFFFFFFFFFFFFFFFFFFFFFFFFFFFFF DUP3 PUSH2 0x2F4 JUMP JUMPDEST PUSH2 0x339 DUP7 DUP4 PUSH2 0x2F4 JUMP JUMPDEST SWAP6 POP DUP1 NOT DUP5 AND SWAP4 POP DUP1 DUP7 AND DUP5 OR SWAP3 POP POP POP SWAP4 SWAP3 POP POP POP JUMP JUMPDEST PUSH0 DUP2 SWAP1 POP SWAP2 SWAP1 POP JUMP JUMPDEST PUSH0 DUP2 SWAP1 POP SWAP2 SWAP1 POP JUMP JUMPDEST PUSH0 PUSH2 0x37D PUSH2 0x378 PUSH2 0x373 DUP5 PUSH2 0x351 JUMP JUMPDEST PUSH2 0x35A JUMP JUMPDEST PUSH2 0x351 JUMP JUMPDEST SWAP1 POP SWAP2 SWAP1 POP JUMP JUMPDEST PUSH0 DUP2 SWAP1 POP SWAP2 SWAP1 POP JUMP JUMPDEST PUSH2 0x396 DUP4 PUSH2 0x363 JUMP JUMPDEST PUSH2 0x3AA PUSH2 0x3A2 DUP3 PUSH2 0x384 JUMP JUMPDEST DUP5 DUP5 SLOAD PUSH2 0x300 JUMP JUMPDEST DUP3 SSTORE POP POP POP POP JUMP JUMPDEST PUSH0 SWAP1 JUMP JUMPDEST PUSH2 0x3BE PUSH2 0x3B2 JUMP JUMPDEST PUSH2 0x3C9 DUP2 DUP5 DUP5 PUSH2 0x38D JUMP JUMPDEST POP POP POP JUMP JUMPDEST JUMPDEST DUP2 DUP2 LT ISZERO PUSH2 0x3EC JUMPI PUSH2 0x3E1 PUSH0 DUP3 PUSH2 0x3B6 JUMP JUMPDEST PUSH1 0x1 DUP2 ADD SWAP1 POP PUSH2 0x3CF JUMP JUMPDEST POP POP JUMP JUMPDEST PUSH1 0x1F DUP3 GT ISZERO PUSH2 0x431 JUMPI PUSH2 0x402 DUP2 PUSH2 0x2D3 JUMP JUMPDEST PUSH2 0x40B DUP5 PUSH2 0x2E5 JUMP JUMPDEST DUP2 ADD PUSH1 0x20 DUP6 LT ISZERO PUSH2 0x41A JUMPI DUP2 SWAP1 POP JUMPDEST PUSH2 0x42E PUSH2 0x426 DUP6 PUSH2 0x2E5 JUMP JUMPDEST DUP4 ADD DUP3 PUSH2 0x3CE JUMP JUMPDEST POP POP JUMPDEST POP POP POP JUMP JUMPDEST PUSH0 DUP3 DUP3 SHR SWAP1 POP SWAP3 SWAP2 POP POP JUMP JUMPDEST PUSH0 PUSH2 0x451 PUSH0 NOT DUP5 PUSH1 0x8 MUL PUSH2 0x436 JUMP JUMPDEST NOT DUP1 DUP4 AND SWAP2 POP POP SWAP3 SWAP2 POP POP JUMP JUMPDEST PUSH0 PUSH2 0x469 DUP4 DUP4 PUSH2 0x442 JUMP JUMPDEST SWAP2 POP DUP3 PUSH1 0x2 MUL DUP3 OR SWAP1 POP SWAP3 SWAP2 POP POP JUMP JUMPDEST PUSH2 0x482 DUP3 PUSH2 0x26C JUMP JUMPDEST PUSH8 0xFFFFFFFFFFFFFFFF DUP2 GT ISZERO PUSH2 0x49B JUMPI PUSH2 0x49A PUSH2 0x8D JUMP JUMPDEST JUMPDEST PUSH2 0x4A5 DUP3 SLOAD PUSH2 0x2A3 JUMP JUMPDEST PUSH2 0x4B0 DUP3 DUP3 DUP6 PUSH2 0x3F0 JUMP JUMPDEST PUSH0 PUSH1 0x20 SWAP1 POP PUSH1 0x1F DUP4 GT PUSH1 0x1 DUP2 EQ PUSH2 0x4E1 JUMPI PUSH0 DUP5 ISZERO PUSH2 0x4CF JUMPI DUP3 DUP8 ADD MLOAD SWAP1 POP JUMPDEST PUSH2 0x4D9 DUP6 DUP3 PUSH2 0x45E JUMP JUMPDEST DUP7 SSTORE POP PUSH2 0x540 JUMP JUMPDEST PUSH1 0x1F NOT DUP5 AND PUSH2 0x4EF DUP7 PUSH2 0x2D3 JUMP JUMPDEST PUSH0 JUMPDEST DUP3 DUP2 LT ISZERO PUSH2 0x516 JUMPI DUP5 DUP10 ADD MLOAD DUP3 SSTORE PUSH1 0x1 DUP3 ADD SWAP2 POP PUSH1 0x20 DUP6 ADD SWAP5 POP PUSH1 0x20 DUP2 ADD SWAP1 POP PUSH2 0x4F1 JUMP JUMPDEST DUP7 DUP4 LT ISZERO PUSH2 0x533 JUMPI DUP5 DUP10 ADD MLOAD PUSH2 0x52F PUSH1 0x1F DUP10 AND DUP3 PUSH2 0x442 JUMP JUMPDEST DUP4 SSTORE POP JUMPDEST PUSH1 0x1 PUSH1 0x2 DUP9 MUL ADD DUP9 SSTORE POP POP POP JUMPDEST POP POP POP POP POP POP JUMP JUMPDEST PUSH1 0x80 MLOAD PUSH2 0x2A94 PUSH2 0x567 PUSH0 CODECOPY PUSH0 DUP2 DUP2 PUSH2 0x85A ADD MSTORE PUSH2 0xF86 ADD MSTORE PUSH2 0x2A94 PUSH0 RETURN INVALID PUSH1 0x80 PUSH1 0x40 MSTORE CALLVALUE DUP1 ISZERO PUSH2 0xF JUMPI PUSH0 DUP1 REVERT JUMPDEST POP PUSH1 0x4 CALLDATASIZE LT PUSH2 0x11F JUMPI PUSH0 CALLDATALOAD PUSH1 0xE0 SHR DUP1 PUSH4 0x641CE140 GT PUSH2 0xAB JUMPI DUP1 PUSH4 0xB88D4FDE GT PUSH2 0x6F JUMPI DUP1 PUSH4 0xB88D4FDE EQ PUSH2 0x329 JUMPI DUP1 PUSH4 0xC7CEC487 EQ PUSH2 0x345 JUMPI DUP1 PUSH4 0xC87B56DD EQ PUSH2 0x375 JUMPI DUP1 PUSH4 0xE985E9C5 EQ PUSH2 0x3A5 JUMPI DUP1 PUSH4 0xEBF0C717 EQ PUSH2 0x3D5 JUMPI PUSH2 0x11F JUMP JUMPDEST DUP1 PUSH4 0x641CE140 EQ PUSH2 0x285 JUMPI DUP1 PUSH4 0x6B9241FC EQ PUSH2 0x2A1 JUMPI DUP1 PUSH4 0x70A08231 EQ PUSH2 0x2BF JUMPI DUP1 PUSH4 0x95D89B41 EQ PUSH2 0x2EF JUMPI DUP1 PUSH4 0xA22CB465 EQ PUSH2 0x30D JUMPI PUSH2 0x11F JUMP JUMPDEST DUP1 PUSH4 0x23B872DD GT PUSH2 0xF2 JUMPI DUP1 PUSH4 0x23B872DD EQ PUSH2 0x1BD JUMPI DUP1 PUSH4 0x42842E0E EQ PUSH2 0x1D9 JUMPI DUP1 PUSH4 0x46F265FD EQ PUSH2 0x1F5 JUMPI DUP1 PUSH4 0x630303C6 EQ PUSH2 0x225 JUMPI DUP1 PUSH4 0x6352211E EQ PUSH2 0x255 JUMPI PUSH2 0x11F JUMP JUMPDEST DUP1 PUSH4 0x1FFC9A7 EQ PUSH2 0x123 JUMPI DUP1 PUSH4 0x6FDDE03 EQ PUSH2 0x153 JUMPI DUP1 PUSH4 0x81812FC EQ PUSH2 0x171 JUMPI DUP1 PUSH4 0x95EA7B3 EQ PUSH2 0x1A1 JUMPI JUMPDEST PUSH0 DUP1 REVERT JUMPDEST PUSH2 0x13D PUSH1 0x4 DUP1 CALLDATASIZE SUB DUP2 ADD SWAP1 PUSH2 0x138 SWAP2 SWAP1 PUSH2 0x1A69 JUMP JUMPDEST PUSH2 0x3F3 JUMP JUMPDEST PUSH1 0x40 MLOAD PUSH2 0x14A SWAP2 SWAP1 PUSH2 0x1AAE JUMP JUMPDEST PUSH1 0x40 MLOAD DUP1 SWAP2 SUB SWAP1 RETURN JUMPDEST PUSH2 0x15B PUSH2 0x52C JUMP JUMPDEST PUSH1 0x40 MLOAD PUSH2 0x168 SWAP2 SWAP1 PUSH2 0x1B37 JUMP JUMPDEST PUSH1 0x40 MLOAD DUP1 SWAP2 SUB SWAP1 RETURN JUMPDEST PUSH2 0x18B PUSH1 0x4 DUP1 CALLDATASIZE SUB DUP2 ADD SWAP1 PUSH2 0x186 SWAP2 SWAP1 PUSH2 0x1B8A JUMP JUMPDEST PUSH2 0x5B7 JUMP JUMPDEST PUSH1 0x40 MLOAD PUSH2 0x198 SWAP2 SWAP1 PUSH2 0x1BF4 JUMP JUMPDEST PUSH1 0x40 MLOAD DUP1 SWAP2 SUB SWAP1 RETURN JUMPDEST PUSH2 0x1BB PUSH1 0x4 DUP1 CALLDATASIZE SUB DUP2 ADD SWAP1 PUSH2 0x1B6 SWAP2 SWAP1 PUSH2 0x1C37 JUMP JUMPDEST PUSH2 0x68E JUMP JUMPDEST STOP JUMPDEST PUSH2 0x1D7 PUSH1 0x4 DUP1 CALLDATASIZE SUB DUP2 ADD SWAP1 PUSH2 0x1D2 SWAP2 SWAP1 PUSH2 0x1C75 JUMP JUMPDEST PUSH2 0x7CC JUMP JUMPDEST STOP JUMPDEST PUSH2 0x1F3 PUSH1 0x4 DUP1 CALLDATASIZE SUB DUP2 ADD SWAP1 PUSH2 0x1EE SWAP2 SWAP1 PUSH2 0x1C75 JUMP JUMPDEST PUSH2 0x834 JUMP JUMPDEST STOP JUMPDEST PUSH2 0x20F PUSH1 0x4 DUP1 CALLDATASIZE SUB DUP2 ADD SWAP1 PUSH2 0x20A SWAP2 SWAP1 PUSH2 0x1E38 JUMP JUMPDEST PUSH2 0x853 JUMP JUMPDEST PUSH1 0x40 MLOAD PUSH2 0x21C SWAP2 SWAP1 PUSH2 0x1AAE JUMP JUMPDEST PUSH1 0x40 MLOAD DUP1 SWAP2 SUB SWAP1 RETURN JUMPDEST PUSH2 0x23F PUSH1 0x4 DUP1 CALLDATASIZE SUB DUP2 ADD SWAP1 PUSH2 0x23A SWAP2 SWAP1 PUSH2 0x1E92 JUMP JUMPDEST PUSH2 0x887 JUMP JUMPDEST PUSH1 0x40 MLOAD PUSH2 0x24C SWAP2 SWAP1 PUSH2 0x1AAE JUMP JUMPDEST PUSH1 0x40 MLOAD DUP1 SWAP2 SUB SWAP1 RETURN JUMPDEST PUSH2 0x26F PUSH1 0x4 DUP1 CALLDATASIZE SUB DUP2 ADD SWAP1 PUSH2 0x26A SWAP2 SWAP1 PUSH2 0x1B8A JUMP JUMPDEST PUSH2 0x8A4 JUMP JUMPDEST PUSH1 0x40 MLOAD PUSH2 0x27C SWAP2 SWAP1 PUSH2 0x1BF4 JUMP JUMPDEST PUSH1 0x40 MLOAD DUP1 SWAP2 SUB SWAP1 RETURN JUMPDEST PUSH2 0x29F PUSH1 0x4 DUP1 CALLDATASIZE SUB DUP2 ADD SWAP1 PUSH2 0x29A SWAP2 SWAP1 PUSH2 0x1F16 JUMP JUMPDEST PUSH2 0x94B JUMP JUMPDEST STOP JUMPDEST PUSH2 0x2A9 PUSH2 0xACB JUMP JUMPDEST PUSH1 0x40 MLOAD PUSH2 0x2B6 SWAP2 SWAP1 PUSH2 0x1F96 JUMP JUMPDEST PUSH1 0x40 MLOAD DUP1 SWAP2 SUB SWAP1 RETURN JUMPDEST PUSH2 0x2D9 PUSH1 0x4 DUP1 CALLDATASIZE SUB DUP2 ADD SWAP1 PUSH2 0x2D4 SWAP2 SWAP1 PUSH2 0x1E92 JUMP JUMPDEST PUSH2 0xAF2 JUMP JUMPDEST PUSH1 0x40 MLOAD PUSH2 0x2E6 SWAP2 SWAP1 PUSH2 0x1FBE JUMP JUMPDEST PUSH1 0x40 MLOAD DUP1 SWAP2 SUB SWAP1 RETURN JUMPDEST PUSH2 0x2F7 PUSH2 0xBA6 JUMP JUMPDEST PUSH1 0x40 MLOAD PUSH2 0x304 SWAP2 SWAP1 PUSH2 0x1B37 JUMP JUMPDEST PUSH1 0x40 MLOAD DUP1 SWAP2 SUB SWAP1 RETURN JUMPDEST PUSH2 0x327 PUSH1 0x4 DUP1 CALLDATASIZE SUB DUP2 ADD SWAP1 PUSH2 0x322 SWAP2 SWAP1 PUSH2 0x2001 JUMP JUMPDEST PUSH2 0xC32 JUMP JUMPDEST STOP JUMPDEST PUSH2 0x343 PUSH1 0x4 DUP1 CALLDATASIZE SUB DUP2 ADD SWAP1 PUSH2 0x33E SWAP2 SWAP1 PUSH2 0x20EF JUMP JUMPDEST PUSH2 0xD2A JUMP JUMPDEST STOP JUMPDEST PUSH2 0x35F PUSH1 0x4 DUP1 CALLDATASIZE SUB DUP2 ADD SWAP1 PUSH2 0x35A SWAP2 SWAP1 PUSH2 0x216F JUMP JUMPDEST PUSH2 0xD94 JUMP JUMPDEST PUSH1 0x40 MLOAD PUSH2 0x36C SWAP2 SWAP1 PUSH2 0x21BC JUMP JUMPDEST PUSH1 0x40 MLOAD DUP1 SWAP2 SUB SWAP1 RETURN JUMPDEST PUSH2 0x38F PUSH1 0x4 DUP1 CALLDATASIZE SUB DUP2 ADD SWAP1 PUSH2 0x38A SWAP2 SWAP1 PUSH2 0x1B8A JUMP JUMPDEST PUSH2 0xDFC JUMP JUMPDEST PUSH1 0x40 MLOAD PUSH2 0x39C SWAP2 SWAP1 PUSH2 0x1B37 JUMP JUMPDEST PUSH1 0x40 MLOAD DUP1 SWAP2 SUB SWAP1 RETURN JUMPDEST PUSH2 0x3BF PUSH1 0x4 DUP1 CALLDATASIZE SUB DUP2 ADD SWAP1 PUSH2 0x3BA SWAP2 SWAP1 PUSH2 0x21D5 JUMP JUMPDEST PUSH2 0xEF6 JUMP JUMPDEST PUSH1 0x40 MLOAD PUSH2 0x3CC SWAP2 SWAP1 PUSH2 0x1AAE JUMP JUMPDEST PUSH1 0x40 MLOAD DUP1 SWAP2 SUB SWAP1 RETURN JUMPDEST PUSH2 0x3DD PUSH2 0xF84 JUMP JUMPDEST PUSH1 0x40 MLOAD PUSH2 0x3EA SWAP2 SWAP1 PUSH2 0x21BC JUMP JUMPDEST PUSH1 0x40 MLOAD DUP1 SWAP2 SUB SWAP1 RETURN JUMPDEST PUSH0 PUSH32 0x80AC58CD00000000000000000000000000000000000000000000000000000000 PUSH28 0xFFFFFFFFFFFFFFFFFFFFFFFFFFFFFFFFFFFFFFFFFFFFFFFFFFFFFFFF NOT AND DUP3 PUSH28 0xFFFFFFFFFFFFFFFFFFFFFFFFFFFFFFFFFFFFFFFFFFFFFFFFFFFFFFFF NOT AND EQ DUP1 PUSH2 0x4BD JUMPI POP PUSH32 0x1FFC9A700000000000000000000000000000000000000000000000000000000 PUSH28 0xFFFFFFFFFFFFFFFFFFFFFFFFFFFFFFFFFFFFFFFFFFFFFFFFFFFFFFFF NOT AND DUP3 PUSH28 0xFFFFFFFFFFFFFFFFFFFFFFFFFFFFFFFFFFFFFFFFFFFFFFFFFFFFFFFF NOT AND EQ JUMPDEST DUP1 PUSH2 0x525 JUMPI POP PUSH32 0x5B5E139F00000000000000000000000000000000000000000000000000000000 PUSH28 0xFFFFFFFFFFFFFFFFFFFFFFFFFFFFFFFFFFFFFFFFFFFFFFFFFFFFFFFF NOT AND DUP3 PUSH28 0xFFFFFFFFFFFFFFFFFFFFFFFFFFFFFFFFFFFFFFFFFFFFFFFFFFFFFFFF NOT AND EQ JUMPDEST SWAP1 POP SWAP2 SWAP1 POP JUMP JUMPDEST PUSH0 DUP1 SLOAD PUSH2 0x538 SWAP1 PUSH2 0x2240 JUMP JUMPDEST DUP1 PUSH1 0x1F ADD PUSH1 0x20 DUP1 SWAP2 DIV MUL PUSH1 0x20 ADD PUSH1 0x40 MLOAD SWAP1 DUP2 ADD PUSH1 0x40 MSTORE DUP1 SWAP3 SWAP2 SWAP1 DUP2 DUP2 MSTORE PUSH1 0x20 ADD DUP3 DUP1 SLOAD PUSH2 0x564 SWAP1 PUSH2 0x2240 JUMP JUMPDEST DUP1 ISZERO PUSH2 0x5AF JUMPI DUP1 PUSH1 0x1F LT PUSH2 0x586 JUMPI PUSH2 0x100 DUP1 DUP4 SLOAD DIV MUL DUP4 MSTORE SWAP2 PUSH1 0x20 ADD SWAP2 PUSH2 0x5AF JUMP JUMPDEST DUP3 ADD SWAP2 SWAP1 PUSH0 MSTORE PUSH1 0x20 PUSH0 KECCAK256 SWAP1 JUMPDEST DUP2 SLOAD DUP2 MSTORE SWAP1 PUSH1 0x1 ADD SWAP1 PUSH1 0x20 ADD DUP1 DUP4 GT PUSH2 0x592 JUMPI DUP3 SWAP1 SUB PUSH1 0x1F AND DUP3 ADD SWAP2 JUMPDEST POP POP POP POP POP DUP2 JUMP JUMPDEST PUSH0 DUP1 PUSH20 0xFFFFFFFFFFFFFFFFFFFFFFFFFFFFFFFFFFFFFFFF AND PUSH1 0x2 PUSH0 DUP5 DUP2 MSTORE PUSH1 0x20 ADD SWAP1 DUP2 MSTORE PUSH1 0x20 ADD PUSH0 KECCAK256 PUSH0 SWAP1 SLOAD SWAP1 PUSH2 0x100 EXP SWAP1 DIV PUSH20 0xFFFFFFFFFFFFFFFFFFFFFFFFFFFFFFFFFFFFFFFF AND PUSH20 0xFFFFFFFFFFFFFFFFFFFFFFFFFFFFFFFFFFFFFFFF AND SUB PUSH2 0x656 JUMPI PUSH1 0x40 MLOAD PUSH32 0x8C379A000000000000000000000000000000000000000000000000000000000 DUP2 MSTORE PUSH1 0x4 ADD PUSH2 0x64D SWAP1 PUSH2 0x22BA JUMP JUMPDEST PUSH1 0x40 MLOAD DUP1 SWAP2 SUB SWAP1 REVERT JUMPDEST PUSH1 0x4 PUSH0 DUP4 DUP2 MSTORE PUSH1 0x20 ADD SWAP1 DUP2 MSTORE PUSH1 0x20 ADD PUSH0 KECCAK256 PUSH0 SWAP1 SLOAD SWAP1 PUSH2 0x100 EXP SWAP1 DIV PUSH20 0xFFFFFFFFFFFFFFFFFFFFFFFFFFFFFFFFFFFFFFFF AND SWAP1 POP SWAP2 SWAP1 POP JUMP JUMPDEST PUSH0 PUSH1 0x2 PUSH0 DUP4 DUP2 MSTORE PUSH1 0x20 ADD SWAP1 DUP2 MSTORE PUSH1 0x20 ADD PUSH0 KECCAK256 PUSH0 SWAP1 SLOAD SWAP1 PUSH2 0x100 EXP SWAP1 DIV PUSH20 0xFFFFFFFFFFFFFFFFFFFFFFFFFFFFFFFFFFFFFFFF AND SWAP1 POP DUP1 PUSH20 0xFFFFFFFFFFFFFFFFFFFFFFFFFFFFFFFFFFFFFFFF AND CALLER PUSH20 0xFFFFFFFFFFFFFFFFFFFFFFFFFFFFFFFFFFFFFFFF AND EQ DUP1 PUSH2 0x77D JUMPI POP PUSH1 0x5 PUSH0 DUP3 PUSH20 0xFFFFFFFFFFFFFFFFFFFFFFFFFFFFFFFFFFFFFFFF AND PUSH20 0xFFFFFFFFFFFFFFFFFFFFFFFFFFFFFFFFFFFFFFFF AND DUP2 MSTORE PUSH1 0x20 ADD SWAP1 DUP2 MSTORE PUSH1 0x20 ADD PUSH0 KECCAK256 PUSH0 CALLER PUSH20 0xFFFFFFFFFFFFFFFFFFFFFFFFFFFFFFFFFFFFFFFF AND PUSH20 0xFFFFFFFFFFFFFFFFFFFFFFFFFFFFFFFFFFFFFFFF AND DUP2 MSTORE PUSH1 0x20 ADD SWAP1 DUP2 MSTORE PUSH1 0x20 ADD PUSH0 KECCAK256 PUSH0 SWAP1 SLOAD SWAP1 PUSH2 0x100 EXP SWAP1 DIV PUSH1 0xFF AND JUMPDEST PUSH2 0x7BC JUMPI PUSH1 0x40 MLOAD PUSH32 0x8C379A000000000000000000000000000000000000000000000000000000000 DUP2 MSTORE PUSH1 0x4 ADD PUSH2 0x7B3 SWAP1 PUSH2 0x2322 JUMP JUMPDEST PUSH1 0x40 MLOAD DUP1 SWAP2 SUB SWAP1 REVERT JUMPDEST PUSH2 0x7C7 DUP2 DUP5 DUP5 PUSH2 0xFA8 JUMP JUMPDEST POP POP POP JUMP JUMPDEST PUSH0 PUSH2 0x7D6 DUP3 PUSH2 0x8A4 JUMP JUMPDEST SWAP1 POP PUSH2 0x7E3 DUP2 CALLER DUP5 PUSH2 0x1057 JUMP JUMPDEST PUSH2 0x822 JUMPI PUSH1 0x40 MLOAD PUSH32 0x8C379A000000000000000000000000000000000000000000000000000000000 DUP2 MSTORE PUSH1 0x4 ADD PUSH2 0x819 SWAP1 PUSH2 0x238A JUMP JUMPDEST PUSH1 0x40 MLOAD DUP1 SWAP2 SUB SWAP1 REVERT JUMPDEST PUSH2 0x82E DUP2 DUP6 DUP6 DUP6 PUSH2 0x1182 JUMP JUMPDEST POP POP POP POP JUMP JUMPDEST PUSH2 0x84E DUP4 DUP4 DUP4 PUSH1 0x40 MLOAD DUP1 PUSH1 0x20 ADD PUSH1 0x40 MSTORE DUP1 PUSH0 DUP2 MSTORE POP PUSH2 0xD2A JUMP JUMPDEST POP POP POP JUMP JUMPDEST PUSH0 PUSH2 0x87F DUP3 PUSH32 0x0 DUP6 PUSH2 0x13C1 JUMP JUMPDEST SWAP1 POP SWAP3 SWAP2 POP POP JUMP JUMPDEST PUSH1 0x6 PUSH1 0x20 MSTORE DUP1 PUSH0 MSTORE PUSH1 0x40 PUSH0 KECCAK256 PUSH0 SWAP2 POP SLOAD SWAP1 PUSH2 0x100 EXP SWAP1 DIV PUSH1 0xFF AND DUP2 JUMP JUMPDEST PUSH0 PUSH1 0x2 PUSH0 DUP4 DUP2 MSTORE PUSH1 0x20 ADD SWAP1 DUP2 MSTORE PUSH1 0x20 ADD PUSH0 KECCAK256 PUSH0 SWAP1 SLOAD SWAP1 PUSH2 0x100 EXP SWAP1 DIV PUSH20 0xFFFFFFFFFFFFFFFFFFFFFFFFFFFFFFFFFFFFFFFF AND SWAP1 POP PUSH0 PUSH20 0xFFFFFFFFFFFFFFFFFFFFFFFFFFFFFFFFFFFFFFFF AND DUP2 PUSH20 0xFFFFFFFFFFFFFFFFFFFFFFFFFFFFFFFFFFFFFFFF AND SUB PUSH2 0x946 JUMPI PUSH1 0x40 MLOAD PUSH32 0x8C379A000000000000000000000000000000000000000000000000000000000 DUP2 MSTORE PUSH1 0x4 ADD PUSH2 0x93D SWAP1 PUSH2 0x22BA JUMP JUMPDEST PUSH1 0x40 MLOAD DUP1 SWAP2 SUB SWAP1 REVERT JUMPDEST SWAP2 SWAP1 POP JUMP JUMPDEST PUSH2 0x99D PUSH2 0x957 DUP6 PUSH2 0x13D7 JUMP JUMPDEST DUP4 DUP4 DUP1 DUP1 PUSH1 0x20 MUL PUSH1 0x20 ADD PUSH1 0x40 MLOAD SWAP1 DUP2 ADD PUSH1 0x40 MSTORE DUP1 SWAP4 SWAP3 SWAP2 SWAP1 DUP2 DUP2 MSTORE PUSH1 0x20 ADD DUP4 DUP4 PUSH1 0x20 MUL DUP1 DUP3 DUP5 CALLDATACOPY PUSH0 DUP2 DUP5 ADD MSTORE PUSH1 0x1F NOT PUSH1 0x1F DUP3 ADD AND SWAP1 POP DUP1 DUP4 ADD SWAP3 POP POP POP POP POP POP POP PUSH2 0x853 JUMP JUMPDEST PUSH2 0x9DC JUMPI PUSH1 0x40 MLOAD PUSH32 0x8C379A000000000000000000000000000000000000000000000000000000000 DUP2 MSTORE PUSH1 0x4 ADD PUSH2 0x9D3 SWAP1 PUSH2 0x23F2 JUMP JUMPDEST PUSH1 0x40 MLOAD DUP1 SWAP2 SUB SWAP1 REVERT JUMPDEST PUSH1 0x6 PUSH0 DUP6 PUSH20 0xFFFFFFFFFFFFFFFFFFFFFFFFFFFFFFFFFFFFFFFF AND PUSH20 0xFFFFFFFFFFFFFFFFFFFFFFFFFFFFFFFFFFFFFFFF AND DUP2 MSTORE PUSH1 0x20 ADD SWAP1 DUP2 MSTORE PUSH1 0x20 ADD PUSH0 KECCAK256 PUSH0 SWAP1 SLOAD SWAP1 PUSH2 0x100 EXP SWAP1 DIV PUSH1 0xFF AND ISZERO PUSH2 0xA66 JUMPI PUSH1 0x40 MLOAD PUSH32 0x8C379A000000000000000000000000000000000000000000000000000000000 DUP2 MSTORE PUSH1 0x4 ADD PUSH2 0xA5D SWAP1 PUSH2 0x245A JUMP JUMPDEST PUSH1 0x40 MLOAD DUP1 SWAP2 SUB SWAP1 REVERT JUMPDEST PUSH1 0x1 PUSH1 0x6 PUSH0 DUP7 PUSH20 0xFFFFFFFFFFFFFFFFFFFFFFFFFFFFFFFFFFFFFFFF AND PUSH20 0xFFFFFFFFFFFFFFFFFFFFFFFFFFFFFFFFFFFFFFFF AND DUP2 MSTORE PUSH1 0x20 ADD SWAP1 DUP2 MSTORE PUSH1 0x20 ADD PUSH0 KECCAK256 PUSH0 PUSH2 0x100 EXP DUP2 SLOAD DUP2 PUSH1 0xFF MUL NOT AND SWAP1 DUP4 ISZERO ISZERO MUL OR SWAP1 SSTORE POP PUSH2 0xAC5 DUP5 DUP5 PUSH2 0x1406 JUMP JUMPDEST POP POP POP POP JUMP JUMPDEST PUSH0 PUSH32 0x150B7A0200000000000000000000000000000000000000000000000000000000 SWAP1 POP SWAP1 JUMP JUMPDEST PUSH0 DUP1 PUSH20 0xFFFFFFFFFFFFFFFFFFFFFFFFFFFFFFFFFFFFFFFF AND DUP3 PUSH20 0xFFFFFFFFFFFFFFFFFFFFFFFFFFFFFFFFFFFFFFFF AND SUB PUSH2 0xB61 JUMPI PUSH1 0x40 MLOAD PUSH32 0x8C379A000000000000000000000000000000000000000000000000000000000 DUP2 MSTORE PUSH1 0x4 ADD PUSH2 0xB58 SWAP1 PUSH2 0x24C2 JUMP JUMPDEST PUSH1 0x40 MLOAD DUP1 SWAP2 SUB SWAP1 REVERT JUMPDEST PUSH1 0x3 PUSH0 DUP4 PUSH20 0xFFFFFFFFFFFFFFFFFFFFFFFFFFFFFFFFFFFFFFFF AND PUSH20 0xFFFFFFFFFFFFFFFFFFFFFFFFFFFFFFFFFFFFFFFF AND DUP2 MSTORE PUSH1 0x20 ADD SWAP1 DUP2 MSTORE PUSH1 0x20 ADD PUSH0 KECCAK256 SLOAD SWAP1 POP SWAP2 SWAP1 POP JUMP JUMPDEST PUSH1 0x1 DUP1 SLOAD PUSH2 0xBB3 SWAP1 PUSH2 0x2240 JUMP JUMPDEST DUP1 PUSH1 0x1F ADD PUSH1 0x20 DUP1 SWAP2 DIV MUL PUSH1 0x20 ADD PUSH1 0x40 MLOAD SWAP1 DUP2 ADD PUSH1 0x40 MSTORE DUP1 SWAP3 SWAP2 SWAP1 DUP2 DUP2 MSTORE PUSH1 0x20 ADD DUP3 DUP1 SLOAD PUSH2 0xBDF SWAP1 PUSH2 0x2240 JUMP JUMPDEST DUP1 ISZERO PUSH2 0xC2A JUMPI DUP1 PUSH1 0x1F LT PUSH2 0xC01 JUMPI PUSH2 0x100 DUP1 DUP4 SLOAD DIV MUL DUP4 MSTORE SWAP2 PUSH1 0x20 ADD SWAP2 PUSH2 0xC2A JUMP JUMPDEST DUP3 ADD SWAP2 SWAP1 PUSH0 MSTORE PUSH1 0x20 PUSH0 KECCAK256 SWAP1 JUMPDEST DUP2 SLOAD DUP2 MSTORE SWAP1 PUSH1 0x1 ADD SWAP1 PUSH1 0x20 ADD DUP1 DUP4 GT PUSH2 0xC0D JUMPI DUP3 SWAP1 SUB PUSH1 0x1F AND DUP3 ADD SWAP2 JUMPDEST POP POP POP POP POP DUP2 JUMP JUMPDEST DUP1 PUSH1 0x5 PUSH0 CALLER PUSH20 0xFFFFFFFFFFFFFFFFFFFFFFFFFFFFFFFFFFFFFFFF AND PUSH20 0xFFFFFFFFFFFFFFFFFFFFFFFFFFFFFFFFFFFFFFFF AND DUP2 MSTORE PUSH1 0x20 ADD SWAP1 DUP2 MSTORE PUSH1 0x20 ADD PUSH0 KECCAK256 PUSH0 DUP5 PUSH20 0xFFFFFFFFFFFFFFFFFFFFFFFFFFFFFFFFFFFFFFFF AND PUSH20 0xFFFFFFFFFFFFFFFFFFFFFFFFFFFFFFFFFFFFFFFF AND DUP2 MSTORE PUSH1 0x20 ADD SWAP1 DUP2 MSTORE PUSH1 0x20 ADD PUSH0 KECCAK256 PUSH0 PUSH2 0x100 EXP DUP2 SLOAD DUP2 PUSH1 0xFF MUL NOT AND SWAP1 DUP4 ISZERO ISZERO MUL OR SWAP1 SSTORE POP DUP2 PUSH20 0xFFFFFFFFFFFFFFFFFFFFFFFFFFFFFFFFFFFFFFFF AND CALLER PUSH20 0xFFFFFFFFFFFFFFFFFFFFFFFFFFFFFFFFFFFFFFFF AND PUSH32 0x17307EAB39AB6107E8899845AD3D59BD9653F200F220920489CA2B5937696C31 DUP4 PUSH1 0x40 MLOAD PUSH2 0xD1E SWAP2 SWAP1 PUSH2 0x1AAE JUMP JUMPDEST PUSH1 0x40 MLOAD DUP1 SWAP2 SUB SWAP1 LOG3 POP POP JUMP JUMPDEST PUSH0 PUSH2 0xD34 DUP4 PUSH2 0x8A4 JUMP JUMPDEST SWAP1 POP PUSH2 0xD41 DUP2 CALLER DUP6 PUSH2 0x1057 JUMP JUMPDEST PUSH2 0xD80 JUMPI PUSH1 0x40 MLOAD PUSH32 0x8C379A000000000000000000000000000000000000000000000000000000000 DUP2 MSTORE PUSH1 0x4 ADD PUSH2 0xD77 SWAP1 PUSH2 0x238A JUMP JUMPDEST PUSH1 0x40 MLOAD DUP1 SWAP2 SUB SWAP1 REVERT JUMPDEST PUSH2 0xD8D DUP2 DUP7 DUP7 DUP7 DUP7 PUSH2 0x1614 JUMP JUMPDEST POP POP POP POP POP JUMP JUMPDEST PUSH0 DUP2 DUP4 LT PUSH2 0xDCA JUMPI DUP2 DUP4 PUSH1 0x40 MLOAD PUSH1 0x20 ADD PUSH2 0xDAF SWAP3 SWAP2 SWAP1 PUSH2 0x2500 JUMP JUMPDEST PUSH1 0x40 MLOAD PUSH1 0x20 DUP2 DUP4 SUB SUB DUP2 MSTORE SWAP1 PUSH1 0x40 MSTORE DUP1 MLOAD SWAP1 PUSH1 0x20 ADD KECCAK256 PUSH2 0xDF4 JUMP JUMPDEST DUP3 DUP3 PUSH1 0x40 MLOAD PUSH1 0x20 ADD PUSH2 0xDDD SWAP3 SWAP2 SWAP1 PUSH2 0x2500 JUMP JUMPDEST PUSH1 0x40 MLOAD PUSH1 0x20 DUP2 DUP4 SUB SUB DUP2 MSTORE SWAP1 PUSH1 0x40 MSTORE DUP1 MLOAD SWAP1 PUSH1 0x20 ADD KECCAK256 JUMPDEST SWAP1 POP SWAP3 SWAP2 POP POP JUMP JUMPDEST PUSH1 0x60 PUSH0 PUSH20 0xFFFFFFFFFFFFFFFFFFFFFFFFFFFFFFFFFFFFFFFF AND PUSH1 0x2 PUSH0 DUP5 DUP2 MSTORE PUSH1 0x20 ADD SWAP1 DUP2 MSTORE PUSH1 0x20 ADD PUSH0 KECCAK256 PUSH0 SWAP1 SLOAD SWAP1 PUSH2 0x100 EXP SWAP1 DIV PUSH20 0xFFFFFFFFFFFFFFFFFFFFFFFFFFFFFFFFFFFFFFFF AND PUSH20 0xFFFFFFFFFFFFFFFFFFFFFFFFFFFFFFFFFFFFFFFF AND SUB PUSH2 0xE9C JUMPI PUSH1 0x40 MLOAD PUSH32 0x8C379A000000000000000000000000000000000000000000000000000000000 DUP2 MSTORE PUSH1 0x4 ADD PUSH2 0xE93 SWAP1 PUSH2 0x2575 JUMP JUMPDEST PUSH1 0x40 MLOAD DUP1 SWAP2 SUB SWAP1 REVERT JUMPDEST PUSH0 PUSH2 0xEA5 PUSH2 0x1633 JUMP JUMPDEST SWAP1 POP PUSH0 DUP2 MLOAD GT PUSH2 0xEC3 JUMPI PUSH1 0x40 MLOAD DUP1 PUSH1 0x20 ADD PUSH1 0x40 MSTORE DUP1 PUSH0 DUP2 MSTORE POP PUSH2 0xEEE JUMP JUMPDEST DUP1 PUSH2 0xECD DUP5 PUSH2 0x1649 JUMP JUMPDEST PUSH1 0x40 MLOAD PUSH1 0x20 ADD PUSH2 0xEDE SWAP3 SWAP2 SWAP1 PUSH2 0x25CD JUMP JUMPDEST PUSH1 0x40 MLOAD PUSH1 0x20 DUP2 DUP4 SUB SUB DUP2 MSTORE SWAP1 PUSH1 0x40 MSTORE JUMPDEST SWAP2 POP POP SWAP2 SWAP1 POP JUMP JUMPDEST PUSH0 PUSH1 0x5 PUSH0 DUP5 PUSH20 0xFFFFFFFFFFFFFFFFFFFFFFFFFFFFFFFFFFFFFFFF AND PUSH20 0xFFFFFFFFFFFFFFFFFFFFFFFFFFFFFFFFFFFFFFFF AND DUP2 MSTORE PUSH1 0x20 ADD SWAP1 DUP2 MSTORE PUSH1 0x20 ADD PUSH0 KECCAK256 PUSH0 DUP4 PUSH20 0xFFFFFFFFFFFFFFFFFFFFFFFFFFFFFFFFFFFFFFFF AND PUSH20 0xFFFFFFFFFFFFFFFFFFFFFFFFFFFFFFFFFFFFFFFF AND DUP2 MSTORE PUSH1 0x20 ADD SWAP1 DUP2 MSTORE PUSH1 0x20 ADD PUSH0 KECCAK256 PUSH0 SWAP1 SLOAD SWAP1 PUSH2 0x100 EXP SWAP1 DIV PUSH1 0xFF AND SWAP1 POP SWAP3 SWAP2 POP POP JUMP JUMPDEST PUSH32 0x0 DUP2 JUMP JUMPDEST DUP2 PUSH1 0x4 PUSH0 DUP4 DUP2 MSTORE PUSH1 0x20 ADD SWAP1 DUP2 MSTORE PUSH1 0x20 ADD PUSH0 KECCAK256 PUSH0 PUSH2 0x100 EXP DUP2 SLOAD DUP2 PUSH20 0xFFFFFFFFFFFFFFFFFFFFFFFFFFFFFFFFFFFFFFFF MUL NOT AND SWAP1 DUP4 PUSH20 0xFFFFFFFFFFFFFFFFFFFFFFFFFFFFFFFFFFFFFFFF AND MUL OR SWAP1 SSTORE POP DUP1 DUP3 PUSH20 0xFFFFFFFFFFFFFFFFFFFFFFFFFFFFFFFFFFFFFFFF AND DUP5 PUSH20 0xFFFFFFFFFFFFFFFFFFFFFFFFFFFFFFFFFFFFFFFF AND PUSH32 0x8C5BE1E5EBEC7D5BD14F71427D1E84F3DD0314C0F7B2291E5B200AC8C7C3B925 PUSH1 0x40 MLOAD PUSH1 0x40 MLOAD DUP1 SWAP2 SUB SWAP1 LOG4 POP POP POP JUMP JUMPDEST PUSH0 DUP4 PUSH20 0xFFFFFFFFFFFFFFFFFFFFFFFFFFFFFFFFFFFFFFFF AND DUP4 PUSH20 0xFFFFFFFFFFFFFFFFFFFFFFFFFFFFFFFFFFFFFFFF AND EQ DUP1 PUSH2 0x10ED JUMPI POP DUP3 PUSH20 0xFFFFFFFFFFFFFFFFFFFFFFFFFFFFFFFFFFFFFFFF AND PUSH1 0x4 PUSH0 DUP5 DUP2 MSTORE PUSH1 0x20 ADD SWAP1 DUP2 MSTORE PUSH1 0x20 ADD PUSH0 KECCAK256 PUSH0 SWAP1 SLOAD SWAP1 PUSH2 0x100 EXP SWAP1 DIV PUSH20 0xFFFFFFFFFFFFFFFFFFFFFFFFFFFFFFFFFFFFFFFF AND PUSH20 0xFFFFFFFFFFFFFFFFFFFFFFFFFFFFFFFFFFFFFFFF AND EQ JUMPDEST DUP1 PUSH2 0x1179 JUMPI POP PUSH1 0x5 PUSH0 DUP6 PUSH20 0xFFFFFFFFFFFFFFFFFFFFFFFFFFFFFFFFFFFFFFFF AND PUSH20 0xFFFFFFFFFFFFFFFFFFFFFFFFFFFFFFFFFFFFFFFF AND DUP2 MSTORE PUSH1 0x20 ADD SWAP1 DUP2 MSTORE PUSH1 0x20 ADD PUSH0 KECCAK256 PUSH0 DUP5 PUSH20 0xFFFFFFFFFFFFFFFFFFFFFFFFFFFFFFFFFFFFFFFF AND PUSH20 0xFFFFFFFFFFFFFFFFFFFFFFFFFFFFFFFFFFFFFFFF AND DUP2 MSTORE PUSH1 0x20 ADD SWAP1 DUP2 MSTORE PUSH1 0x20 ADD PUSH0 KECCAK256 PUSH0 SWAP1 SLOAD SWAP1 PUSH2 0x100 EXP SWAP1 DIV PUSH1 0xFF AND JUMPDEST SWAP1 POP SWAP4 SWAP3 POP POP POP JUMP JUMPDEST DUP4 PUSH20 0xFFFFFFFFFFFFFFFFFFFFFFFFFFFFFFFFFFFFFFFF AND DUP4 PUSH20 0xFFFFFFFFFFFFFFFFFFFFFFFFFFFFFFFFFFFFFFFF AND EQ PUSH2 0x11F0 JUMPI PUSH1 0x40 MLOAD PUSH32 0x8C379A000000000000000000000000000000000000000000000000000000000 DUP2 MSTORE PUSH1 0x4 ADD PUSH2 0x11E7 SWAP1 PUSH2 0x263A JUMP JUMPDEST PUSH1 0x40 MLOAD DUP1 SWAP2 SUB SWAP1 REVERT JUMPDEST PUSH0 PUSH20 0xFFFFFFFFFFFFFFFFFFFFFFFFFFFFFFFFFFFFFFFF AND DUP3 PUSH20 0xFFFFFFFFFFFFFFFFFFFFFFFFFFFFFFFFFFFFFFFF AND SUB PUSH2 0x125E JUMPI PUSH1 0x40 MLOAD PUSH32 0x8C379A000000000000000000000000000000000000000000000000000000000 DUP2 MSTORE PUSH1 0x4 ADD PUSH2 0x1255 SWAP1 PUSH2 0x26A2 JUMP JUMPDEST PUSH1 0x40 MLOAD DUP1 SWAP2 SUB SWAP1 REVERT JUMPDEST PUSH2 0x1269 DUP5 PUSH0 DUP4 PUSH2 0xFA8 JUMP JUMPDEST PUSH1 0x1 PUSH1 0x3 PUSH0 DUP6 PUSH20 0xFFFFFFFFFFFFFFFFFFFFFFFFFFFFFFFFFFFFFFFF AND PUSH20 0xFFFFFFFFFFFFFFFFFFFFFFFFFFFFFFFFFFFFFFFF AND DUP2 MSTORE PUSH1 0x20 ADD SWAP1 DUP2 MSTORE PUSH1 0x20 ADD PUSH0 KECCAK256 PUSH0 DUP3 DUP3 SLOAD PUSH2 0x12B6 SWAP2 SWAP1 PUSH2 0x26ED JUMP JUMPDEST SWAP3 POP POP DUP2 SWAP1 SSTORE POP PUSH1 0x1 PUSH1 0x3 PUSH0 DUP5 PUSH20 0xFFFFFFFFFFFFFFFFFFFFFFFFFFFFFFFFFFFFFFFF AND PUSH20 0xFFFFFFFFFFFFFFFFFFFFFFFFFFFFFFFFFFFFFFFF AND DUP2 MSTORE PUSH1 0x20 ADD SWAP1 DUP2 MSTORE PUSH1 0x20 ADD PUSH0 KECCAK256 PUSH0 DUP3 DUP3 SLOAD PUSH2 0x130A SWAP2 SWAP1 PUSH2 0x2720 JUMP JUMPDEST SWAP3 POP POP DUP2 SWAP1 SSTORE POP DUP2 PUSH1 0x2 PUSH0 DUP4 DUP2 MSTORE PUSH1 0x20 ADD SWAP1 DUP2 MSTORE PUSH1 0x20 ADD PUSH0 KECCAK256 PUSH0 PUSH2 0x100 EXP DUP2 SLOAD DUP2 PUSH20 0xFFFFFFFFFFFFFFFFFFFFFFFFFFFFFFFFFFFFFFFF MUL NOT AND SWAP1 DUP4 PUSH20 0xFFFFFFFFFFFFFFFFFFFFFFFFFFFFFFFFFFFFFFFF AND MUL OR SWAP1 SSTORE POP DUP1 DUP3 PUSH20 0xFFFFFFFFFFFFFFFFFFFFFFFFFFFFFFFFFFFFFFFF AND DUP5 PUSH20 0xFFFFFFFFFFFFFFFFFFFFFFFFFFFFFFFFFFFFFFFF AND PUSH32 0xDDF252AD1BE2C89B69C2B068FC378DAA952BA7F163C4A11628F55A4DF523B3EF PUSH1 0x40 MLOAD PUSH1 0x40 MLOAD DUP1 SWAP2 SUB SWAP1 LOG4 POP POP POP POP JUMP JUMPDEST PUSH0 DUP3 PUSH2 0x13CD DUP6 DUP5 PUSH2 0x17A2 JUMP JUMPDEST EQ SWAP1 POP SWAP4 SWAP3 POP POP POP JUMP JUMPDEST PUSH0 DUP2 PUSH1 0x40 MLOAD PUSH1 0x20 ADD PUSH2 0x13E9 SWAP2 SWAP1 PUSH2 0x2798 JUMP JUMPDEST PUSH1 0x40 MLOAD PUSH1 0x20 DUP2 DUP4 SUB SUB DUP2 MSTORE SWAP1 PUSH1 0x40 MSTORE DUP1 MLOAD SWAP1 PUSH1 0x20 ADD KECCAK256 SWAP1 POP SWAP2 SWAP1 POP JUMP JUMPDEST PUSH0 PUSH20 0xFFFFFFFFFFFFFFFFFFFFFFFFFFFFFFFFFFFFFFFF AND DUP3 PUSH20 0xFFFFFFFFFFFFFFFFFFFFFFFFFFFFFFFFFFFFFFFF AND SUB PUSH2 0x1474 JUMPI PUSH1 0x40 MLOAD PUSH32 0x8C379A000000000000000000000000000000000000000000000000000000000 DUP2 MSTORE PUSH1 0x4 ADD PUSH2 0x146B SWAP1 PUSH2 0x27FC JUMP JUMPDEST PUSH1 0x40 MLOAD DUP1 SWAP2 SUB SWAP1 REVERT JUMPDEST PUSH0 PUSH20 0xFFFFFFFFFFFFFFFFFFFFFFFFFFFFFFFFFFFFFFFF AND PUSH1 0x2 PUSH0 DUP4 DUP2 MSTORE PUSH1 0x20 ADD SWAP1 DUP2 MSTORE PUSH1 0x20 ADD PUSH0 KECCAK256 PUSH0 SWAP1 SLOAD SWAP1 PUSH2 0x100 EXP SWAP1 DIV PUSH20 0xFFFFFFFFFFFFFFFFFFFFFFFFFFFFFFFFFFFFFFFF AND PUSH20 0xFFFFFFFFFFFFFFFFFFFFFFFFFFFFFFFFFFFFFFFF AND EQ PUSH2 0x1512 JUMPI PUSH1 0x40 MLOAD PUSH32 0x8C379A000000000000000000000000000000000000000000000000000000000 DUP2 MSTORE PUSH1 0x4 ADD PUSH2 0x1509 SWAP1 PUSH2 0x2864 JUMP JUMPDEST PUSH1 0x40 MLOAD DUP1 SWAP2 SUB SWAP1 REVERT JUMPDEST PUSH1 0x1 PUSH1 0x3 PUSH0 DUP5 PUSH20 0xFFFFFFFFFFFFFFFFFFFFFFFFFFFFFFFFFFFFFFFF AND PUSH20 0xFFFFFFFFFFFFFFFFFFFFFFFFFFFFFFFFFFFFFFFF AND DUP2 MSTORE PUSH1 0x20 ADD SWAP1 DUP2 MSTORE PUSH1 0x20 ADD PUSH0 KECCAK256 PUSH0 DUP3 DUP3 SLOAD PUSH2 0x155F SWAP2 SWAP1 PUSH2 0x2720 JUMP JUMPDEST SWAP3 POP POP DUP2 SWAP1 SSTORE POP DUP2 PUSH1 0x2 PUSH0 DUP4 DUP2 MSTORE PUSH1 0x20 ADD SWAP1 DUP2 MSTORE PUSH1 0x20 ADD PUSH0 KECCAK256 PUSH0 PUSH2 0x100 EXP DUP2 SLOAD DUP2 PUSH20 0xFFFFFFFFFFFFFFFFFFFFFFFFFFFFFFFFFFFFFFFF MUL NOT AND SWAP1 DUP4 PUSH20 0xFFFFFFFFFFFFFFFFFFFFFFFFFFFFFFFFFFFFFFFF AND MUL OR SWAP1 SSTORE POP DUP1 DUP3 PUSH20 0xFFFFFFFFFFFFFFFFFFFFFFFFFFFFFFFFFFFFFFFF AND PUSH0 PUSH20 0xFFFFFFFFFFFFFFFFFFFFFFFFFFFFFFFFFFFFFFFF AND PUSH32 0xDDF252AD1BE2C89B69C2B068FC378DAA952BA7F163C4A11628F55A4DF523B3EF PUSH1 0x40 MLOAD PUSH1 0x40 MLOAD DUP1 SWAP2 SUB SWAP1 LOG4 POP POP JUMP JUMPDEST PUSH2 0x1620 DUP6 DUP6 DUP6 DUP6 PUSH2 0x1182 JUMP JUMPDEST PUSH2 0x162C DUP5 DUP5 DUP5 DUP5 PUSH2 0x17F0 JUMP JUMPDEST POP POP POP POP POP JUMP JUMPDEST PUSH1 0x60 PUSH1 0x40 MLOAD DUP1 PUSH1 0x20 ADD PUSH1 0x40 MSTORE DUP1 PUSH0 DUP2 MSTORE POP SWAP1 POP SWAP1 JUMP JUMPDEST PUSH1 0x60 PUSH0 DUP3 SUB PUSH2 0x168F JUMPI PUSH1 0x40 MLOAD DUP1 PUSH1 0x40 ADD PUSH1 0x40 MSTORE DUP1 PUSH1 0x1 DUP2 MSTORE PUSH1 0x20 ADD PUSH32 0x3000000000000000000000000000000000000000000000000000000000000000 DUP2 MSTORE POP SWAP1 POP PUSH2 0x179D JUMP JUMPDEST PUSH0 DUP3 SWAP1 POP PUSH0 JUMPDEST PUSH0 DUP3 EQ PUSH2 0x16BE JUMPI DUP1 DUP1 PUSH2 0x16A7 SWAP1 PUSH2 0x2882 JUMP JUMPDEST SWAP2 POP POP PUSH1 0xA DUP3 PUSH2 0x16B7 SWAP2 SWAP1 PUSH2 0x28F6 JUMP JUMPDEST SWAP2 POP PUSH2 0x1695 JUMP JUMPDEST PUSH0 DUP2 PUSH8 0xFFFFFFFFFFFFFFFF DUP2 GT ISZERO PUSH2 0x16D9 JUMPI PUSH2 0x16D8 PUSH2 0x1CFC JUMP JUMPDEST JUMPDEST PUSH1 0x40 MLOAD SWAP1 DUP1 DUP3 MSTORE DUP1 PUSH1 0x1F ADD PUSH1 0x1F NOT AND PUSH1 0x20 ADD DUP3 ADD PUSH1 0x40 MSTORE DUP1 ISZERO PUSH2 0x170B JUMPI DUP2 PUSH1 0x20 ADD PUSH1 0x1 DUP3 MUL DUP1 CALLDATASIZE DUP4 CALLDATACOPY DUP1 DUP3 ADD SWAP2 POP POP SWAP1 POP JUMPDEST POP SWAP1 POP JUMPDEST PUSH0 DUP6 EQ PUSH2 0x1796 JUMPI PUSH1 0x1 DUP3 PUSH2 0x1723 SWAP2 SWAP1 PUSH2 0x26ED JUMP JUMPDEST SWAP2 POP PUSH1 0xA DUP6 PUSH2 0x1732 SWAP2 SWAP1 PUSH2 0x2926 JUMP JUMPDEST PUSH1 0x30 PUSH2 0x173E SWAP2 SWAP1 PUSH2 0x2720 JUMP JUMPDEST PUSH1 0xF8 SHL DUP2 DUP4 DUP2 MLOAD DUP2 LT PUSH2 0x1754 JUMPI PUSH2 0x1753 PUSH2 0x2956 JUMP JUMPDEST JUMPDEST PUSH1 0x20 ADD ADD SWAP1 PUSH31 0xFFFFFFFFFFFFFFFFFFFFFFFFFFFFFFFFFFFFFFFFFFFFFFFFFFFFFFFFFFFFFF NOT AND SWAP1 DUP2 PUSH0 BYTE SWAP1 MSTORE8 POP PUSH1 0xA DUP6 PUSH2 0x178F SWAP2 SWAP1 PUSH2 0x28F6 JUMP JUMPDEST SWAP5 POP PUSH2 0x170F JUMP JUMPDEST DUP1 SWAP4 POP POP POP POP JUMPDEST SWAP2 SWAP1 POP JUMP JUMPDEST PUSH0 DUP1 DUP3 SWAP1 POP PUSH0 JUMPDEST DUP5 MLOAD DUP2 LT ISZERO PUSH2 0x17E5 JUMPI PUSH2 0x17D6 DUP3 DUP7 DUP4 DUP2 MLOAD DUP2 LT PUSH2 0x17C9 JUMPI PUSH2 0x17C8 PUSH2 0x2956 JUMP JUMPDEST JUMPDEST PUSH1 0x20 MUL PUSH1 0x20 ADD ADD MLOAD PUSH2 0x199B JUMP JUMPDEST SWAP2 POP DUP1 DUP1 PUSH1 0x1 ADD SWAP2 POP POP PUSH2 0x17A9 JUMP JUMPDEST POP DUP1 SWAP2 POP POP SWAP3 SWAP2 POP POP JUMP JUMPDEST PUSH0 DUP4 PUSH20 0xFFFFFFFFFFFFFFFFFFFFFFFFFFFFFFFFFFFFFFFF AND EXTCODESIZE GT ISZERO PUSH2 0x1995 JUMPI DUP3 PUSH20 0xFFFFFFFFFFFFFFFFFFFFFFFFFFFFFFFFFFFFFFFF AND PUSH4 0x150B7A02 CALLER DUP7 DUP6 DUP6 PUSH1 0x40 MLOAD DUP6 PUSH4 0xFFFFFFFF AND PUSH1 0xE0 SHL DUP2 MSTORE PUSH1 0x4 ADD PUSH2 0x184E SWAP5 SWAP4 SWAP3 SWAP2 SWAP1 PUSH2 0x29D5 JUMP JUMPDEST PUSH1 0x20 PUSH1 0x40 MLOAD DUP1 DUP4 SUB DUP2 PUSH0 DUP8 GAS CALL SWAP3 POP POP POP DUP1 ISZERO PUSH2 0x1889 JUMPI POP PUSH1 0x40 MLOAD RETURNDATASIZE PUSH1 0x1F NOT PUSH1 0x1F DUP3 ADD AND DUP3 ADD DUP1 PUSH1 0x40 MSTORE POP DUP2 ADD SWAP1 PUSH2 0x1886 SWAP2 SWAP1 PUSH2 0x2A33 JUMP JUMPDEST PUSH1 0x1 JUMPDEST PUSH2 0x190A JUMPI RETURNDATASIZE DUP1 PUSH0 DUP2 EQ PUSH2 0x18B7 JUMPI PUSH1 0x40 MLOAD SWAP2 POP PUSH1 0x1F NOT PUSH1 0x3F RETURNDATASIZE ADD AND DUP3 ADD PUSH1 0x40 MSTORE RETURNDATASIZE DUP3 MSTORE RETURNDATASIZE PUSH0 PUSH1 0x20 DUP5 ADD RETURNDATACOPY PUSH2 0x18BC JUMP JUMPDEST PUSH1 0x60 SWAP2 POP JUMPDEST POP PUSH0 DUP2 MLOAD SUB PUSH2 0x1902 JUMPI DUP4 PUSH1 0x40 MLOAD PUSH32 0x64A0AE9200000000000000000000000000000000000000000000000000000000 DUP2 MSTORE PUSH1 0x4 ADD PUSH2 0x18F9 SWAP2 SWAP1 PUSH2 0x1BF4 JUMP JUMPDEST PUSH1 0x40 MLOAD DUP1 SWAP2 SUB SWAP1 REVERT JUMPDEST DUP1 MLOAD DUP2 PUSH1 0x20 ADD REVERT JUMPDEST PUSH4 0x150B7A02 PUSH1 0xE0 SHL PUSH28 0xFFFFFFFFFFFFFFFFFFFFFFFFFFFFFFFFFFFFFFFFFFFFFFFFFFFFFFFF NOT AND DUP2 PUSH28 0xFFFFFFFFFFFFFFFFFFFFFFFFFFFFFFFFFFFFFFFFFFFFFFFFFFFFFFFF NOT AND EQ PUSH2 0x1993 JUMPI DUP4 PUSH1 0x40 MLOAD PUSH32 0x64A0AE9200000000000000000000000000000000000000000000000000000000 DUP2 MSTORE PUSH1 0x4 ADD PUSH2 0x198A SWAP2 SWAP1 PUSH2 0x1BF4 JUMP JUMPDEST PUSH1 0x40 MLOAD DUP1 SWAP2 SUB SWAP1 REVERT JUMPDEST POP JUMPDEST POP POP POP POP JUMP JUMPDEST PUSH0 DUP2 DUP4 LT PUSH2 0x19D1 JUMPI DUP2 DUP4 PUSH1 0x40 MLOAD PUSH1 0x20 ADD PUSH2 0x19B6 SWAP3 SWAP2 SWAP1 PUSH2 0x2500 JUMP JUMPDEST PUSH1 0x40 MLOAD PUSH1 0x20 DUP2 DUP4 SUB SUB DUP2 MSTORE SWAP1 PUSH1 0x40 MSTORE DUP1 MLOAD SWAP1 PUSH1 0x20 ADD KECCAK256 PUSH2 0x19FB JUMP JUMPDEST DUP3 DUP3 PUSH1 0x40 MLOAD PUSH1 0x20 ADD PUSH2 0x19E4 SWAP3 SWAP2 SWAP1 PUSH2 0x2500 JUMP JUMPDEST PUSH1 0x40 MLOAD PUSH1 0x20 DUP2 DUP4 SUB SUB DUP2 MSTORE SWAP1 PUSH1 0x40 MSTORE DUP1 MLOAD SWAP1 PUSH1 0x20 ADD KECCAK256 JUMPDEST SWAP1 POP SWAP3 SWAP2 POP POP JUMP JUMPDEST PUSH0 PUSH1 0x40 MLOAD SWAP1 POP SWAP1 JUMP JUMPDEST PUSH0 DUP1 REVERT JUMPDEST PUSH0 DUP1 REVERT JUMPDEST PUSH0 PUSH32 0xFFFFFFFF00000000000000000000000000000000000000000000000000000000 DUP3 AND SWAP1 POP SWAP2 SWAP1 POP JUMP JUMPDEST PUSH2 0x1A48 DUP2 PUSH2 0x1A14 JUMP JUMPDEST DUP2 EQ PUSH2 0x1A52 JUMPI PUSH0 DUP1 REVERT JUMPDEST POP JUMP JUMPDEST PUSH0 DUP2 CALLDATALOAD SWAP1 POP PUSH2 0x1A63 DUP2 PUSH2 0x1A3F JUMP JUMPDEST SWAP3 SWAP2 POP POP JUMP JUMPDEST PUSH0 PUSH1 0x20 DUP3 DUP5 SUB SLT ISZERO PUSH2 0x1A7E JUMPI PUSH2 0x1A7D PUSH2 0x1A0C JUMP JUMPDEST JUMPDEST PUSH0 PUSH2 0x1A8B DUP5 DUP3 DUP6 ADD PUSH2 0x1A55 JUMP JUMPDEST SWAP2 POP POP SWAP3 SWAP2 POP POP JUMP JUMPDEST PUSH0 DUP2 ISZERO ISZERO SWAP1 POP SWAP2 SWAP1 POP JUMP JUMPDEST PUSH2 0x1AA8 DUP2 PUSH2 0x1A94 JUMP JUMPDEST DUP3 MSTORE POP POP JUMP JUMPDEST PUSH0 PUSH1 0x20 DUP3 ADD SWAP1 POP PUSH2 0x1AC1 PUSH0 DUP4 ADD DUP5 PUSH2 0x1A9F JUMP JUMPDEST SWAP3 SWAP2 POP POP JUMP JUMPDEST PUSH0 DUP2 MLOAD SWAP1 POP SWAP2 SWAP1 POP JUMP JUMPDEST PUSH0 DUP3 DUP3 MSTORE PUSH1 0x20 DUP3 ADD SWAP1 POP SWAP3 SWAP2 POP POP JUMP JUMPDEST DUP3 DUP2 DUP4 MCOPY PUSH0 DUP4 DUP4 ADD MSTORE POP POP POP JUMP JUMPDEST PUSH0 PUSH1 0x1F NOT PUSH1 0x1F DUP4 ADD AND SWAP1 POP SWAP2 SWAP1 POP JUMP JUMPDEST PUSH0 PUSH2 0x1B09 DUP3 PUSH2 0x1AC7 JUMP JUMPDEST PUSH2 0x1B13 DUP2 DUP6 PUSH2 0x1AD1 JUMP JUMPDEST SWAP4 POP PUSH2 0x1B23 DUP2 DUP6 PUSH1 0x20 DUP7 ADD PUSH2 0x1AE1 JUMP JUMPDEST PUSH2 0x1B2C DUP2 PUSH2 0x1AEF JUMP JUMPDEST DUP5 ADD SWAP2 POP POP SWAP3 SWAP2 POP POP JUMP JUMPDEST PUSH0 PUSH1 0x20 DUP3 ADD SWAP1 POP DUP2 DUP2 SUB PUSH0 DUP4 ADD MSTORE PUSH2 0x1B4F DUP2 DUP5 PUSH2 0x1AFF JUMP JUMPDEST SWAP1 POP SWAP3 SWAP2 POP POP JUMP JUMPDEST PUSH0 DUP2 SWAP1 POP SWAP2 SWAP1 POP JUMP JUMPDEST PUSH2 0x1B69 DUP2 PUSH2 0x1B57 JUMP JUMPDEST DUP2 EQ PUSH2 0x1B73 JUMPI PUSH0 DUP1 REVERT JUMPDEST POP JUMP JUMPDEST PUSH0 DUP2 CALLDATALOAD SWAP1 POP PUSH2 0x1B84 DUP2 PUSH2 0x1B60 JUMP JUMPDEST SWAP3 SWAP2 POP POP JUMP JUMPDEST PUSH0 PUSH1 0x20 DUP3 DUP5 SUB SLT ISZERO PUSH2 0x1B9F JUMPI PUSH2 0x1B9E PUSH2 0x1A0C JUMP JUMPDEST JUMPDEST PUSH0 PUSH2 0x1BAC DUP5 DUP3 DUP6 ADD PUSH2 0x1B76 JUMP JUMPDEST SWAP2 POP POP SWAP3 SWAP2 POP POP JUMP JUMPDEST PUSH0 PUSH20 0xFFFFFFFFFFFFFFFFFFFFFFFFFFFFFFFFFFFFFFFF DUP3 AND SWAP1 POP SWAP2 SWAP1 POP JUMP JUMPDEST PUSH0 PUSH2 0x1BDE DUP3 PUSH2 0x1BB5 JUMP JUMPDEST SWAP1 POP SWAP2 SWAP1 POP JUMP JUMPDEST PUSH2 0x1BEE DUP2 PUSH2 0x1BD4 JUMP JUMPDEST DUP3 MSTORE POP POP JUMP JUMPDEST PUSH0 PUSH1 0x20 DUP3 ADD SWAP1 POP PUSH2 0x1C07 PUSH0 DUP4 ADD DUP5 PUSH2 0x1BE5 JUMP JUMPDEST SWAP3 SWAP2 POP POP JUMP JUMPDEST PUSH2 0x1C16 DUP2 PUSH2 0x1BD4 JUMP JUMPDEST DUP2 EQ PUSH2 0x1C20 JUMPI PUSH0 DUP1 REVERT JUMPDEST POP JUMP JUMPDEST PUSH0 DUP2 CALLDATALOAD SWAP1 POP PUSH2 0x1C31 DUP2 PUSH2 0x1C0D JUMP JUMPDEST SWAP3 SWAP2 POP POP JUMP JUMPDEST PUSH0 DUP1 PUSH1 0x40 DUP4 DUP6 SUB SLT ISZERO PUSH2 0x1C4D JUMPI PUSH2 0x1C4C PUSH2 0x1A0C JUMP JUMPDEST JUMPDEST PUSH0 PUSH2 0x1C5A DUP6 DUP3 DUP7 ADD PUSH2 0x1C23 JUMP JUMPDEST SWAP3 POP POP PUSH1 0x20 PUSH2 0x1C6B DUP6 DUP3 DUP7 ADD PUSH2 0x1B76 JUMP JUMPDEST SWAP2 POP POP SWAP3 POP SWAP3 SWAP1 POP JUMP JUMPDEST PUSH0 DUP1 PUSH0 PUSH1 0x60 DUP5 DUP7 SUB SLT ISZERO PUSH2 0x1C8C JUMPI PUSH2 0x1C8B PUSH2 0x1A0C JUMP JUMPDEST JUMPDEST PUSH0 PUSH2 0x1C99 DUP7 DUP3 DUP8 ADD PUSH2 0x1C23 JUMP JUMPDEST SWAP4 POP POP PUSH1 0x20 PUSH2 0x1CAA DUP7 DUP3 DUP8 ADD PUSH2 0x1C23 JUMP JUMPDEST SWAP3 POP POP PUSH1 0x40 PUSH2 0x1CBB DUP7 DUP3 DUP8 ADD PUSH2 0x1B76 JUMP JUMPDEST SWAP2 POP POP SWAP3 POP SWAP3 POP SWAP3 JUMP JUMPDEST PUSH0 DUP2 SWAP1 POP SWAP2 SWAP1 POP JUMP JUMPDEST PUSH2 0x1CD7 DUP2 PUSH2 0x1CC5 JUMP JUMPDEST DUP2 EQ PUSH2 0x1CE1 JUMPI PUSH0 DUP1 REVERT JUMPDEST POP JUMP JUMPDEST PUSH0 DUP2 CALLDATALOAD SWAP1 POP PUSH2 0x1CF2 DUP2 PUSH2 0x1CCE JUMP JUMPDEST SWAP3 SWAP2 POP POP JUMP JUMPDEST PUSH0 DUP1 REVERT JUMPDEST PUSH32 0x4E487B7100000000000000000000000000000000000000000000000000000000 PUSH0 MSTORE PUSH1 0x41 PUSH1 0x4 MSTORE PUSH1 0x24 PUSH0 REVERT JUMPDEST PUSH2 0x1D32 DUP3 PUSH2 0x1AEF JUMP JUMPDEST DUP2 ADD DUP2 DUP2 LT PUSH8 0xFFFFFFFFFFFFFFFF DUP3 GT OR ISZERO PUSH2 0x1D51 JUMPI PUSH2 0x1D50 PUSH2 0x1CFC JUMP JUMPDEST JUMPDEST DUP1 PUSH1 0x40 MSTORE POP POP POP JUMP JUMPDEST PUSH0 PUSH2 0x1D63 PUSH2 0x1A03 JUMP JUMPDEST SWAP1 POP PUSH2 0x1D6F DUP3 DUP3 PUSH2 0x1D29 JUMP JUMPDEST SWAP2 SWAP1 POP JUMP JUMPDEST PUSH0 PUSH8 0xFFFFFFFFFFFFFFFF DUP3 GT ISZERO PUSH2 0x1D8E JUMPI PUSH2 0x1D8D PUSH2 0x1CFC JUMP JUMPDEST JUMPDEST PUSH1 0x20 DUP3 MUL SWAP1 POP PUSH1 0x20 DUP2 ADD SWAP1 POP SWAP2 SWAP1 POP JUMP JUMPDEST PUSH0 DUP1 REVERT JUMPDEST PUSH0 PUSH2 0x1DB5 PUSH2 0x1DB0 DUP5 PUSH2 0x1D74 JUMP JUMPDEST PUSH2 0x1D5A JUMP JUMPDEST SWAP1 POP DUP1 DUP4 DUP3 MSTORE PUSH1 0x20 DUP3 ADD SWAP1 POP PUSH1 0x20 DUP5 MUL DUP4 ADD DUP6 DUP2 GT ISZERO PUSH2 0x1DD8 JUMPI PUSH2 0x1DD7 PUSH2 0x1D9F JUMP JUMPDEST JUMPDEST DUP4 JUMPDEST DUP2 DUP2 LT ISZERO PUSH2 0x1E01 JUMPI DUP1 PUSH2 0x1DED DUP9 DUP3 PUSH2 0x1CE4 JUMP JUMPDEST DUP5 MSTORE PUSH1 0x20 DUP5 ADD SWAP4 POP POP PUSH1 0x20 DUP2 ADD SWAP1 POP PUSH2 0x1DDA JUMP JUMPDEST POP POP POP SWAP4 SWAP3 POP POP POP JUMP JUMPDEST PUSH0 DUP3 PUSH1 0x1F DUP4 ADD SLT PUSH2 0x1E1F JUMPI PUSH2 0x1E1E PUSH2 0x1CF8 JUMP JUMPDEST JUMPDEST DUP2 CALLDATALOAD PUSH2 0x1E2F DUP5 DUP3 PUSH1 0x20 DUP7 ADD PUSH2 0x1DA3 JUMP JUMPDEST SWAP2 POP POP SWAP3 SWAP2 POP POP JUMP JUMPDEST PUSH0 DUP1 PUSH1 0x40 DUP4 DUP6 SUB SLT ISZERO PUSH2 0x1E4E JUMPI PUSH2 0x1E4D PUSH2 0x1A0C JUMP JUMPDEST JUMPDEST PUSH0 PUSH2 0x1E5B DUP6 DUP3 DUP7 ADD PUSH2 0x1CE4 JUMP JUMPDEST SWAP3 POP POP PUSH1 0x20 DUP4 ADD CALLDATALOAD PUSH8 0xFFFFFFFFFFFFFFFF DUP2 GT ISZERO PUSH2 0x1E7C JUMPI PUSH2 0x1E7B PUSH2 0x1A10 JUMP JUMPDEST JUMPDEST PUSH2 0x1E88 DUP6 DUP3 DUP7 ADD PUSH2 0x1E0B JUMP JUMPDEST SWAP2 POP POP SWAP3 POP SWAP3 SWAP1 POP JUMP JUMPDEST PUSH0 PUSH1 0x20 DUP3 DUP5 SUB SLT ISZERO PUSH2 0x1EA7 JUMPI PUSH2 0x1EA6 PUSH2 0x1A0C JUMP JUMPDEST JUMPDEST PUSH0 PUSH2 0x1EB4 DUP5 DUP3 DUP6 ADD PUSH2 0x1C23 JUMP JUMPDEST SWAP2 POP POP SWAP3 SWAP2 POP POP JUMP JUMPDEST PUSH0 DUP1 REVERT JUMPDEST PUSH0 DUP1 DUP4 PUSH1 0x1F DUP5 ADD SLT PUSH2 0x1ED6 JUMPI PUSH2 0x1ED5 PUSH2 0x1CF8 JUMP JUMPDEST JUMPDEST DUP3 CALLDATALOAD SWAP1 POP PUSH8 0xFFFFFFFFFFFFFFFF DUP2 GT ISZERO PUSH2 0x1EF3 JUMPI PUSH2 0x1EF2 PUSH2 0x1EBD JUMP JUMPDEST JUMPDEST PUSH1 0x20 DUP4 ADD SWAP2 POP DUP4 PUSH1 0x20 DUP3 MUL DUP4 ADD GT ISZERO PUSH2 0x1F0F JUMPI PUSH2 0x1F0E PUSH2 0x1D9F JUMP JUMPDEST JUMPDEST SWAP3 POP SWAP3 SWAP1 POP JUMP JUMPDEST PUSH0 DUP1 PUSH0 DUP1 PUSH1 0x60 DUP6 DUP8 SUB SLT ISZERO PUSH2 0x1F2E JUMPI PUSH2 0x1F2D PUSH2 0x1A0C JUMP JUMPDEST JUMPDEST PUSH0 PUSH2 0x1F3B DUP8 DUP3 DUP9 ADD PUSH2 0x1C23 JUMP JUMPDEST SWAP5 POP POP PUSH1 0x20 PUSH2 0x1F4C DUP8 DUP3 DUP9 ADD PUSH2 0x1B76 JUMP JUMPDEST SWAP4 POP POP PUSH1 0x40 DUP6 ADD CALLDATALOAD PUSH8 0xFFFFFFFFFFFFFFFF DUP2 GT ISZERO PUSH2 0x1F6D JUMPI PUSH2 0x1F6C PUSH2 0x1A10 JUMP JUMPDEST JUMPDEST PUSH2 0x1F79 DUP8 DUP3 DUP9 ADD PUSH2 0x1EC1 JUMP JUMPDEST SWAP3 POP SWAP3 POP POP SWAP3 SWAP6 SWAP2 SWAP5 POP SWAP3 POP JUMP JUMPDEST PUSH2 0x1F90 DUP2 PUSH2 0x1A14 JUMP JUMPDEST DUP3 MSTORE POP POP JUMP JUMPDEST PUSH0 PUSH1 0x20 DUP3 ADD SWAP1 POP PUSH2 0x1FA9 PUSH0 DUP4 ADD DUP5 PUSH2 0x1F87 JUMP JUMPDEST SWAP3 SWAP2 POP POP JUMP JUMPDEST PUSH2 0x1FB8 DUP2 PUSH2 0x1B57 JUMP JUMPDEST DUP3 MSTORE POP POP JUMP JUMPDEST PUSH0 PUSH1 0x20 DUP3 ADD SWAP1 POP PUSH2 0x1FD1 PUSH0 DUP4 ADD DUP5 PUSH2 0x1FAF JUMP JUMPDEST SWAP3 SWAP2 POP POP JUMP JUMPDEST PUSH2 0x1FE0 DUP2 PUSH2 0x1A94 JUMP JUMPDEST DUP2 EQ PUSH2 0x1FEA JUMPI PUSH0 DUP1 REVERT JUMPDEST POP JUMP JUMPDEST PUSH0 DUP2 CALLDATALOAD SWAP1 POP PUSH2 0x1FFB DUP2 PUSH2 0x1FD7 JUMP JUMPDEST SWAP3 SWAP2 POP POP JUMP JUMPDEST PUSH0 DUP1 PUSH1 0x40 DUP4 DUP6 SUB SLT ISZERO PUSH2 0x2017 JUMPI PUSH2 0x2016 PUSH2 0x1A0C JUMP JUMPDEST JUMPDEST PUSH0 PUSH2 0x2024 DUP6 DUP3 DUP7 ADD PUSH2 0x1C23 JUMP JUMPDEST SWAP3 POP POP PUSH1 0x20 PUSH2 0x2035 DUP6 DUP3 DUP7 ADD PUSH2 0x1FED JUMP JUMPDEST SWAP2 POP POP SWAP3 POP SWAP3 SWAP1 POP JUMP JUMPDEST PUSH0 DUP1 REVERT JUMPDEST PUSH0 PUSH8 0xFFFFFFFFFFFFFFFF DUP3 GT ISZERO PUSH2 0x205D JUMPI PUSH2 0x205C PUSH2 0x1CFC JUMP JUMPDEST JUMPDEST PUSH2 0x2066 DUP3 PUSH2 0x1AEF JUMP JUMPDEST SWAP1 POP PUSH1 0x20 DUP2 ADD SWAP1 POP SWAP2 SWAP1 POP JUMP JUMPDEST DUP3 DUP2 DUP4 CALLDATACOPY PUSH0 DUP4 DUP4 ADD MSTORE POP POP POP JUMP JUMPDEST PUSH0 PUSH2 0x2093 PUSH2 0x208E DUP5 PUSH2 0x2043 JUMP JUMPDEST PUSH2 0x1D5A JUMP JUMPDEST SWAP1 POP DUP3 DUP2 MSTORE PUSH1 0x20 DUP2 ADD DUP5 DUP5 DUP5 ADD GT ISZERO PUSH2 0x20AF JUMPI PUSH2 0x20AE PUSH2 0x203F JUMP JUMPDEST JUMPDEST PUSH2 0x20BA DUP5 DUP3 DUP6 PUSH2 0x2073 JUMP JUMPDEST POP SWAP4 SWAP3 POP POP POP JUMP JUMPDEST PUSH0 DUP3 PUSH1 0x1F DUP4 ADD SLT PUSH2 0x20D6 JUMPI PUSH2 0x20D5 PUSH2 0x1CF8 JUMP JUMPDEST JUMPDEST DUP2 CALLDATALOAD PUSH2 0x20E6 DUP5 DUP3 PUSH1 0x20 DUP7 ADD PUSH2 0x2081 JUMP JUMPDEST SWAP2 POP POP SWAP3 SWAP2 POP POP JUMP JUMPDEST PUSH0 DUP1 PUSH0 DUP1 PUSH1 0x80 DUP6 DUP8 SUB SLT ISZERO PUSH2 0x2107 JUMPI PUSH2 0x2106 PUSH2 0x1A0C JUMP JUMPDEST JUMPDEST PUSH0 PUSH2 0x2114 DUP8 DUP3 DUP9 ADD PUSH2 0x1C23 JUMP JUMPDEST SWAP5 POP POP PUSH1 0x20 PUSH2 0x2125 DUP8 DUP3 DUP9 ADD PUSH2 0x1C23 JUMP JUMPDEST SWAP4 POP POP PUSH1 0x40 PUSH2 0x2136 DUP8 DUP3 DUP9 ADD PUSH2 0x1B76 JUMP JUMPDEST SWAP3 POP POP PUSH1 0x60 DUP6 ADD CALLDATALOAD PUSH8 0xFFFFFFFFFFFFFFFF DUP2 GT ISZERO PUSH2 0x2157 JUMPI PUSH2 0x2156 PUSH2 0x1A10 JUMP JUMPDEST JUMPDEST PUSH2 0x2163 DUP8 DUP3 DUP9 ADD PUSH2 0x20C2 JUMP JUMPDEST SWAP2 POP POP SWAP3 SWAP6 SWAP2 SWAP5 POP SWAP3 POP JUMP JUMPDEST PUSH0 DUP1 PUSH1 0x40 DUP4 DUP6 SUB SLT ISZERO PUSH2 0x2185 JUMPI PUSH2 0x2184 PUSH2 0x1A0C JUMP JUMPDEST JUMPDEST PUSH0 PUSH2 0x2192 DUP6 DUP3 DUP7 ADD PUSH2 0x1CE4 JUMP JUMPDEST SWAP3 POP POP PUSH1 0x20 PUSH2 0x21A3 DUP6 DUP3 DUP7 ADD PUSH2 0x1CE4 JUMP JUMPDEST SWAP2 POP POP SWAP3 POP SWAP3 SWAP1 POP JUMP JUMPDEST PUSH2 0x21B6 DUP2 PUSH2 0x1CC5 JUMP JUMPDEST DUP3 MSTORE POP POP JUMP JUMPDEST PUSH0 PUSH1 0x20 DUP3 ADD SWAP1 POP PUSH2 0x21CF PUSH0 DUP4 ADD DUP5 PUSH2 0x21AD JUMP JUMPDEST SWAP3 SWAP2 POP POP JUMP JUMPDEST PUSH0 DUP1 PUSH1 0x40 DUP4 DUP6 SUB SLT ISZERO PUSH2 0x21EB JUMPI PUSH2 0x21EA PUSH2 0x1A0C JUMP JUMPDEST JUMPDEST PUSH0 PUSH2 0x21F8 DUP6 DUP3 DUP7 ADD PUSH2 0x1C23 JUMP JUMPDEST SWAP3 POP POP PUSH1 0x20 PUSH2 0x2209 DUP6 DUP3 DUP7 ADD PUSH2 0x1C23 JUMP JUMPDEST SWAP2 POP POP SWAP3 POP SWAP3 SWAP1 POP JUMP JUMPDEST PUSH32 0x4E487B7100000000000000000000000000000000000000000000000000000000 PUSH0 MSTORE PUSH1 0x22 PUSH1 0x4 MSTORE PUSH1 0x24 PUSH0 REVERT JUMPDEST PUSH0 PUSH1 0x2 DUP3 DIV SWAP1 POP PUSH1 0x1 DUP3 AND DUP1 PUSH2 0x2257 JUMPI PUSH1 0x7F DUP3 AND SWAP2 POP JUMPDEST PUSH1 0x20 DUP3 LT DUP2 SUB PUSH2 0x226A JUMPI PUSH2 0x2269 PUSH2 0x2213 JUMP JUMPDEST JUMPDEST POP SWAP2 SWAP1 POP JUMP JUMPDEST PUSH32 0x746F6B656E20646F65736E277420657869737400000000000000000000000000 PUSH0 DUP3 ADD MSTORE POP JUMP JUMPDEST PUSH0 PUSH2 0x22A4 PUSH1 0x13 DUP4 PUSH2 0x1AD1 JUMP JUMPDEST SWAP2 POP PUSH2 0x22AF DUP3 PUSH2 0x2270 JUMP JUMPDEST PUSH1 0x20 DUP3 ADD SWAP1 POP SWAP2 SWAP1 POP JUMP JUMPDEST PUSH0 PUSH1 0x20 DUP3 ADD SWAP1 POP DUP2 DUP2 SUB PUSH0 DUP4 ADD MSTORE PUSH2 0x22D1 DUP2 PUSH2 0x2298 JUMP JUMPDEST SWAP1 POP SWAP2 SWAP1 POP JUMP JUMPDEST PUSH32 0x6E6F74206F776E6572206E6F7220617070726F76656420666F7220616C6C0000 PUSH0 DUP3 ADD MSTORE POP JUMP JUMPDEST PUSH0 PUSH2 0x230C PUSH1 0x1E DUP4 PUSH2 0x1AD1 JUMP JUMPDEST SWAP2 POP PUSH2 0x2317 DUP3 PUSH2 0x22D8 JUMP JUMPDEST PUSH1 0x20 DUP3 ADD SWAP1 POP SWAP2 SWAP1 POP JUMP JUMPDEST PUSH0 PUSH1 0x20 DUP3 ADD SWAP1 POP DUP2 DUP2 SUB PUSH0 DUP4 ADD MSTORE PUSH2 0x2339 DUP2 PUSH2 0x2300 JUMP JUMPDEST SWAP1 POP SWAP2 SWAP1 POP JUMP JUMPDEST PUSH32 0x6E6F74206F776E6572206E6F7220617070726F76656400000000000000000000 PUSH0 DUP3 ADD MSTORE POP JUMP JUMPDEST PUSH0 PUSH2 0x2374 PUSH1 0x16 DUP4 PUSH2 0x1AD1 JUMP JUMPDEST SWAP2 POP PUSH2 0x237F DUP3 PUSH2 0x2340 JUMP JUMPDEST PUSH1 0x20 DUP3 ADD SWAP1 POP SWAP2 SWAP1 POP JUMP JUMPDEST PUSH0 PUSH1 0x20 DUP3 ADD SWAP1 POP DUP2 DUP2 SUB PUSH0 DUP4 ADD MSTORE PUSH2 0x23A1 DUP2 PUSH2 0x2368 JUMP JUMPDEST SWAP1 POP SWAP2 SWAP1 POP JUMP JUMPDEST PUSH32 0x496E76616C6964206D65726B6C652070726F6F66000000000000000000000000 PUSH0 DUP3 ADD MSTORE POP JUMP JUMPDEST PUSH0 PUSH2 0x23DC PUSH1 0x14 DUP4 PUSH2 0x1AD1 JUMP JUMPDEST SWAP2 POP PUSH2 0x23E7 DUP3 PUSH2 0x23A8 JUMP JUMPDEST PUSH1 0x20 DUP3 ADD SWAP1 POP SWAP2 SWAP1 POP JUMP JUMPDEST PUSH0 PUSH1 0x20 DUP3 ADD SWAP1 POP DUP2 DUP2 SUB PUSH0 DUP4 ADD MSTORE PUSH2 0x2409 DUP2 PUSH2 0x23D0 JUMP JUMPDEST SWAP1 POP SWAP2 SWAP1 POP JUMP JUMPDEST PUSH32 0x416C7265616479206D696E746564210000000000000000000000000000000000 PUSH0 DUP3 ADD MSTORE POP JUMP JUMPDEST PUSH0 PUSH2 0x2444 PUSH1 0xF DUP4 PUSH2 0x1AD1 JUMP JUMPDEST SWAP2 POP PUSH2 0x244F DUP3 PUSH2 0x2410 JUMP JUMPDEST PUSH1 0x20 DUP3 ADD SWAP1 POP SWAP2 SWAP1 POP JUMP JUMPDEST PUSH0 PUSH1 0x20 DUP3 ADD SWAP1 POP DUP2 DUP2 SUB PUSH0 DUP4 ADD MSTORE PUSH2 0x2471 DUP2 PUSH2 0x2438 JUMP JUMPDEST SWAP1 POP SWAP2 SWAP1 POP JUMP JUMPDEST PUSH32 0x6F776E6572203D207A65726F2061646472657373000000000000000000000000 PUSH0 DUP3 ADD MSTORE POP JUMP JUMPDEST PUSH0 PUSH2 0x24AC PUSH1 0x14 DUP4 PUSH2 0x1AD1 JUMP JUMPDEST SWAP2 POP PUSH2 0x24B7 DUP3 PUSH2 0x2478 JUMP JUMPDEST PUSH1 0x20 DUP3 ADD SWAP1 POP SWAP2 SWAP1 POP JUMP JUMPDEST PUSH0 PUSH1 0x20 DUP3 ADD SWAP1 POP DUP2 DUP2 SUB PUSH0 DUP4 ADD MSTORE PUSH2 0x24D9 DUP2 PUSH2 0x24A0 JUMP JUMPDEST SWAP1 POP SWAP2 SWAP1 POP JUMP JUMPDEST PUSH0 DUP2 SWAP1 POP SWAP2 SWAP1 POP JUMP JUMPDEST PUSH2 0x24FA PUSH2 0x24F5 DUP3 PUSH2 0x1CC5 JUMP JUMPDEST PUSH2 0x24E0 JUMP JUMPDEST DUP3 MSTORE POP POP JUMP JUMPDEST PUSH0 PUSH2 0x250B DUP3 DUP6 PUSH2 0x24E9 JUMP JUMPDEST PUSH1 0x20 DUP3 ADD SWAP2 POP PUSH2 0x251B DUP3 DUP5 PUSH2 0x24E9 JUMP JUMPDEST PUSH1 0x20 DUP3 ADD SWAP2 POP DUP2 SWAP1 POP SWAP4 SWAP3 POP POP POP JUMP JUMPDEST PUSH32 0x546F6B656E204E6F742045786973740000000000000000000000000000000000 PUSH0 DUP3 ADD MSTORE POP JUMP JUMPDEST PUSH0 PUSH2 0x255F PUSH1 0xF DUP4 PUSH2 0x1AD1 JUMP JUMPDEST SWAP2 POP PUSH2 0x256A DUP3 PUSH2 0x252B JUMP JUMPDEST PUSH1 0x20 DUP3 ADD SWAP1 POP SWAP2 SWAP1 POP JUMP JUMPDEST PUSH0 PUSH1 0x20 DUP3 ADD SWAP1 POP DUP2 DUP2 SUB PUSH0 DUP4 ADD MSTORE PUSH2 0x258C DUP2 PUSH2 0x2553 JUMP JUMPDEST SWAP1 POP SWAP2 SWAP1 POP JUMP JUMPDEST PUSH0 DUP2 SWAP1 POP SWAP3 SWAP2 POP POP JUMP JUMPDEST PUSH0 PUSH2 0x25A7 DUP3 PUSH2 0x1AC7 JUMP JUMPDEST PUSH2 0x25B1 DUP2 DUP6 PUSH2 0x2593 JUMP JUMPDEST SWAP4 POP PUSH2 0x25C1 DUP2 DUP6 PUSH1 0x20 DUP7 ADD PUSH2 0x1AE1 JUMP JUMPDEST DUP1 DUP5 ADD SWAP2 POP POP SWAP3 SWAP2 POP POP JUMP JUMPDEST PUSH0 PUSH2 0x25D8 DUP3 DUP6 PUSH2 0x259D JUMP JUMPDEST SWAP2 POP PUSH2 0x25E4 DUP3 DUP5 PUSH2 0x259D JUMP JUMPDEST SWAP2 POP DUP2 SWAP1 POP SWAP4 SWAP3 POP POP POP JUMP JUMPDEST PUSH32 0x6E6F74206F776E65720000000000000000000000000000000000000000000000 PUSH0 DUP3 ADD MSTORE POP JUMP JUMPDEST PUSH0 PUSH2 0x2624 PUSH1 0x9 DUP4 PUSH2 0x1AD1 JUMP JUMPDEST SWAP2 POP PUSH2 0x262F DUP3 PUSH2 0x25F0 JUMP JUMPDEST PUSH1 0x20 DUP3 ADD SWAP1 POP SWAP2 SWAP1 POP JUMP JUMPDEST PUSH0 PUSH1 0x20 DUP3 ADD SWAP1 POP DUP2 DUP2 SUB PUSH0 DUP4 ADD MSTORE PUSH2 0x2651 DUP2 PUSH2 0x2618 JUMP JUMPDEST SWAP1 POP SWAP2 SWAP1 POP JUMP JUMPDEST PUSH32 0x7472616E7366657220746F20746865207A65726F206164647265737300000000 PUSH0 DUP3 ADD MSTORE POP JUMP JUMPDEST PUSH0 PUSH2 0x268C PUSH1 0x1C DUP4 PUSH2 0x1AD1 JUMP JUMPDEST SWAP2 POP PUSH2 0x2697 DUP3 PUSH2 0x2658 JUMP JUMPDEST PUSH1 0x20 DUP3 ADD SWAP1 POP SWAP2 SWAP1 POP JUMP JUMPDEST PUSH0 PUSH1 0x20 DUP3 ADD SWAP1 POP DUP2 DUP2 SUB PUSH0 DUP4 ADD MSTORE PUSH2 0x26B9 DUP2 PUSH2 0x2680 JUMP JUMPDEST SWAP1 POP SWAP2 SWAP1 POP JUMP JUMPDEST PUSH32 0x4E487B7100000000000000000000000000000000000000000000000000000000 PUSH0 MSTORE PUSH1 0x11 PUSH1 0x4 MSTORE PUSH1 0x24 PUSH0 REVERT JUMPDEST PUSH0 PUSH2 0x26F7 DUP3 PUSH2 0x1B57 JUMP JUMPDEST SWAP2 POP PUSH2 0x2702 DUP4 PUSH2 0x1B57 JUMP JUMPDEST SWAP3 POP DUP3 DUP3 SUB SWAP1 POP DUP2 DUP2 GT ISZERO PUSH2 0x271A JUMPI PUSH2 0x2719 PUSH2 0x26C0 JUMP JUMPDEST JUMPDEST SWAP3 SWAP2 POP POP JUMP JUMPDEST PUSH0 PUSH2 0x272A DUP3 PUSH2 0x1B57 JUMP JUMPDEST SWAP2 POP PUSH2 0x2735 DUP4 PUSH2 0x1B57 JUMP JUMPDEST SWAP3 POP DUP3 DUP3 ADD SWAP1 POP DUP1 DUP3 GT ISZERO PUSH2 0x274D JUMPI PUSH2 0x274C PUSH2 0x26C0 JUMP JUMPDEST JUMPDEST SWAP3 SWAP2 POP POP JUMP JUMPDEST PUSH0 DUP2 PUSH1 0x60 SHL SWAP1 POP SWAP2 SWAP1 POP JUMP JUMPDEST PUSH0 PUSH2 0x2769 DUP3 PUSH2 0x2753 JUMP JUMPDEST SWAP1 POP SWAP2 SWAP1 POP JUMP JUMPDEST PUSH0 PUSH2 0x277A DUP3 PUSH2 0x275F JUMP JUMPDEST SWAP1 POP SWAP2 SWAP1 POP JUMP JUMPDEST PUSH2 0x2792 PUSH2 0x278D DUP3 PUSH2 0x1BD4 JUMP JUMPDEST PUSH2 0x2770 JUMP JUMPDEST DUP3 MSTORE POP POP JUMP JUMPDEST PUSH0 PUSH2 0x27A3 DUP3 DUP5 PUSH2 0x2781 JUMP JUMPDEST PUSH1 0x14 DUP3 ADD SWAP2 POP DUP2 SWAP1 POP SWAP3 SWAP2 POP POP JUMP JUMPDEST PUSH32 0x6D696E7420746F207A65726F2061646472657373000000000000000000000000 PUSH0 DUP3 ADD MSTORE POP JUMP JUMPDEST PUSH0 PUSH2 0x27E6 PUSH1 0x14 DUP4 PUSH2 0x1AD1 JUMP JUMPDEST SWAP2 POP PUSH2 0x27F1 DUP3 PUSH2 0x27B2 JUMP JUMPDEST PUSH1 0x20 DUP3 ADD SWAP1 POP SWAP2 SWAP1 POP JUMP JUMPDEST PUSH0 PUSH1 0x20 DUP3 ADD SWAP1 POP DUP2 DUP2 SUB PUSH0 DUP4 ADD MSTORE PUSH2 0x2813 DUP2 PUSH2 0x27DA JUMP JUMPDEST SWAP1 POP SWAP2 SWAP1 POP JUMP JUMPDEST PUSH32 0x746F6B656E20616C7265616479206D696E746564000000000000000000000000 PUSH0 DUP3 ADD MSTORE POP JUMP JUMPDEST PUSH0 PUSH2 0x284E PUSH1 0x14 DUP4 PUSH2 0x1AD1 JUMP JUMPDEST SWAP2 POP PUSH2 0x2859 DUP3 PUSH2 0x281A JUMP JUMPDEST PUSH1 0x20 DUP3 ADD SWAP1 POP SWAP2 SWAP1 POP JUMP JUMPDEST PUSH0 PUSH1 0x20 DUP3 ADD SWAP1 POP DUP2 DUP2 SUB PUSH0 DUP4 ADD MSTORE PUSH2 0x287B DUP2 PUSH2 0x2842 JUMP JUMPDEST SWAP1 POP SWAP2 SWAP1 POP JUMP JUMPDEST PUSH0 PUSH2 0x288C DUP3 PUSH2 0x1B57 JUMP JUMPDEST SWAP2 POP PUSH32 0xFFFFFFFFFFFFFFFFFFFFFFFFFFFFFFFFFFFFFFFFFFFFFFFFFFFFFFFFFFFFFFFF DUP3 SUB PUSH2 0x28BE JUMPI PUSH2 0x28BD PUSH2 0x26C0 JUMP JUMPDEST JUMPDEST PUSH1 0x1 DUP3 ADD SWAP1 POP SWAP2 SWAP1 POP JUMP JUMPDEST PUSH32 0x4E487B7100000000000000000000000000000000000000000000000000000000 PUSH0 MSTORE PUSH1 0x12 PUSH1 0x4 MSTORE PUSH1 0x24 PUSH0 REVERT JUMPDEST PUSH0 PUSH2 0x2900 DUP3 PUSH2 0x1B57 JUMP JUMPDEST SWAP2 POP PUSH2 0x290B DUP4 PUSH2 0x1B57 JUMP JUMPDEST SWAP3 POP DUP3 PUSH2 0x291B JUMPI PUSH2 0x291A PUSH2 0x28C9 JUMP JUMPDEST JUMPDEST DUP3 DUP3 DIV SWAP1 POP SWAP3 SWAP2 POP POP JUMP JUMPDEST PUSH0 PUSH2 0x2930 DUP3 PUSH2 0x1B57 JUMP JUMPDEST SWAP2 POP PUSH2 0x293B DUP4 PUSH2 0x1B57 JUMP JUMPDEST SWAP3 POP DUP3 PUSH2 0x294B JUMPI PUSH2 0x294A PUSH2 0x28C9 JUMP JUMPDEST JUMPDEST DUP3 DUP3 MOD SWAP1 POP SWAP3 SWAP2 POP POP JUMP JUMPDEST PUSH32 0x4E487B7100000000000000000000000000000000000000000000000000000000 PUSH0 MSTORE PUSH1 0x32 PUSH1 0x4 MSTORE PUSH1 0x24 PUSH0 REVERT JUMPDEST PUSH0 DUP2 MLOAD SWAP1 POP SWAP2 SWAP1 POP JUMP JUMPDEST PUSH0 DUP3 DUP3 MSTORE PUSH1 0x20 DUP3 ADD SWAP1 POP SWAP3 SWAP2 POP POP JUMP JUMPDEST PUSH0 PUSH2 0x29A7 DUP3 PUSH2 0x2983 JUMP JUMPDEST PUSH2 0x29B1 DUP2 DUP6 PUSH2 0x298D JUMP JUMPDEST SWAP4 POP PUSH2 0x29C1 DUP2 DUP6 PUSH1 0x20 DUP7 ADD PUSH2 0x1AE1 JUMP JUMPDEST PUSH2 0x29CA DUP2 PUSH2 0x1AEF JUMP JUMPDEST DUP5 ADD SWAP2 POP POP SWAP3 SWAP2 POP POP JUMP JUMPDEST PUSH0 PUSH1 0x80 DUP3 ADD SWAP1 POP PUSH2 0x29E8 PUSH0 DUP4 ADD DUP8 PUSH2 0x1BE5 JUMP JUMPDEST PUSH2 0x29F5 PUSH1 0x20 DUP4 ADD DUP7 PUSH2 0x1BE5 JUMP JUMPDEST PUSH2 0x2A02 PUSH1 0x40 DUP4 ADD DUP6 PUSH2 0x1FAF JUMP JUMPDEST DUP2 DUP2 SUB PUSH1 0x60 DUP4 ADD MSTORE PUSH2 0x2A14 DUP2 DUP5 PUSH2 0x299D JUMP JUMPDEST SWAP1 POP SWAP6 SWAP5 POP POP POP POP POP JUMP JUMPDEST PUSH0 DUP2 MLOAD SWAP1 POP PUSH2 0x2A2D DUP2 PUSH2 0x1A3F JUMP JUMPDEST SWAP3 SWAP2 POP POP JUMP JUMPDEST PUSH0 PUSH1 0x20 DUP3 DUP5 SUB SLT ISZERO PUSH2 0x2A48 JUMPI PUSH2 0x2A47 PUSH2 0x1A0C JUMP JUMPDEST JUMPDEST PUSH0 PUSH2 0x2A55 DUP5 DUP3 DUP6 ADD PUSH2 0x2A1F JUMP JUMPDEST SWAP2 POP POP SWAP3 SWAP2 POP POP JUMP INVALID LOG2 PUSH5 0x6970667358 0x22 SLT KECCAK256 EXP 0xE6 0xE8 0xE4 0xF6 MOD 0x25 REVERT 0xD2 DUP2 0xFC PUSH7 0xD328A5E06C6C71 0xDB 0xC GT SWAP3 0xB9 MSTORE PUSH20 0x356B995E7A3764736F6C634300081A0033000000 "
		},
		"gasEstimates": {
			"creation": {
				"codeDepositCost": "2180000",
				"executionCost": "infinite",
				"totalCost": "infinite"
			},
			"external": {
				"_verify(bytes32,bytes32[])": "infinite",
				"approve(address,uint256)": "31603",
				"balanceOf(address)": "2931",
				"getApproved(uint256)": "5166",
				"getInterfaceId()": "383",
				"getRoot(bytes32,bytes32)": "infinite",
				"isApprovedForAll(address,address)": "infinite",
				"mint(address,uint256,bytes32[])": "infinite",
				"mintedAddress(address)": "2922",
				"name()": "infinite",
				"ownerOf(uint256)": "3049",
				"root()": "infinite",
				"safeTransferFrom(address,address,uint256)": "infinite",
				"safeTransferFrom(address,address,uint256,bytes)": "infinite",
				"setApprovalForAll(address,bool)": "infinite",
				"supportsInterface(bytes4)": "745",
				"symbol()": "infinite",
				"tokenURI(uint256)": "infinite",
				"transferFrom(address,address,uint256)": "infinite"
			},
			"internal": {
				"_leaf(address)": "infinite"
			}
		},
		"methodIdentifiers": {
			"_verify(bytes32,bytes32[])": "46f265fd",
			"approve(address,uint256)": "095ea7b3",
			"balanceOf(address)": "70a08231",
			"getApproved(uint256)": "081812fc",
			"getInterfaceId()": "6b9241fc",
			"getRoot(bytes32,bytes32)": "c7cec487",
			"isApprovedForAll(address,address)": "e985e9c5",
			"mint(address,uint256,bytes32[])": "641ce140",
			"mintedAddress(address)": "630303c6",
			"name()": "06fdde03",
			"ownerOf(uint256)": "6352211e",
			"root()": "ebf0c717",
			"safeTransferFrom(address,address,uint256)": "42842e0e",
			"safeTransferFrom(address,address,uint256,bytes)": "b88d4fde",
			"setApprovalForAll(address,bool)": "a22cb465",
			"supportsInterface(bytes4)": "01ffc9a7",
			"symbol()": "95d89b41",
			"tokenURI(uint256)": "c87b56dd",
			"transferFrom(address,address,uint256)": "23b872dd"
		}
	},
	"abi": [
		{
			"inputs": [
				{
					"internalType": "string",
					"name": "name",
					"type": "string"
				},
				{
					"internalType": "string",
					"name": "symbol",
					"type": "string"
				},
				{
					"internalType": "bytes32",
					"name": "merkleroot",
					"type": "bytes32"
				}
			],
			"stateMutability": "nonpayable",
			"type": "constructor"
		},
		{
			"inputs": [
				{
					"internalType": "address",
					"name": "receiver",
					"type": "address"
				}
			],
			"name": "ERC721InvalidReceiver",
			"type": "error"
		},
		{
			"anonymous": false,
			"inputs": [
				{
					"indexed": true,
					"internalType": "address",
					"name": "owner",
					"type": "address"
				},
				{
					"indexed": true,
					"internalType": "address",
					"name": "approved",
					"type": "address"
				},
				{
					"indexed": true,
					"internalType": "uint256",
					"name": "tokenId",
					"type": "uint256"
				}
			],
			"name": "Approval",
			"type": "event"
		},
		{
			"anonymous": false,
			"inputs": [
				{
					"indexed": true,
					"internalType": "address",
					"name": "owner",
					"type": "address"
				},
				{
					"indexed": true,
					"internalType": "address",
					"name": "operator",
					"type": "address"
				},
				{
					"indexed": false,
					"internalType": "bool",
					"name": "approved",
					"type": "bool"
				}
			],
			"name": "ApprovalForAll",
			"type": "event"
		},
		{
			"anonymous": false,
			"inputs": [
				{
					"indexed": true,
					"internalType": "address",
					"name": "from",
					"type": "address"
				},
				{
					"indexed": true,
					"internalType": "address",
					"name": "to",
					"type": "address"
				},
				{
					"indexed": true,
					"internalType": "uint256",
					"name": "tokenId",
					"type": "uint256"
				}
			],
			"name": "Transfer",
			"type": "event"
		},
		{
			"inputs": [
				{
					"internalType": "bytes32",
					"name": "leaf",
					"type": "bytes32"
				},
				{
					"internalType": "bytes32[]",
					"name": "proof",
					"type": "bytes32[]"
				}
			],
			"name": "_verify",
			"outputs": [
				{
					"internalType": "bool",
					"name": "",
					"type": "bool"
				}
			],
			"stateMutability": "view",
			"type": "function"
		},
		{
			"inputs": [
				{
					"internalType": "address",
					"name": "to",
					"type": "address"
				},
				{
					"internalType": "uint256",
					"name": "tokenId",
					"type": "uint256"
				}
			],
			"name": "approve",
			"outputs": [],
			"stateMutability": "nonpayable",
			"type": "function"
		},
		{
			"inputs": [
				{
					"internalType": "address",
					"name": "owner",
					"type": "address"
				}
			],
			"name": "balanceOf",
			"outputs": [
				{
					"internalType": "uint256",
					"name": "",
					"type": "uint256"
				}
			],
			"stateMutability": "view",
			"type": "function"
		},
		{
			"inputs": [
				{
					"internalType": "uint256",
					"name": "tokenId",
					"type": "uint256"
				}
			],
			"name": "getApproved",
			"outputs": [
				{
					"internalType": "address",
					"name": "",
					"type": "address"
				}
			],
			"stateMutability": "view",
			"type": "function"
		},
		{
			"inputs": [],
			"name": "getInterfaceId",
			"outputs": [
				{
					"internalType": "bytes4",
					"name": "",
					"type": "bytes4"
				}
			],
			"stateMutability": "view",
			"type": "function"
		},
		{
			"inputs": [
				{
					"internalType": "bytes32",
					"name": "a",
					"type": "bytes32"
				},
				{
					"internalType": "bytes32",
					"name": "b",
					"type": "bytes32"
				}
			],
			"name": "getRoot",
			"outputs": [
				{
					"internalType": "bytes32",
					"name": "",
					"type": "bytes32"
				}
			],
			"stateMutability": "nonpayable",
			"type": "function"
		},
		{
			"inputs": [
				{
					"internalType": "address",
					"name": "owner",
					"type": "address"
				},
				{
					"internalType": "address",
					"name": "operator",
					"type": "address"
				}
			],
			"name": "isApprovedForAll",
			"outputs": [
				{
					"internalType": "bool",
					"name": "",
					"type": "bool"
				}
			],
			"stateMutability": "view",
			"type": "function"
		},
		{
			"inputs": [
				{
					"internalType": "address",
					"name": "account",
					"type": "address"
				},
				{
					"internalType": "uint256",
					"name": "tokenId",
					"type": "uint256"
				},
				{
					"internalType": "bytes32[]",
					"name": "proof",
					"type": "bytes32[]"
				}
			],
			"name": "mint",
			"outputs": [],
			"stateMutability": "nonpayable",
			"type": "function"
		},
		{
			"inputs": [
				{
					"internalType": "address",
					"name": "",
					"type": "address"
				}
			],
			"name": "mintedAddress",
			"outputs": [
				{
					"internalType": "bool",
					"name": "",
					"type": "bool"
				}
			],
			"stateMutability": "view",
			"type": "function"
		},
		{
			"inputs": [],
			"name": "name",
			"outputs": [
				{
					"internalType": "string",
					"name": "",
					"type": "string"
				}
			],
			"stateMutability": "view",
			"type": "function"
		},
		{
			"inputs": [
				{
					"internalType": "uint256",
					"name": "tokenId",
					"type": "uint256"
				}
			],
			"name": "ownerOf",
			"outputs": [
				{
					"internalType": "address",
					"name": "owner",
					"type": "address"
				}
			],
			"stateMutability": "view",
			"type": "function"
		},
		{
			"inputs": [],
			"name": "root",
			"outputs": [
				{
					"internalType": "bytes32",
					"name": "",
					"type": "bytes32"
				}
			],
			"stateMutability": "view",
			"type": "function"
		},
		{
			"inputs": [
				{
					"internalType": "address",
					"name": "from",
					"type": "address"
				},
				{
					"internalType": "address",
					"name": "to",
					"type": "address"
				},
				{
					"internalType": "uint256",
					"name": "tokenId",
					"type": "uint256"
				}
			],
			"name": "safeTransferFrom",
			"outputs": [],
			"stateMutability": "nonpayable",
			"type": "function"
		},
		{
			"inputs": [
				{
					"internalType": "address",
					"name": "from",
					"type": "address"
				},
				{
					"internalType": "address",
					"name": "to",
					"type": "address"
				},
				{
					"internalType": "uint256",
					"name": "tokenId",
					"type": "uint256"
				},
				{
					"internalType": "bytes",
					"name": "_data",
					"type": "bytes"
				}
			],
			"name": "safeTransferFrom",
			"outputs": [],
			"stateMutability": "nonpayable",
			"type": "function"
		},
		{
			"inputs": [
				{
					"internalType": "address",
					"name": "operator",
					"type": "address"
				},
				{
					"internalType": "bool",
					"name": "approved",
					"type": "bool"
				}
			],
			"name": "setApprovalForAll",
			"outputs": [],
			"stateMutability": "nonpayable",
			"type": "function"
		},
		{
			"inputs": [
				{
					"internalType": "bytes4",
					"name": "interfaceId",
					"type": "bytes4"
				}
			],
			"name": "supportsInterface",
			"outputs": [
				{
					"internalType": "bool",
					"name": "",
					"type": "bool"
				}
			],
			"stateMutability": "pure",
			"type": "function"
		},
		{
			"inputs": [],
			"name": "symbol",
			"outputs": [
				{
					"internalType": "string",
					"name": "",
					"type": "string"
				}
			],
			"stateMutability": "view",
			"type": "function"
		},
		{
			"inputs": [
				{
					"internalType": "uint256",
					"name": "tokenId",
					"type": "uint256"
				}
			],
			"name": "tokenURI",
			"outputs": [
				{
					"internalType": "string",
					"name": "",
					"type": "string"
				}
			],
			"stateMutability": "view",
			"type": "function"
		},
		{
			"inputs": [
				{
					"internalType": "address",
					"name": "from",
					"type": "address"
				},
				{
					"internalType": "address",
					"name": "to",
					"type": "address"
				},
				{
					"internalType": "uint256",
					"name": "tokenId",
					"type": "uint256"
				}
			],
			"name": "transferFrom",
			"outputs": [],
			"stateMutability": "nonpayable",
			"type": "function"
		}
	]
}