{
	"contracts/Random/testR.sol": {
		"RandomIDGeneratorV2": {
			"abi": [
				{
					"inputs": [
						{
							"internalType": "address",
							"name": "vrfCoordinator",
							"type": "address"
						},
						{
							"internalType": "address",
							"name": "linkToken",
							"type": "address"
						},
						{
							"internalType": "bytes32",
							"name": "_keyHash",
							"type": "bytes32"
						},
						{
							"internalType": "uint64",
							"name": "_subscriptionId",
							"type": "uint64"
						}
					],
					"stateMutability": "nonpayable",
					"type": "constructor"
				},
				{
					"inputs": [
						{
							"internalType": "address",
							"name": "have",
							"type": "address"
						},
						{
							"internalType": "address",
							"name": "want",
							"type": "address"
						}
					],
					"name": "OnlyCoordinatorCanFulfill",
					"type": "error"
				},
				{
					"anonymous": false,
					"inputs": [
						{
							"indexed": false,
							"internalType": "uint256",
							"name": "requestId",
							"type": "uint256"
						},
						{
							"indexed": false,
							"internalType": "uint256",
							"name": "randomId",
							"type": "uint256"
						}
					],
					"name": "RandomNumberFulfilled",
					"type": "event"
				},
				{
					"anonymous": false,
					"inputs": [
						{
							"indexed": false,
							"internalType": "uint256",
							"name": "requestId",
							"type": "uint256"
						}
					],
					"name": "RandomNumberRequested",
					"type": "event"
				},
				{
					"inputs": [],
					"name": "LINK",
					"outputs": [
						{
							"internalType": "contract IERC20",
							"name": "",
							"type": "address"
						}
					],
					"stateMutability": "view",
					"type": "function"
				},
				{
					"inputs": [
						{
							"internalType": "uint256",
							"name": "amountInLINK",
							"type": "uint256"
						}
					],
					"name": "fundContract",
					"outputs": [],
					"stateMutability": "nonpayable",
					"type": "function"
				},
				{
					"inputs": [],
					"name": "getLINKBalance",
					"outputs": [
						{
							"internalType": "uint256",
							"name": "",
							"type": "uint256"
						}
					],
					"stateMutability": "view",
					"type": "function"
				},
				{
					"inputs": [],
					"name": "randomId",
					"outputs": [
						{
							"internalType": "uint256",
							"name": "",
							"type": "uint256"
						}
					],
					"stateMutability": "view",
					"type": "function"
				},
				{
					"inputs": [
						{
							"internalType": "uint256",
							"name": "requestId",
							"type": "uint256"
						},
						{
							"internalType": "uint256[]",
							"name": "randomWords",
							"type": "uint256[]"
						}
					],
					"name": "rawFulfillRandomWords",
					"outputs": [],
					"stateMutability": "nonpayable",
					"type": "function"
				},
				{
					"inputs": [],
					"name": "requestRandomID",
					"outputs": [
						{
							"internalType": "uint256",
							"name": "requestId",
							"type": "uint256"
						}
					],
					"stateMutability": "nonpayable",
					"type": "function"
				}
			],
			"devdoc": {
				"kind": "dev",
				"methods": {},
				"version": 1
			},
			"evm": {
				"assembly": "    /* \"contracts/Random/testR.sol\":533:3182  contract RandomIDGeneratorV2 is VRFConsumerBaseV2 {... */\n  mstore(0x40, 0xa0)\n    /* \"contracts/Random/testR.sol\":756:762  100000 */\n  0x0186a0\n    /* \"contracts/Random/testR.sol\":722:762  uint32 private callbackGasLimit = 100000 */\n  0x03\n  exp(0x0100, 0x08)\n  dup2\n  sload\n  dup2\n  0xffffffff\n  mul\n  not\n  and\n  swap1\n  dup4\n  0xffffffff\n  and\n  mul\n  or\n  swap1\n  sstore\n  pop\n    /* \"contracts/Random/testR.sol\":814:815  3 */\n  0x03\n    /* \"contracts/Random/testR.sol\":769:815  uint16 private minimumRequestConfirmations = 3 */\n  dup1\n  exp(0x0100, 0x0c)\n  dup2\n  sload\n  dup2\n  0xffff\n  mul\n  not\n  and\n  swap1\n  dup4\n  0xffff\n  and\n  mul\n  or\n  swap1\n  sstore\n  pop\n    /* \"contracts/Random/testR.sol\":848:849  1 */\n  0x01\n    /* \"contracts/Random/testR.sol\":822:849  uint32 private numWords = 1 */\n  0x03\n  exp(0x0100, 0x0e)\n  dup2\n  sload\n  dup2\n  0xffffffff\n  mul\n  not\n  and\n  swap1\n  dup4\n  0xffffffff\n  and\n  mul\n  or\n  swap1\n  sstore\n  pop\n    /* \"contracts/Random/testR.sol\":1198:1757  constructor(... */\n  callvalue\n  dup1\n  iszero\n  tag_1\n  jumpi\n  0x00\n  dup1\n  revert\ntag_1:\n  pop\n  mload(0x40)\n  sub(codesize, bytecodeSize)\n  dup1\n  bytecodeSize\n  dup4\n  codecopy\n  dup2\n  dup2\n  add\n  0x40\n  mstore\n  dup2\n  add\n  swap1\n  tag_2\n  swap2\n  swap1\n  tag_3\n  jump\t// in\ntag_2:\n    /* \"contracts/Random/testR.sol\":1506:1520  vrfCoordinator */\n  dup4\n    /* \"@chainlink/contracts/src/v0.8/vrf/VRFConsumerBaseV2.sol\":5700:5715  _vrfCoordinator */\n  dup1\n    /* \"@chainlink/contracts/src/v0.8/vrf/VRFConsumerBaseV2.sol\":5683:5715  vrfCoordinator = _vrfCoordinator */\n  0xffffffffffffffffffffffffffffffffffffffff\n  and\n  0x80\n  dup2\n  0xffffffffffffffffffffffffffffffffffffffff\n  and\n  dup2\n  mstore\n  pop\n  pop\n    /* \"@chainlink/contracts/src/v0.8/vrf/VRFConsumerBaseV2.sol\":5640:5720  constructor(address _vrfCoordinator) {... */\n  pop\n    /* \"contracts/Random/testR.sol\":1598:1606  _keyHash */\n  dup2\n    /* \"contracts/Random/testR.sol\":1588:1595  keyHash */\n  0x02\n    /* \"contracts/Random/testR.sol\":1588:1606  keyHash = _keyHash */\n  dup2\n  swap1\n  sstore\n  pop\n    /* \"contracts/Random/testR.sol\":1634:1649  _subscriptionId */\n  dup1\n    /* \"contracts/Random/testR.sol\":1617:1631  subscriptionId */\n  0x03\n  0x00\n    /* \"contracts/Random/testR.sol\":1617:1649  subscriptionId = _subscriptionId */\n  0x0100\n  exp\n  dup2\n  sload\n  dup2\n  0xffffffffffffffff\n  mul\n  not\n  and\n  swap1\n  dup4\n  0xffffffffffffffff\n  and\n  mul\n  or\n  swap1\n  sstore\n  pop\n    /* \"contracts/Random/testR.sol\":1666:1680  vrfCoordinator */\n  dup4\n    /* \"contracts/Random/testR.sol\":1660:1665  utest */\n  0x04\n  0x00\n    /* \"contracts/Random/testR.sol\":1660:1680  utest=vrfCoordinator */\n  0x0100\n  exp\n  dup2\n  sload\n  dup2\n  0xffffffffffffffffffffffffffffffffffffffff\n  mul\n  not\n  and\n  swap1\n  dup4\n  0xffffffffffffffffffffffffffffffffffffffff\n  and\n  mul\n  or\n  swap1\n  sstore\n  pop\n    /* \"contracts/Random/testR.sol\":1705:1714  linkToken */\n  dup3\n    /* \"contracts/Random/testR.sol\":1691:1695  LINK */\n  0x05\n  0x00\n    /* \"contracts/Random/testR.sol\":1691:1715  LINK = IERC20(linkToken) */\n  0x0100\n  exp\n  dup2\n  sload\n  dup2\n  0xffffffffffffffffffffffffffffffffffffffff\n  mul\n  not\n  and\n  swap1\n  dup4\n  0xffffffffffffffffffffffffffffffffffffffff\n  and\n  mul\n  or\n  swap1\n  sstore\n  pop\n    /* \"contracts/Random/testR.sol\":1198:1757  constructor(... */\n  pop\n  pop\n  pop\n  pop\n    /* \"contracts/Random/testR.sol\":533:3182  contract RandomIDGeneratorV2 is VRFConsumerBaseV2 {... */\n  jump(tag_8)\n    /* \"#utility.yul\":88:205   */\ntag_10:\n    /* \"#utility.yul\":197:198   */\n  0x00\n    /* \"#utility.yul\":194:195   */\n  dup1\n    /* \"#utility.yul\":187:199   */\n  revert\n    /* \"#utility.yul\":334:460   */\ntag_12:\n    /* \"#utility.yul\":371:378   */\n  0x00\n    /* \"#utility.yul\":411:453   */\n  0xffffffffffffffffffffffffffffffffffffffff\n    /* \"#utility.yul\":404:409   */\n  dup3\n    /* \"#utility.yul\":400:454   */\n  and\n    /* \"#utility.yul\":389:454   */\n  swap1\n  pop\n    /* \"#utility.yul\":334:460   */\n  swap2\n  swap1\n  pop\n  jump\t// out\n    /* \"#utility.yul\":466:562   */\ntag_13:\n    /* \"#utility.yul\":503:510   */\n  0x00\n    /* \"#utility.yul\":532:556   */\n  tag_28\n    /* \"#utility.yul\":550:555   */\n  dup3\n    /* \"#utility.yul\":532:556   */\n  tag_12\n  jump\t// in\ntag_28:\n    /* \"#utility.yul\":521:556   */\n  swap1\n  pop\n    /* \"#utility.yul\":466:562   */\n  swap2\n  swap1\n  pop\n  jump\t// out\n    /* \"#utility.yul\":568:690   */\ntag_14:\n    /* \"#utility.yul\":641:665   */\n  tag_30\n    /* \"#utility.yul\":659:664   */\n  dup2\n    /* \"#utility.yul\":641:665   */\n  tag_13\n  jump\t// in\ntag_30:\n    /* \"#utility.yul\":634:639   */\n  dup2\n    /* \"#utility.yul\":631:666   */\n  eq\n    /* \"#utility.yul\":621:684   */\n  tag_31\n  jumpi\n    /* \"#utility.yul\":680:681   */\n  0x00\n    /* \"#utility.yul\":677:678   */\n  dup1\n    /* \"#utility.yul\":670:682   */\n  revert\n    /* \"#utility.yul\":621:684   */\ntag_31:\n    /* \"#utility.yul\":568:690   */\n  pop\n  jump\t// out\n    /* \"#utility.yul\":696:839   */\ntag_15:\n    /* \"#utility.yul\":753:758   */\n  0x00\n    /* \"#utility.yul\":784:790   */\n  dup2\n    /* \"#utility.yul\":778:791   */\n  mload\n    /* \"#utility.yul\":769:791   */\n  swap1\n  pop\n    /* \"#utility.yul\":800:833   */\n  tag_33\n    /* \"#utility.yul\":827:832   */\n  dup2\n    /* \"#utility.yul\":800:833   */\n  tag_14\n  jump\t// in\ntag_33:\n    /* \"#utility.yul\":696:839   */\n  swap3\n  swap2\n  pop\n  pop\n  jump\t// out\n    /* \"#utility.yul\":845:922   */\ntag_16:\n    /* \"#utility.yul\":882:889   */\n  0x00\n    /* \"#utility.yul\":911:916   */\n  dup2\n    /* \"#utility.yul\":900:916   */\n  swap1\n  pop\n    /* \"#utility.yul\":845:922   */\n  swap2\n  swap1\n  pop\n  jump\t// out\n    /* \"#utility.yul\":928:1050   */\ntag_17:\n    /* \"#utility.yul\":1001:1025   */\n  tag_36\n    /* \"#utility.yul\":1019:1024   */\n  dup2\n    /* \"#utility.yul\":1001:1025   */\n  tag_16\n  jump\t// in\ntag_36:\n    /* \"#utility.yul\":994:999   */\n  dup2\n    /* \"#utility.yul\":991:1026   */\n  eq\n    /* \"#utility.yul\":981:1044   */\n  tag_37\n  jumpi\n    /* \"#utility.yul\":1040:1041   */\n  0x00\n    /* \"#utility.yul\":1037:1038   */\n  dup1\n    /* \"#utility.yul\":1030:1042   */\n  revert\n    /* \"#utility.yul\":981:1044   */\ntag_37:\n    /* \"#utility.yul\":928:1050   */\n  pop\n  jump\t// out\n    /* \"#utility.yul\":1056:1199   */\ntag_18:\n    /* \"#utility.yul\":1113:1118   */\n  0x00\n    /* \"#utility.yul\":1144:1150   */\n  dup2\n    /* \"#utility.yul\":1138:1151   */\n  mload\n    /* \"#utility.yul\":1129:1151   */\n  swap1\n  pop\n    /* \"#utility.yul\":1160:1193   */\n  tag_39\n    /* \"#utility.yul\":1187:1192   */\n  dup2\n    /* \"#utility.yul\":1160:1193   */\n  tag_17\n  jump\t// in\ntag_39:\n    /* \"#utility.yul\":1056:1199   */\n  swap3\n  swap2\n  pop\n  pop\n  jump\t// out\n    /* \"#utility.yul\":1205:1306   */\ntag_19:\n    /* \"#utility.yul\":1241:1248   */\n  0x00\n    /* \"#utility.yul\":1281:1299   */\n  0xffffffffffffffff\n    /* \"#utility.yul\":1274:1279   */\n  dup3\n    /* \"#utility.yul\":1270:1300   */\n  and\n    /* \"#utility.yul\":1259:1300   */\n  swap1\n  pop\n    /* \"#utility.yul\":1205:1306   */\n  swap2\n  swap1\n  pop\n  jump\t// out\n    /* \"#utility.yul\":1312:1432   */\ntag_20:\n    /* \"#utility.yul\":1384:1407   */\n  tag_42\n    /* \"#utility.yul\":1401:1406   */\n  dup2\n    /* \"#utility.yul\":1384:1407   */\n  tag_19\n  jump\t// in\ntag_42:\n    /* \"#utility.yul\":1377:1382   */\n  dup2\n    /* \"#utility.yul\":1374:1408   */\n  eq\n    /* \"#utility.yul\":1364:1426   */\n  tag_43\n  jumpi\n    /* \"#utility.yul\":1422:1423   */\n  0x00\n    /* \"#utility.yul\":1419:1420   */\n  dup1\n    /* \"#utility.yul\":1412:1424   */\n  revert\n    /* \"#utility.yul\":1364:1426   */\ntag_43:\n    /* \"#utility.yul\":1312:1432   */\n  pop\n  jump\t// out\n    /* \"#utility.yul\":1438:1579   */\ntag_21:\n    /* \"#utility.yul\":1494:1499   */\n  0x00\n    /* \"#utility.yul\":1525:1531   */\n  dup2\n    /* \"#utility.yul\":1519:1532   */\n  mload\n    /* \"#utility.yul\":1510:1532   */\n  swap1\n  pop\n    /* \"#utility.yul\":1541:1573   */\n  tag_45\n    /* \"#utility.yul\":1567:1572   */\n  dup2\n    /* \"#utility.yul\":1541:1573   */\n  tag_20\n  jump\t// in\ntag_45:\n    /* \"#utility.yul\":1438:1579   */\n  swap3\n  swap2\n  pop\n  pop\n  jump\t// out\n    /* \"#utility.yul\":1585:2403   */\ntag_3:\n    /* \"#utility.yul\":1681:1687   */\n  0x00\n    /* \"#utility.yul\":1689:1695   */\n  dup1\n    /* \"#utility.yul\":1697:1703   */\n  0x00\n    /* \"#utility.yul\":1705:1711   */\n  dup1\n    /* \"#utility.yul\":1754:1757   */\n  0x80\n    /* \"#utility.yul\":1742:1751   */\n  dup6\n    /* \"#utility.yul\":1733:1740   */\n  dup8\n    /* \"#utility.yul\":1729:1752   */\n  sub\n    /* \"#utility.yul\":1725:1758   */\n  slt\n    /* \"#utility.yul\":1722:1842   */\n  iszero\n  tag_47\n  jumpi\n    /* \"#utility.yul\":1761:1840   */\n  tag_48\n  tag_10\n  jump\t// in\ntag_48:\n    /* \"#utility.yul\":1722:1842   */\ntag_47:\n    /* \"#utility.yul\":1881:1882   */\n  0x00\n    /* \"#utility.yul\":1906:1970   */\n  tag_49\n    /* \"#utility.yul\":1962:1969   */\n  dup8\n    /* \"#utility.yul\":1953:1959   */\n  dup3\n    /* \"#utility.yul\":1942:1951   */\n  dup9\n    /* \"#utility.yul\":1938:1960   */\n  add\n    /* \"#utility.yul\":1906:1970   */\n  tag_15\n  jump\t// in\ntag_49:\n    /* \"#utility.yul\":1896:1970   */\n  swap5\n  pop\n    /* \"#utility.yul\":1852:1980   */\n  pop\n    /* \"#utility.yul\":2019:2021   */\n  0x20\n    /* \"#utility.yul\":2045:2109   */\n  tag_50\n    /* \"#utility.yul\":2101:2108   */\n  dup8\n    /* \"#utility.yul\":2092:2098   */\n  dup3\n    /* \"#utility.yul\":2081:2090   */\n  dup9\n    /* \"#utility.yul\":2077:2099   */\n  add\n    /* \"#utility.yul\":2045:2109   */\n  tag_15\n  jump\t// in\ntag_50:\n    /* \"#utility.yul\":2035:2109   */\n  swap4\n  pop\n    /* \"#utility.yul\":1990:2119   */\n  pop\n    /* \"#utility.yul\":2158:2160   */\n  0x40\n    /* \"#utility.yul\":2184:2248   */\n  tag_51\n    /* \"#utility.yul\":2240:2247   */\n  dup8\n    /* \"#utility.yul\":2231:2237   */\n  dup3\n    /* \"#utility.yul\":2220:2229   */\n  dup9\n    /* \"#utility.yul\":2216:2238   */\n  add\n    /* \"#utility.yul\":2184:2248   */\n  tag_18\n  jump\t// in\ntag_51:\n    /* \"#utility.yul\":2174:2248   */\n  swap3\n  pop\n    /* \"#utility.yul\":2129:2258   */\n  pop\n    /* \"#utility.yul\":2297:2299   */\n  0x60\n    /* \"#utility.yul\":2323:2386   */\n  tag_52\n    /* \"#utility.yul\":2378:2385   */\n  dup8\n    /* \"#utility.yul\":2369:2375   */\n  dup3\n    /* \"#utility.yul\":2358:2367   */\n  dup9\n    /* \"#utility.yul\":2354:2376   */\n  add\n    /* \"#utility.yul\":2323:2386   */\n  tag_21\n  jump\t// in\ntag_52:\n    /* \"#utility.yul\":2313:2386   */\n  swap2\n  pop\n    /* \"#utility.yul\":2268:2396   */\n  pop\n    /* \"#utility.yul\":1585:2403   */\n  swap3\n  swap6\n  swap2\n  swap5\n  pop\n  swap3\n  pop\n  jump\t// out\n    /* \"contracts/Random/testR.sol\":533:3182  contract RandomIDGeneratorV2 is VRFConsumerBaseV2 {... */\ntag_8:\n  mload(0x80)\n  codecopy(0x00, dataOffset(sub_0), dataSize(sub_0))\n  0x00\n  assignImmutable(\"0x1a192fabce13988b84994d4296e6cdc418d55e2f1d7f942188d4040b94fc57ac\")\n  return(0x00, dataSize(sub_0))\nstop\n\nsub_0: assembly {\n        /* \"contracts/Random/testR.sol\":533:3182  contract RandomIDGeneratorV2 is VRFConsumerBaseV2 {... */\n      mstore(0x40, 0x80)\n      callvalue\n      dup1\n      iszero\n      tag_1\n      jumpi\n      0x00\n      dup1\n      revert\n    tag_1:\n      pop\n      jumpi(tag_2, lt(calldatasize, 0x04))\n      shr(0xe0, calldataload(0x00))\n      dup1\n      0x0ab14d8a\n      eq\n      tag_3\n      jumpi\n      dup1\n      0x1b6b6d23\n      eq\n      tag_4\n      jumpi\n      dup1\n      0x1fe543e3\n      eq\n      tag_5\n      jumpi\n      dup1\n      0x3519a2f8\n      eq\n      tag_6\n      jumpi\n      dup1\n      0x6765b256\n      eq\n      tag_7\n      jumpi\n      dup1\n      0xac428e7a\n      eq\n      tag_8\n      jumpi\n    tag_2:\n      0x00\n      dup1\n      revert\n        /* \"contracts/Random/testR.sol\":590:613  uint256 public randomId */\n    tag_3:\n      tag_9\n      tag_10\n      jump\t// in\n    tag_9:\n      mload(0x40)\n      tag_11\n      swap2\n      swap1\n      tag_12\n      jump\t// in\n    tag_11:\n      mload(0x40)\n      dup1\n      swap2\n      sub\n      swap1\n      return\n        /* \"contracts/Random/testR.sol\":878:896  IERC20 public LINK */\n    tag_4:\n      tag_13\n      tag_14\n      jump\t// in\n    tag_13:\n      mload(0x40)\n      tag_15\n      swap2\n      swap1\n      tag_16\n      jump\t// in\n    tag_15:\n      mload(0x40)\n      dup1\n      swap2\n      sub\n      swap1\n      return\n        /* \"@chainlink/contracts/src/v0.8/vrf/VRFConsumerBaseV2.sol\":6794:7050  function rawFulfillRandomWords(uint256 requestId, uint256[] memory randomWords) external {... */\n    tag_5:\n      tag_17\n      0x04\n      dup1\n      calldatasize\n      sub\n      dup2\n      add\n      swap1\n      tag_18\n      swap2\n      swap1\n      tag_19\n      jump\t// in\n    tag_18:\n      tag_20\n      jump\t// in\n    tag_17:\n      stop\n        /* \"contracts/Random/testR.sol\":1856:2020  function fundContract(uint256 amountInLINK) external {... */\n    tag_6:\n      tag_21\n      0x04\n      dup1\n      calldatasize\n      sub\n      dup2\n      add\n      swap1\n      tag_22\n      swap2\n      swap1\n      tag_23\n      jump\t// in\n    tag_22:\n      tag_24\n      jump\t// in\n    tag_21:\n      stop\n        /* \"contracts/Random/testR.sol\":2072:2580  function requestRandomID() external returns (uint256 requestId) {... */\n    tag_7:\n      tag_25\n      tag_26\n      jump\t// in\n    tag_25:\n      mload(0x40)\n      tag_27\n      swap2\n      swap1\n      tag_12\n      jump\t// in\n    tag_27:\n      mload(0x40)\n      dup1\n      swap2\n      sub\n      swap1\n      return\n        /* \"contracts/Random/testR.sol\":3066:3179  function getLINKBalance() external view returns (uint256) {... */\n    tag_8:\n      tag_28\n      tag_29\n      jump\t// in\n    tag_28:\n      mload(0x40)\n      tag_30\n      swap2\n      swap1\n      tag_12\n      jump\t// in\n    tag_30:\n      mload(0x40)\n      dup1\n      swap2\n      sub\n      swap1\n      return\n        /* \"contracts/Random/testR.sol\":590:613  uint256 public randomId */\n    tag_10:\n      sload(0x00)\n      dup2\n      jump\t// out\n        /* \"contracts/Random/testR.sol\":878:896  IERC20 public LINK */\n    tag_14:\n      0x05\n      0x00\n      swap1\n      sload\n      swap1\n      0x0100\n      exp\n      swap1\n      div\n      0xffffffffffffffffffffffffffffffffffffffff\n      and\n      dup2\n      jump\t// out\n        /* \"@chainlink/contracts/src/v0.8/vrf/VRFConsumerBaseV2.sol\":6794:7050  function rawFulfillRandomWords(uint256 requestId, uint256[] memory randomWords) external {... */\n    tag_20:\n        /* \"@chainlink/contracts/src/v0.8/vrf/VRFConsumerBaseV2.sol\":6907:6921  vrfCoordinator */\n      immutable(\"0x1a192fabce13988b84994d4296e6cdc418d55e2f1d7f942188d4040b94fc57ac\")\n        /* \"@chainlink/contracts/src/v0.8/vrf/VRFConsumerBaseV2.sol\":6893:6921  msg.sender != vrfCoordinator */\n      0xffffffffffffffffffffffffffffffffffffffff\n      and\n        /* \"@chainlink/contracts/src/v0.8/vrf/VRFConsumerBaseV2.sol\":6893:6903  msg.sender */\n      caller\n        /* \"@chainlink/contracts/src/v0.8/vrf/VRFConsumerBaseV2.sol\":6893:6921  msg.sender != vrfCoordinator */\n      0xffffffffffffffffffffffffffffffffffffffff\n      and\n      eq\n        /* \"@chainlink/contracts/src/v0.8/vrf/VRFConsumerBaseV2.sol\":6889:6998  if (msg.sender != vrfCoordinator) {... */\n      tag_32\n      jumpi\n        /* \"@chainlink/contracts/src/v0.8/vrf/VRFConsumerBaseV2.sol\":6964:6974  msg.sender */\n      caller\n        /* \"@chainlink/contracts/src/v0.8/vrf/VRFConsumerBaseV2.sol\":6976:6990  vrfCoordinator */\n      immutable(\"0x1a192fabce13988b84994d4296e6cdc418d55e2f1d7f942188d4040b94fc57ac\")\n        /* \"@chainlink/contracts/src/v0.8/vrf/VRFConsumerBaseV2.sol\":6938:6991  OnlyCoordinatorCanFulfill(msg.sender, vrfCoordinator) */\n      mload(0x40)\n      0x1cf993f400000000000000000000000000000000000000000000000000000000\n      dup2\n      mstore\n      0x04\n      add\n      tag_33\n      swap3\n      swap2\n      swap1\n      tag_34\n      jump\t// in\n    tag_33:\n      mload(0x40)\n      dup1\n      swap2\n      sub\n      swap1\n      revert\n        /* \"@chainlink/contracts/src/v0.8/vrf/VRFConsumerBaseV2.sol\":6889:6998  if (msg.sender != vrfCoordinator) {... */\n    tag_32:\n        /* \"@chainlink/contracts/src/v0.8/vrf/VRFConsumerBaseV2.sol\":7003:7045  fulfillRandomWords(requestId, randomWords) */\n      tag_35\n        /* \"@chainlink/contracts/src/v0.8/vrf/VRFConsumerBaseV2.sol\":7022:7031  requestId */\n      dup3\n        /* \"@chainlink/contracts/src/v0.8/vrf/VRFConsumerBaseV2.sol\":7033:7044  randomWords */\n      dup3\n        /* \"@chainlink/contracts/src/v0.8/vrf/VRFConsumerBaseV2.sol\":7003:7021  fulfillRandomWords */\n      tag_36\n        /* \"@chainlink/contracts/src/v0.8/vrf/VRFConsumerBaseV2.sol\":7003:7045  fulfillRandomWords(requestId, randomWords) */\n      jump\t// in\n    tag_35:\n        /* \"@chainlink/contracts/src/v0.8/vrf/VRFConsumerBaseV2.sol\":6794:7050  function rawFulfillRandomWords(uint256 requestId, uint256[] memory randomWords) external {... */\n      pop\n      pop\n      jump\t// out\n        /* \"contracts/Random/testR.sol\":1856:2020  function fundContract(uint256 amountInLINK) external {... */\n    tag_24:\n        /* \"contracts/Random/testR.sol\":1920:1924  LINK */\n      0x05\n      0x00\n      swap1\n      sload\n      swap1\n      0x0100\n      exp\n      swap1\n      div\n      0xffffffffffffffffffffffffffffffffffffffff\n      and\n        /* \"contracts/Random/testR.sol\":1920:1937  LINK.transferFrom */\n      0xffffffffffffffffffffffffffffffffffffffff\n      and\n      0x23b872dd\n        /* \"contracts/Random/testR.sol\":1938:1948  msg.sender */\n      caller\n        /* \"contracts/Random/testR.sol\":1958:1962  this */\n      address\n        /* \"contracts/Random/testR.sol\":1965:1977  amountInLINK */\n      dup5\n        /* \"contracts/Random/testR.sol\":1920:1978  LINK.transferFrom(msg.sender, address(this), amountInLINK) */\n      mload(0x40)\n      dup5\n      0xffffffff\n      and\n      0xe0\n      shl\n      dup2\n      mstore\n      0x04\n      add\n      tag_38\n      swap4\n      swap3\n      swap2\n      swap1\n      tag_39\n      jump\t// in\n    tag_38:\n      0x20\n      mload(0x40)\n      dup1\n      dup4\n      sub\n      dup2\n      0x00\n      dup8\n      gas\n      call\n      iszero\n      dup1\n      iszero\n      tag_41\n      jumpi\n      returndatasize\n      0x00\n      dup1\n      returndatacopy\n      revert(0x00, returndatasize)\n    tag_41:\n      pop\n      pop\n      pop\n      pop\n      mload(0x40)\n      returndatasize\n      not(0x1f)\n      0x1f\n      dup3\n      add\n      and\n      dup3\n      add\n      dup1\n      0x40\n      mstore\n      pop\n      dup2\n      add\n      swap1\n      tag_42\n      swap2\n      swap1\n      tag_43\n      jump\t// in\n    tag_42:\n      pop\n        /* \"contracts/Random/testR.sol\":1856:2020  function fundContract(uint256 amountInLINK) external {... */\n      pop\n      jump\t// out\n        /* \"contracts/Random/testR.sol\":2072:2580  function requestRandomID() external returns (uint256 requestId) {... */\n    tag_26:\n        /* \"contracts/Random/testR.sol\":2117:2134  uint256 requestId */\n      0x00\n        /* \"contracts/Random/testR.sol\":2188:2200  0.1 * 10**18 */\n      0x016345785d8a0000\n        /* \"contracts/Random/testR.sol\":2155:2159  LINK */\n      0x05\n      0x00\n      swap1\n      sload\n      swap1\n      0x0100\n      exp\n      swap1\n      div\n      0xffffffffffffffffffffffffffffffffffffffff\n      and\n        /* \"contracts/Random/testR.sol\":2155:2169  LINK.balanceOf */\n      0xffffffffffffffffffffffffffffffffffffffff\n      and\n      0x70a08231\n        /* \"contracts/Random/testR.sol\":2178:2182  this */\n      address\n        /* \"contracts/Random/testR.sol\":2155:2184  LINK.balanceOf(address(this)) */\n      mload(0x40)\n      dup3\n      0xffffffff\n      and\n      0xe0\n      shl\n      dup2\n      mstore\n      0x04\n      add\n      tag_45\n      swap2\n      swap1\n      tag_46\n      jump\t// in\n    tag_45:\n      0x20\n      mload(0x40)\n      dup1\n      dup4\n      sub\n      dup2\n      dup7\n      gas\n      staticcall\n      iszero\n      dup1\n      iszero\n      tag_48\n      jumpi\n      returndatasize\n      0x00\n      dup1\n      returndatacopy\n      revert(0x00, returndatasize)\n    tag_48:\n      pop\n      pop\n      pop\n      pop\n      mload(0x40)\n      returndatasize\n      not(0x1f)\n      0x1f\n      dup3\n      add\n      and\n      dup3\n      add\n      dup1\n      0x40\n      mstore\n      pop\n      dup2\n      add\n      swap1\n      tag_49\n      swap2\n      swap1\n      tag_50\n      jump\t// in\n    tag_49:\n        /* \"contracts/Random/testR.sol\":2155:2200  LINK.balanceOf(address(this)) >= 0.1 * 10**18 */\n      lt\n      iszero\n        /* \"contracts/Random/testR.sol\":2147:2222  require(LINK.balanceOf(address(this)) >= 0.1 * 10**18, \"Insufficient LINK\") */\n      tag_51\n      jumpi\n      mload(0x40)\n      0x08c379a000000000000000000000000000000000000000000000000000000000\n      dup2\n      mstore\n      0x04\n      add\n      tag_52\n      swap1\n      tag_53\n      jump\t// in\n    tag_52:\n      mload(0x40)\n      dup1\n      swap2\n      sub\n      swap1\n      revert\n    tag_51:\n        /* \"contracts/Random/testR.sol\":2303:2308  utest */\n      0x04\n      0x00\n      swap1\n      sload\n      swap1\n      0x0100\n      exp\n      swap1\n      div\n      0xffffffffffffffffffffffffffffffffffffffff\n      and\n        /* \"contracts/Random/testR.sol\":2277:2329  IVRFCoordinatorV2(address(utest)).requestRandomWords */\n      0xffffffffffffffffffffffffffffffffffffffff\n      and\n      0x5d3b1d30\n        /* \"contracts/Random/testR.sol\":2344:2351  keyHash */\n      sload(0x02)\n        /* \"contracts/Random/testR.sol\":2366:2380  subscriptionId */\n      0x03\n      0x00\n      swap1\n      sload\n      swap1\n      0x0100\n      exp\n      swap1\n      div\n      0xffffffffffffffff\n      and\n        /* \"contracts/Random/testR.sol\":2395:2422  minimumRequestConfirmations */\n      0x03\n      0x0c\n      swap1\n      sload\n      swap1\n      0x0100\n      exp\n      swap1\n      div\n      0xffff\n      and\n        /* \"contracts/Random/testR.sol\":2437:2453  callbackGasLimit */\n      0x03\n      0x08\n      swap1\n      sload\n      swap1\n      0x0100\n      exp\n      swap1\n      div\n      0xffffffff\n      and\n        /* \"contracts/Random/testR.sol\":2468:2476  numWords */\n      0x03\n      0x0e\n      swap1\n      sload\n      swap1\n      0x0100\n      exp\n      swap1\n      div\n      0xffffffff\n      and\n        /* \"contracts/Random/testR.sol\":2277:2487  IVRFCoordinatorV2(address(utest)).requestRandomWords(... */\n      mload(0x40)\n      dup7\n      0xffffffff\n      and\n      0xe0\n      shl\n      dup2\n      mstore\n      0x04\n      add\n      tag_54\n      swap6\n      swap5\n      swap4\n      swap3\n      swap2\n      swap1\n      tag_55\n      jump\t// in\n    tag_54:\n      0x20\n      mload(0x40)\n      dup1\n      dup4\n      sub\n      dup2\n      0x00\n      dup8\n      gas\n      call\n      iszero\n      dup1\n      iszero\n      tag_57\n      jumpi\n      returndatasize\n      0x00\n      dup1\n      returndatacopy\n      revert(0x00, returndatasize)\n    tag_57:\n      pop\n      pop\n      pop\n      pop\n      mload(0x40)\n      returndatasize\n      not(0x1f)\n      0x1f\n      dup3\n      add\n      and\n      dup3\n      add\n      dup1\n      0x40\n      mstore\n      pop\n      dup2\n      add\n      swap1\n      tag_58\n      swap2\n      swap1\n      tag_50\n      jump\t// in\n    tag_58:\n        /* \"contracts/Random/testR.sol\":2265:2487  requestId = IVRFCoordinatorV2(address(utest)).requestRandomWords(... */\n      swap1\n      pop\n        /* \"contracts/Random/testR.sol\":2513:2545  RandomNumberRequested(requestId) */\n      0x5a82a565b8cc97bc62f2041e057e918f6b3b7b4185104d7d4a52ed5c711e7232\n        /* \"contracts/Random/testR.sol\":2535:2544  requestId */\n      dup2\n        /* \"contracts/Random/testR.sol\":2513:2545  RandomNumberRequested(requestId) */\n      mload(0x40)\n      tag_59\n      swap2\n      swap1\n      tag_12\n      jump\t// in\n    tag_59:\n      mload(0x40)\n      dup1\n      swap2\n      sub\n      swap1\n      log1\n        /* \"contracts/Random/testR.sol\":2072:2580  function requestRandomID() external returns (uint256 requestId) {... */\n      swap1\n      jump\t// out\n        /* \"contracts/Random/testR.sol\":3066:3179  function getLINKBalance() external view returns (uint256) {... */\n    tag_29:\n        /* \"contracts/Random/testR.sol\":3115:3122  uint256 */\n      0x00\n        /* \"contracts/Random/testR.sol\":3142:3146  LINK */\n      0x05\n      0x00\n      swap1\n      sload\n      swap1\n      0x0100\n      exp\n      swap1\n      div\n      0xffffffffffffffffffffffffffffffffffffffff\n      and\n        /* \"contracts/Random/testR.sol\":3142:3156  LINK.balanceOf */\n      0xffffffffffffffffffffffffffffffffffffffff\n      and\n      0x70a08231\n        /* \"contracts/Random/testR.sol\":3165:3169  this */\n      address\n        /* \"contracts/Random/testR.sol\":3142:3171  LINK.balanceOf(address(this)) */\n      mload(0x40)\n      dup3\n      0xffffffff\n      and\n      0xe0\n      shl\n      dup2\n      mstore\n      0x04\n      add\n      tag_61\n      swap2\n      swap1\n      tag_46\n      jump\t// in\n    tag_61:\n      0x20\n      mload(0x40)\n      dup1\n      dup4\n      sub\n      dup2\n      dup7\n      gas\n      staticcall\n      iszero\n      dup1\n      iszero\n      tag_63\n      jumpi\n      returndatasize\n      0x00\n      dup1\n      returndatacopy\n      revert(0x00, returndatasize)\n    tag_63:\n      pop\n      pop\n      pop\n      pop\n      mload(0x40)\n      returndatasize\n      not(0x1f)\n      0x1f\n      dup3\n      add\n      and\n      dup3\n      add\n      dup1\n      0x40\n      mstore\n      pop\n      dup2\n      add\n      swap1\n      tag_64\n      swap2\n      swap1\n      tag_50\n      jump\t// in\n    tag_64:\n        /* \"contracts/Random/testR.sol\":3135:3171  return LINK.balanceOf(address(this)) */\n      swap1\n      pop\n        /* \"contracts/Random/testR.sol\":3066:3179  function getLINKBalance() external view returns (uint256) {... */\n      swap1\n      jump\t// out\n        /* \"contracts/Random/testR.sol\":2672:3004  function fulfillRandomWords(uint256 _requestId, uint256[] memory randomWords) internal override {... */\n    tag_36:\n        /* \"contracts/Random/testR.sol\":2801:2812  s_requestId */\n      sload(0x01)\n        /* \"contracts/Random/testR.sol\":2787:2797  _requestId */\n      dup3\n        /* \"contracts/Random/testR.sol\":2787:2812  _requestId == s_requestId */\n      eq\n        /* \"contracts/Random/testR.sol\":2779:2836  require(_requestId == s_requestId, \"Request ID mismatch\") */\n      tag_66\n      jumpi\n      mload(0x40)\n      0x08c379a000000000000000000000000000000000000000000000000000000000\n      dup2\n      mstore\n      0x04\n      add\n      tag_67\n      swap1\n      tag_68\n      jump\t// in\n    tag_67:\n      mload(0x40)\n      dup1\n      swap2\n      sub\n      swap1\n      revert\n    tag_66:\n        /* \"contracts/Random/testR.sol\":2858:2869  randomWords */\n      dup1\n        /* \"contracts/Random/testR.sol\":2870:2871  0 */\n      0x00\n        /* \"contracts/Random/testR.sol\":2858:2872  randomWords[0] */\n      dup2\n      mload\n      dup2\n      lt\n      tag_69\n      jumpi\n      tag_70\n      tag_71\n      jump\t// in\n    tag_70:\n    tag_69:\n      0x20\n      mul\n      0x20\n      add\n      add\n      mload\n        /* \"contracts/Random/testR.sol\":2847:2855  randomId */\n      0x00\n        /* \"contracts/Random/testR.sol\":2847:2872  randomId = randomWords[0] */\n      dup2\n      swap1\n      sstore\n      pop\n        /* \"contracts/Random/testR.sol\":2916:2959  RandomNumberFulfilled(_requestId, randomId) */\n      0x8d0b85217819203ea5eebe89818986fc8f6db4913ede059bade4b8569caebbc9\n        /* \"contracts/Random/testR.sol\":2938:2948  _requestId */\n      dup3\n        /* \"contracts/Random/testR.sol\":2950:2958  randomId */\n      sload(0x00)\n        /* \"contracts/Random/testR.sol\":2916:2959  RandomNumberFulfilled(_requestId, randomId) */\n      mload(0x40)\n      tag_72\n      swap3\n      swap2\n      swap1\n      tag_73\n      jump\t// in\n    tag_72:\n      mload(0x40)\n      dup1\n      swap2\n      sub\n      swap1\n      log1\n        /* \"contracts/Random/testR.sol\":2672:3004  function fulfillRandomWords(uint256 _requestId, uint256[] memory randomWords) internal override {... */\n      pop\n      pop\n      jump\t// out\n        /* \"#utility.yul\":7:84   */\n    tag_74:\n        /* \"#utility.yul\":44:51   */\n      0x00\n        /* \"#utility.yul\":73:78   */\n      dup2\n        /* \"#utility.yul\":62:78   */\n      swap1\n      pop\n        /* \"#utility.yul\":7:84   */\n      swap2\n      swap1\n      pop\n      jump\t// out\n        /* \"#utility.yul\":90:208   */\n    tag_75:\n        /* \"#utility.yul\":177:201   */\n      tag_118\n        /* \"#utility.yul\":195:200   */\n      dup2\n        /* \"#utility.yul\":177:201   */\n      tag_74\n      jump\t// in\n    tag_118:\n        /* \"#utility.yul\":172:175   */\n      dup3\n        /* \"#utility.yul\":165:202   */\n      mstore\n        /* \"#utility.yul\":90:208   */\n      pop\n      pop\n      jump\t// out\n        /* \"#utility.yul\":214:436   */\n    tag_12:\n        /* \"#utility.yul\":307:311   */\n      0x00\n        /* \"#utility.yul\":345:347   */\n      0x20\n        /* \"#utility.yul\":334:343   */\n      dup3\n        /* \"#utility.yul\":330:348   */\n      add\n        /* \"#utility.yul\":322:348   */\n      swap1\n      pop\n        /* \"#utility.yul\":358:429   */\n      tag_120\n        /* \"#utility.yul\":426:427   */\n      0x00\n        /* \"#utility.yul\":415:424   */\n      dup4\n        /* \"#utility.yul\":411:428   */\n      add\n        /* \"#utility.yul\":402:408   */\n      dup5\n        /* \"#utility.yul\":358:429   */\n      tag_75\n      jump\t// in\n    tag_120:\n        /* \"#utility.yul\":214:436   */\n      swap3\n      swap2\n      pop\n      pop\n      jump\t// out\n        /* \"#utility.yul\":442:568   */\n    tag_76:\n        /* \"#utility.yul\":479:486   */\n      0x00\n        /* \"#utility.yul\":519:561   */\n      0xffffffffffffffffffffffffffffffffffffffff\n        /* \"#utility.yul\":512:517   */\n      dup3\n        /* \"#utility.yul\":508:562   */\n      and\n        /* \"#utility.yul\":497:562   */\n      swap1\n      pop\n        /* \"#utility.yul\":442:568   */\n      swap2\n      swap1\n      pop\n      jump\t// out\n        /* \"#utility.yul\":574:634   */\n    tag_77:\n        /* \"#utility.yul\":602:605   */\n      0x00\n        /* \"#utility.yul\":623:628   */\n      dup2\n        /* \"#utility.yul\":616:628   */\n      swap1\n      pop\n        /* \"#utility.yul\":574:634   */\n      swap2\n      swap1\n      pop\n      jump\t// out\n        /* \"#utility.yul\":640:782   */\n    tag_78:\n        /* \"#utility.yul\":690:699   */\n      0x00\n        /* \"#utility.yul\":723:776   */\n      tag_124\n        /* \"#utility.yul\":741:775   */\n      tag_125\n        /* \"#utility.yul\":750:774   */\n      tag_126\n        /* \"#utility.yul\":768:773   */\n      dup5\n        /* \"#utility.yul\":750:774   */\n      tag_76\n      jump\t// in\n    tag_126:\n        /* \"#utility.yul\":741:775   */\n      tag_77\n      jump\t// in\n    tag_125:\n        /* \"#utility.yul\":723:776   */\n      tag_76\n      jump\t// in\n    tag_124:\n        /* \"#utility.yul\":710:776   */\n      swap1\n      pop\n        /* \"#utility.yul\":640:782   */\n      swap2\n      swap1\n      pop\n      jump\t// out\n        /* \"#utility.yul\":788:914   */\n    tag_79:\n        /* \"#utility.yul\":838:847   */\n      0x00\n        /* \"#utility.yul\":871:908   */\n      tag_128\n        /* \"#utility.yul\":902:907   */\n      dup3\n        /* \"#utility.yul\":871:908   */\n      tag_78\n      jump\t// in\n    tag_128:\n        /* \"#utility.yul\":858:908   */\n      swap1\n      pop\n        /* \"#utility.yul\":788:914   */\n      swap2\n      swap1\n      pop\n      jump\t// out\n        /* \"#utility.yul\":920:1060   */\n    tag_80:\n        /* \"#utility.yul\":984:993   */\n      0x00\n        /* \"#utility.yul\":1017:1054   */\n      tag_130\n        /* \"#utility.yul\":1048:1053   */\n      dup3\n        /* \"#utility.yul\":1017:1054   */\n      tag_79\n      jump\t// in\n    tag_130:\n        /* \"#utility.yul\":1004:1054   */\n      swap1\n      pop\n        /* \"#utility.yul\":920:1060   */\n      swap2\n      swap1\n      pop\n      jump\t// out\n        /* \"#utility.yul\":1066:1225   */\n    tag_81:\n        /* \"#utility.yul\":1167:1218   */\n      tag_132\n        /* \"#utility.yul\":1212:1217   */\n      dup2\n        /* \"#utility.yul\":1167:1218   */\n      tag_80\n      jump\t// in\n    tag_132:\n        /* \"#utility.yul\":1162:1165   */\n      dup3\n        /* \"#utility.yul\":1155:1219   */\n      mstore\n        /* \"#utility.yul\":1066:1225   */\n      pop\n      pop\n      jump\t// out\n        /* \"#utility.yul\":1231:1481   */\n    tag_16:\n        /* \"#utility.yul\":1338:1342   */\n      0x00\n        /* \"#utility.yul\":1376:1378   */\n      0x20\n        /* \"#utility.yul\":1365:1374   */\n      dup3\n        /* \"#utility.yul\":1361:1379   */\n      add\n        /* \"#utility.yul\":1353:1379   */\n      swap1\n      pop\n        /* \"#utility.yul\":1389:1474   */\n      tag_134\n        /* \"#utility.yul\":1471:1472   */\n      0x00\n        /* \"#utility.yul\":1460:1469   */\n      dup4\n        /* \"#utility.yul\":1456:1473   */\n      add\n        /* \"#utility.yul\":1447:1453   */\n      dup5\n        /* \"#utility.yul\":1389:1474   */\n      tag_81\n      jump\t// in\n    tag_134:\n        /* \"#utility.yul\":1231:1481   */\n      swap3\n      swap2\n      pop\n      pop\n      jump\t// out\n        /* \"#utility.yul\":1487:1562   */\n    tag_82:\n        /* \"#utility.yul\":1520:1526   */\n      0x00\n        /* \"#utility.yul\":1553:1555   */\n      0x40\n        /* \"#utility.yul\":1547:1556   */\n      mload\n        /* \"#utility.yul\":1537:1556   */\n      swap1\n      pop\n        /* \"#utility.yul\":1487:1562   */\n      swap1\n      jump\t// out\n        /* \"#utility.yul\":1568:1685   */\n    tag_83:\n        /* \"#utility.yul\":1677:1678   */\n      0x00\n        /* \"#utility.yul\":1674:1675   */\n      dup1\n        /* \"#utility.yul\":1667:1679   */\n      revert\n        /* \"#utility.yul\":1691:1808   */\n    tag_84:\n        /* \"#utility.yul\":1800:1801   */\n      0x00\n        /* \"#utility.yul\":1797:1798   */\n      dup1\n        /* \"#utility.yul\":1790:1802   */\n      revert\n        /* \"#utility.yul\":1814:1936   */\n    tag_85:\n        /* \"#utility.yul\":1887:1911   */\n      tag_139\n        /* \"#utility.yul\":1905:1910   */\n      dup2\n        /* \"#utility.yul\":1887:1911   */\n      tag_74\n      jump\t// in\n    tag_139:\n        /* \"#utility.yul\":1880:1885   */\n      dup2\n        /* \"#utility.yul\":1877:1912   */\n      eq\n        /* \"#utility.yul\":1867:1930   */\n      tag_140\n      jumpi\n        /* \"#utility.yul\":1926:1927   */\n      0x00\n        /* \"#utility.yul\":1923:1924   */\n      dup1\n        /* \"#utility.yul\":1916:1928   */\n      revert\n        /* \"#utility.yul\":1867:1930   */\n    tag_140:\n        /* \"#utility.yul\":1814:1936   */\n      pop\n      jump\t// out\n        /* \"#utility.yul\":1942:2081   */\n    tag_86:\n        /* \"#utility.yul\":1988:1993   */\n      0x00\n        /* \"#utility.yul\":2026:2032   */\n      dup2\n        /* \"#utility.yul\":2013:2033   */\n      calldataload\n        /* \"#utility.yul\":2004:2033   */\n      swap1\n      pop\n        /* \"#utility.yul\":2042:2075   */\n      tag_142\n        /* \"#utility.yul\":2069:2074   */\n      dup2\n        /* \"#utility.yul\":2042:2075   */\n      tag_85\n      jump\t// in\n    tag_142:\n        /* \"#utility.yul\":1942:2081   */\n      swap3\n      swap2\n      pop\n      pop\n      jump\t// out\n        /* \"#utility.yul\":2087:2204   */\n    tag_87:\n        /* \"#utility.yul\":2196:2197   */\n      0x00\n        /* \"#utility.yul\":2193:2194   */\n      dup1\n        /* \"#utility.yul\":2186:2198   */\n      revert\n        /* \"#utility.yul\":2210:2312   */\n    tag_88:\n        /* \"#utility.yul\":2251:2257   */\n      0x00\n        /* \"#utility.yul\":2302:2304   */\n      0x1f\n        /* \"#utility.yul\":2298:2305   */\n      not\n        /* \"#utility.yul\":2293:2295   */\n      0x1f\n        /* \"#utility.yul\":2286:2291   */\n      dup4\n        /* \"#utility.yul\":2282:2296   */\n      add\n        /* \"#utility.yul\":2278:2306   */\n      and\n        /* \"#utility.yul\":2268:2306   */\n      swap1\n      pop\n        /* \"#utility.yul\":2210:2312   */\n      swap2\n      swap1\n      pop\n      jump\t// out\n        /* \"#utility.yul\":2318:2498   */\n    tag_89:\n        /* \"#utility.yul\":2366:2443   */\n      0x4e487b7100000000000000000000000000000000000000000000000000000000\n        /* \"#utility.yul\":2363:2364   */\n      0x00\n        /* \"#utility.yul\":2356:2444   */\n      mstore\n        /* \"#utility.yul\":2463:2467   */\n      0x41\n        /* \"#utility.yul\":2460:2461   */\n      0x04\n        /* \"#utility.yul\":2453:2468   */\n      mstore\n        /* \"#utility.yul\":2487:2491   */\n      0x24\n        /* \"#utility.yul\":2484:2485   */\n      0x00\n        /* \"#utility.yul\":2477:2492   */\n      revert\n        /* \"#utility.yul\":2504:2785   */\n    tag_90:\n        /* \"#utility.yul\":2587:2614   */\n      tag_147\n        /* \"#utility.yul\":2609:2613   */\n      dup3\n        /* \"#utility.yul\":2587:2614   */\n      tag_88\n      jump\t// in\n    tag_147:\n        /* \"#utility.yul\":2579:2585   */\n      dup2\n        /* \"#utility.yul\":2575:2615   */\n      add\n        /* \"#utility.yul\":2717:2723   */\n      dup2\n        /* \"#utility.yul\":2705:2715   */\n      dup2\n        /* \"#utility.yul\":2702:2724   */\n      lt\n        /* \"#utility.yul\":2681:2699   */\n      0xffffffffffffffff\n        /* \"#utility.yul\":2669:2679   */\n      dup3\n        /* \"#utility.yul\":2666:2700   */\n      gt\n        /* \"#utility.yul\":2663:2725   */\n      or\n        /* \"#utility.yul\":2660:2748   */\n      iszero\n      tag_148\n      jumpi\n        /* \"#utility.yul\":2728:2746   */\n      tag_149\n      tag_89\n      jump\t// in\n    tag_149:\n        /* \"#utility.yul\":2660:2748   */\n    tag_148:\n        /* \"#utility.yul\":2768:2778   */\n      dup1\n        /* \"#utility.yul\":2764:2766   */\n      0x40\n        /* \"#utility.yul\":2757:2779   */\n      mstore\n        /* \"#utility.yul\":2547:2785   */\n      pop\n        /* \"#utility.yul\":2504:2785   */\n      pop\n      pop\n      jump\t// out\n        /* \"#utility.yul\":2791:2920   */\n    tag_91:\n        /* \"#utility.yul\":2825:2831   */\n      0x00\n        /* \"#utility.yul\":2852:2872   */\n      tag_151\n      tag_82\n      jump\t// in\n    tag_151:\n        /* \"#utility.yul\":2842:2872   */\n      swap1\n      pop\n        /* \"#utility.yul\":2881:2914   */\n      tag_152\n        /* \"#utility.yul\":2909:2913   */\n      dup3\n        /* \"#utility.yul\":2901:2907   */\n      dup3\n        /* \"#utility.yul\":2881:2914   */\n      tag_90\n      jump\t// in\n    tag_152:\n        /* \"#utility.yul\":2791:2920   */\n      swap2\n      swap1\n      pop\n      jump\t// out\n        /* \"#utility.yul\":2926:3237   */\n    tag_92:\n        /* \"#utility.yul\":3003:3007   */\n      0x00\n        /* \"#utility.yul\":3093:3111   */\n      0xffffffffffffffff\n        /* \"#utility.yul\":3085:3091   */\n      dup3\n        /* \"#utility.yul\":3082:3112   */\n      gt\n        /* \"#utility.yul\":3079:3135   */\n      iszero\n      tag_154\n      jumpi\n        /* \"#utility.yul\":3115:3133   */\n      tag_155\n      tag_89\n      jump\t// in\n    tag_155:\n        /* \"#utility.yul\":3079:3135   */\n    tag_154:\n        /* \"#utility.yul\":3165:3169   */\n      0x20\n        /* \"#utility.yul\":3157:3163   */\n      dup3\n        /* \"#utility.yul\":3153:3170   */\n      mul\n        /* \"#utility.yul\":3145:3170   */\n      swap1\n      pop\n        /* \"#utility.yul\":3225:3229   */\n      0x20\n        /* \"#utility.yul\":3219:3223   */\n      dup2\n        /* \"#utility.yul\":3215:3230   */\n      add\n        /* \"#utility.yul\":3207:3230   */\n      swap1\n      pop\n        /* \"#utility.yul\":2926:3237   */\n      swap2\n      swap1\n      pop\n      jump\t// out\n        /* \"#utility.yul\":3243:3360   */\n    tag_93:\n        /* \"#utility.yul\":3352:3353   */\n      0x00\n        /* \"#utility.yul\":3349:3350   */\n      dup1\n        /* \"#utility.yul\":3342:3354   */\n      revert\n        /* \"#utility.yul\":3383:4093   */\n    tag_94:\n        /* \"#utility.yul\":3479:3484   */\n      0x00\n        /* \"#utility.yul\":3504:3585   */\n      tag_158\n        /* \"#utility.yul\":3520:3584   */\n      tag_159\n        /* \"#utility.yul\":3577:3583   */\n      dup5\n        /* \"#utility.yul\":3520:3584   */\n      tag_92\n      jump\t// in\n    tag_159:\n        /* \"#utility.yul\":3504:3585   */\n      tag_91\n      jump\t// in\n    tag_158:\n        /* \"#utility.yul\":3495:3585   */\n      swap1\n      pop\n        /* \"#utility.yul\":3605:3610   */\n      dup1\n        /* \"#utility.yul\":3634:3640   */\n      dup4\n        /* \"#utility.yul\":3627:3632   */\n      dup3\n        /* \"#utility.yul\":3620:3641   */\n      mstore\n        /* \"#utility.yul\":3668:3672   */\n      0x20\n        /* \"#utility.yul\":3661:3666   */\n      dup3\n        /* \"#utility.yul\":3657:3673   */\n      add\n        /* \"#utility.yul\":3650:3673   */\n      swap1\n      pop\n        /* \"#utility.yul\":3721:3725   */\n      0x20\n        /* \"#utility.yul\":3713:3719   */\n      dup5\n        /* \"#utility.yul\":3709:3726   */\n      mul\n        /* \"#utility.yul\":3701:3707   */\n      dup4\n        /* \"#utility.yul\":3697:3727   */\n      add\n        /* \"#utility.yul\":3750:3753   */\n      dup6\n        /* \"#utility.yul\":3742:3748   */\n      dup2\n        /* \"#utility.yul\":3739:3754   */\n      gt\n        /* \"#utility.yul\":3736:3858   */\n      iszero\n      tag_160\n      jumpi\n        /* \"#utility.yul\":3769:3848   */\n      tag_161\n      tag_93\n      jump\t// in\n    tag_161:\n        /* \"#utility.yul\":3736:3858   */\n    tag_160:\n        /* \"#utility.yul\":3884:3890   */\n      dup4\n        /* \"#utility.yul\":3867:4087   */\n    tag_162:\n        /* \"#utility.yul\":3901:3907   */\n      dup2\n        /* \"#utility.yul\":3896:3899   */\n      dup2\n        /* \"#utility.yul\":3893:3908   */\n      lt\n        /* \"#utility.yul\":3867:4087   */\n      iszero\n      tag_164\n      jumpi\n        /* \"#utility.yul\":3976:3979   */\n      dup1\n        /* \"#utility.yul\":4005:4042   */\n      tag_165\n        /* \"#utility.yul\":4038:4041   */\n      dup9\n        /* \"#utility.yul\":4026:4036   */\n      dup3\n        /* \"#utility.yul\":4005:4042   */\n      tag_86\n      jump\t// in\n    tag_165:\n        /* \"#utility.yul\":4000:4003   */\n      dup5\n        /* \"#utility.yul\":3993:4043   */\n      mstore\n        /* \"#utility.yul\":4072:4076   */\n      0x20\n        /* \"#utility.yul\":4067:4070   */\n      dup5\n        /* \"#utility.yul\":4063:4077   */\n      add\n        /* \"#utility.yul\":4056:4077   */\n      swap4\n      pop\n        /* \"#utility.yul\":3943:4087   */\n      pop\n        /* \"#utility.yul\":3927:3931   */\n      0x20\n        /* \"#utility.yul\":3922:3925   */\n      dup2\n        /* \"#utility.yul\":3918:3932   */\n      add\n        /* \"#utility.yul\":3911:3932   */\n      swap1\n      pop\n        /* \"#utility.yul\":3867:4087   */\n      jump(tag_162)\n    tag_164:\n        /* \"#utility.yul\":3871:3892   */\n      pop\n        /* \"#utility.yul\":3485:4093   */\n      pop\n      pop\n        /* \"#utility.yul\":3383:4093   */\n      swap4\n      swap3\n      pop\n      pop\n      pop\n      jump\t// out\n        /* \"#utility.yul\":4116:4486   */\n    tag_95:\n        /* \"#utility.yul\":4187:4192   */\n      0x00\n        /* \"#utility.yul\":4236:4239   */\n      dup3\n        /* \"#utility.yul\":4229:4233   */\n      0x1f\n        /* \"#utility.yul\":4221:4227   */\n      dup4\n        /* \"#utility.yul\":4217:4234   */\n      add\n        /* \"#utility.yul\":4213:4240   */\n      slt\n        /* \"#utility.yul\":4203:4325   */\n      tag_167\n      jumpi\n        /* \"#utility.yul\":4244:4323   */\n      tag_168\n      tag_87\n      jump\t// in\n    tag_168:\n        /* \"#utility.yul\":4203:4325   */\n    tag_167:\n        /* \"#utility.yul\":4361:4367   */\n      dup2\n        /* \"#utility.yul\":4348:4368   */\n      calldataload\n        /* \"#utility.yul\":4386:4480   */\n      tag_169\n        /* \"#utility.yul\":4476:4479   */\n      dup5\n        /* \"#utility.yul\":4468:4474   */\n      dup3\n        /* \"#utility.yul\":4461:4465   */\n      0x20\n        /* \"#utility.yul\":4453:4459   */\n      dup7\n        /* \"#utility.yul\":4449:4466   */\n      add\n        /* \"#utility.yul\":4386:4480   */\n      tag_94\n      jump\t// in\n    tag_169:\n        /* \"#utility.yul\":4377:4480   */\n      swap2\n      pop\n        /* \"#utility.yul\":4193:4486   */\n      pop\n        /* \"#utility.yul\":4116:4486   */\n      swap3\n      swap2\n      pop\n      pop\n      jump\t// out\n        /* \"#utility.yul\":4492:5176   */\n    tag_19:\n        /* \"#utility.yul\":4585:4591   */\n      0x00\n        /* \"#utility.yul\":4593:4599   */\n      dup1\n        /* \"#utility.yul\":4642:4644   */\n      0x40\n        /* \"#utility.yul\":4630:4639   */\n      dup4\n        /* \"#utility.yul\":4621:4628   */\n      dup6\n        /* \"#utility.yul\":4617:4640   */\n      sub\n        /* \"#utility.yul\":4613:4645   */\n      slt\n        /* \"#utility.yul\":4610:4729   */\n      iszero\n      tag_171\n      jumpi\n        /* \"#utility.yul\":4648:4727   */\n      tag_172\n      tag_83\n      jump\t// in\n    tag_172:\n        /* \"#utility.yul\":4610:4729   */\n    tag_171:\n        /* \"#utility.yul\":4768:4769   */\n      0x00\n        /* \"#utility.yul\":4793:4846   */\n      tag_173\n        /* \"#utility.yul\":4838:4845   */\n      dup6\n        /* \"#utility.yul\":4829:4835   */\n      dup3\n        /* \"#utility.yul\":4818:4827   */\n      dup7\n        /* \"#utility.yul\":4814:4836   */\n      add\n        /* \"#utility.yul\":4793:4846   */\n      tag_86\n      jump\t// in\n    tag_173:\n        /* \"#utility.yul\":4783:4846   */\n      swap3\n      pop\n        /* \"#utility.yul\":4739:4856   */\n      pop\n        /* \"#utility.yul\":4923:4925   */\n      0x20\n        /* \"#utility.yul\":4912:4921   */\n      dup4\n        /* \"#utility.yul\":4908:4926   */\n      add\n        /* \"#utility.yul\":4895:4927   */\n      calldataload\n        /* \"#utility.yul\":4954:4972   */\n      0xffffffffffffffff\n        /* \"#utility.yul\":4946:4952   */\n      dup2\n        /* \"#utility.yul\":4943:4973   */\n      gt\n        /* \"#utility.yul\":4940:5057   */\n      iszero\n      tag_174\n      jumpi\n        /* \"#utility.yul\":4976:5055   */\n      tag_175\n      tag_84\n      jump\t// in\n    tag_175:\n        /* \"#utility.yul\":4940:5057   */\n    tag_174:\n        /* \"#utility.yul\":5081:5159   */\n      tag_176\n        /* \"#utility.yul\":5151:5158   */\n      dup6\n        /* \"#utility.yul\":5142:5148   */\n      dup3\n        /* \"#utility.yul\":5131:5140   */\n      dup7\n        /* \"#utility.yul\":5127:5149   */\n      add\n        /* \"#utility.yul\":5081:5159   */\n      tag_95\n      jump\t// in\n    tag_176:\n        /* \"#utility.yul\":5071:5159   */\n      swap2\n      pop\n        /* \"#utility.yul\":4866:5169   */\n      pop\n        /* \"#utility.yul\":4492:5176   */\n      swap3\n      pop\n      swap3\n      swap1\n      pop\n      jump\t// out\n        /* \"#utility.yul\":5182:5511   */\n    tag_23:\n        /* \"#utility.yul\":5241:5247   */\n      0x00\n        /* \"#utility.yul\":5290:5292   */\n      0x20\n        /* \"#utility.yul\":5278:5287   */\n      dup3\n        /* \"#utility.yul\":5269:5276   */\n      dup5\n        /* \"#utility.yul\":5265:5288   */\n      sub\n        /* \"#utility.yul\":5261:5293   */\n      slt\n        /* \"#utility.yul\":5258:5377   */\n      iszero\n      tag_178\n      jumpi\n        /* \"#utility.yul\":5296:5375   */\n      tag_179\n      tag_83\n      jump\t// in\n    tag_179:\n        /* \"#utility.yul\":5258:5377   */\n    tag_178:\n        /* \"#utility.yul\":5416:5417   */\n      0x00\n        /* \"#utility.yul\":5441:5494   */\n      tag_180\n        /* \"#utility.yul\":5486:5493   */\n      dup5\n        /* \"#utility.yul\":5477:5483   */\n      dup3\n        /* \"#utility.yul\":5466:5475   */\n      dup6\n        /* \"#utility.yul\":5462:5484   */\n      add\n        /* \"#utility.yul\":5441:5494   */\n      tag_86\n      jump\t// in\n    tag_180:\n        /* \"#utility.yul\":5431:5494   */\n      swap2\n      pop\n        /* \"#utility.yul\":5387:5504   */\n      pop\n        /* \"#utility.yul\":5182:5511   */\n      swap3\n      swap2\n      pop\n      pop\n      jump\t// out\n        /* \"#utility.yul\":5517:5613   */\n    tag_96:\n        /* \"#utility.yul\":5554:5561   */\n      0x00\n        /* \"#utility.yul\":5583:5607   */\n      tag_182\n        /* \"#utility.yul\":5601:5606   */\n      dup3\n        /* \"#utility.yul\":5583:5607   */\n      tag_76\n      jump\t// in\n    tag_182:\n        /* \"#utility.yul\":5572:5607   */\n      swap1\n      pop\n        /* \"#utility.yul\":5517:5613   */\n      swap2\n      swap1\n      pop\n      jump\t// out\n        /* \"#utility.yul\":5619:5737   */\n    tag_97:\n        /* \"#utility.yul\":5706:5730   */\n      tag_184\n        /* \"#utility.yul\":5724:5729   */\n      dup2\n        /* \"#utility.yul\":5706:5730   */\n      tag_96\n      jump\t// in\n    tag_184:\n        /* \"#utility.yul\":5701:5704   */\n      dup3\n        /* \"#utility.yul\":5694:5731   */\n      mstore\n        /* \"#utility.yul\":5619:5737   */\n      pop\n      pop\n      jump\t// out\n        /* \"#utility.yul\":5743:6075   */\n    tag_34:\n        /* \"#utility.yul\":5864:5868   */\n      0x00\n        /* \"#utility.yul\":5902:5904   */\n      0x40\n        /* \"#utility.yul\":5891:5900   */\n      dup3\n        /* \"#utility.yul\":5887:5905   */\n      add\n        /* \"#utility.yul\":5879:5905   */\n      swap1\n      pop\n        /* \"#utility.yul\":5915:5986   */\n      tag_186\n        /* \"#utility.yul\":5983:5984   */\n      0x00\n        /* \"#utility.yul\":5972:5981   */\n      dup4\n        /* \"#utility.yul\":5968:5985   */\n      add\n        /* \"#utility.yul\":5959:5965   */\n      dup6\n        /* \"#utility.yul\":5915:5986   */\n      tag_97\n      jump\t// in\n    tag_186:\n        /* \"#utility.yul\":5996:6068   */\n      tag_187\n        /* \"#utility.yul\":6064:6066   */\n      0x20\n        /* \"#utility.yul\":6053:6062   */\n      dup4\n        /* \"#utility.yul\":6049:6067   */\n      add\n        /* \"#utility.yul\":6040:6046   */\n      dup5\n        /* \"#utility.yul\":5996:6068   */\n      tag_97\n      jump\t// in\n    tag_187:\n        /* \"#utility.yul\":5743:6075   */\n      swap4\n      swap3\n      pop\n      pop\n      pop\n      jump\t// out\n        /* \"#utility.yul\":6081:6523   */\n    tag_39:\n        /* \"#utility.yul\":6230:6234   */\n      0x00\n        /* \"#utility.yul\":6268:6270   */\n      0x60\n        /* \"#utility.yul\":6257:6266   */\n      dup3\n        /* \"#utility.yul\":6253:6271   */\n      add\n        /* \"#utility.yul\":6245:6271   */\n      swap1\n      pop\n        /* \"#utility.yul\":6281:6352   */\n      tag_189\n        /* \"#utility.yul\":6349:6350   */\n      0x00\n        /* \"#utility.yul\":6338:6347   */\n      dup4\n        /* \"#utility.yul\":6334:6351   */\n      add\n        /* \"#utility.yul\":6325:6331   */\n      dup7\n        /* \"#utility.yul\":6281:6352   */\n      tag_97\n      jump\t// in\n    tag_189:\n        /* \"#utility.yul\":6362:6434   */\n      tag_190\n        /* \"#utility.yul\":6430:6432   */\n      0x20\n        /* \"#utility.yul\":6419:6428   */\n      dup4\n        /* \"#utility.yul\":6415:6433   */\n      add\n        /* \"#utility.yul\":6406:6412   */\n      dup6\n        /* \"#utility.yul\":6362:6434   */\n      tag_97\n      jump\t// in\n    tag_190:\n        /* \"#utility.yul\":6444:6516   */\n      tag_191\n        /* \"#utility.yul\":6512:6514   */\n      0x40\n        /* \"#utility.yul\":6501:6510   */\n      dup4\n        /* \"#utility.yul\":6497:6515   */\n      add\n        /* \"#utility.yul\":6488:6494   */\n      dup5\n        /* \"#utility.yul\":6444:6516   */\n      tag_75\n      jump\t// in\n    tag_191:\n        /* \"#utility.yul\":6081:6523   */\n      swap5\n      swap4\n      pop\n      pop\n      pop\n      pop\n      jump\t// out\n        /* \"#utility.yul\":6529:6619   */\n    tag_98:\n        /* \"#utility.yul\":6563:6570   */\n      0x00\n        /* \"#utility.yul\":6606:6611   */\n      dup2\n        /* \"#utility.yul\":6599:6612   */\n      iszero\n        /* \"#utility.yul\":6592:6613   */\n      iszero\n        /* \"#utility.yul\":6581:6613   */\n      swap1\n      pop\n        /* \"#utility.yul\":6529:6619   */\n      swap2\n      swap1\n      pop\n      jump\t// out\n        /* \"#utility.yul\":6625:6741   */\n    tag_99:\n        /* \"#utility.yul\":6695:6716   */\n      tag_194\n        /* \"#utility.yul\":6710:6715   */\n      dup2\n        /* \"#utility.yul\":6695:6716   */\n      tag_98\n      jump\t// in\n    tag_194:\n        /* \"#utility.yul\":6688:6693   */\n      dup2\n        /* \"#utility.yul\":6685:6717   */\n      eq\n        /* \"#utility.yul\":6675:6735   */\n      tag_195\n      jumpi\n        /* \"#utility.yul\":6731:6732   */\n      0x00\n        /* \"#utility.yul\":6728:6729   */\n      dup1\n        /* \"#utility.yul\":6721:6733   */\n      revert\n        /* \"#utility.yul\":6675:6735   */\n    tag_195:\n        /* \"#utility.yul\":6625:6741   */\n      pop\n      jump\t// out\n        /* \"#utility.yul\":6747:6884   */\n    tag_100:\n        /* \"#utility.yul\":6801:6806   */\n      0x00\n        /* \"#utility.yul\":6832:6838   */\n      dup2\n        /* \"#utility.yul\":6826:6839   */\n      mload\n        /* \"#utility.yul\":6817:6839   */\n      swap1\n      pop\n        /* \"#utility.yul\":6848:6878   */\n      tag_197\n        /* \"#utility.yul\":6872:6877   */\n      dup2\n        /* \"#utility.yul\":6848:6878   */\n      tag_99\n      jump\t// in\n    tag_197:\n        /* \"#utility.yul\":6747:6884   */\n      swap3\n      swap2\n      pop\n      pop\n      jump\t// out\n        /* \"#utility.yul\":6890:7235   */\n    tag_43:\n        /* \"#utility.yul\":6957:6963   */\n      0x00\n        /* \"#utility.yul\":7006:7008   */\n      0x20\n        /* \"#utility.yul\":6994:7003   */\n      dup3\n        /* \"#utility.yul\":6985:6992   */\n      dup5\n        /* \"#utility.yul\":6981:7004   */\n      sub\n        /* \"#utility.yul\":6977:7009   */\n      slt\n        /* \"#utility.yul\":6974:7093   */\n      iszero\n      tag_199\n      jumpi\n        /* \"#utility.yul\":7012:7091   */\n      tag_200\n      tag_83\n      jump\t// in\n    tag_200:\n        /* \"#utility.yul\":6974:7093   */\n    tag_199:\n        /* \"#utility.yul\":7132:7133   */\n      0x00\n        /* \"#utility.yul\":7157:7218   */\n      tag_201\n        /* \"#utility.yul\":7210:7217   */\n      dup5\n        /* \"#utility.yul\":7201:7207   */\n      dup3\n        /* \"#utility.yul\":7190:7199   */\n      dup6\n        /* \"#utility.yul\":7186:7208   */\n      add\n        /* \"#utility.yul\":7157:7218   */\n      tag_100\n      jump\t// in\n    tag_201:\n        /* \"#utility.yul\":7147:7218   */\n      swap2\n      pop\n        /* \"#utility.yul\":7103:7228   */\n      pop\n        /* \"#utility.yul\":6890:7235   */\n      swap3\n      swap2\n      pop\n      pop\n      jump\t// out\n        /* \"#utility.yul\":7241:7463   */\n    tag_46:\n        /* \"#utility.yul\":7334:7338   */\n      0x00\n        /* \"#utility.yul\":7372:7374   */\n      0x20\n        /* \"#utility.yul\":7361:7370   */\n      dup3\n        /* \"#utility.yul\":7357:7375   */\n      add\n        /* \"#utility.yul\":7349:7375   */\n      swap1\n      pop\n        /* \"#utility.yul\":7385:7456   */\n      tag_203\n        /* \"#utility.yul\":7453:7454   */\n      0x00\n        /* \"#utility.yul\":7442:7451   */\n      dup4\n        /* \"#utility.yul\":7438:7455   */\n      add\n        /* \"#utility.yul\":7429:7435   */\n      dup5\n        /* \"#utility.yul\":7385:7456   */\n      tag_97\n      jump\t// in\n    tag_203:\n        /* \"#utility.yul\":7241:7463   */\n      swap3\n      swap2\n      pop\n      pop\n      jump\t// out\n        /* \"#utility.yul\":7469:7612   */\n    tag_101:\n        /* \"#utility.yul\":7526:7531   */\n      0x00\n        /* \"#utility.yul\":7557:7563   */\n      dup2\n        /* \"#utility.yul\":7551:7564   */\n      mload\n        /* \"#utility.yul\":7542:7564   */\n      swap1\n      pop\n        /* \"#utility.yul\":7573:7606   */\n      tag_205\n        /* \"#utility.yul\":7600:7605   */\n      dup2\n        /* \"#utility.yul\":7573:7606   */\n      tag_85\n      jump\t// in\n    tag_205:\n        /* \"#utility.yul\":7469:7612   */\n      swap3\n      swap2\n      pop\n      pop\n      jump\t// out\n        /* \"#utility.yul\":7618:7969   */\n    tag_50:\n        /* \"#utility.yul\":7688:7694   */\n      0x00\n        /* \"#utility.yul\":7737:7739   */\n      0x20\n        /* \"#utility.yul\":7725:7734   */\n      dup3\n        /* \"#utility.yul\":7716:7723   */\n      dup5\n        /* \"#utility.yul\":7712:7735   */\n      sub\n        /* \"#utility.yul\":7708:7740   */\n      slt\n        /* \"#utility.yul\":7705:7824   */\n      iszero\n      tag_207\n      jumpi\n        /* \"#utility.yul\":7743:7822   */\n      tag_208\n      tag_83\n      jump\t// in\n    tag_208:\n        /* \"#utility.yul\":7705:7824   */\n    tag_207:\n        /* \"#utility.yul\":7863:7864   */\n      0x00\n        /* \"#utility.yul\":7888:7952   */\n      tag_209\n        /* \"#utility.yul\":7944:7951   */\n      dup5\n        /* \"#utility.yul\":7935:7941   */\n      dup3\n        /* \"#utility.yul\":7924:7933   */\n      dup6\n        /* \"#utility.yul\":7920:7942   */\n      add\n        /* \"#utility.yul\":7888:7952   */\n      tag_101\n      jump\t// in\n    tag_209:\n        /* \"#utility.yul\":7878:7952   */\n      swap2\n      pop\n        /* \"#utility.yul\":7834:7962   */\n      pop\n        /* \"#utility.yul\":7618:7969   */\n      swap3\n      swap2\n      pop\n      pop\n      jump\t// out\n        /* \"#utility.yul\":7975:8144   */\n    tag_102:\n        /* \"#utility.yul\":8059:8070   */\n      0x00\n        /* \"#utility.yul\":8093:8099   */\n      dup3\n        /* \"#utility.yul\":8088:8091   */\n      dup3\n        /* \"#utility.yul\":8081:8100   */\n      mstore\n        /* \"#utility.yul\":8133:8137   */\n      0x20\n        /* \"#utility.yul\":8128:8131   */\n      dup3\n        /* \"#utility.yul\":8124:8138   */\n      add\n        /* \"#utility.yul\":8109:8138   */\n      swap1\n      pop\n        /* \"#utility.yul\":7975:8144   */\n      swap3\n      swap2\n      pop\n      pop\n      jump\t// out\n        /* \"#utility.yul\":8150:8317   */\n    tag_103:\n        /* \"#utility.yul\":8290:8309   */\n      0x496e73756666696369656e74204c494e4b000000000000000000000000000000\n        /* \"#utility.yul\":8286:8287   */\n      0x00\n        /* \"#utility.yul\":8278:8284   */\n      dup3\n        /* \"#utility.yul\":8274:8288   */\n      add\n        /* \"#utility.yul\":8267:8310   */\n      mstore\n        /* \"#utility.yul\":8150:8317   */\n      pop\n      jump\t// out\n        /* \"#utility.yul\":8323:8689   */\n    tag_104:\n        /* \"#utility.yul\":8465:8468   */\n      0x00\n        /* \"#utility.yul\":8486:8553   */\n      tag_213\n        /* \"#utility.yul\":8550:8552   */\n      0x11\n        /* \"#utility.yul\":8545:8548   */\n      dup4\n        /* \"#utility.yul\":8486:8553   */\n      tag_102\n      jump\t// in\n    tag_213:\n        /* \"#utility.yul\":8479:8553   */\n      swap2\n      pop\n        /* \"#utility.yul\":8562:8655   */\n      tag_214\n        /* \"#utility.yul\":8651:8654   */\n      dup3\n        /* \"#utility.yul\":8562:8655   */\n      tag_103\n      jump\t// in\n    tag_214:\n        /* \"#utility.yul\":8680:8682   */\n      0x20\n        /* \"#utility.yul\":8675:8678   */\n      dup3\n        /* \"#utility.yul\":8671:8683   */\n      add\n        /* \"#utility.yul\":8664:8683   */\n      swap1\n      pop\n        /* \"#utility.yul\":8323:8689   */\n      swap2\n      swap1\n      pop\n      jump\t// out\n        /* \"#utility.yul\":8695:9114   */\n    tag_53:\n        /* \"#utility.yul\":8861:8865   */\n      0x00\n        /* \"#utility.yul\":8899:8901   */\n      0x20\n        /* \"#utility.yul\":8888:8897   */\n      dup3\n        /* \"#utility.yul\":8884:8902   */\n      add\n        /* \"#utility.yul\":8876:8902   */\n      swap1\n      pop\n        /* \"#utility.yul\":8948:8957   */\n      dup2\n        /* \"#utility.yul\":8942:8946   */\n      dup2\n        /* \"#utility.yul\":8938:8958   */\n      sub\n        /* \"#utility.yul\":8934:8935   */\n      0x00\n        /* \"#utility.yul\":8923:8932   */\n      dup4\n        /* \"#utility.yul\":8919:8936   */\n      add\n        /* \"#utility.yul\":8912:8959   */\n      mstore\n        /* \"#utility.yul\":8976:9107   */\n      tag_216\n        /* \"#utility.yul\":9102:9106   */\n      dup2\n        /* \"#utility.yul\":8976:9107   */\n      tag_104\n      jump\t// in\n    tag_216:\n        /* \"#utility.yul\":8968:9107   */\n      swap1\n      pop\n        /* \"#utility.yul\":8695:9114   */\n      swap2\n      swap1\n      pop\n      jump\t// out\n        /* \"#utility.yul\":9120:9197   */\n    tag_105:\n        /* \"#utility.yul\":9157:9164   */\n      0x00\n        /* \"#utility.yul\":9186:9191   */\n      dup2\n        /* \"#utility.yul\":9175:9191   */\n      swap1\n      pop\n        /* \"#utility.yul\":9120:9197   */\n      swap2\n      swap1\n      pop\n      jump\t// out\n        /* \"#utility.yul\":9203:9321   */\n    tag_106:\n        /* \"#utility.yul\":9290:9314   */\n      tag_219\n        /* \"#utility.yul\":9308:9313   */\n      dup2\n        /* \"#utility.yul\":9290:9314   */\n      tag_105\n      jump\t// in\n    tag_219:\n        /* \"#utility.yul\":9285:9288   */\n      dup3\n        /* \"#utility.yul\":9278:9315   */\n      mstore\n        /* \"#utility.yul\":9203:9321   */\n      pop\n      pop\n      jump\t// out\n        /* \"#utility.yul\":9327:9428   */\n    tag_107:\n        /* \"#utility.yul\":9363:9370   */\n      0x00\n        /* \"#utility.yul\":9403:9421   */\n      0xffffffffffffffff\n        /* \"#utility.yul\":9396:9401   */\n      dup3\n        /* \"#utility.yul\":9392:9422   */\n      and\n        /* \"#utility.yul\":9381:9422   */\n      swap1\n      pop\n        /* \"#utility.yul\":9327:9428   */\n      swap2\n      swap1\n      pop\n      jump\t// out\n        /* \"#utility.yul\":9434:9549   */\n    tag_108:\n        /* \"#utility.yul\":9519:9542   */\n      tag_222\n        /* \"#utility.yul\":9536:9541   */\n      dup2\n        /* \"#utility.yul\":9519:9542   */\n      tag_107\n      jump\t// in\n    tag_222:\n        /* \"#utility.yul\":9514:9517   */\n      dup3\n        /* \"#utility.yul\":9507:9543   */\n      mstore\n        /* \"#utility.yul\":9434:9549   */\n      pop\n      pop\n      jump\t// out\n        /* \"#utility.yul\":9555:9644   */\n    tag_109:\n        /* \"#utility.yul\":9591:9598   */\n      0x00\n        /* \"#utility.yul\":9631:9637   */\n      0xffff\n        /* \"#utility.yul\":9624:9629   */\n      dup3\n        /* \"#utility.yul\":9620:9638   */\n      and\n        /* \"#utility.yul\":9609:9638   */\n      swap1\n      pop\n        /* \"#utility.yul\":9555:9644   */\n      swap2\n      swap1\n      pop\n      jump\t// out\n        /* \"#utility.yul\":9650:9765   */\n    tag_110:\n        /* \"#utility.yul\":9735:9758   */\n      tag_225\n        /* \"#utility.yul\":9752:9757   */\n      dup2\n        /* \"#utility.yul\":9735:9758   */\n      tag_109\n      jump\t// in\n    tag_225:\n        /* \"#utility.yul\":9730:9733   */\n      dup3\n        /* \"#utility.yul\":9723:9759   */\n      mstore\n        /* \"#utility.yul\":9650:9765   */\n      pop\n      pop\n      jump\t// out\n        /* \"#utility.yul\":9771:9864   */\n    tag_111:\n        /* \"#utility.yul\":9807:9814   */\n      0x00\n        /* \"#utility.yul\":9847:9857   */\n      0xffffffff\n        /* \"#utility.yul\":9840:9845   */\n      dup3\n        /* \"#utility.yul\":9836:9858   */\n      and\n        /* \"#utility.yul\":9825:9858   */\n      swap1\n      pop\n        /* \"#utility.yul\":9771:9864   */\n      swap2\n      swap1\n      pop\n      jump\t// out\n        /* \"#utility.yul\":9870:9985   */\n    tag_112:\n        /* \"#utility.yul\":9955:9978   */\n      tag_228\n        /* \"#utility.yul\":9972:9977   */\n      dup2\n        /* \"#utility.yul\":9955:9978   */\n      tag_111\n      jump\t// in\n    tag_228:\n        /* \"#utility.yul\":9950:9953   */\n      dup3\n        /* \"#utility.yul\":9943:9979   */\n      mstore\n        /* \"#utility.yul\":9870:9985   */\n      pop\n      pop\n      jump\t// out\n        /* \"#utility.yul\":9991:10639   */\n    tag_55:\n        /* \"#utility.yul\":10188:10192   */\n      0x00\n        /* \"#utility.yul\":10226:10229   */\n      0xa0\n        /* \"#utility.yul\":10215:10224   */\n      dup3\n        /* \"#utility.yul\":10211:10230   */\n      add\n        /* \"#utility.yul\":10203:10230   */\n      swap1\n      pop\n        /* \"#utility.yul\":10240:10311   */\n      tag_230\n        /* \"#utility.yul\":10308:10309   */\n      0x00\n        /* \"#utility.yul\":10297:10306   */\n      dup4\n        /* \"#utility.yul\":10293:10310   */\n      add\n        /* \"#utility.yul\":10284:10290   */\n      dup9\n        /* \"#utility.yul\":10240:10311   */\n      tag_106\n      jump\t// in\n    tag_230:\n        /* \"#utility.yul\":10321:10391   */\n      tag_231\n        /* \"#utility.yul\":10387:10389   */\n      0x20\n        /* \"#utility.yul\":10376:10385   */\n      dup4\n        /* \"#utility.yul\":10372:10390   */\n      add\n        /* \"#utility.yul\":10363:10369   */\n      dup8\n        /* \"#utility.yul\":10321:10391   */\n      tag_108\n      jump\t// in\n    tag_231:\n        /* \"#utility.yul\":10401:10471   */\n      tag_232\n        /* \"#utility.yul\":10467:10469   */\n      0x40\n        /* \"#utility.yul\":10456:10465   */\n      dup4\n        /* \"#utility.yul\":10452:10470   */\n      add\n        /* \"#utility.yul\":10443:10449   */\n      dup7\n        /* \"#utility.yul\":10401:10471   */\n      tag_110\n      jump\t// in\n    tag_232:\n        /* \"#utility.yul\":10481:10551   */\n      tag_233\n        /* \"#utility.yul\":10547:10549   */\n      0x60\n        /* \"#utility.yul\":10536:10545   */\n      dup4\n        /* \"#utility.yul\":10532:10550   */\n      add\n        /* \"#utility.yul\":10523:10529   */\n      dup6\n        /* \"#utility.yul\":10481:10551   */\n      tag_112\n      jump\t// in\n    tag_233:\n        /* \"#utility.yul\":10561:10632   */\n      tag_234\n        /* \"#utility.yul\":10627:10630   */\n      0x80\n        /* \"#utility.yul\":10616:10625   */\n      dup4\n        /* \"#utility.yul\":10612:10631   */\n      add\n        /* \"#utility.yul\":10603:10609   */\n      dup5\n        /* \"#utility.yul\":10561:10632   */\n      tag_112\n      jump\t// in\n    tag_234:\n        /* \"#utility.yul\":9991:10639   */\n      swap7\n      swap6\n      pop\n      pop\n      pop\n      pop\n      pop\n      pop\n      jump\t// out\n        /* \"#utility.yul\":10645:10814   */\n    tag_113:\n        /* \"#utility.yul\":10785:10806   */\n      0x52657175657374204944206d69736d6174636800000000000000000000000000\n        /* \"#utility.yul\":10781:10782   */\n      0x00\n        /* \"#utility.yul\":10773:10779   */\n      dup3\n        /* \"#utility.yul\":10769:10783   */\n      add\n        /* \"#utility.yul\":10762:10807   */\n      mstore\n        /* \"#utility.yul\":10645:10814   */\n      pop\n      jump\t// out\n        /* \"#utility.yul\":10820:11186   */\n    tag_114:\n        /* \"#utility.yul\":10962:10965   */\n      0x00\n        /* \"#utility.yul\":10983:11050   */\n      tag_237\n        /* \"#utility.yul\":11047:11049   */\n      0x13\n        /* \"#utility.yul\":11042:11045   */\n      dup4\n        /* \"#utility.yul\":10983:11050   */\n      tag_102\n      jump\t// in\n    tag_237:\n        /* \"#utility.yul\":10976:11050   */\n      swap2\n      pop\n        /* \"#utility.yul\":11059:11152   */\n      tag_238\n        /* \"#utility.yul\":11148:11151   */\n      dup3\n        /* \"#utility.yul\":11059:11152   */\n      tag_113\n      jump\t// in\n    tag_238:\n        /* \"#utility.yul\":11177:11179   */\n      0x20\n        /* \"#utility.yul\":11172:11175   */\n      dup3\n        /* \"#utility.yul\":11168:11180   */\n      add\n        /* \"#utility.yul\":11161:11180   */\n      swap1\n      pop\n        /* \"#utility.yul\":10820:11186   */\n      swap2\n      swap1\n      pop\n      jump\t// out\n        /* \"#utility.yul\":11192:11611   */\n    tag_68:\n        /* \"#utility.yul\":11358:11362   */\n      0x00\n        /* \"#utility.yul\":11396:11398   */\n      0x20\n        /* \"#utility.yul\":11385:11394   */\n      dup3\n        /* \"#utility.yul\":11381:11399   */\n      add\n        /* \"#utility.yul\":11373:11399   */\n      swap1\n      pop\n        /* \"#utility.yul\":11445:11454   */\n      dup2\n        /* \"#utility.yul\":11439:11443   */\n      dup2\n        /* \"#utility.yul\":11435:11455   */\n      sub\n        /* \"#utility.yul\":11431:11432   */\n      0x00\n        /* \"#utility.yul\":11420:11429   */\n      dup4\n        /* \"#utility.yul\":11416:11433   */\n      add\n        /* \"#utility.yul\":11409:11456   */\n      mstore\n        /* \"#utility.yul\":11473:11604   */\n      tag_240\n        /* \"#utility.yul\":11599:11603   */\n      dup2\n        /* \"#utility.yul\":11473:11604   */\n      tag_114\n      jump\t// in\n    tag_240:\n        /* \"#utility.yul\":11465:11604   */\n      swap1\n      pop\n        /* \"#utility.yul\":11192:11611   */\n      swap2\n      swap1\n      pop\n      jump\t// out\n        /* \"#utility.yul\":11617:11797   */\n    tag_71:\n        /* \"#utility.yul\":11665:11742   */\n      0x4e487b7100000000000000000000000000000000000000000000000000000000\n        /* \"#utility.yul\":11662:11663   */\n      0x00\n        /* \"#utility.yul\":11655:11743   */\n      mstore\n        /* \"#utility.yul\":11762:11766   */\n      0x32\n        /* \"#utility.yul\":11759:11760   */\n      0x04\n        /* \"#utility.yul\":11752:11767   */\n      mstore\n        /* \"#utility.yul\":11786:11790   */\n      0x24\n        /* \"#utility.yul\":11783:11784   */\n      0x00\n        /* \"#utility.yul\":11776:11791   */\n      revert\n        /* \"#utility.yul\":11803:12135   */\n    tag_73:\n        /* \"#utility.yul\":11924:11928   */\n      0x00\n        /* \"#utility.yul\":11962:11964   */\n      0x40\n        /* \"#utility.yul\":11951:11960   */\n      dup3\n        /* \"#utility.yul\":11947:11965   */\n      add\n        /* \"#utility.yul\":11939:11965   */\n      swap1\n      pop\n        /* \"#utility.yul\":11975:12046   */\n      tag_243\n        /* \"#utility.yul\":12043:12044   */\n      0x00\n        /* \"#utility.yul\":12032:12041   */\n      dup4\n        /* \"#utility.yul\":12028:12045   */\n      add\n        /* \"#utility.yul\":12019:12025   */\n      dup6\n        /* \"#utility.yul\":11975:12046   */\n      tag_75\n      jump\t// in\n    tag_243:\n        /* \"#utility.yul\":12056:12128   */\n      tag_244\n        /* \"#utility.yul\":12124:12126   */\n      0x20\n        /* \"#utility.yul\":12113:12122   */\n      dup4\n        /* \"#utility.yul\":12109:12127   */\n      add\n        /* \"#utility.yul\":12100:12106   */\n      dup5\n        /* \"#utility.yul\":12056:12128   */\n      tag_75\n      jump\t// in\n    tag_244:\n        /* \"#utility.yul\":11803:12135   */\n      swap4\n      swap3\n      pop\n      pop\n      pop\n      jump\t// out\n\n    auxdata: 0xa26469706673582212205d1f0100deb4fc808edddc92f0e5e4cbba479bd283706cab0008c8b9548cc9c564736f6c634300081a0033\n}\n",
				"bytecode": {
					"linkReferences": {},
					"object": "60a0604052620186a0600360086101000a81548163ffffffff021916908363ffffffff160217905550600380600c6101000a81548161ffff021916908361ffff16021790555060016003600e6101000a81548163ffffffff021916908363ffffffff160217905550348015610072575f80fd5b50604051610ef8380380610ef883398181016040528101906100949190610250565b838073ffffffffffffffffffffffffffffffffffffffff1660808173ffffffffffffffffffffffffffffffffffffffff168152505050816002819055508060035f6101000a81548167ffffffffffffffff021916908367ffffffffffffffff1602179055508360045f6101000a81548173ffffffffffffffffffffffffffffffffffffffff021916908373ffffffffffffffffffffffffffffffffffffffff1602179055508260055f6101000a81548173ffffffffffffffffffffffffffffffffffffffff021916908373ffffffffffffffffffffffffffffffffffffffff160217905550505050506102b4565b5f80fd5b5f73ffffffffffffffffffffffffffffffffffffffff82169050919050565b5f6101af82610186565b9050919050565b6101bf816101a5565b81146101c9575f80fd5b50565b5f815190506101da816101b6565b92915050565b5f819050919050565b6101f2816101e0565b81146101fc575f80fd5b50565b5f8151905061020d816101e9565b92915050565b5f67ffffffffffffffff82169050919050565b61022f81610213565b8114610239575f80fd5b50565b5f8151905061024a81610226565b92915050565b5f805f806080858703121561026857610267610182565b5b5f610275878288016101cc565b9450506020610286878288016101cc565b9350506040610297878288016101ff565b92505060606102a88782880161023c565b91505092959194509250565b608051610c256102d35f395f818161014001526101940152610c255ff3fe608060405234801561000f575f80fd5b5060043610610060575f3560e01c80630ab14d8a146100645780631b6b6d23146100825780631fe543e3146100a05780633519a2f8146100bc5780636765b256146100d8578063ac428e7a146100f6575b5f80fd5b61006c610114565b6040516100799190610606565b60405180910390f35b61008a610119565b6040516100979190610699565b60405180910390f35b6100ba60048036038101906100b5919061083d565b61013e565b005b6100d660048036038101906100d19190610897565b6101fe565b005b6100e06102a0565b6040516100ed9190610606565b60405180910390f35b6100fe6104ad565b60405161010b9190610606565b60405180910390f35b5f5481565b60055f9054906101000a900473ffffffffffffffffffffffffffffffffffffffff1681565b7f000000000000000000000000000000000000000000000000000000000000000073ffffffffffffffffffffffffffffffffffffffff163373ffffffffffffffffffffffffffffffffffffffff16146101f057337f00000000000000000000000000000000000000000000000000000000000000006040517f1cf993f40000000000000000000000000000000000000000000000000000000081526004016101e79291906108e2565b60405180910390fd5b6101fa828261054c565b5050565b60055f9054906101000a900473ffffffffffffffffffffffffffffffffffffffff1673ffffffffffffffffffffffffffffffffffffffff166323b872dd3330846040518463ffffffff1660e01b815260040161025c93929190610909565b6020604051808303815f875af1158015610278573d5f803e3d5ffd5b505050506040513d601f19601f8201168201806040525081019061029c9190610973565b5050565b5f67016345785d8a000060055f9054906101000a900473ffffffffffffffffffffffffffffffffffffffff1673ffffffffffffffffffffffffffffffffffffffff166370a08231306040518263ffffffff1660e01b8152600401610304919061099e565b602060405180830381865afa15801561031f573d5f803e3d5ffd5b505050506040513d601f19601f8201168201806040525081019061034391906109cb565b1015610384576040517f08c379a000000000000000000000000000000000000000000000000000000000815260040161037b90610a50565b60405180910390fd5b60045f9054906101000a900473ffffffffffffffffffffffffffffffffffffffff1673ffffffffffffffffffffffffffffffffffffffff16635d3b1d3060025460035f9054906101000a900467ffffffffffffffff166003600c9054906101000a900461ffff16600360089054906101000a900463ffffffff166003600e9054906101000a900463ffffffff166040518663ffffffff1660e01b8152600401610431959493929190610ae2565b6020604051808303815f875af115801561044d573d5f803e3d5ffd5b505050506040513d601f19601f8201168201806040525081019061047191906109cb565b90507f5a82a565b8cc97bc62f2041e057e918f6b3b7b4185104d7d4a52ed5c711e7232816040516104a29190610606565b60405180910390a190565b5f60055f9054906101000a900473ffffffffffffffffffffffffffffffffffffffff1673ffffffffffffffffffffffffffffffffffffffff166370a08231306040518263ffffffff1660e01b8152600401610508919061099e565b602060405180830381865afa158015610523573d5f803e3d5ffd5b505050506040513d601f19601f8201168201806040525081019061054791906109cb565b905090565b6001548214610590576040517f08c379a000000000000000000000000000000000000000000000000000000000815260040161058790610b7d565b60405180910390fd5b805f815181106105a3576105a2610b9b565b5b60200260200101515f819055507f8d0b85217819203ea5eebe89818986fc8f6db4913ede059bade4b8569caebbc9825f546040516105e2929190610bc8565b60405180910390a15050565b5f819050919050565b610600816105ee565b82525050565b5f6020820190506106195f8301846105f7565b92915050565b5f73ffffffffffffffffffffffffffffffffffffffff82169050919050565b5f819050919050565b5f61066161065c6106578461061f565b61063e565b61061f565b9050919050565b5f61067282610647565b9050919050565b5f61068382610668565b9050919050565b61069381610679565b82525050565b5f6020820190506106ac5f83018461068a565b92915050565b5f604051905090565b5f80fd5b5f80fd5b6106cc816105ee565b81146106d6575f80fd5b50565b5f813590506106e7816106c3565b92915050565b5f80fd5b5f601f19601f8301169050919050565b7f4e487b71000000000000000000000000000000000000000000000000000000005f52604160045260245ffd5b610737826106f1565b810181811067ffffffffffffffff8211171561075657610755610701565b5b80604052505050565b5f6107686106b2565b9050610774828261072e565b919050565b5f67ffffffffffffffff82111561079357610792610701565b5b602082029050602081019050919050565b5f80fd5b5f6107ba6107b584610779565b61075f565b905080838252602082019050602084028301858111156107dd576107dc6107a4565b5b835b8181101561080657806107f288826106d9565b8452602084019350506020810190506107df565b5050509392505050565b5f82601f830112610824576108236106ed565b5b81356108348482602086016107a8565b91505092915050565b5f8060408385031215610853576108526106bb565b5b5f610860858286016106d9565b925050602083013567ffffffffffffffff811115610881576108806106bf565b5b61088d85828601610810565b9150509250929050565b5f602082840312156108ac576108ab6106bb565b5b5f6108b9848285016106d9565b91505092915050565b5f6108cc8261061f565b9050919050565b6108dc816108c2565b82525050565b5f6040820190506108f55f8301856108d3565b61090260208301846108d3565b9392505050565b5f60608201905061091c5f8301866108d3565b61092960208301856108d3565b61093660408301846105f7565b949350505050565b5f8115159050919050565b6109528161093e565b811461095c575f80fd5b50565b5f8151905061096d81610949565b92915050565b5f60208284031215610988576109876106bb565b5b5f6109958482850161095f565b91505092915050565b5f6020820190506109b15f8301846108d3565b92915050565b5f815190506109c5816106c3565b92915050565b5f602082840312156109e0576109df6106bb565b5b5f6109ed848285016109b7565b91505092915050565b5f82825260208201905092915050565b7f496e73756666696369656e74204c494e4b0000000000000000000000000000005f82015250565b5f610a3a6011836109f6565b9150610a4582610a06565b602082019050919050565b5f6020820190508181035f830152610a6781610a2e565b9050919050565b5f819050919050565b610a8081610a6e565b82525050565b5f67ffffffffffffffff82169050919050565b610aa281610a86565b82525050565b5f61ffff82169050919050565b610abe81610aa8565b82525050565b5f63ffffffff82169050919050565b610adc81610ac4565b82525050565b5f60a082019050610af55f830188610a77565b610b026020830187610a99565b610b0f6040830186610ab5565b610b1c6060830185610ad3565b610b296080830184610ad3565b9695505050505050565b7f52657175657374204944206d69736d61746368000000000000000000000000005f82015250565b5f610b676013836109f6565b9150610b7282610b33565b602082019050919050565b5f6020820190508181035f830152610b9481610b5b565b9050919050565b7f4e487b71000000000000000000000000000000000000000000000000000000005f52603260045260245ffd5b5f604082019050610bdb5f8301856105f7565b610be860208301846105f7565b939250505056fea26469706673582212205d1f0100deb4fc808edddc92f0e5e4cbba479bd283706cab0008c8b9548cc9c564736f6c634300081a0033",
					"opcodes": "PUSH1 0xA0 PUSH1 0x40 MSTORE PUSH3 0x186A0 PUSH1 0x3 PUSH1 0x8 PUSH2 0x100 EXP DUP2 SLOAD DUP2 PUSH4 0xFFFFFFFF MUL NOT AND SWAP1 DUP4 PUSH4 0xFFFFFFFF AND MUL OR SWAP1 SSTORE POP PUSH1 0x3 DUP1 PUSH1 0xC PUSH2 0x100 EXP DUP2 SLOAD DUP2 PUSH2 0xFFFF MUL NOT AND SWAP1 DUP4 PUSH2 0xFFFF AND MUL OR SWAP1 SSTORE POP PUSH1 0x1 PUSH1 0x3 PUSH1 0xE PUSH2 0x100 EXP DUP2 SLOAD DUP2 PUSH4 0xFFFFFFFF MUL NOT AND SWAP1 DUP4 PUSH4 0xFFFFFFFF AND MUL OR SWAP1 SSTORE POP CALLVALUE DUP1 ISZERO PUSH2 0x72 JUMPI PUSH0 DUP1 REVERT JUMPDEST POP PUSH1 0x40 MLOAD PUSH2 0xEF8 CODESIZE SUB DUP1 PUSH2 0xEF8 DUP4 CODECOPY DUP2 DUP2 ADD PUSH1 0x40 MSTORE DUP2 ADD SWAP1 PUSH2 0x94 SWAP2 SWAP1 PUSH2 0x250 JUMP JUMPDEST DUP4 DUP1 PUSH20 0xFFFFFFFFFFFFFFFFFFFFFFFFFFFFFFFFFFFFFFFF AND PUSH1 0x80 DUP2 PUSH20 0xFFFFFFFFFFFFFFFFFFFFFFFFFFFFFFFFFFFFFFFF AND DUP2 MSTORE POP POP POP DUP2 PUSH1 0x2 DUP2 SWAP1 SSTORE POP DUP1 PUSH1 0x3 PUSH0 PUSH2 0x100 EXP DUP2 SLOAD DUP2 PUSH8 0xFFFFFFFFFFFFFFFF MUL NOT AND SWAP1 DUP4 PUSH8 0xFFFFFFFFFFFFFFFF AND MUL OR SWAP1 SSTORE POP DUP4 PUSH1 0x4 PUSH0 PUSH2 0x100 EXP DUP2 SLOAD DUP2 PUSH20 0xFFFFFFFFFFFFFFFFFFFFFFFFFFFFFFFFFFFFFFFF MUL NOT AND SWAP1 DUP4 PUSH20 0xFFFFFFFFFFFFFFFFFFFFFFFFFFFFFFFFFFFFFFFF AND MUL OR SWAP1 SSTORE POP DUP3 PUSH1 0x5 PUSH0 PUSH2 0x100 EXP DUP2 SLOAD DUP2 PUSH20 0xFFFFFFFFFFFFFFFFFFFFFFFFFFFFFFFFFFFFFFFF MUL NOT AND SWAP1 DUP4 PUSH20 0xFFFFFFFFFFFFFFFFFFFFFFFFFFFFFFFFFFFFFFFF AND MUL OR SWAP1 SSTORE POP POP POP POP POP PUSH2 0x2B4 JUMP JUMPDEST PUSH0 DUP1 REVERT JUMPDEST PUSH0 PUSH20 0xFFFFFFFFFFFFFFFFFFFFFFFFFFFFFFFFFFFFFFFF DUP3 AND SWAP1 POP SWAP2 SWAP1 POP JUMP JUMPDEST PUSH0 PUSH2 0x1AF DUP3 PUSH2 0x186 JUMP JUMPDEST SWAP1 POP SWAP2 SWAP1 POP JUMP JUMPDEST PUSH2 0x1BF DUP2 PUSH2 0x1A5 JUMP JUMPDEST DUP2 EQ PUSH2 0x1C9 JUMPI PUSH0 DUP1 REVERT JUMPDEST POP JUMP JUMPDEST PUSH0 DUP2 MLOAD SWAP1 POP PUSH2 0x1DA DUP2 PUSH2 0x1B6 JUMP JUMPDEST SWAP3 SWAP2 POP POP JUMP JUMPDEST PUSH0 DUP2 SWAP1 POP SWAP2 SWAP1 POP JUMP JUMPDEST PUSH2 0x1F2 DUP2 PUSH2 0x1E0 JUMP JUMPDEST DUP2 EQ PUSH2 0x1FC JUMPI PUSH0 DUP1 REVERT JUMPDEST POP JUMP JUMPDEST PUSH0 DUP2 MLOAD SWAP1 POP PUSH2 0x20D DUP2 PUSH2 0x1E9 JUMP JUMPDEST SWAP3 SWAP2 POP POP JUMP JUMPDEST PUSH0 PUSH8 0xFFFFFFFFFFFFFFFF DUP3 AND SWAP1 POP SWAP2 SWAP1 POP JUMP JUMPDEST PUSH2 0x22F DUP2 PUSH2 0x213 JUMP JUMPDEST DUP2 EQ PUSH2 0x239 JUMPI PUSH0 DUP1 REVERT JUMPDEST POP JUMP JUMPDEST PUSH0 DUP2 MLOAD SWAP1 POP PUSH2 0x24A DUP2 PUSH2 0x226 JUMP JUMPDEST SWAP3 SWAP2 POP POP JUMP JUMPDEST PUSH0 DUP1 PUSH0 DUP1 PUSH1 0x80 DUP6 DUP8 SUB SLT ISZERO PUSH2 0x268 JUMPI PUSH2 0x267 PUSH2 0x182 JUMP JUMPDEST JUMPDEST PUSH0 PUSH2 0x275 DUP8 DUP3 DUP9 ADD PUSH2 0x1CC JUMP JUMPDEST SWAP5 POP POP PUSH1 0x20 PUSH2 0x286 DUP8 DUP3 DUP9 ADD PUSH2 0x1CC JUMP JUMPDEST SWAP4 POP POP PUSH1 0x40 PUSH2 0x297 DUP8 DUP3 DUP9 ADD PUSH2 0x1FF JUMP JUMPDEST SWAP3 POP POP PUSH1 0x60 PUSH2 0x2A8 DUP8 DUP3 DUP9 ADD PUSH2 0x23C JUMP JUMPDEST SWAP2 POP POP SWAP3 SWAP6 SWAP2 SWAP5 POP SWAP3 POP JUMP JUMPDEST PUSH1 0x80 MLOAD PUSH2 0xC25 PUSH2 0x2D3 PUSH0 CODECOPY PUSH0 DUP2 DUP2 PUSH2 0x140 ADD MSTORE PUSH2 0x194 ADD MSTORE PUSH2 0xC25 PUSH0 RETURN INVALID PUSH1 0x80 PUSH1 0x40 MSTORE CALLVALUE DUP1 ISZERO PUSH2 0xF JUMPI PUSH0 DUP1 REVERT JUMPDEST POP PUSH1 0x4 CALLDATASIZE LT PUSH2 0x60 JUMPI PUSH0 CALLDATALOAD PUSH1 0xE0 SHR DUP1 PUSH4 0xAB14D8A EQ PUSH2 0x64 JUMPI DUP1 PUSH4 0x1B6B6D23 EQ PUSH2 0x82 JUMPI DUP1 PUSH4 0x1FE543E3 EQ PUSH2 0xA0 JUMPI DUP1 PUSH4 0x3519A2F8 EQ PUSH2 0xBC JUMPI DUP1 PUSH4 0x6765B256 EQ PUSH2 0xD8 JUMPI DUP1 PUSH4 0xAC428E7A EQ PUSH2 0xF6 JUMPI JUMPDEST PUSH0 DUP1 REVERT JUMPDEST PUSH2 0x6C PUSH2 0x114 JUMP JUMPDEST PUSH1 0x40 MLOAD PUSH2 0x79 SWAP2 SWAP1 PUSH2 0x606 JUMP JUMPDEST PUSH1 0x40 MLOAD DUP1 SWAP2 SUB SWAP1 RETURN JUMPDEST PUSH2 0x8A PUSH2 0x119 JUMP JUMPDEST PUSH1 0x40 MLOAD PUSH2 0x97 SWAP2 SWAP1 PUSH2 0x699 JUMP JUMPDEST PUSH1 0x40 MLOAD DUP1 SWAP2 SUB SWAP1 RETURN JUMPDEST PUSH2 0xBA PUSH1 0x4 DUP1 CALLDATASIZE SUB DUP2 ADD SWAP1 PUSH2 0xB5 SWAP2 SWAP1 PUSH2 0x83D JUMP JUMPDEST PUSH2 0x13E JUMP JUMPDEST STOP JUMPDEST PUSH2 0xD6 PUSH1 0x4 DUP1 CALLDATASIZE SUB DUP2 ADD SWAP1 PUSH2 0xD1 SWAP2 SWAP1 PUSH2 0x897 JUMP JUMPDEST PUSH2 0x1FE JUMP JUMPDEST STOP JUMPDEST PUSH2 0xE0 PUSH2 0x2A0 JUMP JUMPDEST PUSH1 0x40 MLOAD PUSH2 0xED SWAP2 SWAP1 PUSH2 0x606 JUMP JUMPDEST PUSH1 0x40 MLOAD DUP1 SWAP2 SUB SWAP1 RETURN JUMPDEST PUSH2 0xFE PUSH2 0x4AD JUMP JUMPDEST PUSH1 0x40 MLOAD PUSH2 0x10B SWAP2 SWAP1 PUSH2 0x606 JUMP JUMPDEST PUSH1 0x40 MLOAD DUP1 SWAP2 SUB SWAP1 RETURN JUMPDEST PUSH0 SLOAD DUP2 JUMP JUMPDEST PUSH1 0x5 PUSH0 SWAP1 SLOAD SWAP1 PUSH2 0x100 EXP SWAP1 DIV PUSH20 0xFFFFFFFFFFFFFFFFFFFFFFFFFFFFFFFFFFFFFFFF AND DUP2 JUMP JUMPDEST PUSH32 0x0 PUSH20 0xFFFFFFFFFFFFFFFFFFFFFFFFFFFFFFFFFFFFFFFF AND CALLER PUSH20 0xFFFFFFFFFFFFFFFFFFFFFFFFFFFFFFFFFFFFFFFF AND EQ PUSH2 0x1F0 JUMPI CALLER PUSH32 0x0 PUSH1 0x40 MLOAD PUSH32 0x1CF993F400000000000000000000000000000000000000000000000000000000 DUP2 MSTORE PUSH1 0x4 ADD PUSH2 0x1E7 SWAP3 SWAP2 SWAP1 PUSH2 0x8E2 JUMP JUMPDEST PUSH1 0x40 MLOAD DUP1 SWAP2 SUB SWAP1 REVERT JUMPDEST PUSH2 0x1FA DUP3 DUP3 PUSH2 0x54C JUMP JUMPDEST POP POP JUMP JUMPDEST PUSH1 0x5 PUSH0 SWAP1 SLOAD SWAP1 PUSH2 0x100 EXP SWAP1 DIV PUSH20 0xFFFFFFFFFFFFFFFFFFFFFFFFFFFFFFFFFFFFFFFF AND PUSH20 0xFFFFFFFFFFFFFFFFFFFFFFFFFFFFFFFFFFFFFFFF AND PUSH4 0x23B872DD CALLER ADDRESS DUP5 PUSH1 0x40 MLOAD DUP5 PUSH4 0xFFFFFFFF AND PUSH1 0xE0 SHL DUP2 MSTORE PUSH1 0x4 ADD PUSH2 0x25C SWAP4 SWAP3 SWAP2 SWAP1 PUSH2 0x909 JUMP JUMPDEST PUSH1 0x20 PUSH1 0x40 MLOAD DUP1 DUP4 SUB DUP2 PUSH0 DUP8 GAS CALL ISZERO DUP1 ISZERO PUSH2 0x278 JUMPI RETURNDATASIZE PUSH0 DUP1 RETURNDATACOPY RETURNDATASIZE PUSH0 REVERT JUMPDEST POP POP POP POP PUSH1 0x40 MLOAD RETURNDATASIZE PUSH1 0x1F NOT PUSH1 0x1F DUP3 ADD AND DUP3 ADD DUP1 PUSH1 0x40 MSTORE POP DUP2 ADD SWAP1 PUSH2 0x29C SWAP2 SWAP1 PUSH2 0x973 JUMP JUMPDEST POP POP JUMP JUMPDEST PUSH0 PUSH8 0x16345785D8A0000 PUSH1 0x5 PUSH0 SWAP1 SLOAD SWAP1 PUSH2 0x100 EXP SWAP1 DIV PUSH20 0xFFFFFFFFFFFFFFFFFFFFFFFFFFFFFFFFFFFFFFFF AND PUSH20 0xFFFFFFFFFFFFFFFFFFFFFFFFFFFFFFFFFFFFFFFF AND PUSH4 0x70A08231 ADDRESS PUSH1 0x40 MLOAD DUP3 PUSH4 0xFFFFFFFF AND PUSH1 0xE0 SHL DUP2 MSTORE PUSH1 0x4 ADD PUSH2 0x304 SWAP2 SWAP1 PUSH2 0x99E JUMP JUMPDEST PUSH1 0x20 PUSH1 0x40 MLOAD DUP1 DUP4 SUB DUP2 DUP7 GAS STATICCALL ISZERO DUP1 ISZERO PUSH2 0x31F JUMPI RETURNDATASIZE PUSH0 DUP1 RETURNDATACOPY RETURNDATASIZE PUSH0 REVERT JUMPDEST POP POP POP POP PUSH1 0x40 MLOAD RETURNDATASIZE PUSH1 0x1F NOT PUSH1 0x1F DUP3 ADD AND DUP3 ADD DUP1 PUSH1 0x40 MSTORE POP DUP2 ADD SWAP1 PUSH2 0x343 SWAP2 SWAP1 PUSH2 0x9CB JUMP JUMPDEST LT ISZERO PUSH2 0x384 JUMPI PUSH1 0x40 MLOAD PUSH32 0x8C379A000000000000000000000000000000000000000000000000000000000 DUP2 MSTORE PUSH1 0x4 ADD PUSH2 0x37B SWAP1 PUSH2 0xA50 JUMP JUMPDEST PUSH1 0x40 MLOAD DUP1 SWAP2 SUB SWAP1 REVERT JUMPDEST PUSH1 0x4 PUSH0 SWAP1 SLOAD SWAP1 PUSH2 0x100 EXP SWAP1 DIV PUSH20 0xFFFFFFFFFFFFFFFFFFFFFFFFFFFFFFFFFFFFFFFF AND PUSH20 0xFFFFFFFFFFFFFFFFFFFFFFFFFFFFFFFFFFFFFFFF AND PUSH4 0x5D3B1D30 PUSH1 0x2 SLOAD PUSH1 0x3 PUSH0 SWAP1 SLOAD SWAP1 PUSH2 0x100 EXP SWAP1 DIV PUSH8 0xFFFFFFFFFFFFFFFF AND PUSH1 0x3 PUSH1 0xC SWAP1 SLOAD SWAP1 PUSH2 0x100 EXP SWAP1 DIV PUSH2 0xFFFF AND PUSH1 0x3 PUSH1 0x8 SWAP1 SLOAD SWAP1 PUSH2 0x100 EXP SWAP1 DIV PUSH4 0xFFFFFFFF AND PUSH1 0x3 PUSH1 0xE SWAP1 SLOAD SWAP1 PUSH2 0x100 EXP SWAP1 DIV PUSH4 0xFFFFFFFF AND PUSH1 0x40 MLOAD DUP7 PUSH4 0xFFFFFFFF AND PUSH1 0xE0 SHL DUP2 MSTORE PUSH1 0x4 ADD PUSH2 0x431 SWAP6 SWAP5 SWAP4 SWAP3 SWAP2 SWAP1 PUSH2 0xAE2 JUMP JUMPDEST PUSH1 0x20 PUSH1 0x40 MLOAD DUP1 DUP4 SUB DUP2 PUSH0 DUP8 GAS CALL ISZERO DUP1 ISZERO PUSH2 0x44D JUMPI RETURNDATASIZE PUSH0 DUP1 RETURNDATACOPY RETURNDATASIZE PUSH0 REVERT JUMPDEST POP POP POP POP PUSH1 0x40 MLOAD RETURNDATASIZE PUSH1 0x1F NOT PUSH1 0x1F DUP3 ADD AND DUP3 ADD DUP1 PUSH1 0x40 MSTORE POP DUP2 ADD SWAP1 PUSH2 0x471 SWAP2 SWAP1 PUSH2 0x9CB JUMP JUMPDEST SWAP1 POP PUSH32 0x5A82A565B8CC97BC62F2041E057E918F6B3B7B4185104D7D4A52ED5C711E7232 DUP2 PUSH1 0x40 MLOAD PUSH2 0x4A2 SWAP2 SWAP1 PUSH2 0x606 JUMP JUMPDEST PUSH1 0x40 MLOAD DUP1 SWAP2 SUB SWAP1 LOG1 SWAP1 JUMP JUMPDEST PUSH0 PUSH1 0x5 PUSH0 SWAP1 SLOAD SWAP1 PUSH2 0x100 EXP SWAP1 DIV PUSH20 0xFFFFFFFFFFFFFFFFFFFFFFFFFFFFFFFFFFFFFFFF AND PUSH20 0xFFFFFFFFFFFFFFFFFFFFFFFFFFFFFFFFFFFFFFFF AND PUSH4 0x70A08231 ADDRESS PUSH1 0x40 MLOAD DUP3 PUSH4 0xFFFFFFFF AND PUSH1 0xE0 SHL DUP2 MSTORE PUSH1 0x4 ADD PUSH2 0x508 SWAP2 SWAP1 PUSH2 0x99E JUMP JUMPDEST PUSH1 0x20 PUSH1 0x40 MLOAD DUP1 DUP4 SUB DUP2 DUP7 GAS STATICCALL ISZERO DUP1 ISZERO PUSH2 0x523 JUMPI RETURNDATASIZE PUSH0 DUP1 RETURNDATACOPY RETURNDATASIZE PUSH0 REVERT JUMPDEST POP POP POP POP PUSH1 0x40 MLOAD RETURNDATASIZE PUSH1 0x1F NOT PUSH1 0x1F DUP3 ADD AND DUP3 ADD DUP1 PUSH1 0x40 MSTORE POP DUP2 ADD SWAP1 PUSH2 0x547 SWAP2 SWAP1 PUSH2 0x9CB JUMP JUMPDEST SWAP1 POP SWAP1 JUMP JUMPDEST PUSH1 0x1 SLOAD DUP3 EQ PUSH2 0x590 JUMPI PUSH1 0x40 MLOAD PUSH32 0x8C379A000000000000000000000000000000000000000000000000000000000 DUP2 MSTORE PUSH1 0x4 ADD PUSH2 0x587 SWAP1 PUSH2 0xB7D JUMP JUMPDEST PUSH1 0x40 MLOAD DUP1 SWAP2 SUB SWAP1 REVERT JUMPDEST DUP1 PUSH0 DUP2 MLOAD DUP2 LT PUSH2 0x5A3 JUMPI PUSH2 0x5A2 PUSH2 0xB9B JUMP JUMPDEST JUMPDEST PUSH1 0x20 MUL PUSH1 0x20 ADD ADD MLOAD PUSH0 DUP2 SWAP1 SSTORE POP PUSH32 0x8D0B85217819203EA5EEBE89818986FC8F6DB4913EDE059BADE4B8569CAEBBC9 DUP3 PUSH0 SLOAD PUSH1 0x40 MLOAD PUSH2 0x5E2 SWAP3 SWAP2 SWAP1 PUSH2 0xBC8 JUMP JUMPDEST PUSH1 0x40 MLOAD DUP1 SWAP2 SUB SWAP1 LOG1 POP POP JUMP JUMPDEST PUSH0 DUP2 SWAP1 POP SWAP2 SWAP1 POP JUMP JUMPDEST PUSH2 0x600 DUP2 PUSH2 0x5EE JUMP JUMPDEST DUP3 MSTORE POP POP JUMP JUMPDEST PUSH0 PUSH1 0x20 DUP3 ADD SWAP1 POP PUSH2 0x619 PUSH0 DUP4 ADD DUP5 PUSH2 0x5F7 JUMP JUMPDEST SWAP3 SWAP2 POP POP JUMP JUMPDEST PUSH0 PUSH20 0xFFFFFFFFFFFFFFFFFFFFFFFFFFFFFFFFFFFFFFFF DUP3 AND SWAP1 POP SWAP2 SWAP1 POP JUMP JUMPDEST PUSH0 DUP2 SWAP1 POP SWAP2 SWAP1 POP JUMP JUMPDEST PUSH0 PUSH2 0x661 PUSH2 0x65C PUSH2 0x657 DUP5 PUSH2 0x61F JUMP JUMPDEST PUSH2 0x63E JUMP JUMPDEST PUSH2 0x61F JUMP JUMPDEST SWAP1 POP SWAP2 SWAP1 POP JUMP JUMPDEST PUSH0 PUSH2 0x672 DUP3 PUSH2 0x647 JUMP JUMPDEST SWAP1 POP SWAP2 SWAP1 POP JUMP JUMPDEST PUSH0 PUSH2 0x683 DUP3 PUSH2 0x668 JUMP JUMPDEST SWAP1 POP SWAP2 SWAP1 POP JUMP JUMPDEST PUSH2 0x693 DUP2 PUSH2 0x679 JUMP JUMPDEST DUP3 MSTORE POP POP JUMP JUMPDEST PUSH0 PUSH1 0x20 DUP3 ADD SWAP1 POP PUSH2 0x6AC PUSH0 DUP4 ADD DUP5 PUSH2 0x68A JUMP JUMPDEST SWAP3 SWAP2 POP POP JUMP JUMPDEST PUSH0 PUSH1 0x40 MLOAD SWAP1 POP SWAP1 JUMP JUMPDEST PUSH0 DUP1 REVERT JUMPDEST PUSH0 DUP1 REVERT JUMPDEST PUSH2 0x6CC DUP2 PUSH2 0x5EE JUMP JUMPDEST DUP2 EQ PUSH2 0x6D6 JUMPI PUSH0 DUP1 REVERT JUMPDEST POP JUMP JUMPDEST PUSH0 DUP2 CALLDATALOAD SWAP1 POP PUSH2 0x6E7 DUP2 PUSH2 0x6C3 JUMP JUMPDEST SWAP3 SWAP2 POP POP JUMP JUMPDEST PUSH0 DUP1 REVERT JUMPDEST PUSH0 PUSH1 0x1F NOT PUSH1 0x1F DUP4 ADD AND SWAP1 POP SWAP2 SWAP1 POP JUMP JUMPDEST PUSH32 0x4E487B7100000000000000000000000000000000000000000000000000000000 PUSH0 MSTORE PUSH1 0x41 PUSH1 0x4 MSTORE PUSH1 0x24 PUSH0 REVERT JUMPDEST PUSH2 0x737 DUP3 PUSH2 0x6F1 JUMP JUMPDEST DUP2 ADD DUP2 DUP2 LT PUSH8 0xFFFFFFFFFFFFFFFF DUP3 GT OR ISZERO PUSH2 0x756 JUMPI PUSH2 0x755 PUSH2 0x701 JUMP JUMPDEST JUMPDEST DUP1 PUSH1 0x40 MSTORE POP POP POP JUMP JUMPDEST PUSH0 PUSH2 0x768 PUSH2 0x6B2 JUMP JUMPDEST SWAP1 POP PUSH2 0x774 DUP3 DUP3 PUSH2 0x72E JUMP JUMPDEST SWAP2 SWAP1 POP JUMP JUMPDEST PUSH0 PUSH8 0xFFFFFFFFFFFFFFFF DUP3 GT ISZERO PUSH2 0x793 JUMPI PUSH2 0x792 PUSH2 0x701 JUMP JUMPDEST JUMPDEST PUSH1 0x20 DUP3 MUL SWAP1 POP PUSH1 0x20 DUP2 ADD SWAP1 POP SWAP2 SWAP1 POP JUMP JUMPDEST PUSH0 DUP1 REVERT JUMPDEST PUSH0 PUSH2 0x7BA PUSH2 0x7B5 DUP5 PUSH2 0x779 JUMP JUMPDEST PUSH2 0x75F JUMP JUMPDEST SWAP1 POP DUP1 DUP4 DUP3 MSTORE PUSH1 0x20 DUP3 ADD SWAP1 POP PUSH1 0x20 DUP5 MUL DUP4 ADD DUP6 DUP2 GT ISZERO PUSH2 0x7DD JUMPI PUSH2 0x7DC PUSH2 0x7A4 JUMP JUMPDEST JUMPDEST DUP4 JUMPDEST DUP2 DUP2 LT ISZERO PUSH2 0x806 JUMPI DUP1 PUSH2 0x7F2 DUP9 DUP3 PUSH2 0x6D9 JUMP JUMPDEST DUP5 MSTORE PUSH1 0x20 DUP5 ADD SWAP4 POP POP PUSH1 0x20 DUP2 ADD SWAP1 POP PUSH2 0x7DF JUMP JUMPDEST POP POP POP SWAP4 SWAP3 POP POP POP JUMP JUMPDEST PUSH0 DUP3 PUSH1 0x1F DUP4 ADD SLT PUSH2 0x824 JUMPI PUSH2 0x823 PUSH2 0x6ED JUMP JUMPDEST JUMPDEST DUP2 CALLDATALOAD PUSH2 0x834 DUP5 DUP3 PUSH1 0x20 DUP7 ADD PUSH2 0x7A8 JUMP JUMPDEST SWAP2 POP POP SWAP3 SWAP2 POP POP JUMP JUMPDEST PUSH0 DUP1 PUSH1 0x40 DUP4 DUP6 SUB SLT ISZERO PUSH2 0x853 JUMPI PUSH2 0x852 PUSH2 0x6BB JUMP JUMPDEST JUMPDEST PUSH0 PUSH2 0x860 DUP6 DUP3 DUP7 ADD PUSH2 0x6D9 JUMP JUMPDEST SWAP3 POP POP PUSH1 0x20 DUP4 ADD CALLDATALOAD PUSH8 0xFFFFFFFFFFFFFFFF DUP2 GT ISZERO PUSH2 0x881 JUMPI PUSH2 0x880 PUSH2 0x6BF JUMP JUMPDEST JUMPDEST PUSH2 0x88D DUP6 DUP3 DUP7 ADD PUSH2 0x810 JUMP JUMPDEST SWAP2 POP POP SWAP3 POP SWAP3 SWAP1 POP JUMP JUMPDEST PUSH0 PUSH1 0x20 DUP3 DUP5 SUB SLT ISZERO PUSH2 0x8AC JUMPI PUSH2 0x8AB PUSH2 0x6BB JUMP JUMPDEST JUMPDEST PUSH0 PUSH2 0x8B9 DUP5 DUP3 DUP6 ADD PUSH2 0x6D9 JUMP JUMPDEST SWAP2 POP POP SWAP3 SWAP2 POP POP JUMP JUMPDEST PUSH0 PUSH2 0x8CC DUP3 PUSH2 0x61F JUMP JUMPDEST SWAP1 POP SWAP2 SWAP1 POP JUMP JUMPDEST PUSH2 0x8DC DUP2 PUSH2 0x8C2 JUMP JUMPDEST DUP3 MSTORE POP POP JUMP JUMPDEST PUSH0 PUSH1 0x40 DUP3 ADD SWAP1 POP PUSH2 0x8F5 PUSH0 DUP4 ADD DUP6 PUSH2 0x8D3 JUMP JUMPDEST PUSH2 0x902 PUSH1 0x20 DUP4 ADD DUP5 PUSH2 0x8D3 JUMP JUMPDEST SWAP4 SWAP3 POP POP POP JUMP JUMPDEST PUSH0 PUSH1 0x60 DUP3 ADD SWAP1 POP PUSH2 0x91C PUSH0 DUP4 ADD DUP7 PUSH2 0x8D3 JUMP JUMPDEST PUSH2 0x929 PUSH1 0x20 DUP4 ADD DUP6 PUSH2 0x8D3 JUMP JUMPDEST PUSH2 0x936 PUSH1 0x40 DUP4 ADD DUP5 PUSH2 0x5F7 JUMP JUMPDEST SWAP5 SWAP4 POP POP POP POP JUMP JUMPDEST PUSH0 DUP2 ISZERO ISZERO SWAP1 POP SWAP2 SWAP1 POP JUMP JUMPDEST PUSH2 0x952 DUP2 PUSH2 0x93E JUMP JUMPDEST DUP2 EQ PUSH2 0x95C JUMPI PUSH0 DUP1 REVERT JUMPDEST POP JUMP JUMPDEST PUSH0 DUP2 MLOAD SWAP1 POP PUSH2 0x96D DUP2 PUSH2 0x949 JUMP JUMPDEST SWAP3 SWAP2 POP POP JUMP JUMPDEST PUSH0 PUSH1 0x20 DUP3 DUP5 SUB SLT ISZERO PUSH2 0x988 JUMPI PUSH2 0x987 PUSH2 0x6BB JUMP JUMPDEST JUMPDEST PUSH0 PUSH2 0x995 DUP5 DUP3 DUP6 ADD PUSH2 0x95F JUMP JUMPDEST SWAP2 POP POP SWAP3 SWAP2 POP POP JUMP JUMPDEST PUSH0 PUSH1 0x20 DUP3 ADD SWAP1 POP PUSH2 0x9B1 PUSH0 DUP4 ADD DUP5 PUSH2 0x8D3 JUMP JUMPDEST SWAP3 SWAP2 POP POP JUMP JUMPDEST PUSH0 DUP2 MLOAD SWAP1 POP PUSH2 0x9C5 DUP2 PUSH2 0x6C3 JUMP JUMPDEST SWAP3 SWAP2 POP POP JUMP JUMPDEST PUSH0 PUSH1 0x20 DUP3 DUP5 SUB SLT ISZERO PUSH2 0x9E0 JUMPI PUSH2 0x9DF PUSH2 0x6BB JUMP JUMPDEST JUMPDEST PUSH0 PUSH2 0x9ED DUP5 DUP3 DUP6 ADD PUSH2 0x9B7 JUMP JUMPDEST SWAP2 POP POP SWAP3 SWAP2 POP POP JUMP JUMPDEST PUSH0 DUP3 DUP3 MSTORE PUSH1 0x20 DUP3 ADD SWAP1 POP SWAP3 SWAP2 POP POP JUMP JUMPDEST PUSH32 0x496E73756666696369656E74204C494E4B000000000000000000000000000000 PUSH0 DUP3 ADD MSTORE POP JUMP JUMPDEST PUSH0 PUSH2 0xA3A PUSH1 0x11 DUP4 PUSH2 0x9F6 JUMP JUMPDEST SWAP2 POP PUSH2 0xA45 DUP3 PUSH2 0xA06 JUMP JUMPDEST PUSH1 0x20 DUP3 ADD SWAP1 POP SWAP2 SWAP1 POP JUMP JUMPDEST PUSH0 PUSH1 0x20 DUP3 ADD SWAP1 POP DUP2 DUP2 SUB PUSH0 DUP4 ADD MSTORE PUSH2 0xA67 DUP2 PUSH2 0xA2E JUMP JUMPDEST SWAP1 POP SWAP2 SWAP1 POP JUMP JUMPDEST PUSH0 DUP2 SWAP1 POP SWAP2 SWAP1 POP JUMP JUMPDEST PUSH2 0xA80 DUP2 PUSH2 0xA6E JUMP JUMPDEST DUP3 MSTORE POP POP JUMP JUMPDEST PUSH0 PUSH8 0xFFFFFFFFFFFFFFFF DUP3 AND SWAP1 POP SWAP2 SWAP1 POP JUMP JUMPDEST PUSH2 0xAA2 DUP2 PUSH2 0xA86 JUMP JUMPDEST DUP3 MSTORE POP POP JUMP JUMPDEST PUSH0 PUSH2 0xFFFF DUP3 AND SWAP1 POP SWAP2 SWAP1 POP JUMP JUMPDEST PUSH2 0xABE DUP2 PUSH2 0xAA8 JUMP JUMPDEST DUP3 MSTORE POP POP JUMP JUMPDEST PUSH0 PUSH4 0xFFFFFFFF DUP3 AND SWAP1 POP SWAP2 SWAP1 POP JUMP JUMPDEST PUSH2 0xADC DUP2 PUSH2 0xAC4 JUMP JUMPDEST DUP3 MSTORE POP POP JUMP JUMPDEST PUSH0 PUSH1 0xA0 DUP3 ADD SWAP1 POP PUSH2 0xAF5 PUSH0 DUP4 ADD DUP9 PUSH2 0xA77 JUMP JUMPDEST PUSH2 0xB02 PUSH1 0x20 DUP4 ADD DUP8 PUSH2 0xA99 JUMP JUMPDEST PUSH2 0xB0F PUSH1 0x40 DUP4 ADD DUP7 PUSH2 0xAB5 JUMP JUMPDEST PUSH2 0xB1C PUSH1 0x60 DUP4 ADD DUP6 PUSH2 0xAD3 JUMP JUMPDEST PUSH2 0xB29 PUSH1 0x80 DUP4 ADD DUP5 PUSH2 0xAD3 JUMP JUMPDEST SWAP7 SWAP6 POP POP POP POP POP POP JUMP JUMPDEST PUSH32 0x52657175657374204944206D69736D6174636800000000000000000000000000 PUSH0 DUP3 ADD MSTORE POP JUMP JUMPDEST PUSH0 PUSH2 0xB67 PUSH1 0x13 DUP4 PUSH2 0x9F6 JUMP JUMPDEST SWAP2 POP PUSH2 0xB72 DUP3 PUSH2 0xB33 JUMP JUMPDEST PUSH1 0x20 DUP3 ADD SWAP1 POP SWAP2 SWAP1 POP JUMP JUMPDEST PUSH0 PUSH1 0x20 DUP3 ADD SWAP1 POP DUP2 DUP2 SUB PUSH0 DUP4 ADD MSTORE PUSH2 0xB94 DUP2 PUSH2 0xB5B JUMP JUMPDEST SWAP1 POP SWAP2 SWAP1 POP JUMP JUMPDEST PUSH32 0x4E487B7100000000000000000000000000000000000000000000000000000000 PUSH0 MSTORE PUSH1 0x32 PUSH1 0x4 MSTORE PUSH1 0x24 PUSH0 REVERT JUMPDEST PUSH0 PUSH1 0x40 DUP3 ADD SWAP1 POP PUSH2 0xBDB PUSH0 DUP4 ADD DUP6 PUSH2 0x5F7 JUMP JUMPDEST PUSH2 0xBE8 PUSH1 0x20 DUP4 ADD DUP5 PUSH2 0x5F7 JUMP JUMPDEST SWAP4 SWAP3 POP POP POP JUMP INVALID LOG2 PUSH5 0x6970667358 0x22 SLT KECCAK256 TSTORE 0x1F ADD STOP 0xDE 0xB4 0xFC DUP1 DUP15 0xDD 0xDC SWAP3 CREATE 0xE5 0xE4 0xCB 0xBA SELFBALANCE SWAP12 0xD2 DUP4 PUSH17 0x6CAB0008C8B9548CC9C564736F6C634300 ADDMOD BYTE STOP CALLER "
				},
				"gasEstimates": {
					"creation": {
						"codeDepositCost": "621800",
						"executionCost": "infinite",
						"totalCost": "infinite"
					},
					"external": {
						"LINK()": "infinite",
						"fundContract(uint256)": "infinite",
						"getLINKBalance()": "infinite",
						"randomId()": "2402",
						"rawFulfillRandomWords(uint256,uint256[])": "infinite",
						"requestRandomID()": "infinite"
					},
					"internal": {
						"fulfillRandomWords(uint256,uint256[] memory)": "infinite"
					}
				},
				"methodIdentifiers": {
					"LINK()": "1b6b6d23",
					"fundContract(uint256)": "3519a2f8",
					"getLINKBalance()": "ac428e7a",
					"randomId()": "0ab14d8a",
					"rawFulfillRandomWords(uint256,uint256[])": "1fe543e3",
					"requestRandomID()": "6765b256"
				}
			},
			"storageLayout": {
				"storage": [
					{
						"astId": 159,
						"contract": "contracts/Random/testR.sol:RandomIDGeneratorV2",
						"label": "randomId",
						"offset": 0,
						"slot": "0",
						"type": "t_uint256"
					},
					{
						"astId": 161,
						"contract": "contracts/Random/testR.sol:RandomIDGeneratorV2",
						"label": "s_requestId",
						"offset": 0,
						"slot": "1",
						"type": "t_uint256"
					},
					{
						"astId": 163,
						"contract": "contracts/Random/testR.sol:RandomIDGeneratorV2",
						"label": "keyHash",
						"offset": 0,
						"slot": "2",
						"type": "t_bytes32"
					},
					{
						"astId": 165,
						"contract": "contracts/Random/testR.sol:RandomIDGeneratorV2",
						"label": "subscriptionId",
						"offset": 0,
						"slot": "3",
						"type": "t_uint64"
					},
					{
						"astId": 168,
						"contract": "contracts/Random/testR.sol:RandomIDGeneratorV2",
						"label": "callbackGasLimit",
						"offset": 8,
						"slot": "3",
						"type": "t_uint32"
					},
					{
						"astId": 171,
						"contract": "contracts/Random/testR.sol:RandomIDGeneratorV2",
						"label": "minimumRequestConfirmations",
						"offset": 12,
						"slot": "3",
						"type": "t_uint16"
					},
					{
						"astId": 174,
						"contract": "contracts/Random/testR.sol:RandomIDGeneratorV2",
						"label": "numWords",
						"offset": 14,
						"slot": "3",
						"type": "t_uint32"
					},
					{
						"astId": 176,
						"contract": "contracts/Random/testR.sol:RandomIDGeneratorV2",
						"label": "utest",
						"offset": 0,
						"slot": "4",
						"type": "t_address"
					},
					{
						"astId": 179,
						"contract": "contracts/Random/testR.sol:RandomIDGeneratorV2",
						"label": "LINK",
						"offset": 0,
						"slot": "5",
						"type": "t_contract(IERC20)135"
					}
				],
				"types": {
					"t_address": {
						"encoding": "inplace",
						"label": "address",
						"numberOfBytes": "20"
					},
					"t_bytes32": {
						"encoding": "inplace",
						"label": "bytes32",
						"numberOfBytes": "32"
					},
					"t_contract(IERC20)135": {
						"encoding": "inplace",
						"label": "contract IERC20",
						"numberOfBytes": "20"
					},
					"t_uint16": {
						"encoding": "inplace",
						"label": "uint16",
						"numberOfBytes": "2"
					},
					"t_uint256": {
						"encoding": "inplace",
						"label": "uint256",
						"numberOfBytes": "32"
					},
					"t_uint32": {
						"encoding": "inplace",
						"label": "uint32",
						"numberOfBytes": "4"
					},
					"t_uint64": {
						"encoding": "inplace",
						"label": "uint64",
						"numberOfBytes": "8"
					}
				}
			},
			"userdoc": {
				"kind": "user",
				"methods": {},
				"version": 1
			}
		}
	}
}