{
	"data": {
		"bytecode": {
			"linkReferences": {},
			"object": "6080604052348015600e575f80fd5b506108658061001c5f395ff3fe608060405260043610610042575f3560e01c8063192152fa1461004d5780633ca065bb1461006957806366563e691461008557806367e3f09a146100c157610049565b3661004957005b5f80fd5b610067600480360381019061006291906105b6565b6100fd565b005b610083600480360381019061007e91906105b6565b610235565b005b348015610090575f80fd5b506100ab60048036038101906100a6919061062f565b61036d565b6040516100b89190610669565b60405180910390f35b3480156100cc575f80fd5b506100e760048036038101906100e291906106bd565b6104b0565b6040516100f49190610669565b60405180910390f35b5f808373ffffffffffffffffffffffffffffffffffffffff1683846040516024016101289190610669565b6040516020818303038152906040527f4018d9aa000000000000000000000000000000000000000000000000000000007bffffffffffffffffffffffffffffffffffffffffffffffffffffffff19166020820180517bffffffffffffffffffffffffffffffffffffffffffffffffffffffff83818316178352505050506040516101b2919061073a565b5f6040518083038185875af1925050503d805f81146101ec576040519150601f19603f3d011682016040523d82523d5f602084013e6101f1565b606091505b50915091507f13848c3e38f8886f3f5d2ad9dff80d8092c2bbb8efd5b887a99c2c6cfc09ac2a82826040516102279291906107c2565b60405180910390a150505050565b5f808373ffffffffffffffffffffffffffffffffffffffff1634846040516024016102609190610669565b6040516020818303038152906040527f4018d9aa000000000000000000000000000000000000000000000000000000007bffffffffffffffffffffffffffffffffffffffffffffffffffffffff19166020820180517bffffffffffffffffffffffffffffffffffffffffffffffffffffffff83818316178352505050506040516102ea919061073a565b5f6040518083038185875af1925050503d805f8114610324576040519150601f19603f3d011682016040523d82523d5f602084013e610329565b606091505b50915091507f13848c3e38f8886f3f5d2ad9dff80d8092c2bbb8efd5b887a99c2c6cfc09ac2a828260405161035f9291906107c2565b60405180910390a150505050565b5f805f8373ffffffffffffffffffffffffffffffffffffffff166040516024016040516020818303038152906040527f5197c7aa000000000000000000000000000000000000000000000000000000007bffffffffffffffffffffffffffffffffffffffffffffffffffffffff19166020820180517bffffffffffffffffffffffffffffffffffffffffffffffffffffffff8381831617835250505050604051610417919061073a565b5f604051808303815f865af19150503d805f8114610450576040519150601f19603f3d011682016040523d82523d5f602084013e610455565b606091505b50915091507f13848c3e38f8886f3f5d2ad9dff80d8092c2bbb8efd5b887a99c2c6cfc09ac2a828260405161048b9291906107c2565b60405180910390a1808060200190518101906104a79190610804565b92505050919050565b5f8173ffffffffffffffffffffffffffffffffffffffff16635197c7aa6040518163ffffffff1660e01b8152600401602060405180830381865afa1580156104fa573d5f803e3d5ffd5b505050506040513d601f19601f8201168201806040525081019061051e9190610804565b9050919050565b5f80fd5b5f73ffffffffffffffffffffffffffffffffffffffff82169050919050565b5f61055282610529565b9050919050565b61056281610548565b811461056c575f80fd5b50565b5f8135905061057d81610559565b92915050565b5f819050919050565b61059581610583565b811461059f575f80fd5b50565b5f813590506105b08161058c565b92915050565b5f80604083850312156105cc576105cb610525565b5b5f6105d98582860161056f565b92505060206105ea858286016105a2565b9150509250929050565b5f6105fe82610529565b9050919050565b61060e816105f4565b8114610618575f80fd5b50565b5f8135905061062981610605565b92915050565b5f6020828403121561064457610643610525565b5b5f6106518482850161061b565b91505092915050565b61066381610583565b82525050565b5f60208201905061067c5f83018461065a565b92915050565b5f61068c82610548565b9050919050565b61069c81610682565b81146106a6575f80fd5b50565b5f813590506106b781610693565b92915050565b5f602082840312156106d2576106d1610525565b5b5f6106df848285016106a9565b91505092915050565b5f81519050919050565b5f81905092915050565b8281835e5f83830152505050565b5f610714826106e8565b61071e81856106f2565b935061072e8185602086016106fc565b80840191505092915050565b5f610745828461070a565b915081905092915050565b5f8115159050919050565b61076481610750565b82525050565b5f82825260208201905092915050565b5f601f19601f8301169050919050565b5f610794826106e8565b61079e818561076a565b93506107ae8185602086016106fc565b6107b78161077a565b840191505092915050565b5f6040820190506107d55f83018561075b565b81810360208301526107e7818461078a565b90509392505050565b5f815190506107fe8161058c565b92915050565b5f6020828403121561081957610818610525565b5b5f610826848285016107f0565b9150509291505056fea264697066735822122010262bdc1634961288a1a4be56deae4892aba0918abd26d97656fff63258eb7f64736f6c634300081a0033",
			"opcodes": "PUSH1 0x80 PUSH1 0x40 MSTORE CALLVALUE DUP1 ISZERO PUSH1 0xE JUMPI PUSH0 DUP1 REVERT JUMPDEST POP PUSH2 0x865 DUP1 PUSH2 0x1C PUSH0 CODECOPY PUSH0 RETURN INVALID PUSH1 0x80 PUSH1 0x40 MSTORE PUSH1 0x4 CALLDATASIZE LT PUSH2 0x42 JUMPI PUSH0 CALLDATALOAD PUSH1 0xE0 SHR DUP1 PUSH4 0x192152FA EQ PUSH2 0x4D JUMPI DUP1 PUSH4 0x3CA065BB EQ PUSH2 0x69 JUMPI DUP1 PUSH4 0x66563E69 EQ PUSH2 0x85 JUMPI DUP1 PUSH4 0x67E3F09A EQ PUSH2 0xC1 JUMPI PUSH2 0x49 JUMP JUMPDEST CALLDATASIZE PUSH2 0x49 JUMPI STOP JUMPDEST PUSH0 DUP1 REVERT JUMPDEST PUSH2 0x67 PUSH1 0x4 DUP1 CALLDATASIZE SUB DUP2 ADD SWAP1 PUSH2 0x62 SWAP2 SWAP1 PUSH2 0x5B6 JUMP JUMPDEST PUSH2 0xFD JUMP JUMPDEST STOP JUMPDEST PUSH2 0x83 PUSH1 0x4 DUP1 CALLDATASIZE SUB DUP2 ADD SWAP1 PUSH2 0x7E SWAP2 SWAP1 PUSH2 0x5B6 JUMP JUMPDEST PUSH2 0x235 JUMP JUMPDEST STOP JUMPDEST CALLVALUE DUP1 ISZERO PUSH2 0x90 JUMPI PUSH0 DUP1 REVERT JUMPDEST POP PUSH2 0xAB PUSH1 0x4 DUP1 CALLDATASIZE SUB DUP2 ADD SWAP1 PUSH2 0xA6 SWAP2 SWAP1 PUSH2 0x62F JUMP JUMPDEST PUSH2 0x36D JUMP JUMPDEST PUSH1 0x40 MLOAD PUSH2 0xB8 SWAP2 SWAP1 PUSH2 0x669 JUMP JUMPDEST PUSH1 0x40 MLOAD DUP1 SWAP2 SUB SWAP1 RETURN JUMPDEST CALLVALUE DUP1 ISZERO PUSH2 0xCC JUMPI PUSH0 DUP1 REVERT JUMPDEST POP PUSH2 0xE7 PUSH1 0x4 DUP1 CALLDATASIZE SUB DUP2 ADD SWAP1 PUSH2 0xE2 SWAP2 SWAP1 PUSH2 0x6BD JUMP JUMPDEST PUSH2 0x4B0 JUMP JUMPDEST PUSH1 0x40 MLOAD PUSH2 0xF4 SWAP2 SWAP1 PUSH2 0x669 JUMP JUMPDEST PUSH1 0x40 MLOAD DUP1 SWAP2 SUB SWAP1 RETURN JUMPDEST PUSH0 DUP1 DUP4 PUSH20 0xFFFFFFFFFFFFFFFFFFFFFFFFFFFFFFFFFFFFFFFF AND DUP4 DUP5 PUSH1 0x40 MLOAD PUSH1 0x24 ADD PUSH2 0x128 SWAP2 SWAP1 PUSH2 0x669 JUMP JUMPDEST PUSH1 0x40 MLOAD PUSH1 0x20 DUP2 DUP4 SUB SUB DUP2 MSTORE SWAP1 PUSH1 0x40 MSTORE PUSH32 0x4018D9AA00000000000000000000000000000000000000000000000000000000 PUSH28 0xFFFFFFFFFFFFFFFFFFFFFFFFFFFFFFFFFFFFFFFFFFFFFFFFFFFFFFFF NOT AND PUSH1 0x20 DUP3 ADD DUP1 MLOAD PUSH28 0xFFFFFFFFFFFFFFFFFFFFFFFFFFFFFFFFFFFFFFFFFFFFFFFFFFFFFFFF DUP4 DUP2 DUP4 AND OR DUP4 MSTORE POP POP POP POP PUSH1 0x40 MLOAD PUSH2 0x1B2 SWAP2 SWAP1 PUSH2 0x73A JUMP JUMPDEST PUSH0 PUSH1 0x40 MLOAD DUP1 DUP4 SUB DUP2 DUP6 DUP8 GAS CALL SWAP3 POP POP POP RETURNDATASIZE DUP1 PUSH0 DUP2 EQ PUSH2 0x1EC JUMPI PUSH1 0x40 MLOAD SWAP2 POP PUSH1 0x1F NOT PUSH1 0x3F RETURNDATASIZE ADD AND DUP3 ADD PUSH1 0x40 MSTORE RETURNDATASIZE DUP3 MSTORE RETURNDATASIZE PUSH0 PUSH1 0x20 DUP5 ADD RETURNDATACOPY PUSH2 0x1F1 JUMP JUMPDEST PUSH1 0x60 SWAP2 POP JUMPDEST POP SWAP2 POP SWAP2 POP PUSH32 0x13848C3E38F8886F3F5D2AD9DFF80D8092C2BBB8EFD5B887A99C2C6CFC09AC2A DUP3 DUP3 PUSH1 0x40 MLOAD PUSH2 0x227 SWAP3 SWAP2 SWAP1 PUSH2 0x7C2 JUMP JUMPDEST PUSH1 0x40 MLOAD DUP1 SWAP2 SUB SWAP1 LOG1 POP POP POP POP JUMP JUMPDEST PUSH0 DUP1 DUP4 PUSH20 0xFFFFFFFFFFFFFFFFFFFFFFFFFFFFFFFFFFFFFFFF AND CALLVALUE DUP5 PUSH1 0x40 MLOAD PUSH1 0x24 ADD PUSH2 0x260 SWAP2 SWAP1 PUSH2 0x669 JUMP JUMPDEST PUSH1 0x40 MLOAD PUSH1 0x20 DUP2 DUP4 SUB SUB DUP2 MSTORE SWAP1 PUSH1 0x40 MSTORE PUSH32 0x4018D9AA00000000000000000000000000000000000000000000000000000000 PUSH28 0xFFFFFFFFFFFFFFFFFFFFFFFFFFFFFFFFFFFFFFFFFFFFFFFFFFFFFFFF NOT AND PUSH1 0x20 DUP3 ADD DUP1 MLOAD PUSH28 0xFFFFFFFFFFFFFFFFFFFFFFFFFFFFFFFFFFFFFFFFFFFFFFFFFFFFFFFF DUP4 DUP2 DUP4 AND OR DUP4 MSTORE POP POP POP POP PUSH1 0x40 MLOAD PUSH2 0x2EA SWAP2 SWAP1 PUSH2 0x73A JUMP JUMPDEST PUSH0 PUSH1 0x40 MLOAD DUP1 DUP4 SUB DUP2 DUP6 DUP8 GAS CALL SWAP3 POP POP POP RETURNDATASIZE DUP1 PUSH0 DUP2 EQ PUSH2 0x324 JUMPI PUSH1 0x40 MLOAD SWAP2 POP PUSH1 0x1F NOT PUSH1 0x3F RETURNDATASIZE ADD AND DUP3 ADD PUSH1 0x40 MSTORE RETURNDATASIZE DUP3 MSTORE RETURNDATASIZE PUSH0 PUSH1 0x20 DUP5 ADD RETURNDATACOPY PUSH2 0x329 JUMP JUMPDEST PUSH1 0x60 SWAP2 POP JUMPDEST POP SWAP2 POP SWAP2 POP PUSH32 0x13848C3E38F8886F3F5D2AD9DFF80D8092C2BBB8EFD5B887A99C2C6CFC09AC2A DUP3 DUP3 PUSH1 0x40 MLOAD PUSH2 0x35F SWAP3 SWAP2 SWAP1 PUSH2 0x7C2 JUMP JUMPDEST PUSH1 0x40 MLOAD DUP1 SWAP2 SUB SWAP1 LOG1 POP POP POP POP JUMP JUMPDEST PUSH0 DUP1 PUSH0 DUP4 PUSH20 0xFFFFFFFFFFFFFFFFFFFFFFFFFFFFFFFFFFFFFFFF AND PUSH1 0x40 MLOAD PUSH1 0x24 ADD PUSH1 0x40 MLOAD PUSH1 0x20 DUP2 DUP4 SUB SUB DUP2 MSTORE SWAP1 PUSH1 0x40 MSTORE PUSH32 0x5197C7AA00000000000000000000000000000000000000000000000000000000 PUSH28 0xFFFFFFFFFFFFFFFFFFFFFFFFFFFFFFFFFFFFFFFFFFFFFFFFFFFFFFFF NOT AND PUSH1 0x20 DUP3 ADD DUP1 MLOAD PUSH28 0xFFFFFFFFFFFFFFFFFFFFFFFFFFFFFFFFFFFFFFFFFFFFFFFFFFFFFFFF DUP4 DUP2 DUP4 AND OR DUP4 MSTORE POP POP POP POP PUSH1 0x40 MLOAD PUSH2 0x417 SWAP2 SWAP1 PUSH2 0x73A JUMP JUMPDEST PUSH0 PUSH1 0x40 MLOAD DUP1 DUP4 SUB DUP2 PUSH0 DUP7 GAS CALL SWAP2 POP POP RETURNDATASIZE DUP1 PUSH0 DUP2 EQ PUSH2 0x450 JUMPI PUSH1 0x40 MLOAD SWAP2 POP PUSH1 0x1F NOT PUSH1 0x3F RETURNDATASIZE ADD AND DUP3 ADD PUSH1 0x40 MSTORE RETURNDATASIZE DUP3 MSTORE RETURNDATASIZE PUSH0 PUSH1 0x20 DUP5 ADD RETURNDATACOPY PUSH2 0x455 JUMP JUMPDEST PUSH1 0x60 SWAP2 POP JUMPDEST POP SWAP2 POP SWAP2 POP PUSH32 0x13848C3E38F8886F3F5D2AD9DFF80D8092C2BBB8EFD5B887A99C2C6CFC09AC2A DUP3 DUP3 PUSH1 0x40 MLOAD PUSH2 0x48B SWAP3 SWAP2 SWAP1 PUSH2 0x7C2 JUMP JUMPDEST PUSH1 0x40 MLOAD DUP1 SWAP2 SUB SWAP1 LOG1 DUP1 DUP1 PUSH1 0x20 ADD SWAP1 MLOAD DUP2 ADD SWAP1 PUSH2 0x4A7 SWAP2 SWAP1 PUSH2 0x804 JUMP JUMPDEST SWAP3 POP POP POP SWAP2 SWAP1 POP JUMP JUMPDEST PUSH0 DUP2 PUSH20 0xFFFFFFFFFFFFFFFFFFFFFFFFFFFFFFFFFFFFFFFF AND PUSH4 0x5197C7AA PUSH1 0x40 MLOAD DUP2 PUSH4 0xFFFFFFFF AND PUSH1 0xE0 SHL DUP2 MSTORE PUSH1 0x4 ADD PUSH1 0x20 PUSH1 0x40 MLOAD DUP1 DUP4 SUB DUP2 DUP7 GAS STATICCALL ISZERO DUP1 ISZERO PUSH2 0x4FA JUMPI RETURNDATASIZE PUSH0 DUP1 RETURNDATACOPY RETURNDATASIZE PUSH0 REVERT JUMPDEST POP POP POP POP PUSH1 0x40 MLOAD RETURNDATASIZE PUSH1 0x1F NOT PUSH1 0x1F DUP3 ADD AND DUP3 ADD DUP1 PUSH1 0x40 MSTORE POP DUP2 ADD SWAP1 PUSH2 0x51E SWAP2 SWAP1 PUSH2 0x804 JUMP JUMPDEST SWAP1 POP SWAP2 SWAP1 POP JUMP JUMPDEST PUSH0 DUP1 REVERT JUMPDEST PUSH0 PUSH20 0xFFFFFFFFFFFFFFFFFFFFFFFFFFFFFFFFFFFFFFFF DUP3 AND SWAP1 POP SWAP2 SWAP1 POP JUMP JUMPDEST PUSH0 PUSH2 0x552 DUP3 PUSH2 0x529 JUMP JUMPDEST SWAP1 POP SWAP2 SWAP1 POP JUMP JUMPDEST PUSH2 0x562 DUP2 PUSH2 0x548 JUMP JUMPDEST DUP2 EQ PUSH2 0x56C JUMPI PUSH0 DUP1 REVERT JUMPDEST POP JUMP JUMPDEST PUSH0 DUP2 CALLDATALOAD SWAP1 POP PUSH2 0x57D DUP2 PUSH2 0x559 JUMP JUMPDEST SWAP3 SWAP2 POP POP JUMP JUMPDEST PUSH0 DUP2 SWAP1 POP SWAP2 SWAP1 POP JUMP JUMPDEST PUSH2 0x595 DUP2 PUSH2 0x583 JUMP JUMPDEST DUP2 EQ PUSH2 0x59F JUMPI PUSH0 DUP1 REVERT JUMPDEST POP JUMP JUMPDEST PUSH0 DUP2 CALLDATALOAD SWAP1 POP PUSH2 0x5B0 DUP2 PUSH2 0x58C JUMP JUMPDEST SWAP3 SWAP2 POP POP JUMP JUMPDEST PUSH0 DUP1 PUSH1 0x40 DUP4 DUP6 SUB SLT ISZERO PUSH2 0x5CC JUMPI PUSH2 0x5CB PUSH2 0x525 JUMP JUMPDEST JUMPDEST PUSH0 PUSH2 0x5D9 DUP6 DUP3 DUP7 ADD PUSH2 0x56F JUMP JUMPDEST SWAP3 POP POP PUSH1 0x20 PUSH2 0x5EA DUP6 DUP3 DUP7 ADD PUSH2 0x5A2 JUMP JUMPDEST SWAP2 POP POP SWAP3 POP SWAP3 SWAP1 POP JUMP JUMPDEST PUSH0 PUSH2 0x5FE DUP3 PUSH2 0x529 JUMP JUMPDEST SWAP1 POP SWAP2 SWAP1 POP JUMP JUMPDEST PUSH2 0x60E DUP2 PUSH2 0x5F4 JUMP JUMPDEST DUP2 EQ PUSH2 0x618 JUMPI PUSH0 DUP1 REVERT JUMPDEST POP JUMP JUMPDEST PUSH0 DUP2 CALLDATALOAD SWAP1 POP PUSH2 0x629 DUP2 PUSH2 0x605 JUMP JUMPDEST SWAP3 SWAP2 POP POP JUMP JUMPDEST PUSH0 PUSH1 0x20 DUP3 DUP5 SUB SLT ISZERO PUSH2 0x644 JUMPI PUSH2 0x643 PUSH2 0x525 JUMP JUMPDEST JUMPDEST PUSH0 PUSH2 0x651 DUP5 DUP3 DUP6 ADD PUSH2 0x61B JUMP JUMPDEST SWAP2 POP POP SWAP3 SWAP2 POP POP JUMP JUMPDEST PUSH2 0x663 DUP2 PUSH2 0x583 JUMP JUMPDEST DUP3 MSTORE POP POP JUMP JUMPDEST PUSH0 PUSH1 0x20 DUP3 ADD SWAP1 POP PUSH2 0x67C PUSH0 DUP4 ADD DUP5 PUSH2 0x65A JUMP JUMPDEST SWAP3 SWAP2 POP POP JUMP JUMPDEST PUSH0 PUSH2 0x68C DUP3 PUSH2 0x548 JUMP JUMPDEST SWAP1 POP SWAP2 SWAP1 POP JUMP JUMPDEST PUSH2 0x69C DUP2 PUSH2 0x682 JUMP JUMPDEST DUP2 EQ PUSH2 0x6A6 JUMPI PUSH0 DUP1 REVERT JUMPDEST POP JUMP JUMPDEST PUSH0 DUP2 CALLDATALOAD SWAP1 POP PUSH2 0x6B7 DUP2 PUSH2 0x693 JUMP JUMPDEST SWAP3 SWAP2 POP POP JUMP JUMPDEST PUSH0 PUSH1 0x20 DUP3 DUP5 SUB SLT ISZERO PUSH2 0x6D2 JUMPI PUSH2 0x6D1 PUSH2 0x525 JUMP JUMPDEST JUMPDEST PUSH0 PUSH2 0x6DF DUP5 DUP3 DUP6 ADD PUSH2 0x6A9 JUMP JUMPDEST SWAP2 POP POP SWAP3 SWAP2 POP POP JUMP JUMPDEST PUSH0 DUP2 MLOAD SWAP1 POP SWAP2 SWAP1 POP JUMP JUMPDEST PUSH0 DUP2 SWAP1 POP SWAP3 SWAP2 POP POP JUMP JUMPDEST DUP3 DUP2 DUP4 MCOPY PUSH0 DUP4 DUP4 ADD MSTORE POP POP POP JUMP JUMPDEST PUSH0 PUSH2 0x714 DUP3 PUSH2 0x6E8 JUMP JUMPDEST PUSH2 0x71E DUP2 DUP6 PUSH2 0x6F2 JUMP JUMPDEST SWAP4 POP PUSH2 0x72E DUP2 DUP6 PUSH1 0x20 DUP7 ADD PUSH2 0x6FC JUMP JUMPDEST DUP1 DUP5 ADD SWAP2 POP POP SWAP3 SWAP2 POP POP JUMP JUMPDEST PUSH0 PUSH2 0x745 DUP3 DUP5 PUSH2 0x70A JUMP JUMPDEST SWAP2 POP DUP2 SWAP1 POP SWAP3 SWAP2 POP POP JUMP JUMPDEST PUSH0 DUP2 ISZERO ISZERO SWAP1 POP SWAP2 SWAP1 POP JUMP JUMPDEST PUSH2 0x764 DUP2 PUSH2 0x750 JUMP JUMPDEST DUP3 MSTORE POP POP JUMP JUMPDEST PUSH0 DUP3 DUP3 MSTORE PUSH1 0x20 DUP3 ADD SWAP1 POP SWAP3 SWAP2 POP POP JUMP JUMPDEST PUSH0 PUSH1 0x1F NOT PUSH1 0x1F DUP4 ADD AND SWAP1 POP SWAP2 SWAP1 POP JUMP JUMPDEST PUSH0 PUSH2 0x794 DUP3 PUSH2 0x6E8 JUMP JUMPDEST PUSH2 0x79E DUP2 DUP6 PUSH2 0x76A JUMP JUMPDEST SWAP4 POP PUSH2 0x7AE DUP2 DUP6 PUSH1 0x20 DUP7 ADD PUSH2 0x6FC JUMP JUMPDEST PUSH2 0x7B7 DUP2 PUSH2 0x77A JUMP JUMPDEST DUP5 ADD SWAP2 POP POP SWAP3 SWAP2 POP POP JUMP JUMPDEST PUSH0 PUSH1 0x40 DUP3 ADD SWAP1 POP PUSH2 0x7D5 PUSH0 DUP4 ADD DUP6 PUSH2 0x75B JUMP JUMPDEST DUP2 DUP2 SUB PUSH1 0x20 DUP4 ADD MSTORE PUSH2 0x7E7 DUP2 DUP5 PUSH2 0x78A JUMP JUMPDEST SWAP1 POP SWAP4 SWAP3 POP POP POP JUMP JUMPDEST PUSH0 DUP2 MLOAD SWAP1 POP PUSH2 0x7FE DUP2 PUSH2 0x58C JUMP JUMPDEST SWAP3 SWAP2 POP POP JUMP JUMPDEST PUSH0 PUSH1 0x20 DUP3 DUP5 SUB SLT ISZERO PUSH2 0x819 JUMPI PUSH2 0x818 PUSH2 0x525 JUMP JUMPDEST JUMPDEST PUSH0 PUSH2 0x826 DUP5 DUP3 DUP6 ADD PUSH2 0x7F0 JUMP JUMPDEST SWAP2 POP POP SWAP3 SWAP2 POP POP JUMP INVALID LOG2 PUSH5 0x6970667358 0x22 SLT KECCAK256 LT 0x26 0x2B 0xDC AND CALLVALUE SWAP7 SLT DUP9 LOG1 LOG4 0xBE JUMP 0xDE 0xAE BASEFEE SWAP3 0xAB LOG0 SWAP2 DUP11 0xBD 0x26 0xD9 PUSH23 0x56FFF63258EB7F64736F6C634300081A00330000000000 "
		},
		"gasEstimates": {
			"creation": {
				"codeDepositCost": "429800",
				"executionCost": "466",
				"totalCost": "430266"
			},
			"external": {
				"callGetX(address)": "infinite",
				"callSetX(address,uint256)": "infinite",
				"callSetX2(address,uint256)": "infinite",
				"getXSample1(address)": "infinite"
			}
		},
		"methodIdentifiers": {
			"callGetX(address)": "66563e69",
			"callSetX(address,uint256)": "3ca065bb",
			"callSetX2(address,uint256)": "192152fa",
			"getXSample1(address)": "67e3f09a"
		}
	},
	"abi": [
		{
			"anonymous": false,
			"inputs": [
				{
					"indexed": false,
					"internalType": "bool",
					"name": "success",
					"type": "bool"
				},
				{
					"indexed": false,
					"internalType": "bytes",
					"name": "data",
					"type": "bytes"
				}
			],
			"name": "Response",
			"type": "event"
		},
		{
			"inputs": [
				{
					"internalType": "address",
					"name": "_addr",
					"type": "address"
				}
			],
			"name": "callGetX",
			"outputs": [
				{
					"internalType": "uint256",
					"name": "",
					"type": "uint256"
				}
			],
			"stateMutability": "nonpayable",
			"type": "function"
		},
		{
			"inputs": [
				{
					"internalType": "address payable",
					"name": "_addr",
					"type": "address"
				},
				{
					"internalType": "uint256",
					"name": "x",
					"type": "uint256"
				}
			],
			"name": "callSetX",
			"outputs": [],
			"stateMutability": "payable",
			"type": "function"
		},
		{
			"inputs": [
				{
					"internalType": "address payable",
					"name": "_addr",
					"type": "address"
				},
				{
					"internalType": "uint256",
					"name": "x",
					"type": "uint256"
				}
			],
			"name": "callSetX2",
			"outputs": [],
			"stateMutability": "payable",
			"type": "function"
		},
		{
			"inputs": [
				{
					"internalType": "contract OtherContract",
					"name": "addr",
					"type": "address"
				}
			],
			"name": "getXSample1",
			"outputs": [
				{
					"internalType": "uint256",
					"name": "_x",
					"type": "uint256"
				}
			],
			"stateMutability": "nonpayable",
			"type": "function"
		},
		{
			"stateMutability": "payable",
			"type": "receive"
		}
	]
}