{
	"contracts/study/Struct.sol": {
		"Struct": {
			"abi": [
				{
					"inputs": [],
					"name": "initStudent1",
					"outputs": [],
					"stateMutability": "nonpayable",
					"type": "function"
				},
				{
					"inputs": [],
					"name": "initStudent2",
					"outputs": [],
					"stateMutability": "nonpayable",
					"type": "function"
				},
				{
					"inputs": [],
					"name": "initStudent3",
					"outputs": [],
					"stateMutability": "nonpayable",
					"type": "function"
				},
				{
					"inputs": [],
					"name": "initStudent4",
					"outputs": [],
					"stateMutability": "nonpayable",
					"type": "function"
				},
				{
					"inputs": [],
					"name": "student",
					"outputs": [
						{
							"internalType": "uint256",
							"name": "id",
							"type": "uint256"
						},
						{
							"internalType": "uint256",
							"name": "score",
							"type": "uint256"
						}
					],
					"stateMutability": "view",
					"type": "function"
				},
				{
					"inputs": [
						{
							"internalType": "uint256",
							"name": "",
							"type": "uint256"
						}
					],
					"name": "testVar",
					"outputs": [
						{
							"internalType": "uint256",
							"name": "id",
							"type": "uint256"
						},
						{
							"internalType": "uint256",
							"name": "score",
							"type": "uint256"
						}
					],
					"stateMutability": "view",
					"type": "function"
				}
			],
			"devdoc": {
				"kind": "dev",
				"methods": {},
				"version": 1
			},
			"evm": {
				"assembly": "    /* \"contracts/study/Struct.sol\":58:666  contract Struct {... */\n  mstore(0x40, 0x80)\n  callvalue\n  dup1\n  iszero\n  tag_1\n  jumpi\n  revert(0x00, 0x00)\ntag_1:\n  pop\n  dataSize(sub_0)\n  dup1\n  dataOffset(sub_0)\n  0x00\n  codecopy\n  0x00\n  return\nstop\n\nsub_0: assembly {\n        /* \"contracts/study/Struct.sol\":58:666  contract Struct {... */\n      mstore(0x40, 0x80)\n      callvalue\n      dup1\n      iszero\n      tag_1\n      jumpi\n      revert(0x00, 0x00)\n    tag_1:\n      pop\n      jumpi(tag_2, lt(calldatasize, 0x04))\n      shr(0xe0, calldataload(0x00))\n      dup1\n      0x1a8d7dc3\n      eq\n      tag_3\n      jumpi\n      dup1\n      0x5a4236b1\n      eq\n      tag_4\n      jumpi\n      dup1\n      0x699450e8\n      eq\n      tag_5\n      jumpi\n      dup1\n      0x9ebb8d20\n      eq\n      tag_6\n      jumpi\n      dup1\n      0xa8b63e6f\n      eq\n      tag_7\n      jumpi\n      dup1\n      0xb25fec49\n      eq\n      tag_8\n      jumpi\n    tag_2:\n      revert(0x00, 0x00)\n        /* \"contracts/study/Struct.sol\":399:491  function initStudent2() external {... */\n    tag_3:\n      tag_9\n      tag_10\n      jump\t// in\n    tag_9:\n      stop\n        /* \"contracts/study/Struct.sol\":497:571  function initStudent3() external {... */\n    tag_4:\n      tag_11\n      tag_12\n      jump\t// in\n    tag_11:\n      stop\n        /* \"contracts/study/Struct.sol\":151:173  Student public student */\n    tag_5:\n      tag_13\n      tag_14\n      jump\t// in\n    tag_13:\n      mload(0x40)\n      tag_15\n      swap3\n      swap2\n      swap1\n      tag_16\n      jump\t// in\n    tag_15:\n      mload(0x40)\n      dup1\n      swap2\n      sub\n      swap1\n      return\n        /* \"contracts/study/Struct.sol\":577:664  function initStudent4() external {... */\n    tag_6:\n      tag_17\n      tag_18\n      jump\t// in\n    tag_17:\n      stop\n        /* \"contracts/study/Struct.sol\":225:393  function initStudent1() external {... */\n    tag_7:\n      tag_19\n      tag_20\n      jump\t// in\n    tag_19:\n      stop\n        /* \"contracts/study/Struct.sol\":179:218  mapping(uint => Student) public testVar */\n    tag_8:\n      tag_21\n      0x04\n      dup1\n      calldatasize\n      sub\n      dup2\n      add\n      swap1\n      tag_22\n      swap2\n      swap1\n      tag_23\n      jump\t// in\n    tag_22:\n      tag_24\n      jump\t// in\n    tag_21:\n      mload(0x40)\n      tag_25\n      swap3\n      swap2\n      swap1\n      tag_16\n      jump\t// in\n    tag_25:\n      mload(0x40)\n      dup1\n      swap2\n      sub\n      swap1\n      return\n        /* \"contracts/study/Struct.sol\":399:491  function initStudent2() external {... */\n    tag_10:\n        /* \"contracts/study/Struct.sol\":455:456  1 */\n      0x01\n        /* \"contracts/study/Struct.sol\":442:449  student */\n      0x00\n        /* \"contracts/study/Struct.sol\":442:452  student.id */\n      0x00\n      add\n        /* \"contracts/study/Struct.sol\":442:456  student.id = 1 */\n      dup2\n      swap1\n      sstore\n      pop\n        /* \"contracts/study/Struct.sol\":482:484  80 */\n      0x50\n        /* \"contracts/study/Struct.sol\":466:473  student */\n      0x00\n        /* \"contracts/study/Struct.sol\":466:479  student.score */\n      0x01\n      add\n        /* \"contracts/study/Struct.sol\":466:484  student.score = 80 */\n      dup2\n      swap1\n      sstore\n      pop\n        /* \"contracts/study/Struct.sol\":399:491  function initStudent2() external {... */\n      jump\t// out\n        /* \"contracts/study/Struct.sol\":497:571  function initStudent3() external {... */\n    tag_12:\n        /* \"contracts/study/Struct.sol\":550:564  Student(3, 90) */\n      mload(0x40)\n      dup1\n      0x40\n      add\n      0x40\n      mstore\n      dup1\n        /* \"contracts/study/Struct.sol\":558:559  3 */\n      0x03\n        /* \"contracts/study/Struct.sol\":550:564  Student(3, 90) */\n      dup2\n      mstore\n      0x20\n      add\n        /* \"contracts/study/Struct.sol\":561:563  90 */\n      0x5a\n        /* \"contracts/study/Struct.sol\":550:564  Student(3, 90) */\n      dup2\n      mstore\n      pop\n        /* \"contracts/study/Struct.sol\":540:547  student */\n      0x00\n        /* \"contracts/study/Struct.sol\":540:564  student = Student(3, 90) */\n      0x00\n      dup3\n      add\n      mload\n      dup2\n      0x00\n      add\n      sstore\n      0x20\n      dup3\n      add\n      mload\n      dup2\n      0x01\n      add\n      sstore\n      swap1\n      pop\n      pop\n        /* \"contracts/study/Struct.sol\":497:571  function initStudent3() external {... */\n      jump\t// out\n        /* \"contracts/study/Struct.sol\":151:173  Student public student */\n    tag_14:\n      0x00\n      dup1\n      0x00\n      add\n      sload\n      swap1\n      dup1\n      0x01\n      add\n      sload\n      swap1\n      pop\n      dup3\n      jump\t// out\n        /* \"contracts/study/Struct.sol\":577:664  function initStudent4() external {... */\n    tag_18:\n        /* \"contracts/study/Struct.sol\":630:657  Student({id: 4, score: 60}) */\n      mload(0x40)\n      dup1\n      0x40\n      add\n      0x40\n      mstore\n      dup1\n        /* \"contracts/study/Struct.sol\":643:644  4 */\n      0x04\n        /* \"contracts/study/Struct.sol\":630:657  Student({id: 4, score: 60}) */\n      dup2\n      mstore\n      0x20\n      add\n        /* \"contracts/study/Struct.sol\":653:655  60 */\n      0x3c\n        /* \"contracts/study/Struct.sol\":630:657  Student({id: 4, score: 60}) */\n      dup2\n      mstore\n      pop\n        /* \"contracts/study/Struct.sol\":620:627  student */\n      0x00\n        /* \"contracts/study/Struct.sol\":620:657  student = Student({id: 4, score: 60}) */\n      0x00\n      dup3\n      add\n      mload\n      dup2\n      0x00\n      add\n      sstore\n      0x20\n      dup3\n      add\n      mload\n      dup2\n      0x01\n      add\n      sstore\n      swap1\n      pop\n      pop\n        /* \"contracts/study/Struct.sol\":577:664  function initStudent4() external {... */\n      jump\t// out\n        /* \"contracts/study/Struct.sol\":225:393  function initStudent1() external {... */\n    tag_20:\n        /* \"contracts/study/Struct.sol\":268:292  Student storage _student */\n      0x00\n        /* \"contracts/study/Struct.sol\":295:302  student */\n      0x00\n        /* \"contracts/study/Struct.sol\":268:302  Student storage _student = student */\n      swap1\n      pop\n        /* \"contracts/study/Struct.sol\":354:356  11 */\n      0x0b\n        /* \"contracts/study/Struct.sol\":340:348  _student */\n      dup2\n        /* \"contracts/study/Struct.sol\":340:351  _student.id */\n      0x00\n      add\n        /* \"contracts/study/Struct.sol\":340:356  _student.id = 11 */\n      dup2\n      swap1\n      sstore\n      pop\n        /* \"contracts/study/Struct.sol\":383:386  100 */\n      0x64\n        /* \"contracts/study/Struct.sol\":366:374  _student */\n      dup2\n        /* \"contracts/study/Struct.sol\":366:380  _student.score */\n      0x01\n      add\n        /* \"contracts/study/Struct.sol\":366:386  _student.score = 100 */\n      dup2\n      swap1\n      sstore\n      pop\n        /* \"contracts/study/Struct.sol\":258:393  {... */\n      pop\n        /* \"contracts/study/Struct.sol\":225:393  function initStudent1() external {... */\n      jump\t// out\n        /* \"contracts/study/Struct.sol\":179:218  mapping(uint => Student) public testVar */\n    tag_24:\n      mstore(0x20, 0x02)\n      dup1\n      0x00\n      mstore\n      keccak256(0x00, 0x40)\n      0x00\n      swap2\n      pop\n      swap1\n      pop\n      dup1\n      0x00\n      add\n      sload\n      swap1\n      dup1\n      0x01\n      add\n      sload\n      swap1\n      pop\n      dup3\n      jump\t// out\n        /* \"#utility.yul\":7:84   */\n    tag_30:\n        /* \"#utility.yul\":44:51   */\n      0x00\n        /* \"#utility.yul\":73:78   */\n      dup2\n        /* \"#utility.yul\":62:78   */\n      swap1\n      pop\n        /* \"#utility.yul\":7:84   */\n      swap2\n      swap1\n      pop\n      jump\t// out\n        /* \"#utility.yul\":90:208   */\n    tag_31:\n        /* \"#utility.yul\":177:201   */\n      tag_40\n        /* \"#utility.yul\":195:200   */\n      dup2\n        /* \"#utility.yul\":177:201   */\n      tag_30\n      jump\t// in\n    tag_40:\n        /* \"#utility.yul\":172:175   */\n      dup3\n        /* \"#utility.yul\":165:202   */\n      mstore\n        /* \"#utility.yul\":90:208   */\n      pop\n      pop\n      jump\t// out\n        /* \"#utility.yul\":214:546   */\n    tag_16:\n        /* \"#utility.yul\":335:339   */\n      0x00\n        /* \"#utility.yul\":373:375   */\n      0x40\n        /* \"#utility.yul\":362:371   */\n      dup3\n        /* \"#utility.yul\":358:376   */\n      add\n        /* \"#utility.yul\":350:376   */\n      swap1\n      pop\n        /* \"#utility.yul\":386:457   */\n      tag_42\n        /* \"#utility.yul\":454:455   */\n      0x00\n        /* \"#utility.yul\":443:452   */\n      dup4\n        /* \"#utility.yul\":439:456   */\n      add\n        /* \"#utility.yul\":430:436   */\n      dup6\n        /* \"#utility.yul\":386:457   */\n      tag_31\n      jump\t// in\n    tag_42:\n        /* \"#utility.yul\":467:539   */\n      tag_43\n        /* \"#utility.yul\":535:537   */\n      0x20\n        /* \"#utility.yul\":524:533   */\n      dup4\n        /* \"#utility.yul\":520:538   */\n      add\n        /* \"#utility.yul\":511:517   */\n      dup5\n        /* \"#utility.yul\":467:539   */\n      tag_31\n      jump\t// in\n    tag_43:\n        /* \"#utility.yul\":214:546   */\n      swap4\n      swap3\n      pop\n      pop\n      pop\n      jump\t// out\n        /* \"#utility.yul\":633:750   */\n    tag_33:\n        /* \"#utility.yul\":742:743   */\n      0x00\n        /* \"#utility.yul\":739:740   */\n      0x00\n        /* \"#utility.yul\":732:744   */\n      revert\n        /* \"#utility.yul\":879:1001   */\n    tag_35:\n        /* \"#utility.yul\":952:976   */\n      tag_48\n        /* \"#utility.yul\":970:975   */\n      dup2\n        /* \"#utility.yul\":952:976   */\n      tag_30\n      jump\t// in\n    tag_48:\n        /* \"#utility.yul\":945:950   */\n      dup2\n        /* \"#utility.yul\":942:977   */\n      eq\n        /* \"#utility.yul\":932:995   */\n      tag_49\n      jumpi\n        /* \"#utility.yul\":991:992   */\n      0x00\n        /* \"#utility.yul\":988:989   */\n      0x00\n        /* \"#utility.yul\":981:993   */\n      revert\n        /* \"#utility.yul\":932:995   */\n    tag_49:\n        /* \"#utility.yul\":879:1001   */\n      pop\n      jump\t// out\n        /* \"#utility.yul\":1007:1146   */\n    tag_36:\n        /* \"#utility.yul\":1053:1058   */\n      0x00\n        /* \"#utility.yul\":1091:1097   */\n      dup2\n        /* \"#utility.yul\":1078:1098   */\n      calldataload\n        /* \"#utility.yul\":1069:1098   */\n      swap1\n      pop\n        /* \"#utility.yul\":1107:1140   */\n      tag_51\n        /* \"#utility.yul\":1134:1139   */\n      dup2\n        /* \"#utility.yul\":1107:1140   */\n      tag_35\n      jump\t// in\n    tag_51:\n        /* \"#utility.yul\":1007:1146   */\n      swap3\n      swap2\n      pop\n      pop\n      jump\t// out\n        /* \"#utility.yul\":1152:1481   */\n    tag_23:\n        /* \"#utility.yul\":1211:1217   */\n      0x00\n        /* \"#utility.yul\":1260:1262   */\n      0x20\n        /* \"#utility.yul\":1248:1257   */\n      dup3\n        /* \"#utility.yul\":1239:1246   */\n      dup5\n        /* \"#utility.yul\":1235:1258   */\n      sub\n        /* \"#utility.yul\":1231:1263   */\n      slt\n        /* \"#utility.yul\":1228:1347   */\n      iszero\n      tag_53\n      jumpi\n        /* \"#utility.yul\":1266:1345   */\n      tag_54\n      tag_33\n      jump\t// in\n    tag_54:\n        /* \"#utility.yul\":1228:1347   */\n    tag_53:\n        /* \"#utility.yul\":1386:1387   */\n      0x00\n        /* \"#utility.yul\":1411:1464   */\n      tag_55\n        /* \"#utility.yul\":1456:1463   */\n      dup5\n        /* \"#utility.yul\":1447:1453   */\n      dup3\n        /* \"#utility.yul\":1436:1445   */\n      dup6\n        /* \"#utility.yul\":1432:1454   */\n      add\n        /* \"#utility.yul\":1411:1464   */\n      tag_36\n      jump\t// in\n    tag_55:\n        /* \"#utility.yul\":1401:1464   */\n      swap2\n      pop\n        /* \"#utility.yul\":1357:1474   */\n      pop\n        /* \"#utility.yul\":1152:1481   */\n      swap3\n      swap2\n      pop\n      pop\n      jump\t// out\n\n    auxdata: 0xa264697066735822122097b9b1e8c6c24d7b5ce7d7901cd1c0fa8ae1e53ccf7acc8cbbc7f2ce1b81b57164736f6c634300081c0033\n}\n",
				"bytecode": {
					"linkReferences": {},
					"object": "6080604052348015600e575f5ffd5b506102678061001c5f395ff3fe608060405234801561000f575f5ffd5b5060043610610060575f3560e01c80631a8d7dc3146100645780635a4236b11461006e578063699450e8146100785780639ebb8d2014610097578063a8b63e6f146100a1578063b25fec49146100ab575b5f5ffd5b61006c6100dc565b005b6100766100f1565b005b610080610120565b60405161008e9291906101b1565b60405180910390f35b61009f610130565b005b6100a961015f565b005b6100c560048036038101906100c09190610206565b610179565b6040516100d39291906101b1565b60405180910390f35b60015f5f018190555060505f60010181905550565b604051806040016040528060038152602001605a8152505f5f820151815f015560208201518160010155905050565b5f805f0154908060010154905082565b604051806040016040528060048152602001603c8152505f5f820151815f015560208201518160010155905050565b5f5f9050600b815f01819055506064816001018190555050565b6002602052805f5260405f205f91509050805f0154908060010154905082565b5f819050919050565b6101ab81610199565b82525050565b5f6040820190506101c45f8301856101a2565b6101d160208301846101a2565b9392505050565b5f5ffd5b6101e581610199565b81146101ef575f5ffd5b50565b5f81359050610200816101dc565b92915050565b5f6020828403121561021b5761021a6101d8565b5b5f610228848285016101f2565b9150509291505056fea264697066735822122097b9b1e8c6c24d7b5ce7d7901cd1c0fa8ae1e53ccf7acc8cbbc7f2ce1b81b57164736f6c634300081c0033",
					"opcodes": "PUSH1 0x80 PUSH1 0x40 MSTORE CALLVALUE DUP1 ISZERO PUSH1 0xE JUMPI PUSH0 PUSH0 REVERT JUMPDEST POP PUSH2 0x267 DUP1 PUSH2 0x1C PUSH0 CODECOPY PUSH0 RETURN INVALID PUSH1 0x80 PUSH1 0x40 MSTORE CALLVALUE DUP1 ISZERO PUSH2 0xF JUMPI PUSH0 PUSH0 REVERT JUMPDEST POP PUSH1 0x4 CALLDATASIZE LT PUSH2 0x60 JUMPI PUSH0 CALLDATALOAD PUSH1 0xE0 SHR DUP1 PUSH4 0x1A8D7DC3 EQ PUSH2 0x64 JUMPI DUP1 PUSH4 0x5A4236B1 EQ PUSH2 0x6E JUMPI DUP1 PUSH4 0x699450E8 EQ PUSH2 0x78 JUMPI DUP1 PUSH4 0x9EBB8D20 EQ PUSH2 0x97 JUMPI DUP1 PUSH4 0xA8B63E6F EQ PUSH2 0xA1 JUMPI DUP1 PUSH4 0xB25FEC49 EQ PUSH2 0xAB JUMPI JUMPDEST PUSH0 PUSH0 REVERT JUMPDEST PUSH2 0x6C PUSH2 0xDC JUMP JUMPDEST STOP JUMPDEST PUSH2 0x76 PUSH2 0xF1 JUMP JUMPDEST STOP JUMPDEST PUSH2 0x80 PUSH2 0x120 JUMP JUMPDEST PUSH1 0x40 MLOAD PUSH2 0x8E SWAP3 SWAP2 SWAP1 PUSH2 0x1B1 JUMP JUMPDEST PUSH1 0x40 MLOAD DUP1 SWAP2 SUB SWAP1 RETURN JUMPDEST PUSH2 0x9F PUSH2 0x130 JUMP JUMPDEST STOP JUMPDEST PUSH2 0xA9 PUSH2 0x15F JUMP JUMPDEST STOP JUMPDEST PUSH2 0xC5 PUSH1 0x4 DUP1 CALLDATASIZE SUB DUP2 ADD SWAP1 PUSH2 0xC0 SWAP2 SWAP1 PUSH2 0x206 JUMP JUMPDEST PUSH2 0x179 JUMP JUMPDEST PUSH1 0x40 MLOAD PUSH2 0xD3 SWAP3 SWAP2 SWAP1 PUSH2 0x1B1 JUMP JUMPDEST PUSH1 0x40 MLOAD DUP1 SWAP2 SUB SWAP1 RETURN JUMPDEST PUSH1 0x1 PUSH0 PUSH0 ADD DUP2 SWAP1 SSTORE POP PUSH1 0x50 PUSH0 PUSH1 0x1 ADD DUP2 SWAP1 SSTORE POP JUMP JUMPDEST PUSH1 0x40 MLOAD DUP1 PUSH1 0x40 ADD PUSH1 0x40 MSTORE DUP1 PUSH1 0x3 DUP2 MSTORE PUSH1 0x20 ADD PUSH1 0x5A DUP2 MSTORE POP PUSH0 PUSH0 DUP3 ADD MLOAD DUP2 PUSH0 ADD SSTORE PUSH1 0x20 DUP3 ADD MLOAD DUP2 PUSH1 0x1 ADD SSTORE SWAP1 POP POP JUMP JUMPDEST PUSH0 DUP1 PUSH0 ADD SLOAD SWAP1 DUP1 PUSH1 0x1 ADD SLOAD SWAP1 POP DUP3 JUMP JUMPDEST PUSH1 0x40 MLOAD DUP1 PUSH1 0x40 ADD PUSH1 0x40 MSTORE DUP1 PUSH1 0x4 DUP2 MSTORE PUSH1 0x20 ADD PUSH1 0x3C DUP2 MSTORE POP PUSH0 PUSH0 DUP3 ADD MLOAD DUP2 PUSH0 ADD SSTORE PUSH1 0x20 DUP3 ADD MLOAD DUP2 PUSH1 0x1 ADD SSTORE SWAP1 POP POP JUMP JUMPDEST PUSH0 PUSH0 SWAP1 POP PUSH1 0xB DUP2 PUSH0 ADD DUP2 SWAP1 SSTORE POP PUSH1 0x64 DUP2 PUSH1 0x1 ADD DUP2 SWAP1 SSTORE POP POP JUMP JUMPDEST PUSH1 0x2 PUSH1 0x20 MSTORE DUP1 PUSH0 MSTORE PUSH1 0x40 PUSH0 KECCAK256 PUSH0 SWAP2 POP SWAP1 POP DUP1 PUSH0 ADD SLOAD SWAP1 DUP1 PUSH1 0x1 ADD SLOAD SWAP1 POP DUP3 JUMP JUMPDEST PUSH0 DUP2 SWAP1 POP SWAP2 SWAP1 POP JUMP JUMPDEST PUSH2 0x1AB DUP2 PUSH2 0x199 JUMP JUMPDEST DUP3 MSTORE POP POP JUMP JUMPDEST PUSH0 PUSH1 0x40 DUP3 ADD SWAP1 POP PUSH2 0x1C4 PUSH0 DUP4 ADD DUP6 PUSH2 0x1A2 JUMP JUMPDEST PUSH2 0x1D1 PUSH1 0x20 DUP4 ADD DUP5 PUSH2 0x1A2 JUMP JUMPDEST SWAP4 SWAP3 POP POP POP JUMP JUMPDEST PUSH0 PUSH0 REVERT JUMPDEST PUSH2 0x1E5 DUP2 PUSH2 0x199 JUMP JUMPDEST DUP2 EQ PUSH2 0x1EF JUMPI PUSH0 PUSH0 REVERT JUMPDEST POP JUMP JUMPDEST PUSH0 DUP2 CALLDATALOAD SWAP1 POP PUSH2 0x200 DUP2 PUSH2 0x1DC JUMP JUMPDEST SWAP3 SWAP2 POP POP JUMP JUMPDEST PUSH0 PUSH1 0x20 DUP3 DUP5 SUB SLT ISZERO PUSH2 0x21B JUMPI PUSH2 0x21A PUSH2 0x1D8 JUMP JUMPDEST JUMPDEST PUSH0 PUSH2 0x228 DUP5 DUP3 DUP6 ADD PUSH2 0x1F2 JUMP JUMPDEST SWAP2 POP POP SWAP3 SWAP2 POP POP JUMP INVALID LOG2 PUSH5 0x6970667358 0x22 SLT KECCAK256 SWAP8 0xB9 0xB1 0xE8 0xC6 0xC2 0x4D PUSH28 0x5CE7D7901CD1C0FA8AE1E53CCF7ACC8CBBC7F2CE1B81B57164736F6C PUSH4 0x4300081C STOP CALLER "
				},
				"gasEstimates": {
					"creation": {
						"codeDepositCost": "123000",
						"executionCost": "169",
						"totalCost": "123169"
					},
					"external": {
						"initStudent1()": "44459",
						"initStudent2()": "44358",
						"initStudent3()": "44451",
						"initStudent4()": "44495",
						"student()": "infinite",
						"testVar(uint256)": "infinite"
					}
				},
				"methodIdentifiers": {
					"initStudent1()": "a8b63e6f",
					"initStudent2()": "1a8d7dc3",
					"initStudent3()": "5a4236b1",
					"initStudent4()": "9ebb8d20",
					"student()": "699450e8",
					"testVar(uint256)": "b25fec49"
				}
			},
			"storageLayout": {
				"storage": [
					{
						"astId": 9,
						"contract": "contracts/study/Struct.sol:Struct",
						"label": "student",
						"offset": 0,
						"slot": "0",
						"type": "t_struct(Student)6_storage"
					},
					{
						"astId": 14,
						"contract": "contracts/study/Struct.sol:Struct",
						"label": "testVar",
						"offset": 0,
						"slot": "2",
						"type": "t_mapping(t_uint256,t_struct(Student)6_storage)"
					}
				],
				"types": {
					"t_mapping(t_uint256,t_struct(Student)6_storage)": {
						"encoding": "mapping",
						"key": "t_uint256",
						"label": "mapping(uint256 => struct Struct.Student)",
						"numberOfBytes": "32",
						"value": "t_struct(Student)6_storage"
					},
					"t_struct(Student)6_storage": {
						"encoding": "inplace",
						"label": "struct Struct.Student",
						"members": [
							{
								"astId": 3,
								"contract": "contracts/study/Struct.sol:Struct",
								"label": "id",
								"offset": 0,
								"slot": "0",
								"type": "t_uint256"
							},
							{
								"astId": 5,
								"contract": "contracts/study/Struct.sol:Struct",
								"label": "score",
								"offset": 0,
								"slot": "1",
								"type": "t_uint256"
							}
						],
						"numberOfBytes": "64"
					},
					"t_uint256": {
						"encoding": "inplace",
						"label": "uint256",
						"numberOfBytes": "32"
					}
				}
			},
			"userdoc": {
				"kind": "user",
				"methods": {},
				"version": 1
			}
		}
	}
}