{
	"contracts/study/Constant.sol": {
		"Constant": {
			"abi": [
				{
					"inputs": [],
					"stateMutability": "nonpayable",
					"type": "constructor"
				},
				{
					"inputs": [],
					"name": "IMMUTABLE_ADDRESS",
					"outputs": [
						{
							"internalType": "address",
							"name": "",
							"type": "address"
						}
					],
					"stateMutability": "view",
					"type": "function"
				},
				{
					"inputs": [],
					"name": "IMMUTABLE_BLOCK",
					"outputs": [
						{
							"internalType": "uint256",
							"name": "",
							"type": "uint256"
						}
					],
					"stateMutability": "view",
					"type": "function"
				},
				{
					"inputs": [],
					"name": "IMMUTABLE_NUM",
					"outputs": [
						{
							"internalType": "uint256",
							"name": "",
							"type": "uint256"
						}
					],
					"stateMutability": "view",
					"type": "function"
				},
				{
					"inputs": [],
					"name": "IMMUTABLE_TEST",
					"outputs": [
						{
							"internalType": "uint256",
							"name": "",
							"type": "uint256"
						}
					],
					"stateMutability": "view",
					"type": "function"
				},
				{
					"inputs": [],
					"name": "doWhileTest",
					"outputs": [
						{
							"internalType": "uint256",
							"name": "",
							"type": "uint256"
						}
					],
					"stateMutability": "pure",
					"type": "function"
				},
				{
					"inputs": [],
					"name": "forLoopTest",
					"outputs": [
						{
							"internalType": "uint256",
							"name": "",
							"type": "uint256"
						}
					],
					"stateMutability": "pure",
					"type": "function"
				},
				{
					"inputs": [
						{
							"internalType": "uint256",
							"name": "_number",
							"type": "uint256"
						}
					],
					"name": "ifElseTest",
					"outputs": [
						{
							"internalType": "bool",
							"name": "",
							"type": "bool"
						}
					],
					"stateMutability": "pure",
					"type": "function"
				},
				{
					"inputs": [
						{
							"internalType": "uint256[]",
							"name": "a",
							"type": "uint256[]"
						}
					],
					"name": "insertionSort",
					"outputs": [
						{
							"internalType": "uint256[]",
							"name": "",
							"type": "uint256[]"
						}
					],
					"stateMutability": "pure",
					"type": "function"
				},
				{
					"inputs": [
						{
							"internalType": "uint256",
							"name": "x",
							"type": "uint256"
						},
						{
							"internalType": "uint256",
							"name": "y",
							"type": "uint256"
						}
					],
					"name": "ternaryTest",
					"outputs": [
						{
							"internalType": "uint256",
							"name": "",
							"type": "uint256"
						}
					],
					"stateMutability": "pure",
					"type": "function"
				},
				{
					"inputs": [],
					"name": "test",
					"outputs": [
						{
							"internalType": "uint256",
							"name": "",
							"type": "uint256"
						}
					],
					"stateMutability": "pure",
					"type": "function"
				},
				{
					"inputs": [],
					"name": "whileTest",
					"outputs": [
						{
							"internalType": "uint256",
							"name": "",
							"type": "uint256"
						}
					],
					"stateMutability": "pure",
					"type": "function"
				}
			],
			"devdoc": {
				"kind": "dev",
				"methods": {},
				"version": 1
			},
			"evm": {
				"assembly": "    /* \"contracts/study/Constant.sol\":58:2150  contract Constant {... */\n  mstore(0x40, 0x0100)\n    /* \"contracts/study/Constant.sol\":345:355  9999999999 */\n  0x02540be3ff\n    /* \"contracts/study/Constant.sol\":304:355  uint256 public immutable IMMUTABLE_NUM = 9999999999 */\n  0x80\n  swap1\n  dup2\n  mstore\n  pop\n    /* \"contracts/study/Constant.sol\":501:628  constructor() {... */\n  callvalue\n  dup1\n  iszero\n  tag_1\n  jumpi\n  revert(0x00, 0x00)\ntag_1:\n  pop\n    /* \"contracts/study/Constant.sol\":553:557  this */\n  address\n    /* \"contracts/study/Constant.sol\":525:558  IMMUTABLE_ADDRESS = address(this) */\n  0xffffffffffffffffffffffffffffffffffffffff\n  and\n  0xa0\n  dup2\n  0xffffffffffffffffffffffffffffffffffffffff\n  and\n  dup2\n  mstore\n  pop\n  pop\n    /* \"contracts/study/Constant.sol\":584:588  1118 */\n  0x045e\n    /* \"contracts/study/Constant.sol\":568:588  IMMUTABLE_NUM = 1118 */\n  0x80\n  dup2\n  dup2\n  mstore\n  pop\n  pop\n    /* \"contracts/study/Constant.sol\":615:621  test() */\n  tag_4\n    /* \"contracts/study/Constant.sol\":615:619  test */\n  shl(0x20, tag_5)\n    /* \"contracts/study/Constant.sol\":615:621  test() */\n  0x20\n  shr\n  jump\t// in\ntag_4:\n    /* \"contracts/study/Constant.sol\":598:621  IMMUTABLE_TEST = test() */\n  0xe0\n  dup2\n  dup2\n  mstore\n  pop\n  pop\n    /* \"contracts/study/Constant.sol\":58:2150  contract Constant {... */\n  jump(tag_6)\n    /* \"contracts/study/Constant.sol\":634:736  function test() public pure returns (uint256) {... */\ntag_5:\n    /* \"contracts/study/Constant.sol\":671:678  uint256 */\n  0x00\n    /* \"contracts/study/Constant.sol\":690:702  uint256 what */\n  0x00\n    /* \"contracts/study/Constant.sol\":705:706  9 */\n  0x09\n    /* \"contracts/study/Constant.sol\":690:706  uint256 what = 9 */\n  swap1\n  pop\n    /* \"contracts/study/Constant.sol\":724:728  what */\n  dup1\n    /* \"contracts/study/Constant.sol\":716:729  return (what) */\n  swap2\n  pop\n  pop\n    /* \"contracts/study/Constant.sol\":634:736  function test() public pure returns (uint256) {... */\n  swap1\n  jump\t// out\n    /* \"contracts/study/Constant.sol\":58:2150  contract Constant {... */\ntag_6:\n  mload(0x80)\n  mload(0xa0)\n  mload(0xc0)\n  mload(0xe0)\n  codecopy(0x00, dataOffset(sub_0), dataSize(sub_0))\n  0x00\n  assignImmutable(\"0xd4d1a59767271eefdc7830a772b9732a11d503531d972ab8c981a6b1c0e666e5\")\n  0x00\n  assignImmutable(\"0x731dc163f73d31d8c68f9917ce4ff967753939f70432973c04fd2c2a48148607\")\n  0x00\n  assignImmutable(\"0x8fef2229291b68be841adf029e58b87f39ba144b2d3b0af1760243d0a9bc6a1c\")\n  0x00\n  assignImmutable(\"0x277ab82e5a4641341820a4a2933a62c1de997e42e92548657ae21b3728d580fe\")\n  return(0x00, dataSize(sub_0))\nstop\n\nsub_0: assembly {\n        /* \"contracts/study/Constant.sol\":58:2150  contract Constant {... */\n      mstore(0x40, 0x80)\n      callvalue\n      dup1\n      iszero\n      tag_1\n      jumpi\n      revert(0x00, 0x00)\n    tag_1:\n      pop\n      jumpi(tag_2, lt(calldatasize, 0x04))\n      shr(0xe0, calldataload(0x00))\n      dup1\n      0x6297206f\n      gt\n      tag_14\n      jumpi\n      dup1\n      0x6297206f\n      eq\n      tag_8\n      jumpi\n      dup1\n      0x7141fb00\n      eq\n      tag_9\n      jumpi\n      dup1\n      0xb0cfa9fc\n      eq\n      tag_10\n      jumpi\n      dup1\n      0xed7ff875\n      eq\n      tag_11\n      jumpi\n      dup1\n      0xf1513021\n      eq\n      tag_12\n      jumpi\n      dup1\n      0xf8a8fd6d\n      eq\n      tag_13\n      jumpi\n      jump(tag_2)\n    tag_14:\n      dup1\n      0x1d9afdd2\n      eq\n      tag_3\n      jumpi\n      dup1\n      0x28766320\n      eq\n      tag_4\n      jumpi\n      dup1\n      0x2bbacaaa\n      eq\n      tag_5\n      jumpi\n      dup1\n      0x4064572e\n      eq\n      tag_6\n      jumpi\n      dup1\n      0x5d14639d\n      eq\n      tag_7\n      jumpi\n    tag_2:\n      revert(0x00, 0x00)\n        /* \"contracts/study/Constant.sol\":409:449  uint256 public immutable IMMUTABLE_BLOCK */\n    tag_3:\n      tag_15\n      tag_16\n      jump\t// in\n    tag_15:\n      mload(0x40)\n      tag_17\n      swap2\n      swap1\n      tag_18\n      jump\t// in\n    tag_17:\n      mload(0x40)\n      dup1\n      swap2\n      sub\n      swap1\n      return\n        /* \"contracts/study/Constant.sol\":1539:1687  function ternaryTest(uint256 x, uint256 y) public pure returns (uint256) {... */\n    tag_4:\n      tag_19\n      0x04\n      dup1\n      calldatasize\n      sub\n      dup2\n      add\n      swap1\n      tag_20\n      swap2\n      swap1\n      tag_21\n      jump\t// in\n    tag_20:\n      tag_22\n      jump\t// in\n    tag_19:\n      mload(0x40)\n      tag_23\n      swap2\n      swap1\n      tag_18\n      jump\t// in\n    tag_23:\n      mload(0x40)\n      dup1\n      swap2\n      sub\n      swap1\n      return\n        /* \"contracts/study/Constant.sol\":1325:1533  function doWhileTest() public pure returns (uint256) {... */\n    tag_5:\n      tag_24\n      tag_25\n      jump\t// in\n    tag_24:\n      mload(0x40)\n      tag_26\n      swap2\n      swap1\n      tag_18\n      jump\t// in\n    tag_26:\n      mload(0x40)\n      dup1\n      swap2\n      sub\n      swap1\n      return\n        /* \"contracts/study/Constant.sol\":455:494  uint256 public immutable IMMUTABLE_TEST */\n    tag_6:\n      tag_27\n      tag_28\n      jump\t// in\n    tag_27:\n      mload(0x40)\n      tag_29\n      swap2\n      swap1\n      tag_18\n      jump\t// in\n    tag_29:\n      mload(0x40)\n      dup1\n      swap2\n      sub\n      swap1\n      return\n        /* \"contracts/study/Constant.sol\":1117:1319  function whileTest() public pure returns (uint256) {... */\n    tag_7:\n      tag_30\n      tag_31\n      jump\t// in\n    tag_30:\n      mload(0x40)\n      tag_32\n      swap2\n      swap1\n      tag_18\n      jump\t// in\n    tag_32:\n      mload(0x40)\n      dup1\n      swap2\n      sub\n      swap1\n      return\n        /* \"contracts/study/Constant.sol\":1693:2148  function insertionSort(uint256[] memory a)... */\n    tag_8:\n      tag_33\n      0x04\n      dup1\n      calldatasize\n      sub\n      dup2\n      add\n      swap1\n      tag_34\n      swap2\n      swap1\n      tag_35\n      jump\t// in\n    tag_34:\n      tag_36\n      jump\t// in\n    tag_33:\n      mload(0x40)\n      tag_37\n      swap2\n      swap1\n      tag_38\n      jump\t// in\n    tag_37:\n      mload(0x40)\n      dup1\n      swap2\n      sub\n      swap1\n      return\n        /* \"contracts/study/Constant.sol\":742:923  function ifElseTest(uint256 _number) public pure returns (bool) {... */\n    tag_9:\n      tag_39\n      0x04\n      dup1\n      calldatasize\n      sub\n      dup2\n      add\n      swap1\n      tag_40\n      swap2\n      swap1\n      tag_41\n      jump\t// in\n    tag_40:\n      tag_42\n      jump\t// in\n    tag_39:\n      mload(0x40)\n      tag_43\n      swap2\n      swap1\n      tag_44\n      jump\t// in\n    tag_43:\n      mload(0x40)\n      dup1\n      swap2\n      sub\n      swap1\n      return\n        /* \"contracts/study/Constant.sol\":929:1111  function forLoopTest() public pure returns (uint256) {... */\n    tag_10:\n      tag_45\n      tag_46\n      jump\t// in\n    tag_45:\n      mload(0x40)\n      tag_47\n      swap2\n      swap1\n      tag_18\n      jump\t// in\n    tag_47:\n      mload(0x40)\n      dup1\n      swap2\n      sub\n      swap1\n      return\n        /* \"contracts/study/Constant.sol\":304:355  uint256 public immutable IMMUTABLE_NUM = 9999999999 */\n    tag_11:\n      tag_48\n      tag_49\n      jump\t// in\n    tag_48:\n      mload(0x40)\n      tag_50\n      swap2\n      swap1\n      tag_18\n      jump\t// in\n    tag_50:\n      mload(0x40)\n      dup1\n      swap2\n      sub\n      swap1\n      return\n        /* \"contracts/study/Constant.sol\":361:403  address public immutable IMMUTABLE_ADDRESS */\n    tag_12:\n      tag_51\n      tag_52\n      jump\t// in\n    tag_51:\n      mload(0x40)\n      tag_53\n      swap2\n      swap1\n      tag_54\n      jump\t// in\n    tag_53:\n      mload(0x40)\n      dup1\n      swap2\n      sub\n      swap1\n      return\n        /* \"contracts/study/Constant.sol\":634:736  function test() public pure returns (uint256) {... */\n    tag_13:\n      tag_55\n      tag_56\n      jump\t// in\n    tag_55:\n      mload(0x40)\n      tag_57\n      swap2\n      swap1\n      tag_18\n      jump\t// in\n    tag_57:\n      mload(0x40)\n      dup1\n      swap2\n      sub\n      swap1\n      return\n        /* \"contracts/study/Constant.sol\":409:449  uint256 public immutable IMMUTABLE_BLOCK */\n    tag_16:\n      immutable(\"0x731dc163f73d31d8c68f9917ce4ff967753939f70432973c04fd2c2a48148607\")\n      dup2\n      jump\t// out\n        /* \"contracts/study/Constant.sol\":1539:1687  function ternaryTest(uint256 x, uint256 y) public pure returns (uint256) {... */\n    tag_22:\n        /* \"contracts/study/Constant.sol\":1603:1610  uint256 */\n      0x00\n        /* \"contracts/study/Constant.sol\":1671:1672  y */\n      dup2\n        /* \"contracts/study/Constant.sol\":1666:1667  x */\n      dup4\n        /* \"contracts/study/Constant.sol\":1666:1672  x >= y */\n      lt\n      iszero\n        /* \"contracts/study/Constant.sol\":1666:1680  x >= y ? x : y */\n      tag_59\n      jumpi\n        /* \"contracts/study/Constant.sol\":1679:1680  y */\n      dup2\n        /* \"contracts/study/Constant.sol\":1666:1680  x >= y ? x : y */\n      jump(tag_60)\n    tag_59:\n        /* \"contracts/study/Constant.sol\":1675:1676  x */\n      dup3\n        /* \"contracts/study/Constant.sol\":1666:1680  x >= y ? x : y */\n    tag_60:\n        /* \"contracts/study/Constant.sol\":1659:1680  return x >= y ? x : y */\n      swap1\n      pop\n        /* \"contracts/study/Constant.sol\":1539:1687  function ternaryTest(uint256 x, uint256 y) public pure returns (uint256) {... */\n      swap3\n      swap2\n      pop\n      pop\n      jump\t// out\n        /* \"contracts/study/Constant.sol\":1325:1533  function doWhileTest() public pure returns (uint256) {... */\n    tag_25:\n        /* \"contracts/study/Constant.sol\":1369:1376  uint256 */\n      0x00\n        /* \"contracts/study/Constant.sol\":1388:1399  uint256 sum */\n      0x00\n        /* \"contracts/study/Constant.sol\":1402:1403  0 */\n      0x00\n        /* \"contracts/study/Constant.sol\":1388:1403  uint256 sum = 0 */\n      swap1\n      pop\n        /* \"contracts/study/Constant.sol\":1413:1422  uint256 i */\n      0x00\n        /* \"contracts/study/Constant.sol\":1425:1426  0 */\n      0x00\n        /* \"contracts/study/Constant.sol\":1413:1426  uint256 i = 0 */\n      swap1\n      pop\n        /* \"contracts/study/Constant.sol\":1436:1505  do {... */\n    tag_62:\n        /* \"contracts/study/Constant.sol\":1460:1461  i */\n      dup1\n        /* \"contracts/study/Constant.sol\":1453:1461  sum += i */\n      dup3\n      tag_65\n      swap2\n      swap1\n      tag_66\n      jump\t// in\n    tag_65:\n      swap2\n      pop\n        /* \"contracts/study/Constant.sol\":1475:1478  i++ */\n      dup1\n      dup1\n      tag_67\n      swap1\n      tag_68\n      jump\t// in\n    tag_67:\n      swap2\n      pop\n      pop\n        /* \"contracts/study/Constant.sol\":1501:1503  10 */\n      0x0a\n        /* \"contracts/study/Constant.sol\":1497:1498  i */\n      dup2\n        /* \"contracts/study/Constant.sol\":1497:1503  i < 10 */\n      lt\n        /* \"contracts/study/Constant.sol\":1436:1505  do {... */\n      tag_62\n      jumpi\n        /* \"contracts/study/Constant.sol\":1522:1525  sum */\n      dup2\n        /* \"contracts/study/Constant.sol\":1514:1526  return (sum) */\n      swap3\n      pop\n      pop\n      pop\n        /* \"contracts/study/Constant.sol\":1325:1533  function doWhileTest() public pure returns (uint256) {... */\n      swap1\n      jump\t// out\n        /* \"contracts/study/Constant.sol\":455:494  uint256 public immutable IMMUTABLE_TEST */\n    tag_28:\n      immutable(\"0xd4d1a59767271eefdc7830a772b9732a11d503531d972ab8c981a6b1c0e666e5\")\n      dup2\n      jump\t// out\n        /* \"contracts/study/Constant.sol\":1117:1319  function whileTest() public pure returns (uint256) {... */\n    tag_31:\n        /* \"contracts/study/Constant.sol\":1159:1166  uint256 */\n      0x00\n        /* \"contracts/study/Constant.sol\":1178:1189  uint256 sum */\n      0x00\n        /* \"contracts/study/Constant.sol\":1192:1193  0 */\n      0x00\n        /* \"contracts/study/Constant.sol\":1178:1193  uint256 sum = 0 */\n      swap1\n      pop\n        /* \"contracts/study/Constant.sol\":1203:1212  uint256 i */\n      0x00\n        /* \"contracts/study/Constant.sol\":1215:1216  0 */\n      0x00\n        /* \"contracts/study/Constant.sol\":1203:1216  uint256 i = 0 */\n      swap1\n      pop\n        /* \"contracts/study/Constant.sol\":1226:1291  while (i < 10) {... */\n    tag_70:\n        /* \"contracts/study/Constant.sol\":1237:1239  10 */\n      0x0a\n        /* \"contracts/study/Constant.sol\":1233:1234  i */\n      dup2\n        /* \"contracts/study/Constant.sol\":1233:1239  i < 10 */\n      lt\n        /* \"contracts/study/Constant.sol\":1226:1291  while (i < 10) {... */\n      iszero\n      tag_71\n      jumpi\n        /* \"contracts/study/Constant.sol\":1262:1263  i */\n      dup1\n        /* \"contracts/study/Constant.sol\":1255:1263  sum += i */\n      dup3\n      tag_72\n      swap2\n      swap1\n      tag_66\n      jump\t// in\n    tag_72:\n      swap2\n      pop\n        /* \"contracts/study/Constant.sol\":1277:1280  i++ */\n      dup1\n      dup1\n      tag_73\n      swap1\n      tag_68\n      jump\t// in\n    tag_73:\n      swap2\n      pop\n      pop\n        /* \"contracts/study/Constant.sol\":1226:1291  while (i < 10) {... */\n      jump(tag_70)\n    tag_71:\n        /* \"contracts/study/Constant.sol\":1308:1311  sum */\n      dup2\n        /* \"contracts/study/Constant.sol\":1300:1312  return (sum) */\n      swap3\n      pop\n      pop\n      pop\n        /* \"contracts/study/Constant.sol\":1117:1319  function whileTest() public pure returns (uint256) {... */\n      swap1\n      jump\t// out\n        /* \"contracts/study/Constant.sol\":1693:2148  function insertionSort(uint256[] memory a)... */\n    tag_36:\n        /* \"contracts/study/Constant.sol\":1781:1797  uint256[] memory */\n      0x60\n        /* \"contracts/study/Constant.sol\":1872:1881  uint256 i */\n      0x00\n        /* \"contracts/study/Constant.sol\":1884:1885  1 */\n      0x01\n        /* \"contracts/study/Constant.sol\":1872:1885  uint256 i = 1 */\n      swap1\n      pop\n        /* \"contracts/study/Constant.sol\":1867:2122  for (uint256 i = 1; i < a.length; i++) {... */\n    tag_75:\n        /* \"contracts/study/Constant.sol\":1891:1892  a */\n      dup3\n        /* \"contracts/study/Constant.sol\":1891:1899  a.length */\n      mload\n        /* \"contracts/study/Constant.sol\":1887:1888  i */\n      dup2\n        /* \"contracts/study/Constant.sol\":1887:1899  i < a.length */\n      lt\n        /* \"contracts/study/Constant.sol\":1867:2122  for (uint256 i = 1; i < a.length; i++) {... */\n      iszero\n      tag_76\n      jumpi\n        /* \"contracts/study/Constant.sol\":1920:1932  uint256 temp */\n      0x00\n        /* \"contracts/study/Constant.sol\":1935:1936  a */\n      dup4\n        /* \"contracts/study/Constant.sol\":1937:1938  i */\n      dup3\n        /* \"contracts/study/Constant.sol\":1935:1939  a[i] */\n      dup2\n      mload\n      dup2\n      lt\n      tag_78\n      jumpi\n      tag_79\n      tag_80\n      jump\t// in\n    tag_79:\n    tag_78:\n      0x20\n      mul\n      0x20\n      add\n      add\n      mload\n        /* \"contracts/study/Constant.sol\":1920:1939  uint256 temp = a[i] */\n      swap1\n      pop\n        /* \"contracts/study/Constant.sol\":1953:1962  uint256 j */\n      0x00\n        /* \"contracts/study/Constant.sol\":1965:1966  i */\n      dup3\n        /* \"contracts/study/Constant.sol\":1953:1966  uint256 j = i */\n      swap1\n      pop\n        /* \"contracts/study/Constant.sol\":1980:2087  while ((j >= 1) && (temp < a[j - 1])) {... */\n    tag_81:\n        /* \"contracts/study/Constant.sol\":1993:1994  1 */\n      0x01\n        /* \"contracts/study/Constant.sol\":1988:1989  j */\n      dup2\n        /* \"contracts/study/Constant.sol\":1988:1994  j >= 1 */\n      lt\n      iszero\n        /* \"contracts/study/Constant.sol\":1987:2016  (j >= 1) && (temp < a[j - 1]) */\n      dup1\n      iszero\n      tag_83\n      jumpi\n      pop\n        /* \"contracts/study/Constant.sol\":2007:2008  a */\n      dup5\n        /* \"contracts/study/Constant.sol\":2013:2014  1 */\n      0x01\n        /* \"contracts/study/Constant.sol\":2009:2010  j */\n      dup3\n        /* \"contracts/study/Constant.sol\":2009:2014  j - 1 */\n      tag_84\n      swap2\n      swap1\n      tag_85\n      jump\t// in\n    tag_84:\n        /* \"contracts/study/Constant.sol\":2007:2015  a[j - 1] */\n      dup2\n      mload\n      dup2\n      lt\n      tag_86\n      jumpi\n      tag_87\n      tag_80\n      jump\t// in\n    tag_87:\n    tag_86:\n      0x20\n      mul\n      0x20\n      add\n      add\n      mload\n        /* \"contracts/study/Constant.sol\":2000:2004  temp */\n      dup3\n        /* \"contracts/study/Constant.sol\":2000:2015  temp < a[j - 1] */\n      lt\n        /* \"contracts/study/Constant.sol\":1987:2016  (j >= 1) && (temp < a[j - 1]) */\n    tag_83:\n        /* \"contracts/study/Constant.sol\":1980:2087  while ((j >= 1) && (temp < a[j - 1])) {... */\n      iszero\n      tag_82\n      jumpi\n        /* \"contracts/study/Constant.sol\":2043:2044  a */\n      dup5\n        /* \"contracts/study/Constant.sol\":2049:2050  1 */\n      0x01\n        /* \"contracts/study/Constant.sol\":2045:2046  j */\n      dup3\n        /* \"contracts/study/Constant.sol\":2045:2050  j - 1 */\n      tag_88\n      swap2\n      swap1\n      tag_85\n      jump\t// in\n    tag_88:\n        /* \"contracts/study/Constant.sol\":2043:2051  a[j - 1] */\n      dup2\n      mload\n      dup2\n      lt\n      tag_89\n      jumpi\n      tag_90\n      tag_80\n      jump\t// in\n    tag_90:\n    tag_89:\n      0x20\n      mul\n      0x20\n      add\n      add\n      mload\n        /* \"contracts/study/Constant.sol\":2036:2037  a */\n      dup6\n        /* \"contracts/study/Constant.sol\":2038:2039  j */\n      dup3\n        /* \"contracts/study/Constant.sol\":2036:2040  a[j] */\n      dup2\n      mload\n      dup2\n      lt\n      tag_91\n      jumpi\n      tag_92\n      tag_80\n      jump\t// in\n    tag_92:\n    tag_91:\n      0x20\n      mul\n      0x20\n      add\n      add\n        /* \"contracts/study/Constant.sol\":2036:2051  a[j] = a[j - 1] */\n      dup2\n      dup2\n      mstore\n      pop\n      pop\n        /* \"contracts/study/Constant.sol\":2069:2072  j-- */\n      dup1\n      dup1\n      tag_93\n      swap1\n      tag_94\n      jump\t// in\n    tag_93:\n      swap2\n      pop\n      pop\n        /* \"contracts/study/Constant.sol\":1980:2087  while ((j >= 1) && (temp < a[j - 1])) {... */\n      jump(tag_81)\n    tag_82:\n        /* \"contracts/study/Constant.sol\":2107:2111  temp */\n      dup2\n        /* \"contracts/study/Constant.sol\":2100:2101  a */\n      dup6\n        /* \"contracts/study/Constant.sol\":2102:2103  j */\n      dup3\n        /* \"contracts/study/Constant.sol\":2100:2104  a[j] */\n      dup2\n      mload\n      dup2\n      lt\n      tag_95\n      jumpi\n      tag_96\n      tag_80\n      jump\t// in\n    tag_96:\n    tag_95:\n      0x20\n      mul\n      0x20\n      add\n      add\n        /* \"contracts/study/Constant.sol\":2100:2111  a[j] = temp */\n      dup2\n      dup2\n      mstore\n      pop\n      pop\n        /* \"contracts/study/Constant.sol\":1906:2122  {... */\n      pop\n      pop\n        /* \"contracts/study/Constant.sol\":1901:1904  i++ */\n      dup1\n      dup1\n      0x01\n      add\n      swap2\n      pop\n      pop\n        /* \"contracts/study/Constant.sol\":1867:2122  for (uint256 i = 1; i < a.length; i++) {... */\n      jump(tag_75)\n    tag_76:\n      pop\n        /* \"contracts/study/Constant.sol\":2139:2140  a */\n      dup2\n        /* \"contracts/study/Constant.sol\":2131:2141  return (a) */\n      swap1\n      pop\n        /* \"contracts/study/Constant.sol\":1693:2148  function insertionSort(uint256[] memory a)... */\n      swap2\n      swap1\n      pop\n      jump\t// out\n        /* \"contracts/study/Constant.sol\":742:923  function ifElseTest(uint256 _number) public pure returns (bool) {... */\n    tag_42:\n        /* \"contracts/study/Constant.sol\":800:804  bool */\n      0x00\n        /* \"contracts/study/Constant.sol\":831:832  0 */\n      0x00\n        /* \"contracts/study/Constant.sol\":820:827  _number */\n      dup3\n        /* \"contracts/study/Constant.sol\":820:832  _number == 0 */\n      sub\n        /* \"contracts/study/Constant.sol\":816:917  if (_number == 0) {... */\n      tag_98\n      jumpi\n        /* \"contracts/study/Constant.sol\":856:860  true */\n      0x01\n        /* \"contracts/study/Constant.sol\":848:861  return (true) */\n      swap1\n      pop\n      jump(tag_97)\n        /* \"contracts/study/Constant.sol\":816:917  if (_number == 0) {... */\n    tag_98:\n        /* \"contracts/study/Constant.sol\":900:905  false */\n      0x00\n        /* \"contracts/study/Constant.sol\":892:906  return (false) */\n      swap1\n      pop\n        /* \"contracts/study/Constant.sol\":742:923  function ifElseTest(uint256 _number) public pure returns (bool) {... */\n    tag_97:\n      swap2\n      swap1\n      pop\n      jump\t// out\n        /* \"contracts/study/Constant.sol\":929:1111  function forLoopTest() public pure returns (uint256) {... */\n    tag_46:\n        /* \"contracts/study/Constant.sol\":973:980  uint256 */\n      0x00\n        /* \"contracts/study/Constant.sol\":992:1003  uint256 sum */\n      0x00\n        /* \"contracts/study/Constant.sol\":1006:1007  0 */\n      0x00\n        /* \"contracts/study/Constant.sol\":992:1007  uint256 sum = 0 */\n      swap1\n      pop\n        /* \"contracts/study/Constant.sol\":1022:1031  uint256 i */\n      0x00\n        /* \"contracts/study/Constant.sol\":1034:1035  0 */\n      0x00\n        /* \"contracts/study/Constant.sol\":1022:1035  uint256 i = 0 */\n      swap1\n      pop\n        /* \"contracts/study/Constant.sol\":1017:1083  for (uint256 i = 0; i < 10; i++) {... */\n    tag_101:\n        /* \"contracts/study/Constant.sol\":1041:1043  10 */\n      0x0a\n        /* \"contracts/study/Constant.sol\":1037:1038  i */\n      dup2\n        /* \"contracts/study/Constant.sol\":1037:1043  i < 10 */\n      lt\n        /* \"contracts/study/Constant.sol\":1017:1083  for (uint256 i = 0; i < 10; i++) {... */\n      iszero\n      tag_102\n      jumpi\n        /* \"contracts/study/Constant.sol\":1071:1072  i */\n      dup1\n        /* \"contracts/study/Constant.sol\":1064:1072  sum += i */\n      dup3\n      tag_104\n      swap2\n      swap1\n      tag_66\n      jump\t// in\n    tag_104:\n      swap2\n      pop\n        /* \"contracts/study/Constant.sol\":1045:1048  i++ */\n      dup1\n      dup1\n      0x01\n      add\n      swap2\n      pop\n      pop\n        /* \"contracts/study/Constant.sol\":1017:1083  for (uint256 i = 0; i < 10; i++) {... */\n      jump(tag_101)\n    tag_102:\n      pop\n        /* \"contracts/study/Constant.sol\":1100:1103  sum */\n      dup1\n        /* \"contracts/study/Constant.sol\":1092:1104  return (sum) */\n      swap2\n      pop\n      pop\n        /* \"contracts/study/Constant.sol\":929:1111  function forLoopTest() public pure returns (uint256) {... */\n      swap1\n      jump\t// out\n        /* \"contracts/study/Constant.sol\":304:355  uint256 public immutable IMMUTABLE_NUM = 9999999999 */\n    tag_49:\n      immutable(\"0x277ab82e5a4641341820a4a2933a62c1de997e42e92548657ae21b3728d580fe\")\n      dup2\n      jump\t// out\n        /* \"contracts/study/Constant.sol\":361:403  address public immutable IMMUTABLE_ADDRESS */\n    tag_52:\n      immutable(\"0x8fef2229291b68be841adf029e58b87f39ba144b2d3b0af1760243d0a9bc6a1c\")\n      dup2\n      jump\t// out\n        /* \"contracts/study/Constant.sol\":634:736  function test() public pure returns (uint256) {... */\n    tag_56:\n        /* \"contracts/study/Constant.sol\":671:678  uint256 */\n      0x00\n        /* \"contracts/study/Constant.sol\":690:702  uint256 what */\n      0x00\n        /* \"contracts/study/Constant.sol\":705:706  9 */\n      0x09\n        /* \"contracts/study/Constant.sol\":690:706  uint256 what = 9 */\n      swap1\n      pop\n        /* \"contracts/study/Constant.sol\":724:728  what */\n      dup1\n        /* \"contracts/study/Constant.sol\":716:729  return (what) */\n      swap2\n      pop\n      pop\n        /* \"contracts/study/Constant.sol\":634:736  function test() public pure returns (uint256) {... */\n      swap1\n      jump\t// out\n        /* \"#utility.yul\":7:84   */\n    tag_106:\n        /* \"#utility.yul\":44:51   */\n      0x00\n        /* \"#utility.yul\":73:78   */\n      dup2\n        /* \"#utility.yul\":62:78   */\n      swap1\n      pop\n        /* \"#utility.yul\":7:84   */\n      swap2\n      swap1\n      pop\n      jump\t// out\n        /* \"#utility.yul\":90:208   */\n    tag_107:\n        /* \"#utility.yul\":177:201   */\n      tag_138\n        /* \"#utility.yul\":195:200   */\n      dup2\n        /* \"#utility.yul\":177:201   */\n      tag_106\n      jump\t// in\n    tag_138:\n        /* \"#utility.yul\":172:175   */\n      dup3\n        /* \"#utility.yul\":165:202   */\n      mstore\n        /* \"#utility.yul\":90:208   */\n      pop\n      pop\n      jump\t// out\n        /* \"#utility.yul\":214:436   */\n    tag_18:\n        /* \"#utility.yul\":307:311   */\n      0x00\n        /* \"#utility.yul\":345:347   */\n      0x20\n        /* \"#utility.yul\":334:343   */\n      dup3\n        /* \"#utility.yul\":330:348   */\n      add\n        /* \"#utility.yul\":322:348   */\n      swap1\n      pop\n        /* \"#utility.yul\":358:429   */\n      tag_140\n        /* \"#utility.yul\":426:427   */\n      0x00\n        /* \"#utility.yul\":415:424   */\n      dup4\n        /* \"#utility.yul\":411:428   */\n      add\n        /* \"#utility.yul\":402:408   */\n      dup5\n        /* \"#utility.yul\":358:429   */\n      tag_107\n      jump\t// in\n    tag_140:\n        /* \"#utility.yul\":214:436   */\n      swap3\n      swap2\n      pop\n      pop\n      jump\t// out\n        /* \"#utility.yul\":442:517   */\n    tag_108:\n        /* \"#utility.yul\":475:481   */\n      0x00\n        /* \"#utility.yul\":508:510   */\n      0x40\n        /* \"#utility.yul\":502:511   */\n      mload\n        /* \"#utility.yul\":492:511   */\n      swap1\n      pop\n        /* \"#utility.yul\":442:517   */\n      swap1\n      jump\t// out\n        /* \"#utility.yul\":523:640   */\n    tag_109:\n        /* \"#utility.yul\":632:633   */\n      0x00\n        /* \"#utility.yul\":629:630   */\n      0x00\n        /* \"#utility.yul\":622:634   */\n      revert\n        /* \"#utility.yul\":646:763   */\n    tag_110:\n        /* \"#utility.yul\":755:756   */\n      0x00\n        /* \"#utility.yul\":752:753   */\n      0x00\n        /* \"#utility.yul\":745:757   */\n      revert\n        /* \"#utility.yul\":769:891   */\n    tag_111:\n        /* \"#utility.yul\":842:866   */\n      tag_145\n        /* \"#utility.yul\":860:865   */\n      dup2\n        /* \"#utility.yul\":842:866   */\n      tag_106\n      jump\t// in\n    tag_145:\n        /* \"#utility.yul\":835:840   */\n      dup2\n        /* \"#utility.yul\":832:867   */\n      eq\n        /* \"#utility.yul\":822:885   */\n      tag_146\n      jumpi\n        /* \"#utility.yul\":881:882   */\n      0x00\n        /* \"#utility.yul\":878:879   */\n      0x00\n        /* \"#utility.yul\":871:883   */\n      revert\n        /* \"#utility.yul\":822:885   */\n    tag_146:\n        /* \"#utility.yul\":769:891   */\n      pop\n      jump\t// out\n        /* \"#utility.yul\":897:1036   */\n    tag_112:\n        /* \"#utility.yul\":943:948   */\n      0x00\n        /* \"#utility.yul\":981:987   */\n      dup2\n        /* \"#utility.yul\":968:988   */\n      calldataload\n        /* \"#utility.yul\":959:988   */\n      swap1\n      pop\n        /* \"#utility.yul\":997:1030   */\n      tag_148\n        /* \"#utility.yul\":1024:1029   */\n      dup2\n        /* \"#utility.yul\":997:1030   */\n      tag_111\n      jump\t// in\n    tag_148:\n        /* \"#utility.yul\":897:1036   */\n      swap3\n      swap2\n      pop\n      pop\n      jump\t// out\n        /* \"#utility.yul\":1042:1516   */\n    tag_21:\n        /* \"#utility.yul\":1110:1116   */\n      0x00\n        /* \"#utility.yul\":1118:1124   */\n      0x00\n        /* \"#utility.yul\":1167:1169   */\n      0x40\n        /* \"#utility.yul\":1155:1164   */\n      dup4\n        /* \"#utility.yul\":1146:1153   */\n      dup6\n        /* \"#utility.yul\":1142:1165   */\n      sub\n        /* \"#utility.yul\":1138:1170   */\n      slt\n        /* \"#utility.yul\":1135:1254   */\n      iszero\n      tag_150\n      jumpi\n        /* \"#utility.yul\":1173:1252   */\n      tag_151\n      tag_109\n      jump\t// in\n    tag_151:\n        /* \"#utility.yul\":1135:1254   */\n    tag_150:\n        /* \"#utility.yul\":1293:1294   */\n      0x00\n        /* \"#utility.yul\":1318:1371   */\n      tag_152\n        /* \"#utility.yul\":1363:1370   */\n      dup6\n        /* \"#utility.yul\":1354:1360   */\n      dup3\n        /* \"#utility.yul\":1343:1352   */\n      dup7\n        /* \"#utility.yul\":1339:1361   */\n      add\n        /* \"#utility.yul\":1318:1371   */\n      tag_112\n      jump\t// in\n    tag_152:\n        /* \"#utility.yul\":1308:1371   */\n      swap3\n      pop\n        /* \"#utility.yul\":1264:1381   */\n      pop\n        /* \"#utility.yul\":1420:1422   */\n      0x20\n        /* \"#utility.yul\":1446:1499   */\n      tag_153\n        /* \"#utility.yul\":1491:1498   */\n      dup6\n        /* \"#utility.yul\":1482:1488   */\n      dup3\n        /* \"#utility.yul\":1471:1480   */\n      dup7\n        /* \"#utility.yul\":1467:1489   */\n      add\n        /* \"#utility.yul\":1446:1499   */\n      tag_112\n      jump\t// in\n    tag_153:\n        /* \"#utility.yul\":1436:1499   */\n      swap2\n      pop\n        /* \"#utility.yul\":1391:1509   */\n      pop\n        /* \"#utility.yul\":1042:1516   */\n      swap3\n      pop\n      swap3\n      swap1\n      pop\n      jump\t// out\n        /* \"#utility.yul\":1522:1639   */\n    tag_113:\n        /* \"#utility.yul\":1631:1632   */\n      0x00\n        /* \"#utility.yul\":1628:1629   */\n      0x00\n        /* \"#utility.yul\":1621:1633   */\n      revert\n        /* \"#utility.yul\":1645:1747   */\n    tag_114:\n        /* \"#utility.yul\":1686:1692   */\n      0x00\n        /* \"#utility.yul\":1737:1739   */\n      0x1f\n        /* \"#utility.yul\":1733:1740   */\n      not\n        /* \"#utility.yul\":1728:1730   */\n      0x1f\n        /* \"#utility.yul\":1721:1726   */\n      dup4\n        /* \"#utility.yul\":1717:1731   */\n      add\n        /* \"#utility.yul\":1713:1741   */\n      and\n        /* \"#utility.yul\":1703:1741   */\n      swap1\n      pop\n        /* \"#utility.yul\":1645:1747   */\n      swap2\n      swap1\n      pop\n      jump\t// out\n        /* \"#utility.yul\":1753:1933   */\n    tag_115:\n        /* \"#utility.yul\":1801:1878   */\n      0x4e487b7100000000000000000000000000000000000000000000000000000000\n        /* \"#utility.yul\":1798:1799   */\n      0x00\n        /* \"#utility.yul\":1791:1879   */\n      mstore\n        /* \"#utility.yul\":1898:1902   */\n      0x41\n        /* \"#utility.yul\":1895:1896   */\n      0x04\n        /* \"#utility.yul\":1888:1903   */\n      mstore\n        /* \"#utility.yul\":1922:1926   */\n      0x24\n        /* \"#utility.yul\":1919:1920   */\n      0x00\n        /* \"#utility.yul\":1912:1927   */\n      revert\n        /* \"#utility.yul\":1939:2220   */\n    tag_116:\n        /* \"#utility.yul\":2022:2049   */\n      tag_158\n        /* \"#utility.yul\":2044:2048   */\n      dup3\n        /* \"#utility.yul\":2022:2049   */\n      tag_114\n      jump\t// in\n    tag_158:\n        /* \"#utility.yul\":2014:2020   */\n      dup2\n        /* \"#utility.yul\":2010:2050   */\n      add\n        /* \"#utility.yul\":2152:2158   */\n      dup2\n        /* \"#utility.yul\":2140:2150   */\n      dup2\n        /* \"#utility.yul\":2137:2159   */\n      lt\n        /* \"#utility.yul\":2116:2134   */\n      0xffffffffffffffff\n        /* \"#utility.yul\":2104:2114   */\n      dup3\n        /* \"#utility.yul\":2101:2135   */\n      gt\n        /* \"#utility.yul\":2098:2160   */\n      or\n        /* \"#utility.yul\":2095:2183   */\n      iszero\n      tag_159\n      jumpi\n        /* \"#utility.yul\":2163:2181   */\n      tag_160\n      tag_115\n      jump\t// in\n    tag_160:\n        /* \"#utility.yul\":2095:2183   */\n    tag_159:\n        /* \"#utility.yul\":2203:2213   */\n      dup1\n        /* \"#utility.yul\":2199:2201   */\n      0x40\n        /* \"#utility.yul\":2192:2214   */\n      mstore\n        /* \"#utility.yul\":1982:2220   */\n      pop\n        /* \"#utility.yul\":1939:2220   */\n      pop\n      pop\n      jump\t// out\n        /* \"#utility.yul\":2226:2355   */\n    tag_117:\n        /* \"#utility.yul\":2260:2266   */\n      0x00\n        /* \"#utility.yul\":2287:2307   */\n      tag_162\n      tag_108\n      jump\t// in\n    tag_162:\n        /* \"#utility.yul\":2277:2307   */\n      swap1\n      pop\n        /* \"#utility.yul\":2316:2349   */\n      tag_163\n        /* \"#utility.yul\":2344:2348   */\n      dup3\n        /* \"#utility.yul\":2336:2342   */\n      dup3\n        /* \"#utility.yul\":2316:2349   */\n      tag_116\n      jump\t// in\n    tag_163:\n        /* \"#utility.yul\":2226:2355   */\n      swap2\n      swap1\n      pop\n      jump\t// out\n        /* \"#utility.yul\":2361:2672   */\n    tag_118:\n        /* \"#utility.yul\":2438:2442   */\n      0x00\n        /* \"#utility.yul\":2528:2546   */\n      0xffffffffffffffff\n        /* \"#utility.yul\":2520:2526   */\n      dup3\n        /* \"#utility.yul\":2517:2547   */\n      gt\n        /* \"#utility.yul\":2514:2570   */\n      iszero\n      tag_165\n      jumpi\n        /* \"#utility.yul\":2550:2568   */\n      tag_166\n      tag_115\n      jump\t// in\n    tag_166:\n        /* \"#utility.yul\":2514:2570   */\n    tag_165:\n        /* \"#utility.yul\":2600:2604   */\n      0x20\n        /* \"#utility.yul\":2592:2598   */\n      dup3\n        /* \"#utility.yul\":2588:2605   */\n      mul\n        /* \"#utility.yul\":2580:2605   */\n      swap1\n      pop\n        /* \"#utility.yul\":2660:2664   */\n      0x20\n        /* \"#utility.yul\":2654:2658   */\n      dup2\n        /* \"#utility.yul\":2650:2665   */\n      add\n        /* \"#utility.yul\":2642:2665   */\n      swap1\n      pop\n        /* \"#utility.yul\":2361:2672   */\n      swap2\n      swap1\n      pop\n      jump\t// out\n        /* \"#utility.yul\":2678:2795   */\n    tag_119:\n        /* \"#utility.yul\":2787:2788   */\n      0x00\n        /* \"#utility.yul\":2784:2785   */\n      0x00\n        /* \"#utility.yul\":2777:2789   */\n      revert\n        /* \"#utility.yul\":2818:3528   */\n    tag_120:\n        /* \"#utility.yul\":2914:2919   */\n      0x00\n        /* \"#utility.yul\":2939:3020   */\n      tag_169\n        /* \"#utility.yul\":2955:3019   */\n      tag_170\n        /* \"#utility.yul\":3012:3018   */\n      dup5\n        /* \"#utility.yul\":2955:3019   */\n      tag_118\n      jump\t// in\n    tag_170:\n        /* \"#utility.yul\":2939:3020   */\n      tag_117\n      jump\t// in\n    tag_169:\n        /* \"#utility.yul\":2930:3020   */\n      swap1\n      pop\n        /* \"#utility.yul\":3040:3045   */\n      dup1\n        /* \"#utility.yul\":3069:3075   */\n      dup4\n        /* \"#utility.yul\":3062:3067   */\n      dup3\n        /* \"#utility.yul\":3055:3076   */\n      mstore\n        /* \"#utility.yul\":3103:3107   */\n      0x20\n        /* \"#utility.yul\":3096:3101   */\n      dup3\n        /* \"#utility.yul\":3092:3108   */\n      add\n        /* \"#utility.yul\":3085:3108   */\n      swap1\n      pop\n        /* \"#utility.yul\":3156:3160   */\n      0x20\n        /* \"#utility.yul\":3148:3154   */\n      dup5\n        /* \"#utility.yul\":3144:3161   */\n      mul\n        /* \"#utility.yul\":3136:3142   */\n      dup4\n        /* \"#utility.yul\":3132:3162   */\n      add\n        /* \"#utility.yul\":3185:3188   */\n      dup6\n        /* \"#utility.yul\":3177:3183   */\n      dup2\n        /* \"#utility.yul\":3174:3189   */\n      gt\n        /* \"#utility.yul\":3171:3293   */\n      iszero\n      tag_171\n      jumpi\n        /* \"#utility.yul\":3204:3283   */\n      tag_172\n      tag_119\n      jump\t// in\n    tag_172:\n        /* \"#utility.yul\":3171:3293   */\n    tag_171:\n        /* \"#utility.yul\":3319:3325   */\n      dup4\n        /* \"#utility.yul\":3302:3522   */\n    tag_173:\n        /* \"#utility.yul\":3336:3342   */\n      dup2\n        /* \"#utility.yul\":3331:3334   */\n      dup2\n        /* \"#utility.yul\":3328:3343   */\n      lt\n        /* \"#utility.yul\":3302:3522   */\n      iszero\n      tag_175\n      jumpi\n        /* \"#utility.yul\":3411:3414   */\n      dup1\n        /* \"#utility.yul\":3440:3477   */\n      tag_176\n        /* \"#utility.yul\":3473:3476   */\n      dup9\n        /* \"#utility.yul\":3461:3471   */\n      dup3\n        /* \"#utility.yul\":3440:3477   */\n      tag_112\n      jump\t// in\n    tag_176:\n        /* \"#utility.yul\":3435:3438   */\n      dup5\n        /* \"#utility.yul\":3428:3478   */\n      mstore\n        /* \"#utility.yul\":3507:3511   */\n      0x20\n        /* \"#utility.yul\":3502:3505   */\n      dup5\n        /* \"#utility.yul\":3498:3512   */\n      add\n        /* \"#utility.yul\":3491:3512   */\n      swap4\n      pop\n        /* \"#utility.yul\":3378:3522   */\n      pop\n        /* \"#utility.yul\":3362:3366   */\n      0x20\n        /* \"#utility.yul\":3357:3360   */\n      dup2\n        /* \"#utility.yul\":3353:3367   */\n      add\n        /* \"#utility.yul\":3346:3367   */\n      swap1\n      pop\n        /* \"#utility.yul\":3302:3522   */\n      jump(tag_173)\n    tag_175:\n        /* \"#utility.yul\":3306:3327   */\n      pop\n        /* \"#utility.yul\":2920:3528   */\n      pop\n      pop\n        /* \"#utility.yul\":2818:3528   */\n      swap4\n      swap3\n      pop\n      pop\n      pop\n      jump\t// out\n        /* \"#utility.yul\":3551:3921   */\n    tag_121:\n        /* \"#utility.yul\":3622:3627   */\n      0x00\n        /* \"#utility.yul\":3671:3674   */\n      dup3\n        /* \"#utility.yul\":3664:3668   */\n      0x1f\n        /* \"#utility.yul\":3656:3662   */\n      dup4\n        /* \"#utility.yul\":3652:3669   */\n      add\n        /* \"#utility.yul\":3648:3675   */\n      slt\n        /* \"#utility.yul\":3638:3760   */\n      tag_178\n      jumpi\n        /* \"#utility.yul\":3679:3758   */\n      tag_179\n      tag_113\n      jump\t// in\n    tag_179:\n        /* \"#utility.yul\":3638:3760   */\n    tag_178:\n        /* \"#utility.yul\":3796:3802   */\n      dup2\n        /* \"#utility.yul\":3783:3803   */\n      calldataload\n        /* \"#utility.yul\":3821:3915   */\n      tag_180\n        /* \"#utility.yul\":3911:3914   */\n      dup5\n        /* \"#utility.yul\":3903:3909   */\n      dup3\n        /* \"#utility.yul\":3896:3900   */\n      0x20\n        /* \"#utility.yul\":3888:3894   */\n      dup7\n        /* \"#utility.yul\":3884:3901   */\n      add\n        /* \"#utility.yul\":3821:3915   */\n      tag_120\n      jump\t// in\n    tag_180:\n        /* \"#utility.yul\":3812:3915   */\n      swap2\n      pop\n        /* \"#utility.yul\":3628:3921   */\n      pop\n        /* \"#utility.yul\":3551:3921   */\n      swap3\n      swap2\n      pop\n      pop\n      jump\t// out\n        /* \"#utility.yul\":3927:4466   */\n    tag_35:\n        /* \"#utility.yul\":4011:4017   */\n      0x00\n        /* \"#utility.yul\":4060:4062   */\n      0x20\n        /* \"#utility.yul\":4048:4057   */\n      dup3\n        /* \"#utility.yul\":4039:4046   */\n      dup5\n        /* \"#utility.yul\":4035:4058   */\n      sub\n        /* \"#utility.yul\":4031:4063   */\n      slt\n        /* \"#utility.yul\":4028:4147   */\n      iszero\n      tag_182\n      jumpi\n        /* \"#utility.yul\":4066:4145   */\n      tag_183\n      tag_109\n      jump\t// in\n    tag_183:\n        /* \"#utility.yul\":4028:4147   */\n    tag_182:\n        /* \"#utility.yul\":4214:4215   */\n      0x00\n        /* \"#utility.yul\":4203:4212   */\n      dup3\n        /* \"#utility.yul\":4199:4216   */\n      add\n        /* \"#utility.yul\":4186:4217   */\n      calldataload\n        /* \"#utility.yul\":4244:4262   */\n      0xffffffffffffffff\n        /* \"#utility.yul\":4236:4242   */\n      dup2\n        /* \"#utility.yul\":4233:4263   */\n      gt\n        /* \"#utility.yul\":4230:4347   */\n      iszero\n      tag_184\n      jumpi\n        /* \"#utility.yul\":4266:4345   */\n      tag_185\n      tag_110\n      jump\t// in\n    tag_185:\n        /* \"#utility.yul\":4230:4347   */\n    tag_184:\n        /* \"#utility.yul\":4371:4449   */\n      tag_186\n        /* \"#utility.yul\":4441:4448   */\n      dup5\n        /* \"#utility.yul\":4432:4438   */\n      dup3\n        /* \"#utility.yul\":4421:4430   */\n      dup6\n        /* \"#utility.yul\":4417:4439   */\n      add\n        /* \"#utility.yul\":4371:4449   */\n      tag_121\n      jump\t// in\n    tag_186:\n        /* \"#utility.yul\":4361:4449   */\n      swap2\n      pop\n        /* \"#utility.yul\":4157:4459   */\n      pop\n        /* \"#utility.yul\":3927:4466   */\n      swap3\n      swap2\n      pop\n      pop\n      jump\t// out\n        /* \"#utility.yul\":4472:4586   */\n    tag_122:\n        /* \"#utility.yul\":4539:4545   */\n      0x00\n        /* \"#utility.yul\":4573:4578   */\n      dup2\n        /* \"#utility.yul\":4567:4579   */\n      mload\n        /* \"#utility.yul\":4557:4579   */\n      swap1\n      pop\n        /* \"#utility.yul\":4472:4586   */\n      swap2\n      swap1\n      pop\n      jump\t// out\n        /* \"#utility.yul\":4592:4776   */\n    tag_123:\n        /* \"#utility.yul\":4691:4702   */\n      0x00\n        /* \"#utility.yul\":4725:4731   */\n      dup3\n        /* \"#utility.yul\":4720:4723   */\n      dup3\n        /* \"#utility.yul\":4713:4732   */\n      mstore\n        /* \"#utility.yul\":4765:4769   */\n      0x20\n        /* \"#utility.yul\":4760:4763   */\n      dup3\n        /* \"#utility.yul\":4756:4770   */\n      add\n        /* \"#utility.yul\":4741:4770   */\n      swap1\n      pop\n        /* \"#utility.yul\":4592:4776   */\n      swap3\n      swap2\n      pop\n      pop\n      jump\t// out\n        /* \"#utility.yul\":4782:4914   */\n    tag_124:\n        /* \"#utility.yul\":4849:4853   */\n      0x00\n        /* \"#utility.yul\":4872:4875   */\n      dup2\n        /* \"#utility.yul\":4864:4875   */\n      swap1\n      pop\n        /* \"#utility.yul\":4902:4906   */\n      0x20\n        /* \"#utility.yul\":4897:4900   */\n      dup3\n        /* \"#utility.yul\":4893:4907   */\n      add\n        /* \"#utility.yul\":4885:4907   */\n      swap1\n      pop\n        /* \"#utility.yul\":4782:4914   */\n      swap2\n      swap1\n      pop\n      jump\t// out\n        /* \"#utility.yul\":4920:5028   */\n    tag_125:\n        /* \"#utility.yul\":4997:5021   */\n      tag_191\n        /* \"#utility.yul\":5015:5020   */\n      dup2\n        /* \"#utility.yul\":4997:5021   */\n      tag_106\n      jump\t// in\n    tag_191:\n        /* \"#utility.yul\":4992:4995   */\n      dup3\n        /* \"#utility.yul\":4985:5022   */\n      mstore\n        /* \"#utility.yul\":4920:5028   */\n      pop\n      pop\n      jump\t// out\n        /* \"#utility.yul\":5034:5213   */\n    tag_126:\n        /* \"#utility.yul\":5103:5113   */\n      0x00\n        /* \"#utility.yul\":5124:5170   */\n      tag_193\n        /* \"#utility.yul\":5166:5169   */\n      dup4\n        /* \"#utility.yul\":5158:5164   */\n      dup4\n        /* \"#utility.yul\":5124:5170   */\n      tag_125\n      jump\t// in\n    tag_193:\n        /* \"#utility.yul\":5202:5206   */\n      0x20\n        /* \"#utility.yul\":5197:5200   */\n      dup4\n        /* \"#utility.yul\":5193:5207   */\n      add\n        /* \"#utility.yul\":5179:5207   */\n      swap1\n      pop\n        /* \"#utility.yul\":5034:5213   */\n      swap3\n      swap2\n      pop\n      pop\n      jump\t// out\n        /* \"#utility.yul\":5219:5332   */\n    tag_127:\n        /* \"#utility.yul\":5289:5293   */\n      0x00\n        /* \"#utility.yul\":5321:5325   */\n      0x20\n        /* \"#utility.yul\":5316:5319   */\n      dup3\n        /* \"#utility.yul\":5312:5326   */\n      add\n        /* \"#utility.yul\":5304:5326   */\n      swap1\n      pop\n        /* \"#utility.yul\":5219:5332   */\n      swap2\n      swap1\n      pop\n      jump\t// out\n        /* \"#utility.yul\":5368:6100   */\n    tag_128:\n        /* \"#utility.yul\":5487:5490   */\n      0x00\n        /* \"#utility.yul\":5516:5570   */\n      tag_196\n        /* \"#utility.yul\":5564:5569   */\n      dup3\n        /* \"#utility.yul\":5516:5570   */\n      tag_122\n      jump\t// in\n    tag_196:\n        /* \"#utility.yul\":5586:5672   */\n      tag_197\n        /* \"#utility.yul\":5665:5671   */\n      dup2\n        /* \"#utility.yul\":5660:5663   */\n      dup6\n        /* \"#utility.yul\":5586:5672   */\n      tag_123\n      jump\t// in\n    tag_197:\n        /* \"#utility.yul\":5579:5672   */\n      swap4\n      pop\n        /* \"#utility.yul\":5696:5752   */\n      tag_198\n        /* \"#utility.yul\":5746:5751   */\n      dup4\n        /* \"#utility.yul\":5696:5752   */\n      tag_124\n      jump\t// in\n    tag_198:\n        /* \"#utility.yul\":5775:5782   */\n      dup1\n        /* \"#utility.yul\":5806:5807   */\n      0x00\n        /* \"#utility.yul\":5791:6075   */\n    tag_199:\n        /* \"#utility.yul\":5816:5822   */\n      dup4\n        /* \"#utility.yul\":5813:5814   */\n      dup2\n        /* \"#utility.yul\":5810:5823   */\n      lt\n        /* \"#utility.yul\":5791:6075   */\n      iszero\n      tag_201\n      jumpi\n        /* \"#utility.yul\":5892:5898   */\n      dup2\n        /* \"#utility.yul\":5886:5899   */\n      mload\n        /* \"#utility.yul\":5919:5982   */\n      tag_202\n        /* \"#utility.yul\":5978:5981   */\n      dup9\n        /* \"#utility.yul\":5963:5976   */\n      dup3\n        /* \"#utility.yul\":5919:5982   */\n      tag_126\n      jump\t// in\n    tag_202:\n        /* \"#utility.yul\":5912:5982   */\n      swap8\n      pop\n        /* \"#utility.yul\":6005:6065   */\n      tag_203\n        /* \"#utility.yul\":6058:6064   */\n      dup4\n        /* \"#utility.yul\":6005:6065   */\n      tag_127\n      jump\t// in\n    tag_203:\n        /* \"#utility.yul\":5995:6065   */\n      swap3\n      pop\n        /* \"#utility.yul\":5851:6075   */\n      pop\n        /* \"#utility.yul\":5838:5839   */\n      0x01\n        /* \"#utility.yul\":5835:5836   */\n      dup2\n        /* \"#utility.yul\":5831:5840   */\n      add\n        /* \"#utility.yul\":5826:5840   */\n      swap1\n      pop\n        /* \"#utility.yul\":5791:6075   */\n      jump(tag_199)\n    tag_201:\n        /* \"#utility.yul\":5795:5809   */\n      pop\n        /* \"#utility.yul\":6091:6094   */\n      dup6\n        /* \"#utility.yul\":6084:6094   */\n      swap4\n      pop\n        /* \"#utility.yul\":5492:6100   */\n      pop\n      pop\n      pop\n        /* \"#utility.yul\":5368:6100   */\n      swap3\n      swap2\n      pop\n      pop\n      jump\t// out\n        /* \"#utility.yul\":6106:6479   */\n    tag_38:\n        /* \"#utility.yul\":6249:6253   */\n      0x00\n        /* \"#utility.yul\":6287:6289   */\n      0x20\n        /* \"#utility.yul\":6276:6285   */\n      dup3\n        /* \"#utility.yul\":6272:6290   */\n      add\n        /* \"#utility.yul\":6264:6290   */\n      swap1\n      pop\n        /* \"#utility.yul\":6336:6345   */\n      dup2\n        /* \"#utility.yul\":6330:6334   */\n      dup2\n        /* \"#utility.yul\":6326:6346   */\n      sub\n        /* \"#utility.yul\":6322:6323   */\n      0x00\n        /* \"#utility.yul\":6311:6320   */\n      dup4\n        /* \"#utility.yul\":6307:6324   */\n      add\n        /* \"#utility.yul\":6300:6347   */\n      mstore\n        /* \"#utility.yul\":6364:6472   */\n      tag_205\n        /* \"#utility.yul\":6467:6471   */\n      dup2\n        /* \"#utility.yul\":6458:6464   */\n      dup5\n        /* \"#utility.yul\":6364:6472   */\n      tag_128\n      jump\t// in\n    tag_205:\n        /* \"#utility.yul\":6356:6472   */\n      swap1\n      pop\n        /* \"#utility.yul\":6106:6479   */\n      swap3\n      swap2\n      pop\n      pop\n      jump\t// out\n        /* \"#utility.yul\":6485:6814   */\n    tag_41:\n        /* \"#utility.yul\":6544:6550   */\n      0x00\n        /* \"#utility.yul\":6593:6595   */\n      0x20\n        /* \"#utility.yul\":6581:6590   */\n      dup3\n        /* \"#utility.yul\":6572:6579   */\n      dup5\n        /* \"#utility.yul\":6568:6591   */\n      sub\n        /* \"#utility.yul\":6564:6596   */\n      slt\n        /* \"#utility.yul\":6561:6680   */\n      iszero\n      tag_207\n      jumpi\n        /* \"#utility.yul\":6599:6678   */\n      tag_208\n      tag_109\n      jump\t// in\n    tag_208:\n        /* \"#utility.yul\":6561:6680   */\n    tag_207:\n        /* \"#utility.yul\":6719:6720   */\n      0x00\n        /* \"#utility.yul\":6744:6797   */\n      tag_209\n        /* \"#utility.yul\":6789:6796   */\n      dup5\n        /* \"#utility.yul\":6780:6786   */\n      dup3\n        /* \"#utility.yul\":6769:6778   */\n      dup6\n        /* \"#utility.yul\":6765:6787   */\n      add\n        /* \"#utility.yul\":6744:6797   */\n      tag_112\n      jump\t// in\n    tag_209:\n        /* \"#utility.yul\":6734:6797   */\n      swap2\n      pop\n        /* \"#utility.yul\":6690:6807   */\n      pop\n        /* \"#utility.yul\":6485:6814   */\n      swap3\n      swap2\n      pop\n      pop\n      jump\t// out\n        /* \"#utility.yul\":6820:6910   */\n    tag_129:\n        /* \"#utility.yul\":6854:6861   */\n      0x00\n        /* \"#utility.yul\":6897:6902   */\n      dup2\n        /* \"#utility.yul\":6890:6903   */\n      iszero\n        /* \"#utility.yul\":6883:6904   */\n      iszero\n        /* \"#utility.yul\":6872:6904   */\n      swap1\n      pop\n        /* \"#utility.yul\":6820:6910   */\n      swap2\n      swap1\n      pop\n      jump\t// out\n        /* \"#utility.yul\":6916:7025   */\n    tag_130:\n        /* \"#utility.yul\":6997:7018   */\n      tag_212\n        /* \"#utility.yul\":7012:7017   */\n      dup2\n        /* \"#utility.yul\":6997:7018   */\n      tag_129\n      jump\t// in\n    tag_212:\n        /* \"#utility.yul\":6992:6995   */\n      dup3\n        /* \"#utility.yul\":6985:7019   */\n      mstore\n        /* \"#utility.yul\":6916:7025   */\n      pop\n      pop\n      jump\t// out\n        /* \"#utility.yul\":7031:7241   */\n    tag_44:\n        /* \"#utility.yul\":7118:7122   */\n      0x00\n        /* \"#utility.yul\":7156:7158   */\n      0x20\n        /* \"#utility.yul\":7145:7154   */\n      dup3\n        /* \"#utility.yul\":7141:7159   */\n      add\n        /* \"#utility.yul\":7133:7159   */\n      swap1\n      pop\n        /* \"#utility.yul\":7169:7234   */\n      tag_214\n        /* \"#utility.yul\":7231:7232   */\n      0x00\n        /* \"#utility.yul\":7220:7229   */\n      dup4\n        /* \"#utility.yul\":7216:7233   */\n      add\n        /* \"#utility.yul\":7207:7213   */\n      dup5\n        /* \"#utility.yul\":7169:7234   */\n      tag_130\n      jump\t// in\n    tag_214:\n        /* \"#utility.yul\":7031:7241   */\n      swap3\n      swap2\n      pop\n      pop\n      jump\t// out\n        /* \"#utility.yul\":7247:7373   */\n    tag_131:\n        /* \"#utility.yul\":7284:7291   */\n      0x00\n        /* \"#utility.yul\":7324:7366   */\n      0xffffffffffffffffffffffffffffffffffffffff\n        /* \"#utility.yul\":7317:7322   */\n      dup3\n        /* \"#utility.yul\":7313:7367   */\n      and\n        /* \"#utility.yul\":7302:7367   */\n      swap1\n      pop\n        /* \"#utility.yul\":7247:7373   */\n      swap2\n      swap1\n      pop\n      jump\t// out\n        /* \"#utility.yul\":7379:7475   */\n    tag_132:\n        /* \"#utility.yul\":7416:7423   */\n      0x00\n        /* \"#utility.yul\":7445:7469   */\n      tag_217\n        /* \"#utility.yul\":7463:7468   */\n      dup3\n        /* \"#utility.yul\":7445:7469   */\n      tag_131\n      jump\t// in\n    tag_217:\n        /* \"#utility.yul\":7434:7469   */\n      swap1\n      pop\n        /* \"#utility.yul\":7379:7475   */\n      swap2\n      swap1\n      pop\n      jump\t// out\n        /* \"#utility.yul\":7481:7599   */\n    tag_133:\n        /* \"#utility.yul\":7568:7592   */\n      tag_219\n        /* \"#utility.yul\":7586:7591   */\n      dup2\n        /* \"#utility.yul\":7568:7592   */\n      tag_132\n      jump\t// in\n    tag_219:\n        /* \"#utility.yul\":7563:7566   */\n      dup3\n        /* \"#utility.yul\":7556:7593   */\n      mstore\n        /* \"#utility.yul\":7481:7599   */\n      pop\n      pop\n      jump\t// out\n        /* \"#utility.yul\":7605:7827   */\n    tag_54:\n        /* \"#utility.yul\":7698:7702   */\n      0x00\n        /* \"#utility.yul\":7736:7738   */\n      0x20\n        /* \"#utility.yul\":7725:7734   */\n      dup3\n        /* \"#utility.yul\":7721:7739   */\n      add\n        /* \"#utility.yul\":7713:7739   */\n      swap1\n      pop\n        /* \"#utility.yul\":7749:7820   */\n      tag_221\n        /* \"#utility.yul\":7817:7818   */\n      0x00\n        /* \"#utility.yul\":7806:7815   */\n      dup4\n        /* \"#utility.yul\":7802:7819   */\n      add\n        /* \"#utility.yul\":7793:7799   */\n      dup5\n        /* \"#utility.yul\":7749:7820   */\n      tag_133\n      jump\t// in\n    tag_221:\n        /* \"#utility.yul\":7605:7827   */\n      swap3\n      swap2\n      pop\n      pop\n      jump\t// out\n        /* \"#utility.yul\":7833:8013   */\n    tag_134:\n        /* \"#utility.yul\":7881:7958   */\n      0x4e487b7100000000000000000000000000000000000000000000000000000000\n        /* \"#utility.yul\":7878:7879   */\n      0x00\n        /* \"#utility.yul\":7871:7959   */\n      mstore\n        /* \"#utility.yul\":7978:7982   */\n      0x11\n        /* \"#utility.yul\":7975:7976   */\n      0x04\n        /* \"#utility.yul\":7968:7983   */\n      mstore\n        /* \"#utility.yul\":8002:8006   */\n      0x24\n        /* \"#utility.yul\":7999:8000   */\n      0x00\n        /* \"#utility.yul\":7992:8007   */\n      revert\n        /* \"#utility.yul\":8019:8210   */\n    tag_66:\n        /* \"#utility.yul\":8059:8062   */\n      0x00\n        /* \"#utility.yul\":8078:8098   */\n      tag_224\n        /* \"#utility.yul\":8096:8097   */\n      dup3\n        /* \"#utility.yul\":8078:8098   */\n      tag_106\n      jump\t// in\n    tag_224:\n        /* \"#utility.yul\":8073:8098   */\n      swap2\n      pop\n        /* \"#utility.yul\":8112:8132   */\n      tag_225\n        /* \"#utility.yul\":8130:8131   */\n      dup4\n        /* \"#utility.yul\":8112:8132   */\n      tag_106\n      jump\t// in\n    tag_225:\n        /* \"#utility.yul\":8107:8132   */\n      swap3\n      pop\n        /* \"#utility.yul\":8155:8156   */\n      dup3\n        /* \"#utility.yul\":8152:8153   */\n      dup3\n        /* \"#utility.yul\":8148:8157   */\n      add\n        /* \"#utility.yul\":8141:8157   */\n      swap1\n      pop\n        /* \"#utility.yul\":8176:8179   */\n      dup1\n        /* \"#utility.yul\":8173:8174   */\n      dup3\n        /* \"#utility.yul\":8170:8180   */\n      gt\n        /* \"#utility.yul\":8167:8203   */\n      iszero\n      tag_226\n      jumpi\n        /* \"#utility.yul\":8183:8201   */\n      tag_227\n      tag_134\n      jump\t// in\n    tag_227:\n        /* \"#utility.yul\":8167:8203   */\n    tag_226:\n        /* \"#utility.yul\":8019:8210   */\n      swap3\n      swap2\n      pop\n      pop\n      jump\t// out\n        /* \"#utility.yul\":8216:8449   */\n    tag_68:\n        /* \"#utility.yul\":8255:8258   */\n      0x00\n        /* \"#utility.yul\":8278:8302   */\n      tag_229\n        /* \"#utility.yul\":8296:8301   */\n      dup3\n        /* \"#utility.yul\":8278:8302   */\n      tag_106\n      jump\t// in\n    tag_229:\n        /* \"#utility.yul\":8269:8302   */\n      swap2\n      pop\n        /* \"#utility.yul\":8324:8390   */\n      0xffffffffffffffffffffffffffffffffffffffffffffffffffffffffffffffff\n        /* \"#utility.yul\":8317:8322   */\n      dup3\n        /* \"#utility.yul\":8314:8391   */\n      sub\n        /* \"#utility.yul\":8311:8414   */\n      tag_230\n      jumpi\n        /* \"#utility.yul\":8394:8412   */\n      tag_231\n      tag_134\n      jump\t// in\n    tag_231:\n        /* \"#utility.yul\":8311:8414   */\n    tag_230:\n        /* \"#utility.yul\":8441:8442   */\n      0x01\n        /* \"#utility.yul\":8434:8439   */\n      dup3\n        /* \"#utility.yul\":8430:8443   */\n      add\n        /* \"#utility.yul\":8423:8443   */\n      swap1\n      pop\n        /* \"#utility.yul\":8216:8449   */\n      swap2\n      swap1\n      pop\n      jump\t// out\n        /* \"#utility.yul\":8455:8635   */\n    tag_80:\n        /* \"#utility.yul\":8503:8580   */\n      0x4e487b7100000000000000000000000000000000000000000000000000000000\n        /* \"#utility.yul\":8500:8501   */\n      0x00\n        /* \"#utility.yul\":8493:8581   */\n      mstore\n        /* \"#utility.yul\":8600:8604   */\n      0x32\n        /* \"#utility.yul\":8597:8598   */\n      0x04\n        /* \"#utility.yul\":8590:8605   */\n      mstore\n        /* \"#utility.yul\":8624:8628   */\n      0x24\n        /* \"#utility.yul\":8621:8622   */\n      0x00\n        /* \"#utility.yul\":8614:8629   */\n      revert\n        /* \"#utility.yul\":8641:8835   */\n    tag_85:\n        /* \"#utility.yul\":8681:8685   */\n      0x00\n        /* \"#utility.yul\":8701:8721   */\n      tag_234\n        /* \"#utility.yul\":8719:8720   */\n      dup3\n        /* \"#utility.yul\":8701:8721   */\n      tag_106\n      jump\t// in\n    tag_234:\n        /* \"#utility.yul\":8696:8721   */\n      swap2\n      pop\n        /* \"#utility.yul\":8735:8755   */\n      tag_235\n        /* \"#utility.yul\":8753:8754   */\n      dup4\n        /* \"#utility.yul\":8735:8755   */\n      tag_106\n      jump\t// in\n    tag_235:\n        /* \"#utility.yul\":8730:8755   */\n      swap3\n      pop\n        /* \"#utility.yul\":8779:8780   */\n      dup3\n        /* \"#utility.yul\":8776:8777   */\n      dup3\n        /* \"#utility.yul\":8772:8781   */\n      sub\n        /* \"#utility.yul\":8764:8781   */\n      swap1\n      pop\n        /* \"#utility.yul\":8803:8804   */\n      dup2\n        /* \"#utility.yul\":8797:8801   */\n      dup2\n        /* \"#utility.yul\":8794:8805   */\n      gt\n        /* \"#utility.yul\":8791:8828   */\n      iszero\n      tag_236\n      jumpi\n        /* \"#utility.yul\":8808:8826   */\n      tag_237\n      tag_134\n      jump\t// in\n    tag_237:\n        /* \"#utility.yul\":8791:8828   */\n    tag_236:\n        /* \"#utility.yul\":8641:8835   */\n      swap3\n      swap2\n      pop\n      pop\n      jump\t// out\n        /* \"#utility.yul\":8841:9012   */\n    tag_94:\n        /* \"#utility.yul\":8880:8883   */\n      0x00\n        /* \"#utility.yul\":8903:8927   */\n      tag_239\n        /* \"#utility.yul\":8921:8926   */\n      dup3\n        /* \"#utility.yul\":8903:8927   */\n      tag_106\n      jump\t// in\n    tag_239:\n        /* \"#utility.yul\":8894:8927   */\n      swap2\n      pop\n        /* \"#utility.yul\":8949:8953   */\n      0x00\n        /* \"#utility.yul\":8942:8947   */\n      dup3\n        /* \"#utility.yul\":8939:8954   */\n      sub\n        /* \"#utility.yul\":8936:8977   */\n      tag_240\n      jumpi\n        /* \"#utility.yul\":8957:8975   */\n      tag_241\n      tag_134\n      jump\t// in\n    tag_241:\n        /* \"#utility.yul\":8936:8977   */\n    tag_240:\n        /* \"#utility.yul\":9004:9005   */\n      0x01\n        /* \"#utility.yul\":8997:9002   */\n      dup3\n        /* \"#utility.yul\":8993:9006   */\n      sub\n        /* \"#utility.yul\":8986:9006   */\n      swap1\n      pop\n        /* \"#utility.yul\":8841:9012   */\n      swap2\n      swap1\n      pop\n      jump\t// out\n\n    auxdata: 0xa2646970667358221220f7bdb7337718ff58ccb25a784dac85f13697ccbe3b4cd824ec7aa9c0c5fd29a764736f6c634300081c0033\n}\n",
				"bytecode": {
					"linkReferences": {},
					"object": "6101006040526402540be3ff60809081525034801561001c575f5ffd5b503073ffffffffffffffffffffffffffffffffffffffff1660a08173ffffffffffffffffffffffffffffffffffffffff168152505061045e6080818152505061006961007560201b60201c565b60e08181525050610082565b5f5f600990508091505090565b60805160a05160c05160e0516109d56100b55f395f6102a001525f61022d01525f61047401525f61045001526109d55ff3fe608060405234801561000f575f5ffd5b50600436106100a7575f3560e01c80636297206f1161006f5780636297206f146101535780637141fb0014610183578063b0cfa9fc146101b3578063ed7ff875146101d1578063f1513021146101ef578063f8a8fd6d1461020d576100a7565b80631d9afdd2146100ab57806328766320146100c95780632bbacaaa146100f95780634064572e146101175780635d14639d14610135575b5f5ffd5b6100b361022b565b6040516100c091906104bb565b60405180910390f35b6100e360048036038101906100de919061050f565b61024f565b6040516100f091906104bb565b60405180910390f35b610101610268565b60405161010e91906104bb565b60405180910390f35b61011f61029e565b60405161012c91906104bb565b60405180910390f35b61013d6102c2565b60405161014a91906104bb565b60405180910390f35b61016d6004803603810190610168919061069d565b6102fe565b60405161017a919061079b565b60405180910390f35b61019d600480360381019061019891906107bb565b6103fe565b6040516101aa9190610800565b60405180910390f35b6101bb610418565b6040516101c891906104bb565b60405180910390f35b6101d961044e565b6040516101e691906104bb565b60405180910390f35b6101f7610472565b6040516102049190610858565b60405180910390f35b610215610496565b60405161022291906104bb565b60405180910390f35b7f000000000000000000000000000000000000000000000000000000000000000081565b5f8183101561025e5781610260565b825b905092915050565b5f5f5f90505f5f90505b808261027e919061089e565b9150808061028b906108d1565b915050600a811061027257819250505090565b7f000000000000000000000000000000000000000000000000000000000000000081565b5f5f5f90505f5f90505b600a8110156102f65780826102e1919061089e565b915080806102ee906108d1565b9150506102cc565b819250505090565b60605f600190505b82518110156103f5575f83828151811061032357610322610918565b5b602002602001015190505f8290505b6001811015801561036857508460018261034c9190610945565b8151811061035d5761035c610918565b5b602002602001015182105b156103c6578460018261037b9190610945565b8151811061038c5761038b610918565b5b60200260200101518582815181106103a7576103a6610918565b5b60200260200101818152505080806103be90610978565b915050610332565b818582815181106103da576103d9610918565b5b60200260200101818152505050508080600101915050610306565b50819050919050565b5f5f820361040f5760019050610413565b5f90505b919050565b5f5f5f90505f5f90505b600a811015610446578082610437919061089e565b91508080600101915050610422565b508091505090565b7f000000000000000000000000000000000000000000000000000000000000000081565b7f000000000000000000000000000000000000000000000000000000000000000081565b5f5f600990508091505090565b5f819050919050565b6104b5816104a3565b82525050565b5f6020820190506104ce5f8301846104ac565b92915050565b5f604051905090565b5f5ffd5b5f5ffd5b6104ee816104a3565b81146104f8575f5ffd5b50565b5f81359050610509816104e5565b92915050565b5f5f60408385031215610525576105246104dd565b5b5f610532858286016104fb565b9250506020610543858286016104fb565b9150509250929050565b5f5ffd5b5f601f19601f8301169050919050565b7f4e487b71000000000000000000000000000000000000000000000000000000005f52604160045260245ffd5b61059782610551565b810181811067ffffffffffffffff821117156105b6576105b5610561565b5b80604052505050565b5f6105c86104d4565b90506105d4828261058e565b919050565b5f67ffffffffffffffff8211156105f3576105f2610561565b5b602082029050602081019050919050565b5f5ffd5b5f61061a610615846105d9565b6105bf565b9050808382526020820190506020840283018581111561063d5761063c610604565b5b835b81811015610666578061065288826104fb565b84526020840193505060208101905061063f565b5050509392505050565b5f82601f8301126106845761068361054d565b5b8135610694848260208601610608565b91505092915050565b5f602082840312156106b2576106b16104dd565b5b5f82013567ffffffffffffffff8111156106cf576106ce6104e1565b5b6106db84828501610670565b91505092915050565b5f81519050919050565b5f82825260208201905092915050565b5f819050602082019050919050565b610716816104a3565b82525050565b5f610727838361070d565b60208301905092915050565b5f602082019050919050565b5f610749826106e4565b61075381856106ee565b935061075e836106fe565b805f5b8381101561078e578151610775888261071c565b975061078083610733565b925050600181019050610761565b5085935050505092915050565b5f6020820190508181035f8301526107b3818461073f565b905092915050565b5f602082840312156107d0576107cf6104dd565b5b5f6107dd848285016104fb565b91505092915050565b5f8115159050919050565b6107fa816107e6565b82525050565b5f6020820190506108135f8301846107f1565b92915050565b5f73ffffffffffffffffffffffffffffffffffffffff82169050919050565b5f61084282610819565b9050919050565b61085281610838565b82525050565b5f60208201905061086b5f830184610849565b92915050565b7f4e487b71000000000000000000000000000000000000000000000000000000005f52601160045260245ffd5b5f6108a8826104a3565b91506108b3836104a3565b92508282019050808211156108cb576108ca610871565b5b92915050565b5f6108db826104a3565b91507fffffffffffffffffffffffffffffffffffffffffffffffffffffffffffffffff820361090d5761090c610871565b5b600182019050919050565b7f4e487b71000000000000000000000000000000000000000000000000000000005f52603260045260245ffd5b5f61094f826104a3565b915061095a836104a3565b925082820390508181111561097257610971610871565b5b92915050565b5f610982826104a3565b91505f820361099457610993610871565b5b60018203905091905056fea2646970667358221220f7bdb7337718ff58ccb25a784dac85f13697ccbe3b4cd824ec7aa9c0c5fd29a764736f6c634300081c0033",
					"opcodes": "PUSH2 0x100 PUSH1 0x40 MSTORE PUSH5 0x2540BE3FF PUSH1 0x80 SWAP1 DUP2 MSTORE POP CALLVALUE DUP1 ISZERO PUSH2 0x1C JUMPI PUSH0 PUSH0 REVERT JUMPDEST POP ADDRESS PUSH20 0xFFFFFFFFFFFFFFFFFFFFFFFFFFFFFFFFFFFFFFFF AND PUSH1 0xA0 DUP2 PUSH20 0xFFFFFFFFFFFFFFFFFFFFFFFFFFFFFFFFFFFFFFFF AND DUP2 MSTORE POP POP PUSH2 0x45E PUSH1 0x80 DUP2 DUP2 MSTORE POP POP PUSH2 0x69 PUSH2 0x75 PUSH1 0x20 SHL PUSH1 0x20 SHR JUMP JUMPDEST PUSH1 0xE0 DUP2 DUP2 MSTORE POP POP PUSH2 0x82 JUMP JUMPDEST PUSH0 PUSH0 PUSH1 0x9 SWAP1 POP DUP1 SWAP2 POP POP SWAP1 JUMP JUMPDEST PUSH1 0x80 MLOAD PUSH1 0xA0 MLOAD PUSH1 0xC0 MLOAD PUSH1 0xE0 MLOAD PUSH2 0x9D5 PUSH2 0xB5 PUSH0 CODECOPY PUSH0 PUSH2 0x2A0 ADD MSTORE PUSH0 PUSH2 0x22D ADD MSTORE PUSH0 PUSH2 0x474 ADD MSTORE PUSH0 PUSH2 0x450 ADD MSTORE PUSH2 0x9D5 PUSH0 RETURN INVALID PUSH1 0x80 PUSH1 0x40 MSTORE CALLVALUE DUP1 ISZERO PUSH2 0xF JUMPI PUSH0 PUSH0 REVERT JUMPDEST POP PUSH1 0x4 CALLDATASIZE LT PUSH2 0xA7 JUMPI PUSH0 CALLDATALOAD PUSH1 0xE0 SHR DUP1 PUSH4 0x6297206F GT PUSH2 0x6F JUMPI DUP1 PUSH4 0x6297206F EQ PUSH2 0x153 JUMPI DUP1 PUSH4 0x7141FB00 EQ PUSH2 0x183 JUMPI DUP1 PUSH4 0xB0CFA9FC EQ PUSH2 0x1B3 JUMPI DUP1 PUSH4 0xED7FF875 EQ PUSH2 0x1D1 JUMPI DUP1 PUSH4 0xF1513021 EQ PUSH2 0x1EF JUMPI DUP1 PUSH4 0xF8A8FD6D EQ PUSH2 0x20D JUMPI PUSH2 0xA7 JUMP JUMPDEST DUP1 PUSH4 0x1D9AFDD2 EQ PUSH2 0xAB JUMPI DUP1 PUSH4 0x28766320 EQ PUSH2 0xC9 JUMPI DUP1 PUSH4 0x2BBACAAA EQ PUSH2 0xF9 JUMPI DUP1 PUSH4 0x4064572E EQ PUSH2 0x117 JUMPI DUP1 PUSH4 0x5D14639D EQ PUSH2 0x135 JUMPI JUMPDEST PUSH0 PUSH0 REVERT JUMPDEST PUSH2 0xB3 PUSH2 0x22B JUMP JUMPDEST PUSH1 0x40 MLOAD PUSH2 0xC0 SWAP2 SWAP1 PUSH2 0x4BB JUMP JUMPDEST PUSH1 0x40 MLOAD DUP1 SWAP2 SUB SWAP1 RETURN JUMPDEST PUSH2 0xE3 PUSH1 0x4 DUP1 CALLDATASIZE SUB DUP2 ADD SWAP1 PUSH2 0xDE SWAP2 SWAP1 PUSH2 0x50F JUMP JUMPDEST PUSH2 0x24F JUMP JUMPDEST PUSH1 0x40 MLOAD PUSH2 0xF0 SWAP2 SWAP1 PUSH2 0x4BB JUMP JUMPDEST PUSH1 0x40 MLOAD DUP1 SWAP2 SUB SWAP1 RETURN JUMPDEST PUSH2 0x101 PUSH2 0x268 JUMP JUMPDEST PUSH1 0x40 MLOAD PUSH2 0x10E SWAP2 SWAP1 PUSH2 0x4BB JUMP JUMPDEST PUSH1 0x40 MLOAD DUP1 SWAP2 SUB SWAP1 RETURN JUMPDEST PUSH2 0x11F PUSH2 0x29E JUMP JUMPDEST PUSH1 0x40 MLOAD PUSH2 0x12C SWAP2 SWAP1 PUSH2 0x4BB JUMP JUMPDEST PUSH1 0x40 MLOAD DUP1 SWAP2 SUB SWAP1 RETURN JUMPDEST PUSH2 0x13D PUSH2 0x2C2 JUMP JUMPDEST PUSH1 0x40 MLOAD PUSH2 0x14A SWAP2 SWAP1 PUSH2 0x4BB JUMP JUMPDEST PUSH1 0x40 MLOAD DUP1 SWAP2 SUB SWAP1 RETURN JUMPDEST PUSH2 0x16D PUSH1 0x4 DUP1 CALLDATASIZE SUB DUP2 ADD SWAP1 PUSH2 0x168 SWAP2 SWAP1 PUSH2 0x69D JUMP JUMPDEST PUSH2 0x2FE JUMP JUMPDEST PUSH1 0x40 MLOAD PUSH2 0x17A SWAP2 SWAP1 PUSH2 0x79B JUMP JUMPDEST PUSH1 0x40 MLOAD DUP1 SWAP2 SUB SWAP1 RETURN JUMPDEST PUSH2 0x19D PUSH1 0x4 DUP1 CALLDATASIZE SUB DUP2 ADD SWAP1 PUSH2 0x198 SWAP2 SWAP1 PUSH2 0x7BB JUMP JUMPDEST PUSH2 0x3FE JUMP JUMPDEST PUSH1 0x40 MLOAD PUSH2 0x1AA SWAP2 SWAP1 PUSH2 0x800 JUMP JUMPDEST PUSH1 0x40 MLOAD DUP1 SWAP2 SUB SWAP1 RETURN JUMPDEST PUSH2 0x1BB PUSH2 0x418 JUMP JUMPDEST PUSH1 0x40 MLOAD PUSH2 0x1C8 SWAP2 SWAP1 PUSH2 0x4BB JUMP JUMPDEST PUSH1 0x40 MLOAD DUP1 SWAP2 SUB SWAP1 RETURN JUMPDEST PUSH2 0x1D9 PUSH2 0x44E JUMP JUMPDEST PUSH1 0x40 MLOAD PUSH2 0x1E6 SWAP2 SWAP1 PUSH2 0x4BB JUMP JUMPDEST PUSH1 0x40 MLOAD DUP1 SWAP2 SUB SWAP1 RETURN JUMPDEST PUSH2 0x1F7 PUSH2 0x472 JUMP JUMPDEST PUSH1 0x40 MLOAD PUSH2 0x204 SWAP2 SWAP1 PUSH2 0x858 JUMP JUMPDEST PUSH1 0x40 MLOAD DUP1 SWAP2 SUB SWAP1 RETURN JUMPDEST PUSH2 0x215 PUSH2 0x496 JUMP JUMPDEST PUSH1 0x40 MLOAD PUSH2 0x222 SWAP2 SWAP1 PUSH2 0x4BB JUMP JUMPDEST PUSH1 0x40 MLOAD DUP1 SWAP2 SUB SWAP1 RETURN JUMPDEST PUSH32 0x0 DUP2 JUMP JUMPDEST PUSH0 DUP2 DUP4 LT ISZERO PUSH2 0x25E JUMPI DUP2 PUSH2 0x260 JUMP JUMPDEST DUP3 JUMPDEST SWAP1 POP SWAP3 SWAP2 POP POP JUMP JUMPDEST PUSH0 PUSH0 PUSH0 SWAP1 POP PUSH0 PUSH0 SWAP1 POP JUMPDEST DUP1 DUP3 PUSH2 0x27E SWAP2 SWAP1 PUSH2 0x89E JUMP JUMPDEST SWAP2 POP DUP1 DUP1 PUSH2 0x28B SWAP1 PUSH2 0x8D1 JUMP JUMPDEST SWAP2 POP POP PUSH1 0xA DUP2 LT PUSH2 0x272 JUMPI DUP2 SWAP3 POP POP POP SWAP1 JUMP JUMPDEST PUSH32 0x0 DUP2 JUMP JUMPDEST PUSH0 PUSH0 PUSH0 SWAP1 POP PUSH0 PUSH0 SWAP1 POP JUMPDEST PUSH1 0xA DUP2 LT ISZERO PUSH2 0x2F6 JUMPI DUP1 DUP3 PUSH2 0x2E1 SWAP2 SWAP1 PUSH2 0x89E JUMP JUMPDEST SWAP2 POP DUP1 DUP1 PUSH2 0x2EE SWAP1 PUSH2 0x8D1 JUMP JUMPDEST SWAP2 POP POP PUSH2 0x2CC JUMP JUMPDEST DUP2 SWAP3 POP POP POP SWAP1 JUMP JUMPDEST PUSH1 0x60 PUSH0 PUSH1 0x1 SWAP1 POP JUMPDEST DUP3 MLOAD DUP2 LT ISZERO PUSH2 0x3F5 JUMPI PUSH0 DUP4 DUP3 DUP2 MLOAD DUP2 LT PUSH2 0x323 JUMPI PUSH2 0x322 PUSH2 0x918 JUMP JUMPDEST JUMPDEST PUSH1 0x20 MUL PUSH1 0x20 ADD ADD MLOAD SWAP1 POP PUSH0 DUP3 SWAP1 POP JUMPDEST PUSH1 0x1 DUP2 LT ISZERO DUP1 ISZERO PUSH2 0x368 JUMPI POP DUP5 PUSH1 0x1 DUP3 PUSH2 0x34C SWAP2 SWAP1 PUSH2 0x945 JUMP JUMPDEST DUP2 MLOAD DUP2 LT PUSH2 0x35D JUMPI PUSH2 0x35C PUSH2 0x918 JUMP JUMPDEST JUMPDEST PUSH1 0x20 MUL PUSH1 0x20 ADD ADD MLOAD DUP3 LT JUMPDEST ISZERO PUSH2 0x3C6 JUMPI DUP5 PUSH1 0x1 DUP3 PUSH2 0x37B SWAP2 SWAP1 PUSH2 0x945 JUMP JUMPDEST DUP2 MLOAD DUP2 LT PUSH2 0x38C JUMPI PUSH2 0x38B PUSH2 0x918 JUMP JUMPDEST JUMPDEST PUSH1 0x20 MUL PUSH1 0x20 ADD ADD MLOAD DUP6 DUP3 DUP2 MLOAD DUP2 LT PUSH2 0x3A7 JUMPI PUSH2 0x3A6 PUSH2 0x918 JUMP JUMPDEST JUMPDEST PUSH1 0x20 MUL PUSH1 0x20 ADD ADD DUP2 DUP2 MSTORE POP POP DUP1 DUP1 PUSH2 0x3BE SWAP1 PUSH2 0x978 JUMP JUMPDEST SWAP2 POP POP PUSH2 0x332 JUMP JUMPDEST DUP2 DUP6 DUP3 DUP2 MLOAD DUP2 LT PUSH2 0x3DA JUMPI PUSH2 0x3D9 PUSH2 0x918 JUMP JUMPDEST JUMPDEST PUSH1 0x20 MUL PUSH1 0x20 ADD ADD DUP2 DUP2 MSTORE POP POP POP POP DUP1 DUP1 PUSH1 0x1 ADD SWAP2 POP POP PUSH2 0x306 JUMP JUMPDEST POP DUP2 SWAP1 POP SWAP2 SWAP1 POP JUMP JUMPDEST PUSH0 PUSH0 DUP3 SUB PUSH2 0x40F JUMPI PUSH1 0x1 SWAP1 POP PUSH2 0x413 JUMP JUMPDEST PUSH0 SWAP1 POP JUMPDEST SWAP2 SWAP1 POP JUMP JUMPDEST PUSH0 PUSH0 PUSH0 SWAP1 POP PUSH0 PUSH0 SWAP1 POP JUMPDEST PUSH1 0xA DUP2 LT ISZERO PUSH2 0x446 JUMPI DUP1 DUP3 PUSH2 0x437 SWAP2 SWAP1 PUSH2 0x89E JUMP JUMPDEST SWAP2 POP DUP1 DUP1 PUSH1 0x1 ADD SWAP2 POP POP PUSH2 0x422 JUMP JUMPDEST POP DUP1 SWAP2 POP POP SWAP1 JUMP JUMPDEST PUSH32 0x0 DUP2 JUMP JUMPDEST PUSH32 0x0 DUP2 JUMP JUMPDEST PUSH0 PUSH0 PUSH1 0x9 SWAP1 POP DUP1 SWAP2 POP POP SWAP1 JUMP JUMPDEST PUSH0 DUP2 SWAP1 POP SWAP2 SWAP1 POP JUMP JUMPDEST PUSH2 0x4B5 DUP2 PUSH2 0x4A3 JUMP JUMPDEST DUP3 MSTORE POP POP JUMP JUMPDEST PUSH0 PUSH1 0x20 DUP3 ADD SWAP1 POP PUSH2 0x4CE PUSH0 DUP4 ADD DUP5 PUSH2 0x4AC JUMP JUMPDEST SWAP3 SWAP2 POP POP JUMP JUMPDEST PUSH0 PUSH1 0x40 MLOAD SWAP1 POP SWAP1 JUMP JUMPDEST PUSH0 PUSH0 REVERT JUMPDEST PUSH0 PUSH0 REVERT JUMPDEST PUSH2 0x4EE DUP2 PUSH2 0x4A3 JUMP JUMPDEST DUP2 EQ PUSH2 0x4F8 JUMPI PUSH0 PUSH0 REVERT JUMPDEST POP JUMP JUMPDEST PUSH0 DUP2 CALLDATALOAD SWAP1 POP PUSH2 0x509 DUP2 PUSH2 0x4E5 JUMP JUMPDEST SWAP3 SWAP2 POP POP JUMP JUMPDEST PUSH0 PUSH0 PUSH1 0x40 DUP4 DUP6 SUB SLT ISZERO PUSH2 0x525 JUMPI PUSH2 0x524 PUSH2 0x4DD JUMP JUMPDEST JUMPDEST PUSH0 PUSH2 0x532 DUP6 DUP3 DUP7 ADD PUSH2 0x4FB JUMP JUMPDEST SWAP3 POP POP PUSH1 0x20 PUSH2 0x543 DUP6 DUP3 DUP7 ADD PUSH2 0x4FB JUMP JUMPDEST SWAP2 POP POP SWAP3 POP SWAP3 SWAP1 POP JUMP JUMPDEST PUSH0 PUSH0 REVERT JUMPDEST PUSH0 PUSH1 0x1F NOT PUSH1 0x1F DUP4 ADD AND SWAP1 POP SWAP2 SWAP1 POP JUMP JUMPDEST PUSH32 0x4E487B7100000000000000000000000000000000000000000000000000000000 PUSH0 MSTORE PUSH1 0x41 PUSH1 0x4 MSTORE PUSH1 0x24 PUSH0 REVERT JUMPDEST PUSH2 0x597 DUP3 PUSH2 0x551 JUMP JUMPDEST DUP2 ADD DUP2 DUP2 LT PUSH8 0xFFFFFFFFFFFFFFFF DUP3 GT OR ISZERO PUSH2 0x5B6 JUMPI PUSH2 0x5B5 PUSH2 0x561 JUMP JUMPDEST JUMPDEST DUP1 PUSH1 0x40 MSTORE POP POP POP JUMP JUMPDEST PUSH0 PUSH2 0x5C8 PUSH2 0x4D4 JUMP JUMPDEST SWAP1 POP PUSH2 0x5D4 DUP3 DUP3 PUSH2 0x58E JUMP JUMPDEST SWAP2 SWAP1 POP JUMP JUMPDEST PUSH0 PUSH8 0xFFFFFFFFFFFFFFFF DUP3 GT ISZERO PUSH2 0x5F3 JUMPI PUSH2 0x5F2 PUSH2 0x561 JUMP JUMPDEST JUMPDEST PUSH1 0x20 DUP3 MUL SWAP1 POP PUSH1 0x20 DUP2 ADD SWAP1 POP SWAP2 SWAP1 POP JUMP JUMPDEST PUSH0 PUSH0 REVERT JUMPDEST PUSH0 PUSH2 0x61A PUSH2 0x615 DUP5 PUSH2 0x5D9 JUMP JUMPDEST PUSH2 0x5BF JUMP JUMPDEST SWAP1 POP DUP1 DUP4 DUP3 MSTORE PUSH1 0x20 DUP3 ADD SWAP1 POP PUSH1 0x20 DUP5 MUL DUP4 ADD DUP6 DUP2 GT ISZERO PUSH2 0x63D JUMPI PUSH2 0x63C PUSH2 0x604 JUMP JUMPDEST JUMPDEST DUP4 JUMPDEST DUP2 DUP2 LT ISZERO PUSH2 0x666 JUMPI DUP1 PUSH2 0x652 DUP9 DUP3 PUSH2 0x4FB JUMP JUMPDEST DUP5 MSTORE PUSH1 0x20 DUP5 ADD SWAP4 POP POP PUSH1 0x20 DUP2 ADD SWAP1 POP PUSH2 0x63F JUMP JUMPDEST POP POP POP SWAP4 SWAP3 POP POP POP JUMP JUMPDEST PUSH0 DUP3 PUSH1 0x1F DUP4 ADD SLT PUSH2 0x684 JUMPI PUSH2 0x683 PUSH2 0x54D JUMP JUMPDEST JUMPDEST DUP2 CALLDATALOAD PUSH2 0x694 DUP5 DUP3 PUSH1 0x20 DUP7 ADD PUSH2 0x608 JUMP JUMPDEST SWAP2 POP POP SWAP3 SWAP2 POP POP JUMP JUMPDEST PUSH0 PUSH1 0x20 DUP3 DUP5 SUB SLT ISZERO PUSH2 0x6B2 JUMPI PUSH2 0x6B1 PUSH2 0x4DD JUMP JUMPDEST JUMPDEST PUSH0 DUP3 ADD CALLDATALOAD PUSH8 0xFFFFFFFFFFFFFFFF DUP2 GT ISZERO PUSH2 0x6CF JUMPI PUSH2 0x6CE PUSH2 0x4E1 JUMP JUMPDEST JUMPDEST PUSH2 0x6DB DUP5 DUP3 DUP6 ADD PUSH2 0x670 JUMP JUMPDEST SWAP2 POP POP SWAP3 SWAP2 POP POP JUMP JUMPDEST PUSH0 DUP2 MLOAD SWAP1 POP SWAP2 SWAP1 POP JUMP JUMPDEST PUSH0 DUP3 DUP3 MSTORE PUSH1 0x20 DUP3 ADD SWAP1 POP SWAP3 SWAP2 POP POP JUMP JUMPDEST PUSH0 DUP2 SWAP1 POP PUSH1 0x20 DUP3 ADD SWAP1 POP SWAP2 SWAP1 POP JUMP JUMPDEST PUSH2 0x716 DUP2 PUSH2 0x4A3 JUMP JUMPDEST DUP3 MSTORE POP POP JUMP JUMPDEST PUSH0 PUSH2 0x727 DUP4 DUP4 PUSH2 0x70D JUMP JUMPDEST PUSH1 0x20 DUP4 ADD SWAP1 POP SWAP3 SWAP2 POP POP JUMP JUMPDEST PUSH0 PUSH1 0x20 DUP3 ADD SWAP1 POP SWAP2 SWAP1 POP JUMP JUMPDEST PUSH0 PUSH2 0x749 DUP3 PUSH2 0x6E4 JUMP JUMPDEST PUSH2 0x753 DUP2 DUP6 PUSH2 0x6EE JUMP JUMPDEST SWAP4 POP PUSH2 0x75E DUP4 PUSH2 0x6FE JUMP JUMPDEST DUP1 PUSH0 JUMPDEST DUP4 DUP2 LT ISZERO PUSH2 0x78E JUMPI DUP2 MLOAD PUSH2 0x775 DUP9 DUP3 PUSH2 0x71C JUMP JUMPDEST SWAP8 POP PUSH2 0x780 DUP4 PUSH2 0x733 JUMP JUMPDEST SWAP3 POP POP PUSH1 0x1 DUP2 ADD SWAP1 POP PUSH2 0x761 JUMP JUMPDEST POP DUP6 SWAP4 POP POP POP POP SWAP3 SWAP2 POP POP JUMP JUMPDEST PUSH0 PUSH1 0x20 DUP3 ADD SWAP1 POP DUP2 DUP2 SUB PUSH0 DUP4 ADD MSTORE PUSH2 0x7B3 DUP2 DUP5 PUSH2 0x73F JUMP JUMPDEST SWAP1 POP SWAP3 SWAP2 POP POP JUMP JUMPDEST PUSH0 PUSH1 0x20 DUP3 DUP5 SUB SLT ISZERO PUSH2 0x7D0 JUMPI PUSH2 0x7CF PUSH2 0x4DD JUMP JUMPDEST JUMPDEST PUSH0 PUSH2 0x7DD DUP5 DUP3 DUP6 ADD PUSH2 0x4FB JUMP JUMPDEST SWAP2 POP POP SWAP3 SWAP2 POP POP JUMP JUMPDEST PUSH0 DUP2 ISZERO ISZERO SWAP1 POP SWAP2 SWAP1 POP JUMP JUMPDEST PUSH2 0x7FA DUP2 PUSH2 0x7E6 JUMP JUMPDEST DUP3 MSTORE POP POP JUMP JUMPDEST PUSH0 PUSH1 0x20 DUP3 ADD SWAP1 POP PUSH2 0x813 PUSH0 DUP4 ADD DUP5 PUSH2 0x7F1 JUMP JUMPDEST SWAP3 SWAP2 POP POP JUMP JUMPDEST PUSH0 PUSH20 0xFFFFFFFFFFFFFFFFFFFFFFFFFFFFFFFFFFFFFFFF DUP3 AND SWAP1 POP SWAP2 SWAP1 POP JUMP JUMPDEST PUSH0 PUSH2 0x842 DUP3 PUSH2 0x819 JUMP JUMPDEST SWAP1 POP SWAP2 SWAP1 POP JUMP JUMPDEST PUSH2 0x852 DUP2 PUSH2 0x838 JUMP JUMPDEST DUP3 MSTORE POP POP JUMP JUMPDEST PUSH0 PUSH1 0x20 DUP3 ADD SWAP1 POP PUSH2 0x86B PUSH0 DUP4 ADD DUP5 PUSH2 0x849 JUMP JUMPDEST SWAP3 SWAP2 POP POP JUMP JUMPDEST PUSH32 0x4E487B7100000000000000000000000000000000000000000000000000000000 PUSH0 MSTORE PUSH1 0x11 PUSH1 0x4 MSTORE PUSH1 0x24 PUSH0 REVERT JUMPDEST PUSH0 PUSH2 0x8A8 DUP3 PUSH2 0x4A3 JUMP JUMPDEST SWAP2 POP PUSH2 0x8B3 DUP4 PUSH2 0x4A3 JUMP JUMPDEST SWAP3 POP DUP3 DUP3 ADD SWAP1 POP DUP1 DUP3 GT ISZERO PUSH2 0x8CB JUMPI PUSH2 0x8CA PUSH2 0x871 JUMP JUMPDEST JUMPDEST SWAP3 SWAP2 POP POP JUMP JUMPDEST PUSH0 PUSH2 0x8DB DUP3 PUSH2 0x4A3 JUMP JUMPDEST SWAP2 POP PUSH32 0xFFFFFFFFFFFFFFFFFFFFFFFFFFFFFFFFFFFFFFFFFFFFFFFFFFFFFFFFFFFFFFFF DUP3 SUB PUSH2 0x90D JUMPI PUSH2 0x90C PUSH2 0x871 JUMP JUMPDEST JUMPDEST PUSH1 0x1 DUP3 ADD SWAP1 POP SWAP2 SWAP1 POP JUMP JUMPDEST PUSH32 0x4E487B7100000000000000000000000000000000000000000000000000000000 PUSH0 MSTORE PUSH1 0x32 PUSH1 0x4 MSTORE PUSH1 0x24 PUSH0 REVERT JUMPDEST PUSH0 PUSH2 0x94F DUP3 PUSH2 0x4A3 JUMP JUMPDEST SWAP2 POP PUSH2 0x95A DUP4 PUSH2 0x4A3 JUMP JUMPDEST SWAP3 POP DUP3 DUP3 SUB SWAP1 POP DUP2 DUP2 GT ISZERO PUSH2 0x972 JUMPI PUSH2 0x971 PUSH2 0x871 JUMP JUMPDEST JUMPDEST SWAP3 SWAP2 POP POP JUMP JUMPDEST PUSH0 PUSH2 0x982 DUP3 PUSH2 0x4A3 JUMP JUMPDEST SWAP2 POP PUSH0 DUP3 SUB PUSH2 0x994 JUMPI PUSH2 0x993 PUSH2 0x871 JUMP JUMPDEST JUMPDEST PUSH1 0x1 DUP3 SUB SWAP1 POP SWAP2 SWAP1 POP JUMP INVALID LOG2 PUSH5 0x6970667358 0x22 SLT KECCAK256 0xF7 0xBD 0xB7 CALLER PUSH24 0x18FF58CCB25A784DAC85F13697CCBE3B4CD824EC7AA9C0C5 REVERT 0x29 0xA7 PUSH5 0x736F6C6343 STOP ADDMOD SHR STOP CALLER "
				},
				"gasEstimates": {
					"creation": {
						"codeDepositCost": "503400",
						"executionCost": "infinite",
						"totalCost": "infinite"
					},
					"external": {
						"IMMUTABLE_ADDRESS()": "infinite",
						"IMMUTABLE_BLOCK()": "infinite",
						"IMMUTABLE_NUM()": "infinite",
						"IMMUTABLE_TEST()": "infinite",
						"doWhileTest()": "infinite",
						"forLoopTest()": "infinite",
						"ifElseTest(uint256)": "654",
						"insertionSort(uint256[])": "infinite",
						"ternaryTest(uint256,uint256)": "infinite",
						"test()": "454",
						"whileTest()": "infinite"
					}
				},
				"methodIdentifiers": {
					"IMMUTABLE_ADDRESS()": "f1513021",
					"IMMUTABLE_BLOCK()": "1d9afdd2",
					"IMMUTABLE_NUM()": "ed7ff875",
					"IMMUTABLE_TEST()": "4064572e",
					"doWhileTest()": "2bbacaaa",
					"forLoopTest()": "b0cfa9fc",
					"ifElseTest(uint256)": "7141fb00",
					"insertionSort(uint256[])": "6297206f",
					"ternaryTest(uint256,uint256)": "28766320",
					"test()": "f8a8fd6d",
					"whileTest()": "5d14639d"
				}
			},
			"storageLayout": {
				"storage": [],
				"types": null
			},
			"userdoc": {
				"kind": "user",
				"methods": {},
				"version": 1
			}
		}
	}
}