{
	"contracts/study/OwnerTest.sol": {
		"MyContract": {
			"abi": [
				{
					"inputs": [],
					"stateMutability": "nonpayable",
					"type": "constructor"
				},
				{
					"inputs": [
						{
							"internalType": "address",
							"name": "owner",
							"type": "address"
						}
					],
					"name": "OwnableInvalidOwner",
					"type": "error"
				},
				{
					"inputs": [
						{
							"internalType": "address",
							"name": "account",
							"type": "address"
						}
					],
					"name": "OwnableUnauthorizedAccount",
					"type": "error"
				},
				{
					"anonymous": false,
					"inputs": [
						{
							"indexed": true,
							"internalType": "address",
							"name": "previousOwner",
							"type": "address"
						},
						{
							"indexed": true,
							"internalType": "address",
							"name": "newOwner",
							"type": "address"
						}
					],
					"name": "OwnershipTransferred",
					"type": "event"
				},
				{
					"inputs": [],
					"name": "data",
					"outputs": [
						{
							"internalType": "string",
							"name": "",
							"type": "string"
						}
					],
					"stateMutability": "view",
					"type": "function"
				},
				{
					"inputs": [],
					"name": "owner",
					"outputs": [
						{
							"internalType": "address",
							"name": "",
							"type": "address"
						}
					],
					"stateMutability": "view",
					"type": "function"
				},
				{
					"inputs": [],
					"name": "renounceOwnership",
					"outputs": [],
					"stateMutability": "nonpayable",
					"type": "function"
				},
				{
					"inputs": [
						{
							"internalType": "string",
							"name": "_data",
							"type": "string"
						}
					],
					"name": "setData",
					"outputs": [],
					"stateMutability": "nonpayable",
					"type": "function"
				},
				{
					"inputs": [
						{
							"internalType": "address",
							"name": "newOwner",
							"type": "address"
						}
					],
					"name": "transferOwnership",
					"outputs": [],
					"stateMutability": "nonpayable",
					"type": "function"
				}
			],
			"devdoc": {
				"errors": {
					"OwnableInvalidOwner(address)": [
						{
							"details": "The owner is not a valid owner account. (eg. `address(0)`)"
						}
					],
					"OwnableUnauthorizedAccount(address)": [
						{
							"details": "The caller account is not authorized to perform an operation."
						}
					]
				},
				"kind": "dev",
				"methods": {
					"owner()": {
						"details": "Returns the address of the current owner."
					},
					"renounceOwnership()": {
						"details": "Leaves the contract without owner. It will not be possible to call `onlyOwner` functions. Can only be called by the current owner. NOTE: Renouncing ownership will leave the contract without an owner, thereby disabling any functionality that is only available to the owner."
					},
					"transferOwnership(address)": {
						"details": "Transfers ownership of the contract to a new account (`newOwner`). Can only be called by the current owner."
					}
				},
				"version": 1
			},
			"evm": {
				"assembly": "    /* \"contracts/study/OwnerTest.sol\":111:509  contract MyContract is Ownable {... */\n  mstore(0x40, 0x80)\n    /* \"contracts/study/OwnerTest.sol\":173:209  constructor() Ownable(msg.sender) {} */\n  callvalue\n  dup1\n  iszero\n  tag_1\n  jumpi\n  revert(0x00, 0x00)\ntag_1:\n  pop\n    /* \"contracts/study/OwnerTest.sol\":195:205  msg.sender */\n  caller\n    /* \"@openzeppelin/contracts/access/Ownable.sol\":1297:1298  0 */\n  0x00\n    /* \"@openzeppelin/contracts/access/Ownable.sol\":1273:1299  initialOwner == address(0) */\n  0xffffffffffffffffffffffffffffffffffffffff\n  and\n    /* \"@openzeppelin/contracts/access/Ownable.sol\":1273:1285  initialOwner */\n  dup2\n    /* \"@openzeppelin/contracts/access/Ownable.sol\":1273:1299  initialOwner == address(0) */\n  0xffffffffffffffffffffffffffffffffffffffff\n  and\n  sub\n    /* \"@openzeppelin/contracts/access/Ownable.sol\":1269:1364  if (initialOwner == address(0)) {... */\n  tag_5\n  jumpi\n    /* \"@openzeppelin/contracts/access/Ownable.sol\":1350:1351  0 */\n  0x00\n    /* \"@openzeppelin/contracts/access/Ownable.sol\":1322:1353  OwnableInvalidOwner(address(0)) */\n  mload(0x40)\n  0x1e4fbdf700000000000000000000000000000000000000000000000000000000\n  dup2\n  mstore\n  0x04\n  add\n  tag_6\n  swap2\n  swap1\n  tag_7\n  jump\t// in\ntag_6:\n  mload(0x40)\n  dup1\n  swap2\n  sub\n  swap1\n  revert\n    /* \"@openzeppelin/contracts/access/Ownable.sol\":1269:1364  if (initialOwner == address(0)) {... */\ntag_5:\n    /* \"@openzeppelin/contracts/access/Ownable.sol\":1373:1405  _transferOwnership(initialOwner) */\n  tag_8\n    /* \"@openzeppelin/contracts/access/Ownable.sol\":1392:1404  initialOwner */\n  dup2\n    /* \"@openzeppelin/contracts/access/Ownable.sol\":1373:1391  _transferOwnership */\n  shl(0x20, tag_9)\n    /* \"@openzeppelin/contracts/access/Ownable.sol\":1373:1405  _transferOwnership(initialOwner) */\n  0x20\n  shr\n  jump\t// in\ntag_8:\n    /* \"@openzeppelin/contracts/access/Ownable.sol\":1225:1412  constructor(address initialOwner) {... */\n  pop\n    /* \"contracts/study/OwnerTest.sol\":111:509  contract MyContract is Ownable {... */\n  jump(tag_11)\n    /* \"@openzeppelin/contracts/access/Ownable.sol\":2912:3099  function _transferOwnership(address newOwner) internal virtual {... */\ntag_9:\n    /* \"@openzeppelin/contracts/access/Ownable.sol\":2985:3001  address oldOwner */\n  0x00\n    /* \"@openzeppelin/contracts/access/Ownable.sol\":3004:3010  _owner */\n  0x00\n  0x00\n  swap1\n  sload\n  swap1\n  0x0100\n  exp\n  swap1\n  div\n  0xffffffffffffffffffffffffffffffffffffffff\n  and\n    /* \"@openzeppelin/contracts/access/Ownable.sol\":2985:3010  address oldOwner = _owner */\n  swap1\n  pop\n    /* \"@openzeppelin/contracts/access/Ownable.sol\":3029:3037  newOwner */\n  dup2\n    /* \"@openzeppelin/contracts/access/Ownable.sol\":3020:3026  _owner */\n  0x00\n  0x00\n    /* \"@openzeppelin/contracts/access/Ownable.sol\":3020:3037  _owner = newOwner */\n  0x0100\n  exp\n  dup2\n  sload\n  dup2\n  0xffffffffffffffffffffffffffffffffffffffff\n  mul\n  not\n  and\n  swap1\n  dup4\n  0xffffffffffffffffffffffffffffffffffffffff\n  and\n  mul\n  or\n  swap1\n  sstore\n  pop\n    /* \"@openzeppelin/contracts/access/Ownable.sol\":3083:3091  newOwner */\n  dup2\n    /* \"@openzeppelin/contracts/access/Ownable.sol\":3052:3092  OwnershipTransferred(oldOwner, newOwner) */\n  0xffffffffffffffffffffffffffffffffffffffff\n  and\n    /* \"@openzeppelin/contracts/access/Ownable.sol\":3073:3081  oldOwner */\n  dup2\n    /* \"@openzeppelin/contracts/access/Ownable.sol\":3052:3092  OwnershipTransferred(oldOwner, newOwner) */\n  0xffffffffffffffffffffffffffffffffffffffff\n  and\n  0x8be0079c531659141344cd1fd0a4f28419497f9722a3daafe3b4186f6b6457e0\n  mload(0x40)\n  mload(0x40)\n  dup1\n  swap2\n  sub\n  swap1\n  log3\n    /* \"@openzeppelin/contracts/access/Ownable.sol\":2975:3099  {... */\n  pop\n    /* \"@openzeppelin/contracts/access/Ownable.sol\":2912:3099  function _transferOwnership(address newOwner) internal virtual {... */\n  pop\n  jump\t// out\n    /* \"#utility.yul\":7:133   */\ntag_13:\n    /* \"#utility.yul\":44:51   */\n  0x00\n    /* \"#utility.yul\":84:126   */\n  0xffffffffffffffffffffffffffffffffffffffff\n    /* \"#utility.yul\":77:82   */\n  dup3\n    /* \"#utility.yul\":73:127   */\n  and\n    /* \"#utility.yul\":62:127   */\n  swap1\n  pop\n    /* \"#utility.yul\":7:133   */\n  swap2\n  swap1\n  pop\n  jump\t// out\n    /* \"#utility.yul\":139:235   */\ntag_14:\n    /* \"#utility.yul\":176:183   */\n  0x00\n    /* \"#utility.yul\":205:229   */\n  tag_19\n    /* \"#utility.yul\":223:228   */\n  dup3\n    /* \"#utility.yul\":205:229   */\n  tag_13\n  jump\t// in\ntag_19:\n    /* \"#utility.yul\":194:229   */\n  swap1\n  pop\n    /* \"#utility.yul\":139:235   */\n  swap2\n  swap1\n  pop\n  jump\t// out\n    /* \"#utility.yul\":241:359   */\ntag_15:\n    /* \"#utility.yul\":328:352   */\n  tag_21\n    /* \"#utility.yul\":346:351   */\n  dup2\n    /* \"#utility.yul\":328:352   */\n  tag_14\n  jump\t// in\ntag_21:\n    /* \"#utility.yul\":323:326   */\n  dup3\n    /* \"#utility.yul\":316:353   */\n  mstore\n    /* \"#utility.yul\":241:359   */\n  pop\n  pop\n  jump\t// out\n    /* \"#utility.yul\":365:587   */\ntag_7:\n    /* \"#utility.yul\":458:462   */\n  0x00\n    /* \"#utility.yul\":496:498   */\n  0x20\n    /* \"#utility.yul\":485:494   */\n  dup3\n    /* \"#utility.yul\":481:499   */\n  add\n    /* \"#utility.yul\":473:499   */\n  swap1\n  pop\n    /* \"#utility.yul\":509:580   */\n  tag_23\n    /* \"#utility.yul\":577:578   */\n  0x00\n    /* \"#utility.yul\":566:575   */\n  dup4\n    /* \"#utility.yul\":562:579   */\n  add\n    /* \"#utility.yul\":553:559   */\n  dup5\n    /* \"#utility.yul\":509:580   */\n  tag_15\n  jump\t// in\ntag_23:\n    /* \"#utility.yul\":365:587   */\n  swap3\n  swap2\n  pop\n  pop\n  jump\t// out\n    /* \"contracts/study/OwnerTest.sol\":111:509  contract MyContract is Ownable {... */\ntag_11:\n  dataSize(sub_0)\n  dup1\n  dataOffset(sub_0)\n  0x00\n  codecopy\n  0x00\n  return\nstop\n\nsub_0: assembly {\n        /* \"contracts/study/OwnerTest.sol\":111:509  contract MyContract is Ownable {... */\n      mstore(0x40, 0x80)\n      callvalue\n      dup1\n      iszero\n      tag_1\n      jumpi\n      revert(0x00, 0x00)\n    tag_1:\n      pop\n      jumpi(tag_2, lt(calldatasize, 0x04))\n      shr(0xe0, calldataload(0x00))\n      dup1\n      0x47064d6a\n      eq\n      tag_3\n      jumpi\n      dup1\n      0x715018a6\n      eq\n      tag_4\n      jumpi\n      dup1\n      0x73d4a13a\n      eq\n      tag_5\n      jumpi\n      dup1\n      0x8da5cb5b\n      eq\n      tag_6\n      jumpi\n      dup1\n      0xf2fde38b\n      eq\n      tag_7\n      jumpi\n    tag_2:\n      revert(0x00, 0x00)\n        /* \"contracts/study/OwnerTest.sol\":258:342  function setData(string memory _data) public onlyOwner {... */\n    tag_3:\n      tag_8\n      0x04\n      dup1\n      calldatasize\n      sub\n      dup2\n      add\n      swap1\n      tag_9\n      swap2\n      swap1\n      tag_10\n      jump\t// in\n    tag_9:\n      tag_11\n      jump\t// in\n    tag_8:\n      stop\n        /* \"@openzeppelin/contracts/access/Ownable.sol\":2293:2394  function renounceOwnership() public virtual onlyOwner {... */\n    tag_4:\n      tag_12\n      tag_13\n      jump\t// in\n    tag_12:\n      stop\n        /* \"contracts/study/OwnerTest.sol\":148:166  string public data */\n    tag_5:\n      tag_14\n      tag_15\n      jump\t// in\n    tag_14:\n      mload(0x40)\n      tag_16\n      swap2\n      swap1\n      tag_17\n      jump\t// in\n    tag_16:\n      mload(0x40)\n      dup1\n      swap2\n      sub\n      swap1\n      return\n        /* \"@openzeppelin/contracts/access/Ownable.sol\":1638:1723  function owner() public view virtual returns (address) {... */\n    tag_6:\n      tag_18\n      tag_19\n      jump\t// in\n    tag_18:\n      mload(0x40)\n      tag_20\n      swap2\n      swap1\n      tag_21\n      jump\t// in\n    tag_20:\n      mload(0x40)\n      dup1\n      swap2\n      sub\n      swap1\n      return\n        /* \"contracts/study/OwnerTest.sol\":386:507  function transferOwnership(address newOwner) public override onlyOwner {... */\n    tag_7:\n      tag_22\n      0x04\n      dup1\n      calldatasize\n      sub\n      dup2\n      add\n      swap1\n      tag_23\n      swap2\n      swap1\n      tag_24\n      jump\t// in\n    tag_23:\n      tag_25\n      jump\t// in\n    tag_22:\n      stop\n        /* \"contracts/study/OwnerTest.sol\":258:342  function setData(string memory _data) public onlyOwner {... */\n    tag_11:\n        /* \"@openzeppelin/contracts/access/Ownable.sol\":1531:1544  _checkOwner() */\n      tag_27\n        /* \"@openzeppelin/contracts/access/Ownable.sol\":1531:1542  _checkOwner */\n      tag_28\n        /* \"@openzeppelin/contracts/access/Ownable.sol\":1531:1544  _checkOwner() */\n      jump\t// in\n    tag_27:\n        /* \"contracts/study/OwnerTest.sol\":330:335  _data */\n      dup1\n        /* \"contracts/study/OwnerTest.sol\":323:327  data */\n      0x01\n        /* \"contracts/study/OwnerTest.sol\":323:335  data = _data */\n      swap1\n      dup2\n      tag_30\n      swap2\n      swap1\n      tag_31\n      jump\t// in\n    tag_30:\n      pop\n        /* \"contracts/study/OwnerTest.sol\":258:342  function setData(string memory _data) public onlyOwner {... */\n      pop\n      jump\t// out\n        /* \"@openzeppelin/contracts/access/Ownable.sol\":2293:2394  function renounceOwnership() public virtual onlyOwner {... */\n    tag_13:\n        /* \"@openzeppelin/contracts/access/Ownable.sol\":1531:1544  _checkOwner() */\n      tag_33\n        /* \"@openzeppelin/contracts/access/Ownable.sol\":1531:1542  _checkOwner */\n      tag_28\n        /* \"@openzeppelin/contracts/access/Ownable.sol\":1531:1544  _checkOwner() */\n      jump\t// in\n    tag_33:\n        /* \"@openzeppelin/contracts/access/Ownable.sol\":2357:2387  _transferOwnership(address(0)) */\n      tag_35\n        /* \"@openzeppelin/contracts/access/Ownable.sol\":2384:2385  0 */\n      0x00\n        /* \"@openzeppelin/contracts/access/Ownable.sol\":2357:2375  _transferOwnership */\n      tag_36\n        /* \"@openzeppelin/contracts/access/Ownable.sol\":2357:2387  _transferOwnership(address(0)) */\n      jump\t// in\n    tag_35:\n        /* \"@openzeppelin/contracts/access/Ownable.sol\":2293:2394  function renounceOwnership() public virtual onlyOwner {... */\n      jump\t// out\n        /* \"contracts/study/OwnerTest.sol\":148:166  string public data */\n    tag_15:\n      0x01\n      dup1\n      sload\n      tag_37\n      swap1\n      tag_38\n      jump\t// in\n    tag_37:\n      dup1\n      0x1f\n      add\n      0x20\n      dup1\n      swap2\n      div\n      mul\n      0x20\n      add\n      mload(0x40)\n      swap1\n      dup2\n      add\n      0x40\n      mstore\n      dup1\n      swap3\n      swap2\n      swap1\n      dup2\n      dup2\n      mstore\n      0x20\n      add\n      dup3\n      dup1\n      sload\n      tag_39\n      swap1\n      tag_38\n      jump\t// in\n    tag_39:\n      dup1\n      iszero\n      tag_40\n      jumpi\n      dup1\n      0x1f\n      lt\n      tag_41\n      jumpi\n      0x0100\n      dup1\n      dup4\n      sload\n      div\n      mul\n      dup4\n      mstore\n      swap2\n      0x20\n      add\n      swap2\n      jump(tag_40)\n    tag_41:\n      dup3\n      add\n      swap2\n      swap1\n      0x00\n      mstore\n      keccak256(0x00, 0x20)\n      swap1\n    tag_42:\n      dup2\n      sload\n      dup2\n      mstore\n      swap1\n      0x01\n      add\n      swap1\n      0x20\n      add\n      dup1\n      dup4\n      gt\n      tag_42\n      jumpi\n      dup3\n      swap1\n      sub\n      0x1f\n      and\n      dup3\n      add\n      swap2\n    tag_40:\n      pop\n      pop\n      pop\n      pop\n      pop\n      dup2\n      jump\t// out\n        /* \"@openzeppelin/contracts/access/Ownable.sol\":1638:1723  function owner() public view virtual returns (address) {... */\n    tag_19:\n        /* \"@openzeppelin/contracts/access/Ownable.sol\":1684:1691  address */\n      0x00\n        /* \"@openzeppelin/contracts/access/Ownable.sol\":1710:1716  _owner */\n      0x00\n      0x00\n      swap1\n      sload\n      swap1\n      0x0100\n      exp\n      swap1\n      div\n      0xffffffffffffffffffffffffffffffffffffffff\n      and\n        /* \"@openzeppelin/contracts/access/Ownable.sol\":1703:1716  return _owner */\n      swap1\n      pop\n        /* \"@openzeppelin/contracts/access/Ownable.sol\":1638:1723  function owner() public view virtual returns (address) {... */\n      swap1\n      jump\t// out\n        /* \"contracts/study/OwnerTest.sol\":386:507  function transferOwnership(address newOwner) public override onlyOwner {... */\n    tag_25:\n        /* \"@openzeppelin/contracts/access/Ownable.sol\":1531:1544  _checkOwner() */\n      tag_45\n        /* \"@openzeppelin/contracts/access/Ownable.sol\":1531:1542  _checkOwner */\n      tag_28\n        /* \"@openzeppelin/contracts/access/Ownable.sol\":1531:1544  _checkOwner() */\n      jump\t// in\n    tag_45:\n        /* \"contracts/study/OwnerTest.sol\":467:500  super.transferOwnership(newOwner) */\n      tag_47\n        /* \"contracts/study/OwnerTest.sol\":491:499  newOwner */\n      dup2\n        /* \"contracts/study/OwnerTest.sol\":467:490  super.transferOwnership */\n      tag_48\n        /* \"contracts/study/OwnerTest.sol\":467:500  super.transferOwnership(newOwner) */\n      jump\t// in\n    tag_47:\n        /* \"contracts/study/OwnerTest.sol\":386:507  function transferOwnership(address newOwner) public override onlyOwner {... */\n      pop\n      jump\t// out\n        /* \"@openzeppelin/contracts/access/Ownable.sol\":1796:1958  function _checkOwner() internal view virtual {... */\n    tag_28:\n        /* \"@openzeppelin/contracts/access/Ownable.sol\":1866:1878  _msgSender() */\n      tag_50\n        /* \"@openzeppelin/contracts/access/Ownable.sol\":1866:1876  _msgSender */\n      tag_51\n        /* \"@openzeppelin/contracts/access/Ownable.sol\":1866:1878  _msgSender() */\n      jump\t// in\n    tag_50:\n        /* \"@openzeppelin/contracts/access/Ownable.sol\":1855:1878  owner() != _msgSender() */\n      0xffffffffffffffffffffffffffffffffffffffff\n      and\n        /* \"@openzeppelin/contracts/access/Ownable.sol\":1855:1862  owner() */\n      tag_52\n        /* \"@openzeppelin/contracts/access/Ownable.sol\":1855:1860  owner */\n      tag_19\n        /* \"@openzeppelin/contracts/access/Ownable.sol\":1855:1862  owner() */\n      jump\t// in\n    tag_52:\n        /* \"@openzeppelin/contracts/access/Ownable.sol\":1855:1878  owner() != _msgSender() */\n      0xffffffffffffffffffffffffffffffffffffffff\n      and\n      eq\n        /* \"@openzeppelin/contracts/access/Ownable.sol\":1851:1952  if (owner() != _msgSender()) {... */\n      tag_53\n      jumpi\n        /* \"@openzeppelin/contracts/access/Ownable.sol\":1928:1940  _msgSender() */\n      tag_54\n        /* \"@openzeppelin/contracts/access/Ownable.sol\":1928:1938  _msgSender */\n      tag_51\n        /* \"@openzeppelin/contracts/access/Ownable.sol\":1928:1940  _msgSender() */\n      jump\t// in\n    tag_54:\n        /* \"@openzeppelin/contracts/access/Ownable.sol\":1901:1941  OwnableUnauthorizedAccount(_msgSender()) */\n      mload(0x40)\n      0x118cdaa700000000000000000000000000000000000000000000000000000000\n      dup2\n      mstore\n      0x04\n      add\n      tag_55\n      swap2\n      swap1\n      tag_21\n      jump\t// in\n    tag_55:\n      mload(0x40)\n      dup1\n      swap2\n      sub\n      swap1\n      revert\n        /* \"@openzeppelin/contracts/access/Ownable.sol\":1851:1952  if (owner() != _msgSender()) {... */\n    tag_53:\n        /* \"@openzeppelin/contracts/access/Ownable.sol\":1796:1958  function _checkOwner() internal view virtual {... */\n      jump\t// out\n        /* \"@openzeppelin/contracts/access/Ownable.sol\":2912:3099  function _transferOwnership(address newOwner) internal virtual {... */\n    tag_36:\n        /* \"@openzeppelin/contracts/access/Ownable.sol\":2985:3001  address oldOwner */\n      0x00\n        /* \"@openzeppelin/contracts/access/Ownable.sol\":3004:3010  _owner */\n      0x00\n      0x00\n      swap1\n      sload\n      swap1\n      0x0100\n      exp\n      swap1\n      div\n      0xffffffffffffffffffffffffffffffffffffffff\n      and\n        /* \"@openzeppelin/contracts/access/Ownable.sol\":2985:3010  address oldOwner = _owner */\n      swap1\n      pop\n        /* \"@openzeppelin/contracts/access/Ownable.sol\":3029:3037  newOwner */\n      dup2\n        /* \"@openzeppelin/contracts/access/Ownable.sol\":3020:3026  _owner */\n      0x00\n      0x00\n        /* \"@openzeppelin/contracts/access/Ownable.sol\":3020:3037  _owner = newOwner */\n      0x0100\n      exp\n      dup2\n      sload\n      dup2\n      0xffffffffffffffffffffffffffffffffffffffff\n      mul\n      not\n      and\n      swap1\n      dup4\n      0xffffffffffffffffffffffffffffffffffffffff\n      and\n      mul\n      or\n      swap1\n      sstore\n      pop\n        /* \"@openzeppelin/contracts/access/Ownable.sol\":3083:3091  newOwner */\n      dup2\n        /* \"@openzeppelin/contracts/access/Ownable.sol\":3052:3092  OwnershipTransferred(oldOwner, newOwner) */\n      0xffffffffffffffffffffffffffffffffffffffff\n      and\n        /* \"@openzeppelin/contracts/access/Ownable.sol\":3073:3081  oldOwner */\n      dup2\n        /* \"@openzeppelin/contracts/access/Ownable.sol\":3052:3092  OwnershipTransferred(oldOwner, newOwner) */\n      0xffffffffffffffffffffffffffffffffffffffff\n      and\n      0x8be0079c531659141344cd1fd0a4f28419497f9722a3daafe3b4186f6b6457e0\n      mload(0x40)\n      mload(0x40)\n      dup1\n      swap2\n      sub\n      swap1\n      log3\n        /* \"@openzeppelin/contracts/access/Ownable.sol\":2975:3099  {... */\n      pop\n        /* \"@openzeppelin/contracts/access/Ownable.sol\":2912:3099  function _transferOwnership(address newOwner) internal virtual {... */\n      pop\n      jump\t// out\n        /* \"@openzeppelin/contracts/access/Ownable.sol\":2543:2758  function transferOwnership(address newOwner) public virtual onlyOwner {... */\n    tag_48:\n        /* \"@openzeppelin/contracts/access/Ownable.sol\":1531:1544  _checkOwner() */\n      tag_58\n        /* \"@openzeppelin/contracts/access/Ownable.sol\":1531:1542  _checkOwner */\n      tag_28\n        /* \"@openzeppelin/contracts/access/Ownable.sol\":1531:1544  _checkOwner() */\n      jump\t// in\n    tag_58:\n        /* \"@openzeppelin/contracts/access/Ownable.sol\":2647:2648  0 */\n      0x00\n        /* \"@openzeppelin/contracts/access/Ownable.sol\":2627:2649  newOwner == address(0) */\n      0xffffffffffffffffffffffffffffffffffffffff\n      and\n        /* \"@openzeppelin/contracts/access/Ownable.sol\":2627:2635  newOwner */\n      dup2\n        /* \"@openzeppelin/contracts/access/Ownable.sol\":2627:2649  newOwner == address(0) */\n      0xffffffffffffffffffffffffffffffffffffffff\n      and\n      sub\n        /* \"@openzeppelin/contracts/access/Ownable.sol\":2623:2714  if (newOwner == address(0)) {... */\n      tag_60\n      jumpi\n        /* \"@openzeppelin/contracts/access/Ownable.sol\":2700:2701  0 */\n      0x00\n        /* \"@openzeppelin/contracts/access/Ownable.sol\":2672:2703  OwnableInvalidOwner(address(0)) */\n      mload(0x40)\n      0x1e4fbdf700000000000000000000000000000000000000000000000000000000\n      dup2\n      mstore\n      0x04\n      add\n      tag_61\n      swap2\n      swap1\n      tag_21\n      jump\t// in\n    tag_61:\n      mload(0x40)\n      dup1\n      swap2\n      sub\n      swap1\n      revert\n        /* \"@openzeppelin/contracts/access/Ownable.sol\":2623:2714  if (newOwner == address(0)) {... */\n    tag_60:\n        /* \"@openzeppelin/contracts/access/Ownable.sol\":2723:2751  _transferOwnership(newOwner) */\n      tag_62\n        /* \"@openzeppelin/contracts/access/Ownable.sol\":2742:2750  newOwner */\n      dup2\n        /* \"@openzeppelin/contracts/access/Ownable.sol\":2723:2741  _transferOwnership */\n      tag_36\n        /* \"@openzeppelin/contracts/access/Ownable.sol\":2723:2751  _transferOwnership(newOwner) */\n      jump\t// in\n    tag_62:\n        /* \"@openzeppelin/contracts/access/Ownable.sol\":2543:2758  function transferOwnership(address newOwner) public virtual onlyOwner {... */\n      pop\n      jump\t// out\n        /* \"@openzeppelin/contracts/utils/Context.sol\":656:752  function _msgSender() internal view virtual returns (address) {... */\n    tag_51:\n        /* \"@openzeppelin/contracts/utils/Context.sol\":709:716  address */\n      0x00\n        /* \"@openzeppelin/contracts/utils/Context.sol\":735:745  msg.sender */\n      caller\n        /* \"@openzeppelin/contracts/utils/Context.sol\":728:745  return msg.sender */\n      swap1\n      pop\n        /* \"@openzeppelin/contracts/utils/Context.sol\":656:752  function _msgSender() internal view virtual returns (address) {... */\n      swap1\n      jump\t// out\n        /* \"#utility.yul\":7:82   */\n    tag_64:\n        /* \"#utility.yul\":40:46   */\n      0x00\n        /* \"#utility.yul\":73:75   */\n      0x40\n        /* \"#utility.yul\":67:76   */\n      mload\n        /* \"#utility.yul\":57:76   */\n      swap1\n      pop\n        /* \"#utility.yul\":7:82   */\n      swap1\n      jump\t// out\n        /* \"#utility.yul\":88:205   */\n    tag_65:\n        /* \"#utility.yul\":197:198   */\n      0x00\n        /* \"#utility.yul\":194:195   */\n      0x00\n        /* \"#utility.yul\":187:199   */\n      revert\n        /* \"#utility.yul\":211:328   */\n    tag_66:\n        /* \"#utility.yul\":320:321   */\n      0x00\n        /* \"#utility.yul\":317:318   */\n      0x00\n        /* \"#utility.yul\":310:322   */\n      revert\n        /* \"#utility.yul\":334:451   */\n    tag_67:\n        /* \"#utility.yul\":443:444   */\n      0x00\n        /* \"#utility.yul\":440:441   */\n      0x00\n        /* \"#utility.yul\":433:445   */\n      revert\n        /* \"#utility.yul\":457:574   */\n    tag_68:\n        /* \"#utility.yul\":566:567   */\n      0x00\n        /* \"#utility.yul\":563:564   */\n      0x00\n        /* \"#utility.yul\":556:568   */\n      revert\n        /* \"#utility.yul\":580:682   */\n    tag_69:\n        /* \"#utility.yul\":621:627   */\n      0x00\n        /* \"#utility.yul\":672:674   */\n      0x1f\n        /* \"#utility.yul\":668:675   */\n      not\n        /* \"#utility.yul\":663:665   */\n      0x1f\n        /* \"#utility.yul\":656:661   */\n      dup4\n        /* \"#utility.yul\":652:666   */\n      add\n        /* \"#utility.yul\":648:676   */\n      and\n        /* \"#utility.yul\":638:676   */\n      swap1\n      pop\n        /* \"#utility.yul\":580:682   */\n      swap2\n      swap1\n      pop\n      jump\t// out\n        /* \"#utility.yul\":688:868   */\n    tag_70:\n        /* \"#utility.yul\":736:813   */\n      0x4e487b7100000000000000000000000000000000000000000000000000000000\n        /* \"#utility.yul\":733:734   */\n      0x00\n        /* \"#utility.yul\":726:814   */\n      mstore\n        /* \"#utility.yul\":833:837   */\n      0x41\n        /* \"#utility.yul\":830:831   */\n      0x04\n        /* \"#utility.yul\":823:838   */\n      mstore\n        /* \"#utility.yul\":857:861   */\n      0x24\n        /* \"#utility.yul\":854:855   */\n      0x00\n        /* \"#utility.yul\":847:862   */\n      revert\n        /* \"#utility.yul\":874:1155   */\n    tag_71:\n        /* \"#utility.yul\":957:984   */\n      tag_112\n        /* \"#utility.yul\":979:983   */\n      dup3\n        /* \"#utility.yul\":957:984   */\n      tag_69\n      jump\t// in\n    tag_112:\n        /* \"#utility.yul\":949:955   */\n      dup2\n        /* \"#utility.yul\":945:985   */\n      add\n        /* \"#utility.yul\":1087:1093   */\n      dup2\n        /* \"#utility.yul\":1075:1085   */\n      dup2\n        /* \"#utility.yul\":1072:1094   */\n      lt\n        /* \"#utility.yul\":1051:1069   */\n      0xffffffffffffffff\n        /* \"#utility.yul\":1039:1049   */\n      dup3\n        /* \"#utility.yul\":1036:1070   */\n      gt\n        /* \"#utility.yul\":1033:1095   */\n      or\n        /* \"#utility.yul\":1030:1118   */\n      iszero\n      tag_113\n      jumpi\n        /* \"#utility.yul\":1098:1116   */\n      tag_114\n      tag_70\n      jump\t// in\n    tag_114:\n        /* \"#utility.yul\":1030:1118   */\n    tag_113:\n        /* \"#utility.yul\":1138:1148   */\n      dup1\n        /* \"#utility.yul\":1134:1136   */\n      0x40\n        /* \"#utility.yul\":1127:1149   */\n      mstore\n        /* \"#utility.yul\":917:1155   */\n      pop\n        /* \"#utility.yul\":874:1155   */\n      pop\n      pop\n      jump\t// out\n        /* \"#utility.yul\":1161:1290   */\n    tag_72:\n        /* \"#utility.yul\":1195:1201   */\n      0x00\n        /* \"#utility.yul\":1222:1242   */\n      tag_116\n      tag_64\n      jump\t// in\n    tag_116:\n        /* \"#utility.yul\":1212:1242   */\n      swap1\n      pop\n        /* \"#utility.yul\":1251:1284   */\n      tag_117\n        /* \"#utility.yul\":1279:1283   */\n      dup3\n        /* \"#utility.yul\":1271:1277   */\n      dup3\n        /* \"#utility.yul\":1251:1284   */\n      tag_71\n      jump\t// in\n    tag_117:\n        /* \"#utility.yul\":1161:1290   */\n      swap2\n      swap1\n      pop\n      jump\t// out\n        /* \"#utility.yul\":1296:1604   */\n    tag_73:\n        /* \"#utility.yul\":1358:1362   */\n      0x00\n        /* \"#utility.yul\":1448:1466   */\n      0xffffffffffffffff\n        /* \"#utility.yul\":1440:1446   */\n      dup3\n        /* \"#utility.yul\":1437:1467   */\n      gt\n        /* \"#utility.yul\":1434:1490   */\n      iszero\n      tag_119\n      jumpi\n        /* \"#utility.yul\":1470:1488   */\n      tag_120\n      tag_70\n      jump\t// in\n    tag_120:\n        /* \"#utility.yul\":1434:1490   */\n    tag_119:\n        /* \"#utility.yul\":1508:1537   */\n      tag_121\n        /* \"#utility.yul\":1530:1536   */\n      dup3\n        /* \"#utility.yul\":1508:1537   */\n      tag_69\n      jump\t// in\n    tag_121:\n        /* \"#utility.yul\":1500:1537   */\n      swap1\n      pop\n        /* \"#utility.yul\":1592:1596   */\n      0x20\n        /* \"#utility.yul\":1586:1590   */\n      dup2\n        /* \"#utility.yul\":1582:1597   */\n      add\n        /* \"#utility.yul\":1574:1597   */\n      swap1\n      pop\n        /* \"#utility.yul\":1296:1604   */\n      swap2\n      swap1\n      pop\n      jump\t// out\n        /* \"#utility.yul\":1610:1758   */\n    tag_74:\n        /* \"#utility.yul\":1708:1714   */\n      dup3\n        /* \"#utility.yul\":1703:1706   */\n      dup2\n        /* \"#utility.yul\":1698:1701   */\n      dup4\n        /* \"#utility.yul\":1685:1715   */\n      calldatacopy\n        /* \"#utility.yul\":1749:1750   */\n      0x00\n        /* \"#utility.yul\":1740:1746   */\n      dup4\n        /* \"#utility.yul\":1735:1738   */\n      dup4\n        /* \"#utility.yul\":1731:1747   */\n      add\n        /* \"#utility.yul\":1724:1751   */\n      mstore\n        /* \"#utility.yul\":1610:1758   */\n      pop\n      pop\n      pop\n      jump\t// out\n        /* \"#utility.yul\":1764:2189   */\n    tag_75:\n        /* \"#utility.yul\":1842:1847   */\n      0x00\n        /* \"#utility.yul\":1867:1933   */\n      tag_124\n        /* \"#utility.yul\":1883:1932   */\n      tag_125\n        /* \"#utility.yul\":1925:1931   */\n      dup5\n        /* \"#utility.yul\":1883:1932   */\n      tag_73\n      jump\t// in\n    tag_125:\n        /* \"#utility.yul\":1867:1933   */\n      tag_72\n      jump\t// in\n    tag_124:\n        /* \"#utility.yul\":1858:1933   */\n      swap1\n      pop\n        /* \"#utility.yul\":1956:1962   */\n      dup3\n        /* \"#utility.yul\":1949:1954   */\n      dup2\n        /* \"#utility.yul\":1942:1963   */\n      mstore\n        /* \"#utility.yul\":1994:1998   */\n      0x20\n        /* \"#utility.yul\":1987:1992   */\n      dup2\n        /* \"#utility.yul\":1983:1999   */\n      add\n        /* \"#utility.yul\":2032:2035   */\n      dup5\n        /* \"#utility.yul\":2023:2029   */\n      dup5\n        /* \"#utility.yul\":2018:2021   */\n      dup5\n        /* \"#utility.yul\":2014:2030   */\n      add\n        /* \"#utility.yul\":2011:2036   */\n      gt\n        /* \"#utility.yul\":2008:2120   */\n      iszero\n      tag_126\n      jumpi\n        /* \"#utility.yul\":2039:2118   */\n      tag_127\n      tag_68\n      jump\t// in\n    tag_127:\n        /* \"#utility.yul\":2008:2120   */\n    tag_126:\n        /* \"#utility.yul\":2129:2183   */\n      tag_128\n        /* \"#utility.yul\":2176:2182   */\n      dup5\n        /* \"#utility.yul\":2171:2174   */\n      dup3\n        /* \"#utility.yul\":2166:2169   */\n      dup6\n        /* \"#utility.yul\":2129:2183   */\n      tag_74\n      jump\t// in\n    tag_128:\n        /* \"#utility.yul\":1848:2189   */\n      pop\n        /* \"#utility.yul\":1764:2189   */\n      swap4\n      swap3\n      pop\n      pop\n      pop\n      jump\t// out\n        /* \"#utility.yul\":2209:2549   */\n    tag_76:\n        /* \"#utility.yul\":2265:2270   */\n      0x00\n        /* \"#utility.yul\":2314:2317   */\n      dup3\n        /* \"#utility.yul\":2307:2311   */\n      0x1f\n        /* \"#utility.yul\":2299:2305   */\n      dup4\n        /* \"#utility.yul\":2295:2312   */\n      add\n        /* \"#utility.yul\":2291:2318   */\n      slt\n        /* \"#utility.yul\":2281:2403   */\n      tag_130\n      jumpi\n        /* \"#utility.yul\":2322:2401   */\n      tag_131\n      tag_67\n      jump\t// in\n    tag_131:\n        /* \"#utility.yul\":2281:2403   */\n    tag_130:\n        /* \"#utility.yul\":2439:2445   */\n      dup2\n        /* \"#utility.yul\":2426:2446   */\n      calldataload\n        /* \"#utility.yul\":2464:2543   */\n      tag_132\n        /* \"#utility.yul\":2539:2542   */\n      dup5\n        /* \"#utility.yul\":2531:2537   */\n      dup3\n        /* \"#utility.yul\":2524:2528   */\n      0x20\n        /* \"#utility.yul\":2516:2522   */\n      dup7\n        /* \"#utility.yul\":2512:2529   */\n      add\n        /* \"#utility.yul\":2464:2543   */\n      tag_75\n      jump\t// in\n    tag_132:\n        /* \"#utility.yul\":2455:2543   */\n      swap2\n      pop\n        /* \"#utility.yul\":2271:2549   */\n      pop\n        /* \"#utility.yul\":2209:2549   */\n      swap3\n      swap2\n      pop\n      pop\n      jump\t// out\n        /* \"#utility.yul\":2555:3064   */\n    tag_10:\n        /* \"#utility.yul\":2624:2630   */\n      0x00\n        /* \"#utility.yul\":2673:2675   */\n      0x20\n        /* \"#utility.yul\":2661:2670   */\n      dup3\n        /* \"#utility.yul\":2652:2659   */\n      dup5\n        /* \"#utility.yul\":2648:2671   */\n      sub\n        /* \"#utility.yul\":2644:2676   */\n      slt\n        /* \"#utility.yul\":2641:2760   */\n      iszero\n      tag_134\n      jumpi\n        /* \"#utility.yul\":2679:2758   */\n      tag_135\n      tag_65\n      jump\t// in\n    tag_135:\n        /* \"#utility.yul\":2641:2760   */\n    tag_134:\n        /* \"#utility.yul\":2827:2828   */\n      0x00\n        /* \"#utility.yul\":2816:2825   */\n      dup3\n        /* \"#utility.yul\":2812:2829   */\n      add\n        /* \"#utility.yul\":2799:2830   */\n      calldataload\n        /* \"#utility.yul\":2857:2875   */\n      0xffffffffffffffff\n        /* \"#utility.yul\":2849:2855   */\n      dup2\n        /* \"#utility.yul\":2846:2876   */\n      gt\n        /* \"#utility.yul\":2843:2960   */\n      iszero\n      tag_136\n      jumpi\n        /* \"#utility.yul\":2879:2958   */\n      tag_137\n      tag_66\n      jump\t// in\n    tag_137:\n        /* \"#utility.yul\":2843:2960   */\n    tag_136:\n        /* \"#utility.yul\":2984:3047   */\n      tag_138\n        /* \"#utility.yul\":3039:3046   */\n      dup5\n        /* \"#utility.yul\":3030:3036   */\n      dup3\n        /* \"#utility.yul\":3019:3028   */\n      dup6\n        /* \"#utility.yul\":3015:3037   */\n      add\n        /* \"#utility.yul\":2984:3047   */\n      tag_76\n      jump\t// in\n    tag_138:\n        /* \"#utility.yul\":2974:3047   */\n      swap2\n      pop\n        /* \"#utility.yul\":2770:3057   */\n      pop\n        /* \"#utility.yul\":2555:3064   */\n      swap3\n      swap2\n      pop\n      pop\n      jump\t// out\n        /* \"#utility.yul\":3070:3169   */\n    tag_77:\n        /* \"#utility.yul\":3122:3128   */\n      0x00\n        /* \"#utility.yul\":3156:3161   */\n      dup2\n        /* \"#utility.yul\":3150:3162   */\n      mload\n        /* \"#utility.yul\":3140:3162   */\n      swap1\n      pop\n        /* \"#utility.yul\":3070:3169   */\n      swap2\n      swap1\n      pop\n      jump\t// out\n        /* \"#utility.yul\":3175:3344   */\n    tag_78:\n        /* \"#utility.yul\":3259:3270   */\n      0x00\n        /* \"#utility.yul\":3293:3299   */\n      dup3\n        /* \"#utility.yul\":3288:3291   */\n      dup3\n        /* \"#utility.yul\":3281:3300   */\n      mstore\n        /* \"#utility.yul\":3333:3337   */\n      0x20\n        /* \"#utility.yul\":3328:3331   */\n      dup3\n        /* \"#utility.yul\":3324:3338   */\n      add\n        /* \"#utility.yul\":3309:3338   */\n      swap1\n      pop\n        /* \"#utility.yul\":3175:3344   */\n      swap3\n      swap2\n      pop\n      pop\n      jump\t// out\n        /* \"#utility.yul\":3350:3489   */\n    tag_79:\n        /* \"#utility.yul\":3439:3445   */\n      dup3\n        /* \"#utility.yul\":3434:3437   */\n      dup2\n        /* \"#utility.yul\":3429:3432   */\n      dup4\n        /* \"#utility.yul\":3423:3446   */\n      mcopy\n        /* \"#utility.yul\":3480:3481   */\n      0x00\n        /* \"#utility.yul\":3471:3477   */\n      dup4\n        /* \"#utility.yul\":3466:3469   */\n      dup4\n        /* \"#utility.yul\":3462:3478   */\n      add\n        /* \"#utility.yul\":3455:3482   */\n      mstore\n        /* \"#utility.yul\":3350:3489   */\n      pop\n      pop\n      pop\n      jump\t// out\n        /* \"#utility.yul\":3495:3872   */\n    tag_80:\n        /* \"#utility.yul\":3583:3586   */\n      0x00\n        /* \"#utility.yul\":3611:3650   */\n      tag_143\n        /* \"#utility.yul\":3644:3649   */\n      dup3\n        /* \"#utility.yul\":3611:3650   */\n      tag_77\n      jump\t// in\n    tag_143:\n        /* \"#utility.yul\":3666:3737   */\n      tag_144\n        /* \"#utility.yul\":3730:3736   */\n      dup2\n        /* \"#utility.yul\":3725:3728   */\n      dup6\n        /* \"#utility.yul\":3666:3737   */\n      tag_78\n      jump\t// in\n    tag_144:\n        /* \"#utility.yul\":3659:3737   */\n      swap4\n      pop\n        /* \"#utility.yul\":3746:3811   */\n      tag_145\n        /* \"#utility.yul\":3804:3810   */\n      dup2\n        /* \"#utility.yul\":3799:3802   */\n      dup6\n        /* \"#utility.yul\":3792:3796   */\n      0x20\n        /* \"#utility.yul\":3785:3790   */\n      dup7\n        /* \"#utility.yul\":3781:3797   */\n      add\n        /* \"#utility.yul\":3746:3811   */\n      tag_79\n      jump\t// in\n    tag_145:\n        /* \"#utility.yul\":3836:3865   */\n      tag_146\n        /* \"#utility.yul\":3858:3864   */\n      dup2\n        /* \"#utility.yul\":3836:3865   */\n      tag_69\n      jump\t// in\n    tag_146:\n        /* \"#utility.yul\":3831:3834   */\n      dup5\n        /* \"#utility.yul\":3827:3866   */\n      add\n        /* \"#utility.yul\":3820:3866   */\n      swap2\n      pop\n        /* \"#utility.yul\":3587:3872   */\n      pop\n        /* \"#utility.yul\":3495:3872   */\n      swap3\n      swap2\n      pop\n      pop\n      jump\t// out\n        /* \"#utility.yul\":3878:4191   */\n    tag_17:\n        /* \"#utility.yul\":3991:3995   */\n      0x00\n        /* \"#utility.yul\":4029:4031   */\n      0x20\n        /* \"#utility.yul\":4018:4027   */\n      dup3\n        /* \"#utility.yul\":4014:4032   */\n      add\n        /* \"#utility.yul\":4006:4032   */\n      swap1\n      pop\n        /* \"#utility.yul\":4078:4087   */\n      dup2\n        /* \"#utility.yul\":4072:4076   */\n      dup2\n        /* \"#utility.yul\":4068:4088   */\n      sub\n        /* \"#utility.yul\":4064:4065   */\n      0x00\n        /* \"#utility.yul\":4053:4062   */\n      dup4\n        /* \"#utility.yul\":4049:4066   */\n      add\n        /* \"#utility.yul\":4042:4089   */\n      mstore\n        /* \"#utility.yul\":4106:4184   */\n      tag_148\n        /* \"#utility.yul\":4179:4183   */\n      dup2\n        /* \"#utility.yul\":4170:4176   */\n      dup5\n        /* \"#utility.yul\":4106:4184   */\n      tag_80\n      jump\t// in\n    tag_148:\n        /* \"#utility.yul\":4098:4184   */\n      swap1\n      pop\n        /* \"#utility.yul\":3878:4191   */\n      swap3\n      swap2\n      pop\n      pop\n      jump\t// out\n        /* \"#utility.yul\":4197:4323   */\n    tag_81:\n        /* \"#utility.yul\":4234:4241   */\n      0x00\n        /* \"#utility.yul\":4274:4316   */\n      0xffffffffffffffffffffffffffffffffffffffff\n        /* \"#utility.yul\":4267:4272   */\n      dup3\n        /* \"#utility.yul\":4263:4317   */\n      and\n        /* \"#utility.yul\":4252:4317   */\n      swap1\n      pop\n        /* \"#utility.yul\":4197:4323   */\n      swap2\n      swap1\n      pop\n      jump\t// out\n        /* \"#utility.yul\":4329:4425   */\n    tag_82:\n        /* \"#utility.yul\":4366:4373   */\n      0x00\n        /* \"#utility.yul\":4395:4419   */\n      tag_151\n        /* \"#utility.yul\":4413:4418   */\n      dup3\n        /* \"#utility.yul\":4395:4419   */\n      tag_81\n      jump\t// in\n    tag_151:\n        /* \"#utility.yul\":4384:4419   */\n      swap1\n      pop\n        /* \"#utility.yul\":4329:4425   */\n      swap2\n      swap1\n      pop\n      jump\t// out\n        /* \"#utility.yul\":4431:4549   */\n    tag_83:\n        /* \"#utility.yul\":4518:4542   */\n      tag_153\n        /* \"#utility.yul\":4536:4541   */\n      dup2\n        /* \"#utility.yul\":4518:4542   */\n      tag_82\n      jump\t// in\n    tag_153:\n        /* \"#utility.yul\":4513:4516   */\n      dup3\n        /* \"#utility.yul\":4506:4543   */\n      mstore\n        /* \"#utility.yul\":4431:4549   */\n      pop\n      pop\n      jump\t// out\n        /* \"#utility.yul\":4555:4777   */\n    tag_21:\n        /* \"#utility.yul\":4648:4652   */\n      0x00\n        /* \"#utility.yul\":4686:4688   */\n      0x20\n        /* \"#utility.yul\":4675:4684   */\n      dup3\n        /* \"#utility.yul\":4671:4689   */\n      add\n        /* \"#utility.yul\":4663:4689   */\n      swap1\n      pop\n        /* \"#utility.yul\":4699:4770   */\n      tag_155\n        /* \"#utility.yul\":4767:4768   */\n      0x00\n        /* \"#utility.yul\":4756:4765   */\n      dup4\n        /* \"#utility.yul\":4752:4769   */\n      add\n        /* \"#utility.yul\":4743:4749   */\n      dup5\n        /* \"#utility.yul\":4699:4770   */\n      tag_83\n      jump\t// in\n    tag_155:\n        /* \"#utility.yul\":4555:4777   */\n      swap3\n      swap2\n      pop\n      pop\n      jump\t// out\n        /* \"#utility.yul\":4783:4905   */\n    tag_84:\n        /* \"#utility.yul\":4856:4880   */\n      tag_157\n        /* \"#utility.yul\":4874:4879   */\n      dup2\n        /* \"#utility.yul\":4856:4880   */\n      tag_82\n      jump\t// in\n    tag_157:\n        /* \"#utility.yul\":4849:4854   */\n      dup2\n        /* \"#utility.yul\":4846:4881   */\n      eq\n        /* \"#utility.yul\":4836:4899   */\n      tag_158\n      jumpi\n        /* \"#utility.yul\":4895:4896   */\n      0x00\n        /* \"#utility.yul\":4892:4893   */\n      0x00\n        /* \"#utility.yul\":4885:4897   */\n      revert\n        /* \"#utility.yul\":4836:4899   */\n    tag_158:\n        /* \"#utility.yul\":4783:4905   */\n      pop\n      jump\t// out\n        /* \"#utility.yul\":4911:5050   */\n    tag_85:\n        /* \"#utility.yul\":4957:4962   */\n      0x00\n        /* \"#utility.yul\":4995:5001   */\n      dup2\n        /* \"#utility.yul\":4982:5002   */\n      calldataload\n        /* \"#utility.yul\":4973:5002   */\n      swap1\n      pop\n        /* \"#utility.yul\":5011:5044   */\n      tag_160\n        /* \"#utility.yul\":5038:5043   */\n      dup2\n        /* \"#utility.yul\":5011:5044   */\n      tag_84\n      jump\t// in\n    tag_160:\n        /* \"#utility.yul\":4911:5050   */\n      swap3\n      swap2\n      pop\n      pop\n      jump\t// out\n        /* \"#utility.yul\":5056:5385   */\n    tag_24:\n        /* \"#utility.yul\":5115:5121   */\n      0x00\n        /* \"#utility.yul\":5164:5166   */\n      0x20\n        /* \"#utility.yul\":5152:5161   */\n      dup3\n        /* \"#utility.yul\":5143:5150   */\n      dup5\n        /* \"#utility.yul\":5139:5162   */\n      sub\n        /* \"#utility.yul\":5135:5167   */\n      slt\n        /* \"#utility.yul\":5132:5251   */\n      iszero\n      tag_162\n      jumpi\n        /* \"#utility.yul\":5170:5249   */\n      tag_163\n      tag_65\n      jump\t// in\n    tag_163:\n        /* \"#utility.yul\":5132:5251   */\n    tag_162:\n        /* \"#utility.yul\":5290:5291   */\n      0x00\n        /* \"#utility.yul\":5315:5368   */\n      tag_164\n        /* \"#utility.yul\":5360:5367   */\n      dup5\n        /* \"#utility.yul\":5351:5357   */\n      dup3\n        /* \"#utility.yul\":5340:5349   */\n      dup6\n        /* \"#utility.yul\":5336:5358   */\n      add\n        /* \"#utility.yul\":5315:5368   */\n      tag_85\n      jump\t// in\n    tag_164:\n        /* \"#utility.yul\":5305:5368   */\n      swap2\n      pop\n        /* \"#utility.yul\":5261:5378   */\n      pop\n        /* \"#utility.yul\":5056:5385   */\n      swap3\n      swap2\n      pop\n      pop\n      jump\t// out\n        /* \"#utility.yul\":5391:5571   */\n    tag_86:\n        /* \"#utility.yul\":5439:5516   */\n      0x4e487b7100000000000000000000000000000000000000000000000000000000\n        /* \"#utility.yul\":5436:5437   */\n      0x00\n        /* \"#utility.yul\":5429:5517   */\n      mstore\n        /* \"#utility.yul\":5536:5540   */\n      0x22\n        /* \"#utility.yul\":5533:5534   */\n      0x04\n        /* \"#utility.yul\":5526:5541   */\n      mstore\n        /* \"#utility.yul\":5560:5564   */\n      0x24\n        /* \"#utility.yul\":5557:5558   */\n      0x00\n        /* \"#utility.yul\":5550:5565   */\n      revert\n        /* \"#utility.yul\":5577:5897   */\n    tag_38:\n        /* \"#utility.yul\":5621:5627   */\n      0x00\n        /* \"#utility.yul\":5658:5659   */\n      0x02\n        /* \"#utility.yul\":5652:5656   */\n      dup3\n        /* \"#utility.yul\":5648:5660   */\n      div\n        /* \"#utility.yul\":5638:5660   */\n      swap1\n      pop\n        /* \"#utility.yul\":5705:5706   */\n      0x01\n        /* \"#utility.yul\":5699:5703   */\n      dup3\n        /* \"#utility.yul\":5695:5707   */\n      and\n        /* \"#utility.yul\":5726:5744   */\n      dup1\n        /* \"#utility.yul\":5716:5797   */\n      tag_167\n      jumpi\n        /* \"#utility.yul\":5782:5786   */\n      0x7f\n        /* \"#utility.yul\":5774:5780   */\n      dup3\n        /* \"#utility.yul\":5770:5787   */\n      and\n        /* \"#utility.yul\":5760:5787   */\n      swap2\n      pop\n        /* \"#utility.yul\":5716:5797   */\n    tag_167:\n        /* \"#utility.yul\":5844:5846   */\n      0x20\n        /* \"#utility.yul\":5836:5842   */\n      dup3\n        /* \"#utility.yul\":5833:5847   */\n      lt\n        /* \"#utility.yul\":5813:5831   */\n      dup2\n        /* \"#utility.yul\":5810:5848   */\n      sub\n        /* \"#utility.yul\":5807:5891   */\n      tag_168\n      jumpi\n        /* \"#utility.yul\":5863:5881   */\n      tag_169\n      tag_86\n      jump\t// in\n    tag_169:\n        /* \"#utility.yul\":5807:5891   */\n    tag_168:\n        /* \"#utility.yul\":5628:5897   */\n      pop\n        /* \"#utility.yul\":5577:5897   */\n      swap2\n      swap1\n      pop\n      jump\t// out\n        /* \"#utility.yul\":5903:6044   */\n    tag_87:\n        /* \"#utility.yul\":5952:5956   */\n      0x00\n        /* \"#utility.yul\":5975:5978   */\n      dup2\n        /* \"#utility.yul\":5967:5978   */\n      swap1\n      pop\n        /* \"#utility.yul\":5998:6001   */\n      dup2\n        /* \"#utility.yul\":5995:5996   */\n      0x00\n        /* \"#utility.yul\":5988:6002   */\n      mstore\n        /* \"#utility.yul\":6032:6036   */\n      0x20\n        /* \"#utility.yul\":6029:6030   */\n      0x00\n        /* \"#utility.yul\":6019:6037   */\n      keccak256\n        /* \"#utility.yul\":6011:6037   */\n      swap1\n      pop\n        /* \"#utility.yul\":5903:6044   */\n      swap2\n      swap1\n      pop\n      jump\t// out\n        /* \"#utility.yul\":6050:6143   */\n    tag_88:\n        /* \"#utility.yul\":6087:6093   */\n      0x00\n        /* \"#utility.yul\":6134:6136   */\n      0x20\n        /* \"#utility.yul\":6129:6131   */\n      0x1f\n        /* \"#utility.yul\":6122:6127   */\n      dup4\n        /* \"#utility.yul\":6118:6132   */\n      add\n        /* \"#utility.yul\":6114:6137   */\n      div\n        /* \"#utility.yul\":6104:6137   */\n      swap1\n      pop\n        /* \"#utility.yul\":6050:6143   */\n      swap2\n      swap1\n      pop\n      jump\t// out\n        /* \"#utility.yul\":6149:6256   */\n    tag_89:\n        /* \"#utility.yul\":6193:6201   */\n      0x00\n        /* \"#utility.yul\":6243:6248   */\n      dup3\n        /* \"#utility.yul\":6237:6241   */\n      dup3\n        /* \"#utility.yul\":6233:6249   */\n      shl\n        /* \"#utility.yul\":6212:6249   */\n      swap1\n      pop\n        /* \"#utility.yul\":6149:6256   */\n      swap3\n      swap2\n      pop\n      pop\n      jump\t// out\n        /* \"#utility.yul\":6262:6655   */\n    tag_90:\n        /* \"#utility.yul\":6331:6337   */\n      0x00\n        /* \"#utility.yul\":6381:6382   */\n      0x08\n        /* \"#utility.yul\":6369:6379   */\n      dup4\n        /* \"#utility.yul\":6365:6383   */\n      mul\n        /* \"#utility.yul\":6404:6501   */\n      tag_174\n        /* \"#utility.yul\":6434:6500   */\n      0xffffffffffffffffffffffffffffffffffffffffffffffffffffffffffffffff\n        /* \"#utility.yul\":6423:6432   */\n      dup3\n        /* \"#utility.yul\":6404:6501   */\n      tag_89\n      jump\t// in\n    tag_174:\n        /* \"#utility.yul\":6522:6561   */\n      tag_175\n        /* \"#utility.yul\":6552:6560   */\n      dup7\n        /* \"#utility.yul\":6541:6550   */\n      dup4\n        /* \"#utility.yul\":6522:6561   */\n      tag_89\n      jump\t// in\n    tag_175:\n        /* \"#utility.yul\":6510:6561   */\n      swap6\n      pop\n        /* \"#utility.yul\":6594:6598   */\n      dup1\n        /* \"#utility.yul\":6590:6599   */\n      not\n        /* \"#utility.yul\":6583:6588   */\n      dup5\n        /* \"#utility.yul\":6579:6600   */\n      and\n        /* \"#utility.yul\":6570:6600   */\n      swap4\n      pop\n        /* \"#utility.yul\":6643:6647   */\n      dup1\n        /* \"#utility.yul\":6633:6641   */\n      dup7\n        /* \"#utility.yul\":6629:6648   */\n      and\n        /* \"#utility.yul\":6622:6627   */\n      dup5\n        /* \"#utility.yul\":6619:6649   */\n      or\n        /* \"#utility.yul\":6609:6649   */\n      swap3\n      pop\n        /* \"#utility.yul\":6338:6655   */\n      pop\n      pop\n        /* \"#utility.yul\":6262:6655   */\n      swap4\n      swap3\n      pop\n      pop\n      pop\n      jump\t// out\n        /* \"#utility.yul\":6661:6738   */\n    tag_91:\n        /* \"#utility.yul\":6698:6705   */\n      0x00\n        /* \"#utility.yul\":6727:6732   */\n      dup2\n        /* \"#utility.yul\":6716:6732   */\n      swap1\n      pop\n        /* \"#utility.yul\":6661:6738   */\n      swap2\n      swap1\n      pop\n      jump\t// out\n        /* \"#utility.yul\":6744:6804   */\n    tag_92:\n        /* \"#utility.yul\":6772:6775   */\n      0x00\n        /* \"#utility.yul\":6793:6798   */\n      dup2\n        /* \"#utility.yul\":6786:6798   */\n      swap1\n      pop\n        /* \"#utility.yul\":6744:6804   */\n      swap2\n      swap1\n      pop\n      jump\t// out\n        /* \"#utility.yul\":6810:6952   */\n    tag_93:\n        /* \"#utility.yul\":6860:6869   */\n      0x00\n        /* \"#utility.yul\":6893:6946   */\n      tag_179\n        /* \"#utility.yul\":6911:6945   */\n      tag_180\n        /* \"#utility.yul\":6920:6944   */\n      tag_181\n        /* \"#utility.yul\":6938:6943   */\n      dup5\n        /* \"#utility.yul\":6920:6944   */\n      tag_91\n      jump\t// in\n    tag_181:\n        /* \"#utility.yul\":6911:6945   */\n      tag_92\n      jump\t// in\n    tag_180:\n        /* \"#utility.yul\":6893:6946   */\n      tag_91\n      jump\t// in\n    tag_179:\n        /* \"#utility.yul\":6880:6946   */\n      swap1\n      pop\n        /* \"#utility.yul\":6810:6952   */\n      swap2\n      swap1\n      pop\n      jump\t// out\n        /* \"#utility.yul\":6958:7033   */\n    tag_94:\n        /* \"#utility.yul\":7001:7004   */\n      0x00\n        /* \"#utility.yul\":7022:7027   */\n      dup2\n        /* \"#utility.yul\":7015:7027   */\n      swap1\n      pop\n        /* \"#utility.yul\":6958:7033   */\n      swap2\n      swap1\n      pop\n      jump\t// out\n        /* \"#utility.yul\":7039:7308   */\n    tag_95:\n        /* \"#utility.yul\":7149:7188   */\n      tag_184\n        /* \"#utility.yul\":7180:7187   */\n      dup4\n        /* \"#utility.yul\":7149:7188   */\n      tag_93\n      jump\t// in\n    tag_184:\n        /* \"#utility.yul\":7210:7301   */\n      tag_185\n        /* \"#utility.yul\":7259:7300   */\n      tag_186\n        /* \"#utility.yul\":7283:7299   */\n      dup3\n        /* \"#utility.yul\":7259:7300   */\n      tag_94\n      jump\t// in\n    tag_186:\n        /* \"#utility.yul\":7251:7257   */\n      dup5\n        /* \"#utility.yul\":7244:7248   */\n      dup5\n        /* \"#utility.yul\":7238:7249   */\n      sload\n        /* \"#utility.yul\":7210:7301   */\n      tag_90\n      jump\t// in\n    tag_185:\n        /* \"#utility.yul\":7204:7208   */\n      dup3\n        /* \"#utility.yul\":7197:7302   */\n      sstore\n        /* \"#utility.yul\":7115:7308   */\n      pop\n        /* \"#utility.yul\":7039:7308   */\n      pop\n      pop\n      pop\n      jump\t// out\n        /* \"#utility.yul\":7314:7387   */\n    tag_96:\n        /* \"#utility.yul\":7359:7362   */\n      0x00\n        /* \"#utility.yul\":7380:7381   */\n      0x00\n        /* \"#utility.yul\":7373:7381   */\n      swap1\n      pop\n        /* \"#utility.yul\":7314:7387   */\n      swap1\n      jump\t// out\n        /* \"#utility.yul\":7393:7582   */\n    tag_97:\n        /* \"#utility.yul\":7470:7502   */\n      tag_189\n      tag_96\n      jump\t// in\n    tag_189:\n        /* \"#utility.yul\":7511:7576   */\n      tag_190\n        /* \"#utility.yul\":7569:7575   */\n      dup2\n        /* \"#utility.yul\":7561:7567   */\n      dup5\n        /* \"#utility.yul\":7555:7559   */\n      dup5\n        /* \"#utility.yul\":7511:7576   */\n      tag_95\n      jump\t// in\n    tag_190:\n        /* \"#utility.yul\":7446:7582   */\n      pop\n        /* \"#utility.yul\":7393:7582   */\n      pop\n      pop\n      jump\t// out\n        /* \"#utility.yul\":7588:7774   */\n    tag_98:\n        /* \"#utility.yul\":7648:7768   */\n    tag_192:\n        /* \"#utility.yul\":7665:7668   */\n      dup2\n        /* \"#utility.yul\":7658:7663   */\n      dup2\n        /* \"#utility.yul\":7655:7669   */\n      lt\n        /* \"#utility.yul\":7648:7768   */\n      iszero\n      tag_194\n      jumpi\n        /* \"#utility.yul\":7719:7758   */\n      tag_195\n        /* \"#utility.yul\":7756:7757   */\n      0x00\n        /* \"#utility.yul\":7749:7754   */\n      dup3\n        /* \"#utility.yul\":7719:7758   */\n      tag_97\n      jump\t// in\n    tag_195:\n        /* \"#utility.yul\":7692:7693   */\n      0x01\n        /* \"#utility.yul\":7685:7690   */\n      dup2\n        /* \"#utility.yul\":7681:7694   */\n      add\n        /* \"#utility.yul\":7672:7694   */\n      swap1\n      pop\n        /* \"#utility.yul\":7648:7768   */\n      jump(tag_192)\n    tag_194:\n        /* \"#utility.yul\":7588:7774   */\n      pop\n      pop\n      jump\t// out\n        /* \"#utility.yul\":7780:8323   */\n    tag_99:\n        /* \"#utility.yul\":7881:7883   */\n      0x1f\n        /* \"#utility.yul\":7876:7879   */\n      dup3\n        /* \"#utility.yul\":7873:7884   */\n      gt\n        /* \"#utility.yul\":7870:8316   */\n      iszero\n      tag_197\n      jumpi\n        /* \"#utility.yul\":7915:7953   */\n      tag_198\n        /* \"#utility.yul\":7947:7952   */\n      dup2\n        /* \"#utility.yul\":7915:7953   */\n      tag_87\n      jump\t// in\n    tag_198:\n        /* \"#utility.yul\":7999:8028   */\n      tag_199\n        /* \"#utility.yul\":8017:8027   */\n      dup5\n        /* \"#utility.yul\":7999:8028   */\n      tag_88\n      jump\t// in\n    tag_199:\n        /* \"#utility.yul\":7989:7997   */\n      dup2\n        /* \"#utility.yul\":7985:8029   */\n      add\n        /* \"#utility.yul\":8182:8184   */\n      0x20\n        /* \"#utility.yul\":8170:8180   */\n      dup6\n        /* \"#utility.yul\":8167:8185   */\n      lt\n        /* \"#utility.yul\":8164:8213   */\n      iszero\n      tag_200\n      jumpi\n        /* \"#utility.yul\":8203:8211   */\n      dup2\n        /* \"#utility.yul\":8188:8211   */\n      swap1\n      pop\n        /* \"#utility.yul\":8164:8213   */\n    tag_200:\n        /* \"#utility.yul\":8226:8306   */\n      tag_201\n        /* \"#utility.yul\":8282:8304   */\n      tag_202\n        /* \"#utility.yul\":8300:8303   */\n      dup6\n        /* \"#utility.yul\":8282:8304   */\n      tag_88\n      jump\t// in\n    tag_202:\n        /* \"#utility.yul\":8272:8280   */\n      dup4\n        /* \"#utility.yul\":8268:8305   */\n      add\n        /* \"#utility.yul\":8255:8266   */\n      dup3\n        /* \"#utility.yul\":8226:8306   */\n      tag_98\n      jump\t// in\n    tag_201:\n        /* \"#utility.yul\":7885:8316   */\n      pop\n      pop\n        /* \"#utility.yul\":7870:8316   */\n    tag_197:\n        /* \"#utility.yul\":7780:8323   */\n      pop\n      pop\n      pop\n      jump\t// out\n        /* \"#utility.yul\":8329:8446   */\n    tag_100:\n        /* \"#utility.yul\":8383:8391   */\n      0x00\n        /* \"#utility.yul\":8433:8438   */\n      dup3\n        /* \"#utility.yul\":8427:8431   */\n      dup3\n        /* \"#utility.yul\":8423:8439   */\n      shr\n        /* \"#utility.yul\":8402:8439   */\n      swap1\n      pop\n        /* \"#utility.yul\":8329:8446   */\n      swap3\n      swap2\n      pop\n      pop\n      jump\t// out\n        /* \"#utility.yul\":8452:8621   */\n    tag_101:\n        /* \"#utility.yul\":8496:8502   */\n      0x00\n        /* \"#utility.yul\":8529:8580   */\n      tag_205\n        /* \"#utility.yul\":8577:8578   */\n      0x00\n        /* \"#utility.yul\":8573:8579   */\n      not\n        /* \"#utility.yul\":8565:8570   */\n      dup5\n        /* \"#utility.yul\":8562:8563   */\n      0x08\n        /* \"#utility.yul\":8558:8571   */\n      mul\n        /* \"#utility.yul\":8529:8580   */\n      tag_100\n      jump\t// in\n    tag_205:\n        /* \"#utility.yul\":8525:8581   */\n      not\n        /* \"#utility.yul\":8610:8614   */\n      dup1\n        /* \"#utility.yul\":8604:8608   */\n      dup4\n        /* \"#utility.yul\":8600:8615   */\n      and\n        /* \"#utility.yul\":8590:8615   */\n      swap2\n      pop\n        /* \"#utility.yul\":8503:8621   */\n      pop\n        /* \"#utility.yul\":8452:8621   */\n      swap3\n      swap2\n      pop\n      pop\n      jump\t// out\n        /* \"#utility.yul\":8626:8921   */\n    tag_102:\n        /* \"#utility.yul\":8702:8706   */\n      0x00\n        /* \"#utility.yul\":8848:8877   */\n      tag_207\n        /* \"#utility.yul\":8873:8876   */\n      dup4\n        /* \"#utility.yul\":8867:8871   */\n      dup4\n        /* \"#utility.yul\":8848:8877   */\n      tag_101\n      jump\t// in\n    tag_207:\n        /* \"#utility.yul\":8840:8877   */\n      swap2\n      pop\n        /* \"#utility.yul\":8910:8913   */\n      dup3\n        /* \"#utility.yul\":8907:8908   */\n      0x02\n        /* \"#utility.yul\":8903:8914   */\n      mul\n        /* \"#utility.yul\":8897:8901   */\n      dup3\n        /* \"#utility.yul\":8894:8915   */\n      or\n        /* \"#utility.yul\":8886:8915   */\n      swap1\n      pop\n        /* \"#utility.yul\":8626:8921   */\n      swap3\n      swap2\n      pop\n      pop\n      jump\t// out\n        /* \"#utility.yul\":8926:10321   */\n    tag_31:\n        /* \"#utility.yul\":9043:9080   */\n      tag_209\n        /* \"#utility.yul\":9076:9079   */\n      dup3\n        /* \"#utility.yul\":9043:9080   */\n      tag_77\n      jump\t// in\n    tag_209:\n        /* \"#utility.yul\":9145:9163   */\n      0xffffffffffffffff\n        /* \"#utility.yul\":9137:9143   */\n      dup2\n        /* \"#utility.yul\":9134:9164   */\n      gt\n        /* \"#utility.yul\":9131:9187   */\n      iszero\n      tag_210\n      jumpi\n        /* \"#utility.yul\":9167:9185   */\n      tag_211\n      tag_70\n      jump\t// in\n    tag_211:\n        /* \"#utility.yul\":9131:9187   */\n    tag_210:\n        /* \"#utility.yul\":9211:9249   */\n      tag_212\n        /* \"#utility.yul\":9243:9247   */\n      dup3\n        /* \"#utility.yul\":9237:9248   */\n      sload\n        /* \"#utility.yul\":9211:9249   */\n      tag_38\n      jump\t// in\n    tag_212:\n        /* \"#utility.yul\":9296:9363   */\n      tag_213\n        /* \"#utility.yul\":9356:9362   */\n      dup3\n        /* \"#utility.yul\":9348:9354   */\n      dup3\n        /* \"#utility.yul\":9342:9346   */\n      dup6\n        /* \"#utility.yul\":9296:9363   */\n      tag_99\n      jump\t// in\n    tag_213:\n        /* \"#utility.yul\":9390:9391   */\n      0x00\n        /* \"#utility.yul\":9414:9418   */\n      0x20\n        /* \"#utility.yul\":9401:9418   */\n      swap1\n      pop\n        /* \"#utility.yul\":9446:9448   */\n      0x1f\n        /* \"#utility.yul\":9438:9444   */\n      dup4\n        /* \"#utility.yul\":9435:9449   */\n      gt\n        /* \"#utility.yul\":9463:9464   */\n      0x01\n        /* \"#utility.yul\":9458:10076   */\n      dup2\n      eq\n      tag_215\n      jumpi\n        /* \"#utility.yul\":10120:10121   */\n      0x00\n        /* \"#utility.yul\":10137:10143   */\n      dup5\n        /* \"#utility.yul\":10134:10211   */\n      iszero\n      tag_216\n      jumpi\n        /* \"#utility.yul\":10186:10195   */\n      dup3\n        /* \"#utility.yul\":10181:10184   */\n      dup8\n        /* \"#utility.yul\":10177:10196   */\n      add\n        /* \"#utility.yul\":10171:10197   */\n      mload\n        /* \"#utility.yul\":10162:10197   */\n      swap1\n      pop\n        /* \"#utility.yul\":10134:10211   */\n    tag_216:\n        /* \"#utility.yul\":10237:10304   */\n      tag_217\n        /* \"#utility.yul\":10297:10303   */\n      dup6\n        /* \"#utility.yul\":10290:10295   */\n      dup3\n        /* \"#utility.yul\":10237:10304   */\n      tag_102\n      jump\t// in\n    tag_217:\n        /* \"#utility.yul\":10231:10235   */\n      dup7\n        /* \"#utility.yul\":10224:10305   */\n      sstore\n        /* \"#utility.yul\":10093:10315   */\n      pop\n        /* \"#utility.yul\":9428:10315   */\n      jump(tag_214)\n        /* \"#utility.yul\":9458:10076   */\n    tag_215:\n        /* \"#utility.yul\":9510:9514   */\n      0x1f\n        /* \"#utility.yul\":9506:9515   */\n      not\n        /* \"#utility.yul\":9498:9504   */\n      dup5\n        /* \"#utility.yul\":9494:9516   */\n      and\n        /* \"#utility.yul\":9544:9581   */\n      tag_218\n        /* \"#utility.yul\":9576:9580   */\n      dup7\n        /* \"#utility.yul\":9544:9581   */\n      tag_87\n      jump\t// in\n    tag_218:\n        /* \"#utility.yul\":9603:9604   */\n      0x00\n        /* \"#utility.yul\":9617:9825   */\n    tag_219:\n        /* \"#utility.yul\":9631:9638   */\n      dup3\n        /* \"#utility.yul\":9628:9629   */\n      dup2\n        /* \"#utility.yul\":9625:9639   */\n      lt\n        /* \"#utility.yul\":9617:9825   */\n      iszero\n      tag_221\n      jumpi\n        /* \"#utility.yul\":9710:9719   */\n      dup5\n        /* \"#utility.yul\":9705:9708   */\n      dup10\n        /* \"#utility.yul\":9701:9720   */\n      add\n        /* \"#utility.yul\":9695:9721   */\n      mload\n        /* \"#utility.yul\":9687:9693   */\n      dup3\n        /* \"#utility.yul\":9680:9722   */\n      sstore\n        /* \"#utility.yul\":9761:9762   */\n      0x01\n        /* \"#utility.yul\":9753:9759   */\n      dup3\n        /* \"#utility.yul\":9749:9763   */\n      add\n        /* \"#utility.yul\":9739:9763   */\n      swap2\n      pop\n        /* \"#utility.yul\":9808:9810   */\n      0x20\n        /* \"#utility.yul\":9797:9806   */\n      dup6\n        /* \"#utility.yul\":9793:9811   */\n      add\n        /* \"#utility.yul\":9780:9811   */\n      swap5\n      pop\n        /* \"#utility.yul\":9654:9658   */\n      0x20\n        /* \"#utility.yul\":9651:9652   */\n      dup2\n        /* \"#utility.yul\":9647:9659   */\n      add\n        /* \"#utility.yul\":9642:9659   */\n      swap1\n      pop\n        /* \"#utility.yul\":9617:9825   */\n      jump(tag_219)\n    tag_221:\n        /* \"#utility.yul\":9853:9859   */\n      dup7\n        /* \"#utility.yul\":9844:9851   */\n      dup4\n        /* \"#utility.yul\":9841:9860   */\n      lt\n        /* \"#utility.yul\":9838:10017   */\n      iszero\n      tag_222\n      jumpi\n        /* \"#utility.yul\":9911:9920   */\n      dup5\n        /* \"#utility.yul\":9906:9909   */\n      dup10\n        /* \"#utility.yul\":9902:9921   */\n      add\n        /* \"#utility.yul\":9896:9922   */\n      mload\n        /* \"#utility.yul\":9954:10002   */\n      tag_223\n        /* \"#utility.yul\":9996:10000   */\n      0x1f\n        /* \"#utility.yul\":9988:9994   */\n      dup10\n        /* \"#utility.yul\":9984:10001   */\n      and\n        /* \"#utility.yul\":9973:9982   */\n      dup3\n        /* \"#utility.yul\":9954:10002   */\n      tag_101\n      jump\t// in\n    tag_223:\n        /* \"#utility.yul\":9946:9952   */\n      dup4\n        /* \"#utility.yul\":9939:10003   */\n      sstore\n        /* \"#utility.yul\":9861:10017   */\n      pop\n        /* \"#utility.yul\":9838:10017   */\n    tag_222:\n        /* \"#utility.yul\":10063:10064   */\n      0x01\n        /* \"#utility.yul\":10059:10060   */\n      0x02\n        /* \"#utility.yul\":10051:10057   */\n      dup9\n        /* \"#utility.yul\":10047:10061   */\n      mul\n        /* \"#utility.yul\":10043:10065   */\n      add\n        /* \"#utility.yul\":10037:10041   */\n      dup9\n        /* \"#utility.yul\":10030:10066   */\n      sstore\n        /* \"#utility.yul\":9465:10076   */\n      pop\n      pop\n      pop\n        /* \"#utility.yul\":9428:10315   */\n    tag_214:\n      pop\n        /* \"#utility.yul\":9018:10321   */\n      pop\n      pop\n      pop\n        /* \"#utility.yul\":8926:10321   */\n      pop\n      pop\n      jump\t// out\n\n    auxdata: 0xa26469706673582212206c1b6dbadd0607b488d7a4d8e9a5a21b920c261dcd2a0c7b30c96d294c62ef8564736f6c634300081c0033\n}\n",
				"bytecode": {
					"linkReferences": {},
					"object": "608060405234801561000f575f5ffd5b50335f73ffffffffffffffffffffffffffffffffffffffff168173ffffffffffffffffffffffffffffffffffffffff1603610081575f6040517f1e4fbdf70000000000000000000000000000000000000000000000000000000081526004016100789190610196565b60405180910390fd5b6100908161009660201b60201c565b506101af565b5f5f5f9054906101000a900473ffffffffffffffffffffffffffffffffffffffff169050815f5f6101000a81548173ffffffffffffffffffffffffffffffffffffffff021916908373ffffffffffffffffffffffffffffffffffffffff1602179055508173ffffffffffffffffffffffffffffffffffffffff168173ffffffffffffffffffffffffffffffffffffffff167f8be0079c531659141344cd1fd0a4f28419497f9722a3daafe3b4186f6b6457e060405160405180910390a35050565b5f73ffffffffffffffffffffffffffffffffffffffff82169050919050565b5f61018082610157565b9050919050565b61019081610176565b82525050565b5f6020820190506101a95f830184610187565b92915050565b61096b806101bc5f395ff3fe608060405234801561000f575f5ffd5b5060043610610055575f3560e01c806347064d6a14610059578063715018a61461007557806373d4a13a1461007f5780638da5cb5b1461009d578063f2fde38b146100bb575b5f5ffd5b610073600480360381019061006e91906104ec565b6100d7565b005b61007d6100f2565b005b610087610105565b6040516100949190610593565b60405180910390f35b6100a5610191565b6040516100b291906105f2565b60405180910390f35b6100d560048036038101906100d09190610635565b6101b8565b005b6100df6101cc565b80600190816100ee9190610866565b5050565b6100fa6101cc565b6101035f610253565b565b600180546101129061068d565b80601f016020809104026020016040519081016040528092919081815260200182805461013e9061068d565b80156101895780601f1061016057610100808354040283529160200191610189565b820191905f5260205f20905b81548152906001019060200180831161016c57829003601f168201915b505050505081565b5f5f5f9054906101000a900473ffffffffffffffffffffffffffffffffffffffff16905090565b6101c06101cc565b6101c981610314565b50565b6101d4610398565b73ffffffffffffffffffffffffffffffffffffffff166101f2610191565b73ffffffffffffffffffffffffffffffffffffffff161461025157610215610398565b6040517f118cdaa700000000000000000000000000000000000000000000000000000000815260040161024891906105f2565b60405180910390fd5b565b5f5f5f9054906101000a900473ffffffffffffffffffffffffffffffffffffffff169050815f5f6101000a81548173ffffffffffffffffffffffffffffffffffffffff021916908373ffffffffffffffffffffffffffffffffffffffff1602179055508173ffffffffffffffffffffffffffffffffffffffff168173ffffffffffffffffffffffffffffffffffffffff167f8be0079c531659141344cd1fd0a4f28419497f9722a3daafe3b4186f6b6457e060405160405180910390a35050565b61031c6101cc565b5f73ffffffffffffffffffffffffffffffffffffffff168173ffffffffffffffffffffffffffffffffffffffff160361038c575f6040517f1e4fbdf700000000000000000000000000000000000000000000000000000000815260040161038391906105f2565b60405180910390fd5b61039581610253565b50565b5f33905090565b5f604051905090565b5f5ffd5b5f5ffd5b5f5ffd5b5f5ffd5b5f601f19601f8301169050919050565b7f4e487b71000000000000000000000000000000000000000000000000000000005f52604160045260245ffd5b6103fe826103b8565b810181811067ffffffffffffffff8211171561041d5761041c6103c8565b5b80604052505050565b5f61042f61039f565b905061043b82826103f5565b919050565b5f67ffffffffffffffff82111561045a576104596103c8565b5b610463826103b8565b9050602081019050919050565b828183375f83830152505050565b5f61049061048b84610440565b610426565b9050828152602081018484840111156104ac576104ab6103b4565b5b6104b7848285610470565b509392505050565b5f82601f8301126104d3576104d26103b0565b5b81356104e384826020860161047e565b91505092915050565b5f60208284031215610501576105006103a8565b5b5f82013567ffffffffffffffff81111561051e5761051d6103ac565b5b61052a848285016104bf565b91505092915050565b5f81519050919050565b5f82825260208201905092915050565b8281835e5f83830152505050565b5f61056582610533565b61056f818561053d565b935061057f81856020860161054d565b610588816103b8565b840191505092915050565b5f6020820190508181035f8301526105ab818461055b565b905092915050565b5f73ffffffffffffffffffffffffffffffffffffffff82169050919050565b5f6105dc826105b3565b9050919050565b6105ec816105d2565b82525050565b5f6020820190506106055f8301846105e3565b92915050565b610614816105d2565b811461061e575f5ffd5b50565b5f8135905061062f8161060b565b92915050565b5f6020828403121561064a576106496103a8565b5b5f61065784828501610621565b91505092915050565b7f4e487b71000000000000000000000000000000000000000000000000000000005f52602260045260245ffd5b5f60028204905060018216806106a457607f821691505b6020821081036106b7576106b6610660565b5b50919050565b5f819050815f5260205f209050919050565b5f6020601f8301049050919050565b5f82821b905092915050565b5f600883026107197fffffffffffffffffffffffffffffffffffffffffffffffffffffffffffffffff826106de565b61072386836106de565b95508019841693508086168417925050509392505050565b5f819050919050565b5f819050919050565b5f61076761076261075d8461073b565b610744565b61073b565b9050919050565b5f819050919050565b6107808361074d565b61079461078c8261076e565b8484546106ea565b825550505050565b5f5f905090565b6107ab61079c565b6107b6818484610777565b505050565b5b818110156107d9576107ce5f826107a3565b6001810190506107bc565b5050565b601f82111561081e576107ef816106bd565b6107f8846106cf565b81016020851015610807578190505b61081b610813856106cf565b8301826107bb565b50505b505050565b5f82821c905092915050565b5f61083e5f1984600802610823565b1980831691505092915050565b5f610856838361082f565b9150826002028217905092915050565b61086f82610533565b67ffffffffffffffff811115610888576108876103c8565b5b610892825461068d565b61089d8282856107dd565b5f60209050601f8311600181146108ce575f84156108bc578287015190505b6108c6858261084b565b86555061092d565b601f1984166108dc866106bd565b5f5b82811015610903578489015182556001820191506020850194506020810190506108de565b86831015610920578489015161091c601f89168261082f565b8355505b6001600288020188555050505b50505050505056fea26469706673582212206c1b6dbadd0607b488d7a4d8e9a5a21b920c261dcd2a0c7b30c96d294c62ef8564736f6c634300081c0033",
					"opcodes": "PUSH1 0x80 PUSH1 0x40 MSTORE CALLVALUE DUP1 ISZERO PUSH2 0xF JUMPI PUSH0 PUSH0 REVERT JUMPDEST POP CALLER PUSH0 PUSH20 0xFFFFFFFFFFFFFFFFFFFFFFFFFFFFFFFFFFFFFFFF AND DUP2 PUSH20 0xFFFFFFFFFFFFFFFFFFFFFFFFFFFFFFFFFFFFFFFF AND SUB PUSH2 0x81 JUMPI PUSH0 PUSH1 0x40 MLOAD PUSH32 0x1E4FBDF700000000000000000000000000000000000000000000000000000000 DUP2 MSTORE PUSH1 0x4 ADD PUSH2 0x78 SWAP2 SWAP1 PUSH2 0x196 JUMP JUMPDEST PUSH1 0x40 MLOAD DUP1 SWAP2 SUB SWAP1 REVERT JUMPDEST PUSH2 0x90 DUP2 PUSH2 0x96 PUSH1 0x20 SHL PUSH1 0x20 SHR JUMP JUMPDEST POP PUSH2 0x1AF JUMP JUMPDEST PUSH0 PUSH0 PUSH0 SWAP1 SLOAD SWAP1 PUSH2 0x100 EXP SWAP1 DIV PUSH20 0xFFFFFFFFFFFFFFFFFFFFFFFFFFFFFFFFFFFFFFFF AND SWAP1 POP DUP2 PUSH0 PUSH0 PUSH2 0x100 EXP DUP2 SLOAD DUP2 PUSH20 0xFFFFFFFFFFFFFFFFFFFFFFFFFFFFFFFFFFFFFFFF MUL NOT AND SWAP1 DUP4 PUSH20 0xFFFFFFFFFFFFFFFFFFFFFFFFFFFFFFFFFFFFFFFF AND MUL OR SWAP1 SSTORE POP DUP2 PUSH20 0xFFFFFFFFFFFFFFFFFFFFFFFFFFFFFFFFFFFFFFFF AND DUP2 PUSH20 0xFFFFFFFFFFFFFFFFFFFFFFFFFFFFFFFFFFFFFFFF AND PUSH32 0x8BE0079C531659141344CD1FD0A4F28419497F9722A3DAAFE3B4186F6B6457E0 PUSH1 0x40 MLOAD PUSH1 0x40 MLOAD DUP1 SWAP2 SUB SWAP1 LOG3 POP POP JUMP JUMPDEST PUSH0 PUSH20 0xFFFFFFFFFFFFFFFFFFFFFFFFFFFFFFFFFFFFFFFF DUP3 AND SWAP1 POP SWAP2 SWAP1 POP JUMP JUMPDEST PUSH0 PUSH2 0x180 DUP3 PUSH2 0x157 JUMP JUMPDEST SWAP1 POP SWAP2 SWAP1 POP JUMP JUMPDEST PUSH2 0x190 DUP2 PUSH2 0x176 JUMP JUMPDEST DUP3 MSTORE POP POP JUMP JUMPDEST PUSH0 PUSH1 0x20 DUP3 ADD SWAP1 POP PUSH2 0x1A9 PUSH0 DUP4 ADD DUP5 PUSH2 0x187 JUMP JUMPDEST SWAP3 SWAP2 POP POP JUMP JUMPDEST PUSH2 0x96B DUP1 PUSH2 0x1BC PUSH0 CODECOPY PUSH0 RETURN INVALID PUSH1 0x80 PUSH1 0x40 MSTORE CALLVALUE DUP1 ISZERO PUSH2 0xF JUMPI PUSH0 PUSH0 REVERT JUMPDEST POP PUSH1 0x4 CALLDATASIZE LT PUSH2 0x55 JUMPI PUSH0 CALLDATALOAD PUSH1 0xE0 SHR DUP1 PUSH4 0x47064D6A EQ PUSH2 0x59 JUMPI DUP1 PUSH4 0x715018A6 EQ PUSH2 0x75 JUMPI DUP1 PUSH4 0x73D4A13A EQ PUSH2 0x7F JUMPI DUP1 PUSH4 0x8DA5CB5B EQ PUSH2 0x9D JUMPI DUP1 PUSH4 0xF2FDE38B EQ PUSH2 0xBB JUMPI JUMPDEST PUSH0 PUSH0 REVERT JUMPDEST PUSH2 0x73 PUSH1 0x4 DUP1 CALLDATASIZE SUB DUP2 ADD SWAP1 PUSH2 0x6E SWAP2 SWAP1 PUSH2 0x4EC JUMP JUMPDEST PUSH2 0xD7 JUMP JUMPDEST STOP JUMPDEST PUSH2 0x7D PUSH2 0xF2 JUMP JUMPDEST STOP JUMPDEST PUSH2 0x87 PUSH2 0x105 JUMP JUMPDEST PUSH1 0x40 MLOAD PUSH2 0x94 SWAP2 SWAP1 PUSH2 0x593 JUMP JUMPDEST PUSH1 0x40 MLOAD DUP1 SWAP2 SUB SWAP1 RETURN JUMPDEST PUSH2 0xA5 PUSH2 0x191 JUMP JUMPDEST PUSH1 0x40 MLOAD PUSH2 0xB2 SWAP2 SWAP1 PUSH2 0x5F2 JUMP JUMPDEST PUSH1 0x40 MLOAD DUP1 SWAP2 SUB SWAP1 RETURN JUMPDEST PUSH2 0xD5 PUSH1 0x4 DUP1 CALLDATASIZE SUB DUP2 ADD SWAP1 PUSH2 0xD0 SWAP2 SWAP1 PUSH2 0x635 JUMP JUMPDEST PUSH2 0x1B8 JUMP JUMPDEST STOP JUMPDEST PUSH2 0xDF PUSH2 0x1CC JUMP JUMPDEST DUP1 PUSH1 0x1 SWAP1 DUP2 PUSH2 0xEE SWAP2 SWAP1 PUSH2 0x866 JUMP JUMPDEST POP POP JUMP JUMPDEST PUSH2 0xFA PUSH2 0x1CC JUMP JUMPDEST PUSH2 0x103 PUSH0 PUSH2 0x253 JUMP JUMPDEST JUMP JUMPDEST PUSH1 0x1 DUP1 SLOAD PUSH2 0x112 SWAP1 PUSH2 0x68D JUMP JUMPDEST DUP1 PUSH1 0x1F ADD PUSH1 0x20 DUP1 SWAP2 DIV MUL PUSH1 0x20 ADD PUSH1 0x40 MLOAD SWAP1 DUP2 ADD PUSH1 0x40 MSTORE DUP1 SWAP3 SWAP2 SWAP1 DUP2 DUP2 MSTORE PUSH1 0x20 ADD DUP3 DUP1 SLOAD PUSH2 0x13E SWAP1 PUSH2 0x68D JUMP JUMPDEST DUP1 ISZERO PUSH2 0x189 JUMPI DUP1 PUSH1 0x1F LT PUSH2 0x160 JUMPI PUSH2 0x100 DUP1 DUP4 SLOAD DIV MUL DUP4 MSTORE SWAP2 PUSH1 0x20 ADD SWAP2 PUSH2 0x189 JUMP JUMPDEST DUP3 ADD SWAP2 SWAP1 PUSH0 MSTORE PUSH1 0x20 PUSH0 KECCAK256 SWAP1 JUMPDEST DUP2 SLOAD DUP2 MSTORE SWAP1 PUSH1 0x1 ADD SWAP1 PUSH1 0x20 ADD DUP1 DUP4 GT PUSH2 0x16C JUMPI DUP3 SWAP1 SUB PUSH1 0x1F AND DUP3 ADD SWAP2 JUMPDEST POP POP POP POP POP DUP2 JUMP JUMPDEST PUSH0 PUSH0 PUSH0 SWAP1 SLOAD SWAP1 PUSH2 0x100 EXP SWAP1 DIV PUSH20 0xFFFFFFFFFFFFFFFFFFFFFFFFFFFFFFFFFFFFFFFF AND SWAP1 POP SWAP1 JUMP JUMPDEST PUSH2 0x1C0 PUSH2 0x1CC JUMP JUMPDEST PUSH2 0x1C9 DUP2 PUSH2 0x314 JUMP JUMPDEST POP JUMP JUMPDEST PUSH2 0x1D4 PUSH2 0x398 JUMP JUMPDEST PUSH20 0xFFFFFFFFFFFFFFFFFFFFFFFFFFFFFFFFFFFFFFFF AND PUSH2 0x1F2 PUSH2 0x191 JUMP JUMPDEST PUSH20 0xFFFFFFFFFFFFFFFFFFFFFFFFFFFFFFFFFFFFFFFF AND EQ PUSH2 0x251 JUMPI PUSH2 0x215 PUSH2 0x398 JUMP JUMPDEST PUSH1 0x40 MLOAD PUSH32 0x118CDAA700000000000000000000000000000000000000000000000000000000 DUP2 MSTORE PUSH1 0x4 ADD PUSH2 0x248 SWAP2 SWAP1 PUSH2 0x5F2 JUMP JUMPDEST PUSH1 0x40 MLOAD DUP1 SWAP2 SUB SWAP1 REVERT JUMPDEST JUMP JUMPDEST PUSH0 PUSH0 PUSH0 SWAP1 SLOAD SWAP1 PUSH2 0x100 EXP SWAP1 DIV PUSH20 0xFFFFFFFFFFFFFFFFFFFFFFFFFFFFFFFFFFFFFFFF AND SWAP1 POP DUP2 PUSH0 PUSH0 PUSH2 0x100 EXP DUP2 SLOAD DUP2 PUSH20 0xFFFFFFFFFFFFFFFFFFFFFFFFFFFFFFFFFFFFFFFF MUL NOT AND SWAP1 DUP4 PUSH20 0xFFFFFFFFFFFFFFFFFFFFFFFFFFFFFFFFFFFFFFFF AND MUL OR SWAP1 SSTORE POP DUP2 PUSH20 0xFFFFFFFFFFFFFFFFFFFFFFFFFFFFFFFFFFFFFFFF AND DUP2 PUSH20 0xFFFFFFFFFFFFFFFFFFFFFFFFFFFFFFFFFFFFFFFF AND PUSH32 0x8BE0079C531659141344CD1FD0A4F28419497F9722A3DAAFE3B4186F6B6457E0 PUSH1 0x40 MLOAD PUSH1 0x40 MLOAD DUP1 SWAP2 SUB SWAP1 LOG3 POP POP JUMP JUMPDEST PUSH2 0x31C PUSH2 0x1CC JUMP JUMPDEST PUSH0 PUSH20 0xFFFFFFFFFFFFFFFFFFFFFFFFFFFFFFFFFFFFFFFF AND DUP2 PUSH20 0xFFFFFFFFFFFFFFFFFFFFFFFFFFFFFFFFFFFFFFFF AND SUB PUSH2 0x38C JUMPI PUSH0 PUSH1 0x40 MLOAD PUSH32 0x1E4FBDF700000000000000000000000000000000000000000000000000000000 DUP2 MSTORE PUSH1 0x4 ADD PUSH2 0x383 SWAP2 SWAP1 PUSH2 0x5F2 JUMP JUMPDEST PUSH1 0x40 MLOAD DUP1 SWAP2 SUB SWAP1 REVERT JUMPDEST PUSH2 0x395 DUP2 PUSH2 0x253 JUMP JUMPDEST POP JUMP JUMPDEST PUSH0 CALLER SWAP1 POP SWAP1 JUMP JUMPDEST PUSH0 PUSH1 0x40 MLOAD SWAP1 POP SWAP1 JUMP JUMPDEST PUSH0 PUSH0 REVERT JUMPDEST PUSH0 PUSH0 REVERT JUMPDEST PUSH0 PUSH0 REVERT JUMPDEST PUSH0 PUSH0 REVERT JUMPDEST PUSH0 PUSH1 0x1F NOT PUSH1 0x1F DUP4 ADD AND SWAP1 POP SWAP2 SWAP1 POP JUMP JUMPDEST PUSH32 0x4E487B7100000000000000000000000000000000000000000000000000000000 PUSH0 MSTORE PUSH1 0x41 PUSH1 0x4 MSTORE PUSH1 0x24 PUSH0 REVERT JUMPDEST PUSH2 0x3FE DUP3 PUSH2 0x3B8 JUMP JUMPDEST DUP2 ADD DUP2 DUP2 LT PUSH8 0xFFFFFFFFFFFFFFFF DUP3 GT OR ISZERO PUSH2 0x41D JUMPI PUSH2 0x41C PUSH2 0x3C8 JUMP JUMPDEST JUMPDEST DUP1 PUSH1 0x40 MSTORE POP POP POP JUMP JUMPDEST PUSH0 PUSH2 0x42F PUSH2 0x39F JUMP JUMPDEST SWAP1 POP PUSH2 0x43B DUP3 DUP3 PUSH2 0x3F5 JUMP JUMPDEST SWAP2 SWAP1 POP JUMP JUMPDEST PUSH0 PUSH8 0xFFFFFFFFFFFFFFFF DUP3 GT ISZERO PUSH2 0x45A JUMPI PUSH2 0x459 PUSH2 0x3C8 JUMP JUMPDEST JUMPDEST PUSH2 0x463 DUP3 PUSH2 0x3B8 JUMP JUMPDEST SWAP1 POP PUSH1 0x20 DUP2 ADD SWAP1 POP SWAP2 SWAP1 POP JUMP JUMPDEST DUP3 DUP2 DUP4 CALLDATACOPY PUSH0 DUP4 DUP4 ADD MSTORE POP POP POP JUMP JUMPDEST PUSH0 PUSH2 0x490 PUSH2 0x48B DUP5 PUSH2 0x440 JUMP JUMPDEST PUSH2 0x426 JUMP JUMPDEST SWAP1 POP DUP3 DUP2 MSTORE PUSH1 0x20 DUP2 ADD DUP5 DUP5 DUP5 ADD GT ISZERO PUSH2 0x4AC JUMPI PUSH2 0x4AB PUSH2 0x3B4 JUMP JUMPDEST JUMPDEST PUSH2 0x4B7 DUP5 DUP3 DUP6 PUSH2 0x470 JUMP JUMPDEST POP SWAP4 SWAP3 POP POP POP JUMP JUMPDEST PUSH0 DUP3 PUSH1 0x1F DUP4 ADD SLT PUSH2 0x4D3 JUMPI PUSH2 0x4D2 PUSH2 0x3B0 JUMP JUMPDEST JUMPDEST DUP2 CALLDATALOAD PUSH2 0x4E3 DUP5 DUP3 PUSH1 0x20 DUP7 ADD PUSH2 0x47E JUMP JUMPDEST SWAP2 POP POP SWAP3 SWAP2 POP POP JUMP JUMPDEST PUSH0 PUSH1 0x20 DUP3 DUP5 SUB SLT ISZERO PUSH2 0x501 JUMPI PUSH2 0x500 PUSH2 0x3A8 JUMP JUMPDEST JUMPDEST PUSH0 DUP3 ADD CALLDATALOAD PUSH8 0xFFFFFFFFFFFFFFFF DUP2 GT ISZERO PUSH2 0x51E JUMPI PUSH2 0x51D PUSH2 0x3AC JUMP JUMPDEST JUMPDEST PUSH2 0x52A DUP5 DUP3 DUP6 ADD PUSH2 0x4BF JUMP JUMPDEST SWAP2 POP POP SWAP3 SWAP2 POP POP JUMP JUMPDEST PUSH0 DUP2 MLOAD SWAP1 POP SWAP2 SWAP1 POP JUMP JUMPDEST PUSH0 DUP3 DUP3 MSTORE PUSH1 0x20 DUP3 ADD SWAP1 POP SWAP3 SWAP2 POP POP JUMP JUMPDEST DUP3 DUP2 DUP4 MCOPY PUSH0 DUP4 DUP4 ADD MSTORE POP POP POP JUMP JUMPDEST PUSH0 PUSH2 0x565 DUP3 PUSH2 0x533 JUMP JUMPDEST PUSH2 0x56F DUP2 DUP6 PUSH2 0x53D JUMP JUMPDEST SWAP4 POP PUSH2 0x57F DUP2 DUP6 PUSH1 0x20 DUP7 ADD PUSH2 0x54D JUMP JUMPDEST PUSH2 0x588 DUP2 PUSH2 0x3B8 JUMP JUMPDEST DUP5 ADD SWAP2 POP POP SWAP3 SWAP2 POP POP JUMP JUMPDEST PUSH0 PUSH1 0x20 DUP3 ADD SWAP1 POP DUP2 DUP2 SUB PUSH0 DUP4 ADD MSTORE PUSH2 0x5AB DUP2 DUP5 PUSH2 0x55B JUMP JUMPDEST SWAP1 POP SWAP3 SWAP2 POP POP JUMP JUMPDEST PUSH0 PUSH20 0xFFFFFFFFFFFFFFFFFFFFFFFFFFFFFFFFFFFFFFFF DUP3 AND SWAP1 POP SWAP2 SWAP1 POP JUMP JUMPDEST PUSH0 PUSH2 0x5DC DUP3 PUSH2 0x5B3 JUMP JUMPDEST SWAP1 POP SWAP2 SWAP1 POP JUMP JUMPDEST PUSH2 0x5EC DUP2 PUSH2 0x5D2 JUMP JUMPDEST DUP3 MSTORE POP POP JUMP JUMPDEST PUSH0 PUSH1 0x20 DUP3 ADD SWAP1 POP PUSH2 0x605 PUSH0 DUP4 ADD DUP5 PUSH2 0x5E3 JUMP JUMPDEST SWAP3 SWAP2 POP POP JUMP JUMPDEST PUSH2 0x614 DUP2 PUSH2 0x5D2 JUMP JUMPDEST DUP2 EQ PUSH2 0x61E JUMPI PUSH0 PUSH0 REVERT JUMPDEST POP JUMP JUMPDEST PUSH0 DUP2 CALLDATALOAD SWAP1 POP PUSH2 0x62F DUP2 PUSH2 0x60B JUMP JUMPDEST SWAP3 SWAP2 POP POP JUMP JUMPDEST PUSH0 PUSH1 0x20 DUP3 DUP5 SUB SLT ISZERO PUSH2 0x64A JUMPI PUSH2 0x649 PUSH2 0x3A8 JUMP JUMPDEST JUMPDEST PUSH0 PUSH2 0x657 DUP5 DUP3 DUP6 ADD PUSH2 0x621 JUMP JUMPDEST SWAP2 POP POP SWAP3 SWAP2 POP POP JUMP JUMPDEST PUSH32 0x4E487B7100000000000000000000000000000000000000000000000000000000 PUSH0 MSTORE PUSH1 0x22 PUSH1 0x4 MSTORE PUSH1 0x24 PUSH0 REVERT JUMPDEST PUSH0 PUSH1 0x2 DUP3 DIV SWAP1 POP PUSH1 0x1 DUP3 AND DUP1 PUSH2 0x6A4 JUMPI PUSH1 0x7F DUP3 AND SWAP2 POP JUMPDEST PUSH1 0x20 DUP3 LT DUP2 SUB PUSH2 0x6B7 JUMPI PUSH2 0x6B6 PUSH2 0x660 JUMP JUMPDEST JUMPDEST POP SWAP2 SWAP1 POP JUMP JUMPDEST PUSH0 DUP2 SWAP1 POP DUP2 PUSH0 MSTORE PUSH1 0x20 PUSH0 KECCAK256 SWAP1 POP SWAP2 SWAP1 POP JUMP JUMPDEST PUSH0 PUSH1 0x20 PUSH1 0x1F DUP4 ADD DIV SWAP1 POP SWAP2 SWAP1 POP JUMP JUMPDEST PUSH0 DUP3 DUP3 SHL SWAP1 POP SWAP3 SWAP2 POP POP JUMP JUMPDEST PUSH0 PUSH1 0x8 DUP4 MUL PUSH2 0x719 PUSH32 0xFFFFFFFFFFFFFFFFFFFFFFFFFFFFFFFFFFFFFFFFFFFFFFFFFFFFFFFFFFFFFFFF DUP3 PUSH2 0x6DE JUMP JUMPDEST PUSH2 0x723 DUP7 DUP4 PUSH2 0x6DE JUMP JUMPDEST SWAP6 POP DUP1 NOT DUP5 AND SWAP4 POP DUP1 DUP7 AND DUP5 OR SWAP3 POP POP POP SWAP4 SWAP3 POP POP POP JUMP JUMPDEST PUSH0 DUP2 SWAP1 POP SWAP2 SWAP1 POP JUMP JUMPDEST PUSH0 DUP2 SWAP1 POP SWAP2 SWAP1 POP JUMP JUMPDEST PUSH0 PUSH2 0x767 PUSH2 0x762 PUSH2 0x75D DUP5 PUSH2 0x73B JUMP JUMPDEST PUSH2 0x744 JUMP JUMPDEST PUSH2 0x73B JUMP JUMPDEST SWAP1 POP SWAP2 SWAP1 POP JUMP JUMPDEST PUSH0 DUP2 SWAP1 POP SWAP2 SWAP1 POP JUMP JUMPDEST PUSH2 0x780 DUP4 PUSH2 0x74D JUMP JUMPDEST PUSH2 0x794 PUSH2 0x78C DUP3 PUSH2 0x76E JUMP JUMPDEST DUP5 DUP5 SLOAD PUSH2 0x6EA JUMP JUMPDEST DUP3 SSTORE POP POP POP POP JUMP JUMPDEST PUSH0 PUSH0 SWAP1 POP SWAP1 JUMP JUMPDEST PUSH2 0x7AB PUSH2 0x79C JUMP JUMPDEST PUSH2 0x7B6 DUP2 DUP5 DUP5 PUSH2 0x777 JUMP JUMPDEST POP POP POP JUMP JUMPDEST JUMPDEST DUP2 DUP2 LT ISZERO PUSH2 0x7D9 JUMPI PUSH2 0x7CE PUSH0 DUP3 PUSH2 0x7A3 JUMP JUMPDEST PUSH1 0x1 DUP2 ADD SWAP1 POP PUSH2 0x7BC JUMP JUMPDEST POP POP JUMP JUMPDEST PUSH1 0x1F DUP3 GT ISZERO PUSH2 0x81E JUMPI PUSH2 0x7EF DUP2 PUSH2 0x6BD JUMP JUMPDEST PUSH2 0x7F8 DUP5 PUSH2 0x6CF JUMP JUMPDEST DUP2 ADD PUSH1 0x20 DUP6 LT ISZERO PUSH2 0x807 JUMPI DUP2 SWAP1 POP JUMPDEST PUSH2 0x81B PUSH2 0x813 DUP6 PUSH2 0x6CF JUMP JUMPDEST DUP4 ADD DUP3 PUSH2 0x7BB JUMP JUMPDEST POP POP JUMPDEST POP POP POP JUMP JUMPDEST PUSH0 DUP3 DUP3 SHR SWAP1 POP SWAP3 SWAP2 POP POP JUMP JUMPDEST PUSH0 PUSH2 0x83E PUSH0 NOT DUP5 PUSH1 0x8 MUL PUSH2 0x823 JUMP JUMPDEST NOT DUP1 DUP4 AND SWAP2 POP POP SWAP3 SWAP2 POP POP JUMP JUMPDEST PUSH0 PUSH2 0x856 DUP4 DUP4 PUSH2 0x82F JUMP JUMPDEST SWAP2 POP DUP3 PUSH1 0x2 MUL DUP3 OR SWAP1 POP SWAP3 SWAP2 POP POP JUMP JUMPDEST PUSH2 0x86F DUP3 PUSH2 0x533 JUMP JUMPDEST PUSH8 0xFFFFFFFFFFFFFFFF DUP2 GT ISZERO PUSH2 0x888 JUMPI PUSH2 0x887 PUSH2 0x3C8 JUMP JUMPDEST JUMPDEST PUSH2 0x892 DUP3 SLOAD PUSH2 0x68D JUMP JUMPDEST PUSH2 0x89D DUP3 DUP3 DUP6 PUSH2 0x7DD JUMP JUMPDEST PUSH0 PUSH1 0x20 SWAP1 POP PUSH1 0x1F DUP4 GT PUSH1 0x1 DUP2 EQ PUSH2 0x8CE JUMPI PUSH0 DUP5 ISZERO PUSH2 0x8BC JUMPI DUP3 DUP8 ADD MLOAD SWAP1 POP JUMPDEST PUSH2 0x8C6 DUP6 DUP3 PUSH2 0x84B JUMP JUMPDEST DUP7 SSTORE POP PUSH2 0x92D JUMP JUMPDEST PUSH1 0x1F NOT DUP5 AND PUSH2 0x8DC DUP7 PUSH2 0x6BD JUMP JUMPDEST PUSH0 JUMPDEST DUP3 DUP2 LT ISZERO PUSH2 0x903 JUMPI DUP5 DUP10 ADD MLOAD DUP3 SSTORE PUSH1 0x1 DUP3 ADD SWAP2 POP PUSH1 0x20 DUP6 ADD SWAP5 POP PUSH1 0x20 DUP2 ADD SWAP1 POP PUSH2 0x8DE JUMP JUMPDEST DUP7 DUP4 LT ISZERO PUSH2 0x920 JUMPI DUP5 DUP10 ADD MLOAD PUSH2 0x91C PUSH1 0x1F DUP10 AND DUP3 PUSH2 0x82F JUMP JUMPDEST DUP4 SSTORE POP JUMPDEST PUSH1 0x1 PUSH1 0x2 DUP9 MUL ADD DUP9 SSTORE POP POP POP JUMPDEST POP POP POP POP POP POP JUMP INVALID LOG2 PUSH5 0x6970667358 0x22 SLT KECCAK256 PUSH13 0x1B6DBADD0607B488D7A4D8E9A5 LOG2 SHL SWAP3 0xC 0x26 SAR 0xCD 0x2A 0xC PUSH28 0x30C96D294C62EF8564736F6C634300081C0033000000000000000000 "
				},
				"gasEstimates": {
					"creation": {
						"codeDepositCost": "482200",
						"executionCost": "infinite",
						"totalCost": "infinite"
					},
					"external": {
						"data()": "infinite",
						"owner()": "2558",
						"renounceOwnership()": "infinite",
						"setData(string)": "infinite",
						"transferOwnership(address)": "infinite"
					}
				},
				"methodIdentifiers": {
					"data()": "73d4a13a",
					"owner()": "8da5cb5b",
					"renounceOwnership()": "715018a6",
					"setData(string)": "47064d6a",
					"transferOwnership(address)": "f2fde38b"
				}
			},
			"storageLayout": {
				"storage": [
					{
						"astId": 8,
						"contract": "contracts/study/OwnerTest.sol:MyContract",
						"label": "_owner",
						"offset": 0,
						"slot": "0",
						"type": "t_address"
					},
					{
						"astId": 184,
						"contract": "contracts/study/OwnerTest.sol:MyContract",
						"label": "data",
						"offset": 0,
						"slot": "1",
						"type": "t_string_storage"
					}
				],
				"types": {
					"t_address": {
						"encoding": "inplace",
						"label": "address",
						"numberOfBytes": "20"
					},
					"t_string_storage": {
						"encoding": "bytes",
						"label": "string",
						"numberOfBytes": "32"
					}
				}
			},
			"userdoc": {
				"kind": "user",
				"methods": {},
				"version": 1
			}
		}
	}
}