{
	"contracts/Dex/SimpleSwap.sol": {
		"SimpleSwap": {
			"abi": [
				{
					"inputs": [
						{
							"internalType": "contract IERC20",
							"name": "_token0",
							"type": "address"
						},
						{
							"internalType": "contract IERC20",
							"name": "_token1",
							"type": "address"
						}
					],
					"stateMutability": "nonpayable",
					"type": "constructor"
				},
				{
					"inputs": [
						{
							"internalType": "address",
							"name": "spender",
							"type": "address"
						},
						{
							"internalType": "uint256",
							"name": "allowance",
							"type": "uint256"
						},
						{
							"internalType": "uint256",
							"name": "needed",
							"type": "uint256"
						}
					],
					"name": "ERC20InsufficientAllowance",
					"type": "error"
				},
				{
					"inputs": [
						{
							"internalType": "address",
							"name": "sender",
							"type": "address"
						},
						{
							"internalType": "uint256",
							"name": "balance",
							"type": "uint256"
						},
						{
							"internalType": "uint256",
							"name": "needed",
							"type": "uint256"
						}
					],
					"name": "ERC20InsufficientBalance",
					"type": "error"
				},
				{
					"inputs": [
						{
							"internalType": "address",
							"name": "approver",
							"type": "address"
						}
					],
					"name": "ERC20InvalidApprover",
					"type": "error"
				},
				{
					"inputs": [
						{
							"internalType": "address",
							"name": "receiver",
							"type": "address"
						}
					],
					"name": "ERC20InvalidReceiver",
					"type": "error"
				},
				{
					"inputs": [
						{
							"internalType": "address",
							"name": "sender",
							"type": "address"
						}
					],
					"name": "ERC20InvalidSender",
					"type": "error"
				},
				{
					"inputs": [
						{
							"internalType": "address",
							"name": "spender",
							"type": "address"
						}
					],
					"name": "ERC20InvalidSpender",
					"type": "error"
				},
				{
					"anonymous": false,
					"inputs": [
						{
							"indexed": true,
							"internalType": "address",
							"name": "owner",
							"type": "address"
						},
						{
							"indexed": true,
							"internalType": "address",
							"name": "spender",
							"type": "address"
						},
						{
							"indexed": false,
							"internalType": "uint256",
							"name": "value",
							"type": "uint256"
						}
					],
					"name": "Approval",
					"type": "event"
				},
				{
					"anonymous": false,
					"inputs": [
						{
							"indexed": true,
							"internalType": "address",
							"name": "sender",
							"type": "address"
						},
						{
							"indexed": false,
							"internalType": "uint256",
							"name": "amount0",
							"type": "uint256"
						},
						{
							"indexed": false,
							"internalType": "uint256",
							"name": "amount1",
							"type": "uint256"
						}
					],
					"name": "Burn",
					"type": "event"
				},
				{
					"anonymous": false,
					"inputs": [
						{
							"indexed": true,
							"internalType": "address",
							"name": "sender",
							"type": "address"
						},
						{
							"indexed": false,
							"internalType": "uint256",
							"name": "amount0",
							"type": "uint256"
						},
						{
							"indexed": false,
							"internalType": "uint256",
							"name": "amount1",
							"type": "uint256"
						}
					],
					"name": "Mint",
					"type": "event"
				},
				{
					"anonymous": false,
					"inputs": [
						{
							"indexed": true,
							"internalType": "address",
							"name": "sender",
							"type": "address"
						},
						{
							"indexed": false,
							"internalType": "uint256",
							"name": "amountIn",
							"type": "uint256"
						},
						{
							"indexed": false,
							"internalType": "address",
							"name": "tokenIn",
							"type": "address"
						},
						{
							"indexed": false,
							"internalType": "uint256",
							"name": "amountOut",
							"type": "uint256"
						},
						{
							"indexed": false,
							"internalType": "address",
							"name": "tokenOut",
							"type": "address"
						}
					],
					"name": "Swap",
					"type": "event"
				},
				{
					"anonymous": false,
					"inputs": [
						{
							"indexed": true,
							"internalType": "address",
							"name": "from",
							"type": "address"
						},
						{
							"indexed": true,
							"internalType": "address",
							"name": "to",
							"type": "address"
						},
						{
							"indexed": false,
							"internalType": "uint256",
							"name": "value",
							"type": "uint256"
						}
					],
					"name": "Transfer",
					"type": "event"
				},
				{
					"inputs": [
						{
							"internalType": "uint256",
							"name": "amount0Desired",
							"type": "uint256"
						},
						{
							"internalType": "uint256",
							"name": "amount1Desired",
							"type": "uint256"
						}
					],
					"name": "addLiquidity",
					"outputs": [
						{
							"internalType": "uint256",
							"name": "liquidity",
							"type": "uint256"
						}
					],
					"stateMutability": "nonpayable",
					"type": "function"
				},
				{
					"inputs": [
						{
							"internalType": "address",
							"name": "owner",
							"type": "address"
						},
						{
							"internalType": "address",
							"name": "spender",
							"type": "address"
						}
					],
					"name": "allowance",
					"outputs": [
						{
							"internalType": "uint256",
							"name": "",
							"type": "uint256"
						}
					],
					"stateMutability": "view",
					"type": "function"
				},
				{
					"inputs": [
						{
							"internalType": "address",
							"name": "spender",
							"type": "address"
						},
						{
							"internalType": "uint256",
							"name": "value",
							"type": "uint256"
						}
					],
					"name": "approve",
					"outputs": [
						{
							"internalType": "bool",
							"name": "",
							"type": "bool"
						}
					],
					"stateMutability": "nonpayable",
					"type": "function"
				},
				{
					"inputs": [
						{
							"internalType": "address",
							"name": "account",
							"type": "address"
						}
					],
					"name": "balanceOf",
					"outputs": [
						{
							"internalType": "uint256",
							"name": "",
							"type": "uint256"
						}
					],
					"stateMutability": "view",
					"type": "function"
				},
				{
					"inputs": [],
					"name": "decimals",
					"outputs": [
						{
							"internalType": "uint8",
							"name": "",
							"type": "uint8"
						}
					],
					"stateMutability": "view",
					"type": "function"
				},
				{
					"inputs": [
						{
							"internalType": "uint256",
							"name": "amountIn",
							"type": "uint256"
						},
						{
							"internalType": "uint256",
							"name": "reserveIn",
							"type": "uint256"
						},
						{
							"internalType": "uint256",
							"name": "reserveOut",
							"type": "uint256"
						}
					],
					"name": "getAmountOut",
					"outputs": [
						{
							"internalType": "uint256",
							"name": "amountOut",
							"type": "uint256"
						}
					],
					"stateMutability": "pure",
					"type": "function"
				},
				{
					"inputs": [],
					"name": "name",
					"outputs": [
						{
							"internalType": "string",
							"name": "",
							"type": "string"
						}
					],
					"stateMutability": "view",
					"type": "function"
				},
				{
					"inputs": [
						{
							"internalType": "uint256",
							"name": "liquidity",
							"type": "uint256"
						}
					],
					"name": "removeLiquidity",
					"outputs": [
						{
							"internalType": "uint256",
							"name": "amount0",
							"type": "uint256"
						},
						{
							"internalType": "uint256",
							"name": "amount1",
							"type": "uint256"
						}
					],
					"stateMutability": "nonpayable",
					"type": "function"
				},
				{
					"inputs": [],
					"name": "reserve0",
					"outputs": [
						{
							"internalType": "uint256",
							"name": "",
							"type": "uint256"
						}
					],
					"stateMutability": "view",
					"type": "function"
				},
				{
					"inputs": [],
					"name": "reserve1",
					"outputs": [
						{
							"internalType": "uint256",
							"name": "",
							"type": "uint256"
						}
					],
					"stateMutability": "view",
					"type": "function"
				},
				{
					"inputs": [
						{
							"internalType": "uint256",
							"name": "amountIn",
							"type": "uint256"
						},
						{
							"internalType": "contract IERC20",
							"name": "tokenIn",
							"type": "address"
						},
						{
							"internalType": "uint256",
							"name": "amountOutMin",
							"type": "uint256"
						}
					],
					"name": "swap",
					"outputs": [
						{
							"internalType": "uint256",
							"name": "amountOut",
							"type": "uint256"
						},
						{
							"internalType": "contract IERC20",
							"name": "tokenOut",
							"type": "address"
						}
					],
					"stateMutability": "nonpayable",
					"type": "function"
				},
				{
					"inputs": [],
					"name": "symbol",
					"outputs": [
						{
							"internalType": "string",
							"name": "",
							"type": "string"
						}
					],
					"stateMutability": "view",
					"type": "function"
				},
				{
					"inputs": [],
					"name": "token0",
					"outputs": [
						{
							"internalType": "contract IERC20",
							"name": "",
							"type": "address"
						}
					],
					"stateMutability": "view",
					"type": "function"
				},
				{
					"inputs": [],
					"name": "token1",
					"outputs": [
						{
							"internalType": "contract IERC20",
							"name": "",
							"type": "address"
						}
					],
					"stateMutability": "view",
					"type": "function"
				},
				{
					"inputs": [],
					"name": "totalSupply",
					"outputs": [
						{
							"internalType": "uint256",
							"name": "",
							"type": "uint256"
						}
					],
					"stateMutability": "view",
					"type": "function"
				},
				{
					"inputs": [
						{
							"internalType": "address",
							"name": "to",
							"type": "address"
						},
						{
							"internalType": "uint256",
							"name": "value",
							"type": "uint256"
						}
					],
					"name": "transfer",
					"outputs": [
						{
							"internalType": "bool",
							"name": "",
							"type": "bool"
						}
					],
					"stateMutability": "nonpayable",
					"type": "function"
				},
				{
					"inputs": [
						{
							"internalType": "address",
							"name": "from",
							"type": "address"
						},
						{
							"internalType": "address",
							"name": "to",
							"type": "address"
						},
						{
							"internalType": "uint256",
							"name": "value",
							"type": "uint256"
						}
					],
					"name": "transferFrom",
					"outputs": [
						{
							"internalType": "bool",
							"name": "",
							"type": "bool"
						}
					],
					"stateMutability": "nonpayable",
					"type": "function"
				}
			],
			"devdoc": {
				"errors": {
					"ERC20InsufficientAllowance(address,uint256,uint256)": [
						{
							"details": "Indicates a failure with the `spender`’s `allowance`. Used in transfers.",
							"params": {
								"allowance": "Amount of tokens a `spender` is allowed to operate with.",
								"needed": "Minimum amount required to perform a transfer.",
								"spender": "Address that may be allowed to operate on tokens without being their owner."
							}
						}
					],
					"ERC20InsufficientBalance(address,uint256,uint256)": [
						{
							"details": "Indicates an error related to the current `balance` of a `sender`. Used in transfers.",
							"params": {
								"balance": "Current balance for the interacting account.",
								"needed": "Minimum amount required to perform a transfer.",
								"sender": "Address whose tokens are being transferred."
							}
						}
					],
					"ERC20InvalidApprover(address)": [
						{
							"details": "Indicates a failure with the `approver` of a token to be approved. Used in approvals.",
							"params": {
								"approver": "Address initiating an approval operation."
							}
						}
					],
					"ERC20InvalidReceiver(address)": [
						{
							"details": "Indicates a failure with the token `receiver`. Used in transfers.",
							"params": {
								"receiver": "Address to which tokens are being transferred."
							}
						}
					],
					"ERC20InvalidSender(address)": [
						{
							"details": "Indicates a failure with the token `sender`. Used in transfers.",
							"params": {
								"sender": "Address whose tokens are being transferred."
							}
						}
					],
					"ERC20InvalidSpender(address)": [
						{
							"details": "Indicates a failure with the `spender` to be approved. Used in approvals.",
							"params": {
								"spender": "Address that may be allowed to operate on tokens without being their owner."
							}
						}
					]
				},
				"events": {
					"Approval(address,address,uint256)": {
						"details": "Emitted when the allowance of a `spender` for an `owner` is set by a call to {approve}. `value` is the new allowance."
					},
					"Transfer(address,address,uint256)": {
						"details": "Emitted when `value` tokens are moved from one account (`from`) to another (`to`). Note that `value` may be zero."
					}
				},
				"kind": "dev",
				"methods": {
					"allowance(address,address)": {
						"details": "See {IERC20-allowance}."
					},
					"approve(address,uint256)": {
						"details": "See {IERC20-approve}. NOTE: If `value` is the maximum `uint256`, the allowance is not updated on `transferFrom`. This is semantically equivalent to an infinite approval. Requirements: - `spender` cannot be the zero address."
					},
					"balanceOf(address)": {
						"details": "See {IERC20-balanceOf}."
					},
					"decimals()": {
						"details": "Returns the number of decimals used to get its user representation. For example, if `decimals` equals `2`, a balance of `505` tokens should be displayed to a user as `5.05` (`505 / 10 ** 2`). Tokens usually opt for a value of 18, imitating the relationship between Ether and Wei. This is the default value returned by this function, unless it's overridden. NOTE: This information is only used for _display_ purposes: it in no way affects any of the arithmetic of the contract, including {IERC20-balanceOf} and {IERC20-transfer}."
					},
					"name()": {
						"details": "Returns the name of the token."
					},
					"symbol()": {
						"details": "Returns the symbol of the token, usually a shorter version of the name."
					},
					"totalSupply()": {
						"details": "See {IERC20-totalSupply}."
					},
					"transfer(address,uint256)": {
						"details": "See {IERC20-transfer}. Requirements: - `to` cannot be the zero address. - the caller must have a balance of at least `value`."
					},
					"transferFrom(address,address,uint256)": {
						"details": "See {IERC20-transferFrom}. Skips emitting an {Approval} event indicating an allowance update. This is not required by the ERC. See {xref-ERC20-_approve-address-address-uint256-bool-}[_approve]. NOTE: Does not update the allowance if the current allowance is the maximum `uint256`. Requirements: - `from` and `to` cannot be the zero address. - `from` must have a balance of at least `value`. - the caller must have allowance for ``from``'s tokens of at least `value`."
					}
				},
				"version": 1
			},
			"evm": {
				"assembly": "    /* \"contracts/Dex/SimpleSwap.sol\":120:6512  contract SimpleSwap is ERC20 {... */\n  mstore(0x40, 0x80)\n    /* \"contracts/Dex/SimpleSwap.sol\":678:810  constructor(IERC20 _token0, IERC20 _token1) ERC20(\"SimpleSwap\", \"SS\") {... */\n  callvalue\n  dup1\n  iszero\n  tag_1\n  jumpi\n  0x00\n  dup1\n  revert\ntag_1:\n  pop\n  mload(0x40)\n  sub(codesize, bytecodeSize)\n  dup1\n  bytecodeSize\n  dup4\n  codecopy\n  dup2\n  dup2\n  add\n  0x40\n  mstore\n  dup2\n  add\n  swap1\n  tag_2\n  swap2\n  swap1\n  tag_3\n  jump\t// in\ntag_2:\n    /* \"@openzeppelin/contracts/token/ERC20/ERC20.sol\":1601:1714  constructor(string memory name_, string memory symbol_) {... */\n  mload(0x40)\n  dup1\n  0x40\n  add\n  0x40\n  mstore\n  dup1\n  0x0a\n  dup2\n  mstore\n  0x20\n  add\n  0x53696d706c655377617000000000000000000000000000000000000000000000\n  dup2\n  mstore\n  pop\n  mload(0x40)\n  dup1\n  0x40\n  add\n  0x40\n  mstore\n  dup1\n  0x02\n  dup2\n  mstore\n  0x20\n  add\n  0x5353000000000000000000000000000000000000000000000000000000000000\n  dup2\n  mstore\n  pop\n    /* \"@openzeppelin/contracts/token/ERC20/ERC20.sol\":1675:1680  name_ */\n  dup2\n    /* \"@openzeppelin/contracts/token/ERC20/ERC20.sol\":1667:1672  _name */\n  0x03\n    /* \"@openzeppelin/contracts/token/ERC20/ERC20.sol\":1667:1680  _name = name_ */\n  swap1\n  dup2\n  tag_7\n  swap2\n  swap1\n  tag_8\n  jump\t// in\ntag_7:\n  pop\n    /* \"@openzeppelin/contracts/token/ERC20/ERC20.sol\":1700:1707  symbol_ */\n  dup1\n    /* \"@openzeppelin/contracts/token/ERC20/ERC20.sol\":1690:1697  _symbol */\n  0x04\n    /* \"@openzeppelin/contracts/token/ERC20/ERC20.sol\":1690:1707  _symbol = symbol_ */\n  swap1\n  dup2\n  tag_9\n  swap2\n  swap1\n  tag_8\n  jump\t// in\ntag_9:\n  pop\n    /* \"@openzeppelin/contracts/token/ERC20/ERC20.sol\":1601:1714  constructor(string memory name_, string memory symbol_) {... */\n  pop\n  pop\n    /* \"contracts/Dex/SimpleSwap.sol\":768:775  _token0 */\n  dup2\n    /* \"contracts/Dex/SimpleSwap.sol\":759:765  token0 */\n  0x05\n  0x00\n    /* \"contracts/Dex/SimpleSwap.sol\":759:775  token0 = _token0 */\n  0x0100\n  exp\n  dup2\n  sload\n  dup2\n  0xffffffffffffffffffffffffffffffffffffffff\n  mul\n  not\n  and\n  swap1\n  dup4\n  0xffffffffffffffffffffffffffffffffffffffff\n  and\n  mul\n  or\n  swap1\n  sstore\n  pop\n    /* \"contracts/Dex/SimpleSwap.sol\":795:802  _token1 */\n  dup1\n    /* \"contracts/Dex/SimpleSwap.sol\":786:792  token1 */\n  0x06\n  0x00\n    /* \"contracts/Dex/SimpleSwap.sol\":786:802  token1 = _token1 */\n  0x0100\n  exp\n  dup2\n  sload\n  dup2\n  0xffffffffffffffffffffffffffffffffffffffff\n  mul\n  not\n  and\n  swap1\n  dup4\n  0xffffffffffffffffffffffffffffffffffffffff\n  and\n  mul\n  or\n  swap1\n  sstore\n  pop\n    /* \"contracts/Dex/SimpleSwap.sol\":678:810  constructor(IERC20 _token0, IERC20 _token1) ERC20(\"SimpleSwap\", \"SS\") {... */\n  pop\n  pop\n    /* \"contracts/Dex/SimpleSwap.sol\":120:6512  contract SimpleSwap is ERC20 {... */\n  jump(tag_11)\n    /* \"#utility.yul\":88:205   */\ntag_13:\n    /* \"#utility.yul\":197:198   */\n  0x00\n    /* \"#utility.yul\":194:195   */\n  dup1\n    /* \"#utility.yul\":187:199   */\n  revert\n    /* \"#utility.yul\":334:460   */\ntag_15:\n    /* \"#utility.yul\":371:378   */\n  0x00\n    /* \"#utility.yul\":411:453   */\n  0xffffffffffffffffffffffffffffffffffffffff\n    /* \"#utility.yul\":404:409   */\n  dup3\n    /* \"#utility.yul\":400:454   */\n  and\n    /* \"#utility.yul\":389:454   */\n  swap1\n  pop\n    /* \"#utility.yul\":334:460   */\n  swap2\n  swap1\n  pop\n  jump\t// out\n    /* \"#utility.yul\":466:562   */\ntag_16:\n    /* \"#utility.yul\":503:510   */\n  0x00\n    /* \"#utility.yul\":532:556   */\n  tag_46\n    /* \"#utility.yul\":550:555   */\n  dup3\n    /* \"#utility.yul\":532:556   */\n  tag_15\n  jump\t// in\ntag_46:\n    /* \"#utility.yul\":521:556   */\n  swap1\n  pop\n    /* \"#utility.yul\":466:562   */\n  swap2\n  swap1\n  pop\n  jump\t// out\n    /* \"#utility.yul\":568:678   */\ntag_17:\n    /* \"#utility.yul\":619:626   */\n  0x00\n    /* \"#utility.yul\":648:672   */\n  tag_48\n    /* \"#utility.yul\":666:671   */\n  dup3\n    /* \"#utility.yul\":648:672   */\n  tag_16\n  jump\t// in\ntag_48:\n    /* \"#utility.yul\":637:672   */\n  swap1\n  pop\n    /* \"#utility.yul\":568:678   */\n  swap2\n  swap1\n  pop\n  jump\t// out\n    /* \"#utility.yul\":684:834   */\ntag_18:\n    /* \"#utility.yul\":771:809   */\n  tag_50\n    /* \"#utility.yul\":803:808   */\n  dup2\n    /* \"#utility.yul\":771:809   */\n  tag_17\n  jump\t// in\ntag_50:\n    /* \"#utility.yul\":764:769   */\n  dup2\n    /* \"#utility.yul\":761:810   */\n  eq\n    /* \"#utility.yul\":751:828   */\n  tag_51\n  jumpi\n    /* \"#utility.yul\":824:825   */\n  0x00\n    /* \"#utility.yul\":821:822   */\n  dup1\n    /* \"#utility.yul\":814:826   */\n  revert\n    /* \"#utility.yul\":751:828   */\ntag_51:\n    /* \"#utility.yul\":684:834   */\n  pop\n  jump\t// out\n    /* \"#utility.yul\":840:1011   */\ntag_19:\n    /* \"#utility.yul\":911:916   */\n  0x00\n    /* \"#utility.yul\":942:948   */\n  dup2\n    /* \"#utility.yul\":936:949   */\n  mload\n    /* \"#utility.yul\":927:949   */\n  swap1\n  pop\n    /* \"#utility.yul\":958:1005   */\n  tag_53\n    /* \"#utility.yul\":999:1004   */\n  dup2\n    /* \"#utility.yul\":958:1005   */\n  tag_18\n  jump\t// in\ntag_53:\n    /* \"#utility.yul\":840:1011   */\n  swap3\n  swap2\n  pop\n  pop\n  jump\t// out\n    /* \"#utility.yul\":1017:1580   */\ntag_3:\n    /* \"#utility.yul\":1124:1130   */\n  0x00\n    /* \"#utility.yul\":1132:1138   */\n  dup1\n    /* \"#utility.yul\":1181:1183   */\n  0x40\n    /* \"#utility.yul\":1169:1178   */\n  dup4\n    /* \"#utility.yul\":1160:1167   */\n  dup6\n    /* \"#utility.yul\":1156:1179   */\n  sub\n    /* \"#utility.yul\":1152:1184   */\n  slt\n    /* \"#utility.yul\":1149:1268   */\n  iszero\n  tag_55\n  jumpi\n    /* \"#utility.yul\":1187:1266   */\n  tag_56\n  tag_13\n  jump\t// in\ntag_56:\n    /* \"#utility.yul\":1149:1268   */\ntag_55:\n    /* \"#utility.yul\":1307:1308   */\n  0x00\n    /* \"#utility.yul\":1332:1410   */\n  tag_57\n    /* \"#utility.yul\":1402:1409   */\n  dup6\n    /* \"#utility.yul\":1393:1399   */\n  dup3\n    /* \"#utility.yul\":1382:1391   */\n  dup7\n    /* \"#utility.yul\":1378:1400   */\n  add\n    /* \"#utility.yul\":1332:1410   */\n  tag_19\n  jump\t// in\ntag_57:\n    /* \"#utility.yul\":1322:1410   */\n  swap3\n  pop\n    /* \"#utility.yul\":1278:1420   */\n  pop\n    /* \"#utility.yul\":1459:1461   */\n  0x20\n    /* \"#utility.yul\":1485:1563   */\n  tag_58\n    /* \"#utility.yul\":1555:1562   */\n  dup6\n    /* \"#utility.yul\":1546:1552   */\n  dup3\n    /* \"#utility.yul\":1535:1544   */\n  dup7\n    /* \"#utility.yul\":1531:1553   */\n  add\n    /* \"#utility.yul\":1485:1563   */\n  tag_19\n  jump\t// in\ntag_58:\n    /* \"#utility.yul\":1475:1563   */\n  swap2\n  pop\n    /* \"#utility.yul\":1430:1573   */\n  pop\n    /* \"#utility.yul\":1017:1580   */\n  swap3\n  pop\n  swap3\n  swap1\n  pop\n  jump\t// out\n    /* \"#utility.yul\":1586:1685   */\ntag_20:\n    /* \"#utility.yul\":1638:1644   */\n  0x00\n    /* \"#utility.yul\":1672:1677   */\n  dup2\n    /* \"#utility.yul\":1666:1678   */\n  mload\n    /* \"#utility.yul\":1656:1678   */\n  swap1\n  pop\n    /* \"#utility.yul\":1586:1685   */\n  swap2\n  swap1\n  pop\n  jump\t// out\n    /* \"#utility.yul\":1691:1871   */\ntag_21:\n    /* \"#utility.yul\":1739:1816   */\n  0x4e487b7100000000000000000000000000000000000000000000000000000000\n    /* \"#utility.yul\":1736:1737   */\n  0x00\n    /* \"#utility.yul\":1729:1817   */\n  mstore\n    /* \"#utility.yul\":1836:1840   */\n  0x41\n    /* \"#utility.yul\":1833:1834   */\n  0x04\n    /* \"#utility.yul\":1826:1841   */\n  mstore\n    /* \"#utility.yul\":1860:1864   */\n  0x24\n    /* \"#utility.yul\":1857:1858   */\n  0x00\n    /* \"#utility.yul\":1850:1865   */\n  revert\n    /* \"#utility.yul\":1877:2057   */\ntag_22:\n    /* \"#utility.yul\":1925:2002   */\n  0x4e487b7100000000000000000000000000000000000000000000000000000000\n    /* \"#utility.yul\":1922:1923   */\n  0x00\n    /* \"#utility.yul\":1915:2003   */\n  mstore\n    /* \"#utility.yul\":2022:2026   */\n  0x22\n    /* \"#utility.yul\":2019:2020   */\n  0x04\n    /* \"#utility.yul\":2012:2027   */\n  mstore\n    /* \"#utility.yul\":2046:2050   */\n  0x24\n    /* \"#utility.yul\":2043:2044   */\n  0x00\n    /* \"#utility.yul\":2036:2051   */\n  revert\n    /* \"#utility.yul\":2063:2383   */\ntag_23:\n    /* \"#utility.yul\":2107:2113   */\n  0x00\n    /* \"#utility.yul\":2144:2145   */\n  0x02\n    /* \"#utility.yul\":2138:2142   */\n  dup3\n    /* \"#utility.yul\":2134:2146   */\n  div\n    /* \"#utility.yul\":2124:2146   */\n  swap1\n  pop\n    /* \"#utility.yul\":2191:2192   */\n  0x01\n    /* \"#utility.yul\":2185:2189   */\n  dup3\n    /* \"#utility.yul\":2181:2193   */\n  and\n    /* \"#utility.yul\":2212:2230   */\n  dup1\n    /* \"#utility.yul\":2202:2283   */\n  tag_63\n  jumpi\n    /* \"#utility.yul\":2268:2272   */\n  0x7f\n    /* \"#utility.yul\":2260:2266   */\n  dup3\n    /* \"#utility.yul\":2256:2273   */\n  and\n    /* \"#utility.yul\":2246:2273   */\n  swap2\n  pop\n    /* \"#utility.yul\":2202:2283   */\ntag_63:\n    /* \"#utility.yul\":2330:2332   */\n  0x20\n    /* \"#utility.yul\":2322:2328   */\n  dup3\n    /* \"#utility.yul\":2319:2333   */\n  lt\n    /* \"#utility.yul\":2299:2317   */\n  dup2\n    /* \"#utility.yul\":2296:2334   */\n  sub\n    /* \"#utility.yul\":2293:2377   */\n  tag_64\n  jumpi\n    /* \"#utility.yul\":2349:2367   */\n  tag_65\n  tag_22\n  jump\t// in\ntag_65:\n    /* \"#utility.yul\":2293:2377   */\ntag_64:\n    /* \"#utility.yul\":2114:2383   */\n  pop\n    /* \"#utility.yul\":2063:2383   */\n  swap2\n  swap1\n  pop\n  jump\t// out\n    /* \"#utility.yul\":2389:2530   */\ntag_24:\n    /* \"#utility.yul\":2438:2442   */\n  0x00\n    /* \"#utility.yul\":2461:2464   */\n  dup2\n    /* \"#utility.yul\":2453:2464   */\n  swap1\n  pop\n    /* \"#utility.yul\":2484:2487   */\n  dup2\n    /* \"#utility.yul\":2481:2482   */\n  0x00\n    /* \"#utility.yul\":2474:2488   */\n  mstore\n    /* \"#utility.yul\":2518:2522   */\n  0x20\n    /* \"#utility.yul\":2515:2516   */\n  0x00\n    /* \"#utility.yul\":2505:2523   */\n  keccak256\n    /* \"#utility.yul\":2497:2523   */\n  swap1\n  pop\n    /* \"#utility.yul\":2389:2530   */\n  swap2\n  swap1\n  pop\n  jump\t// out\n    /* \"#utility.yul\":2536:2629   */\ntag_25:\n    /* \"#utility.yul\":2573:2579   */\n  0x00\n    /* \"#utility.yul\":2620:2622   */\n  0x20\n    /* \"#utility.yul\":2615:2617   */\n  0x1f\n    /* \"#utility.yul\":2608:2613   */\n  dup4\n    /* \"#utility.yul\":2604:2618   */\n  add\n    /* \"#utility.yul\":2600:2623   */\n  div\n    /* \"#utility.yul\":2590:2623   */\n  swap1\n  pop\n    /* \"#utility.yul\":2536:2629   */\n  swap2\n  swap1\n  pop\n  jump\t// out\n    /* \"#utility.yul\":2635:2742   */\ntag_26:\n    /* \"#utility.yul\":2679:2687   */\n  0x00\n    /* \"#utility.yul\":2729:2734   */\n  dup3\n    /* \"#utility.yul\":2723:2727   */\n  dup3\n    /* \"#utility.yul\":2719:2735   */\n  shl\n    /* \"#utility.yul\":2698:2735   */\n  swap1\n  pop\n    /* \"#utility.yul\":2635:2742   */\n  swap3\n  swap2\n  pop\n  pop\n  jump\t// out\n    /* \"#utility.yul\":2748:3141   */\ntag_27:\n    /* \"#utility.yul\":2817:2823   */\n  0x00\n    /* \"#utility.yul\":2867:2868   */\n  0x08\n    /* \"#utility.yul\":2855:2865   */\n  dup4\n    /* \"#utility.yul\":2851:2869   */\n  mul\n    /* \"#utility.yul\":2890:2987   */\n  tag_70\n    /* \"#utility.yul\":2920:2986   */\n  0xffffffffffffffffffffffffffffffffffffffffffffffffffffffffffffffff\n    /* \"#utility.yul\":2909:2918   */\n  dup3\n    /* \"#utility.yul\":2890:2987   */\n  tag_26\n  jump\t// in\ntag_70:\n    /* \"#utility.yul\":3008:3047   */\n  tag_71\n    /* \"#utility.yul\":3038:3046   */\n  dup7\n    /* \"#utility.yul\":3027:3036   */\n  dup4\n    /* \"#utility.yul\":3008:3047   */\n  tag_26\n  jump\t// in\ntag_71:\n    /* \"#utility.yul\":2996:3047   */\n  swap6\n  pop\n    /* \"#utility.yul\":3080:3084   */\n  dup1\n    /* \"#utility.yul\":3076:3085   */\n  not\n    /* \"#utility.yul\":3069:3074   */\n  dup5\n    /* \"#utility.yul\":3065:3086   */\n  and\n    /* \"#utility.yul\":3056:3086   */\n  swap4\n  pop\n    /* \"#utility.yul\":3129:3133   */\n  dup1\n    /* \"#utility.yul\":3119:3127   */\n  dup7\n    /* \"#utility.yul\":3115:3134   */\n  and\n    /* \"#utility.yul\":3108:3113   */\n  dup5\n    /* \"#utility.yul\":3105:3135   */\n  or\n    /* \"#utility.yul\":3095:3135   */\n  swap3\n  pop\n    /* \"#utility.yul\":2824:3141   */\n  pop\n  pop\n    /* \"#utility.yul\":2748:3141   */\n  swap4\n  swap3\n  pop\n  pop\n  pop\n  jump\t// out\n    /* \"#utility.yul\":3147:3224   */\ntag_28:\n    /* \"#utility.yul\":3184:3191   */\n  0x00\n    /* \"#utility.yul\":3213:3218   */\n  dup2\n    /* \"#utility.yul\":3202:3218   */\n  swap1\n  pop\n    /* \"#utility.yul\":3147:3224   */\n  swap2\n  swap1\n  pop\n  jump\t// out\n    /* \"#utility.yul\":3230:3290   */\ntag_29:\n    /* \"#utility.yul\":3258:3261   */\n  0x00\n    /* \"#utility.yul\":3279:3284   */\n  dup2\n    /* \"#utility.yul\":3272:3284   */\n  swap1\n  pop\n    /* \"#utility.yul\":3230:3290   */\n  swap2\n  swap1\n  pop\n  jump\t// out\n    /* \"#utility.yul\":3296:3438   */\ntag_30:\n    /* \"#utility.yul\":3346:3355   */\n  0x00\n    /* \"#utility.yul\":3379:3432   */\n  tag_75\n    /* \"#utility.yul\":3397:3431   */\n  tag_76\n    /* \"#utility.yul\":3406:3430   */\n  tag_77\n    /* \"#utility.yul\":3424:3429   */\n  dup5\n    /* \"#utility.yul\":3406:3430   */\n  tag_28\n  jump\t// in\ntag_77:\n    /* \"#utility.yul\":3397:3431   */\n  tag_29\n  jump\t// in\ntag_76:\n    /* \"#utility.yul\":3379:3432   */\n  tag_28\n  jump\t// in\ntag_75:\n    /* \"#utility.yul\":3366:3432   */\n  swap1\n  pop\n    /* \"#utility.yul\":3296:3438   */\n  swap2\n  swap1\n  pop\n  jump\t// out\n    /* \"#utility.yul\":3444:3519   */\ntag_31:\n    /* \"#utility.yul\":3487:3490   */\n  0x00\n    /* \"#utility.yul\":3508:3513   */\n  dup2\n    /* \"#utility.yul\":3501:3513   */\n  swap1\n  pop\n    /* \"#utility.yul\":3444:3519   */\n  swap2\n  swap1\n  pop\n  jump\t// out\n    /* \"#utility.yul\":3525:3794   */\ntag_32:\n    /* \"#utility.yul\":3635:3674   */\n  tag_80\n    /* \"#utility.yul\":3666:3673   */\n  dup4\n    /* \"#utility.yul\":3635:3674   */\n  tag_30\n  jump\t// in\ntag_80:\n    /* \"#utility.yul\":3696:3787   */\n  tag_81\n    /* \"#utility.yul\":3745:3786   */\n  tag_82\n    /* \"#utility.yul\":3769:3785   */\n  dup3\n    /* \"#utility.yul\":3745:3786   */\n  tag_31\n  jump\t// in\ntag_82:\n    /* \"#utility.yul\":3737:3743   */\n  dup5\n    /* \"#utility.yul\":3730:3734   */\n  dup5\n    /* \"#utility.yul\":3724:3735   */\n  sload\n    /* \"#utility.yul\":3696:3787   */\n  tag_27\n  jump\t// in\ntag_81:\n    /* \"#utility.yul\":3690:3694   */\n  dup3\n    /* \"#utility.yul\":3683:3788   */\n  sstore\n    /* \"#utility.yul\":3601:3794   */\n  pop\n    /* \"#utility.yul\":3525:3794   */\n  pop\n  pop\n  pop\n  jump\t// out\n    /* \"#utility.yul\":3800:3873   */\ntag_33:\n    /* \"#utility.yul\":3845:3848   */\n  0x00\n    /* \"#utility.yul\":3800:3873   */\n  swap1\n  jump\t// out\n    /* \"#utility.yul\":3879:4068   */\ntag_34:\n    /* \"#utility.yul\":3956:3988   */\n  tag_85\n  tag_33\n  jump\t// in\ntag_85:\n    /* \"#utility.yul\":3997:4062   */\n  tag_86\n    /* \"#utility.yul\":4055:4061   */\n  dup2\n    /* \"#utility.yul\":4047:4053   */\n  dup5\n    /* \"#utility.yul\":4041:4045   */\n  dup5\n    /* \"#utility.yul\":3997:4062   */\n  tag_32\n  jump\t// in\ntag_86:\n    /* \"#utility.yul\":3932:4068   */\n  pop\n    /* \"#utility.yul\":3879:4068   */\n  pop\n  pop\n  jump\t// out\n    /* \"#utility.yul\":4074:4260   */\ntag_35:\n    /* \"#utility.yul\":4134:4254   */\ntag_88:\n    /* \"#utility.yul\":4151:4154   */\n  dup2\n    /* \"#utility.yul\":4144:4149   */\n  dup2\n    /* \"#utility.yul\":4141:4155   */\n  lt\n    /* \"#utility.yul\":4134:4254   */\n  iszero\n  tag_90\n  jumpi\n    /* \"#utility.yul\":4205:4244   */\n  tag_91\n    /* \"#utility.yul\":4242:4243   */\n  0x00\n    /* \"#utility.yul\":4235:4240   */\n  dup3\n    /* \"#utility.yul\":4205:4244   */\n  tag_34\n  jump\t// in\ntag_91:\n    /* \"#utility.yul\":4178:4179   */\n  0x01\n    /* \"#utility.yul\":4171:4176   */\n  dup2\n    /* \"#utility.yul\":4167:4180   */\n  add\n    /* \"#utility.yul\":4158:4180   */\n  swap1\n  pop\n    /* \"#utility.yul\":4134:4254   */\n  jump(tag_88)\ntag_90:\n    /* \"#utility.yul\":4074:4260   */\n  pop\n  pop\n  jump\t// out\n    /* \"#utility.yul\":4266:4809   */\ntag_36:\n    /* \"#utility.yul\":4367:4369   */\n  0x1f\n    /* \"#utility.yul\":4362:4365   */\n  dup3\n    /* \"#utility.yul\":4359:4370   */\n  gt\n    /* \"#utility.yul\":4356:4802   */\n  iszero\n  tag_93\n  jumpi\n    /* \"#utility.yul\":4401:4439   */\n  tag_94\n    /* \"#utility.yul\":4433:4438   */\n  dup2\n    /* \"#utility.yul\":4401:4439   */\n  tag_24\n  jump\t// in\ntag_94:\n    /* \"#utility.yul\":4485:4514   */\n  tag_95\n    /* \"#utility.yul\":4503:4513   */\n  dup5\n    /* \"#utility.yul\":4485:4514   */\n  tag_25\n  jump\t// in\ntag_95:\n    /* \"#utility.yul\":4475:4483   */\n  dup2\n    /* \"#utility.yul\":4471:4515   */\n  add\n    /* \"#utility.yul\":4668:4670   */\n  0x20\n    /* \"#utility.yul\":4656:4666   */\n  dup6\n    /* \"#utility.yul\":4653:4671   */\n  lt\n    /* \"#utility.yul\":4650:4699   */\n  iszero\n  tag_96\n  jumpi\n    /* \"#utility.yul\":4689:4697   */\n  dup2\n    /* \"#utility.yul\":4674:4697   */\n  swap1\n  pop\n    /* \"#utility.yul\":4650:4699   */\ntag_96:\n    /* \"#utility.yul\":4712:4792   */\n  tag_97\n    /* \"#utility.yul\":4768:4790   */\n  tag_98\n    /* \"#utility.yul\":4786:4789   */\n  dup6\n    /* \"#utility.yul\":4768:4790   */\n  tag_25\n  jump\t// in\ntag_98:\n    /* \"#utility.yul\":4758:4766   */\n  dup4\n    /* \"#utility.yul\":4754:4791   */\n  add\n    /* \"#utility.yul\":4741:4752   */\n  dup3\n    /* \"#utility.yul\":4712:4792   */\n  tag_35\n  jump\t// in\ntag_97:\n    /* \"#utility.yul\":4371:4802   */\n  pop\n  pop\n    /* \"#utility.yul\":4356:4802   */\ntag_93:\n    /* \"#utility.yul\":4266:4809   */\n  pop\n  pop\n  pop\n  jump\t// out\n    /* \"#utility.yul\":4815:4932   */\ntag_37:\n    /* \"#utility.yul\":4869:4877   */\n  0x00\n    /* \"#utility.yul\":4919:4924   */\n  dup3\n    /* \"#utility.yul\":4913:4917   */\n  dup3\n    /* \"#utility.yul\":4909:4925   */\n  shr\n    /* \"#utility.yul\":4888:4925   */\n  swap1\n  pop\n    /* \"#utility.yul\":4815:4932   */\n  swap3\n  swap2\n  pop\n  pop\n  jump\t// out\n    /* \"#utility.yul\":4938:5107   */\ntag_38:\n    /* \"#utility.yul\":4982:4988   */\n  0x00\n    /* \"#utility.yul\":5015:5066   */\n  tag_101\n    /* \"#utility.yul\":5063:5064   */\n  0x00\n    /* \"#utility.yul\":5059:5065   */\n  not\n    /* \"#utility.yul\":5051:5056   */\n  dup5\n    /* \"#utility.yul\":5048:5049   */\n  0x08\n    /* \"#utility.yul\":5044:5057   */\n  mul\n    /* \"#utility.yul\":5015:5066   */\n  tag_37\n  jump\t// in\ntag_101:\n    /* \"#utility.yul\":5011:5067   */\n  not\n    /* \"#utility.yul\":5096:5100   */\n  dup1\n    /* \"#utility.yul\":5090:5094   */\n  dup4\n    /* \"#utility.yul\":5086:5101   */\n  and\n    /* \"#utility.yul\":5076:5101   */\n  swap2\n  pop\n    /* \"#utility.yul\":4989:5107   */\n  pop\n    /* \"#utility.yul\":4938:5107   */\n  swap3\n  swap2\n  pop\n  pop\n  jump\t// out\n    /* \"#utility.yul\":5112:5407   */\ntag_39:\n    /* \"#utility.yul\":5188:5192   */\n  0x00\n    /* \"#utility.yul\":5334:5363   */\n  tag_103\n    /* \"#utility.yul\":5359:5362   */\n  dup4\n    /* \"#utility.yul\":5353:5357   */\n  dup4\n    /* \"#utility.yul\":5334:5363   */\n  tag_38\n  jump\t// in\ntag_103:\n    /* \"#utility.yul\":5326:5363   */\n  swap2\n  pop\n    /* \"#utility.yul\":5396:5399   */\n  dup3\n    /* \"#utility.yul\":5393:5394   */\n  0x02\n    /* \"#utility.yul\":5389:5400   */\n  mul\n    /* \"#utility.yul\":5383:5387   */\n  dup3\n    /* \"#utility.yul\":5380:5401   */\n  or\n    /* \"#utility.yul\":5372:5401   */\n  swap1\n  pop\n    /* \"#utility.yul\":5112:5407   */\n  swap3\n  swap2\n  pop\n  pop\n  jump\t// out\n    /* \"#utility.yul\":5412:6807   */\ntag_8:\n    /* \"#utility.yul\":5529:5566   */\n  tag_105\n    /* \"#utility.yul\":5562:5565   */\n  dup3\n    /* \"#utility.yul\":5529:5566   */\n  tag_20\n  jump\t// in\ntag_105:\n    /* \"#utility.yul\":5631:5649   */\n  0xffffffffffffffff\n    /* \"#utility.yul\":5623:5629   */\n  dup2\n    /* \"#utility.yul\":5620:5650   */\n  gt\n    /* \"#utility.yul\":5617:5673   */\n  iszero\n  tag_106\n  jumpi\n    /* \"#utility.yul\":5653:5671   */\n  tag_107\n  tag_21\n  jump\t// in\ntag_107:\n    /* \"#utility.yul\":5617:5673   */\ntag_106:\n    /* \"#utility.yul\":5697:5735   */\n  tag_108\n    /* \"#utility.yul\":5729:5733   */\n  dup3\n    /* \"#utility.yul\":5723:5734   */\n  sload\n    /* \"#utility.yul\":5697:5735   */\n  tag_23\n  jump\t// in\ntag_108:\n    /* \"#utility.yul\":5782:5849   */\n  tag_109\n    /* \"#utility.yul\":5842:5848   */\n  dup3\n    /* \"#utility.yul\":5834:5840   */\n  dup3\n    /* \"#utility.yul\":5828:5832   */\n  dup6\n    /* \"#utility.yul\":5782:5849   */\n  tag_36\n  jump\t// in\ntag_109:\n    /* \"#utility.yul\":5876:5877   */\n  0x00\n    /* \"#utility.yul\":5900:5904   */\n  0x20\n    /* \"#utility.yul\":5887:5904   */\n  swap1\n  pop\n    /* \"#utility.yul\":5932:5934   */\n  0x1f\n    /* \"#utility.yul\":5924:5930   */\n  dup4\n    /* \"#utility.yul\":5921:5935   */\n  gt\n    /* \"#utility.yul\":5949:5950   */\n  0x01\n    /* \"#utility.yul\":5944:6562   */\n  dup2\n  eq\n  tag_111\n  jumpi\n    /* \"#utility.yul\":6606:6607   */\n  0x00\n    /* \"#utility.yul\":6623:6629   */\n  dup5\n    /* \"#utility.yul\":6620:6697   */\n  iszero\n  tag_112\n  jumpi\n    /* \"#utility.yul\":6672:6681   */\n  dup3\n    /* \"#utility.yul\":6667:6670   */\n  dup8\n    /* \"#utility.yul\":6663:6682   */\n  add\n    /* \"#utility.yul\":6657:6683   */\n  mload\n    /* \"#utility.yul\":6648:6683   */\n  swap1\n  pop\n    /* \"#utility.yul\":6620:6697   */\ntag_112:\n    /* \"#utility.yul\":6723:6790   */\n  tag_113\n    /* \"#utility.yul\":6783:6789   */\n  dup6\n    /* \"#utility.yul\":6776:6781   */\n  dup3\n    /* \"#utility.yul\":6723:6790   */\n  tag_39\n  jump\t// in\ntag_113:\n    /* \"#utility.yul\":6717:6721   */\n  dup7\n    /* \"#utility.yul\":6710:6791   */\n  sstore\n    /* \"#utility.yul\":6579:6801   */\n  pop\n    /* \"#utility.yul\":5914:6801   */\n  jump(tag_110)\n    /* \"#utility.yul\":5944:6562   */\ntag_111:\n    /* \"#utility.yul\":5996:6000   */\n  0x1f\n    /* \"#utility.yul\":5992:6001   */\n  not\n    /* \"#utility.yul\":5984:5990   */\n  dup5\n    /* \"#utility.yul\":5980:6002   */\n  and\n    /* \"#utility.yul\":6030:6067   */\n  tag_114\n    /* \"#utility.yul\":6062:6066   */\n  dup7\n    /* \"#utility.yul\":6030:6067   */\n  tag_24\n  jump\t// in\ntag_114:\n    /* \"#utility.yul\":6089:6090   */\n  0x00\n    /* \"#utility.yul\":6103:6311   */\ntag_115:\n    /* \"#utility.yul\":6117:6124   */\n  dup3\n    /* \"#utility.yul\":6114:6115   */\n  dup2\n    /* \"#utility.yul\":6111:6125   */\n  lt\n    /* \"#utility.yul\":6103:6311   */\n  iszero\n  tag_117\n  jumpi\n    /* \"#utility.yul\":6196:6205   */\n  dup5\n    /* \"#utility.yul\":6191:6194   */\n  dup10\n    /* \"#utility.yul\":6187:6206   */\n  add\n    /* \"#utility.yul\":6181:6207   */\n  mload\n    /* \"#utility.yul\":6173:6179   */\n  dup3\n    /* \"#utility.yul\":6166:6208   */\n  sstore\n    /* \"#utility.yul\":6247:6248   */\n  0x01\n    /* \"#utility.yul\":6239:6245   */\n  dup3\n    /* \"#utility.yul\":6235:6249   */\n  add\n    /* \"#utility.yul\":6225:6249   */\n  swap2\n  pop\n    /* \"#utility.yul\":6294:6296   */\n  0x20\n    /* \"#utility.yul\":6283:6292   */\n  dup6\n    /* \"#utility.yul\":6279:6297   */\n  add\n    /* \"#utility.yul\":6266:6297   */\n  swap5\n  pop\n    /* \"#utility.yul\":6140:6144   */\n  0x20\n    /* \"#utility.yul\":6137:6138   */\n  dup2\n    /* \"#utility.yul\":6133:6145   */\n  add\n    /* \"#utility.yul\":6128:6145   */\n  swap1\n  pop\n    /* \"#utility.yul\":6103:6311   */\n  jump(tag_115)\ntag_117:\n    /* \"#utility.yul\":6339:6345   */\n  dup7\n    /* \"#utility.yul\":6330:6337   */\n  dup4\n    /* \"#utility.yul\":6327:6346   */\n  lt\n    /* \"#utility.yul\":6324:6503   */\n  iszero\n  tag_118\n  jumpi\n    /* \"#utility.yul\":6397:6406   */\n  dup5\n    /* \"#utility.yul\":6392:6395   */\n  dup10\n    /* \"#utility.yul\":6388:6407   */\n  add\n    /* \"#utility.yul\":6382:6408   */\n  mload\n    /* \"#utility.yul\":6440:6488   */\n  tag_119\n    /* \"#utility.yul\":6482:6486   */\n  0x1f\n    /* \"#utility.yul\":6474:6480   */\n  dup10\n    /* \"#utility.yul\":6470:6487   */\n  and\n    /* \"#utility.yul\":6459:6468   */\n  dup3\n    /* \"#utility.yul\":6440:6488   */\n  tag_38\n  jump\t// in\ntag_119:\n    /* \"#utility.yul\":6432:6438   */\n  dup4\n    /* \"#utility.yul\":6425:6489   */\n  sstore\n    /* \"#utility.yul\":6347:6503   */\n  pop\n    /* \"#utility.yul\":6324:6503   */\ntag_118:\n    /* \"#utility.yul\":6549:6550   */\n  0x01\n    /* \"#utility.yul\":6545:6546   */\n  0x02\n    /* \"#utility.yul\":6537:6543   */\n  dup9\n    /* \"#utility.yul\":6533:6547   */\n  mul\n    /* \"#utility.yul\":6529:6551   */\n  add\n    /* \"#utility.yul\":6523:6527   */\n  dup9\n    /* \"#utility.yul\":6516:6552   */\n  sstore\n    /* \"#utility.yul\":5951:6562   */\n  pop\n  pop\n  pop\n    /* \"#utility.yul\":5914:6801   */\ntag_110:\n  pop\n    /* \"#utility.yul\":5504:6807   */\n  pop\n  pop\n  pop\n    /* \"#utility.yul\":5412:6807   */\n  pop\n  pop\n  jump\t// out\n    /* \"contracts/Dex/SimpleSwap.sol\":120:6512  contract SimpleSwap is ERC20 {... */\ntag_11:\n  dataSize(sub_0)\n  dup1\n  dataOffset(sub_0)\n  0x00\n  codecopy\n  0x00\n  return\nstop\n\nsub_0: assembly {\n        /* \"contracts/Dex/SimpleSwap.sol\":120:6512  contract SimpleSwap is ERC20 {... */\n      mstore(0x40, 0x80)\n      callvalue\n      dup1\n      iszero\n      tag_1\n      jumpi\n      0x00\n      dup1\n      revert\n    tag_1:\n      pop\n      jumpi(tag_2, lt(calldatasize, 0x04))\n      shr(0xe0, calldataload(0x00))\n      dup1\n      0x443cb4bc\n      gt\n      tag_20\n      jumpi\n      dup1\n      0x9c8f9f23\n      gt\n      tag_21\n      jumpi\n      dup1\n      0x9c8f9f23\n      eq\n      tag_15\n      jumpi\n      dup1\n      0x9cd441da\n      eq\n      tag_16\n      jumpi\n      dup1\n      0xa9059cbb\n      eq\n      tag_17\n      jumpi\n      dup1\n      0xd21220a7\n      eq\n      tag_18\n      jumpi\n      dup1\n      0xdd62ed3e\n      eq\n      tag_19\n      jumpi\n      jump(tag_2)\n    tag_21:\n      dup1\n      0x443cb4bc\n      eq\n      tag_11\n      jumpi\n      dup1\n      0x5a76f25e\n      eq\n      tag_12\n      jumpi\n      dup1\n      0x70a08231\n      eq\n      tag_13\n      jumpi\n      dup1\n      0x95d89b41\n      eq\n      tag_14\n      jumpi\n      jump(tag_2)\n    tag_20:\n      dup1\n      0x18160ddd\n      gt\n      tag_22\n      jumpi\n      dup1\n      0x18160ddd\n      eq\n      tag_7\n      jumpi\n      dup1\n      0x23b872dd\n      eq\n      tag_8\n      jumpi\n      dup1\n      0x313ce567\n      eq\n      tag_9\n      jumpi\n      dup1\n      0x43264349\n      eq\n      tag_10\n      jumpi\n      jump(tag_2)\n    tag_22:\n      dup1\n      0x054d50d4\n      eq\n      tag_3\n      jumpi\n      dup1\n      0x06fdde03\n      eq\n      tag_4\n      jumpi\n      dup1\n      0x095ea7b3\n      eq\n      tag_5\n      jumpi\n      dup1\n      0x0dfe1681\n      eq\n      tag_6\n      jumpi\n    tag_2:\n      0x00\n      dup1\n      revert\n        /* \"contracts/Dex/SimpleSwap.sol\":4457:4773  function getAmountOut(uint amountIn, uint reserveIn, uint reserveOut) public pure returns (uint amountOut) {... */\n    tag_3:\n      tag_23\n      0x04\n      dup1\n      calldatasize\n      sub\n      dup2\n      add\n      swap1\n      tag_24\n      swap2\n      swap1\n      tag_25\n      jump\t// in\n    tag_24:\n      tag_26\n      jump\t// in\n    tag_23:\n      mload(0x40)\n      tag_27\n      swap2\n      swap1\n      tag_28\n      jump\t// in\n    tag_27:\n      mload(0x40)\n      dup1\n      swap2\n      sub\n      swap1\n      return\n        /* \"@openzeppelin/contracts/token/ERC20/ERC20.sol\":1779:1868  function name() public view virtual returns (string memory) {... */\n    tag_4:\n      tag_29\n      tag_30\n      jump\t// in\n    tag_29:\n      mload(0x40)\n      tag_31\n      swap2\n      swap1\n      tag_32\n      jump\t// in\n    tag_31:\n      mload(0x40)\n      dup1\n      swap2\n      sub\n      swap1\n      return\n        /* \"@openzeppelin/contracts/token/ERC20/ERC20.sol\":3998:4184  function approve(address spender, uint256 value) public virtual returns (bool) {... */\n    tag_5:\n      tag_33\n      0x04\n      dup1\n      calldatasize\n      sub\n      dup2\n      add\n      swap1\n      tag_34\n      swap2\n      swap1\n      tag_35\n      jump\t// in\n    tag_34:\n      tag_36\n      jump\t// in\n    tag_33:\n      mload(0x40)\n      tag_37\n      swap2\n      swap1\n      tag_38\n      jump\t// in\n    tag_37:\n      mload(0x40)\n      dup1\n      swap2\n      sub\n      swap1\n      return\n        /* \"contracts/Dex/SimpleSwap.sol\":177:197  IERC20 public token0 */\n    tag_6:\n      tag_39\n      tag_40\n      jump\t// in\n    tag_39:\n      mload(0x40)\n      tag_41\n      swap2\n      swap1\n      tag_42\n      jump\t// in\n    tag_41:\n      mload(0x40)\n      dup1\n      swap2\n      sub\n      swap1\n      return\n        /* \"@openzeppelin/contracts/token/ERC20/ERC20.sol\":2849:2946  function totalSupply() public view virtual returns (uint256) {... */\n    tag_7:\n      tag_43\n      tag_44\n      jump\t// in\n    tag_43:\n      mload(0x40)\n      tag_45\n      swap2\n      swap1\n      tag_28\n      jump\t// in\n    tag_45:\n      mload(0x40)\n      dup1\n      swap2\n      sub\n      swap1\n      return\n        /* \"@openzeppelin/contracts/token/ERC20/ERC20.sol\":4776:5020  function transferFrom(address from, address to, uint256 value) public virtual returns (bool) {... */\n    tag_8:\n      tag_46\n      0x04\n      dup1\n      calldatasize\n      sub\n      dup2\n      add\n      swap1\n      tag_47\n      swap2\n      swap1\n      tag_48\n      jump\t// in\n    tag_47:\n      tag_49\n      jump\t// in\n    tag_46:\n      mload(0x40)\n      tag_50\n      swap2\n      swap1\n      tag_38\n      jump\t// in\n    tag_50:\n      mload(0x40)\n      dup1\n      swap2\n      sub\n      swap1\n      return\n        /* \"@openzeppelin/contracts/token/ERC20/ERC20.sol\":2707:2789  function decimals() public view virtual returns (uint8) {... */\n    tag_9:\n      tag_51\n      tag_52\n      jump\t// in\n    tag_51:\n      mload(0x40)\n      tag_53\n      swap2\n      swap1\n      tag_54\n      jump\t// in\n    tag_53:\n      mload(0x40)\n      dup1\n      swap2\n      sub\n      swap1\n      return\n        /* \"contracts/Dex/SimpleSwap.sol\":4977:6509  function swap(uint amountIn, IERC20 tokenIn, uint amountOutMin) external returns (uint amountOut, IERC20 tokenOut){... */\n    tag_10:\n      tag_55\n      0x04\n      dup1\n      calldatasize\n      sub\n      dup2\n      add\n      swap1\n      tag_56\n      swap2\n      swap1\n      tag_57\n      jump\t// in\n    tag_56:\n      tag_58\n      jump\t// in\n    tag_55:\n      mload(0x40)\n      tag_59\n      swap3\n      swap2\n      swap1\n      tag_60\n      jump\t// in\n    tag_59:\n      mload(0x40)\n      dup1\n      swap2\n      sub\n      swap1\n      return\n        /* \"contracts/Dex/SimpleSwap.sol\":257:277  uint public reserve0 */\n    tag_11:\n      tag_61\n      tag_62\n      jump\t// in\n    tag_61:\n      mload(0x40)\n      tag_63\n      swap2\n      swap1\n      tag_28\n      jump\t// in\n    tag_63:\n      mload(0x40)\n      dup1\n      swap2\n      sub\n      swap1\n      return\n        /* \"contracts/Dex/SimpleSwap.sol\":284:304  uint public reserve1 */\n    tag_12:\n      tag_64\n      tag_65\n      jump\t// in\n    tag_64:\n      mload(0x40)\n      tag_66\n      swap2\n      swap1\n      tag_28\n      jump\t// in\n    tag_66:\n      mload(0x40)\n      dup1\n      swap2\n      sub\n      swap1\n      return\n        /* \"@openzeppelin/contracts/token/ERC20/ERC20.sol\":3004:3120  function balanceOf(address account) public view virtual returns (uint256) {... */\n    tag_13:\n      tag_67\n      0x04\n      dup1\n      calldatasize\n      sub\n      dup2\n      add\n      swap1\n      tag_68\n      swap2\n      swap1\n      tag_69\n      jump\t// in\n    tag_68:\n      tag_70\n      jump\t// in\n    tag_67:\n      mload(0x40)\n      tag_71\n      swap2\n      swap1\n      tag_28\n      jump\t// in\n    tag_71:\n      mload(0x40)\n      dup1\n      swap2\n      sub\n      swap1\n      return\n        /* \"@openzeppelin/contracts/token/ERC20/ERC20.sol\":1981:2074  function symbol() public view virtual returns (string memory) {... */\n    tag_14:\n      tag_72\n      tag_73\n      jump\t// in\n    tag_72:\n      mload(0x40)\n      tag_74\n      swap2\n      swap1\n      tag_32\n      jump\t// in\n    tag_74:\n      mload(0x40)\n      dup1\n      swap2\n      sub\n      swap1\n      return\n        /* \"contracts/Dex/SimpleSwap.sol\":3227:4151  function removeLiquidity(uint liquidity) external returns (uint amount0, uint amount1) {... */\n    tag_15:\n      tag_75\n      0x04\n      dup1\n      calldatasize\n      sub\n      dup2\n      add\n      swap1\n      tag_76\n      swap2\n      swap1\n      tag_77\n      jump\t// in\n    tag_76:\n      tag_78\n      jump\t// in\n    tag_75:\n      mload(0x40)\n      tag_79\n      swap3\n      swap2\n      swap1\n      tag_80\n      jump\t// in\n    tag_79:\n      mload(0x40)\n      dup1\n      swap2\n      sub\n      swap1\n      return\n        /* \"contracts/Dex/SimpleSwap.sol\":1721:3057  function addLiquidity(uint amount0Desired, uint amount1Desired) public returns(uint liquidity){... */\n    tag_16:\n      tag_81\n      0x04\n      dup1\n      calldatasize\n      sub\n      dup2\n      add\n      swap1\n      tag_82\n      swap2\n      swap1\n      tag_83\n      jump\t// in\n    tag_82:\n      tag_84\n      jump\t// in\n    tag_81:\n      mload(0x40)\n      tag_85\n      swap2\n      swap1\n      tag_28\n      jump\t// in\n    tag_85:\n      mload(0x40)\n      dup1\n      swap2\n      sub\n      swap1\n      return\n        /* \"@openzeppelin/contracts/token/ERC20/ERC20.sol\":3315:3493  function transfer(address to, uint256 value) public virtual returns (bool) {... */\n    tag_17:\n      tag_86\n      0x04\n      dup1\n      calldatasize\n      sub\n      dup2\n      add\n      swap1\n      tag_87\n      swap2\n      swap1\n      tag_35\n      jump\t// in\n    tag_87:\n      tag_88\n      jump\t// in\n    tag_86:\n      mload(0x40)\n      tag_89\n      swap2\n      swap1\n      tag_38\n      jump\t// in\n    tag_89:\n      mload(0x40)\n      dup1\n      swap2\n      sub\n      swap1\n      return\n        /* \"contracts/Dex/SimpleSwap.sol\":204:224  IERC20 public token1 */\n    tag_18:\n      tag_90\n      tag_91\n      jump\t// in\n    tag_90:\n      mload(0x40)\n      tag_92\n      swap2\n      swap1\n      tag_42\n      jump\t// in\n    tag_92:\n      mload(0x40)\n      dup1\n      swap2\n      sub\n      swap1\n      return\n        /* \"@openzeppelin/contracts/token/ERC20/ERC20.sol\":3551:3691  function allowance(address owner, address spender) public view virtual returns (uint256) {... */\n    tag_19:\n      tag_93\n      0x04\n      dup1\n      calldatasize\n      sub\n      dup2\n      add\n      swap1\n      tag_94\n      swap2\n      swap1\n      tag_95\n      jump\t// in\n    tag_94:\n      tag_96\n      jump\t// in\n    tag_93:\n      mload(0x40)\n      tag_97\n      swap2\n      swap1\n      tag_28\n      jump\t// in\n    tag_97:\n      mload(0x40)\n      dup1\n      swap2\n      sub\n      swap1\n      return\n        /* \"contracts/Dex/SimpleSwap.sol\":4457:4773  function getAmountOut(uint amountIn, uint reserveIn, uint reserveOut) public pure returns (uint amountOut) {... */\n    tag_26:\n        /* \"contracts/Dex/SimpleSwap.sol\":4548:4562  uint amountOut */\n      0x00\n        /* \"contracts/Dex/SimpleSwap.sol\":4594:4595  0 */\n      dup1\n        /* \"contracts/Dex/SimpleSwap.sol\":4583:4591  amountIn */\n      dup5\n        /* \"contracts/Dex/SimpleSwap.sol\":4583:4595  amountIn > 0 */\n      gt\n        /* \"contracts/Dex/SimpleSwap.sol\":4575:4619  require(amountIn > 0, 'INSUFFICIENT_AMOUNT') */\n      tag_99\n      jumpi\n      mload(0x40)\n      0x08c379a000000000000000000000000000000000000000000000000000000000\n      dup2\n      mstore\n      0x04\n      add\n      tag_100\n      swap1\n      tag_101\n      jump\t// in\n    tag_100:\n      mload(0x40)\n      dup1\n      swap2\n      sub\n      swap1\n      revert\n    tag_99:\n        /* \"contracts/Dex/SimpleSwap.sol\":4650:4651  0 */\n      0x00\n        /* \"contracts/Dex/SimpleSwap.sol\":4638:4647  reserveIn */\n      dup4\n        /* \"contracts/Dex/SimpleSwap.sol\":4638:4651  reserveIn > 0 */\n      gt\n        /* \"contracts/Dex/SimpleSwap.sol\":4638:4669  reserveIn > 0 && reserveOut > 0 */\n      dup1\n      iszero\n      tag_102\n      jumpi\n      pop\n        /* \"contracts/Dex/SimpleSwap.sol\":4668:4669  0 */\n      0x00\n        /* \"contracts/Dex/SimpleSwap.sol\":4655:4665  reserveOut */\n      dup3\n        /* \"contracts/Dex/SimpleSwap.sol\":4655:4669  reserveOut > 0 */\n      gt\n        /* \"contracts/Dex/SimpleSwap.sol\":4638:4669  reserveIn > 0 && reserveOut > 0 */\n    tag_102:\n        /* \"contracts/Dex/SimpleSwap.sol\":4630:4696  require(reserveIn > 0 && reserveOut > 0, 'INSUFFICIENT_LIQUIDITY') */\n      tag_103\n      jumpi\n      mload(0x40)\n      0x08c379a000000000000000000000000000000000000000000000000000000000\n      dup2\n      mstore\n      0x04\n      add\n      tag_104\n      swap1\n      tag_105\n      jump\t// in\n    tag_104:\n      mload(0x40)\n      dup1\n      swap2\n      sub\n      swap1\n      revert\n    tag_103:\n        /* \"contracts/Dex/SimpleSwap.sol\":4756:4764  amountIn */\n      dup4\n        /* \"contracts/Dex/SimpleSwap.sol\":4744:4753  reserveIn */\n      dup4\n        /* \"contracts/Dex/SimpleSwap.sol\":4744:4764  reserveIn + amountIn */\n      tag_106\n      swap2\n      swap1\n      tag_107\n      jump\t// in\n    tag_106:\n        /* \"contracts/Dex/SimpleSwap.sol\":4730:4740  reserveOut */\n      dup3\n        /* \"contracts/Dex/SimpleSwap.sol\":4719:4727  amountIn */\n      dup6\n        /* \"contracts/Dex/SimpleSwap.sol\":4719:4740  amountIn * reserveOut */\n      tag_108\n      swap2\n      swap1\n      tag_109\n      jump\t// in\n    tag_108:\n        /* \"contracts/Dex/SimpleSwap.sol\":4719:4765  amountIn * reserveOut / (reserveIn + amountIn) */\n      tag_110\n      swap2\n      swap1\n      tag_111\n      jump\t// in\n    tag_110:\n        /* \"contracts/Dex/SimpleSwap.sol\":4707:4765  amountOut = amountIn * reserveOut / (reserveIn + amountIn) */\n      swap1\n      pop\n        /* \"contracts/Dex/SimpleSwap.sol\":4457:4773  function getAmountOut(uint amountIn, uint reserveIn, uint reserveOut) public pure returns (uint amountOut) {... */\n      swap4\n      swap3\n      pop\n      pop\n      pop\n      jump\t// out\n        /* \"@openzeppelin/contracts/token/ERC20/ERC20.sol\":1779:1868  function name() public view virtual returns (string memory) {... */\n    tag_30:\n        /* \"@openzeppelin/contracts/token/ERC20/ERC20.sol\":1824:1837  string memory */\n      0x60\n        /* \"@openzeppelin/contracts/token/ERC20/ERC20.sol\":1856:1861  _name */\n      0x03\n        /* \"@openzeppelin/contracts/token/ERC20/ERC20.sol\":1849:1861  return _name */\n      dup1\n      sload\n      tag_113\n      swap1\n      tag_114\n      jump\t// in\n    tag_113:\n      dup1\n      0x1f\n      add\n      0x20\n      dup1\n      swap2\n      div\n      mul\n      0x20\n      add\n      mload(0x40)\n      swap1\n      dup2\n      add\n      0x40\n      mstore\n      dup1\n      swap3\n      swap2\n      swap1\n      dup2\n      dup2\n      mstore\n      0x20\n      add\n      dup3\n      dup1\n      sload\n      tag_115\n      swap1\n      tag_114\n      jump\t// in\n    tag_115:\n      dup1\n      iszero\n      tag_116\n      jumpi\n      dup1\n      0x1f\n      lt\n      tag_117\n      jumpi\n      0x0100\n      dup1\n      dup4\n      sload\n      div\n      mul\n      dup4\n      mstore\n      swap2\n      0x20\n      add\n      swap2\n      jump(tag_116)\n    tag_117:\n      dup3\n      add\n      swap2\n      swap1\n      0x00\n      mstore\n      keccak256(0x00, 0x20)\n      swap1\n    tag_118:\n      dup2\n      sload\n      dup2\n      mstore\n      swap1\n      0x01\n      add\n      swap1\n      0x20\n      add\n      dup1\n      dup4\n      gt\n      tag_118\n      jumpi\n      dup3\n      swap1\n      sub\n      0x1f\n      and\n      dup3\n      add\n      swap2\n    tag_116:\n      pop\n      pop\n      pop\n      pop\n      pop\n      swap1\n      pop\n        /* \"@openzeppelin/contracts/token/ERC20/ERC20.sol\":1779:1868  function name() public view virtual returns (string memory) {... */\n      swap1\n      jump\t// out\n        /* \"@openzeppelin/contracts/token/ERC20/ERC20.sol\":3998:4184  function approve(address spender, uint256 value) public virtual returns (bool) {... */\n    tag_36:\n        /* \"@openzeppelin/contracts/token/ERC20/ERC20.sol\":4071:4075  bool */\n      0x00\n        /* \"@openzeppelin/contracts/token/ERC20/ERC20.sol\":4087:4100  address owner */\n      dup1\n        /* \"@openzeppelin/contracts/token/ERC20/ERC20.sol\":4103:4115  _msgSender() */\n      tag_120\n        /* \"@openzeppelin/contracts/token/ERC20/ERC20.sol\":4103:4113  _msgSender */\n      tag_121\n        /* \"@openzeppelin/contracts/token/ERC20/ERC20.sol\":4103:4115  _msgSender() */\n      jump\t// in\n    tag_120:\n        /* \"@openzeppelin/contracts/token/ERC20/ERC20.sol\":4087:4115  address owner = _msgSender() */\n      swap1\n      pop\n        /* \"@openzeppelin/contracts/token/ERC20/ERC20.sol\":4125:4156  _approve(owner, spender, value) */\n      tag_122\n        /* \"@openzeppelin/contracts/token/ERC20/ERC20.sol\":4134:4139  owner */\n      dup2\n        /* \"@openzeppelin/contracts/token/ERC20/ERC20.sol\":4141:4148  spender */\n      dup6\n        /* \"@openzeppelin/contracts/token/ERC20/ERC20.sol\":4150:4155  value */\n      dup6\n        /* \"@openzeppelin/contracts/token/ERC20/ERC20.sol\":4125:4133  _approve */\n      tag_123\n        /* \"@openzeppelin/contracts/token/ERC20/ERC20.sol\":4125:4156  _approve(owner, spender, value) */\n      jump\t// in\n    tag_122:\n        /* \"@openzeppelin/contracts/token/ERC20/ERC20.sol\":4173:4177  true */\n      0x01\n        /* \"@openzeppelin/contracts/token/ERC20/ERC20.sol\":4166:4177  return true */\n      swap2\n      pop\n      pop\n        /* \"@openzeppelin/contracts/token/ERC20/ERC20.sol\":3998:4184  function approve(address spender, uint256 value) public virtual returns (bool) {... */\n      swap3\n      swap2\n      pop\n      pop\n      jump\t// out\n        /* \"contracts/Dex/SimpleSwap.sol\":177:197  IERC20 public token0 */\n    tag_40:\n      0x05\n      0x00\n      swap1\n      sload\n      swap1\n      0x0100\n      exp\n      swap1\n      div\n      0xffffffffffffffffffffffffffffffffffffffff\n      and\n      dup2\n      jump\t// out\n        /* \"@openzeppelin/contracts/token/ERC20/ERC20.sol\":2849:2946  function totalSupply() public view virtual returns (uint256) {... */\n    tag_44:\n        /* \"@openzeppelin/contracts/token/ERC20/ERC20.sol\":2901:2908  uint256 */\n      0x00\n        /* \"@openzeppelin/contracts/token/ERC20/ERC20.sol\":2927:2939  _totalSupply */\n      sload(0x02)\n        /* \"@openzeppelin/contracts/token/ERC20/ERC20.sol\":2920:2939  return _totalSupply */\n      swap1\n      pop\n        /* \"@openzeppelin/contracts/token/ERC20/ERC20.sol\":2849:2946  function totalSupply() public view virtual returns (uint256) {... */\n      swap1\n      jump\t// out\n        /* \"@openzeppelin/contracts/token/ERC20/ERC20.sol\":4776:5020  function transferFrom(address from, address to, uint256 value) public virtual returns (bool) {... */\n    tag_49:\n        /* \"@openzeppelin/contracts/token/ERC20/ERC20.sol\":4863:4867  bool */\n      0x00\n        /* \"@openzeppelin/contracts/token/ERC20/ERC20.sol\":4879:4894  address spender */\n      dup1\n        /* \"@openzeppelin/contracts/token/ERC20/ERC20.sol\":4897:4909  _msgSender() */\n      tag_126\n        /* \"@openzeppelin/contracts/token/ERC20/ERC20.sol\":4897:4907  _msgSender */\n      tag_121\n        /* \"@openzeppelin/contracts/token/ERC20/ERC20.sol\":4897:4909  _msgSender() */\n      jump\t// in\n    tag_126:\n        /* \"@openzeppelin/contracts/token/ERC20/ERC20.sol\":4879:4909  address spender = _msgSender() */\n      swap1\n      pop\n        /* \"@openzeppelin/contracts/token/ERC20/ERC20.sol\":4919:4956  _spendAllowance(from, spender, value) */\n      tag_127\n        /* \"@openzeppelin/contracts/token/ERC20/ERC20.sol\":4935:4939  from */\n      dup6\n        /* \"@openzeppelin/contracts/token/ERC20/ERC20.sol\":4941:4948  spender */\n      dup3\n        /* \"@openzeppelin/contracts/token/ERC20/ERC20.sol\":4950:4955  value */\n      dup6\n        /* \"@openzeppelin/contracts/token/ERC20/ERC20.sol\":4919:4934  _spendAllowance */\n      tag_128\n        /* \"@openzeppelin/contracts/token/ERC20/ERC20.sol\":4919:4956  _spendAllowance(from, spender, value) */\n      jump\t// in\n    tag_127:\n        /* \"@openzeppelin/contracts/token/ERC20/ERC20.sol\":4966:4992  _transfer(from, to, value) */\n      tag_129\n        /* \"@openzeppelin/contracts/token/ERC20/ERC20.sol\":4976:4980  from */\n      dup6\n        /* \"@openzeppelin/contracts/token/ERC20/ERC20.sol\":4982:4984  to */\n      dup6\n        /* \"@openzeppelin/contracts/token/ERC20/ERC20.sol\":4986:4991  value */\n      dup6\n        /* \"@openzeppelin/contracts/token/ERC20/ERC20.sol\":4966:4975  _transfer */\n      tag_130\n        /* \"@openzeppelin/contracts/token/ERC20/ERC20.sol\":4966:4992  _transfer(from, to, value) */\n      jump\t// in\n    tag_129:\n        /* \"@openzeppelin/contracts/token/ERC20/ERC20.sol\":5009:5013  true */\n      0x01\n        /* \"@openzeppelin/contracts/token/ERC20/ERC20.sol\":5002:5013  return true */\n      swap2\n      pop\n      pop\n        /* \"@openzeppelin/contracts/token/ERC20/ERC20.sol\":4776:5020  function transferFrom(address from, address to, uint256 value) public virtual returns (bool) {... */\n      swap4\n      swap3\n      pop\n      pop\n      pop\n      jump\t// out\n        /* \"@openzeppelin/contracts/token/ERC20/ERC20.sol\":2707:2789  function decimals() public view virtual returns (uint8) {... */\n    tag_52:\n        /* \"@openzeppelin/contracts/token/ERC20/ERC20.sol\":2756:2761  uint8 */\n      0x00\n        /* \"@openzeppelin/contracts/token/ERC20/ERC20.sol\":2780:2782  18 */\n      0x12\n        /* \"@openzeppelin/contracts/token/ERC20/ERC20.sol\":2773:2782  return 18 */\n      swap1\n      pop\n        /* \"@openzeppelin/contracts/token/ERC20/ERC20.sol\":2707:2789  function decimals() public view virtual returns (uint8) {... */\n      swap1\n      jump\t// out\n        /* \"contracts/Dex/SimpleSwap.sol\":4977:6509  function swap(uint amountIn, IERC20 tokenIn, uint amountOutMin) external returns (uint amountOut, IERC20 tokenOut){... */\n    tag_58:\n        /* \"contracts/Dex/SimpleSwap.sol\":5059:5073  uint amountOut */\n      0x00\n        /* \"contracts/Dex/SimpleSwap.sol\":5075:5090  IERC20 tokenOut */\n      dup1\n        /* \"contracts/Dex/SimpleSwap.sol\":5121:5122  0 */\n      0x00\n        /* \"contracts/Dex/SimpleSwap.sol\":5110:5118  amountIn */\n      dup6\n        /* \"contracts/Dex/SimpleSwap.sol\":5110:5122  amountIn > 0 */\n      gt\n        /* \"contracts/Dex/SimpleSwap.sol\":5102:5153  require(amountIn > 0, 'INSUFFICIENT_OUTPUT_AMOUNT') */\n      tag_133\n      jumpi\n      mload(0x40)\n      0x08c379a000000000000000000000000000000000000000000000000000000000\n      dup2\n      mstore\n      0x04\n      add\n      tag_134\n      swap1\n      tag_135\n      jump\t// in\n    tag_134:\n      mload(0x40)\n      dup1\n      swap2\n      sub\n      swap1\n      revert\n    tag_133:\n        /* \"contracts/Dex/SimpleSwap.sol\":5183:5189  token0 */\n      0x05\n      0x00\n      swap1\n      sload\n      swap1\n      0x0100\n      exp\n      swap1\n      div\n      0xffffffffffffffffffffffffffffffffffffffff\n      and\n        /* \"contracts/Dex/SimpleSwap.sol\":5172:5189  tokenIn == token0 */\n      0xffffffffffffffffffffffffffffffffffffffff\n      and\n        /* \"contracts/Dex/SimpleSwap.sol\":5172:5179  tokenIn */\n      dup5\n        /* \"contracts/Dex/SimpleSwap.sol\":5172:5189  tokenIn == token0 */\n      0xffffffffffffffffffffffffffffffffffffffff\n      and\n      eq\n        /* \"contracts/Dex/SimpleSwap.sol\":5172:5210  tokenIn == token0 || tokenIn == token1 */\n      dup1\n      tag_136\n      jumpi\n      pop\n        /* \"contracts/Dex/SimpleSwap.sol\":5204:5210  token1 */\n      0x06\n      0x00\n      swap1\n      sload\n      swap1\n      0x0100\n      exp\n      swap1\n      div\n      0xffffffffffffffffffffffffffffffffffffffff\n      and\n        /* \"contracts/Dex/SimpleSwap.sol\":5193:5210  tokenIn == token1 */\n      0xffffffffffffffffffffffffffffffffffffffff\n      and\n        /* \"contracts/Dex/SimpleSwap.sol\":5193:5200  tokenIn */\n      dup5\n        /* \"contracts/Dex/SimpleSwap.sol\":5193:5210  tokenIn == token1 */\n      0xffffffffffffffffffffffffffffffffffffffff\n      and\n      eq\n        /* \"contracts/Dex/SimpleSwap.sol\":5172:5210  tokenIn == token0 || tokenIn == token1 */\n    tag_136:\n        /* \"contracts/Dex/SimpleSwap.sol\":5164:5228  require(tokenIn == token0 || tokenIn == token1, 'INVALID_TOKEN') */\n      tag_137\n      jumpi\n      mload(0x40)\n      0x08c379a000000000000000000000000000000000000000000000000000000000\n      dup2\n      mstore\n      0x04\n      add\n      tag_138\n      swap1\n      tag_139\n      jump\t// in\n    tag_138:\n      mload(0x40)\n      dup1\n      swap2\n      sub\n      swap1\n      revert\n    tag_137:\n        /* \"contracts/Dex/SimpleSwap.sol\":5249:5262  uint balance0 */\n      0x00\n        /* \"contracts/Dex/SimpleSwap.sol\":5265:5271  token0 */\n      0x05\n      0x00\n      swap1\n      sload\n      swap1\n      0x0100\n      exp\n      swap1\n      div\n      0xffffffffffffffffffffffffffffffffffffffff\n      and\n        /* \"contracts/Dex/SimpleSwap.sol\":5265:5281  token0.balanceOf */\n      0xffffffffffffffffffffffffffffffffffffffff\n      and\n      0x70a08231\n        /* \"contracts/Dex/SimpleSwap.sol\":5290:5294  this */\n      address\n        /* \"contracts/Dex/SimpleSwap.sol\":5265:5296  token0.balanceOf(address(this)) */\n      mload(0x40)\n      dup3\n      0xffffffff\n      and\n      0xe0\n      shl\n      dup2\n      mstore\n      0x04\n      add\n      tag_140\n      swap2\n      swap1\n      tag_141\n      jump\t// in\n    tag_140:\n      0x20\n      mload(0x40)\n      dup1\n      dup4\n      sub\n      dup2\n      dup7\n      gas\n      staticcall\n      iszero\n      dup1\n      iszero\n      tag_143\n      jumpi\n      returndatasize\n      0x00\n      dup1\n      returndatacopy\n      revert(0x00, returndatasize)\n    tag_143:\n      pop\n      pop\n      pop\n      pop\n      mload(0x40)\n      returndatasize\n      not(0x1f)\n      0x1f\n      dup3\n      add\n      and\n      dup3\n      add\n      dup1\n      0x40\n      mstore\n      pop\n      dup2\n      add\n      swap1\n      tag_144\n      swap2\n      swap1\n      tag_145\n      jump\t// in\n    tag_144:\n        /* \"contracts/Dex/SimpleSwap.sol\":5249:5296  uint balance0 = token0.balanceOf(address(this)) */\n      swap1\n      pop\n        /* \"contracts/Dex/SimpleSwap.sol\":5307:5320  uint balance1 */\n      0x00\n        /* \"contracts/Dex/SimpleSwap.sol\":5323:5329  token1 */\n      0x06\n      0x00\n      swap1\n      sload\n      swap1\n      0x0100\n      exp\n      swap1\n      div\n      0xffffffffffffffffffffffffffffffffffffffff\n      and\n        /* \"contracts/Dex/SimpleSwap.sol\":5323:5339  token1.balanceOf */\n      0xffffffffffffffffffffffffffffffffffffffff\n      and\n      0x70a08231\n        /* \"contracts/Dex/SimpleSwap.sol\":5348:5352  this */\n      address\n        /* \"contracts/Dex/SimpleSwap.sol\":5323:5354  token1.balanceOf(address(this)) */\n      mload(0x40)\n      dup3\n      0xffffffff\n      and\n      0xe0\n      shl\n      dup2\n      mstore\n      0x04\n      add\n      tag_146\n      swap2\n      swap1\n      tag_141\n      jump\t// in\n    tag_146:\n      0x20\n      mload(0x40)\n      dup1\n      dup4\n      sub\n      dup2\n      dup7\n      gas\n      staticcall\n      iszero\n      dup1\n      iszero\n      tag_148\n      jumpi\n      returndatasize\n      0x00\n      dup1\n      returndatacopy\n      revert(0x00, returndatasize)\n    tag_148:\n      pop\n      pop\n      pop\n      pop\n      mload(0x40)\n      returndatasize\n      not(0x1f)\n      0x1f\n      dup3\n      add\n      and\n      dup3\n      add\n      dup1\n      0x40\n      mstore\n      pop\n      dup2\n      add\n      swap1\n      tag_149\n      swap2\n      swap1\n      tag_145\n      jump\t// in\n    tag_149:\n        /* \"contracts/Dex/SimpleSwap.sol\":5307:5354  uint balance1 = token1.balanceOf(address(this)) */\n      swap1\n      pop\n        /* \"contracts/Dex/SimpleSwap.sol\":5381:5387  token0 */\n      0x05\n      0x00\n      swap1\n      sload\n      swap1\n      0x0100\n      exp\n      swap1\n      div\n      0xffffffffffffffffffffffffffffffffffffffff\n      and\n        /* \"contracts/Dex/SimpleSwap.sol\":5370:5387  tokenIn == token0 */\n      0xffffffffffffffffffffffffffffffffffffffff\n      and\n        /* \"contracts/Dex/SimpleSwap.sol\":5370:5377  tokenIn */\n      dup7\n        /* \"contracts/Dex/SimpleSwap.sol\":5370:5387  tokenIn == token0 */\n      0xffffffffffffffffffffffffffffffffffffffff\n      and\n      sub\n        /* \"contracts/Dex/SimpleSwap.sol\":5367:6274  if(tokenIn == token0){... */\n      tag_150\n      jumpi\n        /* \"contracts/Dex/SimpleSwap.sol\":5458:5464  token1 */\n      0x06\n      0x00\n      swap1\n      sload\n      swap1\n      0x0100\n      exp\n      swap1\n      div\n      0xffffffffffffffffffffffffffffffffffffffff\n      and\n        /* \"contracts/Dex/SimpleSwap.sol\":5447:5464  tokenOut = token1 */\n      swap3\n      pop\n        /* \"contracts/Dex/SimpleSwap.sol\":5541:5583  getAmountOut(amountIn, balance0, balance1) */\n      tag_151\n        /* \"contracts/Dex/SimpleSwap.sol\":5554:5562  amountIn */\n      dup8\n        /* \"contracts/Dex/SimpleSwap.sol\":5564:5572  balance0 */\n      dup4\n        /* \"contracts/Dex/SimpleSwap.sol\":5574:5582  balance1 */\n      dup4\n        /* \"contracts/Dex/SimpleSwap.sol\":5541:5553  getAmountOut */\n      tag_26\n        /* \"contracts/Dex/SimpleSwap.sol\":5541:5583  getAmountOut(amountIn, balance0, balance1) */\n      jump\t// in\n    tag_151:\n        /* \"contracts/Dex/SimpleSwap.sol\":5529:5583  amountOut = getAmountOut(amountIn, balance0, balance1) */\n      swap4\n      pop\n        /* \"contracts/Dex/SimpleSwap.sol\":5618:5630  amountOutMin */\n      dup5\n        /* \"contracts/Dex/SimpleSwap.sol\":5606:5615  amountOut */\n      dup5\n        /* \"contracts/Dex/SimpleSwap.sol\":5606:5630  amountOut > amountOutMin */\n      gt\n        /* \"contracts/Dex/SimpleSwap.sol\":5598:5661  require(amountOut > amountOutMin, 'INSUFFICIENT_OUTPUT_AMOUNT') */\n      tag_152\n      jumpi\n      mload(0x40)\n      0x08c379a000000000000000000000000000000000000000000000000000000000\n      dup2\n      mstore\n      0x04\n      add\n      tag_153\n      swap1\n      tag_135\n      jump\t// in\n    tag_153:\n      mload(0x40)\n      dup1\n      swap2\n      sub\n      swap1\n      revert\n    tag_152:\n        /* \"contracts/Dex/SimpleSwap.sol\":5705:5712  tokenIn */\n      dup6\n        /* \"contracts/Dex/SimpleSwap.sol\":5705:5725  tokenIn.transferFrom */\n      0xffffffffffffffffffffffffffffffffffffffff\n      and\n      0x23b872dd\n        /* \"contracts/Dex/SimpleSwap.sol\":5726:5736  msg.sender */\n      caller\n        /* \"contracts/Dex/SimpleSwap.sol\":5746:5750  this */\n      address\n        /* \"contracts/Dex/SimpleSwap.sol\":5753:5761  amountIn */\n      dup11\n        /* \"contracts/Dex/SimpleSwap.sol\":5705:5762  tokenIn.transferFrom(msg.sender, address(this), amountIn) */\n      mload(0x40)\n      dup5\n      0xffffffff\n      and\n      0xe0\n      shl\n      dup2\n      mstore\n      0x04\n      add\n      tag_154\n      swap4\n      swap3\n      swap2\n      swap1\n      tag_155\n      jump\t// in\n    tag_154:\n      0x20\n      mload(0x40)\n      dup1\n      dup4\n      sub\n      dup2\n      0x00\n      dup8\n      gas\n      call\n      iszero\n      dup1\n      iszero\n      tag_157\n      jumpi\n      returndatasize\n      0x00\n      dup1\n      returndatacopy\n      revert(0x00, returndatasize)\n    tag_157:\n      pop\n      pop\n      pop\n      pop\n      mload(0x40)\n      returndatasize\n      not(0x1f)\n      0x1f\n      dup3\n      add\n      and\n      dup3\n      add\n      dup1\n      0x40\n      mstore\n      pop\n      dup2\n      add\n      swap1\n      tag_158\n      swap2\n      swap1\n      tag_159\n      jump\t// in\n    tag_158:\n      pop\n        /* \"contracts/Dex/SimpleSwap.sol\":5777:5785  tokenOut */\n      dup3\n        /* \"contracts/Dex/SimpleSwap.sol\":5777:5794  tokenOut.transfer */\n      0xffffffffffffffffffffffffffffffffffffffff\n      and\n      0xa9059cbb\n        /* \"contracts/Dex/SimpleSwap.sol\":5795:5805  msg.sender */\n      caller\n        /* \"contracts/Dex/SimpleSwap.sol\":5807:5816  amountOut */\n      dup7\n        /* \"contracts/Dex/SimpleSwap.sol\":5777:5817  tokenOut.transfer(msg.sender, amountOut) */\n      mload(0x40)\n      dup4\n      0xffffffff\n      and\n      0xe0\n      shl\n      dup2\n      mstore\n      0x04\n      add\n      tag_160\n      swap3\n      swap2\n      swap1\n      tag_161\n      jump\t// in\n    tag_160:\n      0x20\n      mload(0x40)\n      dup1\n      dup4\n      sub\n      dup2\n      0x00\n      dup8\n      gas\n      call\n      iszero\n      dup1\n      iszero\n      tag_163\n      jumpi\n      returndatasize\n      0x00\n      dup1\n      returndatacopy\n      revert(0x00, returndatasize)\n    tag_163:\n      pop\n      pop\n      pop\n      pop\n      mload(0x40)\n      returndatasize\n      not(0x1f)\n      0x1f\n      dup3\n      add\n      and\n      dup3\n      add\n      dup1\n      0x40\n      mstore\n      pop\n      dup2\n      add\n      swap1\n      tag_164\n      swap2\n      swap1\n      tag_159\n      jump\t// in\n    tag_164:\n      pop\n        /* \"contracts/Dex/SimpleSwap.sol\":5367:6274  if(tokenIn == token0){... */\n      jump(tag_165)\n    tag_150:\n        /* \"contracts/Dex/SimpleSwap.sol\":5903:5909  token0 */\n      0x05\n      0x00\n      swap1\n      sload\n      swap1\n      0x0100\n      exp\n      swap1\n      div\n      0xffffffffffffffffffffffffffffffffffffffff\n      and\n        /* \"contracts/Dex/SimpleSwap.sol\":5892:5909  tokenOut = token0 */\n      swap3\n      pop\n        /* \"contracts/Dex/SimpleSwap.sol\":5986:6028  getAmountOut(amountIn, balance1, balance0) */\n      tag_166\n        /* \"contracts/Dex/SimpleSwap.sol\":5999:6007  amountIn */\n      dup8\n        /* \"contracts/Dex/SimpleSwap.sol\":6009:6017  balance1 */\n      dup3\n        /* \"contracts/Dex/SimpleSwap.sol\":6019:6027  balance0 */\n      dup5\n        /* \"contracts/Dex/SimpleSwap.sol\":5986:5998  getAmountOut */\n      tag_26\n        /* \"contracts/Dex/SimpleSwap.sol\":5986:6028  getAmountOut(amountIn, balance1, balance0) */\n      jump\t// in\n    tag_166:\n        /* \"contracts/Dex/SimpleSwap.sol\":5974:6028  amountOut = getAmountOut(amountIn, balance1, balance0) */\n      swap4\n      pop\n        /* \"contracts/Dex/SimpleSwap.sol\":6063:6075  amountOutMin */\n      dup5\n        /* \"contracts/Dex/SimpleSwap.sol\":6051:6060  amountOut */\n      dup5\n        /* \"contracts/Dex/SimpleSwap.sol\":6051:6075  amountOut > amountOutMin */\n      gt\n        /* \"contracts/Dex/SimpleSwap.sol\":6043:6106  require(amountOut > amountOutMin, 'INSUFFICIENT_OUTPUT_AMOUNT') */\n      tag_167\n      jumpi\n      mload(0x40)\n      0x08c379a000000000000000000000000000000000000000000000000000000000\n      dup2\n      mstore\n      0x04\n      add\n      tag_168\n      swap1\n      tag_135\n      jump\t// in\n    tag_168:\n      mload(0x40)\n      dup1\n      swap2\n      sub\n      swap1\n      revert\n    tag_167:\n        /* \"contracts/Dex/SimpleSwap.sol\":6150:6157  tokenIn */\n      dup6\n        /* \"contracts/Dex/SimpleSwap.sol\":6150:6170  tokenIn.transferFrom */\n      0xffffffffffffffffffffffffffffffffffffffff\n      and\n      0x23b872dd\n        /* \"contracts/Dex/SimpleSwap.sol\":6171:6181  msg.sender */\n      caller\n        /* \"contracts/Dex/SimpleSwap.sol\":6191:6195  this */\n      address\n        /* \"contracts/Dex/SimpleSwap.sol\":6198:6206  amountIn */\n      dup11\n        /* \"contracts/Dex/SimpleSwap.sol\":6150:6207  tokenIn.transferFrom(msg.sender, address(this), amountIn) */\n      mload(0x40)\n      dup5\n      0xffffffff\n      and\n      0xe0\n      shl\n      dup2\n      mstore\n      0x04\n      add\n      tag_169\n      swap4\n      swap3\n      swap2\n      swap1\n      tag_155\n      jump\t// in\n    tag_169:\n      0x20\n      mload(0x40)\n      dup1\n      dup4\n      sub\n      dup2\n      0x00\n      dup8\n      gas\n      call\n      iszero\n      dup1\n      iszero\n      tag_171\n      jumpi\n      returndatasize\n      0x00\n      dup1\n      returndatacopy\n      revert(0x00, returndatasize)\n    tag_171:\n      pop\n      pop\n      pop\n      pop\n      mload(0x40)\n      returndatasize\n      not(0x1f)\n      0x1f\n      dup3\n      add\n      and\n      dup3\n      add\n      dup1\n      0x40\n      mstore\n      pop\n      dup2\n      add\n      swap1\n      tag_172\n      swap2\n      swap1\n      tag_159\n      jump\t// in\n    tag_172:\n      pop\n        /* \"contracts/Dex/SimpleSwap.sol\":6222:6230  tokenOut */\n      dup3\n        /* \"contracts/Dex/SimpleSwap.sol\":6222:6239  tokenOut.transfer */\n      0xffffffffffffffffffffffffffffffffffffffff\n      and\n      0xa9059cbb\n        /* \"contracts/Dex/SimpleSwap.sol\":6240:6250  msg.sender */\n      caller\n        /* \"contracts/Dex/SimpleSwap.sol\":6252:6261  amountOut */\n      dup7\n        /* \"contracts/Dex/SimpleSwap.sol\":6222:6262  tokenOut.transfer(msg.sender, amountOut) */\n      mload(0x40)\n      dup4\n      0xffffffff\n      and\n      0xe0\n      shl\n      dup2\n      mstore\n      0x04\n      add\n      tag_173\n      swap3\n      swap2\n      swap1\n      tag_161\n      jump\t// in\n    tag_173:\n      0x20\n      mload(0x40)\n      dup1\n      dup4\n      sub\n      dup2\n      0x00\n      dup8\n      gas\n      call\n      iszero\n      dup1\n      iszero\n      tag_175\n      jumpi\n      returndatasize\n      0x00\n      dup1\n      returndatacopy\n      revert(0x00, returndatasize)\n    tag_175:\n      pop\n      pop\n      pop\n      pop\n      mload(0x40)\n      returndatasize\n      not(0x1f)\n      0x1f\n      dup3\n      add\n      and\n      dup3\n      add\n      dup1\n      0x40\n      mstore\n      pop\n      dup2\n      add\n      swap1\n      tag_176\n      swap2\n      swap1\n      tag_159\n      jump\t// in\n    tag_176:\n      pop\n        /* \"contracts/Dex/SimpleSwap.sol\":5367:6274  if(tokenIn == token0){... */\n    tag_165:\n        /* \"contracts/Dex/SimpleSwap.sol\":6325:6331  token0 */\n      0x05\n      0x00\n      swap1\n      sload\n      swap1\n      0x0100\n      exp\n      swap1\n      div\n      0xffffffffffffffffffffffffffffffffffffffff\n      and\n        /* \"contracts/Dex/SimpleSwap.sol\":6325:6341  token0.balanceOf */\n      0xffffffffffffffffffffffffffffffffffffffff\n      and\n      0x70a08231\n        /* \"contracts/Dex/SimpleSwap.sol\":6350:6354  this */\n      address\n        /* \"contracts/Dex/SimpleSwap.sol\":6325:6356  token0.balanceOf(address(this)) */\n      mload(0x40)\n      dup3\n      0xffffffff\n      and\n      0xe0\n      shl\n      dup2\n      mstore\n      0x04\n      add\n      tag_177\n      swap2\n      swap1\n      tag_141\n      jump\t// in\n    tag_177:\n      0x20\n      mload(0x40)\n      dup1\n      dup4\n      sub\n      dup2\n      dup7\n      gas\n      staticcall\n      iszero\n      dup1\n      iszero\n      tag_179\n      jumpi\n      returndatasize\n      0x00\n      dup1\n      returndatacopy\n      revert(0x00, returndatasize)\n    tag_179:\n      pop\n      pop\n      pop\n      pop\n      mload(0x40)\n      returndatasize\n      not(0x1f)\n      0x1f\n      dup3\n      add\n      and\n      dup3\n      add\n      dup1\n      0x40\n      mstore\n      pop\n      dup2\n      add\n      swap1\n      tag_180\n      swap2\n      swap1\n      tag_145\n      jump\t// in\n    tag_180:\n        /* \"contracts/Dex/SimpleSwap.sol\":6314:6322  reserve0 */\n      0x07\n        /* \"contracts/Dex/SimpleSwap.sol\":6314:6356  reserve0 = token0.balanceOf(address(this)) */\n      dup2\n      swap1\n      sstore\n      pop\n        /* \"contracts/Dex/SimpleSwap.sol\":6378:6384  token1 */\n      0x06\n      0x00\n      swap1\n      sload\n      swap1\n      0x0100\n      exp\n      swap1\n      div\n      0xffffffffffffffffffffffffffffffffffffffff\n      and\n        /* \"contracts/Dex/SimpleSwap.sol\":6378:6394  token1.balanceOf */\n      0xffffffffffffffffffffffffffffffffffffffff\n      and\n      0x70a08231\n        /* \"contracts/Dex/SimpleSwap.sol\":6403:6407  this */\n      address\n        /* \"contracts/Dex/SimpleSwap.sol\":6378:6409  token1.balanceOf(address(this)) */\n      mload(0x40)\n      dup3\n      0xffffffff\n      and\n      0xe0\n      shl\n      dup2\n      mstore\n      0x04\n      add\n      tag_181\n      swap2\n      swap1\n      tag_141\n      jump\t// in\n    tag_181:\n      0x20\n      mload(0x40)\n      dup1\n      dup4\n      sub\n      dup2\n      dup7\n      gas\n      staticcall\n      iszero\n      dup1\n      iszero\n      tag_183\n      jumpi\n      returndatasize\n      0x00\n      dup1\n      returndatacopy\n      revert(0x00, returndatasize)\n    tag_183:\n      pop\n      pop\n      pop\n      pop\n      mload(0x40)\n      returndatasize\n      not(0x1f)\n      0x1f\n      dup3\n      add\n      and\n      dup3\n      add\n      dup1\n      0x40\n      mstore\n      pop\n      dup2\n      add\n      swap1\n      tag_184\n      swap2\n      swap1\n      tag_145\n      jump\t// in\n    tag_184:\n        /* \"contracts/Dex/SimpleSwap.sol\":6367:6375  reserve1 */\n      0x08\n        /* \"contracts/Dex/SimpleSwap.sol\":6367:6409  reserve1 = token1.balanceOf(address(this)) */\n      dup2\n      swap1\n      sstore\n      pop\n        /* \"contracts/Dex/SimpleSwap.sol\":6432:6442  msg.sender */\n      caller\n        /* \"contracts/Dex/SimpleSwap.sol\":6427:6501  Swap(msg.sender, amountIn, address(tokenIn), amountOut, address(tokenOut)) */\n      0xffffffffffffffffffffffffffffffffffffffff\n      and\n      0x24043855bfbfea0ccea141e5a73d7116bf0bfe083ea900a791f4b407ff03e525\n        /* \"contracts/Dex/SimpleSwap.sol\":6444:6452  amountIn */\n      dup9\n        /* \"contracts/Dex/SimpleSwap.sol\":6462:6469  tokenIn */\n      dup9\n        /* \"contracts/Dex/SimpleSwap.sol\":6472:6481  amountOut */\n      dup8\n        /* \"contracts/Dex/SimpleSwap.sol\":6491:6499  tokenOut */\n      dup8\n        /* \"contracts/Dex/SimpleSwap.sol\":6427:6501  Swap(msg.sender, amountIn, address(tokenIn), amountOut, address(tokenOut)) */\n      mload(0x40)\n      tag_185\n      swap5\n      swap4\n      swap3\n      swap2\n      swap1\n      tag_186\n      jump\t// in\n    tag_185:\n      mload(0x40)\n      dup1\n      swap2\n      sub\n      swap1\n      log2\n        /* \"contracts/Dex/SimpleSwap.sol\":5091:6509  {... */\n      pop\n      pop\n        /* \"contracts/Dex/SimpleSwap.sol\":4977:6509  function swap(uint amountIn, IERC20 tokenIn, uint amountOutMin) external returns (uint amountOut, IERC20 tokenOut){... */\n      swap4\n      pop\n      swap4\n      swap2\n      pop\n      pop\n      jump\t// out\n        /* \"contracts/Dex/SimpleSwap.sol\":257:277  uint public reserve0 */\n    tag_62:\n      sload(0x07)\n      dup2\n      jump\t// out\n        /* \"contracts/Dex/SimpleSwap.sol\":284:304  uint public reserve1 */\n    tag_65:\n      sload(0x08)\n      dup2\n      jump\t// out\n        /* \"@openzeppelin/contracts/token/ERC20/ERC20.sol\":3004:3120  function balanceOf(address account) public view virtual returns (uint256) {... */\n    tag_70:\n        /* \"@openzeppelin/contracts/token/ERC20/ERC20.sol\":3069:3076  uint256 */\n      0x00\n        /* \"@openzeppelin/contracts/token/ERC20/ERC20.sol\":3095:3104  _balances */\n      dup1\n        /* \"@openzeppelin/contracts/token/ERC20/ERC20.sol\":3095:3113  _balances[account] */\n      0x00\n        /* \"@openzeppelin/contracts/token/ERC20/ERC20.sol\":3105:3112  account */\n      dup4\n        /* \"@openzeppelin/contracts/token/ERC20/ERC20.sol\":3095:3113  _balances[account] */\n      0xffffffffffffffffffffffffffffffffffffffff\n      and\n      0xffffffffffffffffffffffffffffffffffffffff\n      and\n      dup2\n      mstore\n      0x20\n      add\n      swap1\n      dup2\n      mstore\n      0x20\n      add\n      0x00\n      keccak256\n      sload\n        /* \"@openzeppelin/contracts/token/ERC20/ERC20.sol\":3088:3113  return _balances[account] */\n      swap1\n      pop\n        /* \"@openzeppelin/contracts/token/ERC20/ERC20.sol\":3004:3120  function balanceOf(address account) public view virtual returns (uint256) {... */\n      swap2\n      swap1\n      pop\n      jump\t// out\n        /* \"@openzeppelin/contracts/token/ERC20/ERC20.sol\":1981:2074  function symbol() public view virtual returns (string memory) {... */\n    tag_73:\n        /* \"@openzeppelin/contracts/token/ERC20/ERC20.sol\":2028:2041  string memory */\n      0x60\n        /* \"@openzeppelin/contracts/token/ERC20/ERC20.sol\":2060:2067  _symbol */\n      0x04\n        /* \"@openzeppelin/contracts/token/ERC20/ERC20.sol\":2053:2067  return _symbol */\n      dup1\n      sload\n      tag_189\n      swap1\n      tag_114\n      jump\t// in\n    tag_189:\n      dup1\n      0x1f\n      add\n      0x20\n      dup1\n      swap2\n      div\n      mul\n      0x20\n      add\n      mload(0x40)\n      swap1\n      dup2\n      add\n      0x40\n      mstore\n      dup1\n      swap3\n      swap2\n      swap1\n      dup2\n      dup2\n      mstore\n      0x20\n      add\n      dup3\n      dup1\n      sload\n      tag_190\n      swap1\n      tag_114\n      jump\t// in\n    tag_190:\n      dup1\n      iszero\n      tag_191\n      jumpi\n      dup1\n      0x1f\n      lt\n      tag_192\n      jumpi\n      0x0100\n      dup1\n      dup4\n      sload\n      div\n      mul\n      dup4\n      mstore\n      swap2\n      0x20\n      add\n      swap2\n      jump(tag_191)\n    tag_192:\n      dup3\n      add\n      swap2\n      swap1\n      0x00\n      mstore\n      keccak256(0x00, 0x20)\n      swap1\n    tag_193:\n      dup2\n      sload\n      dup2\n      mstore\n      swap1\n      0x01\n      add\n      swap1\n      0x20\n      add\n      dup1\n      dup4\n      gt\n      tag_193\n      jumpi\n      dup3\n      swap1\n      sub\n      0x1f\n      and\n      dup3\n      add\n      swap2\n    tag_191:\n      pop\n      pop\n      pop\n      pop\n      pop\n      swap1\n      pop\n        /* \"@openzeppelin/contracts/token/ERC20/ERC20.sol\":1981:2074  function symbol() public view virtual returns (string memory) {... */\n      swap1\n      jump\t// out\n        /* \"contracts/Dex/SimpleSwap.sol\":3227:4151  function removeLiquidity(uint liquidity) external returns (uint amount0, uint amount1) {... */\n    tag_78:\n        /* \"contracts/Dex/SimpleSwap.sol\":3286:3298  uint amount0 */\n      0x00\n        /* \"contracts/Dex/SimpleSwap.sol\":3300:3312  uint amount1 */\n      dup1\n        /* \"contracts/Dex/SimpleSwap.sol\":3350:3363  uint balance0 */\n      0x00\n        /* \"contracts/Dex/SimpleSwap.sol\":3366:3372  token0 */\n      0x05\n      0x00\n      swap1\n      sload\n      swap1\n      0x0100\n      exp\n      swap1\n      div\n      0xffffffffffffffffffffffffffffffffffffffff\n      and\n        /* \"contracts/Dex/SimpleSwap.sol\":3366:3382  token0.balanceOf */\n      0xffffffffffffffffffffffffffffffffffffffff\n      and\n      0x70a08231\n        /* \"contracts/Dex/SimpleSwap.sol\":3391:3395  this */\n      address\n        /* \"contracts/Dex/SimpleSwap.sol\":3366:3397  token0.balanceOf(address(this)) */\n      mload(0x40)\n      dup3\n      0xffffffff\n      and\n      0xe0\n      shl\n      dup2\n      mstore\n      0x04\n      add\n      tag_195\n      swap2\n      swap1\n      tag_141\n      jump\t// in\n    tag_195:\n      0x20\n      mload(0x40)\n      dup1\n      dup4\n      sub\n      dup2\n      dup7\n      gas\n      staticcall\n      iszero\n      dup1\n      iszero\n      tag_197\n      jumpi\n      returndatasize\n      0x00\n      dup1\n      returndatacopy\n      revert(0x00, returndatasize)\n    tag_197:\n      pop\n      pop\n      pop\n      pop\n      mload(0x40)\n      returndatasize\n      not(0x1f)\n      0x1f\n      dup3\n      add\n      and\n      dup3\n      add\n      dup1\n      0x40\n      mstore\n      pop\n      dup2\n      add\n      swap1\n      tag_198\n      swap2\n      swap1\n      tag_145\n      jump\t// in\n    tag_198:\n        /* \"contracts/Dex/SimpleSwap.sol\":3350:3397  uint balance0 = token0.balanceOf(address(this)) */\n      swap1\n      pop\n        /* \"contracts/Dex/SimpleSwap.sol\":3408:3421  uint balance1 */\n      0x00\n        /* \"contracts/Dex/SimpleSwap.sol\":3424:3430  token1 */\n      0x06\n      0x00\n      swap1\n      sload\n      swap1\n      0x0100\n      exp\n      swap1\n      div\n      0xffffffffffffffffffffffffffffffffffffffff\n      and\n        /* \"contracts/Dex/SimpleSwap.sol\":3424:3440  token1.balanceOf */\n      0xffffffffffffffffffffffffffffffffffffffff\n      and\n      0x70a08231\n        /* \"contracts/Dex/SimpleSwap.sol\":3449:3453  this */\n      address\n        /* \"contracts/Dex/SimpleSwap.sol\":3424:3455  token1.balanceOf(address(this)) */\n      mload(0x40)\n      dup3\n      0xffffffff\n      and\n      0xe0\n      shl\n      dup2\n      mstore\n      0x04\n      add\n      tag_199\n      swap2\n      swap1\n      tag_141\n      jump\t// in\n    tag_199:\n      0x20\n      mload(0x40)\n      dup1\n      dup4\n      sub\n      dup2\n      dup7\n      gas\n      staticcall\n      iszero\n      dup1\n      iszero\n      tag_201\n      jumpi\n      returndatasize\n      0x00\n      dup1\n      returndatacopy\n      revert(0x00, returndatasize)\n    tag_201:\n      pop\n      pop\n      pop\n      pop\n      mload(0x40)\n      returndatasize\n      not(0x1f)\n      0x1f\n      dup3\n      add\n      and\n      dup3\n      add\n      dup1\n      0x40\n      mstore\n      pop\n      dup2\n      add\n      swap1\n      tag_202\n      swap2\n      swap1\n      tag_145\n      jump\t// in\n    tag_202:\n        /* \"contracts/Dex/SimpleSwap.sol\":3408:3455  uint balance1 = token1.balanceOf(address(this)) */\n      swap1\n      pop\n        /* \"contracts/Dex/SimpleSwap.sol\":3523:3540  uint _totalSupply */\n      0x00\n        /* \"contracts/Dex/SimpleSwap.sol\":3543:3556  totalSupply() */\n      tag_203\n        /* \"contracts/Dex/SimpleSwap.sol\":3543:3554  totalSupply */\n      tag_44\n        /* \"contracts/Dex/SimpleSwap.sol\":3543:3556  totalSupply() */\n      jump\t// in\n    tag_203:\n        /* \"contracts/Dex/SimpleSwap.sol\":3523:3556  uint _totalSupply = totalSupply() */\n      swap1\n      pop\n        /* \"contracts/Dex/SimpleSwap.sol\":3600:3612  _totalSupply */\n      dup1\n        /* \"contracts/Dex/SimpleSwap.sol\":3589:3597  balance0 */\n      dup4\n        /* \"contracts/Dex/SimpleSwap.sol\":3577:3586  liquidity */\n      dup8\n        /* \"contracts/Dex/SimpleSwap.sol\":3577:3597  liquidity * balance0 */\n      tag_204\n      swap2\n      swap1\n      tag_109\n      jump\t// in\n    tag_204:\n        /* \"contracts/Dex/SimpleSwap.sol\":3577:3612  liquidity * balance0 / _totalSupply */\n      tag_205\n      swap2\n      swap1\n      tag_111\n      jump\t// in\n    tag_205:\n        /* \"contracts/Dex/SimpleSwap.sol\":3567:3612  amount0 = liquidity * balance0 / _totalSupply */\n      swap5\n      pop\n        /* \"contracts/Dex/SimpleSwap.sol\":3656:3668  _totalSupply */\n      dup1\n        /* \"contracts/Dex/SimpleSwap.sol\":3645:3653  balance1 */\n      dup3\n        /* \"contracts/Dex/SimpleSwap.sol\":3633:3642  liquidity */\n      dup8\n        /* \"contracts/Dex/SimpleSwap.sol\":3633:3653  liquidity * balance1 */\n      tag_206\n      swap2\n      swap1\n      tag_109\n      jump\t// in\n    tag_206:\n        /* \"contracts/Dex/SimpleSwap.sol\":3633:3668  liquidity * balance1 / _totalSupply */\n      tag_207\n      swap2\n      swap1\n      tag_111\n      jump\t// in\n    tag_207:\n        /* \"contracts/Dex/SimpleSwap.sol\":3623:3668  amount1 = liquidity * balance1 / _totalSupply */\n      swap4\n      pop\n        /* \"contracts/Dex/SimpleSwap.sol\":3728:3729  0 */\n      0x00\n        /* \"contracts/Dex/SimpleSwap.sol\":3718:3725  amount0 */\n      dup6\n        /* \"contracts/Dex/SimpleSwap.sol\":3718:3729  amount0 > 0 */\n      gt\n        /* \"contracts/Dex/SimpleSwap.sol\":3718:3744  amount0 > 0 && amount1 > 0 */\n      dup1\n      iszero\n      tag_208\n      jumpi\n      pop\n        /* \"contracts/Dex/SimpleSwap.sol\":3743:3744  0 */\n      0x00\n        /* \"contracts/Dex/SimpleSwap.sol\":3733:3740  amount1 */\n      dup5\n        /* \"contracts/Dex/SimpleSwap.sol\":3733:3744  amount1 > 0 */\n      gt\n        /* \"contracts/Dex/SimpleSwap.sol\":3718:3744  amount0 > 0 && amount1 > 0 */\n    tag_208:\n        /* \"contracts/Dex/SimpleSwap.sol\":3710:3778  require(amount0 > 0 && amount1 > 0, 'INSUFFICIENT_LIQUIDITY_BURNED') */\n      tag_209\n      jumpi\n      mload(0x40)\n      0x08c379a000000000000000000000000000000000000000000000000000000000\n      dup2\n      mstore\n      0x04\n      add\n      tag_210\n      swap1\n      tag_211\n      jump\t// in\n    tag_210:\n      mload(0x40)\n      dup1\n      swap2\n      sub\n      swap1\n      revert\n    tag_209:\n        /* \"contracts/Dex/SimpleSwap.sol\":3810:3838  _burn(msg.sender, liquidity) */\n      tag_212\n        /* \"contracts/Dex/SimpleSwap.sol\":3816:3826  msg.sender */\n      caller\n        /* \"contracts/Dex/SimpleSwap.sol\":3828:3837  liquidity */\n      dup8\n        /* \"contracts/Dex/SimpleSwap.sol\":3810:3815  _burn */\n      tag_213\n        /* \"contracts/Dex/SimpleSwap.sol\":3810:3838  _burn(msg.sender, liquidity) */\n      jump\t// in\n    tag_212:\n        /* \"contracts/Dex/SimpleSwap.sol\":3874:3880  token0 */\n      0x05\n      0x00\n      swap1\n      sload\n      swap1\n      0x0100\n      exp\n      swap1\n      div\n      0xffffffffffffffffffffffffffffffffffffffff\n      and\n        /* \"contracts/Dex/SimpleSwap.sol\":3874:3889  token0.transfer */\n      0xffffffffffffffffffffffffffffffffffffffff\n      and\n      0xa9059cbb\n        /* \"contracts/Dex/SimpleSwap.sol\":3890:3900  msg.sender */\n      caller\n        /* \"contracts/Dex/SimpleSwap.sol\":3902:3909  amount0 */\n      dup8\n        /* \"contracts/Dex/SimpleSwap.sol\":3874:3910  token0.transfer(msg.sender, amount0) */\n      mload(0x40)\n      dup4\n      0xffffffff\n      and\n      0xe0\n      shl\n      dup2\n      mstore\n      0x04\n      add\n      tag_214\n      swap3\n      swap2\n      swap1\n      tag_161\n      jump\t// in\n    tag_214:\n      0x20\n      mload(0x40)\n      dup1\n      dup4\n      sub\n      dup2\n      0x00\n      dup8\n      gas\n      call\n      iszero\n      dup1\n      iszero\n      tag_216\n      jumpi\n      returndatasize\n      0x00\n      dup1\n      returndatacopy\n      revert(0x00, returndatasize)\n    tag_216:\n      pop\n      pop\n      pop\n      pop\n      mload(0x40)\n      returndatasize\n      not(0x1f)\n      0x1f\n      dup3\n      add\n      and\n      dup3\n      add\n      dup1\n      0x40\n      mstore\n      pop\n      dup2\n      add\n      swap1\n      tag_217\n      swap2\n      swap1\n      tag_159\n      jump\t// in\n    tag_217:\n      pop\n        /* \"contracts/Dex/SimpleSwap.sol\":3921:3927  token1 */\n      0x06\n      0x00\n      swap1\n      sload\n      swap1\n      0x0100\n      exp\n      swap1\n      div\n      0xffffffffffffffffffffffffffffffffffffffff\n      and\n        /* \"contracts/Dex/SimpleSwap.sol\":3921:3936  token1.transfer */\n      0xffffffffffffffffffffffffffffffffffffffff\n      and\n      0xa9059cbb\n        /* \"contracts/Dex/SimpleSwap.sol\":3937:3947  msg.sender */\n      caller\n        /* \"contracts/Dex/SimpleSwap.sol\":3949:3956  amount1 */\n      dup7\n        /* \"contracts/Dex/SimpleSwap.sol\":3921:3957  token1.transfer(msg.sender, amount1) */\n      mload(0x40)\n      dup4\n      0xffffffff\n      and\n      0xe0\n      shl\n      dup2\n      mstore\n      0x04\n      add\n      tag_218\n      swap3\n      swap2\n      swap1\n      tag_161\n      jump\t// in\n    tag_218:\n      0x20\n      mload(0x40)\n      dup1\n      dup4\n      sub\n      dup2\n      0x00\n      dup8\n      gas\n      call\n      iszero\n      dup1\n      iszero\n      tag_220\n      jumpi\n      returndatasize\n      0x00\n      dup1\n      returndatacopy\n      revert(0x00, returndatasize)\n    tag_220:\n      pop\n      pop\n      pop\n      pop\n      mload(0x40)\n      returndatasize\n      not(0x1f)\n      0x1f\n      dup3\n      add\n      and\n      dup3\n      add\n      dup1\n      0x40\n      mstore\n      pop\n      dup2\n      add\n      swap1\n      tag_221\n      swap2\n      swap1\n      tag_159\n      jump\t// in\n    tag_221:\n      pop\n        /* \"contracts/Dex/SimpleSwap.sol\":4007:4013  token0 */\n      0x05\n      0x00\n      swap1\n      sload\n      swap1\n      0x0100\n      exp\n      swap1\n      div\n      0xffffffffffffffffffffffffffffffffffffffff\n      and\n        /* \"contracts/Dex/SimpleSwap.sol\":4007:4023  token0.balanceOf */\n      0xffffffffffffffffffffffffffffffffffffffff\n      and\n      0x70a08231\n        /* \"contracts/Dex/SimpleSwap.sol\":4032:4036  this */\n      address\n        /* \"contracts/Dex/SimpleSwap.sol\":4007:4038  token0.balanceOf(address(this)) */\n      mload(0x40)\n      dup3\n      0xffffffff\n      and\n      0xe0\n      shl\n      dup2\n      mstore\n      0x04\n      add\n      tag_222\n      swap2\n      swap1\n      tag_141\n      jump\t// in\n    tag_222:\n      0x20\n      mload(0x40)\n      dup1\n      dup4\n      sub\n      dup2\n      dup7\n      gas\n      staticcall\n      iszero\n      dup1\n      iszero\n      tag_224\n      jumpi\n      returndatasize\n      0x00\n      dup1\n      returndatacopy\n      revert(0x00, returndatasize)\n    tag_224:\n      pop\n      pop\n      pop\n      pop\n      mload(0x40)\n      returndatasize\n      not(0x1f)\n      0x1f\n      dup3\n      add\n      and\n      dup3\n      add\n      dup1\n      0x40\n      mstore\n      pop\n      dup2\n      add\n      swap1\n      tag_225\n      swap2\n      swap1\n      tag_145\n      jump\t// in\n    tag_225:\n        /* \"contracts/Dex/SimpleSwap.sol\":3996:4004  reserve0 */\n      0x07\n        /* \"contracts/Dex/SimpleSwap.sol\":3996:4038  reserve0 = token0.balanceOf(address(this)) */\n      dup2\n      swap1\n      sstore\n      pop\n        /* \"contracts/Dex/SimpleSwap.sol\":4060:4066  token1 */\n      0x06\n      0x00\n      swap1\n      sload\n      swap1\n      0x0100\n      exp\n      swap1\n      div\n      0xffffffffffffffffffffffffffffffffffffffff\n      and\n        /* \"contracts/Dex/SimpleSwap.sol\":4060:4076  token1.balanceOf */\n      0xffffffffffffffffffffffffffffffffffffffff\n      and\n      0x70a08231\n        /* \"contracts/Dex/SimpleSwap.sol\":4085:4089  this */\n      address\n        /* \"contracts/Dex/SimpleSwap.sol\":4060:4091  token1.balanceOf(address(this)) */\n      mload(0x40)\n      dup3\n      0xffffffff\n      and\n      0xe0\n      shl\n      dup2\n      mstore\n      0x04\n      add\n      tag_226\n      swap2\n      swap1\n      tag_141\n      jump\t// in\n    tag_226:\n      0x20\n      mload(0x40)\n      dup1\n      dup4\n      sub\n      dup2\n      dup7\n      gas\n      staticcall\n      iszero\n      dup1\n      iszero\n      tag_228\n      jumpi\n      returndatasize\n      0x00\n      dup1\n      returndatacopy\n      revert(0x00, returndatasize)\n    tag_228:\n      pop\n      pop\n      pop\n      pop\n      mload(0x40)\n      returndatasize\n      not(0x1f)\n      0x1f\n      dup3\n      add\n      and\n      dup3\n      add\n      dup1\n      0x40\n      mstore\n      pop\n      dup2\n      add\n      swap1\n      tag_229\n      swap2\n      swap1\n      tag_145\n      jump\t// in\n    tag_229:\n        /* \"contracts/Dex/SimpleSwap.sol\":4049:4057  reserve1 */\n      0x08\n        /* \"contracts/Dex/SimpleSwap.sol\":4049:4091  reserve1 = token1.balanceOf(address(this)) */\n      dup2\n      swap1\n      sstore\n      pop\n        /* \"contracts/Dex/SimpleSwap.sol\":4114:4124  msg.sender */\n      caller\n        /* \"contracts/Dex/SimpleSwap.sol\":4109:4143  Burn(msg.sender, amount0, amount1) */\n      0xffffffffffffffffffffffffffffffffffffffff\n      and\n      0x49995e5dd6158cf69ad3e9777c46755a1a826a446c6416992167462dad033b2a\n        /* \"contracts/Dex/SimpleSwap.sol\":4126:4133  amount0 */\n      dup7\n        /* \"contracts/Dex/SimpleSwap.sol\":4135:4142  amount1 */\n      dup7\n        /* \"contracts/Dex/SimpleSwap.sol\":4109:4143  Burn(msg.sender, amount0, amount1) */\n      mload(0x40)\n      tag_230\n      swap3\n      swap2\n      swap1\n      tag_80\n      jump\t// in\n    tag_230:\n      mload(0x40)\n      dup1\n      swap2\n      sub\n      swap1\n      log2\n        /* \"contracts/Dex/SimpleSwap.sol\":3314:4151  {... */\n      pop\n      pop\n      pop\n        /* \"contracts/Dex/SimpleSwap.sol\":3227:4151  function removeLiquidity(uint liquidity) external returns (uint amount0, uint amount1) {... */\n      swap2\n      pop\n      swap2\n      jump\t// out\n        /* \"contracts/Dex/SimpleSwap.sol\":1721:3057  function addLiquidity(uint amount0Desired, uint amount1Desired) public returns(uint liquidity){... */\n    tag_84:\n        /* \"contracts/Dex/SimpleSwap.sol\":1800:1814  uint liquidity */\n      0x00\n        /* \"contracts/Dex/SimpleSwap.sol\":1907:1913  token0 */\n      0x05\n      0x00\n      swap1\n      sload\n      swap1\n      0x0100\n      exp\n      swap1\n      div\n      0xffffffffffffffffffffffffffffffffffffffff\n      and\n        /* \"contracts/Dex/SimpleSwap.sol\":1907:1926  token0.transferFrom */\n      0xffffffffffffffffffffffffffffffffffffffff\n      and\n      0x23b872dd\n        /* \"contracts/Dex/SimpleSwap.sol\":1927:1937  msg.sender */\n      caller\n        /* \"contracts/Dex/SimpleSwap.sol\":1947:1951  this */\n      address\n        /* \"contracts/Dex/SimpleSwap.sol\":1954:1968  amount0Desired */\n      dup7\n        /* \"contracts/Dex/SimpleSwap.sol\":1907:1969  token0.transferFrom(msg.sender, address(this), amount0Desired) */\n      mload(0x40)\n      dup5\n      0xffffffff\n      and\n      0xe0\n      shl\n      dup2\n      mstore\n      0x04\n      add\n      tag_232\n      swap4\n      swap3\n      swap2\n      swap1\n      tag_155\n      jump\t// in\n    tag_232:\n      0x20\n      mload(0x40)\n      dup1\n      dup4\n      sub\n      dup2\n      0x00\n      dup8\n      gas\n      call\n      iszero\n      dup1\n      iszero\n      tag_234\n      jumpi\n      returndatasize\n      0x00\n      dup1\n      returndatacopy\n      revert(0x00, returndatasize)\n    tag_234:\n      pop\n      pop\n      pop\n      pop\n      mload(0x40)\n      returndatasize\n      not(0x1f)\n      0x1f\n      dup3\n      add\n      and\n      dup3\n      add\n      dup1\n      0x40\n      mstore\n      pop\n      dup2\n      add\n      swap1\n      tag_235\n      swap2\n      swap1\n      tag_159\n      jump\t// in\n    tag_235:\n      pop\n        /* \"contracts/Dex/SimpleSwap.sol\":1980:1986  token1 */\n      0x06\n      0x00\n      swap1\n      sload\n      swap1\n      0x0100\n      exp\n      swap1\n      div\n      0xffffffffffffffffffffffffffffffffffffffff\n      and\n        /* \"contracts/Dex/SimpleSwap.sol\":1980:1999  token1.transferFrom */\n      0xffffffffffffffffffffffffffffffffffffffff\n      and\n      0x23b872dd\n        /* \"contracts/Dex/SimpleSwap.sol\":2000:2010  msg.sender */\n      caller\n        /* \"contracts/Dex/SimpleSwap.sol\":2020:2024  this */\n      address\n        /* \"contracts/Dex/SimpleSwap.sol\":2027:2041  amount1Desired */\n      dup6\n        /* \"contracts/Dex/SimpleSwap.sol\":1980:2042  token1.transferFrom(msg.sender, address(this), amount1Desired) */\n      mload(0x40)\n      dup5\n      0xffffffff\n      and\n      0xe0\n      shl\n      dup2\n      mstore\n      0x04\n      add\n      tag_236\n      swap4\n      swap3\n      swap2\n      swap1\n      tag_155\n      jump\t// in\n    tag_236:\n      0x20\n      mload(0x40)\n      dup1\n      dup4\n      sub\n      dup2\n      0x00\n      dup8\n      gas\n      call\n      iszero\n      dup1\n      iszero\n      tag_238\n      jumpi\n      returndatasize\n      0x00\n      dup1\n      returndatacopy\n      revert(0x00, returndatasize)\n    tag_238:\n      pop\n      pop\n      pop\n      pop\n      mload(0x40)\n      returndatasize\n      not(0x1f)\n      0x1f\n      dup3\n      add\n      and\n      dup3\n      add\n      dup1\n      0x40\n      mstore\n      pop\n      dup2\n      add\n      swap1\n      tag_239\n      swap2\n      swap1\n      tag_159\n      jump\t// in\n    tag_239:\n      pop\n        /* \"contracts/Dex/SimpleSwap.sol\":2090:2107  uint _totalSupply */\n      0x00\n        /* \"contracts/Dex/SimpleSwap.sol\":2110:2123  totalSupply() */\n      tag_240\n        /* \"contracts/Dex/SimpleSwap.sol\":2110:2121  totalSupply */\n      tag_44\n        /* \"contracts/Dex/SimpleSwap.sol\":2110:2123  totalSupply() */\n      jump\t// in\n    tag_240:\n        /* \"contracts/Dex/SimpleSwap.sol\":2090:2123  uint _totalSupply = totalSupply() */\n      swap1\n      pop\n        /* \"contracts/Dex/SimpleSwap.sol\":2154:2155  0 */\n      0x00\n        /* \"contracts/Dex/SimpleSwap.sol\":2138:2150  _totalSupply */\n      dup2\n        /* \"contracts/Dex/SimpleSwap.sol\":2138:2155  _totalSupply == 0 */\n      sub\n        /* \"contracts/Dex/SimpleSwap.sol\":2134:2614  if (_totalSupply == 0) {... */\n      tag_241\n      jumpi\n        /* \"contracts/Dex/SimpleSwap.sol\":2301:2338  sqrt(amount0Desired * amount1Desired) */\n      tag_242\n        /* \"contracts/Dex/SimpleSwap.sol\":2323:2337  amount1Desired */\n      dup4\n        /* \"contracts/Dex/SimpleSwap.sol\":2306:2320  amount0Desired */\n      dup6\n        /* \"contracts/Dex/SimpleSwap.sol\":2306:2337  amount0Desired * amount1Desired */\n      tag_243\n      swap2\n      swap1\n      tag_109\n      jump\t// in\n    tag_243:\n        /* \"contracts/Dex/SimpleSwap.sol\":2301:2305  sqrt */\n      tag_244\n        /* \"contracts/Dex/SimpleSwap.sol\":2301:2338  sqrt(amount0Desired * amount1Desired) */\n      jump\t// in\n    tag_242:\n        /* \"contracts/Dex/SimpleSwap.sol\":2289:2338  liquidity = sqrt(amount0Desired * amount1Desired) */\n      swap2\n      pop\n        /* \"contracts/Dex/SimpleSwap.sol\":2134:2614  if (_totalSupply == 0) {... */\n      jump(tag_245)\n    tag_241:\n        /* \"contracts/Dex/SimpleSwap.sol\":2516:2602  min(amount0Desired * _totalSupply / reserve0, amount1Desired * _totalSupply /reserve1) */\n      tag_246\n        /* \"contracts/Dex/SimpleSwap.sol\":2552:2560  reserve0 */\n      sload(0x07)\n        /* \"contracts/Dex/SimpleSwap.sol\":2537:2549  _totalSupply */\n      dup3\n        /* \"contracts/Dex/SimpleSwap.sol\":2520:2534  amount0Desired */\n      dup7\n        /* \"contracts/Dex/SimpleSwap.sol\":2520:2549  amount0Desired * _totalSupply */\n      tag_247\n      swap2\n      swap1\n      tag_109\n      jump\t// in\n    tag_247:\n        /* \"contracts/Dex/SimpleSwap.sol\":2520:2560  amount0Desired * _totalSupply / reserve0 */\n      tag_248\n      swap2\n      swap1\n      tag_111\n      jump\t// in\n    tag_248:\n        /* \"contracts/Dex/SimpleSwap.sol\":2593:2601  reserve1 */\n      sload(0x08)\n        /* \"contracts/Dex/SimpleSwap.sol\":2579:2591  _totalSupply */\n      dup4\n        /* \"contracts/Dex/SimpleSwap.sol\":2562:2576  amount1Desired */\n      dup7\n        /* \"contracts/Dex/SimpleSwap.sol\":2562:2591  amount1Desired * _totalSupply */\n      tag_249\n      swap2\n      swap1\n      tag_109\n      jump\t// in\n    tag_249:\n        /* \"contracts/Dex/SimpleSwap.sol\":2562:2601  amount1Desired * _totalSupply /reserve1 */\n      tag_250\n      swap2\n      swap1\n      tag_111\n      jump\t// in\n    tag_250:\n        /* \"contracts/Dex/SimpleSwap.sol\":2516:2519  min */\n      tag_251\n        /* \"contracts/Dex/SimpleSwap.sol\":2516:2602  min(amount0Desired * _totalSupply / reserve0, amount1Desired * _totalSupply /reserve1) */\n      jump\t// in\n    tag_246:\n        /* \"contracts/Dex/SimpleSwap.sol\":2504:2602  liquidity = min(amount0Desired * _totalSupply / reserve0, amount1Desired * _totalSupply /reserve1) */\n      swap2\n      pop\n        /* \"contracts/Dex/SimpleSwap.sol\":2134:2614  if (_totalSupply == 0) {... */\n    tag_245:\n        /* \"contracts/Dex/SimpleSwap.sol\":2682:2683  0 */\n      0x00\n        /* \"contracts/Dex/SimpleSwap.sol\":2670:2679  liquidity */\n      dup3\n        /* \"contracts/Dex/SimpleSwap.sol\":2670:2683  liquidity > 0 */\n      gt\n        /* \"contracts/Dex/SimpleSwap.sol\":2662:2717  require(liquidity > 0, 'INSUFFICIENT_LIQUIDITY_MINTED') */\n      tag_252\n      jumpi\n      mload(0x40)\n      0x08c379a000000000000000000000000000000000000000000000000000000000\n      dup2\n      mstore\n      0x04\n      add\n      tag_253\n      swap1\n      tag_254\n      jump\t// in\n    tag_253:\n      mload(0x40)\n      dup1\n      swap2\n      sub\n      swap1\n      revert\n    tag_252:\n        /* \"contracts/Dex/SimpleSwap.sol\":2769:2775  token0 */\n      0x05\n      0x00\n      swap1\n      sload\n      swap1\n      0x0100\n      exp\n      swap1\n      div\n      0xffffffffffffffffffffffffffffffffffffffff\n      and\n        /* \"contracts/Dex/SimpleSwap.sol\":2769:2785  token0.balanceOf */\n      0xffffffffffffffffffffffffffffffffffffffff\n      and\n      0x70a08231\n        /* \"contracts/Dex/SimpleSwap.sol\":2794:2798  this */\n      address\n        /* \"contracts/Dex/SimpleSwap.sol\":2769:2800  token0.balanceOf(address(this)) */\n      mload(0x40)\n      dup3\n      0xffffffff\n      and\n      0xe0\n      shl\n      dup2\n      mstore\n      0x04\n      add\n      tag_255\n      swap2\n      swap1\n      tag_141\n      jump\t// in\n    tag_255:\n      0x20\n      mload(0x40)\n      dup1\n      dup4\n      sub\n      dup2\n      dup7\n      gas\n      staticcall\n      iszero\n      dup1\n      iszero\n      tag_257\n      jumpi\n      returndatasize\n      0x00\n      dup1\n      returndatacopy\n      revert(0x00, returndatasize)\n    tag_257:\n      pop\n      pop\n      pop\n      pop\n      mload(0x40)\n      returndatasize\n      not(0x1f)\n      0x1f\n      dup3\n      add\n      and\n      dup3\n      add\n      dup1\n      0x40\n      mstore\n      pop\n      dup2\n      add\n      swap1\n      tag_258\n      swap2\n      swap1\n      tag_145\n      jump\t// in\n    tag_258:\n        /* \"contracts/Dex/SimpleSwap.sol\":2758:2766  reserve0 */\n      0x07\n        /* \"contracts/Dex/SimpleSwap.sol\":2758:2800  reserve0 = token0.balanceOf(address(this)) */\n      dup2\n      swap1\n      sstore\n      pop\n        /* \"contracts/Dex/SimpleSwap.sol\":2822:2828  token1 */\n      0x06\n      0x00\n      swap1\n      sload\n      swap1\n      0x0100\n      exp\n      swap1\n      div\n      0xffffffffffffffffffffffffffffffffffffffff\n      and\n        /* \"contracts/Dex/SimpleSwap.sol\":2822:2838  token1.balanceOf */\n      0xffffffffffffffffffffffffffffffffffffffff\n      and\n      0x70a08231\n        /* \"contracts/Dex/SimpleSwap.sol\":2847:2851  this */\n      address\n        /* \"contracts/Dex/SimpleSwap.sol\":2822:2853  token1.balanceOf(address(this)) */\n      mload(0x40)\n      dup3\n      0xffffffff\n      and\n      0xe0\n      shl\n      dup2\n      mstore\n      0x04\n      add\n      tag_259\n      swap2\n      swap1\n      tag_141\n      jump\t// in\n    tag_259:\n      0x20\n      mload(0x40)\n      dup1\n      dup4\n      sub\n      dup2\n      dup7\n      gas\n      staticcall\n      iszero\n      dup1\n      iszero\n      tag_261\n      jumpi\n      returndatasize\n      0x00\n      dup1\n      returndatacopy\n      revert(0x00, returndatasize)\n    tag_261:\n      pop\n      pop\n      pop\n      pop\n      mload(0x40)\n      returndatasize\n      not(0x1f)\n      0x1f\n      dup3\n      add\n      and\n      dup3\n      add\n      dup1\n      0x40\n      mstore\n      pop\n      dup2\n      add\n      swap1\n      tag_262\n      swap2\n      swap1\n      tag_145\n      jump\t// in\n    tag_262:\n        /* \"contracts/Dex/SimpleSwap.sol\":2811:2819  reserve1 */\n      0x08\n        /* \"contracts/Dex/SimpleSwap.sol\":2811:2853  reserve1 = token1.balanceOf(address(this)) */\n      dup2\n      swap1\n      sstore\n      pop\n        /* \"contracts/Dex/SimpleSwap.sol\":2947:2975  _mint(msg.sender, liquidity) */\n      tag_263\n        /* \"contracts/Dex/SimpleSwap.sol\":2953:2963  msg.sender */\n      caller\n        /* \"contracts/Dex/SimpleSwap.sol\":2965:2974  liquidity */\n      dup4\n        /* \"contracts/Dex/SimpleSwap.sol\":2947:2952  _mint */\n      tag_264\n        /* \"contracts/Dex/SimpleSwap.sol\":2947:2975  _mint(msg.sender, liquidity) */\n      jump\t// in\n    tag_263:\n        /* \"contracts/Dex/SimpleSwap.sol\":3006:3016  msg.sender */\n      caller\n        /* \"contracts/Dex/SimpleSwap.sol\":3001:3049  Mint(msg.sender, amount0Desired, amount1Desired) */\n      0xffffffffffffffffffffffffffffffffffffffff\n      and\n      0x4c209b5fc8ad50758f13e2e1088ba56a560dff690a1c6fef26394f4c03821c4f\n        /* \"contracts/Dex/SimpleSwap.sol\":3018:3032  amount0Desired */\n      dup6\n        /* \"contracts/Dex/SimpleSwap.sol\":3034:3048  amount1Desired */\n      dup6\n        /* \"contracts/Dex/SimpleSwap.sol\":3001:3049  Mint(msg.sender, amount0Desired, amount1Desired) */\n      mload(0x40)\n      tag_265\n      swap3\n      swap2\n      swap1\n      tag_80\n      jump\t// in\n    tag_265:\n      mload(0x40)\n      dup1\n      swap2\n      sub\n      swap1\n      log2\n        /* \"contracts/Dex/SimpleSwap.sol\":1815:3057  {... */\n      pop\n        /* \"contracts/Dex/SimpleSwap.sol\":1721:3057  function addLiquidity(uint amount0Desired, uint amount1Desired) public returns(uint liquidity){... */\n      swap3\n      swap2\n      pop\n      pop\n      jump\t// out\n        /* \"@openzeppelin/contracts/token/ERC20/ERC20.sol\":3315:3493  function transfer(address to, uint256 value) public virtual returns (bool) {... */\n    tag_88:\n        /* \"@openzeppelin/contracts/token/ERC20/ERC20.sol\":3384:3388  bool */\n      0x00\n        /* \"@openzeppelin/contracts/token/ERC20/ERC20.sol\":3400:3413  address owner */\n      dup1\n        /* \"@openzeppelin/contracts/token/ERC20/ERC20.sol\":3416:3428  _msgSender() */\n      tag_267\n        /* \"@openzeppelin/contracts/token/ERC20/ERC20.sol\":3416:3426  _msgSender */\n      tag_121\n        /* \"@openzeppelin/contracts/token/ERC20/ERC20.sol\":3416:3428  _msgSender() */\n      jump\t// in\n    tag_267:\n        /* \"@openzeppelin/contracts/token/ERC20/ERC20.sol\":3400:3428  address owner = _msgSender() */\n      swap1\n      pop\n        /* \"@openzeppelin/contracts/token/ERC20/ERC20.sol\":3438:3465  _transfer(owner, to, value) */\n      tag_268\n        /* \"@openzeppelin/contracts/token/ERC20/ERC20.sol\":3448:3453  owner */\n      dup2\n        /* \"@openzeppelin/contracts/token/ERC20/ERC20.sol\":3455:3457  to */\n      dup6\n        /* \"@openzeppelin/contracts/token/ERC20/ERC20.sol\":3459:3464  value */\n      dup6\n        /* \"@openzeppelin/contracts/token/ERC20/ERC20.sol\":3438:3447  _transfer */\n      tag_130\n        /* \"@openzeppelin/contracts/token/ERC20/ERC20.sol\":3438:3465  _transfer(owner, to, value) */\n      jump\t// in\n    tag_268:\n        /* \"@openzeppelin/contracts/token/ERC20/ERC20.sol\":3482:3486  true */\n      0x01\n        /* \"@openzeppelin/contracts/token/ERC20/ERC20.sol\":3475:3486  return true */\n      swap2\n      pop\n      pop\n        /* \"@openzeppelin/contracts/token/ERC20/ERC20.sol\":3315:3493  function transfer(address to, uint256 value) public virtual returns (bool) {... */\n      swap3\n      swap2\n      pop\n      pop\n      jump\t// out\n        /* \"contracts/Dex/SimpleSwap.sol\":204:224  IERC20 public token1 */\n    tag_91:\n      0x06\n      0x00\n      swap1\n      sload\n      swap1\n      0x0100\n      exp\n      swap1\n      div\n      0xffffffffffffffffffffffffffffffffffffffff\n      and\n      dup2\n      jump\t// out\n        /* \"@openzeppelin/contracts/token/ERC20/ERC20.sol\":3551:3691  function allowance(address owner, address spender) public view virtual returns (uint256) {... */\n    tag_96:\n        /* \"@openzeppelin/contracts/token/ERC20/ERC20.sol\":3631:3638  uint256 */\n      0x00\n        /* \"@openzeppelin/contracts/token/ERC20/ERC20.sol\":3657:3668  _allowances */\n      0x01\n        /* \"@openzeppelin/contracts/token/ERC20/ERC20.sol\":3657:3675  _allowances[owner] */\n      0x00\n        /* \"@openzeppelin/contracts/token/ERC20/ERC20.sol\":3669:3674  owner */\n      dup5\n        /* \"@openzeppelin/contracts/token/ERC20/ERC20.sol\":3657:3675  _allowances[owner] */\n      0xffffffffffffffffffffffffffffffffffffffff\n      and\n      0xffffffffffffffffffffffffffffffffffffffff\n      and\n      dup2\n      mstore\n      0x20\n      add\n      swap1\n      dup2\n      mstore\n      0x20\n      add\n      0x00\n      keccak256\n        /* \"@openzeppelin/contracts/token/ERC20/ERC20.sol\":3657:3684  _allowances[owner][spender] */\n      0x00\n        /* \"@openzeppelin/contracts/token/ERC20/ERC20.sol\":3676:3683  spender */\n      dup4\n        /* \"@openzeppelin/contracts/token/ERC20/ERC20.sol\":3657:3684  _allowances[owner][spender] */\n      0xffffffffffffffffffffffffffffffffffffffff\n      and\n      0xffffffffffffffffffffffffffffffffffffffff\n      and\n      dup2\n      mstore\n      0x20\n      add\n      swap1\n      dup2\n      mstore\n      0x20\n      add\n      0x00\n      keccak256\n      sload\n        /* \"@openzeppelin/contracts/token/ERC20/ERC20.sol\":3650:3684  return _allowances[owner][spender] */\n      swap1\n      pop\n        /* \"@openzeppelin/contracts/token/ERC20/ERC20.sol\":3551:3691  function allowance(address owner, address spender) public view virtual returns (uint256) {... */\n      swap3\n      swap2\n      pop\n      pop\n      jump\t// out\n        /* \"@openzeppelin/contracts/utils/Context.sol\":656:752  function _msgSender() internal view virtual returns (address) {... */\n    tag_121:\n        /* \"@openzeppelin/contracts/utils/Context.sol\":709:716  address */\n      0x00\n        /* \"@openzeppelin/contracts/utils/Context.sol\":735:745  msg.sender */\n      caller\n        /* \"@openzeppelin/contracts/utils/Context.sol\":728:745  return msg.sender */\n      swap1\n      pop\n        /* \"@openzeppelin/contracts/utils/Context.sol\":656:752  function _msgSender() internal view virtual returns (address) {... */\n      swap1\n      jump\t// out\n        /* \"@openzeppelin/contracts/token/ERC20/ERC20.sol\":8726:8854  function _approve(address owner, address spender, uint256 value) internal {... */\n    tag_123:\n        /* \"@openzeppelin/contracts/token/ERC20/ERC20.sol\":8810:8847  _approve(owner, spender, value, true) */\n      tag_272\n        /* \"@openzeppelin/contracts/token/ERC20/ERC20.sol\":8819:8824  owner */\n      dup4\n        /* \"@openzeppelin/contracts/token/ERC20/ERC20.sol\":8826:8833  spender */\n      dup4\n        /* \"@openzeppelin/contracts/token/ERC20/ERC20.sol\":8835:8840  value */\n      dup4\n        /* \"@openzeppelin/contracts/token/ERC20/ERC20.sol\":8842:8846  true */\n      0x01\n        /* \"@openzeppelin/contracts/token/ERC20/ERC20.sol\":8810:8818  _approve */\n      tag_273\n        /* \"@openzeppelin/contracts/token/ERC20/ERC20.sol\":8810:8847  _approve(owner, spender, value, true) */\n      jump\t// in\n    tag_272:\n        /* \"@openzeppelin/contracts/token/ERC20/ERC20.sol\":8726:8854  function _approve(address owner, address spender, uint256 value) internal {... */\n      pop\n      pop\n      pop\n      jump\t// out\n        /* \"@openzeppelin/contracts/token/ERC20/ERC20.sol\":10415:10892  function _spendAllowance(address owner, address spender, uint256 value) internal virtual {... */\n    tag_128:\n        /* \"@openzeppelin/contracts/token/ERC20/ERC20.sol\":10514:10538  uint256 currentAllowance */\n      0x00\n        /* \"@openzeppelin/contracts/token/ERC20/ERC20.sol\":10541:10566  allowance(owner, spender) */\n      tag_275\n        /* \"@openzeppelin/contracts/token/ERC20/ERC20.sol\":10551:10556  owner */\n      dup5\n        /* \"@openzeppelin/contracts/token/ERC20/ERC20.sol\":10558:10565  spender */\n      dup5\n        /* \"@openzeppelin/contracts/token/ERC20/ERC20.sol\":10541:10550  allowance */\n      tag_96\n        /* \"@openzeppelin/contracts/token/ERC20/ERC20.sol\":10541:10566  allowance(owner, spender) */\n      jump\t// in\n    tag_275:\n        /* \"@openzeppelin/contracts/token/ERC20/ERC20.sol\":10514:10566  uint256 currentAllowance = allowance(owner, spender) */\n      swap1\n      pop\n        /* \"@openzeppelin/contracts/token/ERC20/ERC20.sol\":10600:10617  type(uint256).max */\n      0xffffffffffffffffffffffffffffffffffffffffffffffffffffffffffffffff\n        /* \"@openzeppelin/contracts/token/ERC20/ERC20.sol\":10580:10596  currentAllowance */\n      dup2\n        /* \"@openzeppelin/contracts/token/ERC20/ERC20.sol\":10580:10617  currentAllowance != type(uint256).max */\n      eq\n        /* \"@openzeppelin/contracts/token/ERC20/ERC20.sol\":10576:10886  if (currentAllowance != type(uint256).max) {... */\n      tag_276\n      jumpi\n        /* \"@openzeppelin/contracts/token/ERC20/ERC20.sol\":10656:10661  value */\n      dup2\n        /* \"@openzeppelin/contracts/token/ERC20/ERC20.sol\":10637:10653  currentAllowance */\n      dup2\n        /* \"@openzeppelin/contracts/token/ERC20/ERC20.sol\":10637:10661  currentAllowance < value */\n      lt\n        /* \"@openzeppelin/contracts/token/ERC20/ERC20.sol\":10633:10763  if (currentAllowance < value) {... */\n      iszero\n      tag_277\n      jumpi\n        /* \"@openzeppelin/contracts/token/ERC20/ERC20.sol\":10715:10722  spender */\n      dup3\n        /* \"@openzeppelin/contracts/token/ERC20/ERC20.sol\":10724:10740  currentAllowance */\n      dup2\n        /* \"@openzeppelin/contracts/token/ERC20/ERC20.sol\":10742:10747  value */\n      dup4\n        /* \"@openzeppelin/contracts/token/ERC20/ERC20.sol\":10688:10748  ERC20InsufficientAllowance(spender, currentAllowance, value) */\n      mload(0x40)\n      0xfb8f41b200000000000000000000000000000000000000000000000000000000\n      dup2\n      mstore\n      0x04\n      add\n      tag_278\n      swap4\n      swap3\n      swap2\n      swap1\n      tag_279\n      jump\t// in\n    tag_278:\n      mload(0x40)\n      dup1\n      swap2\n      sub\n      swap1\n      revert\n        /* \"@openzeppelin/contracts/token/ERC20/ERC20.sol\":10633:10763  if (currentAllowance < value) {... */\n    tag_277:\n        /* \"@openzeppelin/contracts/token/ERC20/ERC20.sol\":10804:10861  _approve(owner, spender, currentAllowance - value, false) */\n      tag_280\n        /* \"@openzeppelin/contracts/token/ERC20/ERC20.sol\":10813:10818  owner */\n      dup5\n        /* \"@openzeppelin/contracts/token/ERC20/ERC20.sol\":10820:10827  spender */\n      dup5\n        /* \"@openzeppelin/contracts/token/ERC20/ERC20.sol\":10848:10853  value */\n      dup5\n        /* \"@openzeppelin/contracts/token/ERC20/ERC20.sol\":10829:10845  currentAllowance */\n      dup5\n        /* \"@openzeppelin/contracts/token/ERC20/ERC20.sol\":10829:10853  currentAllowance - value */\n      sub\n        /* \"@openzeppelin/contracts/token/ERC20/ERC20.sol\":10855:10860  false */\n      0x00\n        /* \"@openzeppelin/contracts/token/ERC20/ERC20.sol\":10804:10812  _approve */\n      tag_273\n        /* \"@openzeppelin/contracts/token/ERC20/ERC20.sol\":10804:10861  _approve(owner, spender, currentAllowance - value, false) */\n      jump\t// in\n    tag_280:\n        /* \"@openzeppelin/contracts/token/ERC20/ERC20.sol\":10576:10886  if (currentAllowance != type(uint256).max) {... */\n    tag_276:\n        /* \"@openzeppelin/contracts/token/ERC20/ERC20.sol\":10504:10892  {... */\n      pop\n        /* \"@openzeppelin/contracts/token/ERC20/ERC20.sol\":10415:10892  function _spendAllowance(address owner, address spender, uint256 value) internal virtual {... */\n      pop\n      pop\n      pop\n      jump\t// out\n        /* \"@openzeppelin/contracts/token/ERC20/ERC20.sol\":5393:5693  function _transfer(address from, address to, uint256 value) internal {... */\n    tag_130:\n        /* \"@openzeppelin/contracts/token/ERC20/ERC20.sol\":5492:5493  0 */\n      0x00\n        /* \"@openzeppelin/contracts/token/ERC20/ERC20.sol\":5476:5494  from == address(0) */\n      0xffffffffffffffffffffffffffffffffffffffff\n      and\n        /* \"@openzeppelin/contracts/token/ERC20/ERC20.sol\":5476:5480  from */\n      dup4\n        /* \"@openzeppelin/contracts/token/ERC20/ERC20.sol\":5476:5494  from == address(0) */\n      0xffffffffffffffffffffffffffffffffffffffff\n      and\n      sub\n        /* \"@openzeppelin/contracts/token/ERC20/ERC20.sol\":5472:5558  if (from == address(0)) {... */\n      tag_282\n      jumpi\n        /* \"@openzeppelin/contracts/token/ERC20/ERC20.sol\":5544:5545  0 */\n      0x00\n        /* \"@openzeppelin/contracts/token/ERC20/ERC20.sol\":5517:5547  ERC20InvalidSender(address(0)) */\n      mload(0x40)\n      0x96c6fd1e00000000000000000000000000000000000000000000000000000000\n      dup2\n      mstore\n      0x04\n      add\n      tag_283\n      swap2\n      swap1\n      tag_141\n      jump\t// in\n    tag_283:\n      mload(0x40)\n      dup1\n      swap2\n      sub\n      swap1\n      revert\n        /* \"@openzeppelin/contracts/token/ERC20/ERC20.sol\":5472:5558  if (from == address(0)) {... */\n    tag_282:\n        /* \"@openzeppelin/contracts/token/ERC20/ERC20.sol\":5585:5586  0 */\n      0x00\n        /* \"@openzeppelin/contracts/token/ERC20/ERC20.sol\":5571:5587  to == address(0) */\n      0xffffffffffffffffffffffffffffffffffffffff\n      and\n        /* \"@openzeppelin/contracts/token/ERC20/ERC20.sol\":5571:5573  to */\n      dup3\n        /* \"@openzeppelin/contracts/token/ERC20/ERC20.sol\":5571:5587  to == address(0) */\n      0xffffffffffffffffffffffffffffffffffffffff\n      and\n      sub\n        /* \"@openzeppelin/contracts/token/ERC20/ERC20.sol\":5567:5653  if (to == address(0)) {... */\n      tag_284\n      jumpi\n        /* \"@openzeppelin/contracts/token/ERC20/ERC20.sol\":5639:5640  0 */\n      0x00\n        /* \"@openzeppelin/contracts/token/ERC20/ERC20.sol\":5610:5642  ERC20InvalidReceiver(address(0)) */\n      mload(0x40)\n      0xec442f0500000000000000000000000000000000000000000000000000000000\n      dup2\n      mstore\n      0x04\n      add\n      tag_285\n      swap2\n      swap1\n      tag_141\n      jump\t// in\n    tag_285:\n      mload(0x40)\n      dup1\n      swap2\n      sub\n      swap1\n      revert\n        /* \"@openzeppelin/contracts/token/ERC20/ERC20.sol\":5567:5653  if (to == address(0)) {... */\n    tag_284:\n        /* \"@openzeppelin/contracts/token/ERC20/ERC20.sol\":5662:5686  _update(from, to, value) */\n      tag_286\n        /* \"@openzeppelin/contracts/token/ERC20/ERC20.sol\":5670:5674  from */\n      dup4\n        /* \"@openzeppelin/contracts/token/ERC20/ERC20.sol\":5676:5678  to */\n      dup4\n        /* \"@openzeppelin/contracts/token/ERC20/ERC20.sol\":5680:5685  value */\n      dup4\n        /* \"@openzeppelin/contracts/token/ERC20/ERC20.sol\":5662:5669  _update */\n      tag_287\n        /* \"@openzeppelin/contracts/token/ERC20/ERC20.sol\":5662:5686  _update(from, to, value) */\n      jump\t// in\n    tag_286:\n        /* \"@openzeppelin/contracts/token/ERC20/ERC20.sol\":5393:5693  function _transfer(address from, address to, uint256 value) internal {... */\n      pop\n      pop\n      pop\n      jump\t// out\n        /* \"@openzeppelin/contracts/token/ERC20/ERC20.sol\":7984:8190  function _burn(address account, uint256 value) internal {... */\n    tag_213:\n        /* \"@openzeppelin/contracts/token/ERC20/ERC20.sol\":8073:8074  0 */\n      0x00\n        /* \"@openzeppelin/contracts/token/ERC20/ERC20.sol\":8054:8075  account == address(0) */\n      0xffffffffffffffffffffffffffffffffffffffff\n      and\n        /* \"@openzeppelin/contracts/token/ERC20/ERC20.sol\":8054:8061  account */\n      dup3\n        /* \"@openzeppelin/contracts/token/ERC20/ERC20.sol\":8054:8075  account == address(0) */\n      0xffffffffffffffffffffffffffffffffffffffff\n      and\n      sub\n        /* \"@openzeppelin/contracts/token/ERC20/ERC20.sol\":8050:8139  if (account == address(0)) {... */\n      tag_289\n      jumpi\n        /* \"@openzeppelin/contracts/token/ERC20/ERC20.sol\":8125:8126  0 */\n      0x00\n        /* \"@openzeppelin/contracts/token/ERC20/ERC20.sol\":8098:8128  ERC20InvalidSender(address(0)) */\n      mload(0x40)\n      0x96c6fd1e00000000000000000000000000000000000000000000000000000000\n      dup2\n      mstore\n      0x04\n      add\n      tag_290\n      swap2\n      swap1\n      tag_141\n      jump\t// in\n    tag_290:\n      mload(0x40)\n      dup1\n      swap2\n      sub\n      swap1\n      revert\n        /* \"@openzeppelin/contracts/token/ERC20/ERC20.sol\":8050:8139  if (account == address(0)) {... */\n    tag_289:\n        /* \"@openzeppelin/contracts/token/ERC20/ERC20.sol\":8148:8183  _update(account, address(0), value) */\n      tag_291\n        /* \"@openzeppelin/contracts/token/ERC20/ERC20.sol\":8156:8163  account */\n      dup3\n        /* \"@openzeppelin/contracts/token/ERC20/ERC20.sol\":8173:8174  0 */\n      0x00\n        /* \"@openzeppelin/contracts/token/ERC20/ERC20.sol\":8177:8182  value */\n      dup4\n        /* \"@openzeppelin/contracts/token/ERC20/ERC20.sol\":8148:8155  _update */\n      tag_287\n        /* \"@openzeppelin/contracts/token/ERC20/ERC20.sol\":8148:8183  _update(account, address(0), value) */\n      jump\t// in\n    tag_291:\n        /* \"@openzeppelin/contracts/token/ERC20/ERC20.sol\":7984:8190  function _burn(address account, uint256 value) internal {... */\n      pop\n      pop\n      jump\t// out\n        /* \"contracts/Dex/SimpleSwap.sol\":1081:1384  function sqrt(uint y) internal pure returns (uint z) {... */\n    tag_244:\n        /* \"contracts/Dex/SimpleSwap.sol\":1126:1132  uint z */\n      0x00\n        /* \"contracts/Dex/SimpleSwap.sol\":1153:1154  3 */\n      0x03\n        /* \"contracts/Dex/SimpleSwap.sol\":1149:1150  y */\n      dup3\n        /* \"contracts/Dex/SimpleSwap.sol\":1149:1154  y > 3 */\n      gt\n        /* \"contracts/Dex/SimpleSwap.sol\":1145:1377  if (y > 3) {... */\n      iszero\n      tag_293\n      jumpi\n        /* \"contracts/Dex/SimpleSwap.sol\":1175:1176  y */\n      dup2\n        /* \"contracts/Dex/SimpleSwap.sol\":1171:1176  z = y */\n      swap1\n      pop\n        /* \"contracts/Dex/SimpleSwap.sol\":1191:1197  uint x */\n      0x00\n        /* \"contracts/Dex/SimpleSwap.sol\":1208:1209  1 */\n      0x01\n        /* \"contracts/Dex/SimpleSwap.sol\":1204:1205  2 */\n      0x02\n        /* \"contracts/Dex/SimpleSwap.sol\":1200:1201  y */\n      dup5\n        /* \"contracts/Dex/SimpleSwap.sol\":1200:1205  y / 2 */\n      tag_294\n      swap2\n      swap1\n      tag_111\n      jump\t// in\n    tag_294:\n        /* \"contracts/Dex/SimpleSwap.sol\":1200:1209  y / 2 + 1 */\n      tag_295\n      swap2\n      swap1\n      tag_107\n      jump\t// in\n    tag_295:\n        /* \"contracts/Dex/SimpleSwap.sol\":1191:1209  uint x = y / 2 + 1 */\n      swap1\n      pop\n        /* \"contracts/Dex/SimpleSwap.sol\":1224:1316  while (x < z) {... */\n    tag_296:\n        /* \"contracts/Dex/SimpleSwap.sol\":1235:1236  z */\n      dup2\n        /* \"contracts/Dex/SimpleSwap.sol\":1231:1232  x */\n      dup2\n        /* \"contracts/Dex/SimpleSwap.sol\":1231:1236  x < z */\n      lt\n        /* \"contracts/Dex/SimpleSwap.sol\":1224:1316  while (x < z) {... */\n      iszero\n      tag_297\n      jumpi\n        /* \"contracts/Dex/SimpleSwap.sol\":1261:1262  x */\n      dup1\n        /* \"contracts/Dex/SimpleSwap.sol\":1257:1262  z = x */\n      swap2\n      pop\n        /* \"contracts/Dex/SimpleSwap.sol\":1299:1300  2 */\n      0x02\n        /* \"contracts/Dex/SimpleSwap.sol\":1294:1295  x */\n      dup2\n        /* \"contracts/Dex/SimpleSwap.sol\":1290:1291  x */\n      dup3\n        /* \"contracts/Dex/SimpleSwap.sol\":1286:1287  y */\n      dup6\n        /* \"contracts/Dex/SimpleSwap.sol\":1286:1291  y / x */\n      tag_298\n      swap2\n      swap1\n      tag_111\n      jump\t// in\n    tag_298:\n        /* \"contracts/Dex/SimpleSwap.sol\":1286:1295  y / x + x */\n      tag_299\n      swap2\n      swap1\n      tag_107\n      jump\t// in\n    tag_299:\n        /* \"contracts/Dex/SimpleSwap.sol\":1285:1300  (y / x + x) / 2 */\n      tag_300\n      swap2\n      swap1\n      tag_111\n      jump\t// in\n    tag_300:\n        /* \"contracts/Dex/SimpleSwap.sol\":1281:1300  x = (y / x + x) / 2 */\n      swap1\n      pop\n        /* \"contracts/Dex/SimpleSwap.sol\":1224:1316  while (x < z) {... */\n      jump(tag_296)\n    tag_297:\n        /* \"contracts/Dex/SimpleSwap.sol\":1156:1327  {... */\n      pop\n        /* \"contracts/Dex/SimpleSwap.sol\":1145:1377  if (y > 3) {... */\n      jump(tag_301)\n    tag_293:\n        /* \"contracts/Dex/SimpleSwap.sol\":1342:1343  0 */\n      0x00\n        /* \"contracts/Dex/SimpleSwap.sol\":1337:1338  y */\n      dup3\n        /* \"contracts/Dex/SimpleSwap.sol\":1337:1343  y != 0 */\n      eq\n        /* \"contracts/Dex/SimpleSwap.sol\":1333:1377  if (y != 0) {... */\n      tag_302\n      jumpi\n        /* \"contracts/Dex/SimpleSwap.sol\":1364:1365  1 */\n      0x01\n        /* \"contracts/Dex/SimpleSwap.sol\":1360:1365  z = 1 */\n      swap1\n      pop\n        /* \"contracts/Dex/SimpleSwap.sol\":1333:1377  if (y != 0) {... */\n    tag_302:\n        /* \"contracts/Dex/SimpleSwap.sol\":1145:1377  if (y > 3) {... */\n    tag_301:\n        /* \"contracts/Dex/SimpleSwap.sol\":1081:1384  function sqrt(uint y) internal pure returns (uint z) {... */\n      swap2\n      swap1\n      pop\n      jump\t// out\n        /* \"contracts/Dex/SimpleSwap.sol\":851:947  function min(uint x, uint y) internal pure returns (uint z) {... */\n    tag_251:\n        /* \"contracts/Dex/SimpleSwap.sol\":903:909  uint z */\n      0x00\n        /* \"contracts/Dex/SimpleSwap.sol\":930:931  y */\n      dup2\n        /* \"contracts/Dex/SimpleSwap.sol\":926:927  x */\n      dup4\n        /* \"contracts/Dex/SimpleSwap.sol\":926:931  x < y */\n      lt\n        /* \"contracts/Dex/SimpleSwap.sol\":926:939  x < y ? x : y */\n      tag_304\n      jumpi\n        /* \"contracts/Dex/SimpleSwap.sol\":938:939  y */\n      dup2\n        /* \"contracts/Dex/SimpleSwap.sol\":926:939  x < y ? x : y */\n      jump(tag_305)\n    tag_304:\n        /* \"contracts/Dex/SimpleSwap.sol\":934:935  x */\n      dup3\n        /* \"contracts/Dex/SimpleSwap.sol\":926:939  x < y ? x : y */\n    tag_305:\n        /* \"contracts/Dex/SimpleSwap.sol\":922:939  z = x < y ? x : y */\n      swap1\n      pop\n        /* \"contracts/Dex/SimpleSwap.sol\":851:947  function min(uint x, uint y) internal pure returns (uint z) {... */\n      swap3\n      swap2\n      pop\n      pop\n      jump\t// out\n        /* \"@openzeppelin/contracts/token/ERC20/ERC20.sol\":7458:7666  function _mint(address account, uint256 value) internal {... */\n    tag_264:\n        /* \"@openzeppelin/contracts/token/ERC20/ERC20.sol\":7547:7548  0 */\n      0x00\n        /* \"@openzeppelin/contracts/token/ERC20/ERC20.sol\":7528:7549  account == address(0) */\n      0xffffffffffffffffffffffffffffffffffffffff\n      and\n        /* \"@openzeppelin/contracts/token/ERC20/ERC20.sol\":7528:7535  account */\n      dup3\n        /* \"@openzeppelin/contracts/token/ERC20/ERC20.sol\":7528:7549  account == address(0) */\n      0xffffffffffffffffffffffffffffffffffffffff\n      and\n      sub\n        /* \"@openzeppelin/contracts/token/ERC20/ERC20.sol\":7524:7615  if (account == address(0)) {... */\n      tag_307\n      jumpi\n        /* \"@openzeppelin/contracts/token/ERC20/ERC20.sol\":7601:7602  0 */\n      0x00\n        /* \"@openzeppelin/contracts/token/ERC20/ERC20.sol\":7572:7604  ERC20InvalidReceiver(address(0)) */\n      mload(0x40)\n      0xec442f0500000000000000000000000000000000000000000000000000000000\n      dup2\n      mstore\n      0x04\n      add\n      tag_308\n      swap2\n      swap1\n      tag_141\n      jump\t// in\n    tag_308:\n      mload(0x40)\n      dup1\n      swap2\n      sub\n      swap1\n      revert\n        /* \"@openzeppelin/contracts/token/ERC20/ERC20.sol\":7524:7615  if (account == address(0)) {... */\n    tag_307:\n        /* \"@openzeppelin/contracts/token/ERC20/ERC20.sol\":7624:7659  _update(address(0), account, value) */\n      tag_309\n        /* \"@openzeppelin/contracts/token/ERC20/ERC20.sol\":7640:7641  0 */\n      0x00\n        /* \"@openzeppelin/contracts/token/ERC20/ERC20.sol\":7644:7651  account */\n      dup4\n        /* \"@openzeppelin/contracts/token/ERC20/ERC20.sol\":7653:7658  value */\n      dup4\n        /* \"@openzeppelin/contracts/token/ERC20/ERC20.sol\":7624:7631  _update */\n      tag_287\n        /* \"@openzeppelin/contracts/token/ERC20/ERC20.sol\":7624:7659  _update(address(0), account, value) */\n      jump\t// in\n    tag_309:\n        /* \"@openzeppelin/contracts/token/ERC20/ERC20.sol\":7458:7666  function _mint(address account, uint256 value) internal {... */\n      pop\n      pop\n      jump\t// out\n        /* \"@openzeppelin/contracts/token/ERC20/ERC20.sol\":9701:10133  function _approve(address owner, address spender, uint256 value, bool emitEvent) internal virtual {... */\n    tag_273:\n        /* \"@openzeppelin/contracts/token/ERC20/ERC20.sol\":9830:9831  0 */\n      0x00\n        /* \"@openzeppelin/contracts/token/ERC20/ERC20.sol\":9813:9832  owner == address(0) */\n      0xffffffffffffffffffffffffffffffffffffffff\n      and\n        /* \"@openzeppelin/contracts/token/ERC20/ERC20.sol\":9813:9818  owner */\n      dup5\n        /* \"@openzeppelin/contracts/token/ERC20/ERC20.sol\":9813:9832  owner == address(0) */\n      0xffffffffffffffffffffffffffffffffffffffff\n      and\n      sub\n        /* \"@openzeppelin/contracts/token/ERC20/ERC20.sol\":9809:9898  if (owner == address(0)) {... */\n      tag_311\n      jumpi\n        /* \"@openzeppelin/contracts/token/ERC20/ERC20.sol\":9884:9885  0 */\n      0x00\n        /* \"@openzeppelin/contracts/token/ERC20/ERC20.sol\":9855:9887  ERC20InvalidApprover(address(0)) */\n      mload(0x40)\n      0xe602df0500000000000000000000000000000000000000000000000000000000\n      dup2\n      mstore\n      0x04\n      add\n      tag_312\n      swap2\n      swap1\n      tag_141\n      jump\t// in\n    tag_312:\n      mload(0x40)\n      dup1\n      swap2\n      sub\n      swap1\n      revert\n        /* \"@openzeppelin/contracts/token/ERC20/ERC20.sol\":9809:9898  if (owner == address(0)) {... */\n    tag_311:\n        /* \"@openzeppelin/contracts/token/ERC20/ERC20.sol\":9930:9931  0 */\n      0x00\n        /* \"@openzeppelin/contracts/token/ERC20/ERC20.sol\":9911:9932  spender == address(0) */\n      0xffffffffffffffffffffffffffffffffffffffff\n      and\n        /* \"@openzeppelin/contracts/token/ERC20/ERC20.sol\":9911:9918  spender */\n      dup4\n        /* \"@openzeppelin/contracts/token/ERC20/ERC20.sol\":9911:9932  spender == address(0) */\n      0xffffffffffffffffffffffffffffffffffffffff\n      and\n      sub\n        /* \"@openzeppelin/contracts/token/ERC20/ERC20.sol\":9907:9997  if (spender == address(0)) {... */\n      tag_313\n      jumpi\n        /* \"@openzeppelin/contracts/token/ERC20/ERC20.sol\":9983:9984  0 */\n      0x00\n        /* \"@openzeppelin/contracts/token/ERC20/ERC20.sol\":9955:9986  ERC20InvalidSpender(address(0)) */\n      mload(0x40)\n      0x94280d6200000000000000000000000000000000000000000000000000000000\n      dup2\n      mstore\n      0x04\n      add\n      tag_314\n      swap2\n      swap1\n      tag_141\n      jump\t// in\n    tag_314:\n      mload(0x40)\n      dup1\n      swap2\n      sub\n      swap1\n      revert\n        /* \"@openzeppelin/contracts/token/ERC20/ERC20.sol\":9907:9997  if (spender == address(0)) {... */\n    tag_313:\n        /* \"@openzeppelin/contracts/token/ERC20/ERC20.sol\":10036:10041  value */\n      dup2\n        /* \"@openzeppelin/contracts/token/ERC20/ERC20.sol\":10006:10017  _allowances */\n      0x01\n        /* \"@openzeppelin/contracts/token/ERC20/ERC20.sol\":10006:10024  _allowances[owner] */\n      0x00\n        /* \"@openzeppelin/contracts/token/ERC20/ERC20.sol\":10018:10023  owner */\n      dup7\n        /* \"@openzeppelin/contracts/token/ERC20/ERC20.sol\":10006:10024  _allowances[owner] */\n      0xffffffffffffffffffffffffffffffffffffffff\n      and\n      0xffffffffffffffffffffffffffffffffffffffff\n      and\n      dup2\n      mstore\n      0x20\n      add\n      swap1\n      dup2\n      mstore\n      0x20\n      add\n      0x00\n      keccak256\n        /* \"@openzeppelin/contracts/token/ERC20/ERC20.sol\":10006:10033  _allowances[owner][spender] */\n      0x00\n        /* \"@openzeppelin/contracts/token/ERC20/ERC20.sol\":10025:10032  spender */\n      dup6\n        /* \"@openzeppelin/contracts/token/ERC20/ERC20.sol\":10006:10033  _allowances[owner][spender] */\n      0xffffffffffffffffffffffffffffffffffffffff\n      and\n      0xffffffffffffffffffffffffffffffffffffffff\n      and\n      dup2\n      mstore\n      0x20\n      add\n      swap1\n      dup2\n      mstore\n      0x20\n      add\n      0x00\n      keccak256\n        /* \"@openzeppelin/contracts/token/ERC20/ERC20.sol\":10006:10041  _allowances[owner][spender] = value */\n      dup2\n      swap1\n      sstore\n      pop\n        /* \"@openzeppelin/contracts/token/ERC20/ERC20.sol\":10055:10064  emitEvent */\n      dup1\n        /* \"@openzeppelin/contracts/token/ERC20/ERC20.sol\":10051:10127  if (emitEvent) {... */\n      iszero\n      tag_315\n      jumpi\n        /* \"@openzeppelin/contracts/token/ERC20/ERC20.sol\":10101:10108  spender */\n      dup3\n        /* \"@openzeppelin/contracts/token/ERC20/ERC20.sol\":10085:10116  Approval(owner, spender, value) */\n      0xffffffffffffffffffffffffffffffffffffffff\n      and\n        /* \"@openzeppelin/contracts/token/ERC20/ERC20.sol\":10094:10099  owner */\n      dup5\n        /* \"@openzeppelin/contracts/token/ERC20/ERC20.sol\":10085:10116  Approval(owner, spender, value) */\n      0xffffffffffffffffffffffffffffffffffffffff\n      and\n      0x8c5be1e5ebec7d5bd14f71427d1e84f3dd0314c0f7b2291e5b200ac8c7c3b925\n        /* \"@openzeppelin/contracts/token/ERC20/ERC20.sol\":10110:10115  value */\n      dup5\n        /* \"@openzeppelin/contracts/token/ERC20/ERC20.sol\":10085:10116  Approval(owner, spender, value) */\n      mload(0x40)\n      tag_316\n      swap2\n      swap1\n      tag_28\n      jump\t// in\n    tag_316:\n      mload(0x40)\n      dup1\n      swap2\n      sub\n      swap1\n      log3\n        /* \"@openzeppelin/contracts/token/ERC20/ERC20.sol\":10051:10127  if (emitEvent) {... */\n    tag_315:\n        /* \"@openzeppelin/contracts/token/ERC20/ERC20.sol\":9701:10133  function _approve(address owner, address spender, uint256 value, bool emitEvent) internal virtual {... */\n      pop\n      pop\n      pop\n      pop\n      jump\t// out\n        /* \"@openzeppelin/contracts/token/ERC20/ERC20.sol\":6008:7115  function _update(address from, address to, uint256 value) internal virtual {... */\n    tag_287:\n        /* \"@openzeppelin/contracts/token/ERC20/ERC20.sol\":6113:6114  0 */\n      0x00\n        /* \"@openzeppelin/contracts/token/ERC20/ERC20.sol\":6097:6115  from == address(0) */\n      0xffffffffffffffffffffffffffffffffffffffff\n      and\n        /* \"@openzeppelin/contracts/token/ERC20/ERC20.sol\":6097:6101  from */\n      dup4\n        /* \"@openzeppelin/contracts/token/ERC20/ERC20.sol\":6097:6115  from == address(0) */\n      0xffffffffffffffffffffffffffffffffffffffff\n      and\n      sub\n        /* \"@openzeppelin/contracts/token/ERC20/ERC20.sol\":6093:6633  if (from == address(0)) {... */\n      tag_318\n      jumpi\n        /* \"@openzeppelin/contracts/token/ERC20/ERC20.sol\":6249:6254  value */\n      dup1\n        /* \"@openzeppelin/contracts/token/ERC20/ERC20.sol\":6233:6245  _totalSupply */\n      0x02\n      0x00\n        /* \"@openzeppelin/contracts/token/ERC20/ERC20.sol\":6233:6254  _totalSupply += value */\n      dup3\n      dup3\n      sload\n      tag_319\n      swap2\n      swap1\n      tag_107\n      jump\t// in\n    tag_319:\n      swap3\n      pop\n      pop\n      dup2\n      swap1\n      sstore\n      pop\n        /* \"@openzeppelin/contracts/token/ERC20/ERC20.sol\":6093:6633  if (from == address(0)) {... */\n      jump(tag_320)\n    tag_318:\n        /* \"@openzeppelin/contracts/token/ERC20/ERC20.sol\":6285:6304  uint256 fromBalance */\n      0x00\n        /* \"@openzeppelin/contracts/token/ERC20/ERC20.sol\":6307:6316  _balances */\n      dup1\n        /* \"@openzeppelin/contracts/token/ERC20/ERC20.sol\":6307:6322  _balances[from] */\n      0x00\n        /* \"@openzeppelin/contracts/token/ERC20/ERC20.sol\":6317:6321  from */\n      dup6\n        /* \"@openzeppelin/contracts/token/ERC20/ERC20.sol\":6307:6322  _balances[from] */\n      0xffffffffffffffffffffffffffffffffffffffff\n      and\n      0xffffffffffffffffffffffffffffffffffffffff\n      and\n      dup2\n      mstore\n      0x20\n      add\n      swap1\n      dup2\n      mstore\n      0x20\n      add\n      0x00\n      keccak256\n      sload\n        /* \"@openzeppelin/contracts/token/ERC20/ERC20.sol\":6285:6322  uint256 fromBalance = _balances[from] */\n      swap1\n      pop\n        /* \"@openzeppelin/contracts/token/ERC20/ERC20.sol\":6354:6359  value */\n      dup2\n        /* \"@openzeppelin/contracts/token/ERC20/ERC20.sol\":6340:6351  fromBalance */\n      dup2\n        /* \"@openzeppelin/contracts/token/ERC20/ERC20.sol\":6340:6359  fromBalance < value */\n      lt\n        /* \"@openzeppelin/contracts/token/ERC20/ERC20.sol\":6336:6451  if (fromBalance < value) {... */\n      iszero\n      tag_321\n      jumpi\n        /* \"@openzeppelin/contracts/token/ERC20/ERC20.sol\":6411:6415  from */\n      dup4\n        /* \"@openzeppelin/contracts/token/ERC20/ERC20.sol\":6417:6428  fromBalance */\n      dup2\n        /* \"@openzeppelin/contracts/token/ERC20/ERC20.sol\":6430:6435  value */\n      dup4\n        /* \"@openzeppelin/contracts/token/ERC20/ERC20.sol\":6386:6436  ERC20InsufficientBalance(from, fromBalance, value) */\n      mload(0x40)\n      0xe450d38c00000000000000000000000000000000000000000000000000000000\n      dup2\n      mstore\n      0x04\n      add\n      tag_322\n      swap4\n      swap3\n      swap2\n      swap1\n      tag_279\n      jump\t// in\n    tag_322:\n      mload(0x40)\n      dup1\n      swap2\n      sub\n      swap1\n      revert\n        /* \"@openzeppelin/contracts/token/ERC20/ERC20.sol\":6336:6451  if (fromBalance < value) {... */\n    tag_321:\n        /* \"@openzeppelin/contracts/token/ERC20/ERC20.sol\":6603:6608  value */\n      dup2\n        /* \"@openzeppelin/contracts/token/ERC20/ERC20.sol\":6589:6600  fromBalance */\n      dup2\n        /* \"@openzeppelin/contracts/token/ERC20/ERC20.sol\":6589:6608  fromBalance - value */\n      sub\n        /* \"@openzeppelin/contracts/token/ERC20/ERC20.sol\":6571:6580  _balances */\n      0x00\n        /* \"@openzeppelin/contracts/token/ERC20/ERC20.sol\":6571:6586  _balances[from] */\n      dup1\n        /* \"@openzeppelin/contracts/token/ERC20/ERC20.sol\":6581:6585  from */\n      dup7\n        /* \"@openzeppelin/contracts/token/ERC20/ERC20.sol\":6571:6586  _balances[from] */\n      0xffffffffffffffffffffffffffffffffffffffff\n      and\n      0xffffffffffffffffffffffffffffffffffffffff\n      and\n      dup2\n      mstore\n      0x20\n      add\n      swap1\n      dup2\n      mstore\n      0x20\n      add\n      0x00\n      keccak256\n        /* \"@openzeppelin/contracts/token/ERC20/ERC20.sol\":6571:6608  _balances[from] = fromBalance - value */\n      dup2\n      swap1\n      sstore\n      pop\n        /* \"@openzeppelin/contracts/token/ERC20/ERC20.sol\":6271:6633  {... */\n      pop\n        /* \"@openzeppelin/contracts/token/ERC20/ERC20.sol\":6093:6633  if (from == address(0)) {... */\n    tag_320:\n        /* \"@openzeppelin/contracts/token/ERC20/ERC20.sol\":6661:6662  0 */\n      0x00\n        /* \"@openzeppelin/contracts/token/ERC20/ERC20.sol\":6647:6663  to == address(0) */\n      0xffffffffffffffffffffffffffffffffffffffff\n      and\n        /* \"@openzeppelin/contracts/token/ERC20/ERC20.sol\":6647:6649  to */\n      dup3\n        /* \"@openzeppelin/contracts/token/ERC20/ERC20.sol\":6647:6663  to == address(0) */\n      0xffffffffffffffffffffffffffffffffffffffff\n      and\n      sub\n        /* \"@openzeppelin/contracts/token/ERC20/ERC20.sol\":6643:7068  if (to == address(0)) {... */\n      tag_323\n      jumpi\n        /* \"@openzeppelin/contracts/token/ERC20/ERC20.sol\":6826:6831  value */\n      dup1\n        /* \"@openzeppelin/contracts/token/ERC20/ERC20.sol\":6810:6822  _totalSupply */\n      0x02\n      0x00\n        /* \"@openzeppelin/contracts/token/ERC20/ERC20.sol\":6810:6831  _totalSupply -= value */\n      dup3\n      dup3\n      sload\n      sub\n      swap3\n      pop\n      pop\n      dup2\n      swap1\n      sstore\n      pop\n        /* \"@openzeppelin/contracts/token/ERC20/ERC20.sol\":6643:7068  if (to == address(0)) {... */\n      jump(tag_324)\n    tag_323:\n        /* \"@openzeppelin/contracts/token/ERC20/ERC20.sol\":7038:7043  value */\n      dup1\n        /* \"@openzeppelin/contracts/token/ERC20/ERC20.sol\":7021:7030  _balances */\n      0x00\n        /* \"@openzeppelin/contracts/token/ERC20/ERC20.sol\":7021:7034  _balances[to] */\n      dup1\n        /* \"@openzeppelin/contracts/token/ERC20/ERC20.sol\":7031:7033  to */\n      dup5\n        /* \"@openzeppelin/contracts/token/ERC20/ERC20.sol\":7021:7034  _balances[to] */\n      0xffffffffffffffffffffffffffffffffffffffff\n      and\n      0xffffffffffffffffffffffffffffffffffffffff\n      and\n      dup2\n      mstore\n      0x20\n      add\n      swap1\n      dup2\n      mstore\n      0x20\n      add\n      0x00\n      keccak256\n      0x00\n        /* \"@openzeppelin/contracts/token/ERC20/ERC20.sol\":7021:7043  _balances[to] += value */\n      dup3\n      dup3\n      sload\n      add\n      swap3\n      pop\n      pop\n      dup2\n      swap1\n      sstore\n      pop\n        /* \"@openzeppelin/contracts/token/ERC20/ERC20.sol\":6643:7068  if (to == address(0)) {... */\n    tag_324:\n        /* \"@openzeppelin/contracts/token/ERC20/ERC20.sol\":7098:7100  to */\n      dup2\n        /* \"@openzeppelin/contracts/token/ERC20/ERC20.sol\":7083:7108  Transfer(from, to, value) */\n      0xffffffffffffffffffffffffffffffffffffffff\n      and\n        /* \"@openzeppelin/contracts/token/ERC20/ERC20.sol\":7092:7096  from */\n      dup4\n        /* \"@openzeppelin/contracts/token/ERC20/ERC20.sol\":7083:7108  Transfer(from, to, value) */\n      0xffffffffffffffffffffffffffffffffffffffff\n      and\n      0xddf252ad1be2c89b69c2b068fc378daa952ba7f163c4a11628f55a4df523b3ef\n        /* \"@openzeppelin/contracts/token/ERC20/ERC20.sol\":7102:7107  value */\n      dup4\n        /* \"@openzeppelin/contracts/token/ERC20/ERC20.sol\":7083:7108  Transfer(from, to, value) */\n      mload(0x40)\n      tag_325\n      swap2\n      swap1\n      tag_28\n      jump\t// in\n    tag_325:\n      mload(0x40)\n      dup1\n      swap2\n      sub\n      swap1\n      log3\n        /* \"@openzeppelin/contracts/token/ERC20/ERC20.sol\":6008:7115  function _update(address from, address to, uint256 value) internal virtual {... */\n      pop\n      pop\n      pop\n      jump\t// out\n        /* \"#utility.yul\":88:205   */\n    tag_327:\n        /* \"#utility.yul\":197:198   */\n      0x00\n        /* \"#utility.yul\":194:195   */\n      dup1\n        /* \"#utility.yul\":187:199   */\n      revert\n        /* \"#utility.yul\":334:411   */\n    tag_329:\n        /* \"#utility.yul\":371:378   */\n      0x00\n        /* \"#utility.yul\":400:405   */\n      dup2\n        /* \"#utility.yul\":389:405   */\n      swap1\n      pop\n        /* \"#utility.yul\":334:411   */\n      swap2\n      swap1\n      pop\n      jump\t// out\n        /* \"#utility.yul\":417:539   */\n    tag_330:\n        /* \"#utility.yul\":490:514   */\n      tag_379\n        /* \"#utility.yul\":508:513   */\n      dup2\n        /* \"#utility.yul\":490:514   */\n      tag_329\n      jump\t// in\n    tag_379:\n        /* \"#utility.yul\":483:488   */\n      dup2\n        /* \"#utility.yul\":480:515   */\n      eq\n        /* \"#utility.yul\":470:533   */\n      tag_380\n      jumpi\n        /* \"#utility.yul\":529:530   */\n      0x00\n        /* \"#utility.yul\":526:527   */\n      dup1\n        /* \"#utility.yul\":519:531   */\n      revert\n        /* \"#utility.yul\":470:533   */\n    tag_380:\n        /* \"#utility.yul\":417:539   */\n      pop\n      jump\t// out\n        /* \"#utility.yul\":545:684   */\n    tag_331:\n        /* \"#utility.yul\":591:596   */\n      0x00\n        /* \"#utility.yul\":629:635   */\n      dup2\n        /* \"#utility.yul\":616:636   */\n      calldataload\n        /* \"#utility.yul\":607:636   */\n      swap1\n      pop\n        /* \"#utility.yul\":645:678   */\n      tag_382\n        /* \"#utility.yul\":672:677   */\n      dup2\n        /* \"#utility.yul\":645:678   */\n      tag_330\n      jump\t// in\n    tag_382:\n        /* \"#utility.yul\":545:684   */\n      swap3\n      swap2\n      pop\n      pop\n      jump\t// out\n        /* \"#utility.yul\":690:1309   */\n    tag_25:\n        /* \"#utility.yul\":767:773   */\n      0x00\n        /* \"#utility.yul\":775:781   */\n      dup1\n        /* \"#utility.yul\":783:789   */\n      0x00\n        /* \"#utility.yul\":832:834   */\n      0x60\n        /* \"#utility.yul\":820:829   */\n      dup5\n        /* \"#utility.yul\":811:818   */\n      dup7\n        /* \"#utility.yul\":807:830   */\n      sub\n        /* \"#utility.yul\":803:835   */\n      slt\n        /* \"#utility.yul\":800:919   */\n      iszero\n      tag_384\n      jumpi\n        /* \"#utility.yul\":838:917   */\n      tag_385\n      tag_327\n      jump\t// in\n    tag_385:\n        /* \"#utility.yul\":800:919   */\n    tag_384:\n        /* \"#utility.yul\":958:959   */\n      0x00\n        /* \"#utility.yul\":983:1036   */\n      tag_386\n        /* \"#utility.yul\":1028:1035   */\n      dup7\n        /* \"#utility.yul\":1019:1025   */\n      dup3\n        /* \"#utility.yul\":1008:1017   */\n      dup8\n        /* \"#utility.yul\":1004:1026   */\n      add\n        /* \"#utility.yul\":983:1036   */\n      tag_331\n      jump\t// in\n    tag_386:\n        /* \"#utility.yul\":973:1036   */\n      swap4\n      pop\n        /* \"#utility.yul\":929:1046   */\n      pop\n        /* \"#utility.yul\":1085:1087   */\n      0x20\n        /* \"#utility.yul\":1111:1164   */\n      tag_387\n        /* \"#utility.yul\":1156:1163   */\n      dup7\n        /* \"#utility.yul\":1147:1153   */\n      dup3\n        /* \"#utility.yul\":1136:1145   */\n      dup8\n        /* \"#utility.yul\":1132:1154   */\n      add\n        /* \"#utility.yul\":1111:1164   */\n      tag_331\n      jump\t// in\n    tag_387:\n        /* \"#utility.yul\":1101:1164   */\n      swap3\n      pop\n        /* \"#utility.yul\":1056:1174   */\n      pop\n        /* \"#utility.yul\":1213:1215   */\n      0x40\n        /* \"#utility.yul\":1239:1292   */\n      tag_388\n        /* \"#utility.yul\":1284:1291   */\n      dup7\n        /* \"#utility.yul\":1275:1281   */\n      dup3\n        /* \"#utility.yul\":1264:1273   */\n      dup8\n        /* \"#utility.yul\":1260:1282   */\n      add\n        /* \"#utility.yul\":1239:1292   */\n      tag_331\n      jump\t// in\n    tag_388:\n        /* \"#utility.yul\":1229:1292   */\n      swap2\n      pop\n        /* \"#utility.yul\":1184:1302   */\n      pop\n        /* \"#utility.yul\":690:1309   */\n      swap3\n      pop\n      swap3\n      pop\n      swap3\n      jump\t// out\n        /* \"#utility.yul\":1315:1433   */\n    tag_332:\n        /* \"#utility.yul\":1402:1426   */\n      tag_390\n        /* \"#utility.yul\":1420:1425   */\n      dup2\n        /* \"#utility.yul\":1402:1426   */\n      tag_329\n      jump\t// in\n    tag_390:\n        /* \"#utility.yul\":1397:1400   */\n      dup3\n        /* \"#utility.yul\":1390:1427   */\n      mstore\n        /* \"#utility.yul\":1315:1433   */\n      pop\n      pop\n      jump\t// out\n        /* \"#utility.yul\":1439:1661   */\n    tag_28:\n        /* \"#utility.yul\":1532:1536   */\n      0x00\n        /* \"#utility.yul\":1570:1572   */\n      0x20\n        /* \"#utility.yul\":1559:1568   */\n      dup3\n        /* \"#utility.yul\":1555:1573   */\n      add\n        /* \"#utility.yul\":1547:1573   */\n      swap1\n      pop\n        /* \"#utility.yul\":1583:1654   */\n      tag_392\n        /* \"#utility.yul\":1651:1652   */\n      0x00\n        /* \"#utility.yul\":1640:1649   */\n      dup4\n        /* \"#utility.yul\":1636:1653   */\n      add\n        /* \"#utility.yul\":1627:1633   */\n      dup5\n        /* \"#utility.yul\":1583:1654   */\n      tag_332\n      jump\t// in\n    tag_392:\n        /* \"#utility.yul\":1439:1661   */\n      swap3\n      swap2\n      pop\n      pop\n      jump\t// out\n        /* \"#utility.yul\":1667:1766   */\n    tag_333:\n        /* \"#utility.yul\":1719:1725   */\n      0x00\n        /* \"#utility.yul\":1753:1758   */\n      dup2\n        /* \"#utility.yul\":1747:1759   */\n      mload\n        /* \"#utility.yul\":1737:1759   */\n      swap1\n      pop\n        /* \"#utility.yul\":1667:1766   */\n      swap2\n      swap1\n      pop\n      jump\t// out\n        /* \"#utility.yul\":1772:1941   */\n    tag_334:\n        /* \"#utility.yul\":1856:1867   */\n      0x00\n        /* \"#utility.yul\":1890:1896   */\n      dup3\n        /* \"#utility.yul\":1885:1888   */\n      dup3\n        /* \"#utility.yul\":1878:1897   */\n      mstore\n        /* \"#utility.yul\":1930:1934   */\n      0x20\n        /* \"#utility.yul\":1925:1928   */\n      dup3\n        /* \"#utility.yul\":1921:1935   */\n      add\n        /* \"#utility.yul\":1906:1935   */\n      swap1\n      pop\n        /* \"#utility.yul\":1772:1941   */\n      swap3\n      swap2\n      pop\n      pop\n      jump\t// out\n        /* \"#utility.yul\":1947:2086   */\n    tag_335:\n        /* \"#utility.yul\":2036:2042   */\n      dup3\n        /* \"#utility.yul\":2031:2034   */\n      dup2\n        /* \"#utility.yul\":2026:2029   */\n      dup4\n        /* \"#utility.yul\":2020:2043   */\n      mcopy\n        /* \"#utility.yul\":2077:2078   */\n      0x00\n        /* \"#utility.yul\":2068:2074   */\n      dup4\n        /* \"#utility.yul\":2063:2066   */\n      dup4\n        /* \"#utility.yul\":2059:2075   */\n      add\n        /* \"#utility.yul\":2052:2079   */\n      mstore\n        /* \"#utility.yul\":1947:2086   */\n      pop\n      pop\n      pop\n      jump\t// out\n        /* \"#utility.yul\":2092:2194   */\n    tag_336:\n        /* \"#utility.yul\":2133:2139   */\n      0x00\n        /* \"#utility.yul\":2184:2186   */\n      0x1f\n        /* \"#utility.yul\":2180:2187   */\n      not\n        /* \"#utility.yul\":2175:2177   */\n      0x1f\n        /* \"#utility.yul\":2168:2173   */\n      dup4\n        /* \"#utility.yul\":2164:2178   */\n      add\n        /* \"#utility.yul\":2160:2188   */\n      and\n        /* \"#utility.yul\":2150:2188   */\n      swap1\n      pop\n        /* \"#utility.yul\":2092:2194   */\n      swap2\n      swap1\n      pop\n      jump\t// out\n        /* \"#utility.yul\":2200:2577   */\n    tag_337:\n        /* \"#utility.yul\":2288:2291   */\n      0x00\n        /* \"#utility.yul\":2316:2355   */\n      tag_398\n        /* \"#utility.yul\":2349:2354   */\n      dup3\n        /* \"#utility.yul\":2316:2355   */\n      tag_333\n      jump\t// in\n    tag_398:\n        /* \"#utility.yul\":2371:2442   */\n      tag_399\n        /* \"#utility.yul\":2435:2441   */\n      dup2\n        /* \"#utility.yul\":2430:2433   */\n      dup6\n        /* \"#utility.yul\":2371:2442   */\n      tag_334\n      jump\t// in\n    tag_399:\n        /* \"#utility.yul\":2364:2442   */\n      swap4\n      pop\n        /* \"#utility.yul\":2451:2516   */\n      tag_400\n        /* \"#utility.yul\":2509:2515   */\n      dup2\n        /* \"#utility.yul\":2504:2507   */\n      dup6\n        /* \"#utility.yul\":2497:2501   */\n      0x20\n        /* \"#utility.yul\":2490:2495   */\n      dup7\n        /* \"#utility.yul\":2486:2502   */\n      add\n        /* \"#utility.yul\":2451:2516   */\n      tag_335\n      jump\t// in\n    tag_400:\n        /* \"#utility.yul\":2541:2570   */\n      tag_401\n        /* \"#utility.yul\":2563:2569   */\n      dup2\n        /* \"#utility.yul\":2541:2570   */\n      tag_336\n      jump\t// in\n    tag_401:\n        /* \"#utility.yul\":2536:2539   */\n      dup5\n        /* \"#utility.yul\":2532:2571   */\n      add\n        /* \"#utility.yul\":2525:2571   */\n      swap2\n      pop\n        /* \"#utility.yul\":2292:2577   */\n      pop\n        /* \"#utility.yul\":2200:2577   */\n      swap3\n      swap2\n      pop\n      pop\n      jump\t// out\n        /* \"#utility.yul\":2583:2896   */\n    tag_32:\n        /* \"#utility.yul\":2696:2700   */\n      0x00\n        /* \"#utility.yul\":2734:2736   */\n      0x20\n        /* \"#utility.yul\":2723:2732   */\n      dup3\n        /* \"#utility.yul\":2719:2737   */\n      add\n        /* \"#utility.yul\":2711:2737   */\n      swap1\n      pop\n        /* \"#utility.yul\":2783:2792   */\n      dup2\n        /* \"#utility.yul\":2777:2781   */\n      dup2\n        /* \"#utility.yul\":2773:2793   */\n      sub\n        /* \"#utility.yul\":2769:2770   */\n      0x00\n        /* \"#utility.yul\":2758:2767   */\n      dup4\n        /* \"#utility.yul\":2754:2771   */\n      add\n        /* \"#utility.yul\":2747:2794   */\n      mstore\n        /* \"#utility.yul\":2811:2889   */\n      tag_403\n        /* \"#utility.yul\":2884:2888   */\n      dup2\n        /* \"#utility.yul\":2875:2881   */\n      dup5\n        /* \"#utility.yul\":2811:2889   */\n      tag_337\n      jump\t// in\n    tag_403:\n        /* \"#utility.yul\":2803:2889   */\n      swap1\n      pop\n        /* \"#utility.yul\":2583:2896   */\n      swap3\n      swap2\n      pop\n      pop\n      jump\t// out\n        /* \"#utility.yul\":2902:3028   */\n    tag_338:\n        /* \"#utility.yul\":2939:2946   */\n      0x00\n        /* \"#utility.yul\":2979:3021   */\n      0xffffffffffffffffffffffffffffffffffffffff\n        /* \"#utility.yul\":2972:2977   */\n      dup3\n        /* \"#utility.yul\":2968:3022   */\n      and\n        /* \"#utility.yul\":2957:3022   */\n      swap1\n      pop\n        /* \"#utility.yul\":2902:3028   */\n      swap2\n      swap1\n      pop\n      jump\t// out\n        /* \"#utility.yul\":3034:3130   */\n    tag_339:\n        /* \"#utility.yul\":3071:3078   */\n      0x00\n        /* \"#utility.yul\":3100:3124   */\n      tag_406\n        /* \"#utility.yul\":3118:3123   */\n      dup3\n        /* \"#utility.yul\":3100:3124   */\n      tag_338\n      jump\t// in\n    tag_406:\n        /* \"#utility.yul\":3089:3124   */\n      swap1\n      pop\n        /* \"#utility.yul\":3034:3130   */\n      swap2\n      swap1\n      pop\n      jump\t// out\n        /* \"#utility.yul\":3136:3258   */\n    tag_340:\n        /* \"#utility.yul\":3209:3233   */\n      tag_408\n        /* \"#utility.yul\":3227:3232   */\n      dup2\n        /* \"#utility.yul\":3209:3233   */\n      tag_339\n      jump\t// in\n    tag_408:\n        /* \"#utility.yul\":3202:3207   */\n      dup2\n        /* \"#utility.yul\":3199:3234   */\n      eq\n        /* \"#utility.yul\":3189:3252   */\n      tag_409\n      jumpi\n        /* \"#utility.yul\":3248:3249   */\n      0x00\n        /* \"#utility.yul\":3245:3246   */\n      dup1\n        /* \"#utility.yul\":3238:3250   */\n      revert\n        /* \"#utility.yul\":3189:3252   */\n    tag_409:\n        /* \"#utility.yul\":3136:3258   */\n      pop\n      jump\t// out\n        /* \"#utility.yul\":3264:3403   */\n    tag_341:\n        /* \"#utility.yul\":3310:3315   */\n      0x00\n        /* \"#utility.yul\":3348:3354   */\n      dup2\n        /* \"#utility.yul\":3335:3355   */\n      calldataload\n        /* \"#utility.yul\":3326:3355   */\n      swap1\n      pop\n        /* \"#utility.yul\":3364:3397   */\n      tag_411\n        /* \"#utility.yul\":3391:3396   */\n      dup2\n        /* \"#utility.yul\":3364:3397   */\n      tag_340\n      jump\t// in\n    tag_411:\n        /* \"#utility.yul\":3264:3403   */\n      swap3\n      swap2\n      pop\n      pop\n      jump\t// out\n        /* \"#utility.yul\":3409:3883   */\n    tag_35:\n        /* \"#utility.yul\":3477:3483   */\n      0x00\n        /* \"#utility.yul\":3485:3491   */\n      dup1\n        /* \"#utility.yul\":3534:3536   */\n      0x40\n        /* \"#utility.yul\":3522:3531   */\n      dup4\n        /* \"#utility.yul\":3513:3520   */\n      dup6\n        /* \"#utility.yul\":3509:3532   */\n      sub\n        /* \"#utility.yul\":3505:3537   */\n      slt\n        /* \"#utility.yul\":3502:3621   */\n      iszero\n      tag_413\n      jumpi\n        /* \"#utility.yul\":3540:3619   */\n      tag_414\n      tag_327\n      jump\t// in\n    tag_414:\n        /* \"#utility.yul\":3502:3621   */\n    tag_413:\n        /* \"#utility.yul\":3660:3661   */\n      0x00\n        /* \"#utility.yul\":3685:3738   */\n      tag_415\n        /* \"#utility.yul\":3730:3737   */\n      dup6\n        /* \"#utility.yul\":3721:3727   */\n      dup3\n        /* \"#utility.yul\":3710:3719   */\n      dup7\n        /* \"#utility.yul\":3706:3728   */\n      add\n        /* \"#utility.yul\":3685:3738   */\n      tag_341\n      jump\t// in\n    tag_415:\n        /* \"#utility.yul\":3675:3738   */\n      swap3\n      pop\n        /* \"#utility.yul\":3631:3748   */\n      pop\n        /* \"#utility.yul\":3787:3789   */\n      0x20\n        /* \"#utility.yul\":3813:3866   */\n      tag_416\n        /* \"#utility.yul\":3858:3865   */\n      dup6\n        /* \"#utility.yul\":3849:3855   */\n      dup3\n        /* \"#utility.yul\":3838:3847   */\n      dup7\n        /* \"#utility.yul\":3834:3856   */\n      add\n        /* \"#utility.yul\":3813:3866   */\n      tag_331\n      jump\t// in\n    tag_416:\n        /* \"#utility.yul\":3803:3866   */\n      swap2\n      pop\n        /* \"#utility.yul\":3758:3876   */\n      pop\n        /* \"#utility.yul\":3409:3883   */\n      swap3\n      pop\n      swap3\n      swap1\n      pop\n      jump\t// out\n        /* \"#utility.yul\":3889:3979   */\n    tag_342:\n        /* \"#utility.yul\":3923:3930   */\n      0x00\n        /* \"#utility.yul\":3966:3971   */\n      dup2\n        /* \"#utility.yul\":3959:3972   */\n      iszero\n        /* \"#utility.yul\":3952:3973   */\n      iszero\n        /* \"#utility.yul\":3941:3973   */\n      swap1\n      pop\n        /* \"#utility.yul\":3889:3979   */\n      swap2\n      swap1\n      pop\n      jump\t// out\n        /* \"#utility.yul\":3985:4094   */\n    tag_343:\n        /* \"#utility.yul\":4066:4087   */\n      tag_419\n        /* \"#utility.yul\":4081:4086   */\n      dup2\n        /* \"#utility.yul\":4066:4087   */\n      tag_342\n      jump\t// in\n    tag_419:\n        /* \"#utility.yul\":4061:4064   */\n      dup3\n        /* \"#utility.yul\":4054:4088   */\n      mstore\n        /* \"#utility.yul\":3985:4094   */\n      pop\n      pop\n      jump\t// out\n        /* \"#utility.yul\":4100:4310   */\n    tag_38:\n        /* \"#utility.yul\":4187:4191   */\n      0x00\n        /* \"#utility.yul\":4225:4227   */\n      0x20\n        /* \"#utility.yul\":4214:4223   */\n      dup3\n        /* \"#utility.yul\":4210:4228   */\n      add\n        /* \"#utility.yul\":4202:4228   */\n      swap1\n      pop\n        /* \"#utility.yul\":4238:4303   */\n      tag_421\n        /* \"#utility.yul\":4300:4301   */\n      0x00\n        /* \"#utility.yul\":4289:4298   */\n      dup4\n        /* \"#utility.yul\":4285:4302   */\n      add\n        /* \"#utility.yul\":4276:4282   */\n      dup5\n        /* \"#utility.yul\":4238:4303   */\n      tag_343\n      jump\t// in\n    tag_421:\n        /* \"#utility.yul\":4100:4310   */\n      swap3\n      swap2\n      pop\n      pop\n      jump\t// out\n        /* \"#utility.yul\":4316:4376   */\n    tag_344:\n        /* \"#utility.yul\":4344:4347   */\n      0x00\n        /* \"#utility.yul\":4365:4370   */\n      dup2\n        /* \"#utility.yul\":4358:4370   */\n      swap1\n      pop\n        /* \"#utility.yul\":4316:4376   */\n      swap2\n      swap1\n      pop\n      jump\t// out\n        /* \"#utility.yul\":4382:4524   */\n    tag_345:\n        /* \"#utility.yul\":4432:4441   */\n      0x00\n        /* \"#utility.yul\":4465:4518   */\n      tag_424\n        /* \"#utility.yul\":4483:4517   */\n      tag_425\n        /* \"#utility.yul\":4492:4516   */\n      tag_426\n        /* \"#utility.yul\":4510:4515   */\n      dup5\n        /* \"#utility.yul\":4492:4516   */\n      tag_338\n      jump\t// in\n    tag_426:\n        /* \"#utility.yul\":4483:4517   */\n      tag_344\n      jump\t// in\n    tag_425:\n        /* \"#utility.yul\":4465:4518   */\n      tag_338\n      jump\t// in\n    tag_424:\n        /* \"#utility.yul\":4452:4518   */\n      swap1\n      pop\n        /* \"#utility.yul\":4382:4524   */\n      swap2\n      swap1\n      pop\n      jump\t// out\n        /* \"#utility.yul\":4530:4656   */\n    tag_346:\n        /* \"#utility.yul\":4580:4589   */\n      0x00\n        /* \"#utility.yul\":4613:4650   */\n      tag_428\n        /* \"#utility.yul\":4644:4649   */\n      dup3\n        /* \"#utility.yul\":4613:4650   */\n      tag_345\n      jump\t// in\n    tag_428:\n        /* \"#utility.yul\":4600:4650   */\n      swap1\n      pop\n        /* \"#utility.yul\":4530:4656   */\n      swap2\n      swap1\n      pop\n      jump\t// out\n        /* \"#utility.yul\":4662:4802   */\n    tag_347:\n        /* \"#utility.yul\":4726:4735   */\n      0x00\n        /* \"#utility.yul\":4759:4796   */\n      tag_430\n        /* \"#utility.yul\":4790:4795   */\n      dup3\n        /* \"#utility.yul\":4759:4796   */\n      tag_346\n      jump\t// in\n    tag_430:\n        /* \"#utility.yul\":4746:4796   */\n      swap1\n      pop\n        /* \"#utility.yul\":4662:4802   */\n      swap2\n      swap1\n      pop\n      jump\t// out\n        /* \"#utility.yul\":4808:4967   */\n    tag_348:\n        /* \"#utility.yul\":4909:4960   */\n      tag_432\n        /* \"#utility.yul\":4954:4959   */\n      dup2\n        /* \"#utility.yul\":4909:4960   */\n      tag_347\n      jump\t// in\n    tag_432:\n        /* \"#utility.yul\":4904:4907   */\n      dup3\n        /* \"#utility.yul\":4897:4961   */\n      mstore\n        /* \"#utility.yul\":4808:4967   */\n      pop\n      pop\n      jump\t// out\n        /* \"#utility.yul\":4973:5223   */\n    tag_42:\n        /* \"#utility.yul\":5080:5084   */\n      0x00\n        /* \"#utility.yul\":5118:5120   */\n      0x20\n        /* \"#utility.yul\":5107:5116   */\n      dup3\n        /* \"#utility.yul\":5103:5121   */\n      add\n        /* \"#utility.yul\":5095:5121   */\n      swap1\n      pop\n        /* \"#utility.yul\":5131:5216   */\n      tag_434\n        /* \"#utility.yul\":5213:5214   */\n      0x00\n        /* \"#utility.yul\":5202:5211   */\n      dup4\n        /* \"#utility.yul\":5198:5215   */\n      add\n        /* \"#utility.yul\":5189:5195   */\n      dup5\n        /* \"#utility.yul\":5131:5216   */\n      tag_348\n      jump\t// in\n    tag_434:\n        /* \"#utility.yul\":4973:5223   */\n      swap3\n      swap2\n      pop\n      pop\n      jump\t// out\n        /* \"#utility.yul\":5229:5848   */\n    tag_48:\n        /* \"#utility.yul\":5306:5312   */\n      0x00\n        /* \"#utility.yul\":5314:5320   */\n      dup1\n        /* \"#utility.yul\":5322:5328   */\n      0x00\n        /* \"#utility.yul\":5371:5373   */\n      0x60\n        /* \"#utility.yul\":5359:5368   */\n      dup5\n        /* \"#utility.yul\":5350:5357   */\n      dup7\n        /* \"#utility.yul\":5346:5369   */\n      sub\n        /* \"#utility.yul\":5342:5374   */\n      slt\n        /* \"#utility.yul\":5339:5458   */\n      iszero\n      tag_436\n      jumpi\n        /* \"#utility.yul\":5377:5456   */\n      tag_437\n      tag_327\n      jump\t// in\n    tag_437:\n        /* \"#utility.yul\":5339:5458   */\n    tag_436:\n        /* \"#utility.yul\":5497:5498   */\n      0x00\n        /* \"#utility.yul\":5522:5575   */\n      tag_438\n        /* \"#utility.yul\":5567:5574   */\n      dup7\n        /* \"#utility.yul\":5558:5564   */\n      dup3\n        /* \"#utility.yul\":5547:5556   */\n      dup8\n        /* \"#utility.yul\":5543:5565   */\n      add\n        /* \"#utility.yul\":5522:5575   */\n      tag_341\n      jump\t// in\n    tag_438:\n        /* \"#utility.yul\":5512:5575   */\n      swap4\n      pop\n        /* \"#utility.yul\":5468:5585   */\n      pop\n        /* \"#utility.yul\":5624:5626   */\n      0x20\n        /* \"#utility.yul\":5650:5703   */\n      tag_439\n        /* \"#utility.yul\":5695:5702   */\n      dup7\n        /* \"#utility.yul\":5686:5692   */\n      dup3\n        /* \"#utility.yul\":5675:5684   */\n      dup8\n        /* \"#utility.yul\":5671:5693   */\n      add\n        /* \"#utility.yul\":5650:5703   */\n      tag_341\n      jump\t// in\n    tag_439:\n        /* \"#utility.yul\":5640:5703   */\n      swap3\n      pop\n        /* \"#utility.yul\":5595:5713   */\n      pop\n        /* \"#utility.yul\":5752:5754   */\n      0x40\n        /* \"#utility.yul\":5778:5831   */\n      tag_440\n        /* \"#utility.yul\":5823:5830   */\n      dup7\n        /* \"#utility.yul\":5814:5820   */\n      dup3\n        /* \"#utility.yul\":5803:5812   */\n      dup8\n        /* \"#utility.yul\":5799:5821   */\n      add\n        /* \"#utility.yul\":5778:5831   */\n      tag_331\n      jump\t// in\n    tag_440:\n        /* \"#utility.yul\":5768:5831   */\n      swap2\n      pop\n        /* \"#utility.yul\":5723:5841   */\n      pop\n        /* \"#utility.yul\":5229:5848   */\n      swap3\n      pop\n      swap3\n      pop\n      swap3\n      jump\t// out\n        /* \"#utility.yul\":5854:5940   */\n    tag_349:\n        /* \"#utility.yul\":5889:5896   */\n      0x00\n        /* \"#utility.yul\":5929:5933   */\n      0xff\n        /* \"#utility.yul\":5922:5927   */\n      dup3\n        /* \"#utility.yul\":5918:5934   */\n      and\n        /* \"#utility.yul\":5907:5934   */\n      swap1\n      pop\n        /* \"#utility.yul\":5854:5940   */\n      swap2\n      swap1\n      pop\n      jump\t// out\n        /* \"#utility.yul\":5946:6058   */\n    tag_350:\n        /* \"#utility.yul\":6029:6051   */\n      tag_443\n        /* \"#utility.yul\":6045:6050   */\n      dup2\n        /* \"#utility.yul\":6029:6051   */\n      tag_349\n      jump\t// in\n    tag_443:\n        /* \"#utility.yul\":6024:6027   */\n      dup3\n        /* \"#utility.yul\":6017:6052   */\n      mstore\n        /* \"#utility.yul\":5946:6058   */\n      pop\n      pop\n      jump\t// out\n        /* \"#utility.yul\":6064:6278   */\n    tag_54:\n        /* \"#utility.yul\":6153:6157   */\n      0x00\n        /* \"#utility.yul\":6191:6193   */\n      0x20\n        /* \"#utility.yul\":6180:6189   */\n      dup3\n        /* \"#utility.yul\":6176:6194   */\n      add\n        /* \"#utility.yul\":6168:6194   */\n      swap1\n      pop\n        /* \"#utility.yul\":6204:6271   */\n      tag_445\n        /* \"#utility.yul\":6268:6269   */\n      0x00\n        /* \"#utility.yul\":6257:6266   */\n      dup4\n        /* \"#utility.yul\":6253:6270   */\n      add\n        /* \"#utility.yul\":6244:6250   */\n      dup5\n        /* \"#utility.yul\":6204:6271   */\n      tag_350\n      jump\t// in\n    tag_445:\n        /* \"#utility.yul\":6064:6278   */\n      swap3\n      swap2\n      pop\n      pop\n      jump\t// out\n        /* \"#utility.yul\":6284:6394   */\n    tag_351:\n        /* \"#utility.yul\":6335:6342   */\n      0x00\n        /* \"#utility.yul\":6364:6388   */\n      tag_447\n        /* \"#utility.yul\":6382:6387   */\n      dup3\n        /* \"#utility.yul\":6364:6388   */\n      tag_339\n      jump\t// in\n    tag_447:\n        /* \"#utility.yul\":6353:6388   */\n      swap1\n      pop\n        /* \"#utility.yul\":6284:6394   */\n      swap2\n      swap1\n      pop\n      jump\t// out\n        /* \"#utility.yul\":6400:6550   */\n    tag_352:\n        /* \"#utility.yul\":6487:6525   */\n      tag_449\n        /* \"#utility.yul\":6519:6524   */\n      dup2\n        /* \"#utility.yul\":6487:6525   */\n      tag_351\n      jump\t// in\n    tag_449:\n        /* \"#utility.yul\":6480:6485   */\n      dup2\n        /* \"#utility.yul\":6477:6526   */\n      eq\n        /* \"#utility.yul\":6467:6544   */\n      tag_450\n      jumpi\n        /* \"#utility.yul\":6540:6541   */\n      0x00\n        /* \"#utility.yul\":6537:6538   */\n      dup1\n        /* \"#utility.yul\":6530:6542   */\n      revert\n        /* \"#utility.yul\":6467:6544   */\n    tag_450:\n        /* \"#utility.yul\":6400:6550   */\n      pop\n      jump\t// out\n        /* \"#utility.yul\":6556:6723   */\n    tag_353:\n        /* \"#utility.yul\":6616:6621   */\n      0x00\n        /* \"#utility.yul\":6654:6660   */\n      dup2\n        /* \"#utility.yul\":6641:6661   */\n      calldataload\n        /* \"#utility.yul\":6632:6661   */\n      swap1\n      pop\n        /* \"#utility.yul\":6670:6717   */\n      tag_452\n        /* \"#utility.yul\":6711:6716   */\n      dup2\n        /* \"#utility.yul\":6670:6717   */\n      tag_352\n      jump\t// in\n    tag_452:\n        /* \"#utility.yul\":6556:6723   */\n      swap3\n      swap2\n      pop\n      pop\n      jump\t// out\n        /* \"#utility.yul\":6729:7376   */\n    tag_57:\n        /* \"#utility.yul\":6820:6826   */\n      0x00\n        /* \"#utility.yul\":6828:6834   */\n      dup1\n        /* \"#utility.yul\":6836:6842   */\n      0x00\n        /* \"#utility.yul\":6885:6887   */\n      0x60\n        /* \"#utility.yul\":6873:6882   */\n      dup5\n        /* \"#utility.yul\":6864:6871   */\n      dup7\n        /* \"#utility.yul\":6860:6883   */\n      sub\n        /* \"#utility.yul\":6856:6888   */\n      slt\n        /* \"#utility.yul\":6853:6972   */\n      iszero\n      tag_454\n      jumpi\n        /* \"#utility.yul\":6891:6970   */\n      tag_455\n      tag_327\n      jump\t// in\n    tag_455:\n        /* \"#utility.yul\":6853:6972   */\n    tag_454:\n        /* \"#utility.yul\":7011:7012   */\n      0x00\n        /* \"#utility.yul\":7036:7089   */\n      tag_456\n        /* \"#utility.yul\":7081:7088   */\n      dup7\n        /* \"#utility.yul\":7072:7078   */\n      dup3\n        /* \"#utility.yul\":7061:7070   */\n      dup8\n        /* \"#utility.yul\":7057:7079   */\n      add\n        /* \"#utility.yul\":7036:7089   */\n      tag_331\n      jump\t// in\n    tag_456:\n        /* \"#utility.yul\":7026:7089   */\n      swap4\n      pop\n        /* \"#utility.yul\":6982:7099   */\n      pop\n        /* \"#utility.yul\":7138:7140   */\n      0x20\n        /* \"#utility.yul\":7164:7231   */\n      tag_457\n        /* \"#utility.yul\":7223:7230   */\n      dup7\n        /* \"#utility.yul\":7214:7220   */\n      dup3\n        /* \"#utility.yul\":7203:7212   */\n      dup8\n        /* \"#utility.yul\":7199:7221   */\n      add\n        /* \"#utility.yul\":7164:7231   */\n      tag_353\n      jump\t// in\n    tag_457:\n        /* \"#utility.yul\":7154:7231   */\n      swap3\n      pop\n        /* \"#utility.yul\":7109:7241   */\n      pop\n        /* \"#utility.yul\":7280:7282   */\n      0x40\n        /* \"#utility.yul\":7306:7359   */\n      tag_458\n        /* \"#utility.yul\":7351:7358   */\n      dup7\n        /* \"#utility.yul\":7342:7348   */\n      dup3\n        /* \"#utility.yul\":7331:7340   */\n      dup8\n        /* \"#utility.yul\":7327:7349   */\n      add\n        /* \"#utility.yul\":7306:7359   */\n      tag_331\n      jump\t// in\n    tag_458:\n        /* \"#utility.yul\":7296:7359   */\n      swap2\n      pop\n        /* \"#utility.yul\":7251:7369   */\n      pop\n        /* \"#utility.yul\":6729:7376   */\n      swap3\n      pop\n      swap3\n      pop\n      swap3\n      jump\t// out\n        /* \"#utility.yul\":7382:7742   */\n    tag_60:\n        /* \"#utility.yul\":7517:7521   */\n      0x00\n        /* \"#utility.yul\":7555:7557   */\n      0x40\n        /* \"#utility.yul\":7544:7553   */\n      dup3\n        /* \"#utility.yul\":7540:7558   */\n      add\n        /* \"#utility.yul\":7532:7558   */\n      swap1\n      pop\n        /* \"#utility.yul\":7568:7639   */\n      tag_460\n        /* \"#utility.yul\":7636:7637   */\n      0x00\n        /* \"#utility.yul\":7625:7634   */\n      dup4\n        /* \"#utility.yul\":7621:7638   */\n      add\n        /* \"#utility.yul\":7612:7618   */\n      dup6\n        /* \"#utility.yul\":7568:7639   */\n      tag_332\n      jump\t// in\n    tag_460:\n        /* \"#utility.yul\":7649:7735   */\n      tag_461\n        /* \"#utility.yul\":7731:7733   */\n      0x20\n        /* \"#utility.yul\":7720:7729   */\n      dup4\n        /* \"#utility.yul\":7716:7734   */\n      add\n        /* \"#utility.yul\":7707:7713   */\n      dup5\n        /* \"#utility.yul\":7649:7735   */\n      tag_348\n      jump\t// in\n    tag_461:\n        /* \"#utility.yul\":7382:7742   */\n      swap4\n      swap3\n      pop\n      pop\n      pop\n      jump\t// out\n        /* \"#utility.yul\":7748:8077   */\n    tag_69:\n        /* \"#utility.yul\":7807:7813   */\n      0x00\n        /* \"#utility.yul\":7856:7858   */\n      0x20\n        /* \"#utility.yul\":7844:7853   */\n      dup3\n        /* \"#utility.yul\":7835:7842   */\n      dup5\n        /* \"#utility.yul\":7831:7854   */\n      sub\n        /* \"#utility.yul\":7827:7859   */\n      slt\n        /* \"#utility.yul\":7824:7943   */\n      iszero\n      tag_463\n      jumpi\n        /* \"#utility.yul\":7862:7941   */\n      tag_464\n      tag_327\n      jump\t// in\n    tag_464:\n        /* \"#utility.yul\":7824:7943   */\n    tag_463:\n        /* \"#utility.yul\":7982:7983   */\n      0x00\n        /* \"#utility.yul\":8007:8060   */\n      tag_465\n        /* \"#utility.yul\":8052:8059   */\n      dup5\n        /* \"#utility.yul\":8043:8049   */\n      dup3\n        /* \"#utility.yul\":8032:8041   */\n      dup6\n        /* \"#utility.yul\":8028:8050   */\n      add\n        /* \"#utility.yul\":8007:8060   */\n      tag_341\n      jump\t// in\n    tag_465:\n        /* \"#utility.yul\":7997:8060   */\n      swap2\n      pop\n        /* \"#utility.yul\":7953:8070   */\n      pop\n        /* \"#utility.yul\":7748:8077   */\n      swap3\n      swap2\n      pop\n      pop\n      jump\t// out\n        /* \"#utility.yul\":8083:8412   */\n    tag_77:\n        /* \"#utility.yul\":8142:8148   */\n      0x00\n        /* \"#utility.yul\":8191:8193   */\n      0x20\n        /* \"#utility.yul\":8179:8188   */\n      dup3\n        /* \"#utility.yul\":8170:8177   */\n      dup5\n        /* \"#utility.yul\":8166:8189   */\n      sub\n        /* \"#utility.yul\":8162:8194   */\n      slt\n        /* \"#utility.yul\":8159:8278   */\n      iszero\n      tag_467\n      jumpi\n        /* \"#utility.yul\":8197:8276   */\n      tag_468\n      tag_327\n      jump\t// in\n    tag_468:\n        /* \"#utility.yul\":8159:8278   */\n    tag_467:\n        /* \"#utility.yul\":8317:8318   */\n      0x00\n        /* \"#utility.yul\":8342:8395   */\n      tag_469\n        /* \"#utility.yul\":8387:8394   */\n      dup5\n        /* \"#utility.yul\":8378:8384   */\n      dup3\n        /* \"#utility.yul\":8367:8376   */\n      dup6\n        /* \"#utility.yul\":8363:8385   */\n      add\n        /* \"#utility.yul\":8342:8395   */\n      tag_331\n      jump\t// in\n    tag_469:\n        /* \"#utility.yul\":8332:8395   */\n      swap2\n      pop\n        /* \"#utility.yul\":8288:8405   */\n      pop\n        /* \"#utility.yul\":8083:8412   */\n      swap3\n      swap2\n      pop\n      pop\n      jump\t// out\n        /* \"#utility.yul\":8418:8750   */\n    tag_80:\n        /* \"#utility.yul\":8539:8543   */\n      0x00\n        /* \"#utility.yul\":8577:8579   */\n      0x40\n        /* \"#utility.yul\":8566:8575   */\n      dup3\n        /* \"#utility.yul\":8562:8580   */\n      add\n        /* \"#utility.yul\":8554:8580   */\n      swap1\n      pop\n        /* \"#utility.yul\":8590:8661   */\n      tag_471\n        /* \"#utility.yul\":8658:8659   */\n      0x00\n        /* \"#utility.yul\":8647:8656   */\n      dup4\n        /* \"#utility.yul\":8643:8660   */\n      add\n        /* \"#utility.yul\":8634:8640   */\n      dup6\n        /* \"#utility.yul\":8590:8661   */\n      tag_332\n      jump\t// in\n    tag_471:\n        /* \"#utility.yul\":8671:8743   */\n      tag_472\n        /* \"#utility.yul\":8739:8741   */\n      0x20\n        /* \"#utility.yul\":8728:8737   */\n      dup4\n        /* \"#utility.yul\":8724:8742   */\n      add\n        /* \"#utility.yul\":8715:8721   */\n      dup5\n        /* \"#utility.yul\":8671:8743   */\n      tag_332\n      jump\t// in\n    tag_472:\n        /* \"#utility.yul\":8418:8750   */\n      swap4\n      swap3\n      pop\n      pop\n      pop\n      jump\t// out\n        /* \"#utility.yul\":8756:9230   */\n    tag_83:\n        /* \"#utility.yul\":8824:8830   */\n      0x00\n        /* \"#utility.yul\":8832:8838   */\n      dup1\n        /* \"#utility.yul\":8881:8883   */\n      0x40\n        /* \"#utility.yul\":8869:8878   */\n      dup4\n        /* \"#utility.yul\":8860:8867   */\n      dup6\n        /* \"#utility.yul\":8856:8879   */\n      sub\n        /* \"#utility.yul\":8852:8884   */\n      slt\n        /* \"#utility.yul\":8849:8968   */\n      iszero\n      tag_474\n      jumpi\n        /* \"#utility.yul\":8887:8966   */\n      tag_475\n      tag_327\n      jump\t// in\n    tag_475:\n        /* \"#utility.yul\":8849:8968   */\n    tag_474:\n        /* \"#utility.yul\":9007:9008   */\n      0x00\n        /* \"#utility.yul\":9032:9085   */\n      tag_476\n        /* \"#utility.yul\":9077:9084   */\n      dup6\n        /* \"#utility.yul\":9068:9074   */\n      dup3\n        /* \"#utility.yul\":9057:9066   */\n      dup7\n        /* \"#utility.yul\":9053:9075   */\n      add\n        /* \"#utility.yul\":9032:9085   */\n      tag_331\n      jump\t// in\n    tag_476:\n        /* \"#utility.yul\":9022:9085   */\n      swap3\n      pop\n        /* \"#utility.yul\":8978:9095   */\n      pop\n        /* \"#utility.yul\":9134:9136   */\n      0x20\n        /* \"#utility.yul\":9160:9213   */\n      tag_477\n        /* \"#utility.yul\":9205:9212   */\n      dup6\n        /* \"#utility.yul\":9196:9202   */\n      dup3\n        /* \"#utility.yul\":9185:9194   */\n      dup7\n        /* \"#utility.yul\":9181:9203   */\n      add\n        /* \"#utility.yul\":9160:9213   */\n      tag_331\n      jump\t// in\n    tag_477:\n        /* \"#utility.yul\":9150:9213   */\n      swap2\n      pop\n        /* \"#utility.yul\":9105:9223   */\n      pop\n        /* \"#utility.yul\":8756:9230   */\n      swap3\n      pop\n      swap3\n      swap1\n      pop\n      jump\t// out\n        /* \"#utility.yul\":9236:9710   */\n    tag_95:\n        /* \"#utility.yul\":9304:9310   */\n      0x00\n        /* \"#utility.yul\":9312:9318   */\n      dup1\n        /* \"#utility.yul\":9361:9363   */\n      0x40\n        /* \"#utility.yul\":9349:9358   */\n      dup4\n        /* \"#utility.yul\":9340:9347   */\n      dup6\n        /* \"#utility.yul\":9336:9359   */\n      sub\n        /* \"#utility.yul\":9332:9364   */\n      slt\n        /* \"#utility.yul\":9329:9448   */\n      iszero\n      tag_479\n      jumpi\n        /* \"#utility.yul\":9367:9446   */\n      tag_480\n      tag_327\n      jump\t// in\n    tag_480:\n        /* \"#utility.yul\":9329:9448   */\n    tag_479:\n        /* \"#utility.yul\":9487:9488   */\n      0x00\n        /* \"#utility.yul\":9512:9565   */\n      tag_481\n        /* \"#utility.yul\":9557:9564   */\n      dup6\n        /* \"#utility.yul\":9548:9554   */\n      dup3\n        /* \"#utility.yul\":9537:9546   */\n      dup7\n        /* \"#utility.yul\":9533:9555   */\n      add\n        /* \"#utility.yul\":9512:9565   */\n      tag_341\n      jump\t// in\n    tag_481:\n        /* \"#utility.yul\":9502:9565   */\n      swap3\n      pop\n        /* \"#utility.yul\":9458:9575   */\n      pop\n        /* \"#utility.yul\":9614:9616   */\n      0x20\n        /* \"#utility.yul\":9640:9693   */\n      tag_482\n        /* \"#utility.yul\":9685:9692   */\n      dup6\n        /* \"#utility.yul\":9676:9682   */\n      dup3\n        /* \"#utility.yul\":9665:9674   */\n      dup7\n        /* \"#utility.yul\":9661:9683   */\n      add\n        /* \"#utility.yul\":9640:9693   */\n      tag_341\n      jump\t// in\n    tag_482:\n        /* \"#utility.yul\":9630:9693   */\n      swap2\n      pop\n        /* \"#utility.yul\":9585:9703   */\n      pop\n        /* \"#utility.yul\":9236:9710   */\n      swap3\n      pop\n      swap3\n      swap1\n      pop\n      jump\t// out\n        /* \"#utility.yul\":9716:9885   */\n    tag_354:\n        /* \"#utility.yul\":9856:9877   */\n      0x494e53554646494349454e545f414d4f554e5400000000000000000000000000\n        /* \"#utility.yul\":9852:9853   */\n      0x00\n        /* \"#utility.yul\":9844:9850   */\n      dup3\n        /* \"#utility.yul\":9840:9854   */\n      add\n        /* \"#utility.yul\":9833:9878   */\n      mstore\n        /* \"#utility.yul\":9716:9885   */\n      pop\n      jump\t// out\n        /* \"#utility.yul\":9891:10257   */\n    tag_355:\n        /* \"#utility.yul\":10033:10036   */\n      0x00\n        /* \"#utility.yul\":10054:10121   */\n      tag_485\n        /* \"#utility.yul\":10118:10120   */\n      0x13\n        /* \"#utility.yul\":10113:10116   */\n      dup4\n        /* \"#utility.yul\":10054:10121   */\n      tag_334\n      jump\t// in\n    tag_485:\n        /* \"#utility.yul\":10047:10121   */\n      swap2\n      pop\n        /* \"#utility.yul\":10130:10223   */\n      tag_486\n        /* \"#utility.yul\":10219:10222   */\n      dup3\n        /* \"#utility.yul\":10130:10223   */\n      tag_354\n      jump\t// in\n    tag_486:\n        /* \"#utility.yul\":10248:10250   */\n      0x20\n        /* \"#utility.yul\":10243:10246   */\n      dup3\n        /* \"#utility.yul\":10239:10251   */\n      add\n        /* \"#utility.yul\":10232:10251   */\n      swap1\n      pop\n        /* \"#utility.yul\":9891:10257   */\n      swap2\n      swap1\n      pop\n      jump\t// out\n        /* \"#utility.yul\":10263:10682   */\n    tag_101:\n        /* \"#utility.yul\":10429:10433   */\n      0x00\n        /* \"#utility.yul\":10467:10469   */\n      0x20\n        /* \"#utility.yul\":10456:10465   */\n      dup3\n        /* \"#utility.yul\":10452:10470   */\n      add\n        /* \"#utility.yul\":10444:10470   */\n      swap1\n      pop\n        /* \"#utility.yul\":10516:10525   */\n      dup2\n        /* \"#utility.yul\":10510:10514   */\n      dup2\n        /* \"#utility.yul\":10506:10526   */\n      sub\n        /* \"#utility.yul\":10502:10503   */\n      0x00\n        /* \"#utility.yul\":10491:10500   */\n      dup4\n        /* \"#utility.yul\":10487:10504   */\n      add\n        /* \"#utility.yul\":10480:10527   */\n      mstore\n        /* \"#utility.yul\":10544:10675   */\n      tag_488\n        /* \"#utility.yul\":10670:10674   */\n      dup2\n        /* \"#utility.yul\":10544:10675   */\n      tag_355\n      jump\t// in\n    tag_488:\n        /* \"#utility.yul\":10536:10675   */\n      swap1\n      pop\n        /* \"#utility.yul\":10263:10682   */\n      swap2\n      swap1\n      pop\n      jump\t// out\n        /* \"#utility.yul\":10688:10860   */\n    tag_356:\n        /* \"#utility.yul\":10828:10852   */\n      0x494e53554646494349454e545f4c495155494449545900000000000000000000\n        /* \"#utility.yul\":10824:10825   */\n      0x00\n        /* \"#utility.yul\":10816:10822   */\n      dup3\n        /* \"#utility.yul\":10812:10826   */\n      add\n        /* \"#utility.yul\":10805:10853   */\n      mstore\n        /* \"#utility.yul\":10688:10860   */\n      pop\n      jump\t// out\n        /* \"#utility.yul\":10866:11232   */\n    tag_357:\n        /* \"#utility.yul\":11008:11011   */\n      0x00\n        /* \"#utility.yul\":11029:11096   */\n      tag_491\n        /* \"#utility.yul\":11093:11095   */\n      0x16\n        /* \"#utility.yul\":11088:11091   */\n      dup4\n        /* \"#utility.yul\":11029:11096   */\n      tag_334\n      jump\t// in\n    tag_491:\n        /* \"#utility.yul\":11022:11096   */\n      swap2\n      pop\n        /* \"#utility.yul\":11105:11198   */\n      tag_492\n        /* \"#utility.yul\":11194:11197   */\n      dup3\n        /* \"#utility.yul\":11105:11198   */\n      tag_356\n      jump\t// in\n    tag_492:\n        /* \"#utility.yul\":11223:11225   */\n      0x20\n        /* \"#utility.yul\":11218:11221   */\n      dup3\n        /* \"#utility.yul\":11214:11226   */\n      add\n        /* \"#utility.yul\":11207:11226   */\n      swap1\n      pop\n        /* \"#utility.yul\":10866:11232   */\n      swap2\n      swap1\n      pop\n      jump\t// out\n        /* \"#utility.yul\":11238:11657   */\n    tag_105:\n        /* \"#utility.yul\":11404:11408   */\n      0x00\n        /* \"#utility.yul\":11442:11444   */\n      0x20\n        /* \"#utility.yul\":11431:11440   */\n      dup3\n        /* \"#utility.yul\":11427:11445   */\n      add\n        /* \"#utility.yul\":11419:11445   */\n      swap1\n      pop\n        /* \"#utility.yul\":11491:11500   */\n      dup2\n        /* \"#utility.yul\":11485:11489   */\n      dup2\n        /* \"#utility.yul\":11481:11501   */\n      sub\n        /* \"#utility.yul\":11477:11478   */\n      0x00\n        /* \"#utility.yul\":11466:11475   */\n      dup4\n        /* \"#utility.yul\":11462:11479   */\n      add\n        /* \"#utility.yul\":11455:11502   */\n      mstore\n        /* \"#utility.yul\":11519:11650   */\n      tag_494\n        /* \"#utility.yul\":11645:11649   */\n      dup2\n        /* \"#utility.yul\":11519:11650   */\n      tag_357\n      jump\t// in\n    tag_494:\n        /* \"#utility.yul\":11511:11650   */\n      swap1\n      pop\n        /* \"#utility.yul\":11238:11657   */\n      swap2\n      swap1\n      pop\n      jump\t// out\n        /* \"#utility.yul\":11663:11843   */\n    tag_358:\n        /* \"#utility.yul\":11711:11788   */\n      0x4e487b7100000000000000000000000000000000000000000000000000000000\n        /* \"#utility.yul\":11708:11709   */\n      0x00\n        /* \"#utility.yul\":11701:11789   */\n      mstore\n        /* \"#utility.yul\":11808:11812   */\n      0x11\n        /* \"#utility.yul\":11805:11806   */\n      0x04\n        /* \"#utility.yul\":11798:11813   */\n      mstore\n        /* \"#utility.yul\":11832:11836   */\n      0x24\n        /* \"#utility.yul\":11829:11830   */\n      0x00\n        /* \"#utility.yul\":11822:11837   */\n      revert\n        /* \"#utility.yul\":11849:12040   */\n    tag_107:\n        /* \"#utility.yul\":11889:11892   */\n      0x00\n        /* \"#utility.yul\":11908:11928   */\n      tag_497\n        /* \"#utility.yul\":11926:11927   */\n      dup3\n        /* \"#utility.yul\":11908:11928   */\n      tag_329\n      jump\t// in\n    tag_497:\n        /* \"#utility.yul\":11903:11928   */\n      swap2\n      pop\n        /* \"#utility.yul\":11942:11962   */\n      tag_498\n        /* \"#utility.yul\":11960:11961   */\n      dup4\n        /* \"#utility.yul\":11942:11962   */\n      tag_329\n      jump\t// in\n    tag_498:\n        /* \"#utility.yul\":11937:11962   */\n      swap3\n      pop\n        /* \"#utility.yul\":11985:11986   */\n      dup3\n        /* \"#utility.yul\":11982:11983   */\n      dup3\n        /* \"#utility.yul\":11978:11987   */\n      add\n        /* \"#utility.yul\":11971:11987   */\n      swap1\n      pop\n        /* \"#utility.yul\":12006:12009   */\n      dup1\n        /* \"#utility.yul\":12003:12004   */\n      dup3\n        /* \"#utility.yul\":12000:12010   */\n      gt\n        /* \"#utility.yul\":11997:12033   */\n      iszero\n      tag_499\n      jumpi\n        /* \"#utility.yul\":12013:12031   */\n      tag_500\n      tag_358\n      jump\t// in\n    tag_500:\n        /* \"#utility.yul\":11997:12033   */\n    tag_499:\n        /* \"#utility.yul\":11849:12040   */\n      swap3\n      swap2\n      pop\n      pop\n      jump\t// out\n        /* \"#utility.yul\":12046:12456   */\n    tag_109:\n        /* \"#utility.yul\":12086:12093   */\n      0x00\n        /* \"#utility.yul\":12109:12129   */\n      tag_502\n        /* \"#utility.yul\":12127:12128   */\n      dup3\n        /* \"#utility.yul\":12109:12129   */\n      tag_329\n      jump\t// in\n    tag_502:\n        /* \"#utility.yul\":12104:12129   */\n      swap2\n      pop\n        /* \"#utility.yul\":12143:12163   */\n      tag_503\n        /* \"#utility.yul\":12161:12162   */\n      dup4\n        /* \"#utility.yul\":12143:12163   */\n      tag_329\n      jump\t// in\n    tag_503:\n        /* \"#utility.yul\":12138:12163   */\n      swap3\n      pop\n        /* \"#utility.yul\":12198:12199   */\n      dup3\n        /* \"#utility.yul\":12195:12196   */\n      dup3\n        /* \"#utility.yul\":12191:12200   */\n      mul\n        /* \"#utility.yul\":12220:12250   */\n      tag_504\n        /* \"#utility.yul\":12238:12249   */\n      dup2\n        /* \"#utility.yul\":12220:12250   */\n      tag_329\n      jump\t// in\n    tag_504:\n        /* \"#utility.yul\":12209:12250   */\n      swap2\n      pop\n        /* \"#utility.yul\":12399:12400   */\n      dup3\n        /* \"#utility.yul\":12390:12397   */\n      dup3\n        /* \"#utility.yul\":12386:12401   */\n      div\n        /* \"#utility.yul\":12383:12384   */\n      dup5\n        /* \"#utility.yul\":12380:12402   */\n      eq\n        /* \"#utility.yul\":12360:12361   */\n      dup4\n        /* \"#utility.yul\":12353:12362   */\n      iszero\n        /* \"#utility.yul\":12333:12416   */\n      or\n        /* \"#utility.yul\":12310:12449   */\n      tag_505\n      jumpi\n        /* \"#utility.yul\":12429:12447   */\n      tag_506\n      tag_358\n      jump\t// in\n    tag_506:\n        /* \"#utility.yul\":12310:12449   */\n    tag_505:\n        /* \"#utility.yul\":12094:12456   */\n      pop\n        /* \"#utility.yul\":12046:12456   */\n      swap3\n      swap2\n      pop\n      pop\n      jump\t// out\n        /* \"#utility.yul\":12462:12642   */\n    tag_359:\n        /* \"#utility.yul\":12510:12587   */\n      0x4e487b7100000000000000000000000000000000000000000000000000000000\n        /* \"#utility.yul\":12507:12508   */\n      0x00\n        /* \"#utility.yul\":12500:12588   */\n      mstore\n        /* \"#utility.yul\":12607:12611   */\n      0x12\n        /* \"#utility.yul\":12604:12605   */\n      0x04\n        /* \"#utility.yul\":12597:12612   */\n      mstore\n        /* \"#utility.yul\":12631:12635   */\n      0x24\n        /* \"#utility.yul\":12628:12629   */\n      0x00\n        /* \"#utility.yul\":12621:12636   */\n      revert\n        /* \"#utility.yul\":12648:12833   */\n    tag_111:\n        /* \"#utility.yul\":12688:12689   */\n      0x00\n        /* \"#utility.yul\":12705:12725   */\n      tag_509\n        /* \"#utility.yul\":12723:12724   */\n      dup3\n        /* \"#utility.yul\":12705:12725   */\n      tag_329\n      jump\t// in\n    tag_509:\n        /* \"#utility.yul\":12700:12725   */\n      swap2\n      pop\n        /* \"#utility.yul\":12739:12759   */\n      tag_510\n        /* \"#utility.yul\":12757:12758   */\n      dup4\n        /* \"#utility.yul\":12739:12759   */\n      tag_329\n      jump\t// in\n    tag_510:\n        /* \"#utility.yul\":12734:12759   */\n      swap3\n      pop\n        /* \"#utility.yul\":12778:12779   */\n      dup3\n        /* \"#utility.yul\":12768:12803   */\n      tag_511\n      jumpi\n        /* \"#utility.yul\":12783:12801   */\n      tag_512\n      tag_359\n      jump\t// in\n    tag_512:\n        /* \"#utility.yul\":12768:12803   */\n    tag_511:\n        /* \"#utility.yul\":12825:12826   */\n      dup3\n        /* \"#utility.yul\":12822:12823   */\n      dup3\n        /* \"#utility.yul\":12818:12827   */\n      div\n        /* \"#utility.yul\":12813:12827   */\n      swap1\n      pop\n        /* \"#utility.yul\":12648:12833   */\n      swap3\n      swap2\n      pop\n      pop\n      jump\t// out\n        /* \"#utility.yul\":12839:13019   */\n    tag_360:\n        /* \"#utility.yul\":12887:12964   */\n      0x4e487b7100000000000000000000000000000000000000000000000000000000\n        /* \"#utility.yul\":12884:12885   */\n      0x00\n        /* \"#utility.yul\":12877:12965   */\n      mstore\n        /* \"#utility.yul\":12984:12988   */\n      0x22\n        /* \"#utility.yul\":12981:12982   */\n      0x04\n        /* \"#utility.yul\":12974:12989   */\n      mstore\n        /* \"#utility.yul\":13008:13012   */\n      0x24\n        /* \"#utility.yul\":13005:13006   */\n      0x00\n        /* \"#utility.yul\":12998:13013   */\n      revert\n        /* \"#utility.yul\":13025:13345   */\n    tag_114:\n        /* \"#utility.yul\":13069:13075   */\n      0x00\n        /* \"#utility.yul\":13106:13107   */\n      0x02\n        /* \"#utility.yul\":13100:13104   */\n      dup3\n        /* \"#utility.yul\":13096:13108   */\n      div\n        /* \"#utility.yul\":13086:13108   */\n      swap1\n      pop\n        /* \"#utility.yul\":13153:13154   */\n      0x01\n        /* \"#utility.yul\":13147:13151   */\n      dup3\n        /* \"#utility.yul\":13143:13155   */\n      and\n        /* \"#utility.yul\":13174:13192   */\n      dup1\n        /* \"#utility.yul\":13164:13245   */\n      tag_515\n      jumpi\n        /* \"#utility.yul\":13230:13234   */\n      0x7f\n        /* \"#utility.yul\":13222:13228   */\n      dup3\n        /* \"#utility.yul\":13218:13235   */\n      and\n        /* \"#utility.yul\":13208:13235   */\n      swap2\n      pop\n        /* \"#utility.yul\":13164:13245   */\n    tag_515:\n        /* \"#utility.yul\":13292:13294   */\n      0x20\n        /* \"#utility.yul\":13284:13290   */\n      dup3\n        /* \"#utility.yul\":13281:13295   */\n      lt\n        /* \"#utility.yul\":13261:13279   */\n      dup2\n        /* \"#utility.yul\":13258:13296   */\n      sub\n        /* \"#utility.yul\":13255:13339   */\n      tag_516\n      jumpi\n        /* \"#utility.yul\":13311:13329   */\n      tag_517\n      tag_360\n      jump\t// in\n    tag_517:\n        /* \"#utility.yul\":13255:13339   */\n    tag_516:\n        /* \"#utility.yul\":13076:13345   */\n      pop\n        /* \"#utility.yul\":13025:13345   */\n      swap2\n      swap1\n      pop\n      jump\t// out\n        /* \"#utility.yul\":13351:13527   */\n    tag_361:\n        /* \"#utility.yul\":13491:13519   */\n      0x494e53554646494349454e545f4f55545055545f414d4f554e54000000000000\n        /* \"#utility.yul\":13487:13488   */\n      0x00\n        /* \"#utility.yul\":13479:13485   */\n      dup3\n        /* \"#utility.yul\":13475:13489   */\n      add\n        /* \"#utility.yul\":13468:13520   */\n      mstore\n        /* \"#utility.yul\":13351:13527   */\n      pop\n      jump\t// out\n        /* \"#utility.yul\":13533:13899   */\n    tag_362:\n        /* \"#utility.yul\":13675:13678   */\n      0x00\n        /* \"#utility.yul\":13696:13763   */\n      tag_520\n        /* \"#utility.yul\":13760:13762   */\n      0x1a\n        /* \"#utility.yul\":13755:13758   */\n      dup4\n        /* \"#utility.yul\":13696:13763   */\n      tag_334\n      jump\t// in\n    tag_520:\n        /* \"#utility.yul\":13689:13763   */\n      swap2\n      pop\n        /* \"#utility.yul\":13772:13865   */\n      tag_521\n        /* \"#utility.yul\":13861:13864   */\n      dup3\n        /* \"#utility.yul\":13772:13865   */\n      tag_361\n      jump\t// in\n    tag_521:\n        /* \"#utility.yul\":13890:13892   */\n      0x20\n        /* \"#utility.yul\":13885:13888   */\n      dup3\n        /* \"#utility.yul\":13881:13893   */\n      add\n        /* \"#utility.yul\":13874:13893   */\n      swap1\n      pop\n        /* \"#utility.yul\":13533:13899   */\n      swap2\n      swap1\n      pop\n      jump\t// out\n        /* \"#utility.yul\":13905:14324   */\n    tag_135:\n        /* \"#utility.yul\":14071:14075   */\n      0x00\n        /* \"#utility.yul\":14109:14111   */\n      0x20\n        /* \"#utility.yul\":14098:14107   */\n      dup3\n        /* \"#utility.yul\":14094:14112   */\n      add\n        /* \"#utility.yul\":14086:14112   */\n      swap1\n      pop\n        /* \"#utility.yul\":14158:14167   */\n      dup2\n        /* \"#utility.yul\":14152:14156   */\n      dup2\n        /* \"#utility.yul\":14148:14168   */\n      sub\n        /* \"#utility.yul\":14144:14145   */\n      0x00\n        /* \"#utility.yul\":14133:14142   */\n      dup4\n        /* \"#utility.yul\":14129:14146   */\n      add\n        /* \"#utility.yul\":14122:14169   */\n      mstore\n        /* \"#utility.yul\":14186:14317   */\n      tag_523\n        /* \"#utility.yul\":14312:14316   */\n      dup2\n        /* \"#utility.yul\":14186:14317   */\n      tag_362\n      jump\t// in\n    tag_523:\n        /* \"#utility.yul\":14178:14317   */\n      swap1\n      pop\n        /* \"#utility.yul\":13905:14324   */\n      swap2\n      swap1\n      pop\n      jump\t// out\n        /* \"#utility.yul\":14330:14493   */\n    tag_363:\n        /* \"#utility.yul\":14470:14485   */\n      0x494e56414c49445f544f4b454e00000000000000000000000000000000000000\n        /* \"#utility.yul\":14466:14467   */\n      0x00\n        /* \"#utility.yul\":14458:14464   */\n      dup3\n        /* \"#utility.yul\":14454:14468   */\n      add\n        /* \"#utility.yul\":14447:14486   */\n      mstore\n        /* \"#utility.yul\":14330:14493   */\n      pop\n      jump\t// out\n        /* \"#utility.yul\":14499:14865   */\n    tag_364:\n        /* \"#utility.yul\":14641:14644   */\n      0x00\n        /* \"#utility.yul\":14662:14729   */\n      tag_526\n        /* \"#utility.yul\":14726:14728   */\n      0x0d\n        /* \"#utility.yul\":14721:14724   */\n      dup4\n        /* \"#utility.yul\":14662:14729   */\n      tag_334\n      jump\t// in\n    tag_526:\n        /* \"#utility.yul\":14655:14729   */\n      swap2\n      pop\n        /* \"#utility.yul\":14738:14831   */\n      tag_527\n        /* \"#utility.yul\":14827:14830   */\n      dup3\n        /* \"#utility.yul\":14738:14831   */\n      tag_363\n      jump\t// in\n    tag_527:\n        /* \"#utility.yul\":14856:14858   */\n      0x20\n        /* \"#utility.yul\":14851:14854   */\n      dup3\n        /* \"#utility.yul\":14847:14859   */\n      add\n        /* \"#utility.yul\":14840:14859   */\n      swap1\n      pop\n        /* \"#utility.yul\":14499:14865   */\n      swap2\n      swap1\n      pop\n      jump\t// out\n        /* \"#utility.yul\":14871:15290   */\n    tag_139:\n        /* \"#utility.yul\":15037:15041   */\n      0x00\n        /* \"#utility.yul\":15075:15077   */\n      0x20\n        /* \"#utility.yul\":15064:15073   */\n      dup3\n        /* \"#utility.yul\":15060:15078   */\n      add\n        /* \"#utility.yul\":15052:15078   */\n      swap1\n      pop\n        /* \"#utility.yul\":15124:15133   */\n      dup2\n        /* \"#utility.yul\":15118:15122   */\n      dup2\n        /* \"#utility.yul\":15114:15134   */\n      sub\n        /* \"#utility.yul\":15110:15111   */\n      0x00\n        /* \"#utility.yul\":15099:15108   */\n      dup4\n        /* \"#utility.yul\":15095:15112   */\n      add\n        /* \"#utility.yul\":15088:15135   */\n      mstore\n        /* \"#utility.yul\":15152:15283   */\n      tag_529\n        /* \"#utility.yul\":15278:15282   */\n      dup2\n        /* \"#utility.yul\":15152:15283   */\n      tag_364\n      jump\t// in\n    tag_529:\n        /* \"#utility.yul\":15144:15283   */\n      swap1\n      pop\n        /* \"#utility.yul\":14871:15290   */\n      swap2\n      swap1\n      pop\n      jump\t// out\n        /* \"#utility.yul\":15296:15414   */\n    tag_365:\n        /* \"#utility.yul\":15383:15407   */\n      tag_531\n        /* \"#utility.yul\":15401:15406   */\n      dup2\n        /* \"#utility.yul\":15383:15407   */\n      tag_339\n      jump\t// in\n    tag_531:\n        /* \"#utility.yul\":15378:15381   */\n      dup3\n        /* \"#utility.yul\":15371:15408   */\n      mstore\n        /* \"#utility.yul\":15296:15414   */\n      pop\n      pop\n      jump\t// out\n        /* \"#utility.yul\":15420:15642   */\n    tag_141:\n        /* \"#utility.yul\":15513:15517   */\n      0x00\n        /* \"#utility.yul\":15551:15553   */\n      0x20\n        /* \"#utility.yul\":15540:15549   */\n      dup3\n        /* \"#utility.yul\":15536:15554   */\n      add\n        /* \"#utility.yul\":15528:15554   */\n      swap1\n      pop\n        /* \"#utility.yul\":15564:15635   */\n      tag_533\n        /* \"#utility.yul\":15632:15633   */\n      0x00\n        /* \"#utility.yul\":15621:15630   */\n      dup4\n        /* \"#utility.yul\":15617:15634   */\n      add\n        /* \"#utility.yul\":15608:15614   */\n      dup5\n        /* \"#utility.yul\":15564:15635   */\n      tag_365\n      jump\t// in\n    tag_533:\n        /* \"#utility.yul\":15420:15642   */\n      swap3\n      swap2\n      pop\n      pop\n      jump\t// out\n        /* \"#utility.yul\":15648:15791   */\n    tag_366:\n        /* \"#utility.yul\":15705:15710   */\n      0x00\n        /* \"#utility.yul\":15736:15742   */\n      dup2\n        /* \"#utility.yul\":15730:15743   */\n      mload\n        /* \"#utility.yul\":15721:15743   */\n      swap1\n      pop\n        /* \"#utility.yul\":15752:15785   */\n      tag_535\n        /* \"#utility.yul\":15779:15784   */\n      dup2\n        /* \"#utility.yul\":15752:15785   */\n      tag_330\n      jump\t// in\n    tag_535:\n        /* \"#utility.yul\":15648:15791   */\n      swap3\n      swap2\n      pop\n      pop\n      jump\t// out\n        /* \"#utility.yul\":15797:16148   */\n    tag_145:\n        /* \"#utility.yul\":15867:15873   */\n      0x00\n        /* \"#utility.yul\":15916:15918   */\n      0x20\n        /* \"#utility.yul\":15904:15913   */\n      dup3\n        /* \"#utility.yul\":15895:15902   */\n      dup5\n        /* \"#utility.yul\":15891:15914   */\n      sub\n        /* \"#utility.yul\":15887:15919   */\n      slt\n        /* \"#utility.yul\":15884:16003   */\n      iszero\n      tag_537\n      jumpi\n        /* \"#utility.yul\":15922:16001   */\n      tag_538\n      tag_327\n      jump\t// in\n    tag_538:\n        /* \"#utility.yul\":15884:16003   */\n    tag_537:\n        /* \"#utility.yul\":16042:16043   */\n      0x00\n        /* \"#utility.yul\":16067:16131   */\n      tag_539\n        /* \"#utility.yul\":16123:16130   */\n      dup5\n        /* \"#utility.yul\":16114:16120   */\n      dup3\n        /* \"#utility.yul\":16103:16112   */\n      dup6\n        /* \"#utility.yul\":16099:16121   */\n      add\n        /* \"#utility.yul\":16067:16131   */\n      tag_366\n      jump\t// in\n    tag_539:\n        /* \"#utility.yul\":16057:16131   */\n      swap2\n      pop\n        /* \"#utility.yul\":16013:16141   */\n      pop\n        /* \"#utility.yul\":15797:16148   */\n      swap3\n      swap2\n      pop\n      pop\n      jump\t// out\n        /* \"#utility.yul\":16154:16596   */\n    tag_155:\n        /* \"#utility.yul\":16303:16307   */\n      0x00\n        /* \"#utility.yul\":16341:16343   */\n      0x60\n        /* \"#utility.yul\":16330:16339   */\n      dup3\n        /* \"#utility.yul\":16326:16344   */\n      add\n        /* \"#utility.yul\":16318:16344   */\n      swap1\n      pop\n        /* \"#utility.yul\":16354:16425   */\n      tag_541\n        /* \"#utility.yul\":16422:16423   */\n      0x00\n        /* \"#utility.yul\":16411:16420   */\n      dup4\n        /* \"#utility.yul\":16407:16424   */\n      add\n        /* \"#utility.yul\":16398:16404   */\n      dup7\n        /* \"#utility.yul\":16354:16425   */\n      tag_365\n      jump\t// in\n    tag_541:\n        /* \"#utility.yul\":16435:16507   */\n      tag_542\n        /* \"#utility.yul\":16503:16505   */\n      0x20\n        /* \"#utility.yul\":16492:16501   */\n      dup4\n        /* \"#utility.yul\":16488:16506   */\n      add\n        /* \"#utility.yul\":16479:16485   */\n      dup6\n        /* \"#utility.yul\":16435:16507   */\n      tag_365\n      jump\t// in\n    tag_542:\n        /* \"#utility.yul\":16517:16589   */\n      tag_543\n        /* \"#utility.yul\":16585:16587   */\n      0x40\n        /* \"#utility.yul\":16574:16583   */\n      dup4\n        /* \"#utility.yul\":16570:16588   */\n      add\n        /* \"#utility.yul\":16561:16567   */\n      dup5\n        /* \"#utility.yul\":16517:16589   */\n      tag_332\n      jump\t// in\n    tag_543:\n        /* \"#utility.yul\":16154:16596   */\n      swap5\n      swap4\n      pop\n      pop\n      pop\n      pop\n      jump\t// out\n        /* \"#utility.yul\":16602:16718   */\n    tag_367:\n        /* \"#utility.yul\":16672:16693   */\n      tag_545\n        /* \"#utility.yul\":16687:16692   */\n      dup2\n        /* \"#utility.yul\":16672:16693   */\n      tag_342\n      jump\t// in\n    tag_545:\n        /* \"#utility.yul\":16665:16670   */\n      dup2\n        /* \"#utility.yul\":16662:16694   */\n      eq\n        /* \"#utility.yul\":16652:16712   */\n      tag_546\n      jumpi\n        /* \"#utility.yul\":16708:16709   */\n      0x00\n        /* \"#utility.yul\":16705:16706   */\n      dup1\n        /* \"#utility.yul\":16698:16710   */\n      revert\n        /* \"#utility.yul\":16652:16712   */\n    tag_546:\n        /* \"#utility.yul\":16602:16718   */\n      pop\n      jump\t// out\n        /* \"#utility.yul\":16724:16861   */\n    tag_368:\n        /* \"#utility.yul\":16778:16783   */\n      0x00\n        /* \"#utility.yul\":16809:16815   */\n      dup2\n        /* \"#utility.yul\":16803:16816   */\n      mload\n        /* \"#utility.yul\":16794:16816   */\n      swap1\n      pop\n        /* \"#utility.yul\":16825:16855   */\n      tag_548\n        /* \"#utility.yul\":16849:16854   */\n      dup2\n        /* \"#utility.yul\":16825:16855   */\n      tag_367\n      jump\t// in\n    tag_548:\n        /* \"#utility.yul\":16724:16861   */\n      swap3\n      swap2\n      pop\n      pop\n      jump\t// out\n        /* \"#utility.yul\":16867:17212   */\n    tag_159:\n        /* \"#utility.yul\":16934:16940   */\n      0x00\n        /* \"#utility.yul\":16983:16985   */\n      0x20\n        /* \"#utility.yul\":16971:16980   */\n      dup3\n        /* \"#utility.yul\":16962:16969   */\n      dup5\n        /* \"#utility.yul\":16958:16981   */\n      sub\n        /* \"#utility.yul\":16954:16986   */\n      slt\n        /* \"#utility.yul\":16951:17070   */\n      iszero\n      tag_550\n      jumpi\n        /* \"#utility.yul\":16989:17068   */\n      tag_551\n      tag_327\n      jump\t// in\n    tag_551:\n        /* \"#utility.yul\":16951:17070   */\n    tag_550:\n        /* \"#utility.yul\":17109:17110   */\n      0x00\n        /* \"#utility.yul\":17134:17195   */\n      tag_552\n        /* \"#utility.yul\":17187:17194   */\n      dup5\n        /* \"#utility.yul\":17178:17184   */\n      dup3\n        /* \"#utility.yul\":17167:17176   */\n      dup6\n        /* \"#utility.yul\":17163:17185   */\n      add\n        /* \"#utility.yul\":17134:17195   */\n      tag_368\n      jump\t// in\n    tag_552:\n        /* \"#utility.yul\":17124:17195   */\n      swap2\n      pop\n        /* \"#utility.yul\":17080:17205   */\n      pop\n        /* \"#utility.yul\":16867:17212   */\n      swap3\n      swap2\n      pop\n      pop\n      jump\t// out\n        /* \"#utility.yul\":17218:17550   */\n    tag_161:\n        /* \"#utility.yul\":17339:17343   */\n      0x00\n        /* \"#utility.yul\":17377:17379   */\n      0x40\n        /* \"#utility.yul\":17366:17375   */\n      dup3\n        /* \"#utility.yul\":17362:17380   */\n      add\n        /* \"#utility.yul\":17354:17380   */\n      swap1\n      pop\n        /* \"#utility.yul\":17390:17461   */\n      tag_554\n        /* \"#utility.yul\":17458:17459   */\n      0x00\n        /* \"#utility.yul\":17447:17456   */\n      dup4\n        /* \"#utility.yul\":17443:17460   */\n      add\n        /* \"#utility.yul\":17434:17440   */\n      dup6\n        /* \"#utility.yul\":17390:17461   */\n      tag_365\n      jump\t// in\n    tag_554:\n        /* \"#utility.yul\":17471:17543   */\n      tag_555\n        /* \"#utility.yul\":17539:17541   */\n      0x20\n        /* \"#utility.yul\":17528:17537   */\n      dup4\n        /* \"#utility.yul\":17524:17542   */\n      add\n        /* \"#utility.yul\":17515:17521   */\n      dup5\n        /* \"#utility.yul\":17471:17543   */\n      tag_332\n      jump\t// in\n    tag_555:\n        /* \"#utility.yul\":17218:17550   */\n      swap4\n      swap3\n      pop\n      pop\n      pop\n      jump\t// out\n        /* \"#utility.yul\":17556:18109   */\n    tag_186:\n        /* \"#utility.yul\":17733:17737   */\n      0x00\n        /* \"#utility.yul\":17771:17774   */\n      0x80\n        /* \"#utility.yul\":17760:17769   */\n      dup3\n        /* \"#utility.yul\":17756:17775   */\n      add\n        /* \"#utility.yul\":17748:17775   */\n      swap1\n      pop\n        /* \"#utility.yul\":17785:17856   */\n      tag_557\n        /* \"#utility.yul\":17853:17854   */\n      0x00\n        /* \"#utility.yul\":17842:17851   */\n      dup4\n        /* \"#utility.yul\":17838:17855   */\n      add\n        /* \"#utility.yul\":17829:17835   */\n      dup8\n        /* \"#utility.yul\":17785:17856   */\n      tag_332\n      jump\t// in\n    tag_557:\n        /* \"#utility.yul\":17866:17938   */\n      tag_558\n        /* \"#utility.yul\":17934:17936   */\n      0x20\n        /* \"#utility.yul\":17923:17932   */\n      dup4\n        /* \"#utility.yul\":17919:17937   */\n      add\n        /* \"#utility.yul\":17910:17916   */\n      dup7\n        /* \"#utility.yul\":17866:17938   */\n      tag_365\n      jump\t// in\n    tag_558:\n        /* \"#utility.yul\":17948:18020   */\n      tag_559\n        /* \"#utility.yul\":18016:18018   */\n      0x40\n        /* \"#utility.yul\":18005:18014   */\n      dup4\n        /* \"#utility.yul\":18001:18019   */\n      add\n        /* \"#utility.yul\":17992:17998   */\n      dup6\n        /* \"#utility.yul\":17948:18020   */\n      tag_332\n      jump\t// in\n    tag_559:\n        /* \"#utility.yul\":18030:18102   */\n      tag_560\n        /* \"#utility.yul\":18098:18100   */\n      0x60\n        /* \"#utility.yul\":18087:18096   */\n      dup4\n        /* \"#utility.yul\":18083:18101   */\n      add\n        /* \"#utility.yul\":18074:18080   */\n      dup5\n        /* \"#utility.yul\":18030:18102   */\n      tag_365\n      jump\t// in\n    tag_560:\n        /* \"#utility.yul\":17556:18109   */\n      swap6\n      swap5\n      pop\n      pop\n      pop\n      pop\n      pop\n      jump\t// out\n        /* \"#utility.yul\":18115:18294   */\n    tag_369:\n        /* \"#utility.yul\":18255:18286   */\n      0x494e53554646494349454e545f4c49515549444954595f4255524e4544000000\n        /* \"#utility.yul\":18251:18252   */\n      0x00\n        /* \"#utility.yul\":18243:18249   */\n      dup3\n        /* \"#utility.yul\":18239:18253   */\n      add\n        /* \"#utility.yul\":18232:18287   */\n      mstore\n        /* \"#utility.yul\":18115:18294   */\n      pop\n      jump\t// out\n        /* \"#utility.yul\":18300:18666   */\n    tag_370:\n        /* \"#utility.yul\":18442:18445   */\n      0x00\n        /* \"#utility.yul\":18463:18530   */\n      tag_563\n        /* \"#utility.yul\":18527:18529   */\n      0x1d\n        /* \"#utility.yul\":18522:18525   */\n      dup4\n        /* \"#utility.yul\":18463:18530   */\n      tag_334\n      jump\t// in\n    tag_563:\n        /* \"#utility.yul\":18456:18530   */\n      swap2\n      pop\n        /* \"#utility.yul\":18539:18632   */\n      tag_564\n        /* \"#utility.yul\":18628:18631   */\n      dup3\n        /* \"#utility.yul\":18539:18632   */\n      tag_369\n      jump\t// in\n    tag_564:\n        /* \"#utility.yul\":18657:18659   */\n      0x20\n        /* \"#utility.yul\":18652:18655   */\n      dup3\n        /* \"#utility.yul\":18648:18660   */\n      add\n        /* \"#utility.yul\":18641:18660   */\n      swap1\n      pop\n        /* \"#utility.yul\":18300:18666   */\n      swap2\n      swap1\n      pop\n      jump\t// out\n        /* \"#utility.yul\":18672:19091   */\n    tag_211:\n        /* \"#utility.yul\":18838:18842   */\n      0x00\n        /* \"#utility.yul\":18876:18878   */\n      0x20\n        /* \"#utility.yul\":18865:18874   */\n      dup3\n        /* \"#utility.yul\":18861:18879   */\n      add\n        /* \"#utility.yul\":18853:18879   */\n      swap1\n      pop\n        /* \"#utility.yul\":18925:18934   */\n      dup2\n        /* \"#utility.yul\":18919:18923   */\n      dup2\n        /* \"#utility.yul\":18915:18935   */\n      sub\n        /* \"#utility.yul\":18911:18912   */\n      0x00\n        /* \"#utility.yul\":18900:18909   */\n      dup4\n        /* \"#utility.yul\":18896:18913   */\n      add\n        /* \"#utility.yul\":18889:18936   */\n      mstore\n        /* \"#utility.yul\":18953:19084   */\n      tag_566\n        /* \"#utility.yul\":19079:19083   */\n      dup2\n        /* \"#utility.yul\":18953:19084   */\n      tag_370\n      jump\t// in\n    tag_566:\n        /* \"#utility.yul\":18945:19084   */\n      swap1\n      pop\n        /* \"#utility.yul\":18672:19091   */\n      swap2\n      swap1\n      pop\n      jump\t// out\n        /* \"#utility.yul\":19097:19276   */\n    tag_371:\n        /* \"#utility.yul\":19237:19268   */\n      0x494e53554646494349454e545f4c49515549444954595f4d494e544544000000\n        /* \"#utility.yul\":19233:19234   */\n      0x00\n        /* \"#utility.yul\":19225:19231   */\n      dup3\n        /* \"#utility.yul\":19221:19235   */\n      add\n        /* \"#utility.yul\":19214:19269   */\n      mstore\n        /* \"#utility.yul\":19097:19276   */\n      pop\n      jump\t// out\n        /* \"#utility.yul\":19282:19648   */\n    tag_372:\n        /* \"#utility.yul\":19424:19427   */\n      0x00\n        /* \"#utility.yul\":19445:19512   */\n      tag_569\n        /* \"#utility.yul\":19509:19511   */\n      0x1d\n        /* \"#utility.yul\":19504:19507   */\n      dup4\n        /* \"#utility.yul\":19445:19512   */\n      tag_334\n      jump\t// in\n    tag_569:\n        /* \"#utility.yul\":19438:19512   */\n      swap2\n      pop\n        /* \"#utility.yul\":19521:19614   */\n      tag_570\n        /* \"#utility.yul\":19610:19613   */\n      dup3\n        /* \"#utility.yul\":19521:19614   */\n      tag_371\n      jump\t// in\n    tag_570:\n        /* \"#utility.yul\":19639:19641   */\n      0x20\n        /* \"#utility.yul\":19634:19637   */\n      dup3\n        /* \"#utility.yul\":19630:19642   */\n      add\n        /* \"#utility.yul\":19623:19642   */\n      swap1\n      pop\n        /* \"#utility.yul\":19282:19648   */\n      swap2\n      swap1\n      pop\n      jump\t// out\n        /* \"#utility.yul\":19654:20073   */\n    tag_254:\n        /* \"#utility.yul\":19820:19824   */\n      0x00\n        /* \"#utility.yul\":19858:19860   */\n      0x20\n        /* \"#utility.yul\":19847:19856   */\n      dup3\n        /* \"#utility.yul\":19843:19861   */\n      add\n        /* \"#utility.yul\":19835:19861   */\n      swap1\n      pop\n        /* \"#utility.yul\":19907:19916   */\n      dup2\n        /* \"#utility.yul\":19901:19905   */\n      dup2\n        /* \"#utility.yul\":19897:19917   */\n      sub\n        /* \"#utility.yul\":19893:19894   */\n      0x00\n        /* \"#utility.yul\":19882:19891   */\n      dup4\n        /* \"#utility.yul\":19878:19895   */\n      add\n        /* \"#utility.yul\":19871:19918   */\n      mstore\n        /* \"#utility.yul\":19935:20066   */\n      tag_572\n        /* \"#utility.yul\":20061:20065   */\n      dup2\n        /* \"#utility.yul\":19935:20066   */\n      tag_372\n      jump\t// in\n    tag_572:\n        /* \"#utility.yul\":19927:20066   */\n      swap1\n      pop\n        /* \"#utility.yul\":19654:20073   */\n      swap2\n      swap1\n      pop\n      jump\t// out\n        /* \"#utility.yul\":20079:20521   */\n    tag_279:\n        /* \"#utility.yul\":20228:20232   */\n      0x00\n        /* \"#utility.yul\":20266:20268   */\n      0x60\n        /* \"#utility.yul\":20255:20264   */\n      dup3\n        /* \"#utility.yul\":20251:20269   */\n      add\n        /* \"#utility.yul\":20243:20269   */\n      swap1\n      pop\n        /* \"#utility.yul\":20279:20350   */\n      tag_574\n        /* \"#utility.yul\":20347:20348   */\n      0x00\n        /* \"#utility.yul\":20336:20345   */\n      dup4\n        /* \"#utility.yul\":20332:20349   */\n      add\n        /* \"#utility.yul\":20323:20329   */\n      dup7\n        /* \"#utility.yul\":20279:20350   */\n      tag_365\n      jump\t// in\n    tag_574:\n        /* \"#utility.yul\":20360:20432   */\n      tag_575\n        /* \"#utility.yul\":20428:20430   */\n      0x20\n        /* \"#utility.yul\":20417:20426   */\n      dup4\n        /* \"#utility.yul\":20413:20431   */\n      add\n        /* \"#utility.yul\":20404:20410   */\n      dup6\n        /* \"#utility.yul\":20360:20432   */\n      tag_332\n      jump\t// in\n    tag_575:\n        /* \"#utility.yul\":20442:20514   */\n      tag_576\n        /* \"#utility.yul\":20510:20512   */\n      0x40\n        /* \"#utility.yul\":20499:20508   */\n      dup4\n        /* \"#utility.yul\":20495:20513   */\n      add\n        /* \"#utility.yul\":20486:20492   */\n      dup5\n        /* \"#utility.yul\":20442:20514   */\n      tag_332\n      jump\t// in\n    tag_576:\n        /* \"#utility.yul\":20079:20521   */\n      swap5\n      swap4\n      pop\n      pop\n      pop\n      pop\n      jump\t// out\n\n    auxdata: 0xa2646970667358221220743614cab18a005822ed9f25db48c93c1731b75cc852d7742d10d4ddffdb949264736f6c634300081a0033\n}\n",
				"bytecode": {
					"linkReferences": {},
					"object": "608060405234801561000f575f80fd5b50604051612cdb380380612cdb833981810160405281019061003191906101b5565b6040518060400160405280600a81526020017f53696d706c6553776170000000000000000000000000000000000000000000008152506040518060400160405280600281526020017f535300000000000000000000000000000000000000000000000000000000000081525081600390816100ac919061042d565b5080600490816100bc919061042d565b5050508160055f6101000a81548173ffffffffffffffffffffffffffffffffffffffff021916908373ffffffffffffffffffffffffffffffffffffffff1602179055508060065f6101000a81548173ffffffffffffffffffffffffffffffffffffffff021916908373ffffffffffffffffffffffffffffffffffffffff16021790555050506104fc565b5f80fd5b5f73ffffffffffffffffffffffffffffffffffffffff82169050919050565b5f6101738261014a565b9050919050565b5f61018482610169565b9050919050565b6101948161017a565b811461019e575f80fd5b50565b5f815190506101af8161018b565b92915050565b5f80604083850312156101cb576101ca610146565b5b5f6101d8858286016101a1565b92505060206101e9858286016101a1565b9150509250929050565b5f81519050919050565b7f4e487b71000000000000000000000000000000000000000000000000000000005f52604160045260245ffd5b7f4e487b71000000000000000000000000000000000000000000000000000000005f52602260045260245ffd5b5f600282049050600182168061026e57607f821691505b6020821081036102815761028061022a565b5b50919050565b5f819050815f5260205f209050919050565b5f6020601f8301049050919050565b5f82821b905092915050565b5f600883026102e37fffffffffffffffffffffffffffffffffffffffffffffffffffffffffffffffff826102a8565b6102ed86836102a8565b95508019841693508086168417925050509392505050565b5f819050919050565b5f819050919050565b5f61033161032c61032784610305565b61030e565b610305565b9050919050565b5f819050919050565b61034a83610317565b61035e61035682610338565b8484546102b4565b825550505050565b5f90565b610372610366565b61037d818484610341565b505050565b5b818110156103a0576103955f8261036a565b600181019050610383565b5050565b601f8211156103e5576103b681610287565b6103bf84610299565b810160208510156103ce578190505b6103e26103da85610299565b830182610382565b50505b505050565b5f82821c905092915050565b5f6104055f19846008026103ea565b1980831691505092915050565b5f61041d83836103f6565b9150826002028217905092915050565b610436826101f3565b67ffffffffffffffff81111561044f5761044e6101fd565b5b6104598254610257565b6104648282856103a4565b5f60209050601f831160018114610495575f8415610483578287015190505b61048d8582610412565b8655506104f4565b601f1984166104a386610287565b5f5b828110156104ca578489015182556001820191506020850194506020810190506104a5565b868310156104e757848901516104e3601f8916826103f6565b8355505b6001600288020188555050505b505050505050565b6127d2806105095f395ff3fe608060405234801561000f575f80fd5b5060043610610109575f3560e01c8063443cb4bc116100a05780639c8f9f231161006f5780639c8f9f23146102d05780639cd441da14610301578063a9059cbb14610331578063d21220a714610361578063dd62ed3e1461037f57610109565b8063443cb4bc146102465780635a76f25e1461026457806370a082311461028257806395d89b41146102b257610109565b806318160ddd116100dc57806318160ddd146101a957806323b872dd146101c7578063313ce567146101f7578063432643491461021557610109565b8063054d50d41461010d57806306fdde031461013d578063095ea7b31461015b5780630dfe16811461018b575b5f80fd5b61012760048036038101906101229190611dcb565b6103af565b6040516101349190611e2a565b60405180910390f35b61014561046a565b6040516101529190611eb3565b60405180910390f35b61017560048036038101906101709190611f2d565b6104fa565b6040516101829190611f85565b60405180910390f35b61019361051c565b6040516101a09190611ff9565b60405180910390f35b6101b1610541565b6040516101be9190611e2a565b60405180910390f35b6101e160048036038101906101dc9190612012565b61054a565b6040516101ee9190611f85565b60405180910390f35b6101ff610578565b60405161020c919061207d565b60405180910390f35b61022f600480360381019061022a91906120d1565b610580565b60405161023d929190612121565b60405180910390f35b61024e610cb2565b60405161025b9190611e2a565b60405180910390f35b61026c610cb8565b6040516102799190611e2a565b60405180910390f35b61029c60048036038101906102979190612148565b610cbe565b6040516102a99190611e2a565b60405180910390f35b6102ba610d03565b6040516102c79190611eb3565b60405180910390f35b6102ea60048036038101906102e59190612173565b610d93565b6040516102f892919061219e565b60405180910390f35b61031b600480360381019061031691906121c5565b611231565b6040516103289190611e2a565b60405180910390f35b61034b60048036038101906103469190611f2d565b6115bb565b6040516103589190611f85565b60405180910390f35b6103696115dd565b6040516103769190611ff9565b60405180910390f35b61039960048036038101906103949190612203565b611602565b6040516103a69190611e2a565b60405180910390f35b5f8084116103f2576040517f08c379a00000000000000000000000000000000000000000000000000000000081526004016103e99061228b565b60405180910390fd5b5f8311801561040057505f82115b61043f576040517f08c379a0000000000000000000000000000000000000000000000000000000008152600401610436906122f3565b60405180910390fd5b838361044b919061233e565b82856104579190612371565b61046191906123df565b90509392505050565b6060600380546104799061243c565b80601f01602080910402602001604051908101604052809291908181526020018280546104a59061243c565b80156104f05780601f106104c7576101008083540402835291602001916104f0565b820191905f5260205f20905b8154815290600101906020018083116104d357829003601f168201915b5050505050905090565b5f80610504611684565b905061051181858561168b565b600191505092915050565b60055f9054906101000a900473ffffffffffffffffffffffffffffffffffffffff1681565b5f600254905090565b5f80610554611684565b905061056185828561169d565b61056c85858561172f565b60019150509392505050565b5f6012905090565b5f805f85116105c4576040517f08c379a00000000000000000000000000000000000000000000000000000000081526004016105bb906124b6565b60405180910390fd5b60055f9054906101000a900473ffffffffffffffffffffffffffffffffffffffff1673ffffffffffffffffffffffffffffffffffffffff168473ffffffffffffffffffffffffffffffffffffffff16148061066b575060065f9054906101000a900473ffffffffffffffffffffffffffffffffffffffff1673ffffffffffffffffffffffffffffffffffffffff168473ffffffffffffffffffffffffffffffffffffffff16145b6106aa576040517f08c379a00000000000000000000000000000000000000000000000000000000081526004016106a19061251e565b60405180910390fd5b5f60055f9054906101000a900473ffffffffffffffffffffffffffffffffffffffff1673ffffffffffffffffffffffffffffffffffffffff166370a08231306040518263ffffffff1660e01b8152600401610705919061254b565b602060405180830381865afa158015610720573d5f803e3d5ffd5b505050506040513d601f19601f820116820180604052508101906107449190612578565b90505f60065f9054906101000a900473ffffffffffffffffffffffffffffffffffffffff1673ffffffffffffffffffffffffffffffffffffffff166370a08231306040518263ffffffff1660e01b81526004016107a1919061254b565b602060405180830381865afa1580156107bc573d5f803e3d5ffd5b505050506040513d601f19601f820116820180604052508101906107e09190612578565b905060055f9054906101000a900473ffffffffffffffffffffffffffffffffffffffff1673ffffffffffffffffffffffffffffffffffffffff168673ffffffffffffffffffffffffffffffffffffffff16036109a85760065f9054906101000a900473ffffffffffffffffffffffffffffffffffffffff1692506108658783836103af565b93508484116108a9576040517f08c379a00000000000000000000000000000000000000000000000000000000081526004016108a0906124b6565b60405180910390fd5b8573ffffffffffffffffffffffffffffffffffffffff166323b872dd33308a6040518463ffffffff1660e01b81526004016108e6939291906125a3565b6020604051808303815f875af1158015610902573d5f803e3d5ffd5b505050506040513d601f19601f820116820180604052508101906109269190612602565b508273ffffffffffffffffffffffffffffffffffffffff1663a9059cbb33866040518363ffffffff1660e01b815260040161096292919061262d565b6020604051808303815f875af115801561097e573d5f803e3d5ffd5b505050506040513d601f19601f820116820180604052508101906109a29190612602565b50610b16565b60055f9054906101000a900473ffffffffffffffffffffffffffffffffffffffff1692506109d78782846103af565b9350848411610a1b576040517f08c379a0000000000000000000000000000000000000000000000000000000008152600401610a12906124b6565b60405180910390fd5b8573ffffffffffffffffffffffffffffffffffffffff166323b872dd33308a6040518463ffffffff1660e01b8152600401610a58939291906125a3565b6020604051808303815f875af1158015610a74573d5f803e3d5ffd5b505050506040513d601f19601f82011682018060405250810190610a989190612602565b508273ffffffffffffffffffffffffffffffffffffffff1663a9059cbb33866040518363ffffffff1660e01b8152600401610ad492919061262d565b6020604051808303815f875af1158015610af0573d5f803e3d5ffd5b505050506040513d601f19601f82011682018060405250810190610b149190612602565b505b60055f9054906101000a900473ffffffffffffffffffffffffffffffffffffffff1673ffffffffffffffffffffffffffffffffffffffff166370a08231306040518263ffffffff1660e01b8152600401610b70919061254b565b602060405180830381865afa158015610b8b573d5f803e3d5ffd5b505050506040513d601f19601f82011682018060405250810190610baf9190612578565b60078190555060065f9054906101000a900473ffffffffffffffffffffffffffffffffffffffff1673ffffffffffffffffffffffffffffffffffffffff166370a08231306040518263ffffffff1660e01b8152600401610c0f919061254b565b602060405180830381865afa158015610c2a573d5f803e3d5ffd5b505050506040513d601f19601f82011682018060405250810190610c4e9190612578565b6008819055503373ffffffffffffffffffffffffffffffffffffffff167f24043855bfbfea0ccea141e5a73d7116bf0bfe083ea900a791f4b407ff03e52588888787604051610ca09493929190612654565b60405180910390a25050935093915050565b60075481565b60085481565b5f805f8373ffffffffffffffffffffffffffffffffffffffff1673ffffffffffffffffffffffffffffffffffffffff1681526020019081526020015f20549050919050565b606060048054610d129061243c565b80601f0160208091040260200160405190810160405280929190818152602001828054610d3e9061243c565b8015610d895780601f10610d6057610100808354040283529160200191610d89565b820191905f5260205f20905b815481529060010190602001808311610d6c57829003601f168201915b5050505050905090565b5f805f60055f9054906101000a900473ffffffffffffffffffffffffffffffffffffffff1673ffffffffffffffffffffffffffffffffffffffff166370a08231306040518263ffffffff1660e01b8152600401610df0919061254b565b602060405180830381865afa158015610e0b573d5f803e3d5ffd5b505050506040513d601f19601f82011682018060405250810190610e2f9190612578565b90505f60065f9054906101000a900473ffffffffffffffffffffffffffffffffffffffff1673ffffffffffffffffffffffffffffffffffffffff166370a08231306040518263ffffffff1660e01b8152600401610e8c919061254b565b602060405180830381865afa158015610ea7573d5f803e3d5ffd5b505050506040513d601f19601f82011682018060405250810190610ecb9190612578565b90505f610ed6610541565b9050808387610ee59190612371565b610eef91906123df565b9450808287610efe9190612371565b610f0891906123df565b93505f85118015610f1857505f84115b610f57576040517f08c379a0000000000000000000000000000000000000000000000000000000008152600401610f4e906126e1565b60405180910390fd5b610f61338761181f565b60055f9054906101000a900473ffffffffffffffffffffffffffffffffffffffff1673ffffffffffffffffffffffffffffffffffffffff1663a9059cbb33876040518363ffffffff1660e01b8152600401610fbd92919061262d565b6020604051808303815f875af1158015610fd9573d5f803e3d5ffd5b505050506040513d601f19601f82011682018060405250810190610ffd9190612602565b5060065f9054906101000a900473ffffffffffffffffffffffffffffffffffffffff1673ffffffffffffffffffffffffffffffffffffffff1663a9059cbb33866040518363ffffffff1660e01b815260040161105a92919061262d565b6020604051808303815f875af1158015611076573d5f803e3d5ffd5b505050506040513d601f19601f8201168201806040525081019061109a9190612602565b5060055f9054906101000a900473ffffffffffffffffffffffffffffffffffffffff1673ffffffffffffffffffffffffffffffffffffffff166370a08231306040518263ffffffff1660e01b81526004016110f5919061254b565b602060405180830381865afa158015611110573d5f803e3d5ffd5b505050506040513d601f19601f820116820180604052508101906111349190612578565b60078190555060065f9054906101000a900473ffffffffffffffffffffffffffffffffffffffff1673ffffffffffffffffffffffffffffffffffffffff166370a08231306040518263ffffffff1660e01b8152600401611194919061254b565b602060405180830381865afa1580156111af573d5f803e3d5ffd5b505050506040513d601f19601f820116820180604052508101906111d39190612578565b6008819055503373ffffffffffffffffffffffffffffffffffffffff167f49995e5dd6158cf69ad3e9777c46755a1a826a446c6416992167462dad033b2a868660405161122192919061219e565b60405180910390a2505050915091565b5f60055f9054906101000a900473ffffffffffffffffffffffffffffffffffffffff1673ffffffffffffffffffffffffffffffffffffffff166323b872dd3330866040518463ffffffff1660e01b8152600401611290939291906125a3565b6020604051808303815f875af11580156112ac573d5f803e3d5ffd5b505050506040513d601f19601f820116820180604052508101906112d09190612602565b5060065f9054906101000a900473ffffffffffffffffffffffffffffffffffffffff1673ffffffffffffffffffffffffffffffffffffffff166323b872dd3330856040518463ffffffff1660e01b815260040161132f939291906125a3565b6020604051808303815f875af115801561134b573d5f803e3d5ffd5b505050506040513d601f19601f8201168201806040525081019061136f9190612602565b505f611379610541565b90505f810361139d5761139683856113919190612371565b61189e565b91506113da565b6113d760075482866113af9190612371565b6113b991906123df565b60085483866113c89190612371565b6113d291906123df565b611915565b91505b5f821161141c576040517f08c379a000000000000000000000000000000000000000000000000000000000815260040161141390612749565b60405180910390fd5b60055f9054906101000a900473ffffffffffffffffffffffffffffffffffffffff1673ffffffffffffffffffffffffffffffffffffffff166370a08231306040518263ffffffff1660e01b8152600401611476919061254b565b602060405180830381865afa158015611491573d5f803e3d5ffd5b505050506040513d601f19601f820116820180604052508101906114b59190612578565b60078190555060065f9054906101000a900473ffffffffffffffffffffffffffffffffffffffff1673ffffffffffffffffffffffffffffffffffffffff166370a08231306040518263ffffffff1660e01b8152600401611515919061254b565b602060405180830381865afa158015611530573d5f803e3d5ffd5b505050506040513d601f19601f820116820180604052508101906115549190612578565b600881905550611564338361192d565b3373ffffffffffffffffffffffffffffffffffffffff167f4c209b5fc8ad50758f13e2e1088ba56a560dff690a1c6fef26394f4c03821c4f85856040516115ac92919061219e565b60405180910390a25092915050565b5f806115c5611684565b90506115d281858561172f565b600191505092915050565b60065f9054906101000a900473ffffffffffffffffffffffffffffffffffffffff1681565b5f60015f8473ffffffffffffffffffffffffffffffffffffffff1673ffffffffffffffffffffffffffffffffffffffff1681526020019081526020015f205f8373ffffffffffffffffffffffffffffffffffffffff1673ffffffffffffffffffffffffffffffffffffffff1681526020019081526020015f2054905092915050565b5f33905090565b61169883838360016119ac565b505050565b5f6116a88484611602565b90507fffffffffffffffffffffffffffffffffffffffffffffffffffffffffffffffff8114611729578181101561171a578281836040517ffb8f41b200000000000000000000000000000000000000000000000000000000815260040161171193929190612767565b60405180910390fd5b61172884848484035f6119ac565b5b50505050565b5f73ffffffffffffffffffffffffffffffffffffffff168373ffffffffffffffffffffffffffffffffffffffff160361179f575f6040517f96c6fd1e000000000000000000000000000000000000000000000000000000008152600401611796919061254b565b60405180910390fd5b5f73ffffffffffffffffffffffffffffffffffffffff168273ffffffffffffffffffffffffffffffffffffffff160361180f575f6040517fec442f05000000000000000000000000000000000000000000000000000000008152600401611806919061254b565b60405180910390fd5b61181a838383611b7b565b505050565b5f73ffffffffffffffffffffffffffffffffffffffff168273ffffffffffffffffffffffffffffffffffffffff160361188f575f6040517f96c6fd1e000000000000000000000000000000000000000000000000000000008152600401611886919061254b565b60405180910390fd5b61189a825f83611b7b565b5050565b5f6003821115611903578190505f60016002846118bb91906123df565b6118c5919061233e565b90505b818110156118fd5780915060028182856118e291906123df565b6118ec919061233e565b6118f691906123df565b90506118c8565b50611910565b5f821461190f57600190505b5b919050565b5f8183106119235781611925565b825b905092915050565b5f73ffffffffffffffffffffffffffffffffffffffff168273ffffffffffffffffffffffffffffffffffffffff160361199d575f6040517fec442f05000000000000000000000000000000000000000000000000000000008152600401611994919061254b565b60405180910390fd5b6119a85f8383611b7b565b5050565b5f73ffffffffffffffffffffffffffffffffffffffff168473ffffffffffffffffffffffffffffffffffffffff1603611a1c575f6040517fe602df05000000000000000000000000000000000000000000000000000000008152600401611a13919061254b565b60405180910390fd5b5f73ffffffffffffffffffffffffffffffffffffffff168373ffffffffffffffffffffffffffffffffffffffff1603611a8c575f6040517f94280d62000000000000000000000000000000000000000000000000000000008152600401611a83919061254b565b60405180910390fd5b8160015f8673ffffffffffffffffffffffffffffffffffffffff1673ffffffffffffffffffffffffffffffffffffffff1681526020019081526020015f205f8573ffffffffffffffffffffffffffffffffffffffff1673ffffffffffffffffffffffffffffffffffffffff1681526020019081526020015f20819055508015611b75578273ffffffffffffffffffffffffffffffffffffffff168473ffffffffffffffffffffffffffffffffffffffff167f8c5be1e5ebec7d5bd14f71427d1e84f3dd0314c0f7b2291e5b200ac8c7c3b92584604051611b6c9190611e2a565b60405180910390a35b50505050565b5f73ffffffffffffffffffffffffffffffffffffffff168373ffffffffffffffffffffffffffffffffffffffff1603611bcb578060025f828254611bbf919061233e565b92505081905550611c99565b5f805f8573ffffffffffffffffffffffffffffffffffffffff1673ffffffffffffffffffffffffffffffffffffffff1681526020019081526020015f2054905081811015611c54578381836040517fe450d38c000000000000000000000000000000000000000000000000000000008152600401611c4b93929190612767565b60405180910390fd5b8181035f808673ffffffffffffffffffffffffffffffffffffffff1673ffffffffffffffffffffffffffffffffffffffff1681526020019081526020015f2081905550505b5f73ffffffffffffffffffffffffffffffffffffffff168273ffffffffffffffffffffffffffffffffffffffff1603611ce0578060025f8282540392505081905550611d2a565b805f808473ffffffffffffffffffffffffffffffffffffffff1673ffffffffffffffffffffffffffffffffffffffff1681526020019081526020015f205f82825401925050819055505b8173ffffffffffffffffffffffffffffffffffffffff168373ffffffffffffffffffffffffffffffffffffffff167fddf252ad1be2c89b69c2b068fc378daa952ba7f163c4a11628f55a4df523b3ef83604051611d879190611e2a565b60405180910390a3505050565b5f80fd5b5f819050919050565b611daa81611d98565b8114611db4575f80fd5b50565b5f81359050611dc581611da1565b92915050565b5f805f60608486031215611de257611de1611d94565b5b5f611def86828701611db7565b9350506020611e0086828701611db7565b9250506040611e1186828701611db7565b9150509250925092565b611e2481611d98565b82525050565b5f602082019050611e3d5f830184611e1b565b92915050565b5f81519050919050565b5f82825260208201905092915050565b8281835e5f83830152505050565b5f601f19601f8301169050919050565b5f611e8582611e43565b611e8f8185611e4d565b9350611e9f818560208601611e5d565b611ea881611e6b565b840191505092915050565b5f6020820190508181035f830152611ecb8184611e7b565b905092915050565b5f73ffffffffffffffffffffffffffffffffffffffff82169050919050565b5f611efc82611ed3565b9050919050565b611f0c81611ef2565b8114611f16575f80fd5b50565b5f81359050611f2781611f03565b92915050565b5f8060408385031215611f4357611f42611d94565b5b5f611f5085828601611f19565b9250506020611f6185828601611db7565b9150509250929050565b5f8115159050919050565b611f7f81611f6b565b82525050565b5f602082019050611f985f830184611f76565b92915050565b5f819050919050565b5f611fc1611fbc611fb784611ed3565b611f9e565b611ed3565b9050919050565b5f611fd282611fa7565b9050919050565b5f611fe382611fc8565b9050919050565b611ff381611fd9565b82525050565b5f60208201905061200c5f830184611fea565b92915050565b5f805f6060848603121561202957612028611d94565b5b5f61203686828701611f19565b935050602061204786828701611f19565b925050604061205886828701611db7565b9150509250925092565b5f60ff82169050919050565b61207781612062565b82525050565b5f6020820190506120905f83018461206e565b92915050565b5f6120a082611ef2565b9050919050565b6120b081612096565b81146120ba575f80fd5b50565b5f813590506120cb816120a7565b92915050565b5f805f606084860312156120e8576120e7611d94565b5b5f6120f586828701611db7565b9350506020612106868287016120bd565b925050604061211786828701611db7565b9150509250925092565b5f6040820190506121345f830185611e1b565b6121416020830184611fea565b9392505050565b5f6020828403121561215d5761215c611d94565b5b5f61216a84828501611f19565b91505092915050565b5f6020828403121561218857612187611d94565b5b5f61219584828501611db7565b91505092915050565b5f6040820190506121b15f830185611e1b565b6121be6020830184611e1b565b9392505050565b5f80604083850312156121db576121da611d94565b5b5f6121e885828601611db7565b92505060206121f985828601611db7565b9150509250929050565b5f806040838503121561221957612218611d94565b5b5f61222685828601611f19565b925050602061223785828601611f19565b9150509250929050565b7f494e53554646494349454e545f414d4f554e54000000000000000000000000005f82015250565b5f612275601383611e4d565b915061228082612241565b602082019050919050565b5f6020820190508181035f8301526122a281612269565b9050919050565b7f494e53554646494349454e545f4c4951554944495459000000000000000000005f82015250565b5f6122dd601683611e4d565b91506122e8826122a9565b602082019050919050565b5f6020820190508181035f83015261230a816122d1565b9050919050565b7f4e487b71000000000000000000000000000000000000000000000000000000005f52601160045260245ffd5b5f61234882611d98565b915061235383611d98565b925082820190508082111561236b5761236a612311565b5b92915050565b5f61237b82611d98565b915061238683611d98565b925082820261239481611d98565b915082820484148315176123ab576123aa612311565b5b5092915050565b7f4e487b71000000000000000000000000000000000000000000000000000000005f52601260045260245ffd5b5f6123e982611d98565b91506123f483611d98565b925082612404576124036123b2565b5b828204905092915050565b7f4e487b71000000000000000000000000000000000000000000000000000000005f52602260045260245ffd5b5f600282049050600182168061245357607f821691505b6020821081036124665761246561240f565b5b50919050565b7f494e53554646494349454e545f4f55545055545f414d4f554e540000000000005f82015250565b5f6124a0601a83611e4d565b91506124ab8261246c565b602082019050919050565b5f6020820190508181035f8301526124cd81612494565b9050919050565b7f494e56414c49445f544f4b454e000000000000000000000000000000000000005f82015250565b5f612508600d83611e4d565b9150612513826124d4565b602082019050919050565b5f6020820190508181035f830152612535816124fc565b9050919050565b61254581611ef2565b82525050565b5f60208201905061255e5f83018461253c565b92915050565b5f8151905061257281611da1565b92915050565b5f6020828403121561258d5761258c611d94565b5b5f61259a84828501612564565b91505092915050565b5f6060820190506125b65f83018661253c565b6125c3602083018561253c565b6125d06040830184611e1b565b949350505050565b6125e181611f6b565b81146125eb575f80fd5b50565b5f815190506125fc816125d8565b92915050565b5f6020828403121561261757612616611d94565b5b5f612624848285016125ee565b91505092915050565b5f6040820190506126405f83018561253c565b61264d6020830184611e1b565b9392505050565b5f6080820190506126675f830187611e1b565b612674602083018661253c565b6126816040830185611e1b565b61268e606083018461253c565b95945050505050565b7f494e53554646494349454e545f4c49515549444954595f4255524e45440000005f82015250565b5f6126cb601d83611e4d565b91506126d682612697565b602082019050919050565b5f6020820190508181035f8301526126f8816126bf565b9050919050565b7f494e53554646494349454e545f4c49515549444954595f4d494e5445440000005f82015250565b5f612733601d83611e4d565b915061273e826126ff565b602082019050919050565b5f6020820190508181035f83015261276081612727565b9050919050565b5f60608201905061277a5f83018661253c565b6127876020830185611e1b565b6127946040830184611e1b565b94935050505056fea2646970667358221220743614cab18a005822ed9f25db48c93c1731b75cc852d7742d10d4ddffdb949264736f6c634300081a0033",
					"opcodes": "PUSH1 0x80 PUSH1 0x40 MSTORE CALLVALUE DUP1 ISZERO PUSH2 0xF JUMPI PUSH0 DUP1 REVERT JUMPDEST POP PUSH1 0x40 MLOAD PUSH2 0x2CDB CODESIZE SUB DUP1 PUSH2 0x2CDB DUP4 CODECOPY DUP2 DUP2 ADD PUSH1 0x40 MSTORE DUP2 ADD SWAP1 PUSH2 0x31 SWAP2 SWAP1 PUSH2 0x1B5 JUMP JUMPDEST PUSH1 0x40 MLOAD DUP1 PUSH1 0x40 ADD PUSH1 0x40 MSTORE DUP1 PUSH1 0xA DUP2 MSTORE PUSH1 0x20 ADD PUSH32 0x53696D706C655377617000000000000000000000000000000000000000000000 DUP2 MSTORE POP PUSH1 0x40 MLOAD DUP1 PUSH1 0x40 ADD PUSH1 0x40 MSTORE DUP1 PUSH1 0x2 DUP2 MSTORE PUSH1 0x20 ADD PUSH32 0x5353000000000000000000000000000000000000000000000000000000000000 DUP2 MSTORE POP DUP2 PUSH1 0x3 SWAP1 DUP2 PUSH2 0xAC SWAP2 SWAP1 PUSH2 0x42D JUMP JUMPDEST POP DUP1 PUSH1 0x4 SWAP1 DUP2 PUSH2 0xBC SWAP2 SWAP1 PUSH2 0x42D JUMP JUMPDEST POP POP POP DUP2 PUSH1 0x5 PUSH0 PUSH2 0x100 EXP DUP2 SLOAD DUP2 PUSH20 0xFFFFFFFFFFFFFFFFFFFFFFFFFFFFFFFFFFFFFFFF MUL NOT AND SWAP1 DUP4 PUSH20 0xFFFFFFFFFFFFFFFFFFFFFFFFFFFFFFFFFFFFFFFF AND MUL OR SWAP1 SSTORE POP DUP1 PUSH1 0x6 PUSH0 PUSH2 0x100 EXP DUP2 SLOAD DUP2 PUSH20 0xFFFFFFFFFFFFFFFFFFFFFFFFFFFFFFFFFFFFFFFF MUL NOT AND SWAP1 DUP4 PUSH20 0xFFFFFFFFFFFFFFFFFFFFFFFFFFFFFFFFFFFFFFFF AND MUL OR SWAP1 SSTORE POP POP POP PUSH2 0x4FC JUMP JUMPDEST PUSH0 DUP1 REVERT JUMPDEST PUSH0 PUSH20 0xFFFFFFFFFFFFFFFFFFFFFFFFFFFFFFFFFFFFFFFF DUP3 AND SWAP1 POP SWAP2 SWAP1 POP JUMP JUMPDEST PUSH0 PUSH2 0x173 DUP3 PUSH2 0x14A JUMP JUMPDEST SWAP1 POP SWAP2 SWAP1 POP JUMP JUMPDEST PUSH0 PUSH2 0x184 DUP3 PUSH2 0x169 JUMP JUMPDEST SWAP1 POP SWAP2 SWAP1 POP JUMP JUMPDEST PUSH2 0x194 DUP2 PUSH2 0x17A JUMP JUMPDEST DUP2 EQ PUSH2 0x19E JUMPI PUSH0 DUP1 REVERT JUMPDEST POP JUMP JUMPDEST PUSH0 DUP2 MLOAD SWAP1 POP PUSH2 0x1AF DUP2 PUSH2 0x18B JUMP JUMPDEST SWAP3 SWAP2 POP POP JUMP JUMPDEST PUSH0 DUP1 PUSH1 0x40 DUP4 DUP6 SUB SLT ISZERO PUSH2 0x1CB JUMPI PUSH2 0x1CA PUSH2 0x146 JUMP JUMPDEST JUMPDEST PUSH0 PUSH2 0x1D8 DUP6 DUP3 DUP7 ADD PUSH2 0x1A1 JUMP JUMPDEST SWAP3 POP POP PUSH1 0x20 PUSH2 0x1E9 DUP6 DUP3 DUP7 ADD PUSH2 0x1A1 JUMP JUMPDEST SWAP2 POP POP SWAP3 POP SWAP3 SWAP1 POP JUMP JUMPDEST PUSH0 DUP2 MLOAD SWAP1 POP SWAP2 SWAP1 POP JUMP JUMPDEST PUSH32 0x4E487B7100000000000000000000000000000000000000000000000000000000 PUSH0 MSTORE PUSH1 0x41 PUSH1 0x4 MSTORE PUSH1 0x24 PUSH0 REVERT JUMPDEST PUSH32 0x4E487B7100000000000000000000000000000000000000000000000000000000 PUSH0 MSTORE PUSH1 0x22 PUSH1 0x4 MSTORE PUSH1 0x24 PUSH0 REVERT JUMPDEST PUSH0 PUSH1 0x2 DUP3 DIV SWAP1 POP PUSH1 0x1 DUP3 AND DUP1 PUSH2 0x26E JUMPI PUSH1 0x7F DUP3 AND SWAP2 POP JUMPDEST PUSH1 0x20 DUP3 LT DUP2 SUB PUSH2 0x281 JUMPI PUSH2 0x280 PUSH2 0x22A JUMP JUMPDEST JUMPDEST POP SWAP2 SWAP1 POP JUMP JUMPDEST PUSH0 DUP2 SWAP1 POP DUP2 PUSH0 MSTORE PUSH1 0x20 PUSH0 KECCAK256 SWAP1 POP SWAP2 SWAP1 POP JUMP JUMPDEST PUSH0 PUSH1 0x20 PUSH1 0x1F DUP4 ADD DIV SWAP1 POP SWAP2 SWAP1 POP JUMP JUMPDEST PUSH0 DUP3 DUP3 SHL SWAP1 POP SWAP3 SWAP2 POP POP JUMP JUMPDEST PUSH0 PUSH1 0x8 DUP4 MUL PUSH2 0x2E3 PUSH32 0xFFFFFFFFFFFFFFFFFFFFFFFFFFFFFFFFFFFFFFFFFFFFFFFFFFFFFFFFFFFFFFFF DUP3 PUSH2 0x2A8 JUMP JUMPDEST PUSH2 0x2ED DUP7 DUP4 PUSH2 0x2A8 JUMP JUMPDEST SWAP6 POP DUP1 NOT DUP5 AND SWAP4 POP DUP1 DUP7 AND DUP5 OR SWAP3 POP POP POP SWAP4 SWAP3 POP POP POP JUMP JUMPDEST PUSH0 DUP2 SWAP1 POP SWAP2 SWAP1 POP JUMP JUMPDEST PUSH0 DUP2 SWAP1 POP SWAP2 SWAP1 POP JUMP JUMPDEST PUSH0 PUSH2 0x331 PUSH2 0x32C PUSH2 0x327 DUP5 PUSH2 0x305 JUMP JUMPDEST PUSH2 0x30E JUMP JUMPDEST PUSH2 0x305 JUMP JUMPDEST SWAP1 POP SWAP2 SWAP1 POP JUMP JUMPDEST PUSH0 DUP2 SWAP1 POP SWAP2 SWAP1 POP JUMP JUMPDEST PUSH2 0x34A DUP4 PUSH2 0x317 JUMP JUMPDEST PUSH2 0x35E PUSH2 0x356 DUP3 PUSH2 0x338 JUMP JUMPDEST DUP5 DUP5 SLOAD PUSH2 0x2B4 JUMP JUMPDEST DUP3 SSTORE POP POP POP POP JUMP JUMPDEST PUSH0 SWAP1 JUMP JUMPDEST PUSH2 0x372 PUSH2 0x366 JUMP JUMPDEST PUSH2 0x37D DUP2 DUP5 DUP5 PUSH2 0x341 JUMP JUMPDEST POP POP POP JUMP JUMPDEST JUMPDEST DUP2 DUP2 LT ISZERO PUSH2 0x3A0 JUMPI PUSH2 0x395 PUSH0 DUP3 PUSH2 0x36A JUMP JUMPDEST PUSH1 0x1 DUP2 ADD SWAP1 POP PUSH2 0x383 JUMP JUMPDEST POP POP JUMP JUMPDEST PUSH1 0x1F DUP3 GT ISZERO PUSH2 0x3E5 JUMPI PUSH2 0x3B6 DUP2 PUSH2 0x287 JUMP JUMPDEST PUSH2 0x3BF DUP5 PUSH2 0x299 JUMP JUMPDEST DUP2 ADD PUSH1 0x20 DUP6 LT ISZERO PUSH2 0x3CE JUMPI DUP2 SWAP1 POP JUMPDEST PUSH2 0x3E2 PUSH2 0x3DA DUP6 PUSH2 0x299 JUMP JUMPDEST DUP4 ADD DUP3 PUSH2 0x382 JUMP JUMPDEST POP POP JUMPDEST POP POP POP JUMP JUMPDEST PUSH0 DUP3 DUP3 SHR SWAP1 POP SWAP3 SWAP2 POP POP JUMP JUMPDEST PUSH0 PUSH2 0x405 PUSH0 NOT DUP5 PUSH1 0x8 MUL PUSH2 0x3EA JUMP JUMPDEST NOT DUP1 DUP4 AND SWAP2 POP POP SWAP3 SWAP2 POP POP JUMP JUMPDEST PUSH0 PUSH2 0x41D DUP4 DUP4 PUSH2 0x3F6 JUMP JUMPDEST SWAP2 POP DUP3 PUSH1 0x2 MUL DUP3 OR SWAP1 POP SWAP3 SWAP2 POP POP JUMP JUMPDEST PUSH2 0x436 DUP3 PUSH2 0x1F3 JUMP JUMPDEST PUSH8 0xFFFFFFFFFFFFFFFF DUP2 GT ISZERO PUSH2 0x44F JUMPI PUSH2 0x44E PUSH2 0x1FD JUMP JUMPDEST JUMPDEST PUSH2 0x459 DUP3 SLOAD PUSH2 0x257 JUMP JUMPDEST PUSH2 0x464 DUP3 DUP3 DUP6 PUSH2 0x3A4 JUMP JUMPDEST PUSH0 PUSH1 0x20 SWAP1 POP PUSH1 0x1F DUP4 GT PUSH1 0x1 DUP2 EQ PUSH2 0x495 JUMPI PUSH0 DUP5 ISZERO PUSH2 0x483 JUMPI DUP3 DUP8 ADD MLOAD SWAP1 POP JUMPDEST PUSH2 0x48D DUP6 DUP3 PUSH2 0x412 JUMP JUMPDEST DUP7 SSTORE POP PUSH2 0x4F4 JUMP JUMPDEST PUSH1 0x1F NOT DUP5 AND PUSH2 0x4A3 DUP7 PUSH2 0x287 JUMP JUMPDEST PUSH0 JUMPDEST DUP3 DUP2 LT ISZERO PUSH2 0x4CA JUMPI DUP5 DUP10 ADD MLOAD DUP3 SSTORE PUSH1 0x1 DUP3 ADD SWAP2 POP PUSH1 0x20 DUP6 ADD SWAP5 POP PUSH1 0x20 DUP2 ADD SWAP1 POP PUSH2 0x4A5 JUMP JUMPDEST DUP7 DUP4 LT ISZERO PUSH2 0x4E7 JUMPI DUP5 DUP10 ADD MLOAD PUSH2 0x4E3 PUSH1 0x1F DUP10 AND DUP3 PUSH2 0x3F6 JUMP JUMPDEST DUP4 SSTORE POP JUMPDEST PUSH1 0x1 PUSH1 0x2 DUP9 MUL ADD DUP9 SSTORE POP POP POP JUMPDEST POP POP POP POP POP POP JUMP JUMPDEST PUSH2 0x27D2 DUP1 PUSH2 0x509 PUSH0 CODECOPY PUSH0 RETURN INVALID PUSH1 0x80 PUSH1 0x40 MSTORE CALLVALUE DUP1 ISZERO PUSH2 0xF JUMPI PUSH0 DUP1 REVERT JUMPDEST POP PUSH1 0x4 CALLDATASIZE LT PUSH2 0x109 JUMPI PUSH0 CALLDATALOAD PUSH1 0xE0 SHR DUP1 PUSH4 0x443CB4BC GT PUSH2 0xA0 JUMPI DUP1 PUSH4 0x9C8F9F23 GT PUSH2 0x6F JUMPI DUP1 PUSH4 0x9C8F9F23 EQ PUSH2 0x2D0 JUMPI DUP1 PUSH4 0x9CD441DA EQ PUSH2 0x301 JUMPI DUP1 PUSH4 0xA9059CBB EQ PUSH2 0x331 JUMPI DUP1 PUSH4 0xD21220A7 EQ PUSH2 0x361 JUMPI DUP1 PUSH4 0xDD62ED3E EQ PUSH2 0x37F JUMPI PUSH2 0x109 JUMP JUMPDEST DUP1 PUSH4 0x443CB4BC EQ PUSH2 0x246 JUMPI DUP1 PUSH4 0x5A76F25E EQ PUSH2 0x264 JUMPI DUP1 PUSH4 0x70A08231 EQ PUSH2 0x282 JUMPI DUP1 PUSH4 0x95D89B41 EQ PUSH2 0x2B2 JUMPI PUSH2 0x109 JUMP JUMPDEST DUP1 PUSH4 0x18160DDD GT PUSH2 0xDC JUMPI DUP1 PUSH4 0x18160DDD EQ PUSH2 0x1A9 JUMPI DUP1 PUSH4 0x23B872DD EQ PUSH2 0x1C7 JUMPI DUP1 PUSH4 0x313CE567 EQ PUSH2 0x1F7 JUMPI DUP1 PUSH4 0x43264349 EQ PUSH2 0x215 JUMPI PUSH2 0x109 JUMP JUMPDEST DUP1 PUSH4 0x54D50D4 EQ PUSH2 0x10D JUMPI DUP1 PUSH4 0x6FDDE03 EQ PUSH2 0x13D JUMPI DUP1 PUSH4 0x95EA7B3 EQ PUSH2 0x15B JUMPI DUP1 PUSH4 0xDFE1681 EQ PUSH2 0x18B JUMPI JUMPDEST PUSH0 DUP1 REVERT JUMPDEST PUSH2 0x127 PUSH1 0x4 DUP1 CALLDATASIZE SUB DUP2 ADD SWAP1 PUSH2 0x122 SWAP2 SWAP1 PUSH2 0x1DCB JUMP JUMPDEST PUSH2 0x3AF JUMP JUMPDEST PUSH1 0x40 MLOAD PUSH2 0x134 SWAP2 SWAP1 PUSH2 0x1E2A JUMP JUMPDEST PUSH1 0x40 MLOAD DUP1 SWAP2 SUB SWAP1 RETURN JUMPDEST PUSH2 0x145 PUSH2 0x46A JUMP JUMPDEST PUSH1 0x40 MLOAD PUSH2 0x152 SWAP2 SWAP1 PUSH2 0x1EB3 JUMP JUMPDEST PUSH1 0x40 MLOAD DUP1 SWAP2 SUB SWAP1 RETURN JUMPDEST PUSH2 0x175 PUSH1 0x4 DUP1 CALLDATASIZE SUB DUP2 ADD SWAP1 PUSH2 0x170 SWAP2 SWAP1 PUSH2 0x1F2D JUMP JUMPDEST PUSH2 0x4FA JUMP JUMPDEST PUSH1 0x40 MLOAD PUSH2 0x182 SWAP2 SWAP1 PUSH2 0x1F85 JUMP JUMPDEST PUSH1 0x40 MLOAD DUP1 SWAP2 SUB SWAP1 RETURN JUMPDEST PUSH2 0x193 PUSH2 0x51C JUMP JUMPDEST PUSH1 0x40 MLOAD PUSH2 0x1A0 SWAP2 SWAP1 PUSH2 0x1FF9 JUMP JUMPDEST PUSH1 0x40 MLOAD DUP1 SWAP2 SUB SWAP1 RETURN JUMPDEST PUSH2 0x1B1 PUSH2 0x541 JUMP JUMPDEST PUSH1 0x40 MLOAD PUSH2 0x1BE SWAP2 SWAP1 PUSH2 0x1E2A JUMP JUMPDEST PUSH1 0x40 MLOAD DUP1 SWAP2 SUB SWAP1 RETURN JUMPDEST PUSH2 0x1E1 PUSH1 0x4 DUP1 CALLDATASIZE SUB DUP2 ADD SWAP1 PUSH2 0x1DC SWAP2 SWAP1 PUSH2 0x2012 JUMP JUMPDEST PUSH2 0x54A JUMP JUMPDEST PUSH1 0x40 MLOAD PUSH2 0x1EE SWAP2 SWAP1 PUSH2 0x1F85 JUMP JUMPDEST PUSH1 0x40 MLOAD DUP1 SWAP2 SUB SWAP1 RETURN JUMPDEST PUSH2 0x1FF PUSH2 0x578 JUMP JUMPDEST PUSH1 0x40 MLOAD PUSH2 0x20C SWAP2 SWAP1 PUSH2 0x207D JUMP JUMPDEST PUSH1 0x40 MLOAD DUP1 SWAP2 SUB SWAP1 RETURN JUMPDEST PUSH2 0x22F PUSH1 0x4 DUP1 CALLDATASIZE SUB DUP2 ADD SWAP1 PUSH2 0x22A SWAP2 SWAP1 PUSH2 0x20D1 JUMP JUMPDEST PUSH2 0x580 JUMP JUMPDEST PUSH1 0x40 MLOAD PUSH2 0x23D SWAP3 SWAP2 SWAP1 PUSH2 0x2121 JUMP JUMPDEST PUSH1 0x40 MLOAD DUP1 SWAP2 SUB SWAP1 RETURN JUMPDEST PUSH2 0x24E PUSH2 0xCB2 JUMP JUMPDEST PUSH1 0x40 MLOAD PUSH2 0x25B SWAP2 SWAP1 PUSH2 0x1E2A JUMP JUMPDEST PUSH1 0x40 MLOAD DUP1 SWAP2 SUB SWAP1 RETURN JUMPDEST PUSH2 0x26C PUSH2 0xCB8 JUMP JUMPDEST PUSH1 0x40 MLOAD PUSH2 0x279 SWAP2 SWAP1 PUSH2 0x1E2A JUMP JUMPDEST PUSH1 0x40 MLOAD DUP1 SWAP2 SUB SWAP1 RETURN JUMPDEST PUSH2 0x29C PUSH1 0x4 DUP1 CALLDATASIZE SUB DUP2 ADD SWAP1 PUSH2 0x297 SWAP2 SWAP1 PUSH2 0x2148 JUMP JUMPDEST PUSH2 0xCBE JUMP JUMPDEST PUSH1 0x40 MLOAD PUSH2 0x2A9 SWAP2 SWAP1 PUSH2 0x1E2A JUMP JUMPDEST PUSH1 0x40 MLOAD DUP1 SWAP2 SUB SWAP1 RETURN JUMPDEST PUSH2 0x2BA PUSH2 0xD03 JUMP JUMPDEST PUSH1 0x40 MLOAD PUSH2 0x2C7 SWAP2 SWAP1 PUSH2 0x1EB3 JUMP JUMPDEST PUSH1 0x40 MLOAD DUP1 SWAP2 SUB SWAP1 RETURN JUMPDEST PUSH2 0x2EA PUSH1 0x4 DUP1 CALLDATASIZE SUB DUP2 ADD SWAP1 PUSH2 0x2E5 SWAP2 SWAP1 PUSH2 0x2173 JUMP JUMPDEST PUSH2 0xD93 JUMP JUMPDEST PUSH1 0x40 MLOAD PUSH2 0x2F8 SWAP3 SWAP2 SWAP1 PUSH2 0x219E JUMP JUMPDEST PUSH1 0x40 MLOAD DUP1 SWAP2 SUB SWAP1 RETURN JUMPDEST PUSH2 0x31B PUSH1 0x4 DUP1 CALLDATASIZE SUB DUP2 ADD SWAP1 PUSH2 0x316 SWAP2 SWAP1 PUSH2 0x21C5 JUMP JUMPDEST PUSH2 0x1231 JUMP JUMPDEST PUSH1 0x40 MLOAD PUSH2 0x328 SWAP2 SWAP1 PUSH2 0x1E2A JUMP JUMPDEST PUSH1 0x40 MLOAD DUP1 SWAP2 SUB SWAP1 RETURN JUMPDEST PUSH2 0x34B PUSH1 0x4 DUP1 CALLDATASIZE SUB DUP2 ADD SWAP1 PUSH2 0x346 SWAP2 SWAP1 PUSH2 0x1F2D JUMP JUMPDEST PUSH2 0x15BB JUMP JUMPDEST PUSH1 0x40 MLOAD PUSH2 0x358 SWAP2 SWAP1 PUSH2 0x1F85 JUMP JUMPDEST PUSH1 0x40 MLOAD DUP1 SWAP2 SUB SWAP1 RETURN JUMPDEST PUSH2 0x369 PUSH2 0x15DD JUMP JUMPDEST PUSH1 0x40 MLOAD PUSH2 0x376 SWAP2 SWAP1 PUSH2 0x1FF9 JUMP JUMPDEST PUSH1 0x40 MLOAD DUP1 SWAP2 SUB SWAP1 RETURN JUMPDEST PUSH2 0x399 PUSH1 0x4 DUP1 CALLDATASIZE SUB DUP2 ADD SWAP1 PUSH2 0x394 SWAP2 SWAP1 PUSH2 0x2203 JUMP JUMPDEST PUSH2 0x1602 JUMP JUMPDEST PUSH1 0x40 MLOAD PUSH2 0x3A6 SWAP2 SWAP1 PUSH2 0x1E2A JUMP JUMPDEST PUSH1 0x40 MLOAD DUP1 SWAP2 SUB SWAP1 RETURN JUMPDEST PUSH0 DUP1 DUP5 GT PUSH2 0x3F2 JUMPI PUSH1 0x40 MLOAD PUSH32 0x8C379A000000000000000000000000000000000000000000000000000000000 DUP2 MSTORE PUSH1 0x4 ADD PUSH2 0x3E9 SWAP1 PUSH2 0x228B JUMP JUMPDEST PUSH1 0x40 MLOAD DUP1 SWAP2 SUB SWAP1 REVERT JUMPDEST PUSH0 DUP4 GT DUP1 ISZERO PUSH2 0x400 JUMPI POP PUSH0 DUP3 GT JUMPDEST PUSH2 0x43F JUMPI PUSH1 0x40 MLOAD PUSH32 0x8C379A000000000000000000000000000000000000000000000000000000000 DUP2 MSTORE PUSH1 0x4 ADD PUSH2 0x436 SWAP1 PUSH2 0x22F3 JUMP JUMPDEST PUSH1 0x40 MLOAD DUP1 SWAP2 SUB SWAP1 REVERT JUMPDEST DUP4 DUP4 PUSH2 0x44B SWAP2 SWAP1 PUSH2 0x233E JUMP JUMPDEST DUP3 DUP6 PUSH2 0x457 SWAP2 SWAP1 PUSH2 0x2371 JUMP JUMPDEST PUSH2 0x461 SWAP2 SWAP1 PUSH2 0x23DF JUMP JUMPDEST SWAP1 POP SWAP4 SWAP3 POP POP POP JUMP JUMPDEST PUSH1 0x60 PUSH1 0x3 DUP1 SLOAD PUSH2 0x479 SWAP1 PUSH2 0x243C JUMP JUMPDEST DUP1 PUSH1 0x1F ADD PUSH1 0x20 DUP1 SWAP2 DIV MUL PUSH1 0x20 ADD PUSH1 0x40 MLOAD SWAP1 DUP2 ADD PUSH1 0x40 MSTORE DUP1 SWAP3 SWAP2 SWAP1 DUP2 DUP2 MSTORE PUSH1 0x20 ADD DUP3 DUP1 SLOAD PUSH2 0x4A5 SWAP1 PUSH2 0x243C JUMP JUMPDEST DUP1 ISZERO PUSH2 0x4F0 JUMPI DUP1 PUSH1 0x1F LT PUSH2 0x4C7 JUMPI PUSH2 0x100 DUP1 DUP4 SLOAD DIV MUL DUP4 MSTORE SWAP2 PUSH1 0x20 ADD SWAP2 PUSH2 0x4F0 JUMP JUMPDEST DUP3 ADD SWAP2 SWAP1 PUSH0 MSTORE PUSH1 0x20 PUSH0 KECCAK256 SWAP1 JUMPDEST DUP2 SLOAD DUP2 MSTORE SWAP1 PUSH1 0x1 ADD SWAP1 PUSH1 0x20 ADD DUP1 DUP4 GT PUSH2 0x4D3 JUMPI DUP3 SWAP1 SUB PUSH1 0x1F AND DUP3 ADD SWAP2 JUMPDEST POP POP POP POP POP SWAP1 POP SWAP1 JUMP JUMPDEST PUSH0 DUP1 PUSH2 0x504 PUSH2 0x1684 JUMP JUMPDEST SWAP1 POP PUSH2 0x511 DUP2 DUP6 DUP6 PUSH2 0x168B JUMP JUMPDEST PUSH1 0x1 SWAP2 POP POP SWAP3 SWAP2 POP POP JUMP JUMPDEST PUSH1 0x5 PUSH0 SWAP1 SLOAD SWAP1 PUSH2 0x100 EXP SWAP1 DIV PUSH20 0xFFFFFFFFFFFFFFFFFFFFFFFFFFFFFFFFFFFFFFFF AND DUP2 JUMP JUMPDEST PUSH0 PUSH1 0x2 SLOAD SWAP1 POP SWAP1 JUMP JUMPDEST PUSH0 DUP1 PUSH2 0x554 PUSH2 0x1684 JUMP JUMPDEST SWAP1 POP PUSH2 0x561 DUP6 DUP3 DUP6 PUSH2 0x169D JUMP JUMPDEST PUSH2 0x56C DUP6 DUP6 DUP6 PUSH2 0x172F JUMP JUMPDEST PUSH1 0x1 SWAP2 POP POP SWAP4 SWAP3 POP POP POP JUMP JUMPDEST PUSH0 PUSH1 0x12 SWAP1 POP SWAP1 JUMP JUMPDEST PUSH0 DUP1 PUSH0 DUP6 GT PUSH2 0x5C4 JUMPI PUSH1 0x40 MLOAD PUSH32 0x8C379A000000000000000000000000000000000000000000000000000000000 DUP2 MSTORE PUSH1 0x4 ADD PUSH2 0x5BB SWAP1 PUSH2 0x24B6 JUMP JUMPDEST PUSH1 0x40 MLOAD DUP1 SWAP2 SUB SWAP1 REVERT JUMPDEST PUSH1 0x5 PUSH0 SWAP1 SLOAD SWAP1 PUSH2 0x100 EXP SWAP1 DIV PUSH20 0xFFFFFFFFFFFFFFFFFFFFFFFFFFFFFFFFFFFFFFFF AND PUSH20 0xFFFFFFFFFFFFFFFFFFFFFFFFFFFFFFFFFFFFFFFF AND DUP5 PUSH20 0xFFFFFFFFFFFFFFFFFFFFFFFFFFFFFFFFFFFFFFFF AND EQ DUP1 PUSH2 0x66B JUMPI POP PUSH1 0x6 PUSH0 SWAP1 SLOAD SWAP1 PUSH2 0x100 EXP SWAP1 DIV PUSH20 0xFFFFFFFFFFFFFFFFFFFFFFFFFFFFFFFFFFFFFFFF AND PUSH20 0xFFFFFFFFFFFFFFFFFFFFFFFFFFFFFFFFFFFFFFFF AND DUP5 PUSH20 0xFFFFFFFFFFFFFFFFFFFFFFFFFFFFFFFFFFFFFFFF AND EQ JUMPDEST PUSH2 0x6AA JUMPI PUSH1 0x40 MLOAD PUSH32 0x8C379A000000000000000000000000000000000000000000000000000000000 DUP2 MSTORE PUSH1 0x4 ADD PUSH2 0x6A1 SWAP1 PUSH2 0x251E JUMP JUMPDEST PUSH1 0x40 MLOAD DUP1 SWAP2 SUB SWAP1 REVERT JUMPDEST PUSH0 PUSH1 0x5 PUSH0 SWAP1 SLOAD SWAP1 PUSH2 0x100 EXP SWAP1 DIV PUSH20 0xFFFFFFFFFFFFFFFFFFFFFFFFFFFFFFFFFFFFFFFF AND PUSH20 0xFFFFFFFFFFFFFFFFFFFFFFFFFFFFFFFFFFFFFFFF AND PUSH4 0x70A08231 ADDRESS PUSH1 0x40 MLOAD DUP3 PUSH4 0xFFFFFFFF AND PUSH1 0xE0 SHL DUP2 MSTORE PUSH1 0x4 ADD PUSH2 0x705 SWAP2 SWAP1 PUSH2 0x254B JUMP JUMPDEST PUSH1 0x20 PUSH1 0x40 MLOAD DUP1 DUP4 SUB DUP2 DUP7 GAS STATICCALL ISZERO DUP1 ISZERO PUSH2 0x720 JUMPI RETURNDATASIZE PUSH0 DUP1 RETURNDATACOPY RETURNDATASIZE PUSH0 REVERT JUMPDEST POP POP POP POP PUSH1 0x40 MLOAD RETURNDATASIZE PUSH1 0x1F NOT PUSH1 0x1F DUP3 ADD AND DUP3 ADD DUP1 PUSH1 0x40 MSTORE POP DUP2 ADD SWAP1 PUSH2 0x744 SWAP2 SWAP1 PUSH2 0x2578 JUMP JUMPDEST SWAP1 POP PUSH0 PUSH1 0x6 PUSH0 SWAP1 SLOAD SWAP1 PUSH2 0x100 EXP SWAP1 DIV PUSH20 0xFFFFFFFFFFFFFFFFFFFFFFFFFFFFFFFFFFFFFFFF AND PUSH20 0xFFFFFFFFFFFFFFFFFFFFFFFFFFFFFFFFFFFFFFFF AND PUSH4 0x70A08231 ADDRESS PUSH1 0x40 MLOAD DUP3 PUSH4 0xFFFFFFFF AND PUSH1 0xE0 SHL DUP2 MSTORE PUSH1 0x4 ADD PUSH2 0x7A1 SWAP2 SWAP1 PUSH2 0x254B JUMP JUMPDEST PUSH1 0x20 PUSH1 0x40 MLOAD DUP1 DUP4 SUB DUP2 DUP7 GAS STATICCALL ISZERO DUP1 ISZERO PUSH2 0x7BC JUMPI RETURNDATASIZE PUSH0 DUP1 RETURNDATACOPY RETURNDATASIZE PUSH0 REVERT JUMPDEST POP POP POP POP PUSH1 0x40 MLOAD RETURNDATASIZE PUSH1 0x1F NOT PUSH1 0x1F DUP3 ADD AND DUP3 ADD DUP1 PUSH1 0x40 MSTORE POP DUP2 ADD SWAP1 PUSH2 0x7E0 SWAP2 SWAP1 PUSH2 0x2578 JUMP JUMPDEST SWAP1 POP PUSH1 0x5 PUSH0 SWAP1 SLOAD SWAP1 PUSH2 0x100 EXP SWAP1 DIV PUSH20 0xFFFFFFFFFFFFFFFFFFFFFFFFFFFFFFFFFFFFFFFF AND PUSH20 0xFFFFFFFFFFFFFFFFFFFFFFFFFFFFFFFFFFFFFFFF AND DUP7 PUSH20 0xFFFFFFFFFFFFFFFFFFFFFFFFFFFFFFFFFFFFFFFF AND SUB PUSH2 0x9A8 JUMPI PUSH1 0x6 PUSH0 SWAP1 SLOAD SWAP1 PUSH2 0x100 EXP SWAP1 DIV PUSH20 0xFFFFFFFFFFFFFFFFFFFFFFFFFFFFFFFFFFFFFFFF AND SWAP3 POP PUSH2 0x865 DUP8 DUP4 DUP4 PUSH2 0x3AF JUMP JUMPDEST SWAP4 POP DUP5 DUP5 GT PUSH2 0x8A9 JUMPI PUSH1 0x40 MLOAD PUSH32 0x8C379A000000000000000000000000000000000000000000000000000000000 DUP2 MSTORE PUSH1 0x4 ADD PUSH2 0x8A0 SWAP1 PUSH2 0x24B6 JUMP JUMPDEST PUSH1 0x40 MLOAD DUP1 SWAP2 SUB SWAP1 REVERT JUMPDEST DUP6 PUSH20 0xFFFFFFFFFFFFFFFFFFFFFFFFFFFFFFFFFFFFFFFF AND PUSH4 0x23B872DD CALLER ADDRESS DUP11 PUSH1 0x40 MLOAD DUP5 PUSH4 0xFFFFFFFF AND PUSH1 0xE0 SHL DUP2 MSTORE PUSH1 0x4 ADD PUSH2 0x8E6 SWAP4 SWAP3 SWAP2 SWAP1 PUSH2 0x25A3 JUMP JUMPDEST PUSH1 0x20 PUSH1 0x40 MLOAD DUP1 DUP4 SUB DUP2 PUSH0 DUP8 GAS CALL ISZERO DUP1 ISZERO PUSH2 0x902 JUMPI RETURNDATASIZE PUSH0 DUP1 RETURNDATACOPY RETURNDATASIZE PUSH0 REVERT JUMPDEST POP POP POP POP PUSH1 0x40 MLOAD RETURNDATASIZE PUSH1 0x1F NOT PUSH1 0x1F DUP3 ADD AND DUP3 ADD DUP1 PUSH1 0x40 MSTORE POP DUP2 ADD SWAP1 PUSH2 0x926 SWAP2 SWAP1 PUSH2 0x2602 JUMP JUMPDEST POP DUP3 PUSH20 0xFFFFFFFFFFFFFFFFFFFFFFFFFFFFFFFFFFFFFFFF AND PUSH4 0xA9059CBB CALLER DUP7 PUSH1 0x40 MLOAD DUP4 PUSH4 0xFFFFFFFF AND PUSH1 0xE0 SHL DUP2 MSTORE PUSH1 0x4 ADD PUSH2 0x962 SWAP3 SWAP2 SWAP1 PUSH2 0x262D JUMP JUMPDEST PUSH1 0x20 PUSH1 0x40 MLOAD DUP1 DUP4 SUB DUP2 PUSH0 DUP8 GAS CALL ISZERO DUP1 ISZERO PUSH2 0x97E JUMPI RETURNDATASIZE PUSH0 DUP1 RETURNDATACOPY RETURNDATASIZE PUSH0 REVERT JUMPDEST POP POP POP POP PUSH1 0x40 MLOAD RETURNDATASIZE PUSH1 0x1F NOT PUSH1 0x1F DUP3 ADD AND DUP3 ADD DUP1 PUSH1 0x40 MSTORE POP DUP2 ADD SWAP1 PUSH2 0x9A2 SWAP2 SWAP1 PUSH2 0x2602 JUMP JUMPDEST POP PUSH2 0xB16 JUMP JUMPDEST PUSH1 0x5 PUSH0 SWAP1 SLOAD SWAP1 PUSH2 0x100 EXP SWAP1 DIV PUSH20 0xFFFFFFFFFFFFFFFFFFFFFFFFFFFFFFFFFFFFFFFF AND SWAP3 POP PUSH2 0x9D7 DUP8 DUP3 DUP5 PUSH2 0x3AF JUMP JUMPDEST SWAP4 POP DUP5 DUP5 GT PUSH2 0xA1B JUMPI PUSH1 0x40 MLOAD PUSH32 0x8C379A000000000000000000000000000000000000000000000000000000000 DUP2 MSTORE PUSH1 0x4 ADD PUSH2 0xA12 SWAP1 PUSH2 0x24B6 JUMP JUMPDEST PUSH1 0x40 MLOAD DUP1 SWAP2 SUB SWAP1 REVERT JUMPDEST DUP6 PUSH20 0xFFFFFFFFFFFFFFFFFFFFFFFFFFFFFFFFFFFFFFFF AND PUSH4 0x23B872DD CALLER ADDRESS DUP11 PUSH1 0x40 MLOAD DUP5 PUSH4 0xFFFFFFFF AND PUSH1 0xE0 SHL DUP2 MSTORE PUSH1 0x4 ADD PUSH2 0xA58 SWAP4 SWAP3 SWAP2 SWAP1 PUSH2 0x25A3 JUMP JUMPDEST PUSH1 0x20 PUSH1 0x40 MLOAD DUP1 DUP4 SUB DUP2 PUSH0 DUP8 GAS CALL ISZERO DUP1 ISZERO PUSH2 0xA74 JUMPI RETURNDATASIZE PUSH0 DUP1 RETURNDATACOPY RETURNDATASIZE PUSH0 REVERT JUMPDEST POP POP POP POP PUSH1 0x40 MLOAD RETURNDATASIZE PUSH1 0x1F NOT PUSH1 0x1F DUP3 ADD AND DUP3 ADD DUP1 PUSH1 0x40 MSTORE POP DUP2 ADD SWAP1 PUSH2 0xA98 SWAP2 SWAP1 PUSH2 0x2602 JUMP JUMPDEST POP DUP3 PUSH20 0xFFFFFFFFFFFFFFFFFFFFFFFFFFFFFFFFFFFFFFFF AND PUSH4 0xA9059CBB CALLER DUP7 PUSH1 0x40 MLOAD DUP4 PUSH4 0xFFFFFFFF AND PUSH1 0xE0 SHL DUP2 MSTORE PUSH1 0x4 ADD PUSH2 0xAD4 SWAP3 SWAP2 SWAP1 PUSH2 0x262D JUMP JUMPDEST PUSH1 0x20 PUSH1 0x40 MLOAD DUP1 DUP4 SUB DUP2 PUSH0 DUP8 GAS CALL ISZERO DUP1 ISZERO PUSH2 0xAF0 JUMPI RETURNDATASIZE PUSH0 DUP1 RETURNDATACOPY RETURNDATASIZE PUSH0 REVERT JUMPDEST POP POP POP POP PUSH1 0x40 MLOAD RETURNDATASIZE PUSH1 0x1F NOT PUSH1 0x1F DUP3 ADD AND DUP3 ADD DUP1 PUSH1 0x40 MSTORE POP DUP2 ADD SWAP1 PUSH2 0xB14 SWAP2 SWAP1 PUSH2 0x2602 JUMP JUMPDEST POP JUMPDEST PUSH1 0x5 PUSH0 SWAP1 SLOAD SWAP1 PUSH2 0x100 EXP SWAP1 DIV PUSH20 0xFFFFFFFFFFFFFFFFFFFFFFFFFFFFFFFFFFFFFFFF AND PUSH20 0xFFFFFFFFFFFFFFFFFFFFFFFFFFFFFFFFFFFFFFFF AND PUSH4 0x70A08231 ADDRESS PUSH1 0x40 MLOAD DUP3 PUSH4 0xFFFFFFFF AND PUSH1 0xE0 SHL DUP2 MSTORE PUSH1 0x4 ADD PUSH2 0xB70 SWAP2 SWAP1 PUSH2 0x254B JUMP JUMPDEST PUSH1 0x20 PUSH1 0x40 MLOAD DUP1 DUP4 SUB DUP2 DUP7 GAS STATICCALL ISZERO DUP1 ISZERO PUSH2 0xB8B JUMPI RETURNDATASIZE PUSH0 DUP1 RETURNDATACOPY RETURNDATASIZE PUSH0 REVERT JUMPDEST POP POP POP POP PUSH1 0x40 MLOAD RETURNDATASIZE PUSH1 0x1F NOT PUSH1 0x1F DUP3 ADD AND DUP3 ADD DUP1 PUSH1 0x40 MSTORE POP DUP2 ADD SWAP1 PUSH2 0xBAF SWAP2 SWAP1 PUSH2 0x2578 JUMP JUMPDEST PUSH1 0x7 DUP2 SWAP1 SSTORE POP PUSH1 0x6 PUSH0 SWAP1 SLOAD SWAP1 PUSH2 0x100 EXP SWAP1 DIV PUSH20 0xFFFFFFFFFFFFFFFFFFFFFFFFFFFFFFFFFFFFFFFF AND PUSH20 0xFFFFFFFFFFFFFFFFFFFFFFFFFFFFFFFFFFFFFFFF AND PUSH4 0x70A08231 ADDRESS PUSH1 0x40 MLOAD DUP3 PUSH4 0xFFFFFFFF AND PUSH1 0xE0 SHL DUP2 MSTORE PUSH1 0x4 ADD PUSH2 0xC0F SWAP2 SWAP1 PUSH2 0x254B JUMP JUMPDEST PUSH1 0x20 PUSH1 0x40 MLOAD DUP1 DUP4 SUB DUP2 DUP7 GAS STATICCALL ISZERO DUP1 ISZERO PUSH2 0xC2A JUMPI RETURNDATASIZE PUSH0 DUP1 RETURNDATACOPY RETURNDATASIZE PUSH0 REVERT JUMPDEST POP POP POP POP PUSH1 0x40 MLOAD RETURNDATASIZE PUSH1 0x1F NOT PUSH1 0x1F DUP3 ADD AND DUP3 ADD DUP1 PUSH1 0x40 MSTORE POP DUP2 ADD SWAP1 PUSH2 0xC4E SWAP2 SWAP1 PUSH2 0x2578 JUMP JUMPDEST PUSH1 0x8 DUP2 SWAP1 SSTORE POP CALLER PUSH20 0xFFFFFFFFFFFFFFFFFFFFFFFFFFFFFFFFFFFFFFFF AND PUSH32 0x24043855BFBFEA0CCEA141E5A73D7116BF0BFE083EA900A791F4B407FF03E525 DUP9 DUP9 DUP8 DUP8 PUSH1 0x40 MLOAD PUSH2 0xCA0 SWAP5 SWAP4 SWAP3 SWAP2 SWAP1 PUSH2 0x2654 JUMP JUMPDEST PUSH1 0x40 MLOAD DUP1 SWAP2 SUB SWAP1 LOG2 POP POP SWAP4 POP SWAP4 SWAP2 POP POP JUMP JUMPDEST PUSH1 0x7 SLOAD DUP2 JUMP JUMPDEST PUSH1 0x8 SLOAD DUP2 JUMP JUMPDEST PUSH0 DUP1 PUSH0 DUP4 PUSH20 0xFFFFFFFFFFFFFFFFFFFFFFFFFFFFFFFFFFFFFFFF AND PUSH20 0xFFFFFFFFFFFFFFFFFFFFFFFFFFFFFFFFFFFFFFFF AND DUP2 MSTORE PUSH1 0x20 ADD SWAP1 DUP2 MSTORE PUSH1 0x20 ADD PUSH0 KECCAK256 SLOAD SWAP1 POP SWAP2 SWAP1 POP JUMP JUMPDEST PUSH1 0x60 PUSH1 0x4 DUP1 SLOAD PUSH2 0xD12 SWAP1 PUSH2 0x243C JUMP JUMPDEST DUP1 PUSH1 0x1F ADD PUSH1 0x20 DUP1 SWAP2 DIV MUL PUSH1 0x20 ADD PUSH1 0x40 MLOAD SWAP1 DUP2 ADD PUSH1 0x40 MSTORE DUP1 SWAP3 SWAP2 SWAP1 DUP2 DUP2 MSTORE PUSH1 0x20 ADD DUP3 DUP1 SLOAD PUSH2 0xD3E SWAP1 PUSH2 0x243C JUMP JUMPDEST DUP1 ISZERO PUSH2 0xD89 JUMPI DUP1 PUSH1 0x1F LT PUSH2 0xD60 JUMPI PUSH2 0x100 DUP1 DUP4 SLOAD DIV MUL DUP4 MSTORE SWAP2 PUSH1 0x20 ADD SWAP2 PUSH2 0xD89 JUMP JUMPDEST DUP3 ADD SWAP2 SWAP1 PUSH0 MSTORE PUSH1 0x20 PUSH0 KECCAK256 SWAP1 JUMPDEST DUP2 SLOAD DUP2 MSTORE SWAP1 PUSH1 0x1 ADD SWAP1 PUSH1 0x20 ADD DUP1 DUP4 GT PUSH2 0xD6C JUMPI DUP3 SWAP1 SUB PUSH1 0x1F AND DUP3 ADD SWAP2 JUMPDEST POP POP POP POP POP SWAP1 POP SWAP1 JUMP JUMPDEST PUSH0 DUP1 PUSH0 PUSH1 0x5 PUSH0 SWAP1 SLOAD SWAP1 PUSH2 0x100 EXP SWAP1 DIV PUSH20 0xFFFFFFFFFFFFFFFFFFFFFFFFFFFFFFFFFFFFFFFF AND PUSH20 0xFFFFFFFFFFFFFFFFFFFFFFFFFFFFFFFFFFFFFFFF AND PUSH4 0x70A08231 ADDRESS PUSH1 0x40 MLOAD DUP3 PUSH4 0xFFFFFFFF AND PUSH1 0xE0 SHL DUP2 MSTORE PUSH1 0x4 ADD PUSH2 0xDF0 SWAP2 SWAP1 PUSH2 0x254B JUMP JUMPDEST PUSH1 0x20 PUSH1 0x40 MLOAD DUP1 DUP4 SUB DUP2 DUP7 GAS STATICCALL ISZERO DUP1 ISZERO PUSH2 0xE0B JUMPI RETURNDATASIZE PUSH0 DUP1 RETURNDATACOPY RETURNDATASIZE PUSH0 REVERT JUMPDEST POP POP POP POP PUSH1 0x40 MLOAD RETURNDATASIZE PUSH1 0x1F NOT PUSH1 0x1F DUP3 ADD AND DUP3 ADD DUP1 PUSH1 0x40 MSTORE POP DUP2 ADD SWAP1 PUSH2 0xE2F SWAP2 SWAP1 PUSH2 0x2578 JUMP JUMPDEST SWAP1 POP PUSH0 PUSH1 0x6 PUSH0 SWAP1 SLOAD SWAP1 PUSH2 0x100 EXP SWAP1 DIV PUSH20 0xFFFFFFFFFFFFFFFFFFFFFFFFFFFFFFFFFFFFFFFF AND PUSH20 0xFFFFFFFFFFFFFFFFFFFFFFFFFFFFFFFFFFFFFFFF AND PUSH4 0x70A08231 ADDRESS PUSH1 0x40 MLOAD DUP3 PUSH4 0xFFFFFFFF AND PUSH1 0xE0 SHL DUP2 MSTORE PUSH1 0x4 ADD PUSH2 0xE8C SWAP2 SWAP1 PUSH2 0x254B JUMP JUMPDEST PUSH1 0x20 PUSH1 0x40 MLOAD DUP1 DUP4 SUB DUP2 DUP7 GAS STATICCALL ISZERO DUP1 ISZERO PUSH2 0xEA7 JUMPI RETURNDATASIZE PUSH0 DUP1 RETURNDATACOPY RETURNDATASIZE PUSH0 REVERT JUMPDEST POP POP POP POP PUSH1 0x40 MLOAD RETURNDATASIZE PUSH1 0x1F NOT PUSH1 0x1F DUP3 ADD AND DUP3 ADD DUP1 PUSH1 0x40 MSTORE POP DUP2 ADD SWAP1 PUSH2 0xECB SWAP2 SWAP1 PUSH2 0x2578 JUMP JUMPDEST SWAP1 POP PUSH0 PUSH2 0xED6 PUSH2 0x541 JUMP JUMPDEST SWAP1 POP DUP1 DUP4 DUP8 PUSH2 0xEE5 SWAP2 SWAP1 PUSH2 0x2371 JUMP JUMPDEST PUSH2 0xEEF SWAP2 SWAP1 PUSH2 0x23DF JUMP JUMPDEST SWAP5 POP DUP1 DUP3 DUP8 PUSH2 0xEFE SWAP2 SWAP1 PUSH2 0x2371 JUMP JUMPDEST PUSH2 0xF08 SWAP2 SWAP1 PUSH2 0x23DF JUMP JUMPDEST SWAP4 POP PUSH0 DUP6 GT DUP1 ISZERO PUSH2 0xF18 JUMPI POP PUSH0 DUP5 GT JUMPDEST PUSH2 0xF57 JUMPI PUSH1 0x40 MLOAD PUSH32 0x8C379A000000000000000000000000000000000000000000000000000000000 DUP2 MSTORE PUSH1 0x4 ADD PUSH2 0xF4E SWAP1 PUSH2 0x26E1 JUMP JUMPDEST PUSH1 0x40 MLOAD DUP1 SWAP2 SUB SWAP1 REVERT JUMPDEST PUSH2 0xF61 CALLER DUP8 PUSH2 0x181F JUMP JUMPDEST PUSH1 0x5 PUSH0 SWAP1 SLOAD SWAP1 PUSH2 0x100 EXP SWAP1 DIV PUSH20 0xFFFFFFFFFFFFFFFFFFFFFFFFFFFFFFFFFFFFFFFF AND PUSH20 0xFFFFFFFFFFFFFFFFFFFFFFFFFFFFFFFFFFFFFFFF AND PUSH4 0xA9059CBB CALLER DUP8 PUSH1 0x40 MLOAD DUP4 PUSH4 0xFFFFFFFF AND PUSH1 0xE0 SHL DUP2 MSTORE PUSH1 0x4 ADD PUSH2 0xFBD SWAP3 SWAP2 SWAP1 PUSH2 0x262D JUMP JUMPDEST PUSH1 0x20 PUSH1 0x40 MLOAD DUP1 DUP4 SUB DUP2 PUSH0 DUP8 GAS CALL ISZERO DUP1 ISZERO PUSH2 0xFD9 JUMPI RETURNDATASIZE PUSH0 DUP1 RETURNDATACOPY RETURNDATASIZE PUSH0 REVERT JUMPDEST POP POP POP POP PUSH1 0x40 MLOAD RETURNDATASIZE PUSH1 0x1F NOT PUSH1 0x1F DUP3 ADD AND DUP3 ADD DUP1 PUSH1 0x40 MSTORE POP DUP2 ADD SWAP1 PUSH2 0xFFD SWAP2 SWAP1 PUSH2 0x2602 JUMP JUMPDEST POP PUSH1 0x6 PUSH0 SWAP1 SLOAD SWAP1 PUSH2 0x100 EXP SWAP1 DIV PUSH20 0xFFFFFFFFFFFFFFFFFFFFFFFFFFFFFFFFFFFFFFFF AND PUSH20 0xFFFFFFFFFFFFFFFFFFFFFFFFFFFFFFFFFFFFFFFF AND PUSH4 0xA9059CBB CALLER DUP7 PUSH1 0x40 MLOAD DUP4 PUSH4 0xFFFFFFFF AND PUSH1 0xE0 SHL DUP2 MSTORE PUSH1 0x4 ADD PUSH2 0x105A SWAP3 SWAP2 SWAP1 PUSH2 0x262D JUMP JUMPDEST PUSH1 0x20 PUSH1 0x40 MLOAD DUP1 DUP4 SUB DUP2 PUSH0 DUP8 GAS CALL ISZERO DUP1 ISZERO PUSH2 0x1076 JUMPI RETURNDATASIZE PUSH0 DUP1 RETURNDATACOPY RETURNDATASIZE PUSH0 REVERT JUMPDEST POP POP POP POP PUSH1 0x40 MLOAD RETURNDATASIZE PUSH1 0x1F NOT PUSH1 0x1F DUP3 ADD AND DUP3 ADD DUP1 PUSH1 0x40 MSTORE POP DUP2 ADD SWAP1 PUSH2 0x109A SWAP2 SWAP1 PUSH2 0x2602 JUMP JUMPDEST POP PUSH1 0x5 PUSH0 SWAP1 SLOAD SWAP1 PUSH2 0x100 EXP SWAP1 DIV PUSH20 0xFFFFFFFFFFFFFFFFFFFFFFFFFFFFFFFFFFFFFFFF AND PUSH20 0xFFFFFFFFFFFFFFFFFFFFFFFFFFFFFFFFFFFFFFFF AND PUSH4 0x70A08231 ADDRESS PUSH1 0x40 MLOAD DUP3 PUSH4 0xFFFFFFFF AND PUSH1 0xE0 SHL DUP2 MSTORE PUSH1 0x4 ADD PUSH2 0x10F5 SWAP2 SWAP1 PUSH2 0x254B JUMP JUMPDEST PUSH1 0x20 PUSH1 0x40 MLOAD DUP1 DUP4 SUB DUP2 DUP7 GAS STATICCALL ISZERO DUP1 ISZERO PUSH2 0x1110 JUMPI RETURNDATASIZE PUSH0 DUP1 RETURNDATACOPY RETURNDATASIZE PUSH0 REVERT JUMPDEST POP POP POP POP PUSH1 0x40 MLOAD RETURNDATASIZE PUSH1 0x1F NOT PUSH1 0x1F DUP3 ADD AND DUP3 ADD DUP1 PUSH1 0x40 MSTORE POP DUP2 ADD SWAP1 PUSH2 0x1134 SWAP2 SWAP1 PUSH2 0x2578 JUMP JUMPDEST PUSH1 0x7 DUP2 SWAP1 SSTORE POP PUSH1 0x6 PUSH0 SWAP1 SLOAD SWAP1 PUSH2 0x100 EXP SWAP1 DIV PUSH20 0xFFFFFFFFFFFFFFFFFFFFFFFFFFFFFFFFFFFFFFFF AND PUSH20 0xFFFFFFFFFFFFFFFFFFFFFFFFFFFFFFFFFFFFFFFF AND PUSH4 0x70A08231 ADDRESS PUSH1 0x40 MLOAD DUP3 PUSH4 0xFFFFFFFF AND PUSH1 0xE0 SHL DUP2 MSTORE PUSH1 0x4 ADD PUSH2 0x1194 SWAP2 SWAP1 PUSH2 0x254B JUMP JUMPDEST PUSH1 0x20 PUSH1 0x40 MLOAD DUP1 DUP4 SUB DUP2 DUP7 GAS STATICCALL ISZERO DUP1 ISZERO PUSH2 0x11AF JUMPI RETURNDATASIZE PUSH0 DUP1 RETURNDATACOPY RETURNDATASIZE PUSH0 REVERT JUMPDEST POP POP POP POP PUSH1 0x40 MLOAD RETURNDATASIZE PUSH1 0x1F NOT PUSH1 0x1F DUP3 ADD AND DUP3 ADD DUP1 PUSH1 0x40 MSTORE POP DUP2 ADD SWAP1 PUSH2 0x11D3 SWAP2 SWAP1 PUSH2 0x2578 JUMP JUMPDEST PUSH1 0x8 DUP2 SWAP1 SSTORE POP CALLER PUSH20 0xFFFFFFFFFFFFFFFFFFFFFFFFFFFFFFFFFFFFFFFF AND PUSH32 0x49995E5DD6158CF69AD3E9777C46755A1A826A446C6416992167462DAD033B2A DUP7 DUP7 PUSH1 0x40 MLOAD PUSH2 0x1221 SWAP3 SWAP2 SWAP1 PUSH2 0x219E JUMP JUMPDEST PUSH1 0x40 MLOAD DUP1 SWAP2 SUB SWAP1 LOG2 POP POP POP SWAP2 POP SWAP2 JUMP JUMPDEST PUSH0 PUSH1 0x5 PUSH0 SWAP1 SLOAD SWAP1 PUSH2 0x100 EXP SWAP1 DIV PUSH20 0xFFFFFFFFFFFFFFFFFFFFFFFFFFFFFFFFFFFFFFFF AND PUSH20 0xFFFFFFFFFFFFFFFFFFFFFFFFFFFFFFFFFFFFFFFF AND PUSH4 0x23B872DD CALLER ADDRESS DUP7 PUSH1 0x40 MLOAD DUP5 PUSH4 0xFFFFFFFF AND PUSH1 0xE0 SHL DUP2 MSTORE PUSH1 0x4 ADD PUSH2 0x1290 SWAP4 SWAP3 SWAP2 SWAP1 PUSH2 0x25A3 JUMP JUMPDEST PUSH1 0x20 PUSH1 0x40 MLOAD DUP1 DUP4 SUB DUP2 PUSH0 DUP8 GAS CALL ISZERO DUP1 ISZERO PUSH2 0x12AC JUMPI RETURNDATASIZE PUSH0 DUP1 RETURNDATACOPY RETURNDATASIZE PUSH0 REVERT JUMPDEST POP POP POP POP PUSH1 0x40 MLOAD RETURNDATASIZE PUSH1 0x1F NOT PUSH1 0x1F DUP3 ADD AND DUP3 ADD DUP1 PUSH1 0x40 MSTORE POP DUP2 ADD SWAP1 PUSH2 0x12D0 SWAP2 SWAP1 PUSH2 0x2602 JUMP JUMPDEST POP PUSH1 0x6 PUSH0 SWAP1 SLOAD SWAP1 PUSH2 0x100 EXP SWAP1 DIV PUSH20 0xFFFFFFFFFFFFFFFFFFFFFFFFFFFFFFFFFFFFFFFF AND PUSH20 0xFFFFFFFFFFFFFFFFFFFFFFFFFFFFFFFFFFFFFFFF AND PUSH4 0x23B872DD CALLER ADDRESS DUP6 PUSH1 0x40 MLOAD DUP5 PUSH4 0xFFFFFFFF AND PUSH1 0xE0 SHL DUP2 MSTORE PUSH1 0x4 ADD PUSH2 0x132F SWAP4 SWAP3 SWAP2 SWAP1 PUSH2 0x25A3 JUMP JUMPDEST PUSH1 0x20 PUSH1 0x40 MLOAD DUP1 DUP4 SUB DUP2 PUSH0 DUP8 GAS CALL ISZERO DUP1 ISZERO PUSH2 0x134B JUMPI RETURNDATASIZE PUSH0 DUP1 RETURNDATACOPY RETURNDATASIZE PUSH0 REVERT JUMPDEST POP POP POP POP PUSH1 0x40 MLOAD RETURNDATASIZE PUSH1 0x1F NOT PUSH1 0x1F DUP3 ADD AND DUP3 ADD DUP1 PUSH1 0x40 MSTORE POP DUP2 ADD SWAP1 PUSH2 0x136F SWAP2 SWAP1 PUSH2 0x2602 JUMP JUMPDEST POP PUSH0 PUSH2 0x1379 PUSH2 0x541 JUMP JUMPDEST SWAP1 POP PUSH0 DUP2 SUB PUSH2 0x139D JUMPI PUSH2 0x1396 DUP4 DUP6 PUSH2 0x1391 SWAP2 SWAP1 PUSH2 0x2371 JUMP JUMPDEST PUSH2 0x189E JUMP JUMPDEST SWAP2 POP PUSH2 0x13DA JUMP JUMPDEST PUSH2 0x13D7 PUSH1 0x7 SLOAD DUP3 DUP7 PUSH2 0x13AF SWAP2 SWAP1 PUSH2 0x2371 JUMP JUMPDEST PUSH2 0x13B9 SWAP2 SWAP1 PUSH2 0x23DF JUMP JUMPDEST PUSH1 0x8 SLOAD DUP4 DUP7 PUSH2 0x13C8 SWAP2 SWAP1 PUSH2 0x2371 JUMP JUMPDEST PUSH2 0x13D2 SWAP2 SWAP1 PUSH2 0x23DF JUMP JUMPDEST PUSH2 0x1915 JUMP JUMPDEST SWAP2 POP JUMPDEST PUSH0 DUP3 GT PUSH2 0x141C JUMPI PUSH1 0x40 MLOAD PUSH32 0x8C379A000000000000000000000000000000000000000000000000000000000 DUP2 MSTORE PUSH1 0x4 ADD PUSH2 0x1413 SWAP1 PUSH2 0x2749 JUMP JUMPDEST PUSH1 0x40 MLOAD DUP1 SWAP2 SUB SWAP1 REVERT JUMPDEST PUSH1 0x5 PUSH0 SWAP1 SLOAD SWAP1 PUSH2 0x100 EXP SWAP1 DIV PUSH20 0xFFFFFFFFFFFFFFFFFFFFFFFFFFFFFFFFFFFFFFFF AND PUSH20 0xFFFFFFFFFFFFFFFFFFFFFFFFFFFFFFFFFFFFFFFF AND PUSH4 0x70A08231 ADDRESS PUSH1 0x40 MLOAD DUP3 PUSH4 0xFFFFFFFF AND PUSH1 0xE0 SHL DUP2 MSTORE PUSH1 0x4 ADD PUSH2 0x1476 SWAP2 SWAP1 PUSH2 0x254B JUMP JUMPDEST PUSH1 0x20 PUSH1 0x40 MLOAD DUP1 DUP4 SUB DUP2 DUP7 GAS STATICCALL ISZERO DUP1 ISZERO PUSH2 0x1491 JUMPI RETURNDATASIZE PUSH0 DUP1 RETURNDATACOPY RETURNDATASIZE PUSH0 REVERT JUMPDEST POP POP POP POP PUSH1 0x40 MLOAD RETURNDATASIZE PUSH1 0x1F NOT PUSH1 0x1F DUP3 ADD AND DUP3 ADD DUP1 PUSH1 0x40 MSTORE POP DUP2 ADD SWAP1 PUSH2 0x14B5 SWAP2 SWAP1 PUSH2 0x2578 JUMP JUMPDEST PUSH1 0x7 DUP2 SWAP1 SSTORE POP PUSH1 0x6 PUSH0 SWAP1 SLOAD SWAP1 PUSH2 0x100 EXP SWAP1 DIV PUSH20 0xFFFFFFFFFFFFFFFFFFFFFFFFFFFFFFFFFFFFFFFF AND PUSH20 0xFFFFFFFFFFFFFFFFFFFFFFFFFFFFFFFFFFFFFFFF AND PUSH4 0x70A08231 ADDRESS PUSH1 0x40 MLOAD DUP3 PUSH4 0xFFFFFFFF AND PUSH1 0xE0 SHL DUP2 MSTORE PUSH1 0x4 ADD PUSH2 0x1515 SWAP2 SWAP1 PUSH2 0x254B JUMP JUMPDEST PUSH1 0x20 PUSH1 0x40 MLOAD DUP1 DUP4 SUB DUP2 DUP7 GAS STATICCALL ISZERO DUP1 ISZERO PUSH2 0x1530 JUMPI RETURNDATASIZE PUSH0 DUP1 RETURNDATACOPY RETURNDATASIZE PUSH0 REVERT JUMPDEST POP POP POP POP PUSH1 0x40 MLOAD RETURNDATASIZE PUSH1 0x1F NOT PUSH1 0x1F DUP3 ADD AND DUP3 ADD DUP1 PUSH1 0x40 MSTORE POP DUP2 ADD SWAP1 PUSH2 0x1554 SWAP2 SWAP1 PUSH2 0x2578 JUMP JUMPDEST PUSH1 0x8 DUP2 SWAP1 SSTORE POP PUSH2 0x1564 CALLER DUP4 PUSH2 0x192D JUMP JUMPDEST CALLER PUSH20 0xFFFFFFFFFFFFFFFFFFFFFFFFFFFFFFFFFFFFFFFF AND PUSH32 0x4C209B5FC8AD50758F13E2E1088BA56A560DFF690A1C6FEF26394F4C03821C4F DUP6 DUP6 PUSH1 0x40 MLOAD PUSH2 0x15AC SWAP3 SWAP2 SWAP1 PUSH2 0x219E JUMP JUMPDEST PUSH1 0x40 MLOAD DUP1 SWAP2 SUB SWAP1 LOG2 POP SWAP3 SWAP2 POP POP JUMP JUMPDEST PUSH0 DUP1 PUSH2 0x15C5 PUSH2 0x1684 JUMP JUMPDEST SWAP1 POP PUSH2 0x15D2 DUP2 DUP6 DUP6 PUSH2 0x172F JUMP JUMPDEST PUSH1 0x1 SWAP2 POP POP SWAP3 SWAP2 POP POP JUMP JUMPDEST PUSH1 0x6 PUSH0 SWAP1 SLOAD SWAP1 PUSH2 0x100 EXP SWAP1 DIV PUSH20 0xFFFFFFFFFFFFFFFFFFFFFFFFFFFFFFFFFFFFFFFF AND DUP2 JUMP JUMPDEST PUSH0 PUSH1 0x1 PUSH0 DUP5 PUSH20 0xFFFFFFFFFFFFFFFFFFFFFFFFFFFFFFFFFFFFFFFF AND PUSH20 0xFFFFFFFFFFFFFFFFFFFFFFFFFFFFFFFFFFFFFFFF AND DUP2 MSTORE PUSH1 0x20 ADD SWAP1 DUP2 MSTORE PUSH1 0x20 ADD PUSH0 KECCAK256 PUSH0 DUP4 PUSH20 0xFFFFFFFFFFFFFFFFFFFFFFFFFFFFFFFFFFFFFFFF AND PUSH20 0xFFFFFFFFFFFFFFFFFFFFFFFFFFFFFFFFFFFFFFFF AND DUP2 MSTORE PUSH1 0x20 ADD SWAP1 DUP2 MSTORE PUSH1 0x20 ADD PUSH0 KECCAK256 SLOAD SWAP1 POP SWAP3 SWAP2 POP POP JUMP JUMPDEST PUSH0 CALLER SWAP1 POP SWAP1 JUMP JUMPDEST PUSH2 0x1698 DUP4 DUP4 DUP4 PUSH1 0x1 PUSH2 0x19AC JUMP JUMPDEST POP POP POP JUMP JUMPDEST PUSH0 PUSH2 0x16A8 DUP5 DUP5 PUSH2 0x1602 JUMP JUMPDEST SWAP1 POP PUSH32 0xFFFFFFFFFFFFFFFFFFFFFFFFFFFFFFFFFFFFFFFFFFFFFFFFFFFFFFFFFFFFFFFF DUP2 EQ PUSH2 0x1729 JUMPI DUP2 DUP2 LT ISZERO PUSH2 0x171A JUMPI DUP3 DUP2 DUP4 PUSH1 0x40 MLOAD PUSH32 0xFB8F41B200000000000000000000000000000000000000000000000000000000 DUP2 MSTORE PUSH1 0x4 ADD PUSH2 0x1711 SWAP4 SWAP3 SWAP2 SWAP1 PUSH2 0x2767 JUMP JUMPDEST PUSH1 0x40 MLOAD DUP1 SWAP2 SUB SWAP1 REVERT JUMPDEST PUSH2 0x1728 DUP5 DUP5 DUP5 DUP5 SUB PUSH0 PUSH2 0x19AC JUMP JUMPDEST JUMPDEST POP POP POP POP JUMP JUMPDEST PUSH0 PUSH20 0xFFFFFFFFFFFFFFFFFFFFFFFFFFFFFFFFFFFFFFFF AND DUP4 PUSH20 0xFFFFFFFFFFFFFFFFFFFFFFFFFFFFFFFFFFFFFFFF AND SUB PUSH2 0x179F JUMPI PUSH0 PUSH1 0x40 MLOAD PUSH32 0x96C6FD1E00000000000000000000000000000000000000000000000000000000 DUP2 MSTORE PUSH1 0x4 ADD PUSH2 0x1796 SWAP2 SWAP1 PUSH2 0x254B JUMP JUMPDEST PUSH1 0x40 MLOAD DUP1 SWAP2 SUB SWAP1 REVERT JUMPDEST PUSH0 PUSH20 0xFFFFFFFFFFFFFFFFFFFFFFFFFFFFFFFFFFFFFFFF AND DUP3 PUSH20 0xFFFFFFFFFFFFFFFFFFFFFFFFFFFFFFFFFFFFFFFF AND SUB PUSH2 0x180F JUMPI PUSH0 PUSH1 0x40 MLOAD PUSH32 0xEC442F0500000000000000000000000000000000000000000000000000000000 DUP2 MSTORE PUSH1 0x4 ADD PUSH2 0x1806 SWAP2 SWAP1 PUSH2 0x254B JUMP JUMPDEST PUSH1 0x40 MLOAD DUP1 SWAP2 SUB SWAP1 REVERT JUMPDEST PUSH2 0x181A DUP4 DUP4 DUP4 PUSH2 0x1B7B JUMP JUMPDEST POP POP POP JUMP JUMPDEST PUSH0 PUSH20 0xFFFFFFFFFFFFFFFFFFFFFFFFFFFFFFFFFFFFFFFF AND DUP3 PUSH20 0xFFFFFFFFFFFFFFFFFFFFFFFFFFFFFFFFFFFFFFFF AND SUB PUSH2 0x188F JUMPI PUSH0 PUSH1 0x40 MLOAD PUSH32 0x96C6FD1E00000000000000000000000000000000000000000000000000000000 DUP2 MSTORE PUSH1 0x4 ADD PUSH2 0x1886 SWAP2 SWAP1 PUSH2 0x254B JUMP JUMPDEST PUSH1 0x40 MLOAD DUP1 SWAP2 SUB SWAP1 REVERT JUMPDEST PUSH2 0x189A DUP3 PUSH0 DUP4 PUSH2 0x1B7B JUMP JUMPDEST POP POP JUMP JUMPDEST PUSH0 PUSH1 0x3 DUP3 GT ISZERO PUSH2 0x1903 JUMPI DUP2 SWAP1 POP PUSH0 PUSH1 0x1 PUSH1 0x2 DUP5 PUSH2 0x18BB SWAP2 SWAP1 PUSH2 0x23DF JUMP JUMPDEST PUSH2 0x18C5 SWAP2 SWAP1 PUSH2 0x233E JUMP JUMPDEST SWAP1 POP JUMPDEST DUP2 DUP2 LT ISZERO PUSH2 0x18FD JUMPI DUP1 SWAP2 POP PUSH1 0x2 DUP2 DUP3 DUP6 PUSH2 0x18E2 SWAP2 SWAP1 PUSH2 0x23DF JUMP JUMPDEST PUSH2 0x18EC SWAP2 SWAP1 PUSH2 0x233E JUMP JUMPDEST PUSH2 0x18F6 SWAP2 SWAP1 PUSH2 0x23DF JUMP JUMPDEST SWAP1 POP PUSH2 0x18C8 JUMP JUMPDEST POP PUSH2 0x1910 JUMP JUMPDEST PUSH0 DUP3 EQ PUSH2 0x190F JUMPI PUSH1 0x1 SWAP1 POP JUMPDEST JUMPDEST SWAP2 SWAP1 POP JUMP JUMPDEST PUSH0 DUP2 DUP4 LT PUSH2 0x1923 JUMPI DUP2 PUSH2 0x1925 JUMP JUMPDEST DUP3 JUMPDEST SWAP1 POP SWAP3 SWAP2 POP POP JUMP JUMPDEST PUSH0 PUSH20 0xFFFFFFFFFFFFFFFFFFFFFFFFFFFFFFFFFFFFFFFF AND DUP3 PUSH20 0xFFFFFFFFFFFFFFFFFFFFFFFFFFFFFFFFFFFFFFFF AND SUB PUSH2 0x199D JUMPI PUSH0 PUSH1 0x40 MLOAD PUSH32 0xEC442F0500000000000000000000000000000000000000000000000000000000 DUP2 MSTORE PUSH1 0x4 ADD PUSH2 0x1994 SWAP2 SWAP1 PUSH2 0x254B JUMP JUMPDEST PUSH1 0x40 MLOAD DUP1 SWAP2 SUB SWAP1 REVERT JUMPDEST PUSH2 0x19A8 PUSH0 DUP4 DUP4 PUSH2 0x1B7B JUMP JUMPDEST POP POP JUMP JUMPDEST PUSH0 PUSH20 0xFFFFFFFFFFFFFFFFFFFFFFFFFFFFFFFFFFFFFFFF AND DUP5 PUSH20 0xFFFFFFFFFFFFFFFFFFFFFFFFFFFFFFFFFFFFFFFF AND SUB PUSH2 0x1A1C JUMPI PUSH0 PUSH1 0x40 MLOAD PUSH32 0xE602DF0500000000000000000000000000000000000000000000000000000000 DUP2 MSTORE PUSH1 0x4 ADD PUSH2 0x1A13 SWAP2 SWAP1 PUSH2 0x254B JUMP JUMPDEST PUSH1 0x40 MLOAD DUP1 SWAP2 SUB SWAP1 REVERT JUMPDEST PUSH0 PUSH20 0xFFFFFFFFFFFFFFFFFFFFFFFFFFFFFFFFFFFFFFFF AND DUP4 PUSH20 0xFFFFFFFFFFFFFFFFFFFFFFFFFFFFFFFFFFFFFFFF AND SUB PUSH2 0x1A8C JUMPI PUSH0 PUSH1 0x40 MLOAD PUSH32 0x94280D6200000000000000000000000000000000000000000000000000000000 DUP2 MSTORE PUSH1 0x4 ADD PUSH2 0x1A83 SWAP2 SWAP1 PUSH2 0x254B JUMP JUMPDEST PUSH1 0x40 MLOAD DUP1 SWAP2 SUB SWAP1 REVERT JUMPDEST DUP2 PUSH1 0x1 PUSH0 DUP7 PUSH20 0xFFFFFFFFFFFFFFFFFFFFFFFFFFFFFFFFFFFFFFFF AND PUSH20 0xFFFFFFFFFFFFFFFFFFFFFFFFFFFFFFFFFFFFFFFF AND DUP2 MSTORE PUSH1 0x20 ADD SWAP1 DUP2 MSTORE PUSH1 0x20 ADD PUSH0 KECCAK256 PUSH0 DUP6 PUSH20 0xFFFFFFFFFFFFFFFFFFFFFFFFFFFFFFFFFFFFFFFF AND PUSH20 0xFFFFFFFFFFFFFFFFFFFFFFFFFFFFFFFFFFFFFFFF AND DUP2 MSTORE PUSH1 0x20 ADD SWAP1 DUP2 MSTORE PUSH1 0x20 ADD PUSH0 KECCAK256 DUP2 SWAP1 SSTORE POP DUP1 ISZERO PUSH2 0x1B75 JUMPI DUP3 PUSH20 0xFFFFFFFFFFFFFFFFFFFFFFFFFFFFFFFFFFFFFFFF AND DUP5 PUSH20 0xFFFFFFFFFFFFFFFFFFFFFFFFFFFFFFFFFFFFFFFF AND PUSH32 0x8C5BE1E5EBEC7D5BD14F71427D1E84F3DD0314C0F7B2291E5B200AC8C7C3B925 DUP5 PUSH1 0x40 MLOAD PUSH2 0x1B6C SWAP2 SWAP1 PUSH2 0x1E2A JUMP JUMPDEST PUSH1 0x40 MLOAD DUP1 SWAP2 SUB SWAP1 LOG3 JUMPDEST POP POP POP POP JUMP JUMPDEST PUSH0 PUSH20 0xFFFFFFFFFFFFFFFFFFFFFFFFFFFFFFFFFFFFFFFF AND DUP4 PUSH20 0xFFFFFFFFFFFFFFFFFFFFFFFFFFFFFFFFFFFFFFFF AND SUB PUSH2 0x1BCB JUMPI DUP1 PUSH1 0x2 PUSH0 DUP3 DUP3 SLOAD PUSH2 0x1BBF SWAP2 SWAP1 PUSH2 0x233E JUMP JUMPDEST SWAP3 POP POP DUP2 SWAP1 SSTORE POP PUSH2 0x1C99 JUMP JUMPDEST PUSH0 DUP1 PUSH0 DUP6 PUSH20 0xFFFFFFFFFFFFFFFFFFFFFFFFFFFFFFFFFFFFFFFF AND PUSH20 0xFFFFFFFFFFFFFFFFFFFFFFFFFFFFFFFFFFFFFFFF AND DUP2 MSTORE PUSH1 0x20 ADD SWAP1 DUP2 MSTORE PUSH1 0x20 ADD PUSH0 KECCAK256 SLOAD SWAP1 POP DUP2 DUP2 LT ISZERO PUSH2 0x1C54 JUMPI DUP4 DUP2 DUP4 PUSH1 0x40 MLOAD PUSH32 0xE450D38C00000000000000000000000000000000000000000000000000000000 DUP2 MSTORE PUSH1 0x4 ADD PUSH2 0x1C4B SWAP4 SWAP3 SWAP2 SWAP1 PUSH2 0x2767 JUMP JUMPDEST PUSH1 0x40 MLOAD DUP1 SWAP2 SUB SWAP1 REVERT JUMPDEST DUP2 DUP2 SUB PUSH0 DUP1 DUP7 PUSH20 0xFFFFFFFFFFFFFFFFFFFFFFFFFFFFFFFFFFFFFFFF AND PUSH20 0xFFFFFFFFFFFFFFFFFFFFFFFFFFFFFFFFFFFFFFFF AND DUP2 MSTORE PUSH1 0x20 ADD SWAP1 DUP2 MSTORE PUSH1 0x20 ADD PUSH0 KECCAK256 DUP2 SWAP1 SSTORE POP POP JUMPDEST PUSH0 PUSH20 0xFFFFFFFFFFFFFFFFFFFFFFFFFFFFFFFFFFFFFFFF AND DUP3 PUSH20 0xFFFFFFFFFFFFFFFFFFFFFFFFFFFFFFFFFFFFFFFF AND SUB PUSH2 0x1CE0 JUMPI DUP1 PUSH1 0x2 PUSH0 DUP3 DUP3 SLOAD SUB SWAP3 POP POP DUP2 SWAP1 SSTORE POP PUSH2 0x1D2A JUMP JUMPDEST DUP1 PUSH0 DUP1 DUP5 PUSH20 0xFFFFFFFFFFFFFFFFFFFFFFFFFFFFFFFFFFFFFFFF AND PUSH20 0xFFFFFFFFFFFFFFFFFFFFFFFFFFFFFFFFFFFFFFFF AND DUP2 MSTORE PUSH1 0x20 ADD SWAP1 DUP2 MSTORE PUSH1 0x20 ADD PUSH0 KECCAK256 PUSH0 DUP3 DUP3 SLOAD ADD SWAP3 POP POP DUP2 SWAP1 SSTORE POP JUMPDEST DUP2 PUSH20 0xFFFFFFFFFFFFFFFFFFFFFFFFFFFFFFFFFFFFFFFF AND DUP4 PUSH20 0xFFFFFFFFFFFFFFFFFFFFFFFFFFFFFFFFFFFFFFFF AND PUSH32 0xDDF252AD1BE2C89B69C2B068FC378DAA952BA7F163C4A11628F55A4DF523B3EF DUP4 PUSH1 0x40 MLOAD PUSH2 0x1D87 SWAP2 SWAP1 PUSH2 0x1E2A JUMP JUMPDEST PUSH1 0x40 MLOAD DUP1 SWAP2 SUB SWAP1 LOG3 POP POP POP JUMP JUMPDEST PUSH0 DUP1 REVERT JUMPDEST PUSH0 DUP2 SWAP1 POP SWAP2 SWAP1 POP JUMP JUMPDEST PUSH2 0x1DAA DUP2 PUSH2 0x1D98 JUMP JUMPDEST DUP2 EQ PUSH2 0x1DB4 JUMPI PUSH0 DUP1 REVERT JUMPDEST POP JUMP JUMPDEST PUSH0 DUP2 CALLDATALOAD SWAP1 POP PUSH2 0x1DC5 DUP2 PUSH2 0x1DA1 JUMP JUMPDEST SWAP3 SWAP2 POP POP JUMP JUMPDEST PUSH0 DUP1 PUSH0 PUSH1 0x60 DUP5 DUP7 SUB SLT ISZERO PUSH2 0x1DE2 JUMPI PUSH2 0x1DE1 PUSH2 0x1D94 JUMP JUMPDEST JUMPDEST PUSH0 PUSH2 0x1DEF DUP7 DUP3 DUP8 ADD PUSH2 0x1DB7 JUMP JUMPDEST SWAP4 POP POP PUSH1 0x20 PUSH2 0x1E00 DUP7 DUP3 DUP8 ADD PUSH2 0x1DB7 JUMP JUMPDEST SWAP3 POP POP PUSH1 0x40 PUSH2 0x1E11 DUP7 DUP3 DUP8 ADD PUSH2 0x1DB7 JUMP JUMPDEST SWAP2 POP POP SWAP3 POP SWAP3 POP SWAP3 JUMP JUMPDEST PUSH2 0x1E24 DUP2 PUSH2 0x1D98 JUMP JUMPDEST DUP3 MSTORE POP POP JUMP JUMPDEST PUSH0 PUSH1 0x20 DUP3 ADD SWAP1 POP PUSH2 0x1E3D PUSH0 DUP4 ADD DUP5 PUSH2 0x1E1B JUMP JUMPDEST SWAP3 SWAP2 POP POP JUMP JUMPDEST PUSH0 DUP2 MLOAD SWAP1 POP SWAP2 SWAP1 POP JUMP JUMPDEST PUSH0 DUP3 DUP3 MSTORE PUSH1 0x20 DUP3 ADD SWAP1 POP SWAP3 SWAP2 POP POP JUMP JUMPDEST DUP3 DUP2 DUP4 MCOPY PUSH0 DUP4 DUP4 ADD MSTORE POP POP POP JUMP JUMPDEST PUSH0 PUSH1 0x1F NOT PUSH1 0x1F DUP4 ADD AND SWAP1 POP SWAP2 SWAP1 POP JUMP JUMPDEST PUSH0 PUSH2 0x1E85 DUP3 PUSH2 0x1E43 JUMP JUMPDEST PUSH2 0x1E8F DUP2 DUP6 PUSH2 0x1E4D JUMP JUMPDEST SWAP4 POP PUSH2 0x1E9F DUP2 DUP6 PUSH1 0x20 DUP7 ADD PUSH2 0x1E5D JUMP JUMPDEST PUSH2 0x1EA8 DUP2 PUSH2 0x1E6B JUMP JUMPDEST DUP5 ADD SWAP2 POP POP SWAP3 SWAP2 POP POP JUMP JUMPDEST PUSH0 PUSH1 0x20 DUP3 ADD SWAP1 POP DUP2 DUP2 SUB PUSH0 DUP4 ADD MSTORE PUSH2 0x1ECB DUP2 DUP5 PUSH2 0x1E7B JUMP JUMPDEST SWAP1 POP SWAP3 SWAP2 POP POP JUMP JUMPDEST PUSH0 PUSH20 0xFFFFFFFFFFFFFFFFFFFFFFFFFFFFFFFFFFFFFFFF DUP3 AND SWAP1 POP SWAP2 SWAP1 POP JUMP JUMPDEST PUSH0 PUSH2 0x1EFC DUP3 PUSH2 0x1ED3 JUMP JUMPDEST SWAP1 POP SWAP2 SWAP1 POP JUMP JUMPDEST PUSH2 0x1F0C DUP2 PUSH2 0x1EF2 JUMP JUMPDEST DUP2 EQ PUSH2 0x1F16 JUMPI PUSH0 DUP1 REVERT JUMPDEST POP JUMP JUMPDEST PUSH0 DUP2 CALLDATALOAD SWAP1 POP PUSH2 0x1F27 DUP2 PUSH2 0x1F03 JUMP JUMPDEST SWAP3 SWAP2 POP POP JUMP JUMPDEST PUSH0 DUP1 PUSH1 0x40 DUP4 DUP6 SUB SLT ISZERO PUSH2 0x1F43 JUMPI PUSH2 0x1F42 PUSH2 0x1D94 JUMP JUMPDEST JUMPDEST PUSH0 PUSH2 0x1F50 DUP6 DUP3 DUP7 ADD PUSH2 0x1F19 JUMP JUMPDEST SWAP3 POP POP PUSH1 0x20 PUSH2 0x1F61 DUP6 DUP3 DUP7 ADD PUSH2 0x1DB7 JUMP JUMPDEST SWAP2 POP POP SWAP3 POP SWAP3 SWAP1 POP JUMP JUMPDEST PUSH0 DUP2 ISZERO ISZERO SWAP1 POP SWAP2 SWAP1 POP JUMP JUMPDEST PUSH2 0x1F7F DUP2 PUSH2 0x1F6B JUMP JUMPDEST DUP3 MSTORE POP POP JUMP JUMPDEST PUSH0 PUSH1 0x20 DUP3 ADD SWAP1 POP PUSH2 0x1F98 PUSH0 DUP4 ADD DUP5 PUSH2 0x1F76 JUMP JUMPDEST SWAP3 SWAP2 POP POP JUMP JUMPDEST PUSH0 DUP2 SWAP1 POP SWAP2 SWAP1 POP JUMP JUMPDEST PUSH0 PUSH2 0x1FC1 PUSH2 0x1FBC PUSH2 0x1FB7 DUP5 PUSH2 0x1ED3 JUMP JUMPDEST PUSH2 0x1F9E JUMP JUMPDEST PUSH2 0x1ED3 JUMP JUMPDEST SWAP1 POP SWAP2 SWAP1 POP JUMP JUMPDEST PUSH0 PUSH2 0x1FD2 DUP3 PUSH2 0x1FA7 JUMP JUMPDEST SWAP1 POP SWAP2 SWAP1 POP JUMP JUMPDEST PUSH0 PUSH2 0x1FE3 DUP3 PUSH2 0x1FC8 JUMP JUMPDEST SWAP1 POP SWAP2 SWAP1 POP JUMP JUMPDEST PUSH2 0x1FF3 DUP2 PUSH2 0x1FD9 JUMP JUMPDEST DUP3 MSTORE POP POP JUMP JUMPDEST PUSH0 PUSH1 0x20 DUP3 ADD SWAP1 POP PUSH2 0x200C PUSH0 DUP4 ADD DUP5 PUSH2 0x1FEA JUMP JUMPDEST SWAP3 SWAP2 POP POP JUMP JUMPDEST PUSH0 DUP1 PUSH0 PUSH1 0x60 DUP5 DUP7 SUB SLT ISZERO PUSH2 0x2029 JUMPI PUSH2 0x2028 PUSH2 0x1D94 JUMP JUMPDEST JUMPDEST PUSH0 PUSH2 0x2036 DUP7 DUP3 DUP8 ADD PUSH2 0x1F19 JUMP JUMPDEST SWAP4 POP POP PUSH1 0x20 PUSH2 0x2047 DUP7 DUP3 DUP8 ADD PUSH2 0x1F19 JUMP JUMPDEST SWAP3 POP POP PUSH1 0x40 PUSH2 0x2058 DUP7 DUP3 DUP8 ADD PUSH2 0x1DB7 JUMP JUMPDEST SWAP2 POP POP SWAP3 POP SWAP3 POP SWAP3 JUMP JUMPDEST PUSH0 PUSH1 0xFF DUP3 AND SWAP1 POP SWAP2 SWAP1 POP JUMP JUMPDEST PUSH2 0x2077 DUP2 PUSH2 0x2062 JUMP JUMPDEST DUP3 MSTORE POP POP JUMP JUMPDEST PUSH0 PUSH1 0x20 DUP3 ADD SWAP1 POP PUSH2 0x2090 PUSH0 DUP4 ADD DUP5 PUSH2 0x206E JUMP JUMPDEST SWAP3 SWAP2 POP POP JUMP JUMPDEST PUSH0 PUSH2 0x20A0 DUP3 PUSH2 0x1EF2 JUMP JUMPDEST SWAP1 POP SWAP2 SWAP1 POP JUMP JUMPDEST PUSH2 0x20B0 DUP2 PUSH2 0x2096 JUMP JUMPDEST DUP2 EQ PUSH2 0x20BA JUMPI PUSH0 DUP1 REVERT JUMPDEST POP JUMP JUMPDEST PUSH0 DUP2 CALLDATALOAD SWAP1 POP PUSH2 0x20CB DUP2 PUSH2 0x20A7 JUMP JUMPDEST SWAP3 SWAP2 POP POP JUMP JUMPDEST PUSH0 DUP1 PUSH0 PUSH1 0x60 DUP5 DUP7 SUB SLT ISZERO PUSH2 0x20E8 JUMPI PUSH2 0x20E7 PUSH2 0x1D94 JUMP JUMPDEST JUMPDEST PUSH0 PUSH2 0x20F5 DUP7 DUP3 DUP8 ADD PUSH2 0x1DB7 JUMP JUMPDEST SWAP4 POP POP PUSH1 0x20 PUSH2 0x2106 DUP7 DUP3 DUP8 ADD PUSH2 0x20BD JUMP JUMPDEST SWAP3 POP POP PUSH1 0x40 PUSH2 0x2117 DUP7 DUP3 DUP8 ADD PUSH2 0x1DB7 JUMP JUMPDEST SWAP2 POP POP SWAP3 POP SWAP3 POP SWAP3 JUMP JUMPDEST PUSH0 PUSH1 0x40 DUP3 ADD SWAP1 POP PUSH2 0x2134 PUSH0 DUP4 ADD DUP6 PUSH2 0x1E1B JUMP JUMPDEST PUSH2 0x2141 PUSH1 0x20 DUP4 ADD DUP5 PUSH2 0x1FEA JUMP JUMPDEST SWAP4 SWAP3 POP POP POP JUMP JUMPDEST PUSH0 PUSH1 0x20 DUP3 DUP5 SUB SLT ISZERO PUSH2 0x215D JUMPI PUSH2 0x215C PUSH2 0x1D94 JUMP JUMPDEST JUMPDEST PUSH0 PUSH2 0x216A DUP5 DUP3 DUP6 ADD PUSH2 0x1F19 JUMP JUMPDEST SWAP2 POP POP SWAP3 SWAP2 POP POP JUMP JUMPDEST PUSH0 PUSH1 0x20 DUP3 DUP5 SUB SLT ISZERO PUSH2 0x2188 JUMPI PUSH2 0x2187 PUSH2 0x1D94 JUMP JUMPDEST JUMPDEST PUSH0 PUSH2 0x2195 DUP5 DUP3 DUP6 ADD PUSH2 0x1DB7 JUMP JUMPDEST SWAP2 POP POP SWAP3 SWAP2 POP POP JUMP JUMPDEST PUSH0 PUSH1 0x40 DUP3 ADD SWAP1 POP PUSH2 0x21B1 PUSH0 DUP4 ADD DUP6 PUSH2 0x1E1B JUMP JUMPDEST PUSH2 0x21BE PUSH1 0x20 DUP4 ADD DUP5 PUSH2 0x1E1B JUMP JUMPDEST SWAP4 SWAP3 POP POP POP JUMP JUMPDEST PUSH0 DUP1 PUSH1 0x40 DUP4 DUP6 SUB SLT ISZERO PUSH2 0x21DB JUMPI PUSH2 0x21DA PUSH2 0x1D94 JUMP JUMPDEST JUMPDEST PUSH0 PUSH2 0x21E8 DUP6 DUP3 DUP7 ADD PUSH2 0x1DB7 JUMP JUMPDEST SWAP3 POP POP PUSH1 0x20 PUSH2 0x21F9 DUP6 DUP3 DUP7 ADD PUSH2 0x1DB7 JUMP JUMPDEST SWAP2 POP POP SWAP3 POP SWAP3 SWAP1 POP JUMP JUMPDEST PUSH0 DUP1 PUSH1 0x40 DUP4 DUP6 SUB SLT ISZERO PUSH2 0x2219 JUMPI PUSH2 0x2218 PUSH2 0x1D94 JUMP JUMPDEST JUMPDEST PUSH0 PUSH2 0x2226 DUP6 DUP3 DUP7 ADD PUSH2 0x1F19 JUMP JUMPDEST SWAP3 POP POP PUSH1 0x20 PUSH2 0x2237 DUP6 DUP3 DUP7 ADD PUSH2 0x1F19 JUMP JUMPDEST SWAP2 POP POP SWAP3 POP SWAP3 SWAP1 POP JUMP JUMPDEST PUSH32 0x494E53554646494349454E545F414D4F554E5400000000000000000000000000 PUSH0 DUP3 ADD MSTORE POP JUMP JUMPDEST PUSH0 PUSH2 0x2275 PUSH1 0x13 DUP4 PUSH2 0x1E4D JUMP JUMPDEST SWAP2 POP PUSH2 0x2280 DUP3 PUSH2 0x2241 JUMP JUMPDEST PUSH1 0x20 DUP3 ADD SWAP1 POP SWAP2 SWAP1 POP JUMP JUMPDEST PUSH0 PUSH1 0x20 DUP3 ADD SWAP1 POP DUP2 DUP2 SUB PUSH0 DUP4 ADD MSTORE PUSH2 0x22A2 DUP2 PUSH2 0x2269 JUMP JUMPDEST SWAP1 POP SWAP2 SWAP1 POP JUMP JUMPDEST PUSH32 0x494E53554646494349454E545F4C495155494449545900000000000000000000 PUSH0 DUP3 ADD MSTORE POP JUMP JUMPDEST PUSH0 PUSH2 0x22DD PUSH1 0x16 DUP4 PUSH2 0x1E4D JUMP JUMPDEST SWAP2 POP PUSH2 0x22E8 DUP3 PUSH2 0x22A9 JUMP JUMPDEST PUSH1 0x20 DUP3 ADD SWAP1 POP SWAP2 SWAP1 POP JUMP JUMPDEST PUSH0 PUSH1 0x20 DUP3 ADD SWAP1 POP DUP2 DUP2 SUB PUSH0 DUP4 ADD MSTORE PUSH2 0x230A DUP2 PUSH2 0x22D1 JUMP JUMPDEST SWAP1 POP SWAP2 SWAP1 POP JUMP JUMPDEST PUSH32 0x4E487B7100000000000000000000000000000000000000000000000000000000 PUSH0 MSTORE PUSH1 0x11 PUSH1 0x4 MSTORE PUSH1 0x24 PUSH0 REVERT JUMPDEST PUSH0 PUSH2 0x2348 DUP3 PUSH2 0x1D98 JUMP JUMPDEST SWAP2 POP PUSH2 0x2353 DUP4 PUSH2 0x1D98 JUMP JUMPDEST SWAP3 POP DUP3 DUP3 ADD SWAP1 POP DUP1 DUP3 GT ISZERO PUSH2 0x236B JUMPI PUSH2 0x236A PUSH2 0x2311 JUMP JUMPDEST JUMPDEST SWAP3 SWAP2 POP POP JUMP JUMPDEST PUSH0 PUSH2 0x237B DUP3 PUSH2 0x1D98 JUMP JUMPDEST SWAP2 POP PUSH2 0x2386 DUP4 PUSH2 0x1D98 JUMP JUMPDEST SWAP3 POP DUP3 DUP3 MUL PUSH2 0x2394 DUP2 PUSH2 0x1D98 JUMP JUMPDEST SWAP2 POP DUP3 DUP3 DIV DUP5 EQ DUP4 ISZERO OR PUSH2 0x23AB JUMPI PUSH2 0x23AA PUSH2 0x2311 JUMP JUMPDEST JUMPDEST POP SWAP3 SWAP2 POP POP JUMP JUMPDEST PUSH32 0x4E487B7100000000000000000000000000000000000000000000000000000000 PUSH0 MSTORE PUSH1 0x12 PUSH1 0x4 MSTORE PUSH1 0x24 PUSH0 REVERT JUMPDEST PUSH0 PUSH2 0x23E9 DUP3 PUSH2 0x1D98 JUMP JUMPDEST SWAP2 POP PUSH2 0x23F4 DUP4 PUSH2 0x1D98 JUMP JUMPDEST SWAP3 POP DUP3 PUSH2 0x2404 JUMPI PUSH2 0x2403 PUSH2 0x23B2 JUMP JUMPDEST JUMPDEST DUP3 DUP3 DIV SWAP1 POP SWAP3 SWAP2 POP POP JUMP JUMPDEST PUSH32 0x4E487B7100000000000000000000000000000000000000000000000000000000 PUSH0 MSTORE PUSH1 0x22 PUSH1 0x4 MSTORE PUSH1 0x24 PUSH0 REVERT JUMPDEST PUSH0 PUSH1 0x2 DUP3 DIV SWAP1 POP PUSH1 0x1 DUP3 AND DUP1 PUSH2 0x2453 JUMPI PUSH1 0x7F DUP3 AND SWAP2 POP JUMPDEST PUSH1 0x20 DUP3 LT DUP2 SUB PUSH2 0x2466 JUMPI PUSH2 0x2465 PUSH2 0x240F JUMP JUMPDEST JUMPDEST POP SWAP2 SWAP1 POP JUMP JUMPDEST PUSH32 0x494E53554646494349454E545F4F55545055545F414D4F554E54000000000000 PUSH0 DUP3 ADD MSTORE POP JUMP JUMPDEST PUSH0 PUSH2 0x24A0 PUSH1 0x1A DUP4 PUSH2 0x1E4D JUMP JUMPDEST SWAP2 POP PUSH2 0x24AB DUP3 PUSH2 0x246C JUMP JUMPDEST PUSH1 0x20 DUP3 ADD SWAP1 POP SWAP2 SWAP1 POP JUMP JUMPDEST PUSH0 PUSH1 0x20 DUP3 ADD SWAP1 POP DUP2 DUP2 SUB PUSH0 DUP4 ADD MSTORE PUSH2 0x24CD DUP2 PUSH2 0x2494 JUMP JUMPDEST SWAP1 POP SWAP2 SWAP1 POP JUMP JUMPDEST PUSH32 0x494E56414C49445F544F4B454E00000000000000000000000000000000000000 PUSH0 DUP3 ADD MSTORE POP JUMP JUMPDEST PUSH0 PUSH2 0x2508 PUSH1 0xD DUP4 PUSH2 0x1E4D JUMP JUMPDEST SWAP2 POP PUSH2 0x2513 DUP3 PUSH2 0x24D4 JUMP JUMPDEST PUSH1 0x20 DUP3 ADD SWAP1 POP SWAP2 SWAP1 POP JUMP JUMPDEST PUSH0 PUSH1 0x20 DUP3 ADD SWAP1 POP DUP2 DUP2 SUB PUSH0 DUP4 ADD MSTORE PUSH2 0x2535 DUP2 PUSH2 0x24FC JUMP JUMPDEST SWAP1 POP SWAP2 SWAP1 POP JUMP JUMPDEST PUSH2 0x2545 DUP2 PUSH2 0x1EF2 JUMP JUMPDEST DUP3 MSTORE POP POP JUMP JUMPDEST PUSH0 PUSH1 0x20 DUP3 ADD SWAP1 POP PUSH2 0x255E PUSH0 DUP4 ADD DUP5 PUSH2 0x253C JUMP JUMPDEST SWAP3 SWAP2 POP POP JUMP JUMPDEST PUSH0 DUP2 MLOAD SWAP1 POP PUSH2 0x2572 DUP2 PUSH2 0x1DA1 JUMP JUMPDEST SWAP3 SWAP2 POP POP JUMP JUMPDEST PUSH0 PUSH1 0x20 DUP3 DUP5 SUB SLT ISZERO PUSH2 0x258D JUMPI PUSH2 0x258C PUSH2 0x1D94 JUMP JUMPDEST JUMPDEST PUSH0 PUSH2 0x259A DUP5 DUP3 DUP6 ADD PUSH2 0x2564 JUMP JUMPDEST SWAP2 POP POP SWAP3 SWAP2 POP POP JUMP JUMPDEST PUSH0 PUSH1 0x60 DUP3 ADD SWAP1 POP PUSH2 0x25B6 PUSH0 DUP4 ADD DUP7 PUSH2 0x253C JUMP JUMPDEST PUSH2 0x25C3 PUSH1 0x20 DUP4 ADD DUP6 PUSH2 0x253C JUMP JUMPDEST PUSH2 0x25D0 PUSH1 0x40 DUP4 ADD DUP5 PUSH2 0x1E1B JUMP JUMPDEST SWAP5 SWAP4 POP POP POP POP JUMP JUMPDEST PUSH2 0x25E1 DUP2 PUSH2 0x1F6B JUMP JUMPDEST DUP2 EQ PUSH2 0x25EB JUMPI PUSH0 DUP1 REVERT JUMPDEST POP JUMP JUMPDEST PUSH0 DUP2 MLOAD SWAP1 POP PUSH2 0x25FC DUP2 PUSH2 0x25D8 JUMP JUMPDEST SWAP3 SWAP2 POP POP JUMP JUMPDEST PUSH0 PUSH1 0x20 DUP3 DUP5 SUB SLT ISZERO PUSH2 0x2617 JUMPI PUSH2 0x2616 PUSH2 0x1D94 JUMP JUMPDEST JUMPDEST PUSH0 PUSH2 0x2624 DUP5 DUP3 DUP6 ADD PUSH2 0x25EE JUMP JUMPDEST SWAP2 POP POP SWAP3 SWAP2 POP POP JUMP JUMPDEST PUSH0 PUSH1 0x40 DUP3 ADD SWAP1 POP PUSH2 0x2640 PUSH0 DUP4 ADD DUP6 PUSH2 0x253C JUMP JUMPDEST PUSH2 0x264D PUSH1 0x20 DUP4 ADD DUP5 PUSH2 0x1E1B JUMP JUMPDEST SWAP4 SWAP3 POP POP POP JUMP JUMPDEST PUSH0 PUSH1 0x80 DUP3 ADD SWAP1 POP PUSH2 0x2667 PUSH0 DUP4 ADD DUP8 PUSH2 0x1E1B JUMP JUMPDEST PUSH2 0x2674 PUSH1 0x20 DUP4 ADD DUP7 PUSH2 0x253C JUMP JUMPDEST PUSH2 0x2681 PUSH1 0x40 DUP4 ADD DUP6 PUSH2 0x1E1B JUMP JUMPDEST PUSH2 0x268E PUSH1 0x60 DUP4 ADD DUP5 PUSH2 0x253C JUMP JUMPDEST SWAP6 SWAP5 POP POP POP POP POP JUMP JUMPDEST PUSH32 0x494E53554646494349454E545F4C49515549444954595F4255524E4544000000 PUSH0 DUP3 ADD MSTORE POP JUMP JUMPDEST PUSH0 PUSH2 0x26CB PUSH1 0x1D DUP4 PUSH2 0x1E4D JUMP JUMPDEST SWAP2 POP PUSH2 0x26D6 DUP3 PUSH2 0x2697 JUMP JUMPDEST PUSH1 0x20 DUP3 ADD SWAP1 POP SWAP2 SWAP1 POP JUMP JUMPDEST PUSH0 PUSH1 0x20 DUP3 ADD SWAP1 POP DUP2 DUP2 SUB PUSH0 DUP4 ADD MSTORE PUSH2 0x26F8 DUP2 PUSH2 0x26BF JUMP JUMPDEST SWAP1 POP SWAP2 SWAP1 POP JUMP JUMPDEST PUSH32 0x494E53554646494349454E545F4C49515549444954595F4D494E544544000000 PUSH0 DUP3 ADD MSTORE POP JUMP JUMPDEST PUSH0 PUSH2 0x2733 PUSH1 0x1D DUP4 PUSH2 0x1E4D JUMP JUMPDEST SWAP2 POP PUSH2 0x273E DUP3 PUSH2 0x26FF JUMP JUMPDEST PUSH1 0x20 DUP3 ADD SWAP1 POP SWAP2 SWAP1 POP JUMP JUMPDEST PUSH0 PUSH1 0x20 DUP3 ADD SWAP1 POP DUP2 DUP2 SUB PUSH0 DUP4 ADD MSTORE PUSH2 0x2760 DUP2 PUSH2 0x2727 JUMP JUMPDEST SWAP1 POP SWAP2 SWAP1 POP JUMP JUMPDEST PUSH0 PUSH1 0x60 DUP3 ADD SWAP1 POP PUSH2 0x277A PUSH0 DUP4 ADD DUP7 PUSH2 0x253C JUMP JUMPDEST PUSH2 0x2787 PUSH1 0x20 DUP4 ADD DUP6 PUSH2 0x1E1B JUMP JUMPDEST PUSH2 0x2794 PUSH1 0x40 DUP4 ADD DUP5 PUSH2 0x1E1B JUMP JUMPDEST SWAP5 SWAP4 POP POP POP POP JUMP INVALID LOG2 PUSH5 0x6970667358 0x22 SLT KECCAK256 PUSH21 0x3614CAB18A005822ED9F25DB48C93C1731B75CC852 0xD7 PUSH21 0x2D10D4DDFFDB949264736F6C634300081A00330000 "
				},
				"gasEstimates": {
					"creation": {
						"codeDepositCost": "2038800",
						"executionCost": "infinite",
						"totalCost": "infinite"
					},
					"external": {
						"addLiquidity(uint256,uint256)": "infinite",
						"allowance(address,address)": "infinite",
						"approve(address,uint256)": "infinite",
						"balanceOf(address)": "2896",
						"decimals()": "405",
						"getAmountOut(uint256,uint256,uint256)": "infinite",
						"name()": "infinite",
						"removeLiquidity(uint256)": "infinite",
						"reserve0()": "2448",
						"reserve1()": "2470",
						"swap(uint256,address,uint256)": "infinite",
						"symbol()": "infinite",
						"token0()": "infinite",
						"token1()": "infinite",
						"totalSupply()": "2455",
						"transfer(address,uint256)": "infinite",
						"transferFrom(address,address,uint256)": "infinite"
					},
					"internal": {
						"min(uint256,uint256)": "63",
						"sqrt(uint256)": "infinite"
					}
				},
				"methodIdentifiers": {
					"addLiquidity(uint256,uint256)": "9cd441da",
					"allowance(address,address)": "dd62ed3e",
					"approve(address,uint256)": "095ea7b3",
					"balanceOf(address)": "70a08231",
					"decimals()": "313ce567",
					"getAmountOut(uint256,uint256,uint256)": "054d50d4",
					"name()": "06fdde03",
					"removeLiquidity(uint256)": "9c8f9f23",
					"reserve0()": "443cb4bc",
					"reserve1()": "5a76f25e",
					"swap(uint256,address,uint256)": "43264349",
					"symbol()": "95d89b41",
					"token0()": "0dfe1681",
					"token1()": "d21220a7",
					"totalSupply()": "18160ddd",
					"transfer(address,uint256)": "a9059cbb",
					"transferFrom(address,address,uint256)": "23b872dd"
				}
			},
			"storageLayout": {
				"storage": [
					{
						"astId": 159,
						"contract": "contracts/Dex/SimpleSwap.sol:SimpleSwap",
						"label": "_balances",
						"offset": 0,
						"slot": "0",
						"type": "t_mapping(t_address,t_uint256)"
					},
					{
						"astId": 165,
						"contract": "contracts/Dex/SimpleSwap.sol:SimpleSwap",
						"label": "_allowances",
						"offset": 0,
						"slot": "1",
						"type": "t_mapping(t_address,t_mapping(t_address,t_uint256))"
					},
					{
						"astId": 167,
						"contract": "contracts/Dex/SimpleSwap.sol:SimpleSwap",
						"label": "_totalSupply",
						"offset": 0,
						"slot": "2",
						"type": "t_uint256"
					},
					{
						"astId": 169,
						"contract": "contracts/Dex/SimpleSwap.sol:SimpleSwap",
						"label": "_name",
						"offset": 0,
						"slot": "3",
						"type": "t_string_storage"
					},
					{
						"astId": 171,
						"contract": "contracts/Dex/SimpleSwap.sol:SimpleSwap",
						"label": "_symbol",
						"offset": 0,
						"slot": "4",
						"type": "t_string_storage"
					},
					{
						"astId": 793,
						"contract": "contracts/Dex/SimpleSwap.sol:SimpleSwap",
						"label": "token0",
						"offset": 0,
						"slot": "5",
						"type": "t_contract(IERC20)729"
					},
					{
						"astId": 796,
						"contract": "contracts/Dex/SimpleSwap.sol:SimpleSwap",
						"label": "token1",
						"offset": 0,
						"slot": "6",
						"type": "t_contract(IERC20)729"
					},
					{
						"astId": 798,
						"contract": "contracts/Dex/SimpleSwap.sol:SimpleSwap",
						"label": "reserve0",
						"offset": 0,
						"slot": "7",
						"type": "t_uint256"
					},
					{
						"astId": 800,
						"contract": "contracts/Dex/SimpleSwap.sol:SimpleSwap",
						"label": "reserve1",
						"offset": 0,
						"slot": "8",
						"type": "t_uint256"
					}
				],
				"types": {
					"t_address": {
						"encoding": "inplace",
						"label": "address",
						"numberOfBytes": "20"
					},
					"t_contract(IERC20)729": {
						"encoding": "inplace",
						"label": "contract IERC20",
						"numberOfBytes": "20"
					},
					"t_mapping(t_address,t_mapping(t_address,t_uint256))": {
						"encoding": "mapping",
						"key": "t_address",
						"label": "mapping(address => mapping(address => uint256))",
						"numberOfBytes": "32",
						"value": "t_mapping(t_address,t_uint256)"
					},
					"t_mapping(t_address,t_uint256)": {
						"encoding": "mapping",
						"key": "t_address",
						"label": "mapping(address => uint256)",
						"numberOfBytes": "32",
						"value": "t_uint256"
					},
					"t_string_storage": {
						"encoding": "bytes",
						"label": "string",
						"numberOfBytes": "32"
					},
					"t_uint256": {
						"encoding": "inplace",
						"label": "uint256",
						"numberOfBytes": "32"
					}
				}
			},
			"userdoc": {
				"kind": "user",
				"methods": {},
				"version": 1
			}
		}
	}
}