{
	"data": {
		"bytecode": {
			"linkReferences": {},
			"object": "60806040527f4d696e69536f6c696469747900000000000000000000000000000000000000005f555f5460016020811061003c5761003b6100de565b5b1a60f81b60015f6101000a81548160ff021916908360f81c02179055506040518060400160405280600b81526020017f48656c6c6f2057656233210000000000000000000000000000000000000000008152506002908161009d9190610348565b50600160035f6101000a81548160ff021916908360028111156100c3576100c2610417565b5b021790555060056004553480156100d8575f5ffd5b50610444565b7f4e487b71000000000000000000000000000000000000000000000000000000005f52603260045260245ffd5b5f81519050919050565b7f4e487b71000000000000000000000000000000000000000000000000000000005f52604160045260245ffd5b7f4e487b71000000000000000000000000000000000000000000000000000000005f52602260045260245ffd5b5f600282049050600182168061018657607f821691505b60208210810361019957610198610142565b5b50919050565b5f819050815f5260205f209050919050565b5f6020601f8301049050919050565b5f82821b905092915050565b5f600883026101fb7fffffffffffffffffffffffffffffffffffffffffffffffffffffffffffffffff826101c0565b61020586836101c0565b95508019841693508086168417925050509392505050565b5f819050919050565b5f819050919050565b5f61024961024461023f8461021d565b610226565b61021d565b9050919050565b5f819050919050565b6102628361022f565b61027661026e82610250565b8484546101cc565b825550505050565b5f5f905090565b61028d61027e565b610298818484610259565b505050565b5b818110156102bb576102b05f82610285565b60018101905061029e565b5050565b601f821115610300576102d18161019f565b6102da846101b1565b810160208510156102e9578190505b6102fd6102f5856101b1565b83018261029d565b50505b505050565b5f82821c905092915050565b5f6103205f1984600802610305565b1980831691505092915050565b5f6103388383610311565b9150826002028217905092915050565b6103518261010b565b67ffffffffffffffff81111561036a57610369610115565b5b610374825461016f565b61037f8282856102bf565b5f60209050601f8311600181146103b0575f841561039e578287015190505b6103a8858261032d565b86555061040f565b601f1984166103be8661019f565b5f5b828110156103e5578489015182556001820191506020850194506020810190506103c0565b8683101561040257848901516103fe601f891682610311565b8355505b6001600288020188555050505b505050505050565b7f4e487b71000000000000000000000000000000000000000000000000000000005f52602160045260245ffd5b61090a806104515f395ff3fe6080604052600436106100c1575f3560e01c80637032c4f21161007e5780639b267f09116100585780639b267f0914610232578063aeb6f2921461025c578063b262eb7f14610286578063e61e4008146102b0576100c1565b80637032c4f2146101b657806380b4ea08146101f25780638381f58a14610208576100c1565b806301019958146100c557806325acd7cf146100ef578063303810a61461012c5780633dece5111461014a5780633f346102146101765780634f2be91f146101a0575b5f5ffd5b3480156100d0575f5ffd5b506100d96102dc565b6040516100e69190610516565b60405180910390f35b3480156100fa575f5ffd5b506101156004803603810190610110919061055d565b610303565b6040516101239291906105a2565b60405180910390f35b610134610356565b6040516101419190610516565b60405180910390f35b348015610155575f5ffd5b5061015e610365565b60405161016d9392919061066e565b60405180910390f35b348015610181575f5ffd5b5061018a61039b565b60405161019791906106bb565b60405180910390f35b3480156101ab575f5ffd5b506101b46103a0565b005b3480156101c1575f5ffd5b506101dc60048036038101906101d7919061055d565b6103b7565b6040516101e99190610516565b60405180910390f35b3480156101fd575f5ffd5b506102066103cc565b005b348015610213575f5ffd5b5061021c6103d6565b6040516102299190610516565b60405180910390f35b34801561023d575f5ffd5b506102466103dc565b6040516102539190610744565b60405180910390f35b348015610267575f5ffd5b50610270610468565b60405161027d919061079e565b60405180910390f35b348015610291575f5ffd5b5061029a61047a565b6040516102a79190610516565b60405180910390f35b3480156102bb575f5ffd5b506102c461048f565b6040516102d39392919061066e565b60405180910390f35b5f60035f9054906101000a900460ff1660028111156102fe576102fd6107b7565b5b905090565b5f5f5f600190505f6103136104dc565b6001860361033357610323610365565b9091508092508193505050610348565b61033b610365565b8093508194508295505050505b829450819350505050915091565b5f61035f6104c5565b47905090565b5f5f61036f6104dc565b600292505f91506040518060600160405280600381526020016002815260200160018152509050909192565b5f5481565b60016004546103af9190610811565b600481905550565b5f6001826103c59190610811565b9050919050565b6103d46104c5565b565b60045481565b600280546103e990610871565b80601f016020809104026020016040519081016040528092919081815260200182805461041590610871565b80156104605780601f1061043757610100808354040283529160200191610460565b820191905f5260205f20905b81548152906001019060200180831161044357829003601f168201915b505050505081565b60015f9054906101000a900460f81b81565b5f600160045461048a9190610811565b905090565b5f5f6104996104dc565b600180604051806060016040528060018152602001600281526020016005815250925092509250909192565b60016004546104d491906108a1565b600481905550565b6040518060600160405280600390602082028036833780820191505090505090565b5f819050919050565b610510816104fe565b82525050565b5f6020820190506105295f830184610507565b92915050565b5f5ffd5b61053c816104fe565b8114610546575f5ffd5b50565b5f8135905061055781610533565b92915050565b5f602082840312156105725761057161052f565b5b5f61057f84828501610549565b91505092915050565b5f8115159050919050565b61059c81610588565b82525050565b5f6040820190506105b55f830185610507565b6105c26020830184610593565b9392505050565b5f60039050919050565b5f81905092915050565b5f819050919050565b6105ef816104fe565b82525050565b5f61060083836105e6565b60208301905092915050565b5f602082019050919050565b610621816105c9565b61062b81846105d3565b9250610636826105dd565b805f5b8381101561066657815161064d87826105f5565b96506106588361060c565b925050600181019050610639565b505050505050565b5f60a0820190506106815f830186610507565b61068e6020830185610593565b61069b6040830184610618565b949350505050565b5f819050919050565b6106b5816106a3565b82525050565b5f6020820190506106ce5f8301846106ac565b92915050565b5f81519050919050565b5f82825260208201905092915050565b8281835e5f83830152505050565b5f601f19601f8301169050919050565b5f610716826106d4565b61072081856106de565b93506107308185602086016106ee565b610739816106fc565b840191505092915050565b5f6020820190508181035f83015261075c818461070c565b905092915050565b5f7fff0000000000000000000000000000000000000000000000000000000000000082169050919050565b61079881610764565b82525050565b5f6020820190506107b15f83018461078f565b92915050565b7f4e487b71000000000000000000000000000000000000000000000000000000005f52602160045260245ffd5b7f4e487b71000000000000000000000000000000000000000000000000000000005f52601160045260245ffd5b5f61081b826104fe565b9150610826836104fe565b925082820190508082111561083e5761083d6107e4565b5b92915050565b7f4e487b71000000000000000000000000000000000000000000000000000000005f52602260045260245ffd5b5f600282049050600182168061088857607f821691505b60208210810361089b5761089a610844565b5b50919050565b5f6108ab826104fe565b91506108b6836104fe565b92508282039050818111156108ce576108cd6107e4565b5b9291505056fea2646970667358221220c98423487872d7bc05b8bc361cb87e0b4cbc3cc4ac4fcc1094dabb65480f759264736f6c634300081c0033",
			"opcodes": "PUSH1 0x80 PUSH1 0x40 MSTORE PUSH32 0x4D696E69536F6C69646974790000000000000000000000000000000000000000 PUSH0 SSTORE PUSH0 SLOAD PUSH1 0x1 PUSH1 0x20 DUP2 LT PUSH2 0x3C JUMPI PUSH2 0x3B PUSH2 0xDE JUMP JUMPDEST JUMPDEST BYTE PUSH1 0xF8 SHL PUSH1 0x1 PUSH0 PUSH2 0x100 EXP DUP2 SLOAD DUP2 PUSH1 0xFF MUL NOT AND SWAP1 DUP4 PUSH1 0xF8 SHR MUL OR SWAP1 SSTORE POP PUSH1 0x40 MLOAD DUP1 PUSH1 0x40 ADD PUSH1 0x40 MSTORE DUP1 PUSH1 0xB DUP2 MSTORE PUSH1 0x20 ADD PUSH32 0x48656C6C6F205765623321000000000000000000000000000000000000000000 DUP2 MSTORE POP PUSH1 0x2 SWAP1 DUP2 PUSH2 0x9D SWAP2 SWAP1 PUSH2 0x348 JUMP JUMPDEST POP PUSH1 0x1 PUSH1 0x3 PUSH0 PUSH2 0x100 EXP DUP2 SLOAD DUP2 PUSH1 0xFF MUL NOT AND SWAP1 DUP4 PUSH1 0x2 DUP2 GT ISZERO PUSH2 0xC3 JUMPI PUSH2 0xC2 PUSH2 0x417 JUMP JUMPDEST JUMPDEST MUL OR SWAP1 SSTORE POP PUSH1 0x5 PUSH1 0x4 SSTORE CALLVALUE DUP1 ISZERO PUSH2 0xD8 JUMPI PUSH0 PUSH0 REVERT JUMPDEST POP PUSH2 0x444 JUMP JUMPDEST PUSH32 0x4E487B7100000000000000000000000000000000000000000000000000000000 PUSH0 MSTORE PUSH1 0x32 PUSH1 0x4 MSTORE PUSH1 0x24 PUSH0 REVERT JUMPDEST PUSH0 DUP2 MLOAD SWAP1 POP SWAP2 SWAP1 POP JUMP JUMPDEST PUSH32 0x4E487B7100000000000000000000000000000000000000000000000000000000 PUSH0 MSTORE PUSH1 0x41 PUSH1 0x4 MSTORE PUSH1 0x24 PUSH0 REVERT JUMPDEST PUSH32 0x4E487B7100000000000000000000000000000000000000000000000000000000 PUSH0 MSTORE PUSH1 0x22 PUSH1 0x4 MSTORE PUSH1 0x24 PUSH0 REVERT JUMPDEST PUSH0 PUSH1 0x2 DUP3 DIV SWAP1 POP PUSH1 0x1 DUP3 AND DUP1 PUSH2 0x186 JUMPI PUSH1 0x7F DUP3 AND SWAP2 POP JUMPDEST PUSH1 0x20 DUP3 LT DUP2 SUB PUSH2 0x199 JUMPI PUSH2 0x198 PUSH2 0x142 JUMP JUMPDEST JUMPDEST POP SWAP2 SWAP1 POP JUMP JUMPDEST PUSH0 DUP2 SWAP1 POP DUP2 PUSH0 MSTORE PUSH1 0x20 PUSH0 KECCAK256 SWAP1 POP SWAP2 SWAP1 POP JUMP JUMPDEST PUSH0 PUSH1 0x20 PUSH1 0x1F DUP4 ADD DIV SWAP1 POP SWAP2 SWAP1 POP JUMP JUMPDEST PUSH0 DUP3 DUP3 SHL SWAP1 POP SWAP3 SWAP2 POP POP JUMP JUMPDEST PUSH0 PUSH1 0x8 DUP4 MUL PUSH2 0x1FB PUSH32 0xFFFFFFFFFFFFFFFFFFFFFFFFFFFFFFFFFFFFFFFFFFFFFFFFFFFFFFFFFFFFFFFF DUP3 PUSH2 0x1C0 JUMP JUMPDEST PUSH2 0x205 DUP7 DUP4 PUSH2 0x1C0 JUMP JUMPDEST SWAP6 POP DUP1 NOT DUP5 AND SWAP4 POP DUP1 DUP7 AND DUP5 OR SWAP3 POP POP POP SWAP4 SWAP3 POP POP POP JUMP JUMPDEST PUSH0 DUP2 SWAP1 POP SWAP2 SWAP1 POP JUMP JUMPDEST PUSH0 DUP2 SWAP1 POP SWAP2 SWAP1 POP JUMP JUMPDEST PUSH0 PUSH2 0x249 PUSH2 0x244 PUSH2 0x23F DUP5 PUSH2 0x21D JUMP JUMPDEST PUSH2 0x226 JUMP JUMPDEST PUSH2 0x21D JUMP JUMPDEST SWAP1 POP SWAP2 SWAP1 POP JUMP JUMPDEST PUSH0 DUP2 SWAP1 POP SWAP2 SWAP1 POP JUMP JUMPDEST PUSH2 0x262 DUP4 PUSH2 0x22F JUMP JUMPDEST PUSH2 0x276 PUSH2 0x26E DUP3 PUSH2 0x250 JUMP JUMPDEST DUP5 DUP5 SLOAD PUSH2 0x1CC JUMP JUMPDEST DUP3 SSTORE POP POP POP POP JUMP JUMPDEST PUSH0 PUSH0 SWAP1 POP SWAP1 JUMP JUMPDEST PUSH2 0x28D PUSH2 0x27E JUMP JUMPDEST PUSH2 0x298 DUP2 DUP5 DUP5 PUSH2 0x259 JUMP JUMPDEST POP POP POP JUMP JUMPDEST JUMPDEST DUP2 DUP2 LT ISZERO PUSH2 0x2BB JUMPI PUSH2 0x2B0 PUSH0 DUP3 PUSH2 0x285 JUMP JUMPDEST PUSH1 0x1 DUP2 ADD SWAP1 POP PUSH2 0x29E JUMP JUMPDEST POP POP JUMP JUMPDEST PUSH1 0x1F DUP3 GT ISZERO PUSH2 0x300 JUMPI PUSH2 0x2D1 DUP2 PUSH2 0x19F JUMP JUMPDEST PUSH2 0x2DA DUP5 PUSH2 0x1B1 JUMP JUMPDEST DUP2 ADD PUSH1 0x20 DUP6 LT ISZERO PUSH2 0x2E9 JUMPI DUP2 SWAP1 POP JUMPDEST PUSH2 0x2FD PUSH2 0x2F5 DUP6 PUSH2 0x1B1 JUMP JUMPDEST DUP4 ADD DUP3 PUSH2 0x29D JUMP JUMPDEST POP POP JUMPDEST POP POP POP JUMP JUMPDEST PUSH0 DUP3 DUP3 SHR SWAP1 POP SWAP3 SWAP2 POP POP JUMP JUMPDEST PUSH0 PUSH2 0x320 PUSH0 NOT DUP5 PUSH1 0x8 MUL PUSH2 0x305 JUMP JUMPDEST NOT DUP1 DUP4 AND SWAP2 POP POP SWAP3 SWAP2 POP POP JUMP JUMPDEST PUSH0 PUSH2 0x338 DUP4 DUP4 PUSH2 0x311 JUMP JUMPDEST SWAP2 POP DUP3 PUSH1 0x2 MUL DUP3 OR SWAP1 POP SWAP3 SWAP2 POP POP JUMP JUMPDEST PUSH2 0x351 DUP3 PUSH2 0x10B JUMP JUMPDEST PUSH8 0xFFFFFFFFFFFFFFFF DUP2 GT ISZERO PUSH2 0x36A JUMPI PUSH2 0x369 PUSH2 0x115 JUMP JUMPDEST JUMPDEST PUSH2 0x374 DUP3 SLOAD PUSH2 0x16F JUMP JUMPDEST PUSH2 0x37F DUP3 DUP3 DUP6 PUSH2 0x2BF JUMP JUMPDEST PUSH0 PUSH1 0x20 SWAP1 POP PUSH1 0x1F DUP4 GT PUSH1 0x1 DUP2 EQ PUSH2 0x3B0 JUMPI PUSH0 DUP5 ISZERO PUSH2 0x39E JUMPI DUP3 DUP8 ADD MLOAD SWAP1 POP JUMPDEST PUSH2 0x3A8 DUP6 DUP3 PUSH2 0x32D JUMP JUMPDEST DUP7 SSTORE POP PUSH2 0x40F JUMP JUMPDEST PUSH1 0x1F NOT DUP5 AND PUSH2 0x3BE DUP7 PUSH2 0x19F JUMP JUMPDEST PUSH0 JUMPDEST DUP3 DUP2 LT ISZERO PUSH2 0x3E5 JUMPI DUP5 DUP10 ADD MLOAD DUP3 SSTORE PUSH1 0x1 DUP3 ADD SWAP2 POP PUSH1 0x20 DUP6 ADD SWAP5 POP PUSH1 0x20 DUP2 ADD SWAP1 POP PUSH2 0x3C0 JUMP JUMPDEST DUP7 DUP4 LT ISZERO PUSH2 0x402 JUMPI DUP5 DUP10 ADD MLOAD PUSH2 0x3FE PUSH1 0x1F DUP10 AND DUP3 PUSH2 0x311 JUMP JUMPDEST DUP4 SSTORE POP JUMPDEST PUSH1 0x1 PUSH1 0x2 DUP9 MUL ADD DUP9 SSTORE POP POP POP JUMPDEST POP POP POP POP POP POP JUMP JUMPDEST PUSH32 0x4E487B7100000000000000000000000000000000000000000000000000000000 PUSH0 MSTORE PUSH1 0x21 PUSH1 0x4 MSTORE PUSH1 0x24 PUSH0 REVERT JUMPDEST PUSH2 0x90A DUP1 PUSH2 0x451 PUSH0 CODECOPY PUSH0 RETURN INVALID PUSH1 0x80 PUSH1 0x40 MSTORE PUSH1 0x4 CALLDATASIZE LT PUSH2 0xC1 JUMPI PUSH0 CALLDATALOAD PUSH1 0xE0 SHR DUP1 PUSH4 0x7032C4F2 GT PUSH2 0x7E JUMPI DUP1 PUSH4 0x9B267F09 GT PUSH2 0x58 JUMPI DUP1 PUSH4 0x9B267F09 EQ PUSH2 0x232 JUMPI DUP1 PUSH4 0xAEB6F292 EQ PUSH2 0x25C JUMPI DUP1 PUSH4 0xB262EB7F EQ PUSH2 0x286 JUMPI DUP1 PUSH4 0xE61E4008 EQ PUSH2 0x2B0 JUMPI PUSH2 0xC1 JUMP JUMPDEST DUP1 PUSH4 0x7032C4F2 EQ PUSH2 0x1B6 JUMPI DUP1 PUSH4 0x80B4EA08 EQ PUSH2 0x1F2 JUMPI DUP1 PUSH4 0x8381F58A EQ PUSH2 0x208 JUMPI PUSH2 0xC1 JUMP JUMPDEST DUP1 PUSH4 0x1019958 EQ PUSH2 0xC5 JUMPI DUP1 PUSH4 0x25ACD7CF EQ PUSH2 0xEF JUMPI DUP1 PUSH4 0x303810A6 EQ PUSH2 0x12C JUMPI DUP1 PUSH4 0x3DECE511 EQ PUSH2 0x14A JUMPI DUP1 PUSH4 0x3F346102 EQ PUSH2 0x176 JUMPI DUP1 PUSH4 0x4F2BE91F EQ PUSH2 0x1A0 JUMPI JUMPDEST PUSH0 PUSH0 REVERT JUMPDEST CALLVALUE DUP1 ISZERO PUSH2 0xD0 JUMPI PUSH0 PUSH0 REVERT JUMPDEST POP PUSH2 0xD9 PUSH2 0x2DC JUMP JUMPDEST PUSH1 0x40 MLOAD PUSH2 0xE6 SWAP2 SWAP1 PUSH2 0x516 JUMP JUMPDEST PUSH1 0x40 MLOAD DUP1 SWAP2 SUB SWAP1 RETURN JUMPDEST CALLVALUE DUP1 ISZERO PUSH2 0xFA JUMPI PUSH0 PUSH0 REVERT JUMPDEST POP PUSH2 0x115 PUSH1 0x4 DUP1 CALLDATASIZE SUB DUP2 ADD SWAP1 PUSH2 0x110 SWAP2 SWAP1 PUSH2 0x55D JUMP JUMPDEST PUSH2 0x303 JUMP JUMPDEST PUSH1 0x40 MLOAD PUSH2 0x123 SWAP3 SWAP2 SWAP1 PUSH2 0x5A2 JUMP JUMPDEST PUSH1 0x40 MLOAD DUP1 SWAP2 SUB SWAP1 RETURN JUMPDEST PUSH2 0x134 PUSH2 0x356 JUMP JUMPDEST PUSH1 0x40 MLOAD PUSH2 0x141 SWAP2 SWAP1 PUSH2 0x516 JUMP JUMPDEST PUSH1 0x40 MLOAD DUP1 SWAP2 SUB SWAP1 RETURN JUMPDEST CALLVALUE DUP1 ISZERO PUSH2 0x155 JUMPI PUSH0 PUSH0 REVERT JUMPDEST POP PUSH2 0x15E PUSH2 0x365 JUMP JUMPDEST PUSH1 0x40 MLOAD PUSH2 0x16D SWAP4 SWAP3 SWAP2 SWAP1 PUSH2 0x66E JUMP JUMPDEST PUSH1 0x40 MLOAD DUP1 SWAP2 SUB SWAP1 RETURN JUMPDEST CALLVALUE DUP1 ISZERO PUSH2 0x181 JUMPI PUSH0 PUSH0 REVERT JUMPDEST POP PUSH2 0x18A PUSH2 0x39B JUMP JUMPDEST PUSH1 0x40 MLOAD PUSH2 0x197 SWAP2 SWAP1 PUSH2 0x6BB JUMP JUMPDEST PUSH1 0x40 MLOAD DUP1 SWAP2 SUB SWAP1 RETURN JUMPDEST CALLVALUE DUP1 ISZERO PUSH2 0x1AB JUMPI PUSH0 PUSH0 REVERT JUMPDEST POP PUSH2 0x1B4 PUSH2 0x3A0 JUMP JUMPDEST STOP JUMPDEST CALLVALUE DUP1 ISZERO PUSH2 0x1C1 JUMPI PUSH0 PUSH0 REVERT JUMPDEST POP PUSH2 0x1DC PUSH1 0x4 DUP1 CALLDATASIZE SUB DUP2 ADD SWAP1 PUSH2 0x1D7 SWAP2 SWAP1 PUSH2 0x55D JUMP JUMPDEST PUSH2 0x3B7 JUMP JUMPDEST PUSH1 0x40 MLOAD PUSH2 0x1E9 SWAP2 SWAP1 PUSH2 0x516 JUMP JUMPDEST PUSH1 0x40 MLOAD DUP1 SWAP2 SUB SWAP1 RETURN JUMPDEST CALLVALUE DUP1 ISZERO PUSH2 0x1FD JUMPI PUSH0 PUSH0 REVERT JUMPDEST POP PUSH2 0x206 PUSH2 0x3CC JUMP JUMPDEST STOP JUMPDEST CALLVALUE DUP1 ISZERO PUSH2 0x213 JUMPI PUSH0 PUSH0 REVERT JUMPDEST POP PUSH2 0x21C PUSH2 0x3D6 JUMP JUMPDEST PUSH1 0x40 MLOAD PUSH2 0x229 SWAP2 SWAP1 PUSH2 0x516 JUMP JUMPDEST PUSH1 0x40 MLOAD DUP1 SWAP2 SUB SWAP1 RETURN JUMPDEST CALLVALUE DUP1 ISZERO PUSH2 0x23D JUMPI PUSH0 PUSH0 REVERT JUMPDEST POP PUSH2 0x246 PUSH2 0x3DC JUMP JUMPDEST PUSH1 0x40 MLOAD PUSH2 0x253 SWAP2 SWAP1 PUSH2 0x744 JUMP JUMPDEST PUSH1 0x40 MLOAD DUP1 SWAP2 SUB SWAP1 RETURN JUMPDEST CALLVALUE DUP1 ISZERO PUSH2 0x267 JUMPI PUSH0 PUSH0 REVERT JUMPDEST POP PUSH2 0x270 PUSH2 0x468 JUMP JUMPDEST PUSH1 0x40 MLOAD PUSH2 0x27D SWAP2 SWAP1 PUSH2 0x79E JUMP JUMPDEST PUSH1 0x40 MLOAD DUP1 SWAP2 SUB SWAP1 RETURN JUMPDEST CALLVALUE DUP1 ISZERO PUSH2 0x291 JUMPI PUSH0 PUSH0 REVERT JUMPDEST POP PUSH2 0x29A PUSH2 0x47A JUMP JUMPDEST PUSH1 0x40 MLOAD PUSH2 0x2A7 SWAP2 SWAP1 PUSH2 0x516 JUMP JUMPDEST PUSH1 0x40 MLOAD DUP1 SWAP2 SUB SWAP1 RETURN JUMPDEST CALLVALUE DUP1 ISZERO PUSH2 0x2BB JUMPI PUSH0 PUSH0 REVERT JUMPDEST POP PUSH2 0x2C4 PUSH2 0x48F JUMP JUMPDEST PUSH1 0x40 MLOAD PUSH2 0x2D3 SWAP4 SWAP3 SWAP2 SWAP1 PUSH2 0x66E JUMP JUMPDEST PUSH1 0x40 MLOAD DUP1 SWAP2 SUB SWAP1 RETURN JUMPDEST PUSH0 PUSH1 0x3 PUSH0 SWAP1 SLOAD SWAP1 PUSH2 0x100 EXP SWAP1 DIV PUSH1 0xFF AND PUSH1 0x2 DUP2 GT ISZERO PUSH2 0x2FE JUMPI PUSH2 0x2FD PUSH2 0x7B7 JUMP JUMPDEST JUMPDEST SWAP1 POP SWAP1 JUMP JUMPDEST PUSH0 PUSH0 PUSH0 PUSH1 0x1 SWAP1 POP PUSH0 PUSH2 0x313 PUSH2 0x4DC JUMP JUMPDEST PUSH1 0x1 DUP7 SUB PUSH2 0x333 JUMPI PUSH2 0x323 PUSH2 0x365 JUMP JUMPDEST SWAP1 SWAP2 POP DUP1 SWAP3 POP DUP2 SWAP4 POP POP POP PUSH2 0x348 JUMP JUMPDEST PUSH2 0x33B PUSH2 0x365 JUMP JUMPDEST DUP1 SWAP4 POP DUP2 SWAP5 POP DUP3 SWAP6 POP POP POP POP JUMPDEST DUP3 SWAP5 POP DUP2 SWAP4 POP POP POP POP SWAP2 POP SWAP2 JUMP JUMPDEST PUSH0 PUSH2 0x35F PUSH2 0x4C5 JUMP JUMPDEST SELFBALANCE SWAP1 POP SWAP1 JUMP JUMPDEST PUSH0 PUSH0 PUSH2 0x36F PUSH2 0x4DC JUMP JUMPDEST PUSH1 0x2 SWAP3 POP PUSH0 SWAP2 POP PUSH1 0x40 MLOAD DUP1 PUSH1 0x60 ADD PUSH1 0x40 MSTORE DUP1 PUSH1 0x3 DUP2 MSTORE PUSH1 0x20 ADD PUSH1 0x2 DUP2 MSTORE PUSH1 0x20 ADD PUSH1 0x1 DUP2 MSTORE POP SWAP1 POP SWAP1 SWAP2 SWAP3 JUMP JUMPDEST PUSH0 SLOAD DUP2 JUMP JUMPDEST PUSH1 0x1 PUSH1 0x4 SLOAD PUSH2 0x3AF SWAP2 SWAP1 PUSH2 0x811 JUMP JUMPDEST PUSH1 0x4 DUP2 SWAP1 SSTORE POP JUMP JUMPDEST PUSH0 PUSH1 0x1 DUP3 PUSH2 0x3C5 SWAP2 SWAP1 PUSH2 0x811 JUMP JUMPDEST SWAP1 POP SWAP2 SWAP1 POP JUMP JUMPDEST PUSH2 0x3D4 PUSH2 0x4C5 JUMP JUMPDEST JUMP JUMPDEST PUSH1 0x4 SLOAD DUP2 JUMP JUMPDEST PUSH1 0x2 DUP1 SLOAD PUSH2 0x3E9 SWAP1 PUSH2 0x871 JUMP JUMPDEST DUP1 PUSH1 0x1F ADD PUSH1 0x20 DUP1 SWAP2 DIV MUL PUSH1 0x20 ADD PUSH1 0x40 MLOAD SWAP1 DUP2 ADD PUSH1 0x40 MSTORE DUP1 SWAP3 SWAP2 SWAP1 DUP2 DUP2 MSTORE PUSH1 0x20 ADD DUP3 DUP1 SLOAD PUSH2 0x415 SWAP1 PUSH2 0x871 JUMP JUMPDEST DUP1 ISZERO PUSH2 0x460 JUMPI DUP1 PUSH1 0x1F LT PUSH2 0x437 JUMPI PUSH2 0x100 DUP1 DUP4 SLOAD DIV MUL DUP4 MSTORE SWAP2 PUSH1 0x20 ADD SWAP2 PUSH2 0x460 JUMP JUMPDEST DUP3 ADD SWAP2 SWAP1 PUSH0 MSTORE PUSH1 0x20 PUSH0 KECCAK256 SWAP1 JUMPDEST DUP2 SLOAD DUP2 MSTORE SWAP1 PUSH1 0x1 ADD SWAP1 PUSH1 0x20 ADD DUP1 DUP4 GT PUSH2 0x443 JUMPI DUP3 SWAP1 SUB PUSH1 0x1F AND DUP3 ADD SWAP2 JUMPDEST POP POP POP POP POP DUP2 JUMP JUMPDEST PUSH1 0x1 PUSH0 SWAP1 SLOAD SWAP1 PUSH2 0x100 EXP SWAP1 DIV PUSH1 0xF8 SHL DUP2 JUMP JUMPDEST PUSH0 PUSH1 0x1 PUSH1 0x4 SLOAD PUSH2 0x48A SWAP2 SWAP1 PUSH2 0x811 JUMP JUMPDEST SWAP1 POP SWAP1 JUMP JUMPDEST PUSH0 PUSH0 PUSH2 0x499 PUSH2 0x4DC JUMP JUMPDEST PUSH1 0x1 DUP1 PUSH1 0x40 MLOAD DUP1 PUSH1 0x60 ADD PUSH1 0x40 MSTORE DUP1 PUSH1 0x1 DUP2 MSTORE PUSH1 0x20 ADD PUSH1 0x2 DUP2 MSTORE PUSH1 0x20 ADD PUSH1 0x5 DUP2 MSTORE POP SWAP3 POP SWAP3 POP SWAP3 POP SWAP1 SWAP2 SWAP3 JUMP JUMPDEST PUSH1 0x1 PUSH1 0x4 SLOAD PUSH2 0x4D4 SWAP2 SWAP1 PUSH2 0x8A1 JUMP JUMPDEST PUSH1 0x4 DUP2 SWAP1 SSTORE POP JUMP JUMPDEST PUSH1 0x40 MLOAD DUP1 PUSH1 0x60 ADD PUSH1 0x40 MSTORE DUP1 PUSH1 0x3 SWAP1 PUSH1 0x20 DUP3 MUL DUP1 CALLDATASIZE DUP4 CALLDATACOPY DUP1 DUP3 ADD SWAP2 POP POP SWAP1 POP POP SWAP1 JUMP JUMPDEST PUSH0 DUP2 SWAP1 POP SWAP2 SWAP1 POP JUMP JUMPDEST PUSH2 0x510 DUP2 PUSH2 0x4FE JUMP JUMPDEST DUP3 MSTORE POP POP JUMP JUMPDEST PUSH0 PUSH1 0x20 DUP3 ADD SWAP1 POP PUSH2 0x529 PUSH0 DUP4 ADD DUP5 PUSH2 0x507 JUMP JUMPDEST SWAP3 SWAP2 POP POP JUMP JUMPDEST PUSH0 PUSH0 REVERT JUMPDEST PUSH2 0x53C DUP2 PUSH2 0x4FE JUMP JUMPDEST DUP2 EQ PUSH2 0x546 JUMPI PUSH0 PUSH0 REVERT JUMPDEST POP JUMP JUMPDEST PUSH0 DUP2 CALLDATALOAD SWAP1 POP PUSH2 0x557 DUP2 PUSH2 0x533 JUMP JUMPDEST SWAP3 SWAP2 POP POP JUMP JUMPDEST PUSH0 PUSH1 0x20 DUP3 DUP5 SUB SLT ISZERO PUSH2 0x572 JUMPI PUSH2 0x571 PUSH2 0x52F JUMP JUMPDEST JUMPDEST PUSH0 PUSH2 0x57F DUP5 DUP3 DUP6 ADD PUSH2 0x549 JUMP JUMPDEST SWAP2 POP POP SWAP3 SWAP2 POP POP JUMP JUMPDEST PUSH0 DUP2 ISZERO ISZERO SWAP1 POP SWAP2 SWAP1 POP JUMP JUMPDEST PUSH2 0x59C DUP2 PUSH2 0x588 JUMP JUMPDEST DUP3 MSTORE POP POP JUMP JUMPDEST PUSH0 PUSH1 0x40 DUP3 ADD SWAP1 POP PUSH2 0x5B5 PUSH0 DUP4 ADD DUP6 PUSH2 0x507 JUMP JUMPDEST PUSH2 0x5C2 PUSH1 0x20 DUP4 ADD DUP5 PUSH2 0x593 JUMP JUMPDEST SWAP4 SWAP3 POP POP POP JUMP JUMPDEST PUSH0 PUSH1 0x3 SWAP1 POP SWAP2 SWAP1 POP JUMP JUMPDEST PUSH0 DUP2 SWAP1 POP SWAP3 SWAP2 POP POP JUMP JUMPDEST PUSH0 DUP2 SWAP1 POP SWAP2 SWAP1 POP JUMP JUMPDEST PUSH2 0x5EF DUP2 PUSH2 0x4FE JUMP JUMPDEST DUP3 MSTORE POP POP JUMP JUMPDEST PUSH0 PUSH2 0x600 DUP4 DUP4 PUSH2 0x5E6 JUMP JUMPDEST PUSH1 0x20 DUP4 ADD SWAP1 POP SWAP3 SWAP2 POP POP JUMP JUMPDEST PUSH0 PUSH1 0x20 DUP3 ADD SWAP1 POP SWAP2 SWAP1 POP JUMP JUMPDEST PUSH2 0x621 DUP2 PUSH2 0x5C9 JUMP JUMPDEST PUSH2 0x62B DUP2 DUP5 PUSH2 0x5D3 JUMP JUMPDEST SWAP3 POP PUSH2 0x636 DUP3 PUSH2 0x5DD JUMP JUMPDEST DUP1 PUSH0 JUMPDEST DUP4 DUP2 LT ISZERO PUSH2 0x666 JUMPI DUP2 MLOAD PUSH2 0x64D DUP8 DUP3 PUSH2 0x5F5 JUMP JUMPDEST SWAP7 POP PUSH2 0x658 DUP4 PUSH2 0x60C JUMP JUMPDEST SWAP3 POP POP PUSH1 0x1 DUP2 ADD SWAP1 POP PUSH2 0x639 JUMP JUMPDEST POP POP POP POP POP POP JUMP JUMPDEST PUSH0 PUSH1 0xA0 DUP3 ADD SWAP1 POP PUSH2 0x681 PUSH0 DUP4 ADD DUP7 PUSH2 0x507 JUMP JUMPDEST PUSH2 0x68E PUSH1 0x20 DUP4 ADD DUP6 PUSH2 0x593 JUMP JUMPDEST PUSH2 0x69B PUSH1 0x40 DUP4 ADD DUP5 PUSH2 0x618 JUMP JUMPDEST SWAP5 SWAP4 POP POP POP POP JUMP JUMPDEST PUSH0 DUP2 SWAP1 POP SWAP2 SWAP1 POP JUMP JUMPDEST PUSH2 0x6B5 DUP2 PUSH2 0x6A3 JUMP JUMPDEST DUP3 MSTORE POP POP JUMP JUMPDEST PUSH0 PUSH1 0x20 DUP3 ADD SWAP1 POP PUSH2 0x6CE PUSH0 DUP4 ADD DUP5 PUSH2 0x6AC JUMP JUMPDEST SWAP3 SWAP2 POP POP JUMP JUMPDEST PUSH0 DUP2 MLOAD SWAP1 POP SWAP2 SWAP1 POP JUMP JUMPDEST PUSH0 DUP3 DUP3 MSTORE PUSH1 0x20 DUP3 ADD SWAP1 POP SWAP3 SWAP2 POP POP JUMP JUMPDEST DUP3 DUP2 DUP4 MCOPY PUSH0 DUP4 DUP4 ADD MSTORE POP POP POP JUMP JUMPDEST PUSH0 PUSH1 0x1F NOT PUSH1 0x1F DUP4 ADD AND SWAP1 POP SWAP2 SWAP1 POP JUMP JUMPDEST PUSH0 PUSH2 0x716 DUP3 PUSH2 0x6D4 JUMP JUMPDEST PUSH2 0x720 DUP2 DUP6 PUSH2 0x6DE JUMP JUMPDEST SWAP4 POP PUSH2 0x730 DUP2 DUP6 PUSH1 0x20 DUP7 ADD PUSH2 0x6EE JUMP JUMPDEST PUSH2 0x739 DUP2 PUSH2 0x6FC JUMP JUMPDEST DUP5 ADD SWAP2 POP POP SWAP3 SWAP2 POP POP JUMP JUMPDEST PUSH0 PUSH1 0x20 DUP3 ADD SWAP1 POP DUP2 DUP2 SUB PUSH0 DUP4 ADD MSTORE PUSH2 0x75C DUP2 DUP5 PUSH2 0x70C JUMP JUMPDEST SWAP1 POP SWAP3 SWAP2 POP POP JUMP JUMPDEST PUSH0 PUSH32 0xFF00000000000000000000000000000000000000000000000000000000000000 DUP3 AND SWAP1 POP SWAP2 SWAP1 POP JUMP JUMPDEST PUSH2 0x798 DUP2 PUSH2 0x764 JUMP JUMPDEST DUP3 MSTORE POP POP JUMP JUMPDEST PUSH0 PUSH1 0x20 DUP3 ADD SWAP1 POP PUSH2 0x7B1 PUSH0 DUP4 ADD DUP5 PUSH2 0x78F JUMP JUMPDEST SWAP3 SWAP2 POP POP JUMP JUMPDEST PUSH32 0x4E487B7100000000000000000000000000000000000000000000000000000000 PUSH0 MSTORE PUSH1 0x21 PUSH1 0x4 MSTORE PUSH1 0x24 PUSH0 REVERT JUMPDEST PUSH32 0x4E487B7100000000000000000000000000000000000000000000000000000000 PUSH0 MSTORE PUSH1 0x11 PUSH1 0x4 MSTORE PUSH1 0x24 PUSH0 REVERT JUMPDEST PUSH0 PUSH2 0x81B DUP3 PUSH2 0x4FE JUMP JUMPDEST SWAP2 POP PUSH2 0x826 DUP4 PUSH2 0x4FE JUMP JUMPDEST SWAP3 POP DUP3 DUP3 ADD SWAP1 POP DUP1 DUP3 GT ISZERO PUSH2 0x83E JUMPI PUSH2 0x83D PUSH2 0x7E4 JUMP JUMPDEST JUMPDEST SWAP3 SWAP2 POP POP JUMP JUMPDEST PUSH32 0x4E487B7100000000000000000000000000000000000000000000000000000000 PUSH0 MSTORE PUSH1 0x22 PUSH1 0x4 MSTORE PUSH1 0x24 PUSH0 REVERT JUMPDEST PUSH0 PUSH1 0x2 DUP3 DIV SWAP1 POP PUSH1 0x1 DUP3 AND DUP1 PUSH2 0x888 JUMPI PUSH1 0x7F DUP3 AND SWAP2 POP JUMPDEST PUSH1 0x20 DUP3 LT DUP2 SUB PUSH2 0x89B JUMPI PUSH2 0x89A PUSH2 0x844 JUMP JUMPDEST JUMPDEST POP SWAP2 SWAP1 POP JUMP JUMPDEST PUSH0 PUSH2 0x8AB DUP3 PUSH2 0x4FE JUMP JUMPDEST SWAP2 POP PUSH2 0x8B6 DUP4 PUSH2 0x4FE JUMP JUMPDEST SWAP3 POP DUP3 DUP3 SUB SWAP1 POP DUP2 DUP2 GT ISZERO PUSH2 0x8CE JUMPI PUSH2 0x8CD PUSH2 0x7E4 JUMP JUMPDEST JUMPDEST SWAP3 SWAP2 POP POP JUMP INVALID LOG2 PUSH5 0x6970667358 0x22 SLT KECCAK256 0xC9 DUP5 0x23 BASEFEE PUSH25 0x72D7BC05B8BC361CB87E0B4CBC3CC4AC4FCC1094DABB65480F PUSH22 0x9264736F6C634300081C003300000000000000000000 "
		},
		"gasEstimates": {
			"creation": {
				"codeDepositCost": "462800",
				"executionCost": "infinite",
				"totalCost": "infinite"
			},
			"external": {
				"_byte()": "2510",
				"_byte32()": "2513",
				"_string()": "infinite",
				"add()": "infinite",
				"addPure(uint256)": "infinite",
				"addView()": "infinite",
				"enumToUint()": "2494",
				"minusCall()": "infinite",
				"minusPayable()": "infinite",
				"number()": "2492",
				"redReturn(uint256)": "infinite",
				"returnMultiple()": "infinite",
				"returnNamed()": "infinite"
			},
			"internal": {
				"minus()": "infinite"
			}
		},
		"methodIdentifiers": {
			"_byte()": "aeb6f292",
			"_byte32()": "3f346102",
			"_string()": "9b267f09",
			"add()": "4f2be91f",
			"addPure(uint256)": "7032c4f2",
			"addView()": "b262eb7f",
			"enumToUint()": "01019958",
			"minusCall()": "80b4ea08",
			"minusPayable()": "303810a6",
			"number()": "8381f58a",
			"redReturn(uint256)": "25acd7cf",
			"returnMultiple()": "e61e4008",
			"returnNamed()": "3dece511"
		}
	},
	"abi": [
		{
			"inputs": [],
			"name": "_byte",
			"outputs": [
				{
					"internalType": "bytes1",
					"name": "",
					"type": "bytes1"
				}
			],
			"stateMutability": "view",
			"type": "function"
		},
		{
			"inputs": [],
			"name": "_byte32",
			"outputs": [
				{
					"internalType": "bytes32",
					"name": "",
					"type": "bytes32"
				}
			],
			"stateMutability": "view",
			"type": "function"
		},
		{
			"inputs": [],
			"name": "_string",
			"outputs": [
				{
					"internalType": "string",
					"name": "",
					"type": "string"
				}
			],
			"stateMutability": "view",
			"type": "function"
		},
		{
			"inputs": [],
			"name": "add",
			"outputs": [],
			"stateMutability": "nonpayable",
			"type": "function"
		},
		{
			"inputs": [
				{
					"internalType": "uint256",
					"name": "_number",
					"type": "uint256"
				}
			],
			"name": "addPure",
			"outputs": [
				{
					"internalType": "uint256",
					"name": "new_number",
					"type": "uint256"
				}
			],
			"stateMutability": "pure",
			"type": "function"
		},
		{
			"inputs": [],
			"name": "addView",
			"outputs": [
				{
					"internalType": "uint256",
					"name": "new_number",
					"type": "uint256"
				}
			],
			"stateMutability": "view",
			"type": "function"
		},
		{
			"inputs": [],
			"name": "enumToUint",
			"outputs": [
				{
					"internalType": "uint256",
					"name": "",
					"type": "uint256"
				}
			],
			"stateMutability": "view",
			"type": "function"
		},
		{
			"inputs": [],
			"name": "minusCall",
			"outputs": [],
			"stateMutability": "nonpayable",
			"type": "function"
		},
		{
			"inputs": [],
			"name": "minusPayable",
			"outputs": [
				{
					"internalType": "uint256",
					"name": "balance",
					"type": "uint256"
				}
			],
			"stateMutability": "payable",
			"type": "function"
		},
		{
			"inputs": [],
			"name": "number",
			"outputs": [
				{
					"internalType": "uint256",
					"name": "",
					"type": "uint256"
				}
			],
			"stateMutability": "view",
			"type": "function"
		},
		{
			"inputs": [
				{
					"internalType": "uint256",
					"name": "i",
					"type": "uint256"
				}
			],
			"name": "redReturn",
			"outputs": [
				{
					"internalType": "uint256",
					"name": "t1",
					"type": "uint256"
				},
				{
					"internalType": "bool",
					"name": "t2",
					"type": "bool"
				}
			],
			"stateMutability": "pure",
			"type": "function"
		},
		{
			"inputs": [],
			"name": "returnMultiple",
			"outputs": [
				{
					"internalType": "uint256",
					"name": "",
					"type": "uint256"
				},
				{
					"internalType": "bool",
					"name": "",
					"type": "bool"
				},
				{
					"internalType": "uint256[3]",
					"name": "",
					"type": "uint256[3]"
				}
			],
			"stateMutability": "pure",
			"type": "function"
		},
		{
			"inputs": [],
			"name": "returnNamed",
			"outputs": [
				{
					"internalType": "uint256",
					"name": "_number",
					"type": "uint256"
				},
				{
					"internalType": "bool",
					"name": "_bool",
					"type": "bool"
				},
				{
					"internalType": "uint256[3]",
					"name": "_array",
					"type": "uint256[3]"
				}
			],
			"stateMutability": "pure",
			"type": "function"
		}
	]
}