{
	"data": {
		"bytecode": {
			"linkReferences": {},
			"object": "60806040527f4d696e69536f6c696469747900000000000000000000000000000000000000005f555f545f6020811061003b5761003a6100ae565b5b1a60f81b60015f6101000a81548160ff021916908360f81c02179055506040518060400160405280600b81526020017f48656c6c6f2057656233210000000000000000000000000000000000000000008152506002908161009c9190610315565b503480156100a8575f80fd5b506103e4565b7f4e487b71000000000000000000000000000000000000000000000000000000005f52603260045260245ffd5b5f81519050919050565b7f4e487b71000000000000000000000000000000000000000000000000000000005f52604160045260245ffd5b7f4e487b71000000000000000000000000000000000000000000000000000000005f52602260045260245ffd5b5f600282049050600182168061015657607f821691505b60208210810361016957610168610112565b5b50919050565b5f819050815f5260205f209050919050565b5f6020601f8301049050919050565b5f82821b905092915050565b5f600883026101cb7fffffffffffffffffffffffffffffffffffffffffffffffffffffffffffffffff82610190565b6101d58683610190565b95508019841693508086168417925050509392505050565b5f819050919050565b5f819050919050565b5f61021961021461020f846101ed565b6101f6565b6101ed565b9050919050565b5f819050919050565b610232836101ff565b61024661023e82610220565b84845461019c565b825550505050565b5f90565b61025a61024e565b610265818484610229565b505050565b5b818110156102885761027d5f82610252565b60018101905061026b565b5050565b601f8211156102cd5761029e8161016f565b6102a784610181565b810160208510156102b6578190505b6102ca6102c285610181565b83018261026a565b50505b505050565b5f82821c905092915050565b5f6102ed5f19846008026102d2565b1980831691505092915050565b5f61030583836102de565b9150826002028217905092915050565b61031e826100db565b67ffffffffffffffff811115610337576103366100e5565b5b610341825461013f565b61034c82828561028c565b5f60209050601f83116001811461037d575f841561036b578287015190505b61037585826102fa565b8655506103dc565b601f19841661038b8661016f565b5f5b828110156103b25784890151825560018201915060208501945060208101905061038d565b868310156103cf57848901516103cb601f8916826102de565b8355505b6001600288020188555050505b505050505050565b6102e7806103f15f395ff3fe608060405234801561000f575f80fd5b506004361061003f575f3560e01c80633f346102146100435780639b267f0914610061578063aeb6f2921461007f575b5f80fd5b61004b61009d565b6040516100589190610158565b60405180910390f35b6100696100a2565b60405161007691906101e1565b60405180910390f35b61008761012e565b604051610094919061023b565b60405180910390f35b5f5481565b600280546100af90610281565b80601f01602080910402602001604051908101604052809291908181526020018280546100db90610281565b80156101265780601f106100fd57610100808354040283529160200191610126565b820191905f5260205f20905b81548152906001019060200180831161010957829003601f168201915b505050505081565b60015f9054906101000a900460f81b81565b5f819050919050565b61015281610140565b82525050565b5f60208201905061016b5f830184610149565b92915050565b5f81519050919050565b5f82825260208201905092915050565b8281835e5f83830152505050565b5f601f19601f8301169050919050565b5f6101b382610171565b6101bd818561017b565b93506101cd81856020860161018b565b6101d681610199565b840191505092915050565b5f6020820190508181035f8301526101f981846101a9565b905092915050565b5f7fff0000000000000000000000000000000000000000000000000000000000000082169050919050565b61023581610201565b82525050565b5f60208201905061024e5f83018461022c565b92915050565b7f4e487b71000000000000000000000000000000000000000000000000000000005f52602260045260245ffd5b5f600282049050600182168061029857607f821691505b6020821081036102ab576102aa610254565b5b5091905056fea2646970667358221220cf187a261d76acba29a18212f7b5cf547a58e418b7a88634019d4862016db25364736f6c634300081a0033",
			"opcodes": "PUSH1 0x80 PUSH1 0x40 MSTORE PUSH32 0x4D696E69536F6C69646974790000000000000000000000000000000000000000 PUSH0 SSTORE PUSH0 SLOAD PUSH0 PUSH1 0x20 DUP2 LT PUSH2 0x3B JUMPI PUSH2 0x3A PUSH2 0xAE JUMP JUMPDEST JUMPDEST BYTE PUSH1 0xF8 SHL PUSH1 0x1 PUSH0 PUSH2 0x100 EXP DUP2 SLOAD DUP2 PUSH1 0xFF MUL NOT AND SWAP1 DUP4 PUSH1 0xF8 SHR MUL OR SWAP1 SSTORE POP PUSH1 0x40 MLOAD DUP1 PUSH1 0x40 ADD PUSH1 0x40 MSTORE DUP1 PUSH1 0xB DUP2 MSTORE PUSH1 0x20 ADD PUSH32 0x48656C6C6F205765623321000000000000000000000000000000000000000000 DUP2 MSTORE POP PUSH1 0x2 SWAP1 DUP2 PUSH2 0x9C SWAP2 SWAP1 PUSH2 0x315 JUMP JUMPDEST POP CALLVALUE DUP1 ISZERO PUSH2 0xA8 JUMPI PUSH0 DUP1 REVERT JUMPDEST POP PUSH2 0x3E4 JUMP JUMPDEST PUSH32 0x4E487B7100000000000000000000000000000000000000000000000000000000 PUSH0 MSTORE PUSH1 0x32 PUSH1 0x4 MSTORE PUSH1 0x24 PUSH0 REVERT JUMPDEST PUSH0 DUP2 MLOAD SWAP1 POP SWAP2 SWAP1 POP JUMP JUMPDEST PUSH32 0x4E487B7100000000000000000000000000000000000000000000000000000000 PUSH0 MSTORE PUSH1 0x41 PUSH1 0x4 MSTORE PUSH1 0x24 PUSH0 REVERT JUMPDEST PUSH32 0x4E487B7100000000000000000000000000000000000000000000000000000000 PUSH0 MSTORE PUSH1 0x22 PUSH1 0x4 MSTORE PUSH1 0x24 PUSH0 REVERT JUMPDEST PUSH0 PUSH1 0x2 DUP3 DIV SWAP1 POP PUSH1 0x1 DUP3 AND DUP1 PUSH2 0x156 JUMPI PUSH1 0x7F DUP3 AND SWAP2 POP JUMPDEST PUSH1 0x20 DUP3 LT DUP2 SUB PUSH2 0x169 JUMPI PUSH2 0x168 PUSH2 0x112 JUMP JUMPDEST JUMPDEST POP SWAP2 SWAP1 POP JUMP JUMPDEST PUSH0 DUP2 SWAP1 POP DUP2 PUSH0 MSTORE PUSH1 0x20 PUSH0 KECCAK256 SWAP1 POP SWAP2 SWAP1 POP JUMP JUMPDEST PUSH0 PUSH1 0x20 PUSH1 0x1F DUP4 ADD DIV SWAP1 POP SWAP2 SWAP1 POP JUMP JUMPDEST PUSH0 DUP3 DUP3 SHL SWAP1 POP SWAP3 SWAP2 POP POP JUMP JUMPDEST PUSH0 PUSH1 0x8 DUP4 MUL PUSH2 0x1CB PUSH32 0xFFFFFFFFFFFFFFFFFFFFFFFFFFFFFFFFFFFFFFFFFFFFFFFFFFFFFFFFFFFFFFFF DUP3 PUSH2 0x190 JUMP JUMPDEST PUSH2 0x1D5 DUP7 DUP4 PUSH2 0x190 JUMP JUMPDEST SWAP6 POP DUP1 NOT DUP5 AND SWAP4 POP DUP1 DUP7 AND DUP5 OR SWAP3 POP POP POP SWAP4 SWAP3 POP POP POP JUMP JUMPDEST PUSH0 DUP2 SWAP1 POP SWAP2 SWAP1 POP JUMP JUMPDEST PUSH0 DUP2 SWAP1 POP SWAP2 SWAP1 POP JUMP JUMPDEST PUSH0 PUSH2 0x219 PUSH2 0x214 PUSH2 0x20F DUP5 PUSH2 0x1ED JUMP JUMPDEST PUSH2 0x1F6 JUMP JUMPDEST PUSH2 0x1ED JUMP JUMPDEST SWAP1 POP SWAP2 SWAP1 POP JUMP JUMPDEST PUSH0 DUP2 SWAP1 POP SWAP2 SWAP1 POP JUMP JUMPDEST PUSH2 0x232 DUP4 PUSH2 0x1FF JUMP JUMPDEST PUSH2 0x246 PUSH2 0x23E DUP3 PUSH2 0x220 JUMP JUMPDEST DUP5 DUP5 SLOAD PUSH2 0x19C JUMP JUMPDEST DUP3 SSTORE POP POP POP POP JUMP JUMPDEST PUSH0 SWAP1 JUMP JUMPDEST PUSH2 0x25A PUSH2 0x24E JUMP JUMPDEST PUSH2 0x265 DUP2 DUP5 DUP5 PUSH2 0x229 JUMP JUMPDEST POP POP POP JUMP JUMPDEST JUMPDEST DUP2 DUP2 LT ISZERO PUSH2 0x288 JUMPI PUSH2 0x27D PUSH0 DUP3 PUSH2 0x252 JUMP JUMPDEST PUSH1 0x1 DUP2 ADD SWAP1 POP PUSH2 0x26B JUMP JUMPDEST POP POP JUMP JUMPDEST PUSH1 0x1F DUP3 GT ISZERO PUSH2 0x2CD JUMPI PUSH2 0x29E DUP2 PUSH2 0x16F JUMP JUMPDEST PUSH2 0x2A7 DUP5 PUSH2 0x181 JUMP JUMPDEST DUP2 ADD PUSH1 0x20 DUP6 LT ISZERO PUSH2 0x2B6 JUMPI DUP2 SWAP1 POP JUMPDEST PUSH2 0x2CA PUSH2 0x2C2 DUP6 PUSH2 0x181 JUMP JUMPDEST DUP4 ADD DUP3 PUSH2 0x26A JUMP JUMPDEST POP POP JUMPDEST POP POP POP JUMP JUMPDEST PUSH0 DUP3 DUP3 SHR SWAP1 POP SWAP3 SWAP2 POP POP JUMP JUMPDEST PUSH0 PUSH2 0x2ED PUSH0 NOT DUP5 PUSH1 0x8 MUL PUSH2 0x2D2 JUMP JUMPDEST NOT DUP1 DUP4 AND SWAP2 POP POP SWAP3 SWAP2 POP POP JUMP JUMPDEST PUSH0 PUSH2 0x305 DUP4 DUP4 PUSH2 0x2DE JUMP JUMPDEST SWAP2 POP DUP3 PUSH1 0x2 MUL DUP3 OR SWAP1 POP SWAP3 SWAP2 POP POP JUMP JUMPDEST PUSH2 0x31E DUP3 PUSH2 0xDB JUMP JUMPDEST PUSH8 0xFFFFFFFFFFFFFFFF DUP2 GT ISZERO PUSH2 0x337 JUMPI PUSH2 0x336 PUSH2 0xE5 JUMP JUMPDEST JUMPDEST PUSH2 0x341 DUP3 SLOAD PUSH2 0x13F JUMP JUMPDEST PUSH2 0x34C DUP3 DUP3 DUP6 PUSH2 0x28C JUMP JUMPDEST PUSH0 PUSH1 0x20 SWAP1 POP PUSH1 0x1F DUP4 GT PUSH1 0x1 DUP2 EQ PUSH2 0x37D JUMPI PUSH0 DUP5 ISZERO PUSH2 0x36B JUMPI DUP3 DUP8 ADD MLOAD SWAP1 POP JUMPDEST PUSH2 0x375 DUP6 DUP3 PUSH2 0x2FA JUMP JUMPDEST DUP7 SSTORE POP PUSH2 0x3DC JUMP JUMPDEST PUSH1 0x1F NOT DUP5 AND PUSH2 0x38B DUP7 PUSH2 0x16F JUMP JUMPDEST PUSH0 JUMPDEST DUP3 DUP2 LT ISZERO PUSH2 0x3B2 JUMPI DUP5 DUP10 ADD MLOAD DUP3 SSTORE PUSH1 0x1 DUP3 ADD SWAP2 POP PUSH1 0x20 DUP6 ADD SWAP5 POP PUSH1 0x20 DUP2 ADD SWAP1 POP PUSH2 0x38D JUMP JUMPDEST DUP7 DUP4 LT ISZERO PUSH2 0x3CF JUMPI DUP5 DUP10 ADD MLOAD PUSH2 0x3CB PUSH1 0x1F DUP10 AND DUP3 PUSH2 0x2DE JUMP JUMPDEST DUP4 SSTORE POP JUMPDEST PUSH1 0x1 PUSH1 0x2 DUP9 MUL ADD DUP9 SSTORE POP POP POP JUMPDEST POP POP POP POP POP POP JUMP JUMPDEST PUSH2 0x2E7 DUP1 PUSH2 0x3F1 PUSH0 CODECOPY PUSH0 RETURN INVALID PUSH1 0x80 PUSH1 0x40 MSTORE CALLVALUE DUP1 ISZERO PUSH2 0xF JUMPI PUSH0 DUP1 REVERT JUMPDEST POP PUSH1 0x4 CALLDATASIZE LT PUSH2 0x3F JUMPI PUSH0 CALLDATALOAD PUSH1 0xE0 SHR DUP1 PUSH4 0x3F346102 EQ PUSH2 0x43 JUMPI DUP1 PUSH4 0x9B267F09 EQ PUSH2 0x61 JUMPI DUP1 PUSH4 0xAEB6F292 EQ PUSH2 0x7F JUMPI JUMPDEST PUSH0 DUP1 REVERT JUMPDEST PUSH2 0x4B PUSH2 0x9D JUMP JUMPDEST PUSH1 0x40 MLOAD PUSH2 0x58 SWAP2 SWAP1 PUSH2 0x158 JUMP JUMPDEST PUSH1 0x40 MLOAD DUP1 SWAP2 SUB SWAP1 RETURN JUMPDEST PUSH2 0x69 PUSH2 0xA2 JUMP JUMPDEST PUSH1 0x40 MLOAD PUSH2 0x76 SWAP2 SWAP1 PUSH2 0x1E1 JUMP JUMPDEST PUSH1 0x40 MLOAD DUP1 SWAP2 SUB SWAP1 RETURN JUMPDEST PUSH2 0x87 PUSH2 0x12E JUMP JUMPDEST PUSH1 0x40 MLOAD PUSH2 0x94 SWAP2 SWAP1 PUSH2 0x23B JUMP JUMPDEST PUSH1 0x40 MLOAD DUP1 SWAP2 SUB SWAP1 RETURN JUMPDEST PUSH0 SLOAD DUP2 JUMP JUMPDEST PUSH1 0x2 DUP1 SLOAD PUSH2 0xAF SWAP1 PUSH2 0x281 JUMP JUMPDEST DUP1 PUSH1 0x1F ADD PUSH1 0x20 DUP1 SWAP2 DIV MUL PUSH1 0x20 ADD PUSH1 0x40 MLOAD SWAP1 DUP2 ADD PUSH1 0x40 MSTORE DUP1 SWAP3 SWAP2 SWAP1 DUP2 DUP2 MSTORE PUSH1 0x20 ADD DUP3 DUP1 SLOAD PUSH2 0xDB SWAP1 PUSH2 0x281 JUMP JUMPDEST DUP1 ISZERO PUSH2 0x126 JUMPI DUP1 PUSH1 0x1F LT PUSH2 0xFD JUMPI PUSH2 0x100 DUP1 DUP4 SLOAD DIV MUL DUP4 MSTORE SWAP2 PUSH1 0x20 ADD SWAP2 PUSH2 0x126 JUMP JUMPDEST DUP3 ADD SWAP2 SWAP1 PUSH0 MSTORE PUSH1 0x20 PUSH0 KECCAK256 SWAP1 JUMPDEST DUP2 SLOAD DUP2 MSTORE SWAP1 PUSH1 0x1 ADD SWAP1 PUSH1 0x20 ADD DUP1 DUP4 GT PUSH2 0x109 JUMPI DUP3 SWAP1 SUB PUSH1 0x1F AND DUP3 ADD SWAP2 JUMPDEST POP POP POP POP POP DUP2 JUMP JUMPDEST PUSH1 0x1 PUSH0 SWAP1 SLOAD SWAP1 PUSH2 0x100 EXP SWAP1 DIV PUSH1 0xF8 SHL DUP2 JUMP JUMPDEST PUSH0 DUP2 SWAP1 POP SWAP2 SWAP1 POP JUMP JUMPDEST PUSH2 0x152 DUP2 PUSH2 0x140 JUMP JUMPDEST DUP3 MSTORE POP POP JUMP JUMPDEST PUSH0 PUSH1 0x20 DUP3 ADD SWAP1 POP PUSH2 0x16B PUSH0 DUP4 ADD DUP5 PUSH2 0x149 JUMP JUMPDEST SWAP3 SWAP2 POP POP JUMP JUMPDEST PUSH0 DUP2 MLOAD SWAP1 POP SWAP2 SWAP1 POP JUMP JUMPDEST PUSH0 DUP3 DUP3 MSTORE PUSH1 0x20 DUP3 ADD SWAP1 POP SWAP3 SWAP2 POP POP JUMP JUMPDEST DUP3 DUP2 DUP4 MCOPY PUSH0 DUP4 DUP4 ADD MSTORE POP POP POP JUMP JUMPDEST PUSH0 PUSH1 0x1F NOT PUSH1 0x1F DUP4 ADD AND SWAP1 POP SWAP2 SWAP1 POP JUMP JUMPDEST PUSH0 PUSH2 0x1B3 DUP3 PUSH2 0x171 JUMP JUMPDEST PUSH2 0x1BD DUP2 DUP6 PUSH2 0x17B JUMP JUMPDEST SWAP4 POP PUSH2 0x1CD DUP2 DUP6 PUSH1 0x20 DUP7 ADD PUSH2 0x18B JUMP JUMPDEST PUSH2 0x1D6 DUP2 PUSH2 0x199 JUMP JUMPDEST DUP5 ADD SWAP2 POP POP SWAP3 SWAP2 POP POP JUMP JUMPDEST PUSH0 PUSH1 0x20 DUP3 ADD SWAP1 POP DUP2 DUP2 SUB PUSH0 DUP4 ADD MSTORE PUSH2 0x1F9 DUP2 DUP5 PUSH2 0x1A9 JUMP JUMPDEST SWAP1 POP SWAP3 SWAP2 POP POP JUMP JUMPDEST PUSH0 PUSH32 0xFF00000000000000000000000000000000000000000000000000000000000000 DUP3 AND SWAP1 POP SWAP2 SWAP1 POP JUMP JUMPDEST PUSH2 0x235 DUP2 PUSH2 0x201 JUMP JUMPDEST DUP3 MSTORE POP POP JUMP JUMPDEST PUSH0 PUSH1 0x20 DUP3 ADD SWAP1 POP PUSH2 0x24E PUSH0 DUP4 ADD DUP5 PUSH2 0x22C JUMP JUMPDEST SWAP3 SWAP2 POP POP JUMP JUMPDEST PUSH32 0x4E487B7100000000000000000000000000000000000000000000000000000000 PUSH0 MSTORE PUSH1 0x22 PUSH1 0x4 MSTORE PUSH1 0x24 PUSH0 REVERT JUMPDEST PUSH0 PUSH1 0x2 DUP3 DIV SWAP1 POP PUSH1 0x1 DUP3 AND DUP1 PUSH2 0x298 JUMPI PUSH1 0x7F DUP3 AND SWAP2 POP JUMPDEST PUSH1 0x20 DUP3 LT DUP2 SUB PUSH2 0x2AB JUMPI PUSH2 0x2AA PUSH2 0x254 JUMP JUMPDEST JUMPDEST POP SWAP2 SWAP1 POP JUMP INVALID LOG2 PUSH5 0x6970667358 0x22 SLT KECCAK256 0xCF XOR PUSH27 0x261D76ACBA29A18212F7B5CF547A58E418B7A88634019D4862016D 0xB2 MSTORE8 PUSH5 0x736F6C6343 STOP ADDMOD BYTE STOP CALLER "
		},
		"gasEstimates": {
			"creation": {
				"codeDepositCost": "148600",
				"executionCost": "infinite",
				"totalCost": "infinite"
			},
			"external": {
				"_byte()": "2488",
				"_byte32()": "2402",
				"_string()": "infinite"
			}
		},
		"methodIdentifiers": {
			"_byte()": "aeb6f292",
			"_byte32()": "3f346102",
			"_string()": "9b267f09"
		}
	},
	"abi": [
		{
			"inputs": [],
			"name": "_byte",
			"outputs": [
				{
					"internalType": "bytes1",
					"name": "",
					"type": "bytes1"
				}
			],
			"stateMutability": "view",
			"type": "function"
		},
		{
			"inputs": [],
			"name": "_byte32",
			"outputs": [
				{
					"internalType": "bytes32",
					"name": "",
					"type": "bytes32"
				}
			],
			"stateMutability": "view",
			"type": "function"
		},
		{
			"inputs": [],
			"name": "_string",
			"outputs": [
				{
					"internalType": "string",
					"name": "",
					"type": "string"
				}
			],
			"stateMutability": "view",
			"type": "function"
		}
	]
}