{
	"contracts/Factory.sol": {
		"Factory": {
			"abi": [
				{
					"anonymous": false,
					"inputs": [
						{
							"indexed": false,
							"internalType": "address",
							"name": "newContract",
							"type": "address"
						}
					],
					"name": "ContractDeployed",
					"type": "event"
				},
				{
					"inputs": [
						{
							"internalType": "bytes",
							"name": "bytecode",
							"type": "bytes"
						},
						{
							"internalType": "uint256",
							"name": "salt",
							"type": "uint256"
						}
					],
					"name": "deploy",
					"outputs": [
						{
							"internalType": "address",
							"name": "",
							"type": "address"
						}
					],
					"stateMutability": "nonpayable",
					"type": "function"
				}
			],
			"devdoc": {
				"kind": "dev",
				"methods": {},
				"version": 1
			},
			"evm": {
				"assembly": "    /* \"contracts/Factory.sol\":60:779  contract Factory {... */\n  mstore(0x40, 0x80)\n  callvalue\n  dup1\n  iszero\n  tag_1\n  jumpi\n  0x00\n  dup1\n  revert\ntag_1:\n  pop\n  dataSize(sub_0)\n  dup1\n  dataOffset(sub_0)\n  0x00\n  codecopy\n  0x00\n  return\nstop\n\nsub_0: assembly {\n        /* \"contracts/Factory.sol\":60:779  contract Factory {... */\n      mstore(0x40, 0x80)\n      callvalue\n      dup1\n      iszero\n      tag_1\n      jumpi\n      0x00\n      dup1\n      revert\n    tag_1:\n      pop\n      jumpi(tag_2, lt(calldatasize, 0x04))\n      shr(0xe0, calldataload(0x00))\n      dup1\n      0x9c4ae2d0\n      eq\n      tag_3\n      jumpi\n    tag_2:\n      0x00\n      dup1\n      revert\n        /* \"contracts/Factory.sol\":223:776  function deploy(bytes memory bytecode, uint256 salt) public returns (address) {... */\n    tag_3:\n      tag_4\n      0x04\n      dup1\n      calldatasize\n      sub\n      dup2\n      add\n      swap1\n      tag_5\n      swap2\n      swap1\n      tag_6\n      jump\t// in\n    tag_5:\n      tag_7\n      jump\t// in\n    tag_4:\n      mload(0x40)\n      tag_8\n      swap2\n      swap1\n      tag_9\n      jump\t// in\n    tag_8:\n      mload(0x40)\n      dup1\n      swap2\n      sub\n      swap1\n      return\n    tag_7:\n        /* \"contracts/Factory.sol\":292:299  address */\n      0x00\n        /* \"contracts/Factory.sol\":312:338  address newContractAddress */\n      dup1\n        /* \"contracts/Factory.sol\":624:628  salt */\n      dup3\n        /* \"contracts/Factory.sol\":613:621  bytecode */\n      dup5\n        /* \"contracts/Factory.sol\":607:622  mload(bytecode) */\n      mload\n        /* \"contracts/Factory.sol\":600:604  0x20 */\n      0x20\n        /* \"contracts/Factory.sol\":590:598  bytecode */\n      dup7\n        /* \"contracts/Factory.sol\":586:605  add(bytecode, 0x20) */\n      add\n        /* \"contracts/Factory.sol\":583:584  0 */\n      0x00\n        /* \"contracts/Factory.sol\":575:629  create2(0, add(bytecode, 0x20), mload(bytecode), salt) */\n      create2\n        /* \"contracts/Factory.sol\":553:629  newContractAddress := create2(0, add(bytecode, 0x20), mload(bytecode), salt) */\n      swap1\n      pop\n        /* \"contracts/Factory.sol\":696:732  ContractDeployed(newContractAddress) */\n      0x8ffcdc15a283d706d38281f500270d8b5a656918f555de0913d7455e3e6bc1bf\n        /* \"contracts/Factory.sol\":713:731  newContractAddress */\n      dup2\n        /* \"contracts/Factory.sol\":696:732  ContractDeployed(newContractAddress) */\n      mload(0x40)\n      tag_11\n      swap2\n      swap1\n      tag_9\n      jump\t// in\n    tag_11:\n      mload(0x40)\n      dup1\n      swap2\n      sub\n      swap1\n      log1\n        /* \"contracts/Factory.sol\":750:768  newContractAddress */\n      dup1\n        /* \"contracts/Factory.sol\":743:768  return newContractAddress */\n      swap2\n      pop\n      pop\n        /* \"contracts/Factory.sol\":223:776  function deploy(bytes memory bytecode, uint256 salt) public returns (address) {... */\n      swap3\n      swap2\n      pop\n      pop\n      jump\t// out\n        /* \"#utility.yul\":7:82   */\n    tag_12:\n        /* \"#utility.yul\":40:46   */\n      0x00\n        /* \"#utility.yul\":73:75   */\n      0x40\n        /* \"#utility.yul\":67:76   */\n      mload\n        /* \"#utility.yul\":57:76   */\n      swap1\n      pop\n        /* \"#utility.yul\":7:82   */\n      swap1\n      jump\t// out\n        /* \"#utility.yul\":88:205   */\n    tag_13:\n        /* \"#utility.yul\":197:198   */\n      0x00\n        /* \"#utility.yul\":194:195   */\n      dup1\n        /* \"#utility.yul\":187:199   */\n      revert\n        /* \"#utility.yul\":211:328   */\n    tag_14:\n        /* \"#utility.yul\":320:321   */\n      0x00\n        /* \"#utility.yul\":317:318   */\n      dup1\n        /* \"#utility.yul\":310:322   */\n      revert\n        /* \"#utility.yul\":334:451   */\n    tag_15:\n        /* \"#utility.yul\":443:444   */\n      0x00\n        /* \"#utility.yul\":440:441   */\n      dup1\n        /* \"#utility.yul\":433:445   */\n      revert\n        /* \"#utility.yul\":457:574   */\n    tag_16:\n        /* \"#utility.yul\":566:567   */\n      0x00\n        /* \"#utility.yul\":563:564   */\n      dup1\n        /* \"#utility.yul\":556:568   */\n      revert\n        /* \"#utility.yul\":580:682   */\n    tag_17:\n        /* \"#utility.yul\":621:627   */\n      0x00\n        /* \"#utility.yul\":672:674   */\n      0x1f\n        /* \"#utility.yul\":668:675   */\n      not\n        /* \"#utility.yul\":663:665   */\n      0x1f\n        /* \"#utility.yul\":656:661   */\n      dup4\n        /* \"#utility.yul\":652:666   */\n      add\n        /* \"#utility.yul\":648:676   */\n      and\n        /* \"#utility.yul\":638:676   */\n      swap1\n      pop\n        /* \"#utility.yul\":580:682   */\n      swap2\n      swap1\n      pop\n      jump\t// out\n        /* \"#utility.yul\":688:868   */\n    tag_18:\n        /* \"#utility.yul\":736:813   */\n      0x4e487b7100000000000000000000000000000000000000000000000000000000\n        /* \"#utility.yul\":733:734   */\n      0x00\n        /* \"#utility.yul\":726:814   */\n      mstore\n        /* \"#utility.yul\":833:837   */\n      0x41\n        /* \"#utility.yul\":830:831   */\n      0x04\n        /* \"#utility.yul\":823:838   */\n      mstore\n        /* \"#utility.yul\":857:861   */\n      0x24\n        /* \"#utility.yul\":854:855   */\n      0x00\n        /* \"#utility.yul\":847:862   */\n      revert\n        /* \"#utility.yul\":874:1155   */\n    tag_19:\n        /* \"#utility.yul\":957:984   */\n      tag_40\n        /* \"#utility.yul\":979:983   */\n      dup3\n        /* \"#utility.yul\":957:984   */\n      tag_17\n      jump\t// in\n    tag_40:\n        /* \"#utility.yul\":949:955   */\n      dup2\n        /* \"#utility.yul\":945:985   */\n      add\n        /* \"#utility.yul\":1087:1093   */\n      dup2\n        /* \"#utility.yul\":1075:1085   */\n      dup2\n        /* \"#utility.yul\":1072:1094   */\n      lt\n        /* \"#utility.yul\":1051:1069   */\n      0xffffffffffffffff\n        /* \"#utility.yul\":1039:1049   */\n      dup3\n        /* \"#utility.yul\":1036:1070   */\n      gt\n        /* \"#utility.yul\":1033:1095   */\n      or\n        /* \"#utility.yul\":1030:1118   */\n      iszero\n      tag_41\n      jumpi\n        /* \"#utility.yul\":1098:1116   */\n      tag_42\n      tag_18\n      jump\t// in\n    tag_42:\n        /* \"#utility.yul\":1030:1118   */\n    tag_41:\n        /* \"#utility.yul\":1138:1148   */\n      dup1\n        /* \"#utility.yul\":1134:1136   */\n      0x40\n        /* \"#utility.yul\":1127:1149   */\n      mstore\n        /* \"#utility.yul\":917:1155   */\n      pop\n        /* \"#utility.yul\":874:1155   */\n      pop\n      pop\n      jump\t// out\n        /* \"#utility.yul\":1161:1290   */\n    tag_20:\n        /* \"#utility.yul\":1195:1201   */\n      0x00\n        /* \"#utility.yul\":1222:1242   */\n      tag_44\n      tag_12\n      jump\t// in\n    tag_44:\n        /* \"#utility.yul\":1212:1242   */\n      swap1\n      pop\n        /* \"#utility.yul\":1251:1284   */\n      tag_45\n        /* \"#utility.yul\":1279:1283   */\n      dup3\n        /* \"#utility.yul\":1271:1277   */\n      dup3\n        /* \"#utility.yul\":1251:1284   */\n      tag_19\n      jump\t// in\n    tag_45:\n        /* \"#utility.yul\":1161:1290   */\n      swap2\n      swap1\n      pop\n      jump\t// out\n        /* \"#utility.yul\":1296:1603   */\n    tag_21:\n        /* \"#utility.yul\":1357:1361   */\n      0x00\n        /* \"#utility.yul\":1447:1465   */\n      0xffffffffffffffff\n        /* \"#utility.yul\":1439:1445   */\n      dup3\n        /* \"#utility.yul\":1436:1466   */\n      gt\n        /* \"#utility.yul\":1433:1489   */\n      iszero\n      tag_47\n      jumpi\n        /* \"#utility.yul\":1469:1487   */\n      tag_48\n      tag_18\n      jump\t// in\n    tag_48:\n        /* \"#utility.yul\":1433:1489   */\n    tag_47:\n        /* \"#utility.yul\":1507:1536   */\n      tag_49\n        /* \"#utility.yul\":1529:1535   */\n      dup3\n        /* \"#utility.yul\":1507:1536   */\n      tag_17\n      jump\t// in\n    tag_49:\n        /* \"#utility.yul\":1499:1536   */\n      swap1\n      pop\n        /* \"#utility.yul\":1591:1595   */\n      0x20\n        /* \"#utility.yul\":1585:1589   */\n      dup2\n        /* \"#utility.yul\":1581:1596   */\n      add\n        /* \"#utility.yul\":1573:1596   */\n      swap1\n      pop\n        /* \"#utility.yul\":1296:1603   */\n      swap2\n      swap1\n      pop\n      jump\t// out\n        /* \"#utility.yul\":1609:1757   */\n    tag_22:\n        /* \"#utility.yul\":1707:1713   */\n      dup3\n        /* \"#utility.yul\":1702:1705   */\n      dup2\n        /* \"#utility.yul\":1697:1700   */\n      dup4\n        /* \"#utility.yul\":1684:1714   */\n      calldatacopy\n        /* \"#utility.yul\":1748:1749   */\n      0x00\n        /* \"#utility.yul\":1739:1745   */\n      dup4\n        /* \"#utility.yul\":1734:1737   */\n      dup4\n        /* \"#utility.yul\":1730:1746   */\n      add\n        /* \"#utility.yul\":1723:1750   */\n      mstore\n        /* \"#utility.yul\":1609:1757   */\n      pop\n      pop\n      pop\n      jump\t// out\n        /* \"#utility.yul\":1763:2186   */\n    tag_23:\n        /* \"#utility.yul\":1840:1845   */\n      0x00\n        /* \"#utility.yul\":1865:1930   */\n      tag_52\n        /* \"#utility.yul\":1881:1929   */\n      tag_53\n        /* \"#utility.yul\":1922:1928   */\n      dup5\n        /* \"#utility.yul\":1881:1929   */\n      tag_21\n      jump\t// in\n    tag_53:\n        /* \"#utility.yul\":1865:1930   */\n      tag_20\n      jump\t// in\n    tag_52:\n        /* \"#utility.yul\":1856:1930   */\n      swap1\n      pop\n        /* \"#utility.yul\":1953:1959   */\n      dup3\n        /* \"#utility.yul\":1946:1951   */\n      dup2\n        /* \"#utility.yul\":1939:1960   */\n      mstore\n        /* \"#utility.yul\":1991:1995   */\n      0x20\n        /* \"#utility.yul\":1984:1989   */\n      dup2\n        /* \"#utility.yul\":1980:1996   */\n      add\n        /* \"#utility.yul\":2029:2032   */\n      dup5\n        /* \"#utility.yul\":2020:2026   */\n      dup5\n        /* \"#utility.yul\":2015:2018   */\n      dup5\n        /* \"#utility.yul\":2011:2027   */\n      add\n        /* \"#utility.yul\":2008:2033   */\n      gt\n        /* \"#utility.yul\":2005:2117   */\n      iszero\n      tag_54\n      jumpi\n        /* \"#utility.yul\":2036:2115   */\n      tag_55\n      tag_16\n      jump\t// in\n    tag_55:\n        /* \"#utility.yul\":2005:2117   */\n    tag_54:\n        /* \"#utility.yul\":2126:2180   */\n      tag_56\n        /* \"#utility.yul\":2173:2179   */\n      dup5\n        /* \"#utility.yul\":2168:2171   */\n      dup3\n        /* \"#utility.yul\":2163:2166   */\n      dup6\n        /* \"#utility.yul\":2126:2180   */\n      tag_22\n      jump\t// in\n    tag_56:\n        /* \"#utility.yul\":1846:2186   */\n      pop\n        /* \"#utility.yul\":1763:2186   */\n      swap4\n      swap3\n      pop\n      pop\n      pop\n      jump\t// out\n        /* \"#utility.yul\":2205:2543   */\n    tag_24:\n        /* \"#utility.yul\":2260:2265   */\n      0x00\n        /* \"#utility.yul\":2309:2312   */\n      dup3\n        /* \"#utility.yul\":2302:2306   */\n      0x1f\n        /* \"#utility.yul\":2294:2300   */\n      dup4\n        /* \"#utility.yul\":2290:2307   */\n      add\n        /* \"#utility.yul\":2286:2313   */\n      slt\n        /* \"#utility.yul\":2276:2398   */\n      tag_58\n      jumpi\n        /* \"#utility.yul\":2317:2396   */\n      tag_59\n      tag_15\n      jump\t// in\n    tag_59:\n        /* \"#utility.yul\":2276:2398   */\n    tag_58:\n        /* \"#utility.yul\":2434:2440   */\n      dup2\n        /* \"#utility.yul\":2421:2441   */\n      calldataload\n        /* \"#utility.yul\":2459:2537   */\n      tag_60\n        /* \"#utility.yul\":2533:2536   */\n      dup5\n        /* \"#utility.yul\":2525:2531   */\n      dup3\n        /* \"#utility.yul\":2518:2522   */\n      0x20\n        /* \"#utility.yul\":2510:2516   */\n      dup7\n        /* \"#utility.yul\":2506:2523   */\n      add\n        /* \"#utility.yul\":2459:2537   */\n      tag_23\n      jump\t// in\n    tag_60:\n        /* \"#utility.yul\":2450:2537   */\n      swap2\n      pop\n        /* \"#utility.yul\":2266:2543   */\n      pop\n        /* \"#utility.yul\":2205:2543   */\n      swap3\n      swap2\n      pop\n      pop\n      jump\t// out\n        /* \"#utility.yul\":2549:2626   */\n    tag_25:\n        /* \"#utility.yul\":2586:2593   */\n      0x00\n        /* \"#utility.yul\":2615:2620   */\n      dup2\n        /* \"#utility.yul\":2604:2620   */\n      swap1\n      pop\n        /* \"#utility.yul\":2549:2626   */\n      swap2\n      swap1\n      pop\n      jump\t// out\n        /* \"#utility.yul\":2632:2754   */\n    tag_26:\n        /* \"#utility.yul\":2705:2729   */\n      tag_63\n        /* \"#utility.yul\":2723:2728   */\n      dup2\n        /* \"#utility.yul\":2705:2729   */\n      tag_25\n      jump\t// in\n    tag_63:\n        /* \"#utility.yul\":2698:2703   */\n      dup2\n        /* \"#utility.yul\":2695:2730   */\n      eq\n        /* \"#utility.yul\":2685:2748   */\n      tag_64\n      jumpi\n        /* \"#utility.yul\":2744:2745   */\n      0x00\n        /* \"#utility.yul\":2741:2742   */\n      dup1\n        /* \"#utility.yul\":2734:2746   */\n      revert\n        /* \"#utility.yul\":2685:2748   */\n    tag_64:\n        /* \"#utility.yul\":2632:2754   */\n      pop\n      jump\t// out\n        /* \"#utility.yul\":2760:2899   */\n    tag_27:\n        /* \"#utility.yul\":2806:2811   */\n      0x00\n        /* \"#utility.yul\":2844:2850   */\n      dup2\n        /* \"#utility.yul\":2831:2851   */\n      calldataload\n        /* \"#utility.yul\":2822:2851   */\n      swap1\n      pop\n        /* \"#utility.yul\":2860:2893   */\n      tag_66\n        /* \"#utility.yul\":2887:2892   */\n      dup2\n        /* \"#utility.yul\":2860:2893   */\n      tag_26\n      jump\t// in\n    tag_66:\n        /* \"#utility.yul\":2760:2899   */\n      swap3\n      swap2\n      pop\n      pop\n      jump\t// out\n        /* \"#utility.yul\":2905:3557   */\n    tag_6:\n        /* \"#utility.yul\":2982:2988   */\n      0x00\n        /* \"#utility.yul\":2990:2996   */\n      dup1\n        /* \"#utility.yul\":3039:3041   */\n      0x40\n        /* \"#utility.yul\":3027:3036   */\n      dup4\n        /* \"#utility.yul\":3018:3025   */\n      dup6\n        /* \"#utility.yul\":3014:3037   */\n      sub\n        /* \"#utility.yul\":3010:3042   */\n      slt\n        /* \"#utility.yul\":3007:3126   */\n      iszero\n      tag_68\n      jumpi\n        /* \"#utility.yul\":3045:3124   */\n      tag_69\n      tag_13\n      jump\t// in\n    tag_69:\n        /* \"#utility.yul\":3007:3126   */\n    tag_68:\n        /* \"#utility.yul\":3193:3194   */\n      0x00\n        /* \"#utility.yul\":3182:3191   */\n      dup4\n        /* \"#utility.yul\":3178:3195   */\n      add\n        /* \"#utility.yul\":3165:3196   */\n      calldataload\n        /* \"#utility.yul\":3223:3241   */\n      0xffffffffffffffff\n        /* \"#utility.yul\":3215:3221   */\n      dup2\n        /* \"#utility.yul\":3212:3242   */\n      gt\n        /* \"#utility.yul\":3209:3326   */\n      iszero\n      tag_70\n      jumpi\n        /* \"#utility.yul\":3245:3324   */\n      tag_71\n      tag_14\n      jump\t// in\n    tag_71:\n        /* \"#utility.yul\":3209:3326   */\n    tag_70:\n        /* \"#utility.yul\":3350:3412   */\n      tag_72\n        /* \"#utility.yul\":3404:3411   */\n      dup6\n        /* \"#utility.yul\":3395:3401   */\n      dup3\n        /* \"#utility.yul\":3384:3393   */\n      dup7\n        /* \"#utility.yul\":3380:3402   */\n      add\n        /* \"#utility.yul\":3350:3412   */\n      tag_24\n      jump\t// in\n    tag_72:\n        /* \"#utility.yul\":3340:3412   */\n      swap3\n      pop\n        /* \"#utility.yul\":3136:3422   */\n      pop\n        /* \"#utility.yul\":3461:3463   */\n      0x20\n        /* \"#utility.yul\":3487:3540   */\n      tag_73\n        /* \"#utility.yul\":3532:3539   */\n      dup6\n        /* \"#utility.yul\":3523:3529   */\n      dup3\n        /* \"#utility.yul\":3512:3521   */\n      dup7\n        /* \"#utility.yul\":3508:3530   */\n      add\n        /* \"#utility.yul\":3487:3540   */\n      tag_27\n      jump\t// in\n    tag_73:\n        /* \"#utility.yul\":3477:3540   */\n      swap2\n      pop\n        /* \"#utility.yul\":3432:3550   */\n      pop\n        /* \"#utility.yul\":2905:3557   */\n      swap3\n      pop\n      swap3\n      swap1\n      pop\n      jump\t// out\n        /* \"#utility.yul\":3563:3689   */\n    tag_28:\n        /* \"#utility.yul\":3600:3607   */\n      0x00\n        /* \"#utility.yul\":3640:3682   */\n      0xffffffffffffffffffffffffffffffffffffffff\n        /* \"#utility.yul\":3633:3638   */\n      dup3\n        /* \"#utility.yul\":3629:3683   */\n      and\n        /* \"#utility.yul\":3618:3683   */\n      swap1\n      pop\n        /* \"#utility.yul\":3563:3689   */\n      swap2\n      swap1\n      pop\n      jump\t// out\n        /* \"#utility.yul\":3695:3791   */\n    tag_29:\n        /* \"#utility.yul\":3732:3739   */\n      0x00\n        /* \"#utility.yul\":3761:3785   */\n      tag_76\n        /* \"#utility.yul\":3779:3784   */\n      dup3\n        /* \"#utility.yul\":3761:3785   */\n      tag_28\n      jump\t// in\n    tag_76:\n        /* \"#utility.yul\":3750:3785   */\n      swap1\n      pop\n        /* \"#utility.yul\":3695:3791   */\n      swap2\n      swap1\n      pop\n      jump\t// out\n        /* \"#utility.yul\":3797:3915   */\n    tag_30:\n        /* \"#utility.yul\":3884:3908   */\n      tag_78\n        /* \"#utility.yul\":3902:3907   */\n      dup2\n        /* \"#utility.yul\":3884:3908   */\n      tag_29\n      jump\t// in\n    tag_78:\n        /* \"#utility.yul\":3879:3882   */\n      dup3\n        /* \"#utility.yul\":3872:3909   */\n      mstore\n        /* \"#utility.yul\":3797:3915   */\n      pop\n      pop\n      jump\t// out\n        /* \"#utility.yul\":3921:4143   */\n    tag_9:\n        /* \"#utility.yul\":4014:4018   */\n      0x00\n        /* \"#utility.yul\":4052:4054   */\n      0x20\n        /* \"#utility.yul\":4041:4050   */\n      dup3\n        /* \"#utility.yul\":4037:4055   */\n      add\n        /* \"#utility.yul\":4029:4055   */\n      swap1\n      pop\n        /* \"#utility.yul\":4065:4136   */\n      tag_80\n        /* \"#utility.yul\":4133:4134   */\n      0x00\n        /* \"#utility.yul\":4122:4131   */\n      dup4\n        /* \"#utility.yul\":4118:4135   */\n      add\n        /* \"#utility.yul\":4109:4115   */\n      dup5\n        /* \"#utility.yul\":4065:4136   */\n      tag_30\n      jump\t// in\n    tag_80:\n        /* \"#utility.yul\":3921:4143   */\n      swap3\n      swap2\n      pop\n      pop\n      jump\t// out\n\n    auxdata: 0xa26469706673582212205b84d3a407075767bff0c820e4f65226414fd1cb975b8cb15a825a81d4cf411464736f6c634300081a0033\n}\n",
				"bytecode": {
					"linkReferences": {},
					"object": "6080604052348015600e575f80fd5b506103138061001c5f395ff3fe608060405234801561000f575f80fd5b5060043610610029575f3560e01c80639c4ae2d01461002d575b5f80fd5b6100476004803603810190610042919061022b565b61005d565b60405161005491906102c4565b60405180910390f35b5f80828451602086015ff590507f8ffcdc15a283d706d38281f500270d8b5a656918f555de0913d7455e3e6bc1bf8160405161009991906102c4565b60405180910390a18091505092915050565b5f604051905090565b5f80fd5b5f80fd5b5f80fd5b5f80fd5b5f601f19601f8301169050919050565b7f4e487b71000000000000000000000000000000000000000000000000000000005f52604160045260245ffd5b61010a826100c4565b810181811067ffffffffffffffff82111715610129576101286100d4565b5b80604052505050565b5f61013b6100ab565b90506101478282610101565b919050565b5f67ffffffffffffffff821115610166576101656100d4565b5b61016f826100c4565b9050602081019050919050565b828183375f83830152505050565b5f61019c6101978461014c565b610132565b9050828152602081018484840111156101b8576101b76100c0565b5b6101c384828561017c565b509392505050565b5f82601f8301126101df576101de6100bc565b5b81356101ef84826020860161018a565b91505092915050565b5f819050919050565b61020a816101f8565b8114610214575f80fd5b50565b5f8135905061022581610201565b92915050565b5f8060408385031215610241576102406100b4565b5b5f83013567ffffffffffffffff81111561025e5761025d6100b8565b5b61026a858286016101cb565b925050602061027b85828601610217565b9150509250929050565b5f73ffffffffffffffffffffffffffffffffffffffff82169050919050565b5f6102ae82610285565b9050919050565b6102be816102a4565b82525050565b5f6020820190506102d75f8301846102b5565b9291505056fea26469706673582212205b84d3a407075767bff0c820e4f65226414fd1cb975b8cb15a825a81d4cf411464736f6c634300081a0033",
					"opcodes": "PUSH1 0x80 PUSH1 0x40 MSTORE CALLVALUE DUP1 ISZERO PUSH1 0xE JUMPI PUSH0 DUP1 REVERT JUMPDEST POP PUSH2 0x313 DUP1 PUSH2 0x1C PUSH0 CODECOPY PUSH0 RETURN INVALID PUSH1 0x80 PUSH1 0x40 MSTORE CALLVALUE DUP1 ISZERO PUSH2 0xF JUMPI PUSH0 DUP1 REVERT JUMPDEST POP PUSH1 0x4 CALLDATASIZE LT PUSH2 0x29 JUMPI PUSH0 CALLDATALOAD PUSH1 0xE0 SHR DUP1 PUSH4 0x9C4AE2D0 EQ PUSH2 0x2D JUMPI JUMPDEST PUSH0 DUP1 REVERT JUMPDEST PUSH2 0x47 PUSH1 0x4 DUP1 CALLDATASIZE SUB DUP2 ADD SWAP1 PUSH2 0x42 SWAP2 SWAP1 PUSH2 0x22B JUMP JUMPDEST PUSH2 0x5D JUMP JUMPDEST PUSH1 0x40 MLOAD PUSH2 0x54 SWAP2 SWAP1 PUSH2 0x2C4 JUMP JUMPDEST PUSH1 0x40 MLOAD DUP1 SWAP2 SUB SWAP1 RETURN JUMPDEST PUSH0 DUP1 DUP3 DUP5 MLOAD PUSH1 0x20 DUP7 ADD PUSH0 CREATE2 SWAP1 POP PUSH32 0x8FFCDC15A283D706D38281F500270D8B5A656918F555DE0913D7455E3E6BC1BF DUP2 PUSH1 0x40 MLOAD PUSH2 0x99 SWAP2 SWAP1 PUSH2 0x2C4 JUMP JUMPDEST PUSH1 0x40 MLOAD DUP1 SWAP2 SUB SWAP1 LOG1 DUP1 SWAP2 POP POP SWAP3 SWAP2 POP POP JUMP JUMPDEST PUSH0 PUSH1 0x40 MLOAD SWAP1 POP SWAP1 JUMP JUMPDEST PUSH0 DUP1 REVERT JUMPDEST PUSH0 DUP1 REVERT JUMPDEST PUSH0 DUP1 REVERT JUMPDEST PUSH0 DUP1 REVERT JUMPDEST PUSH0 PUSH1 0x1F NOT PUSH1 0x1F DUP4 ADD AND SWAP1 POP SWAP2 SWAP1 POP JUMP JUMPDEST PUSH32 0x4E487B7100000000000000000000000000000000000000000000000000000000 PUSH0 MSTORE PUSH1 0x41 PUSH1 0x4 MSTORE PUSH1 0x24 PUSH0 REVERT JUMPDEST PUSH2 0x10A DUP3 PUSH2 0xC4 JUMP JUMPDEST DUP2 ADD DUP2 DUP2 LT PUSH8 0xFFFFFFFFFFFFFFFF DUP3 GT OR ISZERO PUSH2 0x129 JUMPI PUSH2 0x128 PUSH2 0xD4 JUMP JUMPDEST JUMPDEST DUP1 PUSH1 0x40 MSTORE POP POP POP JUMP JUMPDEST PUSH0 PUSH2 0x13B PUSH2 0xAB JUMP JUMPDEST SWAP1 POP PUSH2 0x147 DUP3 DUP3 PUSH2 0x101 JUMP JUMPDEST SWAP2 SWAP1 POP JUMP JUMPDEST PUSH0 PUSH8 0xFFFFFFFFFFFFFFFF DUP3 GT ISZERO PUSH2 0x166 JUMPI PUSH2 0x165 PUSH2 0xD4 JUMP JUMPDEST JUMPDEST PUSH2 0x16F DUP3 PUSH2 0xC4 JUMP JUMPDEST SWAP1 POP PUSH1 0x20 DUP2 ADD SWAP1 POP SWAP2 SWAP1 POP JUMP JUMPDEST DUP3 DUP2 DUP4 CALLDATACOPY PUSH0 DUP4 DUP4 ADD MSTORE POP POP POP JUMP JUMPDEST PUSH0 PUSH2 0x19C PUSH2 0x197 DUP5 PUSH2 0x14C JUMP JUMPDEST PUSH2 0x132 JUMP JUMPDEST SWAP1 POP DUP3 DUP2 MSTORE PUSH1 0x20 DUP2 ADD DUP5 DUP5 DUP5 ADD GT ISZERO PUSH2 0x1B8 JUMPI PUSH2 0x1B7 PUSH2 0xC0 JUMP JUMPDEST JUMPDEST PUSH2 0x1C3 DUP5 DUP3 DUP6 PUSH2 0x17C JUMP JUMPDEST POP SWAP4 SWAP3 POP POP POP JUMP JUMPDEST PUSH0 DUP3 PUSH1 0x1F DUP4 ADD SLT PUSH2 0x1DF JUMPI PUSH2 0x1DE PUSH2 0xBC JUMP JUMPDEST JUMPDEST DUP2 CALLDATALOAD PUSH2 0x1EF DUP5 DUP3 PUSH1 0x20 DUP7 ADD PUSH2 0x18A JUMP JUMPDEST SWAP2 POP POP SWAP3 SWAP2 POP POP JUMP JUMPDEST PUSH0 DUP2 SWAP1 POP SWAP2 SWAP1 POP JUMP JUMPDEST PUSH2 0x20A DUP2 PUSH2 0x1F8 JUMP JUMPDEST DUP2 EQ PUSH2 0x214 JUMPI PUSH0 DUP1 REVERT JUMPDEST POP JUMP JUMPDEST PUSH0 DUP2 CALLDATALOAD SWAP1 POP PUSH2 0x225 DUP2 PUSH2 0x201 JUMP JUMPDEST SWAP3 SWAP2 POP POP JUMP JUMPDEST PUSH0 DUP1 PUSH1 0x40 DUP4 DUP6 SUB SLT ISZERO PUSH2 0x241 JUMPI PUSH2 0x240 PUSH2 0xB4 JUMP JUMPDEST JUMPDEST PUSH0 DUP4 ADD CALLDATALOAD PUSH8 0xFFFFFFFFFFFFFFFF DUP2 GT ISZERO PUSH2 0x25E JUMPI PUSH2 0x25D PUSH2 0xB8 JUMP JUMPDEST JUMPDEST PUSH2 0x26A DUP6 DUP3 DUP7 ADD PUSH2 0x1CB JUMP JUMPDEST SWAP3 POP POP PUSH1 0x20 PUSH2 0x27B DUP6 DUP3 DUP7 ADD PUSH2 0x217 JUMP JUMPDEST SWAP2 POP POP SWAP3 POP SWAP3 SWAP1 POP JUMP JUMPDEST PUSH0 PUSH20 0xFFFFFFFFFFFFFFFFFFFFFFFFFFFFFFFFFFFFFFFF DUP3 AND SWAP1 POP SWAP2 SWAP1 POP JUMP JUMPDEST PUSH0 PUSH2 0x2AE DUP3 PUSH2 0x285 JUMP JUMPDEST SWAP1 POP SWAP2 SWAP1 POP JUMP JUMPDEST PUSH2 0x2BE DUP2 PUSH2 0x2A4 JUMP JUMPDEST DUP3 MSTORE POP POP JUMP JUMPDEST PUSH0 PUSH1 0x20 DUP3 ADD SWAP1 POP PUSH2 0x2D7 PUSH0 DUP4 ADD DUP5 PUSH2 0x2B5 JUMP JUMPDEST SWAP3 SWAP2 POP POP JUMP INVALID LOG2 PUSH5 0x6970667358 0x22 SLT KECCAK256 JUMPDEST DUP5 0xD3 LOG4 SMOD SMOD JUMPI PUSH8 0xBFF0C820E4F65226 COINBASE 0x4F 0xD1 0xCB SWAP8 JUMPDEST DUP13 0xB1 GAS DUP3 GAS DUP2 0xD4 0xCF COINBASE EQ PUSH5 0x736F6C6343 STOP ADDMOD BYTE STOP CALLER "
				},
				"gasEstimates": {
					"creation": {
						"codeDepositCost": "157400",
						"executionCost": "200",
						"totalCost": "157600"
					},
					"external": {
						"deploy(bytes,uint256)": "infinite"
					}
				},
				"methodIdentifiers": {
					"deploy(bytes,uint256)": "9c4ae2d0"
				}
			},
			"storageLayout": {
				"storage": [],
				"types": null
			},
			"userdoc": {
				"kind": "user",
				"methods": {},
				"version": 1
			}
		}
	}
}