{
	"contracts/Constant.sol": {
		"Constant": {
			"abi": [
				{
					"inputs": [],
					"stateMutability": "nonpayable",
					"type": "constructor"
				},
				{
					"inputs": [],
					"name": "CONSTANT_ADDRESS",
					"outputs": [
						{
							"internalType": "address",
							"name": "",
							"type": "address"
						}
					],
					"stateMutability": "view",
					"type": "function"
				},
				{
					"inputs": [],
					"name": "CONSTANT_BYTES",
					"outputs": [
						{
							"internalType": "bytes",
							"name": "",
							"type": "bytes"
						}
					],
					"stateMutability": "view",
					"type": "function"
				},
				{
					"inputs": [],
					"name": "CONSTANT_NUM",
					"outputs": [
						{
							"internalType": "uint256",
							"name": "",
							"type": "uint256"
						}
					],
					"stateMutability": "view",
					"type": "function"
				},
				{
					"inputs": [],
					"name": "CONSTANT_STRING",
					"outputs": [
						{
							"internalType": "string",
							"name": "",
							"type": "string"
						}
					],
					"stateMutability": "view",
					"type": "function"
				},
				{
					"inputs": [],
					"name": "IMMUTABLE_ADDRESS",
					"outputs": [
						{
							"internalType": "address",
							"name": "",
							"type": "address"
						}
					],
					"stateMutability": "view",
					"type": "function"
				},
				{
					"inputs": [],
					"name": "IMMUTABLE_BLOCK",
					"outputs": [
						{
							"internalType": "uint256",
							"name": "",
							"type": "uint256"
						}
					],
					"stateMutability": "view",
					"type": "function"
				},
				{
					"inputs": [],
					"name": "IMMUTABLE_NUM",
					"outputs": [
						{
							"internalType": "uint256",
							"name": "",
							"type": "uint256"
						}
					],
					"stateMutability": "view",
					"type": "function"
				},
				{
					"inputs": [],
					"name": "IMMUTABLE_TEST",
					"outputs": [
						{
							"internalType": "uint256",
							"name": "",
							"type": "uint256"
						}
					],
					"stateMutability": "view",
					"type": "function"
				},
				{
					"inputs": [
						{
							"internalType": "uint256[]",
							"name": "a",
							"type": "uint256[]"
						}
					],
					"name": "insertionSort",
					"outputs": [
						{
							"internalType": "uint256[]",
							"name": "",
							"type": "uint256[]"
						}
					],
					"stateMutability": "pure",
					"type": "function"
				},
				{
					"inputs": [],
					"name": "test",
					"outputs": [
						{
							"internalType": "uint256",
							"name": "",
							"type": "uint256"
						}
					],
					"stateMutability": "pure",
					"type": "function"
				}
			],
			"devdoc": {
				"kind": "dev",
				"methods": {},
				"version": 1
			},
			"evm": {
				"assembly": "    /* \"contracts/Constant.sol\":59:1373  contract Constant {... */\n  mstore(0x40, 0x0100)\n    /* \"contracts/Constant.sol\":526:536  9999999999 */\n  0x02540be3ff\n    /* \"contracts/Constant.sol\":485:536  uint256 public immutable IMMUTABLE_NUM = 9999999999 */\n  0x80\n  swap1\n  dup2\n  mstore\n  pop\n    /* \"contracts/Constant.sol\":758:888  constructor(){... */\n  callvalue\n  dup1\n  iszero\n  tag_1\n  jumpi\n  0x00\n  dup1\n  revert\ntag_1:\n  pop\n    /* \"contracts/Constant.sol\":810:814  this */\n  address\n    /* \"contracts/Constant.sol\":782:815  IMMUTABLE_ADDRESS = address(this) */\n  0xffffffffffffffffffffffffffffffffffffffff\n  and\n  0xa0\n  dup2\n  0xffffffffffffffffffffffffffffffffffffffff\n  and\n  dup2\n  mstore\n  pop\n  pop\n    /* \"contracts/Constant.sol\":842:846  1118 */\n  0x045e\n    /* \"contracts/Constant.sol\":826:846  IMMUTABLE_NUM = 1118 */\n  0x80\n  dup2\n  dup2\n  mstore\n  pop\n  pop\n    /* \"contracts/Constant.sol\":874:880  test() */\n  tag_4\n    /* \"contracts/Constant.sol\":874:878  test */\n  shl(0x20, tag_5)\n    /* \"contracts/Constant.sol\":874:880  test() */\n  0x20\n  shr\n  jump\t// in\ntag_4:\n    /* \"contracts/Constant.sol\":857:880  IMMUTABLE_TEST = test() */\n  0xe0\n  dup2\n  dup2\n  mstore\n  pop\n  pop\n    /* \"contracts/Constant.sol\":59:1373  contract Constant {... */\n  jump(tag_6)\n    /* \"contracts/Constant.sol\":896:998  function test() public pure returns(uint256){... */\ntag_5:\n    /* \"contracts/Constant.sol\":932:939  uint256 */\n  0x00\n    /* \"contracts/Constant.sol\":951:963  uint256 what */\n  dup1\n    /* \"contracts/Constant.sol\":966:967  9 */\n  0x09\n    /* \"contracts/Constant.sol\":951:967  uint256 what = 9 */\n  swap1\n  pop\n    /* \"contracts/Constant.sol\":985:989  what */\n  dup1\n    /* \"contracts/Constant.sol\":978:990  return(what) */\n  swap2\n  pop\n  pop\n    /* \"contracts/Constant.sol\":896:998  function test() public pure returns(uint256){... */\n  swap1\n  jump\t// out\n    /* \"contracts/Constant.sol\":59:1373  contract Constant {... */\ntag_6:\n  mload(0x80)\n  mload(0xa0)\n  mload(0xc0)\n  mload(0xe0)\n  codecopy(0x00, dataOffset(sub_0), dataSize(sub_0))\n  0x00\n  assignImmutable(\"0xd4d1a59767271eefdc7830a772b9732a11d503531d972ab8c981a6b1c0e666e5\")\n  0x00\n  assignImmutable(\"0x731dc163f73d31d8c68f9917ce4ff967753939f70432973c04fd2c2a48148607\")\n  0x00\n  assignImmutable(\"0x8fef2229291b68be841adf029e58b87f39ba144b2d3b0af1760243d0a9bc6a1c\")\n  0x00\n  assignImmutable(\"0x277ab82e5a4641341820a4a2933a62c1de997e42e92548657ae21b3728d580fe\")\n  return(0x00, dataSize(sub_0))\nstop\n\nsub_0: assembly {\n        /* \"contracts/Constant.sol\":59:1373  contract Constant {... */\n      mstore(0x40, 0x80)\n      callvalue\n      dup1\n      iszero\n      tag_1\n      jumpi\n      0x00\n      dup1\n      revert\n    tag_1:\n      pop\n      jumpi(tag_2, lt(calldatasize, 0x04))\n      shr(0xe0, calldataload(0x00))\n      dup1\n      0x79135c7d\n      gt\n      tag_13\n      jumpi\n      dup1\n      0x79135c7d\n      eq\n      tag_8\n      jumpi\n      dup1\n      0x858e0403\n      eq\n      tag_9\n      jumpi\n      dup1\n      0xed7ff875\n      eq\n      tag_10\n      jumpi\n      dup1\n      0xf1513021\n      eq\n      tag_11\n      jumpi\n      dup1\n      0xf8a8fd6d\n      eq\n      tag_12\n      jumpi\n      jump(tag_2)\n    tag_13:\n      dup1\n      0x1adead50\n      eq\n      tag_3\n      jumpi\n      dup1\n      0x1d9afdd2\n      eq\n      tag_4\n      jumpi\n      dup1\n      0x2314d48c\n      eq\n      tag_5\n      jumpi\n      dup1\n      0x4064572e\n      eq\n      tag_6\n      jumpi\n      dup1\n      0x6297206f\n      eq\n      tag_7\n      jumpi\n    tag_2:\n      0x00\n      dup1\n      revert\n        /* \"contracts/Constant.sol\":209:256  string public constant CONSTANT_STRING = \"0xAA\" */\n    tag_3:\n      tag_14\n      tag_15\n      jump\t// in\n    tag_14:\n      mload(0x40)\n      tag_16\n      swap2\n      swap1\n      tag_17\n      jump\t// in\n    tag_16:\n      mload(0x40)\n      dup1\n      swap2\n      sub\n      swap1\n      return\n        /* \"contracts/Constant.sol\":592:632  uint256 public immutable IMMUTABLE_BLOCK */\n    tag_4:\n      tag_18\n      tag_19\n      jump\t// in\n    tag_18:\n      mload(0x40)\n      tag_20\n      swap2\n      swap1\n      tag_21\n      jump\t// in\n    tag_20:\n      mload(0x40)\n      dup1\n      swap2\n      sub\n      swap1\n      return\n        /* \"contracts/Constant.sol\":161:202  uint256 public constant CONSTANT_NUM = 10 */\n    tag_5:\n      tag_22\n      tag_23\n      jump\t// in\n    tag_22:\n      mload(0x40)\n      tag_24\n      swap2\n      swap1\n      tag_21\n      jump\t// in\n    tag_24:\n      mload(0x40)\n      dup1\n      swap2\n      sub\n      swap1\n      return\n        /* \"contracts/Constant.sol\":639:678  uint256 public immutable IMMUTABLE_TEST */\n    tag_6:\n      tag_25\n      tag_26\n      jump\t// in\n    tag_25:\n      mload(0x40)\n      tag_27\n      swap2\n      swap1\n      tag_21\n      jump\t// in\n    tag_27:\n      mload(0x40)\n      dup1\n      swap2\n      sub\n      swap1\n      return\n        /* \"contracts/Constant.sol\":1006:1370  function insertionSort(uint[] memory a) public pure returns(uint[] memory) {... */\n    tag_7:\n      tag_28\n      0x04\n      dup1\n      calldatasize\n      sub\n      dup2\n      add\n      swap1\n      tag_29\n      swap2\n      swap1\n      tag_30\n      jump\t// in\n    tag_29:\n      tag_31\n      jump\t// in\n    tag_28:\n      mload(0x40)\n      tag_32\n      swap2\n      swap1\n      tag_33\n      jump\t// in\n    tag_32:\n      mload(0x40)\n      dup1\n      swap2\n      sub\n      swap1\n      return\n        /* \"contracts/Constant.sol\":263:307  bytes public constant CONSTANT_BYTES = \"WTF\" */\n    tag_8:\n      tag_34\n      tag_35\n      jump\t// in\n    tag_34:\n      mload(0x40)\n      tag_36\n      swap2\n      swap1\n      tag_37\n      jump\t// in\n    tag_36:\n      mload(0x40)\n      dup1\n      swap2\n      sub\n      swap1\n      return\n        /* \"contracts/Constant.sol\":314:399  address public constant CONSTANT_ADDRESS = 0x0000000000000000000000000000000000000000 */\n    tag_9:\n      tag_38\n      tag_39\n      jump\t// in\n    tag_38:\n      mload(0x40)\n      tag_40\n      swap2\n      swap1\n      tag_41\n      jump\t// in\n    tag_40:\n      mload(0x40)\n      dup1\n      swap2\n      sub\n      swap1\n      return\n        /* \"contracts/Constant.sol\":485:536  uint256 public immutable IMMUTABLE_NUM = 9999999999 */\n    tag_10:\n      tag_42\n      tag_43\n      jump\t// in\n    tag_42:\n      mload(0x40)\n      tag_44\n      swap2\n      swap1\n      tag_21\n      jump\t// in\n    tag_44:\n      mload(0x40)\n      dup1\n      swap2\n      sub\n      swap1\n      return\n        /* \"contracts/Constant.sol\":543:585  address public immutable IMMUTABLE_ADDRESS */\n    tag_11:\n      tag_45\n      tag_46\n      jump\t// in\n    tag_45:\n      mload(0x40)\n      tag_47\n      swap2\n      swap1\n      tag_41\n      jump\t// in\n    tag_47:\n      mload(0x40)\n      dup1\n      swap2\n      sub\n      swap1\n      return\n        /* \"contracts/Constant.sol\":896:998  function test() public pure returns(uint256){... */\n    tag_12:\n      tag_48\n      tag_49\n      jump\t// in\n    tag_48:\n      mload(0x40)\n      tag_50\n      swap2\n      swap1\n      tag_21\n      jump\t// in\n    tag_50:\n      mload(0x40)\n      dup1\n      swap2\n      sub\n      swap1\n      return\n        /* \"contracts/Constant.sol\":209:256  string public constant CONSTANT_STRING = \"0xAA\" */\n    tag_15:\n      mload(0x40)\n      dup1\n      0x40\n      add\n      0x40\n      mstore\n      dup1\n      0x04\n      dup2\n      mstore\n      0x20\n      add\n      0x3078414100000000000000000000000000000000000000000000000000000000\n      dup2\n      mstore\n      pop\n      dup2\n      jump\t// out\n        /* \"contracts/Constant.sol\":592:632  uint256 public immutable IMMUTABLE_BLOCK */\n    tag_19:\n      immutable(\"0x731dc163f73d31d8c68f9917ce4ff967753939f70432973c04fd2c2a48148607\")\n      dup2\n      jump\t// out\n        /* \"contracts/Constant.sol\":161:202  uint256 public constant CONSTANT_NUM = 10 */\n    tag_23:\n        /* \"contracts/Constant.sol\":200:202  10 */\n      0x0a\n        /* \"contracts/Constant.sol\":161:202  uint256 public constant CONSTANT_NUM = 10 */\n      dup2\n      jump\t// out\n        /* \"contracts/Constant.sol\":639:678  uint256 public immutable IMMUTABLE_TEST */\n    tag_26:\n      immutable(\"0xd4d1a59767271eefdc7830a772b9732a11d503531d972ab8c981a6b1c0e666e5\")\n      dup2\n      jump\t// out\n        /* \"contracts/Constant.sol\":1006:1370  function insertionSort(uint[] memory a) public pure returns(uint[] memory) {... */\n    tag_31:\n        /* \"contracts/Constant.sol\":1066:1079  uint[] memory */\n      0x60\n        /* \"contracts/Constant.sol\":1144:1150  uint i */\n      0x00\n        /* \"contracts/Constant.sol\":1153:1154  1 */\n      0x01\n        /* \"contracts/Constant.sol\":1144:1154  uint i = 1 */\n      swap1\n      pop\n        /* \"contracts/Constant.sol\":1139:1351  for (uint i = 1;i < a.length;i++){... */\n    tag_52:\n        /* \"contracts/Constant.sol\":1159:1160  a */\n      dup3\n        /* \"contracts/Constant.sol\":1159:1167  a.length */\n      mload\n        /* \"contracts/Constant.sol\":1155:1156  i */\n      dup2\n        /* \"contracts/Constant.sol\":1155:1167  i < a.length */\n      lt\n        /* \"contracts/Constant.sol\":1139:1351  for (uint i = 1;i < a.length;i++){... */\n      iszero\n      tag_53\n      jumpi\n        /* \"contracts/Constant.sol\":1183:1192  uint temp */\n      0x00\n        /* \"contracts/Constant.sol\":1195:1196  a */\n      dup4\n        /* \"contracts/Constant.sol\":1197:1198  i */\n      dup3\n        /* \"contracts/Constant.sol\":1195:1199  a[i] */\n      dup2\n      mload\n      dup2\n      lt\n      tag_55\n      jumpi\n      tag_56\n      tag_57\n      jump\t// in\n    tag_56:\n    tag_55:\n      0x20\n      mul\n      0x20\n      add\n      add\n      mload\n        /* \"contracts/Constant.sol\":1183:1199  uint temp = a[i] */\n      swap1\n      pop\n        /* \"contracts/Constant.sol\":1210:1216  uint j */\n      0x00\n        /* \"contracts/Constant.sol\":1217:1218  i */\n      dup3\n        /* \"contracts/Constant.sol\":1210:1218  uint j=i */\n      swap1\n      pop\n        /* \"contracts/Constant.sol\":1229:1322  while( (j >= 1) && (temp < a[j-1])){... */\n    tag_58:\n        /* \"contracts/Constant.sol\":1242:1243  1 */\n      0x01\n        /* \"contracts/Constant.sol\":1237:1238  j */\n      dup2\n        /* \"contracts/Constant.sol\":1237:1243  j >= 1 */\n      lt\n      iszero\n        /* \"contracts/Constant.sol\":1236:1263  (j >= 1) && (temp < a[j-1]) */\n      dup1\n      iszero\n      tag_60\n      jumpi\n      pop\n        /* \"contracts/Constant.sol\":1256:1257  a */\n      dup5\n        /* \"contracts/Constant.sol\":1260:1261  1 */\n      0x01\n        /* \"contracts/Constant.sol\":1258:1259  j */\n      dup3\n        /* \"contracts/Constant.sol\":1258:1261  j-1 */\n      tag_61\n      swap2\n      swap1\n      tag_62\n      jump\t// in\n    tag_61:\n        /* \"contracts/Constant.sol\":1256:1262  a[j-1] */\n      dup2\n      mload\n      dup2\n      lt\n      tag_63\n      jumpi\n      tag_64\n      tag_57\n      jump\t// in\n    tag_64:\n    tag_63:\n      0x20\n      mul\n      0x20\n      add\n      add\n      mload\n        /* \"contracts/Constant.sol\":1249:1253  temp */\n      dup3\n        /* \"contracts/Constant.sol\":1249:1262  temp < a[j-1] */\n      lt\n        /* \"contracts/Constant.sol\":1236:1263  (j >= 1) && (temp < a[j-1]) */\n    tag_60:\n        /* \"contracts/Constant.sol\":1229:1322  while( (j >= 1) && (temp < a[j-1])){... */\n      iszero\n      tag_59\n      jumpi\n        /* \"contracts/Constant.sol\":1286:1287  a */\n      dup5\n        /* \"contracts/Constant.sol\":1290:1291  1 */\n      0x01\n        /* \"contracts/Constant.sol\":1288:1289  j */\n      dup3\n        /* \"contracts/Constant.sol\":1288:1291  j-1 */\n      tag_65\n      swap2\n      swap1\n      tag_62\n      jump\t// in\n    tag_65:\n        /* \"contracts/Constant.sol\":1286:1292  a[j-1] */\n      dup2\n      mload\n      dup2\n      lt\n      tag_66\n      jumpi\n      tag_67\n      tag_57\n      jump\t// in\n    tag_67:\n    tag_66:\n      0x20\n      mul\n      0x20\n      add\n      add\n      mload\n        /* \"contracts/Constant.sol\":1279:1280  a */\n      dup6\n        /* \"contracts/Constant.sol\":1281:1282  j */\n      dup3\n        /* \"contracts/Constant.sol\":1279:1283  a[j] */\n      dup2\n      mload\n      dup2\n      lt\n      tag_68\n      jumpi\n      tag_69\n      tag_57\n      jump\t// in\n    tag_69:\n    tag_68:\n      0x20\n      mul\n      0x20\n      add\n      add\n        /* \"contracts/Constant.sol\":1279:1292  a[j] = a[j-1] */\n      dup2\n      dup2\n      mstore\n      pop\n      pop\n        /* \"contracts/Constant.sol\":1307:1310  j-- */\n      dup1\n      dup1\n      tag_70\n      swap1\n      tag_71\n      jump\t// in\n    tag_70:\n      swap2\n      pop\n      pop\n        /* \"contracts/Constant.sol\":1229:1322  while( (j >= 1) && (temp < a[j-1])){... */\n      jump(tag_58)\n    tag_59:\n        /* \"contracts/Constant.sol\":1339:1343  temp */\n      dup2\n        /* \"contracts/Constant.sol\":1332:1333  a */\n      dup6\n        /* \"contracts/Constant.sol\":1334:1335  j */\n      dup3\n        /* \"contracts/Constant.sol\":1332:1336  a[j] */\n      dup2\n      mload\n      dup2\n      lt\n      tag_72\n      jumpi\n      tag_73\n      tag_57\n      jump\t// in\n    tag_73:\n    tag_72:\n      0x20\n      mul\n      0x20\n      add\n      add\n        /* \"contracts/Constant.sol\":1332:1343  a[j] = temp */\n      dup2\n      dup2\n      mstore\n      pop\n      pop\n        /* \"contracts/Constant.sol\":1172:1351  {... */\n      pop\n      pop\n        /* \"contracts/Constant.sol\":1168:1171  i++ */\n      dup1\n      dup1\n      0x01\n      add\n      swap2\n      pop\n      pop\n        /* \"contracts/Constant.sol\":1139:1351  for (uint i = 1;i < a.length;i++){... */\n      jump(tag_52)\n    tag_53:\n      pop\n        /* \"contracts/Constant.sol\":1364:1365  a */\n      dup2\n        /* \"contracts/Constant.sol\":1357:1366  return(a) */\n      swap1\n      pop\n        /* \"contracts/Constant.sol\":1006:1370  function insertionSort(uint[] memory a) public pure returns(uint[] memory) {... */\n      swap2\n      swap1\n      pop\n      jump\t// out\n        /* \"contracts/Constant.sol\":263:307  bytes public constant CONSTANT_BYTES = \"WTF\" */\n    tag_35:\n      mload(0x40)\n      dup1\n      0x40\n      add\n      0x40\n      mstore\n      dup1\n      0x03\n      dup2\n      mstore\n      0x20\n      add\n      0x5754460000000000000000000000000000000000000000000000000000000000\n      dup2\n      mstore\n      pop\n      dup2\n      jump\t// out\n        /* \"contracts/Constant.sol\":314:399  address public constant CONSTANT_ADDRESS = 0x0000000000000000000000000000000000000000 */\n    tag_39:\n        /* \"contracts/Constant.sol\":357:399  0x0000000000000000000000000000000000000000 */\n      0x00\n        /* \"contracts/Constant.sol\":314:399  address public constant CONSTANT_ADDRESS = 0x0000000000000000000000000000000000000000 */\n      dup2\n      jump\t// out\n        /* \"contracts/Constant.sol\":485:536  uint256 public immutable IMMUTABLE_NUM = 9999999999 */\n    tag_43:\n      immutable(\"0x277ab82e5a4641341820a4a2933a62c1de997e42e92548657ae21b3728d580fe\")\n      dup2\n      jump\t// out\n        /* \"contracts/Constant.sol\":543:585  address public immutable IMMUTABLE_ADDRESS */\n    tag_46:\n      immutable(\"0x8fef2229291b68be841adf029e58b87f39ba144b2d3b0af1760243d0a9bc6a1c\")\n      dup2\n      jump\t// out\n        /* \"contracts/Constant.sol\":896:998  function test() public pure returns(uint256){... */\n    tag_49:\n        /* \"contracts/Constant.sol\":932:939  uint256 */\n      0x00\n        /* \"contracts/Constant.sol\":951:963  uint256 what */\n      dup1\n        /* \"contracts/Constant.sol\":966:967  9 */\n      0x09\n        /* \"contracts/Constant.sol\":951:967  uint256 what = 9 */\n      swap1\n      pop\n        /* \"contracts/Constant.sol\":985:989  what */\n      dup1\n        /* \"contracts/Constant.sol\":978:990  return(what) */\n      swap2\n      pop\n      pop\n        /* \"contracts/Constant.sol\":896:998  function test() public pure returns(uint256){... */\n      swap1\n      jump\t// out\n        /* \"#utility.yul\":7:106   */\n    tag_75:\n        /* \"#utility.yul\":59:65   */\n      0x00\n        /* \"#utility.yul\":93:98   */\n      dup2\n        /* \"#utility.yul\":87:99   */\n      mload\n        /* \"#utility.yul\":77:99   */\n      swap1\n      pop\n        /* \"#utility.yul\":7:106   */\n      swap2\n      swap1\n      pop\n      jump\t// out\n        /* \"#utility.yul\":112:281   */\n    tag_76:\n        /* \"#utility.yul\":196:207   */\n      0x00\n        /* \"#utility.yul\":230:236   */\n      dup3\n        /* \"#utility.yul\":225:228   */\n      dup3\n        /* \"#utility.yul\":218:237   */\n      mstore\n        /* \"#utility.yul\":270:274   */\n      0x20\n        /* \"#utility.yul\":265:268   */\n      dup3\n        /* \"#utility.yul\":261:275   */\n      add\n        /* \"#utility.yul\":246:275   */\n      swap1\n      pop\n        /* \"#utility.yul\":112:281   */\n      swap3\n      swap2\n      pop\n      pop\n      jump\t// out\n        /* \"#utility.yul\":287:426   */\n    tag_77:\n        /* \"#utility.yul\":376:382   */\n      dup3\n        /* \"#utility.yul\":371:374   */\n      dup2\n        /* \"#utility.yul\":366:369   */\n      dup4\n        /* \"#utility.yul\":360:383   */\n      mcopy\n        /* \"#utility.yul\":417:418   */\n      0x00\n        /* \"#utility.yul\":408:414   */\n      dup4\n        /* \"#utility.yul\":403:406   */\n      dup4\n        /* \"#utility.yul\":399:415   */\n      add\n        /* \"#utility.yul\":392:419   */\n      mstore\n        /* \"#utility.yul\":287:426   */\n      pop\n      pop\n      pop\n      jump\t// out\n        /* \"#utility.yul\":432:534   */\n    tag_78:\n        /* \"#utility.yul\":473:479   */\n      0x00\n        /* \"#utility.yul\":524:526   */\n      0x1f\n        /* \"#utility.yul\":520:527   */\n      not\n        /* \"#utility.yul\":515:517   */\n      0x1f\n        /* \"#utility.yul\":508:513   */\n      dup4\n        /* \"#utility.yul\":504:518   */\n      add\n        /* \"#utility.yul\":500:528   */\n      and\n        /* \"#utility.yul\":490:528   */\n      swap1\n      pop\n        /* \"#utility.yul\":432:534   */\n      swap2\n      swap1\n      pop\n      jump\t// out\n        /* \"#utility.yul\":540:917   */\n    tag_79:\n        /* \"#utility.yul\":628:631   */\n      0x00\n        /* \"#utility.yul\":656:695   */\n      tag_115\n        /* \"#utility.yul\":689:694   */\n      dup3\n        /* \"#utility.yul\":656:695   */\n      tag_75\n      jump\t// in\n    tag_115:\n        /* \"#utility.yul\":711:782   */\n      tag_116\n        /* \"#utility.yul\":775:781   */\n      dup2\n        /* \"#utility.yul\":770:773   */\n      dup6\n        /* \"#utility.yul\":711:782   */\n      tag_76\n      jump\t// in\n    tag_116:\n        /* \"#utility.yul\":704:782   */\n      swap4\n      pop\n        /* \"#utility.yul\":791:856   */\n      tag_117\n        /* \"#utility.yul\":849:855   */\n      dup2\n        /* \"#utility.yul\":844:847   */\n      dup6\n        /* \"#utility.yul\":837:841   */\n      0x20\n        /* \"#utility.yul\":830:835   */\n      dup7\n        /* \"#utility.yul\":826:842   */\n      add\n        /* \"#utility.yul\":791:856   */\n      tag_77\n      jump\t// in\n    tag_117:\n        /* \"#utility.yul\":881:910   */\n      tag_118\n        /* \"#utility.yul\":903:909   */\n      dup2\n        /* \"#utility.yul\":881:910   */\n      tag_78\n      jump\t// in\n    tag_118:\n        /* \"#utility.yul\":876:879   */\n      dup5\n        /* \"#utility.yul\":872:911   */\n      add\n        /* \"#utility.yul\":865:911   */\n      swap2\n      pop\n        /* \"#utility.yul\":632:917   */\n      pop\n        /* \"#utility.yul\":540:917   */\n      swap3\n      swap2\n      pop\n      pop\n      jump\t// out\n        /* \"#utility.yul\":923:1236   */\n    tag_17:\n        /* \"#utility.yul\":1036:1040   */\n      0x00\n        /* \"#utility.yul\":1074:1076   */\n      0x20\n        /* \"#utility.yul\":1063:1072   */\n      dup3\n        /* \"#utility.yul\":1059:1077   */\n      add\n        /* \"#utility.yul\":1051:1077   */\n      swap1\n      pop\n        /* \"#utility.yul\":1123:1132   */\n      dup2\n        /* \"#utility.yul\":1117:1121   */\n      dup2\n        /* \"#utility.yul\":1113:1133   */\n      sub\n        /* \"#utility.yul\":1109:1110   */\n      0x00\n        /* \"#utility.yul\":1098:1107   */\n      dup4\n        /* \"#utility.yul\":1094:1111   */\n      add\n        /* \"#utility.yul\":1087:1134   */\n      mstore\n        /* \"#utility.yul\":1151:1229   */\n      tag_120\n        /* \"#utility.yul\":1224:1228   */\n      dup2\n        /* \"#utility.yul\":1215:1221   */\n      dup5\n        /* \"#utility.yul\":1151:1229   */\n      tag_79\n      jump\t// in\n    tag_120:\n        /* \"#utility.yul\":1143:1229   */\n      swap1\n      pop\n        /* \"#utility.yul\":923:1236   */\n      swap3\n      swap2\n      pop\n      pop\n      jump\t// out\n        /* \"#utility.yul\":1242:1319   */\n    tag_80:\n        /* \"#utility.yul\":1279:1286   */\n      0x00\n        /* \"#utility.yul\":1308:1313   */\n      dup2\n        /* \"#utility.yul\":1297:1313   */\n      swap1\n      pop\n        /* \"#utility.yul\":1242:1319   */\n      swap2\n      swap1\n      pop\n      jump\t// out\n        /* \"#utility.yul\":1325:1443   */\n    tag_81:\n        /* \"#utility.yul\":1412:1436   */\n      tag_123\n        /* \"#utility.yul\":1430:1435   */\n      dup2\n        /* \"#utility.yul\":1412:1436   */\n      tag_80\n      jump\t// in\n    tag_123:\n        /* \"#utility.yul\":1407:1410   */\n      dup3\n        /* \"#utility.yul\":1400:1437   */\n      mstore\n        /* \"#utility.yul\":1325:1443   */\n      pop\n      pop\n      jump\t// out\n        /* \"#utility.yul\":1449:1671   */\n    tag_21:\n        /* \"#utility.yul\":1542:1546   */\n      0x00\n        /* \"#utility.yul\":1580:1582   */\n      0x20\n        /* \"#utility.yul\":1569:1578   */\n      dup3\n        /* \"#utility.yul\":1565:1583   */\n      add\n        /* \"#utility.yul\":1557:1583   */\n      swap1\n      pop\n        /* \"#utility.yul\":1593:1664   */\n      tag_125\n        /* \"#utility.yul\":1661:1662   */\n      0x00\n        /* \"#utility.yul\":1650:1659   */\n      dup4\n        /* \"#utility.yul\":1646:1663   */\n      add\n        /* \"#utility.yul\":1637:1643   */\n      dup5\n        /* \"#utility.yul\":1593:1664   */\n      tag_81\n      jump\t// in\n    tag_125:\n        /* \"#utility.yul\":1449:1671   */\n      swap3\n      swap2\n      pop\n      pop\n      jump\t// out\n        /* \"#utility.yul\":1677:1752   */\n    tag_82:\n        /* \"#utility.yul\":1710:1716   */\n      0x00\n        /* \"#utility.yul\":1743:1745   */\n      0x40\n        /* \"#utility.yul\":1737:1746   */\n      mload\n        /* \"#utility.yul\":1727:1746   */\n      swap1\n      pop\n        /* \"#utility.yul\":1677:1752   */\n      swap1\n      jump\t// out\n        /* \"#utility.yul\":1758:1875   */\n    tag_83:\n        /* \"#utility.yul\":1867:1868   */\n      0x00\n        /* \"#utility.yul\":1864:1865   */\n      dup1\n        /* \"#utility.yul\":1857:1869   */\n      revert\n        /* \"#utility.yul\":1881:1998   */\n    tag_84:\n        /* \"#utility.yul\":1990:1991   */\n      0x00\n        /* \"#utility.yul\":1987:1988   */\n      dup1\n        /* \"#utility.yul\":1980:1992   */\n      revert\n        /* \"#utility.yul\":2004:2121   */\n    tag_85:\n        /* \"#utility.yul\":2113:2114   */\n      0x00\n        /* \"#utility.yul\":2110:2111   */\n      dup1\n        /* \"#utility.yul\":2103:2115   */\n      revert\n        /* \"#utility.yul\":2127:2307   */\n    tag_86:\n        /* \"#utility.yul\":2175:2252   */\n      0x4e487b7100000000000000000000000000000000000000000000000000000000\n        /* \"#utility.yul\":2172:2173   */\n      0x00\n        /* \"#utility.yul\":2165:2253   */\n      mstore\n        /* \"#utility.yul\":2272:2276   */\n      0x41\n        /* \"#utility.yul\":2269:2270   */\n      0x04\n        /* \"#utility.yul\":2262:2277   */\n      mstore\n        /* \"#utility.yul\":2296:2300   */\n      0x24\n        /* \"#utility.yul\":2293:2294   */\n      0x00\n        /* \"#utility.yul\":2286:2301   */\n      revert\n        /* \"#utility.yul\":2313:2594   */\n    tag_87:\n        /* \"#utility.yul\":2396:2423   */\n      tag_132\n        /* \"#utility.yul\":2418:2422   */\n      dup3\n        /* \"#utility.yul\":2396:2423   */\n      tag_78\n      jump\t// in\n    tag_132:\n        /* \"#utility.yul\":2388:2394   */\n      dup2\n        /* \"#utility.yul\":2384:2424   */\n      add\n        /* \"#utility.yul\":2526:2532   */\n      dup2\n        /* \"#utility.yul\":2514:2524   */\n      dup2\n        /* \"#utility.yul\":2511:2533   */\n      lt\n        /* \"#utility.yul\":2490:2508   */\n      0xffffffffffffffff\n        /* \"#utility.yul\":2478:2488   */\n      dup3\n        /* \"#utility.yul\":2475:2509   */\n      gt\n        /* \"#utility.yul\":2472:2534   */\n      or\n        /* \"#utility.yul\":2469:2557   */\n      iszero\n      tag_133\n      jumpi\n        /* \"#utility.yul\":2537:2555   */\n      tag_134\n      tag_86\n      jump\t// in\n    tag_134:\n        /* \"#utility.yul\":2469:2557   */\n    tag_133:\n        /* \"#utility.yul\":2577:2587   */\n      dup1\n        /* \"#utility.yul\":2573:2575   */\n      0x40\n        /* \"#utility.yul\":2566:2588   */\n      mstore\n        /* \"#utility.yul\":2356:2594   */\n      pop\n        /* \"#utility.yul\":2313:2594   */\n      pop\n      pop\n      jump\t// out\n        /* \"#utility.yul\":2600:2729   */\n    tag_88:\n        /* \"#utility.yul\":2634:2640   */\n      0x00\n        /* \"#utility.yul\":2661:2681   */\n      tag_136\n      tag_82\n      jump\t// in\n    tag_136:\n        /* \"#utility.yul\":2651:2681   */\n      swap1\n      pop\n        /* \"#utility.yul\":2690:2723   */\n      tag_137\n        /* \"#utility.yul\":2718:2722   */\n      dup3\n        /* \"#utility.yul\":2710:2716   */\n      dup3\n        /* \"#utility.yul\":2690:2723   */\n      tag_87\n      jump\t// in\n    tag_137:\n        /* \"#utility.yul\":2600:2729   */\n      swap2\n      swap1\n      pop\n      jump\t// out\n        /* \"#utility.yul\":2735:3046   */\n    tag_89:\n        /* \"#utility.yul\":2812:2816   */\n      0x00\n        /* \"#utility.yul\":2902:2920   */\n      0xffffffffffffffff\n        /* \"#utility.yul\":2894:2900   */\n      dup3\n        /* \"#utility.yul\":2891:2921   */\n      gt\n        /* \"#utility.yul\":2888:2944   */\n      iszero\n      tag_139\n      jumpi\n        /* \"#utility.yul\":2924:2942   */\n      tag_140\n      tag_86\n      jump\t// in\n    tag_140:\n        /* \"#utility.yul\":2888:2944   */\n    tag_139:\n        /* \"#utility.yul\":2974:2978   */\n      0x20\n        /* \"#utility.yul\":2966:2972   */\n      dup3\n        /* \"#utility.yul\":2962:2979   */\n      mul\n        /* \"#utility.yul\":2954:2979   */\n      swap1\n      pop\n        /* \"#utility.yul\":3034:3038   */\n      0x20\n        /* \"#utility.yul\":3028:3032   */\n      dup2\n        /* \"#utility.yul\":3024:3039   */\n      add\n        /* \"#utility.yul\":3016:3039   */\n      swap1\n      pop\n        /* \"#utility.yul\":2735:3046   */\n      swap2\n      swap1\n      pop\n      jump\t// out\n        /* \"#utility.yul\":3052:3169   */\n    tag_90:\n        /* \"#utility.yul\":3161:3162   */\n      0x00\n        /* \"#utility.yul\":3158:3159   */\n      dup1\n        /* \"#utility.yul\":3151:3163   */\n      revert\n        /* \"#utility.yul\":3175:3297   */\n    tag_91:\n        /* \"#utility.yul\":3248:3272   */\n      tag_143\n        /* \"#utility.yul\":3266:3271   */\n      dup2\n        /* \"#utility.yul\":3248:3272   */\n      tag_80\n      jump\t// in\n    tag_143:\n        /* \"#utility.yul\":3241:3246   */\n      dup2\n        /* \"#utility.yul\":3238:3273   */\n      eq\n        /* \"#utility.yul\":3228:3291   */\n      tag_144\n      jumpi\n        /* \"#utility.yul\":3287:3288   */\n      0x00\n        /* \"#utility.yul\":3284:3285   */\n      dup1\n        /* \"#utility.yul\":3277:3289   */\n      revert\n        /* \"#utility.yul\":3228:3291   */\n    tag_144:\n        /* \"#utility.yul\":3175:3297   */\n      pop\n      jump\t// out\n        /* \"#utility.yul\":3303:3442   */\n    tag_92:\n        /* \"#utility.yul\":3349:3354   */\n      0x00\n        /* \"#utility.yul\":3387:3393   */\n      dup2\n        /* \"#utility.yul\":3374:3394   */\n      calldataload\n        /* \"#utility.yul\":3365:3394   */\n      swap1\n      pop\n        /* \"#utility.yul\":3403:3436   */\n      tag_146\n        /* \"#utility.yul\":3430:3435   */\n      dup2\n        /* \"#utility.yul\":3403:3436   */\n      tag_91\n      jump\t// in\n    tag_146:\n        /* \"#utility.yul\":3303:3442   */\n      swap3\n      swap2\n      pop\n      pop\n      jump\t// out\n        /* \"#utility.yul\":3465:4175   */\n    tag_93:\n        /* \"#utility.yul\":3561:3566   */\n      0x00\n        /* \"#utility.yul\":3586:3667   */\n      tag_148\n        /* \"#utility.yul\":3602:3666   */\n      tag_149\n        /* \"#utility.yul\":3659:3665   */\n      dup5\n        /* \"#utility.yul\":3602:3666   */\n      tag_89\n      jump\t// in\n    tag_149:\n        /* \"#utility.yul\":3586:3667   */\n      tag_88\n      jump\t// in\n    tag_148:\n        /* \"#utility.yul\":3577:3667   */\n      swap1\n      pop\n        /* \"#utility.yul\":3687:3692   */\n      dup1\n        /* \"#utility.yul\":3716:3722   */\n      dup4\n        /* \"#utility.yul\":3709:3714   */\n      dup3\n        /* \"#utility.yul\":3702:3723   */\n      mstore\n        /* \"#utility.yul\":3750:3754   */\n      0x20\n        /* \"#utility.yul\":3743:3748   */\n      dup3\n        /* \"#utility.yul\":3739:3755   */\n      add\n        /* \"#utility.yul\":3732:3755   */\n      swap1\n      pop\n        /* \"#utility.yul\":3803:3807   */\n      0x20\n        /* \"#utility.yul\":3795:3801   */\n      dup5\n        /* \"#utility.yul\":3791:3808   */\n      mul\n        /* \"#utility.yul\":3783:3789   */\n      dup4\n        /* \"#utility.yul\":3779:3809   */\n      add\n        /* \"#utility.yul\":3832:3835   */\n      dup6\n        /* \"#utility.yul\":3824:3830   */\n      dup2\n        /* \"#utility.yul\":3821:3836   */\n      gt\n        /* \"#utility.yul\":3818:3940   */\n      iszero\n      tag_150\n      jumpi\n        /* \"#utility.yul\":3851:3930   */\n      tag_151\n      tag_90\n      jump\t// in\n    tag_151:\n        /* \"#utility.yul\":3818:3940   */\n    tag_150:\n        /* \"#utility.yul\":3966:3972   */\n      dup4\n        /* \"#utility.yul\":3949:4169   */\n    tag_152:\n        /* \"#utility.yul\":3983:3989   */\n      dup2\n        /* \"#utility.yul\":3978:3981   */\n      dup2\n        /* \"#utility.yul\":3975:3990   */\n      lt\n        /* \"#utility.yul\":3949:4169   */\n      iszero\n      tag_154\n      jumpi\n        /* \"#utility.yul\":4058:4061   */\n      dup1\n        /* \"#utility.yul\":4087:4124   */\n      tag_155\n        /* \"#utility.yul\":4120:4123   */\n      dup9\n        /* \"#utility.yul\":4108:4118   */\n      dup3\n        /* \"#utility.yul\":4087:4124   */\n      tag_92\n      jump\t// in\n    tag_155:\n        /* \"#utility.yul\":4082:4085   */\n      dup5\n        /* \"#utility.yul\":4075:4125   */\n      mstore\n        /* \"#utility.yul\":4154:4158   */\n      0x20\n        /* \"#utility.yul\":4149:4152   */\n      dup5\n        /* \"#utility.yul\":4145:4159   */\n      add\n        /* \"#utility.yul\":4138:4159   */\n      swap4\n      pop\n        /* \"#utility.yul\":4025:4169   */\n      pop\n        /* \"#utility.yul\":4009:4013   */\n      0x20\n        /* \"#utility.yul\":4004:4007   */\n      dup2\n        /* \"#utility.yul\":4000:4014   */\n      add\n        /* \"#utility.yul\":3993:4014   */\n      swap1\n      pop\n        /* \"#utility.yul\":3949:4169   */\n      jump(tag_152)\n    tag_154:\n        /* \"#utility.yul\":3953:3974   */\n      pop\n        /* \"#utility.yul\":3567:4175   */\n      pop\n      pop\n        /* \"#utility.yul\":3465:4175   */\n      swap4\n      swap3\n      pop\n      pop\n      pop\n      jump\t// out\n        /* \"#utility.yul\":4198:4568   */\n    tag_94:\n        /* \"#utility.yul\":4269:4274   */\n      0x00\n        /* \"#utility.yul\":4318:4321   */\n      dup3\n        /* \"#utility.yul\":4311:4315   */\n      0x1f\n        /* \"#utility.yul\":4303:4309   */\n      dup4\n        /* \"#utility.yul\":4299:4316   */\n      add\n        /* \"#utility.yul\":4295:4322   */\n      slt\n        /* \"#utility.yul\":4285:4407   */\n      tag_157\n      jumpi\n        /* \"#utility.yul\":4326:4405   */\n      tag_158\n      tag_85\n      jump\t// in\n    tag_158:\n        /* \"#utility.yul\":4285:4407   */\n    tag_157:\n        /* \"#utility.yul\":4443:4449   */\n      dup2\n        /* \"#utility.yul\":4430:4450   */\n      calldataload\n        /* \"#utility.yul\":4468:4562   */\n      tag_159\n        /* \"#utility.yul\":4558:4561   */\n      dup5\n        /* \"#utility.yul\":4550:4556   */\n      dup3\n        /* \"#utility.yul\":4543:4547   */\n      0x20\n        /* \"#utility.yul\":4535:4541   */\n      dup7\n        /* \"#utility.yul\":4531:4548   */\n      add\n        /* \"#utility.yul\":4468:4562   */\n      tag_93\n      jump\t// in\n    tag_159:\n        /* \"#utility.yul\":4459:4562   */\n      swap2\n      pop\n        /* \"#utility.yul\":4275:4568   */\n      pop\n        /* \"#utility.yul\":4198:4568   */\n      swap3\n      swap2\n      pop\n      pop\n      jump\t// out\n        /* \"#utility.yul\":4574:5113   */\n    tag_30:\n        /* \"#utility.yul\":4658:4664   */\n      0x00\n        /* \"#utility.yul\":4707:4709   */\n      0x20\n        /* \"#utility.yul\":4695:4704   */\n      dup3\n        /* \"#utility.yul\":4686:4693   */\n      dup5\n        /* \"#utility.yul\":4682:4705   */\n      sub\n        /* \"#utility.yul\":4678:4710   */\n      slt\n        /* \"#utility.yul\":4675:4794   */\n      iszero\n      tag_161\n      jumpi\n        /* \"#utility.yul\":4713:4792   */\n      tag_162\n      tag_83\n      jump\t// in\n    tag_162:\n        /* \"#utility.yul\":4675:4794   */\n    tag_161:\n        /* \"#utility.yul\":4861:4862   */\n      0x00\n        /* \"#utility.yul\":4850:4859   */\n      dup3\n        /* \"#utility.yul\":4846:4863   */\n      add\n        /* \"#utility.yul\":4833:4864   */\n      calldataload\n        /* \"#utility.yul\":4891:4909   */\n      0xffffffffffffffff\n        /* \"#utility.yul\":4883:4889   */\n      dup2\n        /* \"#utility.yul\":4880:4910   */\n      gt\n        /* \"#utility.yul\":4877:4994   */\n      iszero\n      tag_163\n      jumpi\n        /* \"#utility.yul\":4913:4992   */\n      tag_164\n      tag_84\n      jump\t// in\n    tag_164:\n        /* \"#utility.yul\":4877:4994   */\n    tag_163:\n        /* \"#utility.yul\":5018:5096   */\n      tag_165\n        /* \"#utility.yul\":5088:5095   */\n      dup5\n        /* \"#utility.yul\":5079:5085   */\n      dup3\n        /* \"#utility.yul\":5068:5077   */\n      dup6\n        /* \"#utility.yul\":5064:5086   */\n      add\n        /* \"#utility.yul\":5018:5096   */\n      tag_94\n      jump\t// in\n    tag_165:\n        /* \"#utility.yul\":5008:5096   */\n      swap2\n      pop\n        /* \"#utility.yul\":4804:5106   */\n      pop\n        /* \"#utility.yul\":4574:5113   */\n      swap3\n      swap2\n      pop\n      pop\n      jump\t// out\n        /* \"#utility.yul\":5119:5233   */\n    tag_95:\n        /* \"#utility.yul\":5186:5192   */\n      0x00\n        /* \"#utility.yul\":5220:5225   */\n      dup2\n        /* \"#utility.yul\":5214:5226   */\n      mload\n        /* \"#utility.yul\":5204:5226   */\n      swap1\n      pop\n        /* \"#utility.yul\":5119:5233   */\n      swap2\n      swap1\n      pop\n      jump\t// out\n        /* \"#utility.yul\":5239:5423   */\n    tag_96:\n        /* \"#utility.yul\":5338:5349   */\n      0x00\n        /* \"#utility.yul\":5372:5378   */\n      dup3\n        /* \"#utility.yul\":5367:5370   */\n      dup3\n        /* \"#utility.yul\":5360:5379   */\n      mstore\n        /* \"#utility.yul\":5412:5416   */\n      0x20\n        /* \"#utility.yul\":5407:5410   */\n      dup3\n        /* \"#utility.yul\":5403:5417   */\n      add\n        /* \"#utility.yul\":5388:5417   */\n      swap1\n      pop\n        /* \"#utility.yul\":5239:5423   */\n      swap3\n      swap2\n      pop\n      pop\n      jump\t// out\n        /* \"#utility.yul\":5429:5561   */\n    tag_97:\n        /* \"#utility.yul\":5496:5500   */\n      0x00\n        /* \"#utility.yul\":5519:5522   */\n      dup2\n        /* \"#utility.yul\":5511:5522   */\n      swap1\n      pop\n        /* \"#utility.yul\":5549:5553   */\n      0x20\n        /* \"#utility.yul\":5544:5547   */\n      dup3\n        /* \"#utility.yul\":5540:5554   */\n      add\n        /* \"#utility.yul\":5532:5554   */\n      swap1\n      pop\n        /* \"#utility.yul\":5429:5561   */\n      swap2\n      swap1\n      pop\n      jump\t// out\n        /* \"#utility.yul\":5567:5675   */\n    tag_98:\n        /* \"#utility.yul\":5644:5668   */\n      tag_170\n        /* \"#utility.yul\":5662:5667   */\n      dup2\n        /* \"#utility.yul\":5644:5668   */\n      tag_80\n      jump\t// in\n    tag_170:\n        /* \"#utility.yul\":5639:5642   */\n      dup3\n        /* \"#utility.yul\":5632:5669   */\n      mstore\n        /* \"#utility.yul\":5567:5675   */\n      pop\n      pop\n      jump\t// out\n        /* \"#utility.yul\":5681:5860   */\n    tag_99:\n        /* \"#utility.yul\":5750:5760   */\n      0x00\n        /* \"#utility.yul\":5771:5817   */\n      tag_172\n        /* \"#utility.yul\":5813:5816   */\n      dup4\n        /* \"#utility.yul\":5805:5811   */\n      dup4\n        /* \"#utility.yul\":5771:5817   */\n      tag_98\n      jump\t// in\n    tag_172:\n        /* \"#utility.yul\":5849:5853   */\n      0x20\n        /* \"#utility.yul\":5844:5847   */\n      dup4\n        /* \"#utility.yul\":5840:5854   */\n      add\n        /* \"#utility.yul\":5826:5854   */\n      swap1\n      pop\n        /* \"#utility.yul\":5681:5860   */\n      swap3\n      swap2\n      pop\n      pop\n      jump\t// out\n        /* \"#utility.yul\":5866:5979   */\n    tag_100:\n        /* \"#utility.yul\":5936:5940   */\n      0x00\n        /* \"#utility.yul\":5968:5972   */\n      0x20\n        /* \"#utility.yul\":5963:5966   */\n      dup3\n        /* \"#utility.yul\":5959:5973   */\n      add\n        /* \"#utility.yul\":5951:5973   */\n      swap1\n      pop\n        /* \"#utility.yul\":5866:5979   */\n      swap2\n      swap1\n      pop\n      jump\t// out\n        /* \"#utility.yul\":6015:6747   */\n    tag_101:\n        /* \"#utility.yul\":6134:6137   */\n      0x00\n        /* \"#utility.yul\":6163:6217   */\n      tag_175\n        /* \"#utility.yul\":6211:6216   */\n      dup3\n        /* \"#utility.yul\":6163:6217   */\n      tag_95\n      jump\t// in\n    tag_175:\n        /* \"#utility.yul\":6233:6319   */\n      tag_176\n        /* \"#utility.yul\":6312:6318   */\n      dup2\n        /* \"#utility.yul\":6307:6310   */\n      dup6\n        /* \"#utility.yul\":6233:6319   */\n      tag_96\n      jump\t// in\n    tag_176:\n        /* \"#utility.yul\":6226:6319   */\n      swap4\n      pop\n        /* \"#utility.yul\":6343:6399   */\n      tag_177\n        /* \"#utility.yul\":6393:6398   */\n      dup4\n        /* \"#utility.yul\":6343:6399   */\n      tag_97\n      jump\t// in\n    tag_177:\n        /* \"#utility.yul\":6422:6429   */\n      dup1\n        /* \"#utility.yul\":6453:6454   */\n      0x00\n        /* \"#utility.yul\":6438:6722   */\n    tag_178:\n        /* \"#utility.yul\":6463:6469   */\n      dup4\n        /* \"#utility.yul\":6460:6461   */\n      dup2\n        /* \"#utility.yul\":6457:6470   */\n      lt\n        /* \"#utility.yul\":6438:6722   */\n      iszero\n      tag_180\n      jumpi\n        /* \"#utility.yul\":6539:6545   */\n      dup2\n        /* \"#utility.yul\":6533:6546   */\n      mload\n        /* \"#utility.yul\":6566:6629   */\n      tag_181\n        /* \"#utility.yul\":6625:6628   */\n      dup9\n        /* \"#utility.yul\":6610:6623   */\n      dup3\n        /* \"#utility.yul\":6566:6629   */\n      tag_99\n      jump\t// in\n    tag_181:\n        /* \"#utility.yul\":6559:6629   */\n      swap8\n      pop\n        /* \"#utility.yul\":6652:6712   */\n      tag_182\n        /* \"#utility.yul\":6705:6711   */\n      dup4\n        /* \"#utility.yul\":6652:6712   */\n      tag_100\n      jump\t// in\n    tag_182:\n        /* \"#utility.yul\":6642:6712   */\n      swap3\n      pop\n        /* \"#utility.yul\":6498:6722   */\n      pop\n        /* \"#utility.yul\":6485:6486   */\n      0x01\n        /* \"#utility.yul\":6482:6483   */\n      dup2\n        /* \"#utility.yul\":6478:6487   */\n      add\n        /* \"#utility.yul\":6473:6487   */\n      swap1\n      pop\n        /* \"#utility.yul\":6438:6722   */\n      jump(tag_178)\n    tag_180:\n        /* \"#utility.yul\":6442:6456   */\n      pop\n        /* \"#utility.yul\":6738:6741   */\n      dup6\n        /* \"#utility.yul\":6731:6741   */\n      swap4\n      pop\n        /* \"#utility.yul\":6139:6747   */\n      pop\n      pop\n      pop\n        /* \"#utility.yul\":6015:6747   */\n      swap3\n      swap2\n      pop\n      pop\n      jump\t// out\n        /* \"#utility.yul\":6753:7126   */\n    tag_33:\n        /* \"#utility.yul\":6896:6900   */\n      0x00\n        /* \"#utility.yul\":6934:6936   */\n      0x20\n        /* \"#utility.yul\":6923:6932   */\n      dup3\n        /* \"#utility.yul\":6919:6937   */\n      add\n        /* \"#utility.yul\":6911:6937   */\n      swap1\n      pop\n        /* \"#utility.yul\":6983:6992   */\n      dup2\n        /* \"#utility.yul\":6977:6981   */\n      dup2\n        /* \"#utility.yul\":6973:6993   */\n      sub\n        /* \"#utility.yul\":6969:6970   */\n      0x00\n        /* \"#utility.yul\":6958:6967   */\n      dup4\n        /* \"#utility.yul\":6954:6971   */\n      add\n        /* \"#utility.yul\":6947:6994   */\n      mstore\n        /* \"#utility.yul\":7011:7119   */\n      tag_184\n        /* \"#utility.yul\":7114:7118   */\n      dup2\n        /* \"#utility.yul\":7105:7111   */\n      dup5\n        /* \"#utility.yul\":7011:7119   */\n      tag_101\n      jump\t// in\n    tag_184:\n        /* \"#utility.yul\":7003:7119   */\n      swap1\n      pop\n        /* \"#utility.yul\":6753:7126   */\n      swap3\n      swap2\n      pop\n      pop\n      jump\t// out\n        /* \"#utility.yul\":7132:7230   */\n    tag_102:\n        /* \"#utility.yul\":7183:7189   */\n      0x00\n        /* \"#utility.yul\":7217:7222   */\n      dup2\n        /* \"#utility.yul\":7211:7223   */\n      mload\n        /* \"#utility.yul\":7201:7223   */\n      swap1\n      pop\n        /* \"#utility.yul\":7132:7230   */\n      swap2\n      swap1\n      pop\n      jump\t// out\n        /* \"#utility.yul\":7236:7404   */\n    tag_103:\n        /* \"#utility.yul\":7319:7330   */\n      0x00\n        /* \"#utility.yul\":7353:7359   */\n      dup3\n        /* \"#utility.yul\":7348:7351   */\n      dup3\n        /* \"#utility.yul\":7341:7360   */\n      mstore\n        /* \"#utility.yul\":7393:7397   */\n      0x20\n        /* \"#utility.yul\":7388:7391   */\n      dup3\n        /* \"#utility.yul\":7384:7398   */\n      add\n        /* \"#utility.yul\":7369:7398   */\n      swap1\n      pop\n        /* \"#utility.yul\":7236:7404   */\n      swap3\n      swap2\n      pop\n      pop\n      jump\t// out\n        /* \"#utility.yul\":7410:7783   */\n    tag_104:\n        /* \"#utility.yul\":7496:7499   */\n      0x00\n        /* \"#utility.yul\":7524:7562   */\n      tag_188\n        /* \"#utility.yul\":7556:7561   */\n      dup3\n        /* \"#utility.yul\":7524:7562   */\n      tag_102\n      jump\t// in\n    tag_188:\n        /* \"#utility.yul\":7578:7648   */\n      tag_189\n        /* \"#utility.yul\":7641:7647   */\n      dup2\n        /* \"#utility.yul\":7636:7639   */\n      dup6\n        /* \"#utility.yul\":7578:7648   */\n      tag_103\n      jump\t// in\n    tag_189:\n        /* \"#utility.yul\":7571:7648   */\n      swap4\n      pop\n        /* \"#utility.yul\":7657:7722   */\n      tag_190\n        /* \"#utility.yul\":7715:7721   */\n      dup2\n        /* \"#utility.yul\":7710:7713   */\n      dup6\n        /* \"#utility.yul\":7703:7707   */\n      0x20\n        /* \"#utility.yul\":7696:7701   */\n      dup7\n        /* \"#utility.yul\":7692:7708   */\n      add\n        /* \"#utility.yul\":7657:7722   */\n      tag_77\n      jump\t// in\n    tag_190:\n        /* \"#utility.yul\":7747:7776   */\n      tag_191\n        /* \"#utility.yul\":7769:7775   */\n      dup2\n        /* \"#utility.yul\":7747:7776   */\n      tag_78\n      jump\t// in\n    tag_191:\n        /* \"#utility.yul\":7742:7745   */\n      dup5\n        /* \"#utility.yul\":7738:7777   */\n      add\n        /* \"#utility.yul\":7731:7777   */\n      swap2\n      pop\n        /* \"#utility.yul\":7500:7783   */\n      pop\n        /* \"#utility.yul\":7410:7783   */\n      swap3\n      swap2\n      pop\n      pop\n      jump\t// out\n        /* \"#utility.yul\":7789:8098   */\n    tag_37:\n        /* \"#utility.yul\":7900:7904   */\n      0x00\n        /* \"#utility.yul\":7938:7940   */\n      0x20\n        /* \"#utility.yul\":7927:7936   */\n      dup3\n        /* \"#utility.yul\":7923:7941   */\n      add\n        /* \"#utility.yul\":7915:7941   */\n      swap1\n      pop\n        /* \"#utility.yul\":7987:7996   */\n      dup2\n        /* \"#utility.yul\":7981:7985   */\n      dup2\n        /* \"#utility.yul\":7977:7997   */\n      sub\n        /* \"#utility.yul\":7973:7974   */\n      0x00\n        /* \"#utility.yul\":7962:7971   */\n      dup4\n        /* \"#utility.yul\":7958:7975   */\n      add\n        /* \"#utility.yul\":7951:7998   */\n      mstore\n        /* \"#utility.yul\":8015:8091   */\n      tag_193\n        /* \"#utility.yul\":8086:8090   */\n      dup2\n        /* \"#utility.yul\":8077:8083   */\n      dup5\n        /* \"#utility.yul\":8015:8091   */\n      tag_104\n      jump\t// in\n    tag_193:\n        /* \"#utility.yul\":8007:8091   */\n      swap1\n      pop\n        /* \"#utility.yul\":7789:8098   */\n      swap3\n      swap2\n      pop\n      pop\n      jump\t// out\n        /* \"#utility.yul\":8104:8230   */\n    tag_105:\n        /* \"#utility.yul\":8141:8148   */\n      0x00\n        /* \"#utility.yul\":8181:8223   */\n      0xffffffffffffffffffffffffffffffffffffffff\n        /* \"#utility.yul\":8174:8179   */\n      dup3\n        /* \"#utility.yul\":8170:8224   */\n      and\n        /* \"#utility.yul\":8159:8224   */\n      swap1\n      pop\n        /* \"#utility.yul\":8104:8230   */\n      swap2\n      swap1\n      pop\n      jump\t// out\n        /* \"#utility.yul\":8236:8332   */\n    tag_106:\n        /* \"#utility.yul\":8273:8280   */\n      0x00\n        /* \"#utility.yul\":8302:8326   */\n      tag_196\n        /* \"#utility.yul\":8320:8325   */\n      dup3\n        /* \"#utility.yul\":8302:8326   */\n      tag_105\n      jump\t// in\n    tag_196:\n        /* \"#utility.yul\":8291:8326   */\n      swap1\n      pop\n        /* \"#utility.yul\":8236:8332   */\n      swap2\n      swap1\n      pop\n      jump\t// out\n        /* \"#utility.yul\":8338:8456   */\n    tag_107:\n        /* \"#utility.yul\":8425:8449   */\n      tag_198\n        /* \"#utility.yul\":8443:8448   */\n      dup2\n        /* \"#utility.yul\":8425:8449   */\n      tag_106\n      jump\t// in\n    tag_198:\n        /* \"#utility.yul\":8420:8423   */\n      dup3\n        /* \"#utility.yul\":8413:8450   */\n      mstore\n        /* \"#utility.yul\":8338:8456   */\n      pop\n      pop\n      jump\t// out\n        /* \"#utility.yul\":8462:8684   */\n    tag_41:\n        /* \"#utility.yul\":8555:8559   */\n      0x00\n        /* \"#utility.yul\":8593:8595   */\n      0x20\n        /* \"#utility.yul\":8582:8591   */\n      dup3\n        /* \"#utility.yul\":8578:8596   */\n      add\n        /* \"#utility.yul\":8570:8596   */\n      swap1\n      pop\n        /* \"#utility.yul\":8606:8677   */\n      tag_200\n        /* \"#utility.yul\":8674:8675   */\n      0x00\n        /* \"#utility.yul\":8663:8672   */\n      dup4\n        /* \"#utility.yul\":8659:8676   */\n      add\n        /* \"#utility.yul\":8650:8656   */\n      dup5\n        /* \"#utility.yul\":8606:8677   */\n      tag_107\n      jump\t// in\n    tag_200:\n        /* \"#utility.yul\":8462:8684   */\n      swap3\n      swap2\n      pop\n      pop\n      jump\t// out\n        /* \"#utility.yul\":8690:8870   */\n    tag_57:\n        /* \"#utility.yul\":8738:8815   */\n      0x4e487b7100000000000000000000000000000000000000000000000000000000\n        /* \"#utility.yul\":8735:8736   */\n      0x00\n        /* \"#utility.yul\":8728:8816   */\n      mstore\n        /* \"#utility.yul\":8835:8839   */\n      0x32\n        /* \"#utility.yul\":8832:8833   */\n      0x04\n        /* \"#utility.yul\":8825:8840   */\n      mstore\n        /* \"#utility.yul\":8859:8863   */\n      0x24\n        /* \"#utility.yul\":8856:8857   */\n      0x00\n        /* \"#utility.yul\":8849:8864   */\n      revert\n        /* \"#utility.yul\":8876:9056   */\n    tag_108:\n        /* \"#utility.yul\":8924:9001   */\n      0x4e487b7100000000000000000000000000000000000000000000000000000000\n        /* \"#utility.yul\":8921:8922   */\n      0x00\n        /* \"#utility.yul\":8914:9002   */\n      mstore\n        /* \"#utility.yul\":9021:9025   */\n      0x11\n        /* \"#utility.yul\":9018:9019   */\n      0x04\n        /* \"#utility.yul\":9011:9026   */\n      mstore\n        /* \"#utility.yul\":9045:9049   */\n      0x24\n        /* \"#utility.yul\":9042:9043   */\n      0x00\n        /* \"#utility.yul\":9035:9050   */\n      revert\n        /* \"#utility.yul\":9062:9256   */\n    tag_62:\n        /* \"#utility.yul\":9102:9106   */\n      0x00\n        /* \"#utility.yul\":9122:9142   */\n      tag_204\n        /* \"#utility.yul\":9140:9141   */\n      dup3\n        /* \"#utility.yul\":9122:9142   */\n      tag_80\n      jump\t// in\n    tag_204:\n        /* \"#utility.yul\":9117:9142   */\n      swap2\n      pop\n        /* \"#utility.yul\":9156:9176   */\n      tag_205\n        /* \"#utility.yul\":9174:9175   */\n      dup4\n        /* \"#utility.yul\":9156:9176   */\n      tag_80\n      jump\t// in\n    tag_205:\n        /* \"#utility.yul\":9151:9176   */\n      swap3\n      pop\n        /* \"#utility.yul\":9200:9201   */\n      dup3\n        /* \"#utility.yul\":9197:9198   */\n      dup3\n        /* \"#utility.yul\":9193:9202   */\n      sub\n        /* \"#utility.yul\":9185:9202   */\n      swap1\n      pop\n        /* \"#utility.yul\":9224:9225   */\n      dup2\n        /* \"#utility.yul\":9218:9222   */\n      dup2\n        /* \"#utility.yul\":9215:9226   */\n      gt\n        /* \"#utility.yul\":9212:9249   */\n      iszero\n      tag_206\n      jumpi\n        /* \"#utility.yul\":9229:9247   */\n      tag_207\n      tag_108\n      jump\t// in\n    tag_207:\n        /* \"#utility.yul\":9212:9249   */\n    tag_206:\n        /* \"#utility.yul\":9062:9256   */\n      swap3\n      swap2\n      pop\n      pop\n      jump\t// out\n        /* \"#utility.yul\":9262:9433   */\n    tag_71:\n        /* \"#utility.yul\":9301:9304   */\n      0x00\n        /* \"#utility.yul\":9324:9348   */\n      tag_209\n        /* \"#utility.yul\":9342:9347   */\n      dup3\n        /* \"#utility.yul\":9324:9348   */\n      tag_80\n      jump\t// in\n    tag_209:\n        /* \"#utility.yul\":9315:9348   */\n      swap2\n      pop\n        /* \"#utility.yul\":9370:9374   */\n      0x00\n        /* \"#utility.yul\":9363:9368   */\n      dup3\n        /* \"#utility.yul\":9360:9375   */\n      sub\n        /* \"#utility.yul\":9357:9398   */\n      tag_210\n      jumpi\n        /* \"#utility.yul\":9378:9396   */\n      tag_211\n      tag_108\n      jump\t// in\n    tag_211:\n        /* \"#utility.yul\":9357:9398   */\n    tag_210:\n        /* \"#utility.yul\":9425:9426   */\n      0x01\n        /* \"#utility.yul\":9418:9423   */\n      dup3\n        /* \"#utility.yul\":9414:9427   */\n      sub\n        /* \"#utility.yul\":9407:9427   */\n      swap1\n      pop\n        /* \"#utility.yul\":9262:9433   */\n      swap2\n      swap1\n      pop\n      jump\t// out\n\n    auxdata: 0xa26469706673582212202cf4912aa0c9ee94e1cde69df4aee035e6dcd222af5f00690de0e468ffad68c064736f6c634300081a0033\n}\n",
				"bytecode": {
					"linkReferences": {},
					"object": "6101006040526402540be3ff60809081525034801561001c575f80fd5b503073ffffffffffffffffffffffffffffffffffffffff1660a08173ffffffffffffffffffffffffffffffffffffffff168152505061045e6080818152505061006961007560201b60201c565b60e08181525050610082565b5f80600990508091505090565b60805160a05160c05160e0516109046100b55f395f61024201525f61021901525f6103c701525f6103a301526109045ff3fe608060405234801561000f575f80fd5b506004361061009c575f3560e01c806379135c7d1161006457806379135c7d14610148578063858e040314610166578063ed7ff87514610184578063f1513021146101a2578063f8a8fd6d146101c05761009c565b80631adead50146100a05780631d9afdd2146100be5780632314d48c146100dc5780634064572e146100fa5780636297206f14610118575b5f80fd5b6100a86101de565b6040516100b59190610466565b60405180910390f35b6100c6610217565b6040516100d3919061049e565b60405180910390f35b6100e461023b565b6040516100f1919061049e565b60405180910390f35b610102610240565b60405161010f919061049e565b60405180910390f35b610132600480360381019061012d9190610632565b610264565b60405161013f9190610730565b60405180910390f35b610150610364565b60405161015d91906107a2565b60405180910390f35b61016e61039d565b60405161017b9190610801565b60405180910390f35b61018c6103a1565b604051610199919061049e565b60405180910390f35b6101aa6103c5565b6040516101b79190610801565b60405180910390f35b6101c86103e9565b6040516101d5919061049e565b60405180910390f35b6040518060400160405280600481526020017f307841410000000000000000000000000000000000000000000000000000000081525081565b7f000000000000000000000000000000000000000000000000000000000000000081565b600a81565b7f000000000000000000000000000000000000000000000000000000000000000081565b60605f600190505b825181101561035b575f8382815181106102895761028861081a565b5b602002602001015190505f8290505b600181101580156102ce5750846001826102b29190610874565b815181106102c3576102c261081a565b5b602002602001015182105b1561032c57846001826102e19190610874565b815181106102f2576102f161081a565b5b602002602001015185828151811061030d5761030c61081a565b5b6020026020010181815250508080610324906108a7565b915050610298565b818582815181106103405761033f61081a565b5b6020026020010181815250505050808060010191505061026c565b50819050919050565b6040518060400160405280600381526020017f575446000000000000000000000000000000000000000000000000000000000081525081565b5f81565b7f000000000000000000000000000000000000000000000000000000000000000081565b7f000000000000000000000000000000000000000000000000000000000000000081565b5f80600990508091505090565b5f81519050919050565b5f82825260208201905092915050565b8281835e5f83830152505050565b5f601f19601f8301169050919050565b5f610438826103f6565b6104428185610400565b9350610452818560208601610410565b61045b8161041e565b840191505092915050565b5f6020820190508181035f83015261047e818461042e565b905092915050565b5f819050919050565b61049881610486565b82525050565b5f6020820190506104b15f83018461048f565b92915050565b5f604051905090565b5f80fd5b5f80fd5b5f80fd5b7f4e487b71000000000000000000000000000000000000000000000000000000005f52604160045260245ffd5b6105028261041e565b810181811067ffffffffffffffff82111715610521576105206104cc565b5b80604052505050565b5f6105336104b7565b905061053f82826104f9565b919050565b5f67ffffffffffffffff82111561055e5761055d6104cc565b5b602082029050602081019050919050565b5f80fd5b61057c81610486565b8114610586575f80fd5b50565b5f8135905061059781610573565b92915050565b5f6105af6105aa84610544565b61052a565b905080838252602082019050602084028301858111156105d2576105d161056f565b5b835b818110156105fb57806105e78882610589565b8452602084019350506020810190506105d4565b5050509392505050565b5f82601f830112610619576106186104c8565b5b813561062984826020860161059d565b91505092915050565b5f60208284031215610647576106466104c0565b5b5f82013567ffffffffffffffff811115610664576106636104c4565b5b61067084828501610605565b91505092915050565b5f81519050919050565b5f82825260208201905092915050565b5f819050602082019050919050565b6106ab81610486565b82525050565b5f6106bc83836106a2565b60208301905092915050565b5f602082019050919050565b5f6106de82610679565b6106e88185610683565b93506106f383610693565b805f5b8381101561072357815161070a88826106b1565b9750610715836106c8565b9250506001810190506106f6565b5085935050505092915050565b5f6020820190508181035f83015261074881846106d4565b905092915050565b5f81519050919050565b5f82825260208201905092915050565b5f61077482610750565b61077e818561075a565b935061078e818560208601610410565b6107978161041e565b840191505092915050565b5f6020820190508181035f8301526107ba818461076a565b905092915050565b5f73ffffffffffffffffffffffffffffffffffffffff82169050919050565b5f6107eb826107c2565b9050919050565b6107fb816107e1565b82525050565b5f6020820190506108145f8301846107f2565b92915050565b7f4e487b71000000000000000000000000000000000000000000000000000000005f52603260045260245ffd5b7f4e487b71000000000000000000000000000000000000000000000000000000005f52601160045260245ffd5b5f61087e82610486565b915061088983610486565b92508282039050818111156108a1576108a0610847565b5b92915050565b5f6108b182610486565b91505f82036108c3576108c2610847565b5b60018203905091905056fea26469706673582212202cf4912aa0c9ee94e1cde69df4aee035e6dcd222af5f00690de0e468ffad68c064736f6c634300081a0033",
					"opcodes": "PUSH2 0x100 PUSH1 0x40 MSTORE PUSH5 0x2540BE3FF PUSH1 0x80 SWAP1 DUP2 MSTORE POP CALLVALUE DUP1 ISZERO PUSH2 0x1C JUMPI PUSH0 DUP1 REVERT JUMPDEST POP ADDRESS PUSH20 0xFFFFFFFFFFFFFFFFFFFFFFFFFFFFFFFFFFFFFFFF AND PUSH1 0xA0 DUP2 PUSH20 0xFFFFFFFFFFFFFFFFFFFFFFFFFFFFFFFFFFFFFFFF AND DUP2 MSTORE POP POP PUSH2 0x45E PUSH1 0x80 DUP2 DUP2 MSTORE POP POP PUSH2 0x69 PUSH2 0x75 PUSH1 0x20 SHL PUSH1 0x20 SHR JUMP JUMPDEST PUSH1 0xE0 DUP2 DUP2 MSTORE POP POP PUSH2 0x82 JUMP JUMPDEST PUSH0 DUP1 PUSH1 0x9 SWAP1 POP DUP1 SWAP2 POP POP SWAP1 JUMP JUMPDEST PUSH1 0x80 MLOAD PUSH1 0xA0 MLOAD PUSH1 0xC0 MLOAD PUSH1 0xE0 MLOAD PUSH2 0x904 PUSH2 0xB5 PUSH0 CODECOPY PUSH0 PUSH2 0x242 ADD MSTORE PUSH0 PUSH2 0x219 ADD MSTORE PUSH0 PUSH2 0x3C7 ADD MSTORE PUSH0 PUSH2 0x3A3 ADD MSTORE PUSH2 0x904 PUSH0 RETURN INVALID PUSH1 0x80 PUSH1 0x40 MSTORE CALLVALUE DUP1 ISZERO PUSH2 0xF JUMPI PUSH0 DUP1 REVERT JUMPDEST POP PUSH1 0x4 CALLDATASIZE LT PUSH2 0x9C JUMPI PUSH0 CALLDATALOAD PUSH1 0xE0 SHR DUP1 PUSH4 0x79135C7D GT PUSH2 0x64 JUMPI DUP1 PUSH4 0x79135C7D EQ PUSH2 0x148 JUMPI DUP1 PUSH4 0x858E0403 EQ PUSH2 0x166 JUMPI DUP1 PUSH4 0xED7FF875 EQ PUSH2 0x184 JUMPI DUP1 PUSH4 0xF1513021 EQ PUSH2 0x1A2 JUMPI DUP1 PUSH4 0xF8A8FD6D EQ PUSH2 0x1C0 JUMPI PUSH2 0x9C JUMP JUMPDEST DUP1 PUSH4 0x1ADEAD50 EQ PUSH2 0xA0 JUMPI DUP1 PUSH4 0x1D9AFDD2 EQ PUSH2 0xBE JUMPI DUP1 PUSH4 0x2314D48C EQ PUSH2 0xDC JUMPI DUP1 PUSH4 0x4064572E EQ PUSH2 0xFA JUMPI DUP1 PUSH4 0x6297206F EQ PUSH2 0x118 JUMPI JUMPDEST PUSH0 DUP1 REVERT JUMPDEST PUSH2 0xA8 PUSH2 0x1DE JUMP JUMPDEST PUSH1 0x40 MLOAD PUSH2 0xB5 SWAP2 SWAP1 PUSH2 0x466 JUMP JUMPDEST PUSH1 0x40 MLOAD DUP1 SWAP2 SUB SWAP1 RETURN JUMPDEST PUSH2 0xC6 PUSH2 0x217 JUMP JUMPDEST PUSH1 0x40 MLOAD PUSH2 0xD3 SWAP2 SWAP1 PUSH2 0x49E JUMP JUMPDEST PUSH1 0x40 MLOAD DUP1 SWAP2 SUB SWAP1 RETURN JUMPDEST PUSH2 0xE4 PUSH2 0x23B JUMP JUMPDEST PUSH1 0x40 MLOAD PUSH2 0xF1 SWAP2 SWAP1 PUSH2 0x49E JUMP JUMPDEST PUSH1 0x40 MLOAD DUP1 SWAP2 SUB SWAP1 RETURN JUMPDEST PUSH2 0x102 PUSH2 0x240 JUMP JUMPDEST PUSH1 0x40 MLOAD PUSH2 0x10F SWAP2 SWAP1 PUSH2 0x49E JUMP JUMPDEST PUSH1 0x40 MLOAD DUP1 SWAP2 SUB SWAP1 RETURN JUMPDEST PUSH2 0x132 PUSH1 0x4 DUP1 CALLDATASIZE SUB DUP2 ADD SWAP1 PUSH2 0x12D SWAP2 SWAP1 PUSH2 0x632 JUMP JUMPDEST PUSH2 0x264 JUMP JUMPDEST PUSH1 0x40 MLOAD PUSH2 0x13F SWAP2 SWAP1 PUSH2 0x730 JUMP JUMPDEST PUSH1 0x40 MLOAD DUP1 SWAP2 SUB SWAP1 RETURN JUMPDEST PUSH2 0x150 PUSH2 0x364 JUMP JUMPDEST PUSH1 0x40 MLOAD PUSH2 0x15D SWAP2 SWAP1 PUSH2 0x7A2 JUMP JUMPDEST PUSH1 0x40 MLOAD DUP1 SWAP2 SUB SWAP1 RETURN JUMPDEST PUSH2 0x16E PUSH2 0x39D JUMP JUMPDEST PUSH1 0x40 MLOAD PUSH2 0x17B SWAP2 SWAP1 PUSH2 0x801 JUMP JUMPDEST PUSH1 0x40 MLOAD DUP1 SWAP2 SUB SWAP1 RETURN JUMPDEST PUSH2 0x18C PUSH2 0x3A1 JUMP JUMPDEST PUSH1 0x40 MLOAD PUSH2 0x199 SWAP2 SWAP1 PUSH2 0x49E JUMP JUMPDEST PUSH1 0x40 MLOAD DUP1 SWAP2 SUB SWAP1 RETURN JUMPDEST PUSH2 0x1AA PUSH2 0x3C5 JUMP JUMPDEST PUSH1 0x40 MLOAD PUSH2 0x1B7 SWAP2 SWAP1 PUSH2 0x801 JUMP JUMPDEST PUSH1 0x40 MLOAD DUP1 SWAP2 SUB SWAP1 RETURN JUMPDEST PUSH2 0x1C8 PUSH2 0x3E9 JUMP JUMPDEST PUSH1 0x40 MLOAD PUSH2 0x1D5 SWAP2 SWAP1 PUSH2 0x49E JUMP JUMPDEST PUSH1 0x40 MLOAD DUP1 SWAP2 SUB SWAP1 RETURN JUMPDEST PUSH1 0x40 MLOAD DUP1 PUSH1 0x40 ADD PUSH1 0x40 MSTORE DUP1 PUSH1 0x4 DUP2 MSTORE PUSH1 0x20 ADD PUSH32 0x3078414100000000000000000000000000000000000000000000000000000000 DUP2 MSTORE POP DUP2 JUMP JUMPDEST PUSH32 0x0 DUP2 JUMP JUMPDEST PUSH1 0xA DUP2 JUMP JUMPDEST PUSH32 0x0 DUP2 JUMP JUMPDEST PUSH1 0x60 PUSH0 PUSH1 0x1 SWAP1 POP JUMPDEST DUP3 MLOAD DUP2 LT ISZERO PUSH2 0x35B JUMPI PUSH0 DUP4 DUP3 DUP2 MLOAD DUP2 LT PUSH2 0x289 JUMPI PUSH2 0x288 PUSH2 0x81A JUMP JUMPDEST JUMPDEST PUSH1 0x20 MUL PUSH1 0x20 ADD ADD MLOAD SWAP1 POP PUSH0 DUP3 SWAP1 POP JUMPDEST PUSH1 0x1 DUP2 LT ISZERO DUP1 ISZERO PUSH2 0x2CE JUMPI POP DUP5 PUSH1 0x1 DUP3 PUSH2 0x2B2 SWAP2 SWAP1 PUSH2 0x874 JUMP JUMPDEST DUP2 MLOAD DUP2 LT PUSH2 0x2C3 JUMPI PUSH2 0x2C2 PUSH2 0x81A JUMP JUMPDEST JUMPDEST PUSH1 0x20 MUL PUSH1 0x20 ADD ADD MLOAD DUP3 LT JUMPDEST ISZERO PUSH2 0x32C JUMPI DUP5 PUSH1 0x1 DUP3 PUSH2 0x2E1 SWAP2 SWAP1 PUSH2 0x874 JUMP JUMPDEST DUP2 MLOAD DUP2 LT PUSH2 0x2F2 JUMPI PUSH2 0x2F1 PUSH2 0x81A JUMP JUMPDEST JUMPDEST PUSH1 0x20 MUL PUSH1 0x20 ADD ADD MLOAD DUP6 DUP3 DUP2 MLOAD DUP2 LT PUSH2 0x30D JUMPI PUSH2 0x30C PUSH2 0x81A JUMP JUMPDEST JUMPDEST PUSH1 0x20 MUL PUSH1 0x20 ADD ADD DUP2 DUP2 MSTORE POP POP DUP1 DUP1 PUSH2 0x324 SWAP1 PUSH2 0x8A7 JUMP JUMPDEST SWAP2 POP POP PUSH2 0x298 JUMP JUMPDEST DUP2 DUP6 DUP3 DUP2 MLOAD DUP2 LT PUSH2 0x340 JUMPI PUSH2 0x33F PUSH2 0x81A JUMP JUMPDEST JUMPDEST PUSH1 0x20 MUL PUSH1 0x20 ADD ADD DUP2 DUP2 MSTORE POP POP POP POP DUP1 DUP1 PUSH1 0x1 ADD SWAP2 POP POP PUSH2 0x26C JUMP JUMPDEST POP DUP2 SWAP1 POP SWAP2 SWAP1 POP JUMP JUMPDEST PUSH1 0x40 MLOAD DUP1 PUSH1 0x40 ADD PUSH1 0x40 MSTORE DUP1 PUSH1 0x3 DUP2 MSTORE PUSH1 0x20 ADD PUSH32 0x5754460000000000000000000000000000000000000000000000000000000000 DUP2 MSTORE POP DUP2 JUMP JUMPDEST PUSH0 DUP2 JUMP JUMPDEST PUSH32 0x0 DUP2 JUMP JUMPDEST PUSH32 0x0 DUP2 JUMP JUMPDEST PUSH0 DUP1 PUSH1 0x9 SWAP1 POP DUP1 SWAP2 POP POP SWAP1 JUMP JUMPDEST PUSH0 DUP2 MLOAD SWAP1 POP SWAP2 SWAP1 POP JUMP JUMPDEST PUSH0 DUP3 DUP3 MSTORE PUSH1 0x20 DUP3 ADD SWAP1 POP SWAP3 SWAP2 POP POP JUMP JUMPDEST DUP3 DUP2 DUP4 MCOPY PUSH0 DUP4 DUP4 ADD MSTORE POP POP POP JUMP JUMPDEST PUSH0 PUSH1 0x1F NOT PUSH1 0x1F DUP4 ADD AND SWAP1 POP SWAP2 SWAP1 POP JUMP JUMPDEST PUSH0 PUSH2 0x438 DUP3 PUSH2 0x3F6 JUMP JUMPDEST PUSH2 0x442 DUP2 DUP6 PUSH2 0x400 JUMP JUMPDEST SWAP4 POP PUSH2 0x452 DUP2 DUP6 PUSH1 0x20 DUP7 ADD PUSH2 0x410 JUMP JUMPDEST PUSH2 0x45B DUP2 PUSH2 0x41E JUMP JUMPDEST DUP5 ADD SWAP2 POP POP SWAP3 SWAP2 POP POP JUMP JUMPDEST PUSH0 PUSH1 0x20 DUP3 ADD SWAP1 POP DUP2 DUP2 SUB PUSH0 DUP4 ADD MSTORE PUSH2 0x47E DUP2 DUP5 PUSH2 0x42E JUMP JUMPDEST SWAP1 POP SWAP3 SWAP2 POP POP JUMP JUMPDEST PUSH0 DUP2 SWAP1 POP SWAP2 SWAP1 POP JUMP JUMPDEST PUSH2 0x498 DUP2 PUSH2 0x486 JUMP JUMPDEST DUP3 MSTORE POP POP JUMP JUMPDEST PUSH0 PUSH1 0x20 DUP3 ADD SWAP1 POP PUSH2 0x4B1 PUSH0 DUP4 ADD DUP5 PUSH2 0x48F JUMP JUMPDEST SWAP3 SWAP2 POP POP JUMP JUMPDEST PUSH0 PUSH1 0x40 MLOAD SWAP1 POP SWAP1 JUMP JUMPDEST PUSH0 DUP1 REVERT JUMPDEST PUSH0 DUP1 REVERT JUMPDEST PUSH0 DUP1 REVERT JUMPDEST PUSH32 0x4E487B7100000000000000000000000000000000000000000000000000000000 PUSH0 MSTORE PUSH1 0x41 PUSH1 0x4 MSTORE PUSH1 0x24 PUSH0 REVERT JUMPDEST PUSH2 0x502 DUP3 PUSH2 0x41E JUMP JUMPDEST DUP2 ADD DUP2 DUP2 LT PUSH8 0xFFFFFFFFFFFFFFFF DUP3 GT OR ISZERO PUSH2 0x521 JUMPI PUSH2 0x520 PUSH2 0x4CC JUMP JUMPDEST JUMPDEST DUP1 PUSH1 0x40 MSTORE POP POP POP JUMP JUMPDEST PUSH0 PUSH2 0x533 PUSH2 0x4B7 JUMP JUMPDEST SWAP1 POP PUSH2 0x53F DUP3 DUP3 PUSH2 0x4F9 JUMP JUMPDEST SWAP2 SWAP1 POP JUMP JUMPDEST PUSH0 PUSH8 0xFFFFFFFFFFFFFFFF DUP3 GT ISZERO PUSH2 0x55E JUMPI PUSH2 0x55D PUSH2 0x4CC JUMP JUMPDEST JUMPDEST PUSH1 0x20 DUP3 MUL SWAP1 POP PUSH1 0x20 DUP2 ADD SWAP1 POP SWAP2 SWAP1 POP JUMP JUMPDEST PUSH0 DUP1 REVERT JUMPDEST PUSH2 0x57C DUP2 PUSH2 0x486 JUMP JUMPDEST DUP2 EQ PUSH2 0x586 JUMPI PUSH0 DUP1 REVERT JUMPDEST POP JUMP JUMPDEST PUSH0 DUP2 CALLDATALOAD SWAP1 POP PUSH2 0x597 DUP2 PUSH2 0x573 JUMP JUMPDEST SWAP3 SWAP2 POP POP JUMP JUMPDEST PUSH0 PUSH2 0x5AF PUSH2 0x5AA DUP5 PUSH2 0x544 JUMP JUMPDEST PUSH2 0x52A JUMP JUMPDEST SWAP1 POP DUP1 DUP4 DUP3 MSTORE PUSH1 0x20 DUP3 ADD SWAP1 POP PUSH1 0x20 DUP5 MUL DUP4 ADD DUP6 DUP2 GT ISZERO PUSH2 0x5D2 JUMPI PUSH2 0x5D1 PUSH2 0x56F JUMP JUMPDEST JUMPDEST DUP4 JUMPDEST DUP2 DUP2 LT ISZERO PUSH2 0x5FB JUMPI DUP1 PUSH2 0x5E7 DUP9 DUP3 PUSH2 0x589 JUMP JUMPDEST DUP5 MSTORE PUSH1 0x20 DUP5 ADD SWAP4 POP POP PUSH1 0x20 DUP2 ADD SWAP1 POP PUSH2 0x5D4 JUMP JUMPDEST POP POP POP SWAP4 SWAP3 POP POP POP JUMP JUMPDEST PUSH0 DUP3 PUSH1 0x1F DUP4 ADD SLT PUSH2 0x619 JUMPI PUSH2 0x618 PUSH2 0x4C8 JUMP JUMPDEST JUMPDEST DUP2 CALLDATALOAD PUSH2 0x629 DUP5 DUP3 PUSH1 0x20 DUP7 ADD PUSH2 0x59D JUMP JUMPDEST SWAP2 POP POP SWAP3 SWAP2 POP POP JUMP JUMPDEST PUSH0 PUSH1 0x20 DUP3 DUP5 SUB SLT ISZERO PUSH2 0x647 JUMPI PUSH2 0x646 PUSH2 0x4C0 JUMP JUMPDEST JUMPDEST PUSH0 DUP3 ADD CALLDATALOAD PUSH8 0xFFFFFFFFFFFFFFFF DUP2 GT ISZERO PUSH2 0x664 JUMPI PUSH2 0x663 PUSH2 0x4C4 JUMP JUMPDEST JUMPDEST PUSH2 0x670 DUP5 DUP3 DUP6 ADD PUSH2 0x605 JUMP JUMPDEST SWAP2 POP POP SWAP3 SWAP2 POP POP JUMP JUMPDEST PUSH0 DUP2 MLOAD SWAP1 POP SWAP2 SWAP1 POP JUMP JUMPDEST PUSH0 DUP3 DUP3 MSTORE PUSH1 0x20 DUP3 ADD SWAP1 POP SWAP3 SWAP2 POP POP JUMP JUMPDEST PUSH0 DUP2 SWAP1 POP PUSH1 0x20 DUP3 ADD SWAP1 POP SWAP2 SWAP1 POP JUMP JUMPDEST PUSH2 0x6AB DUP2 PUSH2 0x486 JUMP JUMPDEST DUP3 MSTORE POP POP JUMP JUMPDEST PUSH0 PUSH2 0x6BC DUP4 DUP4 PUSH2 0x6A2 JUMP JUMPDEST PUSH1 0x20 DUP4 ADD SWAP1 POP SWAP3 SWAP2 POP POP JUMP JUMPDEST PUSH0 PUSH1 0x20 DUP3 ADD SWAP1 POP SWAP2 SWAP1 POP JUMP JUMPDEST PUSH0 PUSH2 0x6DE DUP3 PUSH2 0x679 JUMP JUMPDEST PUSH2 0x6E8 DUP2 DUP6 PUSH2 0x683 JUMP JUMPDEST SWAP4 POP PUSH2 0x6F3 DUP4 PUSH2 0x693 JUMP JUMPDEST DUP1 PUSH0 JUMPDEST DUP4 DUP2 LT ISZERO PUSH2 0x723 JUMPI DUP2 MLOAD PUSH2 0x70A DUP9 DUP3 PUSH2 0x6B1 JUMP JUMPDEST SWAP8 POP PUSH2 0x715 DUP4 PUSH2 0x6C8 JUMP JUMPDEST SWAP3 POP POP PUSH1 0x1 DUP2 ADD SWAP1 POP PUSH2 0x6F6 JUMP JUMPDEST POP DUP6 SWAP4 POP POP POP POP SWAP3 SWAP2 POP POP JUMP JUMPDEST PUSH0 PUSH1 0x20 DUP3 ADD SWAP1 POP DUP2 DUP2 SUB PUSH0 DUP4 ADD MSTORE PUSH2 0x748 DUP2 DUP5 PUSH2 0x6D4 JUMP JUMPDEST SWAP1 POP SWAP3 SWAP2 POP POP JUMP JUMPDEST PUSH0 DUP2 MLOAD SWAP1 POP SWAP2 SWAP1 POP JUMP JUMPDEST PUSH0 DUP3 DUP3 MSTORE PUSH1 0x20 DUP3 ADD SWAP1 POP SWAP3 SWAP2 POP POP JUMP JUMPDEST PUSH0 PUSH2 0x774 DUP3 PUSH2 0x750 JUMP JUMPDEST PUSH2 0x77E DUP2 DUP6 PUSH2 0x75A JUMP JUMPDEST SWAP4 POP PUSH2 0x78E DUP2 DUP6 PUSH1 0x20 DUP7 ADD PUSH2 0x410 JUMP JUMPDEST PUSH2 0x797 DUP2 PUSH2 0x41E JUMP JUMPDEST DUP5 ADD SWAP2 POP POP SWAP3 SWAP2 POP POP JUMP JUMPDEST PUSH0 PUSH1 0x20 DUP3 ADD SWAP1 POP DUP2 DUP2 SUB PUSH0 DUP4 ADD MSTORE PUSH2 0x7BA DUP2 DUP5 PUSH2 0x76A JUMP JUMPDEST SWAP1 POP SWAP3 SWAP2 POP POP JUMP JUMPDEST PUSH0 PUSH20 0xFFFFFFFFFFFFFFFFFFFFFFFFFFFFFFFFFFFFFFFF DUP3 AND SWAP1 POP SWAP2 SWAP1 POP JUMP JUMPDEST PUSH0 PUSH2 0x7EB DUP3 PUSH2 0x7C2 JUMP JUMPDEST SWAP1 POP SWAP2 SWAP1 POP JUMP JUMPDEST PUSH2 0x7FB DUP2 PUSH2 0x7E1 JUMP JUMPDEST DUP3 MSTORE POP POP JUMP JUMPDEST PUSH0 PUSH1 0x20 DUP3 ADD SWAP1 POP PUSH2 0x814 PUSH0 DUP4 ADD DUP5 PUSH2 0x7F2 JUMP JUMPDEST SWAP3 SWAP2 POP POP JUMP JUMPDEST PUSH32 0x4E487B7100000000000000000000000000000000000000000000000000000000 PUSH0 MSTORE PUSH1 0x32 PUSH1 0x4 MSTORE PUSH1 0x24 PUSH0 REVERT JUMPDEST PUSH32 0x4E487B7100000000000000000000000000000000000000000000000000000000 PUSH0 MSTORE PUSH1 0x11 PUSH1 0x4 MSTORE PUSH1 0x24 PUSH0 REVERT JUMPDEST PUSH0 PUSH2 0x87E DUP3 PUSH2 0x486 JUMP JUMPDEST SWAP2 POP PUSH2 0x889 DUP4 PUSH2 0x486 JUMP JUMPDEST SWAP3 POP DUP3 DUP3 SUB SWAP1 POP DUP2 DUP2 GT ISZERO PUSH2 0x8A1 JUMPI PUSH2 0x8A0 PUSH2 0x847 JUMP JUMPDEST JUMPDEST SWAP3 SWAP2 POP POP JUMP JUMPDEST PUSH0 PUSH2 0x8B1 DUP3 PUSH2 0x486 JUMP JUMPDEST SWAP2 POP PUSH0 DUP3 SUB PUSH2 0x8C3 JUMPI PUSH2 0x8C2 PUSH2 0x847 JUMP JUMPDEST JUMPDEST PUSH1 0x1 DUP3 SUB SWAP1 POP SWAP2 SWAP1 POP JUMP INVALID LOG2 PUSH5 0x6970667358 0x22 SLT KECCAK256 0x2C DELEGATECALL SWAP2 0x2A LOG0 0xC9 0xEE SWAP5 0xE1 0xCD 0xE6 SWAP14 DELEGATECALL 0xAE 0xE0 CALLDATALOAD 0xE6 0xDC 0xD2 0x22 0xAF PUSH0 STOP PUSH10 0xDE0E468FFAD68C06473 PUSH16 0x6C634300081A00330000000000000000 "
				},
				"gasEstimates": {
					"creation": {
						"codeDepositCost": "461600",
						"executionCost": "infinite",
						"totalCost": "infinite"
					},
					"external": {
						"CONSTANT_ADDRESS()": "394",
						"CONSTANT_BYTES()": "infinite",
						"CONSTANT_NUM()": "370",
						"CONSTANT_STRING()": "infinite",
						"IMMUTABLE_ADDRESS()": "infinite",
						"IMMUTABLE_BLOCK()": "infinite",
						"IMMUTABLE_NUM()": "infinite",
						"IMMUTABLE_TEST()": "infinite",
						"insertionSort(uint256[])": "infinite",
						"test()": "433"
					}
				},
				"methodIdentifiers": {
					"CONSTANT_ADDRESS()": "858e0403",
					"CONSTANT_BYTES()": "79135c7d",
					"CONSTANT_NUM()": "2314d48c",
					"CONSTANT_STRING()": "1adead50",
					"IMMUTABLE_ADDRESS()": "f1513021",
					"IMMUTABLE_BLOCK()": "1d9afdd2",
					"IMMUTABLE_NUM()": "ed7ff875",
					"IMMUTABLE_TEST()": "4064572e",
					"insertionSort(uint256[])": "6297206f",
					"test()": "f8a8fd6d"
				}
			},
			"storageLayout": {
				"storage": [],
				"types": null
			},
			"userdoc": {
				"kind": "user",
				"methods": {},
				"version": 1
			}
		}
	}
}