{
	"contracts/Error.sol": {
		"Errors": {
			"abi": [
				{
					"inputs": [
						{
							"internalType": "string",
							"name": "msg",
							"type": "string"
						}
					],
					"name": "TransferNotOwner",
					"type": "error"
				},
				{
					"anonymous": false,
					"inputs": [
						{
							"indexed": false,
							"internalType": "address",
							"name": "address1",
							"type": "address"
						}
					],
					"name": "Log",
					"type": "event"
				},
				{
					"inputs": [
						{
							"internalType": "uint8",
							"name": "_in",
							"type": "uint8"
						}
					],
					"name": "f",
					"outputs": [
						{
							"internalType": "uint8",
							"name": "out",
							"type": "uint8"
						}
					],
					"stateMutability": "pure",
					"type": "function"
				},
				{
					"inputs": [
						{
							"internalType": "string",
							"name": "_in",
							"type": "string"
						}
					],
					"name": "f",
					"outputs": [
						{
							"internalType": "string",
							"name": "out",
							"type": "string"
						}
					],
					"stateMutability": "pure",
					"type": "function"
				},
				{
					"inputs": [
						{
							"internalType": "uint256",
							"name": "tokenId",
							"type": "uint256"
						},
						{
							"internalType": "address",
							"name": "address1",
							"type": "address"
						}
					],
					"name": "setOwner",
					"outputs": [],
					"stateMutability": "nonpayable",
					"type": "function"
				},
				{
					"inputs": [
						{
							"internalType": "uint256",
							"name": "tokenId",
							"type": "uint256"
						},
						{
							"internalType": "address",
							"name": "newOwner",
							"type": "address"
						}
					],
					"name": "transferOwner1",
					"outputs": [],
					"stateMutability": "nonpayable",
					"type": "function"
				},
				{
					"inputs": [
						{
							"internalType": "uint256",
							"name": "tokenId",
							"type": "uint256"
						},
						{
							"internalType": "address",
							"name": "newOwner",
							"type": "address"
						}
					],
					"name": "transferOwner2",
					"outputs": [],
					"stateMutability": "nonpayable",
					"type": "function"
				},
				{
					"inputs": [
						{
							"internalType": "uint256",
							"name": "tokenId",
							"type": "uint256"
						},
						{
							"internalType": "address",
							"name": "newOwner",
							"type": "address"
						}
					],
					"name": "transferOwner3",
					"outputs": [],
					"stateMutability": "nonpayable",
					"type": "function"
				}
			],
			"devdoc": {
				"kind": "dev",
				"methods": {},
				"version": 1
			},
			"evm": {
				"assembly": "    /* \"contracts/Error.sol\":273:1572  contract Errors {... */\n  mstore(0x40, 0x80)\n  callvalue\n  dup1\n  iszero\n  tag_1\n  jumpi\n  0x00\n  dup1\n  revert\ntag_1:\n  pop\n  dataSize(sub_0)\n  dup1\n  dataOffset(sub_0)\n  0x00\n  codecopy\n  0x00\n  return\nstop\n\nsub_0: assembly {\n        /* \"contracts/Error.sol\":273:1572  contract Errors {... */\n      mstore(0x40, 0x80)\n      callvalue\n      dup1\n      iszero\n      tag_1\n      jumpi\n      0x00\n      dup1\n      revert\n    tag_1:\n      pop\n      jumpi(tag_2, lt(calldatasize, 0x04))\n      shr(0xe0, calldataload(0x00))\n      dup1\n      0x0f4be868\n      eq\n      tag_3\n      jumpi\n      dup1\n      0x3120d434\n      eq\n      tag_4\n      jumpi\n      dup1\n      0x488d9f60\n      eq\n      tag_5\n      jumpi\n      dup1\n      0x7fd39247\n      eq\n      tag_6\n      jumpi\n      dup1\n      0x83f5e67e\n      eq\n      tag_7\n      jumpi\n      dup1\n      0x91e145ef\n      eq\n      tag_8\n      jumpi\n    tag_2:\n      0x00\n      dup1\n      revert\n        /* \"contracts/Error.sol\":676:958  function transferOwner1(uint256 tokenId, address newOwner) public {... */\n    tag_3:\n      tag_9\n      0x04\n      dup1\n      calldatasize\n      sub\n      dup2\n      add\n      swap1\n      tag_10\n      swap2\n      swap1\n      tag_11\n      jump\t// in\n    tag_10:\n      tag_12\n      jump\t// in\n    tag_9:\n      stop\n        /* \"contracts/Error.sol\":1388:1468  function f(uint8 _in) public pure returns (uint8 out) {... */\n    tag_4:\n      tag_13\n      0x04\n      dup1\n      calldatasize\n      sub\n      dup2\n      add\n      swap1\n      tag_14\n      swap2\n      swap1\n      tag_15\n      jump\t// in\n    tag_14:\n      tag_16\n      jump\t// in\n    tag_13:\n      mload(0x40)\n      tag_17\n      swap2\n      swap1\n      tag_18\n      jump\t// in\n    tag_17:\n      mload(0x40)\n      dup1\n      swap2\n      sub\n      swap1\n      return\n        /* \"contracts/Error.sol\":1224:1382  function transferOwner3(uint256 tokenId, address newOwner) public {... */\n    tag_5:\n      tag_19\n      0x04\n      dup1\n      calldatasize\n      sub\n      dup2\n      add\n      swap1\n      tag_20\n      swap2\n      swap1\n      tag_11\n      jump\t// in\n    tag_20:\n      tag_21\n      jump\t// in\n    tag_19:\n      stop\n        /* \"contracts/Error.sol\":457:591  function setOwner(uint256 tokenId, address address1) public {... */\n    tag_6:\n      tag_22\n      0x04\n      dup1\n      calldatasize\n      sub\n      dup2\n      add\n      swap1\n      tag_23\n      swap2\n      swap1\n      tag_11\n      jump\t// in\n    tag_23:\n      tag_24\n      jump\t// in\n    tag_22:\n      stop\n        /* \"contracts/Error.sol\":1001:1182  function transferOwner2(uint256 tokenId, address newOwner) public {... */\n    tag_7:\n      tag_25\n      0x04\n      dup1\n      calldatasize\n      sub\n      dup2\n      add\n      swap1\n      tag_26\n      swap2\n      swap1\n      tag_11\n      jump\t// in\n    tag_26:\n      tag_27\n      jump\t// in\n    tag_25:\n      stop\n        /* \"contracts/Error.sol\":1474:1570  function f(string memory _in) public pure returns (string memory out) {... */\n    tag_8:\n      tag_28\n      0x04\n      dup1\n      calldatasize\n      sub\n      dup2\n      add\n      swap1\n      tag_29\n      swap2\n      swap1\n      tag_30\n      jump\t// in\n    tag_29:\n      tag_31\n      jump\t// in\n    tag_28:\n      mload(0x40)\n      tag_32\n      swap2\n      swap1\n      tag_33\n      jump\t// in\n    tag_32:\n      mload(0x40)\n      dup1\n      swap2\n      sub\n      swap1\n      return\n        /* \"contracts/Error.sol\":676:958  function transferOwner1(uint256 tokenId, address newOwner) public {... */\n    tag_12:\n        /* \"contracts/Error.sol\":776:786  msg.sender */\n      caller\n        /* \"contracts/Error.sol\":756:786  _owners[tokenId] == msg.sender */\n      0xffffffffffffffffffffffffffffffffffffffff\n      and\n        /* \"contracts/Error.sol\":756:763  _owners */\n      0x00\n        /* \"contracts/Error.sol\":756:772  _owners[tokenId] */\n      dup1\n        /* \"contracts/Error.sol\":764:771  tokenId */\n      dup5\n        /* \"contracts/Error.sol\":756:772  _owners[tokenId] */\n      dup2\n      mstore\n      0x20\n      add\n      swap1\n      dup2\n      mstore\n      0x20\n      add\n      0x00\n      keccak256\n      0x00\n      swap1\n      sload\n      swap1\n      0x0100\n      exp\n      swap1\n      div\n      0xffffffffffffffffffffffffffffffffffffffff\n      and\n        /* \"contracts/Error.sol\":756:786  _owners[tokenId] == msg.sender */\n      0xffffffffffffffffffffffffffffffffffffffff\n      and\n      sub\n        /* \"contracts/Error.sol\":752:915  if (_owners[tokenId] == msg.sender) {... */\n      tag_35\n      jumpi\n        /* \"contracts/Error.sol\":809:852  TransferNotOwner(\"Transfer Not Owner test\") */\n      mload(0x40)\n      0x1cd3e58300000000000000000000000000000000000000000000000000000000\n      dup2\n      mstore\n      0x04\n      add\n      tag_36\n      swap1\n      tag_37\n      jump\t// in\n    tag_36:\n      mload(0x40)\n      dup1\n      swap2\n      sub\n      swap1\n      revert\n        /* \"contracts/Error.sol\":752:915  if (_owners[tokenId] == msg.sender) {... */\n    tag_35:\n        /* \"contracts/Error.sol\":943:951  newOwner */\n      dup1\n        /* \"contracts/Error.sol\":924:931  _owners */\n      0x00\n        /* \"contracts/Error.sol\":924:940  _owners[tokenId] */\n      dup1\n        /* \"contracts/Error.sol\":932:939  tokenId */\n      dup5\n        /* \"contracts/Error.sol\":924:940  _owners[tokenId] */\n      dup2\n      mstore\n      0x20\n      add\n      swap1\n      dup2\n      mstore\n      0x20\n      add\n      0x00\n      keccak256\n      0x00\n        /* \"contracts/Error.sol\":924:951  _owners[tokenId] = newOwner */\n      0x0100\n      exp\n      dup2\n      sload\n      dup2\n      0xffffffffffffffffffffffffffffffffffffffff\n      mul\n      not\n      and\n      swap1\n      dup4\n      0xffffffffffffffffffffffffffffffffffffffff\n      and\n      mul\n      or\n      swap1\n      sstore\n      pop\n        /* \"contracts/Error.sol\":676:958  function transferOwner1(uint256 tokenId, address newOwner) public {... */\n      pop\n      pop\n      jump\t// out\n        /* \"contracts/Error.sol\":1388:1468  function f(uint8 _in) public pure returns (uint8 out) {... */\n    tag_16:\n        /* \"contracts/Error.sol\":1431:1440  uint8 out */\n      0x00\n        /* \"contracts/Error.sol\":1458:1461  _in */\n      dup2\n        /* \"contracts/Error.sol\":1452:1461  out = _in */\n      swap1\n      pop\n        /* \"contracts/Error.sol\":1388:1468  function f(uint8 _in) public pure returns (uint8 out) {... */\n      swap2\n      swap1\n      pop\n      jump\t// out\n        /* \"contracts/Error.sol\":1224:1382  function transferOwner3(uint256 tokenId, address newOwner) public {... */\n    tag_21:\n        /* \"contracts/Error.sol\":1327:1337  msg.sender */\n      caller\n        /* \"contracts/Error.sol\":1307:1337  _owners[tokenId] == msg.sender */\n      0xffffffffffffffffffffffffffffffffffffffff\n      and\n        /* \"contracts/Error.sol\":1307:1314  _owners */\n      0x00\n        /* \"contracts/Error.sol\":1307:1323  _owners[tokenId] */\n      dup1\n        /* \"contracts/Error.sol\":1315:1322  tokenId */\n      dup5\n        /* \"contracts/Error.sol\":1307:1323  _owners[tokenId] */\n      dup2\n      mstore\n      0x20\n      add\n      swap1\n      dup2\n      mstore\n      0x20\n      add\n      0x00\n      keccak256\n      0x00\n      swap1\n      sload\n      swap1\n      0x0100\n      exp\n      swap1\n      div\n      0xffffffffffffffffffffffffffffffffffffffff\n      and\n        /* \"contracts/Error.sol\":1307:1337  _owners[tokenId] == msg.sender */\n      0xffffffffffffffffffffffffffffffffffffffff\n      and\n      eq\n        /* \"contracts/Error.sol\":1300:1338  assert(_owners[tokenId] == msg.sender) */\n      tag_40\n      jumpi\n      tag_41\n      tag_42\n      jump\t// in\n    tag_41:\n    tag_40:\n        /* \"contracts/Error.sol\":1367:1375  newOwner */\n      dup1\n        /* \"contracts/Error.sol\":1348:1355  _owners */\n      0x00\n        /* \"contracts/Error.sol\":1348:1364  _owners[tokenId] */\n      dup1\n        /* \"contracts/Error.sol\":1356:1363  tokenId */\n      dup5\n        /* \"contracts/Error.sol\":1348:1364  _owners[tokenId] */\n      dup2\n      mstore\n      0x20\n      add\n      swap1\n      dup2\n      mstore\n      0x20\n      add\n      0x00\n      keccak256\n      0x00\n        /* \"contracts/Error.sol\":1348:1375  _owners[tokenId] = newOwner */\n      0x0100\n      exp\n      dup2\n      sload\n      dup2\n      0xffffffffffffffffffffffffffffffffffffffff\n      mul\n      not\n      and\n      swap1\n      dup4\n      0xffffffffffffffffffffffffffffffffffffffff\n      and\n      mul\n      or\n      swap1\n      sstore\n      pop\n        /* \"contracts/Error.sol\":1224:1382  function transferOwner3(uint256 tokenId, address newOwner) public {... */\n      pop\n      pop\n      jump\t// out\n        /* \"contracts/Error.sol\":457:591  function setOwner(uint256 tokenId, address address1) public {... */\n    tag_24:\n        /* \"contracts/Error.sol\":532:547  Log(msg.sender) */\n      0xb8a00d6d8ca1be30bfec34d8f97e55f0f0fd9eeb7fb46e030516363d4cfe1ad6\n        /* \"contracts/Error.sol\":536:546  msg.sender */\n      caller\n        /* \"contracts/Error.sol\":532:547  Log(msg.sender) */\n      mload(0x40)\n      tag_44\n      swap2\n      swap1\n      tag_45\n      jump\t// in\n    tag_44:\n      mload(0x40)\n      dup1\n      swap2\n      sub\n      swap1\n      log1\n        /* \"contracts/Error.sol\":576:584  address1 */\n      dup1\n        /* \"contracts/Error.sol\":557:564  _owners */\n      0x00\n        /* \"contracts/Error.sol\":557:573  _owners[tokenId] */\n      dup1\n        /* \"contracts/Error.sol\":565:572  tokenId */\n      dup5\n        /* \"contracts/Error.sol\":557:573  _owners[tokenId] */\n      dup2\n      mstore\n      0x20\n      add\n      swap1\n      dup2\n      mstore\n      0x20\n      add\n      0x00\n      keccak256\n      0x00\n        /* \"contracts/Error.sol\":557:584  _owners[tokenId] = address1 */\n      0x0100\n      exp\n      dup2\n      sload\n      dup2\n      0xffffffffffffffffffffffffffffffffffffffff\n      mul\n      not\n      and\n      swap1\n      dup4\n      0xffffffffffffffffffffffffffffffffffffffff\n      and\n      mul\n      or\n      swap1\n      sstore\n      pop\n        /* \"contracts/Error.sol\":457:591  function setOwner(uint256 tokenId, address address1) public {... */\n      pop\n      pop\n      jump\t// out\n        /* \"contracts/Error.sol\":1001:1182  function transferOwner2(uint256 tokenId, address newOwner) public {... */\n    tag_27:\n        /* \"contracts/Error.sol\":1105:1115  msg.sender */\n      caller\n        /* \"contracts/Error.sol\":1085:1115  _owners[tokenId] == msg.sender */\n      0xffffffffffffffffffffffffffffffffffffffff\n      and\n        /* \"contracts/Error.sol\":1085:1092  _owners */\n      0x00\n        /* \"contracts/Error.sol\":1085:1101  _owners[tokenId] */\n      dup1\n        /* \"contracts/Error.sol\":1093:1100  tokenId */\n      dup5\n        /* \"contracts/Error.sol\":1085:1101  _owners[tokenId] */\n      dup2\n      mstore\n      0x20\n      add\n      swap1\n      dup2\n      mstore\n      0x20\n      add\n      0x00\n      keccak256\n      0x00\n      swap1\n      sload\n      swap1\n      0x0100\n      exp\n      swap1\n      div\n      0xffffffffffffffffffffffffffffffffffffffff\n      and\n        /* \"contracts/Error.sol\":1085:1115  _owners[tokenId] == msg.sender */\n      0xffffffffffffffffffffffffffffffffffffffff\n      and\n      eq\n        /* \"contracts/Error.sol\":1077:1138  require(_owners[tokenId] == msg.sender, \"Transfer Not Owner\") */\n      tag_47\n      jumpi\n      mload(0x40)\n      0x08c379a000000000000000000000000000000000000000000000000000000000\n      dup2\n      mstore\n      0x04\n      add\n      tag_48\n      swap1\n      tag_49\n      jump\t// in\n    tag_48:\n      mload(0x40)\n      dup1\n      swap2\n      sub\n      swap1\n      revert\n    tag_47:\n        /* \"contracts/Error.sol\":1167:1175  newOwner */\n      dup1\n        /* \"contracts/Error.sol\":1148:1155  _owners */\n      0x00\n        /* \"contracts/Error.sol\":1148:1164  _owners[tokenId] */\n      dup1\n        /* \"contracts/Error.sol\":1156:1163  tokenId */\n      dup5\n        /* \"contracts/Error.sol\":1148:1164  _owners[tokenId] */\n      dup2\n      mstore\n      0x20\n      add\n      swap1\n      dup2\n      mstore\n      0x20\n      add\n      0x00\n      keccak256\n      0x00\n        /* \"contracts/Error.sol\":1148:1175  _owners[tokenId] = newOwner */\n      0x0100\n      exp\n      dup2\n      sload\n      dup2\n      0xffffffffffffffffffffffffffffffffffffffff\n      mul\n      not\n      and\n      swap1\n      dup4\n      0xffffffffffffffffffffffffffffffffffffffff\n      and\n      mul\n      or\n      swap1\n      sstore\n      pop\n        /* \"contracts/Error.sol\":1001:1182  function transferOwner2(uint256 tokenId, address newOwner) public {... */\n      pop\n      pop\n      jump\t// out\n        /* \"contracts/Error.sol\":1474:1570  function f(string memory _in) public pure returns (string memory out) {... */\n    tag_31:\n        /* \"contracts/Error.sol\":1525:1542  string memory out */\n      0x60\n        /* \"contracts/Error.sol\":1560:1563  _in */\n      dup2\n        /* \"contracts/Error.sol\":1554:1563  out = _in */\n      swap1\n      pop\n        /* \"contracts/Error.sol\":1474:1570  function f(string memory _in) public pure returns (string memory out) {... */\n      swap2\n      swap1\n      pop\n      jump\t// out\n        /* \"#utility.yul\":7:82   */\n    tag_51:\n        /* \"#utility.yul\":40:46   */\n      0x00\n        /* \"#utility.yul\":73:75   */\n      0x40\n        /* \"#utility.yul\":67:76   */\n      mload\n        /* \"#utility.yul\":57:76   */\n      swap1\n      pop\n        /* \"#utility.yul\":7:82   */\n      swap1\n      jump\t// out\n        /* \"#utility.yul\":88:205   */\n    tag_52:\n        /* \"#utility.yul\":197:198   */\n      0x00\n        /* \"#utility.yul\":194:195   */\n      dup1\n        /* \"#utility.yul\":187:199   */\n      revert\n        /* \"#utility.yul\":211:328   */\n    tag_53:\n        /* \"#utility.yul\":320:321   */\n      0x00\n        /* \"#utility.yul\":317:318   */\n      dup1\n        /* \"#utility.yul\":310:322   */\n      revert\n        /* \"#utility.yul\":334:411   */\n    tag_54:\n        /* \"#utility.yul\":371:378   */\n      0x00\n        /* \"#utility.yul\":400:405   */\n      dup2\n        /* \"#utility.yul\":389:405   */\n      swap1\n      pop\n        /* \"#utility.yul\":334:411   */\n      swap2\n      swap1\n      pop\n      jump\t// out\n        /* \"#utility.yul\":417:539   */\n    tag_55:\n        /* \"#utility.yul\":490:514   */\n      tag_90\n        /* \"#utility.yul\":508:513   */\n      dup2\n        /* \"#utility.yul\":490:514   */\n      tag_54\n      jump\t// in\n    tag_90:\n        /* \"#utility.yul\":483:488   */\n      dup2\n        /* \"#utility.yul\":480:515   */\n      eq\n        /* \"#utility.yul\":470:533   */\n      tag_91\n      jumpi\n        /* \"#utility.yul\":529:530   */\n      0x00\n        /* \"#utility.yul\":526:527   */\n      dup1\n        /* \"#utility.yul\":519:531   */\n      revert\n        /* \"#utility.yul\":470:533   */\n    tag_91:\n        /* \"#utility.yul\":417:539   */\n      pop\n      jump\t// out\n        /* \"#utility.yul\":545:684   */\n    tag_56:\n        /* \"#utility.yul\":591:596   */\n      0x00\n        /* \"#utility.yul\":629:635   */\n      dup2\n        /* \"#utility.yul\":616:636   */\n      calldataload\n        /* \"#utility.yul\":607:636   */\n      swap1\n      pop\n        /* \"#utility.yul\":645:678   */\n      tag_93\n        /* \"#utility.yul\":672:677   */\n      dup2\n        /* \"#utility.yul\":645:678   */\n      tag_55\n      jump\t// in\n    tag_93:\n        /* \"#utility.yul\":545:684   */\n      swap3\n      swap2\n      pop\n      pop\n      jump\t// out\n        /* \"#utility.yul\":690:816   */\n    tag_57:\n        /* \"#utility.yul\":727:734   */\n      0x00\n        /* \"#utility.yul\":767:809   */\n      0xffffffffffffffffffffffffffffffffffffffff\n        /* \"#utility.yul\":760:765   */\n      dup3\n        /* \"#utility.yul\":756:810   */\n      and\n        /* \"#utility.yul\":745:810   */\n      swap1\n      pop\n        /* \"#utility.yul\":690:816   */\n      swap2\n      swap1\n      pop\n      jump\t// out\n        /* \"#utility.yul\":822:918   */\n    tag_58:\n        /* \"#utility.yul\":859:866   */\n      0x00\n        /* \"#utility.yul\":888:912   */\n      tag_96\n        /* \"#utility.yul\":906:911   */\n      dup3\n        /* \"#utility.yul\":888:912   */\n      tag_57\n      jump\t// in\n    tag_96:\n        /* \"#utility.yul\":877:912   */\n      swap1\n      pop\n        /* \"#utility.yul\":822:918   */\n      swap2\n      swap1\n      pop\n      jump\t// out\n        /* \"#utility.yul\":924:1046   */\n    tag_59:\n        /* \"#utility.yul\":997:1021   */\n      tag_98\n        /* \"#utility.yul\":1015:1020   */\n      dup2\n        /* \"#utility.yul\":997:1021   */\n      tag_58\n      jump\t// in\n    tag_98:\n        /* \"#utility.yul\":990:995   */\n      dup2\n        /* \"#utility.yul\":987:1022   */\n      eq\n        /* \"#utility.yul\":977:1040   */\n      tag_99\n      jumpi\n        /* \"#utility.yul\":1036:1037   */\n      0x00\n        /* \"#utility.yul\":1033:1034   */\n      dup1\n        /* \"#utility.yul\":1026:1038   */\n      revert\n        /* \"#utility.yul\":977:1040   */\n    tag_99:\n        /* \"#utility.yul\":924:1046   */\n      pop\n      jump\t// out\n        /* \"#utility.yul\":1052:1191   */\n    tag_60:\n        /* \"#utility.yul\":1098:1103   */\n      0x00\n        /* \"#utility.yul\":1136:1142   */\n      dup2\n        /* \"#utility.yul\":1123:1143   */\n      calldataload\n        /* \"#utility.yul\":1114:1143   */\n      swap1\n      pop\n        /* \"#utility.yul\":1152:1185   */\n      tag_101\n        /* \"#utility.yul\":1179:1184   */\n      dup2\n        /* \"#utility.yul\":1152:1185   */\n      tag_59\n      jump\t// in\n    tag_101:\n        /* \"#utility.yul\":1052:1191   */\n      swap3\n      swap2\n      pop\n      pop\n      jump\t// out\n        /* \"#utility.yul\":1197:1671   */\n    tag_11:\n        /* \"#utility.yul\":1265:1271   */\n      0x00\n        /* \"#utility.yul\":1273:1279   */\n      dup1\n        /* \"#utility.yul\":1322:1324   */\n      0x40\n        /* \"#utility.yul\":1310:1319   */\n      dup4\n        /* \"#utility.yul\":1301:1308   */\n      dup6\n        /* \"#utility.yul\":1297:1320   */\n      sub\n        /* \"#utility.yul\":1293:1325   */\n      slt\n        /* \"#utility.yul\":1290:1409   */\n      iszero\n      tag_103\n      jumpi\n        /* \"#utility.yul\":1328:1407   */\n      tag_104\n      tag_52\n      jump\t// in\n    tag_104:\n        /* \"#utility.yul\":1290:1409   */\n    tag_103:\n        /* \"#utility.yul\":1448:1449   */\n      0x00\n        /* \"#utility.yul\":1473:1526   */\n      tag_105\n        /* \"#utility.yul\":1518:1525   */\n      dup6\n        /* \"#utility.yul\":1509:1515   */\n      dup3\n        /* \"#utility.yul\":1498:1507   */\n      dup7\n        /* \"#utility.yul\":1494:1516   */\n      add\n        /* \"#utility.yul\":1473:1526   */\n      tag_56\n      jump\t// in\n    tag_105:\n        /* \"#utility.yul\":1463:1526   */\n      swap3\n      pop\n        /* \"#utility.yul\":1419:1536   */\n      pop\n        /* \"#utility.yul\":1575:1577   */\n      0x20\n        /* \"#utility.yul\":1601:1654   */\n      tag_106\n        /* \"#utility.yul\":1646:1653   */\n      dup6\n        /* \"#utility.yul\":1637:1643   */\n      dup3\n        /* \"#utility.yul\":1626:1635   */\n      dup7\n        /* \"#utility.yul\":1622:1644   */\n      add\n        /* \"#utility.yul\":1601:1654   */\n      tag_60\n      jump\t// in\n    tag_106:\n        /* \"#utility.yul\":1591:1654   */\n      swap2\n      pop\n        /* \"#utility.yul\":1546:1664   */\n      pop\n        /* \"#utility.yul\":1197:1671   */\n      swap3\n      pop\n      swap3\n      swap1\n      pop\n      jump\t// out\n        /* \"#utility.yul\":1677:1763   */\n    tag_61:\n        /* \"#utility.yul\":1712:1719   */\n      0x00\n        /* \"#utility.yul\":1752:1756   */\n      0xff\n        /* \"#utility.yul\":1745:1750   */\n      dup3\n        /* \"#utility.yul\":1741:1757   */\n      and\n        /* \"#utility.yul\":1730:1757   */\n      swap1\n      pop\n        /* \"#utility.yul\":1677:1763   */\n      swap2\n      swap1\n      pop\n      jump\t// out\n        /* \"#utility.yul\":1769:1887   */\n    tag_62:\n        /* \"#utility.yul\":1840:1862   */\n      tag_109\n        /* \"#utility.yul\":1856:1861   */\n      dup2\n        /* \"#utility.yul\":1840:1862   */\n      tag_61\n      jump\t// in\n    tag_109:\n        /* \"#utility.yul\":1833:1838   */\n      dup2\n        /* \"#utility.yul\":1830:1863   */\n      eq\n        /* \"#utility.yul\":1820:1881   */\n      tag_110\n      jumpi\n        /* \"#utility.yul\":1877:1878   */\n      0x00\n        /* \"#utility.yul\":1874:1875   */\n      dup1\n        /* \"#utility.yul\":1867:1879   */\n      revert\n        /* \"#utility.yul\":1820:1881   */\n    tag_110:\n        /* \"#utility.yul\":1769:1887   */\n      pop\n      jump\t// out\n        /* \"#utility.yul\":1893:2028   */\n    tag_63:\n        /* \"#utility.yul\":1937:1942   */\n      0x00\n        /* \"#utility.yul\":1975:1981   */\n      dup2\n        /* \"#utility.yul\":1962:1982   */\n      calldataload\n        /* \"#utility.yul\":1953:1982   */\n      swap1\n      pop\n        /* \"#utility.yul\":1991:2022   */\n      tag_112\n        /* \"#utility.yul\":2016:2021   */\n      dup2\n        /* \"#utility.yul\":1991:2022   */\n      tag_62\n      jump\t// in\n    tag_112:\n        /* \"#utility.yul\":1893:2028   */\n      swap3\n      swap2\n      pop\n      pop\n      jump\t// out\n        /* \"#utility.yul\":2034:2359   */\n    tag_15:\n        /* \"#utility.yul\":2091:2097   */\n      0x00\n        /* \"#utility.yul\":2140:2142   */\n      0x20\n        /* \"#utility.yul\":2128:2137   */\n      dup3\n        /* \"#utility.yul\":2119:2126   */\n      dup5\n        /* \"#utility.yul\":2115:2138   */\n      sub\n        /* \"#utility.yul\":2111:2143   */\n      slt\n        /* \"#utility.yul\":2108:2227   */\n      iszero\n      tag_114\n      jumpi\n        /* \"#utility.yul\":2146:2225   */\n      tag_115\n      tag_52\n      jump\t// in\n    tag_115:\n        /* \"#utility.yul\":2108:2227   */\n    tag_114:\n        /* \"#utility.yul\":2266:2267   */\n      0x00\n        /* \"#utility.yul\":2291:2342   */\n      tag_116\n        /* \"#utility.yul\":2334:2341   */\n      dup5\n        /* \"#utility.yul\":2325:2331   */\n      dup3\n        /* \"#utility.yul\":2314:2323   */\n      dup6\n        /* \"#utility.yul\":2310:2332   */\n      add\n        /* \"#utility.yul\":2291:2342   */\n      tag_63\n      jump\t// in\n    tag_116:\n        /* \"#utility.yul\":2281:2342   */\n      swap2\n      pop\n        /* \"#utility.yul\":2237:2352   */\n      pop\n        /* \"#utility.yul\":2034:2359   */\n      swap3\n      swap2\n      pop\n      pop\n      jump\t// out\n        /* \"#utility.yul\":2365:2477   */\n    tag_64:\n        /* \"#utility.yul\":2448:2470   */\n      tag_118\n        /* \"#utility.yul\":2464:2469   */\n      dup2\n        /* \"#utility.yul\":2448:2470   */\n      tag_61\n      jump\t// in\n    tag_118:\n        /* \"#utility.yul\":2443:2446   */\n      dup3\n        /* \"#utility.yul\":2436:2471   */\n      mstore\n        /* \"#utility.yul\":2365:2477   */\n      pop\n      pop\n      jump\t// out\n        /* \"#utility.yul\":2483:2697   */\n    tag_18:\n        /* \"#utility.yul\":2572:2576   */\n      0x00\n        /* \"#utility.yul\":2610:2612   */\n      0x20\n        /* \"#utility.yul\":2599:2608   */\n      dup3\n        /* \"#utility.yul\":2595:2613   */\n      add\n        /* \"#utility.yul\":2587:2613   */\n      swap1\n      pop\n        /* \"#utility.yul\":2623:2690   */\n      tag_120\n        /* \"#utility.yul\":2687:2688   */\n      0x00\n        /* \"#utility.yul\":2676:2685   */\n      dup4\n        /* \"#utility.yul\":2672:2689   */\n      add\n        /* \"#utility.yul\":2663:2669   */\n      dup5\n        /* \"#utility.yul\":2623:2690   */\n      tag_64\n      jump\t// in\n    tag_120:\n        /* \"#utility.yul\":2483:2697   */\n      swap3\n      swap2\n      pop\n      pop\n      jump\t// out\n        /* \"#utility.yul\":2703:2820   */\n    tag_65:\n        /* \"#utility.yul\":2812:2813   */\n      0x00\n        /* \"#utility.yul\":2809:2810   */\n      dup1\n        /* \"#utility.yul\":2802:2814   */\n      revert\n        /* \"#utility.yul\":2826:2943   */\n    tag_66:\n        /* \"#utility.yul\":2935:2936   */\n      0x00\n        /* \"#utility.yul\":2932:2933   */\n      dup1\n        /* \"#utility.yul\":2925:2937   */\n      revert\n        /* \"#utility.yul\":2949:3051   */\n    tag_67:\n        /* \"#utility.yul\":2990:2996   */\n      0x00\n        /* \"#utility.yul\":3041:3043   */\n      0x1f\n        /* \"#utility.yul\":3037:3044   */\n      not\n        /* \"#utility.yul\":3032:3034   */\n      0x1f\n        /* \"#utility.yul\":3025:3030   */\n      dup4\n        /* \"#utility.yul\":3021:3035   */\n      add\n        /* \"#utility.yul\":3017:3045   */\n      and\n        /* \"#utility.yul\":3007:3045   */\n      swap1\n      pop\n        /* \"#utility.yul\":2949:3051   */\n      swap2\n      swap1\n      pop\n      jump\t// out\n        /* \"#utility.yul\":3057:3237   */\n    tag_68:\n        /* \"#utility.yul\":3105:3182   */\n      0x4e487b7100000000000000000000000000000000000000000000000000000000\n        /* \"#utility.yul\":3102:3103   */\n      0x00\n        /* \"#utility.yul\":3095:3183   */\n      mstore\n        /* \"#utility.yul\":3202:3206   */\n      0x41\n        /* \"#utility.yul\":3199:3200   */\n      0x04\n        /* \"#utility.yul\":3192:3207   */\n      mstore\n        /* \"#utility.yul\":3226:3230   */\n      0x24\n        /* \"#utility.yul\":3223:3224   */\n      0x00\n        /* \"#utility.yul\":3216:3231   */\n      revert\n        /* \"#utility.yul\":3243:3524   */\n    tag_69:\n        /* \"#utility.yul\":3326:3353   */\n      tag_126\n        /* \"#utility.yul\":3348:3352   */\n      dup3\n        /* \"#utility.yul\":3326:3353   */\n      tag_67\n      jump\t// in\n    tag_126:\n        /* \"#utility.yul\":3318:3324   */\n      dup2\n        /* \"#utility.yul\":3314:3354   */\n      add\n        /* \"#utility.yul\":3456:3462   */\n      dup2\n        /* \"#utility.yul\":3444:3454   */\n      dup2\n        /* \"#utility.yul\":3441:3463   */\n      lt\n        /* \"#utility.yul\":3420:3438   */\n      0xffffffffffffffff\n        /* \"#utility.yul\":3408:3418   */\n      dup3\n        /* \"#utility.yul\":3405:3439   */\n      gt\n        /* \"#utility.yul\":3402:3464   */\n      or\n        /* \"#utility.yul\":3399:3487   */\n      iszero\n      tag_127\n      jumpi\n        /* \"#utility.yul\":3467:3485   */\n      tag_128\n      tag_68\n      jump\t// in\n    tag_128:\n        /* \"#utility.yul\":3399:3487   */\n    tag_127:\n        /* \"#utility.yul\":3507:3517   */\n      dup1\n        /* \"#utility.yul\":3503:3505   */\n      0x40\n        /* \"#utility.yul\":3496:3518   */\n      mstore\n        /* \"#utility.yul\":3286:3524   */\n      pop\n        /* \"#utility.yul\":3243:3524   */\n      pop\n      pop\n      jump\t// out\n        /* \"#utility.yul\":3530:3659   */\n    tag_70:\n        /* \"#utility.yul\":3564:3570   */\n      0x00\n        /* \"#utility.yul\":3591:3611   */\n      tag_130\n      tag_51\n      jump\t// in\n    tag_130:\n        /* \"#utility.yul\":3581:3611   */\n      swap1\n      pop\n        /* \"#utility.yul\":3620:3653   */\n      tag_131\n        /* \"#utility.yul\":3648:3652   */\n      dup3\n        /* \"#utility.yul\":3640:3646   */\n      dup3\n        /* \"#utility.yul\":3620:3653   */\n      tag_69\n      jump\t// in\n    tag_131:\n        /* \"#utility.yul\":3530:3659   */\n      swap2\n      swap1\n      pop\n      jump\t// out\n        /* \"#utility.yul\":3665:3973   */\n    tag_71:\n        /* \"#utility.yul\":3727:3731   */\n      0x00\n        /* \"#utility.yul\":3817:3835   */\n      0xffffffffffffffff\n        /* \"#utility.yul\":3809:3815   */\n      dup3\n        /* \"#utility.yul\":3806:3836   */\n      gt\n        /* \"#utility.yul\":3803:3859   */\n      iszero\n      tag_133\n      jumpi\n        /* \"#utility.yul\":3839:3857   */\n      tag_134\n      tag_68\n      jump\t// in\n    tag_134:\n        /* \"#utility.yul\":3803:3859   */\n    tag_133:\n        /* \"#utility.yul\":3877:3906   */\n      tag_135\n        /* \"#utility.yul\":3899:3905   */\n      dup3\n        /* \"#utility.yul\":3877:3906   */\n      tag_67\n      jump\t// in\n    tag_135:\n        /* \"#utility.yul\":3869:3906   */\n      swap1\n      pop\n        /* \"#utility.yul\":3961:3965   */\n      0x20\n        /* \"#utility.yul\":3955:3959   */\n      dup2\n        /* \"#utility.yul\":3951:3966   */\n      add\n        /* \"#utility.yul\":3943:3966   */\n      swap1\n      pop\n        /* \"#utility.yul\":3665:3973   */\n      swap2\n      swap1\n      pop\n      jump\t// out\n        /* \"#utility.yul\":3979:4127   */\n    tag_72:\n        /* \"#utility.yul\":4077:4083   */\n      dup3\n        /* \"#utility.yul\":4072:4075   */\n      dup2\n        /* \"#utility.yul\":4067:4070   */\n      dup4\n        /* \"#utility.yul\":4054:4084   */\n      calldatacopy\n        /* \"#utility.yul\":4118:4119   */\n      0x00\n        /* \"#utility.yul\":4109:4115   */\n      dup4\n        /* \"#utility.yul\":4104:4107   */\n      dup4\n        /* \"#utility.yul\":4100:4116   */\n      add\n        /* \"#utility.yul\":4093:4120   */\n      mstore\n        /* \"#utility.yul\":3979:4127   */\n      pop\n      pop\n      pop\n      jump\t// out\n        /* \"#utility.yul\":4133:4558   */\n    tag_73:\n        /* \"#utility.yul\":4211:4216   */\n      0x00\n        /* \"#utility.yul\":4236:4302   */\n      tag_138\n        /* \"#utility.yul\":4252:4301   */\n      tag_139\n        /* \"#utility.yul\":4294:4300   */\n      dup5\n        /* \"#utility.yul\":4252:4301   */\n      tag_71\n      jump\t// in\n    tag_139:\n        /* \"#utility.yul\":4236:4302   */\n      tag_70\n      jump\t// in\n    tag_138:\n        /* \"#utility.yul\":4227:4302   */\n      swap1\n      pop\n        /* \"#utility.yul\":4325:4331   */\n      dup3\n        /* \"#utility.yul\":4318:4323   */\n      dup2\n        /* \"#utility.yul\":4311:4332   */\n      mstore\n        /* \"#utility.yul\":4363:4367   */\n      0x20\n        /* \"#utility.yul\":4356:4361   */\n      dup2\n        /* \"#utility.yul\":4352:4368   */\n      add\n        /* \"#utility.yul\":4401:4404   */\n      dup5\n        /* \"#utility.yul\":4392:4398   */\n      dup5\n        /* \"#utility.yul\":4387:4390   */\n      dup5\n        /* \"#utility.yul\":4383:4399   */\n      add\n        /* \"#utility.yul\":4380:4405   */\n      gt\n        /* \"#utility.yul\":4377:4489   */\n      iszero\n      tag_140\n      jumpi\n        /* \"#utility.yul\":4408:4487   */\n      tag_141\n      tag_66\n      jump\t// in\n    tag_141:\n        /* \"#utility.yul\":4377:4489   */\n    tag_140:\n        /* \"#utility.yul\":4498:4552   */\n      tag_142\n        /* \"#utility.yul\":4545:4551   */\n      dup5\n        /* \"#utility.yul\":4540:4543   */\n      dup3\n        /* \"#utility.yul\":4535:4538   */\n      dup6\n        /* \"#utility.yul\":4498:4552   */\n      tag_72\n      jump\t// in\n    tag_142:\n        /* \"#utility.yul\":4217:4558   */\n      pop\n        /* \"#utility.yul\":4133:4558   */\n      swap4\n      swap3\n      pop\n      pop\n      pop\n      jump\t// out\n        /* \"#utility.yul\":4578:4918   */\n    tag_74:\n        /* \"#utility.yul\":4634:4639   */\n      0x00\n        /* \"#utility.yul\":4683:4686   */\n      dup3\n        /* \"#utility.yul\":4676:4680   */\n      0x1f\n        /* \"#utility.yul\":4668:4674   */\n      dup4\n        /* \"#utility.yul\":4664:4681   */\n      add\n        /* \"#utility.yul\":4660:4687   */\n      slt\n        /* \"#utility.yul\":4650:4772   */\n      tag_144\n      jumpi\n        /* \"#utility.yul\":4691:4770   */\n      tag_145\n      tag_65\n      jump\t// in\n    tag_145:\n        /* \"#utility.yul\":4650:4772   */\n    tag_144:\n        /* \"#utility.yul\":4808:4814   */\n      dup2\n        /* \"#utility.yul\":4795:4815   */\n      calldataload\n        /* \"#utility.yul\":4833:4912   */\n      tag_146\n        /* \"#utility.yul\":4908:4911   */\n      dup5\n        /* \"#utility.yul\":4900:4906   */\n      dup3\n        /* \"#utility.yul\":4893:4897   */\n      0x20\n        /* \"#utility.yul\":4885:4891   */\n      dup7\n        /* \"#utility.yul\":4881:4898   */\n      add\n        /* \"#utility.yul\":4833:4912   */\n      tag_73\n      jump\t// in\n    tag_146:\n        /* \"#utility.yul\":4824:4912   */\n      swap2\n      pop\n        /* \"#utility.yul\":4640:4918   */\n      pop\n        /* \"#utility.yul\":4578:4918   */\n      swap3\n      swap2\n      pop\n      pop\n      jump\t// out\n        /* \"#utility.yul\":4924:5433   */\n    tag_30:\n        /* \"#utility.yul\":4993:4999   */\n      0x00\n        /* \"#utility.yul\":5042:5044   */\n      0x20\n        /* \"#utility.yul\":5030:5039   */\n      dup3\n        /* \"#utility.yul\":5021:5028   */\n      dup5\n        /* \"#utility.yul\":5017:5040   */\n      sub\n        /* \"#utility.yul\":5013:5045   */\n      slt\n        /* \"#utility.yul\":5010:5129   */\n      iszero\n      tag_148\n      jumpi\n        /* \"#utility.yul\":5048:5127   */\n      tag_149\n      tag_52\n      jump\t// in\n    tag_149:\n        /* \"#utility.yul\":5010:5129   */\n    tag_148:\n        /* \"#utility.yul\":5196:5197   */\n      0x00\n        /* \"#utility.yul\":5185:5194   */\n      dup3\n        /* \"#utility.yul\":5181:5198   */\n      add\n        /* \"#utility.yul\":5168:5199   */\n      calldataload\n        /* \"#utility.yul\":5226:5244   */\n      0xffffffffffffffff\n        /* \"#utility.yul\":5218:5224   */\n      dup2\n        /* \"#utility.yul\":5215:5245   */\n      gt\n        /* \"#utility.yul\":5212:5329   */\n      iszero\n      tag_150\n      jumpi\n        /* \"#utility.yul\":5248:5327   */\n      tag_151\n      tag_53\n      jump\t// in\n    tag_151:\n        /* \"#utility.yul\":5212:5329   */\n    tag_150:\n        /* \"#utility.yul\":5353:5416   */\n      tag_152\n        /* \"#utility.yul\":5408:5415   */\n      dup5\n        /* \"#utility.yul\":5399:5405   */\n      dup3\n        /* \"#utility.yul\":5388:5397   */\n      dup6\n        /* \"#utility.yul\":5384:5406   */\n      add\n        /* \"#utility.yul\":5353:5416   */\n      tag_74\n      jump\t// in\n    tag_152:\n        /* \"#utility.yul\":5343:5416   */\n      swap2\n      pop\n        /* \"#utility.yul\":5139:5426   */\n      pop\n        /* \"#utility.yul\":4924:5433   */\n      swap3\n      swap2\n      pop\n      pop\n      jump\t// out\n        /* \"#utility.yul\":5439:5538   */\n    tag_75:\n        /* \"#utility.yul\":5491:5497   */\n      0x00\n        /* \"#utility.yul\":5525:5530   */\n      dup2\n        /* \"#utility.yul\":5519:5531   */\n      mload\n        /* \"#utility.yul\":5509:5531   */\n      swap1\n      pop\n        /* \"#utility.yul\":5439:5538   */\n      swap2\n      swap1\n      pop\n      jump\t// out\n        /* \"#utility.yul\":5544:5713   */\n    tag_76:\n        /* \"#utility.yul\":5628:5639   */\n      0x00\n        /* \"#utility.yul\":5662:5668   */\n      dup3\n        /* \"#utility.yul\":5657:5660   */\n      dup3\n        /* \"#utility.yul\":5650:5669   */\n      mstore\n        /* \"#utility.yul\":5702:5706   */\n      0x20\n        /* \"#utility.yul\":5697:5700   */\n      dup3\n        /* \"#utility.yul\":5693:5707   */\n      add\n        /* \"#utility.yul\":5678:5707   */\n      swap1\n      pop\n        /* \"#utility.yul\":5544:5713   */\n      swap3\n      swap2\n      pop\n      pop\n      jump\t// out\n        /* \"#utility.yul\":5719:5858   */\n    tag_77:\n        /* \"#utility.yul\":5808:5814   */\n      dup3\n        /* \"#utility.yul\":5803:5806   */\n      dup2\n        /* \"#utility.yul\":5798:5801   */\n      dup4\n        /* \"#utility.yul\":5792:5815   */\n      mcopy\n        /* \"#utility.yul\":5849:5850   */\n      0x00\n        /* \"#utility.yul\":5840:5846   */\n      dup4\n        /* \"#utility.yul\":5835:5838   */\n      dup4\n        /* \"#utility.yul\":5831:5847   */\n      add\n        /* \"#utility.yul\":5824:5851   */\n      mstore\n        /* \"#utility.yul\":5719:5858   */\n      pop\n      pop\n      pop\n      jump\t// out\n        /* \"#utility.yul\":5864:6241   */\n    tag_78:\n        /* \"#utility.yul\":5952:5955   */\n      0x00\n        /* \"#utility.yul\":5980:6019   */\n      tag_157\n        /* \"#utility.yul\":6013:6018   */\n      dup3\n        /* \"#utility.yul\":5980:6019   */\n      tag_75\n      jump\t// in\n    tag_157:\n        /* \"#utility.yul\":6035:6106   */\n      tag_158\n        /* \"#utility.yul\":6099:6105   */\n      dup2\n        /* \"#utility.yul\":6094:6097   */\n      dup6\n        /* \"#utility.yul\":6035:6106   */\n      tag_76\n      jump\t// in\n    tag_158:\n        /* \"#utility.yul\":6028:6106   */\n      swap4\n      pop\n        /* \"#utility.yul\":6115:6180   */\n      tag_159\n        /* \"#utility.yul\":6173:6179   */\n      dup2\n        /* \"#utility.yul\":6168:6171   */\n      dup6\n        /* \"#utility.yul\":6161:6165   */\n      0x20\n        /* \"#utility.yul\":6154:6159   */\n      dup7\n        /* \"#utility.yul\":6150:6166   */\n      add\n        /* \"#utility.yul\":6115:6180   */\n      tag_77\n      jump\t// in\n    tag_159:\n        /* \"#utility.yul\":6205:6234   */\n      tag_160\n        /* \"#utility.yul\":6227:6233   */\n      dup2\n        /* \"#utility.yul\":6205:6234   */\n      tag_67\n      jump\t// in\n    tag_160:\n        /* \"#utility.yul\":6200:6203   */\n      dup5\n        /* \"#utility.yul\":6196:6235   */\n      add\n        /* \"#utility.yul\":6189:6235   */\n      swap2\n      pop\n        /* \"#utility.yul\":5956:6241   */\n      pop\n        /* \"#utility.yul\":5864:6241   */\n      swap3\n      swap2\n      pop\n      pop\n      jump\t// out\n        /* \"#utility.yul\":6247:6560   */\n    tag_33:\n        /* \"#utility.yul\":6360:6364   */\n      0x00\n        /* \"#utility.yul\":6398:6400   */\n      0x20\n        /* \"#utility.yul\":6387:6396   */\n      dup3\n        /* \"#utility.yul\":6383:6401   */\n      add\n        /* \"#utility.yul\":6375:6401   */\n      swap1\n      pop\n        /* \"#utility.yul\":6447:6456   */\n      dup2\n        /* \"#utility.yul\":6441:6445   */\n      dup2\n        /* \"#utility.yul\":6437:6457   */\n      sub\n        /* \"#utility.yul\":6433:6434   */\n      0x00\n        /* \"#utility.yul\":6422:6431   */\n      dup4\n        /* \"#utility.yul\":6418:6435   */\n      add\n        /* \"#utility.yul\":6411:6458   */\n      mstore\n        /* \"#utility.yul\":6475:6553   */\n      tag_162\n        /* \"#utility.yul\":6548:6552   */\n      dup2\n        /* \"#utility.yul\":6539:6545   */\n      dup5\n        /* \"#utility.yul\":6475:6553   */\n      tag_78\n      jump\t// in\n    tag_162:\n        /* \"#utility.yul\":6467:6553   */\n      swap1\n      pop\n        /* \"#utility.yul\":6247:6560   */\n      swap3\n      swap2\n      pop\n      pop\n      jump\t// out\n        /* \"#utility.yul\":6566:6739   */\n    tag_79:\n        /* \"#utility.yul\":6706:6731   */\n      0x5472616e73666572204e6f74204f776e65722074657374000000000000000000\n        /* \"#utility.yul\":6702:6703   */\n      0x00\n        /* \"#utility.yul\":6694:6700   */\n      dup3\n        /* \"#utility.yul\":6690:6704   */\n      add\n        /* \"#utility.yul\":6683:6732   */\n      mstore\n        /* \"#utility.yul\":6566:6739   */\n      pop\n      jump\t// out\n        /* \"#utility.yul\":6745:7111   */\n    tag_80:\n        /* \"#utility.yul\":6887:6890   */\n      0x00\n        /* \"#utility.yul\":6908:6975   */\n      tag_165\n        /* \"#utility.yul\":6972:6974   */\n      0x17\n        /* \"#utility.yul\":6967:6970   */\n      dup4\n        /* \"#utility.yul\":6908:6975   */\n      tag_76\n      jump\t// in\n    tag_165:\n        /* \"#utility.yul\":6901:6975   */\n      swap2\n      pop\n        /* \"#utility.yul\":6984:7077   */\n      tag_166\n        /* \"#utility.yul\":7073:7076   */\n      dup3\n        /* \"#utility.yul\":6984:7077   */\n      tag_79\n      jump\t// in\n    tag_166:\n        /* \"#utility.yul\":7102:7104   */\n      0x20\n        /* \"#utility.yul\":7097:7100   */\n      dup3\n        /* \"#utility.yul\":7093:7105   */\n      add\n        /* \"#utility.yul\":7086:7105   */\n      swap1\n      pop\n        /* \"#utility.yul\":6745:7111   */\n      swap2\n      swap1\n      pop\n      jump\t// out\n        /* \"#utility.yul\":7117:7536   */\n    tag_37:\n        /* \"#utility.yul\":7283:7287   */\n      0x00\n        /* \"#utility.yul\":7321:7323   */\n      0x20\n        /* \"#utility.yul\":7310:7319   */\n      dup3\n        /* \"#utility.yul\":7306:7324   */\n      add\n        /* \"#utility.yul\":7298:7324   */\n      swap1\n      pop\n        /* \"#utility.yul\":7370:7379   */\n      dup2\n        /* \"#utility.yul\":7364:7368   */\n      dup2\n        /* \"#utility.yul\":7360:7380   */\n      sub\n        /* \"#utility.yul\":7356:7357   */\n      0x00\n        /* \"#utility.yul\":7345:7354   */\n      dup4\n        /* \"#utility.yul\":7341:7358   */\n      add\n        /* \"#utility.yul\":7334:7381   */\n      mstore\n        /* \"#utility.yul\":7398:7529   */\n      tag_168\n        /* \"#utility.yul\":7524:7528   */\n      dup2\n        /* \"#utility.yul\":7398:7529   */\n      tag_80\n      jump\t// in\n    tag_168:\n        /* \"#utility.yul\":7390:7529   */\n      swap1\n      pop\n        /* \"#utility.yul\":7117:7536   */\n      swap2\n      swap1\n      pop\n      jump\t// out\n        /* \"#utility.yul\":7542:7722   */\n    tag_42:\n        /* \"#utility.yul\":7590:7667   */\n      0x4e487b7100000000000000000000000000000000000000000000000000000000\n        /* \"#utility.yul\":7587:7588   */\n      0x00\n        /* \"#utility.yul\":7580:7668   */\n      mstore\n        /* \"#utility.yul\":7687:7691   */\n      0x01\n        /* \"#utility.yul\":7684:7685   */\n      0x04\n        /* \"#utility.yul\":7677:7692   */\n      mstore\n        /* \"#utility.yul\":7711:7715   */\n      0x24\n        /* \"#utility.yul\":7708:7709   */\n      0x00\n        /* \"#utility.yul\":7701:7716   */\n      revert\n        /* \"#utility.yul\":7728:7846   */\n    tag_81:\n        /* \"#utility.yul\":7815:7839   */\n      tag_171\n        /* \"#utility.yul\":7833:7838   */\n      dup2\n        /* \"#utility.yul\":7815:7839   */\n      tag_58\n      jump\t// in\n    tag_171:\n        /* \"#utility.yul\":7810:7813   */\n      dup3\n        /* \"#utility.yul\":7803:7840   */\n      mstore\n        /* \"#utility.yul\":7728:7846   */\n      pop\n      pop\n      jump\t// out\n        /* \"#utility.yul\":7852:8074   */\n    tag_45:\n        /* \"#utility.yul\":7945:7949   */\n      0x00\n        /* \"#utility.yul\":7983:7985   */\n      0x20\n        /* \"#utility.yul\":7972:7981   */\n      dup3\n        /* \"#utility.yul\":7968:7986   */\n      add\n        /* \"#utility.yul\":7960:7986   */\n      swap1\n      pop\n        /* \"#utility.yul\":7996:8067   */\n      tag_173\n        /* \"#utility.yul\":8064:8065   */\n      0x00\n        /* \"#utility.yul\":8053:8062   */\n      dup4\n        /* \"#utility.yul\":8049:8066   */\n      add\n        /* \"#utility.yul\":8040:8046   */\n      dup5\n        /* \"#utility.yul\":7996:8067   */\n      tag_81\n      jump\t// in\n    tag_173:\n        /* \"#utility.yul\":7852:8074   */\n      swap3\n      swap2\n      pop\n      pop\n      jump\t// out\n        /* \"#utility.yul\":8080:8248   */\n    tag_82:\n        /* \"#utility.yul\":8220:8240   */\n      0x5472616e73666572204e6f74204f776e65720000000000000000000000000000\n        /* \"#utility.yul\":8216:8217   */\n      0x00\n        /* \"#utility.yul\":8208:8214   */\n      dup3\n        /* \"#utility.yul\":8204:8218   */\n      add\n        /* \"#utility.yul\":8197:8241   */\n      mstore\n        /* \"#utility.yul\":8080:8248   */\n      pop\n      jump\t// out\n        /* \"#utility.yul\":8254:8620   */\n    tag_83:\n        /* \"#utility.yul\":8396:8399   */\n      0x00\n        /* \"#utility.yul\":8417:8484   */\n      tag_176\n        /* \"#utility.yul\":8481:8483   */\n      0x12\n        /* \"#utility.yul\":8476:8479   */\n      dup4\n        /* \"#utility.yul\":8417:8484   */\n      tag_76\n      jump\t// in\n    tag_176:\n        /* \"#utility.yul\":8410:8484   */\n      swap2\n      pop\n        /* \"#utility.yul\":8493:8586   */\n      tag_177\n        /* \"#utility.yul\":8582:8585   */\n      dup3\n        /* \"#utility.yul\":8493:8586   */\n      tag_82\n      jump\t// in\n    tag_177:\n        /* \"#utility.yul\":8611:8613   */\n      0x20\n        /* \"#utility.yul\":8606:8609   */\n      dup3\n        /* \"#utility.yul\":8602:8614   */\n      add\n        /* \"#utility.yul\":8595:8614   */\n      swap1\n      pop\n        /* \"#utility.yul\":8254:8620   */\n      swap2\n      swap1\n      pop\n      jump\t// out\n        /* \"#utility.yul\":8626:9045   */\n    tag_49:\n        /* \"#utility.yul\":8792:8796   */\n      0x00\n        /* \"#utility.yul\":8830:8832   */\n      0x20\n        /* \"#utility.yul\":8819:8828   */\n      dup3\n        /* \"#utility.yul\":8815:8833   */\n      add\n        /* \"#utility.yul\":8807:8833   */\n      swap1\n      pop\n        /* \"#utility.yul\":8879:8888   */\n      dup2\n        /* \"#utility.yul\":8873:8877   */\n      dup2\n        /* \"#utility.yul\":8869:8889   */\n      sub\n        /* \"#utility.yul\":8865:8866   */\n      0x00\n        /* \"#utility.yul\":8854:8863   */\n      dup4\n        /* \"#utility.yul\":8850:8867   */\n      add\n        /* \"#utility.yul\":8843:8890   */\n      mstore\n        /* \"#utility.yul\":8907:9038   */\n      tag_179\n        /* \"#utility.yul\":9033:9037   */\n      dup2\n        /* \"#utility.yul\":8907:9038   */\n      tag_83\n      jump\t// in\n    tag_179:\n        /* \"#utility.yul\":8899:9038   */\n      swap1\n      pop\n        /* \"#utility.yul\":8626:9045   */\n      swap2\n      swap1\n      pop\n      jump\t// out\n\n    auxdata: 0xa264697066735822122053a1587364bd721b293af80ddbda234dda8a9f32b14476d1e58ae204817500cc64736f6c634300081a0033\n}\n",
				"bytecode": {
					"linkReferences": {},
					"object": "6080604052348015600e575f80fd5b5061092e8061001c5f395ff3fe608060405234801561000f575f80fd5b5060043610610060575f3560e01c80630f4be868146100645780633120d43414610080578063488d9f60146100b05780637fd39247146100cc57806383f5e67e146100e857806391e145ef14610104575b5f80fd5b61007e60048036038101906100799190610509565b610134565b005b61009a6004803603810190610095919061057d565b610223565b6040516100a791906105b7565b60405180910390f35b6100ca60048036038101906100c59190610509565b61022c565b005b6100e660048036038101906100e19190610509565b6102e9565b005b61010260048036038101906100fd9190610509565b610372565b005b61011e6004803603810190610119919061070c565b610461565b60405161012b91906107b3565b60405180910390f35b3373ffffffffffffffffffffffffffffffffffffffff165f808481526020019081526020015f205f9054906101000a900473ffffffffffffffffffffffffffffffffffffffff1673ffffffffffffffffffffffffffffffffffffffff16036101d1576040517f1cd3e5830000000000000000000000000000000000000000000000000000000081526004016101c89061081d565b60405180910390fd5b805f808481526020019081526020015f205f6101000a81548173ffffffffffffffffffffffffffffffffffffffff021916908373ffffffffffffffffffffffffffffffffffffffff1602179055505050565b5f819050919050565b3373ffffffffffffffffffffffffffffffffffffffff165f808481526020019081526020015f205f9054906101000a900473ffffffffffffffffffffffffffffffffffffffff1673ffffffffffffffffffffffffffffffffffffffff16146102975761029661083b565b5b805f808481526020019081526020015f205f6101000a81548173ffffffffffffffffffffffffffffffffffffffff021916908373ffffffffffffffffffffffffffffffffffffffff1602179055505050565b7fb8a00d6d8ca1be30bfec34d8f97e55f0f0fd9eeb7fb46e030516363d4cfe1ad6336040516103189190610877565b60405180910390a1805f808481526020019081526020015f205f6101000a81548173ffffffffffffffffffffffffffffffffffffffff021916908373ffffffffffffffffffffffffffffffffffffffff1602179055505050565b3373ffffffffffffffffffffffffffffffffffffffff165f808481526020019081526020015f205f9054906101000a900473ffffffffffffffffffffffffffffffffffffffff1673ffffffffffffffffffffffffffffffffffffffff161461040f576040517f08c379a0000000000000000000000000000000000000000000000000000000008152600401610406906108da565b60405180910390fd5b805f808481526020019081526020015f205f6101000a81548173ffffffffffffffffffffffffffffffffffffffff021916908373ffffffffffffffffffffffffffffffffffffffff1602179055505050565b6060819050919050565b5f604051905090565b5f80fd5b5f80fd5b5f819050919050565b61048e8161047c565b8114610498575f80fd5b50565b5f813590506104a981610485565b92915050565b5f73ffffffffffffffffffffffffffffffffffffffff82169050919050565b5f6104d8826104af565b9050919050565b6104e8816104ce565b81146104f2575f80fd5b50565b5f81359050610503816104df565b92915050565b5f806040838503121561051f5761051e610474565b5b5f61052c8582860161049b565b925050602061053d858286016104f5565b9150509250929050565b5f60ff82169050919050565b61055c81610547565b8114610566575f80fd5b50565b5f8135905061057781610553565b92915050565b5f6020828403121561059257610591610474565b5b5f61059f84828501610569565b91505092915050565b6105b181610547565b82525050565b5f6020820190506105ca5f8301846105a8565b92915050565b5f80fd5b5f80fd5b5f601f19601f8301169050919050565b7f4e487b71000000000000000000000000000000000000000000000000000000005f52604160045260245ffd5b61061e826105d8565b810181811067ffffffffffffffff8211171561063d5761063c6105e8565b5b80604052505050565b5f61064f61046b565b905061065b8282610615565b919050565b5f67ffffffffffffffff82111561067a576106796105e8565b5b610683826105d8565b9050602081019050919050565b828183375f83830152505050565b5f6106b06106ab84610660565b610646565b9050828152602081018484840111156106cc576106cb6105d4565b5b6106d7848285610690565b509392505050565b5f82601f8301126106f3576106f26105d0565b5b813561070384826020860161069e565b91505092915050565b5f6020828403121561072157610720610474565b5b5f82013567ffffffffffffffff81111561073e5761073d610478565b5b61074a848285016106df565b91505092915050565b5f81519050919050565b5f82825260208201905092915050565b8281835e5f83830152505050565b5f61078582610753565b61078f818561075d565b935061079f81856020860161076d565b6107a8816105d8565b840191505092915050565b5f6020820190508181035f8301526107cb818461077b565b905092915050565b7f5472616e73666572204e6f74204f776e657220746573740000000000000000005f82015250565b5f61080760178361075d565b9150610812826107d3565b602082019050919050565b5f6020820190508181035f830152610834816107fb565b9050919050565b7f4e487b71000000000000000000000000000000000000000000000000000000005f52600160045260245ffd5b610871816104ce565b82525050565b5f60208201905061088a5f830184610868565b92915050565b7f5472616e73666572204e6f74204f776e657200000000000000000000000000005f82015250565b5f6108c460128361075d565b91506108cf82610890565b602082019050919050565b5f6020820190508181035f8301526108f1816108b8565b905091905056fea264697066735822122053a1587364bd721b293af80ddbda234dda8a9f32b14476d1e58ae204817500cc64736f6c634300081a0033",
					"opcodes": "PUSH1 0x80 PUSH1 0x40 MSTORE CALLVALUE DUP1 ISZERO PUSH1 0xE JUMPI PUSH0 DUP1 REVERT JUMPDEST POP PUSH2 0x92E DUP1 PUSH2 0x1C PUSH0 CODECOPY PUSH0 RETURN INVALID PUSH1 0x80 PUSH1 0x40 MSTORE CALLVALUE DUP1 ISZERO PUSH2 0xF JUMPI PUSH0 DUP1 REVERT JUMPDEST POP PUSH1 0x4 CALLDATASIZE LT PUSH2 0x60 JUMPI PUSH0 CALLDATALOAD PUSH1 0xE0 SHR DUP1 PUSH4 0xF4BE868 EQ PUSH2 0x64 JUMPI DUP1 PUSH4 0x3120D434 EQ PUSH2 0x80 JUMPI DUP1 PUSH4 0x488D9F60 EQ PUSH2 0xB0 JUMPI DUP1 PUSH4 0x7FD39247 EQ PUSH2 0xCC JUMPI DUP1 PUSH4 0x83F5E67E EQ PUSH2 0xE8 JUMPI DUP1 PUSH4 0x91E145EF EQ PUSH2 0x104 JUMPI JUMPDEST PUSH0 DUP1 REVERT JUMPDEST PUSH2 0x7E PUSH1 0x4 DUP1 CALLDATASIZE SUB DUP2 ADD SWAP1 PUSH2 0x79 SWAP2 SWAP1 PUSH2 0x509 JUMP JUMPDEST PUSH2 0x134 JUMP JUMPDEST STOP JUMPDEST PUSH2 0x9A PUSH1 0x4 DUP1 CALLDATASIZE SUB DUP2 ADD SWAP1 PUSH2 0x95 SWAP2 SWAP1 PUSH2 0x57D JUMP JUMPDEST PUSH2 0x223 JUMP JUMPDEST PUSH1 0x40 MLOAD PUSH2 0xA7 SWAP2 SWAP1 PUSH2 0x5B7 JUMP JUMPDEST PUSH1 0x40 MLOAD DUP1 SWAP2 SUB SWAP1 RETURN JUMPDEST PUSH2 0xCA PUSH1 0x4 DUP1 CALLDATASIZE SUB DUP2 ADD SWAP1 PUSH2 0xC5 SWAP2 SWAP1 PUSH2 0x509 JUMP JUMPDEST PUSH2 0x22C JUMP JUMPDEST STOP JUMPDEST PUSH2 0xE6 PUSH1 0x4 DUP1 CALLDATASIZE SUB DUP2 ADD SWAP1 PUSH2 0xE1 SWAP2 SWAP1 PUSH2 0x509 JUMP JUMPDEST PUSH2 0x2E9 JUMP JUMPDEST STOP JUMPDEST PUSH2 0x102 PUSH1 0x4 DUP1 CALLDATASIZE SUB DUP2 ADD SWAP1 PUSH2 0xFD SWAP2 SWAP1 PUSH2 0x509 JUMP JUMPDEST PUSH2 0x372 JUMP JUMPDEST STOP JUMPDEST PUSH2 0x11E PUSH1 0x4 DUP1 CALLDATASIZE SUB DUP2 ADD SWAP1 PUSH2 0x119 SWAP2 SWAP1 PUSH2 0x70C JUMP JUMPDEST PUSH2 0x461 JUMP JUMPDEST PUSH1 0x40 MLOAD PUSH2 0x12B SWAP2 SWAP1 PUSH2 0x7B3 JUMP JUMPDEST PUSH1 0x40 MLOAD DUP1 SWAP2 SUB SWAP1 RETURN JUMPDEST CALLER PUSH20 0xFFFFFFFFFFFFFFFFFFFFFFFFFFFFFFFFFFFFFFFF AND PUSH0 DUP1 DUP5 DUP2 MSTORE PUSH1 0x20 ADD SWAP1 DUP2 MSTORE PUSH1 0x20 ADD PUSH0 KECCAK256 PUSH0 SWAP1 SLOAD SWAP1 PUSH2 0x100 EXP SWAP1 DIV PUSH20 0xFFFFFFFFFFFFFFFFFFFFFFFFFFFFFFFFFFFFFFFF AND PUSH20 0xFFFFFFFFFFFFFFFFFFFFFFFFFFFFFFFFFFFFFFFF AND SUB PUSH2 0x1D1 JUMPI PUSH1 0x40 MLOAD PUSH32 0x1CD3E58300000000000000000000000000000000000000000000000000000000 DUP2 MSTORE PUSH1 0x4 ADD PUSH2 0x1C8 SWAP1 PUSH2 0x81D JUMP JUMPDEST PUSH1 0x40 MLOAD DUP1 SWAP2 SUB SWAP1 REVERT JUMPDEST DUP1 PUSH0 DUP1 DUP5 DUP2 MSTORE PUSH1 0x20 ADD SWAP1 DUP2 MSTORE PUSH1 0x20 ADD PUSH0 KECCAK256 PUSH0 PUSH2 0x100 EXP DUP2 SLOAD DUP2 PUSH20 0xFFFFFFFFFFFFFFFFFFFFFFFFFFFFFFFFFFFFFFFF MUL NOT AND SWAP1 DUP4 PUSH20 0xFFFFFFFFFFFFFFFFFFFFFFFFFFFFFFFFFFFFFFFF AND MUL OR SWAP1 SSTORE POP POP POP JUMP JUMPDEST PUSH0 DUP2 SWAP1 POP SWAP2 SWAP1 POP JUMP JUMPDEST CALLER PUSH20 0xFFFFFFFFFFFFFFFFFFFFFFFFFFFFFFFFFFFFFFFF AND PUSH0 DUP1 DUP5 DUP2 MSTORE PUSH1 0x20 ADD SWAP1 DUP2 MSTORE PUSH1 0x20 ADD PUSH0 KECCAK256 PUSH0 SWAP1 SLOAD SWAP1 PUSH2 0x100 EXP SWAP1 DIV PUSH20 0xFFFFFFFFFFFFFFFFFFFFFFFFFFFFFFFFFFFFFFFF AND PUSH20 0xFFFFFFFFFFFFFFFFFFFFFFFFFFFFFFFFFFFFFFFF AND EQ PUSH2 0x297 JUMPI PUSH2 0x296 PUSH2 0x83B JUMP JUMPDEST JUMPDEST DUP1 PUSH0 DUP1 DUP5 DUP2 MSTORE PUSH1 0x20 ADD SWAP1 DUP2 MSTORE PUSH1 0x20 ADD PUSH0 KECCAK256 PUSH0 PUSH2 0x100 EXP DUP2 SLOAD DUP2 PUSH20 0xFFFFFFFFFFFFFFFFFFFFFFFFFFFFFFFFFFFFFFFF MUL NOT AND SWAP1 DUP4 PUSH20 0xFFFFFFFFFFFFFFFFFFFFFFFFFFFFFFFFFFFFFFFF AND MUL OR SWAP1 SSTORE POP POP POP JUMP JUMPDEST PUSH32 0xB8A00D6D8CA1BE30BFEC34D8F97E55F0F0FD9EEB7FB46E030516363D4CFE1AD6 CALLER PUSH1 0x40 MLOAD PUSH2 0x318 SWAP2 SWAP1 PUSH2 0x877 JUMP JUMPDEST PUSH1 0x40 MLOAD DUP1 SWAP2 SUB SWAP1 LOG1 DUP1 PUSH0 DUP1 DUP5 DUP2 MSTORE PUSH1 0x20 ADD SWAP1 DUP2 MSTORE PUSH1 0x20 ADD PUSH0 KECCAK256 PUSH0 PUSH2 0x100 EXP DUP2 SLOAD DUP2 PUSH20 0xFFFFFFFFFFFFFFFFFFFFFFFFFFFFFFFFFFFFFFFF MUL NOT AND SWAP1 DUP4 PUSH20 0xFFFFFFFFFFFFFFFFFFFFFFFFFFFFFFFFFFFFFFFF AND MUL OR SWAP1 SSTORE POP POP POP JUMP JUMPDEST CALLER PUSH20 0xFFFFFFFFFFFFFFFFFFFFFFFFFFFFFFFFFFFFFFFF AND PUSH0 DUP1 DUP5 DUP2 MSTORE PUSH1 0x20 ADD SWAP1 DUP2 MSTORE PUSH1 0x20 ADD PUSH0 KECCAK256 PUSH0 SWAP1 SLOAD SWAP1 PUSH2 0x100 EXP SWAP1 DIV PUSH20 0xFFFFFFFFFFFFFFFFFFFFFFFFFFFFFFFFFFFFFFFF AND PUSH20 0xFFFFFFFFFFFFFFFFFFFFFFFFFFFFFFFFFFFFFFFF AND EQ PUSH2 0x40F JUMPI PUSH1 0x40 MLOAD PUSH32 0x8C379A000000000000000000000000000000000000000000000000000000000 DUP2 MSTORE PUSH1 0x4 ADD PUSH2 0x406 SWAP1 PUSH2 0x8DA JUMP JUMPDEST PUSH1 0x40 MLOAD DUP1 SWAP2 SUB SWAP1 REVERT JUMPDEST DUP1 PUSH0 DUP1 DUP5 DUP2 MSTORE PUSH1 0x20 ADD SWAP1 DUP2 MSTORE PUSH1 0x20 ADD PUSH0 KECCAK256 PUSH0 PUSH2 0x100 EXP DUP2 SLOAD DUP2 PUSH20 0xFFFFFFFFFFFFFFFFFFFFFFFFFFFFFFFFFFFFFFFF MUL NOT AND SWAP1 DUP4 PUSH20 0xFFFFFFFFFFFFFFFFFFFFFFFFFFFFFFFFFFFFFFFF AND MUL OR SWAP1 SSTORE POP POP POP JUMP JUMPDEST PUSH1 0x60 DUP2 SWAP1 POP SWAP2 SWAP1 POP JUMP JUMPDEST PUSH0 PUSH1 0x40 MLOAD SWAP1 POP SWAP1 JUMP JUMPDEST PUSH0 DUP1 REVERT JUMPDEST PUSH0 DUP1 REVERT JUMPDEST PUSH0 DUP2 SWAP1 POP SWAP2 SWAP1 POP JUMP JUMPDEST PUSH2 0x48E DUP2 PUSH2 0x47C JUMP JUMPDEST DUP2 EQ PUSH2 0x498 JUMPI PUSH0 DUP1 REVERT JUMPDEST POP JUMP JUMPDEST PUSH0 DUP2 CALLDATALOAD SWAP1 POP PUSH2 0x4A9 DUP2 PUSH2 0x485 JUMP JUMPDEST SWAP3 SWAP2 POP POP JUMP JUMPDEST PUSH0 PUSH20 0xFFFFFFFFFFFFFFFFFFFFFFFFFFFFFFFFFFFFFFFF DUP3 AND SWAP1 POP SWAP2 SWAP1 POP JUMP JUMPDEST PUSH0 PUSH2 0x4D8 DUP3 PUSH2 0x4AF JUMP JUMPDEST SWAP1 POP SWAP2 SWAP1 POP JUMP JUMPDEST PUSH2 0x4E8 DUP2 PUSH2 0x4CE JUMP JUMPDEST DUP2 EQ PUSH2 0x4F2 JUMPI PUSH0 DUP1 REVERT JUMPDEST POP JUMP JUMPDEST PUSH0 DUP2 CALLDATALOAD SWAP1 POP PUSH2 0x503 DUP2 PUSH2 0x4DF JUMP JUMPDEST SWAP3 SWAP2 POP POP JUMP JUMPDEST PUSH0 DUP1 PUSH1 0x40 DUP4 DUP6 SUB SLT ISZERO PUSH2 0x51F JUMPI PUSH2 0x51E PUSH2 0x474 JUMP JUMPDEST JUMPDEST PUSH0 PUSH2 0x52C DUP6 DUP3 DUP7 ADD PUSH2 0x49B JUMP JUMPDEST SWAP3 POP POP PUSH1 0x20 PUSH2 0x53D DUP6 DUP3 DUP7 ADD PUSH2 0x4F5 JUMP JUMPDEST SWAP2 POP POP SWAP3 POP SWAP3 SWAP1 POP JUMP JUMPDEST PUSH0 PUSH1 0xFF DUP3 AND SWAP1 POP SWAP2 SWAP1 POP JUMP JUMPDEST PUSH2 0x55C DUP2 PUSH2 0x547 JUMP JUMPDEST DUP2 EQ PUSH2 0x566 JUMPI PUSH0 DUP1 REVERT JUMPDEST POP JUMP JUMPDEST PUSH0 DUP2 CALLDATALOAD SWAP1 POP PUSH2 0x577 DUP2 PUSH2 0x553 JUMP JUMPDEST SWAP3 SWAP2 POP POP JUMP JUMPDEST PUSH0 PUSH1 0x20 DUP3 DUP5 SUB SLT ISZERO PUSH2 0x592 JUMPI PUSH2 0x591 PUSH2 0x474 JUMP JUMPDEST JUMPDEST PUSH0 PUSH2 0x59F DUP5 DUP3 DUP6 ADD PUSH2 0x569 JUMP JUMPDEST SWAP2 POP POP SWAP3 SWAP2 POP POP JUMP JUMPDEST PUSH2 0x5B1 DUP2 PUSH2 0x547 JUMP JUMPDEST DUP3 MSTORE POP POP JUMP JUMPDEST PUSH0 PUSH1 0x20 DUP3 ADD SWAP1 POP PUSH2 0x5CA PUSH0 DUP4 ADD DUP5 PUSH2 0x5A8 JUMP JUMPDEST SWAP3 SWAP2 POP POP JUMP JUMPDEST PUSH0 DUP1 REVERT JUMPDEST PUSH0 DUP1 REVERT JUMPDEST PUSH0 PUSH1 0x1F NOT PUSH1 0x1F DUP4 ADD AND SWAP1 POP SWAP2 SWAP1 POP JUMP JUMPDEST PUSH32 0x4E487B7100000000000000000000000000000000000000000000000000000000 PUSH0 MSTORE PUSH1 0x41 PUSH1 0x4 MSTORE PUSH1 0x24 PUSH0 REVERT JUMPDEST PUSH2 0x61E DUP3 PUSH2 0x5D8 JUMP JUMPDEST DUP2 ADD DUP2 DUP2 LT PUSH8 0xFFFFFFFFFFFFFFFF DUP3 GT OR ISZERO PUSH2 0x63D JUMPI PUSH2 0x63C PUSH2 0x5E8 JUMP JUMPDEST JUMPDEST DUP1 PUSH1 0x40 MSTORE POP POP POP JUMP JUMPDEST PUSH0 PUSH2 0x64F PUSH2 0x46B JUMP JUMPDEST SWAP1 POP PUSH2 0x65B DUP3 DUP3 PUSH2 0x615 JUMP JUMPDEST SWAP2 SWAP1 POP JUMP JUMPDEST PUSH0 PUSH8 0xFFFFFFFFFFFFFFFF DUP3 GT ISZERO PUSH2 0x67A JUMPI PUSH2 0x679 PUSH2 0x5E8 JUMP JUMPDEST JUMPDEST PUSH2 0x683 DUP3 PUSH2 0x5D8 JUMP JUMPDEST SWAP1 POP PUSH1 0x20 DUP2 ADD SWAP1 POP SWAP2 SWAP1 POP JUMP JUMPDEST DUP3 DUP2 DUP4 CALLDATACOPY PUSH0 DUP4 DUP4 ADD MSTORE POP POP POP JUMP JUMPDEST PUSH0 PUSH2 0x6B0 PUSH2 0x6AB DUP5 PUSH2 0x660 JUMP JUMPDEST PUSH2 0x646 JUMP JUMPDEST SWAP1 POP DUP3 DUP2 MSTORE PUSH1 0x20 DUP2 ADD DUP5 DUP5 DUP5 ADD GT ISZERO PUSH2 0x6CC JUMPI PUSH2 0x6CB PUSH2 0x5D4 JUMP JUMPDEST JUMPDEST PUSH2 0x6D7 DUP5 DUP3 DUP6 PUSH2 0x690 JUMP JUMPDEST POP SWAP4 SWAP3 POP POP POP JUMP JUMPDEST PUSH0 DUP3 PUSH1 0x1F DUP4 ADD SLT PUSH2 0x6F3 JUMPI PUSH2 0x6F2 PUSH2 0x5D0 JUMP JUMPDEST JUMPDEST DUP2 CALLDATALOAD PUSH2 0x703 DUP5 DUP3 PUSH1 0x20 DUP7 ADD PUSH2 0x69E JUMP JUMPDEST SWAP2 POP POP SWAP3 SWAP2 POP POP JUMP JUMPDEST PUSH0 PUSH1 0x20 DUP3 DUP5 SUB SLT ISZERO PUSH2 0x721 JUMPI PUSH2 0x720 PUSH2 0x474 JUMP JUMPDEST JUMPDEST PUSH0 DUP3 ADD CALLDATALOAD PUSH8 0xFFFFFFFFFFFFFFFF DUP2 GT ISZERO PUSH2 0x73E JUMPI PUSH2 0x73D PUSH2 0x478 JUMP JUMPDEST JUMPDEST PUSH2 0x74A DUP5 DUP3 DUP6 ADD PUSH2 0x6DF JUMP JUMPDEST SWAP2 POP POP SWAP3 SWAP2 POP POP JUMP JUMPDEST PUSH0 DUP2 MLOAD SWAP1 POP SWAP2 SWAP1 POP JUMP JUMPDEST PUSH0 DUP3 DUP3 MSTORE PUSH1 0x20 DUP3 ADD SWAP1 POP SWAP3 SWAP2 POP POP JUMP JUMPDEST DUP3 DUP2 DUP4 MCOPY PUSH0 DUP4 DUP4 ADD MSTORE POP POP POP JUMP JUMPDEST PUSH0 PUSH2 0x785 DUP3 PUSH2 0x753 JUMP JUMPDEST PUSH2 0x78F DUP2 DUP6 PUSH2 0x75D JUMP JUMPDEST SWAP4 POP PUSH2 0x79F DUP2 DUP6 PUSH1 0x20 DUP7 ADD PUSH2 0x76D JUMP JUMPDEST PUSH2 0x7A8 DUP2 PUSH2 0x5D8 JUMP JUMPDEST DUP5 ADD SWAP2 POP POP SWAP3 SWAP2 POP POP JUMP JUMPDEST PUSH0 PUSH1 0x20 DUP3 ADD SWAP1 POP DUP2 DUP2 SUB PUSH0 DUP4 ADD MSTORE PUSH2 0x7CB DUP2 DUP5 PUSH2 0x77B JUMP JUMPDEST SWAP1 POP SWAP3 SWAP2 POP POP JUMP JUMPDEST PUSH32 0x5472616E73666572204E6F74204F776E65722074657374000000000000000000 PUSH0 DUP3 ADD MSTORE POP JUMP JUMPDEST PUSH0 PUSH2 0x807 PUSH1 0x17 DUP4 PUSH2 0x75D JUMP JUMPDEST SWAP2 POP PUSH2 0x812 DUP3 PUSH2 0x7D3 JUMP JUMPDEST PUSH1 0x20 DUP3 ADD SWAP1 POP SWAP2 SWAP1 POP JUMP JUMPDEST PUSH0 PUSH1 0x20 DUP3 ADD SWAP1 POP DUP2 DUP2 SUB PUSH0 DUP4 ADD MSTORE PUSH2 0x834 DUP2 PUSH2 0x7FB JUMP JUMPDEST SWAP1 POP SWAP2 SWAP1 POP JUMP JUMPDEST PUSH32 0x4E487B7100000000000000000000000000000000000000000000000000000000 PUSH0 MSTORE PUSH1 0x1 PUSH1 0x4 MSTORE PUSH1 0x24 PUSH0 REVERT JUMPDEST PUSH2 0x871 DUP2 PUSH2 0x4CE JUMP JUMPDEST DUP3 MSTORE POP POP JUMP JUMPDEST PUSH0 PUSH1 0x20 DUP3 ADD SWAP1 POP PUSH2 0x88A PUSH0 DUP4 ADD DUP5 PUSH2 0x868 JUMP JUMPDEST SWAP3 SWAP2 POP POP JUMP JUMPDEST PUSH32 0x5472616E73666572204E6F74204F776E65720000000000000000000000000000 PUSH0 DUP3 ADD MSTORE POP JUMP JUMPDEST PUSH0 PUSH2 0x8C4 PUSH1 0x12 DUP4 PUSH2 0x75D JUMP JUMPDEST SWAP2 POP PUSH2 0x8CF DUP3 PUSH2 0x890 JUMP JUMPDEST PUSH1 0x20 DUP3 ADD SWAP1 POP SWAP2 SWAP1 POP JUMP JUMPDEST PUSH0 PUSH1 0x20 DUP3 ADD SWAP1 POP DUP2 DUP2 SUB PUSH0 DUP4 ADD MSTORE PUSH2 0x8F1 DUP2 PUSH2 0x8B8 JUMP JUMPDEST SWAP1 POP SWAP2 SWAP1 POP JUMP INVALID LOG2 PUSH5 0x6970667358 0x22 SLT KECCAK256 MSTORE8 LOG1 PC PUSH20 0x64BD721B293AF80DDBDA234DDA8A9F32B14476D1 0xE5 DUP11 0xE2 DIV DUP2 PUSH22 0xCC64736F6C634300081A0033000000000000000000 "
				},
				"gasEstimates": {
					"creation": {
						"codeDepositCost": "470000",
						"executionCost": "503",
						"totalCost": "470503"
					},
					"external": {
						"f(string)": "infinite",
						"f(uint8)": "infinite",
						"setOwner(uint256,address)": "infinite",
						"transferOwner1(uint256,address)": "27185",
						"transferOwner2(uint256,address)": "27273",
						"transferOwner3(uint256,address)": "27229"
					}
				},
				"methodIdentifiers": {
					"f(string)": "91e145ef",
					"f(uint8)": "3120d434",
					"setOwner(uint256,address)": "7fd39247",
					"transferOwner1(uint256,address)": "0f4be868",
					"transferOwner2(uint256,address)": "83f5e67e",
					"transferOwner3(uint256,address)": "488d9f60"
				}
			},
			"storageLayout": {
				"storage": [
					{
						"astId": 9,
						"contract": "contracts/Error.sol:Errors",
						"label": "_owners",
						"offset": 0,
						"slot": "0",
						"type": "t_mapping(t_uint256,t_address)"
					}
				],
				"types": {
					"t_address": {
						"encoding": "inplace",
						"label": "address",
						"numberOfBytes": "20"
					},
					"t_mapping(t_uint256,t_address)": {
						"encoding": "mapping",
						"key": "t_uint256",
						"label": "mapping(uint256 => address)",
						"numberOfBytes": "32",
						"value": "t_address"
					},
					"t_uint256": {
						"encoding": "inplace",
						"label": "uint256",
						"numberOfBytes": "32"
					}
				}
			},
			"userdoc": {
				"kind": "user",
				"methods": {},
				"version": 1
			}
		}
	}
}