{
	"contracts/HelloWorld.sol": {
		"HelloWeb": {
			"abi": [
				{
					"inputs": [],
					"name": "add",
					"outputs": [],
					"stateMutability": "nonpayable",
					"type": "function"
				},
				{
					"inputs": [
						{
							"internalType": "uint256",
							"name": "_number",
							"type": "uint256"
						}
					],
					"name": "addView",
					"outputs": [
						{
							"internalType": "uint256",
							"name": "new_number",
							"type": "uint256"
						}
					],
					"stateMutability": "view",
					"type": "function"
				},
				{
					"inputs": [],
					"name": "number",
					"outputs": [
						{
							"internalType": "uint256",
							"name": "",
							"type": "uint256"
						}
					],
					"stateMutability": "view",
					"type": "function"
				},
				{
					"inputs": [],
					"name": "returnNamed",
					"outputs": [
						{
							"internalType": "uint256",
							"name": "_number",
							"type": "uint256"
						},
						{
							"internalType": "bool",
							"name": "_bool",
							"type": "bool"
						},
						{
							"internalType": "uint256[3]",
							"name": "_array",
							"type": "uint256[3]"
						}
					],
					"stateMutability": "pure",
					"type": "function"
				},
				{
					"inputs": [],
					"name": "returnNamed2",
					"outputs": [
						{
							"internalType": "uint256",
							"name": "_number",
							"type": "uint256"
						},
						{
							"internalType": "bool",
							"name": "_bool",
							"type": "bool"
						},
						{
							"internalType": "uint256[3]",
							"name": "_array",
							"type": "uint256[3]"
						}
					],
					"stateMutability": "pure",
					"type": "function"
				},
				{
					"inputs": [],
					"name": "returnValue",
					"outputs": [
						{
							"internalType": "uint256",
							"name": "_number2",
							"type": "uint256"
						},
						{
							"internalType": "bool",
							"name": "_bool2",
							"type": "bool"
						},
						{
							"internalType": "uint256[3]",
							"name": "_array",
							"type": "uint256[3]"
						}
					],
					"stateMutability": "pure",
					"type": "function"
				}
			],
			"devdoc": {
				"kind": "dev",
				"methods": {},
				"version": 1
			},
			"evm": {
				"assembly": "    /* \"contracts/HelloWorld.sol\":57:1166  contract HelloWeb {... */\n  mstore(0x40, 0x80)\n    /* \"contracts/HelloWorld.sol\":105:106  5 */\n  0x05\n    /* \"contracts/HelloWorld.sol\":81:106  uint256 public number = 5 */\n  0x00\n  sstore\n    /* \"contracts/HelloWorld.sol\":57:1166  contract HelloWeb {... */\n  callvalue\n  dup1\n  iszero\n  tag_1\n  jumpi\n  0x00\n  dup1\n  revert\ntag_1:\n  pop\n  dataSize(sub_0)\n  dup1\n  dataOffset(sub_0)\n  0x00\n  codecopy\n  0x00\n  return\nstop\n\nsub_0: assembly {\n        /* \"contracts/HelloWorld.sol\":57:1166  contract HelloWeb {... */\n      mstore(0x40, 0x80)\n      callvalue\n      dup1\n      iszero\n      tag_1\n      jumpi\n      0x00\n      dup1\n      revert\n    tag_1:\n      pop\n      jumpi(tag_2, lt(calldatasize, 0x04))\n      shr(0xe0, calldataload(0x00))\n      dup1\n      0x3dece511\n      eq\n      tag_3\n      jumpi\n      dup1\n      0x4f2be91f\n      eq\n      tag_4\n      jumpi\n      dup1\n      0x8381f58a\n      eq\n      tag_5\n      jumpi\n      dup1\n      0x8552dc08\n      eq\n      tag_6\n      jumpi\n      dup1\n      0x990c8f79\n      eq\n      tag_7\n      jumpi\n      dup1\n      0xcfeb3b9a\n      eq\n      tag_8\n      jumpi\n    tag_2:\n      0x00\n      dup1\n      revert\n        /* \"contracts/HelloWorld.sol\":648:909  function returnNamed()... */\n    tag_3:\n      tag_9\n      tag_10\n      jump\t// in\n    tag_9:\n      mload(0x40)\n      tag_11\n      swap4\n      swap3\n      swap2\n      swap1\n      tag_12\n      jump\t// in\n    tag_11:\n      mload(0x40)\n      dup1\n      swap2\n      sub\n      swap1\n      return\n        /* \"contracts/HelloWorld.sol\":136:196  function add() external {... */\n    tag_4:\n      tag_13\n      tag_14\n      jump\t// in\n    tag_13:\n      stop\n        /* \"contracts/HelloWorld.sol\":81:106  uint256 public number = 5 */\n    tag_5:\n      tag_15\n      tag_16\n      jump\t// in\n    tag_15:\n      mload(0x40)\n      tag_17\n      swap2\n      swap1\n      tag_18\n      jump\t// in\n    tag_17:\n      mload(0x40)\n      dup1\n      swap2\n      sub\n      swap1\n      return\n        /* \"contracts/HelloWorld.sol\":373:619  function returnNamed2()... */\n    tag_6:\n      tag_19\n      tag_20\n      jump\t// in\n    tag_19:\n      mload(0x40)\n      tag_21\n      swap4\n      swap3\n      swap2\n      swap1\n      tag_12\n      jump\t// in\n    tag_21:\n      mload(0x40)\n      dup1\n      swap2\n      sub\n      swap1\n      return\n        /* \"contracts/HelloWorld.sol\":915:1164  function returnValue()... */\n    tag_7:\n      tag_22\n      tag_23\n      jump\t// in\n    tag_22:\n      mload(0x40)\n      tag_24\n      swap4\n      swap3\n      swap2\n      swap1\n      tag_12\n      jump\t// in\n    tag_24:\n      mload(0x40)\n      dup1\n      swap2\n      sub\n      swap1\n      return\n        /* \"contracts/HelloWorld.sol\":251:367  function addView(uint256 _number) public view returns (uint256 new_number) {... */\n    tag_8:\n      tag_25\n      0x04\n      dup1\n      calldatasize\n      sub\n      dup2\n      add\n      swap1\n      tag_26\n      swap2\n      swap1\n      tag_27\n      jump\t// in\n    tag_26:\n      tag_28\n      jump\t// in\n    tag_25:\n      mload(0x40)\n      tag_29\n      swap2\n      swap1\n      tag_18\n      jump\t// in\n    tag_29:\n      mload(0x40)\n      dup1\n      swap2\n      sub\n      swap1\n      return\n        /* \"contracts/HelloWorld.sol\":648:909  function returnNamed()... */\n    tag_10:\n        /* \"contracts/HelloWorld.sol\":729:744  uint256 _number */\n      0x00\n        /* \"contracts/HelloWorld.sol\":758:768  bool _bool */\n      dup1\n        /* \"contracts/HelloWorld.sol\":782:806  uint256[3] memory _array */\n      tag_30\n      tag_31\n      jump\t// in\n    tag_30:\n        /* \"contracts/HelloWorld.sol\":841:842  2 */\n      0x02\n        /* \"contracts/HelloWorld.sol\":831:842  _number = 2 */\n      swap3\n      pop\n        /* \"contracts/HelloWorld.sol\":860:865  false */\n      0x00\n        /* \"contracts/HelloWorld.sol\":852:865  _bool = false */\n      swap2\n      pop\n        /* \"contracts/HelloWorld.sol\":875:902  _array = [uint256(3), 2, 1] */\n      mload(0x40)\n      dup1\n      0x60\n      add\n      0x40\n      mstore\n      dup1\n        /* \"contracts/HelloWorld.sol\":893:894  3 */\n      0x03\n        /* \"contracts/HelloWorld.sol\":875:902  _array = [uint256(3), 2, 1] */\n      dup2\n      mstore\n      0x20\n      add\n        /* \"contracts/HelloWorld.sol\":897:898  2 */\n      0x02\n        /* \"contracts/HelloWorld.sol\":875:902  _array = [uint256(3), 2, 1] */\n      dup2\n      mstore\n      0x20\n      add\n        /* \"contracts/HelloWorld.sol\":900:901  1 */\n      0x01\n        /* \"contracts/HelloWorld.sol\":875:902  _array = [uint256(3), 2, 1] */\n      dup2\n      mstore\n      pop\n      swap1\n      pop\n        /* \"contracts/HelloWorld.sol\":648:909  function returnNamed()... */\n      swap1\n      swap2\n      swap3\n      jump\t// out\n        /* \"contracts/HelloWorld.sol\":136:196  function add() external {... */\n    tag_14:\n        /* \"contracts/HelloWorld.sol\":188:189  1 */\n      0x01\n        /* \"contracts/HelloWorld.sol\":179:185  number */\n      sload(0x00)\n        /* \"contracts/HelloWorld.sol\":179:189  number + 1 */\n      tag_34\n      swap2\n      swap1\n      tag_35\n      jump\t// in\n    tag_34:\n        /* \"contracts/HelloWorld.sol\":170:176  number */\n      0x00\n        /* \"contracts/HelloWorld.sol\":170:189  number = number + 1 */\n      dup2\n      swap1\n      sstore\n      pop\n        /* \"contracts/HelloWorld.sol\":136:196  function add() external {... */\n      jump\t// out\n        /* \"contracts/HelloWorld.sol\":81:106  uint256 public number = 5 */\n    tag_16:\n      sload(0x00)\n      dup2\n      jump\t// out\n        /* \"contracts/HelloWorld.sol\":373:619  function returnNamed2()... */\n    tag_20:\n        /* \"contracts/HelloWorld.sol\":455:470  uint256 _number */\n      0x00\n        /* \"contracts/HelloWorld.sol\":484:494  bool _bool */\n      dup1\n        /* \"contracts/HelloWorld.sol\":508:532  uint256[3] memory _array */\n      tag_36\n      tag_31\n      jump\t// in\n    tag_36:\n        /* \"contracts/HelloWorld.sol\":565:567  11 */\n      0x0b\n        /* \"contracts/HelloWorld.sol\":569:573  true */\n      0x01\n        /* \"contracts/HelloWorld.sol\":557:612  return (11, true, [uint256(7), uint256(8), uint256(8)]) */\n      mload(0x40)\n      dup1\n      0x60\n      add\n      0x40\n      mstore\n      dup1\n        /* \"contracts/HelloWorld.sol\":584:585  7 */\n      0x07\n        /* \"contracts/HelloWorld.sol\":557:612  return (11, true, [uint256(7), uint256(8), uint256(8)]) */\n      dup2\n      mstore\n      0x20\n      add\n        /* \"contracts/HelloWorld.sol\":596:597  8 */\n      0x08\n        /* \"contracts/HelloWorld.sol\":557:612  return (11, true, [uint256(7), uint256(8), uint256(8)]) */\n      dup2\n      mstore\n      0x20\n      add\n        /* \"contracts/HelloWorld.sol\":608:609  8 */\n      0x08\n        /* \"contracts/HelloWorld.sol\":557:612  return (11, true, [uint256(7), uint256(8), uint256(8)]) */\n      dup2\n      mstore\n      pop\n      swap3\n      pop\n      swap3\n      pop\n      swap3\n      pop\n        /* \"contracts/HelloWorld.sol\":373:619  function returnNamed2()... */\n      swap1\n      swap2\n      swap3\n      jump\t// out\n        /* \"contracts/HelloWorld.sol\":915:1164  function returnValue()... */\n    tag_23:\n        /* \"contracts/HelloWorld.sol\":996:1012  uint256 _number2 */\n      0x00\n        /* \"contracts/HelloWorld.sol\":1026:1037  bool _bool2 */\n      dup1\n        /* \"contracts/HelloWorld.sol\":1051:1075  uint256[3] memory _array */\n      tag_38\n      tag_31\n      jump\t// in\n    tag_38:\n        /* \"contracts/HelloWorld.sol\":1144:1157  returnNamed() */\n      tag_40\n        /* \"contracts/HelloWorld.sol\":1144:1155  returnNamed */\n      tag_10\n        /* \"contracts/HelloWorld.sol\":1144:1157  returnNamed() */\n      jump\t// in\n    tag_40:\n        /* \"contracts/HelloWorld.sol\":1115:1157  (_number2, _bool2, _array) = returnNamed() */\n      dup1\n      swap4\n      pop\n      dup2\n      swap5\n      pop\n      dup3\n      swap6\n      pop\n      pop\n      pop\n      pop\n        /* \"contracts/HelloWorld.sol\":915:1164  function returnValue()... */\n      swap1\n      swap2\n      swap3\n      jump\t// out\n        /* \"contracts/HelloWorld.sol\":251:367  function addView(uint256 _number) public view returns (uint256 new_number) {... */\n    tag_28:\n        /* \"contracts/HelloWorld.sol\":306:324  uint256 new_number */\n      0x00\n        /* \"contracts/HelloWorld.sol\":359:360  1 */\n      0x01\n        /* \"contracts/HelloWorld.sol\":349:356  _number */\n      dup3\n        /* \"contracts/HelloWorld.sol\":349:360  _number + 1 */\n      tag_42\n      swap2\n      swap1\n      tag_35\n      jump\t// in\n    tag_42:\n        /* \"contracts/HelloWorld.sol\":336:360  new_number = _number + 1 */\n      swap1\n      pop\n        /* \"contracts/HelloWorld.sol\":251:367  function addView(uint256 _number) public view returns (uint256 new_number) {... */\n      swap2\n      swap1\n      pop\n      jump\t// out\n    tag_31:\n      mload(0x40)\n      dup1\n      0x60\n      add\n      0x40\n      mstore\n      dup1\n      0x03\n      swap1\n      0x20\n      dup3\n      mul\n      dup1\n      calldatasize\n      dup4\n      calldatacopy\n      dup1\n      dup3\n      add\n      swap2\n      pop\n      pop\n      swap1\n      pop\n      pop\n      swap1\n      jump\t// out\n        /* \"#utility.yul\":7:84   */\n    tag_43:\n        /* \"#utility.yul\":44:51   */\n      0x00\n        /* \"#utility.yul\":73:78   */\n      dup2\n        /* \"#utility.yul\":62:78   */\n      swap1\n      pop\n        /* \"#utility.yul\":7:84   */\n      swap2\n      swap1\n      pop\n      jump\t// out\n        /* \"#utility.yul\":90:208   */\n    tag_44:\n        /* \"#utility.yul\":177:201   */\n      tag_63\n        /* \"#utility.yul\":195:200   */\n      dup2\n        /* \"#utility.yul\":177:201   */\n      tag_43\n      jump\t// in\n    tag_63:\n        /* \"#utility.yul\":172:175   */\n      dup3\n        /* \"#utility.yul\":165:202   */\n      mstore\n        /* \"#utility.yul\":90:208   */\n      pop\n      pop\n      jump\t// out\n        /* \"#utility.yul\":214:304   */\n    tag_45:\n        /* \"#utility.yul\":248:255   */\n      0x00\n        /* \"#utility.yul\":291:296   */\n      dup2\n        /* \"#utility.yul\":284:297   */\n      iszero\n        /* \"#utility.yul\":277:298   */\n      iszero\n        /* \"#utility.yul\":266:298   */\n      swap1\n      pop\n        /* \"#utility.yul\":214:304   */\n      swap2\n      swap1\n      pop\n      jump\t// out\n        /* \"#utility.yul\":310:419   */\n    tag_46:\n        /* \"#utility.yul\":391:412   */\n      tag_66\n        /* \"#utility.yul\":406:411   */\n      dup2\n        /* \"#utility.yul\":391:412   */\n      tag_45\n      jump\t// in\n    tag_66:\n        /* \"#utility.yul\":386:389   */\n      dup3\n        /* \"#utility.yul\":379:413   */\n      mstore\n        /* \"#utility.yul\":310:419   */\n      pop\n      pop\n      jump\t// out\n        /* \"#utility.yul\":425:529   */\n    tag_47:\n        /* \"#utility.yul\":490:496   */\n      0x00\n        /* \"#utility.yul\":518:522   */\n      0x03\n        /* \"#utility.yul\":508:522   */\n      swap1\n      pop\n        /* \"#utility.yul\":425:529   */\n      swap2\n      swap1\n      pop\n      jump\t// out\n        /* \"#utility.yul\":535:678   */\n    tag_48:\n        /* \"#utility.yul\":632:643   */\n      0x00\n        /* \"#utility.yul\":669:672   */\n      dup2\n        /* \"#utility.yul\":654:672   */\n      swap1\n      pop\n        /* \"#utility.yul\":535:678   */\n      swap3\n      swap2\n      pop\n      pop\n      jump\t// out\n        /* \"#utility.yul\":684:782   */\n    tag_49:\n        /* \"#utility.yul\":749:753   */\n      0x00\n        /* \"#utility.yul\":772:775   */\n      dup2\n        /* \"#utility.yul\":764:775   */\n      swap1\n      pop\n        /* \"#utility.yul\":684:782   */\n      swap2\n      swap1\n      pop\n      jump\t// out\n        /* \"#utility.yul\":788:896   */\n    tag_50:\n        /* \"#utility.yul\":865:889   */\n      tag_71\n        /* \"#utility.yul\":883:888   */\n      dup2\n        /* \"#utility.yul\":865:889   */\n      tag_43\n      jump\t// in\n    tag_71:\n        /* \"#utility.yul\":860:863   */\n      dup3\n        /* \"#utility.yul\":853:890   */\n      mstore\n        /* \"#utility.yul\":788:896   */\n      pop\n      pop\n      jump\t// out\n        /* \"#utility.yul\":902:1081   */\n    tag_51:\n        /* \"#utility.yul\":971:981   */\n      0x00\n        /* \"#utility.yul\":992:1038   */\n      tag_73\n        /* \"#utility.yul\":1034:1037   */\n      dup4\n        /* \"#utility.yul\":1026:1032   */\n      dup4\n        /* \"#utility.yul\":992:1038   */\n      tag_50\n      jump\t// in\n    tag_73:\n        /* \"#utility.yul\":1070:1074   */\n      0x20\n        /* \"#utility.yul\":1065:1068   */\n      dup4\n        /* \"#utility.yul\":1061:1075   */\n      add\n        /* \"#utility.yul\":1047:1075   */\n      swap1\n      pop\n        /* \"#utility.yul\":902:1081   */\n      swap3\n      swap2\n      pop\n      pop\n      jump\t// out\n        /* \"#utility.yul\":1087:1198   */\n    tag_52:\n        /* \"#utility.yul\":1155:1159   */\n      0x00\n        /* \"#utility.yul\":1187:1191   */\n      0x20\n        /* \"#utility.yul\":1182:1185   */\n      dup3\n        /* \"#utility.yul\":1178:1192   */\n      add\n        /* \"#utility.yul\":1170:1192   */\n      swap1\n      pop\n        /* \"#utility.yul\":1087:1198   */\n      swap2\n      swap1\n      pop\n      jump\t// out\n        /* \"#utility.yul\":1236:1930   */\n    tag_53:\n        /* \"#utility.yul\":1372:1424   */\n      tag_76\n        /* \"#utility.yul\":1418:1423   */\n      dup2\n        /* \"#utility.yul\":1372:1424   */\n      tag_47\n      jump\t// in\n    tag_76:\n        /* \"#utility.yul\":1440:1524   */\n      tag_77\n        /* \"#utility.yul\":1517:1523   */\n      dup2\n        /* \"#utility.yul\":1512:1515   */\n      dup5\n        /* \"#utility.yul\":1440:1524   */\n      tag_48\n      jump\t// in\n    tag_77:\n        /* \"#utility.yul\":1433:1524   */\n      swap3\n      pop\n        /* \"#utility.yul\":1548:1602   */\n      tag_78\n        /* \"#utility.yul\":1596:1601   */\n      dup3\n        /* \"#utility.yul\":1548:1602   */\n      tag_49\n      jump\t// in\n    tag_78:\n        /* \"#utility.yul\":1625:1632   */\n      dup1\n        /* \"#utility.yul\":1656:1657   */\n      0x00\n        /* \"#utility.yul\":1641:1923   */\n    tag_79:\n        /* \"#utility.yul\":1666:1672   */\n      dup4\n        /* \"#utility.yul\":1663:1664   */\n      dup2\n        /* \"#utility.yul\":1660:1673   */\n      lt\n        /* \"#utility.yul\":1641:1923   */\n      iszero\n      tag_81\n      jumpi\n        /* \"#utility.yul\":1742:1748   */\n      dup2\n        /* \"#utility.yul\":1736:1749   */\n      mload\n        /* \"#utility.yul\":1769:1832   */\n      tag_82\n        /* \"#utility.yul\":1828:1831   */\n      dup8\n        /* \"#utility.yul\":1813:1826   */\n      dup3\n        /* \"#utility.yul\":1769:1832   */\n      tag_51\n      jump\t// in\n    tag_82:\n        /* \"#utility.yul\":1762:1832   */\n      swap7\n      pop\n        /* \"#utility.yul\":1855:1913   */\n      tag_83\n        /* \"#utility.yul\":1906:1912   */\n      dup4\n        /* \"#utility.yul\":1855:1913   */\n      tag_52\n      jump\t// in\n    tag_83:\n        /* \"#utility.yul\":1845:1913   */\n      swap3\n      pop\n        /* \"#utility.yul\":1701:1923   */\n      pop\n        /* \"#utility.yul\":1688:1689   */\n      0x01\n        /* \"#utility.yul\":1685:1686   */\n      dup2\n        /* \"#utility.yul\":1681:1690   */\n      add\n        /* \"#utility.yul\":1676:1690   */\n      swap1\n      pop\n        /* \"#utility.yul\":1641:1923   */\n      jump(tag_79)\n    tag_81:\n        /* \"#utility.yul\":1645:1659   */\n      pop\n        /* \"#utility.yul\":1348:1930   */\n      pop\n      pop\n      pop\n        /* \"#utility.yul\":1236:1930   */\n      pop\n      pop\n      jump\t// out\n        /* \"#utility.yul\":1936:2459   */\n    tag_12:\n        /* \"#utility.yul\":2125:2129   */\n      0x00\n        /* \"#utility.yul\":2163:2166   */\n      0xa0\n        /* \"#utility.yul\":2152:2161   */\n      dup3\n        /* \"#utility.yul\":2148:2167   */\n      add\n        /* \"#utility.yul\":2140:2167   */\n      swap1\n      pop\n        /* \"#utility.yul\":2177:2248   */\n      tag_85\n        /* \"#utility.yul\":2245:2246   */\n      0x00\n        /* \"#utility.yul\":2234:2243   */\n      dup4\n        /* \"#utility.yul\":2230:2247   */\n      add\n        /* \"#utility.yul\":2221:2227   */\n      dup7\n        /* \"#utility.yul\":2177:2248   */\n      tag_44\n      jump\t// in\n    tag_85:\n        /* \"#utility.yul\":2258:2324   */\n      tag_86\n        /* \"#utility.yul\":2320:2322   */\n      0x20\n        /* \"#utility.yul\":2309:2318   */\n      dup4\n        /* \"#utility.yul\":2305:2323   */\n      add\n        /* \"#utility.yul\":2296:2302   */\n      dup6\n        /* \"#utility.yul\":2258:2324   */\n      tag_46\n      jump\t// in\n    tag_86:\n        /* \"#utility.yul\":2334:2452   */\n      tag_87\n        /* \"#utility.yul\":2448:2450   */\n      0x40\n        /* \"#utility.yul\":2437:2446   */\n      dup4\n        /* \"#utility.yul\":2433:2451   */\n      add\n        /* \"#utility.yul\":2424:2430   */\n      dup5\n        /* \"#utility.yul\":2334:2452   */\n      tag_53\n      jump\t// in\n    tag_87:\n        /* \"#utility.yul\":1936:2459   */\n      swap5\n      swap4\n      pop\n      pop\n      pop\n      pop\n      jump\t// out\n        /* \"#utility.yul\":2465:2687   */\n    tag_18:\n        /* \"#utility.yul\":2558:2562   */\n      0x00\n        /* \"#utility.yul\":2596:2598   */\n      0x20\n        /* \"#utility.yul\":2585:2594   */\n      dup3\n        /* \"#utility.yul\":2581:2599   */\n      add\n        /* \"#utility.yul\":2573:2599   */\n      swap1\n      pop\n        /* \"#utility.yul\":2609:2680   */\n      tag_89\n        /* \"#utility.yul\":2677:2678   */\n      0x00\n        /* \"#utility.yul\":2666:2675   */\n      dup4\n        /* \"#utility.yul\":2662:2679   */\n      add\n        /* \"#utility.yul\":2653:2659   */\n      dup5\n        /* \"#utility.yul\":2609:2680   */\n      tag_44\n      jump\t// in\n    tag_89:\n        /* \"#utility.yul\":2465:2687   */\n      swap3\n      swap2\n      pop\n      pop\n      jump\t// out\n        /* \"#utility.yul\":2774:2891   */\n    tag_55:\n        /* \"#utility.yul\":2883:2884   */\n      0x00\n        /* \"#utility.yul\":2880:2881   */\n      dup1\n        /* \"#utility.yul\":2873:2885   */\n      revert\n        /* \"#utility.yul\":3020:3142   */\n    tag_57:\n        /* \"#utility.yul\":3093:3117   */\n      tag_94\n        /* \"#utility.yul\":3111:3116   */\n      dup2\n        /* \"#utility.yul\":3093:3117   */\n      tag_43\n      jump\t// in\n    tag_94:\n        /* \"#utility.yul\":3086:3091   */\n      dup2\n        /* \"#utility.yul\":3083:3118   */\n      eq\n        /* \"#utility.yul\":3073:3136   */\n      tag_95\n      jumpi\n        /* \"#utility.yul\":3132:3133   */\n      0x00\n        /* \"#utility.yul\":3129:3130   */\n      dup1\n        /* \"#utility.yul\":3122:3134   */\n      revert\n        /* \"#utility.yul\":3073:3136   */\n    tag_95:\n        /* \"#utility.yul\":3020:3142   */\n      pop\n      jump\t// out\n        /* \"#utility.yul\":3148:3287   */\n    tag_58:\n        /* \"#utility.yul\":3194:3199   */\n      0x00\n        /* \"#utility.yul\":3232:3238   */\n      dup2\n        /* \"#utility.yul\":3219:3239   */\n      calldataload\n        /* \"#utility.yul\":3210:3239   */\n      swap1\n      pop\n        /* \"#utility.yul\":3248:3281   */\n      tag_97\n        /* \"#utility.yul\":3275:3280   */\n      dup2\n        /* \"#utility.yul\":3248:3281   */\n      tag_57\n      jump\t// in\n    tag_97:\n        /* \"#utility.yul\":3148:3287   */\n      swap3\n      swap2\n      pop\n      pop\n      jump\t// out\n        /* \"#utility.yul\":3293:3622   */\n    tag_27:\n        /* \"#utility.yul\":3352:3358   */\n      0x00\n        /* \"#utility.yul\":3401:3403   */\n      0x20\n        /* \"#utility.yul\":3389:3398   */\n      dup3\n        /* \"#utility.yul\":3380:3387   */\n      dup5\n        /* \"#utility.yul\":3376:3399   */\n      sub\n        /* \"#utility.yul\":3372:3404   */\n      slt\n        /* \"#utility.yul\":3369:3488   */\n      iszero\n      tag_99\n      jumpi\n        /* \"#utility.yul\":3407:3486   */\n      tag_100\n      tag_55\n      jump\t// in\n    tag_100:\n        /* \"#utility.yul\":3369:3488   */\n    tag_99:\n        /* \"#utility.yul\":3527:3528   */\n      0x00\n        /* \"#utility.yul\":3552:3605   */\n      tag_101\n        /* \"#utility.yul\":3597:3604   */\n      dup5\n        /* \"#utility.yul\":3588:3594   */\n      dup3\n        /* \"#utility.yul\":3577:3586   */\n      dup6\n        /* \"#utility.yul\":3573:3595   */\n      add\n        /* \"#utility.yul\":3552:3605   */\n      tag_58\n      jump\t// in\n    tag_101:\n        /* \"#utility.yul\":3542:3605   */\n      swap2\n      pop\n        /* \"#utility.yul\":3498:3615   */\n      pop\n        /* \"#utility.yul\":3293:3622   */\n      swap3\n      swap2\n      pop\n      pop\n      jump\t// out\n        /* \"#utility.yul\":3628:3808   */\n    tag_59:\n        /* \"#utility.yul\":3676:3753   */\n      0x4e487b7100000000000000000000000000000000000000000000000000000000\n        /* \"#utility.yul\":3673:3674   */\n      0x00\n        /* \"#utility.yul\":3666:3754   */\n      mstore\n        /* \"#utility.yul\":3773:3777   */\n      0x11\n        /* \"#utility.yul\":3770:3771   */\n      0x04\n        /* \"#utility.yul\":3763:3778   */\n      mstore\n        /* \"#utility.yul\":3797:3801   */\n      0x24\n        /* \"#utility.yul\":3794:3795   */\n      0x00\n        /* \"#utility.yul\":3787:3802   */\n      revert\n        /* \"#utility.yul\":3814:4005   */\n    tag_35:\n        /* \"#utility.yul\":3854:3857   */\n      0x00\n        /* \"#utility.yul\":3873:3893   */\n      tag_104\n        /* \"#utility.yul\":3891:3892   */\n      dup3\n        /* \"#utility.yul\":3873:3893   */\n      tag_43\n      jump\t// in\n    tag_104:\n        /* \"#utility.yul\":3868:3893   */\n      swap2\n      pop\n        /* \"#utility.yul\":3907:3927   */\n      tag_105\n        /* \"#utility.yul\":3925:3926   */\n      dup4\n        /* \"#utility.yul\":3907:3927   */\n      tag_43\n      jump\t// in\n    tag_105:\n        /* \"#utility.yul\":3902:3927   */\n      swap3\n      pop\n        /* \"#utility.yul\":3950:3951   */\n      dup3\n        /* \"#utility.yul\":3947:3948   */\n      dup3\n        /* \"#utility.yul\":3943:3952   */\n      add\n        /* \"#utility.yul\":3936:3952   */\n      swap1\n      pop\n        /* \"#utility.yul\":3971:3974   */\n      dup1\n        /* \"#utility.yul\":3968:3969   */\n      dup3\n        /* \"#utility.yul\":3965:3975   */\n      gt\n        /* \"#utility.yul\":3962:3998   */\n      iszero\n      tag_106\n      jumpi\n        /* \"#utility.yul\":3978:3996   */\n      tag_107\n      tag_59\n      jump\t// in\n    tag_107:\n        /* \"#utility.yul\":3962:3998   */\n    tag_106:\n        /* \"#utility.yul\":3814:4005   */\n      swap3\n      swap2\n      pop\n      pop\n      jump\t// out\n\n    auxdata: 0xa2646970667358221220657e2af067093ee2f3399e106cffdb0f2e6a281a8d5e548cebf040257bbb2ff864736f6c634300081a0033\n}\n",
				"bytecode": {
					"linkReferences": {},
					"object": "608060405260055f553480156012575f80fd5b50610411806100205f395ff3fe608060405234801561000f575f80fd5b5060043610610060575f3560e01c80633dece511146100645780634f2be91f146100845780638381f58a1461008e5780638552dc08146100ac578063990c8f79146100cc578063cfeb3b9a146100ec575b5f80fd5b61006c61011c565b60405161007b939291906102d4565b60405180910390f35b61008c610152565b005b610096610167565b6040516100a39190610309565b60405180910390f35b6100b461016c565b6040516100c3939291906102d4565b60405180910390f35b6100d46101a3565b6040516100e3939291906102d4565b60405180910390f35b61010660048036038101906101019190610350565b6101c6565b6040516101139190610309565b60405180910390f35b5f806101266101db565b600292505f91506040518060600160405280600381526020016002815260200160018152509050909192565b60015f5461016091906103a8565b5f81905550565b5f5481565b5f806101766101db565b600b6001604051806060016040528060078152602001600881526020016008815250925092509250909192565b5f806101ad6101db565b6101b561011c565b809350819450829550505050909192565b5f6001826101d491906103a8565b9050919050565b6040518060600160405280600390602082028036833780820191505090505090565b5f819050919050565b61020f816101fd565b82525050565b5f8115159050919050565b61022981610215565b82525050565b5f60039050919050565b5f81905092915050565b5f819050919050565b610255816101fd565b82525050565b5f610266838361024c565b60208301905092915050565b5f602082019050919050565b6102878161022f565b6102918184610239565b925061029c82610243565b805f5b838110156102cc5781516102b3878261025b565b96506102be83610272565b92505060018101905061029f565b505050505050565b5f60a0820190506102e75f830186610206565b6102f46020830185610220565b610301604083018461027e565b949350505050565b5f60208201905061031c5f830184610206565b92915050565b5f80fd5b61032f816101fd565b8114610339575f80fd5b50565b5f8135905061034a81610326565b92915050565b5f6020828403121561036557610364610322565b5b5f6103728482850161033c565b91505092915050565b7f4e487b71000000000000000000000000000000000000000000000000000000005f52601160045260245ffd5b5f6103b2826101fd565b91506103bd836101fd565b92508282019050808211156103d5576103d461037b565b5b9291505056fea2646970667358221220657e2af067093ee2f3399e106cffdb0f2e6a281a8d5e548cebf040257bbb2ff864736f6c634300081a0033",
					"opcodes": "PUSH1 0x80 PUSH1 0x40 MSTORE PUSH1 0x5 PUSH0 SSTORE CALLVALUE DUP1 ISZERO PUSH1 0x12 JUMPI PUSH0 DUP1 REVERT JUMPDEST POP PUSH2 0x411 DUP1 PUSH2 0x20 PUSH0 CODECOPY PUSH0 RETURN INVALID PUSH1 0x80 PUSH1 0x40 MSTORE CALLVALUE DUP1 ISZERO PUSH2 0xF JUMPI PUSH0 DUP1 REVERT JUMPDEST POP PUSH1 0x4 CALLDATASIZE LT PUSH2 0x60 JUMPI PUSH0 CALLDATALOAD PUSH1 0xE0 SHR DUP1 PUSH4 0x3DECE511 EQ PUSH2 0x64 JUMPI DUP1 PUSH4 0x4F2BE91F EQ PUSH2 0x84 JUMPI DUP1 PUSH4 0x8381F58A EQ PUSH2 0x8E JUMPI DUP1 PUSH4 0x8552DC08 EQ PUSH2 0xAC JUMPI DUP1 PUSH4 0x990C8F79 EQ PUSH2 0xCC JUMPI DUP1 PUSH4 0xCFEB3B9A EQ PUSH2 0xEC JUMPI JUMPDEST PUSH0 DUP1 REVERT JUMPDEST PUSH2 0x6C PUSH2 0x11C JUMP JUMPDEST PUSH1 0x40 MLOAD PUSH2 0x7B SWAP4 SWAP3 SWAP2 SWAP1 PUSH2 0x2D4 JUMP JUMPDEST PUSH1 0x40 MLOAD DUP1 SWAP2 SUB SWAP1 RETURN JUMPDEST PUSH2 0x8C PUSH2 0x152 JUMP JUMPDEST STOP JUMPDEST PUSH2 0x96 PUSH2 0x167 JUMP JUMPDEST PUSH1 0x40 MLOAD PUSH2 0xA3 SWAP2 SWAP1 PUSH2 0x309 JUMP JUMPDEST PUSH1 0x40 MLOAD DUP1 SWAP2 SUB SWAP1 RETURN JUMPDEST PUSH2 0xB4 PUSH2 0x16C JUMP JUMPDEST PUSH1 0x40 MLOAD PUSH2 0xC3 SWAP4 SWAP3 SWAP2 SWAP1 PUSH2 0x2D4 JUMP JUMPDEST PUSH1 0x40 MLOAD DUP1 SWAP2 SUB SWAP1 RETURN JUMPDEST PUSH2 0xD4 PUSH2 0x1A3 JUMP JUMPDEST PUSH1 0x40 MLOAD PUSH2 0xE3 SWAP4 SWAP3 SWAP2 SWAP1 PUSH2 0x2D4 JUMP JUMPDEST PUSH1 0x40 MLOAD DUP1 SWAP2 SUB SWAP1 RETURN JUMPDEST PUSH2 0x106 PUSH1 0x4 DUP1 CALLDATASIZE SUB DUP2 ADD SWAP1 PUSH2 0x101 SWAP2 SWAP1 PUSH2 0x350 JUMP JUMPDEST PUSH2 0x1C6 JUMP JUMPDEST PUSH1 0x40 MLOAD PUSH2 0x113 SWAP2 SWAP1 PUSH2 0x309 JUMP JUMPDEST PUSH1 0x40 MLOAD DUP1 SWAP2 SUB SWAP1 RETURN JUMPDEST PUSH0 DUP1 PUSH2 0x126 PUSH2 0x1DB JUMP JUMPDEST PUSH1 0x2 SWAP3 POP PUSH0 SWAP2 POP PUSH1 0x40 MLOAD DUP1 PUSH1 0x60 ADD PUSH1 0x40 MSTORE DUP1 PUSH1 0x3 DUP2 MSTORE PUSH1 0x20 ADD PUSH1 0x2 DUP2 MSTORE PUSH1 0x20 ADD PUSH1 0x1 DUP2 MSTORE POP SWAP1 POP SWAP1 SWAP2 SWAP3 JUMP JUMPDEST PUSH1 0x1 PUSH0 SLOAD PUSH2 0x160 SWAP2 SWAP1 PUSH2 0x3A8 JUMP JUMPDEST PUSH0 DUP2 SWAP1 SSTORE POP JUMP JUMPDEST PUSH0 SLOAD DUP2 JUMP JUMPDEST PUSH0 DUP1 PUSH2 0x176 PUSH2 0x1DB JUMP JUMPDEST PUSH1 0xB PUSH1 0x1 PUSH1 0x40 MLOAD DUP1 PUSH1 0x60 ADD PUSH1 0x40 MSTORE DUP1 PUSH1 0x7 DUP2 MSTORE PUSH1 0x20 ADD PUSH1 0x8 DUP2 MSTORE PUSH1 0x20 ADD PUSH1 0x8 DUP2 MSTORE POP SWAP3 POP SWAP3 POP SWAP3 POP SWAP1 SWAP2 SWAP3 JUMP JUMPDEST PUSH0 DUP1 PUSH2 0x1AD PUSH2 0x1DB JUMP JUMPDEST PUSH2 0x1B5 PUSH2 0x11C JUMP JUMPDEST DUP1 SWAP4 POP DUP2 SWAP5 POP DUP3 SWAP6 POP POP POP POP SWAP1 SWAP2 SWAP3 JUMP JUMPDEST PUSH0 PUSH1 0x1 DUP3 PUSH2 0x1D4 SWAP2 SWAP1 PUSH2 0x3A8 JUMP JUMPDEST SWAP1 POP SWAP2 SWAP1 POP JUMP JUMPDEST PUSH1 0x40 MLOAD DUP1 PUSH1 0x60 ADD PUSH1 0x40 MSTORE DUP1 PUSH1 0x3 SWAP1 PUSH1 0x20 DUP3 MUL DUP1 CALLDATASIZE DUP4 CALLDATACOPY DUP1 DUP3 ADD SWAP2 POP POP SWAP1 POP POP SWAP1 JUMP JUMPDEST PUSH0 DUP2 SWAP1 POP SWAP2 SWAP1 POP JUMP JUMPDEST PUSH2 0x20F DUP2 PUSH2 0x1FD JUMP JUMPDEST DUP3 MSTORE POP POP JUMP JUMPDEST PUSH0 DUP2 ISZERO ISZERO SWAP1 POP SWAP2 SWAP1 POP JUMP JUMPDEST PUSH2 0x229 DUP2 PUSH2 0x215 JUMP JUMPDEST DUP3 MSTORE POP POP JUMP JUMPDEST PUSH0 PUSH1 0x3 SWAP1 POP SWAP2 SWAP1 POP JUMP JUMPDEST PUSH0 DUP2 SWAP1 POP SWAP3 SWAP2 POP POP JUMP JUMPDEST PUSH0 DUP2 SWAP1 POP SWAP2 SWAP1 POP JUMP JUMPDEST PUSH2 0x255 DUP2 PUSH2 0x1FD JUMP JUMPDEST DUP3 MSTORE POP POP JUMP JUMPDEST PUSH0 PUSH2 0x266 DUP4 DUP4 PUSH2 0x24C JUMP JUMPDEST PUSH1 0x20 DUP4 ADD SWAP1 POP SWAP3 SWAP2 POP POP JUMP JUMPDEST PUSH0 PUSH1 0x20 DUP3 ADD SWAP1 POP SWAP2 SWAP1 POP JUMP JUMPDEST PUSH2 0x287 DUP2 PUSH2 0x22F JUMP JUMPDEST PUSH2 0x291 DUP2 DUP5 PUSH2 0x239 JUMP JUMPDEST SWAP3 POP PUSH2 0x29C DUP3 PUSH2 0x243 JUMP JUMPDEST DUP1 PUSH0 JUMPDEST DUP4 DUP2 LT ISZERO PUSH2 0x2CC JUMPI DUP2 MLOAD PUSH2 0x2B3 DUP8 DUP3 PUSH2 0x25B JUMP JUMPDEST SWAP7 POP PUSH2 0x2BE DUP4 PUSH2 0x272 JUMP JUMPDEST SWAP3 POP POP PUSH1 0x1 DUP2 ADD SWAP1 POP PUSH2 0x29F JUMP JUMPDEST POP POP POP POP POP POP JUMP JUMPDEST PUSH0 PUSH1 0xA0 DUP3 ADD SWAP1 POP PUSH2 0x2E7 PUSH0 DUP4 ADD DUP7 PUSH2 0x206 JUMP JUMPDEST PUSH2 0x2F4 PUSH1 0x20 DUP4 ADD DUP6 PUSH2 0x220 JUMP JUMPDEST PUSH2 0x301 PUSH1 0x40 DUP4 ADD DUP5 PUSH2 0x27E JUMP JUMPDEST SWAP5 SWAP4 POP POP POP POP JUMP JUMPDEST PUSH0 PUSH1 0x20 DUP3 ADD SWAP1 POP PUSH2 0x31C PUSH0 DUP4 ADD DUP5 PUSH2 0x206 JUMP JUMPDEST SWAP3 SWAP2 POP POP JUMP JUMPDEST PUSH0 DUP1 REVERT JUMPDEST PUSH2 0x32F DUP2 PUSH2 0x1FD JUMP JUMPDEST DUP2 EQ PUSH2 0x339 JUMPI PUSH0 DUP1 REVERT JUMPDEST POP JUMP JUMPDEST PUSH0 DUP2 CALLDATALOAD SWAP1 POP PUSH2 0x34A DUP2 PUSH2 0x326 JUMP JUMPDEST SWAP3 SWAP2 POP POP JUMP JUMPDEST PUSH0 PUSH1 0x20 DUP3 DUP5 SUB SLT ISZERO PUSH2 0x365 JUMPI PUSH2 0x364 PUSH2 0x322 JUMP JUMPDEST JUMPDEST PUSH0 PUSH2 0x372 DUP5 DUP3 DUP6 ADD PUSH2 0x33C JUMP JUMPDEST SWAP2 POP POP SWAP3 SWAP2 POP POP JUMP JUMPDEST PUSH32 0x4E487B7100000000000000000000000000000000000000000000000000000000 PUSH0 MSTORE PUSH1 0x11 PUSH1 0x4 MSTORE PUSH1 0x24 PUSH0 REVERT JUMPDEST PUSH0 PUSH2 0x3B2 DUP3 PUSH2 0x1FD JUMP JUMPDEST SWAP2 POP PUSH2 0x3BD DUP4 PUSH2 0x1FD JUMP JUMPDEST SWAP3 POP DUP3 DUP3 ADD SWAP1 POP DUP1 DUP3 GT ISZERO PUSH2 0x3D5 JUMPI PUSH2 0x3D4 PUSH2 0x37B JUMP JUMPDEST JUMPDEST SWAP3 SWAP2 POP POP JUMP INVALID LOG2 PUSH5 0x6970667358 0x22 SLT KECCAK256 PUSH6 0x7E2AF067093E 0xE2 RETURN CODECOPY SWAP15 LT PUSH13 0xFFDB0F2E6A281A8D5E548CEBF0 BLOCKHASH 0x25 PUSH28 0xBB2FF864736F6C634300081A00330000000000000000000000000000 "
				},
				"gasEstimates": {
					"creation": {
						"codeDepositCost": "208200",
						"executionCost": "22354",
						"totalCost": "230554"
					},
					"external": {
						"add()": "infinite",
						"addView(uint256)": "infinite",
						"number()": "2446",
						"returnNamed()": "infinite",
						"returnNamed2()": "infinite",
						"returnValue()": "infinite"
					}
				},
				"methodIdentifiers": {
					"add()": "4f2be91f",
					"addView(uint256)": "cfeb3b9a",
					"number()": "8381f58a",
					"returnNamed()": "3dece511",
					"returnNamed2()": "8552dc08",
					"returnValue()": "990c8f79"
				}
			},
			"storageLayout": {
				"storage": [
					{
						"astId": 4,
						"contract": "contracts/HelloWorld.sol:HelloWeb",
						"label": "number",
						"offset": 0,
						"slot": "0",
						"type": "t_uint256"
					}
				],
				"types": {
					"t_uint256": {
						"encoding": "inplace",
						"label": "uint256",
						"numberOfBytes": "32"
					}
				}
			},
			"userdoc": {
				"kind": "user",
				"methods": {},
				"version": 1
			}
		}
	}
}