{
	"contracts/study2/CallData.sol": {
		"CallData": {
			"abi": [
				{
					"anonymous": false,
					"inputs": [
						{
							"indexed": false,
							"internalType": "bytes",
							"name": "data",
							"type": "bytes"
						}
					],
					"name": "Log",
					"type": "event"
				},
				{
					"stateMutability": "payable",
					"type": "fallback"
				},
				{
					"inputs": [],
					"name": "callWithSignature",
					"outputs": [],
					"stateMutability": "nonpayable",
					"type": "function"
				},
				{
					"inputs": [
						{
							"internalType": "address",
							"name": "x",
							"type": "address"
						}
					],
					"name": "encodeWithSignature",
					"outputs": [
						{
							"internalType": "bytes",
							"name": "result",
							"type": "bytes"
						}
					],
					"stateMutability": "view",
					"type": "function"
				},
				{
					"inputs": [
						{
							"internalType": "address",
							"name": "to",
							"type": "address"
						}
					],
					"name": "mint",
					"outputs": [],
					"stateMutability": "nonpayable",
					"type": "function"
				},
				{
					"inputs": [],
					"name": "mintSelector",
					"outputs": [
						{
							"internalType": "bytes4",
							"name": "mSelector",
							"type": "bytes4"
						}
					],
					"stateMutability": "pure",
					"type": "function"
				}
			],
			"devdoc": {
				"kind": "dev",
				"methods": {},
				"version": 1
			},
			"evm": {
				"assembly": "    /* \"contracts/study2/CallData.sol\":58:800  contract CallData {... */\n  mstore(0x40, 0x80)\n  callvalue\n  dup1\n  iszero\n  tag_1\n  jumpi\n  0x00\n  dup1\n  revert\ntag_1:\n  pop\n  dataSize(sub_0)\n  dup1\n  dataOffset(sub_0)\n  0x00\n  codecopy\n  0x00\n  return\nstop\n\nsub_0: assembly {\n        /* \"contracts/study2/CallData.sol\":58:800  contract CallData {... */\n      mstore(0x40, 0x80)\n      jumpi(tag_1, lt(calldatasize, 0x04))\n      shr(0xe0, calldataload(0x00))\n      dup1\n      0x046dab16\n      eq\n      tag_3\n      jumpi\n      dup1\n      0x59ebea23\n      eq\n      tag_4\n      jumpi\n      dup1\n      0x6a627842\n      eq\n      tag_5\n      jumpi\n      dup1\n      0xda90d0c9\n      eq\n      tag_6\n      jumpi\n      jump(tag_2)\n    tag_1:\n    tag_2:\n      stop\n        /* \"contracts/study2/CallData.sol\":186:309  function mintSelector() external pure returns (bytes4 mSelector) {... */\n    tag_3:\n      callvalue\n      dup1\n      iszero\n      tag_9\n      jumpi\n      0x00\n      dup1\n      revert\n    tag_9:\n      pop\n      tag_10\n      tag_11\n      jump\t// in\n    tag_10:\n      mload(0x40)\n      tag_12\n      swap2\n      swap1\n      tag_13\n      jump\t// in\n    tag_12:\n      mload(0x40)\n      dup1\n      swap2\n      sub\n      swap1\n      return\n        /* \"contracts/study2/CallData.sol\":536:798  function callWithSignature() external {... */\n    tag_4:\n      callvalue\n      dup1\n      iszero\n      tag_14\n      jumpi\n      0x00\n      dup1\n      revert\n    tag_14:\n      pop\n      tag_15\n      tag_16\n      jump\t// in\n    tag_15:\n      stop\n        /* \"contracts/study2/CallData.sol\":110:180  function mint(address to) external {... */\n    tag_5:\n      callvalue\n      dup1\n      iszero\n      tag_17\n      jumpi\n      0x00\n      dup1\n      revert\n    tag_17:\n      pop\n      tag_18\n      0x04\n      dup1\n      calldatasize\n      sub\n      dup2\n      add\n      swap1\n      tag_19\n      swap2\n      swap1\n      tag_20\n      jump\t// in\n    tag_19:\n      tag_21\n      jump\t// in\n    tag_18:\n      stop\n        /* \"contracts/study2/CallData.sol\":315:494  function encodeWithSignature(address x)... */\n    tag_6:\n      callvalue\n      dup1\n      iszero\n      tag_22\n      jumpi\n      0x00\n      dup1\n      revert\n    tag_22:\n      pop\n      tag_23\n      0x04\n      dup1\n      calldatasize\n      sub\n      dup2\n      add\n      swap1\n      tag_24\n      swap2\n      swap1\n      tag_20\n      jump\t// in\n    tag_24:\n      tag_25\n      jump\t// in\n    tag_23:\n      mload(0x40)\n      tag_26\n      swap2\n      swap1\n      tag_27\n      jump\t// in\n    tag_26:\n      mload(0x40)\n      dup1\n      swap2\n      sub\n      swap1\n      return\n        /* \"contracts/study2/CallData.sol\":186:309  function mintSelector() external pure returns (bytes4 mSelector) {... */\n    tag_11:\n        /* \"contracts/study2/CallData.sol\":233:249  bytes4 mSelector */\n      0x00\n        /* \"contracts/study2/CallData.sol\":275:301  keccak256(\"mint(address)\") */\n      0x6a627842f752de95745ef8f3ca67858982b5f585d752f8163e5855050041cb3c\n        /* \"contracts/study2/CallData.sol\":261:302  return bytes4(keccak256(\"mint(address)\")) */\n      swap1\n      pop\n        /* \"contracts/study2/CallData.sol\":186:309  function mintSelector() external pure returns (bytes4 mSelector) {... */\n      swap1\n      jump\t// out\n        /* \"contracts/study2/CallData.sol\":536:798  function callWithSignature() external {... */\n    tag_16:\n        /* \"contracts/study2/CallData.sol\":632:645  bool success1 */\n      0x00\n        /* \"contracts/study2/CallData.sol\":647:665  bytes memory data1 */\n      dup1\n        /* \"contracts/study2/CallData.sol\":677:681  this */\n      address\n        /* \"contracts/study2/CallData.sol\":669:687  address(this).call */\n      0xffffffffffffffffffffffffffffffffffffffff\n      and\n        /* \"contracts/study2/CallData.sol\":724:734  0x6a627842 */\n      0x6a627842\n        /* \"contracts/study2/CallData.sol\":701:781  abi.encodeWithSelector(0x6a627842, \"0x54f51e51ba5C5d02899eDBb78fcb096C69c7439D\") */\n      add(0x24, mload(0x40))\n      tag_30\n      swap1\n      tag_31\n      jump\t// in\n    tag_30:\n      mload(0x40)\n      0x20\n      dup2\n      dup4\n      sub\n      sub\n      dup2\n      mstore\n      swap1\n      0x40\n      mstore\n      swap1\n      0xe0\n      shl\n      0x20\n      dup3\n      add\n      dup1\n      mload\n      0xffffffffffffffffffffffffffffffffffffffffffffffffffffffff\n      dup4\n      dup2\n      dup4\n      and\n      or\n      dup4\n      mstore\n      pop\n      pop\n      pop\n      pop\n        /* \"contracts/study2/CallData.sol\":669:791  address(this).call(... */\n      mload(0x40)\n      tag_32\n      swap2\n      swap1\n      tag_33\n      jump\t// in\n    tag_32:\n      0x00\n      mload(0x40)\n      dup1\n      dup4\n      sub\n      dup2\n      0x00\n      dup7\n      gas\n      call\n      swap2\n      pop\n      pop\n      returndatasize\n      dup1\n      0x00\n      dup2\n      eq\n      tag_36\n      jumpi\n      mload(0x40)\n      swap2\n      pop\n      and(add(returndatasize, 0x3f), not(0x1f))\n      dup3\n      add\n      0x40\n      mstore\n      returndatasize\n      dup3\n      mstore\n      returndatasize\n      0x00\n      0x20\n      dup5\n      add\n      returndatacopy\n      jump(tag_35)\n    tag_36:\n      0x60\n      swap2\n      pop\n    tag_35:\n      pop\n        /* \"contracts/study2/CallData.sol\":631:791  (bool success1, bytes memory data1) = address(this).call(... */\n      swap2\n      pop\n      swap2\n      pop\n        /* \"contracts/study2/CallData.sol\":574:798  {... */\n      pop\n      pop\n        /* \"contracts/study2/CallData.sol\":536:798  function callWithSignature() external {... */\n      jump\t// out\n        /* \"contracts/study2/CallData.sol\":110:180  function mint(address to) external {... */\n    tag_21:\n        /* \"contracts/study2/CallData.sol\":160:173  Log(msg.data) */\n      0xafabcf2dd47e06a477a89e49c03f8ebe8e0a7e94f775b25bbb24227c9d0110b2\n        /* \"contracts/study2/CallData.sol\":164:172  msg.data */\n      0x00\n      calldatasize\n        /* \"contracts/study2/CallData.sol\":160:173  Log(msg.data) */\n      mload(0x40)\n      tag_38\n      swap3\n      swap2\n      swap1\n      tag_39\n      jump\t// in\n    tag_38:\n      mload(0x40)\n      dup1\n      swap2\n      sub\n      swap1\n      log1\n        /* \"contracts/study2/CallData.sol\":110:180  function mint(address to) external {... */\n      pop\n      jump\t// out\n        /* \"contracts/study2/CallData.sol\":315:494  function encodeWithSignature(address x)... */\n    tag_25:\n        /* \"contracts/study2/CallData.sol\":400:419  bytes memory result */\n      0x60\n        /* \"contracts/study2/CallData.sol\":485:486  x */\n      dup2\n        /* \"contracts/study2/CallData.sol\":444:487  abi.encodeWithSignature(\"mint(address)\", x) */\n      add(0x24, mload(0x40))\n      tag_41\n      swap2\n      swap1\n      tag_42\n      jump\t// in\n    tag_41:\n      mload(0x40)\n      0x20\n      dup2\n      dup4\n      sub\n      sub\n      dup2\n      mstore\n      swap1\n      0x40\n      mstore\n      and(not(0xffffffffffffffffffffffffffffffffffffffffffffffffffffffff), 0x6a62784200000000000000000000000000000000000000000000000000000000)\n      0x20\n      dup3\n      add\n      dup1\n      mload\n      0xffffffffffffffffffffffffffffffffffffffffffffffffffffffff\n      dup4\n      dup2\n      dup4\n      and\n      or\n      dup4\n      mstore\n      pop\n      pop\n      pop\n      pop\n        /* \"contracts/study2/CallData.sol\":435:487  result = abi.encodeWithSignature(\"mint(address)\", x) */\n      swap1\n      pop\n        /* \"contracts/study2/CallData.sol\":315:494  function encodeWithSignature(address x)... */\n      swap2\n      swap1\n      pop\n      jump\t// out\n        /* \"#utility.yul\":7:156   */\n    tag_43:\n        /* \"#utility.yul\":43:50   */\n      0x00\n        /* \"#utility.yul\":83:149   */\n      0xffffffff00000000000000000000000000000000000000000000000000000000\n        /* \"#utility.yul\":76:81   */\n      dup3\n        /* \"#utility.yul\":72:150   */\n      and\n        /* \"#utility.yul\":61:150   */\n      swap1\n      pop\n        /* \"#utility.yul\":7:156   */\n      swap2\n      swap1\n      pop\n      jump\t// out\n        /* \"#utility.yul\":162:277   */\n    tag_44:\n        /* \"#utility.yul\":247:270   */\n      tag_68\n        /* \"#utility.yul\":264:269   */\n      dup2\n        /* \"#utility.yul\":247:270   */\n      tag_43\n      jump\t// in\n    tag_68:\n        /* \"#utility.yul\":242:245   */\n      dup3\n        /* \"#utility.yul\":235:271   */\n      mstore\n        /* \"#utility.yul\":162:277   */\n      pop\n      pop\n      jump\t// out\n        /* \"#utility.yul\":283:501   */\n    tag_13:\n        /* \"#utility.yul\":374:378   */\n      0x00\n        /* \"#utility.yul\":412:414   */\n      0x20\n        /* \"#utility.yul\":401:410   */\n      dup3\n        /* \"#utility.yul\":397:415   */\n      add\n        /* \"#utility.yul\":389:415   */\n      swap1\n      pop\n        /* \"#utility.yul\":425:494   */\n      tag_70\n        /* \"#utility.yul\":491:492   */\n      0x00\n        /* \"#utility.yul\":480:489   */\n      dup4\n        /* \"#utility.yul\":476:493   */\n      add\n        /* \"#utility.yul\":467:473   */\n      dup5\n        /* \"#utility.yul\":425:494   */\n      tag_44\n      jump\t// in\n    tag_70:\n        /* \"#utility.yul\":283:501   */\n      swap3\n      swap2\n      pop\n      pop\n      jump\t// out\n        /* \"#utility.yul\":588:705   */\n    tag_46:\n        /* \"#utility.yul\":697:698   */\n      0x00\n        /* \"#utility.yul\":694:695   */\n      dup1\n        /* \"#utility.yul\":687:699   */\n      revert\n        /* \"#utility.yul\":834:960   */\n    tag_48:\n        /* \"#utility.yul\":871:878   */\n      0x00\n        /* \"#utility.yul\":911:953   */\n      0xffffffffffffffffffffffffffffffffffffffff\n        /* \"#utility.yul\":904:909   */\n      dup3\n        /* \"#utility.yul\":900:954   */\n      and\n        /* \"#utility.yul\":889:954   */\n      swap1\n      pop\n        /* \"#utility.yul\":834:960   */\n      swap2\n      swap1\n      pop\n      jump\t// out\n        /* \"#utility.yul\":966:1062   */\n    tag_49:\n        /* \"#utility.yul\":1003:1010   */\n      0x00\n        /* \"#utility.yul\":1032:1056   */\n      tag_76\n        /* \"#utility.yul\":1050:1055   */\n      dup3\n        /* \"#utility.yul\":1032:1056   */\n      tag_48\n      jump\t// in\n    tag_76:\n        /* \"#utility.yul\":1021:1056   */\n      swap1\n      pop\n        /* \"#utility.yul\":966:1062   */\n      swap2\n      swap1\n      pop\n      jump\t// out\n        /* \"#utility.yul\":1068:1190   */\n    tag_50:\n        /* \"#utility.yul\":1141:1165   */\n      tag_78\n        /* \"#utility.yul\":1159:1164   */\n      dup2\n        /* \"#utility.yul\":1141:1165   */\n      tag_49\n      jump\t// in\n    tag_78:\n        /* \"#utility.yul\":1134:1139   */\n      dup2\n        /* \"#utility.yul\":1131:1166   */\n      eq\n        /* \"#utility.yul\":1121:1184   */\n      tag_79\n      jumpi\n        /* \"#utility.yul\":1180:1181   */\n      0x00\n        /* \"#utility.yul\":1177:1178   */\n      dup1\n        /* \"#utility.yul\":1170:1182   */\n      revert\n        /* \"#utility.yul\":1121:1184   */\n    tag_79:\n        /* \"#utility.yul\":1068:1190   */\n      pop\n      jump\t// out\n        /* \"#utility.yul\":1196:1335   */\n    tag_51:\n        /* \"#utility.yul\":1242:1247   */\n      0x00\n        /* \"#utility.yul\":1280:1286   */\n      dup2\n        /* \"#utility.yul\":1267:1287   */\n      calldataload\n        /* \"#utility.yul\":1258:1287   */\n      swap1\n      pop\n        /* \"#utility.yul\":1296:1329   */\n      tag_81\n        /* \"#utility.yul\":1323:1328   */\n      dup2\n        /* \"#utility.yul\":1296:1329   */\n      tag_50\n      jump\t// in\n    tag_81:\n        /* \"#utility.yul\":1196:1335   */\n      swap3\n      swap2\n      pop\n      pop\n      jump\t// out\n        /* \"#utility.yul\":1341:1670   */\n    tag_20:\n        /* \"#utility.yul\":1400:1406   */\n      0x00\n        /* \"#utility.yul\":1449:1451   */\n      0x20\n        /* \"#utility.yul\":1437:1446   */\n      dup3\n        /* \"#utility.yul\":1428:1435   */\n      dup5\n        /* \"#utility.yul\":1424:1447   */\n      sub\n        /* \"#utility.yul\":1420:1452   */\n      slt\n        /* \"#utility.yul\":1417:1536   */\n      iszero\n      tag_83\n      jumpi\n        /* \"#utility.yul\":1455:1534   */\n      tag_84\n      tag_46\n      jump\t// in\n    tag_84:\n        /* \"#utility.yul\":1417:1536   */\n    tag_83:\n        /* \"#utility.yul\":1575:1576   */\n      0x00\n        /* \"#utility.yul\":1600:1653   */\n      tag_85\n        /* \"#utility.yul\":1645:1652   */\n      dup5\n        /* \"#utility.yul\":1636:1642   */\n      dup3\n        /* \"#utility.yul\":1625:1634   */\n      dup6\n        /* \"#utility.yul\":1621:1643   */\n      add\n        /* \"#utility.yul\":1600:1653   */\n      tag_51\n      jump\t// in\n    tag_85:\n        /* \"#utility.yul\":1590:1653   */\n      swap2\n      pop\n        /* \"#utility.yul\":1546:1663   */\n      pop\n        /* \"#utility.yul\":1341:1670   */\n      swap3\n      swap2\n      pop\n      pop\n      jump\t// out\n        /* \"#utility.yul\":1676:1774   */\n    tag_52:\n        /* \"#utility.yul\":1727:1733   */\n      0x00\n        /* \"#utility.yul\":1761:1766   */\n      dup2\n        /* \"#utility.yul\":1755:1767   */\n      mload\n        /* \"#utility.yul\":1745:1767   */\n      swap1\n      pop\n        /* \"#utility.yul\":1676:1774   */\n      swap2\n      swap1\n      pop\n      jump\t// out\n        /* \"#utility.yul\":1780:1948   */\n    tag_53:\n        /* \"#utility.yul\":1863:1874   */\n      0x00\n        /* \"#utility.yul\":1897:1903   */\n      dup3\n        /* \"#utility.yul\":1892:1895   */\n      dup3\n        /* \"#utility.yul\":1885:1904   */\n      mstore\n        /* \"#utility.yul\":1937:1941   */\n      0x20\n        /* \"#utility.yul\":1932:1935   */\n      dup3\n        /* \"#utility.yul\":1928:1942   */\n      add\n        /* \"#utility.yul\":1913:1942   */\n      swap1\n      pop\n        /* \"#utility.yul\":1780:1948   */\n      swap3\n      swap2\n      pop\n      pop\n      jump\t// out\n        /* \"#utility.yul\":1954:2093   */\n    tag_54:\n        /* \"#utility.yul\":2043:2049   */\n      dup3\n        /* \"#utility.yul\":2038:2041   */\n      dup2\n        /* \"#utility.yul\":2033:2036   */\n      dup4\n        /* \"#utility.yul\":2027:2050   */\n      mcopy\n        /* \"#utility.yul\":2084:2085   */\n      0x00\n        /* \"#utility.yul\":2075:2081   */\n      dup4\n        /* \"#utility.yul\":2070:2073   */\n      dup4\n        /* \"#utility.yul\":2066:2082   */\n      add\n        /* \"#utility.yul\":2059:2086   */\n      mstore\n        /* \"#utility.yul\":1954:2093   */\n      pop\n      pop\n      pop\n      jump\t// out\n        /* \"#utility.yul\":2099:2201   */\n    tag_55:\n        /* \"#utility.yul\":2140:2146   */\n      0x00\n        /* \"#utility.yul\":2191:2193   */\n      0x1f\n        /* \"#utility.yul\":2187:2194   */\n      not\n        /* \"#utility.yul\":2182:2184   */\n      0x1f\n        /* \"#utility.yul\":2175:2180   */\n      dup4\n        /* \"#utility.yul\":2171:2185   */\n      add\n        /* \"#utility.yul\":2167:2195   */\n      and\n        /* \"#utility.yul\":2157:2195   */\n      swap1\n      pop\n        /* \"#utility.yul\":2099:2201   */\n      swap2\n      swap1\n      pop\n      jump\t// out\n        /* \"#utility.yul\":2207:2580   */\n    tag_56:\n        /* \"#utility.yul\":2293:2296   */\n      0x00\n        /* \"#utility.yul\":2321:2359   */\n      tag_91\n        /* \"#utility.yul\":2353:2358   */\n      dup3\n        /* \"#utility.yul\":2321:2359   */\n      tag_52\n      jump\t// in\n    tag_91:\n        /* \"#utility.yul\":2375:2445   */\n      tag_92\n        /* \"#utility.yul\":2438:2444   */\n      dup2\n        /* \"#utility.yul\":2433:2436   */\n      dup6\n        /* \"#utility.yul\":2375:2445   */\n      tag_53\n      jump\t// in\n    tag_92:\n        /* \"#utility.yul\":2368:2445   */\n      swap4\n      pop\n        /* \"#utility.yul\":2454:2519   */\n      tag_93\n        /* \"#utility.yul\":2512:2518   */\n      dup2\n        /* \"#utility.yul\":2507:2510   */\n      dup6\n        /* \"#utility.yul\":2500:2504   */\n      0x20\n        /* \"#utility.yul\":2493:2498   */\n      dup7\n        /* \"#utility.yul\":2489:2505   */\n      add\n        /* \"#utility.yul\":2454:2519   */\n      tag_54\n      jump\t// in\n    tag_93:\n        /* \"#utility.yul\":2544:2573   */\n      tag_94\n        /* \"#utility.yul\":2566:2572   */\n      dup2\n        /* \"#utility.yul\":2544:2573   */\n      tag_55\n      jump\t// in\n    tag_94:\n        /* \"#utility.yul\":2539:2542   */\n      dup5\n        /* \"#utility.yul\":2535:2574   */\n      add\n        /* \"#utility.yul\":2528:2574   */\n      swap2\n      pop\n        /* \"#utility.yul\":2297:2580   */\n      pop\n        /* \"#utility.yul\":2207:2580   */\n      swap3\n      swap2\n      pop\n      pop\n      jump\t// out\n        /* \"#utility.yul\":2586:2895   */\n    tag_27:\n        /* \"#utility.yul\":2697:2701   */\n      0x00\n        /* \"#utility.yul\":2735:2737   */\n      0x20\n        /* \"#utility.yul\":2724:2733   */\n      dup3\n        /* \"#utility.yul\":2720:2738   */\n      add\n        /* \"#utility.yul\":2712:2738   */\n      swap1\n      pop\n        /* \"#utility.yul\":2784:2793   */\n      dup2\n        /* \"#utility.yul\":2778:2782   */\n      dup2\n        /* \"#utility.yul\":2774:2794   */\n      sub\n        /* \"#utility.yul\":2770:2771   */\n      0x00\n        /* \"#utility.yul\":2759:2768   */\n      dup4\n        /* \"#utility.yul\":2755:2772   */\n      add\n        /* \"#utility.yul\":2748:2795   */\n      mstore\n        /* \"#utility.yul\":2812:2888   */\n      tag_96\n        /* \"#utility.yul\":2883:2887   */\n      dup2\n        /* \"#utility.yul\":2874:2880   */\n      dup5\n        /* \"#utility.yul\":2812:2888   */\n      tag_56\n      jump\t// in\n    tag_96:\n        /* \"#utility.yul\":2804:2888   */\n      swap1\n      pop\n        /* \"#utility.yul\":2586:2895   */\n      swap3\n      swap2\n      pop\n      pop\n      jump\t// out\n        /* \"#utility.yul\":2901:3070   */\n    tag_57:\n        /* \"#utility.yul\":2985:2996   */\n      0x00\n        /* \"#utility.yul\":3019:3025   */\n      dup3\n        /* \"#utility.yul\":3014:3017   */\n      dup3\n        /* \"#utility.yul\":3007:3026   */\n      mstore\n        /* \"#utility.yul\":3059:3063   */\n      0x20\n        /* \"#utility.yul\":3054:3057   */\n      dup3\n        /* \"#utility.yul\":3050:3064   */\n      add\n        /* \"#utility.yul\":3035:3064   */\n      swap1\n      pop\n        /* \"#utility.yul\":2901:3070   */\n      swap3\n      swap2\n      pop\n      pop\n      jump\t// out\n        /* \"#utility.yul\":3076:3305   */\n    tag_58:\n        /* \"#utility.yul\":3216:3250   */\n      0x3078353466353165353162613543356430323839396544426237386663623039\n        /* \"#utility.yul\":3212:3213   */\n      0x00\n        /* \"#utility.yul\":3204:3210   */\n      dup3\n        /* \"#utility.yul\":3200:3214   */\n      add\n        /* \"#utility.yul\":3193:3251   */\n      mstore\n        /* \"#utility.yul\":3285:3297   */\n      0x3643363963373433394400000000000000000000000000000000000000000000\n        /* \"#utility.yul\":3280:3282   */\n      0x20\n        /* \"#utility.yul\":3272:3278   */\n      dup3\n        /* \"#utility.yul\":3268:3283   */\n      add\n        /* \"#utility.yul\":3261:3298   */\n      mstore\n        /* \"#utility.yul\":3076:3305   */\n      pop\n      jump\t// out\n        /* \"#utility.yul\":3311:3677   */\n    tag_59:\n        /* \"#utility.yul\":3453:3456   */\n      0x00\n        /* \"#utility.yul\":3474:3541   */\n      tag_100\n        /* \"#utility.yul\":3538:3540   */\n      0x2a\n        /* \"#utility.yul\":3533:3536   */\n      dup4\n        /* \"#utility.yul\":3474:3541   */\n      tag_57\n      jump\t// in\n    tag_100:\n        /* \"#utility.yul\":3467:3541   */\n      swap2\n      pop\n        /* \"#utility.yul\":3550:3643   */\n      tag_101\n        /* \"#utility.yul\":3639:3642   */\n      dup3\n        /* \"#utility.yul\":3550:3643   */\n      tag_58\n      jump\t// in\n    tag_101:\n        /* \"#utility.yul\":3668:3670   */\n      0x40\n        /* \"#utility.yul\":3663:3666   */\n      dup3\n        /* \"#utility.yul\":3659:3671   */\n      add\n        /* \"#utility.yul\":3652:3671   */\n      swap1\n      pop\n        /* \"#utility.yul\":3311:3677   */\n      swap2\n      swap1\n      pop\n      jump\t// out\n        /* \"#utility.yul\":3683:4102   */\n    tag_31:\n        /* \"#utility.yul\":3849:3853   */\n      0x00\n        /* \"#utility.yul\":3887:3889   */\n      0x20\n        /* \"#utility.yul\":3876:3885   */\n      dup3\n        /* \"#utility.yul\":3872:3890   */\n      add\n        /* \"#utility.yul\":3864:3890   */\n      swap1\n      pop\n        /* \"#utility.yul\":3936:3945   */\n      dup2\n        /* \"#utility.yul\":3930:3934   */\n      dup2\n        /* \"#utility.yul\":3926:3946   */\n      sub\n        /* \"#utility.yul\":3922:3923   */\n      0x00\n        /* \"#utility.yul\":3911:3920   */\n      dup4\n        /* \"#utility.yul\":3907:3924   */\n      add\n        /* \"#utility.yul\":3900:3947   */\n      mstore\n        /* \"#utility.yul\":3964:4095   */\n      tag_103\n        /* \"#utility.yul\":4090:4094   */\n      dup2\n        /* \"#utility.yul\":3964:4095   */\n      tag_59\n      jump\t// in\n    tag_103:\n        /* \"#utility.yul\":3956:4095   */\n      swap1\n      pop\n        /* \"#utility.yul\":3683:4102   */\n      swap2\n      swap1\n      pop\n      jump\t// out\n        /* \"#utility.yul\":4108:4255   */\n    tag_60:\n        /* \"#utility.yul\":4209:4220   */\n      0x00\n        /* \"#utility.yul\":4246:4249   */\n      dup2\n        /* \"#utility.yul\":4231:4249   */\n      swap1\n      pop\n        /* \"#utility.yul\":4108:4255   */\n      swap3\n      swap2\n      pop\n      pop\n      jump\t// out\n        /* \"#utility.yul\":4261:4647   */\n    tag_61:\n        /* \"#utility.yul\":4365:4368   */\n      0x00\n        /* \"#utility.yul\":4393:4431   */\n      tag_106\n        /* \"#utility.yul\":4425:4430   */\n      dup3\n        /* \"#utility.yul\":4393:4431   */\n      tag_52\n      jump\t// in\n    tag_106:\n        /* \"#utility.yul\":4447:4535   */\n      tag_107\n        /* \"#utility.yul\":4528:4534   */\n      dup2\n        /* \"#utility.yul\":4523:4526   */\n      dup6\n        /* \"#utility.yul\":4447:4535   */\n      tag_60\n      jump\t// in\n    tag_107:\n        /* \"#utility.yul\":4440:4535   */\n      swap4\n      pop\n        /* \"#utility.yul\":4544:4609   */\n      tag_108\n        /* \"#utility.yul\":4602:4608   */\n      dup2\n        /* \"#utility.yul\":4597:4600   */\n      dup6\n        /* \"#utility.yul\":4590:4594   */\n      0x20\n        /* \"#utility.yul\":4583:4588   */\n      dup7\n        /* \"#utility.yul\":4579:4595   */\n      add\n        /* \"#utility.yul\":4544:4609   */\n      tag_54\n      jump\t// in\n    tag_108:\n        /* \"#utility.yul\":4634:4640   */\n      dup1\n        /* \"#utility.yul\":4629:4632   */\n      dup5\n        /* \"#utility.yul\":4625:4641   */\n      add\n        /* \"#utility.yul\":4618:4641   */\n      swap2\n      pop\n        /* \"#utility.yul\":4369:4647   */\n      pop\n        /* \"#utility.yul\":4261:4647   */\n      swap3\n      swap2\n      pop\n      pop\n      jump\t// out\n        /* \"#utility.yul\":4653:4924   */\n    tag_33:\n        /* \"#utility.yul\":4783:4786   */\n      0x00\n        /* \"#utility.yul\":4805:4898   */\n      tag_110\n        /* \"#utility.yul\":4894:4897   */\n      dup3\n        /* \"#utility.yul\":4885:4891   */\n      dup5\n        /* \"#utility.yul\":4805:4898   */\n      tag_61\n      jump\t// in\n    tag_110:\n        /* \"#utility.yul\":4798:4898   */\n      swap2\n      pop\n        /* \"#utility.yul\":4915:4918   */\n      dup2\n        /* \"#utility.yul\":4908:4918   */\n      swap1\n      pop\n        /* \"#utility.yul\":4653:4924   */\n      swap3\n      swap2\n      pop\n      pop\n      jump\t// out\n        /* \"#utility.yul\":4930:5078   */\n    tag_62:\n        /* \"#utility.yul\":5028:5034   */\n      dup3\n        /* \"#utility.yul\":5023:5026   */\n      dup2\n        /* \"#utility.yul\":5018:5021   */\n      dup4\n        /* \"#utility.yul\":5005:5035   */\n      calldatacopy\n        /* \"#utility.yul\":5069:5070   */\n      0x00\n        /* \"#utility.yul\":5060:5066   */\n      dup4\n        /* \"#utility.yul\":5055:5058   */\n      dup4\n        /* \"#utility.yul\":5051:5067   */\n      add\n        /* \"#utility.yul\":5044:5071   */\n      mstore\n        /* \"#utility.yul\":4930:5078   */\n      pop\n      pop\n      pop\n      jump\t// out\n        /* \"#utility.yul\":5106:5420   */\n    tag_63:\n        /* \"#utility.yul\":5202:5205   */\n      0x00\n        /* \"#utility.yul\":5223:5293   */\n      tag_113\n        /* \"#utility.yul\":5286:5292   */\n      dup4\n        /* \"#utility.yul\":5281:5284   */\n      dup6\n        /* \"#utility.yul\":5223:5293   */\n      tag_53\n      jump\t// in\n    tag_113:\n        /* \"#utility.yul\":5216:5293   */\n      swap4\n      pop\n        /* \"#utility.yul\":5303:5359   */\n      tag_114\n        /* \"#utility.yul\":5352:5358   */\n      dup4\n        /* \"#utility.yul\":5347:5350   */\n      dup6\n        /* \"#utility.yul\":5340:5345   */\n      dup5\n        /* \"#utility.yul\":5303:5359   */\n      tag_62\n      jump\t// in\n    tag_114:\n        /* \"#utility.yul\":5384:5413   */\n      tag_115\n        /* \"#utility.yul\":5406:5412   */\n      dup4\n        /* \"#utility.yul\":5384:5413   */\n      tag_55\n      jump\t// in\n    tag_115:\n        /* \"#utility.yul\":5379:5382   */\n      dup5\n        /* \"#utility.yul\":5375:5414   */\n      add\n        /* \"#utility.yul\":5368:5414   */\n      swap1\n      pop\n        /* \"#utility.yul\":5106:5420   */\n      swap4\n      swap3\n      pop\n      pop\n      pop\n      jump\t// out\n        /* \"#utility.yul\":5426:5755   */\n    tag_39:\n        /* \"#utility.yul\":5547:5551   */\n      0x00\n        /* \"#utility.yul\":5585:5587   */\n      0x20\n        /* \"#utility.yul\":5574:5583   */\n      dup3\n        /* \"#utility.yul\":5570:5588   */\n      add\n        /* \"#utility.yul\":5562:5588   */\n      swap1\n      pop\n        /* \"#utility.yul\":5634:5643   */\n      dup2\n        /* \"#utility.yul\":5628:5632   */\n      dup2\n        /* \"#utility.yul\":5624:5644   */\n      sub\n        /* \"#utility.yul\":5620:5621   */\n      0x00\n        /* \"#utility.yul\":5609:5618   */\n      dup4\n        /* \"#utility.yul\":5605:5622   */\n      add\n        /* \"#utility.yul\":5598:5645   */\n      mstore\n        /* \"#utility.yul\":5662:5748   */\n      tag_117\n        /* \"#utility.yul\":5743:5747   */\n      dup2\n        /* \"#utility.yul\":5734:5740   */\n      dup5\n        /* \"#utility.yul\":5726:5732   */\n      dup7\n        /* \"#utility.yul\":5662:5748   */\n      tag_63\n      jump\t// in\n    tag_117:\n        /* \"#utility.yul\":5654:5748   */\n      swap1\n      pop\n        /* \"#utility.yul\":5426:5755   */\n      swap4\n      swap3\n      pop\n      pop\n      pop\n      jump\t// out\n        /* \"#utility.yul\":5761:5879   */\n    tag_64:\n        /* \"#utility.yul\":5848:5872   */\n      tag_119\n        /* \"#utility.yul\":5866:5871   */\n      dup2\n        /* \"#utility.yul\":5848:5872   */\n      tag_49\n      jump\t// in\n    tag_119:\n        /* \"#utility.yul\":5843:5846   */\n      dup3\n        /* \"#utility.yul\":5836:5873   */\n      mstore\n        /* \"#utility.yul\":5761:5879   */\n      pop\n      pop\n      jump\t// out\n        /* \"#utility.yul\":5885:6107   */\n    tag_42:\n        /* \"#utility.yul\":5978:5982   */\n      0x00\n        /* \"#utility.yul\":6016:6018   */\n      0x20\n        /* \"#utility.yul\":6005:6014   */\n      dup3\n        /* \"#utility.yul\":6001:6019   */\n      add\n        /* \"#utility.yul\":5993:6019   */\n      swap1\n      pop\n        /* \"#utility.yul\":6029:6100   */\n      tag_121\n        /* \"#utility.yul\":6097:6098   */\n      0x00\n        /* \"#utility.yul\":6086:6095   */\n      dup4\n        /* \"#utility.yul\":6082:6099   */\n      add\n        /* \"#utility.yul\":6073:6079   */\n      dup5\n        /* \"#utility.yul\":6029:6100   */\n      tag_64\n      jump\t// in\n    tag_121:\n        /* \"#utility.yul\":5885:6107   */\n      swap3\n      swap2\n      pop\n      pop\n      jump\t// out\n\n    auxdata: 0xa2646970667358221220ea00a8f2c965d927508cdff0f5328e20f9020d03f11c4db77e87de5ee244bb0c64736f6c634300081a0033\n}\n",
				"bytecode": {
					"linkReferences": {},
					"object": "6080604052348015600e575f80fd5b506105b98061001c5f395ff3fe608060405260043610610042575f3560e01c8063046dab161461004557806359ebea231461006f5780636a62784214610085578063da90d0c9146100ad57610043565b5b005b348015610050575f80fd5b506100596100e9565b60405161006691906102df565b60405180910390f35b34801561007a575f80fd5b50610083610110565b005b348015610090575f80fd5b506100ab60048036038101906100a69190610356565b6101d2565b005b3480156100b8575f80fd5b506100d360048036038101906100ce9190610356565b61020e565b6040516100e091906103f1565b60405180910390f35b5f7f6a627842f752de95745ef8f3ca67858982b5f585d752f8163e5855050041cb3c905090565b5f803073ffffffffffffffffffffffffffffffffffffffff16636a62784260405160240161013d90610491565b6040516020818303038152906040529060e01b6020820180517bffffffffffffffffffffffffffffffffffffffffffffffffffffffff838183161783525050505060405161018b91906104e9565b5f604051808303815f865af19150503d805f81146101c4576040519150601f19603f3d011682016040523d82523d5f602084013e6101c9565b606091505b50915091505050565b7fafabcf2dd47e06a477a89e49c03f8ebe8e0a7e94f775b25bbb24227c9d0110b25f36604051610203929190610539565b60405180910390a150565b606081604051602401610221919061056a565b6040516020818303038152906040527f6a627842000000000000000000000000000000000000000000000000000000007bffffffffffffffffffffffffffffffffffffffffffffffffffffffff19166020820180517bffffffffffffffffffffffffffffffffffffffffffffffffffffffff83818316178352505050509050919050565b5f7fffffffff0000000000000000000000000000000000000000000000000000000082169050919050565b6102d9816102a5565b82525050565b5f6020820190506102f25f8301846102d0565b92915050565b5f80fd5b5f73ffffffffffffffffffffffffffffffffffffffff82169050919050565b5f610325826102fc565b9050919050565b6103358161031b565b811461033f575f80fd5b50565b5f813590506103508161032c565b92915050565b5f6020828403121561036b5761036a6102f8565b5b5f61037884828501610342565b91505092915050565b5f81519050919050565b5f82825260208201905092915050565b8281835e5f83830152505050565b5f601f19601f8301169050919050565b5f6103c382610381565b6103cd818561038b565b93506103dd81856020860161039b565b6103e6816103a9565b840191505092915050565b5f6020820190508181035f83015261040981846103b9565b905092915050565b5f82825260208201905092915050565b7f30783534663531653531626135433564303238393965444262373866636230395f8201527f3643363963373433394400000000000000000000000000000000000000000000602082015250565b5f61047b602a83610411565b915061048682610421565b604082019050919050565b5f6020820190508181035f8301526104a88161046f565b9050919050565b5f81905092915050565b5f6104c382610381565b6104cd81856104af565b93506104dd81856020860161039b565b80840191505092915050565b5f6104f482846104b9565b915081905092915050565b828183375f83830152505050565b5f610518838561038b565b93506105258385846104ff565b61052e836103a9565b840190509392505050565b5f6020820190508181035f83015261055281848661050d565b90509392505050565b6105648161031b565b82525050565b5f60208201905061057d5f83018461055b565b9291505056fea2646970667358221220ea00a8f2c965d927508cdff0f5328e20f9020d03f11c4db77e87de5ee244bb0c64736f6c634300081a0033",
					"opcodes": "PUSH1 0x80 PUSH1 0x40 MSTORE CALLVALUE DUP1 ISZERO PUSH1 0xE JUMPI PUSH0 DUP1 REVERT JUMPDEST POP PUSH2 0x5B9 DUP1 PUSH2 0x1C PUSH0 CODECOPY PUSH0 RETURN INVALID PUSH1 0x80 PUSH1 0x40 MSTORE PUSH1 0x4 CALLDATASIZE LT PUSH2 0x42 JUMPI PUSH0 CALLDATALOAD PUSH1 0xE0 SHR DUP1 PUSH4 0x46DAB16 EQ PUSH2 0x45 JUMPI DUP1 PUSH4 0x59EBEA23 EQ PUSH2 0x6F JUMPI DUP1 PUSH4 0x6A627842 EQ PUSH2 0x85 JUMPI DUP1 PUSH4 0xDA90D0C9 EQ PUSH2 0xAD JUMPI PUSH2 0x43 JUMP JUMPDEST JUMPDEST STOP JUMPDEST CALLVALUE DUP1 ISZERO PUSH2 0x50 JUMPI PUSH0 DUP1 REVERT JUMPDEST POP PUSH2 0x59 PUSH2 0xE9 JUMP JUMPDEST PUSH1 0x40 MLOAD PUSH2 0x66 SWAP2 SWAP1 PUSH2 0x2DF JUMP JUMPDEST PUSH1 0x40 MLOAD DUP1 SWAP2 SUB SWAP1 RETURN JUMPDEST CALLVALUE DUP1 ISZERO PUSH2 0x7A JUMPI PUSH0 DUP1 REVERT JUMPDEST POP PUSH2 0x83 PUSH2 0x110 JUMP JUMPDEST STOP JUMPDEST CALLVALUE DUP1 ISZERO PUSH2 0x90 JUMPI PUSH0 DUP1 REVERT JUMPDEST POP PUSH2 0xAB PUSH1 0x4 DUP1 CALLDATASIZE SUB DUP2 ADD SWAP1 PUSH2 0xA6 SWAP2 SWAP1 PUSH2 0x356 JUMP JUMPDEST PUSH2 0x1D2 JUMP JUMPDEST STOP JUMPDEST CALLVALUE DUP1 ISZERO PUSH2 0xB8 JUMPI PUSH0 DUP1 REVERT JUMPDEST POP PUSH2 0xD3 PUSH1 0x4 DUP1 CALLDATASIZE SUB DUP2 ADD SWAP1 PUSH2 0xCE SWAP2 SWAP1 PUSH2 0x356 JUMP JUMPDEST PUSH2 0x20E JUMP JUMPDEST PUSH1 0x40 MLOAD PUSH2 0xE0 SWAP2 SWAP1 PUSH2 0x3F1 JUMP JUMPDEST PUSH1 0x40 MLOAD DUP1 SWAP2 SUB SWAP1 RETURN JUMPDEST PUSH0 PUSH32 0x6A627842F752DE95745EF8F3CA67858982B5F585D752F8163E5855050041CB3C SWAP1 POP SWAP1 JUMP JUMPDEST PUSH0 DUP1 ADDRESS PUSH20 0xFFFFFFFFFFFFFFFFFFFFFFFFFFFFFFFFFFFFFFFF AND PUSH4 0x6A627842 PUSH1 0x40 MLOAD PUSH1 0x24 ADD PUSH2 0x13D SWAP1 PUSH2 0x491 JUMP JUMPDEST PUSH1 0x40 MLOAD PUSH1 0x20 DUP2 DUP4 SUB SUB DUP2 MSTORE SWAP1 PUSH1 0x40 MSTORE SWAP1 PUSH1 0xE0 SHL PUSH1 0x20 DUP3 ADD DUP1 MLOAD PUSH28 0xFFFFFFFFFFFFFFFFFFFFFFFFFFFFFFFFFFFFFFFFFFFFFFFFFFFFFFFF DUP4 DUP2 DUP4 AND OR DUP4 MSTORE POP POP POP POP PUSH1 0x40 MLOAD PUSH2 0x18B SWAP2 SWAP1 PUSH2 0x4E9 JUMP JUMPDEST PUSH0 PUSH1 0x40 MLOAD DUP1 DUP4 SUB DUP2 PUSH0 DUP7 GAS CALL SWAP2 POP POP RETURNDATASIZE DUP1 PUSH0 DUP2 EQ PUSH2 0x1C4 JUMPI PUSH1 0x40 MLOAD SWAP2 POP PUSH1 0x1F NOT PUSH1 0x3F RETURNDATASIZE ADD AND DUP3 ADD PUSH1 0x40 MSTORE RETURNDATASIZE DUP3 MSTORE RETURNDATASIZE PUSH0 PUSH1 0x20 DUP5 ADD RETURNDATACOPY PUSH2 0x1C9 JUMP JUMPDEST PUSH1 0x60 SWAP2 POP JUMPDEST POP SWAP2 POP SWAP2 POP POP POP JUMP JUMPDEST PUSH32 0xAFABCF2DD47E06A477A89E49C03F8EBE8E0A7E94F775B25BBB24227C9D0110B2 PUSH0 CALLDATASIZE PUSH1 0x40 MLOAD PUSH2 0x203 SWAP3 SWAP2 SWAP1 PUSH2 0x539 JUMP JUMPDEST PUSH1 0x40 MLOAD DUP1 SWAP2 SUB SWAP1 LOG1 POP JUMP JUMPDEST PUSH1 0x60 DUP2 PUSH1 0x40 MLOAD PUSH1 0x24 ADD PUSH2 0x221 SWAP2 SWAP1 PUSH2 0x56A JUMP JUMPDEST PUSH1 0x40 MLOAD PUSH1 0x20 DUP2 DUP4 SUB SUB DUP2 MSTORE SWAP1 PUSH1 0x40 MSTORE PUSH32 0x6A62784200000000000000000000000000000000000000000000000000000000 PUSH28 0xFFFFFFFFFFFFFFFFFFFFFFFFFFFFFFFFFFFFFFFFFFFFFFFFFFFFFFFF NOT AND PUSH1 0x20 DUP3 ADD DUP1 MLOAD PUSH28 0xFFFFFFFFFFFFFFFFFFFFFFFFFFFFFFFFFFFFFFFFFFFFFFFFFFFFFFFF DUP4 DUP2 DUP4 AND OR DUP4 MSTORE POP POP POP POP SWAP1 POP SWAP2 SWAP1 POP JUMP JUMPDEST PUSH0 PUSH32 0xFFFFFFFF00000000000000000000000000000000000000000000000000000000 DUP3 AND SWAP1 POP SWAP2 SWAP1 POP JUMP JUMPDEST PUSH2 0x2D9 DUP2 PUSH2 0x2A5 JUMP JUMPDEST DUP3 MSTORE POP POP JUMP JUMPDEST PUSH0 PUSH1 0x20 DUP3 ADD SWAP1 POP PUSH2 0x2F2 PUSH0 DUP4 ADD DUP5 PUSH2 0x2D0 JUMP JUMPDEST SWAP3 SWAP2 POP POP JUMP JUMPDEST PUSH0 DUP1 REVERT JUMPDEST PUSH0 PUSH20 0xFFFFFFFFFFFFFFFFFFFFFFFFFFFFFFFFFFFFFFFF DUP3 AND SWAP1 POP SWAP2 SWAP1 POP JUMP JUMPDEST PUSH0 PUSH2 0x325 DUP3 PUSH2 0x2FC JUMP JUMPDEST SWAP1 POP SWAP2 SWAP1 POP JUMP JUMPDEST PUSH2 0x335 DUP2 PUSH2 0x31B JUMP JUMPDEST DUP2 EQ PUSH2 0x33F JUMPI PUSH0 DUP1 REVERT JUMPDEST POP JUMP JUMPDEST PUSH0 DUP2 CALLDATALOAD SWAP1 POP PUSH2 0x350 DUP2 PUSH2 0x32C JUMP JUMPDEST SWAP3 SWAP2 POP POP JUMP JUMPDEST PUSH0 PUSH1 0x20 DUP3 DUP5 SUB SLT ISZERO PUSH2 0x36B JUMPI PUSH2 0x36A PUSH2 0x2F8 JUMP JUMPDEST JUMPDEST PUSH0 PUSH2 0x378 DUP5 DUP3 DUP6 ADD PUSH2 0x342 JUMP JUMPDEST SWAP2 POP POP SWAP3 SWAP2 POP POP JUMP JUMPDEST PUSH0 DUP2 MLOAD SWAP1 POP SWAP2 SWAP1 POP JUMP JUMPDEST PUSH0 DUP3 DUP3 MSTORE PUSH1 0x20 DUP3 ADD SWAP1 POP SWAP3 SWAP2 POP POP JUMP JUMPDEST DUP3 DUP2 DUP4 MCOPY PUSH0 DUP4 DUP4 ADD MSTORE POP POP POP JUMP JUMPDEST PUSH0 PUSH1 0x1F NOT PUSH1 0x1F DUP4 ADD AND SWAP1 POP SWAP2 SWAP1 POP JUMP JUMPDEST PUSH0 PUSH2 0x3C3 DUP3 PUSH2 0x381 JUMP JUMPDEST PUSH2 0x3CD DUP2 DUP6 PUSH2 0x38B JUMP JUMPDEST SWAP4 POP PUSH2 0x3DD DUP2 DUP6 PUSH1 0x20 DUP7 ADD PUSH2 0x39B JUMP JUMPDEST PUSH2 0x3E6 DUP2 PUSH2 0x3A9 JUMP JUMPDEST DUP5 ADD SWAP2 POP POP SWAP3 SWAP2 POP POP JUMP JUMPDEST PUSH0 PUSH1 0x20 DUP3 ADD SWAP1 POP DUP2 DUP2 SUB PUSH0 DUP4 ADD MSTORE PUSH2 0x409 DUP2 DUP5 PUSH2 0x3B9 JUMP JUMPDEST SWAP1 POP SWAP3 SWAP2 POP POP JUMP JUMPDEST PUSH0 DUP3 DUP3 MSTORE PUSH1 0x20 DUP3 ADD SWAP1 POP SWAP3 SWAP2 POP POP JUMP JUMPDEST PUSH32 0x3078353466353165353162613543356430323839396544426237386663623039 PUSH0 DUP3 ADD MSTORE PUSH32 0x3643363963373433394400000000000000000000000000000000000000000000 PUSH1 0x20 DUP3 ADD MSTORE POP JUMP JUMPDEST PUSH0 PUSH2 0x47B PUSH1 0x2A DUP4 PUSH2 0x411 JUMP JUMPDEST SWAP2 POP PUSH2 0x486 DUP3 PUSH2 0x421 JUMP JUMPDEST PUSH1 0x40 DUP3 ADD SWAP1 POP SWAP2 SWAP1 POP JUMP JUMPDEST PUSH0 PUSH1 0x20 DUP3 ADD SWAP1 POP DUP2 DUP2 SUB PUSH0 DUP4 ADD MSTORE PUSH2 0x4A8 DUP2 PUSH2 0x46F JUMP JUMPDEST SWAP1 POP SWAP2 SWAP1 POP JUMP JUMPDEST PUSH0 DUP2 SWAP1 POP SWAP3 SWAP2 POP POP JUMP JUMPDEST PUSH0 PUSH2 0x4C3 DUP3 PUSH2 0x381 JUMP JUMPDEST PUSH2 0x4CD DUP2 DUP6 PUSH2 0x4AF JUMP JUMPDEST SWAP4 POP PUSH2 0x4DD DUP2 DUP6 PUSH1 0x20 DUP7 ADD PUSH2 0x39B JUMP JUMPDEST DUP1 DUP5 ADD SWAP2 POP POP SWAP3 SWAP2 POP POP JUMP JUMPDEST PUSH0 PUSH2 0x4F4 DUP3 DUP5 PUSH2 0x4B9 JUMP JUMPDEST SWAP2 POP DUP2 SWAP1 POP SWAP3 SWAP2 POP POP JUMP JUMPDEST DUP3 DUP2 DUP4 CALLDATACOPY PUSH0 DUP4 DUP4 ADD MSTORE POP POP POP JUMP JUMPDEST PUSH0 PUSH2 0x518 DUP4 DUP6 PUSH2 0x38B JUMP JUMPDEST SWAP4 POP PUSH2 0x525 DUP4 DUP6 DUP5 PUSH2 0x4FF JUMP JUMPDEST PUSH2 0x52E DUP4 PUSH2 0x3A9 JUMP JUMPDEST DUP5 ADD SWAP1 POP SWAP4 SWAP3 POP POP POP JUMP JUMPDEST PUSH0 PUSH1 0x20 DUP3 ADD SWAP1 POP DUP2 DUP2 SUB PUSH0 DUP4 ADD MSTORE PUSH2 0x552 DUP2 DUP5 DUP7 PUSH2 0x50D JUMP JUMPDEST SWAP1 POP SWAP4 SWAP3 POP POP POP JUMP JUMPDEST PUSH2 0x564 DUP2 PUSH2 0x31B JUMP JUMPDEST DUP3 MSTORE POP POP JUMP JUMPDEST PUSH0 PUSH1 0x20 DUP3 ADD SWAP1 POP PUSH2 0x57D PUSH0 DUP4 ADD DUP5 PUSH2 0x55B JUMP JUMPDEST SWAP3 SWAP2 POP POP JUMP INVALID LOG2 PUSH5 0x6970667358 0x22 SLT KECCAK256 0xEA STOP 0xA8 CALLCODE 0xC9 PUSH6 0xD927508CDFF0 CREATE2 ORIGIN DUP15 KECCAK256 0xF9 MUL 0xD SUB CALL SHR 0x4D 0xB7 PUSH31 0x87DE5EE244BB0C64736F6C634300081A003300000000000000000000000000 "
				},
				"gasEstimates": {
					"creation": {
						"codeDepositCost": "293000",
						"executionCost": "329",
						"totalCost": "293329"
					},
					"external": {
						"": "150",
						"callWithSignature()": "infinite",
						"encodeWithSignature(address)": "infinite",
						"mint(address)": "infinite",
						"mintSelector()": "316"
					}
				},
				"methodIdentifiers": {
					"callWithSignature()": "59ebea23",
					"encodeWithSignature(address)": "da90d0c9",
					"mint(address)": "6a627842",
					"mintSelector()": "046dab16"
				}
			},
			"storageLayout": {
				"storage": [],
				"types": null
			},
			"userdoc": {
				"kind": "user",
				"methods": {},
				"version": 1
			}
		}
	}
}