{
	"contracts/study2/TryCatchTest.sol": {
		"TryCatchTest": {
			"abi": [
				{
					"inputs": [],
					"stateMutability": "nonpayable",
					"type": "constructor"
				},
				{
					"anonymous": false,
					"inputs": [
						{
							"indexed": false,
							"internalType": "bytes",
							"name": "data",
							"type": "bytes"
						}
					],
					"name": "CatchByte",
					"type": "event"
				},
				{
					"anonymous": false,
					"inputs": [
						{
							"indexed": false,
							"internalType": "string",
							"name": "message",
							"type": "string"
						}
					],
					"name": "CatchEvent",
					"type": "event"
				},
				{
					"anonymous": false,
					"inputs": [],
					"name": "SuccessEvent",
					"type": "event"
				},
				{
					"inputs": [
						{
							"internalType": "uint256",
							"name": "amount",
							"type": "uint256"
						}
					],
					"name": "execute",
					"outputs": [
						{
							"internalType": "bool",
							"name": "success",
							"type": "bool"
						}
					],
					"stateMutability": "nonpayable",
					"type": "function"
				}
			],
			"devdoc": {
				"kind": "dev",
				"methods": {},
				"version": 1
			},
			"evm": {
				"assembly": "    /* \"contracts/study2/TryCatchTest.sol\":58:746  contract TryCatchTest {... */\n  mstore(0x40, 0x80)\n    /* \"contracts/study2/TryCatchTest.sol\":277:330  constructor() {... */\n  callvalue\n  dup1\n  iszero\n  tag_1\n  jumpi\n  0x00\n  dup1\n  revert\ntag_1:\n  pop\n    /* \"contracts/study2/TryCatchTest.sol\":321:322  2 */\n  0x02\n    /* \"contracts/study2/TryCatchTest.sol\":308:323  new OnlyEven(2) */\n  mload(0x40)\n  tag_4\n  swap1\n  tag_5\n  jump\t// in\ntag_4:\n  tag_6\n  swap2\n  swap1\n  tag_7\n  jump\t// in\ntag_6:\n  mload(0x40)\n  dup1\n  swap2\n  sub\n  swap1\n  0x00\n  create\n  dup1\n  iszero\n  dup1\n  iszero\n  tag_8\n  jumpi\n  returndatasize\n  0x00\n  dup1\n  returndatacopy\n  revert(0x00, returndatasize)\ntag_8:\n  pop\n    /* \"contracts/study2/TryCatchTest.sol\":301:305  even */\n  0x00\n  dup1\n    /* \"contracts/study2/TryCatchTest.sol\":301:323  even = new OnlyEven(2) */\n  0x0100\n  exp\n  dup2\n  sload\n  dup2\n  0xffffffffffffffffffffffffffffffffffffffff\n  mul\n  not\n  and\n  swap1\n  dup4\n  0xffffffffffffffffffffffffffffffffffffffff\n  and\n  mul\n  or\n  swap1\n  sstore\n  pop\n    /* \"contracts/study2/TryCatchTest.sol\":58:746  contract TryCatchTest {... */\n  jump(tag_9)\ntag_5:\n  dataSize(sub_1)\n  dup1\n  dataOffset(sub_1)\n  dup4\n  codecopy\n  add\n  swap1\n  jump\t// out\n    /* \"#utility.yul\":7:92   */\ntag_10:\n    /* \"#utility.yul\":52:59   */\n  0x00\n    /* \"#utility.yul\":81:86   */\n  dup2\n    /* \"#utility.yul\":70:86   */\n  swap1\n  pop\n    /* \"#utility.yul\":7:92   */\n  swap2\n  swap1\n  pop\n  jump\t// out\n    /* \"#utility.yul\":98:175   */\ntag_11:\n    /* \"#utility.yul\":135:142   */\n  0x00\n    /* \"#utility.yul\":164:169   */\n  dup2\n    /* \"#utility.yul\":153:169   */\n  swap1\n  pop\n    /* \"#utility.yul\":98:175   */\n  swap2\n  swap1\n  pop\n  jump\t// out\n    /* \"#utility.yul\":181:241   */\ntag_12:\n    /* \"#utility.yul\":209:212   */\n  0x00\n    /* \"#utility.yul\":230:235   */\n  dup2\n    /* \"#utility.yul\":223:235   */\n  swap1\n  pop\n    /* \"#utility.yul\":181:241   */\n  swap2\n  swap1\n  pop\n  jump\t// out\n    /* \"#utility.yul\":247:405   */\ntag_13:\n    /* \"#utility.yul\":305:314   */\n  0x00\n    /* \"#utility.yul\":338:399   */\n  tag_20\n    /* \"#utility.yul\":356:398   */\n  tag_21\n    /* \"#utility.yul\":365:397   */\n  tag_22\n    /* \"#utility.yul\":391:396   */\n  dup5\n    /* \"#utility.yul\":365:397   */\n  tag_10\n  jump\t// in\ntag_22:\n    /* \"#utility.yul\":356:398   */\n  tag_12\n  jump\t// in\ntag_21:\n    /* \"#utility.yul\":338:399   */\n  tag_11\n  jump\t// in\ntag_20:\n    /* \"#utility.yul\":325:399   */\n  swap1\n  pop\n    /* \"#utility.yul\":247:405   */\n  swap2\n  swap1\n  pop\n  jump\t// out\n    /* \"#utility.yul\":411:558   */\ntag_14:\n    /* \"#utility.yul\":506:551   */\n  tag_24\n    /* \"#utility.yul\":545:550   */\n  dup2\n    /* \"#utility.yul\":506:551   */\n  tag_13\n  jump\t// in\ntag_24:\n    /* \"#utility.yul\":501:504   */\n  dup3\n    /* \"#utility.yul\":494:552   */\n  mstore\n    /* \"#utility.yul\":411:558   */\n  pop\n  pop\n  jump\t// out\n    /* \"#utility.yul\":564:802   */\ntag_7:\n    /* \"#utility.yul\":665:669   */\n  0x00\n    /* \"#utility.yul\":703:705   */\n  0x20\n    /* \"#utility.yul\":692:701   */\n  dup3\n    /* \"#utility.yul\":688:706   */\n  add\n    /* \"#utility.yul\":680:706   */\n  swap1\n  pop\n    /* \"#utility.yul\":716:795   */\n  tag_26\n    /* \"#utility.yul\":792:793   */\n  0x00\n    /* \"#utility.yul\":781:790   */\n  dup4\n    /* \"#utility.yul\":777:794   */\n  add\n    /* \"#utility.yul\":768:774   */\n  dup5\n    /* \"#utility.yul\":716:795   */\n  tag_14\n  jump\t// in\ntag_26:\n    /* \"#utility.yul\":564:802   */\n  swap3\n  swap2\n  pop\n  pop\n  jump\t// out\n    /* \"contracts/study2/TryCatchTest.sol\":58:746  contract TryCatchTest {... */\ntag_9:\n  dataSize(sub_0)\n  dup1\n  dataOffset(sub_0)\n  0x00\n  codecopy\n  0x00\n  return\nstop\n\nsub_0: assembly {\n        /* \"contracts/study2/TryCatchTest.sol\":58:746  contract TryCatchTest {... */\n      mstore(0x40, 0x80)\n      callvalue\n      dup1\n      iszero\n      tag_1\n      jumpi\n      0x00\n      dup1\n      revert\n    tag_1:\n      pop\n      jumpi(tag_2, lt(calldatasize, 0x04))\n      shr(0xe0, calldataload(0x00))\n      dup1\n      0xfe0d94c1\n      eq\n      tag_3\n      jumpi\n    tag_2:\n      0x00\n      dup1\n      revert\n        /* \"contracts/study2/TryCatchTest.sol\":378:744  function execute(uint256 amount) external returns (bool success) {... */\n    tag_3:\n      tag_4\n      0x04\n      dup1\n      calldatasize\n      sub\n      dup2\n      add\n      swap1\n      tag_5\n      swap2\n      swap1\n      tag_6\n      jump\t// in\n    tag_5:\n      tag_7\n      jump\t// in\n    tag_4:\n      mload(0x40)\n      tag_8\n      swap2\n      swap1\n      tag_9\n      jump\t// in\n    tag_8:\n      mload(0x40)\n      dup1\n      swap2\n      sub\n      swap1\n      return\n    tag_7:\n        /* \"contracts/study2/TryCatchTest.sol\":429:441  bool success */\n      0x00\n        /* \"contracts/study2/TryCatchTest.sol\":457:461  even */\n      dup1\n      0x00\n      swap1\n      sload\n      swap1\n      0x0100\n      exp\n      swap1\n      div\n      0xffffffffffffffffffffffffffffffffffffffff\n      and\n        /* \"contracts/study2/TryCatchTest.sol\":457:470  even.onlyEven */\n      0xffffffffffffffffffffffffffffffffffffffff\n      and\n      0xce0b4213\n        /* \"contracts/study2/TryCatchTest.sol\":471:477  amount */\n      dup4\n        /* \"contracts/study2/TryCatchTest.sol\":457:478  even.onlyEven(amount) */\n      mload(0x40)\n      dup3\n      0xffffffff\n      and\n      0xe0\n      shl\n      dup2\n      mstore\n      0x04\n      add\n      tag_11\n      swap2\n      swap1\n      tag_12\n      jump\t// in\n    tag_11:\n      0x20\n      mload(0x40)\n      dup1\n      dup4\n      sub\n      dup2\n      dup7\n      gas\n      staticcall\n      swap3\n      pop\n      pop\n      pop\n      dup1\n      iszero\n      tag_13\n      jumpi\n      pop\n      mload(0x40)\n      returndatasize\n      not(0x1f)\n      0x1f\n      dup3\n      add\n      and\n      dup3\n      add\n      dup1\n      0x40\n      mstore\n      pop\n      dup2\n      add\n      swap1\n      tag_14\n      swap2\n      swap1\n      tag_15\n      jump\t// in\n    tag_14:\n      0x01\n    tag_13:\n        /* \"contracts/study2/TryCatchTest.sol\":453:738  try even.onlyEven(amount) returns (bool _success) {... */\n      tag_16\n      jumpi\n      tag_20\n      tag_21\n      jump\t// in\n    tag_20:\n      dup1\n      0x08c379a0\n      sub\n      tag_19\n      jumpi\n      pop\n      tag_22\n      tag_23\n      jump\t// in\n    tag_22:\n      dup1\n      tag_24\n      jumpi\n      pop\n      jump(tag_18)\n    tag_24:\n        /* \"contracts/study2/TryCatchTest.sol\":709:727  CatchEvent(reason) */\n      0xb761112ad379c509744de8d585702b0d2694d4ceaef85ad50d452ff06821a6a6\n        /* \"contracts/study2/TryCatchTest.sol\":720:726  reason */\n      dup2\n        /* \"contracts/study2/TryCatchTest.sol\":709:727  CatchEvent(reason) */\n      mload(0x40)\n      tag_25\n      swap2\n      swap1\n      tag_26\n      jump\t// in\n    tag_25:\n      mload(0x40)\n      dup1\n      swap2\n      sub\n      swap1\n      log1\n        /* \"contracts/study2/TryCatchTest.sol\":615:738  catch Error(string memory reason) {... */\n      pop\n        /* \"contracts/study2/TryCatchTest.sol\":453:738  try even.onlyEven(amount) returns (bool _success) {... */\n      jump(tag_17)\n    tag_19:\n      pop\n    tag_18:\n      returndatasize\n      0x00\n      dup1\n      returndatacopy\n      revert(0x00, returndatasize)\n    tag_17:\n      jump(tag_27)\n    tag_16:\n        /* \"contracts/study2/TryCatchTest.sol\":560:574  SuccessEvent() */\n      0xfd76336752e93f2cc77cf13a41be8b6c156731030376354d634d28a9a87b9162\n      mload(0x40)\n      mload(0x40)\n      dup1\n      swap2\n      sub\n      swap1\n      log1\n        /* \"contracts/study2/TryCatchTest.sol\":595:603  _success */\n      dup1\n        /* \"contracts/study2/TryCatchTest.sol\":588:603  return _success */\n      swap2\n      pop\n      pop\n      jump(tag_10)\n        /* \"contracts/study2/TryCatchTest.sol\":453:738  try even.onlyEven(amount) returns (bool _success) {... */\n    tag_27:\n        /* \"contracts/study2/TryCatchTest.sol\":378:744  function execute(uint256 amount) external returns (bool success) {... */\n    tag_10:\n      swap2\n      swap1\n      pop\n      jump\t// out\n        /* \"#utility.yul\":7:82   */\n    tag_28:\n        /* \"#utility.yul\":40:46   */\n      0x00\n        /* \"#utility.yul\":73:75   */\n      0x40\n        /* \"#utility.yul\":67:76   */\n      mload\n        /* \"#utility.yul\":57:76   */\n      swap1\n      pop\n        /* \"#utility.yul\":7:82   */\n      swap1\n      jump\t// out\n        /* \"#utility.yul\":88:205   */\n    tag_29:\n        /* \"#utility.yul\":197:198   */\n      0x00\n        /* \"#utility.yul\":194:195   */\n      dup1\n        /* \"#utility.yul\":187:199   */\n      revert\n        /* \"#utility.yul\":334:411   */\n    tag_31:\n        /* \"#utility.yul\":371:378   */\n      0x00\n        /* \"#utility.yul\":400:405   */\n      dup2\n        /* \"#utility.yul\":389:405   */\n      swap1\n      pop\n        /* \"#utility.yul\":334:411   */\n      swap2\n      swap1\n      pop\n      jump\t// out\n        /* \"#utility.yul\":417:539   */\n    tag_32:\n        /* \"#utility.yul\":490:514   */\n      tag_53\n        /* \"#utility.yul\":508:513   */\n      dup2\n        /* \"#utility.yul\":490:514   */\n      tag_31\n      jump\t// in\n    tag_53:\n        /* \"#utility.yul\":483:488   */\n      dup2\n        /* \"#utility.yul\":480:515   */\n      eq\n        /* \"#utility.yul\":470:533   */\n      tag_54\n      jumpi\n        /* \"#utility.yul\":529:530   */\n      0x00\n        /* \"#utility.yul\":526:527   */\n      dup1\n        /* \"#utility.yul\":519:531   */\n      revert\n        /* \"#utility.yul\":470:533   */\n    tag_54:\n        /* \"#utility.yul\":417:539   */\n      pop\n      jump\t// out\n        /* \"#utility.yul\":545:684   */\n    tag_33:\n        /* \"#utility.yul\":591:596   */\n      0x00\n        /* \"#utility.yul\":629:635   */\n      dup2\n        /* \"#utility.yul\":616:636   */\n      calldataload\n        /* \"#utility.yul\":607:636   */\n      swap1\n      pop\n        /* \"#utility.yul\":645:678   */\n      tag_56\n        /* \"#utility.yul\":672:677   */\n      dup2\n        /* \"#utility.yul\":645:678   */\n      tag_32\n      jump\t// in\n    tag_56:\n        /* \"#utility.yul\":545:684   */\n      swap3\n      swap2\n      pop\n      pop\n      jump\t// out\n        /* \"#utility.yul\":690:1019   */\n    tag_6:\n        /* \"#utility.yul\":749:755   */\n      0x00\n        /* \"#utility.yul\":798:800   */\n      0x20\n        /* \"#utility.yul\":786:795   */\n      dup3\n        /* \"#utility.yul\":777:784   */\n      dup5\n        /* \"#utility.yul\":773:796   */\n      sub\n        /* \"#utility.yul\":769:801   */\n      slt\n        /* \"#utility.yul\":766:885   */\n      iszero\n      tag_58\n      jumpi\n        /* \"#utility.yul\":804:883   */\n      tag_59\n      tag_29\n      jump\t// in\n    tag_59:\n        /* \"#utility.yul\":766:885   */\n    tag_58:\n        /* \"#utility.yul\":924:925   */\n      0x00\n        /* \"#utility.yul\":949:1002   */\n      tag_60\n        /* \"#utility.yul\":994:1001   */\n      dup5\n        /* \"#utility.yul\":985:991   */\n      dup3\n        /* \"#utility.yul\":974:983   */\n      dup6\n        /* \"#utility.yul\":970:992   */\n      add\n        /* \"#utility.yul\":949:1002   */\n      tag_33\n      jump\t// in\n    tag_60:\n        /* \"#utility.yul\":939:1002   */\n      swap2\n      pop\n        /* \"#utility.yul\":895:1012   */\n      pop\n        /* \"#utility.yul\":690:1019   */\n      swap3\n      swap2\n      pop\n      pop\n      jump\t// out\n        /* \"#utility.yul\":1025:1115   */\n    tag_34:\n        /* \"#utility.yul\":1059:1066   */\n      0x00\n        /* \"#utility.yul\":1102:1107   */\n      dup2\n        /* \"#utility.yul\":1095:1108   */\n      iszero\n        /* \"#utility.yul\":1088:1109   */\n      iszero\n        /* \"#utility.yul\":1077:1109   */\n      swap1\n      pop\n        /* \"#utility.yul\":1025:1115   */\n      swap2\n      swap1\n      pop\n      jump\t// out\n        /* \"#utility.yul\":1121:1230   */\n    tag_35:\n        /* \"#utility.yul\":1202:1223   */\n      tag_63\n        /* \"#utility.yul\":1217:1222   */\n      dup2\n        /* \"#utility.yul\":1202:1223   */\n      tag_34\n      jump\t// in\n    tag_63:\n        /* \"#utility.yul\":1197:1200   */\n      dup3\n        /* \"#utility.yul\":1190:1224   */\n      mstore\n        /* \"#utility.yul\":1121:1230   */\n      pop\n      pop\n      jump\t// out\n        /* \"#utility.yul\":1236:1446   */\n    tag_9:\n        /* \"#utility.yul\":1323:1327   */\n      0x00\n        /* \"#utility.yul\":1361:1363   */\n      0x20\n        /* \"#utility.yul\":1350:1359   */\n      dup3\n        /* \"#utility.yul\":1346:1364   */\n      add\n        /* \"#utility.yul\":1338:1364   */\n      swap1\n      pop\n        /* \"#utility.yul\":1374:1439   */\n      tag_65\n        /* \"#utility.yul\":1436:1437   */\n      0x00\n        /* \"#utility.yul\":1425:1434   */\n      dup4\n        /* \"#utility.yul\":1421:1438   */\n      add\n        /* \"#utility.yul\":1412:1418   */\n      dup5\n        /* \"#utility.yul\":1374:1439   */\n      tag_35\n      jump\t// in\n    tag_65:\n        /* \"#utility.yul\":1236:1446   */\n      swap3\n      swap2\n      pop\n      pop\n      jump\t// out\n        /* \"#utility.yul\":1452:1570   */\n    tag_36:\n        /* \"#utility.yul\":1539:1563   */\n      tag_67\n        /* \"#utility.yul\":1557:1562   */\n      dup2\n        /* \"#utility.yul\":1539:1563   */\n      tag_31\n      jump\t// in\n    tag_67:\n        /* \"#utility.yul\":1534:1537   */\n      dup3\n        /* \"#utility.yul\":1527:1564   */\n      mstore\n        /* \"#utility.yul\":1452:1570   */\n      pop\n      pop\n      jump\t// out\n        /* \"#utility.yul\":1576:1798   */\n    tag_12:\n        /* \"#utility.yul\":1669:1673   */\n      0x00\n        /* \"#utility.yul\":1707:1709   */\n      0x20\n        /* \"#utility.yul\":1696:1705   */\n      dup3\n        /* \"#utility.yul\":1692:1710   */\n      add\n        /* \"#utility.yul\":1684:1710   */\n      swap1\n      pop\n        /* \"#utility.yul\":1720:1791   */\n      tag_69\n        /* \"#utility.yul\":1788:1789   */\n      0x00\n        /* \"#utility.yul\":1777:1786   */\n      dup4\n        /* \"#utility.yul\":1773:1790   */\n      add\n        /* \"#utility.yul\":1764:1770   */\n      dup5\n        /* \"#utility.yul\":1720:1791   */\n      tag_36\n      jump\t// in\n    tag_69:\n        /* \"#utility.yul\":1576:1798   */\n      swap3\n      swap2\n      pop\n      pop\n      jump\t// out\n        /* \"#utility.yul\":1804:1920   */\n    tag_37:\n        /* \"#utility.yul\":1874:1895   */\n      tag_71\n        /* \"#utility.yul\":1889:1894   */\n      dup2\n        /* \"#utility.yul\":1874:1895   */\n      tag_34\n      jump\t// in\n    tag_71:\n        /* \"#utility.yul\":1867:1872   */\n      dup2\n        /* \"#utility.yul\":1864:1896   */\n      eq\n        /* \"#utility.yul\":1854:1914   */\n      tag_72\n      jumpi\n        /* \"#utility.yul\":1910:1911   */\n      0x00\n        /* \"#utility.yul\":1907:1908   */\n      dup1\n        /* \"#utility.yul\":1900:1912   */\n      revert\n        /* \"#utility.yul\":1854:1914   */\n    tag_72:\n        /* \"#utility.yul\":1804:1920   */\n      pop\n      jump\t// out\n        /* \"#utility.yul\":1926:2063   */\n    tag_38:\n        /* \"#utility.yul\":1980:1985   */\n      0x00\n        /* \"#utility.yul\":2011:2017   */\n      dup2\n        /* \"#utility.yul\":2005:2018   */\n      mload\n        /* \"#utility.yul\":1996:2018   */\n      swap1\n      pop\n        /* \"#utility.yul\":2027:2057   */\n      tag_74\n        /* \"#utility.yul\":2051:2056   */\n      dup2\n        /* \"#utility.yul\":2027:2057   */\n      tag_37\n      jump\t// in\n    tag_74:\n        /* \"#utility.yul\":1926:2063   */\n      swap3\n      swap2\n      pop\n      pop\n      jump\t// out\n        /* \"#utility.yul\":2069:2414   */\n    tag_15:\n        /* \"#utility.yul\":2136:2142   */\n      0x00\n        /* \"#utility.yul\":2185:2187   */\n      0x20\n        /* \"#utility.yul\":2173:2182   */\n      dup3\n        /* \"#utility.yul\":2164:2171   */\n      dup5\n        /* \"#utility.yul\":2160:2183   */\n      sub\n        /* \"#utility.yul\":2156:2188   */\n      slt\n        /* \"#utility.yul\":2153:2272   */\n      iszero\n      tag_76\n      jumpi\n        /* \"#utility.yul\":2191:2270   */\n      tag_77\n      tag_29\n      jump\t// in\n    tag_77:\n        /* \"#utility.yul\":2153:2272   */\n    tag_76:\n        /* \"#utility.yul\":2311:2312   */\n      0x00\n        /* \"#utility.yul\":2336:2397   */\n      tag_78\n        /* \"#utility.yul\":2389:2396   */\n      dup5\n        /* \"#utility.yul\":2380:2386   */\n      dup3\n        /* \"#utility.yul\":2369:2378   */\n      dup6\n        /* \"#utility.yul\":2365:2387   */\n      add\n        /* \"#utility.yul\":2336:2397   */\n      tag_38\n      jump\t// in\n    tag_78:\n        /* \"#utility.yul\":2326:2397   */\n      swap2\n      pop\n        /* \"#utility.yul\":2282:2407   */\n      pop\n        /* \"#utility.yul\":2069:2414   */\n      swap3\n      swap2\n      pop\n      pop\n      jump\t// out\n        /* \"#utility.yul\":2420:2526   */\n    tag_39:\n        /* \"#utility.yul\":2464:2472   */\n      0x00\n        /* \"#utility.yul\":2513:2518   */\n      dup2\n        /* \"#utility.yul\":2508:2511   */\n      0xe0\n        /* \"#utility.yul\":2504:2519   */\n      shr\n        /* \"#utility.yul\":2483:2519   */\n      swap1\n      pop\n        /* \"#utility.yul\":2420:2526   */\n      swap2\n      swap1\n      pop\n      jump\t// out\n        /* \"#utility.yul\":2532:2715   */\n    tag_21:\n        /* \"#utility.yul\":2567:2570   */\n      0x00\n        /* \"#utility.yul\":2605:2606   */\n      0x03\n        /* \"#utility.yul\":2587:2603   */\n      returndatasize\n        /* \"#utility.yul\":2584:2607   */\n      gt\n        /* \"#utility.yul\":2581:2709   */\n      iszero\n      tag_81\n      jumpi\n        /* \"#utility.yul\":2643:2644   */\n      0x04\n        /* \"#utility.yul\":2640:2641   */\n      0x00\n        /* \"#utility.yul\":2637:2638   */\n      dup1\n        /* \"#utility.yul\":2622:2645   */\n      returndatacopy\n        /* \"#utility.yul\":2665:2699   */\n      tag_82\n        /* \"#utility.yul\":2696:2697   */\n      0x00\n        /* \"#utility.yul\":2690:2698   */\n      mload\n        /* \"#utility.yul\":2665:2699   */\n      tag_39\n      jump\t// in\n    tag_82:\n        /* \"#utility.yul\":2658:2699   */\n      swap1\n      pop\n        /* \"#utility.yul\":2581:2709   */\n    tag_81:\n        /* \"#utility.yul\":2532:2715   */\n      swap1\n      jump\t// out\n        /* \"#utility.yul\":2721:2823   */\n    tag_40:\n        /* \"#utility.yul\":2762:2768   */\n      0x00\n        /* \"#utility.yul\":2813:2815   */\n      0x1f\n        /* \"#utility.yul\":2809:2816   */\n      not\n        /* \"#utility.yul\":2804:2806   */\n      0x1f\n        /* \"#utility.yul\":2797:2802   */\n      dup4\n        /* \"#utility.yul\":2793:2807   */\n      add\n        /* \"#utility.yul\":2789:2817   */\n      and\n        /* \"#utility.yul\":2779:2817   */\n      swap1\n      pop\n        /* \"#utility.yul\":2721:2823   */\n      swap2\n      swap1\n      pop\n      jump\t// out\n        /* \"#utility.yul\":2829:3009   */\n    tag_41:\n        /* \"#utility.yul\":2877:2954   */\n      0x4e487b7100000000000000000000000000000000000000000000000000000000\n        /* \"#utility.yul\":2874:2875   */\n      0x00\n        /* \"#utility.yul\":2867:2955   */\n      mstore\n        /* \"#utility.yul\":2974:2978   */\n      0x41\n        /* \"#utility.yul\":2971:2972   */\n      0x04\n        /* \"#utility.yul\":2964:2979   */\n      mstore\n        /* \"#utility.yul\":2998:3002   */\n      0x24\n        /* \"#utility.yul\":2995:2996   */\n      0x00\n        /* \"#utility.yul\":2988:3003   */\n      revert\n        /* \"#utility.yul\":3015:3296   */\n    tag_42:\n        /* \"#utility.yul\":3098:3125   */\n      tag_86\n        /* \"#utility.yul\":3120:3124   */\n      dup3\n        /* \"#utility.yul\":3098:3125   */\n      tag_40\n      jump\t// in\n    tag_86:\n        /* \"#utility.yul\":3090:3096   */\n      dup2\n        /* \"#utility.yul\":3086:3126   */\n      add\n        /* \"#utility.yul\":3228:3234   */\n      dup2\n        /* \"#utility.yul\":3216:3226   */\n      dup2\n        /* \"#utility.yul\":3213:3235   */\n      lt\n        /* \"#utility.yul\":3192:3210   */\n      0xffffffffffffffff\n        /* \"#utility.yul\":3180:3190   */\n      dup3\n        /* \"#utility.yul\":3177:3211   */\n      gt\n        /* \"#utility.yul\":3174:3236   */\n      or\n        /* \"#utility.yul\":3171:3259   */\n      iszero\n      tag_87\n      jumpi\n        /* \"#utility.yul\":3239:3257   */\n      tag_88\n      tag_41\n      jump\t// in\n    tag_88:\n        /* \"#utility.yul\":3171:3259   */\n    tag_87:\n        /* \"#utility.yul\":3279:3289   */\n      dup1\n        /* \"#utility.yul\":3275:3277   */\n      0x40\n        /* \"#utility.yul\":3268:3290   */\n      mstore\n        /* \"#utility.yul\":3058:3296   */\n      pop\n        /* \"#utility.yul\":3015:3296   */\n      pop\n      pop\n      jump\t// out\n        /* \"#utility.yul\":3302:4013   */\n    tag_23:\n        /* \"#utility.yul\":3341:3344   */\n      0x00\n        /* \"#utility.yul\":3379:3383   */\n      0x44\n        /* \"#utility.yul\":3361:3377   */\n      returndatasize\n        /* \"#utility.yul\":3358:3384   */\n      lt\n        /* \"#utility.yul\":3387:3392   */\n      tag_89\n        /* \"#utility.yul\":3355:3394   */\n      jumpi\n        /* \"#utility.yul\":3416:3436   */\n      tag_91\n      tag_28\n      jump\t// in\n    tag_91:\n        /* \"#utility.yul\":3491:3492   */\n      0x04\n        /* \"#utility.yul\":3473:3489   */\n      returndatasize\n        /* \"#utility.yul\":3469:3493   */\n      sub\n        /* \"#utility.yul\":3466:3467   */\n      0x04\n        /* \"#utility.yul\":3460:3464   */\n      dup3\n        /* \"#utility.yul\":3445:3494   */\n      returndatacopy\n        /* \"#utility.yul\":3524:3528   */\n      dup1\n        /* \"#utility.yul\":3518:3529   */\n      mload\n        /* \"#utility.yul\":3623:3639   */\n      returndatasize\n        /* \"#utility.yul\":3616:3620   */\n      0x24\n        /* \"#utility.yul\":3608:3614   */\n      dup3\n        /* \"#utility.yul\":3604:3621   */\n      add\n        /* \"#utility.yul\":3601:3640   */\n      gt\n        /* \"#utility.yul\":3568:3586   */\n      0xffffffffffffffff\n        /* \"#utility.yul\":3560:3566   */\n      dup3\n        /* \"#utility.yul\":3557:3587   */\n      gt\n        /* \"#utility.yul\":3541:3654   */\n      or\n        /* \"#utility.yul\":3538:3684   */\n      iszero\n      tag_92\n      jumpi\n        /* \"#utility.yul\":3669:3674   */\n      pop\n      pop\n      jump(tag_89)\n        /* \"#utility.yul\":3538:3684   */\n    tag_92:\n        /* \"#utility.yul\":3715:3721   */\n      dup1\n        /* \"#utility.yul\":3709:3713   */\n      dup3\n        /* \"#utility.yul\":3705:3722   */\n      add\n        /* \"#utility.yul\":3751:3754   */\n      dup1\n        /* \"#utility.yul\":3745:3755   */\n      mload\n        /* \"#utility.yul\":3778:3796   */\n      0xffffffffffffffff\n        /* \"#utility.yul\":3770:3776   */\n      dup2\n        /* \"#utility.yul\":3767:3797   */\n      gt\n        /* \"#utility.yul\":3764:3807   */\n      iszero\n      tag_93\n      jumpi\n        /* \"#utility.yul\":3800:3805   */\n      pop\n      pop\n      pop\n      pop\n      jump(tag_89)\n        /* \"#utility.yul\":3764:3807   */\n    tag_93:\n        /* \"#utility.yul\":3848:3854   */\n      dup1\n        /* \"#utility.yul\":3841:3845   */\n      0x20\n        /* \"#utility.yul\":3836:3839   */\n      dup4\n        /* \"#utility.yul\":3832:3846   */\n      add\n        /* \"#utility.yul\":3828:3855   */\n      add\n        /* \"#utility.yul\":3907:3908   */\n      0x04\n        /* \"#utility.yul\":3889:3905   */\n      returndatasize\n        /* \"#utility.yul\":3885:3909   */\n      sub\n        /* \"#utility.yul\":3879:3883   */\n      dup6\n        /* \"#utility.yul\":3875:3910   */\n      add\n        /* \"#utility.yul\":3870:3873   */\n      dup2\n        /* \"#utility.yul\":3867:3911   */\n      gt\n        /* \"#utility.yul\":3864:3921   */\n      iszero\n      tag_94\n      jumpi\n        /* \"#utility.yul\":3914:3919   */\n      pop\n      pop\n      pop\n      pop\n      pop\n      jump(tag_89)\n        /* \"#utility.yul\":3864:3921   */\n    tag_94:\n        /* \"#utility.yul\":3931:3988   */\n      tag_95\n        /* \"#utility.yul\":3979:3985   */\n      dup3\n        /* \"#utility.yul\":3973:3977   */\n      0x20\n        /* \"#utility.yul\":3969:3986   */\n      add\n        /* \"#utility.yul\":3961:3967   */\n      dup6\n        /* \"#utility.yul\":3957:3987   */\n      add\n        /* \"#utility.yul\":3951:3955   */\n      dup7\n        /* \"#utility.yul\":3931:3988   */\n      tag_42\n      jump\t// in\n    tag_95:\n        /* \"#utility.yul\":4004:4007   */\n      dup3\n        /* \"#utility.yul\":3997:4007   */\n      swap6\n      pop\n        /* \"#utility.yul\":3345:4013   */\n      pop\n      pop\n      pop\n      pop\n      pop\n        /* \"#utility.yul\":3302:4013   */\n    tag_89:\n      swap1\n      jump\t// out\n        /* \"#utility.yul\":4019:4118   */\n    tag_43:\n        /* \"#utility.yul\":4071:4077   */\n      0x00\n        /* \"#utility.yul\":4105:4110   */\n      dup2\n        /* \"#utility.yul\":4099:4111   */\n      mload\n        /* \"#utility.yul\":4089:4111   */\n      swap1\n      pop\n        /* \"#utility.yul\":4019:4118   */\n      swap2\n      swap1\n      pop\n      jump\t// out\n        /* \"#utility.yul\":4124:4293   */\n    tag_44:\n        /* \"#utility.yul\":4208:4219   */\n      0x00\n        /* \"#utility.yul\":4242:4248   */\n      dup3\n        /* \"#utility.yul\":4237:4240   */\n      dup3\n        /* \"#utility.yul\":4230:4249   */\n      mstore\n        /* \"#utility.yul\":4282:4286   */\n      0x20\n        /* \"#utility.yul\":4277:4280   */\n      dup3\n        /* \"#utility.yul\":4273:4287   */\n      add\n        /* \"#utility.yul\":4258:4287   */\n      swap1\n      pop\n        /* \"#utility.yul\":4124:4293   */\n      swap3\n      swap2\n      pop\n      pop\n      jump\t// out\n        /* \"#utility.yul\":4299:4438   */\n    tag_45:\n        /* \"#utility.yul\":4388:4394   */\n      dup3\n        /* \"#utility.yul\":4383:4386   */\n      dup2\n        /* \"#utility.yul\":4378:4381   */\n      dup4\n        /* \"#utility.yul\":4372:4395   */\n      mcopy\n        /* \"#utility.yul\":4429:4430   */\n      0x00\n        /* \"#utility.yul\":4420:4426   */\n      dup4\n        /* \"#utility.yul\":4415:4418   */\n      dup4\n        /* \"#utility.yul\":4411:4427   */\n      add\n        /* \"#utility.yul\":4404:4431   */\n      mstore\n        /* \"#utility.yul\":4299:4438   */\n      pop\n      pop\n      pop\n      jump\t// out\n        /* \"#utility.yul\":4444:4821   */\n    tag_46:\n        /* \"#utility.yul\":4532:4535   */\n      0x00\n        /* \"#utility.yul\":4560:4599   */\n      tag_100\n        /* \"#utility.yul\":4593:4598   */\n      dup3\n        /* \"#utility.yul\":4560:4599   */\n      tag_43\n      jump\t// in\n    tag_100:\n        /* \"#utility.yul\":4615:4686   */\n      tag_101\n        /* \"#utility.yul\":4679:4685   */\n      dup2\n        /* \"#utility.yul\":4674:4677   */\n      dup6\n        /* \"#utility.yul\":4615:4686   */\n      tag_44\n      jump\t// in\n    tag_101:\n        /* \"#utility.yul\":4608:4686   */\n      swap4\n      pop\n        /* \"#utility.yul\":4695:4760   */\n      tag_102\n        /* \"#utility.yul\":4753:4759   */\n      dup2\n        /* \"#utility.yul\":4748:4751   */\n      dup6\n        /* \"#utility.yul\":4741:4745   */\n      0x20\n        /* \"#utility.yul\":4734:4739   */\n      dup7\n        /* \"#utility.yul\":4730:4746   */\n      add\n        /* \"#utility.yul\":4695:4760   */\n      tag_45\n      jump\t// in\n    tag_102:\n        /* \"#utility.yul\":4785:4814   */\n      tag_103\n        /* \"#utility.yul\":4807:4813   */\n      dup2\n        /* \"#utility.yul\":4785:4814   */\n      tag_40\n      jump\t// in\n    tag_103:\n        /* \"#utility.yul\":4780:4783   */\n      dup5\n        /* \"#utility.yul\":4776:4815   */\n      add\n        /* \"#utility.yul\":4769:4815   */\n      swap2\n      pop\n        /* \"#utility.yul\":4536:4821   */\n      pop\n        /* \"#utility.yul\":4444:4821   */\n      swap3\n      swap2\n      pop\n      pop\n      jump\t// out\n        /* \"#utility.yul\":4827:5140   */\n    tag_26:\n        /* \"#utility.yul\":4940:4944   */\n      0x00\n        /* \"#utility.yul\":4978:4980   */\n      0x20\n        /* \"#utility.yul\":4967:4976   */\n      dup3\n        /* \"#utility.yul\":4963:4981   */\n      add\n        /* \"#utility.yul\":4955:4981   */\n      swap1\n      pop\n        /* \"#utility.yul\":5027:5036   */\n      dup2\n        /* \"#utility.yul\":5021:5025   */\n      dup2\n        /* \"#utility.yul\":5017:5037   */\n      sub\n        /* \"#utility.yul\":5013:5014   */\n      0x00\n        /* \"#utility.yul\":5002:5011   */\n      dup4\n        /* \"#utility.yul\":4998:5015   */\n      add\n        /* \"#utility.yul\":4991:5038   */\n      mstore\n        /* \"#utility.yul\":5055:5133   */\n      tag_105\n        /* \"#utility.yul\":5128:5132   */\n      dup2\n        /* \"#utility.yul\":5119:5125   */\n      dup5\n        /* \"#utility.yul\":5055:5133   */\n      tag_46\n      jump\t// in\n    tag_105:\n        /* \"#utility.yul\":5047:5133   */\n      swap1\n      pop\n        /* \"#utility.yul\":4827:5140   */\n      swap3\n      swap2\n      pop\n      pop\n      jump\t// out\n\n    auxdata: 0xa26469706673582212203191b752269f8dbac6df8b162e6275b9c746a1a40695d3266b63e7b7c0f03d2064736f6c634300081a0033\n}\n\nsub_1: assembly {\n        /* \"contracts/study2/TryCatchTest.sol\":748:1054  contract OnlyEven {... */\n      mstore(0x40, 0x80)\n        /* \"contracts/study2/TryCatchTest.sol\":772:869  constructor(uint256 a) {... */\n      callvalue\n      dup1\n      iszero\n      tag_1\n      jumpi\n      0x00\n      dup1\n      revert\n    tag_1:\n      pop\n      mload(0x40)\n      sub(codesize, bytecodeSize)\n      dup1\n      bytecodeSize\n      dup4\n      codecopy\n      dup2\n      dup2\n      add\n      0x40\n      mstore\n      dup2\n      add\n      swap1\n      tag_2\n      swap2\n      swap1\n      tag_3\n      jump\t// in\n    tag_2:\n        /* \"contracts/study2/TryCatchTest.sol\":818:819  0 */\n      0x00\n        /* \"contracts/study2/TryCatchTest.sol\":813:814  a */\n      dup2\n        /* \"contracts/study2/TryCatchTest.sol\":813:819  a != 0 */\n      sub\n        /* \"contracts/study2/TryCatchTest.sol\":805:838  require(a != 0, \"invalid number\") */\n      tag_6\n      jumpi\n      mload(0x40)\n      0x08c379a000000000000000000000000000000000000000000000000000000000\n      dup2\n      mstore\n      0x04\n      add\n      tag_7\n      swap1\n      tag_8\n      jump\t// in\n    tag_7:\n      mload(0x40)\n      dup1\n      swap2\n      sub\n      swap1\n      revert\n    tag_6:\n        /* \"contracts/study2/TryCatchTest.sol\":860:861  1 */\n      0x01\n        /* \"contracts/study2/TryCatchTest.sol\":855:856  a */\n      dup2\n        /* \"contracts/study2/TryCatchTest.sol\":855:861  a != 1 */\n      sub\n        /* \"contracts/study2/TryCatchTest.sol\":848:862  assert(a != 1) */\n      tag_9\n      jumpi\n      tag_10\n      tag_11\n      jump\t// in\n    tag_10:\n    tag_9:\n        /* \"contracts/study2/TryCatchTest.sol\":772:869  constructor(uint256 a) {... */\n      pop\n        /* \"contracts/study2/TryCatchTest.sol\":748:1054  contract OnlyEven {... */\n      jump(tag_12)\n        /* \"#utility.yul\":88:205   */\n    tag_14:\n        /* \"#utility.yul\":197:198   */\n      0x00\n        /* \"#utility.yul\":194:195   */\n      dup1\n        /* \"#utility.yul\":187:199   */\n      revert\n        /* \"#utility.yul\":334:411   */\n    tag_16:\n        /* \"#utility.yul\":371:378   */\n      0x00\n        /* \"#utility.yul\":400:405   */\n      dup2\n        /* \"#utility.yul\":389:405   */\n      swap1\n      pop\n        /* \"#utility.yul\":334:411   */\n      swap2\n      swap1\n      pop\n      jump\t// out\n        /* \"#utility.yul\":417:539   */\n    tag_17:\n        /* \"#utility.yul\":490:514   */\n      tag_28\n        /* \"#utility.yul\":508:513   */\n      dup2\n        /* \"#utility.yul\":490:514   */\n      tag_16\n      jump\t// in\n    tag_28:\n        /* \"#utility.yul\":483:488   */\n      dup2\n        /* \"#utility.yul\":480:515   */\n      eq\n        /* \"#utility.yul\":470:533   */\n      tag_29\n      jumpi\n        /* \"#utility.yul\":529:530   */\n      0x00\n        /* \"#utility.yul\":526:527   */\n      dup1\n        /* \"#utility.yul\":519:531   */\n      revert\n        /* \"#utility.yul\":470:533   */\n    tag_29:\n        /* \"#utility.yul\":417:539   */\n      pop\n      jump\t// out\n        /* \"#utility.yul\":545:688   */\n    tag_18:\n        /* \"#utility.yul\":602:607   */\n      0x00\n        /* \"#utility.yul\":633:639   */\n      dup2\n        /* \"#utility.yul\":627:640   */\n      mload\n        /* \"#utility.yul\":618:640   */\n      swap1\n      pop\n        /* \"#utility.yul\":649:682   */\n      tag_31\n        /* \"#utility.yul\":676:681   */\n      dup2\n        /* \"#utility.yul\":649:682   */\n      tag_17\n      jump\t// in\n    tag_31:\n        /* \"#utility.yul\":545:688   */\n      swap3\n      swap2\n      pop\n      pop\n      jump\t// out\n        /* \"#utility.yul\":694:1045   */\n    tag_3:\n        /* \"#utility.yul\":764:770   */\n      0x00\n        /* \"#utility.yul\":813:815   */\n      0x20\n        /* \"#utility.yul\":801:810   */\n      dup3\n        /* \"#utility.yul\":792:799   */\n      dup5\n        /* \"#utility.yul\":788:811   */\n      sub\n        /* \"#utility.yul\":784:816   */\n      slt\n        /* \"#utility.yul\":781:900   */\n      iszero\n      tag_33\n      jumpi\n        /* \"#utility.yul\":819:898   */\n      tag_34\n      tag_14\n      jump\t// in\n    tag_34:\n        /* \"#utility.yul\":781:900   */\n    tag_33:\n        /* \"#utility.yul\":939:940   */\n      0x00\n        /* \"#utility.yul\":964:1028   */\n      tag_35\n        /* \"#utility.yul\":1020:1027   */\n      dup5\n        /* \"#utility.yul\":1011:1017   */\n      dup3\n        /* \"#utility.yul\":1000:1009   */\n      dup6\n        /* \"#utility.yul\":996:1018   */\n      add\n        /* \"#utility.yul\":964:1028   */\n      tag_18\n      jump\t// in\n    tag_35:\n        /* \"#utility.yul\":954:1028   */\n      swap2\n      pop\n        /* \"#utility.yul\":910:1038   */\n      pop\n        /* \"#utility.yul\":694:1045   */\n      swap3\n      swap2\n      pop\n      pop\n      jump\t// out\n        /* \"#utility.yul\":1051:1220   */\n    tag_19:\n        /* \"#utility.yul\":1135:1146   */\n      0x00\n        /* \"#utility.yul\":1169:1175   */\n      dup3\n        /* \"#utility.yul\":1164:1167   */\n      dup3\n        /* \"#utility.yul\":1157:1176   */\n      mstore\n        /* \"#utility.yul\":1209:1213   */\n      0x20\n        /* \"#utility.yul\":1204:1207   */\n      dup3\n        /* \"#utility.yul\":1200:1214   */\n      add\n        /* \"#utility.yul\":1185:1214   */\n      swap1\n      pop\n        /* \"#utility.yul\":1051:1220   */\n      swap3\n      swap2\n      pop\n      pop\n      jump\t// out\n        /* \"#utility.yul\":1226:1390   */\n    tag_20:\n        /* \"#utility.yul\":1366:1382   */\n      0x696e76616c6964206e756d626572000000000000000000000000000000000000\n        /* \"#utility.yul\":1362:1363   */\n      0x00\n        /* \"#utility.yul\":1354:1360   */\n      dup3\n        /* \"#utility.yul\":1350:1364   */\n      add\n        /* \"#utility.yul\":1343:1383   */\n      mstore\n        /* \"#utility.yul\":1226:1390   */\n      pop\n      jump\t// out\n        /* \"#utility.yul\":1396:1762   */\n    tag_21:\n        /* \"#utility.yul\":1538:1541   */\n      0x00\n        /* \"#utility.yul\":1559:1626   */\n      tag_39\n        /* \"#utility.yul\":1623:1625   */\n      0x0e\n        /* \"#utility.yul\":1618:1621   */\n      dup4\n        /* \"#utility.yul\":1559:1626   */\n      tag_19\n      jump\t// in\n    tag_39:\n        /* \"#utility.yul\":1552:1626   */\n      swap2\n      pop\n        /* \"#utility.yul\":1635:1728   */\n      tag_40\n        /* \"#utility.yul\":1724:1727   */\n      dup3\n        /* \"#utility.yul\":1635:1728   */\n      tag_20\n      jump\t// in\n    tag_40:\n        /* \"#utility.yul\":1753:1755   */\n      0x20\n        /* \"#utility.yul\":1748:1751   */\n      dup3\n        /* \"#utility.yul\":1744:1756   */\n      add\n        /* \"#utility.yul\":1737:1756   */\n      swap1\n      pop\n        /* \"#utility.yul\":1396:1762   */\n      swap2\n      swap1\n      pop\n      jump\t// out\n        /* \"#utility.yul\":1768:2187   */\n    tag_8:\n        /* \"#utility.yul\":1934:1938   */\n      0x00\n        /* \"#utility.yul\":1972:1974   */\n      0x20\n        /* \"#utility.yul\":1961:1970   */\n      dup3\n        /* \"#utility.yul\":1957:1975   */\n      add\n        /* \"#utility.yul\":1949:1975   */\n      swap1\n      pop\n        /* \"#utility.yul\":2021:2030   */\n      dup2\n        /* \"#utility.yul\":2015:2019   */\n      dup2\n        /* \"#utility.yul\":2011:2031   */\n      sub\n        /* \"#utility.yul\":2007:2008   */\n      0x00\n        /* \"#utility.yul\":1996:2005   */\n      dup4\n        /* \"#utility.yul\":1992:2009   */\n      add\n        /* \"#utility.yul\":1985:2032   */\n      mstore\n        /* \"#utility.yul\":2049:2180   */\n      tag_42\n        /* \"#utility.yul\":2175:2179   */\n      dup2\n        /* \"#utility.yul\":2049:2180   */\n      tag_21\n      jump\t// in\n    tag_42:\n        /* \"#utility.yul\":2041:2180   */\n      swap1\n      pop\n        /* \"#utility.yul\":1768:2187   */\n      swap2\n      swap1\n      pop\n      jump\t// out\n        /* \"#utility.yul\":2193:2373   */\n    tag_11:\n        /* \"#utility.yul\":2241:2318   */\n      0x4e487b7100000000000000000000000000000000000000000000000000000000\n        /* \"#utility.yul\":2238:2239   */\n      0x00\n        /* \"#utility.yul\":2231:2319   */\n      mstore\n        /* \"#utility.yul\":2338:2342   */\n      0x01\n        /* \"#utility.yul\":2335:2336   */\n      0x04\n        /* \"#utility.yul\":2328:2343   */\n      mstore\n        /* \"#utility.yul\":2362:2366   */\n      0x24\n        /* \"#utility.yul\":2359:2360   */\n      0x00\n        /* \"#utility.yul\":2352:2367   */\n      revert\n        /* \"contracts/study2/TryCatchTest.sol\":748:1054  contract OnlyEven {... */\n    tag_12:\n      dataSize(sub_0)\n      dup1\n      dataOffset(sub_0)\n      0x00\n      codecopy\n      0x00\n      return\n    stop\n\n    sub_0: assembly {\n            /* \"contracts/study2/TryCatchTest.sol\":748:1054  contract OnlyEven {... */\n          mstore(0x40, 0x80)\n          callvalue\n          dup1\n          iszero\n          tag_1\n          jumpi\n          0x00\n          dup1\n          revert\n        tag_1:\n          pop\n          jumpi(tag_2, lt(calldatasize, 0x04))\n          shr(0xe0, calldataload(0x00))\n          dup1\n          0xce0b4213\n          eq\n          tag_3\n          jumpi\n        tag_2:\n          0x00\n          dup1\n          revert\n            /* \"contracts/study2/TryCatchTest.sol\":875:1052  function onlyEven(uint256 b) external pure returns (bool success) {... */\n        tag_3:\n          tag_4\n          0x04\n          dup1\n          calldatasize\n          sub\n          dup2\n          add\n          swap1\n          tag_5\n          swap2\n          swap1\n          tag_6\n          jump\t// in\n        tag_5:\n          tag_7\n          jump\t// in\n        tag_4:\n          mload(0x40)\n          tag_8\n          swap2\n          swap1\n          tag_9\n          jump\t// in\n        tag_8:\n          mload(0x40)\n          dup1\n          swap2\n          sub\n          swap1\n          return\n        tag_7:\n            /* \"contracts/study2/TryCatchTest.sol\":927:939  bool success */\n          0x00\n            /* \"contracts/study2/TryCatchTest.sol\":1001:1002  0 */\n          dup1\n            /* \"contracts/study2/TryCatchTest.sol\":996:997  2 */\n          0x02\n            /* \"contracts/study2/TryCatchTest.sol\":992:993  b */\n          dup4\n            /* \"contracts/study2/TryCatchTest.sol\":992:997  b % 2 */\n          tag_11\n          swap2\n          swap1\n          tag_12\n          jump\t// in\n        tag_11:\n            /* \"contracts/study2/TryCatchTest.sol\":992:1002  b % 2 == 0 */\n          eq\n            /* \"contracts/study2/TryCatchTest.sol\":984:1021  require(b % 2 == 0, \"Ups! Reverting\") */\n          tag_13\n          jumpi\n          mload(0x40)\n          0x08c379a000000000000000000000000000000000000000000000000000000000\n          dup2\n          mstore\n          0x04\n          add\n          tag_14\n          swap1\n          tag_15\n          jump\t// in\n        tag_14:\n          mload(0x40)\n          dup1\n          swap2\n          sub\n          swap1\n          revert\n        tag_13:\n            /* \"contracts/study2/TryCatchTest.sol\":1041:1045  true */\n          0x01\n            /* \"contracts/study2/TryCatchTest.sol\":1031:1045  success = true */\n          swap1\n          pop\n            /* \"contracts/study2/TryCatchTest.sol\":875:1052  function onlyEven(uint256 b) external pure returns (bool success) {... */\n          swap2\n          swap1\n          pop\n          jump\t// out\n            /* \"#utility.yul\":88:205   */\n        tag_17:\n            /* \"#utility.yul\":197:198   */\n          0x00\n            /* \"#utility.yul\":194:195   */\n          dup1\n            /* \"#utility.yul\":187:199   */\n          revert\n            /* \"#utility.yul\":334:411   */\n        tag_19:\n            /* \"#utility.yul\":371:378   */\n          0x00\n            /* \"#utility.yul\":400:405   */\n          dup2\n            /* \"#utility.yul\":389:405   */\n          swap1\n          pop\n            /* \"#utility.yul\":334:411   */\n          swap2\n          swap1\n          pop\n          jump\t// out\n            /* \"#utility.yul\":417:539   */\n        tag_20:\n            /* \"#utility.yul\":490:514   */\n          tag_34\n            /* \"#utility.yul\":508:513   */\n          dup2\n            /* \"#utility.yul\":490:514   */\n          tag_19\n          jump\t// in\n        tag_34:\n            /* \"#utility.yul\":483:488   */\n          dup2\n            /* \"#utility.yul\":480:515   */\n          eq\n            /* \"#utility.yul\":470:533   */\n          tag_35\n          jumpi\n            /* \"#utility.yul\":529:530   */\n          0x00\n            /* \"#utility.yul\":526:527   */\n          dup1\n            /* \"#utility.yul\":519:531   */\n          revert\n            /* \"#utility.yul\":470:533   */\n        tag_35:\n            /* \"#utility.yul\":417:539   */\n          pop\n          jump\t// out\n            /* \"#utility.yul\":545:684   */\n        tag_21:\n            /* \"#utility.yul\":591:596   */\n          0x00\n            /* \"#utility.yul\":629:635   */\n          dup2\n            /* \"#utility.yul\":616:636   */\n          calldataload\n            /* \"#utility.yul\":607:636   */\n          swap1\n          pop\n            /* \"#utility.yul\":645:678   */\n          tag_37\n            /* \"#utility.yul\":672:677   */\n          dup2\n            /* \"#utility.yul\":645:678   */\n          tag_20\n          jump\t// in\n        tag_37:\n            /* \"#utility.yul\":545:684   */\n          swap3\n          swap2\n          pop\n          pop\n          jump\t// out\n            /* \"#utility.yul\":690:1019   */\n        tag_6:\n            /* \"#utility.yul\":749:755   */\n          0x00\n            /* \"#utility.yul\":798:800   */\n          0x20\n            /* \"#utility.yul\":786:795   */\n          dup3\n            /* \"#utility.yul\":777:784   */\n          dup5\n            /* \"#utility.yul\":773:796   */\n          sub\n            /* \"#utility.yul\":769:801   */\n          slt\n            /* \"#utility.yul\":766:885   */\n          iszero\n          tag_39\n          jumpi\n            /* \"#utility.yul\":804:883   */\n          tag_40\n          tag_17\n          jump\t// in\n        tag_40:\n            /* \"#utility.yul\":766:885   */\n        tag_39:\n            /* \"#utility.yul\":924:925   */\n          0x00\n            /* \"#utility.yul\":949:1002   */\n          tag_41\n            /* \"#utility.yul\":994:1001   */\n          dup5\n            /* \"#utility.yul\":985:991   */\n          dup3\n            /* \"#utility.yul\":974:983   */\n          dup6\n            /* \"#utility.yul\":970:992   */\n          add\n            /* \"#utility.yul\":949:1002   */\n          tag_21\n          jump\t// in\n        tag_41:\n            /* \"#utility.yul\":939:1002   */\n          swap2\n          pop\n            /* \"#utility.yul\":895:1012   */\n          pop\n            /* \"#utility.yul\":690:1019   */\n          swap3\n          swap2\n          pop\n          pop\n          jump\t// out\n            /* \"#utility.yul\":1025:1115   */\n        tag_22:\n            /* \"#utility.yul\":1059:1066   */\n          0x00\n            /* \"#utility.yul\":1102:1107   */\n          dup2\n            /* \"#utility.yul\":1095:1108   */\n          iszero\n            /* \"#utility.yul\":1088:1109   */\n          iszero\n            /* \"#utility.yul\":1077:1109   */\n          swap1\n          pop\n            /* \"#utility.yul\":1025:1115   */\n          swap2\n          swap1\n          pop\n          jump\t// out\n            /* \"#utility.yul\":1121:1230   */\n        tag_23:\n            /* \"#utility.yul\":1202:1223   */\n          tag_44\n            /* \"#utility.yul\":1217:1222   */\n          dup2\n            /* \"#utility.yul\":1202:1223   */\n          tag_22\n          jump\t// in\n        tag_44:\n            /* \"#utility.yul\":1197:1200   */\n          dup3\n            /* \"#utility.yul\":1190:1224   */\n          mstore\n            /* \"#utility.yul\":1121:1230   */\n          pop\n          pop\n          jump\t// out\n            /* \"#utility.yul\":1236:1446   */\n        tag_9:\n            /* \"#utility.yul\":1323:1327   */\n          0x00\n            /* \"#utility.yul\":1361:1363   */\n          0x20\n            /* \"#utility.yul\":1350:1359   */\n          dup3\n            /* \"#utility.yul\":1346:1364   */\n          add\n            /* \"#utility.yul\":1338:1364   */\n          swap1\n          pop\n            /* \"#utility.yul\":1374:1439   */\n          tag_46\n            /* \"#utility.yul\":1436:1437   */\n          0x00\n            /* \"#utility.yul\":1425:1434   */\n          dup4\n            /* \"#utility.yul\":1421:1438   */\n          add\n            /* \"#utility.yul\":1412:1418   */\n          dup5\n            /* \"#utility.yul\":1374:1439   */\n          tag_23\n          jump\t// in\n        tag_46:\n            /* \"#utility.yul\":1236:1446   */\n          swap3\n          swap2\n          pop\n          pop\n          jump\t// out\n            /* \"#utility.yul\":1452:1632   */\n        tag_24:\n            /* \"#utility.yul\":1500:1577   */\n          0x4e487b7100000000000000000000000000000000000000000000000000000000\n            /* \"#utility.yul\":1497:1498   */\n          0x00\n            /* \"#utility.yul\":1490:1578   */\n          mstore\n            /* \"#utility.yul\":1597:1601   */\n          0x12\n            /* \"#utility.yul\":1594:1595   */\n          0x04\n            /* \"#utility.yul\":1587:1602   */\n          mstore\n            /* \"#utility.yul\":1621:1625   */\n          0x24\n            /* \"#utility.yul\":1618:1619   */\n          0x00\n            /* \"#utility.yul\":1611:1626   */\n          revert\n            /* \"#utility.yul\":1638:1814   */\n        tag_12:\n            /* \"#utility.yul\":1670:1671   */\n          0x00\n            /* \"#utility.yul\":1687:1707   */\n          tag_49\n            /* \"#utility.yul\":1705:1706   */\n          dup3\n            /* \"#utility.yul\":1687:1707   */\n          tag_19\n          jump\t// in\n        tag_49:\n            /* \"#utility.yul\":1682:1707   */\n          swap2\n          pop\n            /* \"#utility.yul\":1721:1741   */\n          tag_50\n            /* \"#utility.yul\":1739:1740   */\n          dup4\n            /* \"#utility.yul\":1721:1741   */\n          tag_19\n          jump\t// in\n        tag_50:\n            /* \"#utility.yul\":1716:1741   */\n          swap3\n          pop\n            /* \"#utility.yul\":1760:1761   */\n          dup3\n            /* \"#utility.yul\":1750:1785   */\n          tag_51\n          jumpi\n            /* \"#utility.yul\":1765:1783   */\n          tag_52\n          tag_24\n          jump\t// in\n        tag_52:\n            /* \"#utility.yul\":1750:1785   */\n        tag_51:\n            /* \"#utility.yul\":1806:1807   */\n          dup3\n            /* \"#utility.yul\":1803:1804   */\n          dup3\n            /* \"#utility.yul\":1799:1808   */\n          mod\n            /* \"#utility.yul\":1794:1808   */\n          swap1\n          pop\n            /* \"#utility.yul\":1638:1814   */\n          swap3\n          swap2\n          pop\n          pop\n          jump\t// out\n            /* \"#utility.yul\":1820:1989   */\n        tag_25:\n            /* \"#utility.yul\":1904:1915   */\n          0x00\n            /* \"#utility.yul\":1938:1944   */\n          dup3\n            /* \"#utility.yul\":1933:1936   */\n          dup3\n            /* \"#utility.yul\":1926:1945   */\n          mstore\n            /* \"#utility.yul\":1978:1982   */\n          0x20\n            /* \"#utility.yul\":1973:1976   */\n          dup3\n            /* \"#utility.yul\":1969:1983   */\n          add\n            /* \"#utility.yul\":1954:1983   */\n          swap1\n          pop\n            /* \"#utility.yul\":1820:1989   */\n          swap3\n          swap2\n          pop\n          pop\n          jump\t// out\n            /* \"#utility.yul\":1995:2159   */\n        tag_26:\n            /* \"#utility.yul\":2135:2151   */\n          0x5570732120526576657274696e67000000000000000000000000000000000000\n            /* \"#utility.yul\":2131:2132   */\n          0x00\n            /* \"#utility.yul\":2123:2129   */\n          dup3\n            /* \"#utility.yul\":2119:2133   */\n          add\n            /* \"#utility.yul\":2112:2152   */\n          mstore\n            /* \"#utility.yul\":1995:2159   */\n          pop\n          jump\t// out\n            /* \"#utility.yul\":2165:2531   */\n        tag_27:\n            /* \"#utility.yul\":2307:2310   */\n          0x00\n            /* \"#utility.yul\":2328:2395   */\n          tag_56\n            /* \"#utility.yul\":2392:2394   */\n          0x0e\n            /* \"#utility.yul\":2387:2390   */\n          dup4\n            /* \"#utility.yul\":2328:2395   */\n          tag_25\n          jump\t// in\n        tag_56:\n            /* \"#utility.yul\":2321:2395   */\n          swap2\n          pop\n            /* \"#utility.yul\":2404:2497   */\n          tag_57\n            /* \"#utility.yul\":2493:2496   */\n          dup3\n            /* \"#utility.yul\":2404:2497   */\n          tag_26\n          jump\t// in\n        tag_57:\n            /* \"#utility.yul\":2522:2524   */\n          0x20\n            /* \"#utility.yul\":2517:2520   */\n          dup3\n            /* \"#utility.yul\":2513:2525   */\n          add\n            /* \"#utility.yul\":2506:2525   */\n          swap1\n          pop\n            /* \"#utility.yul\":2165:2531   */\n          swap2\n          swap1\n          pop\n          jump\t// out\n            /* \"#utility.yul\":2537:2956   */\n        tag_15:\n            /* \"#utility.yul\":2703:2707   */\n          0x00\n            /* \"#utility.yul\":2741:2743   */\n          0x20\n            /* \"#utility.yul\":2730:2739   */\n          dup3\n            /* \"#utility.yul\":2726:2744   */\n          add\n            /* \"#utility.yul\":2718:2744   */\n          swap1\n          pop\n            /* \"#utility.yul\":2790:2799   */\n          dup2\n            /* \"#utility.yul\":2784:2788   */\n          dup2\n            /* \"#utility.yul\":2780:2800   */\n          sub\n            /* \"#utility.yul\":2776:2777   */\n          0x00\n            /* \"#utility.yul\":2765:2774   */\n          dup4\n            /* \"#utility.yul\":2761:2778   */\n          add\n            /* \"#utility.yul\":2754:2801   */\n          mstore\n            /* \"#utility.yul\":2818:2949   */\n          tag_59\n            /* \"#utility.yul\":2944:2948   */\n          dup2\n            /* \"#utility.yul\":2818:2949   */\n          tag_27\n          jump\t// in\n        tag_59:\n            /* \"#utility.yul\":2810:2949   */\n          swap1\n          pop\n            /* \"#utility.yul\":2537:2956   */\n          swap2\n          swap1\n          pop\n          jump\t// out\n\n        auxdata: 0xa2646970667358221220c76724f6667b333f73590cf05e9a8f6b95a0d637a18174cdb5fe86ec40c3a61e64736f6c634300081a0033\n    }\n}\n",
				"bytecode": {
					"linkReferences": {},
					"object": "608060405234801561000f575f80fd5b50600260405161001e90610085565b61002891906100dd565b604051809103905ff080158015610041573d5f803e3d5ffd5b505f806101000a81548173ffffffffffffffffffffffffffffffffffffffff021916908373ffffffffffffffffffffffffffffffffffffffff1602179055506100f6565b6103f38061059f83390190565b5f819050919050565b5f819050919050565b5f819050919050565b5f6100c76100c26100bd84610092565b6100a4565b61009b565b9050919050565b6100d7816100ad565b82525050565b5f6020820190506100f05f8301846100ce565b92915050565b61049c806101035f395ff3fe608060405234801561000f575f80fd5b5060043610610029575f3560e01c8063fe0d94c11461002d575b5f80fd5b610047600480360381019061004291906101e3565b61005d565b6040516100549190610228565b60405180910390f35b5f805f9054906101000a900473ffffffffffffffffffffffffffffffffffffffff1673ffffffffffffffffffffffffffffffffffffffff1663ce0b4213836040518263ffffffff1660e01b81526004016100b79190610250565b602060405180830381865afa9250505080156100f157506040513d601f19601f820116820180604052508101906100ee9190610293565b60015b610168576100fd6102ca565b806308c379a0036101595750610111610357565b8061011c575061015b565b7fb761112ad379c509744de8d585702b0d2694d4ceaef85ad50d452ff06821a6a68160405161014b9190610446565b60405180910390a150610163565b505b3d5f803e3d5ffd5b61019d565b7ffd76336752e93f2cc77cf13a41be8b6c156731030376354d634d28a9a87b916260405160405180910390a18091505061019e565b5b919050565b5f604051905090565b5f80fd5b5f819050919050565b6101c2816101b0565b81146101cc575f80fd5b50565b5f813590506101dd816101b9565b92915050565b5f602082840312156101f8576101f76101ac565b5b5f610205848285016101cf565b91505092915050565b5f8115159050919050565b6102228161020e565b82525050565b5f60208201905061023b5f830184610219565b92915050565b61024a816101b0565b82525050565b5f6020820190506102635f830184610241565b92915050565b6102728161020e565b811461027c575f80fd5b50565b5f8151905061028d81610269565b92915050565b5f602082840312156102a8576102a76101ac565b5b5f6102b58482850161027f565b91505092915050565b5f8160e01c9050919050565b5f60033d11156102e65760045f803e6102e35f516102be565b90505b90565b5f601f19601f8301169050919050565b7f4e487b71000000000000000000000000000000000000000000000000000000005f52604160045260245ffd5b61032f826102e9565b810181811067ffffffffffffffff8211171561034e5761034d6102f9565b5b80604052505050565b5f60443d106103e3576103686101a3565b60043d036004823e80513d602482011167ffffffffffffffff821117156103905750506103e3565b808201805167ffffffffffffffff8111156103ae57505050506103e3565b80602083010160043d0385018111156103cb5750505050506103e3565b6103da82602001850186610326565b82955050505050505b90565b5f81519050919050565b5f82825260208201905092915050565b8281835e5f83830152505050565b5f610418826103e6565b61042281856103f0565b9350610432818560208601610400565b61043b816102e9565b840191505092915050565b5f6020820190508181035f83015261045e818461040e565b90509291505056fea26469706673582212203191b752269f8dbac6df8b162e6275b9c746a1a40695d3266b63e7b7c0f03d2064736f6c634300081a0033608060405234801561000f575f80fd5b506040516103f33803806103f3833981810160405281019061003191906100c1565b5f8103610073576040517f08c379a000000000000000000000000000000000000000000000000000000000815260040161006a90610146565b60405180910390fd5b6001810361008457610083610164565b5b50610191565b5f80fd5b5f819050919050565b6100a08161008e565b81146100aa575f80fd5b50565b5f815190506100bb81610097565b92915050565b5f602082840312156100d6576100d561008a565b5b5f6100e3848285016100ad565b91505092915050565b5f82825260208201905092915050565b7f696e76616c6964206e756d6265720000000000000000000000000000000000005f82015250565b5f610130600e836100ec565b915061013b826100fc565b602082019050919050565b5f6020820190508181035f83015261015d81610124565b9050919050565b7f4e487b71000000000000000000000000000000000000000000000000000000005f52600160045260245ffd5b6102558061019e5f395ff3fe608060405234801561000f575f80fd5b5060043610610029575f3560e01c8063ce0b42131461002d575b5f80fd5b610047600480360381019061004291906100ec565b61005d565b6040516100549190610131565b60405180910390f35b5f8060028361006c9190610177565b146100ac576040517f08c379a00000000000000000000000000000000000000000000000000000000081526004016100a390610201565b60405180910390fd5b60019050919050565b5f80fd5b5f819050919050565b6100cb816100b9565b81146100d5575f80fd5b50565b5f813590506100e6816100c2565b92915050565b5f60208284031215610101576101006100b5565b5b5f61010e848285016100d8565b91505092915050565b5f8115159050919050565b61012b81610117565b82525050565b5f6020820190506101445f830184610122565b92915050565b7f4e487b71000000000000000000000000000000000000000000000000000000005f52601260045260245ffd5b5f610181826100b9565b915061018c836100b9565b92508261019c5761019b61014a565b5b828206905092915050565b5f82825260208201905092915050565b7f5570732120526576657274696e670000000000000000000000000000000000005f82015250565b5f6101eb600e836101a7565b91506101f6826101b7565b602082019050919050565b5f6020820190508181035f830152610218816101df565b905091905056fea2646970667358221220c76724f6667b333f73590cf05e9a8f6b95a0d637a18174cdb5fe86ec40c3a61e64736f6c634300081a0033",
					"opcodes": "PUSH1 0x80 PUSH1 0x40 MSTORE CALLVALUE DUP1 ISZERO PUSH2 0xF JUMPI PUSH0 DUP1 REVERT JUMPDEST POP PUSH1 0x2 PUSH1 0x40 MLOAD PUSH2 0x1E SWAP1 PUSH2 0x85 JUMP JUMPDEST PUSH2 0x28 SWAP2 SWAP1 PUSH2 0xDD JUMP JUMPDEST PUSH1 0x40 MLOAD DUP1 SWAP2 SUB SWAP1 PUSH0 CREATE DUP1 ISZERO DUP1 ISZERO PUSH2 0x41 JUMPI RETURNDATASIZE PUSH0 DUP1 RETURNDATACOPY RETURNDATASIZE PUSH0 REVERT JUMPDEST POP PUSH0 DUP1 PUSH2 0x100 EXP DUP2 SLOAD DUP2 PUSH20 0xFFFFFFFFFFFFFFFFFFFFFFFFFFFFFFFFFFFFFFFF MUL NOT AND SWAP1 DUP4 PUSH20 0xFFFFFFFFFFFFFFFFFFFFFFFFFFFFFFFFFFFFFFFF AND MUL OR SWAP1 SSTORE POP PUSH2 0xF6 JUMP JUMPDEST PUSH2 0x3F3 DUP1 PUSH2 0x59F DUP4 CODECOPY ADD SWAP1 JUMP JUMPDEST PUSH0 DUP2 SWAP1 POP SWAP2 SWAP1 POP JUMP JUMPDEST PUSH0 DUP2 SWAP1 POP SWAP2 SWAP1 POP JUMP JUMPDEST PUSH0 DUP2 SWAP1 POP SWAP2 SWAP1 POP JUMP JUMPDEST PUSH0 PUSH2 0xC7 PUSH2 0xC2 PUSH2 0xBD DUP5 PUSH2 0x92 JUMP JUMPDEST PUSH2 0xA4 JUMP JUMPDEST PUSH2 0x9B JUMP JUMPDEST SWAP1 POP SWAP2 SWAP1 POP JUMP JUMPDEST PUSH2 0xD7 DUP2 PUSH2 0xAD JUMP JUMPDEST DUP3 MSTORE POP POP JUMP JUMPDEST PUSH0 PUSH1 0x20 DUP3 ADD SWAP1 POP PUSH2 0xF0 PUSH0 DUP4 ADD DUP5 PUSH2 0xCE JUMP JUMPDEST SWAP3 SWAP2 POP POP JUMP JUMPDEST PUSH2 0x49C DUP1 PUSH2 0x103 PUSH0 CODECOPY PUSH0 RETURN INVALID PUSH1 0x80 PUSH1 0x40 MSTORE CALLVALUE DUP1 ISZERO PUSH2 0xF JUMPI PUSH0 DUP1 REVERT JUMPDEST POP PUSH1 0x4 CALLDATASIZE LT PUSH2 0x29 JUMPI PUSH0 CALLDATALOAD PUSH1 0xE0 SHR DUP1 PUSH4 0xFE0D94C1 EQ PUSH2 0x2D JUMPI JUMPDEST PUSH0 DUP1 REVERT JUMPDEST PUSH2 0x47 PUSH1 0x4 DUP1 CALLDATASIZE SUB DUP2 ADD SWAP1 PUSH2 0x42 SWAP2 SWAP1 PUSH2 0x1E3 JUMP JUMPDEST PUSH2 0x5D JUMP JUMPDEST PUSH1 0x40 MLOAD PUSH2 0x54 SWAP2 SWAP1 PUSH2 0x228 JUMP JUMPDEST PUSH1 0x40 MLOAD DUP1 SWAP2 SUB SWAP1 RETURN JUMPDEST PUSH0 DUP1 PUSH0 SWAP1 SLOAD SWAP1 PUSH2 0x100 EXP SWAP1 DIV PUSH20 0xFFFFFFFFFFFFFFFFFFFFFFFFFFFFFFFFFFFFFFFF AND PUSH20 0xFFFFFFFFFFFFFFFFFFFFFFFFFFFFFFFFFFFFFFFF AND PUSH4 0xCE0B4213 DUP4 PUSH1 0x40 MLOAD DUP3 PUSH4 0xFFFFFFFF AND PUSH1 0xE0 SHL DUP2 MSTORE PUSH1 0x4 ADD PUSH2 0xB7 SWAP2 SWAP1 PUSH2 0x250 JUMP JUMPDEST PUSH1 0x20 PUSH1 0x40 MLOAD DUP1 DUP4 SUB DUP2 DUP7 GAS STATICCALL SWAP3 POP POP POP DUP1 ISZERO PUSH2 0xF1 JUMPI POP PUSH1 0x40 MLOAD RETURNDATASIZE PUSH1 0x1F NOT PUSH1 0x1F DUP3 ADD AND DUP3 ADD DUP1 PUSH1 0x40 MSTORE POP DUP2 ADD SWAP1 PUSH2 0xEE SWAP2 SWAP1 PUSH2 0x293 JUMP JUMPDEST PUSH1 0x1 JUMPDEST PUSH2 0x168 JUMPI PUSH2 0xFD PUSH2 0x2CA JUMP JUMPDEST DUP1 PUSH4 0x8C379A0 SUB PUSH2 0x159 JUMPI POP PUSH2 0x111 PUSH2 0x357 JUMP JUMPDEST DUP1 PUSH2 0x11C JUMPI POP PUSH2 0x15B JUMP JUMPDEST PUSH32 0xB761112AD379C509744DE8D585702B0D2694D4CEAEF85AD50D452FF06821A6A6 DUP2 PUSH1 0x40 MLOAD PUSH2 0x14B SWAP2 SWAP1 PUSH2 0x446 JUMP JUMPDEST PUSH1 0x40 MLOAD DUP1 SWAP2 SUB SWAP1 LOG1 POP PUSH2 0x163 JUMP JUMPDEST POP JUMPDEST RETURNDATASIZE PUSH0 DUP1 RETURNDATACOPY RETURNDATASIZE PUSH0 REVERT JUMPDEST PUSH2 0x19D JUMP JUMPDEST PUSH32 0xFD76336752E93F2CC77CF13A41BE8B6C156731030376354D634D28A9A87B9162 PUSH1 0x40 MLOAD PUSH1 0x40 MLOAD DUP1 SWAP2 SUB SWAP1 LOG1 DUP1 SWAP2 POP POP PUSH2 0x19E JUMP JUMPDEST JUMPDEST SWAP2 SWAP1 POP JUMP JUMPDEST PUSH0 PUSH1 0x40 MLOAD SWAP1 POP SWAP1 JUMP JUMPDEST PUSH0 DUP1 REVERT JUMPDEST PUSH0 DUP2 SWAP1 POP SWAP2 SWAP1 POP JUMP JUMPDEST PUSH2 0x1C2 DUP2 PUSH2 0x1B0 JUMP JUMPDEST DUP2 EQ PUSH2 0x1CC JUMPI PUSH0 DUP1 REVERT JUMPDEST POP JUMP JUMPDEST PUSH0 DUP2 CALLDATALOAD SWAP1 POP PUSH2 0x1DD DUP2 PUSH2 0x1B9 JUMP JUMPDEST SWAP3 SWAP2 POP POP JUMP JUMPDEST PUSH0 PUSH1 0x20 DUP3 DUP5 SUB SLT ISZERO PUSH2 0x1F8 JUMPI PUSH2 0x1F7 PUSH2 0x1AC JUMP JUMPDEST JUMPDEST PUSH0 PUSH2 0x205 DUP5 DUP3 DUP6 ADD PUSH2 0x1CF JUMP JUMPDEST SWAP2 POP POP SWAP3 SWAP2 POP POP JUMP JUMPDEST PUSH0 DUP2 ISZERO ISZERO SWAP1 POP SWAP2 SWAP1 POP JUMP JUMPDEST PUSH2 0x222 DUP2 PUSH2 0x20E JUMP JUMPDEST DUP3 MSTORE POP POP JUMP JUMPDEST PUSH0 PUSH1 0x20 DUP3 ADD SWAP1 POP PUSH2 0x23B PUSH0 DUP4 ADD DUP5 PUSH2 0x219 JUMP JUMPDEST SWAP3 SWAP2 POP POP JUMP JUMPDEST PUSH2 0x24A DUP2 PUSH2 0x1B0 JUMP JUMPDEST DUP3 MSTORE POP POP JUMP JUMPDEST PUSH0 PUSH1 0x20 DUP3 ADD SWAP1 POP PUSH2 0x263 PUSH0 DUP4 ADD DUP5 PUSH2 0x241 JUMP JUMPDEST SWAP3 SWAP2 POP POP JUMP JUMPDEST PUSH2 0x272 DUP2 PUSH2 0x20E JUMP JUMPDEST DUP2 EQ PUSH2 0x27C JUMPI PUSH0 DUP1 REVERT JUMPDEST POP JUMP JUMPDEST PUSH0 DUP2 MLOAD SWAP1 POP PUSH2 0x28D DUP2 PUSH2 0x269 JUMP JUMPDEST SWAP3 SWAP2 POP POP JUMP JUMPDEST PUSH0 PUSH1 0x20 DUP3 DUP5 SUB SLT ISZERO PUSH2 0x2A8 JUMPI PUSH2 0x2A7 PUSH2 0x1AC JUMP JUMPDEST JUMPDEST PUSH0 PUSH2 0x2B5 DUP5 DUP3 DUP6 ADD PUSH2 0x27F JUMP JUMPDEST SWAP2 POP POP SWAP3 SWAP2 POP POP JUMP JUMPDEST PUSH0 DUP2 PUSH1 0xE0 SHR SWAP1 POP SWAP2 SWAP1 POP JUMP JUMPDEST PUSH0 PUSH1 0x3 RETURNDATASIZE GT ISZERO PUSH2 0x2E6 JUMPI PUSH1 0x4 PUSH0 DUP1 RETURNDATACOPY PUSH2 0x2E3 PUSH0 MLOAD PUSH2 0x2BE JUMP JUMPDEST SWAP1 POP JUMPDEST SWAP1 JUMP JUMPDEST PUSH0 PUSH1 0x1F NOT PUSH1 0x1F DUP4 ADD AND SWAP1 POP SWAP2 SWAP1 POP JUMP JUMPDEST PUSH32 0x4E487B7100000000000000000000000000000000000000000000000000000000 PUSH0 MSTORE PUSH1 0x41 PUSH1 0x4 MSTORE PUSH1 0x24 PUSH0 REVERT JUMPDEST PUSH2 0x32F DUP3 PUSH2 0x2E9 JUMP JUMPDEST DUP2 ADD DUP2 DUP2 LT PUSH8 0xFFFFFFFFFFFFFFFF DUP3 GT OR ISZERO PUSH2 0x34E JUMPI PUSH2 0x34D PUSH2 0x2F9 JUMP JUMPDEST JUMPDEST DUP1 PUSH1 0x40 MSTORE POP POP POP JUMP JUMPDEST PUSH0 PUSH1 0x44 RETURNDATASIZE LT PUSH2 0x3E3 JUMPI PUSH2 0x368 PUSH2 0x1A3 JUMP JUMPDEST PUSH1 0x4 RETURNDATASIZE SUB PUSH1 0x4 DUP3 RETURNDATACOPY DUP1 MLOAD RETURNDATASIZE PUSH1 0x24 DUP3 ADD GT PUSH8 0xFFFFFFFFFFFFFFFF DUP3 GT OR ISZERO PUSH2 0x390 JUMPI POP POP PUSH2 0x3E3 JUMP JUMPDEST DUP1 DUP3 ADD DUP1 MLOAD PUSH8 0xFFFFFFFFFFFFFFFF DUP2 GT ISZERO PUSH2 0x3AE JUMPI POP POP POP POP PUSH2 0x3E3 JUMP JUMPDEST DUP1 PUSH1 0x20 DUP4 ADD ADD PUSH1 0x4 RETURNDATASIZE SUB DUP6 ADD DUP2 GT ISZERO PUSH2 0x3CB JUMPI POP POP POP POP POP PUSH2 0x3E3 JUMP JUMPDEST PUSH2 0x3DA DUP3 PUSH1 0x20 ADD DUP6 ADD DUP7 PUSH2 0x326 JUMP JUMPDEST DUP3 SWAP6 POP POP POP POP POP POP JUMPDEST SWAP1 JUMP JUMPDEST PUSH0 DUP2 MLOAD SWAP1 POP SWAP2 SWAP1 POP JUMP JUMPDEST PUSH0 DUP3 DUP3 MSTORE PUSH1 0x20 DUP3 ADD SWAP1 POP SWAP3 SWAP2 POP POP JUMP JUMPDEST DUP3 DUP2 DUP4 MCOPY PUSH0 DUP4 DUP4 ADD MSTORE POP POP POP JUMP JUMPDEST PUSH0 PUSH2 0x418 DUP3 PUSH2 0x3E6 JUMP JUMPDEST PUSH2 0x422 DUP2 DUP6 PUSH2 0x3F0 JUMP JUMPDEST SWAP4 POP PUSH2 0x432 DUP2 DUP6 PUSH1 0x20 DUP7 ADD PUSH2 0x400 JUMP JUMPDEST PUSH2 0x43B DUP2 PUSH2 0x2E9 JUMP JUMPDEST DUP5 ADD SWAP2 POP POP SWAP3 SWAP2 POP POP JUMP JUMPDEST PUSH0 PUSH1 0x20 DUP3 ADD SWAP1 POP DUP2 DUP2 SUB PUSH0 DUP4 ADD MSTORE PUSH2 0x45E DUP2 DUP5 PUSH2 0x40E JUMP JUMPDEST SWAP1 POP SWAP3 SWAP2 POP POP JUMP INVALID LOG2 PUSH5 0x6970667358 0x22 SLT KECCAK256 BALANCE SWAP2 0xB7 MSTORE 0x26 SWAP16 DUP14 0xBA 0xC6 0xDF DUP12 AND 0x2E PUSH3 0x75B9C7 CHAINID LOG1 LOG4 MOD SWAP6 0xD3 0x26 PUSH12 0x63E7B7C0F03D2064736F6C63 NUMBER STOP ADDMOD BYTE STOP CALLER PUSH1 0x80 PUSH1 0x40 MSTORE CALLVALUE DUP1 ISZERO PUSH2 0xF JUMPI PUSH0 DUP1 REVERT JUMPDEST POP PUSH1 0x40 MLOAD PUSH2 0x3F3 CODESIZE SUB DUP1 PUSH2 0x3F3 DUP4 CODECOPY DUP2 DUP2 ADD PUSH1 0x40 MSTORE DUP2 ADD SWAP1 PUSH2 0x31 SWAP2 SWAP1 PUSH2 0xC1 JUMP JUMPDEST PUSH0 DUP2 SUB PUSH2 0x73 JUMPI PUSH1 0x40 MLOAD PUSH32 0x8C379A000000000000000000000000000000000000000000000000000000000 DUP2 MSTORE PUSH1 0x4 ADD PUSH2 0x6A SWAP1 PUSH2 0x146 JUMP JUMPDEST PUSH1 0x40 MLOAD DUP1 SWAP2 SUB SWAP1 REVERT JUMPDEST PUSH1 0x1 DUP2 SUB PUSH2 0x84 JUMPI PUSH2 0x83 PUSH2 0x164 JUMP JUMPDEST JUMPDEST POP PUSH2 0x191 JUMP JUMPDEST PUSH0 DUP1 REVERT JUMPDEST PUSH0 DUP2 SWAP1 POP SWAP2 SWAP1 POP JUMP JUMPDEST PUSH2 0xA0 DUP2 PUSH2 0x8E JUMP JUMPDEST DUP2 EQ PUSH2 0xAA JUMPI PUSH0 DUP1 REVERT JUMPDEST POP JUMP JUMPDEST PUSH0 DUP2 MLOAD SWAP1 POP PUSH2 0xBB DUP2 PUSH2 0x97 JUMP JUMPDEST SWAP3 SWAP2 POP POP JUMP JUMPDEST PUSH0 PUSH1 0x20 DUP3 DUP5 SUB SLT ISZERO PUSH2 0xD6 JUMPI PUSH2 0xD5 PUSH2 0x8A JUMP JUMPDEST JUMPDEST PUSH0 PUSH2 0xE3 DUP5 DUP3 DUP6 ADD PUSH2 0xAD JUMP JUMPDEST SWAP2 POP POP SWAP3 SWAP2 POP POP JUMP JUMPDEST PUSH0 DUP3 DUP3 MSTORE PUSH1 0x20 DUP3 ADD SWAP1 POP SWAP3 SWAP2 POP POP JUMP JUMPDEST PUSH32 0x696E76616C6964206E756D626572000000000000000000000000000000000000 PUSH0 DUP3 ADD MSTORE POP JUMP JUMPDEST PUSH0 PUSH2 0x130 PUSH1 0xE DUP4 PUSH2 0xEC JUMP JUMPDEST SWAP2 POP PUSH2 0x13B DUP3 PUSH2 0xFC JUMP JUMPDEST PUSH1 0x20 DUP3 ADD SWAP1 POP SWAP2 SWAP1 POP JUMP JUMPDEST PUSH0 PUSH1 0x20 DUP3 ADD SWAP1 POP DUP2 DUP2 SUB PUSH0 DUP4 ADD MSTORE PUSH2 0x15D DUP2 PUSH2 0x124 JUMP JUMPDEST SWAP1 POP SWAP2 SWAP1 POP JUMP JUMPDEST PUSH32 0x4E487B7100000000000000000000000000000000000000000000000000000000 PUSH0 MSTORE PUSH1 0x1 PUSH1 0x4 MSTORE PUSH1 0x24 PUSH0 REVERT JUMPDEST PUSH2 0x255 DUP1 PUSH2 0x19E PUSH0 CODECOPY PUSH0 RETURN INVALID PUSH1 0x80 PUSH1 0x40 MSTORE CALLVALUE DUP1 ISZERO PUSH2 0xF JUMPI PUSH0 DUP1 REVERT JUMPDEST POP PUSH1 0x4 CALLDATASIZE LT PUSH2 0x29 JUMPI PUSH0 CALLDATALOAD PUSH1 0xE0 SHR DUP1 PUSH4 0xCE0B4213 EQ PUSH2 0x2D JUMPI JUMPDEST PUSH0 DUP1 REVERT JUMPDEST PUSH2 0x47 PUSH1 0x4 DUP1 CALLDATASIZE SUB DUP2 ADD SWAP1 PUSH2 0x42 SWAP2 SWAP1 PUSH2 0xEC JUMP JUMPDEST PUSH2 0x5D JUMP JUMPDEST PUSH1 0x40 MLOAD PUSH2 0x54 SWAP2 SWAP1 PUSH2 0x131 JUMP JUMPDEST PUSH1 0x40 MLOAD DUP1 SWAP2 SUB SWAP1 RETURN JUMPDEST PUSH0 DUP1 PUSH1 0x2 DUP4 PUSH2 0x6C SWAP2 SWAP1 PUSH2 0x177 JUMP JUMPDEST EQ PUSH2 0xAC JUMPI PUSH1 0x40 MLOAD PUSH32 0x8C379A000000000000000000000000000000000000000000000000000000000 DUP2 MSTORE PUSH1 0x4 ADD PUSH2 0xA3 SWAP1 PUSH2 0x201 JUMP JUMPDEST PUSH1 0x40 MLOAD DUP1 SWAP2 SUB SWAP1 REVERT JUMPDEST PUSH1 0x1 SWAP1 POP SWAP2 SWAP1 POP JUMP JUMPDEST PUSH0 DUP1 REVERT JUMPDEST PUSH0 DUP2 SWAP1 POP SWAP2 SWAP1 POP JUMP JUMPDEST PUSH2 0xCB DUP2 PUSH2 0xB9 JUMP JUMPDEST DUP2 EQ PUSH2 0xD5 JUMPI PUSH0 DUP1 REVERT JUMPDEST POP JUMP JUMPDEST PUSH0 DUP2 CALLDATALOAD SWAP1 POP PUSH2 0xE6 DUP2 PUSH2 0xC2 JUMP JUMPDEST SWAP3 SWAP2 POP POP JUMP JUMPDEST PUSH0 PUSH1 0x20 DUP3 DUP5 SUB SLT ISZERO PUSH2 0x101 JUMPI PUSH2 0x100 PUSH2 0xB5 JUMP JUMPDEST JUMPDEST PUSH0 PUSH2 0x10E DUP5 DUP3 DUP6 ADD PUSH2 0xD8 JUMP JUMPDEST SWAP2 POP POP SWAP3 SWAP2 POP POP JUMP JUMPDEST PUSH0 DUP2 ISZERO ISZERO SWAP1 POP SWAP2 SWAP1 POP JUMP JUMPDEST PUSH2 0x12B DUP2 PUSH2 0x117 JUMP JUMPDEST DUP3 MSTORE POP POP JUMP JUMPDEST PUSH0 PUSH1 0x20 DUP3 ADD SWAP1 POP PUSH2 0x144 PUSH0 DUP4 ADD DUP5 PUSH2 0x122 JUMP JUMPDEST SWAP3 SWAP2 POP POP JUMP JUMPDEST PUSH32 0x4E487B7100000000000000000000000000000000000000000000000000000000 PUSH0 MSTORE PUSH1 0x12 PUSH1 0x4 MSTORE PUSH1 0x24 PUSH0 REVERT JUMPDEST PUSH0 PUSH2 0x181 DUP3 PUSH2 0xB9 JUMP JUMPDEST SWAP2 POP PUSH2 0x18C DUP4 PUSH2 0xB9 JUMP JUMPDEST SWAP3 POP DUP3 PUSH2 0x19C JUMPI PUSH2 0x19B PUSH2 0x14A JUMP JUMPDEST JUMPDEST DUP3 DUP3 MOD SWAP1 POP SWAP3 SWAP2 POP POP JUMP JUMPDEST PUSH0 DUP3 DUP3 MSTORE PUSH1 0x20 DUP3 ADD SWAP1 POP SWAP3 SWAP2 POP POP JUMP JUMPDEST PUSH32 0x5570732120526576657274696E67000000000000000000000000000000000000 PUSH0 DUP3 ADD MSTORE POP JUMP JUMPDEST PUSH0 PUSH2 0x1EB PUSH1 0xE DUP4 PUSH2 0x1A7 JUMP JUMPDEST SWAP2 POP PUSH2 0x1F6 DUP3 PUSH2 0x1B7 JUMP JUMPDEST PUSH1 0x20 DUP3 ADD SWAP1 POP SWAP2 SWAP1 POP JUMP JUMPDEST PUSH0 PUSH1 0x20 DUP3 ADD SWAP1 POP DUP2 DUP2 SUB PUSH0 DUP4 ADD MSTORE PUSH2 0x218 DUP2 PUSH2 0x1DF JUMP JUMPDEST SWAP1 POP SWAP2 SWAP1 POP JUMP INVALID LOG2 PUSH5 0x6970667358 0x22 SLT KECCAK256 0xC7 PUSH8 0x24F6667B333F7359 0xC CREATE MCOPY SWAP11 DUP16 PUSH12 0x95A0D637A18174CDB5FE86EC BLOCKHASH 0xC3 0xA6 0x1E PUSH5 0x736F6C6343 STOP ADDMOD BYTE STOP CALLER "
				},
				"gasEstimates": {
					"creation": {
						"codeDepositCost": "236000",
						"executionCost": "infinite",
						"totalCost": "infinite"
					},
					"external": {
						"execute(uint256)": "infinite"
					}
				},
				"methodIdentifiers": {
					"execute(uint256)": "fe0d94c1"
				}
			},
			"storageLayout": {
				"storage": [
					{
						"astId": 14,
						"contract": "contracts/study2/TryCatchTest.sol:TryCatchTest",
						"label": "even",
						"offset": 0,
						"slot": "0",
						"type": "t_contract(OnlyEven)100"
					}
				],
				"types": {
					"t_contract(OnlyEven)100": {
						"encoding": "inplace",
						"label": "contract OnlyEven",
						"numberOfBytes": "20"
					}
				}
			},
			"userdoc": {
				"kind": "user",
				"methods": {},
				"version": 1
			}
		}
	}
}