{
	"contracts/ERC721/ERC721.sol": {
		"ERC721": {
			"abi": [
				{
					"inputs": [
						{
							"internalType": "string",
							"name": "name_",
							"type": "string"
						},
						{
							"internalType": "string",
							"name": "symbol_",
							"type": "string"
						}
					],
					"stateMutability": "nonpayable",
					"type": "constructor"
				},
				{
					"inputs": [
						{
							"internalType": "address",
							"name": "receiver",
							"type": "address"
						}
					],
					"name": "ERC721InvalidReceiver",
					"type": "error"
				},
				{
					"anonymous": false,
					"inputs": [
						{
							"indexed": true,
							"internalType": "address",
							"name": "owner",
							"type": "address"
						},
						{
							"indexed": true,
							"internalType": "address",
							"name": "approved",
							"type": "address"
						},
						{
							"indexed": true,
							"internalType": "uint256",
							"name": "tokenId",
							"type": "uint256"
						}
					],
					"name": "Approval",
					"type": "event"
				},
				{
					"anonymous": false,
					"inputs": [
						{
							"indexed": true,
							"internalType": "address",
							"name": "owner",
							"type": "address"
						},
						{
							"indexed": true,
							"internalType": "address",
							"name": "operator",
							"type": "address"
						},
						{
							"indexed": false,
							"internalType": "bool",
							"name": "approved",
							"type": "bool"
						}
					],
					"name": "ApprovalForAll",
					"type": "event"
				},
				{
					"anonymous": false,
					"inputs": [
						{
							"indexed": true,
							"internalType": "address",
							"name": "from",
							"type": "address"
						},
						{
							"indexed": true,
							"internalType": "address",
							"name": "to",
							"type": "address"
						},
						{
							"indexed": true,
							"internalType": "uint256",
							"name": "tokenId",
							"type": "uint256"
						}
					],
					"name": "Transfer",
					"type": "event"
				},
				{
					"inputs": [
						{
							"internalType": "address",
							"name": "to",
							"type": "address"
						},
						{
							"internalType": "uint256",
							"name": "tokenId",
							"type": "uint256"
						}
					],
					"name": "approve",
					"outputs": [],
					"stateMutability": "nonpayable",
					"type": "function"
				},
				{
					"inputs": [
						{
							"internalType": "address",
							"name": "owner",
							"type": "address"
						}
					],
					"name": "balanceOf",
					"outputs": [
						{
							"internalType": "uint256",
							"name": "",
							"type": "uint256"
						}
					],
					"stateMutability": "view",
					"type": "function"
				},
				{
					"inputs": [
						{
							"internalType": "uint256",
							"name": "tokenId",
							"type": "uint256"
						}
					],
					"name": "getApproved",
					"outputs": [
						{
							"internalType": "address",
							"name": "",
							"type": "address"
						}
					],
					"stateMutability": "view",
					"type": "function"
				},
				{
					"inputs": [],
					"name": "getInterfaceId",
					"outputs": [
						{
							"internalType": "bytes4",
							"name": "",
							"type": "bytes4"
						}
					],
					"stateMutability": "view",
					"type": "function"
				},
				{
					"inputs": [
						{
							"internalType": "address",
							"name": "owner",
							"type": "address"
						},
						{
							"internalType": "address",
							"name": "operator",
							"type": "address"
						}
					],
					"name": "isApprovedForAll",
					"outputs": [
						{
							"internalType": "bool",
							"name": "",
							"type": "bool"
						}
					],
					"stateMutability": "view",
					"type": "function"
				},
				{
					"inputs": [],
					"name": "name",
					"outputs": [
						{
							"internalType": "string",
							"name": "",
							"type": "string"
						}
					],
					"stateMutability": "view",
					"type": "function"
				},
				{
					"inputs": [
						{
							"internalType": "uint256",
							"name": "tokenId",
							"type": "uint256"
						}
					],
					"name": "ownerOf",
					"outputs": [
						{
							"internalType": "address",
							"name": "owner",
							"type": "address"
						}
					],
					"stateMutability": "view",
					"type": "function"
				},
				{
					"inputs": [
						{
							"internalType": "address",
							"name": "from",
							"type": "address"
						},
						{
							"internalType": "address",
							"name": "to",
							"type": "address"
						},
						{
							"internalType": "uint256",
							"name": "tokenId",
							"type": "uint256"
						}
					],
					"name": "safeTransferFrom",
					"outputs": [],
					"stateMutability": "nonpayable",
					"type": "function"
				},
				{
					"inputs": [
						{
							"internalType": "address",
							"name": "from",
							"type": "address"
						},
						{
							"internalType": "address",
							"name": "to",
							"type": "address"
						},
						{
							"internalType": "uint256",
							"name": "tokenId",
							"type": "uint256"
						},
						{
							"internalType": "bytes",
							"name": "_data",
							"type": "bytes"
						}
					],
					"name": "safeTransferFrom",
					"outputs": [],
					"stateMutability": "nonpayable",
					"type": "function"
				},
				{
					"inputs": [
						{
							"internalType": "address",
							"name": "operator",
							"type": "address"
						},
						{
							"internalType": "bool",
							"name": "approved",
							"type": "bool"
						}
					],
					"name": "setApprovalForAll",
					"outputs": [],
					"stateMutability": "nonpayable",
					"type": "function"
				},
				{
					"inputs": [
						{
							"internalType": "bytes4",
							"name": "interfaceId",
							"type": "bytes4"
						}
					],
					"name": "supportsInterface",
					"outputs": [
						{
							"internalType": "bool",
							"name": "",
							"type": "bool"
						}
					],
					"stateMutability": "pure",
					"type": "function"
				},
				{
					"inputs": [],
					"name": "symbol",
					"outputs": [
						{
							"internalType": "string",
							"name": "",
							"type": "string"
						}
					],
					"stateMutability": "view",
					"type": "function"
				},
				{
					"inputs": [
						{
							"internalType": "uint256",
							"name": "tokenId",
							"type": "uint256"
						}
					],
					"name": "tokenURI",
					"outputs": [
						{
							"internalType": "string",
							"name": "",
							"type": "string"
						}
					],
					"stateMutability": "view",
					"type": "function"
				},
				{
					"inputs": [
						{
							"internalType": "address",
							"name": "from",
							"type": "address"
						},
						{
							"internalType": "address",
							"name": "to",
							"type": "address"
						},
						{
							"internalType": "uint256",
							"name": "tokenId",
							"type": "uint256"
						}
					],
					"name": "transferFrom",
					"outputs": [],
					"stateMutability": "nonpayable",
					"type": "function"
				}
			],
			"devdoc": {
				"kind": "dev",
				"methods": {
					"supportsInterface(bytes4)": {
						"details": "如果合约实现了查询的`interfaceId`，则返回true 规则详见：https://eips.ethereum.org/EIPS/eip-165#how-interfaces-are-identified[EIP section]"
					}
				},
				"version": 1
			},
			"evm": {
				"assembly": "    /* \"contracts/ERC721/ERC721.sol\":205:9961  contract ERC721 is IERC721, IERC721Metadata {... */\n  mstore(0x40, 0x80)\n    /* \"contracts/ERC721/ERC721.sol\":1015:1126  constructor(string memory name_, string memory symbol_) {... */\n  callvalue\n  dup1\n  iszero\n  tag_1\n  jumpi\n  revert(0x00, 0x00)\ntag_1:\n  pop\n  mload(0x40)\n  sub(codesize, bytecodeSize)\n  dup1\n  bytecodeSize\n  dup4\n  codecopy\n  dup2\n  dup2\n  add\n  0x40\n  mstore\n  dup2\n  add\n  swap1\n  tag_2\n  swap2\n  swap1\n  tag_3\n  jump\t// in\ntag_2:\n    /* \"contracts/ERC721/ERC721.sol\":1088:1093  name_ */\n  dup2\n    /* \"contracts/ERC721/ERC721.sol\":1081:1085  name */\n  0x00\n    /* \"contracts/ERC721/ERC721.sol\":1081:1093  name = name_ */\n  swap1\n  dup2\n  tag_6\n  swap2\n  swap1\n  tag_7\n  jump\t// in\ntag_6:\n  pop\n    /* \"contracts/ERC721/ERC721.sol\":1112:1119  symbol_ */\n  dup1\n    /* \"contracts/ERC721/ERC721.sol\":1103:1109  symbol */\n  0x01\n    /* \"contracts/ERC721/ERC721.sol\":1103:1119  symbol = symbol_ */\n  swap1\n  dup2\n  tag_8\n  swap2\n  swap1\n  tag_7\n  jump\t// in\ntag_8:\n  pop\n    /* \"contracts/ERC721/ERC721.sol\":1015:1126  constructor(string memory name_, string memory symbol_) {... */\n  pop\n  pop\n    /* \"contracts/ERC721/ERC721.sol\":205:9961  contract ERC721 is IERC721, IERC721Metadata {... */\n  jump(tag_9)\n    /* \"#utility.yul\":7:82   */\ntag_10:\n    /* \"#utility.yul\":40:46   */\n  0x00\n    /* \"#utility.yul\":73:75   */\n  0x40\n    /* \"#utility.yul\":67:76   */\n  mload\n    /* \"#utility.yul\":57:76   */\n  swap1\n  pop\n    /* \"#utility.yul\":7:82   */\n  swap1\n  jump\t// out\n    /* \"#utility.yul\":88:205   */\ntag_11:\n    /* \"#utility.yul\":197:198   */\n  0x00\n    /* \"#utility.yul\":194:195   */\n  0x00\n    /* \"#utility.yul\":187:199   */\n  revert\n    /* \"#utility.yul\":211:328   */\ntag_12:\n    /* \"#utility.yul\":320:321   */\n  0x00\n    /* \"#utility.yul\":317:318   */\n  0x00\n    /* \"#utility.yul\":310:322   */\n  revert\n    /* \"#utility.yul\":334:451   */\ntag_13:\n    /* \"#utility.yul\":443:444   */\n  0x00\n    /* \"#utility.yul\":440:441   */\n  0x00\n    /* \"#utility.yul\":433:445   */\n  revert\n    /* \"#utility.yul\":457:574   */\ntag_14:\n    /* \"#utility.yul\":566:567   */\n  0x00\n    /* \"#utility.yul\":563:564   */\n  0x00\n    /* \"#utility.yul\":556:568   */\n  revert\n    /* \"#utility.yul\":580:682   */\ntag_15:\n    /* \"#utility.yul\":621:627   */\n  0x00\n    /* \"#utility.yul\":672:674   */\n  0x1f\n    /* \"#utility.yul\":668:675   */\n  not\n    /* \"#utility.yul\":663:665   */\n  0x1f\n    /* \"#utility.yul\":656:661   */\n  dup4\n    /* \"#utility.yul\":652:666   */\n  add\n    /* \"#utility.yul\":648:676   */\n  and\n    /* \"#utility.yul\":638:676   */\n  swap1\n  pop\n    /* \"#utility.yul\":580:682   */\n  swap2\n  swap1\n  pop\n  jump\t// out\n    /* \"#utility.yul\":688:868   */\ntag_16:\n    /* \"#utility.yul\":736:813   */\n  0x4e487b7100000000000000000000000000000000000000000000000000000000\n    /* \"#utility.yul\":733:734   */\n  0x00\n    /* \"#utility.yul\":726:814   */\n  mstore\n    /* \"#utility.yul\":833:837   */\n  0x41\n    /* \"#utility.yul\":830:831   */\n  0x04\n    /* \"#utility.yul\":823:838   */\n  mstore\n    /* \"#utility.yul\":857:861   */\n  0x24\n    /* \"#utility.yul\":854:855   */\n  0x00\n    /* \"#utility.yul\":847:862   */\n  revert\n    /* \"#utility.yul\":874:1155   */\ntag_17:\n    /* \"#utility.yul\":957:984   */\n  tag_51\n    /* \"#utility.yul\":979:983   */\n  dup3\n    /* \"#utility.yul\":957:984   */\n  tag_15\n  jump\t// in\ntag_51:\n    /* \"#utility.yul\":949:955   */\n  dup2\n    /* \"#utility.yul\":945:985   */\n  add\n    /* \"#utility.yul\":1087:1093   */\n  dup2\n    /* \"#utility.yul\":1075:1085   */\n  dup2\n    /* \"#utility.yul\":1072:1094   */\n  lt\n    /* \"#utility.yul\":1051:1069   */\n  0xffffffffffffffff\n    /* \"#utility.yul\":1039:1049   */\n  dup3\n    /* \"#utility.yul\":1036:1070   */\n  gt\n    /* \"#utility.yul\":1033:1095   */\n  or\n    /* \"#utility.yul\":1030:1118   */\n  iszero\n  tag_52\n  jumpi\n    /* \"#utility.yul\":1098:1116   */\n  tag_53\n  tag_16\n  jump\t// in\ntag_53:\n    /* \"#utility.yul\":1030:1118   */\ntag_52:\n    /* \"#utility.yul\":1138:1148   */\n  dup1\n    /* \"#utility.yul\":1134:1136   */\n  0x40\n    /* \"#utility.yul\":1127:1149   */\n  mstore\n    /* \"#utility.yul\":917:1155   */\n  pop\n    /* \"#utility.yul\":874:1155   */\n  pop\n  pop\n  jump\t// out\n    /* \"#utility.yul\":1161:1290   */\ntag_18:\n    /* \"#utility.yul\":1195:1201   */\n  0x00\n    /* \"#utility.yul\":1222:1242   */\n  tag_55\n  tag_10\n  jump\t// in\ntag_55:\n    /* \"#utility.yul\":1212:1242   */\n  swap1\n  pop\n    /* \"#utility.yul\":1251:1284   */\n  tag_56\n    /* \"#utility.yul\":1279:1283   */\n  dup3\n    /* \"#utility.yul\":1271:1277   */\n  dup3\n    /* \"#utility.yul\":1251:1284   */\n  tag_17\n  jump\t// in\ntag_56:\n    /* \"#utility.yul\":1161:1290   */\n  swap2\n  swap1\n  pop\n  jump\t// out\n    /* \"#utility.yul\":1296:1604   */\ntag_19:\n    /* \"#utility.yul\":1358:1362   */\n  0x00\n    /* \"#utility.yul\":1448:1466   */\n  0xffffffffffffffff\n    /* \"#utility.yul\":1440:1446   */\n  dup3\n    /* \"#utility.yul\":1437:1467   */\n  gt\n    /* \"#utility.yul\":1434:1490   */\n  iszero\n  tag_58\n  jumpi\n    /* \"#utility.yul\":1470:1488   */\n  tag_59\n  tag_16\n  jump\t// in\ntag_59:\n    /* \"#utility.yul\":1434:1490   */\ntag_58:\n    /* \"#utility.yul\":1508:1537   */\n  tag_60\n    /* \"#utility.yul\":1530:1536   */\n  dup3\n    /* \"#utility.yul\":1508:1537   */\n  tag_15\n  jump\t// in\ntag_60:\n    /* \"#utility.yul\":1500:1537   */\n  swap1\n  pop\n    /* \"#utility.yul\":1592:1596   */\n  0x20\n    /* \"#utility.yul\":1586:1590   */\n  dup2\n    /* \"#utility.yul\":1582:1597   */\n  add\n    /* \"#utility.yul\":1574:1597   */\n  swap1\n  pop\n    /* \"#utility.yul\":1296:1604   */\n  swap2\n  swap1\n  pop\n  jump\t// out\n    /* \"#utility.yul\":1610:1749   */\ntag_20:\n    /* \"#utility.yul\":1699:1705   */\n  dup3\n    /* \"#utility.yul\":1694:1697   */\n  dup2\n    /* \"#utility.yul\":1689:1692   */\n  dup4\n    /* \"#utility.yul\":1683:1706   */\n  mcopy\n    /* \"#utility.yul\":1740:1741   */\n  0x00\n    /* \"#utility.yul\":1731:1737   */\n  dup4\n    /* \"#utility.yul\":1726:1729   */\n  dup4\n    /* \"#utility.yul\":1722:1738   */\n  add\n    /* \"#utility.yul\":1715:1742   */\n  mstore\n    /* \"#utility.yul\":1610:1749   */\n  pop\n  pop\n  pop\n  jump\t// out\n    /* \"#utility.yul\":1755:2189   */\ntag_21:\n    /* \"#utility.yul\":1844:1849   */\n  0x00\n    /* \"#utility.yul\":1869:1935   */\n  tag_63\n    /* \"#utility.yul\":1885:1934   */\n  tag_64\n    /* \"#utility.yul\":1927:1933   */\n  dup5\n    /* \"#utility.yul\":1885:1934   */\n  tag_19\n  jump\t// in\ntag_64:\n    /* \"#utility.yul\":1869:1935   */\n  tag_18\n  jump\t// in\ntag_63:\n    /* \"#utility.yul\":1860:1935   */\n  swap1\n  pop\n    /* \"#utility.yul\":1958:1964   */\n  dup3\n    /* \"#utility.yul\":1951:1956   */\n  dup2\n    /* \"#utility.yul\":1944:1965   */\n  mstore\n    /* \"#utility.yul\":1996:2000   */\n  0x20\n    /* \"#utility.yul\":1989:1994   */\n  dup2\n    /* \"#utility.yul\":1985:2001   */\n  add\n    /* \"#utility.yul\":2034:2037   */\n  dup5\n    /* \"#utility.yul\":2025:2031   */\n  dup5\n    /* \"#utility.yul\":2020:2023   */\n  dup5\n    /* \"#utility.yul\":2016:2032   */\n  add\n    /* \"#utility.yul\":2013:2038   */\n  gt\n    /* \"#utility.yul\":2010:2122   */\n  iszero\n  tag_65\n  jumpi\n    /* \"#utility.yul\":2041:2120   */\n  tag_66\n  tag_14\n  jump\t// in\ntag_66:\n    /* \"#utility.yul\":2010:2122   */\ntag_65:\n    /* \"#utility.yul\":2131:2183   */\n  tag_67\n    /* \"#utility.yul\":2176:2182   */\n  dup5\n    /* \"#utility.yul\":2171:2174   */\n  dup3\n    /* \"#utility.yul\":2166:2169   */\n  dup6\n    /* \"#utility.yul\":2131:2183   */\n  tag_20\n  jump\t// in\ntag_67:\n    /* \"#utility.yul\":1850:2189   */\n  pop\n    /* \"#utility.yul\":1755:2189   */\n  swap4\n  swap3\n  pop\n  pop\n  pop\n  jump\t// out\n    /* \"#utility.yul\":2209:2564   */\ntag_22:\n    /* \"#utility.yul\":2276:2281   */\n  0x00\n    /* \"#utility.yul\":2325:2328   */\n  dup3\n    /* \"#utility.yul\":2318:2322   */\n  0x1f\n    /* \"#utility.yul\":2310:2316   */\n  dup4\n    /* \"#utility.yul\":2306:2323   */\n  add\n    /* \"#utility.yul\":2302:2329   */\n  slt\n    /* \"#utility.yul\":2292:2414   */\n  tag_69\n  jumpi\n    /* \"#utility.yul\":2333:2412   */\n  tag_70\n  tag_13\n  jump\t// in\ntag_70:\n    /* \"#utility.yul\":2292:2414   */\ntag_69:\n    /* \"#utility.yul\":2443:2449   */\n  dup2\n    /* \"#utility.yul\":2437:2450   */\n  mload\n    /* \"#utility.yul\":2468:2558   */\n  tag_71\n    /* \"#utility.yul\":2554:2557   */\n  dup5\n    /* \"#utility.yul\":2546:2552   */\n  dup3\n    /* \"#utility.yul\":2539:2543   */\n  0x20\n    /* \"#utility.yul\":2531:2537   */\n  dup7\n    /* \"#utility.yul\":2527:2544   */\n  add\n    /* \"#utility.yul\":2468:2558   */\n  tag_21\n  jump\t// in\ntag_71:\n    /* \"#utility.yul\":2459:2558   */\n  swap2\n  pop\n    /* \"#utility.yul\":2282:2564   */\n  pop\n    /* \"#utility.yul\":2209:2564   */\n  swap3\n  swap2\n  pop\n  pop\n  jump\t// out\n    /* \"#utility.yul\":2570:3423   */\ntag_3:\n    /* \"#utility.yul\":2669:2675   */\n  0x00\n    /* \"#utility.yul\":2677:2683   */\n  0x00\n    /* \"#utility.yul\":2726:2728   */\n  0x40\n    /* \"#utility.yul\":2714:2723   */\n  dup4\n    /* \"#utility.yul\":2705:2712   */\n  dup6\n    /* \"#utility.yul\":2701:2724   */\n  sub\n    /* \"#utility.yul\":2697:2729   */\n  slt\n    /* \"#utility.yul\":2694:2813   */\n  iszero\n  tag_73\n  jumpi\n    /* \"#utility.yul\":2732:2811   */\n  tag_74\n  tag_11\n  jump\t// in\ntag_74:\n    /* \"#utility.yul\":2694:2813   */\ntag_73:\n    /* \"#utility.yul\":2873:2874   */\n  0x00\n    /* \"#utility.yul\":2862:2871   */\n  dup4\n    /* \"#utility.yul\":2858:2875   */\n  add\n    /* \"#utility.yul\":2852:2876   */\n  mload\n    /* \"#utility.yul\":2903:2921   */\n  0xffffffffffffffff\n    /* \"#utility.yul\":2895:2901   */\n  dup2\n    /* \"#utility.yul\":2892:2922   */\n  gt\n    /* \"#utility.yul\":2889:3006   */\n  iszero\n  tag_75\n  jumpi\n    /* \"#utility.yul\":2925:3004   */\n  tag_76\n  tag_12\n  jump\t// in\ntag_76:\n    /* \"#utility.yul\":2889:3006   */\ntag_75:\n    /* \"#utility.yul\":3030:3104   */\n  tag_77\n    /* \"#utility.yul\":3096:3103   */\n  dup6\n    /* \"#utility.yul\":3087:3093   */\n  dup3\n    /* \"#utility.yul\":3076:3085   */\n  dup7\n    /* \"#utility.yul\":3072:3094   */\n  add\n    /* \"#utility.yul\":3030:3104   */\n  tag_22\n  jump\t// in\ntag_77:\n    /* \"#utility.yul\":3020:3104   */\n  swap3\n  pop\n    /* \"#utility.yul\":2823:3114   */\n  pop\n    /* \"#utility.yul\":3174:3176   */\n  0x20\n    /* \"#utility.yul\":3163:3172   */\n  dup4\n    /* \"#utility.yul\":3159:3177   */\n  add\n    /* \"#utility.yul\":3153:3178   */\n  mload\n    /* \"#utility.yul\":3205:3223   */\n  0xffffffffffffffff\n    /* \"#utility.yul\":3197:3203   */\n  dup2\n    /* \"#utility.yul\":3194:3224   */\n  gt\n    /* \"#utility.yul\":3191:3308   */\n  iszero\n  tag_78\n  jumpi\n    /* \"#utility.yul\":3227:3306   */\n  tag_79\n  tag_12\n  jump\t// in\ntag_79:\n    /* \"#utility.yul\":3191:3308   */\ntag_78:\n    /* \"#utility.yul\":3332:3406   */\n  tag_80\n    /* \"#utility.yul\":3398:3405   */\n  dup6\n    /* \"#utility.yul\":3389:3395   */\n  dup3\n    /* \"#utility.yul\":3378:3387   */\n  dup7\n    /* \"#utility.yul\":3374:3396   */\n  add\n    /* \"#utility.yul\":3332:3406   */\n  tag_22\n  jump\t// in\ntag_80:\n    /* \"#utility.yul\":3322:3406   */\n  swap2\n  pop\n    /* \"#utility.yul\":3124:3416   */\n  pop\n    /* \"#utility.yul\":2570:3423   */\n  swap3\n  pop\n  swap3\n  swap1\n  pop\n  jump\t// out\n    /* \"#utility.yul\":3429:3528   */\ntag_23:\n    /* \"#utility.yul\":3481:3487   */\n  0x00\n    /* \"#utility.yul\":3515:3520   */\n  dup2\n    /* \"#utility.yul\":3509:3521   */\n  mload\n    /* \"#utility.yul\":3499:3521   */\n  swap1\n  pop\n    /* \"#utility.yul\":3429:3528   */\n  swap2\n  swap1\n  pop\n  jump\t// out\n    /* \"#utility.yul\":3534:3714   */\ntag_24:\n    /* \"#utility.yul\":3582:3659   */\n  0x4e487b7100000000000000000000000000000000000000000000000000000000\n    /* \"#utility.yul\":3579:3580   */\n  0x00\n    /* \"#utility.yul\":3572:3660   */\n  mstore\n    /* \"#utility.yul\":3679:3683   */\n  0x22\n    /* \"#utility.yul\":3676:3677   */\n  0x04\n    /* \"#utility.yul\":3669:3684   */\n  mstore\n    /* \"#utility.yul\":3703:3707   */\n  0x24\n    /* \"#utility.yul\":3700:3701   */\n  0x00\n    /* \"#utility.yul\":3693:3708   */\n  revert\n    /* \"#utility.yul\":3720:4040   */\ntag_25:\n    /* \"#utility.yul\":3764:3770   */\n  0x00\n    /* \"#utility.yul\":3801:3802   */\n  0x02\n    /* \"#utility.yul\":3795:3799   */\n  dup3\n    /* \"#utility.yul\":3791:3803   */\n  div\n    /* \"#utility.yul\":3781:3803   */\n  swap1\n  pop\n    /* \"#utility.yul\":3848:3849   */\n  0x01\n    /* \"#utility.yul\":3842:3846   */\n  dup3\n    /* \"#utility.yul\":3838:3850   */\n  and\n    /* \"#utility.yul\":3869:3887   */\n  dup1\n    /* \"#utility.yul\":3859:3940   */\n  tag_84\n  jumpi\n    /* \"#utility.yul\":3925:3929   */\n  0x7f\n    /* \"#utility.yul\":3917:3923   */\n  dup3\n    /* \"#utility.yul\":3913:3930   */\n  and\n    /* \"#utility.yul\":3903:3930   */\n  swap2\n  pop\n    /* \"#utility.yul\":3859:3940   */\ntag_84:\n    /* \"#utility.yul\":3987:3989   */\n  0x20\n    /* \"#utility.yul\":3979:3985   */\n  dup3\n    /* \"#utility.yul\":3976:3990   */\n  lt\n    /* \"#utility.yul\":3956:3974   */\n  dup2\n    /* \"#utility.yul\":3953:3991   */\n  sub\n    /* \"#utility.yul\":3950:4034   */\n  tag_85\n  jumpi\n    /* \"#utility.yul\":4006:4024   */\n  tag_86\n  tag_24\n  jump\t// in\ntag_86:\n    /* \"#utility.yul\":3950:4034   */\ntag_85:\n    /* \"#utility.yul\":3771:4040   */\n  pop\n    /* \"#utility.yul\":3720:4040   */\n  swap2\n  swap1\n  pop\n  jump\t// out\n    /* \"#utility.yul\":4046:4187   */\ntag_26:\n    /* \"#utility.yul\":4095:4099   */\n  0x00\n    /* \"#utility.yul\":4118:4121   */\n  dup2\n    /* \"#utility.yul\":4110:4121   */\n  swap1\n  pop\n    /* \"#utility.yul\":4141:4144   */\n  dup2\n    /* \"#utility.yul\":4138:4139   */\n  0x00\n    /* \"#utility.yul\":4131:4145   */\n  mstore\n    /* \"#utility.yul\":4175:4179   */\n  0x20\n    /* \"#utility.yul\":4172:4173   */\n  0x00\n    /* \"#utility.yul\":4162:4180   */\n  keccak256\n    /* \"#utility.yul\":4154:4180   */\n  swap1\n  pop\n    /* \"#utility.yul\":4046:4187   */\n  swap2\n  swap1\n  pop\n  jump\t// out\n    /* \"#utility.yul\":4193:4286   */\ntag_27:\n    /* \"#utility.yul\":4230:4236   */\n  0x00\n    /* \"#utility.yul\":4277:4279   */\n  0x20\n    /* \"#utility.yul\":4272:4274   */\n  0x1f\n    /* \"#utility.yul\":4265:4270   */\n  dup4\n    /* \"#utility.yul\":4261:4275   */\n  add\n    /* \"#utility.yul\":4257:4280   */\n  div\n    /* \"#utility.yul\":4247:4280   */\n  swap1\n  pop\n    /* \"#utility.yul\":4193:4286   */\n  swap2\n  swap1\n  pop\n  jump\t// out\n    /* \"#utility.yul\":4292:4399   */\ntag_28:\n    /* \"#utility.yul\":4336:4344   */\n  0x00\n    /* \"#utility.yul\":4386:4391   */\n  dup3\n    /* \"#utility.yul\":4380:4384   */\n  dup3\n    /* \"#utility.yul\":4376:4392   */\n  shl\n    /* \"#utility.yul\":4355:4392   */\n  swap1\n  pop\n    /* \"#utility.yul\":4292:4399   */\n  swap3\n  swap2\n  pop\n  pop\n  jump\t// out\n    /* \"#utility.yul\":4405:4798   */\ntag_29:\n    /* \"#utility.yul\":4474:4480   */\n  0x00\n    /* \"#utility.yul\":4524:4525   */\n  0x08\n    /* \"#utility.yul\":4512:4522   */\n  dup4\n    /* \"#utility.yul\":4508:4526   */\n  mul\n    /* \"#utility.yul\":4547:4644   */\n  tag_91\n    /* \"#utility.yul\":4577:4643   */\n  0xffffffffffffffffffffffffffffffffffffffffffffffffffffffffffffffff\n    /* \"#utility.yul\":4566:4575   */\n  dup3\n    /* \"#utility.yul\":4547:4644   */\n  tag_28\n  jump\t// in\ntag_91:\n    /* \"#utility.yul\":4665:4704   */\n  tag_92\n    /* \"#utility.yul\":4695:4703   */\n  dup7\n    /* \"#utility.yul\":4684:4693   */\n  dup4\n    /* \"#utility.yul\":4665:4704   */\n  tag_28\n  jump\t// in\ntag_92:\n    /* \"#utility.yul\":4653:4704   */\n  swap6\n  pop\n    /* \"#utility.yul\":4737:4741   */\n  dup1\n    /* \"#utility.yul\":4733:4742   */\n  not\n    /* \"#utility.yul\":4726:4731   */\n  dup5\n    /* \"#utility.yul\":4722:4743   */\n  and\n    /* \"#utility.yul\":4713:4743   */\n  swap4\n  pop\n    /* \"#utility.yul\":4786:4790   */\n  dup1\n    /* \"#utility.yul\":4776:4784   */\n  dup7\n    /* \"#utility.yul\":4772:4791   */\n  and\n    /* \"#utility.yul\":4765:4770   */\n  dup5\n    /* \"#utility.yul\":4762:4792   */\n  or\n    /* \"#utility.yul\":4752:4792   */\n  swap3\n  pop\n    /* \"#utility.yul\":4481:4798   */\n  pop\n  pop\n    /* \"#utility.yul\":4405:4798   */\n  swap4\n  swap3\n  pop\n  pop\n  pop\n  jump\t// out\n    /* \"#utility.yul\":4804:4881   */\ntag_30:\n    /* \"#utility.yul\":4841:4848   */\n  0x00\n    /* \"#utility.yul\":4870:4875   */\n  dup2\n    /* \"#utility.yul\":4859:4875   */\n  swap1\n  pop\n    /* \"#utility.yul\":4804:4881   */\n  swap2\n  swap1\n  pop\n  jump\t// out\n    /* \"#utility.yul\":4887:4947   */\ntag_31:\n    /* \"#utility.yul\":4915:4918   */\n  0x00\n    /* \"#utility.yul\":4936:4941   */\n  dup2\n    /* \"#utility.yul\":4929:4941   */\n  swap1\n  pop\n    /* \"#utility.yul\":4887:4947   */\n  swap2\n  swap1\n  pop\n  jump\t// out\n    /* \"#utility.yul\":4953:5095   */\ntag_32:\n    /* \"#utility.yul\":5003:5012   */\n  0x00\n    /* \"#utility.yul\":5036:5089   */\n  tag_96\n    /* \"#utility.yul\":5054:5088   */\n  tag_97\n    /* \"#utility.yul\":5063:5087   */\n  tag_98\n    /* \"#utility.yul\":5081:5086   */\n  dup5\n    /* \"#utility.yul\":5063:5087   */\n  tag_30\n  jump\t// in\ntag_98:\n    /* \"#utility.yul\":5054:5088   */\n  tag_31\n  jump\t// in\ntag_97:\n    /* \"#utility.yul\":5036:5089   */\n  tag_30\n  jump\t// in\ntag_96:\n    /* \"#utility.yul\":5023:5089   */\n  swap1\n  pop\n    /* \"#utility.yul\":4953:5095   */\n  swap2\n  swap1\n  pop\n  jump\t// out\n    /* \"#utility.yul\":5101:5176   */\ntag_33:\n    /* \"#utility.yul\":5144:5147   */\n  0x00\n    /* \"#utility.yul\":5165:5170   */\n  dup2\n    /* \"#utility.yul\":5158:5170   */\n  swap1\n  pop\n    /* \"#utility.yul\":5101:5176   */\n  swap2\n  swap1\n  pop\n  jump\t// out\n    /* \"#utility.yul\":5182:5451   */\ntag_34:\n    /* \"#utility.yul\":5292:5331   */\n  tag_101\n    /* \"#utility.yul\":5323:5330   */\n  dup4\n    /* \"#utility.yul\":5292:5331   */\n  tag_32\n  jump\t// in\ntag_101:\n    /* \"#utility.yul\":5353:5444   */\n  tag_102\n    /* \"#utility.yul\":5402:5443   */\n  tag_103\n    /* \"#utility.yul\":5426:5442   */\n  dup3\n    /* \"#utility.yul\":5402:5443   */\n  tag_33\n  jump\t// in\ntag_103:\n    /* \"#utility.yul\":5394:5400   */\n  dup5\n    /* \"#utility.yul\":5387:5391   */\n  dup5\n    /* \"#utility.yul\":5381:5392   */\n  sload\n    /* \"#utility.yul\":5353:5444   */\n  tag_29\n  jump\t// in\ntag_102:\n    /* \"#utility.yul\":5347:5351   */\n  dup3\n    /* \"#utility.yul\":5340:5445   */\n  sstore\n    /* \"#utility.yul\":5258:5451   */\n  pop\n    /* \"#utility.yul\":5182:5451   */\n  pop\n  pop\n  pop\n  jump\t// out\n    /* \"#utility.yul\":5457:5530   */\ntag_35:\n    /* \"#utility.yul\":5502:5505   */\n  0x00\n    /* \"#utility.yul\":5523:5524   */\n  0x00\n    /* \"#utility.yul\":5516:5524   */\n  swap1\n  pop\n    /* \"#utility.yul\":5457:5530   */\n  swap1\n  jump\t// out\n    /* \"#utility.yul\":5536:5725   */\ntag_36:\n    /* \"#utility.yul\":5613:5645   */\n  tag_106\n  tag_35\n  jump\t// in\ntag_106:\n    /* \"#utility.yul\":5654:5719   */\n  tag_107\n    /* \"#utility.yul\":5712:5718   */\n  dup2\n    /* \"#utility.yul\":5704:5710   */\n  dup5\n    /* \"#utility.yul\":5698:5702   */\n  dup5\n    /* \"#utility.yul\":5654:5719   */\n  tag_34\n  jump\t// in\ntag_107:\n    /* \"#utility.yul\":5589:5725   */\n  pop\n    /* \"#utility.yul\":5536:5725   */\n  pop\n  pop\n  jump\t// out\n    /* \"#utility.yul\":5731:5917   */\ntag_37:\n    /* \"#utility.yul\":5791:5911   */\ntag_109:\n    /* \"#utility.yul\":5808:5811   */\n  dup2\n    /* \"#utility.yul\":5801:5806   */\n  dup2\n    /* \"#utility.yul\":5798:5812   */\n  lt\n    /* \"#utility.yul\":5791:5911   */\n  iszero\n  tag_111\n  jumpi\n    /* \"#utility.yul\":5862:5901   */\n  tag_112\n    /* \"#utility.yul\":5899:5900   */\n  0x00\n    /* \"#utility.yul\":5892:5897   */\n  dup3\n    /* \"#utility.yul\":5862:5901   */\n  tag_36\n  jump\t// in\ntag_112:\n    /* \"#utility.yul\":5835:5836   */\n  0x01\n    /* \"#utility.yul\":5828:5833   */\n  dup2\n    /* \"#utility.yul\":5824:5837   */\n  add\n    /* \"#utility.yul\":5815:5837   */\n  swap1\n  pop\n    /* \"#utility.yul\":5791:5911   */\n  jump(tag_109)\ntag_111:\n    /* \"#utility.yul\":5731:5917   */\n  pop\n  pop\n  jump\t// out\n    /* \"#utility.yul\":5923:6466   */\ntag_38:\n    /* \"#utility.yul\":6024:6026   */\n  0x1f\n    /* \"#utility.yul\":6019:6022   */\n  dup3\n    /* \"#utility.yul\":6016:6027   */\n  gt\n    /* \"#utility.yul\":6013:6459   */\n  iszero\n  tag_114\n  jumpi\n    /* \"#utility.yul\":6058:6096   */\n  tag_115\n    /* \"#utility.yul\":6090:6095   */\n  dup2\n    /* \"#utility.yul\":6058:6096   */\n  tag_26\n  jump\t// in\ntag_115:\n    /* \"#utility.yul\":6142:6171   */\n  tag_116\n    /* \"#utility.yul\":6160:6170   */\n  dup5\n    /* \"#utility.yul\":6142:6171   */\n  tag_27\n  jump\t// in\ntag_116:\n    /* \"#utility.yul\":6132:6140   */\n  dup2\n    /* \"#utility.yul\":6128:6172   */\n  add\n    /* \"#utility.yul\":6325:6327   */\n  0x20\n    /* \"#utility.yul\":6313:6323   */\n  dup6\n    /* \"#utility.yul\":6310:6328   */\n  lt\n    /* \"#utility.yul\":6307:6356   */\n  iszero\n  tag_117\n  jumpi\n    /* \"#utility.yul\":6346:6354   */\n  dup2\n    /* \"#utility.yul\":6331:6354   */\n  swap1\n  pop\n    /* \"#utility.yul\":6307:6356   */\ntag_117:\n    /* \"#utility.yul\":6369:6449   */\n  tag_118\n    /* \"#utility.yul\":6425:6447   */\n  tag_119\n    /* \"#utility.yul\":6443:6446   */\n  dup6\n    /* \"#utility.yul\":6425:6447   */\n  tag_27\n  jump\t// in\ntag_119:\n    /* \"#utility.yul\":6415:6423   */\n  dup4\n    /* \"#utility.yul\":6411:6448   */\n  add\n    /* \"#utility.yul\":6398:6409   */\n  dup3\n    /* \"#utility.yul\":6369:6449   */\n  tag_37\n  jump\t// in\ntag_118:\n    /* \"#utility.yul\":6028:6459   */\n  pop\n  pop\n    /* \"#utility.yul\":6013:6459   */\ntag_114:\n    /* \"#utility.yul\":5923:6466   */\n  pop\n  pop\n  pop\n  jump\t// out\n    /* \"#utility.yul\":6472:6589   */\ntag_39:\n    /* \"#utility.yul\":6526:6534   */\n  0x00\n    /* \"#utility.yul\":6576:6581   */\n  dup3\n    /* \"#utility.yul\":6570:6574   */\n  dup3\n    /* \"#utility.yul\":6566:6582   */\n  shr\n    /* \"#utility.yul\":6545:6582   */\n  swap1\n  pop\n    /* \"#utility.yul\":6472:6589   */\n  swap3\n  swap2\n  pop\n  pop\n  jump\t// out\n    /* \"#utility.yul\":6595:6764   */\ntag_40:\n    /* \"#utility.yul\":6639:6645   */\n  0x00\n    /* \"#utility.yul\":6672:6723   */\n  tag_122\n    /* \"#utility.yul\":6720:6721   */\n  0x00\n    /* \"#utility.yul\":6716:6722   */\n  not\n    /* \"#utility.yul\":6708:6713   */\n  dup5\n    /* \"#utility.yul\":6705:6706   */\n  0x08\n    /* \"#utility.yul\":6701:6714   */\n  mul\n    /* \"#utility.yul\":6672:6723   */\n  tag_39\n  jump\t// in\ntag_122:\n    /* \"#utility.yul\":6668:6724   */\n  not\n    /* \"#utility.yul\":6753:6757   */\n  dup1\n    /* \"#utility.yul\":6747:6751   */\n  dup4\n    /* \"#utility.yul\":6743:6758   */\n  and\n    /* \"#utility.yul\":6733:6758   */\n  swap2\n  pop\n    /* \"#utility.yul\":6646:6764   */\n  pop\n    /* \"#utility.yul\":6595:6764   */\n  swap3\n  swap2\n  pop\n  pop\n  jump\t// out\n    /* \"#utility.yul\":6769:7064   */\ntag_41:\n    /* \"#utility.yul\":6845:6849   */\n  0x00\n    /* \"#utility.yul\":6991:7020   */\n  tag_124\n    /* \"#utility.yul\":7016:7019   */\n  dup4\n    /* \"#utility.yul\":7010:7014   */\n  dup4\n    /* \"#utility.yul\":6991:7020   */\n  tag_40\n  jump\t// in\ntag_124:\n    /* \"#utility.yul\":6983:7020   */\n  swap2\n  pop\n    /* \"#utility.yul\":7053:7056   */\n  dup3\n    /* \"#utility.yul\":7050:7051   */\n  0x02\n    /* \"#utility.yul\":7046:7057   */\n  mul\n    /* \"#utility.yul\":7040:7044   */\n  dup3\n    /* \"#utility.yul\":7037:7058   */\n  or\n    /* \"#utility.yul\":7029:7058   */\n  swap1\n  pop\n    /* \"#utility.yul\":6769:7064   */\n  swap3\n  swap2\n  pop\n  pop\n  jump\t// out\n    /* \"#utility.yul\":7069:8464   */\ntag_7:\n    /* \"#utility.yul\":7186:7223   */\n  tag_126\n    /* \"#utility.yul\":7219:7222   */\n  dup3\n    /* \"#utility.yul\":7186:7223   */\n  tag_23\n  jump\t// in\ntag_126:\n    /* \"#utility.yul\":7288:7306   */\n  0xffffffffffffffff\n    /* \"#utility.yul\":7280:7286   */\n  dup2\n    /* \"#utility.yul\":7277:7307   */\n  gt\n    /* \"#utility.yul\":7274:7330   */\n  iszero\n  tag_127\n  jumpi\n    /* \"#utility.yul\":7310:7328   */\n  tag_128\n  tag_16\n  jump\t// in\ntag_128:\n    /* \"#utility.yul\":7274:7330   */\ntag_127:\n    /* \"#utility.yul\":7354:7392   */\n  tag_129\n    /* \"#utility.yul\":7386:7390   */\n  dup3\n    /* \"#utility.yul\":7380:7391   */\n  sload\n    /* \"#utility.yul\":7354:7392   */\n  tag_25\n  jump\t// in\ntag_129:\n    /* \"#utility.yul\":7439:7506   */\n  tag_130\n    /* \"#utility.yul\":7499:7505   */\n  dup3\n    /* \"#utility.yul\":7491:7497   */\n  dup3\n    /* \"#utility.yul\":7485:7489   */\n  dup6\n    /* \"#utility.yul\":7439:7506   */\n  tag_38\n  jump\t// in\ntag_130:\n    /* \"#utility.yul\":7533:7534   */\n  0x00\n    /* \"#utility.yul\":7557:7561   */\n  0x20\n    /* \"#utility.yul\":7544:7561   */\n  swap1\n  pop\n    /* \"#utility.yul\":7589:7591   */\n  0x1f\n    /* \"#utility.yul\":7581:7587   */\n  dup4\n    /* \"#utility.yul\":7578:7592   */\n  gt\n    /* \"#utility.yul\":7606:7607   */\n  0x01\n    /* \"#utility.yul\":7601:8219   */\n  dup2\n  eq\n  tag_132\n  jumpi\n    /* \"#utility.yul\":8263:8264   */\n  0x00\n    /* \"#utility.yul\":8280:8286   */\n  dup5\n    /* \"#utility.yul\":8277:8354   */\n  iszero\n  tag_133\n  jumpi\n    /* \"#utility.yul\":8329:8338   */\n  dup3\n    /* \"#utility.yul\":8324:8327   */\n  dup8\n    /* \"#utility.yul\":8320:8339   */\n  add\n    /* \"#utility.yul\":8314:8340   */\n  mload\n    /* \"#utility.yul\":8305:8340   */\n  swap1\n  pop\n    /* \"#utility.yul\":8277:8354   */\ntag_133:\n    /* \"#utility.yul\":8380:8447   */\n  tag_134\n    /* \"#utility.yul\":8440:8446   */\n  dup6\n    /* \"#utility.yul\":8433:8438   */\n  dup3\n    /* \"#utility.yul\":8380:8447   */\n  tag_41\n  jump\t// in\ntag_134:\n    /* \"#utility.yul\":8374:8378   */\n  dup7\n    /* \"#utility.yul\":8367:8448   */\n  sstore\n    /* \"#utility.yul\":8236:8458   */\n  pop\n    /* \"#utility.yul\":7571:8458   */\n  jump(tag_131)\n    /* \"#utility.yul\":7601:8219   */\ntag_132:\n    /* \"#utility.yul\":7653:7657   */\n  0x1f\n    /* \"#utility.yul\":7649:7658   */\n  not\n    /* \"#utility.yul\":7641:7647   */\n  dup5\n    /* \"#utility.yul\":7637:7659   */\n  and\n    /* \"#utility.yul\":7687:7724   */\n  tag_135\n    /* \"#utility.yul\":7719:7723   */\n  dup7\n    /* \"#utility.yul\":7687:7724   */\n  tag_26\n  jump\t// in\ntag_135:\n    /* \"#utility.yul\":7746:7747   */\n  0x00\n    /* \"#utility.yul\":7760:7968   */\ntag_136:\n    /* \"#utility.yul\":7774:7781   */\n  dup3\n    /* \"#utility.yul\":7771:7772   */\n  dup2\n    /* \"#utility.yul\":7768:7782   */\n  lt\n    /* \"#utility.yul\":7760:7968   */\n  iszero\n  tag_138\n  jumpi\n    /* \"#utility.yul\":7853:7862   */\n  dup5\n    /* \"#utility.yul\":7848:7851   */\n  dup10\n    /* \"#utility.yul\":7844:7863   */\n  add\n    /* \"#utility.yul\":7838:7864   */\n  mload\n    /* \"#utility.yul\":7830:7836   */\n  dup3\n    /* \"#utility.yul\":7823:7865   */\n  sstore\n    /* \"#utility.yul\":7904:7905   */\n  0x01\n    /* \"#utility.yul\":7896:7902   */\n  dup3\n    /* \"#utility.yul\":7892:7906   */\n  add\n    /* \"#utility.yul\":7882:7906   */\n  swap2\n  pop\n    /* \"#utility.yul\":7951:7953   */\n  0x20\n    /* \"#utility.yul\":7940:7949   */\n  dup6\n    /* \"#utility.yul\":7936:7954   */\n  add\n    /* \"#utility.yul\":7923:7954   */\n  swap5\n  pop\n    /* \"#utility.yul\":7797:7801   */\n  0x20\n    /* \"#utility.yul\":7794:7795   */\n  dup2\n    /* \"#utility.yul\":7790:7802   */\n  add\n    /* \"#utility.yul\":7785:7802   */\n  swap1\n  pop\n    /* \"#utility.yul\":7760:7968   */\n  jump(tag_136)\ntag_138:\n    /* \"#utility.yul\":7996:8002   */\n  dup7\n    /* \"#utility.yul\":7987:7994   */\n  dup4\n    /* \"#utility.yul\":7984:8003   */\n  lt\n    /* \"#utility.yul\":7981:8160   */\n  iszero\n  tag_139\n  jumpi\n    /* \"#utility.yul\":8054:8063   */\n  dup5\n    /* \"#utility.yul\":8049:8052   */\n  dup10\n    /* \"#utility.yul\":8045:8064   */\n  add\n    /* \"#utility.yul\":8039:8065   */\n  mload\n    /* \"#utility.yul\":8097:8145   */\n  tag_140\n    /* \"#utility.yul\":8139:8143   */\n  0x1f\n    /* \"#utility.yul\":8131:8137   */\n  dup10\n    /* \"#utility.yul\":8127:8144   */\n  and\n    /* \"#utility.yul\":8116:8125   */\n  dup3\n    /* \"#utility.yul\":8097:8145   */\n  tag_40\n  jump\t// in\ntag_140:\n    /* \"#utility.yul\":8089:8095   */\n  dup4\n    /* \"#utility.yul\":8082:8146   */\n  sstore\n    /* \"#utility.yul\":8004:8160   */\n  pop\n    /* \"#utility.yul\":7981:8160   */\ntag_139:\n    /* \"#utility.yul\":8206:8207   */\n  0x01\n    /* \"#utility.yul\":8202:8203   */\n  0x02\n    /* \"#utility.yul\":8194:8200   */\n  dup9\n    /* \"#utility.yul\":8190:8204   */\n  mul\n    /* \"#utility.yul\":8186:8208   */\n  add\n    /* \"#utility.yul\":8180:8184   */\n  dup9\n    /* \"#utility.yul\":8173:8209   */\n  sstore\n    /* \"#utility.yul\":7608:8219   */\n  pop\n  pop\n  pop\n    /* \"#utility.yul\":7571:8458   */\ntag_131:\n  pop\n    /* \"#utility.yul\":7161:8464   */\n  pop\n  pop\n  pop\n    /* \"#utility.yul\":7069:8464   */\n  pop\n  pop\n  jump\t// out\n    /* \"contracts/ERC721/ERC721.sol\":205:9961  contract ERC721 is IERC721, IERC721Metadata {... */\ntag_9:\n  dataSize(sub_0)\n  dup1\n  dataOffset(sub_0)\n  0x00\n  codecopy\n  0x00\n  return\nstop\n\nsub_0: assembly {\n        /* \"contracts/ERC721/ERC721.sol\":205:9961  contract ERC721 is IERC721, IERC721Metadata {... */\n      mstore(0x40, 0x80)\n      callvalue\n      dup1\n      iszero\n      tag_1\n      jumpi\n      revert(0x00, 0x00)\n    tag_1:\n      pop\n      jumpi(tag_2, lt(calldatasize, 0x04))\n      shr(0xe0, calldataload(0x00))\n      dup1\n      0x6b9241fc\n      gt\n      tag_17\n      jumpi\n      dup1\n      0xa22cb465\n      gt\n      tag_18\n      jumpi\n      dup1\n      0xa22cb465\n      eq\n      tag_13\n      jumpi\n      dup1\n      0xb88d4fde\n      eq\n      tag_14\n      jumpi\n      dup1\n      0xc87b56dd\n      eq\n      tag_15\n      jumpi\n      dup1\n      0xe985e9c5\n      eq\n      tag_16\n      jumpi\n      jump(tag_2)\n    tag_18:\n      dup1\n      0x6b9241fc\n      eq\n      tag_10\n      jumpi\n      dup1\n      0x70a08231\n      eq\n      tag_11\n      jumpi\n      dup1\n      0x95d89b41\n      eq\n      tag_12\n      jumpi\n      jump(tag_2)\n    tag_17:\n      dup1\n      0x095ea7b3\n      gt\n      tag_19\n      jumpi\n      dup1\n      0x095ea7b3\n      eq\n      tag_6\n      jumpi\n      dup1\n      0x23b872dd\n      eq\n      tag_7\n      jumpi\n      dup1\n      0x42842e0e\n      eq\n      tag_8\n      jumpi\n      dup1\n      0x6352211e\n      eq\n      tag_9\n      jumpi\n      jump(tag_2)\n    tag_19:\n      dup1\n      0x01ffc9a7\n      eq\n      tag_3\n      jumpi\n      dup1\n      0x06fdde03\n      eq\n      tag_4\n      jumpi\n      dup1\n      0x081812fc\n      eq\n      tag_5\n      jumpi\n    tag_2:\n      revert(0x00, 0x00)\n        /* \"contracts/ERC721/ERC721.sol\":1294:1611  function supportsInterface(bytes4 interfaceId)... */\n    tag_3:\n      tag_20\n      0x04\n      dup1\n      calldatasize\n      sub\n      dup2\n      add\n      swap1\n      tag_21\n      swap2\n      swap1\n      tag_22\n      jump\t// in\n    tag_21:\n      tag_23\n      jump\t// in\n    tag_20:\n      mload(0x40)\n      tag_24\n      swap2\n      swap1\n      tag_25\n      jump\t// in\n    tag_24:\n      mload(0x40)\n      dup1\n      swap2\n      sub\n      swap1\n      return\n        /* \"contracts/ERC721/ERC721.sol\":329:356  string public override name */\n    tag_4:\n      tag_26\n      tag_27\n      jump\t// in\n    tag_26:\n      mload(0x40)\n      tag_28\n      swap2\n      swap1\n      tag_29\n      jump\t// in\n    tag_28:\n      mload(0x40)\n      dup1\n      swap2\n      sub\n      swap1\n      return\n        /* \"contracts/ERC721/ERC721.sol\":2981:3216  function getApproved(uint256 tokenId)... */\n    tag_5:\n      tag_30\n      0x04\n      dup1\n      calldatasize\n      sub\n      dup2\n      add\n      swap1\n      tag_31\n      swap2\n      swap1\n      tag_32\n      jump\t// in\n    tag_31:\n      tag_33\n      jump\t// in\n    tag_30:\n      mload(0x40)\n      tag_34\n      swap2\n      swap1\n      tag_35\n      jump\t// in\n    tag_34:\n      mload(0x40)\n      dup1\n      swap2\n      sub\n      swap1\n      return\n        /* \"contracts/ERC721/ERC721.sol\":3688:3986  function approve(address to, uint256 tokenId) external override {... */\n    tag_6:\n      tag_36\n      0x04\n      dup1\n      calldatasize\n      sub\n      dup2\n      add\n      swap1\n      tag_37\n      swap2\n      swap1\n      tag_38\n      jump\t// in\n    tag_37:\n      tag_39\n      jump\t// in\n    tag_36:\n      stop\n        /* \"contracts/ERC721/ERC721.sol\":5106:5438  function transferFrom(... */\n    tag_7:\n      tag_40\n      0x04\n      dup1\n      calldatasize\n      sub\n      dup2\n      add\n      swap1\n      tag_41\n      swap2\n      swap1\n      tag_42\n      jump\t// in\n    tag_41:\n      tag_43\n      jump\t// in\n    tag_40:\n      stop\n        /* \"contracts/ERC721/ERC721.sol\":6678:6851  function safeTransferFrom(... */\n    tag_8:\n      tag_44\n      0x04\n      dup1\n      calldatasize\n      sub\n      dup2\n      add\n      swap1\n      tag_45\n      swap2\n      swap1\n      tag_42\n      jump\t// in\n    tag_45:\n      tag_46\n      jump\t// in\n    tag_44:\n      stop\n        /* \"contracts/ERC721/ERC721.sol\":1964:2181  function ownerOf(uint256 tokenId)... */\n    tag_9:\n      tag_47\n      0x04\n      dup1\n      calldatasize\n      sub\n      dup2\n      add\n      swap1\n      tag_48\n      swap2\n      swap1\n      tag_32\n      jump\t// in\n    tag_48:\n      tag_49\n      jump\t// in\n    tag_47:\n      mload(0x40)\n      tag_50\n      swap2\n      swap1\n      tag_35\n      jump\t// in\n    tag_50:\n      mload(0x40)\n      dup1\n      swap2\n      sub\n      swap1\n      return\n        /* \"contracts/ERC721/ERC721.sol\":1132:1244  function getInterfaceId() public view returns (bytes4) {... */\n    tag_10:\n      tag_51\n      tag_52\n      jump\t// in\n    tag_51:\n      mload(0x40)\n      tag_53\n      swap2\n      swap1\n      tag_54\n      jump\t// in\n    tag_53:\n      mload(0x40)\n      dup1\n      swap2\n      sub\n      swap1\n      return\n        /* \"contracts/ERC721/ERC721.sol\":1704:1881  function balanceOf(address owner) external view override returns (uint256) {... */\n    tag_11:\n      tag_55\n      0x04\n      dup1\n      calldatasize\n      sub\n      dup2\n      add\n      swap1\n      tag_56\n      swap2\n      swap1\n      tag_57\n      jump\t// in\n    tag_56:\n      tag_58\n      jump\t// in\n    tag_55:\n      mload(0x40)\n      tag_59\n      swap2\n      swap1\n      tag_60\n      jump\t// in\n    tag_59:\n      mload(0x40)\n      dup1\n      swap2\n      sub\n      swap1\n      return\n        /* \"contracts/ERC721/ERC721.sol\":381:410  string public override symbol */\n    tag_12:\n      tag_61\n      tag_62\n      jump\t// in\n    tag_61:\n      mload(0x40)\n      tag_63\n      swap2\n      swap1\n      tag_29\n      jump\t// in\n    tag_63:\n      mload(0x40)\n      dup1\n      swap2\n      sub\n      swap1\n      return\n        /* \"contracts/ERC721/ERC721.sol\":2652:2879  function setApprovalForAll(address operator, bool approved)... */\n    tag_13:\n      tag_64\n      0x04\n      dup1\n      calldatasize\n      sub\n      dup2\n      add\n      swap1\n      tag_65\n      swap2\n      swap1\n      tag_66\n      jump\t// in\n    tag_65:\n      tag_67\n      jump\t// in\n    tag_64:\n      stop\n        /* \"contracts/ERC721/ERC721.sol\":6263:6636  function safeTransferFrom(... */\n    tag_14:\n      tag_68\n      0x04\n      dup1\n      calldatasize\n      sub\n      dup2\n      add\n      swap1\n      tag_69\n      swap2\n      swap1\n      tag_70\n      jump\t// in\n    tag_69:\n      tag_71\n      jump\t// in\n    tag_68:\n      stop\n        /* \"contracts/ERC721/ERC721.sol\":9257:9656  function tokenURI(uint256 tokenId)... */\n    tag_15:\n      tag_72\n      0x04\n      dup1\n      calldatasize\n      sub\n      dup2\n      add\n      swap1\n      tag_73\n      swap2\n      swap1\n      tag_32\n      jump\t// in\n    tag_73:\n      tag_74\n      jump\t// in\n    tag_72:\n      mload(0x40)\n      tag_75\n      swap2\n      swap1\n      tag_29\n      jump\t// in\n    tag_75:\n      mload(0x40)\n      dup1\n      swap2\n      sub\n      swap1\n      return\n        /* \"contracts/ERC721/ERC721.sol\":2330:2522  function isApprovedForAll(address owner, address operator)... */\n    tag_16:\n      tag_76\n      0x04\n      dup1\n      calldatasize\n      sub\n      dup2\n      add\n      swap1\n      tag_77\n      swap2\n      swap1\n      tag_78\n      jump\t// in\n    tag_77:\n      tag_79\n      jump\t// in\n    tag_76:\n      mload(0x40)\n      tag_80\n      swap2\n      swap1\n      tag_25\n      jump\t// in\n    tag_80:\n      mload(0x40)\n      dup1\n      swap2\n      sub\n      swap1\n      return\n        /* \"contracts/ERC721/ERC721.sol\":1294:1611  function supportsInterface(bytes4 interfaceId)... */\n    tag_23:\n        /* \"contracts/ERC721/ERC721.sol\":1405:1409  bool */\n      0x00\n        /* \"contracts/ERC721/ERC721.sol\":1459:1484  type(IERC721).interfaceId */\n      0x80ac58cd00000000000000000000000000000000000000000000000000000000\n        /* \"contracts/ERC721/ERC721.sol\":1444:1484  interfaceId == type(IERC721).interfaceId */\n      not(0xffffffffffffffffffffffffffffffffffffffffffffffffffffffff)\n      and\n        /* \"contracts/ERC721/ERC721.sol\":1444:1455  interfaceId */\n      dup3\n        /* \"contracts/ERC721/ERC721.sol\":1444:1484  interfaceId == type(IERC721).interfaceId */\n      not(0xffffffffffffffffffffffffffffffffffffffffffffffffffffffff)\n      and\n      eq\n        /* \"contracts/ERC721/ERC721.sol\":1444:1540  interfaceId == type(IERC721).interfaceId ||... */\n      dup1\n      tag_82\n      jumpi\n      pop\n        /* \"contracts/ERC721/ERC721.sol\":1515:1540  type(IERC165).interfaceId */\n      0x01ffc9a700000000000000000000000000000000000000000000000000000000\n        /* \"contracts/ERC721/ERC721.sol\":1500:1540  interfaceId == type(IERC165).interfaceId */\n      not(0xffffffffffffffffffffffffffffffffffffffffffffffffffffffff)\n      and\n        /* \"contracts/ERC721/ERC721.sol\":1500:1511  interfaceId */\n      dup3\n        /* \"contracts/ERC721/ERC721.sol\":1500:1540  interfaceId == type(IERC165).interfaceId */\n      not(0xffffffffffffffffffffffffffffffffffffffffffffffffffffffff)\n      and\n      eq\n        /* \"contracts/ERC721/ERC721.sol\":1444:1540  interfaceId == type(IERC721).interfaceId ||... */\n    tag_82:\n        /* \"contracts/ERC721/ERC721.sol\":1444:1604  interfaceId == type(IERC721).interfaceId ||... */\n      dup1\n      tag_83\n      jumpi\n      pop\n        /* \"contracts/ERC721/ERC721.sol\":1571:1604  type(IERC721Metadata).interfaceId */\n      0x5b5e139f00000000000000000000000000000000000000000000000000000000\n        /* \"contracts/ERC721/ERC721.sol\":1556:1604  interfaceId == type(IERC721Metadata).interfaceId */\n      not(0xffffffffffffffffffffffffffffffffffffffffffffffffffffffff)\n      and\n        /* \"contracts/ERC721/ERC721.sol\":1556:1567  interfaceId */\n      dup3\n        /* \"contracts/ERC721/ERC721.sol\":1556:1604  interfaceId == type(IERC721Metadata).interfaceId */\n      not(0xffffffffffffffffffffffffffffffffffffffffffffffffffffffff)\n      and\n      eq\n        /* \"contracts/ERC721/ERC721.sol\":1444:1604  interfaceId == type(IERC721).interfaceId ||... */\n    tag_83:\n        /* \"contracts/ERC721/ERC721.sol\":1425:1604  return... */\n      swap1\n      pop\n        /* \"contracts/ERC721/ERC721.sol\":1294:1611  function supportsInterface(bytes4 interfaceId)... */\n      swap2\n      swap1\n      pop\n      jump\t// out\n        /* \"contracts/ERC721/ERC721.sol\":329:356  string public override name */\n    tag_27:\n      0x00\n      dup1\n      sload\n      tag_84\n      swap1\n      tag_85\n      jump\t// in\n    tag_84:\n      dup1\n      0x1f\n      add\n      0x20\n      dup1\n      swap2\n      div\n      mul\n      0x20\n      add\n      mload(0x40)\n      swap1\n      dup2\n      add\n      0x40\n      mstore\n      dup1\n      swap3\n      swap2\n      swap1\n      dup2\n      dup2\n      mstore\n      0x20\n      add\n      dup3\n      dup1\n      sload\n      tag_86\n      swap1\n      tag_85\n      jump\t// in\n    tag_86:\n      dup1\n      iszero\n      tag_87\n      jumpi\n      dup1\n      0x1f\n      lt\n      tag_88\n      jumpi\n      0x0100\n      dup1\n      dup4\n      sload\n      div\n      mul\n      dup4\n      mstore\n      swap2\n      0x20\n      add\n      swap2\n      jump(tag_87)\n    tag_88:\n      dup3\n      add\n      swap2\n      swap1\n      0x00\n      mstore\n      keccak256(0x00, 0x20)\n      swap1\n    tag_89:\n      dup2\n      sload\n      dup2\n      mstore\n      swap1\n      0x01\n      add\n      swap1\n      0x20\n      add\n      dup1\n      dup4\n      gt\n      tag_89\n      jumpi\n      dup3\n      swap1\n      sub\n      0x1f\n      and\n      dup3\n      add\n      swap2\n    tag_87:\n      pop\n      pop\n      pop\n      pop\n      pop\n      dup2\n      jump\t// out\n        /* \"contracts/ERC721/ERC721.sol\":2981:3216  function getApproved(uint256 tokenId)... */\n    tag_33:\n        /* \"contracts/ERC721/ERC721.sol\":3083:3090  address */\n      0x00\n        /* \"contracts/ERC721/ERC721.sol\":3142:3143  0 */\n      0x00\n        /* \"contracts/ERC721/ERC721.sol\":3114:3144  _owners[tokenId] != address(0) */\n      0xffffffffffffffffffffffffffffffffffffffff\n      and\n        /* \"contracts/ERC721/ERC721.sol\":3114:3121  _owners */\n      0x02\n        /* \"contracts/ERC721/ERC721.sol\":3114:3130  _owners[tokenId] */\n      0x00\n        /* \"contracts/ERC721/ERC721.sol\":3122:3129  tokenId */\n      dup5\n        /* \"contracts/ERC721/ERC721.sol\":3114:3130  _owners[tokenId] */\n      dup2\n      mstore\n      0x20\n      add\n      swap1\n      dup2\n      mstore\n      0x20\n      add\n      0x00\n      keccak256\n      0x00\n      swap1\n      sload\n      swap1\n      0x0100\n      exp\n      swap1\n      div\n      0xffffffffffffffffffffffffffffffffffffffff\n      and\n        /* \"contracts/ERC721/ERC721.sol\":3114:3144  _owners[tokenId] != address(0) */\n      0xffffffffffffffffffffffffffffffffffffffff\n      and\n      sub\n        /* \"contracts/ERC721/ERC721.sol\":3106:3168  require(_owners[tokenId] != address(0), \"token doesn't exist\") */\n      tag_91\n      jumpi\n      mload(0x40)\n      0x08c379a000000000000000000000000000000000000000000000000000000000\n      dup2\n      mstore\n      0x04\n      add\n      tag_92\n      swap1\n      tag_93\n      jump\t// in\n    tag_92:\n      mload(0x40)\n      dup1\n      swap2\n      sub\n      swap1\n      revert\n    tag_91:\n        /* \"contracts/ERC721/ERC721.sol\":3185:3200  _tokenApprovals */\n      0x04\n        /* \"contracts/ERC721/ERC721.sol\":3185:3209  _tokenApprovals[tokenId] */\n      0x00\n        /* \"contracts/ERC721/ERC721.sol\":3201:3208  tokenId */\n      dup4\n        /* \"contracts/ERC721/ERC721.sol\":3185:3209  _tokenApprovals[tokenId] */\n      dup2\n      mstore\n      0x20\n      add\n      swap1\n      dup2\n      mstore\n      0x20\n      add\n      0x00\n      keccak256\n      0x00\n      swap1\n      sload\n      swap1\n      0x0100\n      exp\n      swap1\n      div\n      0xffffffffffffffffffffffffffffffffffffffff\n      and\n        /* \"contracts/ERC721/ERC721.sol\":3178:3209  return _tokenApprovals[tokenId] */\n      swap1\n      pop\n        /* \"contracts/ERC721/ERC721.sol\":2981:3216  function getApproved(uint256 tokenId)... */\n      swap2\n      swap1\n      pop\n      jump\t// out\n        /* \"contracts/ERC721/ERC721.sol\":3688:3986  function approve(address to, uint256 tokenId) external override {... */\n    tag_39:\n        /* \"contracts/ERC721/ERC721.sol\":3762:3775  address owner */\n      0x00\n        /* \"contracts/ERC721/ERC721.sol\":3778:3785  _owners */\n      0x02\n        /* \"contracts/ERC721/ERC721.sol\":3778:3794  _owners[tokenId] */\n      0x00\n        /* \"contracts/ERC721/ERC721.sol\":3786:3793  tokenId */\n      dup4\n        /* \"contracts/ERC721/ERC721.sol\":3778:3794  _owners[tokenId] */\n      dup2\n      mstore\n      0x20\n      add\n      swap1\n      dup2\n      mstore\n      0x20\n      add\n      0x00\n      keccak256\n      0x00\n      swap1\n      sload\n      swap1\n      0x0100\n      exp\n      swap1\n      div\n      0xffffffffffffffffffffffffffffffffffffffff\n      and\n        /* \"contracts/ERC721/ERC721.sol\":3762:3794  address owner = _owners[tokenId] */\n      swap1\n      pop\n        /* \"contracts/ERC721/ERC721.sol\":3839:3844  owner */\n      dup1\n        /* \"contracts/ERC721/ERC721.sol\":3825:3844  msg.sender == owner */\n      0xffffffffffffffffffffffffffffffffffffffff\n      and\n        /* \"contracts/ERC721/ERC721.sol\":3825:3835  msg.sender */\n      caller\n        /* \"contracts/ERC721/ERC721.sol\":3825:3844  msg.sender == owner */\n      0xffffffffffffffffffffffffffffffffffffffff\n      and\n      eq\n        /* \"contracts/ERC721/ERC721.sol\":3825:3885  msg.sender == owner || _operatorApprovals[owner][msg.sender] */\n      dup1\n      tag_95\n      jumpi\n      pop\n        /* \"contracts/ERC721/ERC721.sol\":3848:3866  _operatorApprovals */\n      0x05\n        /* \"contracts/ERC721/ERC721.sol\":3848:3873  _operatorApprovals[owner] */\n      0x00\n        /* \"contracts/ERC721/ERC721.sol\":3867:3872  owner */\n      dup3\n        /* \"contracts/ERC721/ERC721.sol\":3848:3873  _operatorApprovals[owner] */\n      0xffffffffffffffffffffffffffffffffffffffff\n      and\n      0xffffffffffffffffffffffffffffffffffffffff\n      and\n      dup2\n      mstore\n      0x20\n      add\n      swap1\n      dup2\n      mstore\n      0x20\n      add\n      0x00\n      keccak256\n        /* \"contracts/ERC721/ERC721.sol\":3848:3885  _operatorApprovals[owner][msg.sender] */\n      0x00\n        /* \"contracts/ERC721/ERC721.sol\":3874:3884  msg.sender */\n      caller\n        /* \"contracts/ERC721/ERC721.sol\":3848:3885  _operatorApprovals[owner][msg.sender] */\n      0xffffffffffffffffffffffffffffffffffffffff\n      and\n      0xffffffffffffffffffffffffffffffffffffffff\n      and\n      dup2\n      mstore\n      0x20\n      add\n      swap1\n      dup2\n      mstore\n      0x20\n      add\n      0x00\n      keccak256\n      0x00\n      swap1\n      sload\n      swap1\n      0x0100\n      exp\n      swap1\n      div\n      0xff\n      and\n        /* \"contracts/ERC721/ERC721.sol\":3825:3885  msg.sender == owner || _operatorApprovals[owner][msg.sender] */\n    tag_95:\n        /* \"contracts/ERC721/ERC721.sol\":3804:3941  require(... */\n      tag_96\n      jumpi\n      mload(0x40)\n      0x08c379a000000000000000000000000000000000000000000000000000000000\n      dup2\n      mstore\n      0x04\n      add\n      tag_97\n      swap1\n      tag_98\n      jump\t// in\n    tag_97:\n      mload(0x40)\n      dup1\n      swap2\n      sub\n      swap1\n      revert\n    tag_96:\n        /* \"contracts/ERC721/ERC721.sol\":3951:3979  _approve(owner, to, tokenId) */\n      tag_99\n        /* \"contracts/ERC721/ERC721.sol\":3960:3965  owner */\n      dup2\n        /* \"contracts/ERC721/ERC721.sol\":3967:3969  to */\n      dup5\n        /* \"contracts/ERC721/ERC721.sol\":3971:3978  tokenId */\n      dup5\n        /* \"contracts/ERC721/ERC721.sol\":3951:3959  _approve */\n      tag_100\n        /* \"contracts/ERC721/ERC721.sol\":3951:3979  _approve(owner, to, tokenId) */\n      jump\t// in\n    tag_99:\n        /* \"contracts/ERC721/ERC721.sol\":3752:3986  {... */\n      pop\n        /* \"contracts/ERC721/ERC721.sol\":3688:3986  function approve(address to, uint256 tokenId) external override {... */\n      pop\n      pop\n      jump\t// out\n        /* \"contracts/ERC721/ERC721.sol\":5106:5438  function transferFrom(... */\n    tag_43:\n        /* \"contracts/ERC721/ERC721.sol\":5229:5242  address owner */\n      0x00\n        /* \"contracts/ERC721/ERC721.sol\":5245:5261  ownerOf(tokenId) */\n      tag_102\n        /* \"contracts/ERC721/ERC721.sol\":5253:5260  tokenId */\n      dup3\n        /* \"contracts/ERC721/ERC721.sol\":5245:5252  ownerOf */\n      tag_49\n        /* \"contracts/ERC721/ERC721.sol\":5245:5261  ownerOf(tokenId) */\n      jump\t// in\n    tag_102:\n        /* \"contracts/ERC721/ERC721.sol\":5229:5261  address owner = ownerOf(tokenId) */\n      swap1\n      pop\n        /* \"contracts/ERC721/ERC721.sol\":5292:5338  _isApprovedOrOwner(owner, msg.sender, tokenId) */\n      tag_103\n        /* \"contracts/ERC721/ERC721.sol\":5311:5316  owner */\n      dup2\n        /* \"contracts/ERC721/ERC721.sol\":5318:5328  msg.sender */\n      caller\n        /* \"contracts/ERC721/ERC721.sol\":5330:5337  tokenId */\n      dup5\n        /* \"contracts/ERC721/ERC721.sol\":5292:5310  _isApprovedOrOwner */\n      tag_104\n        /* \"contracts/ERC721/ERC721.sol\":5292:5338  _isApprovedOrOwner(owner, msg.sender, tokenId) */\n      jump\t// in\n    tag_103:\n        /* \"contracts/ERC721/ERC721.sol\":5271:5386  require(... */\n      tag_105\n      jumpi\n      mload(0x40)\n      0x08c379a000000000000000000000000000000000000000000000000000000000\n      dup2\n      mstore\n      0x04\n      add\n      tag_106\n      swap1\n      tag_107\n      jump\t// in\n    tag_106:\n      mload(0x40)\n      dup1\n      swap2\n      sub\n      swap1\n      revert\n    tag_105:\n        /* \"contracts/ERC721/ERC721.sol\":5396:5431  _transfer(owner, from, to, tokenId) */\n      tag_108\n        /* \"contracts/ERC721/ERC721.sol\":5406:5411  owner */\n      dup2\n        /* \"contracts/ERC721/ERC721.sol\":5413:5417  from */\n      dup6\n        /* \"contracts/ERC721/ERC721.sol\":5419:5421  to */\n      dup6\n        /* \"contracts/ERC721/ERC721.sol\":5423:5430  tokenId */\n      dup6\n        /* \"contracts/ERC721/ERC721.sol\":5396:5405  _transfer */\n      tag_109\n        /* \"contracts/ERC721/ERC721.sol\":5396:5431  _transfer(owner, from, to, tokenId) */\n      jump\t// in\n    tag_108:\n        /* \"contracts/ERC721/ERC721.sol\":5219:5438  {... */\n      pop\n        /* \"contracts/ERC721/ERC721.sol\":5106:5438  function transferFrom(... */\n      pop\n      pop\n      pop\n      jump\t// out\n        /* \"contracts/ERC721/ERC721.sol\":6678:6851  function safeTransferFrom(... */\n    tag_46:\n        /* \"contracts/ERC721/ERC721.sol\":6805:6844  safeTransferFrom(from, to, tokenId, \"\") */\n      tag_111\n        /* \"contracts/ERC721/ERC721.sol\":6822:6826  from */\n      dup4\n        /* \"contracts/ERC721/ERC721.sol\":6828:6830  to */\n      dup4\n        /* \"contracts/ERC721/ERC721.sol\":6832:6839  tokenId */\n      dup4\n        /* \"contracts/ERC721/ERC721.sol\":6805:6844  safeTransferFrom(from, to, tokenId, \"\") */\n      mload(0x40)\n      dup1\n      0x20\n      add\n      0x40\n      mstore\n      dup1\n      0x00\n      dup2\n      mstore\n      pop\n        /* \"contracts/ERC721/ERC721.sol\":6805:6821  safeTransferFrom */\n      tag_71\n        /* \"contracts/ERC721/ERC721.sol\":6805:6844  safeTransferFrom(from, to, tokenId, \"\") */\n      jump\t// in\n    tag_111:\n        /* \"contracts/ERC721/ERC721.sol\":6678:6851  function safeTransferFrom(... */\n      pop\n      pop\n      pop\n      jump\t// out\n        /* \"contracts/ERC721/ERC721.sol\":1964:2181  function ownerOf(uint256 tokenId)... */\n    tag_49:\n        /* \"contracts/ERC721/ERC721.sol\":2060:2073  address owner */\n      0x00\n        /* \"contracts/ERC721/ERC721.sol\":2097:2104  _owners */\n      0x02\n        /* \"contracts/ERC721/ERC721.sol\":2097:2113  _owners[tokenId] */\n      0x00\n        /* \"contracts/ERC721/ERC721.sol\":2105:2112  tokenId */\n      dup4\n        /* \"contracts/ERC721/ERC721.sol\":2097:2113  _owners[tokenId] */\n      dup2\n      mstore\n      0x20\n      add\n      swap1\n      dup2\n      mstore\n      0x20\n      add\n      0x00\n      keccak256\n      0x00\n      swap1\n      sload\n      swap1\n      0x0100\n      exp\n      swap1\n      div\n      0xffffffffffffffffffffffffffffffffffffffff\n      and\n        /* \"contracts/ERC721/ERC721.sol\":2089:2113  owner = _owners[tokenId] */\n      swap1\n      pop\n        /* \"contracts/ERC721/ERC721.sol\":2148:2149  0 */\n      0x00\n        /* \"contracts/ERC721/ERC721.sol\":2131:2150  owner != address(0) */\n      0xffffffffffffffffffffffffffffffffffffffff\n      and\n        /* \"contracts/ERC721/ERC721.sol\":2131:2136  owner */\n      dup2\n        /* \"contracts/ERC721/ERC721.sol\":2131:2150  owner != address(0) */\n      0xffffffffffffffffffffffffffffffffffffffff\n      and\n      sub\n        /* \"contracts/ERC721/ERC721.sol\":2123:2174  require(owner != address(0), \"token doesn't exist\") */\n      tag_113\n      jumpi\n      mload(0x40)\n      0x08c379a000000000000000000000000000000000000000000000000000000000\n      dup2\n      mstore\n      0x04\n      add\n      tag_114\n      swap1\n      tag_93\n      jump\t// in\n    tag_114:\n      mload(0x40)\n      dup1\n      swap2\n      sub\n      swap1\n      revert\n    tag_113:\n        /* \"contracts/ERC721/ERC721.sol\":1964:2181  function ownerOf(uint256 tokenId)... */\n      swap2\n      swap1\n      pop\n      jump\t// out\n        /* \"contracts/ERC721/ERC721.sol\":1132:1244  function getInterfaceId() public view returns (bytes4) {... */\n    tag_52:\n        /* \"contracts/ERC721/ERC721.sol\":1179:1185  bytes4 */\n      0x00\n        /* \"contracts/ERC721/ERC721.sol\":1204:1237  type(IERC721Receiver).interfaceId */\n      0x150b7a0200000000000000000000000000000000000000000000000000000000\n        /* \"contracts/ERC721/ERC721.sol\":1197:1237  return type(IERC721Receiver).interfaceId */\n      swap1\n      pop\n        /* \"contracts/ERC721/ERC721.sol\":1132:1244  function getInterfaceId() public view returns (bytes4) {... */\n      swap1\n      jump\t// out\n        /* \"contracts/ERC721/ERC721.sol\":1704:1881  function balanceOf(address owner) external view override returns (uint256) {... */\n    tag_58:\n        /* \"contracts/ERC721/ERC721.sol\":1770:1777  uint256 */\n      0x00\n        /* \"contracts/ERC721/ERC721.sol\":1814:1815  0 */\n      0x00\n        /* \"contracts/ERC721/ERC721.sol\":1797:1816  owner != address(0) */\n      0xffffffffffffffffffffffffffffffffffffffff\n      and\n        /* \"contracts/ERC721/ERC721.sol\":1797:1802  owner */\n      dup3\n        /* \"contracts/ERC721/ERC721.sol\":1797:1816  owner != address(0) */\n      0xffffffffffffffffffffffffffffffffffffffff\n      and\n      sub\n        /* \"contracts/ERC721/ERC721.sol\":1789:1841  require(owner != address(0), \"owner = zero address\") */\n      tag_117\n      jumpi\n      mload(0x40)\n      0x08c379a000000000000000000000000000000000000000000000000000000000\n      dup2\n      mstore\n      0x04\n      add\n      tag_118\n      swap1\n      tag_119\n      jump\t// in\n    tag_118:\n      mload(0x40)\n      dup1\n      swap2\n      sub\n      swap1\n      revert\n    tag_117:\n        /* \"contracts/ERC721/ERC721.sol\":1858:1867  _balances */\n      0x03\n        /* \"contracts/ERC721/ERC721.sol\":1858:1874  _balances[owner] */\n      0x00\n        /* \"contracts/ERC721/ERC721.sol\":1868:1873  owner */\n      dup4\n        /* \"contracts/ERC721/ERC721.sol\":1858:1874  _balances[owner] */\n      0xffffffffffffffffffffffffffffffffffffffff\n      and\n      0xffffffffffffffffffffffffffffffffffffffff\n      and\n      dup2\n      mstore\n      0x20\n      add\n      swap1\n      dup2\n      mstore\n      0x20\n      add\n      0x00\n      keccak256\n      sload\n        /* \"contracts/ERC721/ERC721.sol\":1851:1874  return _balances[owner] */\n      swap1\n      pop\n        /* \"contracts/ERC721/ERC721.sol\":1704:1881  function balanceOf(address owner) external view override returns (uint256) {... */\n      swap2\n      swap1\n      pop\n      jump\t// out\n        /* \"contracts/ERC721/ERC721.sol\":381:410  string public override symbol */\n    tag_62:\n      0x01\n      dup1\n      sload\n      tag_120\n      swap1\n      tag_85\n      jump\t// in\n    tag_120:\n      dup1\n      0x1f\n      add\n      0x20\n      dup1\n      swap2\n      div\n      mul\n      0x20\n      add\n      mload(0x40)\n      swap1\n      dup2\n      add\n      0x40\n      mstore\n      dup1\n      swap3\n      swap2\n      swap1\n      dup2\n      dup2\n      mstore\n      0x20\n      add\n      dup3\n      dup1\n      sload\n      tag_121\n      swap1\n      tag_85\n      jump\t// in\n    tag_121:\n      dup1\n      iszero\n      tag_122\n      jumpi\n      dup1\n      0x1f\n      lt\n      tag_123\n      jumpi\n      0x0100\n      dup1\n      dup4\n      sload\n      div\n      mul\n      dup4\n      mstore\n      swap2\n      0x20\n      add\n      swap2\n      jump(tag_122)\n    tag_123:\n      dup3\n      add\n      swap2\n      swap1\n      0x00\n      mstore\n      keccak256(0x00, 0x20)\n      swap1\n    tag_124:\n      dup2\n      sload\n      dup2\n      mstore\n      swap1\n      0x01\n      add\n      swap1\n      0x20\n      add\n      dup1\n      dup4\n      gt\n      tag_124\n      jumpi\n      dup3\n      swap1\n      sub\n      0x1f\n      and\n      dup3\n      add\n      swap2\n    tag_122:\n      pop\n      pop\n      pop\n      pop\n      pop\n      dup2\n      jump\t// out\n        /* \"contracts/ERC721/ERC721.sol\":2652:2879  function setApprovalForAll(address operator, bool approved)... */\n    tag_67:\n        /* \"contracts/ERC721/ERC721.sol\":2803:2811  approved */\n      dup1\n        /* \"contracts/ERC721/ERC721.sol\":2760:2778  _operatorApprovals */\n      0x05\n        /* \"contracts/ERC721/ERC721.sol\":2760:2790  _operatorApprovals[msg.sender] */\n      0x00\n        /* \"contracts/ERC721/ERC721.sol\":2779:2789  msg.sender */\n      caller\n        /* \"contracts/ERC721/ERC721.sol\":2760:2790  _operatorApprovals[msg.sender] */\n      0xffffffffffffffffffffffffffffffffffffffff\n      and\n      0xffffffffffffffffffffffffffffffffffffffff\n      and\n      dup2\n      mstore\n      0x20\n      add\n      swap1\n      dup2\n      mstore\n      0x20\n      add\n      0x00\n      keccak256\n        /* \"contracts/ERC721/ERC721.sol\":2760:2800  _operatorApprovals[msg.sender][operator] */\n      0x00\n        /* \"contracts/ERC721/ERC721.sol\":2791:2799  operator */\n      dup5\n        /* \"contracts/ERC721/ERC721.sol\":2760:2800  _operatorApprovals[msg.sender][operator] */\n      0xffffffffffffffffffffffffffffffffffffffff\n      and\n      0xffffffffffffffffffffffffffffffffffffffff\n      and\n      dup2\n      mstore\n      0x20\n      add\n      swap1\n      dup2\n      mstore\n      0x20\n      add\n      0x00\n      keccak256\n      0x00\n        /* \"contracts/ERC721/ERC721.sol\":2760:2811  _operatorApprovals[msg.sender][operator] = approved */\n      0x0100\n      exp\n      dup2\n      sload\n      dup2\n      0xff\n      mul\n      not\n      and\n      swap1\n      dup4\n      iszero\n      iszero\n      mul\n      or\n      swap1\n      sstore\n      pop\n        /* \"contracts/ERC721/ERC721.sol\":2853:2861  operator */\n      dup2\n        /* \"contracts/ERC721/ERC721.sol\":2826:2872  ApprovalForAll(msg.sender, operator, approved) */\n      0xffffffffffffffffffffffffffffffffffffffff\n      and\n        /* \"contracts/ERC721/ERC721.sol\":2841:2851  msg.sender */\n      caller\n        /* \"contracts/ERC721/ERC721.sol\":2826:2872  ApprovalForAll(msg.sender, operator, approved) */\n      0xffffffffffffffffffffffffffffffffffffffff\n      and\n      0x17307eab39ab6107e8899845ad3d59bd9653f200f220920489ca2b5937696c31\n        /* \"contracts/ERC721/ERC721.sol\":2863:2871  approved */\n      dup4\n        /* \"contracts/ERC721/ERC721.sol\":2826:2872  ApprovalForAll(msg.sender, operator, approved) */\n      mload(0x40)\n      tag_126\n      swap2\n      swap1\n      tag_25\n      jump\t// in\n    tag_126:\n      mload(0x40)\n      dup1\n      swap2\n      sub\n      swap1\n      log3\n        /* \"contracts/ERC721/ERC721.sol\":2652:2879  function setApprovalForAll(address operator, bool approved)... */\n      pop\n      pop\n      jump\t// out\n        /* \"contracts/ERC721/ERC721.sol\":6263:6636  function safeTransferFrom(... */\n    tag_71:\n        /* \"contracts/ERC721/ERC721.sol\":6416:6429  address owner */\n      0x00\n        /* \"contracts/ERC721/ERC721.sol\":6432:6448  ownerOf(tokenId) */\n      tag_128\n        /* \"contracts/ERC721/ERC721.sol\":6440:6447  tokenId */\n      dup4\n        /* \"contracts/ERC721/ERC721.sol\":6432:6439  ownerOf */\n      tag_49\n        /* \"contracts/ERC721/ERC721.sol\":6432:6448  ownerOf(tokenId) */\n      jump\t// in\n    tag_128:\n        /* \"contracts/ERC721/ERC721.sol\":6416:6448  address owner = ownerOf(tokenId) */\n      swap1\n      pop\n        /* \"contracts/ERC721/ERC721.sol\":6479:6525  _isApprovedOrOwner(owner, msg.sender, tokenId) */\n      tag_129\n        /* \"contracts/ERC721/ERC721.sol\":6498:6503  owner */\n      dup2\n        /* \"contracts/ERC721/ERC721.sol\":6505:6515  msg.sender */\n      caller\n        /* \"contracts/ERC721/ERC721.sol\":6517:6524  tokenId */\n      dup6\n        /* \"contracts/ERC721/ERC721.sol\":6479:6497  _isApprovedOrOwner */\n      tag_104\n        /* \"contracts/ERC721/ERC721.sol\":6479:6525  _isApprovedOrOwner(owner, msg.sender, tokenId) */\n      jump\t// in\n    tag_129:\n        /* \"contracts/ERC721/ERC721.sol\":6458:6573  require(... */\n      tag_130\n      jumpi\n      mload(0x40)\n      0x08c379a000000000000000000000000000000000000000000000000000000000\n      dup2\n      mstore\n      0x04\n      add\n      tag_131\n      swap1\n      tag_107\n      jump\t// in\n    tag_131:\n      mload(0x40)\n      dup1\n      swap2\n      sub\n      swap1\n      revert\n    tag_130:\n        /* \"contracts/ERC721/ERC721.sol\":6583:6629  _safeTransfer(owner, from, to, tokenId, _data) */\n      tag_132\n        /* \"contracts/ERC721/ERC721.sol\":6597:6602  owner */\n      dup2\n        /* \"contracts/ERC721/ERC721.sol\":6604:6608  from */\n      dup7\n        /* \"contracts/ERC721/ERC721.sol\":6610:6612  to */\n      dup7\n        /* \"contracts/ERC721/ERC721.sol\":6614:6621  tokenId */\n      dup7\n        /* \"contracts/ERC721/ERC721.sol\":6623:6628  _data */\n      dup7\n        /* \"contracts/ERC721/ERC721.sol\":6583:6596  _safeTransfer */\n      tag_133\n        /* \"contracts/ERC721/ERC721.sol\":6583:6629  _safeTransfer(owner, from, to, tokenId, _data) */\n      jump\t// in\n    tag_132:\n        /* \"contracts/ERC721/ERC721.sol\":6406:6636  {... */\n      pop\n        /* \"contracts/ERC721/ERC721.sol\":6263:6636  function safeTransferFrom(... */\n      pop\n      pop\n      pop\n      pop\n      jump\t// out\n        /* \"contracts/ERC721/ERC721.sol\":9257:9656  function tokenURI(uint256 tokenId)... */\n    tag_74:\n        /* \"contracts/ERC721/ERC721.sol\":9370:9383  string memory */\n      0x60\n        /* \"contracts/ERC721/ERC721.sol\":9435:9436  0 */\n      0x00\n        /* \"contracts/ERC721/ERC721.sol\":9407:9437  _owners[tokenId] != address(0) */\n      0xffffffffffffffffffffffffffffffffffffffff\n      and\n        /* \"contracts/ERC721/ERC721.sol\":9407:9414  _owners */\n      0x02\n        /* \"contracts/ERC721/ERC721.sol\":9407:9423  _owners[tokenId] */\n      0x00\n        /* \"contracts/ERC721/ERC721.sol\":9415:9422  tokenId */\n      dup5\n        /* \"contracts/ERC721/ERC721.sol\":9407:9423  _owners[tokenId] */\n      dup2\n      mstore\n      0x20\n      add\n      swap1\n      dup2\n      mstore\n      0x20\n      add\n      0x00\n      keccak256\n      0x00\n      swap1\n      sload\n      swap1\n      0x0100\n      exp\n      swap1\n      div\n      0xffffffffffffffffffffffffffffffffffffffff\n      and\n        /* \"contracts/ERC721/ERC721.sol\":9407:9437  _owners[tokenId] != address(0) */\n      0xffffffffffffffffffffffffffffffffffffffff\n      and\n      sub\n        /* \"contracts/ERC721/ERC721.sol\":9399:9457  require(_owners[tokenId] != address(0), \"Token Not Exist\") */\n      tag_135\n      jumpi\n      mload(0x40)\n      0x08c379a000000000000000000000000000000000000000000000000000000000\n      dup2\n      mstore\n      0x04\n      add\n      tag_136\n      swap1\n      tag_137\n      jump\t// in\n    tag_136:\n      mload(0x40)\n      dup1\n      swap2\n      sub\n      swap1\n      revert\n    tag_135:\n        /* \"contracts/ERC721/ERC721.sol\":9468:9489  string memory baseURI */\n      0x00\n        /* \"contracts/ERC721/ERC721.sol\":9492:9502  _baseURI() */\n      tag_138\n        /* \"contracts/ERC721/ERC721.sol\":9492:9500  _baseURI */\n      tag_139\n        /* \"contracts/ERC721/ERC721.sol\":9492:9502  _baseURI() */\n      jump\t// in\n    tag_138:\n        /* \"contracts/ERC721/ERC721.sol\":9468:9502  string memory baseURI = _baseURI() */\n      swap1\n      pop\n        /* \"contracts/ERC721/ERC721.sol\":9555:9556  0 */\n      0x00\n        /* \"contracts/ERC721/ERC721.sol\":9537:9544  baseURI */\n      dup2\n        /* \"contracts/ERC721/ERC721.sol\":9531:9552  bytes(baseURI).length */\n      mload\n        /* \"contracts/ERC721/ERC721.sol\":9531:9556  bytes(baseURI).length > 0 */\n      gt\n        /* \"contracts/ERC721/ERC721.sol\":9531:9649  bytes(baseURI).length > 0... */\n      tag_140\n      jumpi\n      mload(0x40)\n      dup1\n      0x20\n      add\n      0x40\n      mstore\n      dup1\n      0x00\n      dup2\n      mstore\n      pop\n      jump(tag_141)\n    tag_140:\n        /* \"contracts/ERC721/ERC721.sol\":9599:9606  baseURI */\n      dup1\n        /* \"contracts/ERC721/ERC721.sol\":9608:9626  tokenId.toString() */\n      tag_142\n        /* \"contracts/ERC721/ERC721.sol\":9608:9615  tokenId */\n      dup5\n        /* \"contracts/ERC721/ERC721.sol\":9608:9624  tokenId.toString */\n      tag_143\n        /* \"contracts/ERC721/ERC721.sol\":9608:9626  tokenId.toString() */\n      jump\t// in\n    tag_142:\n        /* \"contracts/ERC721/ERC721.sol\":9582:9627  abi.encodePacked(baseURI, tokenId.toString()) */\n      add(0x20, mload(0x40))\n      tag_144\n      swap3\n      swap2\n      swap1\n      tag_145\n      jump\t// in\n    tag_144:\n      mload(0x40)\n      0x20\n      dup2\n      dup4\n      sub\n      sub\n      dup2\n      mstore\n      swap1\n      0x40\n      mstore\n        /* \"contracts/ERC721/ERC721.sol\":9531:9649  bytes(baseURI).length > 0... */\n    tag_141:\n        /* \"contracts/ERC721/ERC721.sol\":9512:9649  return... */\n      swap2\n      pop\n      pop\n        /* \"contracts/ERC721/ERC721.sol\":9257:9656  function tokenURI(uint256 tokenId)... */\n      swap2\n      swap1\n      pop\n      jump\t// out\n        /* \"contracts/ERC721/ERC721.sol\":2330:2522  function isApprovedForAll(address owner, address operator)... */\n    tag_79:\n        /* \"contracts/ERC721/ERC721.sol\":2453:2457  bool */\n      0x00\n        /* \"contracts/ERC721/ERC721.sol\":2480:2498  _operatorApprovals */\n      0x05\n        /* \"contracts/ERC721/ERC721.sol\":2480:2505  _operatorApprovals[owner] */\n      0x00\n        /* \"contracts/ERC721/ERC721.sol\":2499:2504  owner */\n      dup5\n        /* \"contracts/ERC721/ERC721.sol\":2480:2505  _operatorApprovals[owner] */\n      0xffffffffffffffffffffffffffffffffffffffff\n      and\n      0xffffffffffffffffffffffffffffffffffffffff\n      and\n      dup2\n      mstore\n      0x20\n      add\n      swap1\n      dup2\n      mstore\n      0x20\n      add\n      0x00\n      keccak256\n        /* \"contracts/ERC721/ERC721.sol\":2480:2515  _operatorApprovals[owner][operator] */\n      0x00\n        /* \"contracts/ERC721/ERC721.sol\":2506:2514  operator */\n      dup4\n        /* \"contracts/ERC721/ERC721.sol\":2480:2515  _operatorApprovals[owner][operator] */\n      0xffffffffffffffffffffffffffffffffffffffff\n      and\n      0xffffffffffffffffffffffffffffffffffffffff\n      and\n      dup2\n      mstore\n      0x20\n      add\n      swap1\n      dup2\n      mstore\n      0x20\n      add\n      0x00\n      keccak256\n      0x00\n      swap1\n      sload\n      swap1\n      0x0100\n      exp\n      swap1\n      div\n      0xff\n      and\n        /* \"contracts/ERC721/ERC721.sol\":2473:2515  return _operatorApprovals[owner][operator] */\n      swap1\n      pop\n        /* \"contracts/ERC721/ERC721.sol\":2330:2522  function isApprovedForAll(address owner, address operator)... */\n      swap3\n      swap2\n      pop\n      pop\n      jump\t// out\n        /* \"contracts/ERC721/ERC721.sol\":3340:3529  function _approve(... */\n    tag_100:\n        /* \"contracts/ERC721/ERC721.sol\":3477:3479  to */\n      dup2\n        /* \"contracts/ERC721/ERC721.sol\":3450:3465  _tokenApprovals */\n      0x04\n        /* \"contracts/ERC721/ERC721.sol\":3450:3474  _tokenApprovals[tokenId] */\n      0x00\n        /* \"contracts/ERC721/ERC721.sol\":3466:3473  tokenId */\n      dup4\n        /* \"contracts/ERC721/ERC721.sol\":3450:3474  _tokenApprovals[tokenId] */\n      dup2\n      mstore\n      0x20\n      add\n      swap1\n      dup2\n      mstore\n      0x20\n      add\n      0x00\n      keccak256\n      0x00\n        /* \"contracts/ERC721/ERC721.sol\":3450:3479  _tokenApprovals[tokenId] = to */\n      0x0100\n      exp\n      dup2\n      sload\n      dup2\n      0xffffffffffffffffffffffffffffffffffffffff\n      mul\n      not\n      and\n      swap1\n      dup4\n      0xffffffffffffffffffffffffffffffffffffffff\n      and\n      mul\n      or\n      swap1\n      sstore\n      pop\n        /* \"contracts/ERC721/ERC721.sol\":3514:3521  tokenId */\n      dup1\n        /* \"contracts/ERC721/ERC721.sol\":3510:3512  to */\n      dup3\n        /* \"contracts/ERC721/ERC721.sol\":3494:3522  Approval(owner, to, tokenId) */\n      0xffffffffffffffffffffffffffffffffffffffff\n      and\n        /* \"contracts/ERC721/ERC721.sol\":3503:3508  owner */\n      dup5\n        /* \"contracts/ERC721/ERC721.sol\":3494:3522  Approval(owner, to, tokenId) */\n      0xffffffffffffffffffffffffffffffffffffffff\n      and\n      0x8c5be1e5ebec7d5bd14f71427d1e84f3dd0314c0f7b2291e5b200ac8c7c3b925\n      mload(0x40)\n      mload(0x40)\n      dup1\n      swap2\n      sub\n      swap1\n      log4\n        /* \"contracts/ERC721/ERC721.sol\":3340:3529  function _approve(... */\n      pop\n      pop\n      pop\n      jump\t// out\n        /* \"contracts/ERC721/ERC721.sol\":4083:4361  function _isApprovedOrOwner(... */\n    tag_104:\n        /* \"contracts/ERC721/ERC721.sol\":4212:4216  bool */\n      0x00\n        /* \"contracts/ERC721/ERC721.sol\":4247:4252  owner */\n      dup4\n        /* \"contracts/ERC721/ERC721.sol\":4236:4252  spender == owner */\n      0xffffffffffffffffffffffffffffffffffffffff\n      and\n        /* \"contracts/ERC721/ERC721.sol\":4236:4243  spender */\n      dup4\n        /* \"contracts/ERC721/ERC721.sol\":4236:4252  spender == owner */\n      0xffffffffffffffffffffffffffffffffffffffff\n      and\n      eq\n        /* \"contracts/ERC721/ERC721.sol\":4236:4303  spender == owner ||... */\n      dup1\n      tag_149\n      jumpi\n      pop\n        /* \"contracts/ERC721/ERC721.sol\":4296:4303  spender */\n      dup3\n        /* \"contracts/ERC721/ERC721.sol\":4268:4303  _tokenApprovals[tokenId] == spender */\n      0xffffffffffffffffffffffffffffffffffffffff\n      and\n        /* \"contracts/ERC721/ERC721.sol\":4268:4283  _tokenApprovals */\n      0x04\n        /* \"contracts/ERC721/ERC721.sol\":4268:4292  _tokenApprovals[tokenId] */\n      0x00\n        /* \"contracts/ERC721/ERC721.sol\":4284:4291  tokenId */\n      dup5\n        /* \"contracts/ERC721/ERC721.sol\":4268:4292  _tokenApprovals[tokenId] */\n      dup2\n      mstore\n      0x20\n      add\n      swap1\n      dup2\n      mstore\n      0x20\n      add\n      0x00\n      keccak256\n      0x00\n      swap1\n      sload\n      swap1\n      0x0100\n      exp\n      swap1\n      div\n      0xffffffffffffffffffffffffffffffffffffffff\n      and\n        /* \"contracts/ERC721/ERC721.sol\":4268:4303  _tokenApprovals[tokenId] == spender */\n      0xffffffffffffffffffffffffffffffffffffffff\n      and\n      eq\n        /* \"contracts/ERC721/ERC721.sol\":4236:4303  spender == owner ||... */\n    tag_149:\n        /* \"contracts/ERC721/ERC721.sol\":4236:4353  spender == owner ||... */\n      dup1\n      tag_150\n      jumpi\n      pop\n        /* \"contracts/ERC721/ERC721.sol\":4319:4337  _operatorApprovals */\n      0x05\n        /* \"contracts/ERC721/ERC721.sol\":4319:4344  _operatorApprovals[owner] */\n      0x00\n        /* \"contracts/ERC721/ERC721.sol\":4338:4343  owner */\n      dup6\n        /* \"contracts/ERC721/ERC721.sol\":4319:4344  _operatorApprovals[owner] */\n      0xffffffffffffffffffffffffffffffffffffffff\n      and\n      0xffffffffffffffffffffffffffffffffffffffff\n      and\n      dup2\n      mstore\n      0x20\n      add\n      swap1\n      dup2\n      mstore\n      0x20\n      add\n      0x00\n      keccak256\n        /* \"contracts/ERC721/ERC721.sol\":4319:4353  _operatorApprovals[owner][spender] */\n      0x00\n        /* \"contracts/ERC721/ERC721.sol\":4345:4352  spender */\n      dup5\n        /* \"contracts/ERC721/ERC721.sol\":4319:4353  _operatorApprovals[owner][spender] */\n      0xffffffffffffffffffffffffffffffffffffffff\n      and\n      0xffffffffffffffffffffffffffffffffffffffff\n      and\n      dup2\n      mstore\n      0x20\n      add\n      swap1\n      dup2\n      mstore\n      0x20\n      add\n      0x00\n      keccak256\n      0x00\n      swap1\n      sload\n      swap1\n      0x0100\n      exp\n      swap1\n      div\n      0xff\n      and\n        /* \"contracts/ERC721/ERC721.sol\":4236:4353  spender == owner ||... */\n    tag_150:\n        /* \"contracts/ERC721/ERC721.sol\":4228:4354  return (spender == owner ||... */\n      swap1\n      pop\n        /* \"contracts/ERC721/ERC721.sol\":4083:4361  function _isApprovedOrOwner(... */\n      swap4\n      swap3\n      pop\n      pop\n      pop\n      jump\t// out\n        /* \"contracts/ERC721/ERC721.sol\":4582:5004  function _transfer(... */\n    tag_109:\n        /* \"contracts/ERC721/ERC721.sol\":4731:4736  owner */\n      dup4\n        /* \"contracts/ERC721/ERC721.sol\":4723:4736  from == owner */\n      0xffffffffffffffffffffffffffffffffffffffff\n      and\n        /* \"contracts/ERC721/ERC721.sol\":4723:4727  from */\n      dup4\n        /* \"contracts/ERC721/ERC721.sol\":4723:4736  from == owner */\n      0xffffffffffffffffffffffffffffffffffffffff\n      and\n      eq\n        /* \"contracts/ERC721/ERC721.sol\":4715:4750  require(from == owner, \"not owner\") */\n      tag_152\n      jumpi\n      mload(0x40)\n      0x08c379a000000000000000000000000000000000000000000000000000000000\n      dup2\n      mstore\n      0x04\n      add\n      tag_153\n      swap1\n      tag_154\n      jump\t// in\n    tag_153:\n      mload(0x40)\n      dup1\n      swap2\n      sub\n      swap1\n      revert\n    tag_152:\n        /* \"contracts/ERC721/ERC721.sol\":4782:4783  0 */\n      0x00\n        /* \"contracts/ERC721/ERC721.sol\":4768:4784  to != address(0) */\n      0xffffffffffffffffffffffffffffffffffffffff\n      and\n        /* \"contracts/ERC721/ERC721.sol\":4768:4770  to */\n      dup3\n        /* \"contracts/ERC721/ERC721.sol\":4768:4784  to != address(0) */\n      0xffffffffffffffffffffffffffffffffffffffff\n      and\n      sub\n        /* \"contracts/ERC721/ERC721.sol\":4760:4817  require(to != address(0), \"transfer to the zero address\") */\n      tag_155\n      jumpi\n      mload(0x40)\n      0x08c379a000000000000000000000000000000000000000000000000000000000\n      dup2\n      mstore\n      0x04\n      add\n      tag_156\n      swap1\n      tag_157\n      jump\t// in\n    tag_156:\n      mload(0x40)\n      dup1\n      swap2\n      sub\n      swap1\n      revert\n    tag_155:\n        /* \"contracts/ERC721/ERC721.sol\":4828:4864  _approve(owner, address(0), tokenId) */\n      tag_158\n        /* \"contracts/ERC721/ERC721.sol\":4837:4842  owner */\n      dup5\n        /* \"contracts/ERC721/ERC721.sol\":4852:4853  0 */\n      0x00\n        /* \"contracts/ERC721/ERC721.sol\":4856:4863  tokenId */\n      dup4\n        /* \"contracts/ERC721/ERC721.sol\":4828:4836  _approve */\n      tag_100\n        /* \"contracts/ERC721/ERC721.sol\":4828:4864  _approve(owner, address(0), tokenId) */\n      jump\t// in\n    tag_158:\n        /* \"contracts/ERC721/ERC721.sol\":4894:4895  1 */\n      0x01\n        /* \"contracts/ERC721/ERC721.sol\":4875:4884  _balances */\n      0x03\n        /* \"contracts/ERC721/ERC721.sol\":4875:4890  _balances[from] */\n      0x00\n        /* \"contracts/ERC721/ERC721.sol\":4885:4889  from */\n      dup6\n        /* \"contracts/ERC721/ERC721.sol\":4875:4890  _balances[from] */\n      0xffffffffffffffffffffffffffffffffffffffff\n      and\n      0xffffffffffffffffffffffffffffffffffffffff\n      and\n      dup2\n      mstore\n      0x20\n      add\n      swap1\n      dup2\n      mstore\n      0x20\n      add\n      0x00\n      keccak256\n      0x00\n        /* \"contracts/ERC721/ERC721.sol\":4875:4895  _balances[from] -= 1 */\n      dup3\n      dup3\n      sload\n      tag_159\n      swap2\n      swap1\n      tag_160\n      jump\t// in\n    tag_159:\n      swap3\n      pop\n      pop\n      dup2\n      swap1\n      sstore\n      pop\n        /* \"contracts/ERC721/ERC721.sol\":4922:4923  1 */\n      0x01\n        /* \"contracts/ERC721/ERC721.sol\":4905:4914  _balances */\n      0x03\n        /* \"contracts/ERC721/ERC721.sol\":4905:4918  _balances[to] */\n      0x00\n        /* \"contracts/ERC721/ERC721.sol\":4915:4917  to */\n      dup5\n        /* \"contracts/ERC721/ERC721.sol\":4905:4918  _balances[to] */\n      0xffffffffffffffffffffffffffffffffffffffff\n      and\n      0xffffffffffffffffffffffffffffffffffffffff\n      and\n      dup2\n      mstore\n      0x20\n      add\n      swap1\n      dup2\n      mstore\n      0x20\n      add\n      0x00\n      keccak256\n      0x00\n        /* \"contracts/ERC721/ERC721.sol\":4905:4923  _balances[to] += 1 */\n      dup3\n      dup3\n      sload\n      tag_161\n      swap2\n      swap1\n      tag_162\n      jump\t// in\n    tag_161:\n      swap3\n      pop\n      pop\n      dup2\n      swap1\n      sstore\n      pop\n        /* \"contracts/ERC721/ERC721.sol\":4952:4954  to */\n      dup2\n        /* \"contracts/ERC721/ERC721.sol\":4933:4940  _owners */\n      0x02\n        /* \"contracts/ERC721/ERC721.sol\":4933:4949  _owners[tokenId] */\n      0x00\n        /* \"contracts/ERC721/ERC721.sol\":4941:4948  tokenId */\n      dup4\n        /* \"contracts/ERC721/ERC721.sol\":4933:4949  _owners[tokenId] */\n      dup2\n      mstore\n      0x20\n      add\n      swap1\n      dup2\n      mstore\n      0x20\n      add\n      0x00\n      keccak256\n      0x00\n        /* \"contracts/ERC721/ERC721.sol\":4933:4954  _owners[tokenId] = to */\n      0x0100\n      exp\n      dup2\n      sload\n      dup2\n      0xffffffffffffffffffffffffffffffffffffffff\n      mul\n      not\n      and\n      swap1\n      dup4\n      0xffffffffffffffffffffffffffffffffffffffff\n      and\n      mul\n      or\n      swap1\n      sstore\n      pop\n        /* \"contracts/ERC721/ERC721.sol\":4989:4996  tokenId */\n      dup1\n        /* \"contracts/ERC721/ERC721.sol\":4985:4987  to */\n      dup3\n        /* \"contracts/ERC721/ERC721.sol\":4970:4997  Transfer(from, to, tokenId) */\n      0xffffffffffffffffffffffffffffffffffffffff\n      and\n        /* \"contracts/ERC721/ERC721.sol\":4979:4983  from */\n      dup5\n        /* \"contracts/ERC721/ERC721.sol\":4970:4997  Transfer(from, to, tokenId) */\n      0xffffffffffffffffffffffffffffffffffffffff\n      and\n      0xddf252ad1be2c89b69c2b068fc378daa952ba7f163c4a11628f55a4df523b3ef\n      mload(0x40)\n      mload(0x40)\n      dup1\n      swap2\n      sub\n      swap1\n      log4\n        /* \"contracts/ERC721/ERC721.sol\":4582:5004  function _transfer(... */\n      pop\n      pop\n      pop\n      pop\n      jump\t// out\n        /* \"contracts/ERC721/ERC721.sol\":5887:6152  function _safeTransfer(... */\n    tag_133:\n        /* \"contracts/ERC721/ERC721.sol\":6052:6087  _transfer(owner, from, to, tokenId) */\n      tag_164\n        /* \"contracts/ERC721/ERC721.sol\":6062:6067  owner */\n      dup6\n        /* \"contracts/ERC721/ERC721.sol\":6069:6073  from */\n      dup6\n        /* \"contracts/ERC721/ERC721.sol\":6075:6077  to */\n      dup6\n        /* \"contracts/ERC721/ERC721.sol\":6079:6086  tokenId */\n      dup6\n        /* \"contracts/ERC721/ERC721.sol\":6052:6061  _transfer */\n      tag_109\n        /* \"contracts/ERC721/ERC721.sol\":6052:6087  _transfer(owner, from, to, tokenId) */\n      jump\t// in\n    tag_164:\n        /* \"contracts/ERC721/ERC721.sol\":6097:6145  _checkOnERC721Received(from, to, tokenId, _data) */\n      tag_165\n        /* \"contracts/ERC721/ERC721.sol\":6120:6124  from */\n      dup5\n        /* \"contracts/ERC721/ERC721.sol\":6126:6128  to */\n      dup5\n        /* \"contracts/ERC721/ERC721.sol\":6130:6137  tokenId */\n      dup5\n        /* \"contracts/ERC721/ERC721.sol\":6139:6144  _data */\n      dup5\n        /* \"contracts/ERC721/ERC721.sol\":6097:6119  _checkOnERC721Received */\n      tag_166\n        /* \"contracts/ERC721/ERC721.sol\":6097:6145  _checkOnERC721Received(from, to, tokenId, _data) */\n      jump\t// in\n    tag_165:\n        /* \"contracts/ERC721/ERC721.sol\":5887:6152  function _safeTransfer(... */\n      pop\n      pop\n      pop\n      pop\n      pop\n      jump\t// out\n        /* \"contracts/ERC721/ERC721.sol\":9867:9959  function _baseURI() internal view virtual returns (string memory) {... */\n    tag_139:\n        /* \"contracts/ERC721/ERC721.sol\":9918:9931  string memory */\n      0x60\n        /* \"contracts/ERC721/ERC721.sol\":9943:9952  return \"\" */\n      mload(0x40)\n      dup1\n      0x20\n      add\n      0x40\n      mstore\n      dup1\n      0x00\n      dup2\n      mstore\n      pop\n      swap1\n      pop\n        /* \"contracts/ERC721/ERC721.sol\":9867:9959  function _baseURI() internal view virtual returns (string memory) {... */\n      swap1\n      jump\t// out\n        /* \"contracts/ERC721/String.sol\":408:1131  function toString(uint256 value) internal pure returns (string memory) {... */\n    tag_143:\n        /* \"contracts/ERC721/String.sol\":464:477  string memory */\n      0x60\n        /* \"contracts/ERC721/String.sol\":694:695  0 */\n      0x00\n        /* \"contracts/ERC721/String.sol\":685:690  value */\n      dup3\n        /* \"contracts/ERC721/String.sol\":685:695  value == 0 */\n      sub\n        /* \"contracts/ERC721/String.sol\":681:734  if (value == 0) {... */\n      tag_169\n      jumpi\n        /* \"contracts/ERC721/String.sol\":712:722  return \"0\" */\n      mload(0x40)\n      dup1\n      0x40\n      add\n      0x40\n      mstore\n      dup1\n      0x01\n      dup2\n      mstore\n      0x20\n      add\n      0x3000000000000000000000000000000000000000000000000000000000000000\n      dup2\n      mstore\n      pop\n      swap1\n      pop\n      jump(tag_168)\n        /* \"contracts/ERC721/String.sol\":681:734  if (value == 0) {... */\n    tag_169:\n        /* \"contracts/ERC721/String.sol\":744:756  uint256 temp */\n      0x00\n        /* \"contracts/ERC721/String.sol\":759:764  value */\n      dup3\n        /* \"contracts/ERC721/String.sol\":744:764  uint256 temp = value */\n      swap1\n      pop\n        /* \"contracts/ERC721/String.sol\":775:789  uint256 digits */\n      0x00\n        /* \"contracts/ERC721/String.sol\":800:878  while (temp != 0) {... */\n    tag_170:\n        /* \"contracts/ERC721/String.sol\":815:816  0 */\n      0x00\n        /* \"contracts/ERC721/String.sol\":807:811  temp */\n      dup3\n        /* \"contracts/ERC721/String.sol\":807:816  temp != 0 */\n      eq\n        /* \"contracts/ERC721/String.sol\":800:878  while (temp != 0) {... */\n      tag_171\n      jumpi\n        /* \"contracts/ERC721/String.sol\":833:841  digits++ */\n      dup1\n      dup1\n      tag_172\n      swap1\n      tag_173\n      jump\t// in\n    tag_172:\n      swap2\n      pop\n      pop\n        /* \"contracts/ERC721/String.sol\":864:866  10 */\n      0x0a\n        /* \"contracts/ERC721/String.sol\":856:866  temp /= 10 */\n      dup3\n      tag_174\n      swap2\n      swap1\n      tag_175\n      jump\t// in\n    tag_174:\n      swap2\n      pop\n        /* \"contracts/ERC721/String.sol\":800:878  while (temp != 0) {... */\n      jump(tag_170)\n    tag_171:\n        /* \"contracts/ERC721/String.sol\":888:907  bytes memory buffer */\n      0x00\n        /* \"contracts/ERC721/String.sol\":920:926  digits */\n      dup2\n        /* \"contracts/ERC721/String.sol\":910:927  new bytes(digits) */\n      0xffffffffffffffff\n      dup2\n      gt\n      iszero\n      tag_176\n      jumpi\n      tag_177\n      tag_178\n      jump\t// in\n    tag_177:\n    tag_176:\n      mload(0x40)\n      swap1\n      dup1\n      dup3\n      mstore\n      dup1\n      0x1f\n      add\n      not(0x1f)\n      and\n      0x20\n      add\n      dup3\n      add\n      0x40\n      mstore\n      dup1\n      iszero\n      tag_179\n      jumpi\n      dup2\n      0x20\n      add\n      0x01\n      dup3\n      mul\n      dup1\n      calldatasize\n      dup4\n      calldatacopy\n      dup1\n      dup3\n      add\n      swap2\n      pop\n      pop\n      swap1\n      pop\n    tag_179:\n      pop\n        /* \"contracts/ERC721/String.sol\":888:927  bytes memory buffer = new bytes(digits) */\n      swap1\n      pop\n        /* \"contracts/ERC721/String.sol\":938:1092  while (value != 0) {... */\n    tag_180:\n        /* \"contracts/ERC721/String.sol\":954:955  0 */\n      0x00\n        /* \"contracts/ERC721/String.sol\":945:950  value */\n      dup6\n        /* \"contracts/ERC721/String.sol\":945:955  value != 0 */\n      eq\n        /* \"contracts/ERC721/String.sol\":938:1092  while (value != 0) {... */\n      tag_181\n      jumpi\n        /* \"contracts/ERC721/String.sol\":982:983  1 */\n      0x01\n        /* \"contracts/ERC721/String.sol\":972:983  digits -= 1 */\n      dup3\n      tag_182\n      swap2\n      swap1\n      tag_160\n      jump\t// in\n    tag_182:\n      swap2\n      pop\n        /* \"contracts/ERC721/String.sol\":1049:1051  10 */\n      0x0a\n        /* \"contracts/ERC721/String.sol\":1041:1046  value */\n      dup6\n        /* \"contracts/ERC721/String.sol\":1041:1051  value % 10 */\n      tag_183\n      swap2\n      swap1\n      tag_184\n      jump\t// in\n    tag_183:\n        /* \"contracts/ERC721/String.sol\":1028:1030  48 */\n      0x30\n        /* \"contracts/ERC721/String.sol\":1028:1052  48 + uint256(value % 10) */\n      tag_185\n      swap2\n      swap1\n      tag_162\n      jump\t// in\n    tag_185:\n        /* \"contracts/ERC721/String.sol\":1015:1054  bytes1(uint8(48 + uint256(value % 10))) */\n      0xf8\n      shl\n        /* \"contracts/ERC721/String.sol\":998:1004  buffer */\n      dup2\n        /* \"contracts/ERC721/String.sol\":1005:1011  digits */\n      dup4\n        /* \"contracts/ERC721/String.sol\":998:1012  buffer[digits] */\n      dup2\n      mload\n      dup2\n      lt\n      tag_186\n      jumpi\n      tag_187\n      tag_188\n      jump\t// in\n    tag_187:\n    tag_186:\n      0x20\n      add\n      add\n        /* \"contracts/ERC721/String.sol\":998:1054  buffer[digits] = bytes1(uint8(48 + uint256(value % 10))) */\n      swap1\n      not(0xffffffffffffffffffffffffffffffffffffffffffffffffffffffffffffff)\n      and\n      swap1\n      dup2\n      0x00\n      byte\n      swap1\n      mstore8\n      pop\n        /* \"contracts/ERC721/String.sol\":1078:1080  10 */\n      0x0a\n        /* \"contracts/ERC721/String.sol\":1069:1080  value /= 10 */\n      dup6\n      tag_189\n      swap2\n      swap1\n      tag_175\n      jump\t// in\n    tag_189:\n      swap5\n      pop\n        /* \"contracts/ERC721/String.sol\":938:1092  while (value != 0) {... */\n      jump(tag_180)\n    tag_181:\n        /* \"contracts/ERC721/String.sol\":1116:1122  buffer */\n      dup1\n        /* \"contracts/ERC721/String.sol\":1102:1123  return string(buffer) */\n      swap4\n      pop\n      pop\n      pop\n      pop\n        /* \"contracts/ERC721/String.sol\":408:1131  function toString(uint256 value) internal pure returns (string memory) {... */\n    tag_168:\n      swap2\n      swap1\n      pop\n      jump\t// out\n        /* \"contracts/ERC721/ERC721.sol\":8225:9169  function _checkOnERC721Received(... */\n    tag_166:\n        /* \"contracts/ERC721/ERC721.sol\":8396:8397  0 */\n      0x00\n        /* \"contracts/ERC721/ERC721.sol\":8379:8381  to */\n      dup4\n        /* \"contracts/ERC721/ERC721.sol\":8379:8393  to.code.length */\n      0xffffffffffffffffffffffffffffffffffffffff\n      and\n      extcodesize\n        /* \"contracts/ERC721/ERC721.sol\":8379:8397  to.code.length > 0 */\n      gt\n        /* \"contracts/ERC721/ERC721.sol\":8375:9163  if (to.code.length > 0) {... */\n      iszero\n      tag_191\n      jumpi\n        /* \"contracts/ERC721/ERC721.sol\":8449:8451  to */\n      dup3\n        /* \"contracts/ERC721/ERC721.sol\":8433:8469  IERC721Receiver(to).onERC721Received */\n      0xffffffffffffffffffffffffffffffffffffffff\n      and\n      0x150b7a02\n        /* \"contracts/ERC721/ERC721.sol\":8491:8501  msg.sender */\n      caller\n        /* \"contracts/ERC721/ERC721.sol\":8523:8527  from */\n      dup7\n        /* \"contracts/ERC721/ERC721.sol\":8549:8556  tokenId */\n      dup6\n        /* \"contracts/ERC721/ERC721.sol\":8578:8582  data */\n      dup6\n        /* \"contracts/ERC721/ERC721.sol\":8433:8600  IERC721Receiver(to).onERC721Received(... */\n      mload(0x40)\n      dup6\n      0xffffffff\n      and\n      0xe0\n      shl\n      dup2\n      mstore\n      0x04\n      add\n      tag_192\n      swap5\n      swap4\n      swap3\n      swap2\n      swap1\n      tag_193\n      jump\t// in\n    tag_192:\n      0x20\n      mload(0x40)\n      dup1\n      dup4\n      sub\n      dup2\n      0x00\n      dup8\n      gas\n      call\n      swap3\n      pop\n      pop\n      pop\n      dup1\n      iszero\n      tag_194\n      jumpi\n      pop\n      mload(0x40)\n      returndatasize\n      not(0x1f)\n      0x1f\n      dup3\n      add\n      and\n      dup3\n      add\n      dup1\n      0x40\n      mstore\n      pop\n      dup2\n      add\n      swap1\n      tag_195\n      swap2\n      swap1\n      tag_196\n      jump\t// in\n    tag_195:\n      0x01\n    tag_194:\n        /* \"contracts/ERC721/ERC721.sol\":8413:9153  try... */\n      tag_197\n      jumpi\n      returndatasize\n      dup1\n      0x00\n      dup2\n      eq\n      tag_202\n      jumpi\n      mload(0x40)\n      swap2\n      pop\n      and(add(returndatasize, 0x3f), not(0x1f))\n      dup3\n      add\n      0x40\n      mstore\n      returndatasize\n      dup3\n      mstore\n      returndatasize\n      0x00\n      0x20\n      dup5\n      add\n      returndatacopy\n      jump(tag_201)\n    tag_202:\n      0x60\n      swap2\n      pop\n    tag_201:\n      pop\n        /* \"contracts/ERC721/ERC721.sol\":8867:8868  0 */\n      0x00\n        /* \"contracts/ERC721/ERC721.sol\":8850:8856  reason */\n      dup2\n        /* \"contracts/ERC721/ERC721.sol\":8850:8863  reason.length */\n      mload\n        /* \"contracts/ERC721/ERC721.sol\":8850:8868  reason.length == 0 */\n      sub\n        /* \"contracts/ERC721/ERC721.sol\":8846:9139  if (reason.length == 0) {... */\n      tag_203\n      jumpi\n        /* \"contracts/ERC721/ERC721.sol\":8921:8923  to */\n      dup4\n        /* \"contracts/ERC721/ERC721.sol\":8899:8924  ERC721InvalidReceiver(to) */\n      mload(0x40)\n      0x64a0ae9200000000000000000000000000000000000000000000000000000000\n      dup2\n      mstore\n      0x04\n      add\n      tag_204\n      swap2\n      swap1\n      tag_35\n      jump\t// in\n    tag_204:\n      mload(0x40)\n      dup1\n      swap2\n      sub\n      swap1\n      revert\n        /* \"contracts/ERC721/ERC721.sol\":8846:9139  if (reason.length == 0) {... */\n    tag_203:\n        /* \"contracts/ERC721/ERC721.sol\":9091:9097  reason */\n      dup1\n        /* \"contracts/ERC721/ERC721.sol\":9085:9098  mload(reason) */\n      mload\n        /* \"contracts/ERC721/ERC721.sol\":9076:9082  reason */\n      dup2\n        /* \"contracts/ERC721/ERC721.sol\":9072:9074  32 */\n      0x20\n        /* \"contracts/ERC721/ERC721.sol\":9068:9083  add(32, reason) */\n      add\n        /* \"contracts/ERC721/ERC721.sol\":9061:9099  revert(add(32, reason), mload(reason)) */\n      revert\n        /* \"contracts/ERC721/ERC721.sol\":8413:9153  try... */\n    tag_197:\n        /* \"contracts/ERC721/ERC721.sol\":8669:8710  IERC721Receiver.onERC721Received.selector */\n      shl(0xe0, 0x150b7a02)\n        /* \"contracts/ERC721/ERC721.sol\":8659:8710  retval != IERC721Receiver.onERC721Received.selector */\n      not(0xffffffffffffffffffffffffffffffffffffffffffffffffffffffff)\n      and\n        /* \"contracts/ERC721/ERC721.sol\":8659:8665  retval */\n      dup2\n        /* \"contracts/ERC721/ERC721.sol\":8659:8710  retval != IERC721Receiver.onERC721Received.selector */\n      not(0xffffffffffffffffffffffffffffffffffffffffffffffffffffffff)\n      and\n      eq\n        /* \"contracts/ERC721/ERC721.sol\":8655:8785  if (retval != IERC721Receiver.onERC721Received.selector) {... */\n      tag_207\n      jumpi\n        /* \"contracts/ERC721/ERC721.sol\":8763:8765  to */\n      dup4\n        /* \"contracts/ERC721/ERC721.sol\":8741:8766  ERC721InvalidReceiver(to) */\n      mload(0x40)\n      0x64a0ae9200000000000000000000000000000000000000000000000000000000\n      dup2\n      mstore\n      0x04\n      add\n      tag_208\n      swap2\n      swap1\n      tag_35\n      jump\t// in\n    tag_208:\n      mload(0x40)\n      dup1\n      swap2\n      sub\n      swap1\n      revert\n        /* \"contracts/ERC721/ERC721.sol\":8655:8785  if (retval != IERC721Receiver.onERC721Received.selector) {... */\n    tag_207:\n        /* \"contracts/ERC721/ERC721.sol\":8613:8799  returns (bytes4 retval) {... */\n      pop\n        /* \"contracts/ERC721/ERC721.sol\":8375:9163  if (to.code.length > 0) {... */\n    tag_191:\n        /* \"contracts/ERC721/ERC721.sol\":8225:9169  function _checkOnERC721Received(... */\n      pop\n      pop\n      pop\n      pop\n      jump\t// out\n        /* \"#utility.yul\":7:82   */\n    tag_209:\n        /* \"#utility.yul\":40:46   */\n      0x00\n        /* \"#utility.yul\":73:75   */\n      0x40\n        /* \"#utility.yul\":67:76   */\n      mload\n        /* \"#utility.yul\":57:76   */\n      swap1\n      pop\n        /* \"#utility.yul\":7:82   */\n      swap1\n      jump\t// out\n        /* \"#utility.yul\":88:205   */\n    tag_210:\n        /* \"#utility.yul\":197:198   */\n      0x00\n        /* \"#utility.yul\":194:195   */\n      0x00\n        /* \"#utility.yul\":187:199   */\n      revert\n        /* \"#utility.yul\":211:328   */\n    tag_211:\n        /* \"#utility.yul\":320:321   */\n      0x00\n        /* \"#utility.yul\":317:318   */\n      0x00\n        /* \"#utility.yul\":310:322   */\n      revert\n        /* \"#utility.yul\":334:483   */\n    tag_212:\n        /* \"#utility.yul\":370:377   */\n      0x00\n        /* \"#utility.yul\":410:476   */\n      0xffffffff00000000000000000000000000000000000000000000000000000000\n        /* \"#utility.yul\":403:408   */\n      dup3\n        /* \"#utility.yul\":399:477   */\n      and\n        /* \"#utility.yul\":388:477   */\n      swap1\n      pop\n        /* \"#utility.yul\":334:483   */\n      swap2\n      swap1\n      pop\n      jump\t// out\n        /* \"#utility.yul\":489:609   */\n    tag_213:\n        /* \"#utility.yul\":561:584   */\n      tag_271\n        /* \"#utility.yul\":578:583   */\n      dup2\n        /* \"#utility.yul\":561:584   */\n      tag_212\n      jump\t// in\n    tag_271:\n        /* \"#utility.yul\":554:559   */\n      dup2\n        /* \"#utility.yul\":551:585   */\n      eq\n        /* \"#utility.yul\":541:603   */\n      tag_272\n      jumpi\n        /* \"#utility.yul\":599:600   */\n      0x00\n        /* \"#utility.yul\":596:597   */\n      0x00\n        /* \"#utility.yul\":589:601   */\n      revert\n        /* \"#utility.yul\":541:603   */\n    tag_272:\n        /* \"#utility.yul\":489:609   */\n      pop\n      jump\t// out\n        /* \"#utility.yul\":615:752   */\n    tag_214:\n        /* \"#utility.yul\":660:665   */\n      0x00\n        /* \"#utility.yul\":698:704   */\n      dup2\n        /* \"#utility.yul\":685:705   */\n      calldataload\n        /* \"#utility.yul\":676:705   */\n      swap1\n      pop\n        /* \"#utility.yul\":714:746   */\n      tag_274\n        /* \"#utility.yul\":740:745   */\n      dup2\n        /* \"#utility.yul\":714:746   */\n      tag_213\n      jump\t// in\n    tag_274:\n        /* \"#utility.yul\":615:752   */\n      swap3\n      swap2\n      pop\n      pop\n      jump\t// out\n        /* \"#utility.yul\":758:1085   */\n    tag_22:\n        /* \"#utility.yul\":816:822   */\n      0x00\n        /* \"#utility.yul\":865:867   */\n      0x20\n        /* \"#utility.yul\":853:862   */\n      dup3\n        /* \"#utility.yul\":844:851   */\n      dup5\n        /* \"#utility.yul\":840:863   */\n      sub\n        /* \"#utility.yul\":836:868   */\n      slt\n        /* \"#utility.yul\":833:952   */\n      iszero\n      tag_276\n      jumpi\n        /* \"#utility.yul\":871:950   */\n      tag_277\n      tag_210\n      jump\t// in\n    tag_277:\n        /* \"#utility.yul\":833:952   */\n    tag_276:\n        /* \"#utility.yul\":991:992   */\n      0x00\n        /* \"#utility.yul\":1016:1068   */\n      tag_278\n        /* \"#utility.yul\":1060:1067   */\n      dup5\n        /* \"#utility.yul\":1051:1057   */\n      dup3\n        /* \"#utility.yul\":1040:1049   */\n      dup6\n        /* \"#utility.yul\":1036:1058   */\n      add\n        /* \"#utility.yul\":1016:1068   */\n      tag_214\n      jump\t// in\n    tag_278:\n        /* \"#utility.yul\":1006:1068   */\n      swap2\n      pop\n        /* \"#utility.yul\":962:1078   */\n      pop\n        /* \"#utility.yul\":758:1085   */\n      swap3\n      swap2\n      pop\n      pop\n      jump\t// out\n        /* \"#utility.yul\":1091:1181   */\n    tag_215:\n        /* \"#utility.yul\":1125:1132   */\n      0x00\n        /* \"#utility.yul\":1168:1173   */\n      dup2\n        /* \"#utility.yul\":1161:1174   */\n      iszero\n        /* \"#utility.yul\":1154:1175   */\n      iszero\n        /* \"#utility.yul\":1143:1175   */\n      swap1\n      pop\n        /* \"#utility.yul\":1091:1181   */\n      swap2\n      swap1\n      pop\n      jump\t// out\n        /* \"#utility.yul\":1187:1296   */\n    tag_216:\n        /* \"#utility.yul\":1268:1289   */\n      tag_281\n        /* \"#utility.yul\":1283:1288   */\n      dup2\n        /* \"#utility.yul\":1268:1289   */\n      tag_215\n      jump\t// in\n    tag_281:\n        /* \"#utility.yul\":1263:1266   */\n      dup3\n        /* \"#utility.yul\":1256:1290   */\n      mstore\n        /* \"#utility.yul\":1187:1296   */\n      pop\n      pop\n      jump\t// out\n        /* \"#utility.yul\":1302:1512   */\n    tag_25:\n        /* \"#utility.yul\":1389:1393   */\n      0x00\n        /* \"#utility.yul\":1427:1429   */\n      0x20\n        /* \"#utility.yul\":1416:1425   */\n      dup3\n        /* \"#utility.yul\":1412:1430   */\n      add\n        /* \"#utility.yul\":1404:1430   */\n      swap1\n      pop\n        /* \"#utility.yul\":1440:1505   */\n      tag_283\n        /* \"#utility.yul\":1502:1503   */\n      0x00\n        /* \"#utility.yul\":1491:1500   */\n      dup4\n        /* \"#utility.yul\":1487:1504   */\n      add\n        /* \"#utility.yul\":1478:1484   */\n      dup5\n        /* \"#utility.yul\":1440:1505   */\n      tag_216\n      jump\t// in\n    tag_283:\n        /* \"#utility.yul\":1302:1512   */\n      swap3\n      swap2\n      pop\n      pop\n      jump\t// out\n        /* \"#utility.yul\":1518:1617   */\n    tag_217:\n        /* \"#utility.yul\":1570:1576   */\n      0x00\n        /* \"#utility.yul\":1604:1609   */\n      dup2\n        /* \"#utility.yul\":1598:1610   */\n      mload\n        /* \"#utility.yul\":1588:1610   */\n      swap1\n      pop\n        /* \"#utility.yul\":1518:1617   */\n      swap2\n      swap1\n      pop\n      jump\t// out\n        /* \"#utility.yul\":1623:1792   */\n    tag_218:\n        /* \"#utility.yul\":1707:1718   */\n      0x00\n        /* \"#utility.yul\":1741:1747   */\n      dup3\n        /* \"#utility.yul\":1736:1739   */\n      dup3\n        /* \"#utility.yul\":1729:1748   */\n      mstore\n        /* \"#utility.yul\":1781:1785   */\n      0x20\n        /* \"#utility.yul\":1776:1779   */\n      dup3\n        /* \"#utility.yul\":1772:1786   */\n      add\n        /* \"#utility.yul\":1757:1786   */\n      swap1\n      pop\n        /* \"#utility.yul\":1623:1792   */\n      swap3\n      swap2\n      pop\n      pop\n      jump\t// out\n        /* \"#utility.yul\":1798:1937   */\n    tag_219:\n        /* \"#utility.yul\":1887:1893   */\n      dup3\n        /* \"#utility.yul\":1882:1885   */\n      dup2\n        /* \"#utility.yul\":1877:1880   */\n      dup4\n        /* \"#utility.yul\":1871:1894   */\n      mcopy\n        /* \"#utility.yul\":1928:1929   */\n      0x00\n        /* \"#utility.yul\":1919:1925   */\n      dup4\n        /* \"#utility.yul\":1914:1917   */\n      dup4\n        /* \"#utility.yul\":1910:1926   */\n      add\n        /* \"#utility.yul\":1903:1930   */\n      mstore\n        /* \"#utility.yul\":1798:1937   */\n      pop\n      pop\n      pop\n      jump\t// out\n        /* \"#utility.yul\":1943:2045   */\n    tag_220:\n        /* \"#utility.yul\":1984:1990   */\n      0x00\n        /* \"#utility.yul\":2035:2037   */\n      0x1f\n        /* \"#utility.yul\":2031:2038   */\n      not\n        /* \"#utility.yul\":2026:2028   */\n      0x1f\n        /* \"#utility.yul\":2019:2024   */\n      dup4\n        /* \"#utility.yul\":2015:2029   */\n      add\n        /* \"#utility.yul\":2011:2039   */\n      and\n        /* \"#utility.yul\":2001:2039   */\n      swap1\n      pop\n        /* \"#utility.yul\":1943:2045   */\n      swap2\n      swap1\n      pop\n      jump\t// out\n        /* \"#utility.yul\":2051:2428   */\n    tag_221:\n        /* \"#utility.yul\":2139:2142   */\n      0x00\n        /* \"#utility.yul\":2167:2206   */\n      tag_289\n        /* \"#utility.yul\":2200:2205   */\n      dup3\n        /* \"#utility.yul\":2167:2206   */\n      tag_217\n      jump\t// in\n    tag_289:\n        /* \"#utility.yul\":2222:2293   */\n      tag_290\n        /* \"#utility.yul\":2286:2292   */\n      dup2\n        /* \"#utility.yul\":2281:2284   */\n      dup6\n        /* \"#utility.yul\":2222:2293   */\n      tag_218\n      jump\t// in\n    tag_290:\n        /* \"#utility.yul\":2215:2293   */\n      swap4\n      pop\n        /* \"#utility.yul\":2302:2367   */\n      tag_291\n        /* \"#utility.yul\":2360:2366   */\n      dup2\n        /* \"#utility.yul\":2355:2358   */\n      dup6\n        /* \"#utility.yul\":2348:2352   */\n      0x20\n        /* \"#utility.yul\":2341:2346   */\n      dup7\n        /* \"#utility.yul\":2337:2353   */\n      add\n        /* \"#utility.yul\":2302:2367   */\n      tag_219\n      jump\t// in\n    tag_291:\n        /* \"#utility.yul\":2392:2421   */\n      tag_292\n        /* \"#utility.yul\":2414:2420   */\n      dup2\n        /* \"#utility.yul\":2392:2421   */\n      tag_220\n      jump\t// in\n    tag_292:\n        /* \"#utility.yul\":2387:2390   */\n      dup5\n        /* \"#utility.yul\":2383:2422   */\n      add\n        /* \"#utility.yul\":2376:2422   */\n      swap2\n      pop\n        /* \"#utility.yul\":2143:2428   */\n      pop\n        /* \"#utility.yul\":2051:2428   */\n      swap3\n      swap2\n      pop\n      pop\n      jump\t// out\n        /* \"#utility.yul\":2434:2747   */\n    tag_29:\n        /* \"#utility.yul\":2547:2551   */\n      0x00\n        /* \"#utility.yul\":2585:2587   */\n      0x20\n        /* \"#utility.yul\":2574:2583   */\n      dup3\n        /* \"#utility.yul\":2570:2588   */\n      add\n        /* \"#utility.yul\":2562:2588   */\n      swap1\n      pop\n        /* \"#utility.yul\":2634:2643   */\n      dup2\n        /* \"#utility.yul\":2628:2632   */\n      dup2\n        /* \"#utility.yul\":2624:2644   */\n      sub\n        /* \"#utility.yul\":2620:2621   */\n      0x00\n        /* \"#utility.yul\":2609:2618   */\n      dup4\n        /* \"#utility.yul\":2605:2622   */\n      add\n        /* \"#utility.yul\":2598:2645   */\n      mstore\n        /* \"#utility.yul\":2662:2740   */\n      tag_294\n        /* \"#utility.yul\":2735:2739   */\n      dup2\n        /* \"#utility.yul\":2726:2732   */\n      dup5\n        /* \"#utility.yul\":2662:2740   */\n      tag_221\n      jump\t// in\n    tag_294:\n        /* \"#utility.yul\":2654:2740   */\n      swap1\n      pop\n        /* \"#utility.yul\":2434:2747   */\n      swap3\n      swap2\n      pop\n      pop\n      jump\t// out\n        /* \"#utility.yul\":2753:2830   */\n    tag_222:\n        /* \"#utility.yul\":2790:2797   */\n      0x00\n        /* \"#utility.yul\":2819:2824   */\n      dup2\n        /* \"#utility.yul\":2808:2824   */\n      swap1\n      pop\n        /* \"#utility.yul\":2753:2830   */\n      swap2\n      swap1\n      pop\n      jump\t// out\n        /* \"#utility.yul\":2836:2958   */\n    tag_223:\n        /* \"#utility.yul\":2909:2933   */\n      tag_297\n        /* \"#utility.yul\":2927:2932   */\n      dup2\n        /* \"#utility.yul\":2909:2933   */\n      tag_222\n      jump\t// in\n    tag_297:\n        /* \"#utility.yul\":2902:2907   */\n      dup2\n        /* \"#utility.yul\":2899:2934   */\n      eq\n        /* \"#utility.yul\":2889:2952   */\n      tag_298\n      jumpi\n        /* \"#utility.yul\":2948:2949   */\n      0x00\n        /* \"#utility.yul\":2945:2946   */\n      0x00\n        /* \"#utility.yul\":2938:2950   */\n      revert\n        /* \"#utility.yul\":2889:2952   */\n    tag_298:\n        /* \"#utility.yul\":2836:2958   */\n      pop\n      jump\t// out\n        /* \"#utility.yul\":2964:3103   */\n    tag_224:\n        /* \"#utility.yul\":3010:3015   */\n      0x00\n        /* \"#utility.yul\":3048:3054   */\n      dup2\n        /* \"#utility.yul\":3035:3055   */\n      calldataload\n        /* \"#utility.yul\":3026:3055   */\n      swap1\n      pop\n        /* \"#utility.yul\":3064:3097   */\n      tag_300\n        /* \"#utility.yul\":3091:3096   */\n      dup2\n        /* \"#utility.yul\":3064:3097   */\n      tag_223\n      jump\t// in\n    tag_300:\n        /* \"#utility.yul\":2964:3103   */\n      swap3\n      swap2\n      pop\n      pop\n      jump\t// out\n        /* \"#utility.yul\":3109:3438   */\n    tag_32:\n        /* \"#utility.yul\":3168:3174   */\n      0x00\n        /* \"#utility.yul\":3217:3219   */\n      0x20\n        /* \"#utility.yul\":3205:3214   */\n      dup3\n        /* \"#utility.yul\":3196:3203   */\n      dup5\n        /* \"#utility.yul\":3192:3215   */\n      sub\n        /* \"#utility.yul\":3188:3220   */\n      slt\n        /* \"#utility.yul\":3185:3304   */\n      iszero\n      tag_302\n      jumpi\n        /* \"#utility.yul\":3223:3302   */\n      tag_303\n      tag_210\n      jump\t// in\n    tag_303:\n        /* \"#utility.yul\":3185:3304   */\n    tag_302:\n        /* \"#utility.yul\":3343:3344   */\n      0x00\n        /* \"#utility.yul\":3368:3421   */\n      tag_304\n        /* \"#utility.yul\":3413:3420   */\n      dup5\n        /* \"#utility.yul\":3404:3410   */\n      dup3\n        /* \"#utility.yul\":3393:3402   */\n      dup6\n        /* \"#utility.yul\":3389:3411   */\n      add\n        /* \"#utility.yul\":3368:3421   */\n      tag_224\n      jump\t// in\n    tag_304:\n        /* \"#utility.yul\":3358:3421   */\n      swap2\n      pop\n        /* \"#utility.yul\":3314:3431   */\n      pop\n        /* \"#utility.yul\":3109:3438   */\n      swap3\n      swap2\n      pop\n      pop\n      jump\t// out\n        /* \"#utility.yul\":3444:3570   */\n    tag_225:\n        /* \"#utility.yul\":3481:3488   */\n      0x00\n        /* \"#utility.yul\":3521:3563   */\n      0xffffffffffffffffffffffffffffffffffffffff\n        /* \"#utility.yul\":3514:3519   */\n      dup3\n        /* \"#utility.yul\":3510:3564   */\n      and\n        /* \"#utility.yul\":3499:3564   */\n      swap1\n      pop\n        /* \"#utility.yul\":3444:3570   */\n      swap2\n      swap1\n      pop\n      jump\t// out\n        /* \"#utility.yul\":3576:3672   */\n    tag_226:\n        /* \"#utility.yul\":3613:3620   */\n      0x00\n        /* \"#utility.yul\":3642:3666   */\n      tag_307\n        /* \"#utility.yul\":3660:3665   */\n      dup3\n        /* \"#utility.yul\":3642:3666   */\n      tag_225\n      jump\t// in\n    tag_307:\n        /* \"#utility.yul\":3631:3666   */\n      swap1\n      pop\n        /* \"#utility.yul\":3576:3672   */\n      swap2\n      swap1\n      pop\n      jump\t// out\n        /* \"#utility.yul\":3678:3796   */\n    tag_227:\n        /* \"#utility.yul\":3765:3789   */\n      tag_309\n        /* \"#utility.yul\":3783:3788   */\n      dup2\n        /* \"#utility.yul\":3765:3789   */\n      tag_226\n      jump\t// in\n    tag_309:\n        /* \"#utility.yul\":3760:3763   */\n      dup3\n        /* \"#utility.yul\":3753:3790   */\n      mstore\n        /* \"#utility.yul\":3678:3796   */\n      pop\n      pop\n      jump\t// out\n        /* \"#utility.yul\":3802:4024   */\n    tag_35:\n        /* \"#utility.yul\":3895:3899   */\n      0x00\n        /* \"#utility.yul\":3933:3935   */\n      0x20\n        /* \"#utility.yul\":3922:3931   */\n      dup3\n        /* \"#utility.yul\":3918:3936   */\n      add\n        /* \"#utility.yul\":3910:3936   */\n      swap1\n      pop\n        /* \"#utility.yul\":3946:4017   */\n      tag_311\n        /* \"#utility.yul\":4014:4015   */\n      0x00\n        /* \"#utility.yul\":4003:4012   */\n      dup4\n        /* \"#utility.yul\":3999:4016   */\n      add\n        /* \"#utility.yul\":3990:3996   */\n      dup5\n        /* \"#utility.yul\":3946:4017   */\n      tag_227\n      jump\t// in\n    tag_311:\n        /* \"#utility.yul\":3802:4024   */\n      swap3\n      swap2\n      pop\n      pop\n      jump\t// out\n        /* \"#utility.yul\":4030:4152   */\n    tag_228:\n        /* \"#utility.yul\":4103:4127   */\n      tag_313\n        /* \"#utility.yul\":4121:4126   */\n      dup2\n        /* \"#utility.yul\":4103:4127   */\n      tag_226\n      jump\t// in\n    tag_313:\n        /* \"#utility.yul\":4096:4101   */\n      dup2\n        /* \"#utility.yul\":4093:4128   */\n      eq\n        /* \"#utility.yul\":4083:4146   */\n      tag_314\n      jumpi\n        /* \"#utility.yul\":4142:4143   */\n      0x00\n        /* \"#utility.yul\":4139:4140   */\n      0x00\n        /* \"#utility.yul\":4132:4144   */\n      revert\n        /* \"#utility.yul\":4083:4146   */\n    tag_314:\n        /* \"#utility.yul\":4030:4152   */\n      pop\n      jump\t// out\n        /* \"#utility.yul\":4158:4297   */\n    tag_229:\n        /* \"#utility.yul\":4204:4209   */\n      0x00\n        /* \"#utility.yul\":4242:4248   */\n      dup2\n        /* \"#utility.yul\":4229:4249   */\n      calldataload\n        /* \"#utility.yul\":4220:4249   */\n      swap1\n      pop\n        /* \"#utility.yul\":4258:4291   */\n      tag_316\n        /* \"#utility.yul\":4285:4290   */\n      dup2\n        /* \"#utility.yul\":4258:4291   */\n      tag_228\n      jump\t// in\n    tag_316:\n        /* \"#utility.yul\":4158:4297   */\n      swap3\n      swap2\n      pop\n      pop\n      jump\t// out\n        /* \"#utility.yul\":4303:4777   */\n    tag_38:\n        /* \"#utility.yul\":4371:4377   */\n      0x00\n        /* \"#utility.yul\":4379:4385   */\n      0x00\n        /* \"#utility.yul\":4428:4430   */\n      0x40\n        /* \"#utility.yul\":4416:4425   */\n      dup4\n        /* \"#utility.yul\":4407:4414   */\n      dup6\n        /* \"#utility.yul\":4403:4426   */\n      sub\n        /* \"#utility.yul\":4399:4431   */\n      slt\n        /* \"#utility.yul\":4396:4515   */\n      iszero\n      tag_318\n      jumpi\n        /* \"#utility.yul\":4434:4513   */\n      tag_319\n      tag_210\n      jump\t// in\n    tag_319:\n        /* \"#utility.yul\":4396:4515   */\n    tag_318:\n        /* \"#utility.yul\":4554:4555   */\n      0x00\n        /* \"#utility.yul\":4579:4632   */\n      tag_320\n        /* \"#utility.yul\":4624:4631   */\n      dup6\n        /* \"#utility.yul\":4615:4621   */\n      dup3\n        /* \"#utility.yul\":4604:4613   */\n      dup7\n        /* \"#utility.yul\":4600:4622   */\n      add\n        /* \"#utility.yul\":4579:4632   */\n      tag_229\n      jump\t// in\n    tag_320:\n        /* \"#utility.yul\":4569:4632   */\n      swap3\n      pop\n        /* \"#utility.yul\":4525:4642   */\n      pop\n        /* \"#utility.yul\":4681:4683   */\n      0x20\n        /* \"#utility.yul\":4707:4760   */\n      tag_321\n        /* \"#utility.yul\":4752:4759   */\n      dup6\n        /* \"#utility.yul\":4743:4749   */\n      dup3\n        /* \"#utility.yul\":4732:4741   */\n      dup7\n        /* \"#utility.yul\":4728:4750   */\n      add\n        /* \"#utility.yul\":4707:4760   */\n      tag_224\n      jump\t// in\n    tag_321:\n        /* \"#utility.yul\":4697:4760   */\n      swap2\n      pop\n        /* \"#utility.yul\":4652:4770   */\n      pop\n        /* \"#utility.yul\":4303:4777   */\n      swap3\n      pop\n      swap3\n      swap1\n      pop\n      jump\t// out\n        /* \"#utility.yul\":4783:5402   */\n    tag_42:\n        /* \"#utility.yul\":4860:4866   */\n      0x00\n        /* \"#utility.yul\":4868:4874   */\n      0x00\n        /* \"#utility.yul\":4876:4882   */\n      0x00\n        /* \"#utility.yul\":4925:4927   */\n      0x60\n        /* \"#utility.yul\":4913:4922   */\n      dup5\n        /* \"#utility.yul\":4904:4911   */\n      dup7\n        /* \"#utility.yul\":4900:4923   */\n      sub\n        /* \"#utility.yul\":4896:4928   */\n      slt\n        /* \"#utility.yul\":4893:5012   */\n      iszero\n      tag_323\n      jumpi\n        /* \"#utility.yul\":4931:5010   */\n      tag_324\n      tag_210\n      jump\t// in\n    tag_324:\n        /* \"#utility.yul\":4893:5012   */\n    tag_323:\n        /* \"#utility.yul\":5051:5052   */\n      0x00\n        /* \"#utility.yul\":5076:5129   */\n      tag_325\n        /* \"#utility.yul\":5121:5128   */\n      dup7\n        /* \"#utility.yul\":5112:5118   */\n      dup3\n        /* \"#utility.yul\":5101:5110   */\n      dup8\n        /* \"#utility.yul\":5097:5119   */\n      add\n        /* \"#utility.yul\":5076:5129   */\n      tag_229\n      jump\t// in\n    tag_325:\n        /* \"#utility.yul\":5066:5129   */\n      swap4\n      pop\n        /* \"#utility.yul\":5022:5139   */\n      pop\n        /* \"#utility.yul\":5178:5180   */\n      0x20\n        /* \"#utility.yul\":5204:5257   */\n      tag_326\n        /* \"#utility.yul\":5249:5256   */\n      dup7\n        /* \"#utility.yul\":5240:5246   */\n      dup3\n        /* \"#utility.yul\":5229:5238   */\n      dup8\n        /* \"#utility.yul\":5225:5247   */\n      add\n        /* \"#utility.yul\":5204:5257   */\n      tag_229\n      jump\t// in\n    tag_326:\n        /* \"#utility.yul\":5194:5257   */\n      swap3\n      pop\n        /* \"#utility.yul\":5149:5267   */\n      pop\n        /* \"#utility.yul\":5306:5308   */\n      0x40\n        /* \"#utility.yul\":5332:5385   */\n      tag_327\n        /* \"#utility.yul\":5377:5384   */\n      dup7\n        /* \"#utility.yul\":5368:5374   */\n      dup3\n        /* \"#utility.yul\":5357:5366   */\n      dup8\n        /* \"#utility.yul\":5353:5375   */\n      add\n        /* \"#utility.yul\":5332:5385   */\n      tag_224\n      jump\t// in\n    tag_327:\n        /* \"#utility.yul\":5322:5385   */\n      swap2\n      pop\n        /* \"#utility.yul\":5277:5395   */\n      pop\n        /* \"#utility.yul\":4783:5402   */\n      swap3\n      pop\n      swap3\n      pop\n      swap3\n      jump\t// out\n        /* \"#utility.yul\":5408:5523   */\n    tag_230:\n        /* \"#utility.yul\":5493:5516   */\n      tag_329\n        /* \"#utility.yul\":5510:5515   */\n      dup2\n        /* \"#utility.yul\":5493:5516   */\n      tag_212\n      jump\t// in\n    tag_329:\n        /* \"#utility.yul\":5488:5491   */\n      dup3\n        /* \"#utility.yul\":5481:5517   */\n      mstore\n        /* \"#utility.yul\":5408:5523   */\n      pop\n      pop\n      jump\t// out\n        /* \"#utility.yul\":5529:5747   */\n    tag_54:\n        /* \"#utility.yul\":5620:5624   */\n      0x00\n        /* \"#utility.yul\":5658:5660   */\n      0x20\n        /* \"#utility.yul\":5647:5656   */\n      dup3\n        /* \"#utility.yul\":5643:5661   */\n      add\n        /* \"#utility.yul\":5635:5661   */\n      swap1\n      pop\n        /* \"#utility.yul\":5671:5740   */\n      tag_331\n        /* \"#utility.yul\":5737:5738   */\n      0x00\n        /* \"#utility.yul\":5726:5735   */\n      dup4\n        /* \"#utility.yul\":5722:5739   */\n      add\n        /* \"#utility.yul\":5713:5719   */\n      dup5\n        /* \"#utility.yul\":5671:5740   */\n      tag_230\n      jump\t// in\n    tag_331:\n        /* \"#utility.yul\":5529:5747   */\n      swap3\n      swap2\n      pop\n      pop\n      jump\t// out\n        /* \"#utility.yul\":5753:6082   */\n    tag_57:\n        /* \"#utility.yul\":5812:5818   */\n      0x00\n        /* \"#utility.yul\":5861:5863   */\n      0x20\n        /* \"#utility.yul\":5849:5858   */\n      dup3\n        /* \"#utility.yul\":5840:5847   */\n      dup5\n        /* \"#utility.yul\":5836:5859   */\n      sub\n        /* \"#utility.yul\":5832:5864   */\n      slt\n        /* \"#utility.yul\":5829:5948   */\n      iszero\n      tag_333\n      jumpi\n        /* \"#utility.yul\":5867:5946   */\n      tag_334\n      tag_210\n      jump\t// in\n    tag_334:\n        /* \"#utility.yul\":5829:5948   */\n    tag_333:\n        /* \"#utility.yul\":5987:5988   */\n      0x00\n        /* \"#utility.yul\":6012:6065   */\n      tag_335\n        /* \"#utility.yul\":6057:6064   */\n      dup5\n        /* \"#utility.yul\":6048:6054   */\n      dup3\n        /* \"#utility.yul\":6037:6046   */\n      dup6\n        /* \"#utility.yul\":6033:6055   */\n      add\n        /* \"#utility.yul\":6012:6065   */\n      tag_229\n      jump\t// in\n    tag_335:\n        /* \"#utility.yul\":6002:6065   */\n      swap2\n      pop\n        /* \"#utility.yul\":5958:6075   */\n      pop\n        /* \"#utility.yul\":5753:6082   */\n      swap3\n      swap2\n      pop\n      pop\n      jump\t// out\n        /* \"#utility.yul\":6088:6206   */\n    tag_231:\n        /* \"#utility.yul\":6175:6199   */\n      tag_337\n        /* \"#utility.yul\":6193:6198   */\n      dup2\n        /* \"#utility.yul\":6175:6199   */\n      tag_222\n      jump\t// in\n    tag_337:\n        /* \"#utility.yul\":6170:6173   */\n      dup3\n        /* \"#utility.yul\":6163:6200   */\n      mstore\n        /* \"#utility.yul\":6088:6206   */\n      pop\n      pop\n      jump\t// out\n        /* \"#utility.yul\":6212:6434   */\n    tag_60:\n        /* \"#utility.yul\":6305:6309   */\n      0x00\n        /* \"#utility.yul\":6343:6345   */\n      0x20\n        /* \"#utility.yul\":6332:6341   */\n      dup3\n        /* \"#utility.yul\":6328:6346   */\n      add\n        /* \"#utility.yul\":6320:6346   */\n      swap1\n      pop\n        /* \"#utility.yul\":6356:6427   */\n      tag_339\n        /* \"#utility.yul\":6424:6425   */\n      0x00\n        /* \"#utility.yul\":6413:6422   */\n      dup4\n        /* \"#utility.yul\":6409:6426   */\n      add\n        /* \"#utility.yul\":6400:6406   */\n      dup5\n        /* \"#utility.yul\":6356:6427   */\n      tag_231\n      jump\t// in\n    tag_339:\n        /* \"#utility.yul\":6212:6434   */\n      swap3\n      swap2\n      pop\n      pop\n      jump\t// out\n        /* \"#utility.yul\":6440:6556   */\n    tag_232:\n        /* \"#utility.yul\":6510:6531   */\n      tag_341\n        /* \"#utility.yul\":6525:6530   */\n      dup2\n        /* \"#utility.yul\":6510:6531   */\n      tag_215\n      jump\t// in\n    tag_341:\n        /* \"#utility.yul\":6503:6508   */\n      dup2\n        /* \"#utility.yul\":6500:6532   */\n      eq\n        /* \"#utility.yul\":6490:6550   */\n      tag_342\n      jumpi\n        /* \"#utility.yul\":6546:6547   */\n      0x00\n        /* \"#utility.yul\":6543:6544   */\n      0x00\n        /* \"#utility.yul\":6536:6548   */\n      revert\n        /* \"#utility.yul\":6490:6550   */\n    tag_342:\n        /* \"#utility.yul\":6440:6556   */\n      pop\n      jump\t// out\n        /* \"#utility.yul\":6562:6695   */\n    tag_233:\n        /* \"#utility.yul\":6605:6610   */\n      0x00\n        /* \"#utility.yul\":6643:6649   */\n      dup2\n        /* \"#utility.yul\":6630:6650   */\n      calldataload\n        /* \"#utility.yul\":6621:6650   */\n      swap1\n      pop\n        /* \"#utility.yul\":6659:6689   */\n      tag_344\n        /* \"#utility.yul\":6683:6688   */\n      dup2\n        /* \"#utility.yul\":6659:6689   */\n      tag_232\n      jump\t// in\n    tag_344:\n        /* \"#utility.yul\":6562:6695   */\n      swap3\n      swap2\n      pop\n      pop\n      jump\t// out\n        /* \"#utility.yul\":6701:7169   */\n    tag_66:\n        /* \"#utility.yul\":6766:6772   */\n      0x00\n        /* \"#utility.yul\":6774:6780   */\n      0x00\n        /* \"#utility.yul\":6823:6825   */\n      0x40\n        /* \"#utility.yul\":6811:6820   */\n      dup4\n        /* \"#utility.yul\":6802:6809   */\n      dup6\n        /* \"#utility.yul\":6798:6821   */\n      sub\n        /* \"#utility.yul\":6794:6826   */\n      slt\n        /* \"#utility.yul\":6791:6910   */\n      iszero\n      tag_346\n      jumpi\n        /* \"#utility.yul\":6829:6908   */\n      tag_347\n      tag_210\n      jump\t// in\n    tag_347:\n        /* \"#utility.yul\":6791:6910   */\n    tag_346:\n        /* \"#utility.yul\":6949:6950   */\n      0x00\n        /* \"#utility.yul\":6974:7027   */\n      tag_348\n        /* \"#utility.yul\":7019:7026   */\n      dup6\n        /* \"#utility.yul\":7010:7016   */\n      dup3\n        /* \"#utility.yul\":6999:7008   */\n      dup7\n        /* \"#utility.yul\":6995:7017   */\n      add\n        /* \"#utility.yul\":6974:7027   */\n      tag_229\n      jump\t// in\n    tag_348:\n        /* \"#utility.yul\":6964:7027   */\n      swap3\n      pop\n        /* \"#utility.yul\":6920:7037   */\n      pop\n        /* \"#utility.yul\":7076:7078   */\n      0x20\n        /* \"#utility.yul\":7102:7152   */\n      tag_349\n        /* \"#utility.yul\":7144:7151   */\n      dup6\n        /* \"#utility.yul\":7135:7141   */\n      dup3\n        /* \"#utility.yul\":7124:7133   */\n      dup7\n        /* \"#utility.yul\":7120:7142   */\n      add\n        /* \"#utility.yul\":7102:7152   */\n      tag_233\n      jump\t// in\n    tag_349:\n        /* \"#utility.yul\":7092:7152   */\n      swap2\n      pop\n        /* \"#utility.yul\":7047:7162   */\n      pop\n        /* \"#utility.yul\":6701:7169   */\n      swap3\n      pop\n      swap3\n      swap1\n      pop\n      jump\t// out\n        /* \"#utility.yul\":7175:7292   */\n    tag_234:\n        /* \"#utility.yul\":7284:7285   */\n      0x00\n        /* \"#utility.yul\":7281:7282   */\n      0x00\n        /* \"#utility.yul\":7274:7286   */\n      revert\n        /* \"#utility.yul\":7298:7415   */\n    tag_235:\n        /* \"#utility.yul\":7407:7408   */\n      0x00\n        /* \"#utility.yul\":7404:7405   */\n      0x00\n        /* \"#utility.yul\":7397:7409   */\n      revert\n        /* \"#utility.yul\":7421:7601   */\n    tag_178:\n        /* \"#utility.yul\":7469:7546   */\n      0x4e487b7100000000000000000000000000000000000000000000000000000000\n        /* \"#utility.yul\":7466:7467   */\n      0x00\n        /* \"#utility.yul\":7459:7547   */\n      mstore\n        /* \"#utility.yul\":7566:7570   */\n      0x41\n        /* \"#utility.yul\":7563:7564   */\n      0x04\n        /* \"#utility.yul\":7556:7571   */\n      mstore\n        /* \"#utility.yul\":7590:7594   */\n      0x24\n        /* \"#utility.yul\":7587:7588   */\n      0x00\n        /* \"#utility.yul\":7580:7595   */\n      revert\n        /* \"#utility.yul\":7607:7888   */\n    tag_236:\n        /* \"#utility.yul\":7690:7717   */\n      tag_354\n        /* \"#utility.yul\":7712:7716   */\n      dup3\n        /* \"#utility.yul\":7690:7717   */\n      tag_220\n      jump\t// in\n    tag_354:\n        /* \"#utility.yul\":7682:7688   */\n      dup2\n        /* \"#utility.yul\":7678:7718   */\n      add\n        /* \"#utility.yul\":7820:7826   */\n      dup2\n        /* \"#utility.yul\":7808:7818   */\n      dup2\n        /* \"#utility.yul\":7805:7827   */\n      lt\n        /* \"#utility.yul\":7784:7802   */\n      0xffffffffffffffff\n        /* \"#utility.yul\":7772:7782   */\n      dup3\n        /* \"#utility.yul\":7769:7803   */\n      gt\n        /* \"#utility.yul\":7766:7828   */\n      or\n        /* \"#utility.yul\":7763:7851   */\n      iszero\n      tag_355\n      jumpi\n        /* \"#utility.yul\":7831:7849   */\n      tag_356\n      tag_178\n      jump\t// in\n    tag_356:\n        /* \"#utility.yul\":7763:7851   */\n    tag_355:\n        /* \"#utility.yul\":7871:7881   */\n      dup1\n        /* \"#utility.yul\":7867:7869   */\n      0x40\n        /* \"#utility.yul\":7860:7882   */\n      mstore\n        /* \"#utility.yul\":7650:7888   */\n      pop\n        /* \"#utility.yul\":7607:7888   */\n      pop\n      pop\n      jump\t// out\n        /* \"#utility.yul\":7894:8023   */\n    tag_237:\n        /* \"#utility.yul\":7928:7934   */\n      0x00\n        /* \"#utility.yul\":7955:7975   */\n      tag_358\n      tag_209\n      jump\t// in\n    tag_358:\n        /* \"#utility.yul\":7945:7975   */\n      swap1\n      pop\n        /* \"#utility.yul\":7984:8017   */\n      tag_359\n        /* \"#utility.yul\":8012:8016   */\n      dup3\n        /* \"#utility.yul\":8004:8010   */\n      dup3\n        /* \"#utility.yul\":7984:8017   */\n      tag_236\n      jump\t// in\n    tag_359:\n        /* \"#utility.yul\":7894:8023   */\n      swap2\n      swap1\n      pop\n      jump\t// out\n        /* \"#utility.yul\":8029:8336   */\n    tag_238:\n        /* \"#utility.yul\":8090:8094   */\n      0x00\n        /* \"#utility.yul\":8180:8198   */\n      0xffffffffffffffff\n        /* \"#utility.yul\":8172:8178   */\n      dup3\n        /* \"#utility.yul\":8169:8199   */\n      gt\n        /* \"#utility.yul\":8166:8222   */\n      iszero\n      tag_361\n      jumpi\n        /* \"#utility.yul\":8202:8220   */\n      tag_362\n      tag_178\n      jump\t// in\n    tag_362:\n        /* \"#utility.yul\":8166:8222   */\n    tag_361:\n        /* \"#utility.yul\":8240:8269   */\n      tag_363\n        /* \"#utility.yul\":8262:8268   */\n      dup3\n        /* \"#utility.yul\":8240:8269   */\n      tag_220\n      jump\t// in\n    tag_363:\n        /* \"#utility.yul\":8232:8269   */\n      swap1\n      pop\n        /* \"#utility.yul\":8324:8328   */\n      0x20\n        /* \"#utility.yul\":8318:8322   */\n      dup2\n        /* \"#utility.yul\":8314:8329   */\n      add\n        /* \"#utility.yul\":8306:8329   */\n      swap1\n      pop\n        /* \"#utility.yul\":8029:8336   */\n      swap2\n      swap1\n      pop\n      jump\t// out\n        /* \"#utility.yul\":8342:8490   */\n    tag_239:\n        /* \"#utility.yul\":8440:8446   */\n      dup3\n        /* \"#utility.yul\":8435:8438   */\n      dup2\n        /* \"#utility.yul\":8430:8433   */\n      dup4\n        /* \"#utility.yul\":8417:8447   */\n      calldatacopy\n        /* \"#utility.yul\":8481:8482   */\n      0x00\n        /* \"#utility.yul\":8472:8478   */\n      dup4\n        /* \"#utility.yul\":8467:8470   */\n      dup4\n        /* \"#utility.yul\":8463:8479   */\n      add\n        /* \"#utility.yul\":8456:8483   */\n      mstore\n        /* \"#utility.yul\":8342:8490   */\n      pop\n      pop\n      pop\n      jump\t// out\n        /* \"#utility.yul\":8496:8919   */\n    tag_240:\n        /* \"#utility.yul\":8573:8578   */\n      0x00\n        /* \"#utility.yul\":8598:8663   */\n      tag_366\n        /* \"#utility.yul\":8614:8662   */\n      tag_367\n        /* \"#utility.yul\":8655:8661   */\n      dup5\n        /* \"#utility.yul\":8614:8662   */\n      tag_238\n      jump\t// in\n    tag_367:\n        /* \"#utility.yul\":8598:8663   */\n      tag_237\n      jump\t// in\n    tag_366:\n        /* \"#utility.yul\":8589:8663   */\n      swap1\n      pop\n        /* \"#utility.yul\":8686:8692   */\n      dup3\n        /* \"#utility.yul\":8679:8684   */\n      dup2\n        /* \"#utility.yul\":8672:8693   */\n      mstore\n        /* \"#utility.yul\":8724:8728   */\n      0x20\n        /* \"#utility.yul\":8717:8722   */\n      dup2\n        /* \"#utility.yul\":8713:8729   */\n      add\n        /* \"#utility.yul\":8762:8765   */\n      dup5\n        /* \"#utility.yul\":8753:8759   */\n      dup5\n        /* \"#utility.yul\":8748:8751   */\n      dup5\n        /* \"#utility.yul\":8744:8760   */\n      add\n        /* \"#utility.yul\":8741:8766   */\n      gt\n        /* \"#utility.yul\":8738:8850   */\n      iszero\n      tag_368\n      jumpi\n        /* \"#utility.yul\":8769:8848   */\n      tag_369\n      tag_235\n      jump\t// in\n    tag_369:\n        /* \"#utility.yul\":8738:8850   */\n    tag_368:\n        /* \"#utility.yul\":8859:8913   */\n      tag_370\n        /* \"#utility.yul\":8906:8912   */\n      dup5\n        /* \"#utility.yul\":8901:8904   */\n      dup3\n        /* \"#utility.yul\":8896:8899   */\n      dup6\n        /* \"#utility.yul\":8859:8913   */\n      tag_239\n      jump\t// in\n    tag_370:\n        /* \"#utility.yul\":8579:8919   */\n      pop\n        /* \"#utility.yul\":8496:8919   */\n      swap4\n      swap3\n      pop\n      pop\n      pop\n      jump\t// out\n        /* \"#utility.yul\":8938:9276   */\n    tag_241:\n        /* \"#utility.yul\":8993:8998   */\n      0x00\n        /* \"#utility.yul\":9042:9045   */\n      dup3\n        /* \"#utility.yul\":9035:9039   */\n      0x1f\n        /* \"#utility.yul\":9027:9033   */\n      dup4\n        /* \"#utility.yul\":9023:9040   */\n      add\n        /* \"#utility.yul\":9019:9046   */\n      slt\n        /* \"#utility.yul\":9009:9131   */\n      tag_372\n      jumpi\n        /* \"#utility.yul\":9050:9129   */\n      tag_373\n      tag_234\n      jump\t// in\n    tag_373:\n        /* \"#utility.yul\":9009:9131   */\n    tag_372:\n        /* \"#utility.yul\":9167:9173   */\n      dup2\n        /* \"#utility.yul\":9154:9174   */\n      calldataload\n        /* \"#utility.yul\":9192:9270   */\n      tag_374\n        /* \"#utility.yul\":9266:9269   */\n      dup5\n        /* \"#utility.yul\":9258:9264   */\n      dup3\n        /* \"#utility.yul\":9251:9255   */\n      0x20\n        /* \"#utility.yul\":9243:9249   */\n      dup7\n        /* \"#utility.yul\":9239:9256   */\n      add\n        /* \"#utility.yul\":9192:9270   */\n      tag_240\n      jump\t// in\n    tag_374:\n        /* \"#utility.yul\":9183:9270   */\n      swap2\n      pop\n        /* \"#utility.yul\":8999:9276   */\n      pop\n        /* \"#utility.yul\":8938:9276   */\n      swap3\n      swap2\n      pop\n      pop\n      jump\t// out\n        /* \"#utility.yul\":9282:10225   */\n    tag_70:\n        /* \"#utility.yul\":9377:9383   */\n      0x00\n        /* \"#utility.yul\":9385:9391   */\n      0x00\n        /* \"#utility.yul\":9393:9399   */\n      0x00\n        /* \"#utility.yul\":9401:9407   */\n      0x00\n        /* \"#utility.yul\":9450:9453   */\n      0x80\n        /* \"#utility.yul\":9438:9447   */\n      dup6\n        /* \"#utility.yul\":9429:9436   */\n      dup8\n        /* \"#utility.yul\":9425:9448   */\n      sub\n        /* \"#utility.yul\":9421:9454   */\n      slt\n        /* \"#utility.yul\":9418:9538   */\n      iszero\n      tag_376\n      jumpi\n        /* \"#utility.yul\":9457:9536   */\n      tag_377\n      tag_210\n      jump\t// in\n    tag_377:\n        /* \"#utility.yul\":9418:9538   */\n    tag_376:\n        /* \"#utility.yul\":9577:9578   */\n      0x00\n        /* \"#utility.yul\":9602:9655   */\n      tag_378\n        /* \"#utility.yul\":9647:9654   */\n      dup8\n        /* \"#utility.yul\":9638:9644   */\n      dup3\n        /* \"#utility.yul\":9627:9636   */\n      dup9\n        /* \"#utility.yul\":9623:9645   */\n      add\n        /* \"#utility.yul\":9602:9655   */\n      tag_229\n      jump\t// in\n    tag_378:\n        /* \"#utility.yul\":9592:9655   */\n      swap5\n      pop\n        /* \"#utility.yul\":9548:9665   */\n      pop\n        /* \"#utility.yul\":9704:9706   */\n      0x20\n        /* \"#utility.yul\":9730:9783   */\n      tag_379\n        /* \"#utility.yul\":9775:9782   */\n      dup8\n        /* \"#utility.yul\":9766:9772   */\n      dup3\n        /* \"#utility.yul\":9755:9764   */\n      dup9\n        /* \"#utility.yul\":9751:9773   */\n      add\n        /* \"#utility.yul\":9730:9783   */\n      tag_229\n      jump\t// in\n    tag_379:\n        /* \"#utility.yul\":9720:9783   */\n      swap4\n      pop\n        /* \"#utility.yul\":9675:9793   */\n      pop\n        /* \"#utility.yul\":9832:9834   */\n      0x40\n        /* \"#utility.yul\":9858:9911   */\n      tag_380\n        /* \"#utility.yul\":9903:9910   */\n      dup8\n        /* \"#utility.yul\":9894:9900   */\n      dup3\n        /* \"#utility.yul\":9883:9892   */\n      dup9\n        /* \"#utility.yul\":9879:9901   */\n      add\n        /* \"#utility.yul\":9858:9911   */\n      tag_224\n      jump\t// in\n    tag_380:\n        /* \"#utility.yul\":9848:9911   */\n      swap3\n      pop\n        /* \"#utility.yul\":9803:9921   */\n      pop\n        /* \"#utility.yul\":9988:9990   */\n      0x60\n        /* \"#utility.yul\":9977:9986   */\n      dup6\n        /* \"#utility.yul\":9973:9991   */\n      add\n        /* \"#utility.yul\":9960:9992   */\n      calldataload\n        /* \"#utility.yul\":10019:10037   */\n      0xffffffffffffffff\n        /* \"#utility.yul\":10011:10017   */\n      dup2\n        /* \"#utility.yul\":10008:10038   */\n      gt\n        /* \"#utility.yul\":10005:10122   */\n      iszero\n      tag_381\n      jumpi\n        /* \"#utility.yul\":10041:10120   */\n      tag_382\n      tag_211\n      jump\t// in\n    tag_382:\n        /* \"#utility.yul\":10005:10122   */\n    tag_381:\n        /* \"#utility.yul\":10146:10208   */\n      tag_383\n        /* \"#utility.yul\":10200:10207   */\n      dup8\n        /* \"#utility.yul\":10191:10197   */\n      dup3\n        /* \"#utility.yul\":10180:10189   */\n      dup9\n        /* \"#utility.yul\":10176:10198   */\n      add\n        /* \"#utility.yul\":10146:10208   */\n      tag_241\n      jump\t// in\n    tag_383:\n        /* \"#utility.yul\":10136:10208   */\n      swap2\n      pop\n        /* \"#utility.yul\":9931:10218   */\n      pop\n        /* \"#utility.yul\":9282:10225   */\n      swap3\n      swap6\n      swap2\n      swap5\n      pop\n      swap3\n      pop\n      jump\t// out\n        /* \"#utility.yul\":10231:10705   */\n    tag_78:\n        /* \"#utility.yul\":10299:10305   */\n      0x00\n        /* \"#utility.yul\":10307:10313   */\n      0x00\n        /* \"#utility.yul\":10356:10358   */\n      0x40\n        /* \"#utility.yul\":10344:10353   */\n      dup4\n        /* \"#utility.yul\":10335:10342   */\n      dup6\n        /* \"#utility.yul\":10331:10354   */\n      sub\n        /* \"#utility.yul\":10327:10359   */\n      slt\n        /* \"#utility.yul\":10324:10443   */\n      iszero\n      tag_385\n      jumpi\n        /* \"#utility.yul\":10362:10441   */\n      tag_386\n      tag_210\n      jump\t// in\n    tag_386:\n        /* \"#utility.yul\":10324:10443   */\n    tag_385:\n        /* \"#utility.yul\":10482:10483   */\n      0x00\n        /* \"#utility.yul\":10507:10560   */\n      tag_387\n        /* \"#utility.yul\":10552:10559   */\n      dup6\n        /* \"#utility.yul\":10543:10549   */\n      dup3\n        /* \"#utility.yul\":10532:10541   */\n      dup7\n        /* \"#utility.yul\":10528:10550   */\n      add\n        /* \"#utility.yul\":10507:10560   */\n      tag_229\n      jump\t// in\n    tag_387:\n        /* \"#utility.yul\":10497:10560   */\n      swap3\n      pop\n        /* \"#utility.yul\":10453:10570   */\n      pop\n        /* \"#utility.yul\":10609:10611   */\n      0x20\n        /* \"#utility.yul\":10635:10688   */\n      tag_388\n        /* \"#utility.yul\":10680:10687   */\n      dup6\n        /* \"#utility.yul\":10671:10677   */\n      dup3\n        /* \"#utility.yul\":10660:10669   */\n      dup7\n        /* \"#utility.yul\":10656:10678   */\n      add\n        /* \"#utility.yul\":10635:10688   */\n      tag_229\n      jump\t// in\n    tag_388:\n        /* \"#utility.yul\":10625:10688   */\n      swap2\n      pop\n        /* \"#utility.yul\":10580:10698   */\n      pop\n        /* \"#utility.yul\":10231:10705   */\n      swap3\n      pop\n      swap3\n      swap1\n      pop\n      jump\t// out\n        /* \"#utility.yul\":10711:10891   */\n    tag_242:\n        /* \"#utility.yul\":10759:10836   */\n      0x4e487b7100000000000000000000000000000000000000000000000000000000\n        /* \"#utility.yul\":10756:10757   */\n      0x00\n        /* \"#utility.yul\":10749:10837   */\n      mstore\n        /* \"#utility.yul\":10856:10860   */\n      0x22\n        /* \"#utility.yul\":10853:10854   */\n      0x04\n        /* \"#utility.yul\":10846:10861   */\n      mstore\n        /* \"#utility.yul\":10880:10884   */\n      0x24\n        /* \"#utility.yul\":10877:10878   */\n      0x00\n        /* \"#utility.yul\":10870:10885   */\n      revert\n        /* \"#utility.yul\":10897:11217   */\n    tag_85:\n        /* \"#utility.yul\":10941:10947   */\n      0x00\n        /* \"#utility.yul\":10978:10979   */\n      0x02\n        /* \"#utility.yul\":10972:10976   */\n      dup3\n        /* \"#utility.yul\":10968:10980   */\n      div\n        /* \"#utility.yul\":10958:10980   */\n      swap1\n      pop\n        /* \"#utility.yul\":11025:11026   */\n      0x01\n        /* \"#utility.yul\":11019:11023   */\n      dup3\n        /* \"#utility.yul\":11015:11027   */\n      and\n        /* \"#utility.yul\":11046:11064   */\n      dup1\n        /* \"#utility.yul\":11036:11117   */\n      tag_391\n      jumpi\n        /* \"#utility.yul\":11102:11106   */\n      0x7f\n        /* \"#utility.yul\":11094:11100   */\n      dup3\n        /* \"#utility.yul\":11090:11107   */\n      and\n        /* \"#utility.yul\":11080:11107   */\n      swap2\n      pop\n        /* \"#utility.yul\":11036:11117   */\n    tag_391:\n        /* \"#utility.yul\":11164:11166   */\n      0x20\n        /* \"#utility.yul\":11156:11162   */\n      dup3\n        /* \"#utility.yul\":11153:11167   */\n      lt\n        /* \"#utility.yul\":11133:11151   */\n      dup2\n        /* \"#utility.yul\":11130:11168   */\n      sub\n        /* \"#utility.yul\":11127:11211   */\n      tag_392\n      jumpi\n        /* \"#utility.yul\":11183:11201   */\n      tag_393\n      tag_242\n      jump\t// in\n    tag_393:\n        /* \"#utility.yul\":11127:11211   */\n    tag_392:\n        /* \"#utility.yul\":10948:11217   */\n      pop\n        /* \"#utility.yul\":10897:11217   */\n      swap2\n      swap1\n      pop\n      jump\t// out\n        /* \"#utility.yul\":11223:11392   */\n    tag_243:\n        /* \"#utility.yul\":11363:11384   */\n      0x746f6b656e20646f65736e277420657869737400000000000000000000000000\n        /* \"#utility.yul\":11359:11360   */\n      0x00\n        /* \"#utility.yul\":11351:11357   */\n      dup3\n        /* \"#utility.yul\":11347:11361   */\n      add\n        /* \"#utility.yul\":11340:11385   */\n      mstore\n        /* \"#utility.yul\":11223:11392   */\n      pop\n      jump\t// out\n        /* \"#utility.yul\":11398:11764   */\n    tag_244:\n        /* \"#utility.yul\":11540:11543   */\n      0x00\n        /* \"#utility.yul\":11561:11628   */\n      tag_396\n        /* \"#utility.yul\":11625:11627   */\n      0x13\n        /* \"#utility.yul\":11620:11623   */\n      dup4\n        /* \"#utility.yul\":11561:11628   */\n      tag_218\n      jump\t// in\n    tag_396:\n        /* \"#utility.yul\":11554:11628   */\n      swap2\n      pop\n        /* \"#utility.yul\":11637:11730   */\n      tag_397\n        /* \"#utility.yul\":11726:11729   */\n      dup3\n        /* \"#utility.yul\":11637:11730   */\n      tag_243\n      jump\t// in\n    tag_397:\n        /* \"#utility.yul\":11755:11757   */\n      0x20\n        /* \"#utility.yul\":11750:11753   */\n      dup3\n        /* \"#utility.yul\":11746:11758   */\n      add\n        /* \"#utility.yul\":11739:11758   */\n      swap1\n      pop\n        /* \"#utility.yul\":11398:11764   */\n      swap2\n      swap1\n      pop\n      jump\t// out\n        /* \"#utility.yul\":11770:12189   */\n    tag_93:\n        /* \"#utility.yul\":11936:11940   */\n      0x00\n        /* \"#utility.yul\":11974:11976   */\n      0x20\n        /* \"#utility.yul\":11963:11972   */\n      dup3\n        /* \"#utility.yul\":11959:11977   */\n      add\n        /* \"#utility.yul\":11951:11977   */\n      swap1\n      pop\n        /* \"#utility.yul\":12023:12032   */\n      dup2\n        /* \"#utility.yul\":12017:12021   */\n      dup2\n        /* \"#utility.yul\":12013:12033   */\n      sub\n        /* \"#utility.yul\":12009:12010   */\n      0x00\n        /* \"#utility.yul\":11998:12007   */\n      dup4\n        /* \"#utility.yul\":11994:12011   */\n      add\n        /* \"#utility.yul\":11987:12034   */\n      mstore\n        /* \"#utility.yul\":12051:12182   */\n      tag_399\n        /* \"#utility.yul\":12177:12181   */\n      dup2\n        /* \"#utility.yul\":12051:12182   */\n      tag_244\n      jump\t// in\n    tag_399:\n        /* \"#utility.yul\":12043:12182   */\n      swap1\n      pop\n        /* \"#utility.yul\":11770:12189   */\n      swap2\n      swap1\n      pop\n      jump\t// out\n        /* \"#utility.yul\":12195:12375   */\n    tag_245:\n        /* \"#utility.yul\":12335:12367   */\n      0x6e6f74206f776e6572206e6f7220617070726f76656420666f7220616c6c0000\n        /* \"#utility.yul\":12331:12332   */\n      0x00\n        /* \"#utility.yul\":12323:12329   */\n      dup3\n        /* \"#utility.yul\":12319:12333   */\n      add\n        /* \"#utility.yul\":12312:12368   */\n      mstore\n        /* \"#utility.yul\":12195:12375   */\n      pop\n      jump\t// out\n        /* \"#utility.yul\":12381:12747   */\n    tag_246:\n        /* \"#utility.yul\":12523:12526   */\n      0x00\n        /* \"#utility.yul\":12544:12611   */\n      tag_402\n        /* \"#utility.yul\":12608:12610   */\n      0x1e\n        /* \"#utility.yul\":12603:12606   */\n      dup4\n        /* \"#utility.yul\":12544:12611   */\n      tag_218\n      jump\t// in\n    tag_402:\n        /* \"#utility.yul\":12537:12611   */\n      swap2\n      pop\n        /* \"#utility.yul\":12620:12713   */\n      tag_403\n        /* \"#utility.yul\":12709:12712   */\n      dup3\n        /* \"#utility.yul\":12620:12713   */\n      tag_245\n      jump\t// in\n    tag_403:\n        /* \"#utility.yul\":12738:12740   */\n      0x20\n        /* \"#utility.yul\":12733:12736   */\n      dup3\n        /* \"#utility.yul\":12729:12741   */\n      add\n        /* \"#utility.yul\":12722:12741   */\n      swap1\n      pop\n        /* \"#utility.yul\":12381:12747   */\n      swap2\n      swap1\n      pop\n      jump\t// out\n        /* \"#utility.yul\":12753:13172   */\n    tag_98:\n        /* \"#utility.yul\":12919:12923   */\n      0x00\n        /* \"#utility.yul\":12957:12959   */\n      0x20\n        /* \"#utility.yul\":12946:12955   */\n      dup3\n        /* \"#utility.yul\":12942:12960   */\n      add\n        /* \"#utility.yul\":12934:12960   */\n      swap1\n      pop\n        /* \"#utility.yul\":13006:13015   */\n      dup2\n        /* \"#utility.yul\":13000:13004   */\n      dup2\n        /* \"#utility.yul\":12996:13016   */\n      sub\n        /* \"#utility.yul\":12992:12993   */\n      0x00\n        /* \"#utility.yul\":12981:12990   */\n      dup4\n        /* \"#utility.yul\":12977:12994   */\n      add\n        /* \"#utility.yul\":12970:13017   */\n      mstore\n        /* \"#utility.yul\":13034:13165   */\n      tag_405\n        /* \"#utility.yul\":13160:13164   */\n      dup2\n        /* \"#utility.yul\":13034:13165   */\n      tag_246\n      jump\t// in\n    tag_405:\n        /* \"#utility.yul\":13026:13165   */\n      swap1\n      pop\n        /* \"#utility.yul\":12753:13172   */\n      swap2\n      swap1\n      pop\n      jump\t// out\n        /* \"#utility.yul\":13178:13350   */\n    tag_247:\n        /* \"#utility.yul\":13318:13342   */\n      0x6e6f74206f776e6572206e6f7220617070726f76656400000000000000000000\n        /* \"#utility.yul\":13314:13315   */\n      0x00\n        /* \"#utility.yul\":13306:13312   */\n      dup3\n        /* \"#utility.yul\":13302:13316   */\n      add\n        /* \"#utility.yul\":13295:13343   */\n      mstore\n        /* \"#utility.yul\":13178:13350   */\n      pop\n      jump\t// out\n        /* \"#utility.yul\":13356:13722   */\n    tag_248:\n        /* \"#utility.yul\":13498:13501   */\n      0x00\n        /* \"#utility.yul\":13519:13586   */\n      tag_408\n        /* \"#utility.yul\":13583:13585   */\n      0x16\n        /* \"#utility.yul\":13578:13581   */\n      dup4\n        /* \"#utility.yul\":13519:13586   */\n      tag_218\n      jump\t// in\n    tag_408:\n        /* \"#utility.yul\":13512:13586   */\n      swap2\n      pop\n        /* \"#utility.yul\":13595:13688   */\n      tag_409\n        /* \"#utility.yul\":13684:13687   */\n      dup3\n        /* \"#utility.yul\":13595:13688   */\n      tag_247\n      jump\t// in\n    tag_409:\n        /* \"#utility.yul\":13713:13715   */\n      0x20\n        /* \"#utility.yul\":13708:13711   */\n      dup3\n        /* \"#utility.yul\":13704:13716   */\n      add\n        /* \"#utility.yul\":13697:13716   */\n      swap1\n      pop\n        /* \"#utility.yul\":13356:13722   */\n      swap2\n      swap1\n      pop\n      jump\t// out\n        /* \"#utility.yul\":13728:14147   */\n    tag_107:\n        /* \"#utility.yul\":13894:13898   */\n      0x00\n        /* \"#utility.yul\":13932:13934   */\n      0x20\n        /* \"#utility.yul\":13921:13930   */\n      dup3\n        /* \"#utility.yul\":13917:13935   */\n      add\n        /* \"#utility.yul\":13909:13935   */\n      swap1\n      pop\n        /* \"#utility.yul\":13981:13990   */\n      dup2\n        /* \"#utility.yul\":13975:13979   */\n      dup2\n        /* \"#utility.yul\":13971:13991   */\n      sub\n        /* \"#utility.yul\":13967:13968   */\n      0x00\n        /* \"#utility.yul\":13956:13965   */\n      dup4\n        /* \"#utility.yul\":13952:13969   */\n      add\n        /* \"#utility.yul\":13945:13992   */\n      mstore\n        /* \"#utility.yul\":14009:14140   */\n      tag_411\n        /* \"#utility.yul\":14135:14139   */\n      dup2\n        /* \"#utility.yul\":14009:14140   */\n      tag_248\n      jump\t// in\n    tag_411:\n        /* \"#utility.yul\":14001:14140   */\n      swap1\n      pop\n        /* \"#utility.yul\":13728:14147   */\n      swap2\n      swap1\n      pop\n      jump\t// out\n        /* \"#utility.yul\":14153:14323   */\n    tag_249:\n        /* \"#utility.yul\":14293:14315   */\n      0x6f776e6572203d207a65726f2061646472657373000000000000000000000000\n        /* \"#utility.yul\":14289:14290   */\n      0x00\n        /* \"#utility.yul\":14281:14287   */\n      dup3\n        /* \"#utility.yul\":14277:14291   */\n      add\n        /* \"#utility.yul\":14270:14316   */\n      mstore\n        /* \"#utility.yul\":14153:14323   */\n      pop\n      jump\t// out\n        /* \"#utility.yul\":14329:14695   */\n    tag_250:\n        /* \"#utility.yul\":14471:14474   */\n      0x00\n        /* \"#utility.yul\":14492:14559   */\n      tag_414\n        /* \"#utility.yul\":14556:14558   */\n      0x14\n        /* \"#utility.yul\":14551:14554   */\n      dup4\n        /* \"#utility.yul\":14492:14559   */\n      tag_218\n      jump\t// in\n    tag_414:\n        /* \"#utility.yul\":14485:14559   */\n      swap2\n      pop\n        /* \"#utility.yul\":14568:14661   */\n      tag_415\n        /* \"#utility.yul\":14657:14660   */\n      dup3\n        /* \"#utility.yul\":14568:14661   */\n      tag_249\n      jump\t// in\n    tag_415:\n        /* \"#utility.yul\":14686:14688   */\n      0x20\n        /* \"#utility.yul\":14681:14684   */\n      dup3\n        /* \"#utility.yul\":14677:14689   */\n      add\n        /* \"#utility.yul\":14670:14689   */\n      swap1\n      pop\n        /* \"#utility.yul\":14329:14695   */\n      swap2\n      swap1\n      pop\n      jump\t// out\n        /* \"#utility.yul\":14701:15120   */\n    tag_119:\n        /* \"#utility.yul\":14867:14871   */\n      0x00\n        /* \"#utility.yul\":14905:14907   */\n      0x20\n        /* \"#utility.yul\":14894:14903   */\n      dup3\n        /* \"#utility.yul\":14890:14908   */\n      add\n        /* \"#utility.yul\":14882:14908   */\n      swap1\n      pop\n        /* \"#utility.yul\":14954:14963   */\n      dup2\n        /* \"#utility.yul\":14948:14952   */\n      dup2\n        /* \"#utility.yul\":14944:14964   */\n      sub\n        /* \"#utility.yul\":14940:14941   */\n      0x00\n        /* \"#utility.yul\":14929:14938   */\n      dup4\n        /* \"#utility.yul\":14925:14942   */\n      add\n        /* \"#utility.yul\":14918:14965   */\n      mstore\n        /* \"#utility.yul\":14982:15113   */\n      tag_417\n        /* \"#utility.yul\":15108:15112   */\n      dup2\n        /* \"#utility.yul\":14982:15113   */\n      tag_250\n      jump\t// in\n    tag_417:\n        /* \"#utility.yul\":14974:15113   */\n      swap1\n      pop\n        /* \"#utility.yul\":14701:15120   */\n      swap2\n      swap1\n      pop\n      jump\t// out\n        /* \"#utility.yul\":15126:15291   */\n    tag_251:\n        /* \"#utility.yul\":15266:15283   */\n      0x546f6b656e204e6f742045786973740000000000000000000000000000000000\n        /* \"#utility.yul\":15262:15263   */\n      0x00\n        /* \"#utility.yul\":15254:15260   */\n      dup3\n        /* \"#utility.yul\":15250:15264   */\n      add\n        /* \"#utility.yul\":15243:15284   */\n      mstore\n        /* \"#utility.yul\":15126:15291   */\n      pop\n      jump\t// out\n        /* \"#utility.yul\":15297:15663   */\n    tag_252:\n        /* \"#utility.yul\":15439:15442   */\n      0x00\n        /* \"#utility.yul\":15460:15527   */\n      tag_420\n        /* \"#utility.yul\":15524:15526   */\n      0x0f\n        /* \"#utility.yul\":15519:15522   */\n      dup4\n        /* \"#utility.yul\":15460:15527   */\n      tag_218\n      jump\t// in\n    tag_420:\n        /* \"#utility.yul\":15453:15527   */\n      swap2\n      pop\n        /* \"#utility.yul\":15536:15629   */\n      tag_421\n        /* \"#utility.yul\":15625:15628   */\n      dup3\n        /* \"#utility.yul\":15536:15629   */\n      tag_251\n      jump\t// in\n    tag_421:\n        /* \"#utility.yul\":15654:15656   */\n      0x20\n        /* \"#utility.yul\":15649:15652   */\n      dup3\n        /* \"#utility.yul\":15645:15657   */\n      add\n        /* \"#utility.yul\":15638:15657   */\n      swap1\n      pop\n        /* \"#utility.yul\":15297:15663   */\n      swap2\n      swap1\n      pop\n      jump\t// out\n        /* \"#utility.yul\":15669:16088   */\n    tag_137:\n        /* \"#utility.yul\":15835:15839   */\n      0x00\n        /* \"#utility.yul\":15873:15875   */\n      0x20\n        /* \"#utility.yul\":15862:15871   */\n      dup3\n        /* \"#utility.yul\":15858:15876   */\n      add\n        /* \"#utility.yul\":15850:15876   */\n      swap1\n      pop\n        /* \"#utility.yul\":15922:15931   */\n      dup2\n        /* \"#utility.yul\":15916:15920   */\n      dup2\n        /* \"#utility.yul\":15912:15932   */\n      sub\n        /* \"#utility.yul\":15908:15909   */\n      0x00\n        /* \"#utility.yul\":15897:15906   */\n      dup4\n        /* \"#utility.yul\":15893:15910   */\n      add\n        /* \"#utility.yul\":15886:15933   */\n      mstore\n        /* \"#utility.yul\":15950:16081   */\n      tag_423\n        /* \"#utility.yul\":16076:16080   */\n      dup2\n        /* \"#utility.yul\":15950:16081   */\n      tag_252\n      jump\t// in\n    tag_423:\n        /* \"#utility.yul\":15942:16081   */\n      swap1\n      pop\n        /* \"#utility.yul\":15669:16088   */\n      swap2\n      swap1\n      pop\n      jump\t// out\n        /* \"#utility.yul\":16094:16242   */\n    tag_253:\n        /* \"#utility.yul\":16196:16207   */\n      0x00\n        /* \"#utility.yul\":16233:16236   */\n      dup2\n        /* \"#utility.yul\":16218:16236   */\n      swap1\n      pop\n        /* \"#utility.yul\":16094:16242   */\n      swap3\n      swap2\n      pop\n      pop\n      jump\t// out\n        /* \"#utility.yul\":16248:16638   */\n    tag_254:\n        /* \"#utility.yul\":16354:16357   */\n      0x00\n        /* \"#utility.yul\":16382:16421   */\n      tag_426\n        /* \"#utility.yul\":16415:16420   */\n      dup3\n        /* \"#utility.yul\":16382:16421   */\n      tag_217\n      jump\t// in\n    tag_426:\n        /* \"#utility.yul\":16437:16526   */\n      tag_427\n        /* \"#utility.yul\":16519:16525   */\n      dup2\n        /* \"#utility.yul\":16514:16517   */\n      dup6\n        /* \"#utility.yul\":16437:16526   */\n      tag_253\n      jump\t// in\n    tag_427:\n        /* \"#utility.yul\":16430:16526   */\n      swap4\n      pop\n        /* \"#utility.yul\":16535:16600   */\n      tag_428\n        /* \"#utility.yul\":16593:16599   */\n      dup2\n        /* \"#utility.yul\":16588:16591   */\n      dup6\n        /* \"#utility.yul\":16581:16585   */\n      0x20\n        /* \"#utility.yul\":16574:16579   */\n      dup7\n        /* \"#utility.yul\":16570:16586   */\n      add\n        /* \"#utility.yul\":16535:16600   */\n      tag_219\n      jump\t// in\n    tag_428:\n        /* \"#utility.yul\":16625:16631   */\n      dup1\n        /* \"#utility.yul\":16620:16623   */\n      dup5\n        /* \"#utility.yul\":16616:16632   */\n      add\n        /* \"#utility.yul\":16609:16632   */\n      swap2\n      pop\n        /* \"#utility.yul\":16358:16638   */\n      pop\n        /* \"#utility.yul\":16248:16638   */\n      swap3\n      swap2\n      pop\n      pop\n      jump\t// out\n        /* \"#utility.yul\":16644:17079   */\n    tag_145:\n        /* \"#utility.yul\":16824:16827   */\n      0x00\n        /* \"#utility.yul\":16846:16941   */\n      tag_430\n        /* \"#utility.yul\":16937:16940   */\n      dup3\n        /* \"#utility.yul\":16928:16934   */\n      dup6\n        /* \"#utility.yul\":16846:16941   */\n      tag_254\n      jump\t// in\n    tag_430:\n        /* \"#utility.yul\":16839:16941   */\n      swap2\n      pop\n        /* \"#utility.yul\":16958:17053   */\n      tag_431\n        /* \"#utility.yul\":17049:17052   */\n      dup3\n        /* \"#utility.yul\":17040:17046   */\n      dup5\n        /* \"#utility.yul\":16958:17053   */\n      tag_254\n      jump\t// in\n    tag_431:\n        /* \"#utility.yul\":16951:17053   */\n      swap2\n      pop\n        /* \"#utility.yul\":17070:17073   */\n      dup2\n        /* \"#utility.yul\":17063:17073   */\n      swap1\n      pop\n        /* \"#utility.yul\":16644:17079   */\n      swap4\n      swap3\n      pop\n      pop\n      pop\n      jump\t// out\n        /* \"#utility.yul\":17085:17244   */\n    tag_255:\n        /* \"#utility.yul\":17225:17236   */\n      0x6e6f74206f776e65720000000000000000000000000000000000000000000000\n        /* \"#utility.yul\":17221:17222   */\n      0x00\n        /* \"#utility.yul\":17213:17219   */\n      dup3\n        /* \"#utility.yul\":17209:17223   */\n      add\n        /* \"#utility.yul\":17202:17237   */\n      mstore\n        /* \"#utility.yul\":17085:17244   */\n      pop\n      jump\t// out\n        /* \"#utility.yul\":17250:17615   */\n    tag_256:\n        /* \"#utility.yul\":17392:17395   */\n      0x00\n        /* \"#utility.yul\":17413:17479   */\n      tag_434\n        /* \"#utility.yul\":17477:17478   */\n      0x09\n        /* \"#utility.yul\":17472:17475   */\n      dup4\n        /* \"#utility.yul\":17413:17479   */\n      tag_218\n      jump\t// in\n    tag_434:\n        /* \"#utility.yul\":17406:17479   */\n      swap2\n      pop\n        /* \"#utility.yul\":17488:17581   */\n      tag_435\n        /* \"#utility.yul\":17577:17580   */\n      dup3\n        /* \"#utility.yul\":17488:17581   */\n      tag_255\n      jump\t// in\n    tag_435:\n        /* \"#utility.yul\":17606:17608   */\n      0x20\n        /* \"#utility.yul\":17601:17604   */\n      dup3\n        /* \"#utility.yul\":17597:17609   */\n      add\n        /* \"#utility.yul\":17590:17609   */\n      swap1\n      pop\n        /* \"#utility.yul\":17250:17615   */\n      swap2\n      swap1\n      pop\n      jump\t// out\n        /* \"#utility.yul\":17621:18040   */\n    tag_154:\n        /* \"#utility.yul\":17787:17791   */\n      0x00\n        /* \"#utility.yul\":17825:17827   */\n      0x20\n        /* \"#utility.yul\":17814:17823   */\n      dup3\n        /* \"#utility.yul\":17810:17828   */\n      add\n        /* \"#utility.yul\":17802:17828   */\n      swap1\n      pop\n        /* \"#utility.yul\":17874:17883   */\n      dup2\n        /* \"#utility.yul\":17868:17872   */\n      dup2\n        /* \"#utility.yul\":17864:17884   */\n      sub\n        /* \"#utility.yul\":17860:17861   */\n      0x00\n        /* \"#utility.yul\":17849:17858   */\n      dup4\n        /* \"#utility.yul\":17845:17862   */\n      add\n        /* \"#utility.yul\":17838:17885   */\n      mstore\n        /* \"#utility.yul\":17902:18033   */\n      tag_437\n        /* \"#utility.yul\":18028:18032   */\n      dup2\n        /* \"#utility.yul\":17902:18033   */\n      tag_256\n      jump\t// in\n    tag_437:\n        /* \"#utility.yul\":17894:18033   */\n      swap1\n      pop\n        /* \"#utility.yul\":17621:18040   */\n      swap2\n      swap1\n      pop\n      jump\t// out\n        /* \"#utility.yul\":18046:18224   */\n    tag_257:\n        /* \"#utility.yul\":18186:18216   */\n      0x7472616e7366657220746f20746865207a65726f206164647265737300000000\n        /* \"#utility.yul\":18182:18183   */\n      0x00\n        /* \"#utility.yul\":18174:18180   */\n      dup3\n        /* \"#utility.yul\":18170:18184   */\n      add\n        /* \"#utility.yul\":18163:18217   */\n      mstore\n        /* \"#utility.yul\":18046:18224   */\n      pop\n      jump\t// out\n        /* \"#utility.yul\":18230:18596   */\n    tag_258:\n        /* \"#utility.yul\":18372:18375   */\n      0x00\n        /* \"#utility.yul\":18393:18460   */\n      tag_440\n        /* \"#utility.yul\":18457:18459   */\n      0x1c\n        /* \"#utility.yul\":18452:18455   */\n      dup4\n        /* \"#utility.yul\":18393:18460   */\n      tag_218\n      jump\t// in\n    tag_440:\n        /* \"#utility.yul\":18386:18460   */\n      swap2\n      pop\n        /* \"#utility.yul\":18469:18562   */\n      tag_441\n        /* \"#utility.yul\":18558:18561   */\n      dup3\n        /* \"#utility.yul\":18469:18562   */\n      tag_257\n      jump\t// in\n    tag_441:\n        /* \"#utility.yul\":18587:18589   */\n      0x20\n        /* \"#utility.yul\":18582:18585   */\n      dup3\n        /* \"#utility.yul\":18578:18590   */\n      add\n        /* \"#utility.yul\":18571:18590   */\n      swap1\n      pop\n        /* \"#utility.yul\":18230:18596   */\n      swap2\n      swap1\n      pop\n      jump\t// out\n        /* \"#utility.yul\":18602:19021   */\n    tag_157:\n        /* \"#utility.yul\":18768:18772   */\n      0x00\n        /* \"#utility.yul\":18806:18808   */\n      0x20\n        /* \"#utility.yul\":18795:18804   */\n      dup3\n        /* \"#utility.yul\":18791:18809   */\n      add\n        /* \"#utility.yul\":18783:18809   */\n      swap1\n      pop\n        /* \"#utility.yul\":18855:18864   */\n      dup2\n        /* \"#utility.yul\":18849:18853   */\n      dup2\n        /* \"#utility.yul\":18845:18865   */\n      sub\n        /* \"#utility.yul\":18841:18842   */\n      0x00\n        /* \"#utility.yul\":18830:18839   */\n      dup4\n        /* \"#utility.yul\":18826:18843   */\n      add\n        /* \"#utility.yul\":18819:18866   */\n      mstore\n        /* \"#utility.yul\":18883:19014   */\n      tag_443\n        /* \"#utility.yul\":19009:19013   */\n      dup2\n        /* \"#utility.yul\":18883:19014   */\n      tag_258\n      jump\t// in\n    tag_443:\n        /* \"#utility.yul\":18875:19014   */\n      swap1\n      pop\n        /* \"#utility.yul\":18602:19021   */\n      swap2\n      swap1\n      pop\n      jump\t// out\n        /* \"#utility.yul\":19027:19207   */\n    tag_259:\n        /* \"#utility.yul\":19075:19152   */\n      0x4e487b7100000000000000000000000000000000000000000000000000000000\n        /* \"#utility.yul\":19072:19073   */\n      0x00\n        /* \"#utility.yul\":19065:19153   */\n      mstore\n        /* \"#utility.yul\":19172:19176   */\n      0x11\n        /* \"#utility.yul\":19169:19170   */\n      0x04\n        /* \"#utility.yul\":19162:19177   */\n      mstore\n        /* \"#utility.yul\":19196:19200   */\n      0x24\n        /* \"#utility.yul\":19193:19194   */\n      0x00\n        /* \"#utility.yul\":19186:19201   */\n      revert\n        /* \"#utility.yul\":19213:19407   */\n    tag_160:\n        /* \"#utility.yul\":19253:19257   */\n      0x00\n        /* \"#utility.yul\":19273:19293   */\n      tag_446\n        /* \"#utility.yul\":19291:19292   */\n      dup3\n        /* \"#utility.yul\":19273:19293   */\n      tag_222\n      jump\t// in\n    tag_446:\n        /* \"#utility.yul\":19268:19293   */\n      swap2\n      pop\n        /* \"#utility.yul\":19307:19327   */\n      tag_447\n        /* \"#utility.yul\":19325:19326   */\n      dup4\n        /* \"#utility.yul\":19307:19327   */\n      tag_222\n      jump\t// in\n    tag_447:\n        /* \"#utility.yul\":19302:19327   */\n      swap3\n      pop\n        /* \"#utility.yul\":19351:19352   */\n      dup3\n        /* \"#utility.yul\":19348:19349   */\n      dup3\n        /* \"#utility.yul\":19344:19353   */\n      sub\n        /* \"#utility.yul\":19336:19353   */\n      swap1\n      pop\n        /* \"#utility.yul\":19375:19376   */\n      dup2\n        /* \"#utility.yul\":19369:19373   */\n      dup2\n        /* \"#utility.yul\":19366:19377   */\n      gt\n        /* \"#utility.yul\":19363:19400   */\n      iszero\n      tag_448\n      jumpi\n        /* \"#utility.yul\":19380:19398   */\n      tag_449\n      tag_259\n      jump\t// in\n    tag_449:\n        /* \"#utility.yul\":19363:19400   */\n    tag_448:\n        /* \"#utility.yul\":19213:19407   */\n      swap3\n      swap2\n      pop\n      pop\n      jump\t// out\n        /* \"#utility.yul\":19413:19604   */\n    tag_162:\n        /* \"#utility.yul\":19453:19456   */\n      0x00\n        /* \"#utility.yul\":19472:19492   */\n      tag_451\n        /* \"#utility.yul\":19490:19491   */\n      dup3\n        /* \"#utility.yul\":19472:19492   */\n      tag_222\n      jump\t// in\n    tag_451:\n        /* \"#utility.yul\":19467:19492   */\n      swap2\n      pop\n        /* \"#utility.yul\":19506:19526   */\n      tag_452\n        /* \"#utility.yul\":19524:19525   */\n      dup4\n        /* \"#utility.yul\":19506:19526   */\n      tag_222\n      jump\t// in\n    tag_452:\n        /* \"#utility.yul\":19501:19526   */\n      swap3\n      pop\n        /* \"#utility.yul\":19549:19550   */\n      dup3\n        /* \"#utility.yul\":19546:19547   */\n      dup3\n        /* \"#utility.yul\":19542:19551   */\n      add\n        /* \"#utility.yul\":19535:19551   */\n      swap1\n      pop\n        /* \"#utility.yul\":19570:19573   */\n      dup1\n        /* \"#utility.yul\":19567:19568   */\n      dup3\n        /* \"#utility.yul\":19564:19574   */\n      gt\n        /* \"#utility.yul\":19561:19597   */\n      iszero\n      tag_453\n      jumpi\n        /* \"#utility.yul\":19577:19595   */\n      tag_454\n      tag_259\n      jump\t// in\n    tag_454:\n        /* \"#utility.yul\":19561:19597   */\n    tag_453:\n        /* \"#utility.yul\":19413:19604   */\n      swap3\n      swap2\n      pop\n      pop\n      jump\t// out\n        /* \"#utility.yul\":19610:19843   */\n    tag_173:\n        /* \"#utility.yul\":19649:19652   */\n      0x00\n        /* \"#utility.yul\":19672:19696   */\n      tag_456\n        /* \"#utility.yul\":19690:19695   */\n      dup3\n        /* \"#utility.yul\":19672:19696   */\n      tag_222\n      jump\t// in\n    tag_456:\n        /* \"#utility.yul\":19663:19696   */\n      swap2\n      pop\n        /* \"#utility.yul\":19718:19784   */\n      0xffffffffffffffffffffffffffffffffffffffffffffffffffffffffffffffff\n        /* \"#utility.yul\":19711:19716   */\n      dup3\n        /* \"#utility.yul\":19708:19785   */\n      sub\n        /* \"#utility.yul\":19705:19808   */\n      tag_457\n      jumpi\n        /* \"#utility.yul\":19788:19806   */\n      tag_458\n      tag_259\n      jump\t// in\n    tag_458:\n        /* \"#utility.yul\":19705:19808   */\n    tag_457:\n        /* \"#utility.yul\":19835:19836   */\n      0x01\n        /* \"#utility.yul\":19828:19833   */\n      dup3\n        /* \"#utility.yul\":19824:19837   */\n      add\n        /* \"#utility.yul\":19817:19837   */\n      swap1\n      pop\n        /* \"#utility.yul\":19610:19843   */\n      swap2\n      swap1\n      pop\n      jump\t// out\n        /* \"#utility.yul\":19849:20029   */\n    tag_260:\n        /* \"#utility.yul\":19897:19974   */\n      0x4e487b7100000000000000000000000000000000000000000000000000000000\n        /* \"#utility.yul\":19894:19895   */\n      0x00\n        /* \"#utility.yul\":19887:19975   */\n      mstore\n        /* \"#utility.yul\":19994:19998   */\n      0x12\n        /* \"#utility.yul\":19991:19992   */\n      0x04\n        /* \"#utility.yul\":19984:19999   */\n      mstore\n        /* \"#utility.yul\":20018:20022   */\n      0x24\n        /* \"#utility.yul\":20015:20016   */\n      0x00\n        /* \"#utility.yul\":20008:20023   */\n      revert\n        /* \"#utility.yul\":20035:20220   */\n    tag_175:\n        /* \"#utility.yul\":20075:20076   */\n      0x00\n        /* \"#utility.yul\":20092:20112   */\n      tag_461\n        /* \"#utility.yul\":20110:20111   */\n      dup3\n        /* \"#utility.yul\":20092:20112   */\n      tag_222\n      jump\t// in\n    tag_461:\n        /* \"#utility.yul\":20087:20112   */\n      swap2\n      pop\n        /* \"#utility.yul\":20126:20146   */\n      tag_462\n        /* \"#utility.yul\":20144:20145   */\n      dup4\n        /* \"#utility.yul\":20126:20146   */\n      tag_222\n      jump\t// in\n    tag_462:\n        /* \"#utility.yul\":20121:20146   */\n      swap3\n      pop\n        /* \"#utility.yul\":20165:20166   */\n      dup3\n        /* \"#utility.yul\":20155:20190   */\n      tag_463\n      jumpi\n        /* \"#utility.yul\":20170:20188   */\n      tag_464\n      tag_260\n      jump\t// in\n    tag_464:\n        /* \"#utility.yul\":20155:20190   */\n    tag_463:\n        /* \"#utility.yul\":20212:20213   */\n      dup3\n        /* \"#utility.yul\":20209:20210   */\n      dup3\n        /* \"#utility.yul\":20205:20214   */\n      div\n        /* \"#utility.yul\":20200:20214   */\n      swap1\n      pop\n        /* \"#utility.yul\":20035:20220   */\n      swap3\n      swap2\n      pop\n      pop\n      jump\t// out\n        /* \"#utility.yul\":20226:20402   */\n    tag_184:\n        /* \"#utility.yul\":20258:20259   */\n      0x00\n        /* \"#utility.yul\":20275:20295   */\n      tag_466\n        /* \"#utility.yul\":20293:20294   */\n      dup3\n        /* \"#utility.yul\":20275:20295   */\n      tag_222\n      jump\t// in\n    tag_466:\n        /* \"#utility.yul\":20270:20295   */\n      swap2\n      pop\n        /* \"#utility.yul\":20309:20329   */\n      tag_467\n        /* \"#utility.yul\":20327:20328   */\n      dup4\n        /* \"#utility.yul\":20309:20329   */\n      tag_222\n      jump\t// in\n    tag_467:\n        /* \"#utility.yul\":20304:20329   */\n      swap3\n      pop\n        /* \"#utility.yul\":20348:20349   */\n      dup3\n        /* \"#utility.yul\":20338:20373   */\n      tag_468\n      jumpi\n        /* \"#utility.yul\":20353:20371   */\n      tag_469\n      tag_260\n      jump\t// in\n    tag_469:\n        /* \"#utility.yul\":20338:20373   */\n    tag_468:\n        /* \"#utility.yul\":20394:20395   */\n      dup3\n        /* \"#utility.yul\":20391:20392   */\n      dup3\n        /* \"#utility.yul\":20387:20396   */\n      mod\n        /* \"#utility.yul\":20382:20396   */\n      swap1\n      pop\n        /* \"#utility.yul\":20226:20402   */\n      swap3\n      swap2\n      pop\n      pop\n      jump\t// out\n        /* \"#utility.yul\":20408:20588   */\n    tag_188:\n        /* \"#utility.yul\":20456:20533   */\n      0x4e487b7100000000000000000000000000000000000000000000000000000000\n        /* \"#utility.yul\":20453:20454   */\n      0x00\n        /* \"#utility.yul\":20446:20534   */\n      mstore\n        /* \"#utility.yul\":20553:20557   */\n      0x32\n        /* \"#utility.yul\":20550:20551   */\n      0x04\n        /* \"#utility.yul\":20543:20558   */\n      mstore\n        /* \"#utility.yul\":20577:20581   */\n      0x24\n        /* \"#utility.yul\":20574:20575   */\n      0x00\n        /* \"#utility.yul\":20567:20582   */\n      revert\n        /* \"#utility.yul\":20594:20692   */\n    tag_261:\n        /* \"#utility.yul\":20645:20651   */\n      0x00\n        /* \"#utility.yul\":20679:20684   */\n      dup2\n        /* \"#utility.yul\":20673:20685   */\n      mload\n        /* \"#utility.yul\":20663:20685   */\n      swap1\n      pop\n        /* \"#utility.yul\":20594:20692   */\n      swap2\n      swap1\n      pop\n      jump\t// out\n        /* \"#utility.yul\":20698:20866   */\n    tag_262:\n        /* \"#utility.yul\":20781:20792   */\n      0x00\n        /* \"#utility.yul\":20815:20821   */\n      dup3\n        /* \"#utility.yul\":20810:20813   */\n      dup3\n        /* \"#utility.yul\":20803:20822   */\n      mstore\n        /* \"#utility.yul\":20855:20859   */\n      0x20\n        /* \"#utility.yul\":20850:20853   */\n      dup3\n        /* \"#utility.yul\":20846:20860   */\n      add\n        /* \"#utility.yul\":20831:20860   */\n      swap1\n      pop\n        /* \"#utility.yul\":20698:20866   */\n      swap3\n      swap2\n      pop\n      pop\n      jump\t// out\n        /* \"#utility.yul\":20872:21245   */\n    tag_263:\n        /* \"#utility.yul\":20958:20961   */\n      0x00\n        /* \"#utility.yul\":20986:21024   */\n      tag_474\n        /* \"#utility.yul\":21018:21023   */\n      dup3\n        /* \"#utility.yul\":20986:21024   */\n      tag_261\n      jump\t// in\n    tag_474:\n        /* \"#utility.yul\":21040:21110   */\n      tag_475\n        /* \"#utility.yul\":21103:21109   */\n      dup2\n        /* \"#utility.yul\":21098:21101   */\n      dup6\n        /* \"#utility.yul\":21040:21110   */\n      tag_262\n      jump\t// in\n    tag_475:\n        /* \"#utility.yul\":21033:21110   */\n      swap4\n      pop\n        /* \"#utility.yul\":21119:21184   */\n      tag_476\n        /* \"#utility.yul\":21177:21183   */\n      dup2\n        /* \"#utility.yul\":21172:21175   */\n      dup6\n        /* \"#utility.yul\":21165:21169   */\n      0x20\n        /* \"#utility.yul\":21158:21163   */\n      dup7\n        /* \"#utility.yul\":21154:21170   */\n      add\n        /* \"#utility.yul\":21119:21184   */\n      tag_219\n      jump\t// in\n    tag_476:\n        /* \"#utility.yul\":21209:21238   */\n      tag_477\n        /* \"#utility.yul\":21231:21237   */\n      dup2\n        /* \"#utility.yul\":21209:21238   */\n      tag_220\n      jump\t// in\n    tag_477:\n        /* \"#utility.yul\":21204:21207   */\n      dup5\n        /* \"#utility.yul\":21200:21239   */\n      add\n        /* \"#utility.yul\":21193:21239   */\n      swap2\n      pop\n        /* \"#utility.yul\":20962:21245   */\n      pop\n        /* \"#utility.yul\":20872:21245   */\n      swap3\n      swap2\n      pop\n      pop\n      jump\t// out\n        /* \"#utility.yul\":21251:21891   */\n    tag_193:\n        /* \"#utility.yul\":21446:21450   */\n      0x00\n        /* \"#utility.yul\":21484:21487   */\n      0x80\n        /* \"#utility.yul\":21473:21482   */\n      dup3\n        /* \"#utility.yul\":21469:21488   */\n      add\n        /* \"#utility.yul\":21461:21488   */\n      swap1\n      pop\n        /* \"#utility.yul\":21498:21569   */\n      tag_479\n        /* \"#utility.yul\":21566:21567   */\n      0x00\n        /* \"#utility.yul\":21555:21564   */\n      dup4\n        /* \"#utility.yul\":21551:21568   */\n      add\n        /* \"#utility.yul\":21542:21548   */\n      dup8\n        /* \"#utility.yul\":21498:21569   */\n      tag_227\n      jump\t// in\n    tag_479:\n        /* \"#utility.yul\":21579:21651   */\n      tag_480\n        /* \"#utility.yul\":21647:21649   */\n      0x20\n        /* \"#utility.yul\":21636:21645   */\n      dup4\n        /* \"#utility.yul\":21632:21650   */\n      add\n        /* \"#utility.yul\":21623:21629   */\n      dup7\n        /* \"#utility.yul\":21579:21651   */\n      tag_227\n      jump\t// in\n    tag_480:\n        /* \"#utility.yul\":21661:21733   */\n      tag_481\n        /* \"#utility.yul\":21729:21731   */\n      0x40\n        /* \"#utility.yul\":21718:21727   */\n      dup4\n        /* \"#utility.yul\":21714:21732   */\n      add\n        /* \"#utility.yul\":21705:21711   */\n      dup6\n        /* \"#utility.yul\":21661:21733   */\n      tag_231\n      jump\t// in\n    tag_481:\n        /* \"#utility.yul\":21780:21789   */\n      dup2\n        /* \"#utility.yul\":21774:21778   */\n      dup2\n        /* \"#utility.yul\":21770:21790   */\n      sub\n        /* \"#utility.yul\":21765:21767   */\n      0x60\n        /* \"#utility.yul\":21754:21763   */\n      dup4\n        /* \"#utility.yul\":21750:21768   */\n      add\n        /* \"#utility.yul\":21743:21791   */\n      mstore\n        /* \"#utility.yul\":21808:21884   */\n      tag_482\n        /* \"#utility.yul\":21879:21883   */\n      dup2\n        /* \"#utility.yul\":21870:21876   */\n      dup5\n        /* \"#utility.yul\":21808:21884   */\n      tag_263\n      jump\t// in\n    tag_482:\n        /* \"#utility.yul\":21800:21884   */\n      swap1\n      pop\n        /* \"#utility.yul\":21251:21891   */\n      swap6\n      swap5\n      pop\n      pop\n      pop\n      pop\n      pop\n      jump\t// out\n        /* \"#utility.yul\":21897:22038   */\n    tag_264:\n        /* \"#utility.yul\":21953:21958   */\n      0x00\n        /* \"#utility.yul\":21984:21990   */\n      dup2\n        /* \"#utility.yul\":21978:21991   */\n      mload\n        /* \"#utility.yul\":21969:21991   */\n      swap1\n      pop\n        /* \"#utility.yul\":22000:22032   */\n      tag_484\n        /* \"#utility.yul\":22026:22031   */\n      dup2\n        /* \"#utility.yul\":22000:22032   */\n      tag_213\n      jump\t// in\n    tag_484:\n        /* \"#utility.yul\":21897:22038   */\n      swap3\n      swap2\n      pop\n      pop\n      jump\t// out\n        /* \"#utility.yul\":22044:22393   */\n    tag_196:\n        /* \"#utility.yul\":22113:22119   */\n      0x00\n        /* \"#utility.yul\":22162:22164   */\n      0x20\n        /* \"#utility.yul\":22150:22159   */\n      dup3\n        /* \"#utility.yul\":22141:22148   */\n      dup5\n        /* \"#utility.yul\":22137:22160   */\n      sub\n        /* \"#utility.yul\":22133:22165   */\n      slt\n        /* \"#utility.yul\":22130:22249   */\n      iszero\n      tag_486\n      jumpi\n        /* \"#utility.yul\":22168:22247   */\n      tag_487\n      tag_210\n      jump\t// in\n    tag_487:\n        /* \"#utility.yul\":22130:22249   */\n    tag_486:\n        /* \"#utility.yul\":22288:22289   */\n      0x00\n        /* \"#utility.yul\":22313:22376   */\n      tag_488\n        /* \"#utility.yul\":22368:22375   */\n      dup5\n        /* \"#utility.yul\":22359:22365   */\n      dup3\n        /* \"#utility.yul\":22348:22357   */\n      dup6\n        /* \"#utility.yul\":22344:22366   */\n      add\n        /* \"#utility.yul\":22313:22376   */\n      tag_264\n      jump\t// in\n    tag_488:\n        /* \"#utility.yul\":22303:22376   */\n      swap2\n      pop\n        /* \"#utility.yul\":22259:22386   */\n      pop\n        /* \"#utility.yul\":22044:22393   */\n      swap3\n      swap2\n      pop\n      pop\n      jump\t// out\n\n    auxdata: 0xa26469706673582212209927e40ac8ba9516486eb122681620d4ee87efc36364c3a0f33b0946b47e12ac64736f6c634300081c0033\n}\n",
				"bytecode": {
					"linkReferences": {},
					"object": "608060405234801561000f575f5ffd5b50604051612468380380612468833981810160405281019061003191906101a4565b815f908161003f919061042a565b50806001908161004f919061042a565b5050506104f9565b5f604051905090565b5f5ffd5b5f5ffd5b5f5ffd5b5f5ffd5b5f601f19601f8301169050919050565b7f4e487b71000000000000000000000000000000000000000000000000000000005f52604160045260245ffd5b6100b682610070565b810181811067ffffffffffffffff821117156100d5576100d4610080565b5b80604052505050565b5f6100e7610057565b90506100f382826100ad565b919050565b5f67ffffffffffffffff82111561011257610111610080565b5b61011b82610070565b9050602081019050919050565b8281835e5f83830152505050565b5f610148610143846100f8565b6100de565b9050828152602081018484840111156101645761016361006c565b5b61016f848285610128565b509392505050565b5f82601f83011261018b5761018a610068565b5b815161019b848260208601610136565b91505092915050565b5f5f604083850312156101ba576101b9610060565b5b5f83015167ffffffffffffffff8111156101d7576101d6610064565b5b6101e385828601610177565b925050602083015167ffffffffffffffff81111561020457610203610064565b5b61021085828601610177565b9150509250929050565b5f81519050919050565b7f4e487b71000000000000000000000000000000000000000000000000000000005f52602260045260245ffd5b5f600282049050600182168061026857607f821691505b60208210810361027b5761027a610224565b5b50919050565b5f819050815f5260205f209050919050565b5f6020601f8301049050919050565b5f82821b905092915050565b5f600883026102dd7fffffffffffffffffffffffffffffffffffffffffffffffffffffffffffffffff826102a2565b6102e786836102a2565b95508019841693508086168417925050509392505050565b5f819050919050565b5f819050919050565b5f61032b610326610321846102ff565b610308565b6102ff565b9050919050565b5f819050919050565b61034483610311565b61035861035082610332565b8484546102ae565b825550505050565b5f5f905090565b61036f610360565b61037a81848461033b565b505050565b5b8181101561039d576103925f82610367565b600181019050610380565b5050565b601f8211156103e2576103b381610281565b6103bc84610293565b810160208510156103cb578190505b6103df6103d785610293565b83018261037f565b50505b505050565b5f82821c905092915050565b5f6104025f19846008026103e7565b1980831691505092915050565b5f61041a83836103f3565b9150826002028217905092915050565b6104338261021a565b67ffffffffffffffff81111561044c5761044b610080565b5b6104568254610251565b6104618282856103a1565b5f60209050601f831160018114610492575f8415610480578287015190505b61048a858261040f565b8655506104f1565b601f1984166104a086610281565b5f5b828110156104c7578489015182556001820191506020850194506020810190506104a2565b868310156104e457848901516104e0601f8916826103f3565b8355505b6001600288020188555050505b505050505050565b611f62806105065f395ff3fe608060405234801561000f575f5ffd5b50600436106100e8575f3560e01c80636b9241fc1161008a578063a22cb46511610064578063a22cb4651461025a578063b88d4fde14610276578063c87b56dd14610292578063e985e9c5146102c2576100e8565b80636b9241fc146101ee57806370a082311461020c57806395d89b411461023c576100e8565b8063095ea7b3116100c6578063095ea7b31461016a57806323b872dd1461018657806342842e0e146101a25780636352211e146101be576100e8565b806301ffc9a7146100ec57806306fdde031461011c578063081812fc1461013a575b5f5ffd5b61010660048036038101906101019190611402565b6102f2565b6040516101139190611447565b60405180910390f35b61012461042b565b60405161013191906114d0565b60405180910390f35b610154600480360381019061014f9190611523565b6104b6565b604051610161919061158d565b60405180910390f35b610184600480360381019061017f91906115d0565b61058d565b005b6101a0600480360381019061019b919061160e565b6106cb565b005b6101bc60048036038101906101b7919061160e565b610733565b005b6101d860048036038101906101d39190611523565b610752565b6040516101e5919061158d565b60405180910390f35b6101f66107f9565b604051610203919061166d565b60405180910390f35b61022660048036038101906102219190611686565b610820565b60405161023391906116c0565b60405180910390f35b6102446108d4565b60405161025191906114d0565b60405180910390f35b610274600480360381019061026f9190611703565b610960565b005b610290600480360381019061028b919061186d565b610a58565b005b6102ac60048036038101906102a79190611523565b610ac2565b6040516102b991906114d0565b60405180910390f35b6102dc60048036038101906102d791906118ed565b610bbc565b6040516102e99190611447565b60405180910390f35b5f7f80ac58cd000000000000000000000000000000000000000000000000000000007bffffffffffffffffffffffffffffffffffffffffffffffffffffffff1916827bffffffffffffffffffffffffffffffffffffffffffffffffffffffff191614806103bc57507f01ffc9a7000000000000000000000000000000000000000000000000000000007bffffffffffffffffffffffffffffffffffffffffffffffffffffffff1916827bffffffffffffffffffffffffffffffffffffffffffffffffffffffff1916145b8061042457507f5b5e139f000000000000000000000000000000000000000000000000000000007bffffffffffffffffffffffffffffffffffffffffffffffffffffffff1916827bffffffffffffffffffffffffffffffffffffffffffffffffffffffff1916145b9050919050565b5f805461043790611958565b80601f016020809104026020016040519081016040528092919081815260200182805461046390611958565b80156104ae5780601f10610485576101008083540402835291602001916104ae565b820191905f5260205f20905b81548152906001019060200180831161049157829003601f168201915b505050505081565b5f5f73ffffffffffffffffffffffffffffffffffffffff1660025f8481526020019081526020015f205f9054906101000a900473ffffffffffffffffffffffffffffffffffffffff1673ffffffffffffffffffffffffffffffffffffffff1603610555576040517f08c379a000000000000000000000000000000000000000000000000000000000815260040161054c906119d2565b60405180910390fd5b60045f8381526020019081526020015f205f9054906101000a900473ffffffffffffffffffffffffffffffffffffffff169050919050565b5f60025f8381526020019081526020015f205f9054906101000a900473ffffffffffffffffffffffffffffffffffffffff1690508073ffffffffffffffffffffffffffffffffffffffff163373ffffffffffffffffffffffffffffffffffffffff16148061067c575060055f8273ffffffffffffffffffffffffffffffffffffffff1673ffffffffffffffffffffffffffffffffffffffff1681526020019081526020015f205f3373ffffffffffffffffffffffffffffffffffffffff1673ffffffffffffffffffffffffffffffffffffffff1681526020019081526020015f205f9054906101000a900460ff165b6106bb576040517f08c379a00000000000000000000000000000000000000000000000000000000081526004016106b290611a3a565b60405180910390fd5b6106c6818484610c4a565b505050565b5f6106d582610752565b90506106e2813384610cf9565b610721576040517f08c379a000000000000000000000000000000000000000000000000000000000815260040161071890611aa2565b60405180910390fd5b61072d81858585610e24565b50505050565b61074d83838360405180602001604052805f815250610a58565b505050565b5f60025f8381526020019081526020015f205f9054906101000a900473ffffffffffffffffffffffffffffffffffffffff1690505f73ffffffffffffffffffffffffffffffffffffffff168173ffffffffffffffffffffffffffffffffffffffff16036107f4576040517f08c379a00000000000000000000000000000000000000000000000000000000081526004016107eb906119d2565b60405180910390fd5b919050565b5f7f150b7a0200000000000000000000000000000000000000000000000000000000905090565b5f5f73ffffffffffffffffffffffffffffffffffffffff168273ffffffffffffffffffffffffffffffffffffffff160361088f576040517f08c379a000000000000000000000000000000000000000000000000000000000815260040161088690611b0a565b60405180910390fd5b60035f8373ffffffffffffffffffffffffffffffffffffffff1673ffffffffffffffffffffffffffffffffffffffff1681526020019081526020015f20549050919050565b600180546108e190611958565b80601f016020809104026020016040519081016040528092919081815260200182805461090d90611958565b80156109585780601f1061092f57610100808354040283529160200191610958565b820191905f5260205f20905b81548152906001019060200180831161093b57829003601f168201915b505050505081565b8060055f3373ffffffffffffffffffffffffffffffffffffffff1673ffffffffffffffffffffffffffffffffffffffff1681526020019081526020015f205f8473ffffffffffffffffffffffffffffffffffffffff1673ffffffffffffffffffffffffffffffffffffffff1681526020019081526020015f205f6101000a81548160ff0219169083151502179055508173ffffffffffffffffffffffffffffffffffffffff163373ffffffffffffffffffffffffffffffffffffffff167f17307eab39ab6107e8899845ad3d59bd9653f200f220920489ca2b5937696c3183604051610a4c9190611447565b60405180910390a35050565b5f610a6283610752565b9050610a6f813385610cf9565b610aae576040517f08c379a0000000000000000000000000000000000000000000000000000000008152600401610aa590611aa2565b60405180910390fd5b610abb8186868686611063565b5050505050565b60605f73ffffffffffffffffffffffffffffffffffffffff1660025f8481526020019081526020015f205f9054906101000a900473ffffffffffffffffffffffffffffffffffffffff1673ffffffffffffffffffffffffffffffffffffffff1603610b62576040517f08c379a0000000000000000000000000000000000000000000000000000000008152600401610b5990611b72565b60405180910390fd5b5f610b6b611082565b90505f815111610b895760405180602001604052805f815250610bb4565b80610b9384611098565b604051602001610ba4929190611bca565b6040516020818303038152906040525b915050919050565b5f60055f8473ffffffffffffffffffffffffffffffffffffffff1673ffffffffffffffffffffffffffffffffffffffff1681526020019081526020015f205f8373ffffffffffffffffffffffffffffffffffffffff1673ffffffffffffffffffffffffffffffffffffffff1681526020019081526020015f205f9054906101000a900460ff16905092915050565b8160045f8381526020019081526020015f205f6101000a81548173ffffffffffffffffffffffffffffffffffffffff021916908373ffffffffffffffffffffffffffffffffffffffff160217905550808273ffffffffffffffffffffffffffffffffffffffff168473ffffffffffffffffffffffffffffffffffffffff167f8c5be1e5ebec7d5bd14f71427d1e84f3dd0314c0f7b2291e5b200ac8c7c3b92560405160405180910390a4505050565b5f8373ffffffffffffffffffffffffffffffffffffffff168373ffffffffffffffffffffffffffffffffffffffff161480610d8f57508273ffffffffffffffffffffffffffffffffffffffff1660045f8481526020019081526020015f205f9054906101000a900473ffffffffffffffffffffffffffffffffffffffff1673ffffffffffffffffffffffffffffffffffffffff16145b80610e1b575060055f8573ffffffffffffffffffffffffffffffffffffffff1673ffffffffffffffffffffffffffffffffffffffff1681526020019081526020015f205f8473ffffffffffffffffffffffffffffffffffffffff1673ffffffffffffffffffffffffffffffffffffffff1681526020019081526020015f205f9054906101000a900460ff165b90509392505050565b8373ffffffffffffffffffffffffffffffffffffffff168373ffffffffffffffffffffffffffffffffffffffff1614610e92576040517f08c379a0000000000000000000000000000000000000000000000000000000008152600401610e8990611c37565b60405180910390fd5b5f73ffffffffffffffffffffffffffffffffffffffff168273ffffffffffffffffffffffffffffffffffffffff1603610f00576040517f08c379a0000000000000000000000000000000000000000000000000000000008152600401610ef790611c9f565b60405180910390fd5b610f0b845f83610c4a565b600160035f8573ffffffffffffffffffffffffffffffffffffffff1673ffffffffffffffffffffffffffffffffffffffff1681526020019081526020015f205f828254610f589190611cea565b92505081905550600160035f8473ffffffffffffffffffffffffffffffffffffffff1673ffffffffffffffffffffffffffffffffffffffff1681526020019081526020015f205f828254610fac9190611d1d565b925050819055508160025f8381526020019081526020015f205f6101000a81548173ffffffffffffffffffffffffffffffffffffffff021916908373ffffffffffffffffffffffffffffffffffffffff160217905550808273ffffffffffffffffffffffffffffffffffffffff168473ffffffffffffffffffffffffffffffffffffffff167fddf252ad1be2c89b69c2b068fc378daa952ba7f163c4a11628f55a4df523b3ef60405160405180910390a450505050565b61106f85858585610e24565b61107b848484846111f1565b5050505050565b606060405180602001604052805f815250905090565b60605f82036110de576040518060400160405280600181526020017f300000000000000000000000000000000000000000000000000000000000000081525090506111ec565b5f8290505f5b5f821461110d5780806110f690611d50565b915050600a826111069190611dc4565b91506110e4565b5f8167ffffffffffffffff81111561112857611127611749565b5b6040519080825280601f01601f19166020018201604052801561115a5781602001600182028036833780820191505090505b5090505b5f85146111e5576001826111729190611cea565b9150600a856111819190611df4565b603061118d9190611d1d565b60f81b8183815181106111a3576111a2611e24565b5b60200101907effffffffffffffffffffffffffffffffffffffffffffffffffffffffffffff191690815f1a905350600a856111de9190611dc4565b945061115e565b8093505050505b919050565b5f8373ffffffffffffffffffffffffffffffffffffffff163b1115611396578273ffffffffffffffffffffffffffffffffffffffff1663150b7a02338685856040518563ffffffff1660e01b815260040161124f9493929190611ea3565b6020604051808303815f875af192505050801561128a57506040513d601f19601f820116820180604052508101906112879190611f01565b60015b61130b573d805f81146112b8576040519150601f19603f3d011682016040523d82523d5f602084013e6112bd565b606091505b505f81510361130357836040517f64a0ae920000000000000000000000000000000000000000000000000000000081526004016112fa919061158d565b60405180910390fd5b805181602001fd5b63150b7a0260e01b7bffffffffffffffffffffffffffffffffffffffffffffffffffffffff1916817bffffffffffffffffffffffffffffffffffffffffffffffffffffffff19161461139457836040517f64a0ae9200000000000000000000000000000000000000000000000000000000815260040161138b919061158d565b60405180910390fd5b505b50505050565b5f604051905090565b5f5ffd5b5f5ffd5b5f7fffffffff0000000000000000000000000000000000000000000000000000000082169050919050565b6113e1816113ad565b81146113eb575f5ffd5b50565b5f813590506113fc816113d8565b92915050565b5f60208284031215611417576114166113a5565b5b5f611424848285016113ee565b91505092915050565b5f8115159050919050565b6114418161142d565b82525050565b5f60208201905061145a5f830184611438565b92915050565b5f81519050919050565b5f82825260208201905092915050565b8281835e5f83830152505050565b5f601f19601f8301169050919050565b5f6114a282611460565b6114ac818561146a565b93506114bc81856020860161147a565b6114c581611488565b840191505092915050565b5f6020820190508181035f8301526114e88184611498565b905092915050565b5f819050919050565b611502816114f0565b811461150c575f5ffd5b50565b5f8135905061151d816114f9565b92915050565b5f60208284031215611538576115376113a5565b5b5f6115458482850161150f565b91505092915050565b5f73ffffffffffffffffffffffffffffffffffffffff82169050919050565b5f6115778261154e565b9050919050565b6115878161156d565b82525050565b5f6020820190506115a05f83018461157e565b92915050565b6115af8161156d565b81146115b9575f5ffd5b50565b5f813590506115ca816115a6565b92915050565b5f5f604083850312156115e6576115e56113a5565b5b5f6115f3858286016115bc565b92505060206116048582860161150f565b9150509250929050565b5f5f5f60608486031215611625576116246113a5565b5b5f611632868287016115bc565b9350506020611643868287016115bc565b92505060406116548682870161150f565b9150509250925092565b611667816113ad565b82525050565b5f6020820190506116805f83018461165e565b92915050565b5f6020828403121561169b5761169a6113a5565b5b5f6116a8848285016115bc565b91505092915050565b6116ba816114f0565b82525050565b5f6020820190506116d35f8301846116b1565b92915050565b6116e28161142d565b81146116ec575f5ffd5b50565b5f813590506116fd816116d9565b92915050565b5f5f60408385031215611719576117186113a5565b5b5f611726858286016115bc565b9250506020611737858286016116ef565b9150509250929050565b5f5ffd5b5f5ffd5b7f4e487b71000000000000000000000000000000000000000000000000000000005f52604160045260245ffd5b61177f82611488565b810181811067ffffffffffffffff8211171561179e5761179d611749565b5b80604052505050565b5f6117b061139c565b90506117bc8282611776565b919050565b5f67ffffffffffffffff8211156117db576117da611749565b5b6117e482611488565b9050602081019050919050565b828183375f83830152505050565b5f61181161180c846117c1565b6117a7565b90508281526020810184848401111561182d5761182c611745565b5b6118388482856117f1565b509392505050565b5f82601f83011261185457611853611741565b5b81356118648482602086016117ff565b91505092915050565b5f5f5f5f60808587031215611885576118846113a5565b5b5f611892878288016115bc565b94505060206118a3878288016115bc565b93505060406118b48782880161150f565b925050606085013567ffffffffffffffff8111156118d5576118d46113a9565b5b6118e187828801611840565b91505092959194509250565b5f5f60408385031215611903576119026113a5565b5b5f611910858286016115bc565b9250506020611921858286016115bc565b9150509250929050565b7f4e487b71000000000000000000000000000000000000000000000000000000005f52602260045260245ffd5b5f600282049050600182168061196f57607f821691505b6020821081036119825761198161192b565b5b50919050565b7f746f6b656e20646f65736e2774206578697374000000000000000000000000005f82015250565b5f6119bc60138361146a565b91506119c782611988565b602082019050919050565b5f6020820190508181035f8301526119e9816119b0565b9050919050565b7f6e6f74206f776e6572206e6f7220617070726f76656420666f7220616c6c00005f82015250565b5f611a24601e8361146a565b9150611a2f826119f0565b602082019050919050565b5f6020820190508181035f830152611a5181611a18565b9050919050565b7f6e6f74206f776e6572206e6f7220617070726f766564000000000000000000005f82015250565b5f611a8c60168361146a565b9150611a9782611a58565b602082019050919050565b5f6020820190508181035f830152611ab981611a80565b9050919050565b7f6f776e6572203d207a65726f20616464726573730000000000000000000000005f82015250565b5f611af460148361146a565b9150611aff82611ac0565b602082019050919050565b5f6020820190508181035f830152611b2181611ae8565b9050919050565b7f546f6b656e204e6f7420457869737400000000000000000000000000000000005f82015250565b5f611b5c600f8361146a565b9150611b6782611b28565b602082019050919050565b5f6020820190508181035f830152611b8981611b50565b9050919050565b5f81905092915050565b5f611ba482611460565b611bae8185611b90565b9350611bbe81856020860161147a565b80840191505092915050565b5f611bd58285611b9a565b9150611be18284611b9a565b91508190509392505050565b7f6e6f74206f776e657200000000000000000000000000000000000000000000005f82015250565b5f611c2160098361146a565b9150611c2c82611bed565b602082019050919050565b5f6020820190508181035f830152611c4e81611c15565b9050919050565b7f7472616e7366657220746f20746865207a65726f2061646472657373000000005f82015250565b5f611c89601c8361146a565b9150611c9482611c55565b602082019050919050565b5f6020820190508181035f830152611cb681611c7d565b9050919050565b7f4e487b71000000000000000000000000000000000000000000000000000000005f52601160045260245ffd5b5f611cf4826114f0565b9150611cff836114f0565b9250828203905081811115611d1757611d16611cbd565b5b92915050565b5f611d27826114f0565b9150611d32836114f0565b9250828201905080821115611d4a57611d49611cbd565b5b92915050565b5f611d5a826114f0565b91507fffffffffffffffffffffffffffffffffffffffffffffffffffffffffffffffff8203611d8c57611d8b611cbd565b5b600182019050919050565b7f4e487b71000000000000000000000000000000000000000000000000000000005f52601260045260245ffd5b5f611dce826114f0565b9150611dd9836114f0565b925082611de957611de8611d97565b5b828204905092915050565b5f611dfe826114f0565b9150611e09836114f0565b925082611e1957611e18611d97565b5b828206905092915050565b7f4e487b71000000000000000000000000000000000000000000000000000000005f52603260045260245ffd5b5f81519050919050565b5f82825260208201905092915050565b5f611e7582611e51565b611e7f8185611e5b565b9350611e8f81856020860161147a565b611e9881611488565b840191505092915050565b5f608082019050611eb65f83018761157e565b611ec3602083018661157e565b611ed060408301856116b1565b8181036060830152611ee28184611e6b565b905095945050505050565b5f81519050611efb816113d8565b92915050565b5f60208284031215611f1657611f156113a5565b5b5f611f2384828501611eed565b9150509291505056fea26469706673582212209927e40ac8ba9516486eb122681620d4ee87efc36364c3a0f33b0946b47e12ac64736f6c634300081c0033",
					"opcodes": "PUSH1 0x80 PUSH1 0x40 MSTORE CALLVALUE DUP1 ISZERO PUSH2 0xF JUMPI PUSH0 PUSH0 REVERT JUMPDEST POP PUSH1 0x40 MLOAD PUSH2 0x2468 CODESIZE SUB DUP1 PUSH2 0x2468 DUP4 CODECOPY DUP2 DUP2 ADD PUSH1 0x40 MSTORE DUP2 ADD SWAP1 PUSH2 0x31 SWAP2 SWAP1 PUSH2 0x1A4 JUMP JUMPDEST DUP2 PUSH0 SWAP1 DUP2 PUSH2 0x3F SWAP2 SWAP1 PUSH2 0x42A JUMP JUMPDEST POP DUP1 PUSH1 0x1 SWAP1 DUP2 PUSH2 0x4F SWAP2 SWAP1 PUSH2 0x42A JUMP JUMPDEST POP POP POP PUSH2 0x4F9 JUMP JUMPDEST PUSH0 PUSH1 0x40 MLOAD SWAP1 POP SWAP1 JUMP JUMPDEST PUSH0 PUSH0 REVERT JUMPDEST PUSH0 PUSH0 REVERT JUMPDEST PUSH0 PUSH0 REVERT JUMPDEST PUSH0 PUSH0 REVERT JUMPDEST PUSH0 PUSH1 0x1F NOT PUSH1 0x1F DUP4 ADD AND SWAP1 POP SWAP2 SWAP1 POP JUMP JUMPDEST PUSH32 0x4E487B7100000000000000000000000000000000000000000000000000000000 PUSH0 MSTORE PUSH1 0x41 PUSH1 0x4 MSTORE PUSH1 0x24 PUSH0 REVERT JUMPDEST PUSH2 0xB6 DUP3 PUSH2 0x70 JUMP JUMPDEST DUP2 ADD DUP2 DUP2 LT PUSH8 0xFFFFFFFFFFFFFFFF DUP3 GT OR ISZERO PUSH2 0xD5 JUMPI PUSH2 0xD4 PUSH2 0x80 JUMP JUMPDEST JUMPDEST DUP1 PUSH1 0x40 MSTORE POP POP POP JUMP JUMPDEST PUSH0 PUSH2 0xE7 PUSH2 0x57 JUMP JUMPDEST SWAP1 POP PUSH2 0xF3 DUP3 DUP3 PUSH2 0xAD JUMP JUMPDEST SWAP2 SWAP1 POP JUMP JUMPDEST PUSH0 PUSH8 0xFFFFFFFFFFFFFFFF DUP3 GT ISZERO PUSH2 0x112 JUMPI PUSH2 0x111 PUSH2 0x80 JUMP JUMPDEST JUMPDEST PUSH2 0x11B DUP3 PUSH2 0x70 JUMP JUMPDEST SWAP1 POP PUSH1 0x20 DUP2 ADD SWAP1 POP SWAP2 SWAP1 POP JUMP JUMPDEST DUP3 DUP2 DUP4 MCOPY PUSH0 DUP4 DUP4 ADD MSTORE POP POP POP JUMP JUMPDEST PUSH0 PUSH2 0x148 PUSH2 0x143 DUP5 PUSH2 0xF8 JUMP JUMPDEST PUSH2 0xDE JUMP JUMPDEST SWAP1 POP DUP3 DUP2 MSTORE PUSH1 0x20 DUP2 ADD DUP5 DUP5 DUP5 ADD GT ISZERO PUSH2 0x164 JUMPI PUSH2 0x163 PUSH2 0x6C JUMP JUMPDEST JUMPDEST PUSH2 0x16F DUP5 DUP3 DUP6 PUSH2 0x128 JUMP JUMPDEST POP SWAP4 SWAP3 POP POP POP JUMP JUMPDEST PUSH0 DUP3 PUSH1 0x1F DUP4 ADD SLT PUSH2 0x18B JUMPI PUSH2 0x18A PUSH2 0x68 JUMP JUMPDEST JUMPDEST DUP2 MLOAD PUSH2 0x19B DUP5 DUP3 PUSH1 0x20 DUP7 ADD PUSH2 0x136 JUMP JUMPDEST SWAP2 POP POP SWAP3 SWAP2 POP POP JUMP JUMPDEST PUSH0 PUSH0 PUSH1 0x40 DUP4 DUP6 SUB SLT ISZERO PUSH2 0x1BA JUMPI PUSH2 0x1B9 PUSH2 0x60 JUMP JUMPDEST JUMPDEST PUSH0 DUP4 ADD MLOAD PUSH8 0xFFFFFFFFFFFFFFFF DUP2 GT ISZERO PUSH2 0x1D7 JUMPI PUSH2 0x1D6 PUSH2 0x64 JUMP JUMPDEST JUMPDEST PUSH2 0x1E3 DUP6 DUP3 DUP7 ADD PUSH2 0x177 JUMP JUMPDEST SWAP3 POP POP PUSH1 0x20 DUP4 ADD MLOAD PUSH8 0xFFFFFFFFFFFFFFFF DUP2 GT ISZERO PUSH2 0x204 JUMPI PUSH2 0x203 PUSH2 0x64 JUMP JUMPDEST JUMPDEST PUSH2 0x210 DUP6 DUP3 DUP7 ADD PUSH2 0x177 JUMP JUMPDEST SWAP2 POP POP SWAP3 POP SWAP3 SWAP1 POP JUMP JUMPDEST PUSH0 DUP2 MLOAD SWAP1 POP SWAP2 SWAP1 POP JUMP JUMPDEST PUSH32 0x4E487B7100000000000000000000000000000000000000000000000000000000 PUSH0 MSTORE PUSH1 0x22 PUSH1 0x4 MSTORE PUSH1 0x24 PUSH0 REVERT JUMPDEST PUSH0 PUSH1 0x2 DUP3 DIV SWAP1 POP PUSH1 0x1 DUP3 AND DUP1 PUSH2 0x268 JUMPI PUSH1 0x7F DUP3 AND SWAP2 POP JUMPDEST PUSH1 0x20 DUP3 LT DUP2 SUB PUSH2 0x27B JUMPI PUSH2 0x27A PUSH2 0x224 JUMP JUMPDEST JUMPDEST POP SWAP2 SWAP1 POP JUMP JUMPDEST PUSH0 DUP2 SWAP1 POP DUP2 PUSH0 MSTORE PUSH1 0x20 PUSH0 KECCAK256 SWAP1 POP SWAP2 SWAP1 POP JUMP JUMPDEST PUSH0 PUSH1 0x20 PUSH1 0x1F DUP4 ADD DIV SWAP1 POP SWAP2 SWAP1 POP JUMP JUMPDEST PUSH0 DUP3 DUP3 SHL SWAP1 POP SWAP3 SWAP2 POP POP JUMP JUMPDEST PUSH0 PUSH1 0x8 DUP4 MUL PUSH2 0x2DD PUSH32 0xFFFFFFFFFFFFFFFFFFFFFFFFFFFFFFFFFFFFFFFFFFFFFFFFFFFFFFFFFFFFFFFF DUP3 PUSH2 0x2A2 JUMP JUMPDEST PUSH2 0x2E7 DUP7 DUP4 PUSH2 0x2A2 JUMP JUMPDEST SWAP6 POP DUP1 NOT DUP5 AND SWAP4 POP DUP1 DUP7 AND DUP5 OR SWAP3 POP POP POP SWAP4 SWAP3 POP POP POP JUMP JUMPDEST PUSH0 DUP2 SWAP1 POP SWAP2 SWAP1 POP JUMP JUMPDEST PUSH0 DUP2 SWAP1 POP SWAP2 SWAP1 POP JUMP JUMPDEST PUSH0 PUSH2 0x32B PUSH2 0x326 PUSH2 0x321 DUP5 PUSH2 0x2FF JUMP JUMPDEST PUSH2 0x308 JUMP JUMPDEST PUSH2 0x2FF JUMP JUMPDEST SWAP1 POP SWAP2 SWAP1 POP JUMP JUMPDEST PUSH0 DUP2 SWAP1 POP SWAP2 SWAP1 POP JUMP JUMPDEST PUSH2 0x344 DUP4 PUSH2 0x311 JUMP JUMPDEST PUSH2 0x358 PUSH2 0x350 DUP3 PUSH2 0x332 JUMP JUMPDEST DUP5 DUP5 SLOAD PUSH2 0x2AE JUMP JUMPDEST DUP3 SSTORE POP POP POP POP JUMP JUMPDEST PUSH0 PUSH0 SWAP1 POP SWAP1 JUMP JUMPDEST PUSH2 0x36F PUSH2 0x360 JUMP JUMPDEST PUSH2 0x37A DUP2 DUP5 DUP5 PUSH2 0x33B JUMP JUMPDEST POP POP POP JUMP JUMPDEST JUMPDEST DUP2 DUP2 LT ISZERO PUSH2 0x39D JUMPI PUSH2 0x392 PUSH0 DUP3 PUSH2 0x367 JUMP JUMPDEST PUSH1 0x1 DUP2 ADD SWAP1 POP PUSH2 0x380 JUMP JUMPDEST POP POP JUMP JUMPDEST PUSH1 0x1F DUP3 GT ISZERO PUSH2 0x3E2 JUMPI PUSH2 0x3B3 DUP2 PUSH2 0x281 JUMP JUMPDEST PUSH2 0x3BC DUP5 PUSH2 0x293 JUMP JUMPDEST DUP2 ADD PUSH1 0x20 DUP6 LT ISZERO PUSH2 0x3CB JUMPI DUP2 SWAP1 POP JUMPDEST PUSH2 0x3DF PUSH2 0x3D7 DUP6 PUSH2 0x293 JUMP JUMPDEST DUP4 ADD DUP3 PUSH2 0x37F JUMP JUMPDEST POP POP JUMPDEST POP POP POP JUMP JUMPDEST PUSH0 DUP3 DUP3 SHR SWAP1 POP SWAP3 SWAP2 POP POP JUMP JUMPDEST PUSH0 PUSH2 0x402 PUSH0 NOT DUP5 PUSH1 0x8 MUL PUSH2 0x3E7 JUMP JUMPDEST NOT DUP1 DUP4 AND SWAP2 POP POP SWAP3 SWAP2 POP POP JUMP JUMPDEST PUSH0 PUSH2 0x41A DUP4 DUP4 PUSH2 0x3F3 JUMP JUMPDEST SWAP2 POP DUP3 PUSH1 0x2 MUL DUP3 OR SWAP1 POP SWAP3 SWAP2 POP POP JUMP JUMPDEST PUSH2 0x433 DUP3 PUSH2 0x21A JUMP JUMPDEST PUSH8 0xFFFFFFFFFFFFFFFF DUP2 GT ISZERO PUSH2 0x44C JUMPI PUSH2 0x44B PUSH2 0x80 JUMP JUMPDEST JUMPDEST PUSH2 0x456 DUP3 SLOAD PUSH2 0x251 JUMP JUMPDEST PUSH2 0x461 DUP3 DUP3 DUP6 PUSH2 0x3A1 JUMP JUMPDEST PUSH0 PUSH1 0x20 SWAP1 POP PUSH1 0x1F DUP4 GT PUSH1 0x1 DUP2 EQ PUSH2 0x492 JUMPI PUSH0 DUP5 ISZERO PUSH2 0x480 JUMPI DUP3 DUP8 ADD MLOAD SWAP1 POP JUMPDEST PUSH2 0x48A DUP6 DUP3 PUSH2 0x40F JUMP JUMPDEST DUP7 SSTORE POP PUSH2 0x4F1 JUMP JUMPDEST PUSH1 0x1F NOT DUP5 AND PUSH2 0x4A0 DUP7 PUSH2 0x281 JUMP JUMPDEST PUSH0 JUMPDEST DUP3 DUP2 LT ISZERO PUSH2 0x4C7 JUMPI DUP5 DUP10 ADD MLOAD DUP3 SSTORE PUSH1 0x1 DUP3 ADD SWAP2 POP PUSH1 0x20 DUP6 ADD SWAP5 POP PUSH1 0x20 DUP2 ADD SWAP1 POP PUSH2 0x4A2 JUMP JUMPDEST DUP7 DUP4 LT ISZERO PUSH2 0x4E4 JUMPI DUP5 DUP10 ADD MLOAD PUSH2 0x4E0 PUSH1 0x1F DUP10 AND DUP3 PUSH2 0x3F3 JUMP JUMPDEST DUP4 SSTORE POP JUMPDEST PUSH1 0x1 PUSH1 0x2 DUP9 MUL ADD DUP9 SSTORE POP POP POP JUMPDEST POP POP POP POP POP POP JUMP JUMPDEST PUSH2 0x1F62 DUP1 PUSH2 0x506 PUSH0 CODECOPY PUSH0 RETURN INVALID PUSH1 0x80 PUSH1 0x40 MSTORE CALLVALUE DUP1 ISZERO PUSH2 0xF JUMPI PUSH0 PUSH0 REVERT JUMPDEST POP PUSH1 0x4 CALLDATASIZE LT PUSH2 0xE8 JUMPI PUSH0 CALLDATALOAD PUSH1 0xE0 SHR DUP1 PUSH4 0x6B9241FC GT PUSH2 0x8A JUMPI DUP1 PUSH4 0xA22CB465 GT PUSH2 0x64 JUMPI DUP1 PUSH4 0xA22CB465 EQ PUSH2 0x25A JUMPI DUP1 PUSH4 0xB88D4FDE EQ PUSH2 0x276 JUMPI DUP1 PUSH4 0xC87B56DD EQ PUSH2 0x292 JUMPI DUP1 PUSH4 0xE985E9C5 EQ PUSH2 0x2C2 JUMPI PUSH2 0xE8 JUMP JUMPDEST DUP1 PUSH4 0x6B9241FC EQ PUSH2 0x1EE JUMPI DUP1 PUSH4 0x70A08231 EQ PUSH2 0x20C JUMPI DUP1 PUSH4 0x95D89B41 EQ PUSH2 0x23C JUMPI PUSH2 0xE8 JUMP JUMPDEST DUP1 PUSH4 0x95EA7B3 GT PUSH2 0xC6 JUMPI DUP1 PUSH4 0x95EA7B3 EQ PUSH2 0x16A JUMPI DUP1 PUSH4 0x23B872DD EQ PUSH2 0x186 JUMPI DUP1 PUSH4 0x42842E0E EQ PUSH2 0x1A2 JUMPI DUP1 PUSH4 0x6352211E EQ PUSH2 0x1BE JUMPI PUSH2 0xE8 JUMP JUMPDEST DUP1 PUSH4 0x1FFC9A7 EQ PUSH2 0xEC JUMPI DUP1 PUSH4 0x6FDDE03 EQ PUSH2 0x11C JUMPI DUP1 PUSH4 0x81812FC EQ PUSH2 0x13A JUMPI JUMPDEST PUSH0 PUSH0 REVERT JUMPDEST PUSH2 0x106 PUSH1 0x4 DUP1 CALLDATASIZE SUB DUP2 ADD SWAP1 PUSH2 0x101 SWAP2 SWAP1 PUSH2 0x1402 JUMP JUMPDEST PUSH2 0x2F2 JUMP JUMPDEST PUSH1 0x40 MLOAD PUSH2 0x113 SWAP2 SWAP1 PUSH2 0x1447 JUMP JUMPDEST PUSH1 0x40 MLOAD DUP1 SWAP2 SUB SWAP1 RETURN JUMPDEST PUSH2 0x124 PUSH2 0x42B JUMP JUMPDEST PUSH1 0x40 MLOAD PUSH2 0x131 SWAP2 SWAP1 PUSH2 0x14D0 JUMP JUMPDEST PUSH1 0x40 MLOAD DUP1 SWAP2 SUB SWAP1 RETURN JUMPDEST PUSH2 0x154 PUSH1 0x4 DUP1 CALLDATASIZE SUB DUP2 ADD SWAP1 PUSH2 0x14F SWAP2 SWAP1 PUSH2 0x1523 JUMP JUMPDEST PUSH2 0x4B6 JUMP JUMPDEST PUSH1 0x40 MLOAD PUSH2 0x161 SWAP2 SWAP1 PUSH2 0x158D JUMP JUMPDEST PUSH1 0x40 MLOAD DUP1 SWAP2 SUB SWAP1 RETURN JUMPDEST PUSH2 0x184 PUSH1 0x4 DUP1 CALLDATASIZE SUB DUP2 ADD SWAP1 PUSH2 0x17F SWAP2 SWAP1 PUSH2 0x15D0 JUMP JUMPDEST PUSH2 0x58D JUMP JUMPDEST STOP JUMPDEST PUSH2 0x1A0 PUSH1 0x4 DUP1 CALLDATASIZE SUB DUP2 ADD SWAP1 PUSH2 0x19B SWAP2 SWAP1 PUSH2 0x160E JUMP JUMPDEST PUSH2 0x6CB JUMP JUMPDEST STOP JUMPDEST PUSH2 0x1BC PUSH1 0x4 DUP1 CALLDATASIZE SUB DUP2 ADD SWAP1 PUSH2 0x1B7 SWAP2 SWAP1 PUSH2 0x160E JUMP JUMPDEST PUSH2 0x733 JUMP JUMPDEST STOP JUMPDEST PUSH2 0x1D8 PUSH1 0x4 DUP1 CALLDATASIZE SUB DUP2 ADD SWAP1 PUSH2 0x1D3 SWAP2 SWAP1 PUSH2 0x1523 JUMP JUMPDEST PUSH2 0x752 JUMP JUMPDEST PUSH1 0x40 MLOAD PUSH2 0x1E5 SWAP2 SWAP1 PUSH2 0x158D JUMP JUMPDEST PUSH1 0x40 MLOAD DUP1 SWAP2 SUB SWAP1 RETURN JUMPDEST PUSH2 0x1F6 PUSH2 0x7F9 JUMP JUMPDEST PUSH1 0x40 MLOAD PUSH2 0x203 SWAP2 SWAP1 PUSH2 0x166D JUMP JUMPDEST PUSH1 0x40 MLOAD DUP1 SWAP2 SUB SWAP1 RETURN JUMPDEST PUSH2 0x226 PUSH1 0x4 DUP1 CALLDATASIZE SUB DUP2 ADD SWAP1 PUSH2 0x221 SWAP2 SWAP1 PUSH2 0x1686 JUMP JUMPDEST PUSH2 0x820 JUMP JUMPDEST PUSH1 0x40 MLOAD PUSH2 0x233 SWAP2 SWAP1 PUSH2 0x16C0 JUMP JUMPDEST PUSH1 0x40 MLOAD DUP1 SWAP2 SUB SWAP1 RETURN JUMPDEST PUSH2 0x244 PUSH2 0x8D4 JUMP JUMPDEST PUSH1 0x40 MLOAD PUSH2 0x251 SWAP2 SWAP1 PUSH2 0x14D0 JUMP JUMPDEST PUSH1 0x40 MLOAD DUP1 SWAP2 SUB SWAP1 RETURN JUMPDEST PUSH2 0x274 PUSH1 0x4 DUP1 CALLDATASIZE SUB DUP2 ADD SWAP1 PUSH2 0x26F SWAP2 SWAP1 PUSH2 0x1703 JUMP JUMPDEST PUSH2 0x960 JUMP JUMPDEST STOP JUMPDEST PUSH2 0x290 PUSH1 0x4 DUP1 CALLDATASIZE SUB DUP2 ADD SWAP1 PUSH2 0x28B SWAP2 SWAP1 PUSH2 0x186D JUMP JUMPDEST PUSH2 0xA58 JUMP JUMPDEST STOP JUMPDEST PUSH2 0x2AC PUSH1 0x4 DUP1 CALLDATASIZE SUB DUP2 ADD SWAP1 PUSH2 0x2A7 SWAP2 SWAP1 PUSH2 0x1523 JUMP JUMPDEST PUSH2 0xAC2 JUMP JUMPDEST PUSH1 0x40 MLOAD PUSH2 0x2B9 SWAP2 SWAP1 PUSH2 0x14D0 JUMP JUMPDEST PUSH1 0x40 MLOAD DUP1 SWAP2 SUB SWAP1 RETURN JUMPDEST PUSH2 0x2DC PUSH1 0x4 DUP1 CALLDATASIZE SUB DUP2 ADD SWAP1 PUSH2 0x2D7 SWAP2 SWAP1 PUSH2 0x18ED JUMP JUMPDEST PUSH2 0xBBC JUMP JUMPDEST PUSH1 0x40 MLOAD PUSH2 0x2E9 SWAP2 SWAP1 PUSH2 0x1447 JUMP JUMPDEST PUSH1 0x40 MLOAD DUP1 SWAP2 SUB SWAP1 RETURN JUMPDEST PUSH0 PUSH32 0x80AC58CD00000000000000000000000000000000000000000000000000000000 PUSH28 0xFFFFFFFFFFFFFFFFFFFFFFFFFFFFFFFFFFFFFFFFFFFFFFFFFFFFFFFF NOT AND DUP3 PUSH28 0xFFFFFFFFFFFFFFFFFFFFFFFFFFFFFFFFFFFFFFFFFFFFFFFFFFFFFFFF NOT AND EQ DUP1 PUSH2 0x3BC JUMPI POP PUSH32 0x1FFC9A700000000000000000000000000000000000000000000000000000000 PUSH28 0xFFFFFFFFFFFFFFFFFFFFFFFFFFFFFFFFFFFFFFFFFFFFFFFFFFFFFFFF NOT AND DUP3 PUSH28 0xFFFFFFFFFFFFFFFFFFFFFFFFFFFFFFFFFFFFFFFFFFFFFFFFFFFFFFFF NOT AND EQ JUMPDEST DUP1 PUSH2 0x424 JUMPI POP PUSH32 0x5B5E139F00000000000000000000000000000000000000000000000000000000 PUSH28 0xFFFFFFFFFFFFFFFFFFFFFFFFFFFFFFFFFFFFFFFFFFFFFFFFFFFFFFFF NOT AND DUP3 PUSH28 0xFFFFFFFFFFFFFFFFFFFFFFFFFFFFFFFFFFFFFFFFFFFFFFFFFFFFFFFF NOT AND EQ JUMPDEST SWAP1 POP SWAP2 SWAP1 POP JUMP JUMPDEST PUSH0 DUP1 SLOAD PUSH2 0x437 SWAP1 PUSH2 0x1958 JUMP JUMPDEST DUP1 PUSH1 0x1F ADD PUSH1 0x20 DUP1 SWAP2 DIV MUL PUSH1 0x20 ADD PUSH1 0x40 MLOAD SWAP1 DUP2 ADD PUSH1 0x40 MSTORE DUP1 SWAP3 SWAP2 SWAP1 DUP2 DUP2 MSTORE PUSH1 0x20 ADD DUP3 DUP1 SLOAD PUSH2 0x463 SWAP1 PUSH2 0x1958 JUMP JUMPDEST DUP1 ISZERO PUSH2 0x4AE JUMPI DUP1 PUSH1 0x1F LT PUSH2 0x485 JUMPI PUSH2 0x100 DUP1 DUP4 SLOAD DIV MUL DUP4 MSTORE SWAP2 PUSH1 0x20 ADD SWAP2 PUSH2 0x4AE JUMP JUMPDEST DUP3 ADD SWAP2 SWAP1 PUSH0 MSTORE PUSH1 0x20 PUSH0 KECCAK256 SWAP1 JUMPDEST DUP2 SLOAD DUP2 MSTORE SWAP1 PUSH1 0x1 ADD SWAP1 PUSH1 0x20 ADD DUP1 DUP4 GT PUSH2 0x491 JUMPI DUP3 SWAP1 SUB PUSH1 0x1F AND DUP3 ADD SWAP2 JUMPDEST POP POP POP POP POP DUP2 JUMP JUMPDEST PUSH0 PUSH0 PUSH20 0xFFFFFFFFFFFFFFFFFFFFFFFFFFFFFFFFFFFFFFFF AND PUSH1 0x2 PUSH0 DUP5 DUP2 MSTORE PUSH1 0x20 ADD SWAP1 DUP2 MSTORE PUSH1 0x20 ADD PUSH0 KECCAK256 PUSH0 SWAP1 SLOAD SWAP1 PUSH2 0x100 EXP SWAP1 DIV PUSH20 0xFFFFFFFFFFFFFFFFFFFFFFFFFFFFFFFFFFFFFFFF AND PUSH20 0xFFFFFFFFFFFFFFFFFFFFFFFFFFFFFFFFFFFFFFFF AND SUB PUSH2 0x555 JUMPI PUSH1 0x40 MLOAD PUSH32 0x8C379A000000000000000000000000000000000000000000000000000000000 DUP2 MSTORE PUSH1 0x4 ADD PUSH2 0x54C SWAP1 PUSH2 0x19D2 JUMP JUMPDEST PUSH1 0x40 MLOAD DUP1 SWAP2 SUB SWAP1 REVERT JUMPDEST PUSH1 0x4 PUSH0 DUP4 DUP2 MSTORE PUSH1 0x20 ADD SWAP1 DUP2 MSTORE PUSH1 0x20 ADD PUSH0 KECCAK256 PUSH0 SWAP1 SLOAD SWAP1 PUSH2 0x100 EXP SWAP1 DIV PUSH20 0xFFFFFFFFFFFFFFFFFFFFFFFFFFFFFFFFFFFFFFFF AND SWAP1 POP SWAP2 SWAP1 POP JUMP JUMPDEST PUSH0 PUSH1 0x2 PUSH0 DUP4 DUP2 MSTORE PUSH1 0x20 ADD SWAP1 DUP2 MSTORE PUSH1 0x20 ADD PUSH0 KECCAK256 PUSH0 SWAP1 SLOAD SWAP1 PUSH2 0x100 EXP SWAP1 DIV PUSH20 0xFFFFFFFFFFFFFFFFFFFFFFFFFFFFFFFFFFFFFFFF AND SWAP1 POP DUP1 PUSH20 0xFFFFFFFFFFFFFFFFFFFFFFFFFFFFFFFFFFFFFFFF AND CALLER PUSH20 0xFFFFFFFFFFFFFFFFFFFFFFFFFFFFFFFFFFFFFFFF AND EQ DUP1 PUSH2 0x67C JUMPI POP PUSH1 0x5 PUSH0 DUP3 PUSH20 0xFFFFFFFFFFFFFFFFFFFFFFFFFFFFFFFFFFFFFFFF AND PUSH20 0xFFFFFFFFFFFFFFFFFFFFFFFFFFFFFFFFFFFFFFFF AND DUP2 MSTORE PUSH1 0x20 ADD SWAP1 DUP2 MSTORE PUSH1 0x20 ADD PUSH0 KECCAK256 PUSH0 CALLER PUSH20 0xFFFFFFFFFFFFFFFFFFFFFFFFFFFFFFFFFFFFFFFF AND PUSH20 0xFFFFFFFFFFFFFFFFFFFFFFFFFFFFFFFFFFFFFFFF AND DUP2 MSTORE PUSH1 0x20 ADD SWAP1 DUP2 MSTORE PUSH1 0x20 ADD PUSH0 KECCAK256 PUSH0 SWAP1 SLOAD SWAP1 PUSH2 0x100 EXP SWAP1 DIV PUSH1 0xFF AND JUMPDEST PUSH2 0x6BB JUMPI PUSH1 0x40 MLOAD PUSH32 0x8C379A000000000000000000000000000000000000000000000000000000000 DUP2 MSTORE PUSH1 0x4 ADD PUSH2 0x6B2 SWAP1 PUSH2 0x1A3A JUMP JUMPDEST PUSH1 0x40 MLOAD DUP1 SWAP2 SUB SWAP1 REVERT JUMPDEST PUSH2 0x6C6 DUP2 DUP5 DUP5 PUSH2 0xC4A JUMP JUMPDEST POP POP POP JUMP JUMPDEST PUSH0 PUSH2 0x6D5 DUP3 PUSH2 0x752 JUMP JUMPDEST SWAP1 POP PUSH2 0x6E2 DUP2 CALLER DUP5 PUSH2 0xCF9 JUMP JUMPDEST PUSH2 0x721 JUMPI PUSH1 0x40 MLOAD PUSH32 0x8C379A000000000000000000000000000000000000000000000000000000000 DUP2 MSTORE PUSH1 0x4 ADD PUSH2 0x718 SWAP1 PUSH2 0x1AA2 JUMP JUMPDEST PUSH1 0x40 MLOAD DUP1 SWAP2 SUB SWAP1 REVERT JUMPDEST PUSH2 0x72D DUP2 DUP6 DUP6 DUP6 PUSH2 0xE24 JUMP JUMPDEST POP POP POP POP JUMP JUMPDEST PUSH2 0x74D DUP4 DUP4 DUP4 PUSH1 0x40 MLOAD DUP1 PUSH1 0x20 ADD PUSH1 0x40 MSTORE DUP1 PUSH0 DUP2 MSTORE POP PUSH2 0xA58 JUMP JUMPDEST POP POP POP JUMP JUMPDEST PUSH0 PUSH1 0x2 PUSH0 DUP4 DUP2 MSTORE PUSH1 0x20 ADD SWAP1 DUP2 MSTORE PUSH1 0x20 ADD PUSH0 KECCAK256 PUSH0 SWAP1 SLOAD SWAP1 PUSH2 0x100 EXP SWAP1 DIV PUSH20 0xFFFFFFFFFFFFFFFFFFFFFFFFFFFFFFFFFFFFFFFF AND SWAP1 POP PUSH0 PUSH20 0xFFFFFFFFFFFFFFFFFFFFFFFFFFFFFFFFFFFFFFFF AND DUP2 PUSH20 0xFFFFFFFFFFFFFFFFFFFFFFFFFFFFFFFFFFFFFFFF AND SUB PUSH2 0x7F4 JUMPI PUSH1 0x40 MLOAD PUSH32 0x8C379A000000000000000000000000000000000000000000000000000000000 DUP2 MSTORE PUSH1 0x4 ADD PUSH2 0x7EB SWAP1 PUSH2 0x19D2 JUMP JUMPDEST PUSH1 0x40 MLOAD DUP1 SWAP2 SUB SWAP1 REVERT JUMPDEST SWAP2 SWAP1 POP JUMP JUMPDEST PUSH0 PUSH32 0x150B7A0200000000000000000000000000000000000000000000000000000000 SWAP1 POP SWAP1 JUMP JUMPDEST PUSH0 PUSH0 PUSH20 0xFFFFFFFFFFFFFFFFFFFFFFFFFFFFFFFFFFFFFFFF AND DUP3 PUSH20 0xFFFFFFFFFFFFFFFFFFFFFFFFFFFFFFFFFFFFFFFF AND SUB PUSH2 0x88F JUMPI PUSH1 0x40 MLOAD PUSH32 0x8C379A000000000000000000000000000000000000000000000000000000000 DUP2 MSTORE PUSH1 0x4 ADD PUSH2 0x886 SWAP1 PUSH2 0x1B0A JUMP JUMPDEST PUSH1 0x40 MLOAD DUP1 SWAP2 SUB SWAP1 REVERT JUMPDEST PUSH1 0x3 PUSH0 DUP4 PUSH20 0xFFFFFFFFFFFFFFFFFFFFFFFFFFFFFFFFFFFFFFFF AND PUSH20 0xFFFFFFFFFFFFFFFFFFFFFFFFFFFFFFFFFFFFFFFF AND DUP2 MSTORE PUSH1 0x20 ADD SWAP1 DUP2 MSTORE PUSH1 0x20 ADD PUSH0 KECCAK256 SLOAD SWAP1 POP SWAP2 SWAP1 POP JUMP JUMPDEST PUSH1 0x1 DUP1 SLOAD PUSH2 0x8E1 SWAP1 PUSH2 0x1958 JUMP JUMPDEST DUP1 PUSH1 0x1F ADD PUSH1 0x20 DUP1 SWAP2 DIV MUL PUSH1 0x20 ADD PUSH1 0x40 MLOAD SWAP1 DUP2 ADD PUSH1 0x40 MSTORE DUP1 SWAP3 SWAP2 SWAP1 DUP2 DUP2 MSTORE PUSH1 0x20 ADD DUP3 DUP1 SLOAD PUSH2 0x90D SWAP1 PUSH2 0x1958 JUMP JUMPDEST DUP1 ISZERO PUSH2 0x958 JUMPI DUP1 PUSH1 0x1F LT PUSH2 0x92F JUMPI PUSH2 0x100 DUP1 DUP4 SLOAD DIV MUL DUP4 MSTORE SWAP2 PUSH1 0x20 ADD SWAP2 PUSH2 0x958 JUMP JUMPDEST DUP3 ADD SWAP2 SWAP1 PUSH0 MSTORE PUSH1 0x20 PUSH0 KECCAK256 SWAP1 JUMPDEST DUP2 SLOAD DUP2 MSTORE SWAP1 PUSH1 0x1 ADD SWAP1 PUSH1 0x20 ADD DUP1 DUP4 GT PUSH2 0x93B JUMPI DUP3 SWAP1 SUB PUSH1 0x1F AND DUP3 ADD SWAP2 JUMPDEST POP POP POP POP POP DUP2 JUMP JUMPDEST DUP1 PUSH1 0x5 PUSH0 CALLER PUSH20 0xFFFFFFFFFFFFFFFFFFFFFFFFFFFFFFFFFFFFFFFF AND PUSH20 0xFFFFFFFFFFFFFFFFFFFFFFFFFFFFFFFFFFFFFFFF AND DUP2 MSTORE PUSH1 0x20 ADD SWAP1 DUP2 MSTORE PUSH1 0x20 ADD PUSH0 KECCAK256 PUSH0 DUP5 PUSH20 0xFFFFFFFFFFFFFFFFFFFFFFFFFFFFFFFFFFFFFFFF AND PUSH20 0xFFFFFFFFFFFFFFFFFFFFFFFFFFFFFFFFFFFFFFFF AND DUP2 MSTORE PUSH1 0x20 ADD SWAP1 DUP2 MSTORE PUSH1 0x20 ADD PUSH0 KECCAK256 PUSH0 PUSH2 0x100 EXP DUP2 SLOAD DUP2 PUSH1 0xFF MUL NOT AND SWAP1 DUP4 ISZERO ISZERO MUL OR SWAP1 SSTORE POP DUP2 PUSH20 0xFFFFFFFFFFFFFFFFFFFFFFFFFFFFFFFFFFFFFFFF AND CALLER PUSH20 0xFFFFFFFFFFFFFFFFFFFFFFFFFFFFFFFFFFFFFFFF AND PUSH32 0x17307EAB39AB6107E8899845AD3D59BD9653F200F220920489CA2B5937696C31 DUP4 PUSH1 0x40 MLOAD PUSH2 0xA4C SWAP2 SWAP1 PUSH2 0x1447 JUMP JUMPDEST PUSH1 0x40 MLOAD DUP1 SWAP2 SUB SWAP1 LOG3 POP POP JUMP JUMPDEST PUSH0 PUSH2 0xA62 DUP4 PUSH2 0x752 JUMP JUMPDEST SWAP1 POP PUSH2 0xA6F DUP2 CALLER DUP6 PUSH2 0xCF9 JUMP JUMPDEST PUSH2 0xAAE JUMPI PUSH1 0x40 MLOAD PUSH32 0x8C379A000000000000000000000000000000000000000000000000000000000 DUP2 MSTORE PUSH1 0x4 ADD PUSH2 0xAA5 SWAP1 PUSH2 0x1AA2 JUMP JUMPDEST PUSH1 0x40 MLOAD DUP1 SWAP2 SUB SWAP1 REVERT JUMPDEST PUSH2 0xABB DUP2 DUP7 DUP7 DUP7 DUP7 PUSH2 0x1063 JUMP JUMPDEST POP POP POP POP POP JUMP JUMPDEST PUSH1 0x60 PUSH0 PUSH20 0xFFFFFFFFFFFFFFFFFFFFFFFFFFFFFFFFFFFFFFFF AND PUSH1 0x2 PUSH0 DUP5 DUP2 MSTORE PUSH1 0x20 ADD SWAP1 DUP2 MSTORE PUSH1 0x20 ADD PUSH0 KECCAK256 PUSH0 SWAP1 SLOAD SWAP1 PUSH2 0x100 EXP SWAP1 DIV PUSH20 0xFFFFFFFFFFFFFFFFFFFFFFFFFFFFFFFFFFFFFFFF AND PUSH20 0xFFFFFFFFFFFFFFFFFFFFFFFFFFFFFFFFFFFFFFFF AND SUB PUSH2 0xB62 JUMPI PUSH1 0x40 MLOAD PUSH32 0x8C379A000000000000000000000000000000000000000000000000000000000 DUP2 MSTORE PUSH1 0x4 ADD PUSH2 0xB59 SWAP1 PUSH2 0x1B72 JUMP JUMPDEST PUSH1 0x40 MLOAD DUP1 SWAP2 SUB SWAP1 REVERT JUMPDEST PUSH0 PUSH2 0xB6B PUSH2 0x1082 JUMP JUMPDEST SWAP1 POP PUSH0 DUP2 MLOAD GT PUSH2 0xB89 JUMPI PUSH1 0x40 MLOAD DUP1 PUSH1 0x20 ADD PUSH1 0x40 MSTORE DUP1 PUSH0 DUP2 MSTORE POP PUSH2 0xBB4 JUMP JUMPDEST DUP1 PUSH2 0xB93 DUP5 PUSH2 0x1098 JUMP JUMPDEST PUSH1 0x40 MLOAD PUSH1 0x20 ADD PUSH2 0xBA4 SWAP3 SWAP2 SWAP1 PUSH2 0x1BCA JUMP JUMPDEST PUSH1 0x40 MLOAD PUSH1 0x20 DUP2 DUP4 SUB SUB DUP2 MSTORE SWAP1 PUSH1 0x40 MSTORE JUMPDEST SWAP2 POP POP SWAP2 SWAP1 POP JUMP JUMPDEST PUSH0 PUSH1 0x5 PUSH0 DUP5 PUSH20 0xFFFFFFFFFFFFFFFFFFFFFFFFFFFFFFFFFFFFFFFF AND PUSH20 0xFFFFFFFFFFFFFFFFFFFFFFFFFFFFFFFFFFFFFFFF AND DUP2 MSTORE PUSH1 0x20 ADD SWAP1 DUP2 MSTORE PUSH1 0x20 ADD PUSH0 KECCAK256 PUSH0 DUP4 PUSH20 0xFFFFFFFFFFFFFFFFFFFFFFFFFFFFFFFFFFFFFFFF AND PUSH20 0xFFFFFFFFFFFFFFFFFFFFFFFFFFFFFFFFFFFFFFFF AND DUP2 MSTORE PUSH1 0x20 ADD SWAP1 DUP2 MSTORE PUSH1 0x20 ADD PUSH0 KECCAK256 PUSH0 SWAP1 SLOAD SWAP1 PUSH2 0x100 EXP SWAP1 DIV PUSH1 0xFF AND SWAP1 POP SWAP3 SWAP2 POP POP JUMP JUMPDEST DUP2 PUSH1 0x4 PUSH0 DUP4 DUP2 MSTORE PUSH1 0x20 ADD SWAP1 DUP2 MSTORE PUSH1 0x20 ADD PUSH0 KECCAK256 PUSH0 PUSH2 0x100 EXP DUP2 SLOAD DUP2 PUSH20 0xFFFFFFFFFFFFFFFFFFFFFFFFFFFFFFFFFFFFFFFF MUL NOT AND SWAP1 DUP4 PUSH20 0xFFFFFFFFFFFFFFFFFFFFFFFFFFFFFFFFFFFFFFFF AND MUL OR SWAP1 SSTORE POP DUP1 DUP3 PUSH20 0xFFFFFFFFFFFFFFFFFFFFFFFFFFFFFFFFFFFFFFFF AND DUP5 PUSH20 0xFFFFFFFFFFFFFFFFFFFFFFFFFFFFFFFFFFFFFFFF AND PUSH32 0x8C5BE1E5EBEC7D5BD14F71427D1E84F3DD0314C0F7B2291E5B200AC8C7C3B925 PUSH1 0x40 MLOAD PUSH1 0x40 MLOAD DUP1 SWAP2 SUB SWAP1 LOG4 POP POP POP JUMP JUMPDEST PUSH0 DUP4 PUSH20 0xFFFFFFFFFFFFFFFFFFFFFFFFFFFFFFFFFFFFFFFF AND DUP4 PUSH20 0xFFFFFFFFFFFFFFFFFFFFFFFFFFFFFFFFFFFFFFFF AND EQ DUP1 PUSH2 0xD8F JUMPI POP DUP3 PUSH20 0xFFFFFFFFFFFFFFFFFFFFFFFFFFFFFFFFFFFFFFFF AND PUSH1 0x4 PUSH0 DUP5 DUP2 MSTORE PUSH1 0x20 ADD SWAP1 DUP2 MSTORE PUSH1 0x20 ADD PUSH0 KECCAK256 PUSH0 SWAP1 SLOAD SWAP1 PUSH2 0x100 EXP SWAP1 DIV PUSH20 0xFFFFFFFFFFFFFFFFFFFFFFFFFFFFFFFFFFFFFFFF AND PUSH20 0xFFFFFFFFFFFFFFFFFFFFFFFFFFFFFFFFFFFFFFFF AND EQ JUMPDEST DUP1 PUSH2 0xE1B JUMPI POP PUSH1 0x5 PUSH0 DUP6 PUSH20 0xFFFFFFFFFFFFFFFFFFFFFFFFFFFFFFFFFFFFFFFF AND PUSH20 0xFFFFFFFFFFFFFFFFFFFFFFFFFFFFFFFFFFFFFFFF AND DUP2 MSTORE PUSH1 0x20 ADD SWAP1 DUP2 MSTORE PUSH1 0x20 ADD PUSH0 KECCAK256 PUSH0 DUP5 PUSH20 0xFFFFFFFFFFFFFFFFFFFFFFFFFFFFFFFFFFFFFFFF AND PUSH20 0xFFFFFFFFFFFFFFFFFFFFFFFFFFFFFFFFFFFFFFFF AND DUP2 MSTORE PUSH1 0x20 ADD SWAP1 DUP2 MSTORE PUSH1 0x20 ADD PUSH0 KECCAK256 PUSH0 SWAP1 SLOAD SWAP1 PUSH2 0x100 EXP SWAP1 DIV PUSH1 0xFF AND JUMPDEST SWAP1 POP SWAP4 SWAP3 POP POP POP JUMP JUMPDEST DUP4 PUSH20 0xFFFFFFFFFFFFFFFFFFFFFFFFFFFFFFFFFFFFFFFF AND DUP4 PUSH20 0xFFFFFFFFFFFFFFFFFFFFFFFFFFFFFFFFFFFFFFFF AND EQ PUSH2 0xE92 JUMPI PUSH1 0x40 MLOAD PUSH32 0x8C379A000000000000000000000000000000000000000000000000000000000 DUP2 MSTORE PUSH1 0x4 ADD PUSH2 0xE89 SWAP1 PUSH2 0x1C37 JUMP JUMPDEST PUSH1 0x40 MLOAD DUP1 SWAP2 SUB SWAP1 REVERT JUMPDEST PUSH0 PUSH20 0xFFFFFFFFFFFFFFFFFFFFFFFFFFFFFFFFFFFFFFFF AND DUP3 PUSH20 0xFFFFFFFFFFFFFFFFFFFFFFFFFFFFFFFFFFFFFFFF AND SUB PUSH2 0xF00 JUMPI PUSH1 0x40 MLOAD PUSH32 0x8C379A000000000000000000000000000000000000000000000000000000000 DUP2 MSTORE PUSH1 0x4 ADD PUSH2 0xEF7 SWAP1 PUSH2 0x1C9F JUMP JUMPDEST PUSH1 0x40 MLOAD DUP1 SWAP2 SUB SWAP1 REVERT JUMPDEST PUSH2 0xF0B DUP5 PUSH0 DUP4 PUSH2 0xC4A JUMP JUMPDEST PUSH1 0x1 PUSH1 0x3 PUSH0 DUP6 PUSH20 0xFFFFFFFFFFFFFFFFFFFFFFFFFFFFFFFFFFFFFFFF AND PUSH20 0xFFFFFFFFFFFFFFFFFFFFFFFFFFFFFFFFFFFFFFFF AND DUP2 MSTORE PUSH1 0x20 ADD SWAP1 DUP2 MSTORE PUSH1 0x20 ADD PUSH0 KECCAK256 PUSH0 DUP3 DUP3 SLOAD PUSH2 0xF58 SWAP2 SWAP1 PUSH2 0x1CEA JUMP JUMPDEST SWAP3 POP POP DUP2 SWAP1 SSTORE POP PUSH1 0x1 PUSH1 0x3 PUSH0 DUP5 PUSH20 0xFFFFFFFFFFFFFFFFFFFFFFFFFFFFFFFFFFFFFFFF AND PUSH20 0xFFFFFFFFFFFFFFFFFFFFFFFFFFFFFFFFFFFFFFFF AND DUP2 MSTORE PUSH1 0x20 ADD SWAP1 DUP2 MSTORE PUSH1 0x20 ADD PUSH0 KECCAK256 PUSH0 DUP3 DUP3 SLOAD PUSH2 0xFAC SWAP2 SWAP1 PUSH2 0x1D1D JUMP JUMPDEST SWAP3 POP POP DUP2 SWAP1 SSTORE POP DUP2 PUSH1 0x2 PUSH0 DUP4 DUP2 MSTORE PUSH1 0x20 ADD SWAP1 DUP2 MSTORE PUSH1 0x20 ADD PUSH0 KECCAK256 PUSH0 PUSH2 0x100 EXP DUP2 SLOAD DUP2 PUSH20 0xFFFFFFFFFFFFFFFFFFFFFFFFFFFFFFFFFFFFFFFF MUL NOT AND SWAP1 DUP4 PUSH20 0xFFFFFFFFFFFFFFFFFFFFFFFFFFFFFFFFFFFFFFFF AND MUL OR SWAP1 SSTORE POP DUP1 DUP3 PUSH20 0xFFFFFFFFFFFFFFFFFFFFFFFFFFFFFFFFFFFFFFFF AND DUP5 PUSH20 0xFFFFFFFFFFFFFFFFFFFFFFFFFFFFFFFFFFFFFFFF AND PUSH32 0xDDF252AD1BE2C89B69C2B068FC378DAA952BA7F163C4A11628F55A4DF523B3EF PUSH1 0x40 MLOAD PUSH1 0x40 MLOAD DUP1 SWAP2 SUB SWAP1 LOG4 POP POP POP POP JUMP JUMPDEST PUSH2 0x106F DUP6 DUP6 DUP6 DUP6 PUSH2 0xE24 JUMP JUMPDEST PUSH2 0x107B DUP5 DUP5 DUP5 DUP5 PUSH2 0x11F1 JUMP JUMPDEST POP POP POP POP POP JUMP JUMPDEST PUSH1 0x60 PUSH1 0x40 MLOAD DUP1 PUSH1 0x20 ADD PUSH1 0x40 MSTORE DUP1 PUSH0 DUP2 MSTORE POP SWAP1 POP SWAP1 JUMP JUMPDEST PUSH1 0x60 PUSH0 DUP3 SUB PUSH2 0x10DE JUMPI PUSH1 0x40 MLOAD DUP1 PUSH1 0x40 ADD PUSH1 0x40 MSTORE DUP1 PUSH1 0x1 DUP2 MSTORE PUSH1 0x20 ADD PUSH32 0x3000000000000000000000000000000000000000000000000000000000000000 DUP2 MSTORE POP SWAP1 POP PUSH2 0x11EC JUMP JUMPDEST PUSH0 DUP3 SWAP1 POP PUSH0 JUMPDEST PUSH0 DUP3 EQ PUSH2 0x110D JUMPI DUP1 DUP1 PUSH2 0x10F6 SWAP1 PUSH2 0x1D50 JUMP JUMPDEST SWAP2 POP POP PUSH1 0xA DUP3 PUSH2 0x1106 SWAP2 SWAP1 PUSH2 0x1DC4 JUMP JUMPDEST SWAP2 POP PUSH2 0x10E4 JUMP JUMPDEST PUSH0 DUP2 PUSH8 0xFFFFFFFFFFFFFFFF DUP2 GT ISZERO PUSH2 0x1128 JUMPI PUSH2 0x1127 PUSH2 0x1749 JUMP JUMPDEST JUMPDEST PUSH1 0x40 MLOAD SWAP1 DUP1 DUP3 MSTORE DUP1 PUSH1 0x1F ADD PUSH1 0x1F NOT AND PUSH1 0x20 ADD DUP3 ADD PUSH1 0x40 MSTORE DUP1 ISZERO PUSH2 0x115A JUMPI DUP2 PUSH1 0x20 ADD PUSH1 0x1 DUP3 MUL DUP1 CALLDATASIZE DUP4 CALLDATACOPY DUP1 DUP3 ADD SWAP2 POP POP SWAP1 POP JUMPDEST POP SWAP1 POP JUMPDEST PUSH0 DUP6 EQ PUSH2 0x11E5 JUMPI PUSH1 0x1 DUP3 PUSH2 0x1172 SWAP2 SWAP1 PUSH2 0x1CEA JUMP JUMPDEST SWAP2 POP PUSH1 0xA DUP6 PUSH2 0x1181 SWAP2 SWAP1 PUSH2 0x1DF4 JUMP JUMPDEST PUSH1 0x30 PUSH2 0x118D SWAP2 SWAP1 PUSH2 0x1D1D JUMP JUMPDEST PUSH1 0xF8 SHL DUP2 DUP4 DUP2 MLOAD DUP2 LT PUSH2 0x11A3 JUMPI PUSH2 0x11A2 PUSH2 0x1E24 JUMP JUMPDEST JUMPDEST PUSH1 0x20 ADD ADD SWAP1 PUSH31 0xFFFFFFFFFFFFFFFFFFFFFFFFFFFFFFFFFFFFFFFFFFFFFFFFFFFFFFFFFFFFFF NOT AND SWAP1 DUP2 PUSH0 BYTE SWAP1 MSTORE8 POP PUSH1 0xA DUP6 PUSH2 0x11DE SWAP2 SWAP1 PUSH2 0x1DC4 JUMP JUMPDEST SWAP5 POP PUSH2 0x115E JUMP JUMPDEST DUP1 SWAP4 POP POP POP POP JUMPDEST SWAP2 SWAP1 POP JUMP JUMPDEST PUSH0 DUP4 PUSH20 0xFFFFFFFFFFFFFFFFFFFFFFFFFFFFFFFFFFFFFFFF AND EXTCODESIZE GT ISZERO PUSH2 0x1396 JUMPI DUP3 PUSH20 0xFFFFFFFFFFFFFFFFFFFFFFFFFFFFFFFFFFFFFFFF AND PUSH4 0x150B7A02 CALLER DUP7 DUP6 DUP6 PUSH1 0x40 MLOAD DUP6 PUSH4 0xFFFFFFFF AND PUSH1 0xE0 SHL DUP2 MSTORE PUSH1 0x4 ADD PUSH2 0x124F SWAP5 SWAP4 SWAP3 SWAP2 SWAP1 PUSH2 0x1EA3 JUMP JUMPDEST PUSH1 0x20 PUSH1 0x40 MLOAD DUP1 DUP4 SUB DUP2 PUSH0 DUP8 GAS CALL SWAP3 POP POP POP DUP1 ISZERO PUSH2 0x128A JUMPI POP PUSH1 0x40 MLOAD RETURNDATASIZE PUSH1 0x1F NOT PUSH1 0x1F DUP3 ADD AND DUP3 ADD DUP1 PUSH1 0x40 MSTORE POP DUP2 ADD SWAP1 PUSH2 0x1287 SWAP2 SWAP1 PUSH2 0x1F01 JUMP JUMPDEST PUSH1 0x1 JUMPDEST PUSH2 0x130B JUMPI RETURNDATASIZE DUP1 PUSH0 DUP2 EQ PUSH2 0x12B8 JUMPI PUSH1 0x40 MLOAD SWAP2 POP PUSH1 0x1F NOT PUSH1 0x3F RETURNDATASIZE ADD AND DUP3 ADD PUSH1 0x40 MSTORE RETURNDATASIZE DUP3 MSTORE RETURNDATASIZE PUSH0 PUSH1 0x20 DUP5 ADD RETURNDATACOPY PUSH2 0x12BD JUMP JUMPDEST PUSH1 0x60 SWAP2 POP JUMPDEST POP PUSH0 DUP2 MLOAD SUB PUSH2 0x1303 JUMPI DUP4 PUSH1 0x40 MLOAD PUSH32 0x64A0AE9200000000000000000000000000000000000000000000000000000000 DUP2 MSTORE PUSH1 0x4 ADD PUSH2 0x12FA SWAP2 SWAP1 PUSH2 0x158D JUMP JUMPDEST PUSH1 0x40 MLOAD DUP1 SWAP2 SUB SWAP1 REVERT JUMPDEST DUP1 MLOAD DUP2 PUSH1 0x20 ADD REVERT JUMPDEST PUSH4 0x150B7A02 PUSH1 0xE0 SHL PUSH28 0xFFFFFFFFFFFFFFFFFFFFFFFFFFFFFFFFFFFFFFFFFFFFFFFFFFFFFFFF NOT AND DUP2 PUSH28 0xFFFFFFFFFFFFFFFFFFFFFFFFFFFFFFFFFFFFFFFFFFFFFFFFFFFFFFFF NOT AND EQ PUSH2 0x1394 JUMPI DUP4 PUSH1 0x40 MLOAD PUSH32 0x64A0AE9200000000000000000000000000000000000000000000000000000000 DUP2 MSTORE PUSH1 0x4 ADD PUSH2 0x138B SWAP2 SWAP1 PUSH2 0x158D JUMP JUMPDEST PUSH1 0x40 MLOAD DUP1 SWAP2 SUB SWAP1 REVERT JUMPDEST POP JUMPDEST POP POP POP POP JUMP JUMPDEST PUSH0 PUSH1 0x40 MLOAD SWAP1 POP SWAP1 JUMP JUMPDEST PUSH0 PUSH0 REVERT JUMPDEST PUSH0 PUSH0 REVERT JUMPDEST PUSH0 PUSH32 0xFFFFFFFF00000000000000000000000000000000000000000000000000000000 DUP3 AND SWAP1 POP SWAP2 SWAP1 POP JUMP JUMPDEST PUSH2 0x13E1 DUP2 PUSH2 0x13AD JUMP JUMPDEST DUP2 EQ PUSH2 0x13EB JUMPI PUSH0 PUSH0 REVERT JUMPDEST POP JUMP JUMPDEST PUSH0 DUP2 CALLDATALOAD SWAP1 POP PUSH2 0x13FC DUP2 PUSH2 0x13D8 JUMP JUMPDEST SWAP3 SWAP2 POP POP JUMP JUMPDEST PUSH0 PUSH1 0x20 DUP3 DUP5 SUB SLT ISZERO PUSH2 0x1417 JUMPI PUSH2 0x1416 PUSH2 0x13A5 JUMP JUMPDEST JUMPDEST PUSH0 PUSH2 0x1424 DUP5 DUP3 DUP6 ADD PUSH2 0x13EE JUMP JUMPDEST SWAP2 POP POP SWAP3 SWAP2 POP POP JUMP JUMPDEST PUSH0 DUP2 ISZERO ISZERO SWAP1 POP SWAP2 SWAP1 POP JUMP JUMPDEST PUSH2 0x1441 DUP2 PUSH2 0x142D JUMP JUMPDEST DUP3 MSTORE POP POP JUMP JUMPDEST PUSH0 PUSH1 0x20 DUP3 ADD SWAP1 POP PUSH2 0x145A PUSH0 DUP4 ADD DUP5 PUSH2 0x1438 JUMP JUMPDEST SWAP3 SWAP2 POP POP JUMP JUMPDEST PUSH0 DUP2 MLOAD SWAP1 POP SWAP2 SWAP1 POP JUMP JUMPDEST PUSH0 DUP3 DUP3 MSTORE PUSH1 0x20 DUP3 ADD SWAP1 POP SWAP3 SWAP2 POP POP JUMP JUMPDEST DUP3 DUP2 DUP4 MCOPY PUSH0 DUP4 DUP4 ADD MSTORE POP POP POP JUMP JUMPDEST PUSH0 PUSH1 0x1F NOT PUSH1 0x1F DUP4 ADD AND SWAP1 POP SWAP2 SWAP1 POP JUMP JUMPDEST PUSH0 PUSH2 0x14A2 DUP3 PUSH2 0x1460 JUMP JUMPDEST PUSH2 0x14AC DUP2 DUP6 PUSH2 0x146A JUMP JUMPDEST SWAP4 POP PUSH2 0x14BC DUP2 DUP6 PUSH1 0x20 DUP7 ADD PUSH2 0x147A JUMP JUMPDEST PUSH2 0x14C5 DUP2 PUSH2 0x1488 JUMP JUMPDEST DUP5 ADD SWAP2 POP POP SWAP3 SWAP2 POP POP JUMP JUMPDEST PUSH0 PUSH1 0x20 DUP3 ADD SWAP1 POP DUP2 DUP2 SUB PUSH0 DUP4 ADD MSTORE PUSH2 0x14E8 DUP2 DUP5 PUSH2 0x1498 JUMP JUMPDEST SWAP1 POP SWAP3 SWAP2 POP POP JUMP JUMPDEST PUSH0 DUP2 SWAP1 POP SWAP2 SWAP1 POP JUMP JUMPDEST PUSH2 0x1502 DUP2 PUSH2 0x14F0 JUMP JUMPDEST DUP2 EQ PUSH2 0x150C JUMPI PUSH0 PUSH0 REVERT JUMPDEST POP JUMP JUMPDEST PUSH0 DUP2 CALLDATALOAD SWAP1 POP PUSH2 0x151D DUP2 PUSH2 0x14F9 JUMP JUMPDEST SWAP3 SWAP2 POP POP JUMP JUMPDEST PUSH0 PUSH1 0x20 DUP3 DUP5 SUB SLT ISZERO PUSH2 0x1538 JUMPI PUSH2 0x1537 PUSH2 0x13A5 JUMP JUMPDEST JUMPDEST PUSH0 PUSH2 0x1545 DUP5 DUP3 DUP6 ADD PUSH2 0x150F JUMP JUMPDEST SWAP2 POP POP SWAP3 SWAP2 POP POP JUMP JUMPDEST PUSH0 PUSH20 0xFFFFFFFFFFFFFFFFFFFFFFFFFFFFFFFFFFFFFFFF DUP3 AND SWAP1 POP SWAP2 SWAP1 POP JUMP JUMPDEST PUSH0 PUSH2 0x1577 DUP3 PUSH2 0x154E JUMP JUMPDEST SWAP1 POP SWAP2 SWAP1 POP JUMP JUMPDEST PUSH2 0x1587 DUP2 PUSH2 0x156D JUMP JUMPDEST DUP3 MSTORE POP POP JUMP JUMPDEST PUSH0 PUSH1 0x20 DUP3 ADD SWAP1 POP PUSH2 0x15A0 PUSH0 DUP4 ADD DUP5 PUSH2 0x157E JUMP JUMPDEST SWAP3 SWAP2 POP POP JUMP JUMPDEST PUSH2 0x15AF DUP2 PUSH2 0x156D JUMP JUMPDEST DUP2 EQ PUSH2 0x15B9 JUMPI PUSH0 PUSH0 REVERT JUMPDEST POP JUMP JUMPDEST PUSH0 DUP2 CALLDATALOAD SWAP1 POP PUSH2 0x15CA DUP2 PUSH2 0x15A6 JUMP JUMPDEST SWAP3 SWAP2 POP POP JUMP JUMPDEST PUSH0 PUSH0 PUSH1 0x40 DUP4 DUP6 SUB SLT ISZERO PUSH2 0x15E6 JUMPI PUSH2 0x15E5 PUSH2 0x13A5 JUMP JUMPDEST JUMPDEST PUSH0 PUSH2 0x15F3 DUP6 DUP3 DUP7 ADD PUSH2 0x15BC JUMP JUMPDEST SWAP3 POP POP PUSH1 0x20 PUSH2 0x1604 DUP6 DUP3 DUP7 ADD PUSH2 0x150F JUMP JUMPDEST SWAP2 POP POP SWAP3 POP SWAP3 SWAP1 POP JUMP JUMPDEST PUSH0 PUSH0 PUSH0 PUSH1 0x60 DUP5 DUP7 SUB SLT ISZERO PUSH2 0x1625 JUMPI PUSH2 0x1624 PUSH2 0x13A5 JUMP JUMPDEST JUMPDEST PUSH0 PUSH2 0x1632 DUP7 DUP3 DUP8 ADD PUSH2 0x15BC JUMP JUMPDEST SWAP4 POP POP PUSH1 0x20 PUSH2 0x1643 DUP7 DUP3 DUP8 ADD PUSH2 0x15BC JUMP JUMPDEST SWAP3 POP POP PUSH1 0x40 PUSH2 0x1654 DUP7 DUP3 DUP8 ADD PUSH2 0x150F JUMP JUMPDEST SWAP2 POP POP SWAP3 POP SWAP3 POP SWAP3 JUMP JUMPDEST PUSH2 0x1667 DUP2 PUSH2 0x13AD JUMP JUMPDEST DUP3 MSTORE POP POP JUMP JUMPDEST PUSH0 PUSH1 0x20 DUP3 ADD SWAP1 POP PUSH2 0x1680 PUSH0 DUP4 ADD DUP5 PUSH2 0x165E JUMP JUMPDEST SWAP3 SWAP2 POP POP JUMP JUMPDEST PUSH0 PUSH1 0x20 DUP3 DUP5 SUB SLT ISZERO PUSH2 0x169B JUMPI PUSH2 0x169A PUSH2 0x13A5 JUMP JUMPDEST JUMPDEST PUSH0 PUSH2 0x16A8 DUP5 DUP3 DUP6 ADD PUSH2 0x15BC JUMP JUMPDEST SWAP2 POP POP SWAP3 SWAP2 POP POP JUMP JUMPDEST PUSH2 0x16BA DUP2 PUSH2 0x14F0 JUMP JUMPDEST DUP3 MSTORE POP POP JUMP JUMPDEST PUSH0 PUSH1 0x20 DUP3 ADD SWAP1 POP PUSH2 0x16D3 PUSH0 DUP4 ADD DUP5 PUSH2 0x16B1 JUMP JUMPDEST SWAP3 SWAP2 POP POP JUMP JUMPDEST PUSH2 0x16E2 DUP2 PUSH2 0x142D JUMP JUMPDEST DUP2 EQ PUSH2 0x16EC JUMPI PUSH0 PUSH0 REVERT JUMPDEST POP JUMP JUMPDEST PUSH0 DUP2 CALLDATALOAD SWAP1 POP PUSH2 0x16FD DUP2 PUSH2 0x16D9 JUMP JUMPDEST SWAP3 SWAP2 POP POP JUMP JUMPDEST PUSH0 PUSH0 PUSH1 0x40 DUP4 DUP6 SUB SLT ISZERO PUSH2 0x1719 JUMPI PUSH2 0x1718 PUSH2 0x13A5 JUMP JUMPDEST JUMPDEST PUSH0 PUSH2 0x1726 DUP6 DUP3 DUP7 ADD PUSH2 0x15BC JUMP JUMPDEST SWAP3 POP POP PUSH1 0x20 PUSH2 0x1737 DUP6 DUP3 DUP7 ADD PUSH2 0x16EF JUMP JUMPDEST SWAP2 POP POP SWAP3 POP SWAP3 SWAP1 POP JUMP JUMPDEST PUSH0 PUSH0 REVERT JUMPDEST PUSH0 PUSH0 REVERT JUMPDEST PUSH32 0x4E487B7100000000000000000000000000000000000000000000000000000000 PUSH0 MSTORE PUSH1 0x41 PUSH1 0x4 MSTORE PUSH1 0x24 PUSH0 REVERT JUMPDEST PUSH2 0x177F DUP3 PUSH2 0x1488 JUMP JUMPDEST DUP2 ADD DUP2 DUP2 LT PUSH8 0xFFFFFFFFFFFFFFFF DUP3 GT OR ISZERO PUSH2 0x179E JUMPI PUSH2 0x179D PUSH2 0x1749 JUMP JUMPDEST JUMPDEST DUP1 PUSH1 0x40 MSTORE POP POP POP JUMP JUMPDEST PUSH0 PUSH2 0x17B0 PUSH2 0x139C JUMP JUMPDEST SWAP1 POP PUSH2 0x17BC DUP3 DUP3 PUSH2 0x1776 JUMP JUMPDEST SWAP2 SWAP1 POP JUMP JUMPDEST PUSH0 PUSH8 0xFFFFFFFFFFFFFFFF DUP3 GT ISZERO PUSH2 0x17DB JUMPI PUSH2 0x17DA PUSH2 0x1749 JUMP JUMPDEST JUMPDEST PUSH2 0x17E4 DUP3 PUSH2 0x1488 JUMP JUMPDEST SWAP1 POP PUSH1 0x20 DUP2 ADD SWAP1 POP SWAP2 SWAP1 POP JUMP JUMPDEST DUP3 DUP2 DUP4 CALLDATACOPY PUSH0 DUP4 DUP4 ADD MSTORE POP POP POP JUMP JUMPDEST PUSH0 PUSH2 0x1811 PUSH2 0x180C DUP5 PUSH2 0x17C1 JUMP JUMPDEST PUSH2 0x17A7 JUMP JUMPDEST SWAP1 POP DUP3 DUP2 MSTORE PUSH1 0x20 DUP2 ADD DUP5 DUP5 DUP5 ADD GT ISZERO PUSH2 0x182D JUMPI PUSH2 0x182C PUSH2 0x1745 JUMP JUMPDEST JUMPDEST PUSH2 0x1838 DUP5 DUP3 DUP6 PUSH2 0x17F1 JUMP JUMPDEST POP SWAP4 SWAP3 POP POP POP JUMP JUMPDEST PUSH0 DUP3 PUSH1 0x1F DUP4 ADD SLT PUSH2 0x1854 JUMPI PUSH2 0x1853 PUSH2 0x1741 JUMP JUMPDEST JUMPDEST DUP2 CALLDATALOAD PUSH2 0x1864 DUP5 DUP3 PUSH1 0x20 DUP7 ADD PUSH2 0x17FF JUMP JUMPDEST SWAP2 POP POP SWAP3 SWAP2 POP POP JUMP JUMPDEST PUSH0 PUSH0 PUSH0 PUSH0 PUSH1 0x80 DUP6 DUP8 SUB SLT ISZERO PUSH2 0x1885 JUMPI PUSH2 0x1884 PUSH2 0x13A5 JUMP JUMPDEST JUMPDEST PUSH0 PUSH2 0x1892 DUP8 DUP3 DUP9 ADD PUSH2 0x15BC JUMP JUMPDEST SWAP5 POP POP PUSH1 0x20 PUSH2 0x18A3 DUP8 DUP3 DUP9 ADD PUSH2 0x15BC JUMP JUMPDEST SWAP4 POP POP PUSH1 0x40 PUSH2 0x18B4 DUP8 DUP3 DUP9 ADD PUSH2 0x150F JUMP JUMPDEST SWAP3 POP POP PUSH1 0x60 DUP6 ADD CALLDATALOAD PUSH8 0xFFFFFFFFFFFFFFFF DUP2 GT ISZERO PUSH2 0x18D5 JUMPI PUSH2 0x18D4 PUSH2 0x13A9 JUMP JUMPDEST JUMPDEST PUSH2 0x18E1 DUP8 DUP3 DUP9 ADD PUSH2 0x1840 JUMP JUMPDEST SWAP2 POP POP SWAP3 SWAP6 SWAP2 SWAP5 POP SWAP3 POP JUMP JUMPDEST PUSH0 PUSH0 PUSH1 0x40 DUP4 DUP6 SUB SLT ISZERO PUSH2 0x1903 JUMPI PUSH2 0x1902 PUSH2 0x13A5 JUMP JUMPDEST JUMPDEST PUSH0 PUSH2 0x1910 DUP6 DUP3 DUP7 ADD PUSH2 0x15BC JUMP JUMPDEST SWAP3 POP POP PUSH1 0x20 PUSH2 0x1921 DUP6 DUP3 DUP7 ADD PUSH2 0x15BC JUMP JUMPDEST SWAP2 POP POP SWAP3 POP SWAP3 SWAP1 POP JUMP JUMPDEST PUSH32 0x4E487B7100000000000000000000000000000000000000000000000000000000 PUSH0 MSTORE PUSH1 0x22 PUSH1 0x4 MSTORE PUSH1 0x24 PUSH0 REVERT JUMPDEST PUSH0 PUSH1 0x2 DUP3 DIV SWAP1 POP PUSH1 0x1 DUP3 AND DUP1 PUSH2 0x196F JUMPI PUSH1 0x7F DUP3 AND SWAP2 POP JUMPDEST PUSH1 0x20 DUP3 LT DUP2 SUB PUSH2 0x1982 JUMPI PUSH2 0x1981 PUSH2 0x192B JUMP JUMPDEST JUMPDEST POP SWAP2 SWAP1 POP JUMP JUMPDEST PUSH32 0x746F6B656E20646F65736E277420657869737400000000000000000000000000 PUSH0 DUP3 ADD MSTORE POP JUMP JUMPDEST PUSH0 PUSH2 0x19BC PUSH1 0x13 DUP4 PUSH2 0x146A JUMP JUMPDEST SWAP2 POP PUSH2 0x19C7 DUP3 PUSH2 0x1988 JUMP JUMPDEST PUSH1 0x20 DUP3 ADD SWAP1 POP SWAP2 SWAP1 POP JUMP JUMPDEST PUSH0 PUSH1 0x20 DUP3 ADD SWAP1 POP DUP2 DUP2 SUB PUSH0 DUP4 ADD MSTORE PUSH2 0x19E9 DUP2 PUSH2 0x19B0 JUMP JUMPDEST SWAP1 POP SWAP2 SWAP1 POP JUMP JUMPDEST PUSH32 0x6E6F74206F776E6572206E6F7220617070726F76656420666F7220616C6C0000 PUSH0 DUP3 ADD MSTORE POP JUMP JUMPDEST PUSH0 PUSH2 0x1A24 PUSH1 0x1E DUP4 PUSH2 0x146A JUMP JUMPDEST SWAP2 POP PUSH2 0x1A2F DUP3 PUSH2 0x19F0 JUMP JUMPDEST PUSH1 0x20 DUP3 ADD SWAP1 POP SWAP2 SWAP1 POP JUMP JUMPDEST PUSH0 PUSH1 0x20 DUP3 ADD SWAP1 POP DUP2 DUP2 SUB PUSH0 DUP4 ADD MSTORE PUSH2 0x1A51 DUP2 PUSH2 0x1A18 JUMP JUMPDEST SWAP1 POP SWAP2 SWAP1 POP JUMP JUMPDEST PUSH32 0x6E6F74206F776E6572206E6F7220617070726F76656400000000000000000000 PUSH0 DUP3 ADD MSTORE POP JUMP JUMPDEST PUSH0 PUSH2 0x1A8C PUSH1 0x16 DUP4 PUSH2 0x146A JUMP JUMPDEST SWAP2 POP PUSH2 0x1A97 DUP3 PUSH2 0x1A58 JUMP JUMPDEST PUSH1 0x20 DUP3 ADD SWAP1 POP SWAP2 SWAP1 POP JUMP JUMPDEST PUSH0 PUSH1 0x20 DUP3 ADD SWAP1 POP DUP2 DUP2 SUB PUSH0 DUP4 ADD MSTORE PUSH2 0x1AB9 DUP2 PUSH2 0x1A80 JUMP JUMPDEST SWAP1 POP SWAP2 SWAP1 POP JUMP JUMPDEST PUSH32 0x6F776E6572203D207A65726F2061646472657373000000000000000000000000 PUSH0 DUP3 ADD MSTORE POP JUMP JUMPDEST PUSH0 PUSH2 0x1AF4 PUSH1 0x14 DUP4 PUSH2 0x146A JUMP JUMPDEST SWAP2 POP PUSH2 0x1AFF DUP3 PUSH2 0x1AC0 JUMP JUMPDEST PUSH1 0x20 DUP3 ADD SWAP1 POP SWAP2 SWAP1 POP JUMP JUMPDEST PUSH0 PUSH1 0x20 DUP3 ADD SWAP1 POP DUP2 DUP2 SUB PUSH0 DUP4 ADD MSTORE PUSH2 0x1B21 DUP2 PUSH2 0x1AE8 JUMP JUMPDEST SWAP1 POP SWAP2 SWAP1 POP JUMP JUMPDEST PUSH32 0x546F6B656E204E6F742045786973740000000000000000000000000000000000 PUSH0 DUP3 ADD MSTORE POP JUMP JUMPDEST PUSH0 PUSH2 0x1B5C PUSH1 0xF DUP4 PUSH2 0x146A JUMP JUMPDEST SWAP2 POP PUSH2 0x1B67 DUP3 PUSH2 0x1B28 JUMP JUMPDEST PUSH1 0x20 DUP3 ADD SWAP1 POP SWAP2 SWAP1 POP JUMP JUMPDEST PUSH0 PUSH1 0x20 DUP3 ADD SWAP1 POP DUP2 DUP2 SUB PUSH0 DUP4 ADD MSTORE PUSH2 0x1B89 DUP2 PUSH2 0x1B50 JUMP JUMPDEST SWAP1 POP SWAP2 SWAP1 POP JUMP JUMPDEST PUSH0 DUP2 SWAP1 POP SWAP3 SWAP2 POP POP JUMP JUMPDEST PUSH0 PUSH2 0x1BA4 DUP3 PUSH2 0x1460 JUMP JUMPDEST PUSH2 0x1BAE DUP2 DUP6 PUSH2 0x1B90 JUMP JUMPDEST SWAP4 POP PUSH2 0x1BBE DUP2 DUP6 PUSH1 0x20 DUP7 ADD PUSH2 0x147A JUMP JUMPDEST DUP1 DUP5 ADD SWAP2 POP POP SWAP3 SWAP2 POP POP JUMP JUMPDEST PUSH0 PUSH2 0x1BD5 DUP3 DUP6 PUSH2 0x1B9A JUMP JUMPDEST SWAP2 POP PUSH2 0x1BE1 DUP3 DUP5 PUSH2 0x1B9A JUMP JUMPDEST SWAP2 POP DUP2 SWAP1 POP SWAP4 SWAP3 POP POP POP JUMP JUMPDEST PUSH32 0x6E6F74206F776E65720000000000000000000000000000000000000000000000 PUSH0 DUP3 ADD MSTORE POP JUMP JUMPDEST PUSH0 PUSH2 0x1C21 PUSH1 0x9 DUP4 PUSH2 0x146A JUMP JUMPDEST SWAP2 POP PUSH2 0x1C2C DUP3 PUSH2 0x1BED JUMP JUMPDEST PUSH1 0x20 DUP3 ADD SWAP1 POP SWAP2 SWAP1 POP JUMP JUMPDEST PUSH0 PUSH1 0x20 DUP3 ADD SWAP1 POP DUP2 DUP2 SUB PUSH0 DUP4 ADD MSTORE PUSH2 0x1C4E DUP2 PUSH2 0x1C15 JUMP JUMPDEST SWAP1 POP SWAP2 SWAP1 POP JUMP JUMPDEST PUSH32 0x7472616E7366657220746F20746865207A65726F206164647265737300000000 PUSH0 DUP3 ADD MSTORE POP JUMP JUMPDEST PUSH0 PUSH2 0x1C89 PUSH1 0x1C DUP4 PUSH2 0x146A JUMP JUMPDEST SWAP2 POP PUSH2 0x1C94 DUP3 PUSH2 0x1C55 JUMP JUMPDEST PUSH1 0x20 DUP3 ADD SWAP1 POP SWAP2 SWAP1 POP JUMP JUMPDEST PUSH0 PUSH1 0x20 DUP3 ADD SWAP1 POP DUP2 DUP2 SUB PUSH0 DUP4 ADD MSTORE PUSH2 0x1CB6 DUP2 PUSH2 0x1C7D JUMP JUMPDEST SWAP1 POP SWAP2 SWAP1 POP JUMP JUMPDEST PUSH32 0x4E487B7100000000000000000000000000000000000000000000000000000000 PUSH0 MSTORE PUSH1 0x11 PUSH1 0x4 MSTORE PUSH1 0x24 PUSH0 REVERT JUMPDEST PUSH0 PUSH2 0x1CF4 DUP3 PUSH2 0x14F0 JUMP JUMPDEST SWAP2 POP PUSH2 0x1CFF DUP4 PUSH2 0x14F0 JUMP JUMPDEST SWAP3 POP DUP3 DUP3 SUB SWAP1 POP DUP2 DUP2 GT ISZERO PUSH2 0x1D17 JUMPI PUSH2 0x1D16 PUSH2 0x1CBD JUMP JUMPDEST JUMPDEST SWAP3 SWAP2 POP POP JUMP JUMPDEST PUSH0 PUSH2 0x1D27 DUP3 PUSH2 0x14F0 JUMP JUMPDEST SWAP2 POP PUSH2 0x1D32 DUP4 PUSH2 0x14F0 JUMP JUMPDEST SWAP3 POP DUP3 DUP3 ADD SWAP1 POP DUP1 DUP3 GT ISZERO PUSH2 0x1D4A JUMPI PUSH2 0x1D49 PUSH2 0x1CBD JUMP JUMPDEST JUMPDEST SWAP3 SWAP2 POP POP JUMP JUMPDEST PUSH0 PUSH2 0x1D5A DUP3 PUSH2 0x14F0 JUMP JUMPDEST SWAP2 POP PUSH32 0xFFFFFFFFFFFFFFFFFFFFFFFFFFFFFFFFFFFFFFFFFFFFFFFFFFFFFFFFFFFFFFFF DUP3 SUB PUSH2 0x1D8C JUMPI PUSH2 0x1D8B PUSH2 0x1CBD JUMP JUMPDEST JUMPDEST PUSH1 0x1 DUP3 ADD SWAP1 POP SWAP2 SWAP1 POP JUMP JUMPDEST PUSH32 0x4E487B7100000000000000000000000000000000000000000000000000000000 PUSH0 MSTORE PUSH1 0x12 PUSH1 0x4 MSTORE PUSH1 0x24 PUSH0 REVERT JUMPDEST PUSH0 PUSH2 0x1DCE DUP3 PUSH2 0x14F0 JUMP JUMPDEST SWAP2 POP PUSH2 0x1DD9 DUP4 PUSH2 0x14F0 JUMP JUMPDEST SWAP3 POP DUP3 PUSH2 0x1DE9 JUMPI PUSH2 0x1DE8 PUSH2 0x1D97 JUMP JUMPDEST JUMPDEST DUP3 DUP3 DIV SWAP1 POP SWAP3 SWAP2 POP POP JUMP JUMPDEST PUSH0 PUSH2 0x1DFE DUP3 PUSH2 0x14F0 JUMP JUMPDEST SWAP2 POP PUSH2 0x1E09 DUP4 PUSH2 0x14F0 JUMP JUMPDEST SWAP3 POP DUP3 PUSH2 0x1E19 JUMPI PUSH2 0x1E18 PUSH2 0x1D97 JUMP JUMPDEST JUMPDEST DUP3 DUP3 MOD SWAP1 POP SWAP3 SWAP2 POP POP JUMP JUMPDEST PUSH32 0x4E487B7100000000000000000000000000000000000000000000000000000000 PUSH0 MSTORE PUSH1 0x32 PUSH1 0x4 MSTORE PUSH1 0x24 PUSH0 REVERT JUMPDEST PUSH0 DUP2 MLOAD SWAP1 POP SWAP2 SWAP1 POP JUMP JUMPDEST PUSH0 DUP3 DUP3 MSTORE PUSH1 0x20 DUP3 ADD SWAP1 POP SWAP3 SWAP2 POP POP JUMP JUMPDEST PUSH0 PUSH2 0x1E75 DUP3 PUSH2 0x1E51 JUMP JUMPDEST PUSH2 0x1E7F DUP2 DUP6 PUSH2 0x1E5B JUMP JUMPDEST SWAP4 POP PUSH2 0x1E8F DUP2 DUP6 PUSH1 0x20 DUP7 ADD PUSH2 0x147A JUMP JUMPDEST PUSH2 0x1E98 DUP2 PUSH2 0x1488 JUMP JUMPDEST DUP5 ADD SWAP2 POP POP SWAP3 SWAP2 POP POP JUMP JUMPDEST PUSH0 PUSH1 0x80 DUP3 ADD SWAP1 POP PUSH2 0x1EB6 PUSH0 DUP4 ADD DUP8 PUSH2 0x157E JUMP JUMPDEST PUSH2 0x1EC3 PUSH1 0x20 DUP4 ADD DUP7 PUSH2 0x157E JUMP JUMPDEST PUSH2 0x1ED0 PUSH1 0x40 DUP4 ADD DUP6 PUSH2 0x16B1 JUMP JUMPDEST DUP2 DUP2 SUB PUSH1 0x60 DUP4 ADD MSTORE PUSH2 0x1EE2 DUP2 DUP5 PUSH2 0x1E6B JUMP JUMPDEST SWAP1 POP SWAP6 SWAP5 POP POP POP POP POP JUMP JUMPDEST PUSH0 DUP2 MLOAD SWAP1 POP PUSH2 0x1EFB DUP2 PUSH2 0x13D8 JUMP JUMPDEST SWAP3 SWAP2 POP POP JUMP JUMPDEST PUSH0 PUSH1 0x20 DUP3 DUP5 SUB SLT ISZERO PUSH2 0x1F16 JUMPI PUSH2 0x1F15 PUSH2 0x13A5 JUMP JUMPDEST JUMPDEST PUSH0 PUSH2 0x1F23 DUP5 DUP3 DUP6 ADD PUSH2 0x1EED JUMP JUMPDEST SWAP2 POP POP SWAP3 SWAP2 POP POP JUMP INVALID LOG2 PUSH5 0x6970667358 0x22 SLT KECCAK256 SWAP10 0x27 0xE4 EXP 0xC8 0xBA SWAP6 AND BASEFEE PUSH15 0xB122681620D4EE87EFC36364C3A0F3 EXTCODESIZE MULMOD CHAINID 0xB4 PUSH31 0x12AC64736F6C634300081C0033000000000000000000000000000000000000 "
				},
				"gasEstimates": {
					"creation": {
						"codeDepositCost": "1606800",
						"executionCost": "infinite",
						"totalCost": "infinite"
					},
					"external": {
						"approve(address,uint256)": "31535",
						"balanceOf(address)": "2908",
						"getApproved(uint256)": "5165",
						"getInterfaceId()": "361",
						"isApprovedForAll(address,address)": "infinite",
						"name()": "infinite",
						"ownerOf(uint256)": "3027",
						"safeTransferFrom(address,address,uint256)": "infinite",
						"safeTransferFrom(address,address,uint256,bytes)": "infinite",
						"setApprovalForAll(address,bool)": "infinite",
						"supportsInterface(bytes4)": "745",
						"symbol()": "infinite",
						"tokenURI(uint256)": "infinite",
						"transferFrom(address,address,uint256)": "infinite"
					},
					"internal": {
						"_approve(address,address,uint256)": "26289",
						"_baseURI()": "infinite",
						"_burn(uint256)": "infinite",
						"_checkOnERC721Received(address,address,uint256,bytes memory)": "infinite",
						"_isApprovedOrOwner(address,address,uint256)": "4639",
						"_mint(address,uint256)": "infinite",
						"_safeTransfer(address,address,address,uint256,bytes memory)": "infinite",
						"_transfer(address,address,address,uint256)": "infinite"
					}
				},
				"methodIdentifiers": {
					"approve(address,uint256)": "095ea7b3",
					"balanceOf(address)": "70a08231",
					"getApproved(uint256)": "081812fc",
					"getInterfaceId()": "6b9241fc",
					"isApprovedForAll(address,address)": "e985e9c5",
					"name()": "06fdde03",
					"ownerOf(uint256)": "6352211e",
					"safeTransferFrom(address,address,uint256)": "42842e0e",
					"safeTransferFrom(address,address,uint256,bytes)": "b88d4fde",
					"setApprovalForAll(address,bool)": "a22cb465",
					"supportsInterface(bytes4)": "01ffc9a7",
					"symbol()": "95d89b41",
					"tokenURI(uint256)": "c87b56dd",
					"transferFrom(address,address,uint256)": "23b872dd"
				}
			},
			"storageLayout": {
				"storage": [
					{
						"astId": 16,
						"contract": "contracts/ERC721/ERC721.sol:ERC721",
						"label": "name",
						"offset": 0,
						"slot": "0",
						"type": "t_string_storage"
					},
					{
						"astId": 19,
						"contract": "contracts/ERC721/ERC721.sol:ERC721",
						"label": "symbol",
						"offset": 0,
						"slot": "1",
						"type": "t_string_storage"
					},
					{
						"astId": 23,
						"contract": "contracts/ERC721/ERC721.sol:ERC721",
						"label": "_owners",
						"offset": 0,
						"slot": "2",
						"type": "t_mapping(t_uint256,t_address)"
					},
					{
						"astId": 27,
						"contract": "contracts/ERC721/ERC721.sol:ERC721",
						"label": "_balances",
						"offset": 0,
						"slot": "3",
						"type": "t_mapping(t_address,t_uint256)"
					},
					{
						"astId": 31,
						"contract": "contracts/ERC721/ERC721.sol:ERC721",
						"label": "_tokenApprovals",
						"offset": 0,
						"slot": "4",
						"type": "t_mapping(t_uint256,t_address)"
					},
					{
						"astId": 37,
						"contract": "contracts/ERC721/ERC721.sol:ERC721",
						"label": "_operatorApprovals",
						"offset": 0,
						"slot": "5",
						"type": "t_mapping(t_address,t_mapping(t_address,t_bool))"
					}
				],
				"types": {
					"t_address": {
						"encoding": "inplace",
						"label": "address",
						"numberOfBytes": "20"
					},
					"t_bool": {
						"encoding": "inplace",
						"label": "bool",
						"numberOfBytes": "1"
					},
					"t_mapping(t_address,t_bool)": {
						"encoding": "mapping",
						"key": "t_address",
						"label": "mapping(address => bool)",
						"numberOfBytes": "32",
						"value": "t_bool"
					},
					"t_mapping(t_address,t_mapping(t_address,t_bool))": {
						"encoding": "mapping",
						"key": "t_address",
						"label": "mapping(address => mapping(address => bool))",
						"numberOfBytes": "32",
						"value": "t_mapping(t_address,t_bool)"
					},
					"t_mapping(t_address,t_uint256)": {
						"encoding": "mapping",
						"key": "t_address",
						"label": "mapping(address => uint256)",
						"numberOfBytes": "32",
						"value": "t_uint256"
					},
					"t_mapping(t_uint256,t_address)": {
						"encoding": "mapping",
						"key": "t_uint256",
						"label": "mapping(uint256 => address)",
						"numberOfBytes": "32",
						"value": "t_address"
					},
					"t_string_storage": {
						"encoding": "bytes",
						"label": "string",
						"numberOfBytes": "32"
					},
					"t_uint256": {
						"encoding": "inplace",
						"label": "uint256",
						"numberOfBytes": "32"
					}
				}
			},
			"userdoc": {
				"kind": "user",
				"methods": {
					"constructor": {
						"notice": "构造函数，初始化`name` 和`symbol` ."
					},
					"safeTransferFrom(address,address,uint256,bytes)": {
						"notice": "实现IERC721的safeTransferFrom，安全转账，调用了_safeTransfer函数。"
					},
					"tokenURI(uint256)": {
						"notice": "实现IERC721Metadata的tokenURI函数，查询metadata。"
					}
				},
				"version": 1
			}
		}
	}
}