{
	"contracts/ERC20/TokenVesting.sol": {
		"LinearVesting": {
			"abi": [
				{
					"inputs": [
						{
							"internalType": "address",
							"name": "_beneficiary",
							"type": "address"
						},
						{
							"internalType": "uint256",
							"name": "_totalAmount",
							"type": "uint256"
						},
						{
							"internalType": "uint256",
							"name": "_startTime",
							"type": "uint256"
						},
						{
							"internalType": "uint256",
							"name": "_endTime",
							"type": "uint256"
						}
					],
					"stateMutability": "nonpayable",
					"type": "constructor"
				},
				{
					"anonymous": false,
					"inputs": [
						{
							"indexed": false,
							"internalType": "uint256",
							"name": "amount",
							"type": "uint256"
						}
					],
					"name": "TokensReleased",
					"type": "event"
				},
				{
					"inputs": [],
					"name": "beneficiary",
					"outputs": [
						{
							"internalType": "address",
							"name": "",
							"type": "address"
						}
					],
					"stateMutability": "view",
					"type": "function"
				},
				{
					"inputs": [],
					"name": "endTime",
					"outputs": [
						{
							"internalType": "uint256",
							"name": "",
							"type": "uint256"
						}
					],
					"stateMutability": "view",
					"type": "function"
				},
				{
					"inputs": [],
					"name": "getVestedAmount",
					"outputs": [
						{
							"internalType": "uint256",
							"name": "",
							"type": "uint256"
						}
					],
					"stateMutability": "view",
					"type": "function"
				},
				{
					"inputs": [],
					"name": "release",
					"outputs": [],
					"stateMutability": "nonpayable",
					"type": "function"
				},
				{
					"inputs": [],
					"name": "released",
					"outputs": [
						{
							"internalType": "uint256",
							"name": "",
							"type": "uint256"
						}
					],
					"stateMutability": "view",
					"type": "function"
				},
				{
					"inputs": [],
					"name": "remaining",
					"outputs": [
						{
							"internalType": "uint256",
							"name": "",
							"type": "uint256"
						}
					],
					"stateMutability": "view",
					"type": "function"
				},
				{
					"inputs": [],
					"name": "startTime",
					"outputs": [
						{
							"internalType": "uint256",
							"name": "",
							"type": "uint256"
						}
					],
					"stateMutability": "view",
					"type": "function"
				},
				{
					"inputs": [],
					"name": "totalAmount",
					"outputs": [
						{
							"internalType": "uint256",
							"name": "",
							"type": "uint256"
						}
					],
					"stateMutability": "view",
					"type": "function"
				}
			],
			"devdoc": {
				"kind": "dev",
				"methods": {},
				"version": 1
			},
			"evm": {
				"assembly": "    /* \"contracts/ERC20/TokenVesting.sol\":60:2177  contract LinearVesting {... */\n  mstore(0x40, 0x80)\n    /* \"contracts/ERC20/TokenVesting.sol\":471:974  constructor(address _beneficiary, uint256 _totalAmount, uint256 _startTime, uint256 _endTime) {... */\n  callvalue\n  dup1\n  iszero\n  tag_1\n  jumpi\n  0x00\n  dup1\n  revert\ntag_1:\n  pop\n  mload(0x40)\n  sub(codesize, bytecodeSize)\n  dup1\n  bytecodeSize\n  dup4\n  codecopy\n  dup2\n  dup2\n  add\n  0x40\n  mstore\n  dup2\n  add\n  swap1\n  tag_2\n  swap2\n  swap1\n  tag_3\n  jump\t// in\ntag_2:\n    /* \"contracts/ERC20/TokenVesting.sol\":608:609  0 */\n  0x00\n    /* \"contracts/ERC20/TokenVesting.sol\":584:610  _beneficiary != address(0) */\n  0xffffffffffffffffffffffffffffffffffffffff\n  and\n    /* \"contracts/ERC20/TokenVesting.sol\":584:596  _beneficiary */\n  dup5\n    /* \"contracts/ERC20/TokenVesting.sol\":584:610  _beneficiary != address(0) */\n  0xffffffffffffffffffffffffffffffffffffffff\n  and\n  sub\n    /* \"contracts/ERC20/TokenVesting.sol\":576:642  require(_beneficiary != address(0), \"Invalid beneficiary address\") */\n  tag_6\n  jumpi\n  mload(0x40)\n  0x08c379a000000000000000000000000000000000000000000000000000000000\n  dup2\n  mstore\n  0x04\n  add\n  tag_7\n  swap1\n  tag_8\n  jump\t// in\ntag_7:\n  mload(0x40)\n  dup1\n  swap2\n  sub\n  swap1\n  revert\ntag_6:\n    /* \"contracts/ERC20/TokenVesting.sol\":672:682  _startTime */\n  dup2\n    /* \"contracts/ERC20/TokenVesting.sol\":661:669  _endTime */\n  dup2\n    /* \"contracts/ERC20/TokenVesting.sol\":661:682  _endTime > _startTime */\n  gt\n    /* \"contracts/ERC20/TokenVesting.sol\":653:727  require(_endTime > _startTime, \"End time must be greater than start time\") */\n  tag_9\n  jumpi\n  mload(0x40)\n  0x08c379a000000000000000000000000000000000000000000000000000000000\n  dup2\n  mstore\n  0x04\n  add\n  tag_10\n  swap1\n  tag_11\n  jump\t// in\ntag_10:\n  mload(0x40)\n  dup1\n  swap2\n  sub\n  swap1\n  revert\ntag_9:\n    /* \"contracts/ERC20/TokenVesting.sol\":761:762  0 */\n  0x00\n    /* \"contracts/ERC20/TokenVesting.sol\":746:758  _totalAmount */\n  dup4\n    /* \"contracts/ERC20/TokenVesting.sol\":746:762  _totalAmount > 0 */\n  gt\n    /* \"contracts/ERC20/TokenVesting.sol\":738:805  require(_totalAmount > 0, \"Total amount must be greater than zero\") */\n  tag_12\n  jumpi\n  mload(0x40)\n  0x08c379a000000000000000000000000000000000000000000000000000000000\n  dup2\n  mstore\n  0x04\n  add\n  tag_13\n  swap1\n  tag_14\n  jump\t// in\ntag_13:\n  mload(0x40)\n  dup1\n  swap2\n  sub\n  swap1\n  revert\ntag_12:\n    /* \"contracts/ERC20/TokenVesting.sol\":832:844  _beneficiary */\n  dup4\n    /* \"contracts/ERC20/TokenVesting.sol\":818:829  beneficiary */\n  0x00\n  dup1\n    /* \"contracts/ERC20/TokenVesting.sol\":818:844  beneficiary = _beneficiary */\n  0x0100\n  exp\n  dup2\n  sload\n  dup2\n  0xffffffffffffffffffffffffffffffffffffffff\n  mul\n  not\n  and\n  swap1\n  dup4\n  0xffffffffffffffffffffffffffffffffffffffff\n  and\n  mul\n  or\n  swap1\n  sstore\n  pop\n    /* \"contracts/ERC20/TokenVesting.sol\":869:881  _totalAmount */\n  dup3\n    /* \"contracts/ERC20/TokenVesting.sol\":855:866  totalAmount */\n  0x03\n    /* \"contracts/ERC20/TokenVesting.sol\":855:881  totalAmount = _totalAmount */\n  dup2\n  swap1\n  sstore\n  pop\n    /* \"contracts/ERC20/TokenVesting.sol\":904:914  _startTime */\n  dup2\n    /* \"contracts/ERC20/TokenVesting.sol\":892:901  startTime */\n  0x01\n    /* \"contracts/ERC20/TokenVesting.sol\":892:914  startTime = _startTime */\n  dup2\n  swap1\n  sstore\n  pop\n    /* \"contracts/ERC20/TokenVesting.sol\":935:943  _endTime */\n  dup1\n    /* \"contracts/ERC20/TokenVesting.sol\":925:932  endTime */\n  0x02\n    /* \"contracts/ERC20/TokenVesting.sol\":925:943  endTime = _endTime */\n  dup2\n  swap1\n  sstore\n  pop\n    /* \"contracts/ERC20/TokenVesting.sol\":965:966  0 */\n  0x00\n    /* \"contracts/ERC20/TokenVesting.sol\":954:962  released */\n  0x04\n    /* \"contracts/ERC20/TokenVesting.sol\":954:966  released = 0 */\n  dup2\n  swap1\n  sstore\n  pop\n    /* \"contracts/ERC20/TokenVesting.sol\":471:974  constructor(address _beneficiary, uint256 _totalAmount, uint256 _startTime, uint256 _endTime) {... */\n  pop\n  pop\n  pop\n  pop\n    /* \"contracts/ERC20/TokenVesting.sol\":60:2177  contract LinearVesting {... */\n  jump(tag_15)\n    /* \"#utility.yul\":88:205   */\ntag_17:\n    /* \"#utility.yul\":197:198   */\n  0x00\n    /* \"#utility.yul\":194:195   */\n  dup1\n    /* \"#utility.yul\":187:199   */\n  revert\n    /* \"#utility.yul\":334:460   */\ntag_19:\n    /* \"#utility.yul\":371:378   */\n  0x00\n    /* \"#utility.yul\":411:453   */\n  0xffffffffffffffffffffffffffffffffffffffff\n    /* \"#utility.yul\":404:409   */\n  dup3\n    /* \"#utility.yul\":400:454   */\n  and\n    /* \"#utility.yul\":389:454   */\n  swap1\n  pop\n    /* \"#utility.yul\":334:460   */\n  swap2\n  swap1\n  pop\n  jump\t// out\n    /* \"#utility.yul\":466:562   */\ntag_20:\n    /* \"#utility.yul\":503:510   */\n  0x00\n    /* \"#utility.yul\":532:556   */\n  tag_39\n    /* \"#utility.yul\":550:555   */\n  dup3\n    /* \"#utility.yul\":532:556   */\n  tag_19\n  jump\t// in\ntag_39:\n    /* \"#utility.yul\":521:556   */\n  swap1\n  pop\n    /* \"#utility.yul\":466:562   */\n  swap2\n  swap1\n  pop\n  jump\t// out\n    /* \"#utility.yul\":568:690   */\ntag_21:\n    /* \"#utility.yul\":641:665   */\n  tag_41\n    /* \"#utility.yul\":659:664   */\n  dup2\n    /* \"#utility.yul\":641:665   */\n  tag_20\n  jump\t// in\ntag_41:\n    /* \"#utility.yul\":634:639   */\n  dup2\n    /* \"#utility.yul\":631:666   */\n  eq\n    /* \"#utility.yul\":621:684   */\n  tag_42\n  jumpi\n    /* \"#utility.yul\":680:681   */\n  0x00\n    /* \"#utility.yul\":677:678   */\n  dup1\n    /* \"#utility.yul\":670:682   */\n  revert\n    /* \"#utility.yul\":621:684   */\ntag_42:\n    /* \"#utility.yul\":568:690   */\n  pop\n  jump\t// out\n    /* \"#utility.yul\":696:839   */\ntag_22:\n    /* \"#utility.yul\":753:758   */\n  0x00\n    /* \"#utility.yul\":784:790   */\n  dup2\n    /* \"#utility.yul\":778:791   */\n  mload\n    /* \"#utility.yul\":769:791   */\n  swap1\n  pop\n    /* \"#utility.yul\":800:833   */\n  tag_44\n    /* \"#utility.yul\":827:832   */\n  dup2\n    /* \"#utility.yul\":800:833   */\n  tag_21\n  jump\t// in\ntag_44:\n    /* \"#utility.yul\":696:839   */\n  swap3\n  swap2\n  pop\n  pop\n  jump\t// out\n    /* \"#utility.yul\":845:922   */\ntag_23:\n    /* \"#utility.yul\":882:889   */\n  0x00\n    /* \"#utility.yul\":911:916   */\n  dup2\n    /* \"#utility.yul\":900:916   */\n  swap1\n  pop\n    /* \"#utility.yul\":845:922   */\n  swap2\n  swap1\n  pop\n  jump\t// out\n    /* \"#utility.yul\":928:1050   */\ntag_24:\n    /* \"#utility.yul\":1001:1025   */\n  tag_47\n    /* \"#utility.yul\":1019:1024   */\n  dup2\n    /* \"#utility.yul\":1001:1025   */\n  tag_23\n  jump\t// in\ntag_47:\n    /* \"#utility.yul\":994:999   */\n  dup2\n    /* \"#utility.yul\":991:1026   */\n  eq\n    /* \"#utility.yul\":981:1044   */\n  tag_48\n  jumpi\n    /* \"#utility.yul\":1040:1041   */\n  0x00\n    /* \"#utility.yul\":1037:1038   */\n  dup1\n    /* \"#utility.yul\":1030:1042   */\n  revert\n    /* \"#utility.yul\":981:1044   */\ntag_48:\n    /* \"#utility.yul\":928:1050   */\n  pop\n  jump\t// out\n    /* \"#utility.yul\":1056:1199   */\ntag_25:\n    /* \"#utility.yul\":1113:1118   */\n  0x00\n    /* \"#utility.yul\":1144:1150   */\n  dup2\n    /* \"#utility.yul\":1138:1151   */\n  mload\n    /* \"#utility.yul\":1129:1151   */\n  swap1\n  pop\n    /* \"#utility.yul\":1160:1193   */\n  tag_50\n    /* \"#utility.yul\":1187:1192   */\n  dup2\n    /* \"#utility.yul\":1160:1193   */\n  tag_24\n  jump\t// in\ntag_50:\n    /* \"#utility.yul\":1056:1199   */\n  swap3\n  swap2\n  pop\n  pop\n  jump\t// out\n    /* \"#utility.yul\":1205:2025   */\ntag_3:\n    /* \"#utility.yul\":1302:1308   */\n  0x00\n    /* \"#utility.yul\":1310:1316   */\n  dup1\n    /* \"#utility.yul\":1318:1324   */\n  0x00\n    /* \"#utility.yul\":1326:1332   */\n  dup1\n    /* \"#utility.yul\":1375:1378   */\n  0x80\n    /* \"#utility.yul\":1363:1372   */\n  dup6\n    /* \"#utility.yul\":1354:1361   */\n  dup8\n    /* \"#utility.yul\":1350:1373   */\n  sub\n    /* \"#utility.yul\":1346:1379   */\n  slt\n    /* \"#utility.yul\":1343:1463   */\n  iszero\n  tag_52\n  jumpi\n    /* \"#utility.yul\":1382:1461   */\n  tag_53\n  tag_17\n  jump\t// in\ntag_53:\n    /* \"#utility.yul\":1343:1463   */\ntag_52:\n    /* \"#utility.yul\":1502:1503   */\n  0x00\n    /* \"#utility.yul\":1527:1591   */\n  tag_54\n    /* \"#utility.yul\":1583:1590   */\n  dup8\n    /* \"#utility.yul\":1574:1580   */\n  dup3\n    /* \"#utility.yul\":1563:1572   */\n  dup9\n    /* \"#utility.yul\":1559:1581   */\n  add\n    /* \"#utility.yul\":1527:1591   */\n  tag_22\n  jump\t// in\ntag_54:\n    /* \"#utility.yul\":1517:1591   */\n  swap5\n  pop\n    /* \"#utility.yul\":1473:1601   */\n  pop\n    /* \"#utility.yul\":1640:1642   */\n  0x20\n    /* \"#utility.yul\":1666:1730   */\n  tag_55\n    /* \"#utility.yul\":1722:1729   */\n  dup8\n    /* \"#utility.yul\":1713:1719   */\n  dup3\n    /* \"#utility.yul\":1702:1711   */\n  dup9\n    /* \"#utility.yul\":1698:1720   */\n  add\n    /* \"#utility.yul\":1666:1730   */\n  tag_25\n  jump\t// in\ntag_55:\n    /* \"#utility.yul\":1656:1730   */\n  swap4\n  pop\n    /* \"#utility.yul\":1611:1740   */\n  pop\n    /* \"#utility.yul\":1779:1781   */\n  0x40\n    /* \"#utility.yul\":1805:1869   */\n  tag_56\n    /* \"#utility.yul\":1861:1868   */\n  dup8\n    /* \"#utility.yul\":1852:1858   */\n  dup3\n    /* \"#utility.yul\":1841:1850   */\n  dup9\n    /* \"#utility.yul\":1837:1859   */\n  add\n    /* \"#utility.yul\":1805:1869   */\n  tag_25\n  jump\t// in\ntag_56:\n    /* \"#utility.yul\":1795:1869   */\n  swap3\n  pop\n    /* \"#utility.yul\":1750:1879   */\n  pop\n    /* \"#utility.yul\":1918:1920   */\n  0x60\n    /* \"#utility.yul\":1944:2008   */\n  tag_57\n    /* \"#utility.yul\":2000:2007   */\n  dup8\n    /* \"#utility.yul\":1991:1997   */\n  dup3\n    /* \"#utility.yul\":1980:1989   */\n  dup9\n    /* \"#utility.yul\":1976:1998   */\n  add\n    /* \"#utility.yul\":1944:2008   */\n  tag_25\n  jump\t// in\ntag_57:\n    /* \"#utility.yul\":1934:2008   */\n  swap2\n  pop\n    /* \"#utility.yul\":1889:2018   */\n  pop\n    /* \"#utility.yul\":1205:2025   */\n  swap3\n  swap6\n  swap2\n  swap5\n  pop\n  swap3\n  pop\n  jump\t// out\n    /* \"#utility.yul\":2031:2200   */\ntag_26:\n    /* \"#utility.yul\":2115:2126   */\n  0x00\n    /* \"#utility.yul\":2149:2155   */\n  dup3\n    /* \"#utility.yul\":2144:2147   */\n  dup3\n    /* \"#utility.yul\":2137:2156   */\n  mstore\n    /* \"#utility.yul\":2189:2193   */\n  0x20\n    /* \"#utility.yul\":2184:2187   */\n  dup3\n    /* \"#utility.yul\":2180:2194   */\n  add\n    /* \"#utility.yul\":2165:2194   */\n  swap1\n  pop\n    /* \"#utility.yul\":2031:2200   */\n  swap3\n  swap2\n  pop\n  pop\n  jump\t// out\n    /* \"#utility.yul\":2206:2383   */\ntag_27:\n    /* \"#utility.yul\":2346:2375   */\n  0x496e76616c69642062656e656669636961727920616464726573730000000000\n    /* \"#utility.yul\":2342:2343   */\n  0x00\n    /* \"#utility.yul\":2334:2340   */\n  dup3\n    /* \"#utility.yul\":2330:2344   */\n  add\n    /* \"#utility.yul\":2323:2376   */\n  mstore\n    /* \"#utility.yul\":2206:2383   */\n  pop\n  jump\t// out\n    /* \"#utility.yul\":2389:2755   */\ntag_28:\n    /* \"#utility.yul\":2531:2534   */\n  0x00\n    /* \"#utility.yul\":2552:2619   */\n  tag_61\n    /* \"#utility.yul\":2616:2618   */\n  0x1b\n    /* \"#utility.yul\":2611:2614   */\n  dup4\n    /* \"#utility.yul\":2552:2619   */\n  tag_26\n  jump\t// in\ntag_61:\n    /* \"#utility.yul\":2545:2619   */\n  swap2\n  pop\n    /* \"#utility.yul\":2628:2721   */\n  tag_62\n    /* \"#utility.yul\":2717:2720   */\n  dup3\n    /* \"#utility.yul\":2628:2721   */\n  tag_27\n  jump\t// in\ntag_62:\n    /* \"#utility.yul\":2746:2748   */\n  0x20\n    /* \"#utility.yul\":2741:2744   */\n  dup3\n    /* \"#utility.yul\":2737:2749   */\n  add\n    /* \"#utility.yul\":2730:2749   */\n  swap1\n  pop\n    /* \"#utility.yul\":2389:2755   */\n  swap2\n  swap1\n  pop\n  jump\t// out\n    /* \"#utility.yul\":2761:3180   */\ntag_8:\n    /* \"#utility.yul\":2927:2931   */\n  0x00\n    /* \"#utility.yul\":2965:2967   */\n  0x20\n    /* \"#utility.yul\":2954:2963   */\n  dup3\n    /* \"#utility.yul\":2950:2968   */\n  add\n    /* \"#utility.yul\":2942:2968   */\n  swap1\n  pop\n    /* \"#utility.yul\":3014:3023   */\n  dup2\n    /* \"#utility.yul\":3008:3012   */\n  dup2\n    /* \"#utility.yul\":3004:3024   */\n  sub\n    /* \"#utility.yul\":3000:3001   */\n  0x00\n    /* \"#utility.yul\":2989:2998   */\n  dup4\n    /* \"#utility.yul\":2985:3002   */\n  add\n    /* \"#utility.yul\":2978:3025   */\n  mstore\n    /* \"#utility.yul\":3042:3173   */\n  tag_64\n    /* \"#utility.yul\":3168:3172   */\n  dup2\n    /* \"#utility.yul\":3042:3173   */\n  tag_28\n  jump\t// in\ntag_64:\n    /* \"#utility.yul\":3034:3173   */\n  swap1\n  pop\n    /* \"#utility.yul\":2761:3180   */\n  swap2\n  swap1\n  pop\n  jump\t// out\n    /* \"#utility.yul\":3186:3413   */\ntag_29:\n    /* \"#utility.yul\":3326:3360   */\n  0x456e642074696d65206d7573742062652067726561746572207468616e207374\n    /* \"#utility.yul\":3322:3323   */\n  0x00\n    /* \"#utility.yul\":3314:3320   */\n  dup3\n    /* \"#utility.yul\":3310:3324   */\n  add\n    /* \"#utility.yul\":3303:3361   */\n  mstore\n    /* \"#utility.yul\":3395:3405   */\n  0x6172742074696d65000000000000000000000000000000000000000000000000\n    /* \"#utility.yul\":3390:3392   */\n  0x20\n    /* \"#utility.yul\":3382:3388   */\n  dup3\n    /* \"#utility.yul\":3378:3393   */\n  add\n    /* \"#utility.yul\":3371:3406   */\n  mstore\n    /* \"#utility.yul\":3186:3413   */\n  pop\n  jump\t// out\n    /* \"#utility.yul\":3419:3785   */\ntag_30:\n    /* \"#utility.yul\":3561:3564   */\n  0x00\n    /* \"#utility.yul\":3582:3649   */\n  tag_67\n    /* \"#utility.yul\":3646:3648   */\n  0x28\n    /* \"#utility.yul\":3641:3644   */\n  dup4\n    /* \"#utility.yul\":3582:3649   */\n  tag_26\n  jump\t// in\ntag_67:\n    /* \"#utility.yul\":3575:3649   */\n  swap2\n  pop\n    /* \"#utility.yul\":3658:3751   */\n  tag_68\n    /* \"#utility.yul\":3747:3750   */\n  dup3\n    /* \"#utility.yul\":3658:3751   */\n  tag_29\n  jump\t// in\ntag_68:\n    /* \"#utility.yul\":3776:3778   */\n  0x40\n    /* \"#utility.yul\":3771:3774   */\n  dup3\n    /* \"#utility.yul\":3767:3779   */\n  add\n    /* \"#utility.yul\":3760:3779   */\n  swap1\n  pop\n    /* \"#utility.yul\":3419:3785   */\n  swap2\n  swap1\n  pop\n  jump\t// out\n    /* \"#utility.yul\":3791:4210   */\ntag_11:\n    /* \"#utility.yul\":3957:3961   */\n  0x00\n    /* \"#utility.yul\":3995:3997   */\n  0x20\n    /* \"#utility.yul\":3984:3993   */\n  dup3\n    /* \"#utility.yul\":3980:3998   */\n  add\n    /* \"#utility.yul\":3972:3998   */\n  swap1\n  pop\n    /* \"#utility.yul\":4044:4053   */\n  dup2\n    /* \"#utility.yul\":4038:4042   */\n  dup2\n    /* \"#utility.yul\":4034:4054   */\n  sub\n    /* \"#utility.yul\":4030:4031   */\n  0x00\n    /* \"#utility.yul\":4019:4028   */\n  dup4\n    /* \"#utility.yul\":4015:4032   */\n  add\n    /* \"#utility.yul\":4008:4055   */\n  mstore\n    /* \"#utility.yul\":4072:4203   */\n  tag_70\n    /* \"#utility.yul\":4198:4202   */\n  dup2\n    /* \"#utility.yul\":4072:4203   */\n  tag_30\n  jump\t// in\ntag_70:\n    /* \"#utility.yul\":4064:4203   */\n  swap1\n  pop\n    /* \"#utility.yul\":3791:4210   */\n  swap2\n  swap1\n  pop\n  jump\t// out\n    /* \"#utility.yul\":4216:4441   */\ntag_31:\n    /* \"#utility.yul\":4356:4390   */\n  0x546f74616c20616d6f756e74206d757374206265206772656174657220746861\n    /* \"#utility.yul\":4352:4353   */\n  0x00\n    /* \"#utility.yul\":4344:4350   */\n  dup3\n    /* \"#utility.yul\":4340:4354   */\n  add\n    /* \"#utility.yul\":4333:4391   */\n  mstore\n    /* \"#utility.yul\":4425:4433   */\n  0x6e207a65726f0000000000000000000000000000000000000000000000000000\n    /* \"#utility.yul\":4420:4422   */\n  0x20\n    /* \"#utility.yul\":4412:4418   */\n  dup3\n    /* \"#utility.yul\":4408:4423   */\n  add\n    /* \"#utility.yul\":4401:4434   */\n  mstore\n    /* \"#utility.yul\":4216:4441   */\n  pop\n  jump\t// out\n    /* \"#utility.yul\":4447:4813   */\ntag_32:\n    /* \"#utility.yul\":4589:4592   */\n  0x00\n    /* \"#utility.yul\":4610:4677   */\n  tag_73\n    /* \"#utility.yul\":4674:4676   */\n  0x26\n    /* \"#utility.yul\":4669:4672   */\n  dup4\n    /* \"#utility.yul\":4610:4677   */\n  tag_26\n  jump\t// in\ntag_73:\n    /* \"#utility.yul\":4603:4677   */\n  swap2\n  pop\n    /* \"#utility.yul\":4686:4779   */\n  tag_74\n    /* \"#utility.yul\":4775:4778   */\n  dup3\n    /* \"#utility.yul\":4686:4779   */\n  tag_31\n  jump\t// in\ntag_74:\n    /* \"#utility.yul\":4804:4806   */\n  0x40\n    /* \"#utility.yul\":4799:4802   */\n  dup3\n    /* \"#utility.yul\":4795:4807   */\n  add\n    /* \"#utility.yul\":4788:4807   */\n  swap1\n  pop\n    /* \"#utility.yul\":4447:4813   */\n  swap2\n  swap1\n  pop\n  jump\t// out\n    /* \"#utility.yul\":4819:5238   */\ntag_14:\n    /* \"#utility.yul\":4985:4989   */\n  0x00\n    /* \"#utility.yul\":5023:5025   */\n  0x20\n    /* \"#utility.yul\":5012:5021   */\n  dup3\n    /* \"#utility.yul\":5008:5026   */\n  add\n    /* \"#utility.yul\":5000:5026   */\n  swap1\n  pop\n    /* \"#utility.yul\":5072:5081   */\n  dup2\n    /* \"#utility.yul\":5066:5070   */\n  dup2\n    /* \"#utility.yul\":5062:5082   */\n  sub\n    /* \"#utility.yul\":5058:5059   */\n  0x00\n    /* \"#utility.yul\":5047:5056   */\n  dup4\n    /* \"#utility.yul\":5043:5060   */\n  add\n    /* \"#utility.yul\":5036:5083   */\n  mstore\n    /* \"#utility.yul\":5100:5231   */\n  tag_76\n    /* \"#utility.yul\":5226:5230   */\n  dup2\n    /* \"#utility.yul\":5100:5231   */\n  tag_32\n  jump\t// in\ntag_76:\n    /* \"#utility.yul\":5092:5231   */\n  swap1\n  pop\n    /* \"#utility.yul\":4819:5238   */\n  swap2\n  swap1\n  pop\n  jump\t// out\n    /* \"contracts/ERC20/TokenVesting.sol\":60:2177  contract LinearVesting {... */\ntag_15:\n  dataSize(sub_0)\n  dup1\n  dataOffset(sub_0)\n  0x00\n  codecopy\n  0x00\n  return\nstop\n\nsub_0: assembly {\n        /* \"contracts/ERC20/TokenVesting.sol\":60:2177  contract LinearVesting {... */\n      mstore(0x40, 0x80)\n      callvalue\n      dup1\n      iszero\n      tag_1\n      jumpi\n      0x00\n      dup1\n      revert\n    tag_1:\n      pop\n      jumpi(tag_2, lt(calldatasize, 0x04))\n      shr(0xe0, calldataload(0x00))\n      dup1\n      0x78e97925\n      gt\n      tag_11\n      jumpi\n      dup1\n      0x78e97925\n      eq\n      tag_7\n      jumpi\n      dup1\n      0x86d1a69f\n      eq\n      tag_8\n      jumpi\n      dup1\n      0x96132521\n      eq\n      tag_9\n      jumpi\n      dup1\n      0x9f2d9f2a\n      eq\n      tag_10\n      jumpi\n      jump(tag_2)\n    tag_11:\n      dup1\n      0x1a39d8ef\n      eq\n      tag_3\n      jumpi\n      dup1\n      0x3197cbb6\n      eq\n      tag_4\n      jumpi\n      dup1\n      0x38af3eed\n      eq\n      tag_5\n      jumpi\n      dup1\n      0x55234ec0\n      eq\n      tag_6\n      jumpi\n    tag_2:\n      0x00\n      dup1\n      revert\n        /* \"contracts/ERC20/TokenVesting.sol\":255:281  uint256 public totalAmount */\n    tag_3:\n      tag_12\n      tag_13\n      jump\t// in\n    tag_12:\n      mload(0x40)\n      tag_14\n      swap2\n      swap1\n      tag_15\n      jump\t// in\n    tag_14:\n      mload(0x40)\n      dup1\n      swap2\n      sub\n      swap1\n      return\n        /* \"contracts/ERC20/TokenVesting.sol\":199:221  uint256 public endTime */\n    tag_4:\n      tag_16\n      tag_17\n      jump\t// in\n    tag_16:\n      mload(0x40)\n      tag_18\n      swap2\n      swap1\n      tag_15\n      jump\t// in\n    tag_18:\n      mload(0x40)\n      dup1\n      swap2\n      sub\n      swap1\n      return\n        /* \"contracts/ERC20/TokenVesting.sol\":90:116  address public beneficiary */\n    tag_5:\n      tag_19\n      tag_20\n      jump\t// in\n    tag_19:\n      mload(0x40)\n      tag_21\n      swap2\n      swap1\n      tag_22\n      jump\t// in\n    tag_21:\n      mload(0x40)\n      dup1\n      swap2\n      sub\n      swap1\n      return\n        /* \"contracts/ERC20/TokenVesting.sol\":2075:2174  function remaining() public view returns (uint256) {... */\n    tag_6:\n      tag_23\n      tag_24\n      jump\t// in\n    tag_23:\n      mload(0x40)\n      tag_25\n      swap2\n      swap1\n      tag_15\n      jump\t// in\n    tag_25:\n      mload(0x40)\n      dup1\n      swap2\n      sub\n      swap1\n      return\n        /* \"contracts/ERC20/TokenVesting.sol\":143:167  uint256 public startTime */\n    tag_7:\n      tag_26\n      tag_27\n      jump\t// in\n    tag_26:\n      mload(0x40)\n      tag_28\n      swap2\n      swap1\n      tag_15\n      jump\t// in\n    tag_28:\n      mload(0x40)\n      dup1\n      swap2\n      sub\n      swap1\n      return\n        /* \"contracts/ERC20/TokenVesting.sol\":1511:2022  function release() public {... */\n    tag_8:\n      tag_29\n      tag_30\n      jump\t// in\n    tag_29:\n      stop\n        /* \"contracts/ERC20/TokenVesting.sol\":320:343  uint256 public released */\n    tag_9:\n      tag_31\n      tag_32\n      jump\t// in\n    tag_31:\n      mload(0x40)\n      tag_33\n      swap2\n      swap1\n      tag_15\n      jump\t// in\n    tag_33:\n      mload(0x40)\n      dup1\n      swap2\n      sub\n      swap1\n      return\n        /* \"contracts/ERC20/TokenVesting.sol\":1042:1482  function getVestedAmount() public view returns (uint256) {... */\n    tag_10:\n      tag_34\n      tag_35\n      jump\t// in\n    tag_34:\n      mload(0x40)\n      tag_36\n      swap2\n      swap1\n      tag_15\n      jump\t// in\n    tag_36:\n      mload(0x40)\n      dup1\n      swap2\n      sub\n      swap1\n      return\n        /* \"contracts/ERC20/TokenVesting.sol\":255:281  uint256 public totalAmount */\n    tag_13:\n      sload(0x03)\n      dup2\n      jump\t// out\n        /* \"contracts/ERC20/TokenVesting.sol\":199:221  uint256 public endTime */\n    tag_17:\n      sload(0x02)\n      dup2\n      jump\t// out\n        /* \"contracts/ERC20/TokenVesting.sol\":90:116  address public beneficiary */\n    tag_20:\n      0x00\n      dup1\n      sload\n      swap1\n      0x0100\n      exp\n      swap1\n      div\n      0xffffffffffffffffffffffffffffffffffffffff\n      and\n      dup2\n      jump\t// out\n        /* \"contracts/ERC20/TokenVesting.sol\":2075:2174  function remaining() public view returns (uint256) {... */\n    tag_24:\n        /* \"contracts/ERC20/TokenVesting.sol\":2117:2124  uint256 */\n      0x00\n        /* \"contracts/ERC20/TokenVesting.sol\":2158:2166  released */\n      sload(0x04)\n        /* \"contracts/ERC20/TokenVesting.sol\":2144:2155  totalAmount */\n      sload(0x03)\n        /* \"contracts/ERC20/TokenVesting.sol\":2144:2166  totalAmount - released */\n      tag_38\n      swap2\n      swap1\n      tag_39\n      jump\t// in\n    tag_38:\n        /* \"contracts/ERC20/TokenVesting.sol\":2137:2166  return totalAmount - released */\n      swap1\n      pop\n        /* \"contracts/ERC20/TokenVesting.sol\":2075:2174  function remaining() public view returns (uint256) {... */\n      swap1\n      jump\t// out\n        /* \"contracts/ERC20/TokenVesting.sol\":143:167  uint256 public startTime */\n    tag_27:\n      sload(0x01)\n      dup2\n      jump\t// out\n        /* \"contracts/ERC20/TokenVesting.sol\":1511:2022  function release() public {... */\n    tag_30:\n        /* \"contracts/ERC20/TokenVesting.sol\":1570:1581  beneficiary */\n      0x00\n      dup1\n      sload\n      swap1\n      0x0100\n      exp\n      swap1\n      div\n      0xffffffffffffffffffffffffffffffffffffffff\n      and\n        /* \"contracts/ERC20/TokenVesting.sol\":1556:1581  msg.sender == beneficiary */\n      0xffffffffffffffffffffffffffffffffffffffff\n      and\n        /* \"contracts/ERC20/TokenVesting.sol\":1556:1566  msg.sender */\n      caller\n        /* \"contracts/ERC20/TokenVesting.sol\":1556:1581  msg.sender == beneficiary */\n      0xffffffffffffffffffffffffffffffffffffffff\n      and\n      eq\n        /* \"contracts/ERC20/TokenVesting.sol\":1548:1625  require(msg.sender == beneficiary, \"Only the beneficiary can release tokens\") */\n      tag_41\n      jumpi\n      mload(0x40)\n      0x08c379a000000000000000000000000000000000000000000000000000000000\n      dup2\n      mstore\n      0x04\n      add\n      tag_42\n      swap1\n      tag_43\n      jump\t// in\n    tag_42:\n      mload(0x40)\n      dup1\n      swap2\n      sub\n      swap1\n      revert\n    tag_41:\n        /* \"contracts/ERC20/TokenVesting.sol\":1636:1650  uint256 vested */\n      0x00\n        /* \"contracts/ERC20/TokenVesting.sol\":1653:1670  getVestedAmount() */\n      tag_44\n        /* \"contracts/ERC20/TokenVesting.sol\":1653:1668  getVestedAmount */\n      tag_35\n        /* \"contracts/ERC20/TokenVesting.sol\":1653:1670  getVestedAmount() */\n      jump\t// in\n    tag_44:\n        /* \"contracts/ERC20/TokenVesting.sol\":1636:1670  uint256 vested = getVestedAmount() */\n      swap1\n      pop\n        /* \"contracts/ERC20/TokenVesting.sol\":1681:1699  uint256 releasable */\n      0x00\n        /* \"contracts/ERC20/TokenVesting.sol\":1711:1719  released */\n      sload(0x04)\n        /* \"contracts/ERC20/TokenVesting.sol\":1702:1708  vested */\n      dup3\n        /* \"contracts/ERC20/TokenVesting.sol\":1702:1719  vested - released */\n      tag_45\n      swap2\n      swap1\n      tag_39\n      jump\t// in\n    tag_45:\n        /* \"contracts/ERC20/TokenVesting.sol\":1681:1719  uint256 releasable = vested - released */\n      swap1\n      pop\n        /* \"contracts/ERC20/TokenVesting.sol\":1753:1754  0 */\n      0x00\n        /* \"contracts/ERC20/TokenVesting.sol\":1740:1750  releasable */\n      dup2\n        /* \"contracts/ERC20/TokenVesting.sol\":1740:1754  releasable > 0 */\n      gt\n        /* \"contracts/ERC20/TokenVesting.sol\":1732:1790  require(releasable > 0, \"No tokens available for release\") */\n      tag_46\n      jumpi\n      mload(0x40)\n      0x08c379a000000000000000000000000000000000000000000000000000000000\n      dup2\n      mstore\n      0x04\n      add\n      tag_47\n      swap1\n      tag_48\n      jump\t// in\n    tag_47:\n      mload(0x40)\n      dup1\n      swap2\n      sub\n      swap1\n      revert\n    tag_46:\n        /* \"contracts/ERC20/TokenVesting.sol\":1814:1820  vested */\n      dup2\n        /* \"contracts/ERC20/TokenVesting.sol\":1803:1811  released */\n      0x04\n        /* \"contracts/ERC20/TokenVesting.sol\":1803:1820  released = vested */\n      dup2\n      swap1\n      sstore\n      pop\n        /* \"contracts/ERC20/TokenVesting.sol\":1836:1862  TokensReleased(releasable) */\n      0xa1598fb976f7dd9df63fd18699c54a5744a6a95364166bbd0d77a2f6c8438b1f\n        /* \"contracts/ERC20/TokenVesting.sol\":1851:1861  releasable */\n      dup2\n        /* \"contracts/ERC20/TokenVesting.sol\":1836:1862  TokensReleased(releasable) */\n      mload(0x40)\n      tag_49\n      swap2\n      swap1\n      tag_15\n      jump\t// in\n    tag_49:\n      mload(0x40)\n      dup1\n      swap2\n      sub\n      swap1\n      log1\n        /* \"contracts/ERC20/TokenVesting.sol\":1537:2022  {... */\n      pop\n      pop\n        /* \"contracts/ERC20/TokenVesting.sol\":1511:2022  function release() public {... */\n      jump\t// out\n        /* \"contracts/ERC20/TokenVesting.sol\":320:343  uint256 public released */\n    tag_32:\n      sload(0x04)\n      dup2\n      jump\t// out\n        /* \"contracts/ERC20/TokenVesting.sol\":1042:1482  function getVestedAmount() public view returns (uint256) {... */\n    tag_35:\n        /* \"contracts/ERC20/TokenVesting.sol\":1090:1097  uint256 */\n      0x00\n        /* \"contracts/ERC20/TokenVesting.sol\":1133:1142  startTime */\n      sload(0x01)\n        /* \"contracts/ERC20/TokenVesting.sol\":1114:1129  block.timestamp */\n      timestamp\n        /* \"contracts/ERC20/TokenVesting.sol\":1114:1142  block.timestamp <= startTime */\n      gt\n        /* \"contracts/ERC20/TokenVesting.sol\":1110:1475  if (block.timestamp <= startTime) {... */\n      tag_51\n      jumpi\n        /* \"contracts/ERC20/TokenVesting.sol\":1166:1167  0 */\n      0x00\n        /* \"contracts/ERC20/TokenVesting.sol\":1159:1167  return 0 */\n      swap1\n      pop\n      jump(tag_50)\n        /* \"contracts/ERC20/TokenVesting.sol\":1110:1475  if (block.timestamp <= startTime) {... */\n    tag_51:\n        /* \"contracts/ERC20/TokenVesting.sol\":1208:1215  endTime */\n      sload(0x02)\n        /* \"contracts/ERC20/TokenVesting.sol\":1189:1204  block.timestamp */\n      timestamp\n        /* \"contracts/ERC20/TokenVesting.sol\":1189:1215  block.timestamp >= endTime */\n      lt\n        /* \"contracts/ERC20/TokenVesting.sol\":1185:1475  if (block.timestamp >= endTime) {... */\n      tag_53\n      jumpi\n        /* \"contracts/ERC20/TokenVesting.sol\":1239:1250  totalAmount */\n      sload(0x03)\n        /* \"contracts/ERC20/TokenVesting.sol\":1232:1250  return totalAmount */\n      swap1\n      pop\n      jump(tag_50)\n        /* \"contracts/ERC20/TokenVesting.sol\":1185:1475  if (block.timestamp >= endTime) {... */\n    tag_53:\n        /* \"contracts/ERC20/TokenVesting.sol\":1283:1306  uint256 durationElapsed */\n      0x00\n        /* \"contracts/ERC20/TokenVesting.sol\":1327:1336  startTime */\n      sload(0x01)\n        /* \"contracts/ERC20/TokenVesting.sol\":1309:1324  block.timestamp */\n      timestamp\n        /* \"contracts/ERC20/TokenVesting.sol\":1309:1336  block.timestamp - startTime */\n      tag_55\n      swap2\n      swap1\n      tag_39\n      jump\t// in\n    tag_55:\n        /* \"contracts/ERC20/TokenVesting.sol\":1283:1336  uint256 durationElapsed = block.timestamp - startTime */\n      swap1\n      pop\n        /* \"contracts/ERC20/TokenVesting.sol\":1351:1372  uint256 totalDuration */\n      0x00\n        /* \"contracts/ERC20/TokenVesting.sol\":1385:1394  startTime */\n      sload(0x01)\n        /* \"contracts/ERC20/TokenVesting.sol\":1375:1382  endTime */\n      sload(0x02)\n        /* \"contracts/ERC20/TokenVesting.sol\":1375:1394  endTime - startTime */\n      tag_56\n      swap2\n      swap1\n      tag_39\n      jump\t// in\n    tag_56:\n        /* \"contracts/ERC20/TokenVesting.sol\":1351:1394  uint256 totalDuration = endTime - startTime */\n      swap1\n      pop\n        /* \"contracts/ERC20/TokenVesting.sol\":1450:1463  totalDuration */\n      dup1\n        /* \"contracts/ERC20/TokenVesting.sol\":1431:1446  durationElapsed */\n      dup3\n        /* \"contracts/ERC20/TokenVesting.sol\":1417:1428  totalAmount */\n      sload(0x03)\n        /* \"contracts/ERC20/TokenVesting.sol\":1417:1446  totalAmount * durationElapsed */\n      tag_57\n      swap2\n      swap1\n      tag_58\n      jump\t// in\n    tag_57:\n        /* \"contracts/ERC20/TokenVesting.sol\":1416:1463  (totalAmount * durationElapsed) / totalDuration */\n      tag_59\n      swap2\n      swap1\n      tag_60\n      jump\t// in\n    tag_59:\n        /* \"contracts/ERC20/TokenVesting.sol\":1409:1463  return (totalAmount * durationElapsed) / totalDuration */\n      swap3\n      pop\n      pop\n      pop\n        /* \"contracts/ERC20/TokenVesting.sol\":1042:1482  function getVestedAmount() public view returns (uint256) {... */\n    tag_50:\n      swap1\n      jump\t// out\n        /* \"#utility.yul\":7:84   */\n    tag_61:\n        /* \"#utility.yul\":44:51   */\n      0x00\n        /* \"#utility.yul\":73:78   */\n      dup2\n        /* \"#utility.yul\":62:78   */\n      swap1\n      pop\n        /* \"#utility.yul\":7:84   */\n      swap2\n      swap1\n      pop\n      jump\t// out\n        /* \"#utility.yul\":90:208   */\n    tag_62:\n        /* \"#utility.yul\":177:201   */\n      tag_76\n        /* \"#utility.yul\":195:200   */\n      dup2\n        /* \"#utility.yul\":177:201   */\n      tag_61\n      jump\t// in\n    tag_76:\n        /* \"#utility.yul\":172:175   */\n      dup3\n        /* \"#utility.yul\":165:202   */\n      mstore\n        /* \"#utility.yul\":90:208   */\n      pop\n      pop\n      jump\t// out\n        /* \"#utility.yul\":214:436   */\n    tag_15:\n        /* \"#utility.yul\":307:311   */\n      0x00\n        /* \"#utility.yul\":345:347   */\n      0x20\n        /* \"#utility.yul\":334:343   */\n      dup3\n        /* \"#utility.yul\":330:348   */\n      add\n        /* \"#utility.yul\":322:348   */\n      swap1\n      pop\n        /* \"#utility.yul\":358:429   */\n      tag_78\n        /* \"#utility.yul\":426:427   */\n      0x00\n        /* \"#utility.yul\":415:424   */\n      dup4\n        /* \"#utility.yul\":411:428   */\n      add\n        /* \"#utility.yul\":402:408   */\n      dup5\n        /* \"#utility.yul\":358:429   */\n      tag_62\n      jump\t// in\n    tag_78:\n        /* \"#utility.yul\":214:436   */\n      swap3\n      swap2\n      pop\n      pop\n      jump\t// out\n        /* \"#utility.yul\":442:568   */\n    tag_63:\n        /* \"#utility.yul\":479:486   */\n      0x00\n        /* \"#utility.yul\":519:561   */\n      0xffffffffffffffffffffffffffffffffffffffff\n        /* \"#utility.yul\":512:517   */\n      dup3\n        /* \"#utility.yul\":508:562   */\n      and\n        /* \"#utility.yul\":497:562   */\n      swap1\n      pop\n        /* \"#utility.yul\":442:568   */\n      swap2\n      swap1\n      pop\n      jump\t// out\n        /* \"#utility.yul\":574:670   */\n    tag_64:\n        /* \"#utility.yul\":611:618   */\n      0x00\n        /* \"#utility.yul\":640:664   */\n      tag_81\n        /* \"#utility.yul\":658:663   */\n      dup3\n        /* \"#utility.yul\":640:664   */\n      tag_63\n      jump\t// in\n    tag_81:\n        /* \"#utility.yul\":629:664   */\n      swap1\n      pop\n        /* \"#utility.yul\":574:670   */\n      swap2\n      swap1\n      pop\n      jump\t// out\n        /* \"#utility.yul\":676:794   */\n    tag_65:\n        /* \"#utility.yul\":763:787   */\n      tag_83\n        /* \"#utility.yul\":781:786   */\n      dup2\n        /* \"#utility.yul\":763:787   */\n      tag_64\n      jump\t// in\n    tag_83:\n        /* \"#utility.yul\":758:761   */\n      dup3\n        /* \"#utility.yul\":751:788   */\n      mstore\n        /* \"#utility.yul\":676:794   */\n      pop\n      pop\n      jump\t// out\n        /* \"#utility.yul\":800:1022   */\n    tag_22:\n        /* \"#utility.yul\":893:897   */\n      0x00\n        /* \"#utility.yul\":931:933   */\n      0x20\n        /* \"#utility.yul\":920:929   */\n      dup3\n        /* \"#utility.yul\":916:934   */\n      add\n        /* \"#utility.yul\":908:934   */\n      swap1\n      pop\n        /* \"#utility.yul\":944:1015   */\n      tag_85\n        /* \"#utility.yul\":1012:1013   */\n      0x00\n        /* \"#utility.yul\":1001:1010   */\n      dup4\n        /* \"#utility.yul\":997:1014   */\n      add\n        /* \"#utility.yul\":988:994   */\n      dup5\n        /* \"#utility.yul\":944:1015   */\n      tag_65\n      jump\t// in\n    tag_85:\n        /* \"#utility.yul\":800:1022   */\n      swap3\n      swap2\n      pop\n      pop\n      jump\t// out\n        /* \"#utility.yul\":1028:1208   */\n    tag_66:\n        /* \"#utility.yul\":1076:1153   */\n      0x4e487b7100000000000000000000000000000000000000000000000000000000\n        /* \"#utility.yul\":1073:1074   */\n      0x00\n        /* \"#utility.yul\":1066:1154   */\n      mstore\n        /* \"#utility.yul\":1173:1177   */\n      0x11\n        /* \"#utility.yul\":1170:1171   */\n      0x04\n        /* \"#utility.yul\":1163:1178   */\n      mstore\n        /* \"#utility.yul\":1197:1201   */\n      0x24\n        /* \"#utility.yul\":1194:1195   */\n      0x00\n        /* \"#utility.yul\":1187:1202   */\n      revert\n        /* \"#utility.yul\":1214:1408   */\n    tag_39:\n        /* \"#utility.yul\":1254:1258   */\n      0x00\n        /* \"#utility.yul\":1274:1294   */\n      tag_88\n        /* \"#utility.yul\":1292:1293   */\n      dup3\n        /* \"#utility.yul\":1274:1294   */\n      tag_61\n      jump\t// in\n    tag_88:\n        /* \"#utility.yul\":1269:1294   */\n      swap2\n      pop\n        /* \"#utility.yul\":1308:1328   */\n      tag_89\n        /* \"#utility.yul\":1326:1327   */\n      dup4\n        /* \"#utility.yul\":1308:1328   */\n      tag_61\n      jump\t// in\n    tag_89:\n        /* \"#utility.yul\":1303:1328   */\n      swap3\n      pop\n        /* \"#utility.yul\":1352:1353   */\n      dup3\n        /* \"#utility.yul\":1349:1350   */\n      dup3\n        /* \"#utility.yul\":1345:1354   */\n      sub\n        /* \"#utility.yul\":1337:1354   */\n      swap1\n      pop\n        /* \"#utility.yul\":1376:1377   */\n      dup2\n        /* \"#utility.yul\":1370:1374   */\n      dup2\n        /* \"#utility.yul\":1367:1378   */\n      gt\n        /* \"#utility.yul\":1364:1401   */\n      iszero\n      tag_90\n      jumpi\n        /* \"#utility.yul\":1381:1399   */\n      tag_91\n      tag_66\n      jump\t// in\n    tag_91:\n        /* \"#utility.yul\":1364:1401   */\n    tag_90:\n        /* \"#utility.yul\":1214:1408   */\n      swap3\n      swap2\n      pop\n      pop\n      jump\t// out\n        /* \"#utility.yul\":1414:1583   */\n    tag_67:\n        /* \"#utility.yul\":1498:1509   */\n      0x00\n        /* \"#utility.yul\":1532:1538   */\n      dup3\n        /* \"#utility.yul\":1527:1530   */\n      dup3\n        /* \"#utility.yul\":1520:1539   */\n      mstore\n        /* \"#utility.yul\":1572:1576   */\n      0x20\n        /* \"#utility.yul\":1567:1570   */\n      dup3\n        /* \"#utility.yul\":1563:1577   */\n      add\n        /* \"#utility.yul\":1548:1577   */\n      swap1\n      pop\n        /* \"#utility.yul\":1414:1583   */\n      swap3\n      swap2\n      pop\n      pop\n      jump\t// out\n        /* \"#utility.yul\":1589:1815   */\n    tag_68:\n        /* \"#utility.yul\":1729:1763   */\n      0x4f6e6c79207468652062656e65666963696172792063616e2072656c65617365\n        /* \"#utility.yul\":1725:1726   */\n      0x00\n        /* \"#utility.yul\":1717:1723   */\n      dup3\n        /* \"#utility.yul\":1713:1727   */\n      add\n        /* \"#utility.yul\":1706:1764   */\n      mstore\n        /* \"#utility.yul\":1798:1807   */\n      0x20746f6b656e7300000000000000000000000000000000000000000000000000\n        /* \"#utility.yul\":1793:1795   */\n      0x20\n        /* \"#utility.yul\":1785:1791   */\n      dup3\n        /* \"#utility.yul\":1781:1796   */\n      add\n        /* \"#utility.yul\":1774:1808   */\n      mstore\n        /* \"#utility.yul\":1589:1815   */\n      pop\n      jump\t// out\n        /* \"#utility.yul\":1821:2187   */\n    tag_69:\n        /* \"#utility.yul\":1963:1966   */\n      0x00\n        /* \"#utility.yul\":1984:2051   */\n      tag_95\n        /* \"#utility.yul\":2048:2050   */\n      0x27\n        /* \"#utility.yul\":2043:2046   */\n      dup4\n        /* \"#utility.yul\":1984:2051   */\n      tag_67\n      jump\t// in\n    tag_95:\n        /* \"#utility.yul\":1977:2051   */\n      swap2\n      pop\n        /* \"#utility.yul\":2060:2153   */\n      tag_96\n        /* \"#utility.yul\":2149:2152   */\n      dup3\n        /* \"#utility.yul\":2060:2153   */\n      tag_68\n      jump\t// in\n    tag_96:\n        /* \"#utility.yul\":2178:2180   */\n      0x40\n        /* \"#utility.yul\":2173:2176   */\n      dup3\n        /* \"#utility.yul\":2169:2181   */\n      add\n        /* \"#utility.yul\":2162:2181   */\n      swap1\n      pop\n        /* \"#utility.yul\":1821:2187   */\n      swap2\n      swap1\n      pop\n      jump\t// out\n        /* \"#utility.yul\":2193:2612   */\n    tag_43:\n        /* \"#utility.yul\":2359:2363   */\n      0x00\n        /* \"#utility.yul\":2397:2399   */\n      0x20\n        /* \"#utility.yul\":2386:2395   */\n      dup3\n        /* \"#utility.yul\":2382:2400   */\n      add\n        /* \"#utility.yul\":2374:2400   */\n      swap1\n      pop\n        /* \"#utility.yul\":2446:2455   */\n      dup2\n        /* \"#utility.yul\":2440:2444   */\n      dup2\n        /* \"#utility.yul\":2436:2456   */\n      sub\n        /* \"#utility.yul\":2432:2433   */\n      0x00\n        /* \"#utility.yul\":2421:2430   */\n      dup4\n        /* \"#utility.yul\":2417:2434   */\n      add\n        /* \"#utility.yul\":2410:2457   */\n      mstore\n        /* \"#utility.yul\":2474:2605   */\n      tag_98\n        /* \"#utility.yul\":2600:2604   */\n      dup2\n        /* \"#utility.yul\":2474:2605   */\n      tag_69\n      jump\t// in\n    tag_98:\n        /* \"#utility.yul\":2466:2605   */\n      swap1\n      pop\n        /* \"#utility.yul\":2193:2612   */\n      swap2\n      swap1\n      pop\n      jump\t// out\n        /* \"#utility.yul\":2618:2799   */\n    tag_70:\n        /* \"#utility.yul\":2758:2791   */\n      0x4e6f20746f6b656e7320617661696c61626c6520666f722072656c6561736500\n        /* \"#utility.yul\":2754:2755   */\n      0x00\n        /* \"#utility.yul\":2746:2752   */\n      dup3\n        /* \"#utility.yul\":2742:2756   */\n      add\n        /* \"#utility.yul\":2735:2792   */\n      mstore\n        /* \"#utility.yul\":2618:2799   */\n      pop\n      jump\t// out\n        /* \"#utility.yul\":2805:3171   */\n    tag_71:\n        /* \"#utility.yul\":2947:2950   */\n      0x00\n        /* \"#utility.yul\":2968:3035   */\n      tag_101\n        /* \"#utility.yul\":3032:3034   */\n      0x1f\n        /* \"#utility.yul\":3027:3030   */\n      dup4\n        /* \"#utility.yul\":2968:3035   */\n      tag_67\n      jump\t// in\n    tag_101:\n        /* \"#utility.yul\":2961:3035   */\n      swap2\n      pop\n        /* \"#utility.yul\":3044:3137   */\n      tag_102\n        /* \"#utility.yul\":3133:3136   */\n      dup3\n        /* \"#utility.yul\":3044:3137   */\n      tag_70\n      jump\t// in\n    tag_102:\n        /* \"#utility.yul\":3162:3164   */\n      0x20\n        /* \"#utility.yul\":3157:3160   */\n      dup3\n        /* \"#utility.yul\":3153:3165   */\n      add\n        /* \"#utility.yul\":3146:3165   */\n      swap1\n      pop\n        /* \"#utility.yul\":2805:3171   */\n      swap2\n      swap1\n      pop\n      jump\t// out\n        /* \"#utility.yul\":3177:3596   */\n    tag_48:\n        /* \"#utility.yul\":3343:3347   */\n      0x00\n        /* \"#utility.yul\":3381:3383   */\n      0x20\n        /* \"#utility.yul\":3370:3379   */\n      dup3\n        /* \"#utility.yul\":3366:3384   */\n      add\n        /* \"#utility.yul\":3358:3384   */\n      swap1\n      pop\n        /* \"#utility.yul\":3430:3439   */\n      dup2\n        /* \"#utility.yul\":3424:3428   */\n      dup2\n        /* \"#utility.yul\":3420:3440   */\n      sub\n        /* \"#utility.yul\":3416:3417   */\n      0x00\n        /* \"#utility.yul\":3405:3414   */\n      dup4\n        /* \"#utility.yul\":3401:3418   */\n      add\n        /* \"#utility.yul\":3394:3441   */\n      mstore\n        /* \"#utility.yul\":3458:3589   */\n      tag_104\n        /* \"#utility.yul\":3584:3588   */\n      dup2\n        /* \"#utility.yul\":3458:3589   */\n      tag_71\n      jump\t// in\n    tag_104:\n        /* \"#utility.yul\":3450:3589   */\n      swap1\n      pop\n        /* \"#utility.yul\":3177:3596   */\n      swap2\n      swap1\n      pop\n      jump\t// out\n        /* \"#utility.yul\":3602:4012   */\n    tag_58:\n        /* \"#utility.yul\":3642:3649   */\n      0x00\n        /* \"#utility.yul\":3665:3685   */\n      tag_106\n        /* \"#utility.yul\":3683:3684   */\n      dup3\n        /* \"#utility.yul\":3665:3685   */\n      tag_61\n      jump\t// in\n    tag_106:\n        /* \"#utility.yul\":3660:3685   */\n      swap2\n      pop\n        /* \"#utility.yul\":3699:3719   */\n      tag_107\n        /* \"#utility.yul\":3717:3718   */\n      dup4\n        /* \"#utility.yul\":3699:3719   */\n      tag_61\n      jump\t// in\n    tag_107:\n        /* \"#utility.yul\":3694:3719   */\n      swap3\n      pop\n        /* \"#utility.yul\":3754:3755   */\n      dup3\n        /* \"#utility.yul\":3751:3752   */\n      dup3\n        /* \"#utility.yul\":3747:3756   */\n      mul\n        /* \"#utility.yul\":3776:3806   */\n      tag_108\n        /* \"#utility.yul\":3794:3805   */\n      dup2\n        /* \"#utility.yul\":3776:3806   */\n      tag_61\n      jump\t// in\n    tag_108:\n        /* \"#utility.yul\":3765:3806   */\n      swap2\n      pop\n        /* \"#utility.yul\":3955:3956   */\n      dup3\n        /* \"#utility.yul\":3946:3953   */\n      dup3\n        /* \"#utility.yul\":3942:3957   */\n      div\n        /* \"#utility.yul\":3939:3940   */\n      dup5\n        /* \"#utility.yul\":3936:3958   */\n      eq\n        /* \"#utility.yul\":3916:3917   */\n      dup4\n        /* \"#utility.yul\":3909:3918   */\n      iszero\n        /* \"#utility.yul\":3889:3972   */\n      or\n        /* \"#utility.yul\":3866:4005   */\n      tag_109\n      jumpi\n        /* \"#utility.yul\":3985:4003   */\n      tag_110\n      tag_66\n      jump\t// in\n    tag_110:\n        /* \"#utility.yul\":3866:4005   */\n    tag_109:\n        /* \"#utility.yul\":3650:4012   */\n      pop\n        /* \"#utility.yul\":3602:4012   */\n      swap3\n      swap2\n      pop\n      pop\n      jump\t// out\n        /* \"#utility.yul\":4018:4198   */\n    tag_72:\n        /* \"#utility.yul\":4066:4143   */\n      0x4e487b7100000000000000000000000000000000000000000000000000000000\n        /* \"#utility.yul\":4063:4064   */\n      0x00\n        /* \"#utility.yul\":4056:4144   */\n      mstore\n        /* \"#utility.yul\":4163:4167   */\n      0x12\n        /* \"#utility.yul\":4160:4161   */\n      0x04\n        /* \"#utility.yul\":4153:4168   */\n      mstore\n        /* \"#utility.yul\":4187:4191   */\n      0x24\n        /* \"#utility.yul\":4184:4185   */\n      0x00\n        /* \"#utility.yul\":4177:4192   */\n      revert\n        /* \"#utility.yul\":4204:4389   */\n    tag_60:\n        /* \"#utility.yul\":4244:4245   */\n      0x00\n        /* \"#utility.yul\":4261:4281   */\n      tag_113\n        /* \"#utility.yul\":4279:4280   */\n      dup3\n        /* \"#utility.yul\":4261:4281   */\n      tag_61\n      jump\t// in\n    tag_113:\n        /* \"#utility.yul\":4256:4281   */\n      swap2\n      pop\n        /* \"#utility.yul\":4295:4315   */\n      tag_114\n        /* \"#utility.yul\":4313:4314   */\n      dup4\n        /* \"#utility.yul\":4295:4315   */\n      tag_61\n      jump\t// in\n    tag_114:\n        /* \"#utility.yul\":4290:4315   */\n      swap3\n      pop\n        /* \"#utility.yul\":4334:4335   */\n      dup3\n        /* \"#utility.yul\":4324:4359   */\n      tag_115\n      jumpi\n        /* \"#utility.yul\":4339:4357   */\n      tag_116\n      tag_72\n      jump\t// in\n    tag_116:\n        /* \"#utility.yul\":4324:4359   */\n    tag_115:\n        /* \"#utility.yul\":4381:4382   */\n      dup3\n        /* \"#utility.yul\":4378:4379   */\n      dup3\n        /* \"#utility.yul\":4374:4383   */\n      div\n        /* \"#utility.yul\":4369:4383   */\n      swap1\n      pop\n        /* \"#utility.yul\":4204:4389   */\n      swap3\n      swap2\n      pop\n      pop\n      jump\t// out\n\n    auxdata: 0xa26469706673582212205f1be51a3f7170489d86e0b7be96e9cceeceedc19511cf622a75434efb63c20064736f6c634300081a0033\n}\n",
				"bytecode": {
					"linkReferences": {},
					"object": "608060405234801561000f575f80fd5b50604051610a2e380380610a2e83398181016040528101906100319190610218565b5f73ffffffffffffffffffffffffffffffffffffffff168473ffffffffffffffffffffffffffffffffffffffff160361009f576040517f08c379a0000000000000000000000000000000000000000000000000000000008152600401610096906102d6565b60405180910390fd5b8181116100e1576040517f08c379a00000000000000000000000000000000000000000000000000000000081526004016100d890610364565b60405180910390fd5b5f8311610123576040517f08c379a000000000000000000000000000000000000000000000000000000000815260040161011a906103f2565b60405180910390fd5b835f806101000a81548173ffffffffffffffffffffffffffffffffffffffff021916908373ffffffffffffffffffffffffffffffffffffffff1602179055508260038190555081600181905550806002819055505f60048190555050505050610410565b5f80fd5b5f73ffffffffffffffffffffffffffffffffffffffff82169050919050565b5f6101b48261018b565b9050919050565b6101c4816101aa565b81146101ce575f80fd5b50565b5f815190506101df816101bb565b92915050565b5f819050919050565b6101f7816101e5565b8114610201575f80fd5b50565b5f81519050610212816101ee565b92915050565b5f805f80608085870312156102305761022f610187565b5b5f61023d878288016101d1565b945050602061024e87828801610204565b935050604061025f87828801610204565b925050606061027087828801610204565b91505092959194509250565b5f82825260208201905092915050565b7f496e76616c69642062656e6566696369617279206164647265737300000000005f82015250565b5f6102c0601b8361027c565b91506102cb8261028c565b602082019050919050565b5f6020820190508181035f8301526102ed816102b4565b9050919050565b7f456e642074696d65206d7573742062652067726561746572207468616e2073745f8201527f6172742074696d65000000000000000000000000000000000000000000000000602082015250565b5f61034e60288361027c565b9150610359826102f4565b604082019050919050565b5f6020820190508181035f83015261037b81610342565b9050919050565b7f546f74616c20616d6f756e74206d7573742062652067726561746572207468615f8201527f6e207a65726f0000000000000000000000000000000000000000000000000000602082015250565b5f6103dc60268361027c565b91506103e782610382565b604082019050919050565b5f6020820190508181035f830152610409816103d0565b9050919050565b6106118061041d5f395ff3fe608060405234801561000f575f80fd5b5060043610610086575f3560e01c806378e979251161005957806378e979251461010257806386d1a69f14610120578063961325211461012a5780639f2d9f2a1461014857610086565b80631a39d8ef1461008a5780633197cbb6146100a857806338af3eed146100c657806355234ec0146100e4575b5f80fd5b610092610166565b60405161009f9190610366565b60405180910390f35b6100b061016c565b6040516100bd9190610366565b60405180910390f35b6100ce610172565b6040516100db91906103be565b60405180910390f35b6100ec610195565b6040516100f99190610366565b60405180910390f35b61010a6101ab565b6040516101179190610366565b60405180910390f35b6101286101b1565b005b6101326102de565b60405161013f9190610366565b60405180910390f35b6101506102e4565b60405161015d9190610366565b60405180910390f35b60035481565b60025481565b5f8054906101000a900473ffffffffffffffffffffffffffffffffffffffff1681565b5f6004546003546101a69190610404565b905090565b60015481565b5f8054906101000a900473ffffffffffffffffffffffffffffffffffffffff1673ffffffffffffffffffffffffffffffffffffffff163373ffffffffffffffffffffffffffffffffffffffff161461023e576040517f08c379a0000000000000000000000000000000000000000000000000000000008152600401610235906104b7565b60405180910390fd5b5f6102476102e4565b90505f600454826102589190610404565b90505f811161029c576040517f08c379a00000000000000000000000000000000000000000000000000000000081526004016102939061051f565b60405180910390fd5b816004819055507fa1598fb976f7dd9df63fd18699c54a5744a6a95364166bbd0d77a2f6c8438b1f816040516102d29190610366565b60405180910390a15050565b60045481565b5f60015442116102f6575f905061034b565b600254421061030957600354905061034b565b5f600154426103189190610404565b90505f60015460025461032b9190610404565b9050808260035461033c919061053d565b61034691906105ab565b925050505b90565b5f819050919050565b6103608161034e565b82525050565b5f6020820190506103795f830184610357565b92915050565b5f73ffffffffffffffffffffffffffffffffffffffff82169050919050565b5f6103a88261037f565b9050919050565b6103b88161039e565b82525050565b5f6020820190506103d15f8301846103af565b92915050565b7f4e487b71000000000000000000000000000000000000000000000000000000005f52601160045260245ffd5b5f61040e8261034e565b91506104198361034e565b9250828203905081811115610431576104306103d7565b5b92915050565b5f82825260208201905092915050565b7f4f6e6c79207468652062656e65666963696172792063616e2072656c656173655f8201527f20746f6b656e7300000000000000000000000000000000000000000000000000602082015250565b5f6104a1602783610437565b91506104ac82610447565b604082019050919050565b5f6020820190508181035f8301526104ce81610495565b9050919050565b7f4e6f20746f6b656e7320617661696c61626c6520666f722072656c65617365005f82015250565b5f610509601f83610437565b9150610514826104d5565b602082019050919050565b5f6020820190508181035f830152610536816104fd565b9050919050565b5f6105478261034e565b91506105528361034e565b92508282026105608161034e565b91508282048414831517610577576105766103d7565b5b5092915050565b7f4e487b71000000000000000000000000000000000000000000000000000000005f52601260045260245ffd5b5f6105b58261034e565b91506105c08361034e565b9250826105d0576105cf61057e565b5b82820490509291505056fea26469706673582212205f1be51a3f7170489d86e0b7be96e9cceeceedc19511cf622a75434efb63c20064736f6c634300081a0033",
					"opcodes": "PUSH1 0x80 PUSH1 0x40 MSTORE CALLVALUE DUP1 ISZERO PUSH2 0xF JUMPI PUSH0 DUP1 REVERT JUMPDEST POP PUSH1 0x40 MLOAD PUSH2 0xA2E CODESIZE SUB DUP1 PUSH2 0xA2E DUP4 CODECOPY DUP2 DUP2 ADD PUSH1 0x40 MSTORE DUP2 ADD SWAP1 PUSH2 0x31 SWAP2 SWAP1 PUSH2 0x218 JUMP JUMPDEST PUSH0 PUSH20 0xFFFFFFFFFFFFFFFFFFFFFFFFFFFFFFFFFFFFFFFF AND DUP5 PUSH20 0xFFFFFFFFFFFFFFFFFFFFFFFFFFFFFFFFFFFFFFFF AND SUB PUSH2 0x9F JUMPI PUSH1 0x40 MLOAD PUSH32 0x8C379A000000000000000000000000000000000000000000000000000000000 DUP2 MSTORE PUSH1 0x4 ADD PUSH2 0x96 SWAP1 PUSH2 0x2D6 JUMP JUMPDEST PUSH1 0x40 MLOAD DUP1 SWAP2 SUB SWAP1 REVERT JUMPDEST DUP2 DUP2 GT PUSH2 0xE1 JUMPI PUSH1 0x40 MLOAD PUSH32 0x8C379A000000000000000000000000000000000000000000000000000000000 DUP2 MSTORE PUSH1 0x4 ADD PUSH2 0xD8 SWAP1 PUSH2 0x364 JUMP JUMPDEST PUSH1 0x40 MLOAD DUP1 SWAP2 SUB SWAP1 REVERT JUMPDEST PUSH0 DUP4 GT PUSH2 0x123 JUMPI PUSH1 0x40 MLOAD PUSH32 0x8C379A000000000000000000000000000000000000000000000000000000000 DUP2 MSTORE PUSH1 0x4 ADD PUSH2 0x11A SWAP1 PUSH2 0x3F2 JUMP JUMPDEST PUSH1 0x40 MLOAD DUP1 SWAP2 SUB SWAP1 REVERT JUMPDEST DUP4 PUSH0 DUP1 PUSH2 0x100 EXP DUP2 SLOAD DUP2 PUSH20 0xFFFFFFFFFFFFFFFFFFFFFFFFFFFFFFFFFFFFFFFF MUL NOT AND SWAP1 DUP4 PUSH20 0xFFFFFFFFFFFFFFFFFFFFFFFFFFFFFFFFFFFFFFFF AND MUL OR SWAP1 SSTORE POP DUP3 PUSH1 0x3 DUP2 SWAP1 SSTORE POP DUP2 PUSH1 0x1 DUP2 SWAP1 SSTORE POP DUP1 PUSH1 0x2 DUP2 SWAP1 SSTORE POP PUSH0 PUSH1 0x4 DUP2 SWAP1 SSTORE POP POP POP POP POP PUSH2 0x410 JUMP JUMPDEST PUSH0 DUP1 REVERT JUMPDEST PUSH0 PUSH20 0xFFFFFFFFFFFFFFFFFFFFFFFFFFFFFFFFFFFFFFFF DUP3 AND SWAP1 POP SWAP2 SWAP1 POP JUMP JUMPDEST PUSH0 PUSH2 0x1B4 DUP3 PUSH2 0x18B JUMP JUMPDEST SWAP1 POP SWAP2 SWAP1 POP JUMP JUMPDEST PUSH2 0x1C4 DUP2 PUSH2 0x1AA JUMP JUMPDEST DUP2 EQ PUSH2 0x1CE JUMPI PUSH0 DUP1 REVERT JUMPDEST POP JUMP JUMPDEST PUSH0 DUP2 MLOAD SWAP1 POP PUSH2 0x1DF DUP2 PUSH2 0x1BB JUMP JUMPDEST SWAP3 SWAP2 POP POP JUMP JUMPDEST PUSH0 DUP2 SWAP1 POP SWAP2 SWAP1 POP JUMP JUMPDEST PUSH2 0x1F7 DUP2 PUSH2 0x1E5 JUMP JUMPDEST DUP2 EQ PUSH2 0x201 JUMPI PUSH0 DUP1 REVERT JUMPDEST POP JUMP JUMPDEST PUSH0 DUP2 MLOAD SWAP1 POP PUSH2 0x212 DUP2 PUSH2 0x1EE JUMP JUMPDEST SWAP3 SWAP2 POP POP JUMP JUMPDEST PUSH0 DUP1 PUSH0 DUP1 PUSH1 0x80 DUP6 DUP8 SUB SLT ISZERO PUSH2 0x230 JUMPI PUSH2 0x22F PUSH2 0x187 JUMP JUMPDEST JUMPDEST PUSH0 PUSH2 0x23D DUP8 DUP3 DUP9 ADD PUSH2 0x1D1 JUMP JUMPDEST SWAP5 POP POP PUSH1 0x20 PUSH2 0x24E DUP8 DUP3 DUP9 ADD PUSH2 0x204 JUMP JUMPDEST SWAP4 POP POP PUSH1 0x40 PUSH2 0x25F DUP8 DUP3 DUP9 ADD PUSH2 0x204 JUMP JUMPDEST SWAP3 POP POP PUSH1 0x60 PUSH2 0x270 DUP8 DUP3 DUP9 ADD PUSH2 0x204 JUMP JUMPDEST SWAP2 POP POP SWAP3 SWAP6 SWAP2 SWAP5 POP SWAP3 POP JUMP JUMPDEST PUSH0 DUP3 DUP3 MSTORE PUSH1 0x20 DUP3 ADD SWAP1 POP SWAP3 SWAP2 POP POP JUMP JUMPDEST PUSH32 0x496E76616C69642062656E656669636961727920616464726573730000000000 PUSH0 DUP3 ADD MSTORE POP JUMP JUMPDEST PUSH0 PUSH2 0x2C0 PUSH1 0x1B DUP4 PUSH2 0x27C JUMP JUMPDEST SWAP2 POP PUSH2 0x2CB DUP3 PUSH2 0x28C JUMP JUMPDEST PUSH1 0x20 DUP3 ADD SWAP1 POP SWAP2 SWAP1 POP JUMP JUMPDEST PUSH0 PUSH1 0x20 DUP3 ADD SWAP1 POP DUP2 DUP2 SUB PUSH0 DUP4 ADD MSTORE PUSH2 0x2ED DUP2 PUSH2 0x2B4 JUMP JUMPDEST SWAP1 POP SWAP2 SWAP1 POP JUMP JUMPDEST PUSH32 0x456E642074696D65206D7573742062652067726561746572207468616E207374 PUSH0 DUP3 ADD MSTORE PUSH32 0x6172742074696D65000000000000000000000000000000000000000000000000 PUSH1 0x20 DUP3 ADD MSTORE POP JUMP JUMPDEST PUSH0 PUSH2 0x34E PUSH1 0x28 DUP4 PUSH2 0x27C JUMP JUMPDEST SWAP2 POP PUSH2 0x359 DUP3 PUSH2 0x2F4 JUMP JUMPDEST PUSH1 0x40 DUP3 ADD SWAP1 POP SWAP2 SWAP1 POP JUMP JUMPDEST PUSH0 PUSH1 0x20 DUP3 ADD SWAP1 POP DUP2 DUP2 SUB PUSH0 DUP4 ADD MSTORE PUSH2 0x37B DUP2 PUSH2 0x342 JUMP JUMPDEST SWAP1 POP SWAP2 SWAP1 POP JUMP JUMPDEST PUSH32 0x546F74616C20616D6F756E74206D757374206265206772656174657220746861 PUSH0 DUP3 ADD MSTORE PUSH32 0x6E207A65726F0000000000000000000000000000000000000000000000000000 PUSH1 0x20 DUP3 ADD MSTORE POP JUMP JUMPDEST PUSH0 PUSH2 0x3DC PUSH1 0x26 DUP4 PUSH2 0x27C JUMP JUMPDEST SWAP2 POP PUSH2 0x3E7 DUP3 PUSH2 0x382 JUMP JUMPDEST PUSH1 0x40 DUP3 ADD SWAP1 POP SWAP2 SWAP1 POP JUMP JUMPDEST PUSH0 PUSH1 0x20 DUP3 ADD SWAP1 POP DUP2 DUP2 SUB PUSH0 DUP4 ADD MSTORE PUSH2 0x409 DUP2 PUSH2 0x3D0 JUMP JUMPDEST SWAP1 POP SWAP2 SWAP1 POP JUMP JUMPDEST PUSH2 0x611 DUP1 PUSH2 0x41D PUSH0 CODECOPY PUSH0 RETURN INVALID PUSH1 0x80 PUSH1 0x40 MSTORE CALLVALUE DUP1 ISZERO PUSH2 0xF JUMPI PUSH0 DUP1 REVERT JUMPDEST POP PUSH1 0x4 CALLDATASIZE LT PUSH2 0x86 JUMPI PUSH0 CALLDATALOAD PUSH1 0xE0 SHR DUP1 PUSH4 0x78E97925 GT PUSH2 0x59 JUMPI DUP1 PUSH4 0x78E97925 EQ PUSH2 0x102 JUMPI DUP1 PUSH4 0x86D1A69F EQ PUSH2 0x120 JUMPI DUP1 PUSH4 0x96132521 EQ PUSH2 0x12A JUMPI DUP1 PUSH4 0x9F2D9F2A EQ PUSH2 0x148 JUMPI PUSH2 0x86 JUMP JUMPDEST DUP1 PUSH4 0x1A39D8EF EQ PUSH2 0x8A JUMPI DUP1 PUSH4 0x3197CBB6 EQ PUSH2 0xA8 JUMPI DUP1 PUSH4 0x38AF3EED EQ PUSH2 0xC6 JUMPI DUP1 PUSH4 0x55234EC0 EQ PUSH2 0xE4 JUMPI JUMPDEST PUSH0 DUP1 REVERT JUMPDEST PUSH2 0x92 PUSH2 0x166 JUMP JUMPDEST PUSH1 0x40 MLOAD PUSH2 0x9F SWAP2 SWAP1 PUSH2 0x366 JUMP JUMPDEST PUSH1 0x40 MLOAD DUP1 SWAP2 SUB SWAP1 RETURN JUMPDEST PUSH2 0xB0 PUSH2 0x16C JUMP JUMPDEST PUSH1 0x40 MLOAD PUSH2 0xBD SWAP2 SWAP1 PUSH2 0x366 JUMP JUMPDEST PUSH1 0x40 MLOAD DUP1 SWAP2 SUB SWAP1 RETURN JUMPDEST PUSH2 0xCE PUSH2 0x172 JUMP JUMPDEST PUSH1 0x40 MLOAD PUSH2 0xDB SWAP2 SWAP1 PUSH2 0x3BE JUMP JUMPDEST PUSH1 0x40 MLOAD DUP1 SWAP2 SUB SWAP1 RETURN JUMPDEST PUSH2 0xEC PUSH2 0x195 JUMP JUMPDEST PUSH1 0x40 MLOAD PUSH2 0xF9 SWAP2 SWAP1 PUSH2 0x366 JUMP JUMPDEST PUSH1 0x40 MLOAD DUP1 SWAP2 SUB SWAP1 RETURN JUMPDEST PUSH2 0x10A PUSH2 0x1AB JUMP JUMPDEST PUSH1 0x40 MLOAD PUSH2 0x117 SWAP2 SWAP1 PUSH2 0x366 JUMP JUMPDEST PUSH1 0x40 MLOAD DUP1 SWAP2 SUB SWAP1 RETURN JUMPDEST PUSH2 0x128 PUSH2 0x1B1 JUMP JUMPDEST STOP JUMPDEST PUSH2 0x132 PUSH2 0x2DE JUMP JUMPDEST PUSH1 0x40 MLOAD PUSH2 0x13F SWAP2 SWAP1 PUSH2 0x366 JUMP JUMPDEST PUSH1 0x40 MLOAD DUP1 SWAP2 SUB SWAP1 RETURN JUMPDEST PUSH2 0x150 PUSH2 0x2E4 JUMP JUMPDEST PUSH1 0x40 MLOAD PUSH2 0x15D SWAP2 SWAP1 PUSH2 0x366 JUMP JUMPDEST PUSH1 0x40 MLOAD DUP1 SWAP2 SUB SWAP1 RETURN JUMPDEST PUSH1 0x3 SLOAD DUP2 JUMP JUMPDEST PUSH1 0x2 SLOAD DUP2 JUMP JUMPDEST PUSH0 DUP1 SLOAD SWAP1 PUSH2 0x100 EXP SWAP1 DIV PUSH20 0xFFFFFFFFFFFFFFFFFFFFFFFFFFFFFFFFFFFFFFFF AND DUP2 JUMP JUMPDEST PUSH0 PUSH1 0x4 SLOAD PUSH1 0x3 SLOAD PUSH2 0x1A6 SWAP2 SWAP1 PUSH2 0x404 JUMP JUMPDEST SWAP1 POP SWAP1 JUMP JUMPDEST PUSH1 0x1 SLOAD DUP2 JUMP JUMPDEST PUSH0 DUP1 SLOAD SWAP1 PUSH2 0x100 EXP SWAP1 DIV PUSH20 0xFFFFFFFFFFFFFFFFFFFFFFFFFFFFFFFFFFFFFFFF AND PUSH20 0xFFFFFFFFFFFFFFFFFFFFFFFFFFFFFFFFFFFFFFFF AND CALLER PUSH20 0xFFFFFFFFFFFFFFFFFFFFFFFFFFFFFFFFFFFFFFFF AND EQ PUSH2 0x23E JUMPI PUSH1 0x40 MLOAD PUSH32 0x8C379A000000000000000000000000000000000000000000000000000000000 DUP2 MSTORE PUSH1 0x4 ADD PUSH2 0x235 SWAP1 PUSH2 0x4B7 JUMP JUMPDEST PUSH1 0x40 MLOAD DUP1 SWAP2 SUB SWAP1 REVERT JUMPDEST PUSH0 PUSH2 0x247 PUSH2 0x2E4 JUMP JUMPDEST SWAP1 POP PUSH0 PUSH1 0x4 SLOAD DUP3 PUSH2 0x258 SWAP2 SWAP1 PUSH2 0x404 JUMP JUMPDEST SWAP1 POP PUSH0 DUP2 GT PUSH2 0x29C JUMPI PUSH1 0x40 MLOAD PUSH32 0x8C379A000000000000000000000000000000000000000000000000000000000 DUP2 MSTORE PUSH1 0x4 ADD PUSH2 0x293 SWAP1 PUSH2 0x51F JUMP JUMPDEST PUSH1 0x40 MLOAD DUP1 SWAP2 SUB SWAP1 REVERT JUMPDEST DUP2 PUSH1 0x4 DUP2 SWAP1 SSTORE POP PUSH32 0xA1598FB976F7DD9DF63FD18699C54A5744A6A95364166BBD0D77A2F6C8438B1F DUP2 PUSH1 0x40 MLOAD PUSH2 0x2D2 SWAP2 SWAP1 PUSH2 0x366 JUMP JUMPDEST PUSH1 0x40 MLOAD DUP1 SWAP2 SUB SWAP1 LOG1 POP POP JUMP JUMPDEST PUSH1 0x4 SLOAD DUP2 JUMP JUMPDEST PUSH0 PUSH1 0x1 SLOAD TIMESTAMP GT PUSH2 0x2F6 JUMPI PUSH0 SWAP1 POP PUSH2 0x34B JUMP JUMPDEST PUSH1 0x2 SLOAD TIMESTAMP LT PUSH2 0x309 JUMPI PUSH1 0x3 SLOAD SWAP1 POP PUSH2 0x34B JUMP JUMPDEST PUSH0 PUSH1 0x1 SLOAD TIMESTAMP PUSH2 0x318 SWAP2 SWAP1 PUSH2 0x404 JUMP JUMPDEST SWAP1 POP PUSH0 PUSH1 0x1 SLOAD PUSH1 0x2 SLOAD PUSH2 0x32B SWAP2 SWAP1 PUSH2 0x404 JUMP JUMPDEST SWAP1 POP DUP1 DUP3 PUSH1 0x3 SLOAD PUSH2 0x33C SWAP2 SWAP1 PUSH2 0x53D JUMP JUMPDEST PUSH2 0x346 SWAP2 SWAP1 PUSH2 0x5AB JUMP JUMPDEST SWAP3 POP POP POP JUMPDEST SWAP1 JUMP JUMPDEST PUSH0 DUP2 SWAP1 POP SWAP2 SWAP1 POP JUMP JUMPDEST PUSH2 0x360 DUP2 PUSH2 0x34E JUMP JUMPDEST DUP3 MSTORE POP POP JUMP JUMPDEST PUSH0 PUSH1 0x20 DUP3 ADD SWAP1 POP PUSH2 0x379 PUSH0 DUP4 ADD DUP5 PUSH2 0x357 JUMP JUMPDEST SWAP3 SWAP2 POP POP JUMP JUMPDEST PUSH0 PUSH20 0xFFFFFFFFFFFFFFFFFFFFFFFFFFFFFFFFFFFFFFFF DUP3 AND SWAP1 POP SWAP2 SWAP1 POP JUMP JUMPDEST PUSH0 PUSH2 0x3A8 DUP3 PUSH2 0x37F JUMP JUMPDEST SWAP1 POP SWAP2 SWAP1 POP JUMP JUMPDEST PUSH2 0x3B8 DUP2 PUSH2 0x39E JUMP JUMPDEST DUP3 MSTORE POP POP JUMP JUMPDEST PUSH0 PUSH1 0x20 DUP3 ADD SWAP1 POP PUSH2 0x3D1 PUSH0 DUP4 ADD DUP5 PUSH2 0x3AF JUMP JUMPDEST SWAP3 SWAP2 POP POP JUMP JUMPDEST PUSH32 0x4E487B7100000000000000000000000000000000000000000000000000000000 PUSH0 MSTORE PUSH1 0x11 PUSH1 0x4 MSTORE PUSH1 0x24 PUSH0 REVERT JUMPDEST PUSH0 PUSH2 0x40E DUP3 PUSH2 0x34E JUMP JUMPDEST SWAP2 POP PUSH2 0x419 DUP4 PUSH2 0x34E JUMP JUMPDEST SWAP3 POP DUP3 DUP3 SUB SWAP1 POP DUP2 DUP2 GT ISZERO PUSH2 0x431 JUMPI PUSH2 0x430 PUSH2 0x3D7 JUMP JUMPDEST JUMPDEST SWAP3 SWAP2 POP POP JUMP JUMPDEST PUSH0 DUP3 DUP3 MSTORE PUSH1 0x20 DUP3 ADD SWAP1 POP SWAP3 SWAP2 POP POP JUMP JUMPDEST PUSH32 0x4F6E6C79207468652062656E65666963696172792063616E2072656C65617365 PUSH0 DUP3 ADD MSTORE PUSH32 0x20746F6B656E7300000000000000000000000000000000000000000000000000 PUSH1 0x20 DUP3 ADD MSTORE POP JUMP JUMPDEST PUSH0 PUSH2 0x4A1 PUSH1 0x27 DUP4 PUSH2 0x437 JUMP JUMPDEST SWAP2 POP PUSH2 0x4AC DUP3 PUSH2 0x447 JUMP JUMPDEST PUSH1 0x40 DUP3 ADD SWAP1 POP SWAP2 SWAP1 POP JUMP JUMPDEST PUSH0 PUSH1 0x20 DUP3 ADD SWAP1 POP DUP2 DUP2 SUB PUSH0 DUP4 ADD MSTORE PUSH2 0x4CE DUP2 PUSH2 0x495 JUMP JUMPDEST SWAP1 POP SWAP2 SWAP1 POP JUMP JUMPDEST PUSH32 0x4E6F20746F6B656E7320617661696C61626C6520666F722072656C6561736500 PUSH0 DUP3 ADD MSTORE POP JUMP JUMPDEST PUSH0 PUSH2 0x509 PUSH1 0x1F DUP4 PUSH2 0x437 JUMP JUMPDEST SWAP2 POP PUSH2 0x514 DUP3 PUSH2 0x4D5 JUMP JUMPDEST PUSH1 0x20 DUP3 ADD SWAP1 POP SWAP2 SWAP1 POP JUMP JUMPDEST PUSH0 PUSH1 0x20 DUP3 ADD SWAP1 POP DUP2 DUP2 SUB PUSH0 DUP4 ADD MSTORE PUSH2 0x536 DUP2 PUSH2 0x4FD JUMP JUMPDEST SWAP1 POP SWAP2 SWAP1 POP JUMP JUMPDEST PUSH0 PUSH2 0x547 DUP3 PUSH2 0x34E JUMP JUMPDEST SWAP2 POP PUSH2 0x552 DUP4 PUSH2 0x34E JUMP JUMPDEST SWAP3 POP DUP3 DUP3 MUL PUSH2 0x560 DUP2 PUSH2 0x34E JUMP JUMPDEST SWAP2 POP DUP3 DUP3 DIV DUP5 EQ DUP4 ISZERO OR PUSH2 0x577 JUMPI PUSH2 0x576 PUSH2 0x3D7 JUMP JUMPDEST JUMPDEST POP SWAP3 SWAP2 POP POP JUMP JUMPDEST PUSH32 0x4E487B7100000000000000000000000000000000000000000000000000000000 PUSH0 MSTORE PUSH1 0x12 PUSH1 0x4 MSTORE PUSH1 0x24 PUSH0 REVERT JUMPDEST PUSH0 PUSH2 0x5B5 DUP3 PUSH2 0x34E JUMP JUMPDEST SWAP2 POP PUSH2 0x5C0 DUP4 PUSH2 0x34E JUMP JUMPDEST SWAP3 POP DUP3 PUSH2 0x5D0 JUMPI PUSH2 0x5CF PUSH2 0x57E JUMP JUMPDEST JUMPDEST DUP3 DUP3 DIV SWAP1 POP SWAP3 SWAP2 POP POP JUMP INVALID LOG2 PUSH5 0x6970667358 0x22 SLT KECCAK256 PUSH0 SHL 0xE5 BYTE EXTCODEHASH PUSH18 0x70489D86E0B7BE96E9CCEECEEDC19511CF62 0x2A PUSH22 0x434EFB63C20064736F6C634300081A00330000000000 "
				},
				"gasEstimates": {
					"creation": {
						"codeDepositCost": "310600",
						"executionCost": "infinite",
						"totalCost": "infinite"
					},
					"external": {
						"beneficiary()": "2550",
						"endTime()": "2448",
						"getVestedAmount()": "infinite",
						"release()": "infinite",
						"released()": "2469",
						"remaining()": "infinite",
						"startTime()": "2425",
						"totalAmount()": "2426"
					}
				},
				"methodIdentifiers": {
					"beneficiary()": "38af3eed",
					"endTime()": "3197cbb6",
					"getVestedAmount()": "9f2d9f2a",
					"release()": "86d1a69f",
					"released()": "96132521",
					"remaining()": "55234ec0",
					"startTime()": "78e97925",
					"totalAmount()": "1a39d8ef"
				}
			},
			"storageLayout": {
				"storage": [
					{
						"astId": 3,
						"contract": "contracts/ERC20/TokenVesting.sol:LinearVesting",
						"label": "beneficiary",
						"offset": 0,
						"slot": "0",
						"type": "t_address"
					},
					{
						"astId": 5,
						"contract": "contracts/ERC20/TokenVesting.sol:LinearVesting",
						"label": "startTime",
						"offset": 0,
						"slot": "1",
						"type": "t_uint256"
					},
					{
						"astId": 7,
						"contract": "contracts/ERC20/TokenVesting.sol:LinearVesting",
						"label": "endTime",
						"offset": 0,
						"slot": "2",
						"type": "t_uint256"
					},
					{
						"astId": 9,
						"contract": "contracts/ERC20/TokenVesting.sol:LinearVesting",
						"label": "totalAmount",
						"offset": 0,
						"slot": "3",
						"type": "t_uint256"
					},
					{
						"astId": 11,
						"contract": "contracts/ERC20/TokenVesting.sol:LinearVesting",
						"label": "released",
						"offset": 0,
						"slot": "4",
						"type": "t_uint256"
					}
				],
				"types": {
					"t_address": {
						"encoding": "inplace",
						"label": "address",
						"numberOfBytes": "20"
					},
					"t_uint256": {
						"encoding": "inplace",
						"label": "uint256",
						"numberOfBytes": "32"
					}
				}
			},
			"userdoc": {
				"kind": "user",
				"methods": {},
				"version": 1
			}
		}
	}
}