{
	"contracts/ERC20/TimeLock.sol": {
		"TimeLockedToken": {
			"abi": [
				{
					"inputs": [
						{
							"internalType": "uint256",
							"name": "initialSupply",
							"type": "uint256"
						},
						{
							"internalType": "uint256",
							"name": "lockTimeInSeconds",
							"type": "uint256"
						}
					],
					"stateMutability": "nonpayable",
					"type": "constructor"
				},
				{
					"inputs": [
						{
							"internalType": "address",
							"name": "spender",
							"type": "address"
						},
						{
							"internalType": "uint256",
							"name": "allowance",
							"type": "uint256"
						},
						{
							"internalType": "uint256",
							"name": "needed",
							"type": "uint256"
						}
					],
					"name": "ERC20InsufficientAllowance",
					"type": "error"
				},
				{
					"inputs": [
						{
							"internalType": "address",
							"name": "sender",
							"type": "address"
						},
						{
							"internalType": "uint256",
							"name": "balance",
							"type": "uint256"
						},
						{
							"internalType": "uint256",
							"name": "needed",
							"type": "uint256"
						}
					],
					"name": "ERC20InsufficientBalance",
					"type": "error"
				},
				{
					"inputs": [
						{
							"internalType": "address",
							"name": "approver",
							"type": "address"
						}
					],
					"name": "ERC20InvalidApprover",
					"type": "error"
				},
				{
					"inputs": [
						{
							"internalType": "address",
							"name": "receiver",
							"type": "address"
						}
					],
					"name": "ERC20InvalidReceiver",
					"type": "error"
				},
				{
					"inputs": [
						{
							"internalType": "address",
							"name": "sender",
							"type": "address"
						}
					],
					"name": "ERC20InvalidSender",
					"type": "error"
				},
				{
					"inputs": [
						{
							"internalType": "address",
							"name": "spender",
							"type": "address"
						}
					],
					"name": "ERC20InvalidSpender",
					"type": "error"
				},
				{
					"anonymous": false,
					"inputs": [
						{
							"indexed": true,
							"internalType": "address",
							"name": "owner",
							"type": "address"
						},
						{
							"indexed": true,
							"internalType": "address",
							"name": "spender",
							"type": "address"
						},
						{
							"indexed": false,
							"internalType": "uint256",
							"name": "value",
							"type": "uint256"
						}
					],
					"name": "Approval",
					"type": "event"
				},
				{
					"anonymous": false,
					"inputs": [
						{
							"indexed": true,
							"internalType": "address",
							"name": "from",
							"type": "address"
						},
						{
							"indexed": true,
							"internalType": "address",
							"name": "to",
							"type": "address"
						},
						{
							"indexed": false,
							"internalType": "uint256",
							"name": "value",
							"type": "uint256"
						}
					],
					"name": "Transfer",
					"type": "event"
				},
				{
					"inputs": [
						{
							"internalType": "address",
							"name": "owner",
							"type": "address"
						},
						{
							"internalType": "address",
							"name": "spender",
							"type": "address"
						}
					],
					"name": "allowance",
					"outputs": [
						{
							"internalType": "uint256",
							"name": "",
							"type": "uint256"
						}
					],
					"stateMutability": "view",
					"type": "function"
				},
				{
					"inputs": [
						{
							"internalType": "address",
							"name": "spender",
							"type": "address"
						},
						{
							"internalType": "uint256",
							"name": "value",
							"type": "uint256"
						}
					],
					"name": "approve",
					"outputs": [
						{
							"internalType": "bool",
							"name": "",
							"type": "bool"
						}
					],
					"stateMutability": "nonpayable",
					"type": "function"
				},
				{
					"inputs": [
						{
							"internalType": "address",
							"name": "account",
							"type": "address"
						}
					],
					"name": "balanceOf",
					"outputs": [
						{
							"internalType": "uint256",
							"name": "",
							"type": "uint256"
						}
					],
					"stateMutability": "view",
					"type": "function"
				},
				{
					"inputs": [],
					"name": "decimals",
					"outputs": [
						{
							"internalType": "uint8",
							"name": "",
							"type": "uint8"
						}
					],
					"stateMutability": "view",
					"type": "function"
				},
				{
					"inputs": [],
					"name": "name",
					"outputs": [
						{
							"internalType": "string",
							"name": "",
							"type": "string"
						}
					],
					"stateMutability": "view",
					"type": "function"
				},
				{
					"inputs": [],
					"name": "symbol",
					"outputs": [
						{
							"internalType": "string",
							"name": "",
							"type": "string"
						}
					],
					"stateMutability": "view",
					"type": "function"
				},
				{
					"inputs": [],
					"name": "totalSupply",
					"outputs": [
						{
							"internalType": "uint256",
							"name": "",
							"type": "uint256"
						}
					],
					"stateMutability": "view",
					"type": "function"
				},
				{
					"inputs": [
						{
							"internalType": "address",
							"name": "recipient",
							"type": "address"
						},
						{
							"internalType": "uint256",
							"name": "amount",
							"type": "uint256"
						}
					],
					"name": "transfer",
					"outputs": [
						{
							"internalType": "bool",
							"name": "",
							"type": "bool"
						}
					],
					"stateMutability": "nonpayable",
					"type": "function"
				},
				{
					"inputs": [
						{
							"internalType": "address",
							"name": "sender",
							"type": "address"
						},
						{
							"internalType": "address",
							"name": "recipient",
							"type": "address"
						},
						{
							"internalType": "uint256",
							"name": "amount",
							"type": "uint256"
						}
					],
					"name": "transferFrom",
					"outputs": [
						{
							"internalType": "bool",
							"name": "",
							"type": "bool"
						}
					],
					"stateMutability": "nonpayable",
					"type": "function"
				},
				{
					"inputs": [],
					"name": "unlockTime",
					"outputs": [
						{
							"internalType": "uint256",
							"name": "",
							"type": "uint256"
						}
					],
					"stateMutability": "view",
					"type": "function"
				}
			],
			"devdoc": {
				"errors": {
					"ERC20InsufficientAllowance(address,uint256,uint256)": [
						{
							"details": "Indicates a failure with the `spender`’s `allowance`. Used in transfers.",
							"params": {
								"allowance": "Amount of tokens a `spender` is allowed to operate with.",
								"needed": "Minimum amount required to perform a transfer.",
								"spender": "Address that may be allowed to operate on tokens without being their owner."
							}
						}
					],
					"ERC20InsufficientBalance(address,uint256,uint256)": [
						{
							"details": "Indicates an error related to the current `balance` of a `sender`. Used in transfers.",
							"params": {
								"balance": "Current balance for the interacting account.",
								"needed": "Minimum amount required to perform a transfer.",
								"sender": "Address whose tokens are being transferred."
							}
						}
					],
					"ERC20InvalidApprover(address)": [
						{
							"details": "Indicates a failure with the `approver` of a token to be approved. Used in approvals.",
							"params": {
								"approver": "Address initiating an approval operation."
							}
						}
					],
					"ERC20InvalidReceiver(address)": [
						{
							"details": "Indicates a failure with the token `receiver`. Used in transfers.",
							"params": {
								"receiver": "Address to which tokens are being transferred."
							}
						}
					],
					"ERC20InvalidSender(address)": [
						{
							"details": "Indicates a failure with the token `sender`. Used in transfers.",
							"params": {
								"sender": "Address whose tokens are being transferred."
							}
						}
					],
					"ERC20InvalidSpender(address)": [
						{
							"details": "Indicates a failure with the `spender` to be approved. Used in approvals.",
							"params": {
								"spender": "Address that may be allowed to operate on tokens without being their owner."
							}
						}
					]
				},
				"events": {
					"Approval(address,address,uint256)": {
						"details": "Emitted when the allowance of a `spender` for an `owner` is set by a call to {approve}. `value` is the new allowance."
					},
					"Transfer(address,address,uint256)": {
						"details": "Emitted when `value` tokens are moved from one account (`from`) to another (`to`). Note that `value` may be zero."
					}
				},
				"kind": "dev",
				"methods": {
					"allowance(address,address)": {
						"details": "See {IERC20-allowance}."
					},
					"approve(address,uint256)": {
						"details": "See {IERC20-approve}. NOTE: If `value` is the maximum `uint256`, the allowance is not updated on `transferFrom`. This is semantically equivalent to an infinite approval. Requirements: - `spender` cannot be the zero address."
					},
					"balanceOf(address)": {
						"details": "See {IERC20-balanceOf}."
					},
					"decimals()": {
						"details": "Returns the number of decimals used to get its user representation. For example, if `decimals` equals `2`, a balance of `505` tokens should be displayed to a user as `5.05` (`505 / 10 ** 2`). Tokens usually opt for a value of 18, imitating the relationship between Ether and Wei. This is the default value returned by this function, unless it's overridden. NOTE: This information is only used for _display_ purposes: it in no way affects any of the arithmetic of the contract, including {IERC20-balanceOf} and {IERC20-transfer}."
					},
					"name()": {
						"details": "Returns the name of the token."
					},
					"symbol()": {
						"details": "Returns the symbol of the token, usually a shorter version of the name."
					},
					"totalSupply()": {
						"details": "See {IERC20-totalSupply}."
					}
				},
				"version": 1
			},
			"evm": {
				"assembly": "    /* \"contracts/ERC20/TimeLock.sol\":119:1277  contract TimeLockedToken is ERC20 {... */\n  mstore(0x40, 0x80)\n    /* \"contracts/ERC20/TimeLock.sol\":250:612  constructor(uint256 initialSupply, uint256 lockTimeInSeconds) ERC20(\"TimeLockedToken\", \"TLT\") {... */\n  callvalue\n  dup1\n  iszero\n  tag_1\n  jumpi\n  0x00\n  dup1\n  revert\ntag_1:\n  pop\n  mload(0x40)\n  sub(codesize, bytecodeSize)\n  dup1\n  bytecodeSize\n  dup4\n  codecopy\n  dup2\n  dup2\n  add\n  0x40\n  mstore\n  dup2\n  add\n  swap1\n  tag_2\n  swap2\n  swap1\n  tag_3\n  jump\t// in\ntag_2:\n    /* \"@openzeppelin/contracts/token/ERC20/ERC20.sol\":1601:1714  constructor(string memory name_, string memory symbol_) {... */\n  mload(0x40)\n  dup1\n  0x40\n  add\n  0x40\n  mstore\n  dup1\n  0x0f\n  dup2\n  mstore\n  0x20\n  add\n  0x54696d654c6f636b6564546f6b656e0000000000000000000000000000000000\n  dup2\n  mstore\n  pop\n  mload(0x40)\n  dup1\n  0x40\n  add\n  0x40\n  mstore\n  dup1\n  0x03\n  dup2\n  mstore\n  0x20\n  add\n  0x544c540000000000000000000000000000000000000000000000000000000000\n  dup2\n  mstore\n  pop\n    /* \"@openzeppelin/contracts/token/ERC20/ERC20.sol\":1675:1680  name_ */\n  dup2\n    /* \"@openzeppelin/contracts/token/ERC20/ERC20.sol\":1667:1672  _name */\n  0x03\n    /* \"@openzeppelin/contracts/token/ERC20/ERC20.sol\":1667:1680  _name = name_ */\n  swap1\n  dup2\n  tag_7\n  swap2\n  swap1\n  tag_8\n  jump\t// in\ntag_7:\n  pop\n    /* \"@openzeppelin/contracts/token/ERC20/ERC20.sol\":1700:1707  symbol_ */\n  dup1\n    /* \"@openzeppelin/contracts/token/ERC20/ERC20.sol\":1690:1697  _symbol */\n  0x04\n    /* \"@openzeppelin/contracts/token/ERC20/ERC20.sol\":1690:1707  _symbol = symbol_ */\n  swap1\n  dup2\n  tag_9\n  swap2\n  swap1\n  tag_8\n  jump\t// in\ntag_9:\n  pop\n    /* \"@openzeppelin/contracts/token/ERC20/ERC20.sol\":1601:1714  constructor(string memory name_, string memory symbol_) {... */\n  pop\n  pop\n    /* \"contracts/ERC20/TimeLock.sol\":417:468  _mint(msg.sender, initialSupply * 10 ** decimals()) */\n  tag_11\n    /* \"contracts/ERC20/TimeLock.sol\":423:433  msg.sender */\n  caller\n    /* \"contracts/ERC20/TimeLock.sol\":457:467  decimals() */\n  tag_12\n    /* \"contracts/ERC20/TimeLock.sol\":457:465  decimals */\n  shl(0x20, tag_13)\n    /* \"contracts/ERC20/TimeLock.sol\":457:467  decimals() */\n  0x20\n  shr\n  jump\t// in\ntag_12:\n    /* \"contracts/ERC20/TimeLock.sol\":451:453  10 */\n  0x0a\n    /* \"contracts/ERC20/TimeLock.sol\":451:467  10 ** decimals() */\n  tag_14\n  swap2\n  swap1\n  tag_15\n  jump\t// in\ntag_14:\n    /* \"contracts/ERC20/TimeLock.sol\":435:448  initialSupply */\n  dup5\n    /* \"contracts/ERC20/TimeLock.sol\":435:467  initialSupply * 10 ** decimals() */\n  tag_16\n  swap2\n  swap1\n  tag_17\n  jump\t// in\ntag_16:\n    /* \"contracts/ERC20/TimeLock.sol\":417:422  _mint */\n  shl(0x20, tag_18)\n    /* \"contracts/ERC20/TimeLock.sol\":417:468  _mint(msg.sender, initialSupply * 10 ** decimals()) */\n  0x20\n  shr\n  jump\t// in\ntag_11:\n    /* \"contracts/ERC20/TimeLock.sol\":544:561  lockTimeInSeconds */\n  dup1\n    /* \"contracts/ERC20/TimeLock.sol\":526:541  block.timestamp */\n  timestamp\n    /* \"contracts/ERC20/TimeLock.sol\":526:561  block.timestamp + lockTimeInSeconds */\n  tag_19\n  swap2\n  swap1\n  tag_20\n  jump\t// in\ntag_19:\n    /* \"contracts/ERC20/TimeLock.sol\":513:523  unlockTime */\n  0x05\n    /* \"contracts/ERC20/TimeLock.sol\":513:561  unlockTime = block.timestamp + lockTimeInSeconds */\n  dup2\n  swap1\n  sstore\n  pop\n    /* \"contracts/ERC20/TimeLock.sol\":250:612  constructor(uint256 initialSupply, uint256 lockTimeInSeconds) ERC20(\"TimeLockedToken\", \"TLT\") {... */\n  pop\n  pop\n    /* \"contracts/ERC20/TimeLock.sol\":119:1277  contract TimeLockedToken is ERC20 {... */\n  jump(tag_21)\n    /* \"@openzeppelin/contracts/token/ERC20/ERC20.sol\":2707:2789  function decimals() public view virtual returns (uint8) {... */\ntag_13:\n    /* \"@openzeppelin/contracts/token/ERC20/ERC20.sol\":2756:2761  uint8 */\n  0x00\n    /* \"@openzeppelin/contracts/token/ERC20/ERC20.sol\":2780:2782  18 */\n  0x12\n    /* \"@openzeppelin/contracts/token/ERC20/ERC20.sol\":2773:2782  return 18 */\n  swap1\n  pop\n    /* \"@openzeppelin/contracts/token/ERC20/ERC20.sol\":2707:2789  function decimals() public view virtual returns (uint8) {... */\n  swap1\n  jump\t// out\n    /* \"@openzeppelin/contracts/token/ERC20/ERC20.sol\":7458:7666  function _mint(address account, uint256 value) internal {... */\ntag_18:\n    /* \"@openzeppelin/contracts/token/ERC20/ERC20.sol\":7547:7548  0 */\n  0x00\n    /* \"@openzeppelin/contracts/token/ERC20/ERC20.sol\":7528:7549  account == address(0) */\n  0xffffffffffffffffffffffffffffffffffffffff\n  and\n    /* \"@openzeppelin/contracts/token/ERC20/ERC20.sol\":7528:7535  account */\n  dup3\n    /* \"@openzeppelin/contracts/token/ERC20/ERC20.sol\":7528:7549  account == address(0) */\n  0xffffffffffffffffffffffffffffffffffffffff\n  and\n  sub\n    /* \"@openzeppelin/contracts/token/ERC20/ERC20.sol\":7524:7615  if (account == address(0)) {... */\n  tag_24\n  jumpi\n    /* \"@openzeppelin/contracts/token/ERC20/ERC20.sol\":7601:7602  0 */\n  0x00\n    /* \"@openzeppelin/contracts/token/ERC20/ERC20.sol\":7572:7604  ERC20InvalidReceiver(address(0)) */\n  mload(0x40)\n  0xec442f0500000000000000000000000000000000000000000000000000000000\n  dup2\n  mstore\n  0x04\n  add\n  tag_25\n  swap2\n  swap1\n  tag_26\n  jump\t// in\ntag_25:\n  mload(0x40)\n  dup1\n  swap2\n  sub\n  swap1\n  revert\n    /* \"@openzeppelin/contracts/token/ERC20/ERC20.sol\":7524:7615  if (account == address(0)) {... */\ntag_24:\n    /* \"@openzeppelin/contracts/token/ERC20/ERC20.sol\":7624:7659  _update(address(0), account, value) */\n  tag_27\n    /* \"@openzeppelin/contracts/token/ERC20/ERC20.sol\":7640:7641  0 */\n  0x00\n    /* \"@openzeppelin/contracts/token/ERC20/ERC20.sol\":7644:7651  account */\n  dup4\n    /* \"@openzeppelin/contracts/token/ERC20/ERC20.sol\":7653:7658  value */\n  dup4\n    /* \"@openzeppelin/contracts/token/ERC20/ERC20.sol\":7624:7631  _update */\n  shl(0x20, tag_28)\n    /* \"@openzeppelin/contracts/token/ERC20/ERC20.sol\":7624:7659  _update(address(0), account, value) */\n  0x20\n  shr\n  jump\t// in\ntag_27:\n    /* \"@openzeppelin/contracts/token/ERC20/ERC20.sol\":7458:7666  function _mint(address account, uint256 value) internal {... */\n  pop\n  pop\n  jump\t// out\n    /* \"@openzeppelin/contracts/token/ERC20/ERC20.sol\":6008:7115  function _update(address from, address to, uint256 value) internal virtual {... */\ntag_28:\n    /* \"@openzeppelin/contracts/token/ERC20/ERC20.sol\":6113:6114  0 */\n  0x00\n    /* \"@openzeppelin/contracts/token/ERC20/ERC20.sol\":6097:6115  from == address(0) */\n  0xffffffffffffffffffffffffffffffffffffffff\n  and\n    /* \"@openzeppelin/contracts/token/ERC20/ERC20.sol\":6097:6101  from */\n  dup4\n    /* \"@openzeppelin/contracts/token/ERC20/ERC20.sol\":6097:6115  from == address(0) */\n  0xffffffffffffffffffffffffffffffffffffffff\n  and\n  sub\n    /* \"@openzeppelin/contracts/token/ERC20/ERC20.sol\":6093:6633  if (from == address(0)) {... */\n  tag_30\n  jumpi\n    /* \"@openzeppelin/contracts/token/ERC20/ERC20.sol\":6249:6254  value */\n  dup1\n    /* \"@openzeppelin/contracts/token/ERC20/ERC20.sol\":6233:6245  _totalSupply */\n  0x02\n  0x00\n    /* \"@openzeppelin/contracts/token/ERC20/ERC20.sol\":6233:6254  _totalSupply += value */\n  dup3\n  dup3\n  sload\n  tag_31\n  swap2\n  swap1\n  tag_20\n  jump\t// in\ntag_31:\n  swap3\n  pop\n  pop\n  dup2\n  swap1\n  sstore\n  pop\n    /* \"@openzeppelin/contracts/token/ERC20/ERC20.sol\":6093:6633  if (from == address(0)) {... */\n  jump(tag_32)\ntag_30:\n    /* \"@openzeppelin/contracts/token/ERC20/ERC20.sol\":6285:6304  uint256 fromBalance */\n  0x00\n    /* \"@openzeppelin/contracts/token/ERC20/ERC20.sol\":6307:6316  _balances */\n  dup1\n    /* \"@openzeppelin/contracts/token/ERC20/ERC20.sol\":6307:6322  _balances[from] */\n  0x00\n    /* \"@openzeppelin/contracts/token/ERC20/ERC20.sol\":6317:6321  from */\n  dup6\n    /* \"@openzeppelin/contracts/token/ERC20/ERC20.sol\":6307:6322  _balances[from] */\n  0xffffffffffffffffffffffffffffffffffffffff\n  and\n  0xffffffffffffffffffffffffffffffffffffffff\n  and\n  dup2\n  mstore\n  0x20\n  add\n  swap1\n  dup2\n  mstore\n  0x20\n  add\n  0x00\n  keccak256\n  sload\n    /* \"@openzeppelin/contracts/token/ERC20/ERC20.sol\":6285:6322  uint256 fromBalance = _balances[from] */\n  swap1\n  pop\n    /* \"@openzeppelin/contracts/token/ERC20/ERC20.sol\":6354:6359  value */\n  dup2\n    /* \"@openzeppelin/contracts/token/ERC20/ERC20.sol\":6340:6351  fromBalance */\n  dup2\n    /* \"@openzeppelin/contracts/token/ERC20/ERC20.sol\":6340:6359  fromBalance < value */\n  lt\n    /* \"@openzeppelin/contracts/token/ERC20/ERC20.sol\":6336:6451  if (fromBalance < value) {... */\n  iszero\n  tag_33\n  jumpi\n    /* \"@openzeppelin/contracts/token/ERC20/ERC20.sol\":6411:6415  from */\n  dup4\n    /* \"@openzeppelin/contracts/token/ERC20/ERC20.sol\":6417:6428  fromBalance */\n  dup2\n    /* \"@openzeppelin/contracts/token/ERC20/ERC20.sol\":6430:6435  value */\n  dup4\n    /* \"@openzeppelin/contracts/token/ERC20/ERC20.sol\":6386:6436  ERC20InsufficientBalance(from, fromBalance, value) */\n  mload(0x40)\n  0xe450d38c00000000000000000000000000000000000000000000000000000000\n  dup2\n  mstore\n  0x04\n  add\n  tag_34\n  swap4\n  swap3\n  swap2\n  swap1\n  tag_35\n  jump\t// in\ntag_34:\n  mload(0x40)\n  dup1\n  swap2\n  sub\n  swap1\n  revert\n    /* \"@openzeppelin/contracts/token/ERC20/ERC20.sol\":6336:6451  if (fromBalance < value) {... */\ntag_33:\n    /* \"@openzeppelin/contracts/token/ERC20/ERC20.sol\":6603:6608  value */\n  dup2\n    /* \"@openzeppelin/contracts/token/ERC20/ERC20.sol\":6589:6600  fromBalance */\n  dup2\n    /* \"@openzeppelin/contracts/token/ERC20/ERC20.sol\":6589:6608  fromBalance - value */\n  sub\n    /* \"@openzeppelin/contracts/token/ERC20/ERC20.sol\":6571:6580  _balances */\n  0x00\n    /* \"@openzeppelin/contracts/token/ERC20/ERC20.sol\":6571:6586  _balances[from] */\n  dup1\n    /* \"@openzeppelin/contracts/token/ERC20/ERC20.sol\":6581:6585  from */\n  dup7\n    /* \"@openzeppelin/contracts/token/ERC20/ERC20.sol\":6571:6586  _balances[from] */\n  0xffffffffffffffffffffffffffffffffffffffff\n  and\n  0xffffffffffffffffffffffffffffffffffffffff\n  and\n  dup2\n  mstore\n  0x20\n  add\n  swap1\n  dup2\n  mstore\n  0x20\n  add\n  0x00\n  keccak256\n    /* \"@openzeppelin/contracts/token/ERC20/ERC20.sol\":6571:6608  _balances[from] = fromBalance - value */\n  dup2\n  swap1\n  sstore\n  pop\n    /* \"@openzeppelin/contracts/token/ERC20/ERC20.sol\":6271:6633  {... */\n  pop\n    /* \"@openzeppelin/contracts/token/ERC20/ERC20.sol\":6093:6633  if (from == address(0)) {... */\ntag_32:\n    /* \"@openzeppelin/contracts/token/ERC20/ERC20.sol\":6661:6662  0 */\n  0x00\n    /* \"@openzeppelin/contracts/token/ERC20/ERC20.sol\":6647:6663  to == address(0) */\n  0xffffffffffffffffffffffffffffffffffffffff\n  and\n    /* \"@openzeppelin/contracts/token/ERC20/ERC20.sol\":6647:6649  to */\n  dup3\n    /* \"@openzeppelin/contracts/token/ERC20/ERC20.sol\":6647:6663  to == address(0) */\n  0xffffffffffffffffffffffffffffffffffffffff\n  and\n  sub\n    /* \"@openzeppelin/contracts/token/ERC20/ERC20.sol\":6643:7068  if (to == address(0)) {... */\n  tag_36\n  jumpi\n    /* \"@openzeppelin/contracts/token/ERC20/ERC20.sol\":6826:6831  value */\n  dup1\n    /* \"@openzeppelin/contracts/token/ERC20/ERC20.sol\":6810:6822  _totalSupply */\n  0x02\n  0x00\n    /* \"@openzeppelin/contracts/token/ERC20/ERC20.sol\":6810:6831  _totalSupply -= value */\n  dup3\n  dup3\n  sload\n  sub\n  swap3\n  pop\n  pop\n  dup2\n  swap1\n  sstore\n  pop\n    /* \"@openzeppelin/contracts/token/ERC20/ERC20.sol\":6643:7068  if (to == address(0)) {... */\n  jump(tag_37)\ntag_36:\n    /* \"@openzeppelin/contracts/token/ERC20/ERC20.sol\":7038:7043  value */\n  dup1\n    /* \"@openzeppelin/contracts/token/ERC20/ERC20.sol\":7021:7030  _balances */\n  0x00\n    /* \"@openzeppelin/contracts/token/ERC20/ERC20.sol\":7021:7034  _balances[to] */\n  dup1\n    /* \"@openzeppelin/contracts/token/ERC20/ERC20.sol\":7031:7033  to */\n  dup5\n    /* \"@openzeppelin/contracts/token/ERC20/ERC20.sol\":7021:7034  _balances[to] */\n  0xffffffffffffffffffffffffffffffffffffffff\n  and\n  0xffffffffffffffffffffffffffffffffffffffff\n  and\n  dup2\n  mstore\n  0x20\n  add\n  swap1\n  dup2\n  mstore\n  0x20\n  add\n  0x00\n  keccak256\n  0x00\n    /* \"@openzeppelin/contracts/token/ERC20/ERC20.sol\":7021:7043  _balances[to] += value */\n  dup3\n  dup3\n  sload\n  add\n  swap3\n  pop\n  pop\n  dup2\n  swap1\n  sstore\n  pop\n    /* \"@openzeppelin/contracts/token/ERC20/ERC20.sol\":6643:7068  if (to == address(0)) {... */\ntag_37:\n    /* \"@openzeppelin/contracts/token/ERC20/ERC20.sol\":7098:7100  to */\n  dup2\n    /* \"@openzeppelin/contracts/token/ERC20/ERC20.sol\":7083:7108  Transfer(from, to, value) */\n  0xffffffffffffffffffffffffffffffffffffffff\n  and\n    /* \"@openzeppelin/contracts/token/ERC20/ERC20.sol\":7092:7096  from */\n  dup4\n    /* \"@openzeppelin/contracts/token/ERC20/ERC20.sol\":7083:7108  Transfer(from, to, value) */\n  0xffffffffffffffffffffffffffffffffffffffff\n  and\n  0xddf252ad1be2c89b69c2b068fc378daa952ba7f163c4a11628f55a4df523b3ef\n    /* \"@openzeppelin/contracts/token/ERC20/ERC20.sol\":7102:7107  value */\n  dup4\n    /* \"@openzeppelin/contracts/token/ERC20/ERC20.sol\":7083:7108  Transfer(from, to, value) */\n  mload(0x40)\n  tag_38\n  swap2\n  swap1\n  tag_39\n  jump\t// in\ntag_38:\n  mload(0x40)\n  dup1\n  swap2\n  sub\n  swap1\n  log3\n    /* \"@openzeppelin/contracts/token/ERC20/ERC20.sol\":6008:7115  function _update(address from, address to, uint256 value) internal virtual {... */\n  pop\n  pop\n  pop\n  jump\t// out\n    /* \"#utility.yul\":88:205   */\ntag_41:\n    /* \"#utility.yul\":197:198   */\n  0x00\n    /* \"#utility.yul\":194:195   */\n  dup1\n    /* \"#utility.yul\":187:199   */\n  revert\n    /* \"#utility.yul\":334:411   */\ntag_43:\n    /* \"#utility.yul\":371:378   */\n  0x00\n    /* \"#utility.yul\":400:405   */\n  dup2\n    /* \"#utility.yul\":389:405   */\n  swap1\n  pop\n    /* \"#utility.yul\":334:411   */\n  swap2\n  swap1\n  pop\n  jump\t// out\n    /* \"#utility.yul\":417:539   */\ntag_44:\n    /* \"#utility.yul\":490:514   */\n  tag_80\n    /* \"#utility.yul\":508:513   */\n  dup2\n    /* \"#utility.yul\":490:514   */\n  tag_43\n  jump\t// in\ntag_80:\n    /* \"#utility.yul\":483:488   */\n  dup2\n    /* \"#utility.yul\":480:515   */\n  eq\n    /* \"#utility.yul\":470:533   */\n  tag_81\n  jumpi\n    /* \"#utility.yul\":529:530   */\n  0x00\n    /* \"#utility.yul\":526:527   */\n  dup1\n    /* \"#utility.yul\":519:531   */\n  revert\n    /* \"#utility.yul\":470:533   */\ntag_81:\n    /* \"#utility.yul\":417:539   */\n  pop\n  jump\t// out\n    /* \"#utility.yul\":545:688   */\ntag_45:\n    /* \"#utility.yul\":602:607   */\n  0x00\n    /* \"#utility.yul\":633:639   */\n  dup2\n    /* \"#utility.yul\":627:640   */\n  mload\n    /* \"#utility.yul\":618:640   */\n  swap1\n  pop\n    /* \"#utility.yul\":649:682   */\n  tag_83\n    /* \"#utility.yul\":676:681   */\n  dup2\n    /* \"#utility.yul\":649:682   */\n  tag_44\n  jump\t// in\ntag_83:\n    /* \"#utility.yul\":545:688   */\n  swap3\n  swap2\n  pop\n  pop\n  jump\t// out\n    /* \"#utility.yul\":694:1201   */\ntag_3:\n    /* \"#utility.yul\":773:779   */\n  0x00\n    /* \"#utility.yul\":781:787   */\n  dup1\n    /* \"#utility.yul\":830:832   */\n  0x40\n    /* \"#utility.yul\":818:827   */\n  dup4\n    /* \"#utility.yul\":809:816   */\n  dup6\n    /* \"#utility.yul\":805:828   */\n  sub\n    /* \"#utility.yul\":801:833   */\n  slt\n    /* \"#utility.yul\":798:917   */\n  iszero\n  tag_85\n  jumpi\n    /* \"#utility.yul\":836:915   */\n  tag_86\n  tag_41\n  jump\t// in\ntag_86:\n    /* \"#utility.yul\":798:917   */\ntag_85:\n    /* \"#utility.yul\":956:957   */\n  0x00\n    /* \"#utility.yul\":981:1045   */\n  tag_87\n    /* \"#utility.yul\":1037:1044   */\n  dup6\n    /* \"#utility.yul\":1028:1034   */\n  dup3\n    /* \"#utility.yul\":1017:1026   */\n  dup7\n    /* \"#utility.yul\":1013:1035   */\n  add\n    /* \"#utility.yul\":981:1045   */\n  tag_45\n  jump\t// in\ntag_87:\n    /* \"#utility.yul\":971:1045   */\n  swap3\n  pop\n    /* \"#utility.yul\":927:1055   */\n  pop\n    /* \"#utility.yul\":1094:1096   */\n  0x20\n    /* \"#utility.yul\":1120:1184   */\n  tag_88\n    /* \"#utility.yul\":1176:1183   */\n  dup6\n    /* \"#utility.yul\":1167:1173   */\n  dup3\n    /* \"#utility.yul\":1156:1165   */\n  dup7\n    /* \"#utility.yul\":1152:1174   */\n  add\n    /* \"#utility.yul\":1120:1184   */\n  tag_45\n  jump\t// in\ntag_88:\n    /* \"#utility.yul\":1110:1184   */\n  swap2\n  pop\n    /* \"#utility.yul\":1065:1194   */\n  pop\n    /* \"#utility.yul\":694:1201   */\n  swap3\n  pop\n  swap3\n  swap1\n  pop\n  jump\t// out\n    /* \"#utility.yul\":1207:1306   */\ntag_46:\n    /* \"#utility.yul\":1259:1265   */\n  0x00\n    /* \"#utility.yul\":1293:1298   */\n  dup2\n    /* \"#utility.yul\":1287:1299   */\n  mload\n    /* \"#utility.yul\":1277:1299   */\n  swap1\n  pop\n    /* \"#utility.yul\":1207:1306   */\n  swap2\n  swap1\n  pop\n  jump\t// out\n    /* \"#utility.yul\":1312:1492   */\ntag_47:\n    /* \"#utility.yul\":1360:1437   */\n  0x4e487b7100000000000000000000000000000000000000000000000000000000\n    /* \"#utility.yul\":1357:1358   */\n  0x00\n    /* \"#utility.yul\":1350:1438   */\n  mstore\n    /* \"#utility.yul\":1457:1461   */\n  0x41\n    /* \"#utility.yul\":1454:1455   */\n  0x04\n    /* \"#utility.yul\":1447:1462   */\n  mstore\n    /* \"#utility.yul\":1481:1485   */\n  0x24\n    /* \"#utility.yul\":1478:1479   */\n  0x00\n    /* \"#utility.yul\":1471:1486   */\n  revert\n    /* \"#utility.yul\":1498:1678   */\ntag_48:\n    /* \"#utility.yul\":1546:1623   */\n  0x4e487b7100000000000000000000000000000000000000000000000000000000\n    /* \"#utility.yul\":1543:1544   */\n  0x00\n    /* \"#utility.yul\":1536:1624   */\n  mstore\n    /* \"#utility.yul\":1643:1647   */\n  0x22\n    /* \"#utility.yul\":1640:1641   */\n  0x04\n    /* \"#utility.yul\":1633:1648   */\n  mstore\n    /* \"#utility.yul\":1667:1671   */\n  0x24\n    /* \"#utility.yul\":1664:1665   */\n  0x00\n    /* \"#utility.yul\":1657:1672   */\n  revert\n    /* \"#utility.yul\":1684:2004   */\ntag_49:\n    /* \"#utility.yul\":1728:1734   */\n  0x00\n    /* \"#utility.yul\":1765:1766   */\n  0x02\n    /* \"#utility.yul\":1759:1763   */\n  dup3\n    /* \"#utility.yul\":1755:1767   */\n  div\n    /* \"#utility.yul\":1745:1767   */\n  swap1\n  pop\n    /* \"#utility.yul\":1812:1813   */\n  0x01\n    /* \"#utility.yul\":1806:1810   */\n  dup3\n    /* \"#utility.yul\":1802:1814   */\n  and\n    /* \"#utility.yul\":1833:1851   */\n  dup1\n    /* \"#utility.yul\":1823:1904   */\n  tag_93\n  jumpi\n    /* \"#utility.yul\":1889:1893   */\n  0x7f\n    /* \"#utility.yul\":1881:1887   */\n  dup3\n    /* \"#utility.yul\":1877:1894   */\n  and\n    /* \"#utility.yul\":1867:1894   */\n  swap2\n  pop\n    /* \"#utility.yul\":1823:1904   */\ntag_93:\n    /* \"#utility.yul\":1951:1953   */\n  0x20\n    /* \"#utility.yul\":1943:1949   */\n  dup3\n    /* \"#utility.yul\":1940:1954   */\n  lt\n    /* \"#utility.yul\":1920:1938   */\n  dup2\n    /* \"#utility.yul\":1917:1955   */\n  sub\n    /* \"#utility.yul\":1914:1998   */\n  tag_94\n  jumpi\n    /* \"#utility.yul\":1970:1988   */\n  tag_95\n  tag_48\n  jump\t// in\ntag_95:\n    /* \"#utility.yul\":1914:1998   */\ntag_94:\n    /* \"#utility.yul\":1735:2004   */\n  pop\n    /* \"#utility.yul\":1684:2004   */\n  swap2\n  swap1\n  pop\n  jump\t// out\n    /* \"#utility.yul\":2010:2151   */\ntag_50:\n    /* \"#utility.yul\":2059:2063   */\n  0x00\n    /* \"#utility.yul\":2082:2085   */\n  dup2\n    /* \"#utility.yul\":2074:2085   */\n  swap1\n  pop\n    /* \"#utility.yul\":2105:2108   */\n  dup2\n    /* \"#utility.yul\":2102:2103   */\n  0x00\n    /* \"#utility.yul\":2095:2109   */\n  mstore\n    /* \"#utility.yul\":2139:2143   */\n  0x20\n    /* \"#utility.yul\":2136:2137   */\n  0x00\n    /* \"#utility.yul\":2126:2144   */\n  keccak256\n    /* \"#utility.yul\":2118:2144   */\n  swap1\n  pop\n    /* \"#utility.yul\":2010:2151   */\n  swap2\n  swap1\n  pop\n  jump\t// out\n    /* \"#utility.yul\":2157:2250   */\ntag_51:\n    /* \"#utility.yul\":2194:2200   */\n  0x00\n    /* \"#utility.yul\":2241:2243   */\n  0x20\n    /* \"#utility.yul\":2236:2238   */\n  0x1f\n    /* \"#utility.yul\":2229:2234   */\n  dup4\n    /* \"#utility.yul\":2225:2239   */\n  add\n    /* \"#utility.yul\":2221:2244   */\n  div\n    /* \"#utility.yul\":2211:2244   */\n  swap1\n  pop\n    /* \"#utility.yul\":2157:2250   */\n  swap2\n  swap1\n  pop\n  jump\t// out\n    /* \"#utility.yul\":2256:2363   */\ntag_52:\n    /* \"#utility.yul\":2300:2308   */\n  0x00\n    /* \"#utility.yul\":2350:2355   */\n  dup3\n    /* \"#utility.yul\":2344:2348   */\n  dup3\n    /* \"#utility.yul\":2340:2356   */\n  shl\n    /* \"#utility.yul\":2319:2356   */\n  swap1\n  pop\n    /* \"#utility.yul\":2256:2363   */\n  swap3\n  swap2\n  pop\n  pop\n  jump\t// out\n    /* \"#utility.yul\":2369:2762   */\ntag_53:\n    /* \"#utility.yul\":2438:2444   */\n  0x00\n    /* \"#utility.yul\":2488:2489   */\n  0x08\n    /* \"#utility.yul\":2476:2486   */\n  dup4\n    /* \"#utility.yul\":2472:2490   */\n  mul\n    /* \"#utility.yul\":2511:2608   */\n  tag_100\n    /* \"#utility.yul\":2541:2607   */\n  0xffffffffffffffffffffffffffffffffffffffffffffffffffffffffffffffff\n    /* \"#utility.yul\":2530:2539   */\n  dup3\n    /* \"#utility.yul\":2511:2608   */\n  tag_52\n  jump\t// in\ntag_100:\n    /* \"#utility.yul\":2629:2668   */\n  tag_101\n    /* \"#utility.yul\":2659:2667   */\n  dup7\n    /* \"#utility.yul\":2648:2657   */\n  dup4\n    /* \"#utility.yul\":2629:2668   */\n  tag_52\n  jump\t// in\ntag_101:\n    /* \"#utility.yul\":2617:2668   */\n  swap6\n  pop\n    /* \"#utility.yul\":2701:2705   */\n  dup1\n    /* \"#utility.yul\":2697:2706   */\n  not\n    /* \"#utility.yul\":2690:2695   */\n  dup5\n    /* \"#utility.yul\":2686:2707   */\n  and\n    /* \"#utility.yul\":2677:2707   */\n  swap4\n  pop\n    /* \"#utility.yul\":2750:2754   */\n  dup1\n    /* \"#utility.yul\":2740:2748   */\n  dup7\n    /* \"#utility.yul\":2736:2755   */\n  and\n    /* \"#utility.yul\":2729:2734   */\n  dup5\n    /* \"#utility.yul\":2726:2756   */\n  or\n    /* \"#utility.yul\":2716:2756   */\n  swap3\n  pop\n    /* \"#utility.yul\":2445:2762   */\n  pop\n  pop\n    /* \"#utility.yul\":2369:2762   */\n  swap4\n  swap3\n  pop\n  pop\n  pop\n  jump\t// out\n    /* \"#utility.yul\":2768:2828   */\ntag_54:\n    /* \"#utility.yul\":2796:2799   */\n  0x00\n    /* \"#utility.yul\":2817:2822   */\n  dup2\n    /* \"#utility.yul\":2810:2822   */\n  swap1\n  pop\n    /* \"#utility.yul\":2768:2828   */\n  swap2\n  swap1\n  pop\n  jump\t// out\n    /* \"#utility.yul\":2834:2976   */\ntag_55:\n    /* \"#utility.yul\":2884:2893   */\n  0x00\n    /* \"#utility.yul\":2917:2970   */\n  tag_104\n    /* \"#utility.yul\":2935:2969   */\n  tag_105\n    /* \"#utility.yul\":2944:2968   */\n  tag_106\n    /* \"#utility.yul\":2962:2967   */\n  dup5\n    /* \"#utility.yul\":2944:2968   */\n  tag_43\n  jump\t// in\ntag_106:\n    /* \"#utility.yul\":2935:2969   */\n  tag_54\n  jump\t// in\ntag_105:\n    /* \"#utility.yul\":2917:2970   */\n  tag_43\n  jump\t// in\ntag_104:\n    /* \"#utility.yul\":2904:2970   */\n  swap1\n  pop\n    /* \"#utility.yul\":2834:2976   */\n  swap2\n  swap1\n  pop\n  jump\t// out\n    /* \"#utility.yul\":2982:3057   */\ntag_56:\n    /* \"#utility.yul\":3025:3028   */\n  0x00\n    /* \"#utility.yul\":3046:3051   */\n  dup2\n    /* \"#utility.yul\":3039:3051   */\n  swap1\n  pop\n    /* \"#utility.yul\":2982:3057   */\n  swap2\n  swap1\n  pop\n  jump\t// out\n    /* \"#utility.yul\":3063:3332   */\ntag_57:\n    /* \"#utility.yul\":3173:3212   */\n  tag_109\n    /* \"#utility.yul\":3204:3211   */\n  dup4\n    /* \"#utility.yul\":3173:3212   */\n  tag_55\n  jump\t// in\ntag_109:\n    /* \"#utility.yul\":3234:3325   */\n  tag_110\n    /* \"#utility.yul\":3283:3324   */\n  tag_111\n    /* \"#utility.yul\":3307:3323   */\n  dup3\n    /* \"#utility.yul\":3283:3324   */\n  tag_56\n  jump\t// in\ntag_111:\n    /* \"#utility.yul\":3275:3281   */\n  dup5\n    /* \"#utility.yul\":3268:3272   */\n  dup5\n    /* \"#utility.yul\":3262:3273   */\n  sload\n    /* \"#utility.yul\":3234:3325   */\n  tag_53\n  jump\t// in\ntag_110:\n    /* \"#utility.yul\":3228:3232   */\n  dup3\n    /* \"#utility.yul\":3221:3326   */\n  sstore\n    /* \"#utility.yul\":3139:3332   */\n  pop\n    /* \"#utility.yul\":3063:3332   */\n  pop\n  pop\n  pop\n  jump\t// out\n    /* \"#utility.yul\":3338:3411   */\ntag_58:\n    /* \"#utility.yul\":3383:3386   */\n  0x00\n    /* \"#utility.yul\":3338:3411   */\n  swap1\n  jump\t// out\n    /* \"#utility.yul\":3417:3606   */\ntag_59:\n    /* \"#utility.yul\":3494:3526   */\n  tag_114\n  tag_58\n  jump\t// in\ntag_114:\n    /* \"#utility.yul\":3535:3600   */\n  tag_115\n    /* \"#utility.yul\":3593:3599   */\n  dup2\n    /* \"#utility.yul\":3585:3591   */\n  dup5\n    /* \"#utility.yul\":3579:3583   */\n  dup5\n    /* \"#utility.yul\":3535:3600   */\n  tag_57\n  jump\t// in\ntag_115:\n    /* \"#utility.yul\":3470:3606   */\n  pop\n    /* \"#utility.yul\":3417:3606   */\n  pop\n  pop\n  jump\t// out\n    /* \"#utility.yul\":3612:3798   */\ntag_60:\n    /* \"#utility.yul\":3672:3792   */\ntag_117:\n    /* \"#utility.yul\":3689:3692   */\n  dup2\n    /* \"#utility.yul\":3682:3687   */\n  dup2\n    /* \"#utility.yul\":3679:3693   */\n  lt\n    /* \"#utility.yul\":3672:3792   */\n  iszero\n  tag_119\n  jumpi\n    /* \"#utility.yul\":3743:3782   */\n  tag_120\n    /* \"#utility.yul\":3780:3781   */\n  0x00\n    /* \"#utility.yul\":3773:3778   */\n  dup3\n    /* \"#utility.yul\":3743:3782   */\n  tag_59\n  jump\t// in\ntag_120:\n    /* \"#utility.yul\":3716:3717   */\n  0x01\n    /* \"#utility.yul\":3709:3714   */\n  dup2\n    /* \"#utility.yul\":3705:3718   */\n  add\n    /* \"#utility.yul\":3696:3718   */\n  swap1\n  pop\n    /* \"#utility.yul\":3672:3792   */\n  jump(tag_117)\ntag_119:\n    /* \"#utility.yul\":3612:3798   */\n  pop\n  pop\n  jump\t// out\n    /* \"#utility.yul\":3804:4347   */\ntag_61:\n    /* \"#utility.yul\":3905:3907   */\n  0x1f\n    /* \"#utility.yul\":3900:3903   */\n  dup3\n    /* \"#utility.yul\":3897:3908   */\n  gt\n    /* \"#utility.yul\":3894:4340   */\n  iszero\n  tag_122\n  jumpi\n    /* \"#utility.yul\":3939:3977   */\n  tag_123\n    /* \"#utility.yul\":3971:3976   */\n  dup2\n    /* \"#utility.yul\":3939:3977   */\n  tag_50\n  jump\t// in\ntag_123:\n    /* \"#utility.yul\":4023:4052   */\n  tag_124\n    /* \"#utility.yul\":4041:4051   */\n  dup5\n    /* \"#utility.yul\":4023:4052   */\n  tag_51\n  jump\t// in\ntag_124:\n    /* \"#utility.yul\":4013:4021   */\n  dup2\n    /* \"#utility.yul\":4009:4053   */\n  add\n    /* \"#utility.yul\":4206:4208   */\n  0x20\n    /* \"#utility.yul\":4194:4204   */\n  dup6\n    /* \"#utility.yul\":4191:4209   */\n  lt\n    /* \"#utility.yul\":4188:4237   */\n  iszero\n  tag_125\n  jumpi\n    /* \"#utility.yul\":4227:4235   */\n  dup2\n    /* \"#utility.yul\":4212:4235   */\n  swap1\n  pop\n    /* \"#utility.yul\":4188:4237   */\ntag_125:\n    /* \"#utility.yul\":4250:4330   */\n  tag_126\n    /* \"#utility.yul\":4306:4328   */\n  tag_127\n    /* \"#utility.yul\":4324:4327   */\n  dup6\n    /* \"#utility.yul\":4306:4328   */\n  tag_51\n  jump\t// in\ntag_127:\n    /* \"#utility.yul\":4296:4304   */\n  dup4\n    /* \"#utility.yul\":4292:4329   */\n  add\n    /* \"#utility.yul\":4279:4290   */\n  dup3\n    /* \"#utility.yul\":4250:4330   */\n  tag_60\n  jump\t// in\ntag_126:\n    /* \"#utility.yul\":3909:4340   */\n  pop\n  pop\n    /* \"#utility.yul\":3894:4340   */\ntag_122:\n    /* \"#utility.yul\":3804:4347   */\n  pop\n  pop\n  pop\n  jump\t// out\n    /* \"#utility.yul\":4353:4470   */\ntag_62:\n    /* \"#utility.yul\":4407:4415   */\n  0x00\n    /* \"#utility.yul\":4457:4462   */\n  dup3\n    /* \"#utility.yul\":4451:4455   */\n  dup3\n    /* \"#utility.yul\":4447:4463   */\n  shr\n    /* \"#utility.yul\":4426:4463   */\n  swap1\n  pop\n    /* \"#utility.yul\":4353:4470   */\n  swap3\n  swap2\n  pop\n  pop\n  jump\t// out\n    /* \"#utility.yul\":4476:4645   */\ntag_63:\n    /* \"#utility.yul\":4520:4526   */\n  0x00\n    /* \"#utility.yul\":4553:4604   */\n  tag_130\n    /* \"#utility.yul\":4601:4602   */\n  0x00\n    /* \"#utility.yul\":4597:4603   */\n  not\n    /* \"#utility.yul\":4589:4594   */\n  dup5\n    /* \"#utility.yul\":4586:4587   */\n  0x08\n    /* \"#utility.yul\":4582:4595   */\n  mul\n    /* \"#utility.yul\":4553:4604   */\n  tag_62\n  jump\t// in\ntag_130:\n    /* \"#utility.yul\":4549:4605   */\n  not\n    /* \"#utility.yul\":4634:4638   */\n  dup1\n    /* \"#utility.yul\":4628:4632   */\n  dup4\n    /* \"#utility.yul\":4624:4639   */\n  and\n    /* \"#utility.yul\":4614:4639   */\n  swap2\n  pop\n    /* \"#utility.yul\":4527:4645   */\n  pop\n    /* \"#utility.yul\":4476:4645   */\n  swap3\n  swap2\n  pop\n  pop\n  jump\t// out\n    /* \"#utility.yul\":4650:4945   */\ntag_64:\n    /* \"#utility.yul\":4726:4730   */\n  0x00\n    /* \"#utility.yul\":4872:4901   */\n  tag_132\n    /* \"#utility.yul\":4897:4900   */\n  dup4\n    /* \"#utility.yul\":4891:4895   */\n  dup4\n    /* \"#utility.yul\":4872:4901   */\n  tag_63\n  jump\t// in\ntag_132:\n    /* \"#utility.yul\":4864:4901   */\n  swap2\n  pop\n    /* \"#utility.yul\":4934:4937   */\n  dup3\n    /* \"#utility.yul\":4931:4932   */\n  0x02\n    /* \"#utility.yul\":4927:4938   */\n  mul\n    /* \"#utility.yul\":4921:4925   */\n  dup3\n    /* \"#utility.yul\":4918:4939   */\n  or\n    /* \"#utility.yul\":4910:4939   */\n  swap1\n  pop\n    /* \"#utility.yul\":4650:4945   */\n  swap3\n  swap2\n  pop\n  pop\n  jump\t// out\n    /* \"#utility.yul\":4950:6345   */\ntag_8:\n    /* \"#utility.yul\":5067:5104   */\n  tag_134\n    /* \"#utility.yul\":5100:5103   */\n  dup3\n    /* \"#utility.yul\":5067:5104   */\n  tag_46\n  jump\t// in\ntag_134:\n    /* \"#utility.yul\":5169:5187   */\n  0xffffffffffffffff\n    /* \"#utility.yul\":5161:5167   */\n  dup2\n    /* \"#utility.yul\":5158:5188   */\n  gt\n    /* \"#utility.yul\":5155:5211   */\n  iszero\n  tag_135\n  jumpi\n    /* \"#utility.yul\":5191:5209   */\n  tag_136\n  tag_47\n  jump\t// in\ntag_136:\n    /* \"#utility.yul\":5155:5211   */\ntag_135:\n    /* \"#utility.yul\":5235:5273   */\n  tag_137\n    /* \"#utility.yul\":5267:5271   */\n  dup3\n    /* \"#utility.yul\":5261:5272   */\n  sload\n    /* \"#utility.yul\":5235:5273   */\n  tag_49\n  jump\t// in\ntag_137:\n    /* \"#utility.yul\":5320:5387   */\n  tag_138\n    /* \"#utility.yul\":5380:5386   */\n  dup3\n    /* \"#utility.yul\":5372:5378   */\n  dup3\n    /* \"#utility.yul\":5366:5370   */\n  dup6\n    /* \"#utility.yul\":5320:5387   */\n  tag_61\n  jump\t// in\ntag_138:\n    /* \"#utility.yul\":5414:5415   */\n  0x00\n    /* \"#utility.yul\":5438:5442   */\n  0x20\n    /* \"#utility.yul\":5425:5442   */\n  swap1\n  pop\n    /* \"#utility.yul\":5470:5472   */\n  0x1f\n    /* \"#utility.yul\":5462:5468   */\n  dup4\n    /* \"#utility.yul\":5459:5473   */\n  gt\n    /* \"#utility.yul\":5487:5488   */\n  0x01\n    /* \"#utility.yul\":5482:6100   */\n  dup2\n  eq\n  tag_140\n  jumpi\n    /* \"#utility.yul\":6144:6145   */\n  0x00\n    /* \"#utility.yul\":6161:6167   */\n  dup5\n    /* \"#utility.yul\":6158:6235   */\n  iszero\n  tag_141\n  jumpi\n    /* \"#utility.yul\":6210:6219   */\n  dup3\n    /* \"#utility.yul\":6205:6208   */\n  dup8\n    /* \"#utility.yul\":6201:6220   */\n  add\n    /* \"#utility.yul\":6195:6221   */\n  mload\n    /* \"#utility.yul\":6186:6221   */\n  swap1\n  pop\n    /* \"#utility.yul\":6158:6235   */\ntag_141:\n    /* \"#utility.yul\":6261:6328   */\n  tag_142\n    /* \"#utility.yul\":6321:6327   */\n  dup6\n    /* \"#utility.yul\":6314:6319   */\n  dup3\n    /* \"#utility.yul\":6261:6328   */\n  tag_64\n  jump\t// in\ntag_142:\n    /* \"#utility.yul\":6255:6259   */\n  dup7\n    /* \"#utility.yul\":6248:6329   */\n  sstore\n    /* \"#utility.yul\":6117:6339   */\n  pop\n    /* \"#utility.yul\":5452:6339   */\n  jump(tag_139)\n    /* \"#utility.yul\":5482:6100   */\ntag_140:\n    /* \"#utility.yul\":5534:5538   */\n  0x1f\n    /* \"#utility.yul\":5530:5539   */\n  not\n    /* \"#utility.yul\":5522:5528   */\n  dup5\n    /* \"#utility.yul\":5518:5540   */\n  and\n    /* \"#utility.yul\":5568:5605   */\n  tag_143\n    /* \"#utility.yul\":5600:5604   */\n  dup7\n    /* \"#utility.yul\":5568:5605   */\n  tag_50\n  jump\t// in\ntag_143:\n    /* \"#utility.yul\":5627:5628   */\n  0x00\n    /* \"#utility.yul\":5641:5849   */\ntag_144:\n    /* \"#utility.yul\":5655:5662   */\n  dup3\n    /* \"#utility.yul\":5652:5653   */\n  dup2\n    /* \"#utility.yul\":5649:5663   */\n  lt\n    /* \"#utility.yul\":5641:5849   */\n  iszero\n  tag_146\n  jumpi\n    /* \"#utility.yul\":5734:5743   */\n  dup5\n    /* \"#utility.yul\":5729:5732   */\n  dup10\n    /* \"#utility.yul\":5725:5744   */\n  add\n    /* \"#utility.yul\":5719:5745   */\n  mload\n    /* \"#utility.yul\":5711:5717   */\n  dup3\n    /* \"#utility.yul\":5704:5746   */\n  sstore\n    /* \"#utility.yul\":5785:5786   */\n  0x01\n    /* \"#utility.yul\":5777:5783   */\n  dup3\n    /* \"#utility.yul\":5773:5787   */\n  add\n    /* \"#utility.yul\":5763:5787   */\n  swap2\n  pop\n    /* \"#utility.yul\":5832:5834   */\n  0x20\n    /* \"#utility.yul\":5821:5830   */\n  dup6\n    /* \"#utility.yul\":5817:5835   */\n  add\n    /* \"#utility.yul\":5804:5835   */\n  swap5\n  pop\n    /* \"#utility.yul\":5678:5682   */\n  0x20\n    /* \"#utility.yul\":5675:5676   */\n  dup2\n    /* \"#utility.yul\":5671:5683   */\n  add\n    /* \"#utility.yul\":5666:5683   */\n  swap1\n  pop\n    /* \"#utility.yul\":5641:5849   */\n  jump(tag_144)\ntag_146:\n    /* \"#utility.yul\":5877:5883   */\n  dup7\n    /* \"#utility.yul\":5868:5875   */\n  dup4\n    /* \"#utility.yul\":5865:5884   */\n  lt\n    /* \"#utility.yul\":5862:6041   */\n  iszero\n  tag_147\n  jumpi\n    /* \"#utility.yul\":5935:5944   */\n  dup5\n    /* \"#utility.yul\":5930:5933   */\n  dup10\n    /* \"#utility.yul\":5926:5945   */\n  add\n    /* \"#utility.yul\":5920:5946   */\n  mload\n    /* \"#utility.yul\":5978:6026   */\n  tag_148\n    /* \"#utility.yul\":6020:6024   */\n  0x1f\n    /* \"#utility.yul\":6012:6018   */\n  dup10\n    /* \"#utility.yul\":6008:6025   */\n  and\n    /* \"#utility.yul\":5997:6006   */\n  dup3\n    /* \"#utility.yul\":5978:6026   */\n  tag_63\n  jump\t// in\ntag_148:\n    /* \"#utility.yul\":5970:5976   */\n  dup4\n    /* \"#utility.yul\":5963:6027   */\n  sstore\n    /* \"#utility.yul\":5885:6041   */\n  pop\n    /* \"#utility.yul\":5862:6041   */\ntag_147:\n    /* \"#utility.yul\":6087:6088   */\n  0x01\n    /* \"#utility.yul\":6083:6084   */\n  0x02\n    /* \"#utility.yul\":6075:6081   */\n  dup9\n    /* \"#utility.yul\":6071:6085   */\n  mul\n    /* \"#utility.yul\":6067:6089   */\n  add\n    /* \"#utility.yul\":6061:6065   */\n  dup9\n    /* \"#utility.yul\":6054:6090   */\n  sstore\n    /* \"#utility.yul\":5489:6100   */\n  pop\n  pop\n  pop\n    /* \"#utility.yul\":5452:6339   */\ntag_139:\n  pop\n    /* \"#utility.yul\":5042:6345   */\n  pop\n  pop\n  pop\n    /* \"#utility.yul\":4950:6345   */\n  pop\n  pop\n  jump\t// out\n    /* \"#utility.yul\":6351:6531   */\ntag_65:\n    /* \"#utility.yul\":6399:6476   */\n  0x4e487b7100000000000000000000000000000000000000000000000000000000\n    /* \"#utility.yul\":6396:6397   */\n  0x00\n    /* \"#utility.yul\":6389:6477   */\n  mstore\n    /* \"#utility.yul\":6496:6500   */\n  0x11\n    /* \"#utility.yul\":6493:6494   */\n  0x04\n    /* \"#utility.yul\":6486:6501   */\n  mstore\n    /* \"#utility.yul\":6520:6524   */\n  0x24\n    /* \"#utility.yul\":6517:6518   */\n  0x00\n    /* \"#utility.yul\":6510:6525   */\n  revert\n    /* \"#utility.yul\":6537:6639   */\ntag_66:\n    /* \"#utility.yul\":6579:6587   */\n  0x00\n    /* \"#utility.yul\":6626:6631   */\n  dup2\n    /* \"#utility.yul\":6623:6624   */\n  0x01\n    /* \"#utility.yul\":6619:6632   */\n  shr\n    /* \"#utility.yul\":6598:6632   */\n  swap1\n  pop\n    /* \"#utility.yul\":6537:6639   */\n  swap2\n  swap1\n  pop\n  jump\t// out\n    /* \"#utility.yul\":6645:7493   */\ntag_67:\n    /* \"#utility.yul\":6706:6711   */\n  0x00\n    /* \"#utility.yul\":6713:6717   */\n  dup1\n    /* \"#utility.yul\":6737:6743   */\n  dup3\n    /* \"#utility.yul\":6728:6743   */\n  swap2\n  pop\n    /* \"#utility.yul\":6761:6766   */\n  dup4\n    /* \"#utility.yul\":6752:6766   */\n  swap1\n  pop\n    /* \"#utility.yul\":6775:7487   */\ntag_152:\n    /* \"#utility.yul\":6796:6797   */\n  0x01\n    /* \"#utility.yul\":6786:6794   */\n  dup6\n    /* \"#utility.yul\":6783:6798   */\n  gt\n    /* \"#utility.yul\":6775:7487   */\n  iszero\n  tag_154\n  jumpi\n    /* \"#utility.yul\":6891:6895   */\n  dup1\n    /* \"#utility.yul\":6886:6889   */\n  dup7\n    /* \"#utility.yul\":6882:6896   */\n  div\n    /* \"#utility.yul\":6876:6880   */\n  dup2\n    /* \"#utility.yul\":6873:6897   */\n  gt\n    /* \"#utility.yul\":6870:6920   */\n  iszero\n  tag_155\n  jumpi\n    /* \"#utility.yul\":6900:6918   */\n  tag_156\n  tag_65\n  jump\t// in\ntag_156:\n    /* \"#utility.yul\":6870:6920   */\ntag_155:\n    /* \"#utility.yul\":6950:6951   */\n  0x01\n    /* \"#utility.yul\":6940:6948   */\n  dup6\n    /* \"#utility.yul\":6936:6952   */\n  and\n    /* \"#utility.yul\":6933:7384   */\n  iszero\n  tag_157\n  jumpi\n    /* \"#utility.yul\":7365:7369   */\n  dup1\n    /* \"#utility.yul\":7358:7363   */\n  dup3\n    /* \"#utility.yul\":7354:7370   */\n  mul\n    /* \"#utility.yul\":7345:7370   */\n  swap2\n  pop\n    /* \"#utility.yul\":6933:7384   */\ntag_157:\n    /* \"#utility.yul\":7415:7419   */\n  dup1\n    /* \"#utility.yul\":7409:7413   */\n  dup2\n    /* \"#utility.yul\":7405:7420   */\n  mul\n    /* \"#utility.yul\":7397:7420   */\n  swap1\n  pop\n    /* \"#utility.yul\":7445:7477   */\n  tag_158\n    /* \"#utility.yul\":7468:7476   */\n  dup6\n    /* \"#utility.yul\":7445:7477   */\n  tag_66\n  jump\t// in\ntag_158:\n    /* \"#utility.yul\":7433:7477   */\n  swap5\n  pop\n    /* \"#utility.yul\":6775:7487   */\n  jump(tag_152)\ntag_154:\n    /* \"#utility.yul\":6645:7493   */\n  swap5\n  pop\n  swap5\n  swap3\n  pop\n  pop\n  pop\n  jump\t// out\n    /* \"#utility.yul\":7499:8572   */\ntag_68:\n    /* \"#utility.yul\":7553:7558   */\n  0x00\n    /* \"#utility.yul\":7744:7752   */\n  dup3\n    /* \"#utility.yul\":7734:7774   */\n  tag_160\n  jumpi\n    /* \"#utility.yul\":7765:7766   */\n  0x01\n    /* \"#utility.yul\":7756:7766   */\n  swap1\n  pop\n    /* \"#utility.yul\":7767:7772   */\n  jump(tag_159)\n    /* \"#utility.yul\":7734:7774   */\ntag_160:\n    /* \"#utility.yul\":7793:7797   */\n  dup2\n    /* \"#utility.yul\":7783:7819   */\n  tag_161\n  jumpi\n    /* \"#utility.yul\":7810:7811   */\n  0x00\n    /* \"#utility.yul\":7801:7811   */\n  swap1\n  pop\n    /* \"#utility.yul\":7812:7817   */\n  jump(tag_159)\n    /* \"#utility.yul\":7783:7819   */\ntag_161:\n    /* \"#utility.yul\":7879:7883   */\n  dup2\n    /* \"#utility.yul\":7927:7928   */\n  0x01\n    /* \"#utility.yul\":7922:7949   */\n  dup2\n  eq\n  tag_163\n  jumpi\n    /* \"#utility.yul\":7963:7964   */\n  0x02\n    /* \"#utility.yul\":7958:8149   */\n  dup2\n  eq\n  tag_164\n  jumpi\n    /* \"#utility.yul\":7872:8149   */\n  jump(tag_162)\n    /* \"#utility.yul\":7922:7949   */\ntag_163:\n    /* \"#utility.yul\":7940:7941   */\n  0x01\n    /* \"#utility.yul\":7931:7941   */\n  swap2\n  pop\n    /* \"#utility.yul\":7942:7947   */\n  pop\n  jump(tag_159)\n    /* \"#utility.yul\":7958:8149   */\ntag_164:\n    /* \"#utility.yul\":8003:8006   */\n  0xff\n    /* \"#utility.yul\":7993:8001   */\n  dup5\n    /* \"#utility.yul\":7990:8007   */\n  gt\n    /* \"#utility.yul\":7987:8030   */\n  iszero\n  tag_165\n  jumpi\n    /* \"#utility.yul\":8010:8028   */\n  tag_166\n  tag_65\n  jump\t// in\ntag_166:\n    /* \"#utility.yul\":7987:8030   */\ntag_165:\n    /* \"#utility.yul\":8059:8067   */\n  dup4\n    /* \"#utility.yul\":8056:8057   */\n  0x02\n    /* \"#utility.yul\":8052:8068   */\n  exp\n    /* \"#utility.yul\":8043:8068   */\n  swap2\n  pop\n    /* \"#utility.yul\":8094:8097   */\n  dup5\n    /* \"#utility.yul\":8087:8092   */\n  dup3\n    /* \"#utility.yul\":8084:8098   */\n  gt\n    /* \"#utility.yul\":8081:8121   */\n  iszero\n  tag_167\n  jumpi\n    /* \"#utility.yul\":8101:8119   */\n  tag_168\n  tag_65\n  jump\t// in\ntag_168:\n    /* \"#utility.yul\":8081:8121   */\ntag_167:\n    /* \"#utility.yul\":8134:8139   */\n  pop\n  jump(tag_159)\n    /* \"#utility.yul\":7872:8149   */\ntag_162:\n  pop\n    /* \"#utility.yul\":8258:8260   */\n  0x20\n    /* \"#utility.yul\":8248:8256   */\n  dup4\n    /* \"#utility.yul\":8245:8261   */\n  lt\n    /* \"#utility.yul\":8239:8242   */\n  0x0133\n    /* \"#utility.yul\":8233:8237   */\n  dup4\n    /* \"#utility.yul\":8230:8243   */\n  lt\n    /* \"#utility.yul\":8226:8262   */\n  and\n    /* \"#utility.yul\":8208:8210   */\n  0x4e\n    /* \"#utility.yul\":8198:8206   */\n  dup5\n    /* \"#utility.yul\":8195:8211   */\n  lt\n    /* \"#utility.yul\":8190:8192   */\n  0x0b\n    /* \"#utility.yul\":8184:8188   */\n  dup5\n    /* \"#utility.yul\":8181:8193   */\n  lt\n    /* \"#utility.yul\":8177:8212   */\n  and\n    /* \"#utility.yul\":8161:8272   */\n  or\n    /* \"#utility.yul\":8158:8404   */\n  iszero\n  tag_169\n  jumpi\n    /* \"#utility.yul\":8314:8322   */\n  dup3\n    /* \"#utility.yul\":8308:8312   */\n  dup3\n    /* \"#utility.yul\":8304:8323   */\n  exp\n    /* \"#utility.yul\":8295:8323   */\n  swap1\n  pop\n    /* \"#utility.yul\":8349:8352   */\n  dup4\n    /* \"#utility.yul\":8342:8347   */\n  dup2\n    /* \"#utility.yul\":8339:8353   */\n  gt\n    /* \"#utility.yul\":8336:8376   */\n  iszero\n  tag_170\n  jumpi\n    /* \"#utility.yul\":8356:8374   */\n  tag_171\n  tag_65\n  jump\t// in\ntag_171:\n    /* \"#utility.yul\":8336:8376   */\ntag_170:\n    /* \"#utility.yul\":8389:8394   */\n  jump(tag_159)\n    /* \"#utility.yul\":8158:8404   */\ntag_169:\n    /* \"#utility.yul\":8429:8471   */\n  tag_172\n    /* \"#utility.yul\":8467:8470   */\n  dup5\n    /* \"#utility.yul\":8457:8465   */\n  dup5\n    /* \"#utility.yul\":8451:8455   */\n  dup5\n    /* \"#utility.yul\":8448:8449   */\n  0x01\n    /* \"#utility.yul\":8429:8471   */\n  tag_67\n  jump\t// in\ntag_172:\n    /* \"#utility.yul\":8414:8471   */\n  swap3\n  pop\n  swap1\n  pop\n    /* \"#utility.yul\":8503:8507   */\n  dup2\n    /* \"#utility.yul\":8498:8501   */\n  dup5\n    /* \"#utility.yul\":8494:8508   */\n  div\n    /* \"#utility.yul\":8487:8492   */\n  dup2\n    /* \"#utility.yul\":8484:8509   */\n  gt\n    /* \"#utility.yul\":8481:8532   */\n  iszero\n  tag_173\n  jumpi\n    /* \"#utility.yul\":8512:8530   */\n  tag_174\n  tag_65\n  jump\t// in\ntag_174:\n    /* \"#utility.yul\":8481:8532   */\ntag_173:\n    /* \"#utility.yul\":8561:8565   */\n  dup2\n    /* \"#utility.yul\":8554:8559   */\n  dup2\n    /* \"#utility.yul\":8550:8566   */\n  mul\n    /* \"#utility.yul\":8541:8566   */\n  swap1\n  pop\n    /* \"#utility.yul\":7499:8572   */\ntag_159:\n  swap4\n  swap3\n  pop\n  pop\n  pop\n  jump\t// out\n    /* \"#utility.yul\":8578:8664   */\ntag_69:\n    /* \"#utility.yul\":8613:8620   */\n  0x00\n    /* \"#utility.yul\":8653:8657   */\n  0xff\n    /* \"#utility.yul\":8646:8651   */\n  dup3\n    /* \"#utility.yul\":8642:8658   */\n  and\n    /* \"#utility.yul\":8631:8658   */\n  swap1\n  pop\n    /* \"#utility.yul\":8578:8664   */\n  swap2\n  swap1\n  pop\n  jump\t// out\n    /* \"#utility.yul\":8670:8951   */\ntag_15:\n    /* \"#utility.yul\":8728:8733   */\n  0x00\n    /* \"#utility.yul\":8752:8775   */\n  tag_177\n    /* \"#utility.yul\":8770:8774   */\n  dup3\n    /* \"#utility.yul\":8752:8775   */\n  tag_43\n  jump\t// in\ntag_177:\n    /* \"#utility.yul\":8744:8775   */\n  swap2\n  pop\n    /* \"#utility.yul\":8796:8821   */\n  tag_178\n    /* \"#utility.yul\":8812:8820   */\n  dup4\n    /* \"#utility.yul\":8796:8821   */\n  tag_69\n  jump\t// in\ntag_178:\n    /* \"#utility.yul\":8784:8821   */\n  swap3\n  pop\n    /* \"#utility.yul\":8840:8944   */\n  tag_179\n    /* \"#utility.yul\":8877:8943   */\n  0xffffffffffffffffffffffffffffffffffffffffffffffffffffffffffffffff\n    /* \"#utility.yul\":8867:8875   */\n  dup5\n    /* \"#utility.yul\":8861:8865   */\n  dup5\n    /* \"#utility.yul\":8840:8944   */\n  tag_68\n  jump\t// in\ntag_179:\n    /* \"#utility.yul\":8831:8944   */\n  swap1\n  pop\n    /* \"#utility.yul\":8670:8951   */\n  swap3\n  swap2\n  pop\n  pop\n  jump\t// out\n    /* \"#utility.yul\":8957:9367   */\ntag_17:\n    /* \"#utility.yul\":8997:9004   */\n  0x00\n    /* \"#utility.yul\":9020:9040   */\n  tag_181\n    /* \"#utility.yul\":9038:9039   */\n  dup3\n    /* \"#utility.yul\":9020:9040   */\n  tag_43\n  jump\t// in\ntag_181:\n    /* \"#utility.yul\":9015:9040   */\n  swap2\n  pop\n    /* \"#utility.yul\":9054:9074   */\n  tag_182\n    /* \"#utility.yul\":9072:9073   */\n  dup4\n    /* \"#utility.yul\":9054:9074   */\n  tag_43\n  jump\t// in\ntag_182:\n    /* \"#utility.yul\":9049:9074   */\n  swap3\n  pop\n    /* \"#utility.yul\":9109:9110   */\n  dup3\n    /* \"#utility.yul\":9106:9107   */\n  dup3\n    /* \"#utility.yul\":9102:9111   */\n  mul\n    /* \"#utility.yul\":9131:9161   */\n  tag_183\n    /* \"#utility.yul\":9149:9160   */\n  dup2\n    /* \"#utility.yul\":9131:9161   */\n  tag_43\n  jump\t// in\ntag_183:\n    /* \"#utility.yul\":9120:9161   */\n  swap2\n  pop\n    /* \"#utility.yul\":9310:9311   */\n  dup3\n    /* \"#utility.yul\":9301:9308   */\n  dup3\n    /* \"#utility.yul\":9297:9312   */\n  div\n    /* \"#utility.yul\":9294:9295   */\n  dup5\n    /* \"#utility.yul\":9291:9313   */\n  eq\n    /* \"#utility.yul\":9271:9272   */\n  dup4\n    /* \"#utility.yul\":9264:9273   */\n  iszero\n    /* \"#utility.yul\":9244:9327   */\n  or\n    /* \"#utility.yul\":9221:9360   */\n  tag_184\n  jumpi\n    /* \"#utility.yul\":9340:9358   */\n  tag_185\n  tag_65\n  jump\t// in\ntag_185:\n    /* \"#utility.yul\":9221:9360   */\ntag_184:\n    /* \"#utility.yul\":9005:9367   */\n  pop\n    /* \"#utility.yul\":8957:9367   */\n  swap3\n  swap2\n  pop\n  pop\n  jump\t// out\n    /* \"#utility.yul\":9373:9564   */\ntag_20:\n    /* \"#utility.yul\":9413:9416   */\n  0x00\n    /* \"#utility.yul\":9432:9452   */\n  tag_187\n    /* \"#utility.yul\":9450:9451   */\n  dup3\n    /* \"#utility.yul\":9432:9452   */\n  tag_43\n  jump\t// in\ntag_187:\n    /* \"#utility.yul\":9427:9452   */\n  swap2\n  pop\n    /* \"#utility.yul\":9466:9486   */\n  tag_188\n    /* \"#utility.yul\":9484:9485   */\n  dup4\n    /* \"#utility.yul\":9466:9486   */\n  tag_43\n  jump\t// in\ntag_188:\n    /* \"#utility.yul\":9461:9486   */\n  swap3\n  pop\n    /* \"#utility.yul\":9509:9510   */\n  dup3\n    /* \"#utility.yul\":9506:9507   */\n  dup3\n    /* \"#utility.yul\":9502:9511   */\n  add\n    /* \"#utility.yul\":9495:9511   */\n  swap1\n  pop\n    /* \"#utility.yul\":9530:9533   */\n  dup1\n    /* \"#utility.yul\":9527:9528   */\n  dup3\n    /* \"#utility.yul\":9524:9534   */\n  gt\n    /* \"#utility.yul\":9521:9557   */\n  iszero\n  tag_189\n  jumpi\n    /* \"#utility.yul\":9537:9555   */\n  tag_190\n  tag_65\n  jump\t// in\ntag_190:\n    /* \"#utility.yul\":9521:9557   */\ntag_189:\n    /* \"#utility.yul\":9373:9564   */\n  swap3\n  swap2\n  pop\n  pop\n  jump\t// out\n    /* \"#utility.yul\":9570:9696   */\ntag_70:\n    /* \"#utility.yul\":9607:9614   */\n  0x00\n    /* \"#utility.yul\":9647:9689   */\n  0xffffffffffffffffffffffffffffffffffffffff\n    /* \"#utility.yul\":9640:9645   */\n  dup3\n    /* \"#utility.yul\":9636:9690   */\n  and\n    /* \"#utility.yul\":9625:9690   */\n  swap1\n  pop\n    /* \"#utility.yul\":9570:9696   */\n  swap2\n  swap1\n  pop\n  jump\t// out\n    /* \"#utility.yul\":9702:9798   */\ntag_71:\n    /* \"#utility.yul\":9739:9746   */\n  0x00\n    /* \"#utility.yul\":9768:9792   */\n  tag_193\n    /* \"#utility.yul\":9786:9791   */\n  dup3\n    /* \"#utility.yul\":9768:9792   */\n  tag_70\n  jump\t// in\ntag_193:\n    /* \"#utility.yul\":9757:9792   */\n  swap1\n  pop\n    /* \"#utility.yul\":9702:9798   */\n  swap2\n  swap1\n  pop\n  jump\t// out\n    /* \"#utility.yul\":9804:9922   */\ntag_72:\n    /* \"#utility.yul\":9891:9915   */\n  tag_195\n    /* \"#utility.yul\":9909:9914   */\n  dup2\n    /* \"#utility.yul\":9891:9915   */\n  tag_71\n  jump\t// in\ntag_195:\n    /* \"#utility.yul\":9886:9889   */\n  dup3\n    /* \"#utility.yul\":9879:9916   */\n  mstore\n    /* \"#utility.yul\":9804:9922   */\n  pop\n  pop\n  jump\t// out\n    /* \"#utility.yul\":9928:10150   */\ntag_26:\n    /* \"#utility.yul\":10021:10025   */\n  0x00\n    /* \"#utility.yul\":10059:10061   */\n  0x20\n    /* \"#utility.yul\":10048:10057   */\n  dup3\n    /* \"#utility.yul\":10044:10062   */\n  add\n    /* \"#utility.yul\":10036:10062   */\n  swap1\n  pop\n    /* \"#utility.yul\":10072:10143   */\n  tag_197\n    /* \"#utility.yul\":10140:10141   */\n  0x00\n    /* \"#utility.yul\":10129:10138   */\n  dup4\n    /* \"#utility.yul\":10125:10142   */\n  add\n    /* \"#utility.yul\":10116:10122   */\n  dup5\n    /* \"#utility.yul\":10072:10143   */\n  tag_72\n  jump\t// in\ntag_197:\n    /* \"#utility.yul\":9928:10150   */\n  swap3\n  swap2\n  pop\n  pop\n  jump\t// out\n    /* \"#utility.yul\":10156:10274   */\ntag_73:\n    /* \"#utility.yul\":10243:10267   */\n  tag_199\n    /* \"#utility.yul\":10261:10266   */\n  dup2\n    /* \"#utility.yul\":10243:10267   */\n  tag_43\n  jump\t// in\ntag_199:\n    /* \"#utility.yul\":10238:10241   */\n  dup3\n    /* \"#utility.yul\":10231:10268   */\n  mstore\n    /* \"#utility.yul\":10156:10274   */\n  pop\n  pop\n  jump\t// out\n    /* \"#utility.yul\":10280:10722   */\ntag_35:\n    /* \"#utility.yul\":10429:10433   */\n  0x00\n    /* \"#utility.yul\":10467:10469   */\n  0x60\n    /* \"#utility.yul\":10456:10465   */\n  dup3\n    /* \"#utility.yul\":10452:10470   */\n  add\n    /* \"#utility.yul\":10444:10470   */\n  swap1\n  pop\n    /* \"#utility.yul\":10480:10551   */\n  tag_201\n    /* \"#utility.yul\":10548:10549   */\n  0x00\n    /* \"#utility.yul\":10537:10546   */\n  dup4\n    /* \"#utility.yul\":10533:10550   */\n  add\n    /* \"#utility.yul\":10524:10530   */\n  dup7\n    /* \"#utility.yul\":10480:10551   */\n  tag_72\n  jump\t// in\ntag_201:\n    /* \"#utility.yul\":10561:10633   */\n  tag_202\n    /* \"#utility.yul\":10629:10631   */\n  0x20\n    /* \"#utility.yul\":10618:10627   */\n  dup4\n    /* \"#utility.yul\":10614:10632   */\n  add\n    /* \"#utility.yul\":10605:10611   */\n  dup6\n    /* \"#utility.yul\":10561:10633   */\n  tag_73\n  jump\t// in\ntag_202:\n    /* \"#utility.yul\":10643:10715   */\n  tag_203\n    /* \"#utility.yul\":10711:10713   */\n  0x40\n    /* \"#utility.yul\":10700:10709   */\n  dup4\n    /* \"#utility.yul\":10696:10714   */\n  add\n    /* \"#utility.yul\":10687:10693   */\n  dup5\n    /* \"#utility.yul\":10643:10715   */\n  tag_73\n  jump\t// in\ntag_203:\n    /* \"#utility.yul\":10280:10722   */\n  swap5\n  swap4\n  pop\n  pop\n  pop\n  pop\n  jump\t// out\n    /* \"#utility.yul\":10728:10950   */\ntag_39:\n    /* \"#utility.yul\":10821:10825   */\n  0x00\n    /* \"#utility.yul\":10859:10861   */\n  0x20\n    /* \"#utility.yul\":10848:10857   */\n  dup3\n    /* \"#utility.yul\":10844:10862   */\n  add\n    /* \"#utility.yul\":10836:10862   */\n  swap1\n  pop\n    /* \"#utility.yul\":10872:10943   */\n  tag_205\n    /* \"#utility.yul\":10940:10941   */\n  0x00\n    /* \"#utility.yul\":10929:10938   */\n  dup4\n    /* \"#utility.yul\":10925:10942   */\n  add\n    /* \"#utility.yul\":10916:10922   */\n  dup5\n    /* \"#utility.yul\":10872:10943   */\n  tag_73\n  jump\t// in\ntag_205:\n    /* \"#utility.yul\":10728:10950   */\n  swap3\n  swap2\n  pop\n  pop\n  jump\t// out\n    /* \"contracts/ERC20/TimeLock.sol\":119:1277  contract TimeLockedToken is ERC20 {... */\ntag_21:\n  dataSize(sub_0)\n  dup1\n  dataOffset(sub_0)\n  0x00\n  codecopy\n  0x00\n  return\nstop\n\nsub_0: assembly {\n        /* \"contracts/ERC20/TimeLock.sol\":119:1277  contract TimeLockedToken is ERC20 {... */\n      mstore(0x40, 0x80)\n      callvalue\n      dup1\n      iszero\n      tag_1\n      jumpi\n      0x00\n      dup1\n      revert\n    tag_1:\n      pop\n      jumpi(tag_2, lt(calldatasize, 0x04))\n      shr(0xe0, calldataload(0x00))\n      dup1\n      0x313ce567\n      gt\n      tag_13\n      jumpi\n      dup1\n      0x313ce567\n      eq\n      tag_8\n      jumpi\n      dup1\n      0x70a08231\n      eq\n      tag_9\n      jumpi\n      dup1\n      0x95d89b41\n      eq\n      tag_10\n      jumpi\n      dup1\n      0xa9059cbb\n      eq\n      tag_11\n      jumpi\n      dup1\n      0xdd62ed3e\n      eq\n      tag_12\n      jumpi\n      jump(tag_2)\n    tag_13:\n      dup1\n      0x06fdde03\n      eq\n      tag_3\n      jumpi\n      dup1\n      0x095ea7b3\n      eq\n      tag_4\n      jumpi\n      dup1\n      0x18160ddd\n      eq\n      tag_5\n      jumpi\n      dup1\n      0x23b872dd\n      eq\n      tag_6\n      jumpi\n      dup1\n      0x251c1aa3\n      eq\n      tag_7\n      jumpi\n    tag_2:\n      0x00\n      dup1\n      revert\n        /* \"@openzeppelin/contracts/token/ERC20/ERC20.sol\":1779:1868  function name() public view virtual returns (string memory) {... */\n    tag_3:\n      tag_14\n      tag_15\n      jump\t// in\n    tag_14:\n      mload(0x40)\n      tag_16\n      swap2\n      swap1\n      tag_17\n      jump\t// in\n    tag_16:\n      mload(0x40)\n      dup1\n      swap2\n      sub\n      swap1\n      return\n        /* \"@openzeppelin/contracts/token/ERC20/ERC20.sol\":3998:4184  function approve(address spender, uint256 value) public virtual returns (bool) {... */\n    tag_4:\n      tag_18\n      0x04\n      dup1\n      calldatasize\n      sub\n      dup2\n      add\n      swap1\n      tag_19\n      swap2\n      swap1\n      tag_20\n      jump\t// in\n    tag_19:\n      tag_21\n      jump\t// in\n    tag_18:\n      mload(0x40)\n      tag_22\n      swap2\n      swap1\n      tag_23\n      jump\t// in\n    tag_22:\n      mload(0x40)\n      dup1\n      swap2\n      sub\n      swap1\n      return\n        /* \"@openzeppelin/contracts/token/ERC20/ERC20.sol\":2849:2946  function totalSupply() public view virtual returns (uint256) {... */\n    tag_5:\n      tag_24\n      tag_25\n      jump\t// in\n    tag_24:\n      mload(0x40)\n      tag_26\n      swap2\n      swap1\n      tag_27\n      jump\t// in\n    tag_26:\n      mload(0x40)\n      dup1\n      swap2\n      sub\n      swap1\n      return\n        /* \"contracts/ERC20/TimeLock.sol\":996:1274  function transferFrom(address sender, address recipient, uint256 amount) public override returns (bool) {... */\n    tag_6:\n      tag_28\n      0x04\n      dup1\n      calldatasize\n      sub\n      dup2\n      add\n      swap1\n      tag_29\n      swap2\n      swap1\n      tag_30\n      jump\t// in\n    tag_29:\n      tag_31\n      jump\t// in\n    tag_28:\n      mload(0x40)\n      tag_32\n      swap2\n      swap1\n      tag_23\n      jump\t// in\n    tag_32:\n      mload(0x40)\n      dup1\n      swap2\n      sub\n      swap1\n      return\n        /* \"contracts/ERC20/TimeLock.sol\":160:185  uint256 public unlockTime */\n    tag_7:\n      tag_33\n      tag_34\n      jump\t// in\n    tag_33:\n      mload(0x40)\n      tag_35\n      swap2\n      swap1\n      tag_27\n      jump\t// in\n    tag_35:\n      mload(0x40)\n      dup1\n      swap2\n      sub\n      swap1\n      return\n        /* \"@openzeppelin/contracts/token/ERC20/ERC20.sol\":2707:2789  function decimals() public view virtual returns (uint8) {... */\n    tag_8:\n      tag_36\n      tag_37\n      jump\t// in\n    tag_36:\n      mload(0x40)\n      tag_38\n      swap2\n      swap1\n      tag_39\n      jump\t// in\n    tag_38:\n      mload(0x40)\n      dup1\n      swap2\n      sub\n      swap1\n      return\n        /* \"@openzeppelin/contracts/token/ERC20/ERC20.sol\":3004:3120  function balanceOf(address account) public view virtual returns (uint256) {... */\n    tag_9:\n      tag_40\n      0x04\n      dup1\n      calldatasize\n      sub\n      dup2\n      add\n      swap1\n      tag_41\n      swap2\n      swap1\n      tag_42\n      jump\t// in\n    tag_41:\n      tag_43\n      jump\t// in\n    tag_40:\n      mload(0x40)\n      tag_44\n      swap2\n      swap1\n      tag_27\n      jump\t// in\n    tag_44:\n      mload(0x40)\n      dup1\n      swap2\n      sub\n      swap1\n      return\n        /* \"@openzeppelin/contracts/token/ERC20/ERC20.sol\":1981:2074  function symbol() public view virtual returns (string memory) {... */\n    tag_10:\n      tag_45\n      tag_46\n      jump\t// in\n    tag_45:\n      mload(0x40)\n      tag_47\n      swap2\n      swap1\n      tag_17\n      jump\t// in\n    tag_47:\n      mload(0x40)\n      dup1\n      swap2\n      sub\n      swap1\n      return\n        /* \"contracts/ERC20/TimeLock.sol\":679:925  function transfer(address recipient, uint256 amount) public override returns (bool) {... */\n    tag_11:\n      tag_48\n      0x04\n      dup1\n      calldatasize\n      sub\n      dup2\n      add\n      swap1\n      tag_49\n      swap2\n      swap1\n      tag_20\n      jump\t// in\n    tag_49:\n      tag_50\n      jump\t// in\n    tag_48:\n      mload(0x40)\n      tag_51\n      swap2\n      swap1\n      tag_23\n      jump\t// in\n    tag_51:\n      mload(0x40)\n      dup1\n      swap2\n      sub\n      swap1\n      return\n        /* \"@openzeppelin/contracts/token/ERC20/ERC20.sol\":3551:3691  function allowance(address owner, address spender) public view virtual returns (uint256) {... */\n    tag_12:\n      tag_52\n      0x04\n      dup1\n      calldatasize\n      sub\n      dup2\n      add\n      swap1\n      tag_53\n      swap2\n      swap1\n      tag_54\n      jump\t// in\n    tag_53:\n      tag_55\n      jump\t// in\n    tag_52:\n      mload(0x40)\n      tag_56\n      swap2\n      swap1\n      tag_27\n      jump\t// in\n    tag_56:\n      mload(0x40)\n      dup1\n      swap2\n      sub\n      swap1\n      return\n        /* \"@openzeppelin/contracts/token/ERC20/ERC20.sol\":1779:1868  function name() public view virtual returns (string memory) {... */\n    tag_15:\n        /* \"@openzeppelin/contracts/token/ERC20/ERC20.sol\":1824:1837  string memory */\n      0x60\n        /* \"@openzeppelin/contracts/token/ERC20/ERC20.sol\":1856:1861  _name */\n      0x03\n        /* \"@openzeppelin/contracts/token/ERC20/ERC20.sol\":1849:1861  return _name */\n      dup1\n      sload\n      tag_58\n      swap1\n      tag_59\n      jump\t// in\n    tag_58:\n      dup1\n      0x1f\n      add\n      0x20\n      dup1\n      swap2\n      div\n      mul\n      0x20\n      add\n      mload(0x40)\n      swap1\n      dup2\n      add\n      0x40\n      mstore\n      dup1\n      swap3\n      swap2\n      swap1\n      dup2\n      dup2\n      mstore\n      0x20\n      add\n      dup3\n      dup1\n      sload\n      tag_60\n      swap1\n      tag_59\n      jump\t// in\n    tag_60:\n      dup1\n      iszero\n      tag_61\n      jumpi\n      dup1\n      0x1f\n      lt\n      tag_62\n      jumpi\n      0x0100\n      dup1\n      dup4\n      sload\n      div\n      mul\n      dup4\n      mstore\n      swap2\n      0x20\n      add\n      swap2\n      jump(tag_61)\n    tag_62:\n      dup3\n      add\n      swap2\n      swap1\n      0x00\n      mstore\n      keccak256(0x00, 0x20)\n      swap1\n    tag_63:\n      dup2\n      sload\n      dup2\n      mstore\n      swap1\n      0x01\n      add\n      swap1\n      0x20\n      add\n      dup1\n      dup4\n      gt\n      tag_63\n      jumpi\n      dup3\n      swap1\n      sub\n      0x1f\n      and\n      dup3\n      add\n      swap2\n    tag_61:\n      pop\n      pop\n      pop\n      pop\n      pop\n      swap1\n      pop\n        /* \"@openzeppelin/contracts/token/ERC20/ERC20.sol\":1779:1868  function name() public view virtual returns (string memory) {... */\n      swap1\n      jump\t// out\n        /* \"@openzeppelin/contracts/token/ERC20/ERC20.sol\":3998:4184  function approve(address spender, uint256 value) public virtual returns (bool) {... */\n    tag_21:\n        /* \"@openzeppelin/contracts/token/ERC20/ERC20.sol\":4071:4075  bool */\n      0x00\n        /* \"@openzeppelin/contracts/token/ERC20/ERC20.sol\":4087:4100  address owner */\n      dup1\n        /* \"@openzeppelin/contracts/token/ERC20/ERC20.sol\":4103:4115  _msgSender() */\n      tag_65\n        /* \"@openzeppelin/contracts/token/ERC20/ERC20.sol\":4103:4113  _msgSender */\n      tag_66\n        /* \"@openzeppelin/contracts/token/ERC20/ERC20.sol\":4103:4115  _msgSender() */\n      jump\t// in\n    tag_65:\n        /* \"@openzeppelin/contracts/token/ERC20/ERC20.sol\":4087:4115  address owner = _msgSender() */\n      swap1\n      pop\n        /* \"@openzeppelin/contracts/token/ERC20/ERC20.sol\":4125:4156  _approve(owner, spender, value) */\n      tag_67\n        /* \"@openzeppelin/contracts/token/ERC20/ERC20.sol\":4134:4139  owner */\n      dup2\n        /* \"@openzeppelin/contracts/token/ERC20/ERC20.sol\":4141:4148  spender */\n      dup6\n        /* \"@openzeppelin/contracts/token/ERC20/ERC20.sol\":4150:4155  value */\n      dup6\n        /* \"@openzeppelin/contracts/token/ERC20/ERC20.sol\":4125:4133  _approve */\n      tag_68\n        /* \"@openzeppelin/contracts/token/ERC20/ERC20.sol\":4125:4156  _approve(owner, spender, value) */\n      jump\t// in\n    tag_67:\n        /* \"@openzeppelin/contracts/token/ERC20/ERC20.sol\":4173:4177  true */\n      0x01\n        /* \"@openzeppelin/contracts/token/ERC20/ERC20.sol\":4166:4177  return true */\n      swap2\n      pop\n      pop\n        /* \"@openzeppelin/contracts/token/ERC20/ERC20.sol\":3998:4184  function approve(address spender, uint256 value) public virtual returns (bool) {... */\n      swap3\n      swap2\n      pop\n      pop\n      jump\t// out\n        /* \"@openzeppelin/contracts/token/ERC20/ERC20.sol\":2849:2946  function totalSupply() public view virtual returns (uint256) {... */\n    tag_25:\n        /* \"@openzeppelin/contracts/token/ERC20/ERC20.sol\":2901:2908  uint256 */\n      0x00\n        /* \"@openzeppelin/contracts/token/ERC20/ERC20.sol\":2927:2939  _totalSupply */\n      sload(0x02)\n        /* \"@openzeppelin/contracts/token/ERC20/ERC20.sol\":2920:2939  return _totalSupply */\n      swap1\n      pop\n        /* \"@openzeppelin/contracts/token/ERC20/ERC20.sol\":2849:2946  function totalSupply() public view virtual returns (uint256) {... */\n      swap1\n      jump\t// out\n        /* \"contracts/ERC20/TimeLock.sol\":996:1274  function transferFrom(address sender, address recipient, uint256 amount) public override returns (bool) {... */\n    tag_31:\n        /* \"contracts/ERC20/TimeLock.sol\":1094:1098  bool */\n      0x00\n        /* \"contracts/ERC20/TimeLock.sol\":1138:1148  unlockTime */\n      sload(0x05)\n        /* \"contracts/ERC20/TimeLock.sol\":1119:1134  block.timestamp */\n      timestamp\n        /* \"contracts/ERC20/TimeLock.sol\":1119:1148  block.timestamp >= unlockTime */\n      lt\n      iszero\n        /* \"contracts/ERC20/TimeLock.sol\":1111:1203  require(block.timestamp >= unlockTime, \"Tokens are locked until the unlock time has passed\") */\n      tag_71\n      jumpi\n      mload(0x40)\n      0x08c379a000000000000000000000000000000000000000000000000000000000\n      dup2\n      mstore\n      0x04\n      add\n      tag_72\n      swap1\n      tag_73\n      jump\t// in\n    tag_72:\n      mload(0x40)\n      dup1\n      swap2\n      sub\n      swap1\n      revert\n    tag_71:\n        /* \"contracts/ERC20/TimeLock.sol\":1221:1266  super.transferFrom(sender, recipient, amount) */\n      tag_74\n        /* \"contracts/ERC20/TimeLock.sol\":1240:1246  sender */\n      dup5\n        /* \"contracts/ERC20/TimeLock.sol\":1248:1257  recipient */\n      dup5\n        /* \"contracts/ERC20/TimeLock.sol\":1259:1265  amount */\n      dup5\n        /* \"contracts/ERC20/TimeLock.sol\":1221:1239  super.transferFrom */\n      tag_75\n        /* \"contracts/ERC20/TimeLock.sol\":1221:1266  super.transferFrom(sender, recipient, amount) */\n      jump\t// in\n    tag_74:\n        /* \"contracts/ERC20/TimeLock.sol\":1214:1266  return super.transferFrom(sender, recipient, amount) */\n      swap1\n      pop\n        /* \"contracts/ERC20/TimeLock.sol\":996:1274  function transferFrom(address sender, address recipient, uint256 amount) public override returns (bool) {... */\n      swap4\n      swap3\n      pop\n      pop\n      pop\n      jump\t// out\n        /* \"contracts/ERC20/TimeLock.sol\":160:185  uint256 public unlockTime */\n    tag_34:\n      sload(0x05)\n      dup2\n      jump\t// out\n        /* \"@openzeppelin/contracts/token/ERC20/ERC20.sol\":2707:2789  function decimals() public view virtual returns (uint8) {... */\n    tag_37:\n        /* \"@openzeppelin/contracts/token/ERC20/ERC20.sol\":2756:2761  uint8 */\n      0x00\n        /* \"@openzeppelin/contracts/token/ERC20/ERC20.sol\":2780:2782  18 */\n      0x12\n        /* \"@openzeppelin/contracts/token/ERC20/ERC20.sol\":2773:2782  return 18 */\n      swap1\n      pop\n        /* \"@openzeppelin/contracts/token/ERC20/ERC20.sol\":2707:2789  function decimals() public view virtual returns (uint8) {... */\n      swap1\n      jump\t// out\n        /* \"@openzeppelin/contracts/token/ERC20/ERC20.sol\":3004:3120  function balanceOf(address account) public view virtual returns (uint256) {... */\n    tag_43:\n        /* \"@openzeppelin/contracts/token/ERC20/ERC20.sol\":3069:3076  uint256 */\n      0x00\n        /* \"@openzeppelin/contracts/token/ERC20/ERC20.sol\":3095:3104  _balances */\n      dup1\n        /* \"@openzeppelin/contracts/token/ERC20/ERC20.sol\":3095:3113  _balances[account] */\n      0x00\n        /* \"@openzeppelin/contracts/token/ERC20/ERC20.sol\":3105:3112  account */\n      dup4\n        /* \"@openzeppelin/contracts/token/ERC20/ERC20.sol\":3095:3113  _balances[account] */\n      0xffffffffffffffffffffffffffffffffffffffff\n      and\n      0xffffffffffffffffffffffffffffffffffffffff\n      and\n      dup2\n      mstore\n      0x20\n      add\n      swap1\n      dup2\n      mstore\n      0x20\n      add\n      0x00\n      keccak256\n      sload\n        /* \"@openzeppelin/contracts/token/ERC20/ERC20.sol\":3088:3113  return _balances[account] */\n      swap1\n      pop\n        /* \"@openzeppelin/contracts/token/ERC20/ERC20.sol\":3004:3120  function balanceOf(address account) public view virtual returns (uint256) {... */\n      swap2\n      swap1\n      pop\n      jump\t// out\n        /* \"@openzeppelin/contracts/token/ERC20/ERC20.sol\":1981:2074  function symbol() public view virtual returns (string memory) {... */\n    tag_46:\n        /* \"@openzeppelin/contracts/token/ERC20/ERC20.sol\":2028:2041  string memory */\n      0x60\n        /* \"@openzeppelin/contracts/token/ERC20/ERC20.sol\":2060:2067  _symbol */\n      0x04\n        /* \"@openzeppelin/contracts/token/ERC20/ERC20.sol\":2053:2067  return _symbol */\n      dup1\n      sload\n      tag_79\n      swap1\n      tag_59\n      jump\t// in\n    tag_79:\n      dup1\n      0x1f\n      add\n      0x20\n      dup1\n      swap2\n      div\n      mul\n      0x20\n      add\n      mload(0x40)\n      swap1\n      dup2\n      add\n      0x40\n      mstore\n      dup1\n      swap3\n      swap2\n      swap1\n      dup2\n      dup2\n      mstore\n      0x20\n      add\n      dup3\n      dup1\n      sload\n      tag_80\n      swap1\n      tag_59\n      jump\t// in\n    tag_80:\n      dup1\n      iszero\n      tag_81\n      jumpi\n      dup1\n      0x1f\n      lt\n      tag_82\n      jumpi\n      0x0100\n      dup1\n      dup4\n      sload\n      div\n      mul\n      dup4\n      mstore\n      swap2\n      0x20\n      add\n      swap2\n      jump(tag_81)\n    tag_82:\n      dup3\n      add\n      swap2\n      swap1\n      0x00\n      mstore\n      keccak256(0x00, 0x20)\n      swap1\n    tag_83:\n      dup2\n      sload\n      dup2\n      mstore\n      swap1\n      0x01\n      add\n      swap1\n      0x20\n      add\n      dup1\n      dup4\n      gt\n      tag_83\n      jumpi\n      dup3\n      swap1\n      sub\n      0x1f\n      and\n      dup3\n      add\n      swap2\n    tag_81:\n      pop\n      pop\n      pop\n      pop\n      pop\n      swap1\n      pop\n        /* \"@openzeppelin/contracts/token/ERC20/ERC20.sol\":1981:2074  function symbol() public view virtual returns (string memory) {... */\n      swap1\n      jump\t// out\n        /* \"contracts/ERC20/TimeLock.sol\":679:925  function transfer(address recipient, uint256 amount) public override returns (bool) {... */\n    tag_50:\n        /* \"contracts/ERC20/TimeLock.sol\":757:761  bool */\n      0x00\n        /* \"contracts/ERC20/TimeLock.sol\":801:811  unlockTime */\n      sload(0x05)\n        /* \"contracts/ERC20/TimeLock.sol\":782:797  block.timestamp */\n      timestamp\n        /* \"contracts/ERC20/TimeLock.sol\":782:811  block.timestamp >= unlockTime */\n      lt\n      iszero\n        /* \"contracts/ERC20/TimeLock.sol\":774:866  require(block.timestamp >= unlockTime, \"Tokens are locked until the unlock time has passed\") */\n      tag_85\n      jumpi\n      mload(0x40)\n      0x08c379a000000000000000000000000000000000000000000000000000000000\n      dup2\n      mstore\n      0x04\n      add\n      tag_86\n      swap1\n      tag_73\n      jump\t// in\n    tag_86:\n      mload(0x40)\n      dup1\n      swap2\n      sub\n      swap1\n      revert\n    tag_85:\n        /* \"contracts/ERC20/TimeLock.sol\":884:917  super.transfer(recipient, amount) */\n      tag_87\n        /* \"contracts/ERC20/TimeLock.sol\":899:908  recipient */\n      dup4\n        /* \"contracts/ERC20/TimeLock.sol\":910:916  amount */\n      dup4\n        /* \"contracts/ERC20/TimeLock.sol\":884:898  super.transfer */\n      tag_88\n        /* \"contracts/ERC20/TimeLock.sol\":884:917  super.transfer(recipient, amount) */\n      jump\t// in\n    tag_87:\n        /* \"contracts/ERC20/TimeLock.sol\":877:917  return super.transfer(recipient, amount) */\n      swap1\n      pop\n        /* \"contracts/ERC20/TimeLock.sol\":679:925  function transfer(address recipient, uint256 amount) public override returns (bool) {... */\n      swap3\n      swap2\n      pop\n      pop\n      jump\t// out\n        /* \"@openzeppelin/contracts/token/ERC20/ERC20.sol\":3551:3691  function allowance(address owner, address spender) public view virtual returns (uint256) {... */\n    tag_55:\n        /* \"@openzeppelin/contracts/token/ERC20/ERC20.sol\":3631:3638  uint256 */\n      0x00\n        /* \"@openzeppelin/contracts/token/ERC20/ERC20.sol\":3657:3668  _allowances */\n      0x01\n        /* \"@openzeppelin/contracts/token/ERC20/ERC20.sol\":3657:3675  _allowances[owner] */\n      0x00\n        /* \"@openzeppelin/contracts/token/ERC20/ERC20.sol\":3669:3674  owner */\n      dup5\n        /* \"@openzeppelin/contracts/token/ERC20/ERC20.sol\":3657:3675  _allowances[owner] */\n      0xffffffffffffffffffffffffffffffffffffffff\n      and\n      0xffffffffffffffffffffffffffffffffffffffff\n      and\n      dup2\n      mstore\n      0x20\n      add\n      swap1\n      dup2\n      mstore\n      0x20\n      add\n      0x00\n      keccak256\n        /* \"@openzeppelin/contracts/token/ERC20/ERC20.sol\":3657:3684  _allowances[owner][spender] */\n      0x00\n        /* \"@openzeppelin/contracts/token/ERC20/ERC20.sol\":3676:3683  spender */\n      dup4\n        /* \"@openzeppelin/contracts/token/ERC20/ERC20.sol\":3657:3684  _allowances[owner][spender] */\n      0xffffffffffffffffffffffffffffffffffffffff\n      and\n      0xffffffffffffffffffffffffffffffffffffffff\n      and\n      dup2\n      mstore\n      0x20\n      add\n      swap1\n      dup2\n      mstore\n      0x20\n      add\n      0x00\n      keccak256\n      sload\n        /* \"@openzeppelin/contracts/token/ERC20/ERC20.sol\":3650:3684  return _allowances[owner][spender] */\n      swap1\n      pop\n        /* \"@openzeppelin/contracts/token/ERC20/ERC20.sol\":3551:3691  function allowance(address owner, address spender) public view virtual returns (uint256) {... */\n      swap3\n      swap2\n      pop\n      pop\n      jump\t// out\n        /* \"@openzeppelin/contracts/utils/Context.sol\":656:752  function _msgSender() internal view virtual returns (address) {... */\n    tag_66:\n        /* \"@openzeppelin/contracts/utils/Context.sol\":709:716  address */\n      0x00\n        /* \"@openzeppelin/contracts/utils/Context.sol\":735:745  msg.sender */\n      caller\n        /* \"@openzeppelin/contracts/utils/Context.sol\":728:745  return msg.sender */\n      swap1\n      pop\n        /* \"@openzeppelin/contracts/utils/Context.sol\":656:752  function _msgSender() internal view virtual returns (address) {... */\n      swap1\n      jump\t// out\n        /* \"@openzeppelin/contracts/token/ERC20/ERC20.sol\":8726:8854  function _approve(address owner, address spender, uint256 value) internal {... */\n    tag_68:\n        /* \"@openzeppelin/contracts/token/ERC20/ERC20.sol\":8810:8847  _approve(owner, spender, value, true) */\n      tag_92\n        /* \"@openzeppelin/contracts/token/ERC20/ERC20.sol\":8819:8824  owner */\n      dup4\n        /* \"@openzeppelin/contracts/token/ERC20/ERC20.sol\":8826:8833  spender */\n      dup4\n        /* \"@openzeppelin/contracts/token/ERC20/ERC20.sol\":8835:8840  value */\n      dup4\n        /* \"@openzeppelin/contracts/token/ERC20/ERC20.sol\":8842:8846  true */\n      0x01\n        /* \"@openzeppelin/contracts/token/ERC20/ERC20.sol\":8810:8818  _approve */\n      tag_93\n        /* \"@openzeppelin/contracts/token/ERC20/ERC20.sol\":8810:8847  _approve(owner, spender, value, true) */\n      jump\t// in\n    tag_92:\n        /* \"@openzeppelin/contracts/token/ERC20/ERC20.sol\":8726:8854  function _approve(address owner, address spender, uint256 value) internal {... */\n      pop\n      pop\n      pop\n      jump\t// out\n        /* \"@openzeppelin/contracts/token/ERC20/ERC20.sol\":4776:5020  function transferFrom(address from, address to, uint256 value) public virtual returns (bool) {... */\n    tag_75:\n        /* \"@openzeppelin/contracts/token/ERC20/ERC20.sol\":4863:4867  bool */\n      0x00\n        /* \"@openzeppelin/contracts/token/ERC20/ERC20.sol\":4879:4894  address spender */\n      dup1\n        /* \"@openzeppelin/contracts/token/ERC20/ERC20.sol\":4897:4909  _msgSender() */\n      tag_95\n        /* \"@openzeppelin/contracts/token/ERC20/ERC20.sol\":4897:4907  _msgSender */\n      tag_66\n        /* \"@openzeppelin/contracts/token/ERC20/ERC20.sol\":4897:4909  _msgSender() */\n      jump\t// in\n    tag_95:\n        /* \"@openzeppelin/contracts/token/ERC20/ERC20.sol\":4879:4909  address spender = _msgSender() */\n      swap1\n      pop\n        /* \"@openzeppelin/contracts/token/ERC20/ERC20.sol\":4919:4956  _spendAllowance(from, spender, value) */\n      tag_96\n        /* \"@openzeppelin/contracts/token/ERC20/ERC20.sol\":4935:4939  from */\n      dup6\n        /* \"@openzeppelin/contracts/token/ERC20/ERC20.sol\":4941:4948  spender */\n      dup3\n        /* \"@openzeppelin/contracts/token/ERC20/ERC20.sol\":4950:4955  value */\n      dup6\n        /* \"@openzeppelin/contracts/token/ERC20/ERC20.sol\":4919:4934  _spendAllowance */\n      tag_97\n        /* \"@openzeppelin/contracts/token/ERC20/ERC20.sol\":4919:4956  _spendAllowance(from, spender, value) */\n      jump\t// in\n    tag_96:\n        /* \"@openzeppelin/contracts/token/ERC20/ERC20.sol\":4966:4992  _transfer(from, to, value) */\n      tag_98\n        /* \"@openzeppelin/contracts/token/ERC20/ERC20.sol\":4976:4980  from */\n      dup6\n        /* \"@openzeppelin/contracts/token/ERC20/ERC20.sol\":4982:4984  to */\n      dup6\n        /* \"@openzeppelin/contracts/token/ERC20/ERC20.sol\":4986:4991  value */\n      dup6\n        /* \"@openzeppelin/contracts/token/ERC20/ERC20.sol\":4966:4975  _transfer */\n      tag_99\n        /* \"@openzeppelin/contracts/token/ERC20/ERC20.sol\":4966:4992  _transfer(from, to, value) */\n      jump\t// in\n    tag_98:\n        /* \"@openzeppelin/contracts/token/ERC20/ERC20.sol\":5009:5013  true */\n      0x01\n        /* \"@openzeppelin/contracts/token/ERC20/ERC20.sol\":5002:5013  return true */\n      swap2\n      pop\n      pop\n        /* \"@openzeppelin/contracts/token/ERC20/ERC20.sol\":4776:5020  function transferFrom(address from, address to, uint256 value) public virtual returns (bool) {... */\n      swap4\n      swap3\n      pop\n      pop\n      pop\n      jump\t// out\n        /* \"@openzeppelin/contracts/token/ERC20/ERC20.sol\":3315:3493  function transfer(address to, uint256 value) public virtual returns (bool) {... */\n    tag_88:\n        /* \"@openzeppelin/contracts/token/ERC20/ERC20.sol\":3384:3388  bool */\n      0x00\n        /* \"@openzeppelin/contracts/token/ERC20/ERC20.sol\":3400:3413  address owner */\n      dup1\n        /* \"@openzeppelin/contracts/token/ERC20/ERC20.sol\":3416:3428  _msgSender() */\n      tag_101\n        /* \"@openzeppelin/contracts/token/ERC20/ERC20.sol\":3416:3426  _msgSender */\n      tag_66\n        /* \"@openzeppelin/contracts/token/ERC20/ERC20.sol\":3416:3428  _msgSender() */\n      jump\t// in\n    tag_101:\n        /* \"@openzeppelin/contracts/token/ERC20/ERC20.sol\":3400:3428  address owner = _msgSender() */\n      swap1\n      pop\n        /* \"@openzeppelin/contracts/token/ERC20/ERC20.sol\":3438:3465  _transfer(owner, to, value) */\n      tag_102\n        /* \"@openzeppelin/contracts/token/ERC20/ERC20.sol\":3448:3453  owner */\n      dup2\n        /* \"@openzeppelin/contracts/token/ERC20/ERC20.sol\":3455:3457  to */\n      dup6\n        /* \"@openzeppelin/contracts/token/ERC20/ERC20.sol\":3459:3464  value */\n      dup6\n        /* \"@openzeppelin/contracts/token/ERC20/ERC20.sol\":3438:3447  _transfer */\n      tag_99\n        /* \"@openzeppelin/contracts/token/ERC20/ERC20.sol\":3438:3465  _transfer(owner, to, value) */\n      jump\t// in\n    tag_102:\n        /* \"@openzeppelin/contracts/token/ERC20/ERC20.sol\":3482:3486  true */\n      0x01\n        /* \"@openzeppelin/contracts/token/ERC20/ERC20.sol\":3475:3486  return true */\n      swap2\n      pop\n      pop\n        /* \"@openzeppelin/contracts/token/ERC20/ERC20.sol\":3315:3493  function transfer(address to, uint256 value) public virtual returns (bool) {... */\n      swap3\n      swap2\n      pop\n      pop\n      jump\t// out\n        /* \"@openzeppelin/contracts/token/ERC20/ERC20.sol\":9701:10133  function _approve(address owner, address spender, uint256 value, bool emitEvent) internal virtual {... */\n    tag_93:\n        /* \"@openzeppelin/contracts/token/ERC20/ERC20.sol\":9830:9831  0 */\n      0x00\n        /* \"@openzeppelin/contracts/token/ERC20/ERC20.sol\":9813:9832  owner == address(0) */\n      0xffffffffffffffffffffffffffffffffffffffff\n      and\n        /* \"@openzeppelin/contracts/token/ERC20/ERC20.sol\":9813:9818  owner */\n      dup5\n        /* \"@openzeppelin/contracts/token/ERC20/ERC20.sol\":9813:9832  owner == address(0) */\n      0xffffffffffffffffffffffffffffffffffffffff\n      and\n      sub\n        /* \"@openzeppelin/contracts/token/ERC20/ERC20.sol\":9809:9898  if (owner == address(0)) {... */\n      tag_104\n      jumpi\n        /* \"@openzeppelin/contracts/token/ERC20/ERC20.sol\":9884:9885  0 */\n      0x00\n        /* \"@openzeppelin/contracts/token/ERC20/ERC20.sol\":9855:9887  ERC20InvalidApprover(address(0)) */\n      mload(0x40)\n      0xe602df0500000000000000000000000000000000000000000000000000000000\n      dup2\n      mstore\n      0x04\n      add\n      tag_105\n      swap2\n      swap1\n      tag_106\n      jump\t// in\n    tag_105:\n      mload(0x40)\n      dup1\n      swap2\n      sub\n      swap1\n      revert\n        /* \"@openzeppelin/contracts/token/ERC20/ERC20.sol\":9809:9898  if (owner == address(0)) {... */\n    tag_104:\n        /* \"@openzeppelin/contracts/token/ERC20/ERC20.sol\":9930:9931  0 */\n      0x00\n        /* \"@openzeppelin/contracts/token/ERC20/ERC20.sol\":9911:9932  spender == address(0) */\n      0xffffffffffffffffffffffffffffffffffffffff\n      and\n        /* \"@openzeppelin/contracts/token/ERC20/ERC20.sol\":9911:9918  spender */\n      dup4\n        /* \"@openzeppelin/contracts/token/ERC20/ERC20.sol\":9911:9932  spender == address(0) */\n      0xffffffffffffffffffffffffffffffffffffffff\n      and\n      sub\n        /* \"@openzeppelin/contracts/token/ERC20/ERC20.sol\":9907:9997  if (spender == address(0)) {... */\n      tag_107\n      jumpi\n        /* \"@openzeppelin/contracts/token/ERC20/ERC20.sol\":9983:9984  0 */\n      0x00\n        /* \"@openzeppelin/contracts/token/ERC20/ERC20.sol\":9955:9986  ERC20InvalidSpender(address(0)) */\n      mload(0x40)\n      0x94280d6200000000000000000000000000000000000000000000000000000000\n      dup2\n      mstore\n      0x04\n      add\n      tag_108\n      swap2\n      swap1\n      tag_106\n      jump\t// in\n    tag_108:\n      mload(0x40)\n      dup1\n      swap2\n      sub\n      swap1\n      revert\n        /* \"@openzeppelin/contracts/token/ERC20/ERC20.sol\":9907:9997  if (spender == address(0)) {... */\n    tag_107:\n        /* \"@openzeppelin/contracts/token/ERC20/ERC20.sol\":10036:10041  value */\n      dup2\n        /* \"@openzeppelin/contracts/token/ERC20/ERC20.sol\":10006:10017  _allowances */\n      0x01\n        /* \"@openzeppelin/contracts/token/ERC20/ERC20.sol\":10006:10024  _allowances[owner] */\n      0x00\n        /* \"@openzeppelin/contracts/token/ERC20/ERC20.sol\":10018:10023  owner */\n      dup7\n        /* \"@openzeppelin/contracts/token/ERC20/ERC20.sol\":10006:10024  _allowances[owner] */\n      0xffffffffffffffffffffffffffffffffffffffff\n      and\n      0xffffffffffffffffffffffffffffffffffffffff\n      and\n      dup2\n      mstore\n      0x20\n      add\n      swap1\n      dup2\n      mstore\n      0x20\n      add\n      0x00\n      keccak256\n        /* \"@openzeppelin/contracts/token/ERC20/ERC20.sol\":10006:10033  _allowances[owner][spender] */\n      0x00\n        /* \"@openzeppelin/contracts/token/ERC20/ERC20.sol\":10025:10032  spender */\n      dup6\n        /* \"@openzeppelin/contracts/token/ERC20/ERC20.sol\":10006:10033  _allowances[owner][spender] */\n      0xffffffffffffffffffffffffffffffffffffffff\n      and\n      0xffffffffffffffffffffffffffffffffffffffff\n      and\n      dup2\n      mstore\n      0x20\n      add\n      swap1\n      dup2\n      mstore\n      0x20\n      add\n      0x00\n      keccak256\n        /* \"@openzeppelin/contracts/token/ERC20/ERC20.sol\":10006:10041  _allowances[owner][spender] = value */\n      dup2\n      swap1\n      sstore\n      pop\n        /* \"@openzeppelin/contracts/token/ERC20/ERC20.sol\":10055:10064  emitEvent */\n      dup1\n        /* \"@openzeppelin/contracts/token/ERC20/ERC20.sol\":10051:10127  if (emitEvent) {... */\n      iszero\n      tag_109\n      jumpi\n        /* \"@openzeppelin/contracts/token/ERC20/ERC20.sol\":10101:10108  spender */\n      dup3\n        /* \"@openzeppelin/contracts/token/ERC20/ERC20.sol\":10085:10116  Approval(owner, spender, value) */\n      0xffffffffffffffffffffffffffffffffffffffff\n      and\n        /* \"@openzeppelin/contracts/token/ERC20/ERC20.sol\":10094:10099  owner */\n      dup5\n        /* \"@openzeppelin/contracts/token/ERC20/ERC20.sol\":10085:10116  Approval(owner, spender, value) */\n      0xffffffffffffffffffffffffffffffffffffffff\n      and\n      0x8c5be1e5ebec7d5bd14f71427d1e84f3dd0314c0f7b2291e5b200ac8c7c3b925\n        /* \"@openzeppelin/contracts/token/ERC20/ERC20.sol\":10110:10115  value */\n      dup5\n        /* \"@openzeppelin/contracts/token/ERC20/ERC20.sol\":10085:10116  Approval(owner, spender, value) */\n      mload(0x40)\n      tag_110\n      swap2\n      swap1\n      tag_27\n      jump\t// in\n    tag_110:\n      mload(0x40)\n      dup1\n      swap2\n      sub\n      swap1\n      log3\n        /* \"@openzeppelin/contracts/token/ERC20/ERC20.sol\":10051:10127  if (emitEvent) {... */\n    tag_109:\n        /* \"@openzeppelin/contracts/token/ERC20/ERC20.sol\":9701:10133  function _approve(address owner, address spender, uint256 value, bool emitEvent) internal virtual {... */\n      pop\n      pop\n      pop\n      pop\n      jump\t// out\n        /* \"@openzeppelin/contracts/token/ERC20/ERC20.sol\":10415:10892  function _spendAllowance(address owner, address spender, uint256 value) internal virtual {... */\n    tag_97:\n        /* \"@openzeppelin/contracts/token/ERC20/ERC20.sol\":10514:10538  uint256 currentAllowance */\n      0x00\n        /* \"@openzeppelin/contracts/token/ERC20/ERC20.sol\":10541:10566  allowance(owner, spender) */\n      tag_112\n        /* \"@openzeppelin/contracts/token/ERC20/ERC20.sol\":10551:10556  owner */\n      dup5\n        /* \"@openzeppelin/contracts/token/ERC20/ERC20.sol\":10558:10565  spender */\n      dup5\n        /* \"@openzeppelin/contracts/token/ERC20/ERC20.sol\":10541:10550  allowance */\n      tag_55\n        /* \"@openzeppelin/contracts/token/ERC20/ERC20.sol\":10541:10566  allowance(owner, spender) */\n      jump\t// in\n    tag_112:\n        /* \"@openzeppelin/contracts/token/ERC20/ERC20.sol\":10514:10566  uint256 currentAllowance = allowance(owner, spender) */\n      swap1\n      pop\n        /* \"@openzeppelin/contracts/token/ERC20/ERC20.sol\":10600:10617  type(uint256).max */\n      0xffffffffffffffffffffffffffffffffffffffffffffffffffffffffffffffff\n        /* \"@openzeppelin/contracts/token/ERC20/ERC20.sol\":10580:10596  currentAllowance */\n      dup2\n        /* \"@openzeppelin/contracts/token/ERC20/ERC20.sol\":10580:10617  currentAllowance != type(uint256).max */\n      eq\n        /* \"@openzeppelin/contracts/token/ERC20/ERC20.sol\":10576:10886  if (currentAllowance != type(uint256).max) {... */\n      tag_113\n      jumpi\n        /* \"@openzeppelin/contracts/token/ERC20/ERC20.sol\":10656:10661  value */\n      dup2\n        /* \"@openzeppelin/contracts/token/ERC20/ERC20.sol\":10637:10653  currentAllowance */\n      dup2\n        /* \"@openzeppelin/contracts/token/ERC20/ERC20.sol\":10637:10661  currentAllowance < value */\n      lt\n        /* \"@openzeppelin/contracts/token/ERC20/ERC20.sol\":10633:10763  if (currentAllowance < value) {... */\n      iszero\n      tag_114\n      jumpi\n        /* \"@openzeppelin/contracts/token/ERC20/ERC20.sol\":10715:10722  spender */\n      dup3\n        /* \"@openzeppelin/contracts/token/ERC20/ERC20.sol\":10724:10740  currentAllowance */\n      dup2\n        /* \"@openzeppelin/contracts/token/ERC20/ERC20.sol\":10742:10747  value */\n      dup4\n        /* \"@openzeppelin/contracts/token/ERC20/ERC20.sol\":10688:10748  ERC20InsufficientAllowance(spender, currentAllowance, value) */\n      mload(0x40)\n      0xfb8f41b200000000000000000000000000000000000000000000000000000000\n      dup2\n      mstore\n      0x04\n      add\n      tag_115\n      swap4\n      swap3\n      swap2\n      swap1\n      tag_116\n      jump\t// in\n    tag_115:\n      mload(0x40)\n      dup1\n      swap2\n      sub\n      swap1\n      revert\n        /* \"@openzeppelin/contracts/token/ERC20/ERC20.sol\":10633:10763  if (currentAllowance < value) {... */\n    tag_114:\n        /* \"@openzeppelin/contracts/token/ERC20/ERC20.sol\":10804:10861  _approve(owner, spender, currentAllowance - value, false) */\n      tag_117\n        /* \"@openzeppelin/contracts/token/ERC20/ERC20.sol\":10813:10818  owner */\n      dup5\n        /* \"@openzeppelin/contracts/token/ERC20/ERC20.sol\":10820:10827  spender */\n      dup5\n        /* \"@openzeppelin/contracts/token/ERC20/ERC20.sol\":10848:10853  value */\n      dup5\n        /* \"@openzeppelin/contracts/token/ERC20/ERC20.sol\":10829:10845  currentAllowance */\n      dup5\n        /* \"@openzeppelin/contracts/token/ERC20/ERC20.sol\":10829:10853  currentAllowance - value */\n      sub\n        /* \"@openzeppelin/contracts/token/ERC20/ERC20.sol\":10855:10860  false */\n      0x00\n        /* \"@openzeppelin/contracts/token/ERC20/ERC20.sol\":10804:10812  _approve */\n      tag_93\n        /* \"@openzeppelin/contracts/token/ERC20/ERC20.sol\":10804:10861  _approve(owner, spender, currentAllowance - value, false) */\n      jump\t// in\n    tag_117:\n        /* \"@openzeppelin/contracts/token/ERC20/ERC20.sol\":10576:10886  if (currentAllowance != type(uint256).max) {... */\n    tag_113:\n        /* \"@openzeppelin/contracts/token/ERC20/ERC20.sol\":10504:10892  {... */\n      pop\n        /* \"@openzeppelin/contracts/token/ERC20/ERC20.sol\":10415:10892  function _spendAllowance(address owner, address spender, uint256 value) internal virtual {... */\n      pop\n      pop\n      pop\n      jump\t// out\n        /* \"@openzeppelin/contracts/token/ERC20/ERC20.sol\":5393:5693  function _transfer(address from, address to, uint256 value) internal {... */\n    tag_99:\n        /* \"@openzeppelin/contracts/token/ERC20/ERC20.sol\":5492:5493  0 */\n      0x00\n        /* \"@openzeppelin/contracts/token/ERC20/ERC20.sol\":5476:5494  from == address(0) */\n      0xffffffffffffffffffffffffffffffffffffffff\n      and\n        /* \"@openzeppelin/contracts/token/ERC20/ERC20.sol\":5476:5480  from */\n      dup4\n        /* \"@openzeppelin/contracts/token/ERC20/ERC20.sol\":5476:5494  from == address(0) */\n      0xffffffffffffffffffffffffffffffffffffffff\n      and\n      sub\n        /* \"@openzeppelin/contracts/token/ERC20/ERC20.sol\":5472:5558  if (from == address(0)) {... */\n      tag_119\n      jumpi\n        /* \"@openzeppelin/contracts/token/ERC20/ERC20.sol\":5544:5545  0 */\n      0x00\n        /* \"@openzeppelin/contracts/token/ERC20/ERC20.sol\":5517:5547  ERC20InvalidSender(address(0)) */\n      mload(0x40)\n      0x96c6fd1e00000000000000000000000000000000000000000000000000000000\n      dup2\n      mstore\n      0x04\n      add\n      tag_120\n      swap2\n      swap1\n      tag_106\n      jump\t// in\n    tag_120:\n      mload(0x40)\n      dup1\n      swap2\n      sub\n      swap1\n      revert\n        /* \"@openzeppelin/contracts/token/ERC20/ERC20.sol\":5472:5558  if (from == address(0)) {... */\n    tag_119:\n        /* \"@openzeppelin/contracts/token/ERC20/ERC20.sol\":5585:5586  0 */\n      0x00\n        /* \"@openzeppelin/contracts/token/ERC20/ERC20.sol\":5571:5587  to == address(0) */\n      0xffffffffffffffffffffffffffffffffffffffff\n      and\n        /* \"@openzeppelin/contracts/token/ERC20/ERC20.sol\":5571:5573  to */\n      dup3\n        /* \"@openzeppelin/contracts/token/ERC20/ERC20.sol\":5571:5587  to == address(0) */\n      0xffffffffffffffffffffffffffffffffffffffff\n      and\n      sub\n        /* \"@openzeppelin/contracts/token/ERC20/ERC20.sol\":5567:5653  if (to == address(0)) {... */\n      tag_121\n      jumpi\n        /* \"@openzeppelin/contracts/token/ERC20/ERC20.sol\":5639:5640  0 */\n      0x00\n        /* \"@openzeppelin/contracts/token/ERC20/ERC20.sol\":5610:5642  ERC20InvalidReceiver(address(0)) */\n      mload(0x40)\n      0xec442f0500000000000000000000000000000000000000000000000000000000\n      dup2\n      mstore\n      0x04\n      add\n      tag_122\n      swap2\n      swap1\n      tag_106\n      jump\t// in\n    tag_122:\n      mload(0x40)\n      dup1\n      swap2\n      sub\n      swap1\n      revert\n        /* \"@openzeppelin/contracts/token/ERC20/ERC20.sol\":5567:5653  if (to == address(0)) {... */\n    tag_121:\n        /* \"@openzeppelin/contracts/token/ERC20/ERC20.sol\":5662:5686  _update(from, to, value) */\n      tag_123\n        /* \"@openzeppelin/contracts/token/ERC20/ERC20.sol\":5670:5674  from */\n      dup4\n        /* \"@openzeppelin/contracts/token/ERC20/ERC20.sol\":5676:5678  to */\n      dup4\n        /* \"@openzeppelin/contracts/token/ERC20/ERC20.sol\":5680:5685  value */\n      dup4\n        /* \"@openzeppelin/contracts/token/ERC20/ERC20.sol\":5662:5669  _update */\n      tag_124\n        /* \"@openzeppelin/contracts/token/ERC20/ERC20.sol\":5662:5686  _update(from, to, value) */\n      jump\t// in\n    tag_123:\n        /* \"@openzeppelin/contracts/token/ERC20/ERC20.sol\":5393:5693  function _transfer(address from, address to, uint256 value) internal {... */\n      pop\n      pop\n      pop\n      jump\t// out\n        /* \"@openzeppelin/contracts/token/ERC20/ERC20.sol\":6008:7115  function _update(address from, address to, uint256 value) internal virtual {... */\n    tag_124:\n        /* \"@openzeppelin/contracts/token/ERC20/ERC20.sol\":6113:6114  0 */\n      0x00\n        /* \"@openzeppelin/contracts/token/ERC20/ERC20.sol\":6097:6115  from == address(0) */\n      0xffffffffffffffffffffffffffffffffffffffff\n      and\n        /* \"@openzeppelin/contracts/token/ERC20/ERC20.sol\":6097:6101  from */\n      dup4\n        /* \"@openzeppelin/contracts/token/ERC20/ERC20.sol\":6097:6115  from == address(0) */\n      0xffffffffffffffffffffffffffffffffffffffff\n      and\n      sub\n        /* \"@openzeppelin/contracts/token/ERC20/ERC20.sol\":6093:6633  if (from == address(0)) {... */\n      tag_126\n      jumpi\n        /* \"@openzeppelin/contracts/token/ERC20/ERC20.sol\":6249:6254  value */\n      dup1\n        /* \"@openzeppelin/contracts/token/ERC20/ERC20.sol\":6233:6245  _totalSupply */\n      0x02\n      0x00\n        /* \"@openzeppelin/contracts/token/ERC20/ERC20.sol\":6233:6254  _totalSupply += value */\n      dup3\n      dup3\n      sload\n      tag_127\n      swap2\n      swap1\n      tag_128\n      jump\t// in\n    tag_127:\n      swap3\n      pop\n      pop\n      dup2\n      swap1\n      sstore\n      pop\n        /* \"@openzeppelin/contracts/token/ERC20/ERC20.sol\":6093:6633  if (from == address(0)) {... */\n      jump(tag_129)\n    tag_126:\n        /* \"@openzeppelin/contracts/token/ERC20/ERC20.sol\":6285:6304  uint256 fromBalance */\n      0x00\n        /* \"@openzeppelin/contracts/token/ERC20/ERC20.sol\":6307:6316  _balances */\n      dup1\n        /* \"@openzeppelin/contracts/token/ERC20/ERC20.sol\":6307:6322  _balances[from] */\n      0x00\n        /* \"@openzeppelin/contracts/token/ERC20/ERC20.sol\":6317:6321  from */\n      dup6\n        /* \"@openzeppelin/contracts/token/ERC20/ERC20.sol\":6307:6322  _balances[from] */\n      0xffffffffffffffffffffffffffffffffffffffff\n      and\n      0xffffffffffffffffffffffffffffffffffffffff\n      and\n      dup2\n      mstore\n      0x20\n      add\n      swap1\n      dup2\n      mstore\n      0x20\n      add\n      0x00\n      keccak256\n      sload\n        /* \"@openzeppelin/contracts/token/ERC20/ERC20.sol\":6285:6322  uint256 fromBalance = _balances[from] */\n      swap1\n      pop\n        /* \"@openzeppelin/contracts/token/ERC20/ERC20.sol\":6354:6359  value */\n      dup2\n        /* \"@openzeppelin/contracts/token/ERC20/ERC20.sol\":6340:6351  fromBalance */\n      dup2\n        /* \"@openzeppelin/contracts/token/ERC20/ERC20.sol\":6340:6359  fromBalance < value */\n      lt\n        /* \"@openzeppelin/contracts/token/ERC20/ERC20.sol\":6336:6451  if (fromBalance < value) {... */\n      iszero\n      tag_130\n      jumpi\n        /* \"@openzeppelin/contracts/token/ERC20/ERC20.sol\":6411:6415  from */\n      dup4\n        /* \"@openzeppelin/contracts/token/ERC20/ERC20.sol\":6417:6428  fromBalance */\n      dup2\n        /* \"@openzeppelin/contracts/token/ERC20/ERC20.sol\":6430:6435  value */\n      dup4\n        /* \"@openzeppelin/contracts/token/ERC20/ERC20.sol\":6386:6436  ERC20InsufficientBalance(from, fromBalance, value) */\n      mload(0x40)\n      0xe450d38c00000000000000000000000000000000000000000000000000000000\n      dup2\n      mstore\n      0x04\n      add\n      tag_131\n      swap4\n      swap3\n      swap2\n      swap1\n      tag_116\n      jump\t// in\n    tag_131:\n      mload(0x40)\n      dup1\n      swap2\n      sub\n      swap1\n      revert\n        /* \"@openzeppelin/contracts/token/ERC20/ERC20.sol\":6336:6451  if (fromBalance < value) {... */\n    tag_130:\n        /* \"@openzeppelin/contracts/token/ERC20/ERC20.sol\":6603:6608  value */\n      dup2\n        /* \"@openzeppelin/contracts/token/ERC20/ERC20.sol\":6589:6600  fromBalance */\n      dup2\n        /* \"@openzeppelin/contracts/token/ERC20/ERC20.sol\":6589:6608  fromBalance - value */\n      sub\n        /* \"@openzeppelin/contracts/token/ERC20/ERC20.sol\":6571:6580  _balances */\n      0x00\n        /* \"@openzeppelin/contracts/token/ERC20/ERC20.sol\":6571:6586  _balances[from] */\n      dup1\n        /* \"@openzeppelin/contracts/token/ERC20/ERC20.sol\":6581:6585  from */\n      dup7\n        /* \"@openzeppelin/contracts/token/ERC20/ERC20.sol\":6571:6586  _balances[from] */\n      0xffffffffffffffffffffffffffffffffffffffff\n      and\n      0xffffffffffffffffffffffffffffffffffffffff\n      and\n      dup2\n      mstore\n      0x20\n      add\n      swap1\n      dup2\n      mstore\n      0x20\n      add\n      0x00\n      keccak256\n        /* \"@openzeppelin/contracts/token/ERC20/ERC20.sol\":6571:6608  _balances[from] = fromBalance - value */\n      dup2\n      swap1\n      sstore\n      pop\n        /* \"@openzeppelin/contracts/token/ERC20/ERC20.sol\":6271:6633  {... */\n      pop\n        /* \"@openzeppelin/contracts/token/ERC20/ERC20.sol\":6093:6633  if (from == address(0)) {... */\n    tag_129:\n        /* \"@openzeppelin/contracts/token/ERC20/ERC20.sol\":6661:6662  0 */\n      0x00\n        /* \"@openzeppelin/contracts/token/ERC20/ERC20.sol\":6647:6663  to == address(0) */\n      0xffffffffffffffffffffffffffffffffffffffff\n      and\n        /* \"@openzeppelin/contracts/token/ERC20/ERC20.sol\":6647:6649  to */\n      dup3\n        /* \"@openzeppelin/contracts/token/ERC20/ERC20.sol\":6647:6663  to == address(0) */\n      0xffffffffffffffffffffffffffffffffffffffff\n      and\n      sub\n        /* \"@openzeppelin/contracts/token/ERC20/ERC20.sol\":6643:7068  if (to == address(0)) {... */\n      tag_132\n      jumpi\n        /* \"@openzeppelin/contracts/token/ERC20/ERC20.sol\":6826:6831  value */\n      dup1\n        /* \"@openzeppelin/contracts/token/ERC20/ERC20.sol\":6810:6822  _totalSupply */\n      0x02\n      0x00\n        /* \"@openzeppelin/contracts/token/ERC20/ERC20.sol\":6810:6831  _totalSupply -= value */\n      dup3\n      dup3\n      sload\n      sub\n      swap3\n      pop\n      pop\n      dup2\n      swap1\n      sstore\n      pop\n        /* \"@openzeppelin/contracts/token/ERC20/ERC20.sol\":6643:7068  if (to == address(0)) {... */\n      jump(tag_133)\n    tag_132:\n        /* \"@openzeppelin/contracts/token/ERC20/ERC20.sol\":7038:7043  value */\n      dup1\n        /* \"@openzeppelin/contracts/token/ERC20/ERC20.sol\":7021:7030  _balances */\n      0x00\n        /* \"@openzeppelin/contracts/token/ERC20/ERC20.sol\":7021:7034  _balances[to] */\n      dup1\n        /* \"@openzeppelin/contracts/token/ERC20/ERC20.sol\":7031:7033  to */\n      dup5\n        /* \"@openzeppelin/contracts/token/ERC20/ERC20.sol\":7021:7034  _balances[to] */\n      0xffffffffffffffffffffffffffffffffffffffff\n      and\n      0xffffffffffffffffffffffffffffffffffffffff\n      and\n      dup2\n      mstore\n      0x20\n      add\n      swap1\n      dup2\n      mstore\n      0x20\n      add\n      0x00\n      keccak256\n      0x00\n        /* \"@openzeppelin/contracts/token/ERC20/ERC20.sol\":7021:7043  _balances[to] += value */\n      dup3\n      dup3\n      sload\n      add\n      swap3\n      pop\n      pop\n      dup2\n      swap1\n      sstore\n      pop\n        /* \"@openzeppelin/contracts/token/ERC20/ERC20.sol\":6643:7068  if (to == address(0)) {... */\n    tag_133:\n        /* \"@openzeppelin/contracts/token/ERC20/ERC20.sol\":7098:7100  to */\n      dup2\n        /* \"@openzeppelin/contracts/token/ERC20/ERC20.sol\":7083:7108  Transfer(from, to, value) */\n      0xffffffffffffffffffffffffffffffffffffffff\n      and\n        /* \"@openzeppelin/contracts/token/ERC20/ERC20.sol\":7092:7096  from */\n      dup4\n        /* \"@openzeppelin/contracts/token/ERC20/ERC20.sol\":7083:7108  Transfer(from, to, value) */\n      0xffffffffffffffffffffffffffffffffffffffff\n      and\n      0xddf252ad1be2c89b69c2b068fc378daa952ba7f163c4a11628f55a4df523b3ef\n        /* \"@openzeppelin/contracts/token/ERC20/ERC20.sol\":7102:7107  value */\n      dup4\n        /* \"@openzeppelin/contracts/token/ERC20/ERC20.sol\":7083:7108  Transfer(from, to, value) */\n      mload(0x40)\n      tag_134\n      swap2\n      swap1\n      tag_27\n      jump\t// in\n    tag_134:\n      mload(0x40)\n      dup1\n      swap2\n      sub\n      swap1\n      log3\n        /* \"@openzeppelin/contracts/token/ERC20/ERC20.sol\":6008:7115  function _update(address from, address to, uint256 value) internal virtual {... */\n      pop\n      pop\n      pop\n      jump\t// out\n        /* \"#utility.yul\":7:106   */\n    tag_135:\n        /* \"#utility.yul\":59:65   */\n      0x00\n        /* \"#utility.yul\":93:98   */\n      dup2\n        /* \"#utility.yul\":87:99   */\n      mload\n        /* \"#utility.yul\":77:99   */\n      swap1\n      pop\n        /* \"#utility.yul\":7:106   */\n      swap2\n      swap1\n      pop\n      jump\t// out\n        /* \"#utility.yul\":112:281   */\n    tag_136:\n        /* \"#utility.yul\":196:207   */\n      0x00\n        /* \"#utility.yul\":230:236   */\n      dup3\n        /* \"#utility.yul\":225:228   */\n      dup3\n        /* \"#utility.yul\":218:237   */\n      mstore\n        /* \"#utility.yul\":270:274   */\n      0x20\n        /* \"#utility.yul\":265:268   */\n      dup3\n        /* \"#utility.yul\":261:275   */\n      add\n        /* \"#utility.yul\":246:275   */\n      swap1\n      pop\n        /* \"#utility.yul\":112:281   */\n      swap3\n      swap2\n      pop\n      pop\n      jump\t// out\n        /* \"#utility.yul\":287:426   */\n    tag_137:\n        /* \"#utility.yul\":376:382   */\n      dup3\n        /* \"#utility.yul\":371:374   */\n      dup2\n        /* \"#utility.yul\":366:369   */\n      dup4\n        /* \"#utility.yul\":360:383   */\n      mcopy\n        /* \"#utility.yul\":417:418   */\n      0x00\n        /* \"#utility.yul\":408:414   */\n      dup4\n        /* \"#utility.yul\":403:406   */\n      dup4\n        /* \"#utility.yul\":399:415   */\n      add\n        /* \"#utility.yul\":392:419   */\n      mstore\n        /* \"#utility.yul\":287:426   */\n      pop\n      pop\n      pop\n      jump\t// out\n        /* \"#utility.yul\":432:534   */\n    tag_138:\n        /* \"#utility.yul\":473:479   */\n      0x00\n        /* \"#utility.yul\":524:526   */\n      0x1f\n        /* \"#utility.yul\":520:527   */\n      not\n        /* \"#utility.yul\":515:517   */\n      0x1f\n        /* \"#utility.yul\":508:513   */\n      dup4\n        /* \"#utility.yul\":504:518   */\n      add\n        /* \"#utility.yul\":500:528   */\n      and\n        /* \"#utility.yul\":490:528   */\n      swap1\n      pop\n        /* \"#utility.yul\":432:534   */\n      swap2\n      swap1\n      pop\n      jump\t// out\n        /* \"#utility.yul\":540:917   */\n    tag_139:\n        /* \"#utility.yul\":628:631   */\n      0x00\n        /* \"#utility.yul\":656:695   */\n      tag_166\n        /* \"#utility.yul\":689:694   */\n      dup3\n        /* \"#utility.yul\":656:695   */\n      tag_135\n      jump\t// in\n    tag_166:\n        /* \"#utility.yul\":711:782   */\n      tag_167\n        /* \"#utility.yul\":775:781   */\n      dup2\n        /* \"#utility.yul\":770:773   */\n      dup6\n        /* \"#utility.yul\":711:782   */\n      tag_136\n      jump\t// in\n    tag_167:\n        /* \"#utility.yul\":704:782   */\n      swap4\n      pop\n        /* \"#utility.yul\":791:856   */\n      tag_168\n        /* \"#utility.yul\":849:855   */\n      dup2\n        /* \"#utility.yul\":844:847   */\n      dup6\n        /* \"#utility.yul\":837:841   */\n      0x20\n        /* \"#utility.yul\":830:835   */\n      dup7\n        /* \"#utility.yul\":826:842   */\n      add\n        /* \"#utility.yul\":791:856   */\n      tag_137\n      jump\t// in\n    tag_168:\n        /* \"#utility.yul\":881:910   */\n      tag_169\n        /* \"#utility.yul\":903:909   */\n      dup2\n        /* \"#utility.yul\":881:910   */\n      tag_138\n      jump\t// in\n    tag_169:\n        /* \"#utility.yul\":876:879   */\n      dup5\n        /* \"#utility.yul\":872:911   */\n      add\n        /* \"#utility.yul\":865:911   */\n      swap2\n      pop\n        /* \"#utility.yul\":632:917   */\n      pop\n        /* \"#utility.yul\":540:917   */\n      swap3\n      swap2\n      pop\n      pop\n      jump\t// out\n        /* \"#utility.yul\":923:1236   */\n    tag_17:\n        /* \"#utility.yul\":1036:1040   */\n      0x00\n        /* \"#utility.yul\":1074:1076   */\n      0x20\n        /* \"#utility.yul\":1063:1072   */\n      dup3\n        /* \"#utility.yul\":1059:1077   */\n      add\n        /* \"#utility.yul\":1051:1077   */\n      swap1\n      pop\n        /* \"#utility.yul\":1123:1132   */\n      dup2\n        /* \"#utility.yul\":1117:1121   */\n      dup2\n        /* \"#utility.yul\":1113:1133   */\n      sub\n        /* \"#utility.yul\":1109:1110   */\n      0x00\n        /* \"#utility.yul\":1098:1107   */\n      dup4\n        /* \"#utility.yul\":1094:1111   */\n      add\n        /* \"#utility.yul\":1087:1134   */\n      mstore\n        /* \"#utility.yul\":1151:1229   */\n      tag_171\n        /* \"#utility.yul\":1224:1228   */\n      dup2\n        /* \"#utility.yul\":1215:1221   */\n      dup5\n        /* \"#utility.yul\":1151:1229   */\n      tag_139\n      jump\t// in\n    tag_171:\n        /* \"#utility.yul\":1143:1229   */\n      swap1\n      pop\n        /* \"#utility.yul\":923:1236   */\n      swap3\n      swap2\n      pop\n      pop\n      jump\t// out\n        /* \"#utility.yul\":1323:1440   */\n    tag_141:\n        /* \"#utility.yul\":1432:1433   */\n      0x00\n        /* \"#utility.yul\":1429:1430   */\n      dup1\n        /* \"#utility.yul\":1422:1434   */\n      revert\n        /* \"#utility.yul\":1569:1695   */\n    tag_143:\n        /* \"#utility.yul\":1606:1613   */\n      0x00\n        /* \"#utility.yul\":1646:1688   */\n      0xffffffffffffffffffffffffffffffffffffffff\n        /* \"#utility.yul\":1639:1644   */\n      dup3\n        /* \"#utility.yul\":1635:1689   */\n      and\n        /* \"#utility.yul\":1624:1689   */\n      swap1\n      pop\n        /* \"#utility.yul\":1569:1695   */\n      swap2\n      swap1\n      pop\n      jump\t// out\n        /* \"#utility.yul\":1701:1797   */\n    tag_144:\n        /* \"#utility.yul\":1738:1745   */\n      0x00\n        /* \"#utility.yul\":1767:1791   */\n      tag_177\n        /* \"#utility.yul\":1785:1790   */\n      dup3\n        /* \"#utility.yul\":1767:1791   */\n      tag_143\n      jump\t// in\n    tag_177:\n        /* \"#utility.yul\":1756:1791   */\n      swap1\n      pop\n        /* \"#utility.yul\":1701:1797   */\n      swap2\n      swap1\n      pop\n      jump\t// out\n        /* \"#utility.yul\":1803:1925   */\n    tag_145:\n        /* \"#utility.yul\":1876:1900   */\n      tag_179\n        /* \"#utility.yul\":1894:1899   */\n      dup2\n        /* \"#utility.yul\":1876:1900   */\n      tag_144\n      jump\t// in\n    tag_179:\n        /* \"#utility.yul\":1869:1874   */\n      dup2\n        /* \"#utility.yul\":1866:1901   */\n      eq\n        /* \"#utility.yul\":1856:1919   */\n      tag_180\n      jumpi\n        /* \"#utility.yul\":1915:1916   */\n      0x00\n        /* \"#utility.yul\":1912:1913   */\n      dup1\n        /* \"#utility.yul\":1905:1917   */\n      revert\n        /* \"#utility.yul\":1856:1919   */\n    tag_180:\n        /* \"#utility.yul\":1803:1925   */\n      pop\n      jump\t// out\n        /* \"#utility.yul\":1931:2070   */\n    tag_146:\n        /* \"#utility.yul\":1977:1982   */\n      0x00\n        /* \"#utility.yul\":2015:2021   */\n      dup2\n        /* \"#utility.yul\":2002:2022   */\n      calldataload\n        /* \"#utility.yul\":1993:2022   */\n      swap1\n      pop\n        /* \"#utility.yul\":2031:2064   */\n      tag_182\n        /* \"#utility.yul\":2058:2063   */\n      dup2\n        /* \"#utility.yul\":2031:2064   */\n      tag_145\n      jump\t// in\n    tag_182:\n        /* \"#utility.yul\":1931:2070   */\n      swap3\n      swap2\n      pop\n      pop\n      jump\t// out\n        /* \"#utility.yul\":2076:2153   */\n    tag_147:\n        /* \"#utility.yul\":2113:2120   */\n      0x00\n        /* \"#utility.yul\":2142:2147   */\n      dup2\n        /* \"#utility.yul\":2131:2147   */\n      swap1\n      pop\n        /* \"#utility.yul\":2076:2153   */\n      swap2\n      swap1\n      pop\n      jump\t// out\n        /* \"#utility.yul\":2159:2281   */\n    tag_148:\n        /* \"#utility.yul\":2232:2256   */\n      tag_185\n        /* \"#utility.yul\":2250:2255   */\n      dup2\n        /* \"#utility.yul\":2232:2256   */\n      tag_147\n      jump\t// in\n    tag_185:\n        /* \"#utility.yul\":2225:2230   */\n      dup2\n        /* \"#utility.yul\":2222:2257   */\n      eq\n        /* \"#utility.yul\":2212:2275   */\n      tag_186\n      jumpi\n        /* \"#utility.yul\":2271:2272   */\n      0x00\n        /* \"#utility.yul\":2268:2269   */\n      dup1\n        /* \"#utility.yul\":2261:2273   */\n      revert\n        /* \"#utility.yul\":2212:2275   */\n    tag_186:\n        /* \"#utility.yul\":2159:2281   */\n      pop\n      jump\t// out\n        /* \"#utility.yul\":2287:2426   */\n    tag_149:\n        /* \"#utility.yul\":2333:2338   */\n      0x00\n        /* \"#utility.yul\":2371:2377   */\n      dup2\n        /* \"#utility.yul\":2358:2378   */\n      calldataload\n        /* \"#utility.yul\":2349:2378   */\n      swap1\n      pop\n        /* \"#utility.yul\":2387:2420   */\n      tag_188\n        /* \"#utility.yul\":2414:2419   */\n      dup2\n        /* \"#utility.yul\":2387:2420   */\n      tag_148\n      jump\t// in\n    tag_188:\n        /* \"#utility.yul\":2287:2426   */\n      swap3\n      swap2\n      pop\n      pop\n      jump\t// out\n        /* \"#utility.yul\":2432:2906   */\n    tag_20:\n        /* \"#utility.yul\":2500:2506   */\n      0x00\n        /* \"#utility.yul\":2508:2514   */\n      dup1\n        /* \"#utility.yul\":2557:2559   */\n      0x40\n        /* \"#utility.yul\":2545:2554   */\n      dup4\n        /* \"#utility.yul\":2536:2543   */\n      dup6\n        /* \"#utility.yul\":2532:2555   */\n      sub\n        /* \"#utility.yul\":2528:2560   */\n      slt\n        /* \"#utility.yul\":2525:2644   */\n      iszero\n      tag_190\n      jumpi\n        /* \"#utility.yul\":2563:2642   */\n      tag_191\n      tag_141\n      jump\t// in\n    tag_191:\n        /* \"#utility.yul\":2525:2644   */\n    tag_190:\n        /* \"#utility.yul\":2683:2684   */\n      0x00\n        /* \"#utility.yul\":2708:2761   */\n      tag_192\n        /* \"#utility.yul\":2753:2760   */\n      dup6\n        /* \"#utility.yul\":2744:2750   */\n      dup3\n        /* \"#utility.yul\":2733:2742   */\n      dup7\n        /* \"#utility.yul\":2729:2751   */\n      add\n        /* \"#utility.yul\":2708:2761   */\n      tag_146\n      jump\t// in\n    tag_192:\n        /* \"#utility.yul\":2698:2761   */\n      swap3\n      pop\n        /* \"#utility.yul\":2654:2771   */\n      pop\n        /* \"#utility.yul\":2810:2812   */\n      0x20\n        /* \"#utility.yul\":2836:2889   */\n      tag_193\n        /* \"#utility.yul\":2881:2888   */\n      dup6\n        /* \"#utility.yul\":2872:2878   */\n      dup3\n        /* \"#utility.yul\":2861:2870   */\n      dup7\n        /* \"#utility.yul\":2857:2879   */\n      add\n        /* \"#utility.yul\":2836:2889   */\n      tag_149\n      jump\t// in\n    tag_193:\n        /* \"#utility.yul\":2826:2889   */\n      swap2\n      pop\n        /* \"#utility.yul\":2781:2899   */\n      pop\n        /* \"#utility.yul\":2432:2906   */\n      swap3\n      pop\n      swap3\n      swap1\n      pop\n      jump\t// out\n        /* \"#utility.yul\":2912:3002   */\n    tag_150:\n        /* \"#utility.yul\":2946:2953   */\n      0x00\n        /* \"#utility.yul\":2989:2994   */\n      dup2\n        /* \"#utility.yul\":2982:2995   */\n      iszero\n        /* \"#utility.yul\":2975:2996   */\n      iszero\n        /* \"#utility.yul\":2964:2996   */\n      swap1\n      pop\n        /* \"#utility.yul\":2912:3002   */\n      swap2\n      swap1\n      pop\n      jump\t// out\n        /* \"#utility.yul\":3008:3117   */\n    tag_151:\n        /* \"#utility.yul\":3089:3110   */\n      tag_196\n        /* \"#utility.yul\":3104:3109   */\n      dup2\n        /* \"#utility.yul\":3089:3110   */\n      tag_150\n      jump\t// in\n    tag_196:\n        /* \"#utility.yul\":3084:3087   */\n      dup3\n        /* \"#utility.yul\":3077:3111   */\n      mstore\n        /* \"#utility.yul\":3008:3117   */\n      pop\n      pop\n      jump\t// out\n        /* \"#utility.yul\":3123:3333   */\n    tag_23:\n        /* \"#utility.yul\":3210:3214   */\n      0x00\n        /* \"#utility.yul\":3248:3250   */\n      0x20\n        /* \"#utility.yul\":3237:3246   */\n      dup3\n        /* \"#utility.yul\":3233:3251   */\n      add\n        /* \"#utility.yul\":3225:3251   */\n      swap1\n      pop\n        /* \"#utility.yul\":3261:3326   */\n      tag_198\n        /* \"#utility.yul\":3323:3324   */\n      0x00\n        /* \"#utility.yul\":3312:3321   */\n      dup4\n        /* \"#utility.yul\":3308:3325   */\n      add\n        /* \"#utility.yul\":3299:3305   */\n      dup5\n        /* \"#utility.yul\":3261:3326   */\n      tag_151\n      jump\t// in\n    tag_198:\n        /* \"#utility.yul\":3123:3333   */\n      swap3\n      swap2\n      pop\n      pop\n      jump\t// out\n        /* \"#utility.yul\":3339:3457   */\n    tag_152:\n        /* \"#utility.yul\":3426:3450   */\n      tag_200\n        /* \"#utility.yul\":3444:3449   */\n      dup2\n        /* \"#utility.yul\":3426:3450   */\n      tag_147\n      jump\t// in\n    tag_200:\n        /* \"#utility.yul\":3421:3424   */\n      dup3\n        /* \"#utility.yul\":3414:3451   */\n      mstore\n        /* \"#utility.yul\":3339:3457   */\n      pop\n      pop\n      jump\t// out\n        /* \"#utility.yul\":3463:3685   */\n    tag_27:\n        /* \"#utility.yul\":3556:3560   */\n      0x00\n        /* \"#utility.yul\":3594:3596   */\n      0x20\n        /* \"#utility.yul\":3583:3592   */\n      dup3\n        /* \"#utility.yul\":3579:3597   */\n      add\n        /* \"#utility.yul\":3571:3597   */\n      swap1\n      pop\n        /* \"#utility.yul\":3607:3678   */\n      tag_202\n        /* \"#utility.yul\":3675:3676   */\n      0x00\n        /* \"#utility.yul\":3664:3673   */\n      dup4\n        /* \"#utility.yul\":3660:3677   */\n      add\n        /* \"#utility.yul\":3651:3657   */\n      dup5\n        /* \"#utility.yul\":3607:3678   */\n      tag_152\n      jump\t// in\n    tag_202:\n        /* \"#utility.yul\":3463:3685   */\n      swap3\n      swap2\n      pop\n      pop\n      jump\t// out\n        /* \"#utility.yul\":3691:4310   */\n    tag_30:\n        /* \"#utility.yul\":3768:3774   */\n      0x00\n        /* \"#utility.yul\":3776:3782   */\n      dup1\n        /* \"#utility.yul\":3784:3790   */\n      0x00\n        /* \"#utility.yul\":3833:3835   */\n      0x60\n        /* \"#utility.yul\":3821:3830   */\n      dup5\n        /* \"#utility.yul\":3812:3819   */\n      dup7\n        /* \"#utility.yul\":3808:3831   */\n      sub\n        /* \"#utility.yul\":3804:3836   */\n      slt\n        /* \"#utility.yul\":3801:3920   */\n      iszero\n      tag_204\n      jumpi\n        /* \"#utility.yul\":3839:3918   */\n      tag_205\n      tag_141\n      jump\t// in\n    tag_205:\n        /* \"#utility.yul\":3801:3920   */\n    tag_204:\n        /* \"#utility.yul\":3959:3960   */\n      0x00\n        /* \"#utility.yul\":3984:4037   */\n      tag_206\n        /* \"#utility.yul\":4029:4036   */\n      dup7\n        /* \"#utility.yul\":4020:4026   */\n      dup3\n        /* \"#utility.yul\":4009:4018   */\n      dup8\n        /* \"#utility.yul\":4005:4027   */\n      add\n        /* \"#utility.yul\":3984:4037   */\n      tag_146\n      jump\t// in\n    tag_206:\n        /* \"#utility.yul\":3974:4037   */\n      swap4\n      pop\n        /* \"#utility.yul\":3930:4047   */\n      pop\n        /* \"#utility.yul\":4086:4088   */\n      0x20\n        /* \"#utility.yul\":4112:4165   */\n      tag_207\n        /* \"#utility.yul\":4157:4164   */\n      dup7\n        /* \"#utility.yul\":4148:4154   */\n      dup3\n        /* \"#utility.yul\":4137:4146   */\n      dup8\n        /* \"#utility.yul\":4133:4155   */\n      add\n        /* \"#utility.yul\":4112:4165   */\n      tag_146\n      jump\t// in\n    tag_207:\n        /* \"#utility.yul\":4102:4165   */\n      swap3\n      pop\n        /* \"#utility.yul\":4057:4175   */\n      pop\n        /* \"#utility.yul\":4214:4216   */\n      0x40\n        /* \"#utility.yul\":4240:4293   */\n      tag_208\n        /* \"#utility.yul\":4285:4292   */\n      dup7\n        /* \"#utility.yul\":4276:4282   */\n      dup3\n        /* \"#utility.yul\":4265:4274   */\n      dup8\n        /* \"#utility.yul\":4261:4283   */\n      add\n        /* \"#utility.yul\":4240:4293   */\n      tag_149\n      jump\t// in\n    tag_208:\n        /* \"#utility.yul\":4230:4293   */\n      swap2\n      pop\n        /* \"#utility.yul\":4185:4303   */\n      pop\n        /* \"#utility.yul\":3691:4310   */\n      swap3\n      pop\n      swap3\n      pop\n      swap3\n      jump\t// out\n        /* \"#utility.yul\":4316:4402   */\n    tag_153:\n        /* \"#utility.yul\":4351:4358   */\n      0x00\n        /* \"#utility.yul\":4391:4395   */\n      0xff\n        /* \"#utility.yul\":4384:4389   */\n      dup3\n        /* \"#utility.yul\":4380:4396   */\n      and\n        /* \"#utility.yul\":4369:4396   */\n      swap1\n      pop\n        /* \"#utility.yul\":4316:4402   */\n      swap2\n      swap1\n      pop\n      jump\t// out\n        /* \"#utility.yul\":4408:4520   */\n    tag_154:\n        /* \"#utility.yul\":4491:4513   */\n      tag_211\n        /* \"#utility.yul\":4507:4512   */\n      dup2\n        /* \"#utility.yul\":4491:4513   */\n      tag_153\n      jump\t// in\n    tag_211:\n        /* \"#utility.yul\":4486:4489   */\n      dup3\n        /* \"#utility.yul\":4479:4514   */\n      mstore\n        /* \"#utility.yul\":4408:4520   */\n      pop\n      pop\n      jump\t// out\n        /* \"#utility.yul\":4526:4740   */\n    tag_39:\n        /* \"#utility.yul\":4615:4619   */\n      0x00\n        /* \"#utility.yul\":4653:4655   */\n      0x20\n        /* \"#utility.yul\":4642:4651   */\n      dup3\n        /* \"#utility.yul\":4638:4656   */\n      add\n        /* \"#utility.yul\":4630:4656   */\n      swap1\n      pop\n        /* \"#utility.yul\":4666:4733   */\n      tag_213\n        /* \"#utility.yul\":4730:4731   */\n      0x00\n        /* \"#utility.yul\":4719:4728   */\n      dup4\n        /* \"#utility.yul\":4715:4732   */\n      add\n        /* \"#utility.yul\":4706:4712   */\n      dup5\n        /* \"#utility.yul\":4666:4733   */\n      tag_154\n      jump\t// in\n    tag_213:\n        /* \"#utility.yul\":4526:4740   */\n      swap3\n      swap2\n      pop\n      pop\n      jump\t// out\n        /* \"#utility.yul\":4746:5075   */\n    tag_42:\n        /* \"#utility.yul\":4805:4811   */\n      0x00\n        /* \"#utility.yul\":4854:4856   */\n      0x20\n        /* \"#utility.yul\":4842:4851   */\n      dup3\n        /* \"#utility.yul\":4833:4840   */\n      dup5\n        /* \"#utility.yul\":4829:4852   */\n      sub\n        /* \"#utility.yul\":4825:4857   */\n      slt\n        /* \"#utility.yul\":4822:4941   */\n      iszero\n      tag_215\n      jumpi\n        /* \"#utility.yul\":4860:4939   */\n      tag_216\n      tag_141\n      jump\t// in\n    tag_216:\n        /* \"#utility.yul\":4822:4941   */\n    tag_215:\n        /* \"#utility.yul\":4980:4981   */\n      0x00\n        /* \"#utility.yul\":5005:5058   */\n      tag_217\n        /* \"#utility.yul\":5050:5057   */\n      dup5\n        /* \"#utility.yul\":5041:5047   */\n      dup3\n        /* \"#utility.yul\":5030:5039   */\n      dup6\n        /* \"#utility.yul\":5026:5048   */\n      add\n        /* \"#utility.yul\":5005:5058   */\n      tag_146\n      jump\t// in\n    tag_217:\n        /* \"#utility.yul\":4995:5058   */\n      swap2\n      pop\n        /* \"#utility.yul\":4951:5068   */\n      pop\n        /* \"#utility.yul\":4746:5075   */\n      swap3\n      swap2\n      pop\n      pop\n      jump\t// out\n        /* \"#utility.yul\":5081:5555   */\n    tag_54:\n        /* \"#utility.yul\":5149:5155   */\n      0x00\n        /* \"#utility.yul\":5157:5163   */\n      dup1\n        /* \"#utility.yul\":5206:5208   */\n      0x40\n        /* \"#utility.yul\":5194:5203   */\n      dup4\n        /* \"#utility.yul\":5185:5192   */\n      dup6\n        /* \"#utility.yul\":5181:5204   */\n      sub\n        /* \"#utility.yul\":5177:5209   */\n      slt\n        /* \"#utility.yul\":5174:5293   */\n      iszero\n      tag_219\n      jumpi\n        /* \"#utility.yul\":5212:5291   */\n      tag_220\n      tag_141\n      jump\t// in\n    tag_220:\n        /* \"#utility.yul\":5174:5293   */\n    tag_219:\n        /* \"#utility.yul\":5332:5333   */\n      0x00\n        /* \"#utility.yul\":5357:5410   */\n      tag_221\n        /* \"#utility.yul\":5402:5409   */\n      dup6\n        /* \"#utility.yul\":5393:5399   */\n      dup3\n        /* \"#utility.yul\":5382:5391   */\n      dup7\n        /* \"#utility.yul\":5378:5400   */\n      add\n        /* \"#utility.yul\":5357:5410   */\n      tag_146\n      jump\t// in\n    tag_221:\n        /* \"#utility.yul\":5347:5410   */\n      swap3\n      pop\n        /* \"#utility.yul\":5303:5420   */\n      pop\n        /* \"#utility.yul\":5459:5461   */\n      0x20\n        /* \"#utility.yul\":5485:5538   */\n      tag_222\n        /* \"#utility.yul\":5530:5537   */\n      dup6\n        /* \"#utility.yul\":5521:5527   */\n      dup3\n        /* \"#utility.yul\":5510:5519   */\n      dup7\n        /* \"#utility.yul\":5506:5528   */\n      add\n        /* \"#utility.yul\":5485:5538   */\n      tag_146\n      jump\t// in\n    tag_222:\n        /* \"#utility.yul\":5475:5538   */\n      swap2\n      pop\n        /* \"#utility.yul\":5430:5548   */\n      pop\n        /* \"#utility.yul\":5081:5555   */\n      swap3\n      pop\n      swap3\n      swap1\n      pop\n      jump\t// out\n        /* \"#utility.yul\":5561:5741   */\n    tag_155:\n        /* \"#utility.yul\":5609:5686   */\n      0x4e487b7100000000000000000000000000000000000000000000000000000000\n        /* \"#utility.yul\":5606:5607   */\n      0x00\n        /* \"#utility.yul\":5599:5687   */\n      mstore\n        /* \"#utility.yul\":5706:5710   */\n      0x22\n        /* \"#utility.yul\":5703:5704   */\n      0x04\n        /* \"#utility.yul\":5696:5711   */\n      mstore\n        /* \"#utility.yul\":5730:5734   */\n      0x24\n        /* \"#utility.yul\":5727:5728   */\n      0x00\n        /* \"#utility.yul\":5720:5735   */\n      revert\n        /* \"#utility.yul\":5747:6067   */\n    tag_59:\n        /* \"#utility.yul\":5791:5797   */\n      0x00\n        /* \"#utility.yul\":5828:5829   */\n      0x02\n        /* \"#utility.yul\":5822:5826   */\n      dup3\n        /* \"#utility.yul\":5818:5830   */\n      div\n        /* \"#utility.yul\":5808:5830   */\n      swap1\n      pop\n        /* \"#utility.yul\":5875:5876   */\n      0x01\n        /* \"#utility.yul\":5869:5873   */\n      dup3\n        /* \"#utility.yul\":5865:5877   */\n      and\n        /* \"#utility.yul\":5896:5914   */\n      dup1\n        /* \"#utility.yul\":5886:5967   */\n      tag_225\n      jumpi\n        /* \"#utility.yul\":5952:5956   */\n      0x7f\n        /* \"#utility.yul\":5944:5950   */\n      dup3\n        /* \"#utility.yul\":5940:5957   */\n      and\n        /* \"#utility.yul\":5930:5957   */\n      swap2\n      pop\n        /* \"#utility.yul\":5886:5967   */\n    tag_225:\n        /* \"#utility.yul\":6014:6016   */\n      0x20\n        /* \"#utility.yul\":6006:6012   */\n      dup3\n        /* \"#utility.yul\":6003:6017   */\n      lt\n        /* \"#utility.yul\":5983:6001   */\n      dup2\n        /* \"#utility.yul\":5980:6018   */\n      sub\n        /* \"#utility.yul\":5977:6061   */\n      tag_226\n      jumpi\n        /* \"#utility.yul\":6033:6051   */\n      tag_227\n      tag_155\n      jump\t// in\n    tag_227:\n        /* \"#utility.yul\":5977:6061   */\n    tag_226:\n        /* \"#utility.yul\":5798:6067   */\n      pop\n        /* \"#utility.yul\":5747:6067   */\n      swap2\n      swap1\n      pop\n      jump\t// out\n        /* \"#utility.yul\":6073:6310   */\n    tag_156:\n        /* \"#utility.yul\":6213:6247   */\n      0x546f6b656e7320617265206c6f636b656420756e74696c2074686520756e6c6f\n        /* \"#utility.yul\":6209:6210   */\n      0x00\n        /* \"#utility.yul\":6201:6207   */\n      dup3\n        /* \"#utility.yul\":6197:6211   */\n      add\n        /* \"#utility.yul\":6190:6248   */\n      mstore\n        /* \"#utility.yul\":6282:6302   */\n      0x636b2074696d6520686173207061737365640000000000000000000000000000\n        /* \"#utility.yul\":6277:6279   */\n      0x20\n        /* \"#utility.yul\":6269:6275   */\n      dup3\n        /* \"#utility.yul\":6265:6280   */\n      add\n        /* \"#utility.yul\":6258:6303   */\n      mstore\n        /* \"#utility.yul\":6073:6310   */\n      pop\n      jump\t// out\n        /* \"#utility.yul\":6316:6682   */\n    tag_157:\n        /* \"#utility.yul\":6458:6461   */\n      0x00\n        /* \"#utility.yul\":6479:6546   */\n      tag_230\n        /* \"#utility.yul\":6543:6545   */\n      0x32\n        /* \"#utility.yul\":6538:6541   */\n      dup4\n        /* \"#utility.yul\":6479:6546   */\n      tag_136\n      jump\t// in\n    tag_230:\n        /* \"#utility.yul\":6472:6546   */\n      swap2\n      pop\n        /* \"#utility.yul\":6555:6648   */\n      tag_231\n        /* \"#utility.yul\":6644:6647   */\n      dup3\n        /* \"#utility.yul\":6555:6648   */\n      tag_156\n      jump\t// in\n    tag_231:\n        /* \"#utility.yul\":6673:6675   */\n      0x40\n        /* \"#utility.yul\":6668:6671   */\n      dup3\n        /* \"#utility.yul\":6664:6676   */\n      add\n        /* \"#utility.yul\":6657:6676   */\n      swap1\n      pop\n        /* \"#utility.yul\":6316:6682   */\n      swap2\n      swap1\n      pop\n      jump\t// out\n        /* \"#utility.yul\":6688:7107   */\n    tag_73:\n        /* \"#utility.yul\":6854:6858   */\n      0x00\n        /* \"#utility.yul\":6892:6894   */\n      0x20\n        /* \"#utility.yul\":6881:6890   */\n      dup3\n        /* \"#utility.yul\":6877:6895   */\n      add\n        /* \"#utility.yul\":6869:6895   */\n      swap1\n      pop\n        /* \"#utility.yul\":6941:6950   */\n      dup2\n        /* \"#utility.yul\":6935:6939   */\n      dup2\n        /* \"#utility.yul\":6931:6951   */\n      sub\n        /* \"#utility.yul\":6927:6928   */\n      0x00\n        /* \"#utility.yul\":6916:6925   */\n      dup4\n        /* \"#utility.yul\":6912:6929   */\n      add\n        /* \"#utility.yul\":6905:6952   */\n      mstore\n        /* \"#utility.yul\":6969:7100   */\n      tag_233\n        /* \"#utility.yul\":7095:7099   */\n      dup2\n        /* \"#utility.yul\":6969:7100   */\n      tag_157\n      jump\t// in\n    tag_233:\n        /* \"#utility.yul\":6961:7100   */\n      swap1\n      pop\n        /* \"#utility.yul\":6688:7107   */\n      swap2\n      swap1\n      pop\n      jump\t// out\n        /* \"#utility.yul\":7113:7231   */\n    tag_158:\n        /* \"#utility.yul\":7200:7224   */\n      tag_235\n        /* \"#utility.yul\":7218:7223   */\n      dup2\n        /* \"#utility.yul\":7200:7224   */\n      tag_144\n      jump\t// in\n    tag_235:\n        /* \"#utility.yul\":7195:7198   */\n      dup3\n        /* \"#utility.yul\":7188:7225   */\n      mstore\n        /* \"#utility.yul\":7113:7231   */\n      pop\n      pop\n      jump\t// out\n        /* \"#utility.yul\":7237:7459   */\n    tag_106:\n        /* \"#utility.yul\":7330:7334   */\n      0x00\n        /* \"#utility.yul\":7368:7370   */\n      0x20\n        /* \"#utility.yul\":7357:7366   */\n      dup3\n        /* \"#utility.yul\":7353:7371   */\n      add\n        /* \"#utility.yul\":7345:7371   */\n      swap1\n      pop\n        /* \"#utility.yul\":7381:7452   */\n      tag_237\n        /* \"#utility.yul\":7449:7450   */\n      0x00\n        /* \"#utility.yul\":7438:7447   */\n      dup4\n        /* \"#utility.yul\":7434:7451   */\n      add\n        /* \"#utility.yul\":7425:7431   */\n      dup5\n        /* \"#utility.yul\":7381:7452   */\n      tag_158\n      jump\t// in\n    tag_237:\n        /* \"#utility.yul\":7237:7459   */\n      swap3\n      swap2\n      pop\n      pop\n      jump\t// out\n        /* \"#utility.yul\":7465:7907   */\n    tag_116:\n        /* \"#utility.yul\":7614:7618   */\n      0x00\n        /* \"#utility.yul\":7652:7654   */\n      0x60\n        /* \"#utility.yul\":7641:7650   */\n      dup3\n        /* \"#utility.yul\":7637:7655   */\n      add\n        /* \"#utility.yul\":7629:7655   */\n      swap1\n      pop\n        /* \"#utility.yul\":7665:7736   */\n      tag_239\n        /* \"#utility.yul\":7733:7734   */\n      0x00\n        /* \"#utility.yul\":7722:7731   */\n      dup4\n        /* \"#utility.yul\":7718:7735   */\n      add\n        /* \"#utility.yul\":7709:7715   */\n      dup7\n        /* \"#utility.yul\":7665:7736   */\n      tag_158\n      jump\t// in\n    tag_239:\n        /* \"#utility.yul\":7746:7818   */\n      tag_240\n        /* \"#utility.yul\":7814:7816   */\n      0x20\n        /* \"#utility.yul\":7803:7812   */\n      dup4\n        /* \"#utility.yul\":7799:7817   */\n      add\n        /* \"#utility.yul\":7790:7796   */\n      dup6\n        /* \"#utility.yul\":7746:7818   */\n      tag_152\n      jump\t// in\n    tag_240:\n        /* \"#utility.yul\":7828:7900   */\n      tag_241\n        /* \"#utility.yul\":7896:7898   */\n      0x40\n        /* \"#utility.yul\":7885:7894   */\n      dup4\n        /* \"#utility.yul\":7881:7899   */\n      add\n        /* \"#utility.yul\":7872:7878   */\n      dup5\n        /* \"#utility.yul\":7828:7900   */\n      tag_152\n      jump\t// in\n    tag_241:\n        /* \"#utility.yul\":7465:7907   */\n      swap5\n      swap4\n      pop\n      pop\n      pop\n      pop\n      jump\t// out\n        /* \"#utility.yul\":7913:8093   */\n    tag_159:\n        /* \"#utility.yul\":7961:8038   */\n      0x4e487b7100000000000000000000000000000000000000000000000000000000\n        /* \"#utility.yul\":7958:7959   */\n      0x00\n        /* \"#utility.yul\":7951:8039   */\n      mstore\n        /* \"#utility.yul\":8058:8062   */\n      0x11\n        /* \"#utility.yul\":8055:8056   */\n      0x04\n        /* \"#utility.yul\":8048:8063   */\n      mstore\n        /* \"#utility.yul\":8082:8086   */\n      0x24\n        /* \"#utility.yul\":8079:8080   */\n      0x00\n        /* \"#utility.yul\":8072:8087   */\n      revert\n        /* \"#utility.yul\":8099:8290   */\n    tag_128:\n        /* \"#utility.yul\":8139:8142   */\n      0x00\n        /* \"#utility.yul\":8158:8178   */\n      tag_244\n        /* \"#utility.yul\":8176:8177   */\n      dup3\n        /* \"#utility.yul\":8158:8178   */\n      tag_147\n      jump\t// in\n    tag_244:\n        /* \"#utility.yul\":8153:8178   */\n      swap2\n      pop\n        /* \"#utility.yul\":8192:8212   */\n      tag_245\n        /* \"#utility.yul\":8210:8211   */\n      dup4\n        /* \"#utility.yul\":8192:8212   */\n      tag_147\n      jump\t// in\n    tag_245:\n        /* \"#utility.yul\":8187:8212   */\n      swap3\n      pop\n        /* \"#utility.yul\":8235:8236   */\n      dup3\n        /* \"#utility.yul\":8232:8233   */\n      dup3\n        /* \"#utility.yul\":8228:8237   */\n      add\n        /* \"#utility.yul\":8221:8237   */\n      swap1\n      pop\n        /* \"#utility.yul\":8256:8259   */\n      dup1\n        /* \"#utility.yul\":8253:8254   */\n      dup3\n        /* \"#utility.yul\":8250:8260   */\n      gt\n        /* \"#utility.yul\":8247:8283   */\n      iszero\n      tag_246\n      jumpi\n        /* \"#utility.yul\":8263:8281   */\n      tag_247\n      tag_159\n      jump\t// in\n    tag_247:\n        /* \"#utility.yul\":8247:8283   */\n    tag_246:\n        /* \"#utility.yul\":8099:8290   */\n      swap3\n      swap2\n      pop\n      pop\n      jump\t// out\n\n    auxdata: 0xa26469706673582212203933eee64e931878bddd6c48dcb998b12d0280746a0b35e39e0a03f80703c21064736f6c634300081a0033\n}\n",
				"bytecode": {
					"linkReferences": {},
					"object": "608060405234801561000f575f80fd5b5060405161195f38038061195f833981810160405281019061003191906103e9565b6040518060400160405280600f81526020017f54696d654c6f636b6564546f6b656e00000000000000000000000000000000008152506040518060400160405280600381526020017f544c54000000000000000000000000000000000000000000000000000000000081525081600390816100ac9190610658565b5080600490816100bc9190610658565b5050506100f3336100d161010c60201b60201c565b600a6100dd919061088f565b846100e891906108d9565b61011460201b60201c565b80426100ff919061091a565b6005819055505050610a02565b5f6012905090565b5f73ffffffffffffffffffffffffffffffffffffffff168273ffffffffffffffffffffffffffffffffffffffff1603610184575f6040517fec442f0500000000000000000000000000000000000000000000000000000000815260040161017b919061098c565b60405180910390fd5b6101955f838361019960201b60201c565b5050565b5f73ffffffffffffffffffffffffffffffffffffffff168373ffffffffffffffffffffffffffffffffffffffff16036101e9578060025f8282546101dd919061091a565b925050819055506102b7565b5f805f8573ffffffffffffffffffffffffffffffffffffffff1673ffffffffffffffffffffffffffffffffffffffff1681526020019081526020015f2054905081811015610272578381836040517fe450d38c000000000000000000000000000000000000000000000000000000008152600401610269939291906109b4565b60405180910390fd5b8181035f808673ffffffffffffffffffffffffffffffffffffffff1673ffffffffffffffffffffffffffffffffffffffff1681526020019081526020015f2081905550505b5f73ffffffffffffffffffffffffffffffffffffffff168273ffffffffffffffffffffffffffffffffffffffff16036102fe578060025f8282540392505081905550610348565b805f808473ffffffffffffffffffffffffffffffffffffffff1673ffffffffffffffffffffffffffffffffffffffff1681526020019081526020015f205f82825401925050819055505b8173ffffffffffffffffffffffffffffffffffffffff168373ffffffffffffffffffffffffffffffffffffffff167fddf252ad1be2c89b69c2b068fc378daa952ba7f163c4a11628f55a4df523b3ef836040516103a591906109e9565b60405180910390a3505050565b5f80fd5b5f819050919050565b6103c8816103b6565b81146103d2575f80fd5b50565b5f815190506103e3816103bf565b92915050565b5f80604083850312156103ff576103fe6103b2565b5b5f61040c858286016103d5565b925050602061041d858286016103d5565b9150509250929050565b5f81519050919050565b7f4e487b71000000000000000000000000000000000000000000000000000000005f52604160045260245ffd5b7f4e487b71000000000000000000000000000000000000000000000000000000005f52602260045260245ffd5b5f60028204905060018216806104a257607f821691505b6020821081036104b5576104b461045e565b5b50919050565b5f819050815f5260205f209050919050565b5f6020601f8301049050919050565b5f82821b905092915050565b5f600883026105177fffffffffffffffffffffffffffffffffffffffffffffffffffffffffffffffff826104dc565b61052186836104dc565b95508019841693508086168417925050509392505050565b5f819050919050565b5f61055c610557610552846103b6565b610539565b6103b6565b9050919050565b5f819050919050565b61057583610542565b61058961058182610563565b8484546104e8565b825550505050565b5f90565b61059d610591565b6105a881848461056c565b505050565b5b818110156105cb576105c05f82610595565b6001810190506105ae565b5050565b601f821115610610576105e1816104bb565b6105ea846104cd565b810160208510156105f9578190505b61060d610605856104cd565b8301826105ad565b50505b505050565b5f82821c905092915050565b5f6106305f1984600802610615565b1980831691505092915050565b5f6106488383610621565b9150826002028217905092915050565b61066182610427565b67ffffffffffffffff81111561067a57610679610431565b5b610684825461048b565b61068f8282856105cf565b5f60209050601f8311600181146106c0575f84156106ae578287015190505b6106b8858261063d565b86555061071f565b601f1984166106ce866104bb565b5f5b828110156106f5578489015182556001820191506020850194506020810190506106d0565b86831015610712578489015161070e601f891682610621565b8355505b6001600288020188555050505b505050505050565b7f4e487b71000000000000000000000000000000000000000000000000000000005f52601160045260245ffd5b5f8160011c9050919050565b5f808291508390505b60018511156107a95780860481111561078557610784610727565b5b60018516156107945780820291505b80810290506107a285610754565b9450610769565b94509492505050565b5f826107c1576001905061087c565b816107ce575f905061087c565b81600181146107e457600281146107ee5761081d565b600191505061087c565b60ff841115610800576107ff610727565b5b8360020a91508482111561081757610816610727565b5b5061087c565b5060208310610133831016604e8410600b84101617156108525782820a90508381111561084d5761084c610727565b5b61087c565b61085f8484846001610760565b9250905081840481111561087657610875610727565b5b81810290505b9392505050565b5f60ff82169050919050565b5f610899826103b6565b91506108a483610883565b92506108d17fffffffffffffffffffffffffffffffffffffffffffffffffffffffffffffffff84846107b2565b905092915050565b5f6108e3826103b6565b91506108ee836103b6565b92508282026108fc816103b6565b9150828204841483151761091357610912610727565b5b5092915050565b5f610924826103b6565b915061092f836103b6565b925082820190508082111561094757610946610727565b5b92915050565b5f73ffffffffffffffffffffffffffffffffffffffff82169050919050565b5f6109768261094d565b9050919050565b6109868161096c565b82525050565b5f60208201905061099f5f83018461097d565b92915050565b6109ae816103b6565b82525050565b5f6060820190506109c75f83018661097d565b6109d460208301856109a5565b6109e160408301846109a5565b949350505050565b5f6020820190506109fc5f8301846109a5565b92915050565b610f5080610a0f5f395ff3fe608060405234801561000f575f80fd5b506004361061009c575f3560e01c8063313ce56711610064578063313ce5671461015a57806370a082311461017857806395d89b41146101a8578063a9059cbb146101c6578063dd62ed3e146101f65761009c565b806306fdde03146100a0578063095ea7b3146100be57806318160ddd146100ee57806323b872dd1461010c578063251c1aa31461013c575b5f80fd5b6100a8610226565b6040516100b59190610b3b565b60405180910390f35b6100d860048036038101906100d39190610bec565b6102b6565b6040516100e59190610c44565b60405180910390f35b6100f66102d8565b6040516101039190610c6c565b60405180910390f35b61012660048036038101906101219190610c85565b6102e1565b6040516101339190610c44565b60405180910390f35b61014461033b565b6040516101519190610c6c565b60405180910390f35b610162610341565b60405161016f9190610cf0565b60405180910390f35b610192600480360381019061018d9190610d09565b610349565b60405161019f9190610c6c565b60405180910390f35b6101b061038e565b6040516101bd9190610b3b565b60405180910390f35b6101e060048036038101906101db9190610bec565b61041e565b6040516101ed9190610c44565b60405180910390f35b610210600480360381019061020b9190610d34565b610476565b60405161021d9190610c6c565b60405180910390f35b60606003805461023590610d9f565b80601f016020809104026020016040519081016040528092919081815260200182805461026190610d9f565b80156102ac5780601f10610283576101008083540402835291602001916102ac565b820191905f5260205f20905b81548152906001019060200180831161028f57829003601f168201915b5050505050905090565b5f806102c06104f8565b90506102cd8185856104ff565b600191505092915050565b5f600254905090565b5f600554421015610327576040517f08c379a000000000000000000000000000000000000000000000000000000000815260040161031e90610e3f565b60405180910390fd5b610332848484610511565b90509392505050565b60055481565b5f6012905090565b5f805f8373ffffffffffffffffffffffffffffffffffffffff1673ffffffffffffffffffffffffffffffffffffffff1681526020019081526020015f20549050919050565b60606004805461039d90610d9f565b80601f01602080910402602001604051908101604052809291908181526020018280546103c990610d9f565b80156104145780601f106103eb57610100808354040283529160200191610414565b820191905f5260205f20905b8154815290600101906020018083116103f757829003601f168201915b5050505050905090565b5f600554421015610464576040517f08c379a000000000000000000000000000000000000000000000000000000000815260040161045b90610e3f565b60405180910390fd5b61046e838361053f565b905092915050565b5f60015f8473ffffffffffffffffffffffffffffffffffffffff1673ffffffffffffffffffffffffffffffffffffffff1681526020019081526020015f205f8373ffffffffffffffffffffffffffffffffffffffff1673ffffffffffffffffffffffffffffffffffffffff1681526020019081526020015f2054905092915050565b5f33905090565b61050c8383836001610561565b505050565b5f8061051b6104f8565b9050610528858285610730565b6105338585856107c2565b60019150509392505050565b5f806105496104f8565b90506105568185856107c2565b600191505092915050565b5f73ffffffffffffffffffffffffffffffffffffffff168473ffffffffffffffffffffffffffffffffffffffff16036105d1575f6040517fe602df050000000000000000000000000000000000000000000000000000000081526004016105c89190610e6c565b60405180910390fd5b5f73ffffffffffffffffffffffffffffffffffffffff168373ffffffffffffffffffffffffffffffffffffffff1603610641575f6040517f94280d620000000000000000000000000000000000000000000000000000000081526004016106389190610e6c565b60405180910390fd5b8160015f8673ffffffffffffffffffffffffffffffffffffffff1673ffffffffffffffffffffffffffffffffffffffff1681526020019081526020015f205f8573ffffffffffffffffffffffffffffffffffffffff1673ffffffffffffffffffffffffffffffffffffffff1681526020019081526020015f2081905550801561072a578273ffffffffffffffffffffffffffffffffffffffff168473ffffffffffffffffffffffffffffffffffffffff167f8c5be1e5ebec7d5bd14f71427d1e84f3dd0314c0f7b2291e5b200ac8c7c3b925846040516107219190610c6c565b60405180910390a35b50505050565b5f61073b8484610476565b90507fffffffffffffffffffffffffffffffffffffffffffffffffffffffffffffffff81146107bc57818110156107ad578281836040517ffb8f41b20000000000000000000000000000000000000000000000000000000081526004016107a493929190610e85565b60405180910390fd5b6107bb84848484035f610561565b5b50505050565b5f73ffffffffffffffffffffffffffffffffffffffff168373ffffffffffffffffffffffffffffffffffffffff1603610832575f6040517f96c6fd1e0000000000000000000000000000000000000000000000000000000081526004016108299190610e6c565b60405180910390fd5b5f73ffffffffffffffffffffffffffffffffffffffff168273ffffffffffffffffffffffffffffffffffffffff16036108a2575f6040517fec442f050000000000000000000000000000000000000000000000000000000081526004016108999190610e6c565b60405180910390fd5b6108ad8383836108b2565b505050565b5f73ffffffffffffffffffffffffffffffffffffffff168373ffffffffffffffffffffffffffffffffffffffff1603610902578060025f8282546108f69190610ee7565b925050819055506109d0565b5f805f8573ffffffffffffffffffffffffffffffffffffffff1673ffffffffffffffffffffffffffffffffffffffff1681526020019081526020015f205490508181101561098b578381836040517fe450d38c00000000000000000000000000000000000000000000000000000000815260040161098293929190610e85565b60405180910390fd5b8181035f808673ffffffffffffffffffffffffffffffffffffffff1673ffffffffffffffffffffffffffffffffffffffff1681526020019081526020015f2081905550505b5f73ffffffffffffffffffffffffffffffffffffffff168273ffffffffffffffffffffffffffffffffffffffff1603610a17578060025f8282540392505081905550610a61565b805f808473ffffffffffffffffffffffffffffffffffffffff1673ffffffffffffffffffffffffffffffffffffffff1681526020019081526020015f205f82825401925050819055505b8173ffffffffffffffffffffffffffffffffffffffff168373ffffffffffffffffffffffffffffffffffffffff167fddf252ad1be2c89b69c2b068fc378daa952ba7f163c4a11628f55a4df523b3ef83604051610abe9190610c6c565b60405180910390a3505050565b5f81519050919050565b5f82825260208201905092915050565b8281835e5f83830152505050565b5f601f19601f8301169050919050565b5f610b0d82610acb565b610b178185610ad5565b9350610b27818560208601610ae5565b610b3081610af3565b840191505092915050565b5f6020820190508181035f830152610b538184610b03565b905092915050565b5f80fd5b5f73ffffffffffffffffffffffffffffffffffffffff82169050919050565b5f610b8882610b5f565b9050919050565b610b9881610b7e565b8114610ba2575f80fd5b50565b5f81359050610bb381610b8f565b92915050565b5f819050919050565b610bcb81610bb9565b8114610bd5575f80fd5b50565b5f81359050610be681610bc2565b92915050565b5f8060408385031215610c0257610c01610b5b565b5b5f610c0f85828601610ba5565b9250506020610c2085828601610bd8565b9150509250929050565b5f8115159050919050565b610c3e81610c2a565b82525050565b5f602082019050610c575f830184610c35565b92915050565b610c6681610bb9565b82525050565b5f602082019050610c7f5f830184610c5d565b92915050565b5f805f60608486031215610c9c57610c9b610b5b565b5b5f610ca986828701610ba5565b9350506020610cba86828701610ba5565b9250506040610ccb86828701610bd8565b9150509250925092565b5f60ff82169050919050565b610cea81610cd5565b82525050565b5f602082019050610d035f830184610ce1565b92915050565b5f60208284031215610d1e57610d1d610b5b565b5b5f610d2b84828501610ba5565b91505092915050565b5f8060408385031215610d4a57610d49610b5b565b5b5f610d5785828601610ba5565b9250506020610d6885828601610ba5565b9150509250929050565b7f4e487b71000000000000000000000000000000000000000000000000000000005f52602260045260245ffd5b5f6002820490506001821680610db657607f821691505b602082108103610dc957610dc8610d72565b5b50919050565b7f546f6b656e7320617265206c6f636b656420756e74696c2074686520756e6c6f5f8201527f636b2074696d6520686173207061737365640000000000000000000000000000602082015250565b5f610e29603283610ad5565b9150610e3482610dcf565b604082019050919050565b5f6020820190508181035f830152610e5681610e1d565b9050919050565b610e6681610b7e565b82525050565b5f602082019050610e7f5f830184610e5d565b92915050565b5f606082019050610e985f830186610e5d565b610ea56020830185610c5d565b610eb26040830184610c5d565b949350505050565b7f4e487b71000000000000000000000000000000000000000000000000000000005f52601160045260245ffd5b5f610ef182610bb9565b9150610efc83610bb9565b9250828201905080821115610f1457610f13610eba565b5b9291505056fea26469706673582212203933eee64e931878bddd6c48dcb998b12d0280746a0b35e39e0a03f80703c21064736f6c634300081a0033",
					"opcodes": "PUSH1 0x80 PUSH1 0x40 MSTORE CALLVALUE DUP1 ISZERO PUSH2 0xF JUMPI PUSH0 DUP1 REVERT JUMPDEST POP PUSH1 0x40 MLOAD PUSH2 0x195F CODESIZE SUB DUP1 PUSH2 0x195F DUP4 CODECOPY DUP2 DUP2 ADD PUSH1 0x40 MSTORE DUP2 ADD SWAP1 PUSH2 0x31 SWAP2 SWAP1 PUSH2 0x3E9 JUMP JUMPDEST PUSH1 0x40 MLOAD DUP1 PUSH1 0x40 ADD PUSH1 0x40 MSTORE DUP1 PUSH1 0xF DUP2 MSTORE PUSH1 0x20 ADD PUSH32 0x54696D654C6F636B6564546F6B656E0000000000000000000000000000000000 DUP2 MSTORE POP PUSH1 0x40 MLOAD DUP1 PUSH1 0x40 ADD PUSH1 0x40 MSTORE DUP1 PUSH1 0x3 DUP2 MSTORE PUSH1 0x20 ADD PUSH32 0x544C540000000000000000000000000000000000000000000000000000000000 DUP2 MSTORE POP DUP2 PUSH1 0x3 SWAP1 DUP2 PUSH2 0xAC SWAP2 SWAP1 PUSH2 0x658 JUMP JUMPDEST POP DUP1 PUSH1 0x4 SWAP1 DUP2 PUSH2 0xBC SWAP2 SWAP1 PUSH2 0x658 JUMP JUMPDEST POP POP POP PUSH2 0xF3 CALLER PUSH2 0xD1 PUSH2 0x10C PUSH1 0x20 SHL PUSH1 0x20 SHR JUMP JUMPDEST PUSH1 0xA PUSH2 0xDD SWAP2 SWAP1 PUSH2 0x88F JUMP JUMPDEST DUP5 PUSH2 0xE8 SWAP2 SWAP1 PUSH2 0x8D9 JUMP JUMPDEST PUSH2 0x114 PUSH1 0x20 SHL PUSH1 0x20 SHR JUMP JUMPDEST DUP1 TIMESTAMP PUSH2 0xFF SWAP2 SWAP1 PUSH2 0x91A JUMP JUMPDEST PUSH1 0x5 DUP2 SWAP1 SSTORE POP POP POP PUSH2 0xA02 JUMP JUMPDEST PUSH0 PUSH1 0x12 SWAP1 POP SWAP1 JUMP JUMPDEST PUSH0 PUSH20 0xFFFFFFFFFFFFFFFFFFFFFFFFFFFFFFFFFFFFFFFF AND DUP3 PUSH20 0xFFFFFFFFFFFFFFFFFFFFFFFFFFFFFFFFFFFFFFFF AND SUB PUSH2 0x184 JUMPI PUSH0 PUSH1 0x40 MLOAD PUSH32 0xEC442F0500000000000000000000000000000000000000000000000000000000 DUP2 MSTORE PUSH1 0x4 ADD PUSH2 0x17B SWAP2 SWAP1 PUSH2 0x98C JUMP JUMPDEST PUSH1 0x40 MLOAD DUP1 SWAP2 SUB SWAP1 REVERT JUMPDEST PUSH2 0x195 PUSH0 DUP4 DUP4 PUSH2 0x199 PUSH1 0x20 SHL PUSH1 0x20 SHR JUMP JUMPDEST POP POP JUMP JUMPDEST PUSH0 PUSH20 0xFFFFFFFFFFFFFFFFFFFFFFFFFFFFFFFFFFFFFFFF AND DUP4 PUSH20 0xFFFFFFFFFFFFFFFFFFFFFFFFFFFFFFFFFFFFFFFF AND SUB PUSH2 0x1E9 JUMPI DUP1 PUSH1 0x2 PUSH0 DUP3 DUP3 SLOAD PUSH2 0x1DD SWAP2 SWAP1 PUSH2 0x91A JUMP JUMPDEST SWAP3 POP POP DUP2 SWAP1 SSTORE POP PUSH2 0x2B7 JUMP JUMPDEST PUSH0 DUP1 PUSH0 DUP6 PUSH20 0xFFFFFFFFFFFFFFFFFFFFFFFFFFFFFFFFFFFFFFFF AND PUSH20 0xFFFFFFFFFFFFFFFFFFFFFFFFFFFFFFFFFFFFFFFF AND DUP2 MSTORE PUSH1 0x20 ADD SWAP1 DUP2 MSTORE PUSH1 0x20 ADD PUSH0 KECCAK256 SLOAD SWAP1 POP DUP2 DUP2 LT ISZERO PUSH2 0x272 JUMPI DUP4 DUP2 DUP4 PUSH1 0x40 MLOAD PUSH32 0xE450D38C00000000000000000000000000000000000000000000000000000000 DUP2 MSTORE PUSH1 0x4 ADD PUSH2 0x269 SWAP4 SWAP3 SWAP2 SWAP1 PUSH2 0x9B4 JUMP JUMPDEST PUSH1 0x40 MLOAD DUP1 SWAP2 SUB SWAP1 REVERT JUMPDEST DUP2 DUP2 SUB PUSH0 DUP1 DUP7 PUSH20 0xFFFFFFFFFFFFFFFFFFFFFFFFFFFFFFFFFFFFFFFF AND PUSH20 0xFFFFFFFFFFFFFFFFFFFFFFFFFFFFFFFFFFFFFFFF AND DUP2 MSTORE PUSH1 0x20 ADD SWAP1 DUP2 MSTORE PUSH1 0x20 ADD PUSH0 KECCAK256 DUP2 SWAP1 SSTORE POP POP JUMPDEST PUSH0 PUSH20 0xFFFFFFFFFFFFFFFFFFFFFFFFFFFFFFFFFFFFFFFF AND DUP3 PUSH20 0xFFFFFFFFFFFFFFFFFFFFFFFFFFFFFFFFFFFFFFFF AND SUB PUSH2 0x2FE JUMPI DUP1 PUSH1 0x2 PUSH0 DUP3 DUP3 SLOAD SUB SWAP3 POP POP DUP2 SWAP1 SSTORE POP PUSH2 0x348 JUMP JUMPDEST DUP1 PUSH0 DUP1 DUP5 PUSH20 0xFFFFFFFFFFFFFFFFFFFFFFFFFFFFFFFFFFFFFFFF AND PUSH20 0xFFFFFFFFFFFFFFFFFFFFFFFFFFFFFFFFFFFFFFFF AND DUP2 MSTORE PUSH1 0x20 ADD SWAP1 DUP2 MSTORE PUSH1 0x20 ADD PUSH0 KECCAK256 PUSH0 DUP3 DUP3 SLOAD ADD SWAP3 POP POP DUP2 SWAP1 SSTORE POP JUMPDEST DUP2 PUSH20 0xFFFFFFFFFFFFFFFFFFFFFFFFFFFFFFFFFFFFFFFF AND DUP4 PUSH20 0xFFFFFFFFFFFFFFFFFFFFFFFFFFFFFFFFFFFFFFFF AND PUSH32 0xDDF252AD1BE2C89B69C2B068FC378DAA952BA7F163C4A11628F55A4DF523B3EF DUP4 PUSH1 0x40 MLOAD PUSH2 0x3A5 SWAP2 SWAP1 PUSH2 0x9E9 JUMP JUMPDEST PUSH1 0x40 MLOAD DUP1 SWAP2 SUB SWAP1 LOG3 POP POP POP JUMP JUMPDEST PUSH0 DUP1 REVERT JUMPDEST PUSH0 DUP2 SWAP1 POP SWAP2 SWAP1 POP JUMP JUMPDEST PUSH2 0x3C8 DUP2 PUSH2 0x3B6 JUMP JUMPDEST DUP2 EQ PUSH2 0x3D2 JUMPI PUSH0 DUP1 REVERT JUMPDEST POP JUMP JUMPDEST PUSH0 DUP2 MLOAD SWAP1 POP PUSH2 0x3E3 DUP2 PUSH2 0x3BF JUMP JUMPDEST SWAP3 SWAP2 POP POP JUMP JUMPDEST PUSH0 DUP1 PUSH1 0x40 DUP4 DUP6 SUB SLT ISZERO PUSH2 0x3FF JUMPI PUSH2 0x3FE PUSH2 0x3B2 JUMP JUMPDEST JUMPDEST PUSH0 PUSH2 0x40C DUP6 DUP3 DUP7 ADD PUSH2 0x3D5 JUMP JUMPDEST SWAP3 POP POP PUSH1 0x20 PUSH2 0x41D DUP6 DUP3 DUP7 ADD PUSH2 0x3D5 JUMP JUMPDEST SWAP2 POP POP SWAP3 POP SWAP3 SWAP1 POP JUMP JUMPDEST PUSH0 DUP2 MLOAD SWAP1 POP SWAP2 SWAP1 POP JUMP JUMPDEST PUSH32 0x4E487B7100000000000000000000000000000000000000000000000000000000 PUSH0 MSTORE PUSH1 0x41 PUSH1 0x4 MSTORE PUSH1 0x24 PUSH0 REVERT JUMPDEST PUSH32 0x4E487B7100000000000000000000000000000000000000000000000000000000 PUSH0 MSTORE PUSH1 0x22 PUSH1 0x4 MSTORE PUSH1 0x24 PUSH0 REVERT JUMPDEST PUSH0 PUSH1 0x2 DUP3 DIV SWAP1 POP PUSH1 0x1 DUP3 AND DUP1 PUSH2 0x4A2 JUMPI PUSH1 0x7F DUP3 AND SWAP2 POP JUMPDEST PUSH1 0x20 DUP3 LT DUP2 SUB PUSH2 0x4B5 JUMPI PUSH2 0x4B4 PUSH2 0x45E JUMP JUMPDEST JUMPDEST POP SWAP2 SWAP1 POP JUMP JUMPDEST PUSH0 DUP2 SWAP1 POP DUP2 PUSH0 MSTORE PUSH1 0x20 PUSH0 KECCAK256 SWAP1 POP SWAP2 SWAP1 POP JUMP JUMPDEST PUSH0 PUSH1 0x20 PUSH1 0x1F DUP4 ADD DIV SWAP1 POP SWAP2 SWAP1 POP JUMP JUMPDEST PUSH0 DUP3 DUP3 SHL SWAP1 POP SWAP3 SWAP2 POP POP JUMP JUMPDEST PUSH0 PUSH1 0x8 DUP4 MUL PUSH2 0x517 PUSH32 0xFFFFFFFFFFFFFFFFFFFFFFFFFFFFFFFFFFFFFFFFFFFFFFFFFFFFFFFFFFFFFFFF DUP3 PUSH2 0x4DC JUMP JUMPDEST PUSH2 0x521 DUP7 DUP4 PUSH2 0x4DC JUMP JUMPDEST SWAP6 POP DUP1 NOT DUP5 AND SWAP4 POP DUP1 DUP7 AND DUP5 OR SWAP3 POP POP POP SWAP4 SWAP3 POP POP POP JUMP JUMPDEST PUSH0 DUP2 SWAP1 POP SWAP2 SWAP1 POP JUMP JUMPDEST PUSH0 PUSH2 0x55C PUSH2 0x557 PUSH2 0x552 DUP5 PUSH2 0x3B6 JUMP JUMPDEST PUSH2 0x539 JUMP JUMPDEST PUSH2 0x3B6 JUMP JUMPDEST SWAP1 POP SWAP2 SWAP1 POP JUMP JUMPDEST PUSH0 DUP2 SWAP1 POP SWAP2 SWAP1 POP JUMP JUMPDEST PUSH2 0x575 DUP4 PUSH2 0x542 JUMP JUMPDEST PUSH2 0x589 PUSH2 0x581 DUP3 PUSH2 0x563 JUMP JUMPDEST DUP5 DUP5 SLOAD PUSH2 0x4E8 JUMP JUMPDEST DUP3 SSTORE POP POP POP POP JUMP JUMPDEST PUSH0 SWAP1 JUMP JUMPDEST PUSH2 0x59D PUSH2 0x591 JUMP JUMPDEST PUSH2 0x5A8 DUP2 DUP5 DUP5 PUSH2 0x56C JUMP JUMPDEST POP POP POP JUMP JUMPDEST JUMPDEST DUP2 DUP2 LT ISZERO PUSH2 0x5CB JUMPI PUSH2 0x5C0 PUSH0 DUP3 PUSH2 0x595 JUMP JUMPDEST PUSH1 0x1 DUP2 ADD SWAP1 POP PUSH2 0x5AE JUMP JUMPDEST POP POP JUMP JUMPDEST PUSH1 0x1F DUP3 GT ISZERO PUSH2 0x610 JUMPI PUSH2 0x5E1 DUP2 PUSH2 0x4BB JUMP JUMPDEST PUSH2 0x5EA DUP5 PUSH2 0x4CD JUMP JUMPDEST DUP2 ADD PUSH1 0x20 DUP6 LT ISZERO PUSH2 0x5F9 JUMPI DUP2 SWAP1 POP JUMPDEST PUSH2 0x60D PUSH2 0x605 DUP6 PUSH2 0x4CD JUMP JUMPDEST DUP4 ADD DUP3 PUSH2 0x5AD JUMP JUMPDEST POP POP JUMPDEST POP POP POP JUMP JUMPDEST PUSH0 DUP3 DUP3 SHR SWAP1 POP SWAP3 SWAP2 POP POP JUMP JUMPDEST PUSH0 PUSH2 0x630 PUSH0 NOT DUP5 PUSH1 0x8 MUL PUSH2 0x615 JUMP JUMPDEST NOT DUP1 DUP4 AND SWAP2 POP POP SWAP3 SWAP2 POP POP JUMP JUMPDEST PUSH0 PUSH2 0x648 DUP4 DUP4 PUSH2 0x621 JUMP JUMPDEST SWAP2 POP DUP3 PUSH1 0x2 MUL DUP3 OR SWAP1 POP SWAP3 SWAP2 POP POP JUMP JUMPDEST PUSH2 0x661 DUP3 PUSH2 0x427 JUMP JUMPDEST PUSH8 0xFFFFFFFFFFFFFFFF DUP2 GT ISZERO PUSH2 0x67A JUMPI PUSH2 0x679 PUSH2 0x431 JUMP JUMPDEST JUMPDEST PUSH2 0x684 DUP3 SLOAD PUSH2 0x48B JUMP JUMPDEST PUSH2 0x68F DUP3 DUP3 DUP6 PUSH2 0x5CF JUMP JUMPDEST PUSH0 PUSH1 0x20 SWAP1 POP PUSH1 0x1F DUP4 GT PUSH1 0x1 DUP2 EQ PUSH2 0x6C0 JUMPI PUSH0 DUP5 ISZERO PUSH2 0x6AE JUMPI DUP3 DUP8 ADD MLOAD SWAP1 POP JUMPDEST PUSH2 0x6B8 DUP6 DUP3 PUSH2 0x63D JUMP JUMPDEST DUP7 SSTORE POP PUSH2 0x71F JUMP JUMPDEST PUSH1 0x1F NOT DUP5 AND PUSH2 0x6CE DUP7 PUSH2 0x4BB JUMP JUMPDEST PUSH0 JUMPDEST DUP3 DUP2 LT ISZERO PUSH2 0x6F5 JUMPI DUP5 DUP10 ADD MLOAD DUP3 SSTORE PUSH1 0x1 DUP3 ADD SWAP2 POP PUSH1 0x20 DUP6 ADD SWAP5 POP PUSH1 0x20 DUP2 ADD SWAP1 POP PUSH2 0x6D0 JUMP JUMPDEST DUP7 DUP4 LT ISZERO PUSH2 0x712 JUMPI DUP5 DUP10 ADD MLOAD PUSH2 0x70E PUSH1 0x1F DUP10 AND DUP3 PUSH2 0x621 JUMP JUMPDEST DUP4 SSTORE POP JUMPDEST PUSH1 0x1 PUSH1 0x2 DUP9 MUL ADD DUP9 SSTORE POP POP POP JUMPDEST POP POP POP POP POP POP JUMP JUMPDEST PUSH32 0x4E487B7100000000000000000000000000000000000000000000000000000000 PUSH0 MSTORE PUSH1 0x11 PUSH1 0x4 MSTORE PUSH1 0x24 PUSH0 REVERT JUMPDEST PUSH0 DUP2 PUSH1 0x1 SHR SWAP1 POP SWAP2 SWAP1 POP JUMP JUMPDEST PUSH0 DUP1 DUP3 SWAP2 POP DUP4 SWAP1 POP JUMPDEST PUSH1 0x1 DUP6 GT ISZERO PUSH2 0x7A9 JUMPI DUP1 DUP7 DIV DUP2 GT ISZERO PUSH2 0x785 JUMPI PUSH2 0x784 PUSH2 0x727 JUMP JUMPDEST JUMPDEST PUSH1 0x1 DUP6 AND ISZERO PUSH2 0x794 JUMPI DUP1 DUP3 MUL SWAP2 POP JUMPDEST DUP1 DUP2 MUL SWAP1 POP PUSH2 0x7A2 DUP6 PUSH2 0x754 JUMP JUMPDEST SWAP5 POP PUSH2 0x769 JUMP JUMPDEST SWAP5 POP SWAP5 SWAP3 POP POP POP JUMP JUMPDEST PUSH0 DUP3 PUSH2 0x7C1 JUMPI PUSH1 0x1 SWAP1 POP PUSH2 0x87C JUMP JUMPDEST DUP2 PUSH2 0x7CE JUMPI PUSH0 SWAP1 POP PUSH2 0x87C JUMP JUMPDEST DUP2 PUSH1 0x1 DUP2 EQ PUSH2 0x7E4 JUMPI PUSH1 0x2 DUP2 EQ PUSH2 0x7EE JUMPI PUSH2 0x81D JUMP JUMPDEST PUSH1 0x1 SWAP2 POP POP PUSH2 0x87C JUMP JUMPDEST PUSH1 0xFF DUP5 GT ISZERO PUSH2 0x800 JUMPI PUSH2 0x7FF PUSH2 0x727 JUMP JUMPDEST JUMPDEST DUP4 PUSH1 0x2 EXP SWAP2 POP DUP5 DUP3 GT ISZERO PUSH2 0x817 JUMPI PUSH2 0x816 PUSH2 0x727 JUMP JUMPDEST JUMPDEST POP PUSH2 0x87C JUMP JUMPDEST POP PUSH1 0x20 DUP4 LT PUSH2 0x133 DUP4 LT AND PUSH1 0x4E DUP5 LT PUSH1 0xB DUP5 LT AND OR ISZERO PUSH2 0x852 JUMPI DUP3 DUP3 EXP SWAP1 POP DUP4 DUP2 GT ISZERO PUSH2 0x84D JUMPI PUSH2 0x84C PUSH2 0x727 JUMP JUMPDEST JUMPDEST PUSH2 0x87C JUMP JUMPDEST PUSH2 0x85F DUP5 DUP5 DUP5 PUSH1 0x1 PUSH2 0x760 JUMP JUMPDEST SWAP3 POP SWAP1 POP DUP2 DUP5 DIV DUP2 GT ISZERO PUSH2 0x876 JUMPI PUSH2 0x875 PUSH2 0x727 JUMP JUMPDEST JUMPDEST DUP2 DUP2 MUL SWAP1 POP JUMPDEST SWAP4 SWAP3 POP POP POP JUMP JUMPDEST PUSH0 PUSH1 0xFF DUP3 AND SWAP1 POP SWAP2 SWAP1 POP JUMP JUMPDEST PUSH0 PUSH2 0x899 DUP3 PUSH2 0x3B6 JUMP JUMPDEST SWAP2 POP PUSH2 0x8A4 DUP4 PUSH2 0x883 JUMP JUMPDEST SWAP3 POP PUSH2 0x8D1 PUSH32 0xFFFFFFFFFFFFFFFFFFFFFFFFFFFFFFFFFFFFFFFFFFFFFFFFFFFFFFFFFFFFFFFF DUP5 DUP5 PUSH2 0x7B2 JUMP JUMPDEST SWAP1 POP SWAP3 SWAP2 POP POP JUMP JUMPDEST PUSH0 PUSH2 0x8E3 DUP3 PUSH2 0x3B6 JUMP JUMPDEST SWAP2 POP PUSH2 0x8EE DUP4 PUSH2 0x3B6 JUMP JUMPDEST SWAP3 POP DUP3 DUP3 MUL PUSH2 0x8FC DUP2 PUSH2 0x3B6 JUMP JUMPDEST SWAP2 POP DUP3 DUP3 DIV DUP5 EQ DUP4 ISZERO OR PUSH2 0x913 JUMPI PUSH2 0x912 PUSH2 0x727 JUMP JUMPDEST JUMPDEST POP SWAP3 SWAP2 POP POP JUMP JUMPDEST PUSH0 PUSH2 0x924 DUP3 PUSH2 0x3B6 JUMP JUMPDEST SWAP2 POP PUSH2 0x92F DUP4 PUSH2 0x3B6 JUMP JUMPDEST SWAP3 POP DUP3 DUP3 ADD SWAP1 POP DUP1 DUP3 GT ISZERO PUSH2 0x947 JUMPI PUSH2 0x946 PUSH2 0x727 JUMP JUMPDEST JUMPDEST SWAP3 SWAP2 POP POP JUMP JUMPDEST PUSH0 PUSH20 0xFFFFFFFFFFFFFFFFFFFFFFFFFFFFFFFFFFFFFFFF DUP3 AND SWAP1 POP SWAP2 SWAP1 POP JUMP JUMPDEST PUSH0 PUSH2 0x976 DUP3 PUSH2 0x94D JUMP JUMPDEST SWAP1 POP SWAP2 SWAP1 POP JUMP JUMPDEST PUSH2 0x986 DUP2 PUSH2 0x96C JUMP JUMPDEST DUP3 MSTORE POP POP JUMP JUMPDEST PUSH0 PUSH1 0x20 DUP3 ADD SWAP1 POP PUSH2 0x99F PUSH0 DUP4 ADD DUP5 PUSH2 0x97D JUMP JUMPDEST SWAP3 SWAP2 POP POP JUMP JUMPDEST PUSH2 0x9AE DUP2 PUSH2 0x3B6 JUMP JUMPDEST DUP3 MSTORE POP POP JUMP JUMPDEST PUSH0 PUSH1 0x60 DUP3 ADD SWAP1 POP PUSH2 0x9C7 PUSH0 DUP4 ADD DUP7 PUSH2 0x97D JUMP JUMPDEST PUSH2 0x9D4 PUSH1 0x20 DUP4 ADD DUP6 PUSH2 0x9A5 JUMP JUMPDEST PUSH2 0x9E1 PUSH1 0x40 DUP4 ADD DUP5 PUSH2 0x9A5 JUMP JUMPDEST SWAP5 SWAP4 POP POP POP POP JUMP JUMPDEST PUSH0 PUSH1 0x20 DUP3 ADD SWAP1 POP PUSH2 0x9FC PUSH0 DUP4 ADD DUP5 PUSH2 0x9A5 JUMP JUMPDEST SWAP3 SWAP2 POP POP JUMP JUMPDEST PUSH2 0xF50 DUP1 PUSH2 0xA0F PUSH0 CODECOPY PUSH0 RETURN INVALID PUSH1 0x80 PUSH1 0x40 MSTORE CALLVALUE DUP1 ISZERO PUSH2 0xF JUMPI PUSH0 DUP1 REVERT JUMPDEST POP PUSH1 0x4 CALLDATASIZE LT PUSH2 0x9C JUMPI PUSH0 CALLDATALOAD PUSH1 0xE0 SHR DUP1 PUSH4 0x313CE567 GT PUSH2 0x64 JUMPI DUP1 PUSH4 0x313CE567 EQ PUSH2 0x15A JUMPI DUP1 PUSH4 0x70A08231 EQ PUSH2 0x178 JUMPI DUP1 PUSH4 0x95D89B41 EQ PUSH2 0x1A8 JUMPI DUP1 PUSH4 0xA9059CBB EQ PUSH2 0x1C6 JUMPI DUP1 PUSH4 0xDD62ED3E EQ PUSH2 0x1F6 JUMPI PUSH2 0x9C JUMP JUMPDEST DUP1 PUSH4 0x6FDDE03 EQ PUSH2 0xA0 JUMPI DUP1 PUSH4 0x95EA7B3 EQ PUSH2 0xBE JUMPI DUP1 PUSH4 0x18160DDD EQ PUSH2 0xEE JUMPI DUP1 PUSH4 0x23B872DD EQ PUSH2 0x10C JUMPI DUP1 PUSH4 0x251C1AA3 EQ PUSH2 0x13C JUMPI JUMPDEST PUSH0 DUP1 REVERT JUMPDEST PUSH2 0xA8 PUSH2 0x226 JUMP JUMPDEST PUSH1 0x40 MLOAD PUSH2 0xB5 SWAP2 SWAP1 PUSH2 0xB3B JUMP JUMPDEST PUSH1 0x40 MLOAD DUP1 SWAP2 SUB SWAP1 RETURN JUMPDEST PUSH2 0xD8 PUSH1 0x4 DUP1 CALLDATASIZE SUB DUP2 ADD SWAP1 PUSH2 0xD3 SWAP2 SWAP1 PUSH2 0xBEC JUMP JUMPDEST PUSH2 0x2B6 JUMP JUMPDEST PUSH1 0x40 MLOAD PUSH2 0xE5 SWAP2 SWAP1 PUSH2 0xC44 JUMP JUMPDEST PUSH1 0x40 MLOAD DUP1 SWAP2 SUB SWAP1 RETURN JUMPDEST PUSH2 0xF6 PUSH2 0x2D8 JUMP JUMPDEST PUSH1 0x40 MLOAD PUSH2 0x103 SWAP2 SWAP1 PUSH2 0xC6C JUMP JUMPDEST PUSH1 0x40 MLOAD DUP1 SWAP2 SUB SWAP1 RETURN JUMPDEST PUSH2 0x126 PUSH1 0x4 DUP1 CALLDATASIZE SUB DUP2 ADD SWAP1 PUSH2 0x121 SWAP2 SWAP1 PUSH2 0xC85 JUMP JUMPDEST PUSH2 0x2E1 JUMP JUMPDEST PUSH1 0x40 MLOAD PUSH2 0x133 SWAP2 SWAP1 PUSH2 0xC44 JUMP JUMPDEST PUSH1 0x40 MLOAD DUP1 SWAP2 SUB SWAP1 RETURN JUMPDEST PUSH2 0x144 PUSH2 0x33B JUMP JUMPDEST PUSH1 0x40 MLOAD PUSH2 0x151 SWAP2 SWAP1 PUSH2 0xC6C JUMP JUMPDEST PUSH1 0x40 MLOAD DUP1 SWAP2 SUB SWAP1 RETURN JUMPDEST PUSH2 0x162 PUSH2 0x341 JUMP JUMPDEST PUSH1 0x40 MLOAD PUSH2 0x16F SWAP2 SWAP1 PUSH2 0xCF0 JUMP JUMPDEST PUSH1 0x40 MLOAD DUP1 SWAP2 SUB SWAP1 RETURN JUMPDEST PUSH2 0x192 PUSH1 0x4 DUP1 CALLDATASIZE SUB DUP2 ADD SWAP1 PUSH2 0x18D SWAP2 SWAP1 PUSH2 0xD09 JUMP JUMPDEST PUSH2 0x349 JUMP JUMPDEST PUSH1 0x40 MLOAD PUSH2 0x19F SWAP2 SWAP1 PUSH2 0xC6C JUMP JUMPDEST PUSH1 0x40 MLOAD DUP1 SWAP2 SUB SWAP1 RETURN JUMPDEST PUSH2 0x1B0 PUSH2 0x38E JUMP JUMPDEST PUSH1 0x40 MLOAD PUSH2 0x1BD SWAP2 SWAP1 PUSH2 0xB3B JUMP JUMPDEST PUSH1 0x40 MLOAD DUP1 SWAP2 SUB SWAP1 RETURN JUMPDEST PUSH2 0x1E0 PUSH1 0x4 DUP1 CALLDATASIZE SUB DUP2 ADD SWAP1 PUSH2 0x1DB SWAP2 SWAP1 PUSH2 0xBEC JUMP JUMPDEST PUSH2 0x41E JUMP JUMPDEST PUSH1 0x40 MLOAD PUSH2 0x1ED SWAP2 SWAP1 PUSH2 0xC44 JUMP JUMPDEST PUSH1 0x40 MLOAD DUP1 SWAP2 SUB SWAP1 RETURN JUMPDEST PUSH2 0x210 PUSH1 0x4 DUP1 CALLDATASIZE SUB DUP2 ADD SWAP1 PUSH2 0x20B SWAP2 SWAP1 PUSH2 0xD34 JUMP JUMPDEST PUSH2 0x476 JUMP JUMPDEST PUSH1 0x40 MLOAD PUSH2 0x21D SWAP2 SWAP1 PUSH2 0xC6C JUMP JUMPDEST PUSH1 0x40 MLOAD DUP1 SWAP2 SUB SWAP1 RETURN JUMPDEST PUSH1 0x60 PUSH1 0x3 DUP1 SLOAD PUSH2 0x235 SWAP1 PUSH2 0xD9F JUMP JUMPDEST DUP1 PUSH1 0x1F ADD PUSH1 0x20 DUP1 SWAP2 DIV MUL PUSH1 0x20 ADD PUSH1 0x40 MLOAD SWAP1 DUP2 ADD PUSH1 0x40 MSTORE DUP1 SWAP3 SWAP2 SWAP1 DUP2 DUP2 MSTORE PUSH1 0x20 ADD DUP3 DUP1 SLOAD PUSH2 0x261 SWAP1 PUSH2 0xD9F JUMP JUMPDEST DUP1 ISZERO PUSH2 0x2AC JUMPI DUP1 PUSH1 0x1F LT PUSH2 0x283 JUMPI PUSH2 0x100 DUP1 DUP4 SLOAD DIV MUL DUP4 MSTORE SWAP2 PUSH1 0x20 ADD SWAP2 PUSH2 0x2AC JUMP JUMPDEST DUP3 ADD SWAP2 SWAP1 PUSH0 MSTORE PUSH1 0x20 PUSH0 KECCAK256 SWAP1 JUMPDEST DUP2 SLOAD DUP2 MSTORE SWAP1 PUSH1 0x1 ADD SWAP1 PUSH1 0x20 ADD DUP1 DUP4 GT PUSH2 0x28F JUMPI DUP3 SWAP1 SUB PUSH1 0x1F AND DUP3 ADD SWAP2 JUMPDEST POP POP POP POP POP SWAP1 POP SWAP1 JUMP JUMPDEST PUSH0 DUP1 PUSH2 0x2C0 PUSH2 0x4F8 JUMP JUMPDEST SWAP1 POP PUSH2 0x2CD DUP2 DUP6 DUP6 PUSH2 0x4FF JUMP JUMPDEST PUSH1 0x1 SWAP2 POP POP SWAP3 SWAP2 POP POP JUMP JUMPDEST PUSH0 PUSH1 0x2 SLOAD SWAP1 POP SWAP1 JUMP JUMPDEST PUSH0 PUSH1 0x5 SLOAD TIMESTAMP LT ISZERO PUSH2 0x327 JUMPI PUSH1 0x40 MLOAD PUSH32 0x8C379A000000000000000000000000000000000000000000000000000000000 DUP2 MSTORE PUSH1 0x4 ADD PUSH2 0x31E SWAP1 PUSH2 0xE3F JUMP JUMPDEST PUSH1 0x40 MLOAD DUP1 SWAP2 SUB SWAP1 REVERT JUMPDEST PUSH2 0x332 DUP5 DUP5 DUP5 PUSH2 0x511 JUMP JUMPDEST SWAP1 POP SWAP4 SWAP3 POP POP POP JUMP JUMPDEST PUSH1 0x5 SLOAD DUP2 JUMP JUMPDEST PUSH0 PUSH1 0x12 SWAP1 POP SWAP1 JUMP JUMPDEST PUSH0 DUP1 PUSH0 DUP4 PUSH20 0xFFFFFFFFFFFFFFFFFFFFFFFFFFFFFFFFFFFFFFFF AND PUSH20 0xFFFFFFFFFFFFFFFFFFFFFFFFFFFFFFFFFFFFFFFF AND DUP2 MSTORE PUSH1 0x20 ADD SWAP1 DUP2 MSTORE PUSH1 0x20 ADD PUSH0 KECCAK256 SLOAD SWAP1 POP SWAP2 SWAP1 POP JUMP JUMPDEST PUSH1 0x60 PUSH1 0x4 DUP1 SLOAD PUSH2 0x39D SWAP1 PUSH2 0xD9F JUMP JUMPDEST DUP1 PUSH1 0x1F ADD PUSH1 0x20 DUP1 SWAP2 DIV MUL PUSH1 0x20 ADD PUSH1 0x40 MLOAD SWAP1 DUP2 ADD PUSH1 0x40 MSTORE DUP1 SWAP3 SWAP2 SWAP1 DUP2 DUP2 MSTORE PUSH1 0x20 ADD DUP3 DUP1 SLOAD PUSH2 0x3C9 SWAP1 PUSH2 0xD9F JUMP JUMPDEST DUP1 ISZERO PUSH2 0x414 JUMPI DUP1 PUSH1 0x1F LT PUSH2 0x3EB JUMPI PUSH2 0x100 DUP1 DUP4 SLOAD DIV MUL DUP4 MSTORE SWAP2 PUSH1 0x20 ADD SWAP2 PUSH2 0x414 JUMP JUMPDEST DUP3 ADD SWAP2 SWAP1 PUSH0 MSTORE PUSH1 0x20 PUSH0 KECCAK256 SWAP1 JUMPDEST DUP2 SLOAD DUP2 MSTORE SWAP1 PUSH1 0x1 ADD SWAP1 PUSH1 0x20 ADD DUP1 DUP4 GT PUSH2 0x3F7 JUMPI DUP3 SWAP1 SUB PUSH1 0x1F AND DUP3 ADD SWAP2 JUMPDEST POP POP POP POP POP SWAP1 POP SWAP1 JUMP JUMPDEST PUSH0 PUSH1 0x5 SLOAD TIMESTAMP LT ISZERO PUSH2 0x464 JUMPI PUSH1 0x40 MLOAD PUSH32 0x8C379A000000000000000000000000000000000000000000000000000000000 DUP2 MSTORE PUSH1 0x4 ADD PUSH2 0x45B SWAP1 PUSH2 0xE3F JUMP JUMPDEST PUSH1 0x40 MLOAD DUP1 SWAP2 SUB SWAP1 REVERT JUMPDEST PUSH2 0x46E DUP4 DUP4 PUSH2 0x53F JUMP JUMPDEST SWAP1 POP SWAP3 SWAP2 POP POP JUMP JUMPDEST PUSH0 PUSH1 0x1 PUSH0 DUP5 PUSH20 0xFFFFFFFFFFFFFFFFFFFFFFFFFFFFFFFFFFFFFFFF AND PUSH20 0xFFFFFFFFFFFFFFFFFFFFFFFFFFFFFFFFFFFFFFFF AND DUP2 MSTORE PUSH1 0x20 ADD SWAP1 DUP2 MSTORE PUSH1 0x20 ADD PUSH0 KECCAK256 PUSH0 DUP4 PUSH20 0xFFFFFFFFFFFFFFFFFFFFFFFFFFFFFFFFFFFFFFFF AND PUSH20 0xFFFFFFFFFFFFFFFFFFFFFFFFFFFFFFFFFFFFFFFF AND DUP2 MSTORE PUSH1 0x20 ADD SWAP1 DUP2 MSTORE PUSH1 0x20 ADD PUSH0 KECCAK256 SLOAD SWAP1 POP SWAP3 SWAP2 POP POP JUMP JUMPDEST PUSH0 CALLER SWAP1 POP SWAP1 JUMP JUMPDEST PUSH2 0x50C DUP4 DUP4 DUP4 PUSH1 0x1 PUSH2 0x561 JUMP JUMPDEST POP POP POP JUMP JUMPDEST PUSH0 DUP1 PUSH2 0x51B PUSH2 0x4F8 JUMP JUMPDEST SWAP1 POP PUSH2 0x528 DUP6 DUP3 DUP6 PUSH2 0x730 JUMP JUMPDEST PUSH2 0x533 DUP6 DUP6 DUP6 PUSH2 0x7C2 JUMP JUMPDEST PUSH1 0x1 SWAP2 POP POP SWAP4 SWAP3 POP POP POP JUMP JUMPDEST PUSH0 DUP1 PUSH2 0x549 PUSH2 0x4F8 JUMP JUMPDEST SWAP1 POP PUSH2 0x556 DUP2 DUP6 DUP6 PUSH2 0x7C2 JUMP JUMPDEST PUSH1 0x1 SWAP2 POP POP SWAP3 SWAP2 POP POP JUMP JUMPDEST PUSH0 PUSH20 0xFFFFFFFFFFFFFFFFFFFFFFFFFFFFFFFFFFFFFFFF AND DUP5 PUSH20 0xFFFFFFFFFFFFFFFFFFFFFFFFFFFFFFFFFFFFFFFF AND SUB PUSH2 0x5D1 JUMPI PUSH0 PUSH1 0x40 MLOAD PUSH32 0xE602DF0500000000000000000000000000000000000000000000000000000000 DUP2 MSTORE PUSH1 0x4 ADD PUSH2 0x5C8 SWAP2 SWAP1 PUSH2 0xE6C JUMP JUMPDEST PUSH1 0x40 MLOAD DUP1 SWAP2 SUB SWAP1 REVERT JUMPDEST PUSH0 PUSH20 0xFFFFFFFFFFFFFFFFFFFFFFFFFFFFFFFFFFFFFFFF AND DUP4 PUSH20 0xFFFFFFFFFFFFFFFFFFFFFFFFFFFFFFFFFFFFFFFF AND SUB PUSH2 0x641 JUMPI PUSH0 PUSH1 0x40 MLOAD PUSH32 0x94280D6200000000000000000000000000000000000000000000000000000000 DUP2 MSTORE PUSH1 0x4 ADD PUSH2 0x638 SWAP2 SWAP1 PUSH2 0xE6C JUMP JUMPDEST PUSH1 0x40 MLOAD DUP1 SWAP2 SUB SWAP1 REVERT JUMPDEST DUP2 PUSH1 0x1 PUSH0 DUP7 PUSH20 0xFFFFFFFFFFFFFFFFFFFFFFFFFFFFFFFFFFFFFFFF AND PUSH20 0xFFFFFFFFFFFFFFFFFFFFFFFFFFFFFFFFFFFFFFFF AND DUP2 MSTORE PUSH1 0x20 ADD SWAP1 DUP2 MSTORE PUSH1 0x20 ADD PUSH0 KECCAK256 PUSH0 DUP6 PUSH20 0xFFFFFFFFFFFFFFFFFFFFFFFFFFFFFFFFFFFFFFFF AND PUSH20 0xFFFFFFFFFFFFFFFFFFFFFFFFFFFFFFFFFFFFFFFF AND DUP2 MSTORE PUSH1 0x20 ADD SWAP1 DUP2 MSTORE PUSH1 0x20 ADD PUSH0 KECCAK256 DUP2 SWAP1 SSTORE POP DUP1 ISZERO PUSH2 0x72A JUMPI DUP3 PUSH20 0xFFFFFFFFFFFFFFFFFFFFFFFFFFFFFFFFFFFFFFFF AND DUP5 PUSH20 0xFFFFFFFFFFFFFFFFFFFFFFFFFFFFFFFFFFFFFFFF AND PUSH32 0x8C5BE1E5EBEC7D5BD14F71427D1E84F3DD0314C0F7B2291E5B200AC8C7C3B925 DUP5 PUSH1 0x40 MLOAD PUSH2 0x721 SWAP2 SWAP1 PUSH2 0xC6C JUMP JUMPDEST PUSH1 0x40 MLOAD DUP1 SWAP2 SUB SWAP1 LOG3 JUMPDEST POP POP POP POP JUMP JUMPDEST PUSH0 PUSH2 0x73B DUP5 DUP5 PUSH2 0x476 JUMP JUMPDEST SWAP1 POP PUSH32 0xFFFFFFFFFFFFFFFFFFFFFFFFFFFFFFFFFFFFFFFFFFFFFFFFFFFFFFFFFFFFFFFF DUP2 EQ PUSH2 0x7BC JUMPI DUP2 DUP2 LT ISZERO PUSH2 0x7AD JUMPI DUP3 DUP2 DUP4 PUSH1 0x40 MLOAD PUSH32 0xFB8F41B200000000000000000000000000000000000000000000000000000000 DUP2 MSTORE PUSH1 0x4 ADD PUSH2 0x7A4 SWAP4 SWAP3 SWAP2 SWAP1 PUSH2 0xE85 JUMP JUMPDEST PUSH1 0x40 MLOAD DUP1 SWAP2 SUB SWAP1 REVERT JUMPDEST PUSH2 0x7BB DUP5 DUP5 DUP5 DUP5 SUB PUSH0 PUSH2 0x561 JUMP JUMPDEST JUMPDEST POP POP POP POP JUMP JUMPDEST PUSH0 PUSH20 0xFFFFFFFFFFFFFFFFFFFFFFFFFFFFFFFFFFFFFFFF AND DUP4 PUSH20 0xFFFFFFFFFFFFFFFFFFFFFFFFFFFFFFFFFFFFFFFF AND SUB PUSH2 0x832 JUMPI PUSH0 PUSH1 0x40 MLOAD PUSH32 0x96C6FD1E00000000000000000000000000000000000000000000000000000000 DUP2 MSTORE PUSH1 0x4 ADD PUSH2 0x829 SWAP2 SWAP1 PUSH2 0xE6C JUMP JUMPDEST PUSH1 0x40 MLOAD DUP1 SWAP2 SUB SWAP1 REVERT JUMPDEST PUSH0 PUSH20 0xFFFFFFFFFFFFFFFFFFFFFFFFFFFFFFFFFFFFFFFF AND DUP3 PUSH20 0xFFFFFFFFFFFFFFFFFFFFFFFFFFFFFFFFFFFFFFFF AND SUB PUSH2 0x8A2 JUMPI PUSH0 PUSH1 0x40 MLOAD PUSH32 0xEC442F0500000000000000000000000000000000000000000000000000000000 DUP2 MSTORE PUSH1 0x4 ADD PUSH2 0x899 SWAP2 SWAP1 PUSH2 0xE6C JUMP JUMPDEST PUSH1 0x40 MLOAD DUP1 SWAP2 SUB SWAP1 REVERT JUMPDEST PUSH2 0x8AD DUP4 DUP4 DUP4 PUSH2 0x8B2 JUMP JUMPDEST POP POP POP JUMP JUMPDEST PUSH0 PUSH20 0xFFFFFFFFFFFFFFFFFFFFFFFFFFFFFFFFFFFFFFFF AND DUP4 PUSH20 0xFFFFFFFFFFFFFFFFFFFFFFFFFFFFFFFFFFFFFFFF AND SUB PUSH2 0x902 JUMPI DUP1 PUSH1 0x2 PUSH0 DUP3 DUP3 SLOAD PUSH2 0x8F6 SWAP2 SWAP1 PUSH2 0xEE7 JUMP JUMPDEST SWAP3 POP POP DUP2 SWAP1 SSTORE POP PUSH2 0x9D0 JUMP JUMPDEST PUSH0 DUP1 PUSH0 DUP6 PUSH20 0xFFFFFFFFFFFFFFFFFFFFFFFFFFFFFFFFFFFFFFFF AND PUSH20 0xFFFFFFFFFFFFFFFFFFFFFFFFFFFFFFFFFFFFFFFF AND DUP2 MSTORE PUSH1 0x20 ADD SWAP1 DUP2 MSTORE PUSH1 0x20 ADD PUSH0 KECCAK256 SLOAD SWAP1 POP DUP2 DUP2 LT ISZERO PUSH2 0x98B JUMPI DUP4 DUP2 DUP4 PUSH1 0x40 MLOAD PUSH32 0xE450D38C00000000000000000000000000000000000000000000000000000000 DUP2 MSTORE PUSH1 0x4 ADD PUSH2 0x982 SWAP4 SWAP3 SWAP2 SWAP1 PUSH2 0xE85 JUMP JUMPDEST PUSH1 0x40 MLOAD DUP1 SWAP2 SUB SWAP1 REVERT JUMPDEST DUP2 DUP2 SUB PUSH0 DUP1 DUP7 PUSH20 0xFFFFFFFFFFFFFFFFFFFFFFFFFFFFFFFFFFFFFFFF AND PUSH20 0xFFFFFFFFFFFFFFFFFFFFFFFFFFFFFFFFFFFFFFFF AND DUP2 MSTORE PUSH1 0x20 ADD SWAP1 DUP2 MSTORE PUSH1 0x20 ADD PUSH0 KECCAK256 DUP2 SWAP1 SSTORE POP POP JUMPDEST PUSH0 PUSH20 0xFFFFFFFFFFFFFFFFFFFFFFFFFFFFFFFFFFFFFFFF AND DUP3 PUSH20 0xFFFFFFFFFFFFFFFFFFFFFFFFFFFFFFFFFFFFFFFF AND SUB PUSH2 0xA17 JUMPI DUP1 PUSH1 0x2 PUSH0 DUP3 DUP3 SLOAD SUB SWAP3 POP POP DUP2 SWAP1 SSTORE POP PUSH2 0xA61 JUMP JUMPDEST DUP1 PUSH0 DUP1 DUP5 PUSH20 0xFFFFFFFFFFFFFFFFFFFFFFFFFFFFFFFFFFFFFFFF AND PUSH20 0xFFFFFFFFFFFFFFFFFFFFFFFFFFFFFFFFFFFFFFFF AND DUP2 MSTORE PUSH1 0x20 ADD SWAP1 DUP2 MSTORE PUSH1 0x20 ADD PUSH0 KECCAK256 PUSH0 DUP3 DUP3 SLOAD ADD SWAP3 POP POP DUP2 SWAP1 SSTORE POP JUMPDEST DUP2 PUSH20 0xFFFFFFFFFFFFFFFFFFFFFFFFFFFFFFFFFFFFFFFF AND DUP4 PUSH20 0xFFFFFFFFFFFFFFFFFFFFFFFFFFFFFFFFFFFFFFFF AND PUSH32 0xDDF252AD1BE2C89B69C2B068FC378DAA952BA7F163C4A11628F55A4DF523B3EF DUP4 PUSH1 0x40 MLOAD PUSH2 0xABE SWAP2 SWAP1 PUSH2 0xC6C JUMP JUMPDEST PUSH1 0x40 MLOAD DUP1 SWAP2 SUB SWAP1 LOG3 POP POP POP JUMP JUMPDEST PUSH0 DUP2 MLOAD SWAP1 POP SWAP2 SWAP1 POP JUMP JUMPDEST PUSH0 DUP3 DUP3 MSTORE PUSH1 0x20 DUP3 ADD SWAP1 POP SWAP3 SWAP2 POP POP JUMP JUMPDEST DUP3 DUP2 DUP4 MCOPY PUSH0 DUP4 DUP4 ADD MSTORE POP POP POP JUMP JUMPDEST PUSH0 PUSH1 0x1F NOT PUSH1 0x1F DUP4 ADD AND SWAP1 POP SWAP2 SWAP1 POP JUMP JUMPDEST PUSH0 PUSH2 0xB0D DUP3 PUSH2 0xACB JUMP JUMPDEST PUSH2 0xB17 DUP2 DUP6 PUSH2 0xAD5 JUMP JUMPDEST SWAP4 POP PUSH2 0xB27 DUP2 DUP6 PUSH1 0x20 DUP7 ADD PUSH2 0xAE5 JUMP JUMPDEST PUSH2 0xB30 DUP2 PUSH2 0xAF3 JUMP JUMPDEST DUP5 ADD SWAP2 POP POP SWAP3 SWAP2 POP POP JUMP JUMPDEST PUSH0 PUSH1 0x20 DUP3 ADD SWAP1 POP DUP2 DUP2 SUB PUSH0 DUP4 ADD MSTORE PUSH2 0xB53 DUP2 DUP5 PUSH2 0xB03 JUMP JUMPDEST SWAP1 POP SWAP3 SWAP2 POP POP JUMP JUMPDEST PUSH0 DUP1 REVERT JUMPDEST PUSH0 PUSH20 0xFFFFFFFFFFFFFFFFFFFFFFFFFFFFFFFFFFFFFFFF DUP3 AND SWAP1 POP SWAP2 SWAP1 POP JUMP JUMPDEST PUSH0 PUSH2 0xB88 DUP3 PUSH2 0xB5F JUMP JUMPDEST SWAP1 POP SWAP2 SWAP1 POP JUMP JUMPDEST PUSH2 0xB98 DUP2 PUSH2 0xB7E JUMP JUMPDEST DUP2 EQ PUSH2 0xBA2 JUMPI PUSH0 DUP1 REVERT JUMPDEST POP JUMP JUMPDEST PUSH0 DUP2 CALLDATALOAD SWAP1 POP PUSH2 0xBB3 DUP2 PUSH2 0xB8F JUMP JUMPDEST SWAP3 SWAP2 POP POP JUMP JUMPDEST PUSH0 DUP2 SWAP1 POP SWAP2 SWAP1 POP JUMP JUMPDEST PUSH2 0xBCB DUP2 PUSH2 0xBB9 JUMP JUMPDEST DUP2 EQ PUSH2 0xBD5 JUMPI PUSH0 DUP1 REVERT JUMPDEST POP JUMP JUMPDEST PUSH0 DUP2 CALLDATALOAD SWAP1 POP PUSH2 0xBE6 DUP2 PUSH2 0xBC2 JUMP JUMPDEST SWAP3 SWAP2 POP POP JUMP JUMPDEST PUSH0 DUP1 PUSH1 0x40 DUP4 DUP6 SUB SLT ISZERO PUSH2 0xC02 JUMPI PUSH2 0xC01 PUSH2 0xB5B JUMP JUMPDEST JUMPDEST PUSH0 PUSH2 0xC0F DUP6 DUP3 DUP7 ADD PUSH2 0xBA5 JUMP JUMPDEST SWAP3 POP POP PUSH1 0x20 PUSH2 0xC20 DUP6 DUP3 DUP7 ADD PUSH2 0xBD8 JUMP JUMPDEST SWAP2 POP POP SWAP3 POP SWAP3 SWAP1 POP JUMP JUMPDEST PUSH0 DUP2 ISZERO ISZERO SWAP1 POP SWAP2 SWAP1 POP JUMP JUMPDEST PUSH2 0xC3E DUP2 PUSH2 0xC2A JUMP JUMPDEST DUP3 MSTORE POP POP JUMP JUMPDEST PUSH0 PUSH1 0x20 DUP3 ADD SWAP1 POP PUSH2 0xC57 PUSH0 DUP4 ADD DUP5 PUSH2 0xC35 JUMP JUMPDEST SWAP3 SWAP2 POP POP JUMP JUMPDEST PUSH2 0xC66 DUP2 PUSH2 0xBB9 JUMP JUMPDEST DUP3 MSTORE POP POP JUMP JUMPDEST PUSH0 PUSH1 0x20 DUP3 ADD SWAP1 POP PUSH2 0xC7F PUSH0 DUP4 ADD DUP5 PUSH2 0xC5D JUMP JUMPDEST SWAP3 SWAP2 POP POP JUMP JUMPDEST PUSH0 DUP1 PUSH0 PUSH1 0x60 DUP5 DUP7 SUB SLT ISZERO PUSH2 0xC9C JUMPI PUSH2 0xC9B PUSH2 0xB5B JUMP JUMPDEST JUMPDEST PUSH0 PUSH2 0xCA9 DUP7 DUP3 DUP8 ADD PUSH2 0xBA5 JUMP JUMPDEST SWAP4 POP POP PUSH1 0x20 PUSH2 0xCBA DUP7 DUP3 DUP8 ADD PUSH2 0xBA5 JUMP JUMPDEST SWAP3 POP POP PUSH1 0x40 PUSH2 0xCCB DUP7 DUP3 DUP8 ADD PUSH2 0xBD8 JUMP JUMPDEST SWAP2 POP POP SWAP3 POP SWAP3 POP SWAP3 JUMP JUMPDEST PUSH0 PUSH1 0xFF DUP3 AND SWAP1 POP SWAP2 SWAP1 POP JUMP JUMPDEST PUSH2 0xCEA DUP2 PUSH2 0xCD5 JUMP JUMPDEST DUP3 MSTORE POP POP JUMP JUMPDEST PUSH0 PUSH1 0x20 DUP3 ADD SWAP1 POP PUSH2 0xD03 PUSH0 DUP4 ADD DUP5 PUSH2 0xCE1 JUMP JUMPDEST SWAP3 SWAP2 POP POP JUMP JUMPDEST PUSH0 PUSH1 0x20 DUP3 DUP5 SUB SLT ISZERO PUSH2 0xD1E JUMPI PUSH2 0xD1D PUSH2 0xB5B JUMP JUMPDEST JUMPDEST PUSH0 PUSH2 0xD2B DUP5 DUP3 DUP6 ADD PUSH2 0xBA5 JUMP JUMPDEST SWAP2 POP POP SWAP3 SWAP2 POP POP JUMP JUMPDEST PUSH0 DUP1 PUSH1 0x40 DUP4 DUP6 SUB SLT ISZERO PUSH2 0xD4A JUMPI PUSH2 0xD49 PUSH2 0xB5B JUMP JUMPDEST JUMPDEST PUSH0 PUSH2 0xD57 DUP6 DUP3 DUP7 ADD PUSH2 0xBA5 JUMP JUMPDEST SWAP3 POP POP PUSH1 0x20 PUSH2 0xD68 DUP6 DUP3 DUP7 ADD PUSH2 0xBA5 JUMP JUMPDEST SWAP2 POP POP SWAP3 POP SWAP3 SWAP1 POP JUMP JUMPDEST PUSH32 0x4E487B7100000000000000000000000000000000000000000000000000000000 PUSH0 MSTORE PUSH1 0x22 PUSH1 0x4 MSTORE PUSH1 0x24 PUSH0 REVERT JUMPDEST PUSH0 PUSH1 0x2 DUP3 DIV SWAP1 POP PUSH1 0x1 DUP3 AND DUP1 PUSH2 0xDB6 JUMPI PUSH1 0x7F DUP3 AND SWAP2 POP JUMPDEST PUSH1 0x20 DUP3 LT DUP2 SUB PUSH2 0xDC9 JUMPI PUSH2 0xDC8 PUSH2 0xD72 JUMP JUMPDEST JUMPDEST POP SWAP2 SWAP1 POP JUMP JUMPDEST PUSH32 0x546F6B656E7320617265206C6F636B656420756E74696C2074686520756E6C6F PUSH0 DUP3 ADD MSTORE PUSH32 0x636B2074696D6520686173207061737365640000000000000000000000000000 PUSH1 0x20 DUP3 ADD MSTORE POP JUMP JUMPDEST PUSH0 PUSH2 0xE29 PUSH1 0x32 DUP4 PUSH2 0xAD5 JUMP JUMPDEST SWAP2 POP PUSH2 0xE34 DUP3 PUSH2 0xDCF JUMP JUMPDEST PUSH1 0x40 DUP3 ADD SWAP1 POP SWAP2 SWAP1 POP JUMP JUMPDEST PUSH0 PUSH1 0x20 DUP3 ADD SWAP1 POP DUP2 DUP2 SUB PUSH0 DUP4 ADD MSTORE PUSH2 0xE56 DUP2 PUSH2 0xE1D JUMP JUMPDEST SWAP1 POP SWAP2 SWAP1 POP JUMP JUMPDEST PUSH2 0xE66 DUP2 PUSH2 0xB7E JUMP JUMPDEST DUP3 MSTORE POP POP JUMP JUMPDEST PUSH0 PUSH1 0x20 DUP3 ADD SWAP1 POP PUSH2 0xE7F PUSH0 DUP4 ADD DUP5 PUSH2 0xE5D JUMP JUMPDEST SWAP3 SWAP2 POP POP JUMP JUMPDEST PUSH0 PUSH1 0x60 DUP3 ADD SWAP1 POP PUSH2 0xE98 PUSH0 DUP4 ADD DUP7 PUSH2 0xE5D JUMP JUMPDEST PUSH2 0xEA5 PUSH1 0x20 DUP4 ADD DUP6 PUSH2 0xC5D JUMP JUMPDEST PUSH2 0xEB2 PUSH1 0x40 DUP4 ADD DUP5 PUSH2 0xC5D JUMP JUMPDEST SWAP5 SWAP4 POP POP POP POP JUMP JUMPDEST PUSH32 0x4E487B7100000000000000000000000000000000000000000000000000000000 PUSH0 MSTORE PUSH1 0x11 PUSH1 0x4 MSTORE PUSH1 0x24 PUSH0 REVERT JUMPDEST PUSH0 PUSH2 0xEF1 DUP3 PUSH2 0xBB9 JUMP JUMPDEST SWAP2 POP PUSH2 0xEFC DUP4 PUSH2 0xBB9 JUMP JUMPDEST SWAP3 POP DUP3 DUP3 ADD SWAP1 POP DUP1 DUP3 GT ISZERO PUSH2 0xF14 JUMPI PUSH2 0xF13 PUSH2 0xEBA JUMP JUMPDEST JUMPDEST SWAP3 SWAP2 POP POP JUMP INVALID LOG2 PUSH5 0x6970667358 0x22 SLT KECCAK256 CODECOPY CALLER 0xEE 0xE6 0x4E SWAP4 XOR PUSH25 0xBDDD6C48DCB998B12D0280746A0B35E39E0A03F80703C21064 PUSH20 0x6F6C634300081A00330000000000000000000000 "
				},
				"gasEstimates": {
					"creation": {
						"codeDepositCost": "784000",
						"executionCost": "infinite",
						"totalCost": "infinite"
					},
					"external": {
						"allowance(address,address)": "infinite",
						"approve(address,uint256)": "infinite",
						"balanceOf(address)": "2851",
						"decimals()": "338",
						"name()": "infinite",
						"symbol()": "infinite",
						"totalSupply()": "2477",
						"transfer(address,uint256)": "infinite",
						"transferFrom(address,address,uint256)": "infinite",
						"unlockTime()": "2514"
					}
				},
				"methodIdentifiers": {
					"allowance(address,address)": "dd62ed3e",
					"approve(address,uint256)": "095ea7b3",
					"balanceOf(address)": "70a08231",
					"decimals()": "313ce567",
					"name()": "06fdde03",
					"symbol()": "95d89b41",
					"totalSupply()": "18160ddd",
					"transfer(address,uint256)": "a9059cbb",
					"transferFrom(address,address,uint256)": "23b872dd",
					"unlockTime()": "251c1aa3"
				}
			},
			"storageLayout": {
				"storage": [
					{
						"astId": 159,
						"contract": "contracts/ERC20/TimeLock.sol:TimeLockedToken",
						"label": "_balances",
						"offset": 0,
						"slot": "0",
						"type": "t_mapping(t_address,t_uint256)"
					},
					{
						"astId": 165,
						"contract": "contracts/ERC20/TimeLock.sol:TimeLockedToken",
						"label": "_allowances",
						"offset": 0,
						"slot": "1",
						"type": "t_mapping(t_address,t_mapping(t_address,t_uint256))"
					},
					{
						"astId": 167,
						"contract": "contracts/ERC20/TimeLock.sol:TimeLockedToken",
						"label": "_totalSupply",
						"offset": 0,
						"slot": "2",
						"type": "t_uint256"
					},
					{
						"astId": 169,
						"contract": "contracts/ERC20/TimeLock.sol:TimeLockedToken",
						"label": "_name",
						"offset": 0,
						"slot": "3",
						"type": "t_string_storage"
					},
					{
						"astId": 171,
						"contract": "contracts/ERC20/TimeLock.sol:TimeLockedToken",
						"label": "_symbol",
						"offset": 0,
						"slot": "4",
						"type": "t_string_storage"
					},
					{
						"astId": 792,
						"contract": "contracts/ERC20/TimeLock.sol:TimeLockedToken",
						"label": "unlockTime",
						"offset": 0,
						"slot": "5",
						"type": "t_uint256"
					}
				],
				"types": {
					"t_address": {
						"encoding": "inplace",
						"label": "address",
						"numberOfBytes": "20"
					},
					"t_mapping(t_address,t_mapping(t_address,t_uint256))": {
						"encoding": "mapping",
						"key": "t_address",
						"label": "mapping(address => mapping(address => uint256))",
						"numberOfBytes": "32",
						"value": "t_mapping(t_address,t_uint256)"
					},
					"t_mapping(t_address,t_uint256)": {
						"encoding": "mapping",
						"key": "t_address",
						"label": "mapping(address => uint256)",
						"numberOfBytes": "32",
						"value": "t_uint256"
					},
					"t_string_storage": {
						"encoding": "bytes",
						"label": "string",
						"numberOfBytes": "32"
					},
					"t_uint256": {
						"encoding": "inplace",
						"label": "uint256",
						"numberOfBytes": "32"
					}
				}
			},
			"userdoc": {
				"kind": "user",
				"methods": {},
				"version": 1
			}
		}
	}
}