{
	"data": {
		"bytecode": {
			"linkReferences": {},
			"object": "608060405260055f553480156012575f80fd5b506103fb806100205f395ff3fe608060405234801561000f575f80fd5b5060043610610060575f3560e01c80633dece511146100645780634f2be91f146100845780638381f58a1461008e5780638552dc08146100ac578063990c8f79146100cc578063cfeb3b9a146100d6575b5f80fd5b61006c610106565b60405161007b939291906102be565b60405180910390f35b61008c61013c565b005b610096610151565b6040516100a391906102f3565b60405180910390f35b6100b4610156565b6040516100c3939291906102be565b60405180910390f35b6100d461018d565b005b6100f060048036038101906100eb919061033a565b6101b0565b6040516100fd91906102f3565b60405180910390f35b5f806101106101c5565b600292505f91506040518060600160405280600381526020016002815260200160018152509050909192565b60015f5461014a9190610392565b5f81905550565b5f5481565b5f806101606101c5565b600b6001604051806060016040528060078152602001600881526020016008815250925092509250909192565b5f806101976101c5565b61019f610106565b809350819450829550505050505050565b5f6001826101be9190610392565b9050919050565b6040518060600160405280600390602082028036833780820191505090505090565b5f819050919050565b6101f9816101e7565b82525050565b5f8115159050919050565b610213816101ff565b82525050565b5f60039050919050565b5f81905092915050565b5f819050919050565b61023f816101e7565b82525050565b5f6102508383610236565b60208301905092915050565b5f602082019050919050565b61027181610219565b61027b8184610223565b92506102868261022d565b805f5b838110156102b657815161029d8782610245565b96506102a88361025c565b925050600181019050610289565b505050505050565b5f60a0820190506102d15f8301866101f0565b6102de602083018561020a565b6102eb6040830184610268565b949350505050565b5f6020820190506103065f8301846101f0565b92915050565b5f80fd5b610319816101e7565b8114610323575f80fd5b50565b5f8135905061033481610310565b92915050565b5f6020828403121561034f5761034e61030c565b5b5f61035c84828501610326565b91505092915050565b7f4e487b71000000000000000000000000000000000000000000000000000000005f52601160045260245ffd5b5f61039c826101e7565b91506103a7836101e7565b92508282019050808211156103bf576103be610365565b5b9291505056fea26469706673582212205c5f5dc9933e70e8e7a7d07bf3e951604240c75d8154c0648e80072b49766be064736f6c634300081a0033",
			"opcodes": "PUSH1 0x80 PUSH1 0x40 MSTORE PUSH1 0x5 PUSH0 SSTORE CALLVALUE DUP1 ISZERO PUSH1 0x12 JUMPI PUSH0 DUP1 REVERT JUMPDEST POP PUSH2 0x3FB DUP1 PUSH2 0x20 PUSH0 CODECOPY PUSH0 RETURN INVALID PUSH1 0x80 PUSH1 0x40 MSTORE CALLVALUE DUP1 ISZERO PUSH2 0xF JUMPI PUSH0 DUP1 REVERT JUMPDEST POP PUSH1 0x4 CALLDATASIZE LT PUSH2 0x60 JUMPI PUSH0 CALLDATALOAD PUSH1 0xE0 SHR DUP1 PUSH4 0x3DECE511 EQ PUSH2 0x64 JUMPI DUP1 PUSH4 0x4F2BE91F EQ PUSH2 0x84 JUMPI DUP1 PUSH4 0x8381F58A EQ PUSH2 0x8E JUMPI DUP1 PUSH4 0x8552DC08 EQ PUSH2 0xAC JUMPI DUP1 PUSH4 0x990C8F79 EQ PUSH2 0xCC JUMPI DUP1 PUSH4 0xCFEB3B9A EQ PUSH2 0xD6 JUMPI JUMPDEST PUSH0 DUP1 REVERT JUMPDEST PUSH2 0x6C PUSH2 0x106 JUMP JUMPDEST PUSH1 0x40 MLOAD PUSH2 0x7B SWAP4 SWAP3 SWAP2 SWAP1 PUSH2 0x2BE JUMP JUMPDEST PUSH1 0x40 MLOAD DUP1 SWAP2 SUB SWAP1 RETURN JUMPDEST PUSH2 0x8C PUSH2 0x13C JUMP JUMPDEST STOP JUMPDEST PUSH2 0x96 PUSH2 0x151 JUMP JUMPDEST PUSH1 0x40 MLOAD PUSH2 0xA3 SWAP2 SWAP1 PUSH2 0x2F3 JUMP JUMPDEST PUSH1 0x40 MLOAD DUP1 SWAP2 SUB SWAP1 RETURN JUMPDEST PUSH2 0xB4 PUSH2 0x156 JUMP JUMPDEST PUSH1 0x40 MLOAD PUSH2 0xC3 SWAP4 SWAP3 SWAP2 SWAP1 PUSH2 0x2BE JUMP JUMPDEST PUSH1 0x40 MLOAD DUP1 SWAP2 SUB SWAP1 RETURN JUMPDEST PUSH2 0xD4 PUSH2 0x18D JUMP JUMPDEST STOP JUMPDEST PUSH2 0xF0 PUSH1 0x4 DUP1 CALLDATASIZE SUB DUP2 ADD SWAP1 PUSH2 0xEB SWAP2 SWAP1 PUSH2 0x33A JUMP JUMPDEST PUSH2 0x1B0 JUMP JUMPDEST PUSH1 0x40 MLOAD PUSH2 0xFD SWAP2 SWAP1 PUSH2 0x2F3 JUMP JUMPDEST PUSH1 0x40 MLOAD DUP1 SWAP2 SUB SWAP1 RETURN JUMPDEST PUSH0 DUP1 PUSH2 0x110 PUSH2 0x1C5 JUMP JUMPDEST PUSH1 0x2 SWAP3 POP PUSH0 SWAP2 POP PUSH1 0x40 MLOAD DUP1 PUSH1 0x60 ADD PUSH1 0x40 MSTORE DUP1 PUSH1 0x3 DUP2 MSTORE PUSH1 0x20 ADD PUSH1 0x2 DUP2 MSTORE PUSH1 0x20 ADD PUSH1 0x1 DUP2 MSTORE POP SWAP1 POP SWAP1 SWAP2 SWAP3 JUMP JUMPDEST PUSH1 0x1 PUSH0 SLOAD PUSH2 0x14A SWAP2 SWAP1 PUSH2 0x392 JUMP JUMPDEST PUSH0 DUP2 SWAP1 SSTORE POP JUMP JUMPDEST PUSH0 SLOAD DUP2 JUMP JUMPDEST PUSH0 DUP1 PUSH2 0x160 PUSH2 0x1C5 JUMP JUMPDEST PUSH1 0xB PUSH1 0x1 PUSH1 0x40 MLOAD DUP1 PUSH1 0x60 ADD PUSH1 0x40 MSTORE DUP1 PUSH1 0x7 DUP2 MSTORE PUSH1 0x20 ADD PUSH1 0x8 DUP2 MSTORE PUSH1 0x20 ADD PUSH1 0x8 DUP2 MSTORE POP SWAP3 POP SWAP3 POP SWAP3 POP SWAP1 SWAP2 SWAP3 JUMP JUMPDEST PUSH0 DUP1 PUSH2 0x197 PUSH2 0x1C5 JUMP JUMPDEST PUSH2 0x19F PUSH2 0x106 JUMP JUMPDEST DUP1 SWAP4 POP DUP2 SWAP5 POP DUP3 SWAP6 POP POP POP POP POP POP POP JUMP JUMPDEST PUSH0 PUSH1 0x1 DUP3 PUSH2 0x1BE SWAP2 SWAP1 PUSH2 0x392 JUMP JUMPDEST SWAP1 POP SWAP2 SWAP1 POP JUMP JUMPDEST PUSH1 0x40 MLOAD DUP1 PUSH1 0x60 ADD PUSH1 0x40 MSTORE DUP1 PUSH1 0x3 SWAP1 PUSH1 0x20 DUP3 MUL DUP1 CALLDATASIZE DUP4 CALLDATACOPY DUP1 DUP3 ADD SWAP2 POP POP SWAP1 POP POP SWAP1 JUMP JUMPDEST PUSH0 DUP2 SWAP1 POP SWAP2 SWAP1 POP JUMP JUMPDEST PUSH2 0x1F9 DUP2 PUSH2 0x1E7 JUMP JUMPDEST DUP3 MSTORE POP POP JUMP JUMPDEST PUSH0 DUP2 ISZERO ISZERO SWAP1 POP SWAP2 SWAP1 POP JUMP JUMPDEST PUSH2 0x213 DUP2 PUSH2 0x1FF JUMP JUMPDEST DUP3 MSTORE POP POP JUMP JUMPDEST PUSH0 PUSH1 0x3 SWAP1 POP SWAP2 SWAP1 POP JUMP JUMPDEST PUSH0 DUP2 SWAP1 POP SWAP3 SWAP2 POP POP JUMP JUMPDEST PUSH0 DUP2 SWAP1 POP SWAP2 SWAP1 POP JUMP JUMPDEST PUSH2 0x23F DUP2 PUSH2 0x1E7 JUMP JUMPDEST DUP3 MSTORE POP POP JUMP JUMPDEST PUSH0 PUSH2 0x250 DUP4 DUP4 PUSH2 0x236 JUMP JUMPDEST PUSH1 0x20 DUP4 ADD SWAP1 POP SWAP3 SWAP2 POP POP JUMP JUMPDEST PUSH0 PUSH1 0x20 DUP3 ADD SWAP1 POP SWAP2 SWAP1 POP JUMP JUMPDEST PUSH2 0x271 DUP2 PUSH2 0x219 JUMP JUMPDEST PUSH2 0x27B DUP2 DUP5 PUSH2 0x223 JUMP JUMPDEST SWAP3 POP PUSH2 0x286 DUP3 PUSH2 0x22D JUMP JUMPDEST DUP1 PUSH0 JUMPDEST DUP4 DUP2 LT ISZERO PUSH2 0x2B6 JUMPI DUP2 MLOAD PUSH2 0x29D DUP8 DUP3 PUSH2 0x245 JUMP JUMPDEST SWAP7 POP PUSH2 0x2A8 DUP4 PUSH2 0x25C JUMP JUMPDEST SWAP3 POP POP PUSH1 0x1 DUP2 ADD SWAP1 POP PUSH2 0x289 JUMP JUMPDEST POP POP POP POP POP POP JUMP JUMPDEST PUSH0 PUSH1 0xA0 DUP3 ADD SWAP1 POP PUSH2 0x2D1 PUSH0 DUP4 ADD DUP7 PUSH2 0x1F0 JUMP JUMPDEST PUSH2 0x2DE PUSH1 0x20 DUP4 ADD DUP6 PUSH2 0x20A JUMP JUMPDEST PUSH2 0x2EB PUSH1 0x40 DUP4 ADD DUP5 PUSH2 0x268 JUMP JUMPDEST SWAP5 SWAP4 POP POP POP POP JUMP JUMPDEST PUSH0 PUSH1 0x20 DUP3 ADD SWAP1 POP PUSH2 0x306 PUSH0 DUP4 ADD DUP5 PUSH2 0x1F0 JUMP JUMPDEST SWAP3 SWAP2 POP POP JUMP JUMPDEST PUSH0 DUP1 REVERT JUMPDEST PUSH2 0x319 DUP2 PUSH2 0x1E7 JUMP JUMPDEST DUP2 EQ PUSH2 0x323 JUMPI PUSH0 DUP1 REVERT JUMPDEST POP JUMP JUMPDEST PUSH0 DUP2 CALLDATALOAD SWAP1 POP PUSH2 0x334 DUP2 PUSH2 0x310 JUMP JUMPDEST SWAP3 SWAP2 POP POP JUMP JUMPDEST PUSH0 PUSH1 0x20 DUP3 DUP5 SUB SLT ISZERO PUSH2 0x34F JUMPI PUSH2 0x34E PUSH2 0x30C JUMP JUMPDEST JUMPDEST PUSH0 PUSH2 0x35C DUP5 DUP3 DUP6 ADD PUSH2 0x326 JUMP JUMPDEST SWAP2 POP POP SWAP3 SWAP2 POP POP JUMP JUMPDEST PUSH32 0x4E487B7100000000000000000000000000000000000000000000000000000000 PUSH0 MSTORE PUSH1 0x11 PUSH1 0x4 MSTORE PUSH1 0x24 PUSH0 REVERT JUMPDEST PUSH0 PUSH2 0x39C DUP3 PUSH2 0x1E7 JUMP JUMPDEST SWAP2 POP PUSH2 0x3A7 DUP4 PUSH2 0x1E7 JUMP JUMPDEST SWAP3 POP DUP3 DUP3 ADD SWAP1 POP DUP1 DUP3 GT ISZERO PUSH2 0x3BF JUMPI PUSH2 0x3BE PUSH2 0x365 JUMP JUMPDEST JUMPDEST SWAP3 SWAP2 POP POP JUMP INVALID LOG2 PUSH5 0x6970667358 0x22 SLT KECCAK256 TLOAD PUSH0 TSTORE 0xC9 SWAP4 RETURNDATACOPY PUSH17 0xE8E7A7D07BF3E951604240C75D8154C064 DUP15 DUP1 SMOD 0x2B BLOBHASH PUSH23 0x6BE064736F6C634300081A003300000000000000000000 "
		},
		"gasEstimates": {
			"creation": {
				"codeDepositCost": "203800",
				"executionCost": "22348",
				"totalCost": "226148"
			},
			"external": {
				"add()": "infinite",
				"addView(uint256)": "infinite",
				"number()": "2446",
				"returnNamed()": "infinite",
				"returnNamed2()": "infinite",
				"returnValue()": "infinite"
			}
		},
		"methodIdentifiers": {
			"add()": "4f2be91f",
			"addView(uint256)": "cfeb3b9a",
			"number()": "8381f58a",
			"returnNamed()": "3dece511",
			"returnNamed2()": "8552dc08",
			"returnValue()": "990c8f79"
		}
	},
	"abi": [
		{
			"inputs": [],
			"name": "add",
			"outputs": [],
			"stateMutability": "nonpayable",
			"type": "function"
		},
		{
			"inputs": [
				{
					"internalType": "uint256",
					"name": "_number",
					"type": "uint256"
				}
			],
			"name": "addView",
			"outputs": [
				{
					"internalType": "uint256",
					"name": "new_number",
					"type": "uint256"
				}
			],
			"stateMutability": "view",
			"type": "function"
		},
		{
			"inputs": [],
			"name": "number",
			"outputs": [
				{
					"internalType": "uint256",
					"name": "",
					"type": "uint256"
				}
			],
			"stateMutability": "view",
			"type": "function"
		},
		{
			"inputs": [],
			"name": "returnNamed",
			"outputs": [
				{
					"internalType": "uint256",
					"name": "_number",
					"type": "uint256"
				},
				{
					"internalType": "bool",
					"name": "_bool",
					"type": "bool"
				},
				{
					"internalType": "uint256[3]",
					"name": "_array",
					"type": "uint256[3]"
				}
			],
			"stateMutability": "pure",
			"type": "function"
		},
		{
			"inputs": [],
			"name": "returnNamed2",
			"outputs": [
				{
					"internalType": "uint256",
					"name": "_number",
					"type": "uint256"
				},
				{
					"internalType": "bool",
					"name": "_bool",
					"type": "bool"
				},
				{
					"internalType": "uint256[3]",
					"name": "_array",
					"type": "uint256[3]"
				}
			],
			"stateMutability": "pure",
			"type": "function"
		},
		{
			"inputs": [],
			"name": "returnValue",
			"outputs": [],
			"stateMutability": "pure",
			"type": "function"
		}
	]
}