{
	"contracts/study3/Airdrop.sol": {
		"Airdrop": {
			"abi": [
				{
					"inputs": [
						{
							"internalType": "address",
							"name": "_token",
							"type": "address"
						}
					],
					"stateMutability": "nonpayable",
					"type": "constructor"
				},
				{
					"inputs": [
						{
							"internalType": "address",
							"name": "owner",
							"type": "address"
						}
					],
					"name": "OwnableInvalidOwner",
					"type": "error"
				},
				{
					"inputs": [
						{
							"internalType": "address",
							"name": "account",
							"type": "address"
						}
					],
					"name": "OwnableUnauthorizedAccount",
					"type": "error"
				},
				{
					"anonymous": false,
					"inputs": [
						{
							"indexed": true,
							"internalType": "address",
							"name": "previousOwner",
							"type": "address"
						},
						{
							"indexed": true,
							"internalType": "address",
							"name": "newOwner",
							"type": "address"
						}
					],
					"name": "OwnershipTransferred",
					"type": "event"
				},
				{
					"inputs": [
						{
							"internalType": "address[]",
							"name": "recipients",
							"type": "address[]"
						},
						{
							"internalType": "uint256",
							"name": "amount",
							"type": "uint256"
						}
					],
					"name": "distributeTokens",
					"outputs": [],
					"stateMutability": "nonpayable",
					"type": "function"
				},
				{
					"inputs": [],
					"name": "owner",
					"outputs": [
						{
							"internalType": "address",
							"name": "",
							"type": "address"
						}
					],
					"stateMutability": "view",
					"type": "function"
				},
				{
					"inputs": [],
					"name": "renounceOwnership",
					"outputs": [],
					"stateMutability": "nonpayable",
					"type": "function"
				},
				{
					"inputs": [],
					"name": "token",
					"outputs": [
						{
							"internalType": "contract IERC20",
							"name": "",
							"type": "address"
						}
					],
					"stateMutability": "view",
					"type": "function"
				},
				{
					"inputs": [
						{
							"internalType": "address",
							"name": "newOwner",
							"type": "address"
						}
					],
					"name": "transferOwnership",
					"outputs": [],
					"stateMutability": "nonpayable",
					"type": "function"
				},
				{
					"inputs": [
						{
							"internalType": "uint256",
							"name": "amount",
							"type": "uint256"
						}
					],
					"name": "withdrawTokens",
					"outputs": [],
					"stateMutability": "nonpayable",
					"type": "function"
				}
			],
			"devdoc": {
				"errors": {
					"OwnableInvalidOwner(address)": [
						{
							"details": "The owner is not a valid owner account. (eg. `address(0)`)"
						}
					],
					"OwnableUnauthorizedAccount(address)": [
						{
							"details": "The caller account is not authorized to perform an operation."
						}
					]
				},
				"kind": "dev",
				"methods": {
					"owner()": {
						"details": "Returns the address of the current owner."
					},
					"renounceOwnership()": {
						"details": "Leaves the contract without owner. It will not be possible to call `onlyOwner` functions. Can only be called by the current owner. NOTE: Renouncing ownership will leave the contract without an owner, thereby disabling any functionality that is only available to the owner."
					},
					"transferOwnership(address)": {
						"details": "Transfers ownership of the contract to a new account (`newOwner`). Can only be called by the current owner."
					}
				},
				"version": 1
			},
			"evm": {
				"assembly": "    /* \"contracts/study3/Airdrop.sol\":168:1326  contract Airdrop is Ownable {... */\n  mstore(0x40, 0x80)\n    /* \"contracts/study3/Airdrop.sol\":312:399  constructor(address _token) Ownable(msg.sender) {... */\n  callvalue\n  dup1\n  iszero\n  tag_1\n  jumpi\n  0x00\n  dup1\n  revert\ntag_1:\n  pop\n  mload(0x40)\n  sub(codesize, bytecodeSize)\n  dup1\n  bytecodeSize\n  dup4\n  codecopy\n  dup2\n  dup2\n  add\n  0x40\n  mstore\n  dup2\n  add\n  swap1\n  tag_2\n  swap2\n  swap1\n  tag_3\n  jump\t// in\ntag_2:\n    /* \"contracts/study3/Airdrop.sol\":348:358  msg.sender */\n  caller\n    /* \"@openzeppelin/contracts/access/Ownable.sol\":1297:1298  0 */\n  0x00\n    /* \"@openzeppelin/contracts/access/Ownable.sol\":1273:1299  initialOwner == address(0) */\n  0xffffffffffffffffffffffffffffffffffffffff\n  and\n    /* \"@openzeppelin/contracts/access/Ownable.sol\":1273:1285  initialOwner */\n  dup2\n    /* \"@openzeppelin/contracts/access/Ownable.sol\":1273:1299  initialOwner == address(0) */\n  0xffffffffffffffffffffffffffffffffffffffff\n  and\n  sub\n    /* \"@openzeppelin/contracts/access/Ownable.sol\":1269:1364  if (initialOwner == address(0)) {... */\n  tag_7\n  jumpi\n    /* \"@openzeppelin/contracts/access/Ownable.sol\":1350:1351  0 */\n  0x00\n    /* \"@openzeppelin/contracts/access/Ownable.sol\":1322:1353  OwnableInvalidOwner(address(0)) */\n  mload(0x40)\n  0x1e4fbdf700000000000000000000000000000000000000000000000000000000\n  dup2\n  mstore\n  0x04\n  add\n  tag_8\n  swap2\n  swap1\n  tag_9\n  jump\t// in\ntag_8:\n  mload(0x40)\n  dup1\n  swap2\n  sub\n  swap1\n  revert\n    /* \"@openzeppelin/contracts/access/Ownable.sol\":1269:1364  if (initialOwner == address(0)) {... */\ntag_7:\n    /* \"@openzeppelin/contracts/access/Ownable.sol\":1373:1405  _transferOwnership(initialOwner) */\n  tag_10\n    /* \"@openzeppelin/contracts/access/Ownable.sol\":1392:1404  initialOwner */\n  dup2\n    /* \"@openzeppelin/contracts/access/Ownable.sol\":1373:1391  _transferOwnership */\n  shl(0x20, tag_11)\n    /* \"@openzeppelin/contracts/access/Ownable.sol\":1373:1405  _transferOwnership(initialOwner) */\n  0x20\n  shr\n  jump\t// in\ntag_10:\n    /* \"@openzeppelin/contracts/access/Ownable.sol\":1225:1412  constructor(address initialOwner) {... */\n  pop\n    /* \"contracts/study3/Airdrop.sol\":385:391  _token */\n  dup1\n    /* \"contracts/study3/Airdrop.sol\":370:375  token */\n  0x01\n  0x00\n    /* \"contracts/study3/Airdrop.sol\":370:392  token = IERC20(_token) */\n  0x0100\n  exp\n  dup2\n  sload\n  dup2\n  0xffffffffffffffffffffffffffffffffffffffff\n  mul\n  not\n  and\n  swap1\n  dup4\n  0xffffffffffffffffffffffffffffffffffffffff\n  and\n  mul\n  or\n  swap1\n  sstore\n  pop\n    /* \"contracts/study3/Airdrop.sol\":312:399  constructor(address _token) Ownable(msg.sender) {... */\n  pop\n    /* \"contracts/study3/Airdrop.sol\":168:1326  contract Airdrop is Ownable {... */\n  jump(tag_13)\n    /* \"@openzeppelin/contracts/access/Ownable.sol\":2912:3099  function _transferOwnership(address newOwner) internal virtual {... */\ntag_11:\n    /* \"@openzeppelin/contracts/access/Ownable.sol\":2985:3001  address oldOwner */\n  0x00\n    /* \"@openzeppelin/contracts/access/Ownable.sol\":3004:3010  _owner */\n  dup1\n  0x00\n  swap1\n  sload\n  swap1\n  0x0100\n  exp\n  swap1\n  div\n  0xffffffffffffffffffffffffffffffffffffffff\n  and\n    /* \"@openzeppelin/contracts/access/Ownable.sol\":2985:3010  address oldOwner = _owner */\n  swap1\n  pop\n    /* \"@openzeppelin/contracts/access/Ownable.sol\":3029:3037  newOwner */\n  dup2\n    /* \"@openzeppelin/contracts/access/Ownable.sol\":3020:3026  _owner */\n  0x00\n  dup1\n    /* \"@openzeppelin/contracts/access/Ownable.sol\":3020:3037  _owner = newOwner */\n  0x0100\n  exp\n  dup2\n  sload\n  dup2\n  0xffffffffffffffffffffffffffffffffffffffff\n  mul\n  not\n  and\n  swap1\n  dup4\n  0xffffffffffffffffffffffffffffffffffffffff\n  and\n  mul\n  or\n  swap1\n  sstore\n  pop\n    /* \"@openzeppelin/contracts/access/Ownable.sol\":3083:3091  newOwner */\n  dup2\n    /* \"@openzeppelin/contracts/access/Ownable.sol\":3052:3092  OwnershipTransferred(oldOwner, newOwner) */\n  0xffffffffffffffffffffffffffffffffffffffff\n  and\n    /* \"@openzeppelin/contracts/access/Ownable.sol\":3073:3081  oldOwner */\n  dup2\n    /* \"@openzeppelin/contracts/access/Ownable.sol\":3052:3092  OwnershipTransferred(oldOwner, newOwner) */\n  0xffffffffffffffffffffffffffffffffffffffff\n  and\n  0x8be0079c531659141344cd1fd0a4f28419497f9722a3daafe3b4186f6b6457e0\n  mload(0x40)\n  mload(0x40)\n  dup1\n  swap2\n  sub\n  swap1\n  log3\n    /* \"@openzeppelin/contracts/access/Ownable.sol\":2975:3099  {... */\n  pop\n    /* \"@openzeppelin/contracts/access/Ownable.sol\":2912:3099  function _transferOwnership(address newOwner) internal virtual {... */\n  pop\n  jump\t// out\n    /* \"#utility.yul\":88:205   */\ntag_16:\n    /* \"#utility.yul\":197:198   */\n  0x00\n    /* \"#utility.yul\":194:195   */\n  dup1\n    /* \"#utility.yul\":187:199   */\n  revert\n    /* \"#utility.yul\":334:460   */\ntag_18:\n    /* \"#utility.yul\":371:378   */\n  0x00\n    /* \"#utility.yul\":411:453   */\n  0xffffffffffffffffffffffffffffffffffffffff\n    /* \"#utility.yul\":404:409   */\n  dup3\n    /* \"#utility.yul\":400:454   */\n  and\n    /* \"#utility.yul\":389:454   */\n  swap1\n  pop\n    /* \"#utility.yul\":334:460   */\n  swap2\n  swap1\n  pop\n  jump\t// out\n    /* \"#utility.yul\":466:562   */\ntag_19:\n    /* \"#utility.yul\":503:510   */\n  0x00\n    /* \"#utility.yul\":532:556   */\n  tag_29\n    /* \"#utility.yul\":550:555   */\n  dup3\n    /* \"#utility.yul\":532:556   */\n  tag_18\n  jump\t// in\ntag_29:\n    /* \"#utility.yul\":521:556   */\n  swap1\n  pop\n    /* \"#utility.yul\":466:562   */\n  swap2\n  swap1\n  pop\n  jump\t// out\n    /* \"#utility.yul\":568:690   */\ntag_20:\n    /* \"#utility.yul\":641:665   */\n  tag_31\n    /* \"#utility.yul\":659:664   */\n  dup2\n    /* \"#utility.yul\":641:665   */\n  tag_19\n  jump\t// in\ntag_31:\n    /* \"#utility.yul\":634:639   */\n  dup2\n    /* \"#utility.yul\":631:666   */\n  eq\n    /* \"#utility.yul\":621:684   */\n  tag_32\n  jumpi\n    /* \"#utility.yul\":680:681   */\n  0x00\n    /* \"#utility.yul\":677:678   */\n  dup1\n    /* \"#utility.yul\":670:682   */\n  revert\n    /* \"#utility.yul\":621:684   */\ntag_32:\n    /* \"#utility.yul\":568:690   */\n  pop\n  jump\t// out\n    /* \"#utility.yul\":696:839   */\ntag_21:\n    /* \"#utility.yul\":753:758   */\n  0x00\n    /* \"#utility.yul\":784:790   */\n  dup2\n    /* \"#utility.yul\":778:791   */\n  mload\n    /* \"#utility.yul\":769:791   */\n  swap1\n  pop\n    /* \"#utility.yul\":800:833   */\n  tag_34\n    /* \"#utility.yul\":827:832   */\n  dup2\n    /* \"#utility.yul\":800:833   */\n  tag_20\n  jump\t// in\ntag_34:\n    /* \"#utility.yul\":696:839   */\n  swap3\n  swap2\n  pop\n  pop\n  jump\t// out\n    /* \"#utility.yul\":845:1196   */\ntag_3:\n    /* \"#utility.yul\":915:921   */\n  0x00\n    /* \"#utility.yul\":964:966   */\n  0x20\n    /* \"#utility.yul\":952:961   */\n  dup3\n    /* \"#utility.yul\":943:950   */\n  dup5\n    /* \"#utility.yul\":939:962   */\n  sub\n    /* \"#utility.yul\":935:967   */\n  slt\n    /* \"#utility.yul\":932:1051   */\n  iszero\n  tag_36\n  jumpi\n    /* \"#utility.yul\":970:1049   */\n  tag_37\n  tag_16\n  jump\t// in\ntag_37:\n    /* \"#utility.yul\":932:1051   */\ntag_36:\n    /* \"#utility.yul\":1090:1091   */\n  0x00\n    /* \"#utility.yul\":1115:1179   */\n  tag_38\n    /* \"#utility.yul\":1171:1178   */\n  dup5\n    /* \"#utility.yul\":1162:1168   */\n  dup3\n    /* \"#utility.yul\":1151:1160   */\n  dup6\n    /* \"#utility.yul\":1147:1169   */\n  add\n    /* \"#utility.yul\":1115:1179   */\n  tag_21\n  jump\t// in\ntag_38:\n    /* \"#utility.yul\":1105:1179   */\n  swap2\n  pop\n    /* \"#utility.yul\":1061:1189   */\n  pop\n    /* \"#utility.yul\":845:1196   */\n  swap3\n  swap2\n  pop\n  pop\n  jump\t// out\n    /* \"#utility.yul\":1202:1320   */\ntag_22:\n    /* \"#utility.yul\":1289:1313   */\n  tag_40\n    /* \"#utility.yul\":1307:1312   */\n  dup2\n    /* \"#utility.yul\":1289:1313   */\n  tag_19\n  jump\t// in\ntag_40:\n    /* \"#utility.yul\":1284:1287   */\n  dup3\n    /* \"#utility.yul\":1277:1314   */\n  mstore\n    /* \"#utility.yul\":1202:1320   */\n  pop\n  pop\n  jump\t// out\n    /* \"#utility.yul\":1326:1548   */\ntag_9:\n    /* \"#utility.yul\":1419:1423   */\n  0x00\n    /* \"#utility.yul\":1457:1459   */\n  0x20\n    /* \"#utility.yul\":1446:1455   */\n  dup3\n    /* \"#utility.yul\":1442:1460   */\n  add\n    /* \"#utility.yul\":1434:1460   */\n  swap1\n  pop\n    /* \"#utility.yul\":1470:1541   */\n  tag_42\n    /* \"#utility.yul\":1538:1539   */\n  0x00\n    /* \"#utility.yul\":1527:1536   */\n  dup4\n    /* \"#utility.yul\":1523:1540   */\n  add\n    /* \"#utility.yul\":1514:1520   */\n  dup5\n    /* \"#utility.yul\":1470:1541   */\n  tag_22\n  jump\t// in\ntag_42:\n    /* \"#utility.yul\":1326:1548   */\n  swap3\n  swap2\n  pop\n  pop\n  jump\t// out\n    /* \"contracts/study3/Airdrop.sol\":168:1326  contract Airdrop is Ownable {... */\ntag_13:\n  dataSize(sub_0)\n  dup1\n  dataOffset(sub_0)\n  0x00\n  codecopy\n  0x00\n  return\nstop\n\nsub_0: assembly {\n        /* \"contracts/study3/Airdrop.sol\":168:1326  contract Airdrop is Ownable {... */\n      mstore(0x40, 0x80)\n      callvalue\n      dup1\n      iszero\n      tag_1\n      jumpi\n      0x00\n      dup1\n      revert\n    tag_1:\n      pop\n      jumpi(tag_2, lt(calldatasize, 0x04))\n      shr(0xe0, calldataload(0x00))\n      dup1\n      0x256fa241\n      eq\n      tag_3\n      jumpi\n      dup1\n      0x315a095d\n      eq\n      tag_4\n      jumpi\n      dup1\n      0x715018a6\n      eq\n      tag_5\n      jumpi\n      dup1\n      0x8da5cb5b\n      eq\n      tag_6\n      jumpi\n      dup1\n      0xf2fde38b\n      eq\n      tag_7\n      jumpi\n      dup1\n      0xfc0c546a\n      eq\n      tag_8\n      jumpi\n    tag_2:\n      0x00\n      dup1\n      revert\n        /* \"contracts/study3/Airdrop.sol\":464:1026  function distributeTokens(address[] calldata recipients, uint256 amount)... */\n    tag_3:\n      tag_9\n      0x04\n      dup1\n      calldatasize\n      sub\n      dup2\n      add\n      swap1\n      tag_10\n      swap2\n      swap1\n      tag_11\n      jump\t// in\n    tag_10:\n      tag_12\n      jump\t// in\n    tag_9:\n      stop\n        /* \"contracts/study3/Airdrop.sol\":1091:1324  function withdrawTokens(uint256 amount) external onlyOwner {... */\n    tag_4:\n      tag_13\n      0x04\n      dup1\n      calldatasize\n      sub\n      dup2\n      add\n      swap1\n      tag_14\n      swap2\n      swap1\n      tag_15\n      jump\t// in\n    tag_14:\n      tag_16\n      jump\t// in\n    tag_13:\n      stop\n        /* \"@openzeppelin/contracts/access/Ownable.sol\":2293:2394  function renounceOwnership() public virtual onlyOwner {... */\n    tag_5:\n      tag_17\n      tag_18\n      jump\t// in\n    tag_17:\n      stop\n        /* \"@openzeppelin/contracts/access/Ownable.sol\":1638:1723  function owner() public view virtual returns (address) {... */\n    tag_6:\n      tag_19\n      tag_20\n      jump\t// in\n    tag_19:\n      mload(0x40)\n      tag_21\n      swap2\n      swap1\n      tag_22\n      jump\t// in\n    tag_21:\n      mload(0x40)\n      dup1\n      swap2\n      sub\n      swap1\n      return\n        /* \"@openzeppelin/contracts/access/Ownable.sol\":2543:2758  function transferOwnership(address newOwner) public virtual onlyOwner {... */\n    tag_7:\n      tag_23\n      0x04\n      dup1\n      calldatasize\n      sub\n      dup2\n      add\n      swap1\n      tag_24\n      swap2\n      swap1\n      tag_25\n      jump\t// in\n    tag_24:\n      tag_26\n      jump\t// in\n    tag_23:\n      stop\n        /* \"contracts/study3/Airdrop.sol\":202:221  IERC20 public token */\n    tag_8:\n      tag_27\n      tag_28\n      jump\t// in\n    tag_27:\n      mload(0x40)\n      tag_29\n      swap2\n      swap1\n      tag_30\n      jump\t// in\n    tag_29:\n      mload(0x40)\n      dup1\n      swap2\n      sub\n      swap1\n      return\n        /* \"contracts/study3/Airdrop.sol\":464:1026  function distributeTokens(address[] calldata recipients, uint256 amount)... */\n    tag_12:\n        /* \"@openzeppelin/contracts/access/Ownable.sol\":1531:1544  _checkOwner() */\n      tag_32\n        /* \"@openzeppelin/contracts/access/Ownable.sol\":1531:1542  _checkOwner */\n      tag_33\n        /* \"@openzeppelin/contracts/access/Ownable.sol\":1531:1544  _checkOwner() */\n      jump\t// in\n    tag_32:\n        /* \"contracts/study3/Airdrop.sol\":614:615  0 */\n      0x00\n        /* \"contracts/study3/Airdrop.sol\":594:604  recipients */\n      dup4\n      dup4\n        /* \"contracts/study3/Airdrop.sol\":594:611  recipients.length */\n      swap1\n      pop\n        /* \"contracts/study3/Airdrop.sol\":594:615  recipients.length > 0 */\n      gt\n        /* \"contracts/study3/Airdrop.sol\":586:633  require(recipients.length > 0, \"No recipients\") */\n      tag_35\n      jumpi\n      mload(0x40)\n      0x08c379a000000000000000000000000000000000000000000000000000000000\n      dup2\n      mstore\n      0x04\n      add\n      tag_36\n      swap1\n      tag_37\n      jump\t// in\n    tag_36:\n      mload(0x40)\n      dup1\n      swap2\n      sub\n      swap1\n      revert\n    tag_35:\n        /* \"contracts/study3/Airdrop.sol\":660:661  0 */\n      0x00\n        /* \"contracts/study3/Airdrop.sol\":651:657  amount */\n      dup2\n        /* \"contracts/study3/Airdrop.sol\":651:661  amount > 0 */\n      gt\n        /* \"contracts/study3/Airdrop.sol\":643:695  require(amount > 0, \"Amount must be greater than 0\") */\n      tag_38\n      jumpi\n      mload(0x40)\n      0x08c379a000000000000000000000000000000000000000000000000000000000\n      dup2\n      mstore\n      0x04\n      add\n      tag_39\n      swap1\n      tag_40\n      jump\t// in\n    tag_39:\n      mload(0x40)\n      dup1\n      swap2\n      sub\n      swap1\n      revert\n    tag_38:\n        /* \"contracts/study3/Airdrop.sol\":770:779  uint256 i */\n      0x00\n        /* \"contracts/study3/Airdrop.sol\":765:1020  for (uint256 i = 0; i < recipients.length; i++) {... */\n    tag_41:\n        /* \"contracts/study3/Airdrop.sol\":789:799  recipients */\n      dup4\n      dup4\n        /* \"contracts/study3/Airdrop.sol\":789:806  recipients.length */\n      swap1\n      pop\n        /* \"contracts/study3/Airdrop.sol\":785:786  i */\n      dup2\n        /* \"contracts/study3/Airdrop.sol\":785:806  i < recipients.length */\n      lt\n        /* \"contracts/study3/Airdrop.sol\":765:1020  for (uint256 i = 0; i < recipients.length; i++) {... */\n      iszero\n      tag_42\n      jumpi\n        /* \"contracts/study3/Airdrop.sol\":886:892  amount */\n      dup2\n        /* \"contracts/study3/Airdrop.sol\":852:857  token */\n      0x01\n      0x00\n      swap1\n      sload\n      swap1\n      0x0100\n      exp\n      swap1\n      div\n      0xffffffffffffffffffffffffffffffffffffffff\n      and\n        /* \"contracts/study3/Airdrop.sol\":852:867  token.balanceOf */\n      0xffffffffffffffffffffffffffffffffffffffff\n      and\n      0x70a08231\n        /* \"contracts/study3/Airdrop.sol\":876:880  this */\n      address\n        /* \"contracts/study3/Airdrop.sol\":852:882  token.balanceOf(address(this)) */\n      mload(0x40)\n      dup3\n      0xffffffff\n      and\n      0xe0\n      shl\n      dup2\n      mstore\n      0x04\n      add\n      tag_44\n      swap2\n      swap1\n      tag_22\n      jump\t// in\n    tag_44:\n      0x20\n      mload(0x40)\n      dup1\n      dup4\n      sub\n      dup2\n      dup7\n      gas\n      staticcall\n      iszero\n      dup1\n      iszero\n      tag_46\n      jumpi\n      returndatasize\n      0x00\n      dup1\n      returndatacopy\n      revert(0x00, returndatasize)\n    tag_46:\n      pop\n      pop\n      pop\n      pop\n      mload(0x40)\n      returndatasize\n      not(0x1f)\n      0x1f\n      dup3\n      add\n      and\n      dup3\n      add\n      dup1\n      0x40\n      mstore\n      pop\n      dup2\n      add\n      swap1\n      tag_47\n      swap2\n      swap1\n      tag_48\n      jump\t// in\n    tag_47:\n        /* \"contracts/study3/Airdrop.sol\":852:892  token.balanceOf(address(this)) >= amount */\n      lt\n      iszero\n        /* \"contracts/study3/Airdrop.sol\":827:958  require(... */\n      tag_49\n      jumpi\n      mload(0x40)\n      0x08c379a000000000000000000000000000000000000000000000000000000000\n      dup2\n      mstore\n      0x04\n      add\n      tag_50\n      swap1\n      tag_51\n      jump\t// in\n    tag_50:\n      mload(0x40)\n      dup1\n      swap2\n      sub\n      swap1\n      revert\n    tag_49:\n        /* \"contracts/study3/Airdrop.sol\":972:977  token */\n      0x01\n      0x00\n      swap1\n      sload\n      swap1\n      0x0100\n      exp\n      swap1\n      div\n      0xffffffffffffffffffffffffffffffffffffffff\n      and\n        /* \"contracts/study3/Airdrop.sol\":972:986  token.transfer */\n      0xffffffffffffffffffffffffffffffffffffffff\n      and\n      0xa9059cbb\n        /* \"contracts/study3/Airdrop.sol\":987:997  recipients */\n      dup6\n      dup6\n        /* \"contracts/study3/Airdrop.sol\":998:999  i */\n      dup5\n        /* \"contracts/study3/Airdrop.sol\":987:1000  recipients[i] */\n      dup2\n      dup2\n      lt\n      tag_52\n      jumpi\n      tag_53\n      tag_54\n      jump\t// in\n    tag_53:\n    tag_52:\n      swap1\n      pop\n      0x20\n      mul\n      add\n      0x20\n      dup2\n      add\n      swap1\n      tag_55\n      swap2\n      swap1\n      tag_25\n      jump\t// in\n    tag_55:\n        /* \"contracts/study3/Airdrop.sol\":1002:1008  amount */\n      dup5\n        /* \"contracts/study3/Airdrop.sol\":972:1009  token.transfer(recipients[i], amount) */\n      mload(0x40)\n      dup4\n      0xffffffff\n      and\n      0xe0\n      shl\n      dup2\n      mstore\n      0x04\n      add\n      tag_56\n      swap3\n      swap2\n      swap1\n      tag_57\n      jump\t// in\n    tag_56:\n      0x20\n      mload(0x40)\n      dup1\n      dup4\n      sub\n      dup2\n      0x00\n      dup8\n      gas\n      call\n      iszero\n      dup1\n      iszero\n      tag_59\n      jumpi\n      returndatasize\n      0x00\n      dup1\n      returndatacopy\n      revert(0x00, returndatasize)\n    tag_59:\n      pop\n      pop\n      pop\n      pop\n      mload(0x40)\n      returndatasize\n      not(0x1f)\n      0x1f\n      dup3\n      add\n      and\n      dup3\n      add\n      dup1\n      0x40\n      mstore\n      pop\n      dup2\n      add\n      swap1\n      tag_60\n      swap2\n      swap1\n      tag_61\n      jump\t// in\n    tag_60:\n      pop\n        /* \"contracts/study3/Airdrop.sol\":808:811  i++ */\n      dup1\n      dup1\n      0x01\n      add\n      swap2\n      pop\n      pop\n        /* \"contracts/study3/Airdrop.sol\":765:1020  for (uint256 i = 0; i < recipients.length; i++) {... */\n      jump(tag_41)\n    tag_42:\n      pop\n        /* \"contracts/study3/Airdrop.sol\":464:1026  function distributeTokens(address[] calldata recipients, uint256 amount)... */\n      pop\n      pop\n      pop\n      jump\t// out\n        /* \"contracts/study3/Airdrop.sol\":1091:1324  function withdrawTokens(uint256 amount) external onlyOwner {... */\n    tag_16:\n        /* \"@openzeppelin/contracts/access/Ownable.sol\":1531:1544  _checkOwner() */\n      tag_63\n        /* \"@openzeppelin/contracts/access/Ownable.sol\":1531:1542  _checkOwner */\n      tag_33\n        /* \"@openzeppelin/contracts/access/Ownable.sol\":1531:1544  _checkOwner() */\n      jump\t// in\n    tag_63:\n        /* \"contracts/study3/Airdrop.sol\":1215:1221  amount */\n      dup1\n        /* \"contracts/study3/Airdrop.sol\":1181:1186  token */\n      0x01\n      0x00\n      swap1\n      sload\n      swap1\n      0x0100\n      exp\n      swap1\n      div\n      0xffffffffffffffffffffffffffffffffffffffff\n      and\n        /* \"contracts/study3/Airdrop.sol\":1181:1196  token.balanceOf */\n      0xffffffffffffffffffffffffffffffffffffffff\n      and\n      0x70a08231\n        /* \"contracts/study3/Airdrop.sol\":1205:1209  this */\n      address\n        /* \"contracts/study3/Airdrop.sol\":1181:1211  token.balanceOf(address(this)) */\n      mload(0x40)\n      dup3\n      0xffffffff\n      and\n      0xe0\n      shl\n      dup2\n      mstore\n      0x04\n      add\n      tag_65\n      swap2\n      swap1\n      tag_22\n      jump\t// in\n    tag_65:\n      0x20\n      mload(0x40)\n      dup1\n      dup4\n      sub\n      dup2\n      dup7\n      gas\n      staticcall\n      iszero\n      dup1\n      iszero\n      tag_67\n      jumpi\n      returndatasize\n      0x00\n      dup1\n      returndatacopy\n      revert(0x00, returndatasize)\n    tag_67:\n      pop\n      pop\n      pop\n      pop\n      mload(0x40)\n      returndatasize\n      not(0x1f)\n      0x1f\n      dup3\n      add\n      and\n      dup3\n      add\n      dup1\n      0x40\n      mstore\n      pop\n      dup2\n      add\n      swap1\n      tag_68\n      swap2\n      swap1\n      tag_48\n      jump\t// in\n    tag_68:\n        /* \"contracts/study3/Airdrop.sol\":1181:1221  token.balanceOf(address(this)) >= amount */\n      lt\n      iszero\n        /* \"contracts/study3/Airdrop.sol\":1160:1276  require(... */\n      tag_69\n      jumpi\n      mload(0x40)\n      0x08c379a000000000000000000000000000000000000000000000000000000000\n      dup2\n      mstore\n      0x04\n      add\n      tag_70\n      swap1\n      tag_71\n      jump\t// in\n    tag_70:\n      mload(0x40)\n      dup1\n      swap2\n      sub\n      swap1\n      revert\n    tag_69:\n        /* \"contracts/study3/Airdrop.sol\":1286:1291  token */\n      0x01\n      0x00\n      swap1\n      sload\n      swap1\n      0x0100\n      exp\n      swap1\n      div\n      0xffffffffffffffffffffffffffffffffffffffff\n      and\n        /* \"contracts/study3/Airdrop.sol\":1286:1300  token.transfer */\n      0xffffffffffffffffffffffffffffffffffffffff\n      and\n      0xa9059cbb\n        /* \"contracts/study3/Airdrop.sol\":1301:1308  owner() */\n      tag_72\n        /* \"contracts/study3/Airdrop.sol\":1301:1306  owner */\n      tag_20\n        /* \"contracts/study3/Airdrop.sol\":1301:1308  owner() */\n      jump\t// in\n    tag_72:\n        /* \"contracts/study3/Airdrop.sol\":1310:1316  amount */\n      dup4\n        /* \"contracts/study3/Airdrop.sol\":1286:1317  token.transfer(owner(), amount) */\n      mload(0x40)\n      dup4\n      0xffffffff\n      and\n      0xe0\n      shl\n      dup2\n      mstore\n      0x04\n      add\n      tag_73\n      swap3\n      swap2\n      swap1\n      tag_57\n      jump\t// in\n    tag_73:\n      0x20\n      mload(0x40)\n      dup1\n      dup4\n      sub\n      dup2\n      0x00\n      dup8\n      gas\n      call\n      iszero\n      dup1\n      iszero\n      tag_75\n      jumpi\n      returndatasize\n      0x00\n      dup1\n      returndatacopy\n      revert(0x00, returndatasize)\n    tag_75:\n      pop\n      pop\n      pop\n      pop\n      mload(0x40)\n      returndatasize\n      not(0x1f)\n      0x1f\n      dup3\n      add\n      and\n      dup3\n      add\n      dup1\n      0x40\n      mstore\n      pop\n      dup2\n      add\n      swap1\n      tag_76\n      swap2\n      swap1\n      tag_61\n      jump\t// in\n    tag_76:\n      pop\n        /* \"contracts/study3/Airdrop.sol\":1091:1324  function withdrawTokens(uint256 amount) external onlyOwner {... */\n      pop\n      jump\t// out\n        /* \"@openzeppelin/contracts/access/Ownable.sol\":2293:2394  function renounceOwnership() public virtual onlyOwner {... */\n    tag_18:\n        /* \"@openzeppelin/contracts/access/Ownable.sol\":1531:1544  _checkOwner() */\n      tag_78\n        /* \"@openzeppelin/contracts/access/Ownable.sol\":1531:1542  _checkOwner */\n      tag_33\n        /* \"@openzeppelin/contracts/access/Ownable.sol\":1531:1544  _checkOwner() */\n      jump\t// in\n    tag_78:\n        /* \"@openzeppelin/contracts/access/Ownable.sol\":2357:2387  _transferOwnership(address(0)) */\n      tag_80\n        /* \"@openzeppelin/contracts/access/Ownable.sol\":2384:2385  0 */\n      0x00\n        /* \"@openzeppelin/contracts/access/Ownable.sol\":2357:2375  _transferOwnership */\n      tag_81\n        /* \"@openzeppelin/contracts/access/Ownable.sol\":2357:2387  _transferOwnership(address(0)) */\n      jump\t// in\n    tag_80:\n        /* \"@openzeppelin/contracts/access/Ownable.sol\":2293:2394  function renounceOwnership() public virtual onlyOwner {... */\n      jump\t// out\n        /* \"@openzeppelin/contracts/access/Ownable.sol\":1638:1723  function owner() public view virtual returns (address) {... */\n    tag_20:\n        /* \"@openzeppelin/contracts/access/Ownable.sol\":1684:1691  address */\n      0x00\n        /* \"@openzeppelin/contracts/access/Ownable.sol\":1710:1716  _owner */\n      dup1\n      0x00\n      swap1\n      sload\n      swap1\n      0x0100\n      exp\n      swap1\n      div\n      0xffffffffffffffffffffffffffffffffffffffff\n      and\n        /* \"@openzeppelin/contracts/access/Ownable.sol\":1703:1716  return _owner */\n      swap1\n      pop\n        /* \"@openzeppelin/contracts/access/Ownable.sol\":1638:1723  function owner() public view virtual returns (address) {... */\n      swap1\n      jump\t// out\n        /* \"@openzeppelin/contracts/access/Ownable.sol\":2543:2758  function transferOwnership(address newOwner) public virtual onlyOwner {... */\n    tag_26:\n        /* \"@openzeppelin/contracts/access/Ownable.sol\":1531:1544  _checkOwner() */\n      tag_84\n        /* \"@openzeppelin/contracts/access/Ownable.sol\":1531:1542  _checkOwner */\n      tag_33\n        /* \"@openzeppelin/contracts/access/Ownable.sol\":1531:1544  _checkOwner() */\n      jump\t// in\n    tag_84:\n        /* \"@openzeppelin/contracts/access/Ownable.sol\":2647:2648  0 */\n      0x00\n        /* \"@openzeppelin/contracts/access/Ownable.sol\":2627:2649  newOwner == address(0) */\n      0xffffffffffffffffffffffffffffffffffffffff\n      and\n        /* \"@openzeppelin/contracts/access/Ownable.sol\":2627:2635  newOwner */\n      dup2\n        /* \"@openzeppelin/contracts/access/Ownable.sol\":2627:2649  newOwner == address(0) */\n      0xffffffffffffffffffffffffffffffffffffffff\n      and\n      sub\n        /* \"@openzeppelin/contracts/access/Ownable.sol\":2623:2714  if (newOwner == address(0)) {... */\n      tag_86\n      jumpi\n        /* \"@openzeppelin/contracts/access/Ownable.sol\":2700:2701  0 */\n      0x00\n        /* \"@openzeppelin/contracts/access/Ownable.sol\":2672:2703  OwnableInvalidOwner(address(0)) */\n      mload(0x40)\n      0x1e4fbdf700000000000000000000000000000000000000000000000000000000\n      dup2\n      mstore\n      0x04\n      add\n      tag_87\n      swap2\n      swap1\n      tag_22\n      jump\t// in\n    tag_87:\n      mload(0x40)\n      dup1\n      swap2\n      sub\n      swap1\n      revert\n        /* \"@openzeppelin/contracts/access/Ownable.sol\":2623:2714  if (newOwner == address(0)) {... */\n    tag_86:\n        /* \"@openzeppelin/contracts/access/Ownable.sol\":2723:2751  _transferOwnership(newOwner) */\n      tag_88\n        /* \"@openzeppelin/contracts/access/Ownable.sol\":2742:2750  newOwner */\n      dup2\n        /* \"@openzeppelin/contracts/access/Ownable.sol\":2723:2741  _transferOwnership */\n      tag_81\n        /* \"@openzeppelin/contracts/access/Ownable.sol\":2723:2751  _transferOwnership(newOwner) */\n      jump\t// in\n    tag_88:\n        /* \"@openzeppelin/contracts/access/Ownable.sol\":2543:2758  function transferOwnership(address newOwner) public virtual onlyOwner {... */\n      pop\n      jump\t// out\n        /* \"contracts/study3/Airdrop.sol\":202:221  IERC20 public token */\n    tag_28:\n      0x01\n      0x00\n      swap1\n      sload\n      swap1\n      0x0100\n      exp\n      swap1\n      div\n      0xffffffffffffffffffffffffffffffffffffffff\n      and\n      dup2\n      jump\t// out\n        /* \"@openzeppelin/contracts/access/Ownable.sol\":1796:1958  function _checkOwner() internal view virtual {... */\n    tag_33:\n        /* \"@openzeppelin/contracts/access/Ownable.sol\":1866:1878  _msgSender() */\n      tag_90\n        /* \"@openzeppelin/contracts/access/Ownable.sol\":1866:1876  _msgSender */\n      tag_91\n        /* \"@openzeppelin/contracts/access/Ownable.sol\":1866:1878  _msgSender() */\n      jump\t// in\n    tag_90:\n        /* \"@openzeppelin/contracts/access/Ownable.sol\":1855:1878  owner() != _msgSender() */\n      0xffffffffffffffffffffffffffffffffffffffff\n      and\n        /* \"@openzeppelin/contracts/access/Ownable.sol\":1855:1862  owner() */\n      tag_92\n        /* \"@openzeppelin/contracts/access/Ownable.sol\":1855:1860  owner */\n      tag_20\n        /* \"@openzeppelin/contracts/access/Ownable.sol\":1855:1862  owner() */\n      jump\t// in\n    tag_92:\n        /* \"@openzeppelin/contracts/access/Ownable.sol\":1855:1878  owner() != _msgSender() */\n      0xffffffffffffffffffffffffffffffffffffffff\n      and\n      eq\n        /* \"@openzeppelin/contracts/access/Ownable.sol\":1851:1952  if (owner() != _msgSender()) {... */\n      tag_93\n      jumpi\n        /* \"@openzeppelin/contracts/access/Ownable.sol\":1928:1940  _msgSender() */\n      tag_94\n        /* \"@openzeppelin/contracts/access/Ownable.sol\":1928:1938  _msgSender */\n      tag_91\n        /* \"@openzeppelin/contracts/access/Ownable.sol\":1928:1940  _msgSender() */\n      jump\t// in\n    tag_94:\n        /* \"@openzeppelin/contracts/access/Ownable.sol\":1901:1941  OwnableUnauthorizedAccount(_msgSender()) */\n      mload(0x40)\n      0x118cdaa700000000000000000000000000000000000000000000000000000000\n      dup2\n      mstore\n      0x04\n      add\n      tag_95\n      swap2\n      swap1\n      tag_22\n      jump\t// in\n    tag_95:\n      mload(0x40)\n      dup1\n      swap2\n      sub\n      swap1\n      revert\n        /* \"@openzeppelin/contracts/access/Ownable.sol\":1851:1952  if (owner() != _msgSender()) {... */\n    tag_93:\n        /* \"@openzeppelin/contracts/access/Ownable.sol\":1796:1958  function _checkOwner() internal view virtual {... */\n      jump\t// out\n        /* \"@openzeppelin/contracts/access/Ownable.sol\":2912:3099  function _transferOwnership(address newOwner) internal virtual {... */\n    tag_81:\n        /* \"@openzeppelin/contracts/access/Ownable.sol\":2985:3001  address oldOwner */\n      0x00\n        /* \"@openzeppelin/contracts/access/Ownable.sol\":3004:3010  _owner */\n      dup1\n      0x00\n      swap1\n      sload\n      swap1\n      0x0100\n      exp\n      swap1\n      div\n      0xffffffffffffffffffffffffffffffffffffffff\n      and\n        /* \"@openzeppelin/contracts/access/Ownable.sol\":2985:3010  address oldOwner = _owner */\n      swap1\n      pop\n        /* \"@openzeppelin/contracts/access/Ownable.sol\":3029:3037  newOwner */\n      dup2\n        /* \"@openzeppelin/contracts/access/Ownable.sol\":3020:3026  _owner */\n      0x00\n      dup1\n        /* \"@openzeppelin/contracts/access/Ownable.sol\":3020:3037  _owner = newOwner */\n      0x0100\n      exp\n      dup2\n      sload\n      dup2\n      0xffffffffffffffffffffffffffffffffffffffff\n      mul\n      not\n      and\n      swap1\n      dup4\n      0xffffffffffffffffffffffffffffffffffffffff\n      and\n      mul\n      or\n      swap1\n      sstore\n      pop\n        /* \"@openzeppelin/contracts/access/Ownable.sol\":3083:3091  newOwner */\n      dup2\n        /* \"@openzeppelin/contracts/access/Ownable.sol\":3052:3092  OwnershipTransferred(oldOwner, newOwner) */\n      0xffffffffffffffffffffffffffffffffffffffff\n      and\n        /* \"@openzeppelin/contracts/access/Ownable.sol\":3073:3081  oldOwner */\n      dup2\n        /* \"@openzeppelin/contracts/access/Ownable.sol\":3052:3092  OwnershipTransferred(oldOwner, newOwner) */\n      0xffffffffffffffffffffffffffffffffffffffff\n      and\n      0x8be0079c531659141344cd1fd0a4f28419497f9722a3daafe3b4186f6b6457e0\n      mload(0x40)\n      mload(0x40)\n      dup1\n      swap2\n      sub\n      swap1\n      log3\n        /* \"@openzeppelin/contracts/access/Ownable.sol\":2975:3099  {... */\n      pop\n        /* \"@openzeppelin/contracts/access/Ownable.sol\":2912:3099  function _transferOwnership(address newOwner) internal virtual {... */\n      pop\n      jump\t// out\n        /* \"@openzeppelin/contracts/utils/Context.sol\":656:752  function _msgSender() internal view virtual returns (address) {... */\n    tag_91:\n        /* \"@openzeppelin/contracts/utils/Context.sol\":709:716  address */\n      0x00\n        /* \"@openzeppelin/contracts/utils/Context.sol\":735:745  msg.sender */\n      caller\n        /* \"@openzeppelin/contracts/utils/Context.sol\":728:745  return msg.sender */\n      swap1\n      pop\n        /* \"@openzeppelin/contracts/utils/Context.sol\":656:752  function _msgSender() internal view virtual returns (address) {... */\n      swap1\n      jump\t// out\n        /* \"#utility.yul\":88:205   */\n    tag_99:\n        /* \"#utility.yul\":197:198   */\n      0x00\n        /* \"#utility.yul\":194:195   */\n      dup1\n        /* \"#utility.yul\":187:199   */\n      revert\n        /* \"#utility.yul\":211:328   */\n    tag_100:\n        /* \"#utility.yul\":320:321   */\n      0x00\n        /* \"#utility.yul\":317:318   */\n      dup1\n        /* \"#utility.yul\":310:322   */\n      revert\n        /* \"#utility.yul\":334:451   */\n    tag_101:\n        /* \"#utility.yul\":443:444   */\n      0x00\n        /* \"#utility.yul\":440:441   */\n      dup1\n        /* \"#utility.yul\":433:445   */\n      revert\n        /* \"#utility.yul\":457:574   */\n    tag_102:\n        /* \"#utility.yul\":566:567   */\n      0x00\n        /* \"#utility.yul\":563:564   */\n      dup1\n        /* \"#utility.yul\":556:568   */\n      revert\n        /* \"#utility.yul\":580:697   */\n    tag_103:\n        /* \"#utility.yul\":689:690   */\n      0x00\n        /* \"#utility.yul\":686:687   */\n      dup1\n        /* \"#utility.yul\":679:691   */\n      revert\n        /* \"#utility.yul\":720:1288   */\n    tag_104:\n        /* \"#utility.yul\":793:801   */\n      0x00\n        /* \"#utility.yul\":803:809   */\n      dup1\n        /* \"#utility.yul\":853:856   */\n      dup4\n        /* \"#utility.yul\":846:850   */\n      0x1f\n        /* \"#utility.yul\":838:844   */\n      dup5\n        /* \"#utility.yul\":834:851   */\n      add\n        /* \"#utility.yul\":830:857   */\n      slt\n        /* \"#utility.yul\":820:942   */\n      tag_140\n      jumpi\n        /* \"#utility.yul\":861:940   */\n      tag_141\n      tag_101\n      jump\t// in\n    tag_141:\n        /* \"#utility.yul\":820:942   */\n    tag_140:\n        /* \"#utility.yul\":974:980   */\n      dup3\n        /* \"#utility.yul\":961:981   */\n      calldataload\n        /* \"#utility.yul\":951:981   */\n      swap1\n      pop\n        /* \"#utility.yul\":1004:1022   */\n      0xffffffffffffffff\n        /* \"#utility.yul\":996:1002   */\n      dup2\n        /* \"#utility.yul\":993:1023   */\n      gt\n        /* \"#utility.yul\":990:1107   */\n      iszero\n      tag_142\n      jumpi\n        /* \"#utility.yul\":1026:1105   */\n      tag_143\n      tag_102\n      jump\t// in\n    tag_143:\n        /* \"#utility.yul\":990:1107   */\n    tag_142:\n        /* \"#utility.yul\":1140:1144   */\n      0x20\n        /* \"#utility.yul\":1132:1138   */\n      dup4\n        /* \"#utility.yul\":1128:1145   */\n      add\n        /* \"#utility.yul\":1116:1145   */\n      swap2\n      pop\n        /* \"#utility.yul\":1194:1197   */\n      dup4\n        /* \"#utility.yul\":1186:1190   */\n      0x20\n        /* \"#utility.yul\":1178:1184   */\n      dup3\n        /* \"#utility.yul\":1174:1191   */\n      mul\n        /* \"#utility.yul\":1164:1172   */\n      dup4\n        /* \"#utility.yul\":1160:1192   */\n      add\n        /* \"#utility.yul\":1157:1198   */\n      gt\n        /* \"#utility.yul\":1154:1282   */\n      iszero\n      tag_144\n      jumpi\n        /* \"#utility.yul\":1201:1280   */\n      tag_145\n      tag_103\n      jump\t// in\n    tag_145:\n        /* \"#utility.yul\":1154:1282   */\n    tag_144:\n        /* \"#utility.yul\":720:1288   */\n      swap3\n      pop\n      swap3\n      swap1\n      pop\n      jump\t// out\n        /* \"#utility.yul\":1294:1371   */\n    tag_105:\n        /* \"#utility.yul\":1331:1338   */\n      0x00\n        /* \"#utility.yul\":1360:1365   */\n      dup2\n        /* \"#utility.yul\":1349:1365   */\n      swap1\n      pop\n        /* \"#utility.yul\":1294:1371   */\n      swap2\n      swap1\n      pop\n      jump\t// out\n        /* \"#utility.yul\":1377:1499   */\n    tag_106:\n        /* \"#utility.yul\":1450:1474   */\n      tag_148\n        /* \"#utility.yul\":1468:1473   */\n      dup2\n        /* \"#utility.yul\":1450:1474   */\n      tag_105\n      jump\t// in\n    tag_148:\n        /* \"#utility.yul\":1443:1448   */\n      dup2\n        /* \"#utility.yul\":1440:1475   */\n      eq\n        /* \"#utility.yul\":1430:1493   */\n      tag_149\n      jumpi\n        /* \"#utility.yul\":1489:1490   */\n      0x00\n        /* \"#utility.yul\":1486:1487   */\n      dup1\n        /* \"#utility.yul\":1479:1491   */\n      revert\n        /* \"#utility.yul\":1430:1493   */\n    tag_149:\n        /* \"#utility.yul\":1377:1499   */\n      pop\n      jump\t// out\n        /* \"#utility.yul\":1505:1644   */\n    tag_107:\n        /* \"#utility.yul\":1551:1556   */\n      0x00\n        /* \"#utility.yul\":1589:1595   */\n      dup2\n        /* \"#utility.yul\":1576:1596   */\n      calldataload\n        /* \"#utility.yul\":1567:1596   */\n      swap1\n      pop\n        /* \"#utility.yul\":1605:1638   */\n      tag_151\n        /* \"#utility.yul\":1632:1637   */\n      dup2\n        /* \"#utility.yul\":1605:1638   */\n      tag_106\n      jump\t// in\n    tag_151:\n        /* \"#utility.yul\":1505:1644   */\n      swap3\n      swap2\n      pop\n      pop\n      jump\t// out\n        /* \"#utility.yul\":1650:2354   */\n    tag_11:\n        /* \"#utility.yul\":1745:1751   */\n      0x00\n        /* \"#utility.yul\":1753:1759   */\n      dup1\n        /* \"#utility.yul\":1761:1767   */\n      0x00\n        /* \"#utility.yul\":1810:1812   */\n      0x40\n        /* \"#utility.yul\":1798:1807   */\n      dup5\n        /* \"#utility.yul\":1789:1796   */\n      dup7\n        /* \"#utility.yul\":1785:1808   */\n      sub\n        /* \"#utility.yul\":1781:1813   */\n      slt\n        /* \"#utility.yul\":1778:1897   */\n      iszero\n      tag_153\n      jumpi\n        /* \"#utility.yul\":1816:1895   */\n      tag_154\n      tag_99\n      jump\t// in\n    tag_154:\n        /* \"#utility.yul\":1778:1897   */\n    tag_153:\n        /* \"#utility.yul\":1964:1965   */\n      0x00\n        /* \"#utility.yul\":1953:1962   */\n      dup5\n        /* \"#utility.yul\":1949:1966   */\n      add\n        /* \"#utility.yul\":1936:1967   */\n      calldataload\n        /* \"#utility.yul\":1994:2012   */\n      0xffffffffffffffff\n        /* \"#utility.yul\":1986:1992   */\n      dup2\n        /* \"#utility.yul\":1983:2013   */\n      gt\n        /* \"#utility.yul\":1980:2097   */\n      iszero\n      tag_155\n      jumpi\n        /* \"#utility.yul\":2016:2095   */\n      tag_156\n      tag_100\n      jump\t// in\n    tag_156:\n        /* \"#utility.yul\":1980:2097   */\n    tag_155:\n        /* \"#utility.yul\":2129:2209   */\n      tag_157\n        /* \"#utility.yul\":2201:2208   */\n      dup7\n        /* \"#utility.yul\":2192:2198   */\n      dup3\n        /* \"#utility.yul\":2181:2190   */\n      dup8\n        /* \"#utility.yul\":2177:2199   */\n      add\n        /* \"#utility.yul\":2129:2209   */\n      tag_104\n      jump\t// in\n    tag_157:\n        /* \"#utility.yul\":2111:2209   */\n      swap4\n      pop\n      swap4\n      pop\n        /* \"#utility.yul\":1907:2219   */\n      pop\n        /* \"#utility.yul\":2258:2260   */\n      0x20\n        /* \"#utility.yul\":2284:2337   */\n      tag_158\n        /* \"#utility.yul\":2329:2336   */\n      dup7\n        /* \"#utility.yul\":2320:2326   */\n      dup3\n        /* \"#utility.yul\":2309:2318   */\n      dup8\n        /* \"#utility.yul\":2305:2327   */\n      add\n        /* \"#utility.yul\":2284:2337   */\n      tag_107\n      jump\t// in\n    tag_158:\n        /* \"#utility.yul\":2274:2337   */\n      swap2\n      pop\n        /* \"#utility.yul\":2229:2347   */\n      pop\n        /* \"#utility.yul\":1650:2354   */\n      swap3\n      pop\n      swap3\n      pop\n      swap3\n      jump\t// out\n        /* \"#utility.yul\":2360:2689   */\n    tag_15:\n        /* \"#utility.yul\":2419:2425   */\n      0x00\n        /* \"#utility.yul\":2468:2470   */\n      0x20\n        /* \"#utility.yul\":2456:2465   */\n      dup3\n        /* \"#utility.yul\":2447:2454   */\n      dup5\n        /* \"#utility.yul\":2443:2466   */\n      sub\n        /* \"#utility.yul\":2439:2471   */\n      slt\n        /* \"#utility.yul\":2436:2555   */\n      iszero\n      tag_160\n      jumpi\n        /* \"#utility.yul\":2474:2553   */\n      tag_161\n      tag_99\n      jump\t// in\n    tag_161:\n        /* \"#utility.yul\":2436:2555   */\n    tag_160:\n        /* \"#utility.yul\":2594:2595   */\n      0x00\n        /* \"#utility.yul\":2619:2672   */\n      tag_162\n        /* \"#utility.yul\":2664:2671   */\n      dup5\n        /* \"#utility.yul\":2655:2661   */\n      dup3\n        /* \"#utility.yul\":2644:2653   */\n      dup6\n        /* \"#utility.yul\":2640:2662   */\n      add\n        /* \"#utility.yul\":2619:2672   */\n      tag_107\n      jump\t// in\n    tag_162:\n        /* \"#utility.yul\":2609:2672   */\n      swap2\n      pop\n        /* \"#utility.yul\":2565:2682   */\n      pop\n        /* \"#utility.yul\":2360:2689   */\n      swap3\n      swap2\n      pop\n      pop\n      jump\t// out\n        /* \"#utility.yul\":2695:2821   */\n    tag_108:\n        /* \"#utility.yul\":2732:2739   */\n      0x00\n        /* \"#utility.yul\":2772:2814   */\n      0xffffffffffffffffffffffffffffffffffffffff\n        /* \"#utility.yul\":2765:2770   */\n      dup3\n        /* \"#utility.yul\":2761:2815   */\n      and\n        /* \"#utility.yul\":2750:2815   */\n      swap1\n      pop\n        /* \"#utility.yul\":2695:2821   */\n      swap2\n      swap1\n      pop\n      jump\t// out\n        /* \"#utility.yul\":2827:2923   */\n    tag_109:\n        /* \"#utility.yul\":2864:2871   */\n      0x00\n        /* \"#utility.yul\":2893:2917   */\n      tag_165\n        /* \"#utility.yul\":2911:2916   */\n      dup3\n        /* \"#utility.yul\":2893:2917   */\n      tag_108\n      jump\t// in\n    tag_165:\n        /* \"#utility.yul\":2882:2917   */\n      swap1\n      pop\n        /* \"#utility.yul\":2827:2923   */\n      swap2\n      swap1\n      pop\n      jump\t// out\n        /* \"#utility.yul\":2929:3047   */\n    tag_110:\n        /* \"#utility.yul\":3016:3040   */\n      tag_167\n        /* \"#utility.yul\":3034:3039   */\n      dup2\n        /* \"#utility.yul\":3016:3040   */\n      tag_109\n      jump\t// in\n    tag_167:\n        /* \"#utility.yul\":3011:3014   */\n      dup3\n        /* \"#utility.yul\":3004:3041   */\n      mstore\n        /* \"#utility.yul\":2929:3047   */\n      pop\n      pop\n      jump\t// out\n        /* \"#utility.yul\":3053:3275   */\n    tag_22:\n        /* \"#utility.yul\":3146:3150   */\n      0x00\n        /* \"#utility.yul\":3184:3186   */\n      0x20\n        /* \"#utility.yul\":3173:3182   */\n      dup3\n        /* \"#utility.yul\":3169:3187   */\n      add\n        /* \"#utility.yul\":3161:3187   */\n      swap1\n      pop\n        /* \"#utility.yul\":3197:3268   */\n      tag_169\n        /* \"#utility.yul\":3265:3266   */\n      0x00\n        /* \"#utility.yul\":3254:3263   */\n      dup4\n        /* \"#utility.yul\":3250:3267   */\n      add\n        /* \"#utility.yul\":3241:3247   */\n      dup5\n        /* \"#utility.yul\":3197:3268   */\n      tag_110\n      jump\t// in\n    tag_169:\n        /* \"#utility.yul\":3053:3275   */\n      swap3\n      swap2\n      pop\n      pop\n      jump\t// out\n        /* \"#utility.yul\":3281:3403   */\n    tag_111:\n        /* \"#utility.yul\":3354:3378   */\n      tag_171\n        /* \"#utility.yul\":3372:3377   */\n      dup2\n        /* \"#utility.yul\":3354:3378   */\n      tag_109\n      jump\t// in\n    tag_171:\n        /* \"#utility.yul\":3347:3352   */\n      dup2\n        /* \"#utility.yul\":3344:3379   */\n      eq\n        /* \"#utility.yul\":3334:3397   */\n      tag_172\n      jumpi\n        /* \"#utility.yul\":3393:3394   */\n      0x00\n        /* \"#utility.yul\":3390:3391   */\n      dup1\n        /* \"#utility.yul\":3383:3395   */\n      revert\n        /* \"#utility.yul\":3334:3397   */\n    tag_172:\n        /* \"#utility.yul\":3281:3403   */\n      pop\n      jump\t// out\n        /* \"#utility.yul\":3409:3548   */\n    tag_112:\n        /* \"#utility.yul\":3455:3460   */\n      0x00\n        /* \"#utility.yul\":3493:3499   */\n      dup2\n        /* \"#utility.yul\":3480:3500   */\n      calldataload\n        /* \"#utility.yul\":3471:3500   */\n      swap1\n      pop\n        /* \"#utility.yul\":3509:3542   */\n      tag_174\n        /* \"#utility.yul\":3536:3541   */\n      dup2\n        /* \"#utility.yul\":3509:3542   */\n      tag_111\n      jump\t// in\n    tag_174:\n        /* \"#utility.yul\":3409:3548   */\n      swap3\n      swap2\n      pop\n      pop\n      jump\t// out\n        /* \"#utility.yul\":3554:3883   */\n    tag_25:\n        /* \"#utility.yul\":3613:3619   */\n      0x00\n        /* \"#utility.yul\":3662:3664   */\n      0x20\n        /* \"#utility.yul\":3650:3659   */\n      dup3\n        /* \"#utility.yul\":3641:3648   */\n      dup5\n        /* \"#utility.yul\":3637:3660   */\n      sub\n        /* \"#utility.yul\":3633:3665   */\n      slt\n        /* \"#utility.yul\":3630:3749   */\n      iszero\n      tag_176\n      jumpi\n        /* \"#utility.yul\":3668:3747   */\n      tag_177\n      tag_99\n      jump\t// in\n    tag_177:\n        /* \"#utility.yul\":3630:3749   */\n    tag_176:\n        /* \"#utility.yul\":3788:3789   */\n      0x00\n        /* \"#utility.yul\":3813:3866   */\n      tag_178\n        /* \"#utility.yul\":3858:3865   */\n      dup5\n        /* \"#utility.yul\":3849:3855   */\n      dup3\n        /* \"#utility.yul\":3838:3847   */\n      dup6\n        /* \"#utility.yul\":3834:3856   */\n      add\n        /* \"#utility.yul\":3813:3866   */\n      tag_112\n      jump\t// in\n    tag_178:\n        /* \"#utility.yul\":3803:3866   */\n      swap2\n      pop\n        /* \"#utility.yul\":3759:3876   */\n      pop\n        /* \"#utility.yul\":3554:3883   */\n      swap3\n      swap2\n      pop\n      pop\n      jump\t// out\n        /* \"#utility.yul\":3889:3949   */\n    tag_113:\n        /* \"#utility.yul\":3917:3920   */\n      0x00\n        /* \"#utility.yul\":3938:3943   */\n      dup2\n        /* \"#utility.yul\":3931:3943   */\n      swap1\n      pop\n        /* \"#utility.yul\":3889:3949   */\n      swap2\n      swap1\n      pop\n      jump\t// out\n        /* \"#utility.yul\":3955:4097   */\n    tag_114:\n        /* \"#utility.yul\":4005:4014   */\n      0x00\n        /* \"#utility.yul\":4038:4091   */\n      tag_181\n        /* \"#utility.yul\":4056:4090   */\n      tag_182\n        /* \"#utility.yul\":4065:4089   */\n      tag_183\n        /* \"#utility.yul\":4083:4088   */\n      dup5\n        /* \"#utility.yul\":4065:4089   */\n      tag_108\n      jump\t// in\n    tag_183:\n        /* \"#utility.yul\":4056:4090   */\n      tag_113\n      jump\t// in\n    tag_182:\n        /* \"#utility.yul\":4038:4091   */\n      tag_108\n      jump\t// in\n    tag_181:\n        /* \"#utility.yul\":4025:4091   */\n      swap1\n      pop\n        /* \"#utility.yul\":3955:4097   */\n      swap2\n      swap1\n      pop\n      jump\t// out\n        /* \"#utility.yul\":4103:4229   */\n    tag_115:\n        /* \"#utility.yul\":4153:4162   */\n      0x00\n        /* \"#utility.yul\":4186:4223   */\n      tag_185\n        /* \"#utility.yul\":4217:4222   */\n      dup3\n        /* \"#utility.yul\":4186:4223   */\n      tag_114\n      jump\t// in\n    tag_185:\n        /* \"#utility.yul\":4173:4223   */\n      swap1\n      pop\n        /* \"#utility.yul\":4103:4229   */\n      swap2\n      swap1\n      pop\n      jump\t// out\n        /* \"#utility.yul\":4235:4375   */\n    tag_116:\n        /* \"#utility.yul\":4299:4308   */\n      0x00\n        /* \"#utility.yul\":4332:4369   */\n      tag_187\n        /* \"#utility.yul\":4363:4368   */\n      dup3\n        /* \"#utility.yul\":4332:4369   */\n      tag_115\n      jump\t// in\n    tag_187:\n        /* \"#utility.yul\":4319:4369   */\n      swap1\n      pop\n        /* \"#utility.yul\":4235:4375   */\n      swap2\n      swap1\n      pop\n      jump\t// out\n        /* \"#utility.yul\":4381:4540   */\n    tag_117:\n        /* \"#utility.yul\":4482:4533   */\n      tag_189\n        /* \"#utility.yul\":4527:4532   */\n      dup2\n        /* \"#utility.yul\":4482:4533   */\n      tag_116\n      jump\t// in\n    tag_189:\n        /* \"#utility.yul\":4477:4480   */\n      dup3\n        /* \"#utility.yul\":4470:4534   */\n      mstore\n        /* \"#utility.yul\":4381:4540   */\n      pop\n      pop\n      jump\t// out\n        /* \"#utility.yul\":4546:4796   */\n    tag_30:\n        /* \"#utility.yul\":4653:4657   */\n      0x00\n        /* \"#utility.yul\":4691:4693   */\n      0x20\n        /* \"#utility.yul\":4680:4689   */\n      dup3\n        /* \"#utility.yul\":4676:4694   */\n      add\n        /* \"#utility.yul\":4668:4694   */\n      swap1\n      pop\n        /* \"#utility.yul\":4704:4789   */\n      tag_191\n        /* \"#utility.yul\":4786:4787   */\n      0x00\n        /* \"#utility.yul\":4775:4784   */\n      dup4\n        /* \"#utility.yul\":4771:4788   */\n      add\n        /* \"#utility.yul\":4762:4768   */\n      dup5\n        /* \"#utility.yul\":4704:4789   */\n      tag_117\n      jump\t// in\n    tag_191:\n        /* \"#utility.yul\":4546:4796   */\n      swap3\n      swap2\n      pop\n      pop\n      jump\t// out\n        /* \"#utility.yul\":4802:4971   */\n    tag_118:\n        /* \"#utility.yul\":4886:4897   */\n      0x00\n        /* \"#utility.yul\":4920:4926   */\n      dup3\n        /* \"#utility.yul\":4915:4918   */\n      dup3\n        /* \"#utility.yul\":4908:4927   */\n      mstore\n        /* \"#utility.yul\":4960:4964   */\n      0x20\n        /* \"#utility.yul\":4955:4958   */\n      dup3\n        /* \"#utility.yul\":4951:4965   */\n      add\n        /* \"#utility.yul\":4936:4965   */\n      swap1\n      pop\n        /* \"#utility.yul\":4802:4971   */\n      swap3\n      swap2\n      pop\n      pop\n      jump\t// out\n        /* \"#utility.yul\":4977:5140   */\n    tag_119:\n        /* \"#utility.yul\":5117:5132   */\n      0x4e6f20726563697069656e747300000000000000000000000000000000000000\n        /* \"#utility.yul\":5113:5114   */\n      0x00\n        /* \"#utility.yul\":5105:5111   */\n      dup3\n        /* \"#utility.yul\":5101:5115   */\n      add\n        /* \"#utility.yul\":5094:5133   */\n      mstore\n        /* \"#utility.yul\":4977:5140   */\n      pop\n      jump\t// out\n        /* \"#utility.yul\":5146:5512   */\n    tag_120:\n        /* \"#utility.yul\":5288:5291   */\n      0x00\n        /* \"#utility.yul\":5309:5376   */\n      tag_195\n        /* \"#utility.yul\":5373:5375   */\n      0x0d\n        /* \"#utility.yul\":5368:5371   */\n      dup4\n        /* \"#utility.yul\":5309:5376   */\n      tag_118\n      jump\t// in\n    tag_195:\n        /* \"#utility.yul\":5302:5376   */\n      swap2\n      pop\n        /* \"#utility.yul\":5385:5478   */\n      tag_196\n        /* \"#utility.yul\":5474:5477   */\n      dup3\n        /* \"#utility.yul\":5385:5478   */\n      tag_119\n      jump\t// in\n    tag_196:\n        /* \"#utility.yul\":5503:5505   */\n      0x20\n        /* \"#utility.yul\":5498:5501   */\n      dup3\n        /* \"#utility.yul\":5494:5506   */\n      add\n        /* \"#utility.yul\":5487:5506   */\n      swap1\n      pop\n        /* \"#utility.yul\":5146:5512   */\n      swap2\n      swap1\n      pop\n      jump\t// out\n        /* \"#utility.yul\":5518:5937   */\n    tag_37:\n        /* \"#utility.yul\":5684:5688   */\n      0x00\n        /* \"#utility.yul\":5722:5724   */\n      0x20\n        /* \"#utility.yul\":5711:5720   */\n      dup3\n        /* \"#utility.yul\":5707:5725   */\n      add\n        /* \"#utility.yul\":5699:5725   */\n      swap1\n      pop\n        /* \"#utility.yul\":5771:5780   */\n      dup2\n        /* \"#utility.yul\":5765:5769   */\n      dup2\n        /* \"#utility.yul\":5761:5781   */\n      sub\n        /* \"#utility.yul\":5757:5758   */\n      0x00\n        /* \"#utility.yul\":5746:5755   */\n      dup4\n        /* \"#utility.yul\":5742:5759   */\n      add\n        /* \"#utility.yul\":5735:5782   */\n      mstore\n        /* \"#utility.yul\":5799:5930   */\n      tag_198\n        /* \"#utility.yul\":5925:5929   */\n      dup2\n        /* \"#utility.yul\":5799:5930   */\n      tag_120\n      jump\t// in\n    tag_198:\n        /* \"#utility.yul\":5791:5930   */\n      swap1\n      pop\n        /* \"#utility.yul\":5518:5937   */\n      swap2\n      swap1\n      pop\n      jump\t// out\n        /* \"#utility.yul\":5943:6122   */\n    tag_121:\n        /* \"#utility.yul\":6083:6114   */\n      0x416d6f756e74206d7573742062652067726561746572207468616e2030000000\n        /* \"#utility.yul\":6079:6080   */\n      0x00\n        /* \"#utility.yul\":6071:6077   */\n      dup3\n        /* \"#utility.yul\":6067:6081   */\n      add\n        /* \"#utility.yul\":6060:6115   */\n      mstore\n        /* \"#utility.yul\":5943:6122   */\n      pop\n      jump\t// out\n        /* \"#utility.yul\":6128:6494   */\n    tag_122:\n        /* \"#utility.yul\":6270:6273   */\n      0x00\n        /* \"#utility.yul\":6291:6358   */\n      tag_201\n        /* \"#utility.yul\":6355:6357   */\n      0x1d\n        /* \"#utility.yul\":6350:6353   */\n      dup4\n        /* \"#utility.yul\":6291:6358   */\n      tag_118\n      jump\t// in\n    tag_201:\n        /* \"#utility.yul\":6284:6358   */\n      swap2\n      pop\n        /* \"#utility.yul\":6367:6460   */\n      tag_202\n        /* \"#utility.yul\":6456:6459   */\n      dup3\n        /* \"#utility.yul\":6367:6460   */\n      tag_121\n      jump\t// in\n    tag_202:\n        /* \"#utility.yul\":6485:6487   */\n      0x20\n        /* \"#utility.yul\":6480:6483   */\n      dup3\n        /* \"#utility.yul\":6476:6488   */\n      add\n        /* \"#utility.yul\":6469:6488   */\n      swap1\n      pop\n        /* \"#utility.yul\":6128:6494   */\n      swap2\n      swap1\n      pop\n      jump\t// out\n        /* \"#utility.yul\":6500:6919   */\n    tag_40:\n        /* \"#utility.yul\":6666:6670   */\n      0x00\n        /* \"#utility.yul\":6704:6706   */\n      0x20\n        /* \"#utility.yul\":6693:6702   */\n      dup3\n        /* \"#utility.yul\":6689:6707   */\n      add\n        /* \"#utility.yul\":6681:6707   */\n      swap1\n      pop\n        /* \"#utility.yul\":6753:6762   */\n      dup2\n        /* \"#utility.yul\":6747:6751   */\n      dup2\n        /* \"#utility.yul\":6743:6763   */\n      sub\n        /* \"#utility.yul\":6739:6740   */\n      0x00\n        /* \"#utility.yul\":6728:6737   */\n      dup4\n        /* \"#utility.yul\":6724:6741   */\n      add\n        /* \"#utility.yul\":6717:6764   */\n      mstore\n        /* \"#utility.yul\":6781:6912   */\n      tag_204\n        /* \"#utility.yul\":6907:6911   */\n      dup2\n        /* \"#utility.yul\":6781:6912   */\n      tag_122\n      jump\t// in\n    tag_204:\n        /* \"#utility.yul\":6773:6912   */\n      swap1\n      pop\n        /* \"#utility.yul\":6500:6919   */\n      swap2\n      swap1\n      pop\n      jump\t// out\n        /* \"#utility.yul\":6925:7068   */\n    tag_123:\n        /* \"#utility.yul\":6982:6987   */\n      0x00\n        /* \"#utility.yul\":7013:7019   */\n      dup2\n        /* \"#utility.yul\":7007:7020   */\n      mload\n        /* \"#utility.yul\":6998:7020   */\n      swap1\n      pop\n        /* \"#utility.yul\":7029:7062   */\n      tag_206\n        /* \"#utility.yul\":7056:7061   */\n      dup2\n        /* \"#utility.yul\":7029:7062   */\n      tag_106\n      jump\t// in\n    tag_206:\n        /* \"#utility.yul\":6925:7068   */\n      swap3\n      swap2\n      pop\n      pop\n      jump\t// out\n        /* \"#utility.yul\":7074:7425   */\n    tag_48:\n        /* \"#utility.yul\":7144:7150   */\n      0x00\n        /* \"#utility.yul\":7193:7195   */\n      0x20\n        /* \"#utility.yul\":7181:7190   */\n      dup3\n        /* \"#utility.yul\":7172:7179   */\n      dup5\n        /* \"#utility.yul\":7168:7191   */\n      sub\n        /* \"#utility.yul\":7164:7196   */\n      slt\n        /* \"#utility.yul\":7161:7280   */\n      iszero\n      tag_208\n      jumpi\n        /* \"#utility.yul\":7199:7278   */\n      tag_209\n      tag_99\n      jump\t// in\n    tag_209:\n        /* \"#utility.yul\":7161:7280   */\n    tag_208:\n        /* \"#utility.yul\":7319:7320   */\n      0x00\n        /* \"#utility.yul\":7344:7408   */\n      tag_210\n        /* \"#utility.yul\":7400:7407   */\n      dup5\n        /* \"#utility.yul\":7391:7397   */\n      dup3\n        /* \"#utility.yul\":7380:7389   */\n      dup6\n        /* \"#utility.yul\":7376:7398   */\n      add\n        /* \"#utility.yul\":7344:7408   */\n      tag_123\n      jump\t// in\n    tag_210:\n        /* \"#utility.yul\":7334:7408   */\n      swap2\n      pop\n        /* \"#utility.yul\":7290:7418   */\n      pop\n        /* \"#utility.yul\":7074:7425   */\n      swap3\n      swap2\n      pop\n      pop\n      jump\t// out\n        /* \"#utility.yul\":7431:7613   */\n    tag_124:\n        /* \"#utility.yul\":7571:7605   */\n      0x496e73756666696369656e742062616c616e636520696e20636f6e7472616374\n        /* \"#utility.yul\":7567:7568   */\n      0x00\n        /* \"#utility.yul\":7559:7565   */\n      dup3\n        /* \"#utility.yul\":7555:7569   */\n      add\n        /* \"#utility.yul\":7548:7606   */\n      mstore\n        /* \"#utility.yul\":7431:7613   */\n      pop\n      jump\t// out\n        /* \"#utility.yul\":7619:7985   */\n    tag_125:\n        /* \"#utility.yul\":7761:7764   */\n      0x00\n        /* \"#utility.yul\":7782:7849   */\n      tag_213\n        /* \"#utility.yul\":7846:7848   */\n      0x20\n        /* \"#utility.yul\":7841:7844   */\n      dup4\n        /* \"#utility.yul\":7782:7849   */\n      tag_118\n      jump\t// in\n    tag_213:\n        /* \"#utility.yul\":7775:7849   */\n      swap2\n      pop\n        /* \"#utility.yul\":7858:7951   */\n      tag_214\n        /* \"#utility.yul\":7947:7950   */\n      dup3\n        /* \"#utility.yul\":7858:7951   */\n      tag_124\n      jump\t// in\n    tag_214:\n        /* \"#utility.yul\":7976:7978   */\n      0x20\n        /* \"#utility.yul\":7971:7974   */\n      dup3\n        /* \"#utility.yul\":7967:7979   */\n      add\n        /* \"#utility.yul\":7960:7979   */\n      swap1\n      pop\n        /* \"#utility.yul\":7619:7985   */\n      swap2\n      swap1\n      pop\n      jump\t// out\n        /* \"#utility.yul\":7991:8410   */\n    tag_51:\n        /* \"#utility.yul\":8157:8161   */\n      0x00\n        /* \"#utility.yul\":8195:8197   */\n      0x20\n        /* \"#utility.yul\":8184:8193   */\n      dup3\n        /* \"#utility.yul\":8180:8198   */\n      add\n        /* \"#utility.yul\":8172:8198   */\n      swap1\n      pop\n        /* \"#utility.yul\":8244:8253   */\n      dup2\n        /* \"#utility.yul\":8238:8242   */\n      dup2\n        /* \"#utility.yul\":8234:8254   */\n      sub\n        /* \"#utility.yul\":8230:8231   */\n      0x00\n        /* \"#utility.yul\":8219:8228   */\n      dup4\n        /* \"#utility.yul\":8215:8232   */\n      add\n        /* \"#utility.yul\":8208:8255   */\n      mstore\n        /* \"#utility.yul\":8272:8403   */\n      tag_216\n        /* \"#utility.yul\":8398:8402   */\n      dup2\n        /* \"#utility.yul\":8272:8403   */\n      tag_125\n      jump\t// in\n    tag_216:\n        /* \"#utility.yul\":8264:8403   */\n      swap1\n      pop\n        /* \"#utility.yul\":7991:8410   */\n      swap2\n      swap1\n      pop\n      jump\t// out\n        /* \"#utility.yul\":8416:8596   */\n    tag_54:\n        /* \"#utility.yul\":8464:8541   */\n      0x4e487b7100000000000000000000000000000000000000000000000000000000\n        /* \"#utility.yul\":8461:8462   */\n      0x00\n        /* \"#utility.yul\":8454:8542   */\n      mstore\n        /* \"#utility.yul\":8561:8565   */\n      0x32\n        /* \"#utility.yul\":8558:8559   */\n      0x04\n        /* \"#utility.yul\":8551:8566   */\n      mstore\n        /* \"#utility.yul\":8585:8589   */\n      0x24\n        /* \"#utility.yul\":8582:8583   */\n      0x00\n        /* \"#utility.yul\":8575:8590   */\n      revert\n        /* \"#utility.yul\":8602:8720   */\n    tag_126:\n        /* \"#utility.yul\":8689:8713   */\n      tag_219\n        /* \"#utility.yul\":8707:8712   */\n      dup2\n        /* \"#utility.yul\":8689:8713   */\n      tag_105\n      jump\t// in\n    tag_219:\n        /* \"#utility.yul\":8684:8687   */\n      dup3\n        /* \"#utility.yul\":8677:8714   */\n      mstore\n        /* \"#utility.yul\":8602:8720   */\n      pop\n      pop\n      jump\t// out\n        /* \"#utility.yul\":8726:9058   */\n    tag_57:\n        /* \"#utility.yul\":8847:8851   */\n      0x00\n        /* \"#utility.yul\":8885:8887   */\n      0x40\n        /* \"#utility.yul\":8874:8883   */\n      dup3\n        /* \"#utility.yul\":8870:8888   */\n      add\n        /* \"#utility.yul\":8862:8888   */\n      swap1\n      pop\n        /* \"#utility.yul\":8898:8969   */\n      tag_221\n        /* \"#utility.yul\":8966:8967   */\n      0x00\n        /* \"#utility.yul\":8955:8964   */\n      dup4\n        /* \"#utility.yul\":8951:8968   */\n      add\n        /* \"#utility.yul\":8942:8948   */\n      dup6\n        /* \"#utility.yul\":8898:8969   */\n      tag_110\n      jump\t// in\n    tag_221:\n        /* \"#utility.yul\":8979:9051   */\n      tag_222\n        /* \"#utility.yul\":9047:9049   */\n      0x20\n        /* \"#utility.yul\":9036:9045   */\n      dup4\n        /* \"#utility.yul\":9032:9050   */\n      add\n        /* \"#utility.yul\":9023:9029   */\n      dup5\n        /* \"#utility.yul\":8979:9051   */\n      tag_126\n      jump\t// in\n    tag_222:\n        /* \"#utility.yul\":8726:9058   */\n      swap4\n      swap3\n      pop\n      pop\n      pop\n      jump\t// out\n        /* \"#utility.yul\":9064:9154   */\n    tag_127:\n        /* \"#utility.yul\":9098:9105   */\n      0x00\n        /* \"#utility.yul\":9141:9146   */\n      dup2\n        /* \"#utility.yul\":9134:9147   */\n      iszero\n        /* \"#utility.yul\":9127:9148   */\n      iszero\n        /* \"#utility.yul\":9116:9148   */\n      swap1\n      pop\n        /* \"#utility.yul\":9064:9154   */\n      swap2\n      swap1\n      pop\n      jump\t// out\n        /* \"#utility.yul\":9160:9276   */\n    tag_128:\n        /* \"#utility.yul\":9230:9251   */\n      tag_225\n        /* \"#utility.yul\":9245:9250   */\n      dup2\n        /* \"#utility.yul\":9230:9251   */\n      tag_127\n      jump\t// in\n    tag_225:\n        /* \"#utility.yul\":9223:9228   */\n      dup2\n        /* \"#utility.yul\":9220:9252   */\n      eq\n        /* \"#utility.yul\":9210:9270   */\n      tag_226\n      jumpi\n        /* \"#utility.yul\":9266:9267   */\n      0x00\n        /* \"#utility.yul\":9263:9264   */\n      dup1\n        /* \"#utility.yul\":9256:9268   */\n      revert\n        /* \"#utility.yul\":9210:9270   */\n    tag_226:\n        /* \"#utility.yul\":9160:9276   */\n      pop\n      jump\t// out\n        /* \"#utility.yul\":9282:9419   */\n    tag_129:\n        /* \"#utility.yul\":9336:9341   */\n      0x00\n        /* \"#utility.yul\":9367:9373   */\n      dup2\n        /* \"#utility.yul\":9361:9374   */\n      mload\n        /* \"#utility.yul\":9352:9374   */\n      swap1\n      pop\n        /* \"#utility.yul\":9383:9413   */\n      tag_228\n        /* \"#utility.yul\":9407:9412   */\n      dup2\n        /* \"#utility.yul\":9383:9413   */\n      tag_128\n      jump\t// in\n    tag_228:\n        /* \"#utility.yul\":9282:9419   */\n      swap3\n      swap2\n      pop\n      pop\n      jump\t// out\n        /* \"#utility.yul\":9425:9770   */\n    tag_61:\n        /* \"#utility.yul\":9492:9498   */\n      0x00\n        /* \"#utility.yul\":9541:9543   */\n      0x20\n        /* \"#utility.yul\":9529:9538   */\n      dup3\n        /* \"#utility.yul\":9520:9527   */\n      dup5\n        /* \"#utility.yul\":9516:9539   */\n      sub\n        /* \"#utility.yul\":9512:9544   */\n      slt\n        /* \"#utility.yul\":9509:9628   */\n      iszero\n      tag_230\n      jumpi\n        /* \"#utility.yul\":9547:9626   */\n      tag_231\n      tag_99\n      jump\t// in\n    tag_231:\n        /* \"#utility.yul\":9509:9628   */\n    tag_230:\n        /* \"#utility.yul\":9667:9668   */\n      0x00\n        /* \"#utility.yul\":9692:9753   */\n      tag_232\n        /* \"#utility.yul\":9745:9752   */\n      dup5\n        /* \"#utility.yul\":9736:9742   */\n      dup3\n        /* \"#utility.yul\":9725:9734   */\n      dup6\n        /* \"#utility.yul\":9721:9743   */\n      add\n        /* \"#utility.yul\":9692:9753   */\n      tag_129\n      jump\t// in\n    tag_232:\n        /* \"#utility.yul\":9682:9753   */\n      swap2\n      pop\n        /* \"#utility.yul\":9638:9763   */\n      pop\n        /* \"#utility.yul\":9425:9770   */\n      swap3\n      swap2\n      pop\n      pop\n      jump\t// out\n        /* \"#utility.yul\":9776:9955   */\n    tag_130:\n        /* \"#utility.yul\":9916:9947   */\n      0x496e73756666696369656e7420636f6e74726163742062616c616e6365000000\n        /* \"#utility.yul\":9912:9913   */\n      0x00\n        /* \"#utility.yul\":9904:9910   */\n      dup3\n        /* \"#utility.yul\":9900:9914   */\n      add\n        /* \"#utility.yul\":9893:9948   */\n      mstore\n        /* \"#utility.yul\":9776:9955   */\n      pop\n      jump\t// out\n        /* \"#utility.yul\":9961:10327   */\n    tag_131:\n        /* \"#utility.yul\":10103:10106   */\n      0x00\n        /* \"#utility.yul\":10124:10191   */\n      tag_235\n        /* \"#utility.yul\":10188:10190   */\n      0x1d\n        /* \"#utility.yul\":10183:10186   */\n      dup4\n        /* \"#utility.yul\":10124:10191   */\n      tag_118\n      jump\t// in\n    tag_235:\n        /* \"#utility.yul\":10117:10191   */\n      swap2\n      pop\n        /* \"#utility.yul\":10200:10293   */\n      tag_236\n        /* \"#utility.yul\":10289:10292   */\n      dup3\n        /* \"#utility.yul\":10200:10293   */\n      tag_130\n      jump\t// in\n    tag_236:\n        /* \"#utility.yul\":10318:10320   */\n      0x20\n        /* \"#utility.yul\":10313:10316   */\n      dup3\n        /* \"#utility.yul\":10309:10321   */\n      add\n        /* \"#utility.yul\":10302:10321   */\n      swap1\n      pop\n        /* \"#utility.yul\":9961:10327   */\n      swap2\n      swap1\n      pop\n      jump\t// out\n        /* \"#utility.yul\":10333:10752   */\n    tag_71:\n        /* \"#utility.yul\":10499:10503   */\n      0x00\n        /* \"#utility.yul\":10537:10539   */\n      0x20\n        /* \"#utility.yul\":10526:10535   */\n      dup3\n        /* \"#utility.yul\":10522:10540   */\n      add\n        /* \"#utility.yul\":10514:10540   */\n      swap1\n      pop\n        /* \"#utility.yul\":10586:10595   */\n      dup2\n        /* \"#utility.yul\":10580:10584   */\n      dup2\n        /* \"#utility.yul\":10576:10596   */\n      sub\n        /* \"#utility.yul\":10572:10573   */\n      0x00\n        /* \"#utility.yul\":10561:10570   */\n      dup4\n        /* \"#utility.yul\":10557:10574   */\n      add\n        /* \"#utility.yul\":10550:10597   */\n      mstore\n        /* \"#utility.yul\":10614:10745   */\n      tag_238\n        /* \"#utility.yul\":10740:10744   */\n      dup2\n        /* \"#utility.yul\":10614:10745   */\n      tag_131\n      jump\t// in\n    tag_238:\n        /* \"#utility.yul\":10606:10745   */\n      swap1\n      pop\n        /* \"#utility.yul\":10333:10752   */\n      swap2\n      swap1\n      pop\n      jump\t// out\n\n    auxdata: 0xa2646970667358221220c5bb71879eaabc3410c605367c0f998b073081497248116871de57bd8e4edb7e64736f6c634300081a0033\n}\n",
				"bytecode": {
					"linkReferences": {},
					"object": "608060405234801561000f575f80fd5b50604051610eac380380610eac83398181016040528101906100319190610217565b335f73ffffffffffffffffffffffffffffffffffffffff168173ffffffffffffffffffffffffffffffffffffffff16036100a2575f6040517f1e4fbdf70000000000000000000000000000000000000000000000000000000081526004016100999190610251565b60405180910390fd5b6100b1816100f860201b60201c565b508060015f6101000a81548173ffffffffffffffffffffffffffffffffffffffff021916908373ffffffffffffffffffffffffffffffffffffffff1602179055505061026a565b5f805f9054906101000a900473ffffffffffffffffffffffffffffffffffffffff169050815f806101000a81548173ffffffffffffffffffffffffffffffffffffffff021916908373ffffffffffffffffffffffffffffffffffffffff1602179055508173ffffffffffffffffffffffffffffffffffffffff168173ffffffffffffffffffffffffffffffffffffffff167f8be0079c531659141344cd1fd0a4f28419497f9722a3daafe3b4186f6b6457e060405160405180910390a35050565b5f80fd5b5f73ffffffffffffffffffffffffffffffffffffffff82169050919050565b5f6101e6826101bd565b9050919050565b6101f6816101dc565b8114610200575f80fd5b50565b5f81519050610211816101ed565b92915050565b5f6020828403121561022c5761022b6101b9565b5b5f61023984828501610203565b91505092915050565b61024b816101dc565b82525050565b5f6020820190506102645f830184610242565b92915050565b610c35806102775f395ff3fe608060405234801561000f575f80fd5b5060043610610060575f3560e01c8063256fa24114610064578063315a095d14610080578063715018a61461009c5780638da5cb5b146100a6578063f2fde38b146100c4578063fc0c546a146100e0575b5f80fd5b61007e600480360381019061007991906107a4565b6100fe565b005b61009a60048036038101906100959190610801565b61034c565b005b6100a46104d6565b005b6100ae6104e9565b6040516100bb919061086b565b60405180910390f35b6100de60048036038101906100d991906108ae565b610510565b005b6100e8610594565b6040516100f59190610934565b60405180910390f35b6101066105b9565b5f838390501161014b576040517f08c379a0000000000000000000000000000000000000000000000000000000008152600401610142906109a7565b60405180910390fd5b5f811161018d576040517f08c379a000000000000000000000000000000000000000000000000000000000815260040161018490610a0f565b60405180910390fd5b5f5b83839050811015610346578160015f9054906101000a900473ffffffffffffffffffffffffffffffffffffffff1673ffffffffffffffffffffffffffffffffffffffff166370a08231306040518263ffffffff1660e01b81526004016101f5919061086b565b602060405180830381865afa158015610210573d5f803e3d5ffd5b505050506040513d601f19601f820116820180604052508101906102349190610a41565b1015610275576040517f08c379a000000000000000000000000000000000000000000000000000000000815260040161026c90610ab6565b60405180910390fd5b60015f9054906101000a900473ffffffffffffffffffffffffffffffffffffffff1673ffffffffffffffffffffffffffffffffffffffff1663a9059cbb8585848181106102c5576102c4610ad4565b5b90506020020160208101906102da91906108ae565b846040518363ffffffff1660e01b81526004016102f8929190610b10565b6020604051808303815f875af1158015610314573d5f803e3d5ffd5b505050506040513d601f19601f820116820180604052508101906103389190610b6c565b50808060010191505061018f565b50505050565b6103546105b9565b8060015f9054906101000a900473ffffffffffffffffffffffffffffffffffffffff1673ffffffffffffffffffffffffffffffffffffffff166370a08231306040518263ffffffff1660e01b81526004016103af919061086b565b602060405180830381865afa1580156103ca573d5f803e3d5ffd5b505050506040513d601f19601f820116820180604052508101906103ee9190610a41565b101561042f576040517f08c379a000000000000000000000000000000000000000000000000000000000815260040161042690610be1565b60405180910390fd5b60015f9054906101000a900473ffffffffffffffffffffffffffffffffffffffff1673ffffffffffffffffffffffffffffffffffffffff1663a9059cbb6104746104e9565b836040518363ffffffff1660e01b8152600401610492929190610b10565b6020604051808303815f875af11580156104ae573d5f803e3d5ffd5b505050506040513d601f19601f820116820180604052508101906104d29190610b6c565b5050565b6104de6105b9565b6104e75f610640565b565b5f805f9054906101000a900473ffffffffffffffffffffffffffffffffffffffff16905090565b6105186105b9565b5f73ffffffffffffffffffffffffffffffffffffffff168173ffffffffffffffffffffffffffffffffffffffff1603610588575f6040517f1e4fbdf700000000000000000000000000000000000000000000000000000000815260040161057f919061086b565b60405180910390fd5b61059181610640565b50565b60015f9054906101000a900473ffffffffffffffffffffffffffffffffffffffff1681565b6105c1610701565b73ffffffffffffffffffffffffffffffffffffffff166105df6104e9565b73ffffffffffffffffffffffffffffffffffffffff161461063e57610602610701565b6040517f118cdaa7000000000000000000000000000000000000000000000000000000008152600401610635919061086b565b60405180910390fd5b565b5f805f9054906101000a900473ffffffffffffffffffffffffffffffffffffffff169050815f806101000a81548173ffffffffffffffffffffffffffffffffffffffff021916908373ffffffffffffffffffffffffffffffffffffffff1602179055508173ffffffffffffffffffffffffffffffffffffffff168173ffffffffffffffffffffffffffffffffffffffff167f8be0079c531659141344cd1fd0a4f28419497f9722a3daafe3b4186f6b6457e060405160405180910390a35050565b5f33905090565b5f80fd5b5f80fd5b5f80fd5b5f80fd5b5f80fd5b5f8083601f84011261073157610730610710565b5b8235905067ffffffffffffffff81111561074e5761074d610714565b5b60208301915083602082028301111561076a57610769610718565b5b9250929050565b5f819050919050565b61078381610771565b811461078d575f80fd5b50565b5f8135905061079e8161077a565b92915050565b5f805f604084860312156107bb576107ba610708565b5b5f84013567ffffffffffffffff8111156107d8576107d761070c565b5b6107e48682870161071c565b935093505060206107f786828701610790565b9150509250925092565b5f6020828403121561081657610815610708565b5b5f61082384828501610790565b91505092915050565b5f73ffffffffffffffffffffffffffffffffffffffff82169050919050565b5f6108558261082c565b9050919050565b6108658161084b565b82525050565b5f60208201905061087e5f83018461085c565b92915050565b61088d8161084b565b8114610897575f80fd5b50565b5f813590506108a881610884565b92915050565b5f602082840312156108c3576108c2610708565b5b5f6108d08482850161089a565b91505092915050565b5f819050919050565b5f6108fc6108f76108f28461082c565b6108d9565b61082c565b9050919050565b5f61090d826108e2565b9050919050565b5f61091e82610903565b9050919050565b61092e81610914565b82525050565b5f6020820190506109475f830184610925565b92915050565b5f82825260208201905092915050565b7f4e6f20726563697069656e7473000000000000000000000000000000000000005f82015250565b5f610991600d8361094d565b915061099c8261095d565b602082019050919050565b5f6020820190508181035f8301526109be81610985565b9050919050565b7f416d6f756e74206d7573742062652067726561746572207468616e20300000005f82015250565b5f6109f9601d8361094d565b9150610a04826109c5565b602082019050919050565b5f6020820190508181035f830152610a26816109ed565b9050919050565b5f81519050610a3b8161077a565b92915050565b5f60208284031215610a5657610a55610708565b5b5f610a6384828501610a2d565b91505092915050565b7f496e73756666696369656e742062616c616e636520696e20636f6e74726163745f82015250565b5f610aa060208361094d565b9150610aab82610a6c565b602082019050919050565b5f6020820190508181035f830152610acd81610a94565b9050919050565b7f4e487b71000000000000000000000000000000000000000000000000000000005f52603260045260245ffd5b610b0a81610771565b82525050565b5f604082019050610b235f83018561085c565b610b306020830184610b01565b9392505050565b5f8115159050919050565b610b4b81610b37565b8114610b55575f80fd5b50565b5f81519050610b6681610b42565b92915050565b5f60208284031215610b8157610b80610708565b5b5f610b8e84828501610b58565b91505092915050565b7f496e73756666696369656e7420636f6e74726163742062616c616e63650000005f82015250565b5f610bcb601d8361094d565b9150610bd682610b97565b602082019050919050565b5f6020820190508181035f830152610bf881610bbf565b905091905056fea2646970667358221220c5bb71879eaabc3410c605367c0f998b073081497248116871de57bd8e4edb7e64736f6c634300081a0033",
					"opcodes": "PUSH1 0x80 PUSH1 0x40 MSTORE CALLVALUE DUP1 ISZERO PUSH2 0xF JUMPI PUSH0 DUP1 REVERT JUMPDEST POP PUSH1 0x40 MLOAD PUSH2 0xEAC CODESIZE SUB DUP1 PUSH2 0xEAC DUP4 CODECOPY DUP2 DUP2 ADD PUSH1 0x40 MSTORE DUP2 ADD SWAP1 PUSH2 0x31 SWAP2 SWAP1 PUSH2 0x217 JUMP JUMPDEST CALLER PUSH0 PUSH20 0xFFFFFFFFFFFFFFFFFFFFFFFFFFFFFFFFFFFFFFFF AND DUP2 PUSH20 0xFFFFFFFFFFFFFFFFFFFFFFFFFFFFFFFFFFFFFFFF AND SUB PUSH2 0xA2 JUMPI PUSH0 PUSH1 0x40 MLOAD PUSH32 0x1E4FBDF700000000000000000000000000000000000000000000000000000000 DUP2 MSTORE PUSH1 0x4 ADD PUSH2 0x99 SWAP2 SWAP1 PUSH2 0x251 JUMP JUMPDEST PUSH1 0x40 MLOAD DUP1 SWAP2 SUB SWAP1 REVERT JUMPDEST PUSH2 0xB1 DUP2 PUSH2 0xF8 PUSH1 0x20 SHL PUSH1 0x20 SHR JUMP JUMPDEST POP DUP1 PUSH1 0x1 PUSH0 PUSH2 0x100 EXP DUP2 SLOAD DUP2 PUSH20 0xFFFFFFFFFFFFFFFFFFFFFFFFFFFFFFFFFFFFFFFF MUL NOT AND SWAP1 DUP4 PUSH20 0xFFFFFFFFFFFFFFFFFFFFFFFFFFFFFFFFFFFFFFFF AND MUL OR SWAP1 SSTORE POP POP PUSH2 0x26A JUMP JUMPDEST PUSH0 DUP1 PUSH0 SWAP1 SLOAD SWAP1 PUSH2 0x100 EXP SWAP1 DIV PUSH20 0xFFFFFFFFFFFFFFFFFFFFFFFFFFFFFFFFFFFFFFFF AND SWAP1 POP DUP2 PUSH0 DUP1 PUSH2 0x100 EXP DUP2 SLOAD DUP2 PUSH20 0xFFFFFFFFFFFFFFFFFFFFFFFFFFFFFFFFFFFFFFFF MUL NOT AND SWAP1 DUP4 PUSH20 0xFFFFFFFFFFFFFFFFFFFFFFFFFFFFFFFFFFFFFFFF AND MUL OR SWAP1 SSTORE POP DUP2 PUSH20 0xFFFFFFFFFFFFFFFFFFFFFFFFFFFFFFFFFFFFFFFF AND DUP2 PUSH20 0xFFFFFFFFFFFFFFFFFFFFFFFFFFFFFFFFFFFFFFFF AND PUSH32 0x8BE0079C531659141344CD1FD0A4F28419497F9722A3DAAFE3B4186F6B6457E0 PUSH1 0x40 MLOAD PUSH1 0x40 MLOAD DUP1 SWAP2 SUB SWAP1 LOG3 POP POP JUMP JUMPDEST PUSH0 DUP1 REVERT JUMPDEST PUSH0 PUSH20 0xFFFFFFFFFFFFFFFFFFFFFFFFFFFFFFFFFFFFFFFF DUP3 AND SWAP1 POP SWAP2 SWAP1 POP JUMP JUMPDEST PUSH0 PUSH2 0x1E6 DUP3 PUSH2 0x1BD JUMP JUMPDEST SWAP1 POP SWAP2 SWAP1 POP JUMP JUMPDEST PUSH2 0x1F6 DUP2 PUSH2 0x1DC JUMP JUMPDEST DUP2 EQ PUSH2 0x200 JUMPI PUSH0 DUP1 REVERT JUMPDEST POP JUMP JUMPDEST PUSH0 DUP2 MLOAD SWAP1 POP PUSH2 0x211 DUP2 PUSH2 0x1ED JUMP JUMPDEST SWAP3 SWAP2 POP POP JUMP JUMPDEST PUSH0 PUSH1 0x20 DUP3 DUP5 SUB SLT ISZERO PUSH2 0x22C JUMPI PUSH2 0x22B PUSH2 0x1B9 JUMP JUMPDEST JUMPDEST PUSH0 PUSH2 0x239 DUP5 DUP3 DUP6 ADD PUSH2 0x203 JUMP JUMPDEST SWAP2 POP POP SWAP3 SWAP2 POP POP JUMP JUMPDEST PUSH2 0x24B DUP2 PUSH2 0x1DC JUMP JUMPDEST DUP3 MSTORE POP POP JUMP JUMPDEST PUSH0 PUSH1 0x20 DUP3 ADD SWAP1 POP PUSH2 0x264 PUSH0 DUP4 ADD DUP5 PUSH2 0x242 JUMP JUMPDEST SWAP3 SWAP2 POP POP JUMP JUMPDEST PUSH2 0xC35 DUP1 PUSH2 0x277 PUSH0 CODECOPY PUSH0 RETURN INVALID PUSH1 0x80 PUSH1 0x40 MSTORE CALLVALUE DUP1 ISZERO PUSH2 0xF JUMPI PUSH0 DUP1 REVERT JUMPDEST POP PUSH1 0x4 CALLDATASIZE LT PUSH2 0x60 JUMPI PUSH0 CALLDATALOAD PUSH1 0xE0 SHR DUP1 PUSH4 0x256FA241 EQ PUSH2 0x64 JUMPI DUP1 PUSH4 0x315A095D EQ PUSH2 0x80 JUMPI DUP1 PUSH4 0x715018A6 EQ PUSH2 0x9C JUMPI DUP1 PUSH4 0x8DA5CB5B EQ PUSH2 0xA6 JUMPI DUP1 PUSH4 0xF2FDE38B EQ PUSH2 0xC4 JUMPI DUP1 PUSH4 0xFC0C546A EQ PUSH2 0xE0 JUMPI JUMPDEST PUSH0 DUP1 REVERT JUMPDEST PUSH2 0x7E PUSH1 0x4 DUP1 CALLDATASIZE SUB DUP2 ADD SWAP1 PUSH2 0x79 SWAP2 SWAP1 PUSH2 0x7A4 JUMP JUMPDEST PUSH2 0xFE JUMP JUMPDEST STOP JUMPDEST PUSH2 0x9A PUSH1 0x4 DUP1 CALLDATASIZE SUB DUP2 ADD SWAP1 PUSH2 0x95 SWAP2 SWAP1 PUSH2 0x801 JUMP JUMPDEST PUSH2 0x34C JUMP JUMPDEST STOP JUMPDEST PUSH2 0xA4 PUSH2 0x4D6 JUMP JUMPDEST STOP JUMPDEST PUSH2 0xAE PUSH2 0x4E9 JUMP JUMPDEST PUSH1 0x40 MLOAD PUSH2 0xBB SWAP2 SWAP1 PUSH2 0x86B JUMP JUMPDEST PUSH1 0x40 MLOAD DUP1 SWAP2 SUB SWAP1 RETURN JUMPDEST PUSH2 0xDE PUSH1 0x4 DUP1 CALLDATASIZE SUB DUP2 ADD SWAP1 PUSH2 0xD9 SWAP2 SWAP1 PUSH2 0x8AE JUMP JUMPDEST PUSH2 0x510 JUMP JUMPDEST STOP JUMPDEST PUSH2 0xE8 PUSH2 0x594 JUMP JUMPDEST PUSH1 0x40 MLOAD PUSH2 0xF5 SWAP2 SWAP1 PUSH2 0x934 JUMP JUMPDEST PUSH1 0x40 MLOAD DUP1 SWAP2 SUB SWAP1 RETURN JUMPDEST PUSH2 0x106 PUSH2 0x5B9 JUMP JUMPDEST PUSH0 DUP4 DUP4 SWAP1 POP GT PUSH2 0x14B JUMPI PUSH1 0x40 MLOAD PUSH32 0x8C379A000000000000000000000000000000000000000000000000000000000 DUP2 MSTORE PUSH1 0x4 ADD PUSH2 0x142 SWAP1 PUSH2 0x9A7 JUMP JUMPDEST PUSH1 0x40 MLOAD DUP1 SWAP2 SUB SWAP1 REVERT JUMPDEST PUSH0 DUP2 GT PUSH2 0x18D JUMPI PUSH1 0x40 MLOAD PUSH32 0x8C379A000000000000000000000000000000000000000000000000000000000 DUP2 MSTORE PUSH1 0x4 ADD PUSH2 0x184 SWAP1 PUSH2 0xA0F JUMP JUMPDEST PUSH1 0x40 MLOAD DUP1 SWAP2 SUB SWAP1 REVERT JUMPDEST PUSH0 JUMPDEST DUP4 DUP4 SWAP1 POP DUP2 LT ISZERO PUSH2 0x346 JUMPI DUP2 PUSH1 0x1 PUSH0 SWAP1 SLOAD SWAP1 PUSH2 0x100 EXP SWAP1 DIV PUSH20 0xFFFFFFFFFFFFFFFFFFFFFFFFFFFFFFFFFFFFFFFF AND PUSH20 0xFFFFFFFFFFFFFFFFFFFFFFFFFFFFFFFFFFFFFFFF AND PUSH4 0x70A08231 ADDRESS PUSH1 0x40 MLOAD DUP3 PUSH4 0xFFFFFFFF AND PUSH1 0xE0 SHL DUP2 MSTORE PUSH1 0x4 ADD PUSH2 0x1F5 SWAP2 SWAP1 PUSH2 0x86B JUMP JUMPDEST PUSH1 0x20 PUSH1 0x40 MLOAD DUP1 DUP4 SUB DUP2 DUP7 GAS STATICCALL ISZERO DUP1 ISZERO PUSH2 0x210 JUMPI RETURNDATASIZE PUSH0 DUP1 RETURNDATACOPY RETURNDATASIZE PUSH0 REVERT JUMPDEST POP POP POP POP PUSH1 0x40 MLOAD RETURNDATASIZE PUSH1 0x1F NOT PUSH1 0x1F DUP3 ADD AND DUP3 ADD DUP1 PUSH1 0x40 MSTORE POP DUP2 ADD SWAP1 PUSH2 0x234 SWAP2 SWAP1 PUSH2 0xA41 JUMP JUMPDEST LT ISZERO PUSH2 0x275 JUMPI PUSH1 0x40 MLOAD PUSH32 0x8C379A000000000000000000000000000000000000000000000000000000000 DUP2 MSTORE PUSH1 0x4 ADD PUSH2 0x26C SWAP1 PUSH2 0xAB6 JUMP JUMPDEST PUSH1 0x40 MLOAD DUP1 SWAP2 SUB SWAP1 REVERT JUMPDEST PUSH1 0x1 PUSH0 SWAP1 SLOAD SWAP1 PUSH2 0x100 EXP SWAP1 DIV PUSH20 0xFFFFFFFFFFFFFFFFFFFFFFFFFFFFFFFFFFFFFFFF AND PUSH20 0xFFFFFFFFFFFFFFFFFFFFFFFFFFFFFFFFFFFFFFFF AND PUSH4 0xA9059CBB DUP6 DUP6 DUP5 DUP2 DUP2 LT PUSH2 0x2C5 JUMPI PUSH2 0x2C4 PUSH2 0xAD4 JUMP JUMPDEST JUMPDEST SWAP1 POP PUSH1 0x20 MUL ADD PUSH1 0x20 DUP2 ADD SWAP1 PUSH2 0x2DA SWAP2 SWAP1 PUSH2 0x8AE JUMP JUMPDEST DUP5 PUSH1 0x40 MLOAD DUP4 PUSH4 0xFFFFFFFF AND PUSH1 0xE0 SHL DUP2 MSTORE PUSH1 0x4 ADD PUSH2 0x2F8 SWAP3 SWAP2 SWAP1 PUSH2 0xB10 JUMP JUMPDEST PUSH1 0x20 PUSH1 0x40 MLOAD DUP1 DUP4 SUB DUP2 PUSH0 DUP8 GAS CALL ISZERO DUP1 ISZERO PUSH2 0x314 JUMPI RETURNDATASIZE PUSH0 DUP1 RETURNDATACOPY RETURNDATASIZE PUSH0 REVERT JUMPDEST POP POP POP POP PUSH1 0x40 MLOAD RETURNDATASIZE PUSH1 0x1F NOT PUSH1 0x1F DUP3 ADD AND DUP3 ADD DUP1 PUSH1 0x40 MSTORE POP DUP2 ADD SWAP1 PUSH2 0x338 SWAP2 SWAP1 PUSH2 0xB6C JUMP JUMPDEST POP DUP1 DUP1 PUSH1 0x1 ADD SWAP2 POP POP PUSH2 0x18F JUMP JUMPDEST POP POP POP POP JUMP JUMPDEST PUSH2 0x354 PUSH2 0x5B9 JUMP JUMPDEST DUP1 PUSH1 0x1 PUSH0 SWAP1 SLOAD SWAP1 PUSH2 0x100 EXP SWAP1 DIV PUSH20 0xFFFFFFFFFFFFFFFFFFFFFFFFFFFFFFFFFFFFFFFF AND PUSH20 0xFFFFFFFFFFFFFFFFFFFFFFFFFFFFFFFFFFFFFFFF AND PUSH4 0x70A08231 ADDRESS PUSH1 0x40 MLOAD DUP3 PUSH4 0xFFFFFFFF AND PUSH1 0xE0 SHL DUP2 MSTORE PUSH1 0x4 ADD PUSH2 0x3AF SWAP2 SWAP1 PUSH2 0x86B JUMP JUMPDEST PUSH1 0x20 PUSH1 0x40 MLOAD DUP1 DUP4 SUB DUP2 DUP7 GAS STATICCALL ISZERO DUP1 ISZERO PUSH2 0x3CA JUMPI RETURNDATASIZE PUSH0 DUP1 RETURNDATACOPY RETURNDATASIZE PUSH0 REVERT JUMPDEST POP POP POP POP PUSH1 0x40 MLOAD RETURNDATASIZE PUSH1 0x1F NOT PUSH1 0x1F DUP3 ADD AND DUP3 ADD DUP1 PUSH1 0x40 MSTORE POP DUP2 ADD SWAP1 PUSH2 0x3EE SWAP2 SWAP1 PUSH2 0xA41 JUMP JUMPDEST LT ISZERO PUSH2 0x42F JUMPI PUSH1 0x40 MLOAD PUSH32 0x8C379A000000000000000000000000000000000000000000000000000000000 DUP2 MSTORE PUSH1 0x4 ADD PUSH2 0x426 SWAP1 PUSH2 0xBE1 JUMP JUMPDEST PUSH1 0x40 MLOAD DUP1 SWAP2 SUB SWAP1 REVERT JUMPDEST PUSH1 0x1 PUSH0 SWAP1 SLOAD SWAP1 PUSH2 0x100 EXP SWAP1 DIV PUSH20 0xFFFFFFFFFFFFFFFFFFFFFFFFFFFFFFFFFFFFFFFF AND PUSH20 0xFFFFFFFFFFFFFFFFFFFFFFFFFFFFFFFFFFFFFFFF AND PUSH4 0xA9059CBB PUSH2 0x474 PUSH2 0x4E9 JUMP JUMPDEST DUP4 PUSH1 0x40 MLOAD DUP4 PUSH4 0xFFFFFFFF AND PUSH1 0xE0 SHL DUP2 MSTORE PUSH1 0x4 ADD PUSH2 0x492 SWAP3 SWAP2 SWAP1 PUSH2 0xB10 JUMP JUMPDEST PUSH1 0x20 PUSH1 0x40 MLOAD DUP1 DUP4 SUB DUP2 PUSH0 DUP8 GAS CALL ISZERO DUP1 ISZERO PUSH2 0x4AE JUMPI RETURNDATASIZE PUSH0 DUP1 RETURNDATACOPY RETURNDATASIZE PUSH0 REVERT JUMPDEST POP POP POP POP PUSH1 0x40 MLOAD RETURNDATASIZE PUSH1 0x1F NOT PUSH1 0x1F DUP3 ADD AND DUP3 ADD DUP1 PUSH1 0x40 MSTORE POP DUP2 ADD SWAP1 PUSH2 0x4D2 SWAP2 SWAP1 PUSH2 0xB6C JUMP JUMPDEST POP POP JUMP JUMPDEST PUSH2 0x4DE PUSH2 0x5B9 JUMP JUMPDEST PUSH2 0x4E7 PUSH0 PUSH2 0x640 JUMP JUMPDEST JUMP JUMPDEST PUSH0 DUP1 PUSH0 SWAP1 SLOAD SWAP1 PUSH2 0x100 EXP SWAP1 DIV PUSH20 0xFFFFFFFFFFFFFFFFFFFFFFFFFFFFFFFFFFFFFFFF AND SWAP1 POP SWAP1 JUMP JUMPDEST PUSH2 0x518 PUSH2 0x5B9 JUMP JUMPDEST PUSH0 PUSH20 0xFFFFFFFFFFFFFFFFFFFFFFFFFFFFFFFFFFFFFFFF AND DUP2 PUSH20 0xFFFFFFFFFFFFFFFFFFFFFFFFFFFFFFFFFFFFFFFF AND SUB PUSH2 0x588 JUMPI PUSH0 PUSH1 0x40 MLOAD PUSH32 0x1E4FBDF700000000000000000000000000000000000000000000000000000000 DUP2 MSTORE PUSH1 0x4 ADD PUSH2 0x57F SWAP2 SWAP1 PUSH2 0x86B JUMP JUMPDEST PUSH1 0x40 MLOAD DUP1 SWAP2 SUB SWAP1 REVERT JUMPDEST PUSH2 0x591 DUP2 PUSH2 0x640 JUMP JUMPDEST POP JUMP JUMPDEST PUSH1 0x1 PUSH0 SWAP1 SLOAD SWAP1 PUSH2 0x100 EXP SWAP1 DIV PUSH20 0xFFFFFFFFFFFFFFFFFFFFFFFFFFFFFFFFFFFFFFFF AND DUP2 JUMP JUMPDEST PUSH2 0x5C1 PUSH2 0x701 JUMP JUMPDEST PUSH20 0xFFFFFFFFFFFFFFFFFFFFFFFFFFFFFFFFFFFFFFFF AND PUSH2 0x5DF PUSH2 0x4E9 JUMP JUMPDEST PUSH20 0xFFFFFFFFFFFFFFFFFFFFFFFFFFFFFFFFFFFFFFFF AND EQ PUSH2 0x63E JUMPI PUSH2 0x602 PUSH2 0x701 JUMP JUMPDEST PUSH1 0x40 MLOAD PUSH32 0x118CDAA700000000000000000000000000000000000000000000000000000000 DUP2 MSTORE PUSH1 0x4 ADD PUSH2 0x635 SWAP2 SWAP1 PUSH2 0x86B JUMP JUMPDEST PUSH1 0x40 MLOAD DUP1 SWAP2 SUB SWAP1 REVERT JUMPDEST JUMP JUMPDEST PUSH0 DUP1 PUSH0 SWAP1 SLOAD SWAP1 PUSH2 0x100 EXP SWAP1 DIV PUSH20 0xFFFFFFFFFFFFFFFFFFFFFFFFFFFFFFFFFFFFFFFF AND SWAP1 POP DUP2 PUSH0 DUP1 PUSH2 0x100 EXP DUP2 SLOAD DUP2 PUSH20 0xFFFFFFFFFFFFFFFFFFFFFFFFFFFFFFFFFFFFFFFF MUL NOT AND SWAP1 DUP4 PUSH20 0xFFFFFFFFFFFFFFFFFFFFFFFFFFFFFFFFFFFFFFFF AND MUL OR SWAP1 SSTORE POP DUP2 PUSH20 0xFFFFFFFFFFFFFFFFFFFFFFFFFFFFFFFFFFFFFFFF AND DUP2 PUSH20 0xFFFFFFFFFFFFFFFFFFFFFFFFFFFFFFFFFFFFFFFF AND PUSH32 0x8BE0079C531659141344CD1FD0A4F28419497F9722A3DAAFE3B4186F6B6457E0 PUSH1 0x40 MLOAD PUSH1 0x40 MLOAD DUP1 SWAP2 SUB SWAP1 LOG3 POP POP JUMP JUMPDEST PUSH0 CALLER SWAP1 POP SWAP1 JUMP JUMPDEST PUSH0 DUP1 REVERT JUMPDEST PUSH0 DUP1 REVERT JUMPDEST PUSH0 DUP1 REVERT JUMPDEST PUSH0 DUP1 REVERT JUMPDEST PUSH0 DUP1 REVERT JUMPDEST PUSH0 DUP1 DUP4 PUSH1 0x1F DUP5 ADD SLT PUSH2 0x731 JUMPI PUSH2 0x730 PUSH2 0x710 JUMP JUMPDEST JUMPDEST DUP3 CALLDATALOAD SWAP1 POP PUSH8 0xFFFFFFFFFFFFFFFF DUP2 GT ISZERO PUSH2 0x74E JUMPI PUSH2 0x74D PUSH2 0x714 JUMP JUMPDEST JUMPDEST PUSH1 0x20 DUP4 ADD SWAP2 POP DUP4 PUSH1 0x20 DUP3 MUL DUP4 ADD GT ISZERO PUSH2 0x76A JUMPI PUSH2 0x769 PUSH2 0x718 JUMP JUMPDEST JUMPDEST SWAP3 POP SWAP3 SWAP1 POP JUMP JUMPDEST PUSH0 DUP2 SWAP1 POP SWAP2 SWAP1 POP JUMP JUMPDEST PUSH2 0x783 DUP2 PUSH2 0x771 JUMP JUMPDEST DUP2 EQ PUSH2 0x78D JUMPI PUSH0 DUP1 REVERT JUMPDEST POP JUMP JUMPDEST PUSH0 DUP2 CALLDATALOAD SWAP1 POP PUSH2 0x79E DUP2 PUSH2 0x77A JUMP JUMPDEST SWAP3 SWAP2 POP POP JUMP JUMPDEST PUSH0 DUP1 PUSH0 PUSH1 0x40 DUP5 DUP7 SUB SLT ISZERO PUSH2 0x7BB JUMPI PUSH2 0x7BA PUSH2 0x708 JUMP JUMPDEST JUMPDEST PUSH0 DUP5 ADD CALLDATALOAD PUSH8 0xFFFFFFFFFFFFFFFF DUP2 GT ISZERO PUSH2 0x7D8 JUMPI PUSH2 0x7D7 PUSH2 0x70C JUMP JUMPDEST JUMPDEST PUSH2 0x7E4 DUP7 DUP3 DUP8 ADD PUSH2 0x71C JUMP JUMPDEST SWAP4 POP SWAP4 POP POP PUSH1 0x20 PUSH2 0x7F7 DUP7 DUP3 DUP8 ADD PUSH2 0x790 JUMP JUMPDEST SWAP2 POP POP SWAP3 POP SWAP3 POP SWAP3 JUMP JUMPDEST PUSH0 PUSH1 0x20 DUP3 DUP5 SUB SLT ISZERO PUSH2 0x816 JUMPI PUSH2 0x815 PUSH2 0x708 JUMP JUMPDEST JUMPDEST PUSH0 PUSH2 0x823 DUP5 DUP3 DUP6 ADD PUSH2 0x790 JUMP JUMPDEST SWAP2 POP POP SWAP3 SWAP2 POP POP JUMP JUMPDEST PUSH0 PUSH20 0xFFFFFFFFFFFFFFFFFFFFFFFFFFFFFFFFFFFFFFFF DUP3 AND SWAP1 POP SWAP2 SWAP1 POP JUMP JUMPDEST PUSH0 PUSH2 0x855 DUP3 PUSH2 0x82C JUMP JUMPDEST SWAP1 POP SWAP2 SWAP1 POP JUMP JUMPDEST PUSH2 0x865 DUP2 PUSH2 0x84B JUMP JUMPDEST DUP3 MSTORE POP POP JUMP JUMPDEST PUSH0 PUSH1 0x20 DUP3 ADD SWAP1 POP PUSH2 0x87E PUSH0 DUP4 ADD DUP5 PUSH2 0x85C JUMP JUMPDEST SWAP3 SWAP2 POP POP JUMP JUMPDEST PUSH2 0x88D DUP2 PUSH2 0x84B JUMP JUMPDEST DUP2 EQ PUSH2 0x897 JUMPI PUSH0 DUP1 REVERT JUMPDEST POP JUMP JUMPDEST PUSH0 DUP2 CALLDATALOAD SWAP1 POP PUSH2 0x8A8 DUP2 PUSH2 0x884 JUMP JUMPDEST SWAP3 SWAP2 POP POP JUMP JUMPDEST PUSH0 PUSH1 0x20 DUP3 DUP5 SUB SLT ISZERO PUSH2 0x8C3 JUMPI PUSH2 0x8C2 PUSH2 0x708 JUMP JUMPDEST JUMPDEST PUSH0 PUSH2 0x8D0 DUP5 DUP3 DUP6 ADD PUSH2 0x89A JUMP JUMPDEST SWAP2 POP POP SWAP3 SWAP2 POP POP JUMP JUMPDEST PUSH0 DUP2 SWAP1 POP SWAP2 SWAP1 POP JUMP JUMPDEST PUSH0 PUSH2 0x8FC PUSH2 0x8F7 PUSH2 0x8F2 DUP5 PUSH2 0x82C JUMP JUMPDEST PUSH2 0x8D9 JUMP JUMPDEST PUSH2 0x82C JUMP JUMPDEST SWAP1 POP SWAP2 SWAP1 POP JUMP JUMPDEST PUSH0 PUSH2 0x90D DUP3 PUSH2 0x8E2 JUMP JUMPDEST SWAP1 POP SWAP2 SWAP1 POP JUMP JUMPDEST PUSH0 PUSH2 0x91E DUP3 PUSH2 0x903 JUMP JUMPDEST SWAP1 POP SWAP2 SWAP1 POP JUMP JUMPDEST PUSH2 0x92E DUP2 PUSH2 0x914 JUMP JUMPDEST DUP3 MSTORE POP POP JUMP JUMPDEST PUSH0 PUSH1 0x20 DUP3 ADD SWAP1 POP PUSH2 0x947 PUSH0 DUP4 ADD DUP5 PUSH2 0x925 JUMP JUMPDEST SWAP3 SWAP2 POP POP JUMP JUMPDEST PUSH0 DUP3 DUP3 MSTORE PUSH1 0x20 DUP3 ADD SWAP1 POP SWAP3 SWAP2 POP POP JUMP JUMPDEST PUSH32 0x4E6F20726563697069656E747300000000000000000000000000000000000000 PUSH0 DUP3 ADD MSTORE POP JUMP JUMPDEST PUSH0 PUSH2 0x991 PUSH1 0xD DUP4 PUSH2 0x94D JUMP JUMPDEST SWAP2 POP PUSH2 0x99C DUP3 PUSH2 0x95D JUMP JUMPDEST PUSH1 0x20 DUP3 ADD SWAP1 POP SWAP2 SWAP1 POP JUMP JUMPDEST PUSH0 PUSH1 0x20 DUP3 ADD SWAP1 POP DUP2 DUP2 SUB PUSH0 DUP4 ADD MSTORE PUSH2 0x9BE DUP2 PUSH2 0x985 JUMP JUMPDEST SWAP1 POP SWAP2 SWAP1 POP JUMP JUMPDEST PUSH32 0x416D6F756E74206D7573742062652067726561746572207468616E2030000000 PUSH0 DUP3 ADD MSTORE POP JUMP JUMPDEST PUSH0 PUSH2 0x9F9 PUSH1 0x1D DUP4 PUSH2 0x94D JUMP JUMPDEST SWAP2 POP PUSH2 0xA04 DUP3 PUSH2 0x9C5 JUMP JUMPDEST PUSH1 0x20 DUP3 ADD SWAP1 POP SWAP2 SWAP1 POP JUMP JUMPDEST PUSH0 PUSH1 0x20 DUP3 ADD SWAP1 POP DUP2 DUP2 SUB PUSH0 DUP4 ADD MSTORE PUSH2 0xA26 DUP2 PUSH2 0x9ED JUMP JUMPDEST SWAP1 POP SWAP2 SWAP1 POP JUMP JUMPDEST PUSH0 DUP2 MLOAD SWAP1 POP PUSH2 0xA3B DUP2 PUSH2 0x77A JUMP JUMPDEST SWAP3 SWAP2 POP POP JUMP JUMPDEST PUSH0 PUSH1 0x20 DUP3 DUP5 SUB SLT ISZERO PUSH2 0xA56 JUMPI PUSH2 0xA55 PUSH2 0x708 JUMP JUMPDEST JUMPDEST PUSH0 PUSH2 0xA63 DUP5 DUP3 DUP6 ADD PUSH2 0xA2D JUMP JUMPDEST SWAP2 POP POP SWAP3 SWAP2 POP POP JUMP JUMPDEST PUSH32 0x496E73756666696369656E742062616C616E636520696E20636F6E7472616374 PUSH0 DUP3 ADD MSTORE POP JUMP JUMPDEST PUSH0 PUSH2 0xAA0 PUSH1 0x20 DUP4 PUSH2 0x94D JUMP JUMPDEST SWAP2 POP PUSH2 0xAAB DUP3 PUSH2 0xA6C JUMP JUMPDEST PUSH1 0x20 DUP3 ADD SWAP1 POP SWAP2 SWAP1 POP JUMP JUMPDEST PUSH0 PUSH1 0x20 DUP3 ADD SWAP1 POP DUP2 DUP2 SUB PUSH0 DUP4 ADD MSTORE PUSH2 0xACD DUP2 PUSH2 0xA94 JUMP JUMPDEST SWAP1 POP SWAP2 SWAP1 POP JUMP JUMPDEST PUSH32 0x4E487B7100000000000000000000000000000000000000000000000000000000 PUSH0 MSTORE PUSH1 0x32 PUSH1 0x4 MSTORE PUSH1 0x24 PUSH0 REVERT JUMPDEST PUSH2 0xB0A DUP2 PUSH2 0x771 JUMP JUMPDEST DUP3 MSTORE POP POP JUMP JUMPDEST PUSH0 PUSH1 0x40 DUP3 ADD SWAP1 POP PUSH2 0xB23 PUSH0 DUP4 ADD DUP6 PUSH2 0x85C JUMP JUMPDEST PUSH2 0xB30 PUSH1 0x20 DUP4 ADD DUP5 PUSH2 0xB01 JUMP JUMPDEST SWAP4 SWAP3 POP POP POP JUMP JUMPDEST PUSH0 DUP2 ISZERO ISZERO SWAP1 POP SWAP2 SWAP1 POP JUMP JUMPDEST PUSH2 0xB4B DUP2 PUSH2 0xB37 JUMP JUMPDEST DUP2 EQ PUSH2 0xB55 JUMPI PUSH0 DUP1 REVERT JUMPDEST POP JUMP JUMPDEST PUSH0 DUP2 MLOAD SWAP1 POP PUSH2 0xB66 DUP2 PUSH2 0xB42 JUMP JUMPDEST SWAP3 SWAP2 POP POP JUMP JUMPDEST PUSH0 PUSH1 0x20 DUP3 DUP5 SUB SLT ISZERO PUSH2 0xB81 JUMPI PUSH2 0xB80 PUSH2 0x708 JUMP JUMPDEST JUMPDEST PUSH0 PUSH2 0xB8E DUP5 DUP3 DUP6 ADD PUSH2 0xB58 JUMP JUMPDEST SWAP2 POP POP SWAP3 SWAP2 POP POP JUMP JUMPDEST PUSH32 0x496E73756666696369656E7420636F6E74726163742062616C616E6365000000 PUSH0 DUP3 ADD MSTORE POP JUMP JUMPDEST PUSH0 PUSH2 0xBCB PUSH1 0x1D DUP4 PUSH2 0x94D JUMP JUMPDEST SWAP2 POP PUSH2 0xBD6 DUP3 PUSH2 0xB97 JUMP JUMPDEST PUSH1 0x20 DUP3 ADD SWAP1 POP SWAP2 SWAP1 POP JUMP JUMPDEST PUSH0 PUSH1 0x20 DUP3 ADD SWAP1 POP DUP2 DUP2 SUB PUSH0 DUP4 ADD MSTORE PUSH2 0xBF8 DUP2 PUSH2 0xBBF JUMP JUMPDEST SWAP1 POP SWAP2 SWAP1 POP JUMP INVALID LOG2 PUSH5 0x6970667358 0x22 SLT KECCAK256 0xC5 0xBB PUSH18 0x879EAABC3410C605367C0F998B0730814972 BASEFEE GT PUSH9 0x71DE57BD8E4EDB7E64 PUSH20 0x6F6C634300081A00330000000000000000000000 "
				},
				"gasEstimates": {
					"creation": {
						"codeDepositCost": "625000",
						"executionCost": "infinite",
						"totalCost": "infinite"
					},
					"external": {
						"distributeTokens(address[],uint256)": "infinite",
						"owner()": "2559",
						"renounceOwnership()": "infinite",
						"token()": "infinite",
						"transferOwnership(address)": "infinite",
						"withdrawTokens(uint256)": "infinite"
					}
				},
				"methodIdentifiers": {
					"distributeTokens(address[],uint256)": "256fa241",
					"owner()": "8da5cb5b",
					"renounceOwnership()": "715018a6",
					"token()": "fc0c546a",
					"transferOwnership(address)": "f2fde38b",
					"withdrawTokens(uint256)": "315a095d"
				}
			},
			"storageLayout": {
				"storage": [
					{
						"astId": 8,
						"contract": "contracts/study3/Airdrop.sol:Airdrop",
						"label": "_owner",
						"offset": 0,
						"slot": "0",
						"type": "t_address"
					},
					{
						"astId": 264,
						"contract": "contracts/study3/Airdrop.sol:Airdrop",
						"label": "token",
						"offset": 0,
						"slot": "1",
						"type": "t_contract(IERC20)225"
					}
				],
				"types": {
					"t_address": {
						"encoding": "inplace",
						"label": "address",
						"numberOfBytes": "20"
					},
					"t_contract(IERC20)225": {
						"encoding": "inplace",
						"label": "contract IERC20",
						"numberOfBytes": "20"
					}
				}
			},
			"userdoc": {
				"kind": "user",
				"methods": {},
				"version": 1
			}
		}
	}
}