{
	"contracts/study3/Proxy.sol": {
		"Proxy": {
			"abi": [
				{
					"inputs": [
						{
							"internalType": "address",
							"name": "_implementation",
							"type": "address"
						}
					],
					"stateMutability": "nonpayable",
					"type": "constructor"
				},
				{
					"anonymous": false,
					"inputs": [
						{
							"indexed": false,
							"internalType": "string",
							"name": "",
							"type": "string"
						}
					],
					"name": "Log",
					"type": "event"
				},
				{
					"stateMutability": "payable",
					"type": "fallback"
				},
				{
					"inputs": [],
					"name": "value",
					"outputs": [
						{
							"internalType": "uint256",
							"name": "",
							"type": "uint256"
						}
					],
					"stateMutability": "view",
					"type": "function"
				}
			],
			"devdoc": {
				"kind": "dev",
				"methods": {},
				"version": 1
			},
			"evm": {
				"assembly": "    /* \"contracts/study3/Proxy.sol\":171:715  contract Proxy {... */\n  mstore(0x40, 0x80)\n    /* \"contracts/study3/Proxy.sol\":270:356  constructor(address _implementation) {... */\n  callvalue\n  dup1\n  iszero\n  tag_1\n  jumpi\n  0x00\n  dup1\n  revert\ntag_1:\n  pop\n  mload(0x40)\n  sub(codesize, bytecodeSize)\n  dup1\n  bytecodeSize\n  dup4\n  codecopy\n  dup2\n  dup2\n  add\n  0x40\n  mstore\n  dup2\n  add\n  swap1\n  tag_2\n  swap2\n  swap1\n  tag_3\n  jump\t// in\ntag_2:\n    /* \"contracts/study3/Proxy.sol\":334:349  _implementation */\n  dup1\n    /* \"contracts/study3/Proxy.sol\":317:331  implementation */\n  0x01\n  0x00\n    /* \"contracts/study3/Proxy.sol\":317:349  implementation = _implementation */\n  0x0100\n  exp\n  dup2\n  sload\n  dup2\n  0xffffffffffffffffffffffffffffffffffffffff\n  mul\n  not\n  and\n  swap1\n  dup4\n  0xffffffffffffffffffffffffffffffffffffffff\n  and\n  mul\n  or\n  swap1\n  sstore\n  pop\n    /* \"contracts/study3/Proxy.sol\":270:356  constructor(address _implementation) {... */\n  pop\n    /* \"contracts/study3/Proxy.sol\":171:715  contract Proxy {... */\n  jump(tag_6)\n    /* \"#utility.yul\":88:205   */\ntag_8:\n    /* \"#utility.yul\":197:198   */\n  0x00\n    /* \"#utility.yul\":194:195   */\n  dup1\n    /* \"#utility.yul\":187:199   */\n  revert\n    /* \"#utility.yul\":334:460   */\ntag_10:\n    /* \"#utility.yul\":371:378   */\n  0x00\n    /* \"#utility.yul\":411:453   */\n  0xffffffffffffffffffffffffffffffffffffffff\n    /* \"#utility.yul\":404:409   */\n  dup3\n    /* \"#utility.yul\":400:454   */\n  and\n    /* \"#utility.yul\":389:454   */\n  swap1\n  pop\n    /* \"#utility.yul\":334:460   */\n  swap2\n  swap1\n  pop\n  jump\t// out\n    /* \"#utility.yul\":466:562   */\ntag_11:\n    /* \"#utility.yul\":503:510   */\n  0x00\n    /* \"#utility.yul\":532:556   */\n  tag_20\n    /* \"#utility.yul\":550:555   */\n  dup3\n    /* \"#utility.yul\":532:556   */\n  tag_10\n  jump\t// in\ntag_20:\n    /* \"#utility.yul\":521:556   */\n  swap1\n  pop\n    /* \"#utility.yul\":466:562   */\n  swap2\n  swap1\n  pop\n  jump\t// out\n    /* \"#utility.yul\":568:690   */\ntag_12:\n    /* \"#utility.yul\":641:665   */\n  tag_22\n    /* \"#utility.yul\":659:664   */\n  dup2\n    /* \"#utility.yul\":641:665   */\n  tag_11\n  jump\t// in\ntag_22:\n    /* \"#utility.yul\":634:639   */\n  dup2\n    /* \"#utility.yul\":631:666   */\n  eq\n    /* \"#utility.yul\":621:684   */\n  tag_23\n  jumpi\n    /* \"#utility.yul\":680:681   */\n  0x00\n    /* \"#utility.yul\":677:678   */\n  dup1\n    /* \"#utility.yul\":670:682   */\n  revert\n    /* \"#utility.yul\":621:684   */\ntag_23:\n    /* \"#utility.yul\":568:690   */\n  pop\n  jump\t// out\n    /* \"#utility.yul\":696:839   */\ntag_13:\n    /* \"#utility.yul\":753:758   */\n  0x00\n    /* \"#utility.yul\":784:790   */\n  dup2\n    /* \"#utility.yul\":778:791   */\n  mload\n    /* \"#utility.yul\":769:791   */\n  swap1\n  pop\n    /* \"#utility.yul\":800:833   */\n  tag_25\n    /* \"#utility.yul\":827:832   */\n  dup2\n    /* \"#utility.yul\":800:833   */\n  tag_12\n  jump\t// in\ntag_25:\n    /* \"#utility.yul\":696:839   */\n  swap3\n  swap2\n  pop\n  pop\n  jump\t// out\n    /* \"#utility.yul\":845:1196   */\ntag_3:\n    /* \"#utility.yul\":915:921   */\n  0x00\n    /* \"#utility.yul\":964:966   */\n  0x20\n    /* \"#utility.yul\":952:961   */\n  dup3\n    /* \"#utility.yul\":943:950   */\n  dup5\n    /* \"#utility.yul\":939:962   */\n  sub\n    /* \"#utility.yul\":935:967   */\n  slt\n    /* \"#utility.yul\":932:1051   */\n  iszero\n  tag_27\n  jumpi\n    /* \"#utility.yul\":970:1049   */\n  tag_28\n  tag_8\n  jump\t// in\ntag_28:\n    /* \"#utility.yul\":932:1051   */\ntag_27:\n    /* \"#utility.yul\":1090:1091   */\n  0x00\n    /* \"#utility.yul\":1115:1179   */\n  tag_29\n    /* \"#utility.yul\":1171:1178   */\n  dup5\n    /* \"#utility.yul\":1162:1168   */\n  dup3\n    /* \"#utility.yul\":1151:1160   */\n  dup6\n    /* \"#utility.yul\":1147:1169   */\n  add\n    /* \"#utility.yul\":1115:1179   */\n  tag_13\n  jump\t// in\ntag_29:\n    /* \"#utility.yul\":1105:1179   */\n  swap2\n  pop\n    /* \"#utility.yul\":1061:1189   */\n  pop\n    /* \"#utility.yul\":845:1196   */\n  swap3\n  swap2\n  pop\n  pop\n  jump\t// out\n    /* \"contracts/study3/Proxy.sol\":171:715  contract Proxy {... */\ntag_6:\n  dataSize(sub_0)\n  dup1\n  dataOffset(sub_0)\n  0x00\n  codecopy\n  0x00\n  return\nstop\n\nsub_0: assembly {\n        /* \"contracts/study3/Proxy.sol\":171:715  contract Proxy {... */\n      mstore(0x40, 0x80)\n      jumpi(tag_1, lt(calldatasize, 0x04))\n      shr(0xe0, calldataload(0x00))\n      dup1\n      0x3fa4f245\n      eq\n      tag_3\n      jumpi\n      jump(tag_2)\n    tag_1:\n    tag_2:\n        /* \"contracts/study3/Proxy.sol\":400:413  address _impl */\n      0x00\n        /* \"contracts/study3/Proxy.sol\":416:430  implementation */\n      0x01\n      0x00\n      swap1\n      sload\n      swap1\n      0x0100\n      exp\n      swap1\n      div\n      0xffffffffffffffffffffffffffffffffffffffff\n      and\n        /* \"contracts/study3/Proxy.sol\":400:430  address _impl = implementation */\n      swap1\n      pop\n        /* \"contracts/study3/Proxy.sol\":478:479  0 */\n      0x00\n        /* \"contracts/study3/Proxy.sol\":461:480  _impl != address(0) */\n      0xffffffffffffffffffffffffffffffffffffffff\n      and\n        /* \"contracts/study3/Proxy.sol\":461:466  _impl */\n      dup2\n        /* \"contracts/study3/Proxy.sol\":461:480  _impl != address(0) */\n      0xffffffffffffffffffffffffffffffffffffffff\n      and\n      sub\n        /* \"contracts/study3/Proxy.sol\":440:548  require(... */\n      tag_6\n      jumpi\n      mload(0x40)\n      0x08c379a000000000000000000000000000000000000000000000000000000000\n      dup2\n      mstore\n      0x04\n      add\n      tag_7\n      swap1\n      tag_8\n      jump\t// in\n    tag_7:\n      mload(0x40)\n      dup1\n      swap2\n      sub\n      swap1\n      revert\n    tag_6:\n        /* \"contracts/study3/Proxy.sol\":611:623  bool success */\n      0x00\n        /* \"contracts/study3/Proxy.sol\":629:634  _impl */\n      dup2\n        /* \"contracts/study3/Proxy.sol\":629:647  _impl.delegatecall */\n      0xffffffffffffffffffffffffffffffffffffffff\n      and\n        /* \"contracts/study3/Proxy.sol\":648:656  msg.data */\n      0x00\n      calldatasize\n        /* \"contracts/study3/Proxy.sol\":629:657  _impl.delegatecall(msg.data) */\n      mload(0x40)\n      tag_9\n      swap3\n      swap2\n      swap1\n      tag_10\n      jump\t// in\n    tag_9:\n      0x00\n      mload(0x40)\n      dup1\n      dup4\n      sub\n      dup2\n      dup6\n      gas\n      delegatecall\n      swap2\n      pop\n      pop\n      returndatasize\n      dup1\n      0x00\n      dup2\n      eq\n      tag_13\n      jumpi\n      mload(0x40)\n      swap2\n      pop\n      and(add(returndatasize, 0x3f), not(0x1f))\n      dup3\n      add\n      0x40\n      mstore\n      returndatasize\n      dup3\n      mstore\n      returndatasize\n      0x00\n      0x20\n      dup5\n      add\n      returndatacopy\n      jump(tag_12)\n    tag_13:\n      0x60\n      swap2\n      pop\n    tag_12:\n      pop\n        /* \"contracts/study3/Proxy.sol\":610:657  (bool success, ) = _impl.delegatecall(msg.data) */\n      pop\n      swap1\n      pop\n        /* \"contracts/study3/Proxy.sol\":675:682  success */\n      dup1\n        /* \"contracts/study3/Proxy.sol\":667:706  require(success, \"Delegatecall failed\") */\n      tag_14\n      jumpi\n      mload(0x40)\n      0x08c379a000000000000000000000000000000000000000000000000000000000\n      dup2\n      mstore\n      0x04\n      add\n      tag_15\n      swap1\n      tag_16\n      jump\t// in\n    tag_15:\n      mload(0x40)\n      dup1\n      swap2\n      sub\n      swap1\n      revert\n    tag_14:\n        /* \"contracts/study3/Proxy.sol\":390:713  {... */\n      stop\n        /* \"contracts/study3/Proxy.sol\":192:212  uint256 public value */\n    tag_3:\n      callvalue\n      dup1\n      iszero\n      tag_17\n      jumpi\n      0x00\n      dup1\n      revert\n    tag_17:\n      pop\n      tag_18\n      tag_19\n      jump\t// in\n    tag_18:\n      mload(0x40)\n      tag_20\n      swap2\n      swap1\n      tag_21\n      jump\t// in\n    tag_20:\n      mload(0x40)\n      dup1\n      swap2\n      sub\n      swap1\n      return\n    tag_19:\n      sload(0x00)\n      dup2\n      jump\t// out\n        /* \"#utility.yul\":7:176   */\n    tag_22:\n        /* \"#utility.yul\":91:102   */\n      0x00\n        /* \"#utility.yul\":125:131   */\n      dup3\n        /* \"#utility.yul\":120:123   */\n      dup3\n        /* \"#utility.yul\":113:132   */\n      mstore\n        /* \"#utility.yul\":165:169   */\n      0x20\n        /* \"#utility.yul\":160:163   */\n      dup3\n        /* \"#utility.yul\":156:170   */\n      add\n        /* \"#utility.yul\":141:170   */\n      swap1\n      pop\n        /* \"#utility.yul\":7:176   */\n      swap3\n      swap2\n      pop\n      pop\n      jump\t// out\n        /* \"#utility.yul\":182:411   */\n    tag_23:\n        /* \"#utility.yul\":322:356   */\n      0x496d706c656d656e746174696f6e20636f6e7472616374206164647265737320\n        /* \"#utility.yul\":318:319   */\n      0x00\n        /* \"#utility.yul\":310:316   */\n      dup3\n        /* \"#utility.yul\":306:320   */\n      add\n        /* \"#utility.yul\":299:357   */\n      mstore\n        /* \"#utility.yul\":391:403   */\n      0x6973206e6f742073657400000000000000000000000000000000000000000000\n        /* \"#utility.yul\":386:388   */\n      0x20\n        /* \"#utility.yul\":378:384   */\n      dup3\n        /* \"#utility.yul\":374:389   */\n      add\n        /* \"#utility.yul\":367:404   */\n      mstore\n        /* \"#utility.yul\":182:411   */\n      pop\n      jump\t// out\n        /* \"#utility.yul\":417:783   */\n    tag_24:\n        /* \"#utility.yul\":559:562   */\n      0x00\n        /* \"#utility.yul\":580:647   */\n      tag_36\n        /* \"#utility.yul\":644:646   */\n      0x2a\n        /* \"#utility.yul\":639:642   */\n      dup4\n        /* \"#utility.yul\":580:647   */\n      tag_22\n      jump\t// in\n    tag_36:\n        /* \"#utility.yul\":573:647   */\n      swap2\n      pop\n        /* \"#utility.yul\":656:749   */\n      tag_37\n        /* \"#utility.yul\":745:748   */\n      dup3\n        /* \"#utility.yul\":656:749   */\n      tag_23\n      jump\t// in\n    tag_37:\n        /* \"#utility.yul\":774:776   */\n      0x40\n        /* \"#utility.yul\":769:772   */\n      dup3\n        /* \"#utility.yul\":765:777   */\n      add\n        /* \"#utility.yul\":758:777   */\n      swap1\n      pop\n        /* \"#utility.yul\":417:783   */\n      swap2\n      swap1\n      pop\n      jump\t// out\n        /* \"#utility.yul\":789:1208   */\n    tag_8:\n        /* \"#utility.yul\":955:959   */\n      0x00\n        /* \"#utility.yul\":993:995   */\n      0x20\n        /* \"#utility.yul\":982:991   */\n      dup3\n        /* \"#utility.yul\":978:996   */\n      add\n        /* \"#utility.yul\":970:996   */\n      swap1\n      pop\n        /* \"#utility.yul\":1042:1051   */\n      dup2\n        /* \"#utility.yul\":1036:1040   */\n      dup2\n        /* \"#utility.yul\":1032:1052   */\n      sub\n        /* \"#utility.yul\":1028:1029   */\n      0x00\n        /* \"#utility.yul\":1017:1026   */\n      dup4\n        /* \"#utility.yul\":1013:1030   */\n      add\n        /* \"#utility.yul\":1006:1053   */\n      mstore\n        /* \"#utility.yul\":1070:1201   */\n      tag_39\n        /* \"#utility.yul\":1196:1200   */\n      dup2\n        /* \"#utility.yul\":1070:1201   */\n      tag_24\n      jump\t// in\n    tag_39:\n        /* \"#utility.yul\":1062:1201   */\n      swap1\n      pop\n        /* \"#utility.yul\":789:1208   */\n      swap2\n      swap1\n      pop\n      jump\t// out\n        /* \"#utility.yul\":1214:1361   */\n    tag_25:\n        /* \"#utility.yul\":1315:1326   */\n      0x00\n        /* \"#utility.yul\":1352:1355   */\n      dup2\n        /* \"#utility.yul\":1337:1355   */\n      swap1\n      pop\n        /* \"#utility.yul\":1214:1361   */\n      swap3\n      swap2\n      pop\n      pop\n      jump\t// out\n        /* \"#utility.yul\":1367:1515   */\n    tag_26:\n        /* \"#utility.yul\":1465:1471   */\n      dup3\n        /* \"#utility.yul\":1460:1463   */\n      dup2\n        /* \"#utility.yul\":1455:1458   */\n      dup4\n        /* \"#utility.yul\":1442:1472   */\n      calldatacopy\n        /* \"#utility.yul\":1506:1507   */\n      0x00\n        /* \"#utility.yul\":1497:1503   */\n      dup4\n        /* \"#utility.yul\":1492:1495   */\n      dup4\n        /* \"#utility.yul\":1488:1504   */\n      add\n        /* \"#utility.yul\":1481:1508   */\n      mstore\n        /* \"#utility.yul\":1367:1515   */\n      pop\n      pop\n      pop\n      jump\t// out\n        /* \"#utility.yul\":1543:1870   */\n    tag_27:\n        /* \"#utility.yul\":1657:1660   */\n      0x00\n        /* \"#utility.yul\":1678:1766   */\n      tag_43\n        /* \"#utility.yul\":1759:1765   */\n      dup4\n        /* \"#utility.yul\":1754:1757   */\n      dup6\n        /* \"#utility.yul\":1678:1766   */\n      tag_25\n      jump\t// in\n    tag_43:\n        /* \"#utility.yul\":1671:1766   */\n      swap4\n      pop\n        /* \"#utility.yul\":1776:1832   */\n      tag_44\n        /* \"#utility.yul\":1825:1831   */\n      dup4\n        /* \"#utility.yul\":1820:1823   */\n      dup6\n        /* \"#utility.yul\":1813:1818   */\n      dup5\n        /* \"#utility.yul\":1776:1832   */\n      tag_26\n      jump\t// in\n    tag_44:\n        /* \"#utility.yul\":1857:1863   */\n      dup3\n        /* \"#utility.yul\":1852:1855   */\n      dup5\n        /* \"#utility.yul\":1848:1864   */\n      add\n        /* \"#utility.yul\":1841:1864   */\n      swap1\n      pop\n        /* \"#utility.yul\":1543:1870   */\n      swap4\n      swap3\n      pop\n      pop\n      pop\n      jump\t// out\n        /* \"#utility.yul\":1876:2167   */\n    tag_10:\n        /* \"#utility.yul\":2016:2019   */\n      0x00\n        /* \"#utility.yul\":2038:2141   */\n      tag_46\n        /* \"#utility.yul\":2137:2140   */\n      dup3\n        /* \"#utility.yul\":2128:2134   */\n      dup5\n        /* \"#utility.yul\":2120:2126   */\n      dup7\n        /* \"#utility.yul\":2038:2141   */\n      tag_27\n      jump\t// in\n    tag_46:\n        /* \"#utility.yul\":2031:2141   */\n      swap2\n      pop\n        /* \"#utility.yul\":2158:2161   */\n      dup2\n        /* \"#utility.yul\":2151:2161   */\n      swap1\n      pop\n        /* \"#utility.yul\":1876:2167   */\n      swap4\n      swap3\n      pop\n      pop\n      pop\n      jump\t// out\n        /* \"#utility.yul\":2173:2342   */\n    tag_28:\n        /* \"#utility.yul\":2313:2334   */\n      0x44656c656761746563616c6c206661696c656400000000000000000000000000\n        /* \"#utility.yul\":2309:2310   */\n      0x00\n        /* \"#utility.yul\":2301:2307   */\n      dup3\n        /* \"#utility.yul\":2297:2311   */\n      add\n        /* \"#utility.yul\":2290:2335   */\n      mstore\n        /* \"#utility.yul\":2173:2342   */\n      pop\n      jump\t// out\n        /* \"#utility.yul\":2348:2714   */\n    tag_29:\n        /* \"#utility.yul\":2490:2493   */\n      0x00\n        /* \"#utility.yul\":2511:2578   */\n      tag_49\n        /* \"#utility.yul\":2575:2577   */\n      0x13\n        /* \"#utility.yul\":2570:2573   */\n      dup4\n        /* \"#utility.yul\":2511:2578   */\n      tag_22\n      jump\t// in\n    tag_49:\n        /* \"#utility.yul\":2504:2578   */\n      swap2\n      pop\n        /* \"#utility.yul\":2587:2680   */\n      tag_50\n        /* \"#utility.yul\":2676:2679   */\n      dup3\n        /* \"#utility.yul\":2587:2680   */\n      tag_28\n      jump\t// in\n    tag_50:\n        /* \"#utility.yul\":2705:2707   */\n      0x20\n        /* \"#utility.yul\":2700:2703   */\n      dup3\n        /* \"#utility.yul\":2696:2708   */\n      add\n        /* \"#utility.yul\":2689:2708   */\n      swap1\n      pop\n        /* \"#utility.yul\":2348:2714   */\n      swap2\n      swap1\n      pop\n      jump\t// out\n        /* \"#utility.yul\":2720:3139   */\n    tag_16:\n        /* \"#utility.yul\":2886:2890   */\n      0x00\n        /* \"#utility.yul\":2924:2926   */\n      0x20\n        /* \"#utility.yul\":2913:2922   */\n      dup3\n        /* \"#utility.yul\":2909:2927   */\n      add\n        /* \"#utility.yul\":2901:2927   */\n      swap1\n      pop\n        /* \"#utility.yul\":2973:2982   */\n      dup2\n        /* \"#utility.yul\":2967:2971   */\n      dup2\n        /* \"#utility.yul\":2963:2983   */\n      sub\n        /* \"#utility.yul\":2959:2960   */\n      0x00\n        /* \"#utility.yul\":2948:2957   */\n      dup4\n        /* \"#utility.yul\":2944:2961   */\n      add\n        /* \"#utility.yul\":2937:2984   */\n      mstore\n        /* \"#utility.yul\":3001:3132   */\n      tag_52\n        /* \"#utility.yul\":3127:3131   */\n      dup2\n        /* \"#utility.yul\":3001:3132   */\n      tag_29\n      jump\t// in\n    tag_52:\n        /* \"#utility.yul\":2993:3132   */\n      swap1\n      pop\n        /* \"#utility.yul\":2720:3139   */\n      swap2\n      swap1\n      pop\n      jump\t// out\n        /* \"#utility.yul\":3145:3222   */\n    tag_30:\n        /* \"#utility.yul\":3182:3189   */\n      0x00\n        /* \"#utility.yul\":3211:3216   */\n      dup2\n        /* \"#utility.yul\":3200:3216   */\n      swap1\n      pop\n        /* \"#utility.yul\":3145:3222   */\n      swap2\n      swap1\n      pop\n      jump\t// out\n        /* \"#utility.yul\":3228:3346   */\n    tag_31:\n        /* \"#utility.yul\":3315:3339   */\n      tag_55\n        /* \"#utility.yul\":3333:3338   */\n      dup2\n        /* \"#utility.yul\":3315:3339   */\n      tag_30\n      jump\t// in\n    tag_55:\n        /* \"#utility.yul\":3310:3313   */\n      dup3\n        /* \"#utility.yul\":3303:3340   */\n      mstore\n        /* \"#utility.yul\":3228:3346   */\n      pop\n      pop\n      jump\t// out\n        /* \"#utility.yul\":3352:3574   */\n    tag_21:\n        /* \"#utility.yul\":3445:3449   */\n      0x00\n        /* \"#utility.yul\":3483:3485   */\n      0x20\n        /* \"#utility.yul\":3472:3481   */\n      dup3\n        /* \"#utility.yul\":3468:3486   */\n      add\n        /* \"#utility.yul\":3460:3486   */\n      swap1\n      pop\n        /* \"#utility.yul\":3496:3567   */\n      tag_57\n        /* \"#utility.yul\":3564:3565   */\n      0x00\n        /* \"#utility.yul\":3553:3562   */\n      dup4\n        /* \"#utility.yul\":3549:3566   */\n      add\n        /* \"#utility.yul\":3540:3546   */\n      dup5\n        /* \"#utility.yul\":3496:3567   */\n      tag_31\n      jump\t// in\n    tag_57:\n        /* \"#utility.yul\":3352:3574   */\n      swap3\n      swap2\n      pop\n      pop\n      jump\t// out\n\n    auxdata: 0xa2646970667358221220a7b1267b631b83c8a8a9b5be322bd28b6812bf42b518b28254d0c30bafa6375564736f6c634300081a0033\n}\n",
				"bytecode": {
					"linkReferences": {},
					"object": "608060405234801561000f575f80fd5b5060405161045d38038061045d833981810160405281019061003191906100d5565b8060015f6101000a81548173ffffffffffffffffffffffffffffffffffffffff021916908373ffffffffffffffffffffffffffffffffffffffff16021790555050610100565b5f80fd5b5f73ffffffffffffffffffffffffffffffffffffffff82169050919050565b5f6100a48261007b565b9050919050565b6100b48161009a565b81146100be575f80fd5b50565b5f815190506100cf816100ab565b92915050565b5f602082840312156100ea576100e9610077565b5b5f6100f7848285016100c1565b91505092915050565b6103508061010d5f395ff3fe608060405260043610610021575f3560e01c80633fa4f2451461016057610022565b5b5f60015f9054906101000a900473ffffffffffffffffffffffffffffffffffffffff1690505f73ffffffffffffffffffffffffffffffffffffffff168173ffffffffffffffffffffffffffffffffffffffff16036100b5576040517f08c379a00000000000000000000000000000000000000000000000000000000081526004016100ac9061020f565b60405180910390fd5b5f8173ffffffffffffffffffffffffffffffffffffffff165f366040516100dd929190610269565b5f60405180830381855af49150503d805f8114610115576040519150601f19603f3d011682016040523d82523d5f602084013e61011a565b606091505b505090508061015e576040517f08c379a0000000000000000000000000000000000000000000000000000000008152600401610155906102cb565b60405180910390fd5b005b34801561016b575f80fd5b5061017461018a565b6040516101819190610301565b60405180910390f35b5f5481565b5f82825260208201905092915050565b7f496d706c656d656e746174696f6e20636f6e74726163742061646472657373205f8201527f6973206e6f742073657400000000000000000000000000000000000000000000602082015250565b5f6101f9602a8361018f565b91506102048261019f565b604082019050919050565b5f6020820190508181035f830152610226816101ed565b9050919050565b5f81905092915050565b828183375f83830152505050565b5f610250838561022d565b935061025d838584610237565b82840190509392505050565b5f610275828486610245565b91508190509392505050565b7f44656c656761746563616c6c206661696c6564000000000000000000000000005f82015250565b5f6102b560138361018f565b91506102c082610281565b602082019050919050565b5f6020820190508181035f8301526102e2816102a9565b9050919050565b5f819050919050565b6102fb816102e9565b82525050565b5f6020820190506103145f8301846102f2565b9291505056fea2646970667358221220a7b1267b631b83c8a8a9b5be322bd28b6812bf42b518b28254d0c30bafa6375564736f6c634300081a0033",
					"opcodes": "PUSH1 0x80 PUSH1 0x40 MSTORE CALLVALUE DUP1 ISZERO PUSH2 0xF JUMPI PUSH0 DUP1 REVERT JUMPDEST POP PUSH1 0x40 MLOAD PUSH2 0x45D CODESIZE SUB DUP1 PUSH2 0x45D DUP4 CODECOPY DUP2 DUP2 ADD PUSH1 0x40 MSTORE DUP2 ADD SWAP1 PUSH2 0x31 SWAP2 SWAP1 PUSH2 0xD5 JUMP JUMPDEST DUP1 PUSH1 0x1 PUSH0 PUSH2 0x100 EXP DUP2 SLOAD DUP2 PUSH20 0xFFFFFFFFFFFFFFFFFFFFFFFFFFFFFFFFFFFFFFFF MUL NOT AND SWAP1 DUP4 PUSH20 0xFFFFFFFFFFFFFFFFFFFFFFFFFFFFFFFFFFFFFFFF AND MUL OR SWAP1 SSTORE POP POP PUSH2 0x100 JUMP JUMPDEST PUSH0 DUP1 REVERT JUMPDEST PUSH0 PUSH20 0xFFFFFFFFFFFFFFFFFFFFFFFFFFFFFFFFFFFFFFFF DUP3 AND SWAP1 POP SWAP2 SWAP1 POP JUMP JUMPDEST PUSH0 PUSH2 0xA4 DUP3 PUSH2 0x7B JUMP JUMPDEST SWAP1 POP SWAP2 SWAP1 POP JUMP JUMPDEST PUSH2 0xB4 DUP2 PUSH2 0x9A JUMP JUMPDEST DUP2 EQ PUSH2 0xBE JUMPI PUSH0 DUP1 REVERT JUMPDEST POP JUMP JUMPDEST PUSH0 DUP2 MLOAD SWAP1 POP PUSH2 0xCF DUP2 PUSH2 0xAB JUMP JUMPDEST SWAP3 SWAP2 POP POP JUMP JUMPDEST PUSH0 PUSH1 0x20 DUP3 DUP5 SUB SLT ISZERO PUSH2 0xEA JUMPI PUSH2 0xE9 PUSH2 0x77 JUMP JUMPDEST JUMPDEST PUSH0 PUSH2 0xF7 DUP5 DUP3 DUP6 ADD PUSH2 0xC1 JUMP JUMPDEST SWAP2 POP POP SWAP3 SWAP2 POP POP JUMP JUMPDEST PUSH2 0x350 DUP1 PUSH2 0x10D PUSH0 CODECOPY PUSH0 RETURN INVALID PUSH1 0x80 PUSH1 0x40 MSTORE PUSH1 0x4 CALLDATASIZE LT PUSH2 0x21 JUMPI PUSH0 CALLDATALOAD PUSH1 0xE0 SHR DUP1 PUSH4 0x3FA4F245 EQ PUSH2 0x160 JUMPI PUSH2 0x22 JUMP JUMPDEST JUMPDEST PUSH0 PUSH1 0x1 PUSH0 SWAP1 SLOAD SWAP1 PUSH2 0x100 EXP SWAP1 DIV PUSH20 0xFFFFFFFFFFFFFFFFFFFFFFFFFFFFFFFFFFFFFFFF AND SWAP1 POP PUSH0 PUSH20 0xFFFFFFFFFFFFFFFFFFFFFFFFFFFFFFFFFFFFFFFF AND DUP2 PUSH20 0xFFFFFFFFFFFFFFFFFFFFFFFFFFFFFFFFFFFFFFFF AND SUB PUSH2 0xB5 JUMPI PUSH1 0x40 MLOAD PUSH32 0x8C379A000000000000000000000000000000000000000000000000000000000 DUP2 MSTORE PUSH1 0x4 ADD PUSH2 0xAC SWAP1 PUSH2 0x20F JUMP JUMPDEST PUSH1 0x40 MLOAD DUP1 SWAP2 SUB SWAP1 REVERT JUMPDEST PUSH0 DUP2 PUSH20 0xFFFFFFFFFFFFFFFFFFFFFFFFFFFFFFFFFFFFFFFF AND PUSH0 CALLDATASIZE PUSH1 0x40 MLOAD PUSH2 0xDD SWAP3 SWAP2 SWAP1 PUSH2 0x269 JUMP JUMPDEST PUSH0 PUSH1 0x40 MLOAD DUP1 DUP4 SUB DUP2 DUP6 GAS DELEGATECALL SWAP2 POP POP RETURNDATASIZE DUP1 PUSH0 DUP2 EQ PUSH2 0x115 JUMPI PUSH1 0x40 MLOAD SWAP2 POP PUSH1 0x1F NOT PUSH1 0x3F RETURNDATASIZE ADD AND DUP3 ADD PUSH1 0x40 MSTORE RETURNDATASIZE DUP3 MSTORE RETURNDATASIZE PUSH0 PUSH1 0x20 DUP5 ADD RETURNDATACOPY PUSH2 0x11A JUMP JUMPDEST PUSH1 0x60 SWAP2 POP JUMPDEST POP POP SWAP1 POP DUP1 PUSH2 0x15E JUMPI PUSH1 0x40 MLOAD PUSH32 0x8C379A000000000000000000000000000000000000000000000000000000000 DUP2 MSTORE PUSH1 0x4 ADD PUSH2 0x155 SWAP1 PUSH2 0x2CB JUMP JUMPDEST PUSH1 0x40 MLOAD DUP1 SWAP2 SUB SWAP1 REVERT JUMPDEST STOP JUMPDEST CALLVALUE DUP1 ISZERO PUSH2 0x16B JUMPI PUSH0 DUP1 REVERT JUMPDEST POP PUSH2 0x174 PUSH2 0x18A JUMP JUMPDEST PUSH1 0x40 MLOAD PUSH2 0x181 SWAP2 SWAP1 PUSH2 0x301 JUMP JUMPDEST PUSH1 0x40 MLOAD DUP1 SWAP2 SUB SWAP1 RETURN JUMPDEST PUSH0 SLOAD DUP2 JUMP JUMPDEST PUSH0 DUP3 DUP3 MSTORE PUSH1 0x20 DUP3 ADD SWAP1 POP SWAP3 SWAP2 POP POP JUMP JUMPDEST PUSH32 0x496D706C656D656E746174696F6E20636F6E7472616374206164647265737320 PUSH0 DUP3 ADD MSTORE PUSH32 0x6973206E6F742073657400000000000000000000000000000000000000000000 PUSH1 0x20 DUP3 ADD MSTORE POP JUMP JUMPDEST PUSH0 PUSH2 0x1F9 PUSH1 0x2A DUP4 PUSH2 0x18F JUMP JUMPDEST SWAP2 POP PUSH2 0x204 DUP3 PUSH2 0x19F JUMP JUMPDEST PUSH1 0x40 DUP3 ADD SWAP1 POP SWAP2 SWAP1 POP JUMP JUMPDEST PUSH0 PUSH1 0x20 DUP3 ADD SWAP1 POP DUP2 DUP2 SUB PUSH0 DUP4 ADD MSTORE PUSH2 0x226 DUP2 PUSH2 0x1ED JUMP JUMPDEST SWAP1 POP SWAP2 SWAP1 POP JUMP JUMPDEST PUSH0 DUP2 SWAP1 POP SWAP3 SWAP2 POP POP JUMP JUMPDEST DUP3 DUP2 DUP4 CALLDATACOPY PUSH0 DUP4 DUP4 ADD MSTORE POP POP POP JUMP JUMPDEST PUSH0 PUSH2 0x250 DUP4 DUP6 PUSH2 0x22D JUMP JUMPDEST SWAP4 POP PUSH2 0x25D DUP4 DUP6 DUP5 PUSH2 0x237 JUMP JUMPDEST DUP3 DUP5 ADD SWAP1 POP SWAP4 SWAP3 POP POP POP JUMP JUMPDEST PUSH0 PUSH2 0x275 DUP3 DUP5 DUP7 PUSH2 0x245 JUMP JUMPDEST SWAP2 POP DUP2 SWAP1 POP SWAP4 SWAP3 POP POP POP JUMP JUMPDEST PUSH32 0x44656C656761746563616C6C206661696C656400000000000000000000000000 PUSH0 DUP3 ADD MSTORE POP JUMP JUMPDEST PUSH0 PUSH2 0x2B5 PUSH1 0x13 DUP4 PUSH2 0x18F JUMP JUMPDEST SWAP2 POP PUSH2 0x2C0 DUP3 PUSH2 0x281 JUMP JUMPDEST PUSH1 0x20 DUP3 ADD SWAP1 POP SWAP2 SWAP1 POP JUMP JUMPDEST PUSH0 PUSH1 0x20 DUP3 ADD SWAP1 POP DUP2 DUP2 SUB PUSH0 DUP4 ADD MSTORE PUSH2 0x2E2 DUP2 PUSH2 0x2A9 JUMP JUMPDEST SWAP1 POP SWAP2 SWAP1 POP JUMP JUMPDEST PUSH0 DUP2 SWAP1 POP SWAP2 SWAP1 POP JUMP JUMPDEST PUSH2 0x2FB DUP2 PUSH2 0x2E9 JUMP JUMPDEST DUP3 MSTORE POP POP JUMP JUMPDEST PUSH0 PUSH1 0x20 DUP3 ADD SWAP1 POP PUSH2 0x314 PUSH0 DUP4 ADD DUP5 PUSH2 0x2F2 JUMP JUMPDEST SWAP3 SWAP2 POP POP JUMP INVALID LOG2 PUSH5 0x6970667358 0x22 SLT KECCAK256 0xA7 0xB1 0x26 PUSH28 0x631B83C8A8A9B5BE322BD28B6812BF42B518B28254D0C30BAFA63755 PUSH5 0x736F6C6343 STOP ADDMOD BYTE STOP CALLER "
				},
				"gasEstimates": {
					"creation": {
						"codeDepositCost": "169600",
						"executionCost": "infinite",
						"totalCost": "infinite"
					},
					"external": {
						"": "infinite",
						"value()": "2402"
					}
				},
				"methodIdentifiers": {
					"value()": "3fa4f245"
				}
			},
			"storageLayout": {
				"storage": [
					{
						"astId": 14,
						"contract": "contracts/study3/Proxy.sol:Proxy",
						"label": "value",
						"offset": 0,
						"slot": "0",
						"type": "t_uint256"
					},
					{
						"astId": 20,
						"contract": "contracts/study3/Proxy.sol:Proxy",
						"label": "implementation",
						"offset": 0,
						"slot": "1",
						"type": "t_address"
					}
				],
				"types": {
					"t_address": {
						"encoding": "inplace",
						"label": "address",
						"numberOfBytes": "20"
					},
					"t_uint256": {
						"encoding": "inplace",
						"label": "uint256",
						"numberOfBytes": "32"
					}
				}
			},
			"userdoc": {
				"kind": "user",
				"methods": {},
				"version": 1
			}
		}
	}
}