{
	"contracts/study3/LPLock.sol": {
		"LPLock": {
			"abi": [
				{
					"inputs": [
						{
							"internalType": "contract IERC20",
							"name": "_lpToken",
							"type": "address"
						},
						{
							"internalType": "uint256",
							"name": "_unlockDuration",
							"type": "uint256"
						}
					],
					"stateMutability": "nonpayable",
					"type": "constructor"
				},
				{
					"anonymous": false,
					"inputs": [
						{
							"indexed": true,
							"internalType": "address",
							"name": "beneficiary",
							"type": "address"
						},
						{
							"indexed": false,
							"internalType": "uint256",
							"name": "amount",
							"type": "uint256"
						},
						{
							"indexed": false,
							"internalType": "uint256",
							"name": "unlockTime",
							"type": "uint256"
						}
					],
					"name": "Locked",
					"type": "event"
				},
				{
					"anonymous": false,
					"inputs": [
						{
							"indexed": true,
							"internalType": "address",
							"name": "beneficiary",
							"type": "address"
						},
						{
							"indexed": false,
							"internalType": "uint256",
							"name": "amount",
							"type": "uint256"
						}
					],
					"name": "Unlocked",
					"type": "event"
				},
				{
					"inputs": [],
					"name": "beneficiary",
					"outputs": [
						{
							"internalType": "address",
							"name": "",
							"type": "address"
						}
					],
					"stateMutability": "view",
					"type": "function"
				},
				{
					"inputs": [
						{
							"internalType": "uint256",
							"name": "amount",
							"type": "uint256"
						}
					],
					"name": "lock",
					"outputs": [],
					"stateMutability": "nonpayable",
					"type": "function"
				},
				{
					"inputs": [],
					"name": "lpToken",
					"outputs": [
						{
							"internalType": "contract IERC20",
							"name": "",
							"type": "address"
						}
					],
					"stateMutability": "view",
					"type": "function"
				},
				{
					"inputs": [],
					"name": "owner",
					"outputs": [
						{
							"internalType": "address",
							"name": "",
							"type": "address"
						}
					],
					"stateMutability": "view",
					"type": "function"
				},
				{
					"inputs": [],
					"name": "recoverTokens",
					"outputs": [],
					"stateMutability": "nonpayable",
					"type": "function"
				},
				{
					"inputs": [],
					"name": "unlock",
					"outputs": [],
					"stateMutability": "nonpayable",
					"type": "function"
				},
				{
					"inputs": [],
					"name": "unlockTime",
					"outputs": [
						{
							"internalType": "uint256",
							"name": "",
							"type": "uint256"
						}
					],
					"stateMutability": "view",
					"type": "function"
				}
			],
			"devdoc": {
				"kind": "dev",
				"methods": {},
				"version": 1
			},
			"evm": {
				"assembly": "    /* \"contracts/study3/LPLock.sol\":120:2227  contract LPLock {... */\n  mstore(0x40, 0x80)\n    /* \"contracts/study3/LPLock.sol\":825:1100  constructor(IERC20 _lpToken, uint256 _unlockDuration) {... */\n  callvalue\n  dup1\n  iszero\n  tag_1\n  jumpi\n  0x00\n  dup1\n  revert\ntag_1:\n  pop\n  mload(0x40)\n  sub(codesize, bytecodeSize)\n  dup1\n  bytecodeSize\n  dup4\n  codecopy\n  dup2\n  dup2\n  add\n  0x40\n  mstore\n  dup2\n  add\n  swap1\n  tag_2\n  swap2\n  swap1\n  tag_3\n  jump\t// in\ntag_2:\n    /* \"contracts/study3/LPLock.sol\":898:908  msg.sender */\n  caller\n    /* \"contracts/study3/LPLock.sol\":890:895  owner */\n  0x00\n  dup1\n    /* \"contracts/study3/LPLock.sol\":890:908  owner = msg.sender */\n  0x0100\n  exp\n  dup2\n  sload\n  dup2\n  0xffffffffffffffffffffffffffffffffffffffff\n  mul\n  not\n  and\n  swap1\n  dup4\n  0xffffffffffffffffffffffffffffffffffffffff\n  and\n  mul\n  or\n  swap1\n  sstore\n  pop\n    /* \"contracts/study3/LPLock.sol\":960:968  _lpToken */\n  dup2\n    /* \"contracts/study3/LPLock.sol\":950:957  lpToken */\n  0x01\n  0x00\n    /* \"contracts/study3/LPLock.sol\":950:968  lpToken = _lpToken */\n  0x0100\n  exp\n  dup2\n  sload\n  dup2\n  0xffffffffffffffffffffffffffffffffffffffff\n  mul\n  not\n  and\n  swap1\n  dup4\n  0xffffffffffffffffffffffffffffffffffffffff\n  and\n  mul\n  or\n  swap1\n  sstore\n  pop\n    /* \"contracts/study3/LPLock.sol\":1037:1052  _unlockDuration */\n  dup1\n    /* \"contracts/study3/LPLock.sol\":1019:1034  block.timestamp */\n  timestamp\n    /* \"contracts/study3/LPLock.sol\":1019:1052  block.timestamp + _unlockDuration */\n  tag_6\n  swap2\n  swap1\n  tag_7\n  jump\t// in\ntag_6:\n    /* \"contracts/study3/LPLock.sol\":1006:1016  unlockTime */\n  0x02\n    /* \"contracts/study3/LPLock.sol\":1006:1052  unlockTime = block.timestamp + _unlockDuration */\n  dup2\n  swap1\n  sstore\n  pop\n    /* \"contracts/study3/LPLock.sol\":825:1100  constructor(IERC20 _lpToken, uint256 _unlockDuration) {... */\n  pop\n  pop\n    /* \"contracts/study3/LPLock.sol\":120:2227  contract LPLock {... */\n  jump(tag_8)\n    /* \"#utility.yul\":88:205   */\ntag_10:\n    /* \"#utility.yul\":197:198   */\n  0x00\n    /* \"#utility.yul\":194:195   */\n  dup1\n    /* \"#utility.yul\":187:199   */\n  revert\n    /* \"#utility.yul\":334:460   */\ntag_12:\n    /* \"#utility.yul\":371:378   */\n  0x00\n    /* \"#utility.yul\":411:453   */\n  0xffffffffffffffffffffffffffffffffffffffff\n    /* \"#utility.yul\":404:409   */\n  dup3\n    /* \"#utility.yul\":400:454   */\n  and\n    /* \"#utility.yul\":389:454   */\n  swap1\n  pop\n    /* \"#utility.yul\":334:460   */\n  swap2\n  swap1\n  pop\n  jump\t// out\n    /* \"#utility.yul\":466:562   */\ntag_13:\n    /* \"#utility.yul\":503:510   */\n  0x00\n    /* \"#utility.yul\":532:556   */\n  tag_27\n    /* \"#utility.yul\":550:555   */\n  dup3\n    /* \"#utility.yul\":532:556   */\n  tag_12\n  jump\t// in\ntag_27:\n    /* \"#utility.yul\":521:556   */\n  swap1\n  pop\n    /* \"#utility.yul\":466:562   */\n  swap2\n  swap1\n  pop\n  jump\t// out\n    /* \"#utility.yul\":568:677   */\ntag_14:\n    /* \"#utility.yul\":618:625   */\n  0x00\n    /* \"#utility.yul\":647:671   */\n  tag_29\n    /* \"#utility.yul\":665:670   */\n  dup3\n    /* \"#utility.yul\":647:671   */\n  tag_13\n  jump\t// in\ntag_29:\n    /* \"#utility.yul\":636:671   */\n  swap1\n  pop\n    /* \"#utility.yul\":568:677   */\n  swap2\n  swap1\n  pop\n  jump\t// out\n    /* \"#utility.yul\":683:831   */\ntag_15:\n    /* \"#utility.yul\":769:806   */\n  tag_31\n    /* \"#utility.yul\":800:805   */\n  dup2\n    /* \"#utility.yul\":769:806   */\n  tag_14\n  jump\t// in\ntag_31:\n    /* \"#utility.yul\":762:767   */\n  dup2\n    /* \"#utility.yul\":759:807   */\n  eq\n    /* \"#utility.yul\":749:825   */\n  tag_32\n  jumpi\n    /* \"#utility.yul\":821:822   */\n  0x00\n    /* \"#utility.yul\":818:819   */\n  dup1\n    /* \"#utility.yul\":811:823   */\n  revert\n    /* \"#utility.yul\":749:825   */\ntag_32:\n    /* \"#utility.yul\":683:831   */\n  pop\n  jump\t// out\n    /* \"#utility.yul\":837:1006   */\ntag_16:\n    /* \"#utility.yul\":907:912   */\n  0x00\n    /* \"#utility.yul\":938:944   */\n  dup2\n    /* \"#utility.yul\":932:945   */\n  mload\n    /* \"#utility.yul\":923:945   */\n  swap1\n  pop\n    /* \"#utility.yul\":954:1000   */\n  tag_34\n    /* \"#utility.yul\":994:999   */\n  dup2\n    /* \"#utility.yul\":954:1000   */\n  tag_15\n  jump\t// in\ntag_34:\n    /* \"#utility.yul\":837:1006   */\n  swap3\n  swap2\n  pop\n  pop\n  jump\t// out\n    /* \"#utility.yul\":1012:1089   */\ntag_17:\n    /* \"#utility.yul\":1049:1056   */\n  0x00\n    /* \"#utility.yul\":1078:1083   */\n  dup2\n    /* \"#utility.yul\":1067:1083   */\n  swap1\n  pop\n    /* \"#utility.yul\":1012:1089   */\n  swap2\n  swap1\n  pop\n  jump\t// out\n    /* \"#utility.yul\":1095:1217   */\ntag_18:\n    /* \"#utility.yul\":1168:1192   */\n  tag_37\n    /* \"#utility.yul\":1186:1191   */\n  dup2\n    /* \"#utility.yul\":1168:1192   */\n  tag_17\n  jump\t// in\ntag_37:\n    /* \"#utility.yul\":1161:1166   */\n  dup2\n    /* \"#utility.yul\":1158:1193   */\n  eq\n    /* \"#utility.yul\":1148:1211   */\n  tag_38\n  jumpi\n    /* \"#utility.yul\":1207:1208   */\n  0x00\n    /* \"#utility.yul\":1204:1205   */\n  dup1\n    /* \"#utility.yul\":1197:1209   */\n  revert\n    /* \"#utility.yul\":1148:1211   */\ntag_38:\n    /* \"#utility.yul\":1095:1217   */\n  pop\n  jump\t// out\n    /* \"#utility.yul\":1223:1366   */\ntag_19:\n    /* \"#utility.yul\":1280:1285   */\n  0x00\n    /* \"#utility.yul\":1311:1317   */\n  dup2\n    /* \"#utility.yul\":1305:1318   */\n  mload\n    /* \"#utility.yul\":1296:1318   */\n  swap1\n  pop\n    /* \"#utility.yul\":1327:1360   */\n  tag_40\n    /* \"#utility.yul\":1354:1359   */\n  dup2\n    /* \"#utility.yul\":1327:1360   */\n  tag_18\n  jump\t// in\ntag_40:\n    /* \"#utility.yul\":1223:1366   */\n  swap3\n  swap2\n  pop\n  pop\n  jump\t// out\n    /* \"#utility.yul\":1372:1905   */\ntag_3:\n    /* \"#utility.yul\":1464:1470   */\n  0x00\n    /* \"#utility.yul\":1472:1478   */\n  dup1\n    /* \"#utility.yul\":1521:1523   */\n  0x40\n    /* \"#utility.yul\":1509:1518   */\n  dup4\n    /* \"#utility.yul\":1500:1507   */\n  dup6\n    /* \"#utility.yul\":1496:1519   */\n  sub\n    /* \"#utility.yul\":1492:1524   */\n  slt\n    /* \"#utility.yul\":1489:1608   */\n  iszero\n  tag_42\n  jumpi\n    /* \"#utility.yul\":1527:1606   */\n  tag_43\n  tag_10\n  jump\t// in\ntag_43:\n    /* \"#utility.yul\":1489:1608   */\ntag_42:\n    /* \"#utility.yul\":1647:1648   */\n  0x00\n    /* \"#utility.yul\":1672:1749   */\n  tag_44\n    /* \"#utility.yul\":1741:1748   */\n  dup6\n    /* \"#utility.yul\":1732:1738   */\n  dup3\n    /* \"#utility.yul\":1721:1730   */\n  dup7\n    /* \"#utility.yul\":1717:1739   */\n  add\n    /* \"#utility.yul\":1672:1749   */\n  tag_16\n  jump\t// in\ntag_44:\n    /* \"#utility.yul\":1662:1749   */\n  swap3\n  pop\n    /* \"#utility.yul\":1618:1759   */\n  pop\n    /* \"#utility.yul\":1798:1800   */\n  0x20\n    /* \"#utility.yul\":1824:1888   */\n  tag_45\n    /* \"#utility.yul\":1880:1887   */\n  dup6\n    /* \"#utility.yul\":1871:1877   */\n  dup3\n    /* \"#utility.yul\":1860:1869   */\n  dup7\n    /* \"#utility.yul\":1856:1878   */\n  add\n    /* \"#utility.yul\":1824:1888   */\n  tag_19\n  jump\t// in\ntag_45:\n    /* \"#utility.yul\":1814:1888   */\n  swap2\n  pop\n    /* \"#utility.yul\":1769:1898   */\n  pop\n    /* \"#utility.yul\":1372:1905   */\n  swap3\n  pop\n  swap3\n  swap1\n  pop\n  jump\t// out\n    /* \"#utility.yul\":1911:2091   */\ntag_20:\n    /* \"#utility.yul\":1959:2036   */\n  0x4e487b7100000000000000000000000000000000000000000000000000000000\n    /* \"#utility.yul\":1956:1957   */\n  0x00\n    /* \"#utility.yul\":1949:2037   */\n  mstore\n    /* \"#utility.yul\":2056:2060   */\n  0x11\n    /* \"#utility.yul\":2053:2054   */\n  0x04\n    /* \"#utility.yul\":2046:2061   */\n  mstore\n    /* \"#utility.yul\":2080:2084   */\n  0x24\n    /* \"#utility.yul\":2077:2078   */\n  0x00\n    /* \"#utility.yul\":2070:2085   */\n  revert\n    /* \"#utility.yul\":2097:2288   */\ntag_7:\n    /* \"#utility.yul\":2137:2140   */\n  0x00\n    /* \"#utility.yul\":2156:2176   */\n  tag_48\n    /* \"#utility.yul\":2174:2175   */\n  dup3\n    /* \"#utility.yul\":2156:2176   */\n  tag_17\n  jump\t// in\ntag_48:\n    /* \"#utility.yul\":2151:2176   */\n  swap2\n  pop\n    /* \"#utility.yul\":2190:2210   */\n  tag_49\n    /* \"#utility.yul\":2208:2209   */\n  dup4\n    /* \"#utility.yul\":2190:2210   */\n  tag_17\n  jump\t// in\ntag_49:\n    /* \"#utility.yul\":2185:2210   */\n  swap3\n  pop\n    /* \"#utility.yul\":2233:2234   */\n  dup3\n    /* \"#utility.yul\":2230:2231   */\n  dup3\n    /* \"#utility.yul\":2226:2235   */\n  add\n    /* \"#utility.yul\":2219:2235   */\n  swap1\n  pop\n    /* \"#utility.yul\":2254:2257   */\n  dup1\n    /* \"#utility.yul\":2251:2252   */\n  dup3\n    /* \"#utility.yul\":2248:2258   */\n  gt\n    /* \"#utility.yul\":2245:2281   */\n  iszero\n  tag_50\n  jumpi\n    /* \"#utility.yul\":2261:2279   */\n  tag_51\n  tag_20\n  jump\t// in\ntag_51:\n    /* \"#utility.yul\":2245:2281   */\ntag_50:\n    /* \"#utility.yul\":2097:2288   */\n  swap3\n  swap2\n  pop\n  pop\n  jump\t// out\n    /* \"contracts/study3/LPLock.sol\":120:2227  contract LPLock {... */\ntag_8:\n  dataSize(sub_0)\n  dup1\n  dataOffset(sub_0)\n  0x00\n  codecopy\n  0x00\n  return\nstop\n\nsub_0: assembly {\n        /* \"contracts/study3/LPLock.sol\":120:2227  contract LPLock {... */\n      mstore(0x40, 0x80)\n      callvalue\n      dup1\n      iszero\n      tag_1\n      jumpi\n      0x00\n      dup1\n      revert\n    tag_1:\n      pop\n      jumpi(tag_2, lt(calldatasize, 0x04))\n      shr(0xe0, calldataload(0x00))\n      dup1\n      0x8da5cb5b\n      gt\n      tag_10\n      jumpi\n      dup1\n      0x8da5cb5b\n      eq\n      tag_6\n      jumpi\n      dup1\n      0xa69df4b5\n      eq\n      tag_7\n      jumpi\n      dup1\n      0xb77f39fe\n      eq\n      tag_8\n      jumpi\n      dup1\n      0xdd467064\n      eq\n      tag_9\n      jumpi\n      jump(tag_2)\n    tag_10:\n      dup1\n      0x251c1aa3\n      eq\n      tag_3\n      jumpi\n      dup1\n      0x38af3eed\n      eq\n      tag_4\n      jumpi\n      dup1\n      0x5fcbd285\n      eq\n      tag_5\n      jumpi\n    tag_2:\n      0x00\n      dup1\n      revert\n        /* \"contracts/study3/LPLock.sol\":247:272  uint256 public unlockTime */\n    tag_3:\n      tag_11\n      tag_12\n      jump\t// in\n    tag_11:\n      mload(0x40)\n      tag_13\n      swap2\n      swap1\n      tag_14\n      jump\t// in\n    tag_13:\n      mload(0x40)\n      dup1\n      swap2\n      sub\n      swap1\n      return\n        /* \"contracts/study3/LPLock.sol\":298:324  address public beneficiary */\n    tag_4:\n      tag_15\n      tag_16\n      jump\t// in\n    tag_15:\n      mload(0x40)\n      tag_17\n      swap2\n      swap1\n      tag_18\n      jump\t// in\n    tag_17:\n      mload(0x40)\n      dup1\n      swap2\n      sub\n      swap1\n      return\n        /* \"contracts/study3/LPLock.sol\":198:219  IERC20 public lpToken */\n    tag_5:\n      tag_19\n      tag_20\n      jump\t// in\n    tag_19:\n      mload(0x40)\n      tag_21\n      swap2\n      swap1\n      tag_22\n      jump\t// in\n    tag_21:\n      mload(0x40)\n      dup1\n      swap2\n      sub\n      swap1\n      return\n        /* \"contracts/study3/LPLock.sol\":143:163  address public owner */\n    tag_6:\n      tag_23\n      tag_24\n      jump\t// in\n    tag_23:\n      mload(0x40)\n      tag_25\n      swap2\n      swap1\n      tag_18\n      jump\t// in\n    tag_25:\n      mload(0x40)\n      dup1\n      swap2\n      sub\n      swap1\n      return\n        /* \"contracts/study3/LPLock.sol\":1495:1902  function unlock() external onlyAfterUnlock {... */\n    tag_7:\n      tag_26\n      tag_27\n      jump\t// in\n    tag_26:\n      stop\n        /* \"contracts/study3/LPLock.sol\":1985:2224  function recoverTokens() external onlyOwner {... */\n    tag_8:\n      tag_28\n      tag_29\n      jump\t// in\n    tag_28:\n      stop\n        /* \"contracts/study3/LPLock.sol\":1131:1464  function lock(uint256 amount) external {... */\n    tag_9:\n      tag_30\n      0x04\n      dup1\n      calldatasize\n      sub\n      dup2\n      add\n      swap1\n      tag_31\n      swap2\n      swap1\n      tag_32\n      jump\t// in\n    tag_31:\n      tag_33\n      jump\t// in\n    tag_30:\n      stop\n        /* \"contracts/study3/LPLock.sol\":247:272  uint256 public unlockTime */\n    tag_12:\n      sload(0x02)\n      dup2\n      jump\t// out\n        /* \"contracts/study3/LPLock.sol\":298:324  address public beneficiary */\n    tag_16:\n      0x03\n      0x00\n      swap1\n      sload\n      swap1\n      0x0100\n      exp\n      swap1\n      div\n      0xffffffffffffffffffffffffffffffffffffffff\n      and\n      dup2\n      jump\t// out\n        /* \"contracts/study3/LPLock.sol\":198:219  IERC20 public lpToken */\n    tag_20:\n      0x01\n      0x00\n      swap1\n      sload\n      swap1\n      0x0100\n      exp\n      swap1\n      div\n      0xffffffffffffffffffffffffffffffffffffffff\n      and\n      dup2\n      jump\t// out\n        /* \"contracts/study3/LPLock.sol\":143:163  address public owner */\n    tag_24:\n      0x00\n      dup1\n      sload\n      swap1\n      0x0100\n      exp\n      swap1\n      div\n      0xffffffffffffffffffffffffffffffffffffffff\n      and\n      dup2\n      jump\t// out\n        /* \"contracts/study3/LPLock.sol\":1495:1902  function unlock() external onlyAfterUnlock {... */\n    tag_27:\n        /* \"contracts/study3/LPLock.sol\":765:775  unlockTime */\n      sload(0x02)\n        /* \"contracts/study3/LPLock.sol\":746:761  block.timestamp */\n      timestamp\n        /* \"contracts/study3/LPLock.sol\":746:775  block.timestamp >= unlockTime */\n      lt\n      iszero\n        /* \"contracts/study3/LPLock.sol\":738:797  require(block.timestamp >= unlockTime, \"Tokens are locked\") */\n      tag_35\n      jumpi\n      mload(0x40)\n      0x08c379a000000000000000000000000000000000000000000000000000000000\n      dup2\n      mstore\n      0x04\n      add\n      tag_36\n      swap1\n      tag_37\n      jump\t// in\n    tag_36:\n      mload(0x40)\n      dup1\n      swap2\n      sub\n      swap1\n      revert\n    tag_35:\n        /* \"contracts/study3/LPLock.sol\":1571:1582  beneficiary */\n      0x03\n      0x00\n      swap1\n      sload\n      swap1\n      0x0100\n      exp\n      swap1\n      div\n      0xffffffffffffffffffffffffffffffffffffffff\n      and\n        /* \"contracts/study3/LPLock.sol\":1557:1582  msg.sender == beneficiary */\n      0xffffffffffffffffffffffffffffffffffffffff\n      and\n        /* \"contracts/study3/LPLock.sol\":1557:1567  msg.sender */\n      caller\n        /* \"contracts/study3/LPLock.sol\":1557:1582  msg.sender == beneficiary */\n      0xffffffffffffffffffffffffffffffffffffffff\n      and\n      eq\n        /* \"contracts/study3/LPLock.sol\":1549:1606  require(msg.sender == beneficiary, \"Not the beneficiary\") */\n      tag_39\n      jumpi\n      mload(0x40)\n      0x08c379a000000000000000000000000000000000000000000000000000000000\n      dup2\n      mstore\n      0x04\n      add\n      tag_40\n      swap1\n      tag_41\n      jump\t// in\n    tag_40:\n      mload(0x40)\n      dup1\n      swap2\n      sub\n      swap1\n      revert\n    tag_39:\n        /* \"contracts/study3/LPLock.sol\":1617:1632  uint256 balance */\n      0x00\n        /* \"contracts/study3/LPLock.sol\":1635:1642  lpToken */\n      0x01\n      0x00\n      swap1\n      sload\n      swap1\n      0x0100\n      exp\n      swap1\n      div\n      0xffffffffffffffffffffffffffffffffffffffff\n      and\n        /* \"contracts/study3/LPLock.sol\":1635:1652  lpToken.balanceOf */\n      0xffffffffffffffffffffffffffffffffffffffff\n      and\n      0x70a08231\n        /* \"contracts/study3/LPLock.sol\":1661:1665  this */\n      address\n        /* \"contracts/study3/LPLock.sol\":1635:1667  lpToken.balanceOf(address(this)) */\n      mload(0x40)\n      dup3\n      0xffffffff\n      and\n      0xe0\n      shl\n      dup2\n      mstore\n      0x04\n      add\n      tag_42\n      swap2\n      swap1\n      tag_18\n      jump\t// in\n    tag_42:\n      0x20\n      mload(0x40)\n      dup1\n      dup4\n      sub\n      dup2\n      dup7\n      gas\n      staticcall\n      iszero\n      dup1\n      iszero\n      tag_44\n      jumpi\n      returndatasize\n      0x00\n      dup1\n      returndatacopy\n      revert(0x00, returndatasize)\n    tag_44:\n      pop\n      pop\n      pop\n      pop\n      mload(0x40)\n      returndatasize\n      not(0x1f)\n      0x1f\n      dup3\n      add\n      and\n      dup3\n      add\n      dup1\n      0x40\n      mstore\n      pop\n      dup2\n      add\n      swap1\n      tag_45\n      swap2\n      swap1\n      tag_46\n      jump\t// in\n    tag_45:\n        /* \"contracts/study3/LPLock.sol\":1617:1667  uint256 balance = lpToken.balanceOf(address(this)) */\n      swap1\n      pop\n        /* \"contracts/study3/LPLock.sol\":1696:1697  0 */\n      0x00\n        /* \"contracts/study3/LPLock.sol\":1686:1693  balance */\n      dup2\n        /* \"contracts/study3/LPLock.sol\":1686:1697  balance > 0 */\n      gt\n        /* \"contracts/study3/LPLock.sol\":1678:1724  require(balance > 0, \"No LP tokens to unlock\") */\n      tag_47\n      jumpi\n      mload(0x40)\n      0x08c379a000000000000000000000000000000000000000000000000000000000\n      dup2\n      mstore\n      0x04\n      add\n      tag_48\n      swap1\n      tag_49\n      jump\t// in\n    tag_48:\n      mload(0x40)\n      dup1\n      swap2\n      sub\n      swap1\n      revert\n    tag_47:\n        /* \"contracts/study3/LPLock.sol\":1790:1797  lpToken */\n      0x01\n      0x00\n      swap1\n      sload\n      swap1\n      0x0100\n      exp\n      swap1\n      div\n      0xffffffffffffffffffffffffffffffffffffffff\n      and\n        /* \"contracts/study3/LPLock.sol\":1790:1806  lpToken.transfer */\n      0xffffffffffffffffffffffffffffffffffffffff\n      and\n      0xa9059cbb\n        /* \"contracts/study3/LPLock.sol\":1807:1818  beneficiary */\n      0x03\n      0x00\n      swap1\n      sload\n      swap1\n      0x0100\n      exp\n      swap1\n      div\n      0xffffffffffffffffffffffffffffffffffffffff\n      and\n        /* \"contracts/study3/LPLock.sol\":1820:1827  balance */\n      dup4\n        /* \"contracts/study3/LPLock.sol\":1790:1828  lpToken.transfer(beneficiary, balance) */\n      mload(0x40)\n      dup4\n      0xffffffff\n      and\n      0xe0\n      shl\n      dup2\n      mstore\n      0x04\n      add\n      tag_50\n      swap3\n      swap2\n      swap1\n      tag_51\n      jump\t// in\n    tag_50:\n      0x20\n      mload(0x40)\n      dup1\n      dup4\n      sub\n      dup2\n      0x00\n      dup8\n      gas\n      call\n      iszero\n      dup1\n      iszero\n      tag_53\n      jumpi\n      returndatasize\n      0x00\n      dup1\n      returndatacopy\n      revert(0x00, returndatasize)\n    tag_53:\n      pop\n      pop\n      pop\n      pop\n      mload(0x40)\n      returndatasize\n      not(0x1f)\n      0x1f\n      dup3\n      add\n      and\n      dup3\n      add\n      dup1\n      0x40\n      mstore\n      pop\n      dup2\n      add\n      swap1\n      tag_54\n      swap2\n      swap1\n      tag_55\n      jump\t// in\n    tag_54:\n        /* \"contracts/study3/LPLock.sol\":1782:1848  require(lpToken.transfer(beneficiary, balance), \"Transfer failed\") */\n      tag_56\n      jumpi\n      mload(0x40)\n      0x08c379a000000000000000000000000000000000000000000000000000000000\n      dup2\n      mstore\n      0x04\n      add\n      tag_57\n      swap1\n      tag_58\n      jump\t// in\n    tag_57:\n      mload(0x40)\n      dup1\n      swap2\n      sub\n      swap1\n      revert\n    tag_56:\n        /* \"contracts/study3/LPLock.sol\":1873:1884  beneficiary */\n      0x03\n      0x00\n      swap1\n      sload\n      swap1\n      0x0100\n      exp\n      swap1\n      div\n      0xffffffffffffffffffffffffffffffffffffffff\n      and\n        /* \"contracts/study3/LPLock.sol\":1864:1894  Unlocked(beneficiary, balance) */\n      0xffffffffffffffffffffffffffffffffffffffff\n      and\n      0x0f0bc5b519ddefdd8e5f9e6423433aa2b869738de2ae34d58ebc796fc749fa0d\n        /* \"contracts/study3/LPLock.sol\":1886:1893  balance */\n      dup3\n        /* \"contracts/study3/LPLock.sol\":1864:1894  Unlocked(beneficiary, balance) */\n      mload(0x40)\n      tag_59\n      swap2\n      swap1\n      tag_14\n      jump\t// in\n    tag_59:\n      mload(0x40)\n      dup1\n      swap2\n      sub\n      swap1\n      log2\n        /* \"contracts/study3/LPLock.sol\":1538:1902  {... */\n      pop\n        /* \"contracts/study3/LPLock.sol\":1495:1902  function unlock() external onlyAfterUnlock {... */\n      jump\t// out\n        /* \"contracts/study3/LPLock.sol\":1985:2224  function recoverTokens() external onlyOwner {... */\n    tag_29:\n        /* \"contracts/study3/LPLock.sol\":649:654  owner */\n      0x00\n      dup1\n      sload\n      swap1\n      0x0100\n      exp\n      swap1\n      div\n      0xffffffffffffffffffffffffffffffffffffffff\n      and\n        /* \"contracts/study3/LPLock.sol\":635:654  msg.sender == owner */\n      0xffffffffffffffffffffffffffffffffffffffff\n      and\n        /* \"contracts/study3/LPLock.sol\":635:645  msg.sender */\n      caller\n        /* \"contracts/study3/LPLock.sol\":635:654  msg.sender == owner */\n      0xffffffffffffffffffffffffffffffffffffffff\n      and\n      eq\n        /* \"contracts/study3/LPLock.sol\":627:672  require(msg.sender == owner, \"Not the owner\") */\n      tag_61\n      jumpi\n      mload(0x40)\n      0x08c379a000000000000000000000000000000000000000000000000000000000\n      dup2\n      mstore\n      0x04\n      add\n      tag_62\n      swap1\n      tag_63\n      jump\t// in\n    tag_62:\n      mload(0x40)\n      dup1\n      swap2\n      sub\n      swap1\n      revert\n    tag_61:\n        /* \"contracts/study3/LPLock.sol\":2040:2055  uint256 balance */\n      0x00\n        /* \"contracts/study3/LPLock.sol\":2058:2065  lpToken */\n      0x01\n      0x00\n      swap1\n      sload\n      swap1\n      0x0100\n      exp\n      swap1\n      div\n      0xffffffffffffffffffffffffffffffffffffffff\n      and\n        /* \"contracts/study3/LPLock.sol\":2058:2075  lpToken.balanceOf */\n      0xffffffffffffffffffffffffffffffffffffffff\n      and\n      0x70a08231\n        /* \"contracts/study3/LPLock.sol\":2084:2088  this */\n      address\n        /* \"contracts/study3/LPLock.sol\":2058:2090  lpToken.balanceOf(address(this)) */\n      mload(0x40)\n      dup3\n      0xffffffff\n      and\n      0xe0\n      shl\n      dup2\n      mstore\n      0x04\n      add\n      tag_65\n      swap2\n      swap1\n      tag_18\n      jump\t// in\n    tag_65:\n      0x20\n      mload(0x40)\n      dup1\n      dup4\n      sub\n      dup2\n      dup7\n      gas\n      staticcall\n      iszero\n      dup1\n      iszero\n      tag_67\n      jumpi\n      returndatasize\n      0x00\n      dup1\n      returndatacopy\n      revert(0x00, returndatasize)\n    tag_67:\n      pop\n      pop\n      pop\n      pop\n      mload(0x40)\n      returndatasize\n      not(0x1f)\n      0x1f\n      dup3\n      add\n      and\n      dup3\n      add\n      dup1\n      0x40\n      mstore\n      pop\n      dup2\n      add\n      swap1\n      tag_68\n      swap2\n      swap1\n      tag_46\n      jump\t// in\n    tag_68:\n        /* \"contracts/study3/LPLock.sol\":2040:2090  uint256 balance = lpToken.balanceOf(address(this)) */\n      swap1\n      pop\n        /* \"contracts/study3/LPLock.sol\":2119:2120  0 */\n      0x00\n        /* \"contracts/study3/LPLock.sol\":2109:2116  balance */\n      dup2\n        /* \"contracts/study3/LPLock.sol\":2109:2120  balance > 0 */\n      gt\n        /* \"contracts/study3/LPLock.sol\":2101:2145  require(balance > 0, \"No tokens to recover\") */\n      tag_69\n      jumpi\n      mload(0x40)\n      0x08c379a000000000000000000000000000000000000000000000000000000000\n      dup2\n      mstore\n      0x04\n      add\n      tag_70\n      swap1\n      tag_71\n      jump\t// in\n    tag_70:\n      mload(0x40)\n      dup1\n      swap2\n      sub\n      swap1\n      revert\n    tag_69:\n        /* \"contracts/study3/LPLock.sol\":2164:2171  lpToken */\n      0x01\n      0x00\n      swap1\n      sload\n      swap1\n      0x0100\n      exp\n      swap1\n      div\n      0xffffffffffffffffffffffffffffffffffffffff\n      and\n        /* \"contracts/study3/LPLock.sol\":2164:2180  lpToken.transfer */\n      0xffffffffffffffffffffffffffffffffffffffff\n      and\n      0xa9059cbb\n        /* \"contracts/study3/LPLock.sol\":2181:2186  owner */\n      0x00\n      dup1\n      sload\n      swap1\n      0x0100\n      exp\n      swap1\n      div\n      0xffffffffffffffffffffffffffffffffffffffff\n      and\n        /* \"contracts/study3/LPLock.sol\":2188:2195  balance */\n      dup4\n        /* \"contracts/study3/LPLock.sol\":2164:2196  lpToken.transfer(owner, balance) */\n      mload(0x40)\n      dup4\n      0xffffffff\n      and\n      0xe0\n      shl\n      dup2\n      mstore\n      0x04\n      add\n      tag_72\n      swap3\n      swap2\n      swap1\n      tag_51\n      jump\t// in\n    tag_72:\n      0x20\n      mload(0x40)\n      dup1\n      dup4\n      sub\n      dup2\n      0x00\n      dup8\n      gas\n      call\n      iszero\n      dup1\n      iszero\n      tag_74\n      jumpi\n      returndatasize\n      0x00\n      dup1\n      returndatacopy\n      revert(0x00, returndatasize)\n    tag_74:\n      pop\n      pop\n      pop\n      pop\n      mload(0x40)\n      returndatasize\n      not(0x1f)\n      0x1f\n      dup3\n      add\n      and\n      dup3\n      add\n      dup1\n      0x40\n      mstore\n      pop\n      dup2\n      add\n      swap1\n      tag_75\n      swap2\n      swap1\n      tag_55\n      jump\t// in\n    tag_75:\n        /* \"contracts/study3/LPLock.sol\":2156:2216  require(lpToken.transfer(owner, balance), \"Transfer failed\") */\n      tag_76\n      jumpi\n      mload(0x40)\n      0x08c379a000000000000000000000000000000000000000000000000000000000\n      dup2\n      mstore\n      0x04\n      add\n      tag_77\n      swap1\n      tag_58\n      jump\t// in\n    tag_77:\n      mload(0x40)\n      dup1\n      swap2\n      sub\n      swap1\n      revert\n    tag_76:\n        /* \"contracts/study3/LPLock.sol\":2029:2224  {... */\n      pop\n        /* \"contracts/study3/LPLock.sol\":1985:2224  function recoverTokens() external onlyOwner {... */\n      jump\t// out\n        /* \"contracts/study3/LPLock.sol\":1131:1464  function lock(uint256 amount) external {... */\n    tag_33:\n        /* \"contracts/study3/LPLock.sol\":1198:1199  0 */\n      0x00\n        /* \"contracts/study3/LPLock.sol\":1189:1195  amount */\n      dup2\n        /* \"contracts/study3/LPLock.sol\":1189:1199  amount > 0 */\n      gt\n        /* \"contracts/study3/LPLock.sol\":1181:1235  require(amount > 0, \"Amount should be greater than 0\") */\n      tag_79\n      jumpi\n      mload(0x40)\n      0x08c379a000000000000000000000000000000000000000000000000000000000\n      dup2\n      mstore\n      0x04\n      add\n      tag_80\n      swap1\n      tag_81\n      jump\t// in\n    tag_80:\n      mload(0x40)\n      dup1\n      swap2\n      sub\n      swap1\n      revert\n    tag_79:\n        /* \"contracts/study3/LPLock.sol\":1254:1261  lpToken */\n      0x01\n      0x00\n      swap1\n      sload\n      swap1\n      0x0100\n      exp\n      swap1\n      div\n      0xffffffffffffffffffffffffffffffffffffffff\n      and\n        /* \"contracts/study3/LPLock.sol\":1254:1274  lpToken.transferFrom */\n      0xffffffffffffffffffffffffffffffffffffffff\n      and\n      0x23b872dd\n        /* \"contracts/study3/LPLock.sol\":1275:1285  msg.sender */\n      caller\n        /* \"contracts/study3/LPLock.sol\":1295:1299  this */\n      address\n        /* \"contracts/study3/LPLock.sol\":1302:1308  amount */\n      dup5\n        /* \"contracts/study3/LPLock.sol\":1254:1309  lpToken.transferFrom(msg.sender, address(this), amount) */\n      mload(0x40)\n      dup5\n      0xffffffff\n      and\n      0xe0\n      shl\n      dup2\n      mstore\n      0x04\n      add\n      tag_82\n      swap4\n      swap3\n      swap2\n      swap1\n      tag_83\n      jump\t// in\n    tag_82:\n      0x20\n      mload(0x40)\n      dup1\n      dup4\n      sub\n      dup2\n      0x00\n      dup8\n      gas\n      call\n      iszero\n      dup1\n      iszero\n      tag_85\n      jumpi\n      returndatasize\n      0x00\n      dup1\n      returndatacopy\n      revert(0x00, returndatasize)\n    tag_85:\n      pop\n      pop\n      pop\n      pop\n      mload(0x40)\n      returndatasize\n      not(0x1f)\n      0x1f\n      dup3\n      add\n      and\n      dup3\n      add\n      dup1\n      0x40\n      mstore\n      pop\n      dup2\n      add\n      swap1\n      tag_86\n      swap2\n      swap1\n      tag_55\n      jump\t// in\n    tag_86:\n        /* \"contracts/study3/LPLock.sol\":1246:1329  require(lpToken.transferFrom(msg.sender, address(this), amount), \"Transfer failed\") */\n      tag_87\n      jumpi\n      mload(0x40)\n      0x08c379a000000000000000000000000000000000000000000000000000000000\n      dup2\n      mstore\n      0x04\n      add\n      tag_88\n      swap1\n      tag_58\n      jump\t// in\n    tag_88:\n      mload(0x40)\n      dup1\n      swap2\n      sub\n      swap1\n      revert\n    tag_87:\n        /* \"contracts/study3/LPLock.sol\":1356:1366  msg.sender */\n      caller\n        /* \"contracts/study3/LPLock.sol\":1342:1353  beneficiary */\n      0x03\n      0x00\n        /* \"contracts/study3/LPLock.sol\":1342:1366  beneficiary = msg.sender */\n      0x0100\n      exp\n      dup2\n      sload\n      dup2\n      0xffffffffffffffffffffffffffffffffffffffff\n      mul\n      not\n      and\n      swap1\n      dup4\n      0xffffffffffffffffffffffffffffffffffffffff\n      and\n      mul\n      or\n      swap1\n      sstore\n      pop\n        /* \"contracts/study3/LPLock.sol\":1425:1435  msg.sender */\n      caller\n        /* \"contracts/study3/LPLock.sol\":1418:1456  Locked(msg.sender, amount, unlockTime) */\n      0xffffffffffffffffffffffffffffffffffffffff\n      and\n      0xd4665e3049283582ba6f9eba07a5b3e12dab49e02da99e8927a47af5d134bea5\n        /* \"contracts/study3/LPLock.sol\":1437:1443  amount */\n      dup3\n        /* \"contracts/study3/LPLock.sol\":1445:1455  unlockTime */\n      sload(0x02)\n        /* \"contracts/study3/LPLock.sol\":1418:1456  Locked(msg.sender, amount, unlockTime) */\n      mload(0x40)\n      tag_89\n      swap3\n      swap2\n      swap1\n      tag_90\n      jump\t// in\n    tag_89:\n      mload(0x40)\n      dup1\n      swap2\n      sub\n      swap1\n      log2\n        /* \"contracts/study3/LPLock.sol\":1131:1464  function lock(uint256 amount) external {... */\n      pop\n      jump\t// out\n        /* \"#utility.yul\":7:84   */\n    tag_91:\n        /* \"#utility.yul\":44:51   */\n      0x00\n        /* \"#utility.yul\":73:78   */\n      dup2\n        /* \"#utility.yul\":62:78   */\n      swap1\n      pop\n        /* \"#utility.yul\":7:84   */\n      swap2\n      swap1\n      pop\n      jump\t// out\n        /* \"#utility.yul\":90:208   */\n    tag_92:\n        /* \"#utility.yul\":177:201   */\n      tag_128\n        /* \"#utility.yul\":195:200   */\n      dup2\n        /* \"#utility.yul\":177:201   */\n      tag_91\n      jump\t// in\n    tag_128:\n        /* \"#utility.yul\":172:175   */\n      dup3\n        /* \"#utility.yul\":165:202   */\n      mstore\n        /* \"#utility.yul\":90:208   */\n      pop\n      pop\n      jump\t// out\n        /* \"#utility.yul\":214:436   */\n    tag_14:\n        /* \"#utility.yul\":307:311   */\n      0x00\n        /* \"#utility.yul\":345:347   */\n      0x20\n        /* \"#utility.yul\":334:343   */\n      dup3\n        /* \"#utility.yul\":330:348   */\n      add\n        /* \"#utility.yul\":322:348   */\n      swap1\n      pop\n        /* \"#utility.yul\":358:429   */\n      tag_130\n        /* \"#utility.yul\":426:427   */\n      0x00\n        /* \"#utility.yul\":415:424   */\n      dup4\n        /* \"#utility.yul\":411:428   */\n      add\n        /* \"#utility.yul\":402:408   */\n      dup5\n        /* \"#utility.yul\":358:429   */\n      tag_92\n      jump\t// in\n    tag_130:\n        /* \"#utility.yul\":214:436   */\n      swap3\n      swap2\n      pop\n      pop\n      jump\t// out\n        /* \"#utility.yul\":442:568   */\n    tag_93:\n        /* \"#utility.yul\":479:486   */\n      0x00\n        /* \"#utility.yul\":519:561   */\n      0xffffffffffffffffffffffffffffffffffffffff\n        /* \"#utility.yul\":512:517   */\n      dup3\n        /* \"#utility.yul\":508:562   */\n      and\n        /* \"#utility.yul\":497:562   */\n      swap1\n      pop\n        /* \"#utility.yul\":442:568   */\n      swap2\n      swap1\n      pop\n      jump\t// out\n        /* \"#utility.yul\":574:670   */\n    tag_94:\n        /* \"#utility.yul\":611:618   */\n      0x00\n        /* \"#utility.yul\":640:664   */\n      tag_133\n        /* \"#utility.yul\":658:663   */\n      dup3\n        /* \"#utility.yul\":640:664   */\n      tag_93\n      jump\t// in\n    tag_133:\n        /* \"#utility.yul\":629:664   */\n      swap1\n      pop\n        /* \"#utility.yul\":574:670   */\n      swap2\n      swap1\n      pop\n      jump\t// out\n        /* \"#utility.yul\":676:794   */\n    tag_95:\n        /* \"#utility.yul\":763:787   */\n      tag_135\n        /* \"#utility.yul\":781:786   */\n      dup2\n        /* \"#utility.yul\":763:787   */\n      tag_94\n      jump\t// in\n    tag_135:\n        /* \"#utility.yul\":758:761   */\n      dup3\n        /* \"#utility.yul\":751:788   */\n      mstore\n        /* \"#utility.yul\":676:794   */\n      pop\n      pop\n      jump\t// out\n        /* \"#utility.yul\":800:1022   */\n    tag_18:\n        /* \"#utility.yul\":893:897   */\n      0x00\n        /* \"#utility.yul\":931:933   */\n      0x20\n        /* \"#utility.yul\":920:929   */\n      dup3\n        /* \"#utility.yul\":916:934   */\n      add\n        /* \"#utility.yul\":908:934   */\n      swap1\n      pop\n        /* \"#utility.yul\":944:1015   */\n      tag_137\n        /* \"#utility.yul\":1012:1013   */\n      0x00\n        /* \"#utility.yul\":1001:1010   */\n      dup4\n        /* \"#utility.yul\":997:1014   */\n      add\n        /* \"#utility.yul\":988:994   */\n      dup5\n        /* \"#utility.yul\":944:1015   */\n      tag_95\n      jump\t// in\n    tag_137:\n        /* \"#utility.yul\":800:1022   */\n      swap3\n      swap2\n      pop\n      pop\n      jump\t// out\n        /* \"#utility.yul\":1028:1088   */\n    tag_96:\n        /* \"#utility.yul\":1056:1059   */\n      0x00\n        /* \"#utility.yul\":1077:1082   */\n      dup2\n        /* \"#utility.yul\":1070:1082   */\n      swap1\n      pop\n        /* \"#utility.yul\":1028:1088   */\n      swap2\n      swap1\n      pop\n      jump\t// out\n        /* \"#utility.yul\":1094:1236   */\n    tag_97:\n        /* \"#utility.yul\":1144:1153   */\n      0x00\n        /* \"#utility.yul\":1177:1230   */\n      tag_140\n        /* \"#utility.yul\":1195:1229   */\n      tag_141\n        /* \"#utility.yul\":1204:1228   */\n      tag_142\n        /* \"#utility.yul\":1222:1227   */\n      dup5\n        /* \"#utility.yul\":1204:1228   */\n      tag_93\n      jump\t// in\n    tag_142:\n        /* \"#utility.yul\":1195:1229   */\n      tag_96\n      jump\t// in\n    tag_141:\n        /* \"#utility.yul\":1177:1230   */\n      tag_93\n      jump\t// in\n    tag_140:\n        /* \"#utility.yul\":1164:1230   */\n      swap1\n      pop\n        /* \"#utility.yul\":1094:1236   */\n      swap2\n      swap1\n      pop\n      jump\t// out\n        /* \"#utility.yul\":1242:1368   */\n    tag_98:\n        /* \"#utility.yul\":1292:1301   */\n      0x00\n        /* \"#utility.yul\":1325:1362   */\n      tag_144\n        /* \"#utility.yul\":1356:1361   */\n      dup3\n        /* \"#utility.yul\":1325:1362   */\n      tag_97\n      jump\t// in\n    tag_144:\n        /* \"#utility.yul\":1312:1362   */\n      swap1\n      pop\n        /* \"#utility.yul\":1242:1368   */\n      swap2\n      swap1\n      pop\n      jump\t// out\n        /* \"#utility.yul\":1374:1513   */\n    tag_99:\n        /* \"#utility.yul\":1437:1446   */\n      0x00\n        /* \"#utility.yul\":1470:1507   */\n      tag_146\n        /* \"#utility.yul\":1501:1506   */\n      dup3\n        /* \"#utility.yul\":1470:1507   */\n      tag_98\n      jump\t// in\n    tag_146:\n        /* \"#utility.yul\":1457:1507   */\n      swap1\n      pop\n        /* \"#utility.yul\":1374:1513   */\n      swap2\n      swap1\n      pop\n      jump\t// out\n        /* \"#utility.yul\":1519:1676   */\n    tag_100:\n        /* \"#utility.yul\":1619:1669   */\n      tag_148\n        /* \"#utility.yul\":1663:1668   */\n      dup2\n        /* \"#utility.yul\":1619:1669   */\n      tag_99\n      jump\t// in\n    tag_148:\n        /* \"#utility.yul\":1614:1617   */\n      dup3\n        /* \"#utility.yul\":1607:1670   */\n      mstore\n        /* \"#utility.yul\":1519:1676   */\n      pop\n      pop\n      jump\t// out\n        /* \"#utility.yul\":1682:1930   */\n    tag_22:\n        /* \"#utility.yul\":1788:1792   */\n      0x00\n        /* \"#utility.yul\":1826:1828   */\n      0x20\n        /* \"#utility.yul\":1815:1824   */\n      dup3\n        /* \"#utility.yul\":1811:1829   */\n      add\n        /* \"#utility.yul\":1803:1829   */\n      swap1\n      pop\n        /* \"#utility.yul\":1839:1923   */\n      tag_150\n        /* \"#utility.yul\":1920:1921   */\n      0x00\n        /* \"#utility.yul\":1909:1918   */\n      dup4\n        /* \"#utility.yul\":1905:1922   */\n      add\n        /* \"#utility.yul\":1896:1902   */\n      dup5\n        /* \"#utility.yul\":1839:1923   */\n      tag_100\n      jump\t// in\n    tag_150:\n        /* \"#utility.yul\":1682:1930   */\n      swap3\n      swap2\n      pop\n      pop\n      jump\t// out\n        /* \"#utility.yul\":2017:2134   */\n    tag_102:\n        /* \"#utility.yul\":2126:2127   */\n      0x00\n        /* \"#utility.yul\":2123:2124   */\n      dup1\n        /* \"#utility.yul\":2116:2128   */\n      revert\n        /* \"#utility.yul\":2263:2385   */\n    tag_104:\n        /* \"#utility.yul\":2336:2360   */\n      tag_155\n        /* \"#utility.yul\":2354:2359   */\n      dup2\n        /* \"#utility.yul\":2336:2360   */\n      tag_91\n      jump\t// in\n    tag_155:\n        /* \"#utility.yul\":2329:2334   */\n      dup2\n        /* \"#utility.yul\":2326:2361   */\n      eq\n        /* \"#utility.yul\":2316:2379   */\n      tag_156\n      jumpi\n        /* \"#utility.yul\":2375:2376   */\n      0x00\n        /* \"#utility.yul\":2372:2373   */\n      dup1\n        /* \"#utility.yul\":2365:2377   */\n      revert\n        /* \"#utility.yul\":2316:2379   */\n    tag_156:\n        /* \"#utility.yul\":2263:2385   */\n      pop\n      jump\t// out\n        /* \"#utility.yul\":2391:2530   */\n    tag_105:\n        /* \"#utility.yul\":2437:2442   */\n      0x00\n        /* \"#utility.yul\":2475:2481   */\n      dup2\n        /* \"#utility.yul\":2462:2482   */\n      calldataload\n        /* \"#utility.yul\":2453:2482   */\n      swap1\n      pop\n        /* \"#utility.yul\":2491:2524   */\n      tag_158\n        /* \"#utility.yul\":2518:2523   */\n      dup2\n        /* \"#utility.yul\":2491:2524   */\n      tag_104\n      jump\t// in\n    tag_158:\n        /* \"#utility.yul\":2391:2530   */\n      swap3\n      swap2\n      pop\n      pop\n      jump\t// out\n        /* \"#utility.yul\":2536:2865   */\n    tag_32:\n        /* \"#utility.yul\":2595:2601   */\n      0x00\n        /* \"#utility.yul\":2644:2646   */\n      0x20\n        /* \"#utility.yul\":2632:2641   */\n      dup3\n        /* \"#utility.yul\":2623:2630   */\n      dup5\n        /* \"#utility.yul\":2619:2642   */\n      sub\n        /* \"#utility.yul\":2615:2647   */\n      slt\n        /* \"#utility.yul\":2612:2731   */\n      iszero\n      tag_160\n      jumpi\n        /* \"#utility.yul\":2650:2729   */\n      tag_161\n      tag_102\n      jump\t// in\n    tag_161:\n        /* \"#utility.yul\":2612:2731   */\n    tag_160:\n        /* \"#utility.yul\":2770:2771   */\n      0x00\n        /* \"#utility.yul\":2795:2848   */\n      tag_162\n        /* \"#utility.yul\":2840:2847   */\n      dup5\n        /* \"#utility.yul\":2831:2837   */\n      dup3\n        /* \"#utility.yul\":2820:2829   */\n      dup6\n        /* \"#utility.yul\":2816:2838   */\n      add\n        /* \"#utility.yul\":2795:2848   */\n      tag_105\n      jump\t// in\n    tag_162:\n        /* \"#utility.yul\":2785:2848   */\n      swap2\n      pop\n        /* \"#utility.yul\":2741:2858   */\n      pop\n        /* \"#utility.yul\":2536:2865   */\n      swap3\n      swap2\n      pop\n      pop\n      jump\t// out\n        /* \"#utility.yul\":2871:3040   */\n    tag_106:\n        /* \"#utility.yul\":2955:2966   */\n      0x00\n        /* \"#utility.yul\":2989:2995   */\n      dup3\n        /* \"#utility.yul\":2984:2987   */\n      dup3\n        /* \"#utility.yul\":2977:2996   */\n      mstore\n        /* \"#utility.yul\":3029:3033   */\n      0x20\n        /* \"#utility.yul\":3024:3027   */\n      dup3\n        /* \"#utility.yul\":3020:3034   */\n      add\n        /* \"#utility.yul\":3005:3034   */\n      swap1\n      pop\n        /* \"#utility.yul\":2871:3040   */\n      swap3\n      swap2\n      pop\n      pop\n      jump\t// out\n        /* \"#utility.yul\":3046:3213   */\n    tag_107:\n        /* \"#utility.yul\":3186:3205   */\n      0x546f6b656e7320617265206c6f636b6564000000000000000000000000000000\n        /* \"#utility.yul\":3182:3183   */\n      0x00\n        /* \"#utility.yul\":3174:3180   */\n      dup3\n        /* \"#utility.yul\":3170:3184   */\n      add\n        /* \"#utility.yul\":3163:3206   */\n      mstore\n        /* \"#utility.yul\":3046:3213   */\n      pop\n      jump\t// out\n        /* \"#utility.yul\":3219:3585   */\n    tag_108:\n        /* \"#utility.yul\":3361:3364   */\n      0x00\n        /* \"#utility.yul\":3382:3449   */\n      tag_166\n        /* \"#utility.yul\":3446:3448   */\n      0x11\n        /* \"#utility.yul\":3441:3444   */\n      dup4\n        /* \"#utility.yul\":3382:3449   */\n      tag_106\n      jump\t// in\n    tag_166:\n        /* \"#utility.yul\":3375:3449   */\n      swap2\n      pop\n        /* \"#utility.yul\":3458:3551   */\n      tag_167\n        /* \"#utility.yul\":3547:3550   */\n      dup3\n        /* \"#utility.yul\":3458:3551   */\n      tag_107\n      jump\t// in\n    tag_167:\n        /* \"#utility.yul\":3576:3578   */\n      0x20\n        /* \"#utility.yul\":3571:3574   */\n      dup3\n        /* \"#utility.yul\":3567:3579   */\n      add\n        /* \"#utility.yul\":3560:3579   */\n      swap1\n      pop\n        /* \"#utility.yul\":3219:3585   */\n      swap2\n      swap1\n      pop\n      jump\t// out\n        /* \"#utility.yul\":3591:4010   */\n    tag_37:\n        /* \"#utility.yul\":3757:3761   */\n      0x00\n        /* \"#utility.yul\":3795:3797   */\n      0x20\n        /* \"#utility.yul\":3784:3793   */\n      dup3\n        /* \"#utility.yul\":3780:3798   */\n      add\n        /* \"#utility.yul\":3772:3798   */\n      swap1\n      pop\n        /* \"#utility.yul\":3844:3853   */\n      dup2\n        /* \"#utility.yul\":3838:3842   */\n      dup2\n        /* \"#utility.yul\":3834:3854   */\n      sub\n        /* \"#utility.yul\":3830:3831   */\n      0x00\n        /* \"#utility.yul\":3819:3828   */\n      dup4\n        /* \"#utility.yul\":3815:3832   */\n      add\n        /* \"#utility.yul\":3808:3855   */\n      mstore\n        /* \"#utility.yul\":3872:4003   */\n      tag_169\n        /* \"#utility.yul\":3998:4002   */\n      dup2\n        /* \"#utility.yul\":3872:4003   */\n      tag_108\n      jump\t// in\n    tag_169:\n        /* \"#utility.yul\":3864:4003   */\n      swap1\n      pop\n        /* \"#utility.yul\":3591:4010   */\n      swap2\n      swap1\n      pop\n      jump\t// out\n        /* \"#utility.yul\":4016:4185   */\n    tag_109:\n        /* \"#utility.yul\":4156:4177   */\n      0x4e6f74207468652062656e656669636961727900000000000000000000000000\n        /* \"#utility.yul\":4152:4153   */\n      0x00\n        /* \"#utility.yul\":4144:4150   */\n      dup3\n        /* \"#utility.yul\":4140:4154   */\n      add\n        /* \"#utility.yul\":4133:4178   */\n      mstore\n        /* \"#utility.yul\":4016:4185   */\n      pop\n      jump\t// out\n        /* \"#utility.yul\":4191:4557   */\n    tag_110:\n        /* \"#utility.yul\":4333:4336   */\n      0x00\n        /* \"#utility.yul\":4354:4421   */\n      tag_172\n        /* \"#utility.yul\":4418:4420   */\n      0x13\n        /* \"#utility.yul\":4413:4416   */\n      dup4\n        /* \"#utility.yul\":4354:4421   */\n      tag_106\n      jump\t// in\n    tag_172:\n        /* \"#utility.yul\":4347:4421   */\n      swap2\n      pop\n        /* \"#utility.yul\":4430:4523   */\n      tag_173\n        /* \"#utility.yul\":4519:4522   */\n      dup3\n        /* \"#utility.yul\":4430:4523   */\n      tag_109\n      jump\t// in\n    tag_173:\n        /* \"#utility.yul\":4548:4550   */\n      0x20\n        /* \"#utility.yul\":4543:4546   */\n      dup3\n        /* \"#utility.yul\":4539:4551   */\n      add\n        /* \"#utility.yul\":4532:4551   */\n      swap1\n      pop\n        /* \"#utility.yul\":4191:4557   */\n      swap2\n      swap1\n      pop\n      jump\t// out\n        /* \"#utility.yul\":4563:4982   */\n    tag_41:\n        /* \"#utility.yul\":4729:4733   */\n      0x00\n        /* \"#utility.yul\":4767:4769   */\n      0x20\n        /* \"#utility.yul\":4756:4765   */\n      dup3\n        /* \"#utility.yul\":4752:4770   */\n      add\n        /* \"#utility.yul\":4744:4770   */\n      swap1\n      pop\n        /* \"#utility.yul\":4816:4825   */\n      dup2\n        /* \"#utility.yul\":4810:4814   */\n      dup2\n        /* \"#utility.yul\":4806:4826   */\n      sub\n        /* \"#utility.yul\":4802:4803   */\n      0x00\n        /* \"#utility.yul\":4791:4800   */\n      dup4\n        /* \"#utility.yul\":4787:4804   */\n      add\n        /* \"#utility.yul\":4780:4827   */\n      mstore\n        /* \"#utility.yul\":4844:4975   */\n      tag_175\n        /* \"#utility.yul\":4970:4974   */\n      dup2\n        /* \"#utility.yul\":4844:4975   */\n      tag_110\n      jump\t// in\n    tag_175:\n        /* \"#utility.yul\":4836:4975   */\n      swap1\n      pop\n        /* \"#utility.yul\":4563:4982   */\n      swap2\n      swap1\n      pop\n      jump\t// out\n        /* \"#utility.yul\":4988:5131   */\n    tag_111:\n        /* \"#utility.yul\":5045:5050   */\n      0x00\n        /* \"#utility.yul\":5076:5082   */\n      dup2\n        /* \"#utility.yul\":5070:5083   */\n      mload\n        /* \"#utility.yul\":5061:5083   */\n      swap1\n      pop\n        /* \"#utility.yul\":5092:5125   */\n      tag_177\n        /* \"#utility.yul\":5119:5124   */\n      dup2\n        /* \"#utility.yul\":5092:5125   */\n      tag_104\n      jump\t// in\n    tag_177:\n        /* \"#utility.yul\":4988:5131   */\n      swap3\n      swap2\n      pop\n      pop\n      jump\t// out\n        /* \"#utility.yul\":5137:5488   */\n    tag_46:\n        /* \"#utility.yul\":5207:5213   */\n      0x00\n        /* \"#utility.yul\":5256:5258   */\n      0x20\n        /* \"#utility.yul\":5244:5253   */\n      dup3\n        /* \"#utility.yul\":5235:5242   */\n      dup5\n        /* \"#utility.yul\":5231:5254   */\n      sub\n        /* \"#utility.yul\":5227:5259   */\n      slt\n        /* \"#utility.yul\":5224:5343   */\n      iszero\n      tag_179\n      jumpi\n        /* \"#utility.yul\":5262:5341   */\n      tag_180\n      tag_102\n      jump\t// in\n    tag_180:\n        /* \"#utility.yul\":5224:5343   */\n    tag_179:\n        /* \"#utility.yul\":5382:5383   */\n      0x00\n        /* \"#utility.yul\":5407:5471   */\n      tag_181\n        /* \"#utility.yul\":5463:5470   */\n      dup5\n        /* \"#utility.yul\":5454:5460   */\n      dup3\n        /* \"#utility.yul\":5443:5452   */\n      dup6\n        /* \"#utility.yul\":5439:5461   */\n      add\n        /* \"#utility.yul\":5407:5471   */\n      tag_111\n      jump\t// in\n    tag_181:\n        /* \"#utility.yul\":5397:5471   */\n      swap2\n      pop\n        /* \"#utility.yul\":5353:5481   */\n      pop\n        /* \"#utility.yul\":5137:5488   */\n      swap3\n      swap2\n      pop\n      pop\n      jump\t// out\n        /* \"#utility.yul\":5494:5666   */\n    tag_112:\n        /* \"#utility.yul\":5634:5658   */\n      0x4e6f204c5020746f6b656e7320746f20756e6c6f636b00000000000000000000\n        /* \"#utility.yul\":5630:5631   */\n      0x00\n        /* \"#utility.yul\":5622:5628   */\n      dup3\n        /* \"#utility.yul\":5618:5632   */\n      add\n        /* \"#utility.yul\":5611:5659   */\n      mstore\n        /* \"#utility.yul\":5494:5666   */\n      pop\n      jump\t// out\n        /* \"#utility.yul\":5672:6038   */\n    tag_113:\n        /* \"#utility.yul\":5814:5817   */\n      0x00\n        /* \"#utility.yul\":5835:5902   */\n      tag_184\n        /* \"#utility.yul\":5899:5901   */\n      0x16\n        /* \"#utility.yul\":5894:5897   */\n      dup4\n        /* \"#utility.yul\":5835:5902   */\n      tag_106\n      jump\t// in\n    tag_184:\n        /* \"#utility.yul\":5828:5902   */\n      swap2\n      pop\n        /* \"#utility.yul\":5911:6004   */\n      tag_185\n        /* \"#utility.yul\":6000:6003   */\n      dup3\n        /* \"#utility.yul\":5911:6004   */\n      tag_112\n      jump\t// in\n    tag_185:\n        /* \"#utility.yul\":6029:6031   */\n      0x20\n        /* \"#utility.yul\":6024:6027   */\n      dup3\n        /* \"#utility.yul\":6020:6032   */\n      add\n        /* \"#utility.yul\":6013:6032   */\n      swap1\n      pop\n        /* \"#utility.yul\":5672:6038   */\n      swap2\n      swap1\n      pop\n      jump\t// out\n        /* \"#utility.yul\":6044:6463   */\n    tag_49:\n        /* \"#utility.yul\":6210:6214   */\n      0x00\n        /* \"#utility.yul\":6248:6250   */\n      0x20\n        /* \"#utility.yul\":6237:6246   */\n      dup3\n        /* \"#utility.yul\":6233:6251   */\n      add\n        /* \"#utility.yul\":6225:6251   */\n      swap1\n      pop\n        /* \"#utility.yul\":6297:6306   */\n      dup2\n        /* \"#utility.yul\":6291:6295   */\n      dup2\n        /* \"#utility.yul\":6287:6307   */\n      sub\n        /* \"#utility.yul\":6283:6284   */\n      0x00\n        /* \"#utility.yul\":6272:6281   */\n      dup4\n        /* \"#utility.yul\":6268:6285   */\n      add\n        /* \"#utility.yul\":6261:6308   */\n      mstore\n        /* \"#utility.yul\":6325:6456   */\n      tag_187\n        /* \"#utility.yul\":6451:6455   */\n      dup2\n        /* \"#utility.yul\":6325:6456   */\n      tag_113\n      jump\t// in\n    tag_187:\n        /* \"#utility.yul\":6317:6456   */\n      swap1\n      pop\n        /* \"#utility.yul\":6044:6463   */\n      swap2\n      swap1\n      pop\n      jump\t// out\n        /* \"#utility.yul\":6469:6801   */\n    tag_51:\n        /* \"#utility.yul\":6590:6594   */\n      0x00\n        /* \"#utility.yul\":6628:6630   */\n      0x40\n        /* \"#utility.yul\":6617:6626   */\n      dup3\n        /* \"#utility.yul\":6613:6631   */\n      add\n        /* \"#utility.yul\":6605:6631   */\n      swap1\n      pop\n        /* \"#utility.yul\":6641:6712   */\n      tag_189\n        /* \"#utility.yul\":6709:6710   */\n      0x00\n        /* \"#utility.yul\":6698:6707   */\n      dup4\n        /* \"#utility.yul\":6694:6711   */\n      add\n        /* \"#utility.yul\":6685:6691   */\n      dup6\n        /* \"#utility.yul\":6641:6712   */\n      tag_95\n      jump\t// in\n    tag_189:\n        /* \"#utility.yul\":6722:6794   */\n      tag_190\n        /* \"#utility.yul\":6790:6792   */\n      0x20\n        /* \"#utility.yul\":6779:6788   */\n      dup4\n        /* \"#utility.yul\":6775:6793   */\n      add\n        /* \"#utility.yul\":6766:6772   */\n      dup5\n        /* \"#utility.yul\":6722:6794   */\n      tag_92\n      jump\t// in\n    tag_190:\n        /* \"#utility.yul\":6469:6801   */\n      swap4\n      swap3\n      pop\n      pop\n      pop\n      jump\t// out\n        /* \"#utility.yul\":6807:6897   */\n    tag_114:\n        /* \"#utility.yul\":6841:6848   */\n      0x00\n        /* \"#utility.yul\":6884:6889   */\n      dup2\n        /* \"#utility.yul\":6877:6890   */\n      iszero\n        /* \"#utility.yul\":6870:6891   */\n      iszero\n        /* \"#utility.yul\":6859:6891   */\n      swap1\n      pop\n        /* \"#utility.yul\":6807:6897   */\n      swap2\n      swap1\n      pop\n      jump\t// out\n        /* \"#utility.yul\":6903:7019   */\n    tag_115:\n        /* \"#utility.yul\":6973:6994   */\n      tag_193\n        /* \"#utility.yul\":6988:6993   */\n      dup2\n        /* \"#utility.yul\":6973:6994   */\n      tag_114\n      jump\t// in\n    tag_193:\n        /* \"#utility.yul\":6966:6971   */\n      dup2\n        /* \"#utility.yul\":6963:6995   */\n      eq\n        /* \"#utility.yul\":6953:7013   */\n      tag_194\n      jumpi\n        /* \"#utility.yul\":7009:7010   */\n      0x00\n        /* \"#utility.yul\":7006:7007   */\n      dup1\n        /* \"#utility.yul\":6999:7011   */\n      revert\n        /* \"#utility.yul\":6953:7013   */\n    tag_194:\n        /* \"#utility.yul\":6903:7019   */\n      pop\n      jump\t// out\n        /* \"#utility.yul\":7025:7162   */\n    tag_116:\n        /* \"#utility.yul\":7079:7084   */\n      0x00\n        /* \"#utility.yul\":7110:7116   */\n      dup2\n        /* \"#utility.yul\":7104:7117   */\n      mload\n        /* \"#utility.yul\":7095:7117   */\n      swap1\n      pop\n        /* \"#utility.yul\":7126:7156   */\n      tag_196\n        /* \"#utility.yul\":7150:7155   */\n      dup2\n        /* \"#utility.yul\":7126:7156   */\n      tag_115\n      jump\t// in\n    tag_196:\n        /* \"#utility.yul\":7025:7162   */\n      swap3\n      swap2\n      pop\n      pop\n      jump\t// out\n        /* \"#utility.yul\":7168:7513   */\n    tag_55:\n        /* \"#utility.yul\":7235:7241   */\n      0x00\n        /* \"#utility.yul\":7284:7286   */\n      0x20\n        /* \"#utility.yul\":7272:7281   */\n      dup3\n        /* \"#utility.yul\":7263:7270   */\n      dup5\n        /* \"#utility.yul\":7259:7282   */\n      sub\n        /* \"#utility.yul\":7255:7287   */\n      slt\n        /* \"#utility.yul\":7252:7371   */\n      iszero\n      tag_198\n      jumpi\n        /* \"#utility.yul\":7290:7369   */\n      tag_199\n      tag_102\n      jump\t// in\n    tag_199:\n        /* \"#utility.yul\":7252:7371   */\n    tag_198:\n        /* \"#utility.yul\":7410:7411   */\n      0x00\n        /* \"#utility.yul\":7435:7496   */\n      tag_200\n        /* \"#utility.yul\":7488:7495   */\n      dup5\n        /* \"#utility.yul\":7479:7485   */\n      dup3\n        /* \"#utility.yul\":7468:7477   */\n      dup6\n        /* \"#utility.yul\":7464:7486   */\n      add\n        /* \"#utility.yul\":7435:7496   */\n      tag_116\n      jump\t// in\n    tag_200:\n        /* \"#utility.yul\":7425:7496   */\n      swap2\n      pop\n        /* \"#utility.yul\":7381:7506   */\n      pop\n        /* \"#utility.yul\":7168:7513   */\n      swap3\n      swap2\n      pop\n      pop\n      jump\t// out\n        /* \"#utility.yul\":7519:7684   */\n    tag_117:\n        /* \"#utility.yul\":7659:7676   */\n      0x5472616e73666572206661696c65640000000000000000000000000000000000\n        /* \"#utility.yul\":7655:7656   */\n      0x00\n        /* \"#utility.yul\":7647:7653   */\n      dup3\n        /* \"#utility.yul\":7643:7657   */\n      add\n        /* \"#utility.yul\":7636:7677   */\n      mstore\n        /* \"#utility.yul\":7519:7684   */\n      pop\n      jump\t// out\n        /* \"#utility.yul\":7690:8056   */\n    tag_118:\n        /* \"#utility.yul\":7832:7835   */\n      0x00\n        /* \"#utility.yul\":7853:7920   */\n      tag_203\n        /* \"#utility.yul\":7917:7919   */\n      0x0f\n        /* \"#utility.yul\":7912:7915   */\n      dup4\n        /* \"#utility.yul\":7853:7920   */\n      tag_106\n      jump\t// in\n    tag_203:\n        /* \"#utility.yul\":7846:7920   */\n      swap2\n      pop\n        /* \"#utility.yul\":7929:8022   */\n      tag_204\n        /* \"#utility.yul\":8018:8021   */\n      dup3\n        /* \"#utility.yul\":7929:8022   */\n      tag_117\n      jump\t// in\n    tag_204:\n        /* \"#utility.yul\":8047:8049   */\n      0x20\n        /* \"#utility.yul\":8042:8045   */\n      dup3\n        /* \"#utility.yul\":8038:8050   */\n      add\n        /* \"#utility.yul\":8031:8050   */\n      swap1\n      pop\n        /* \"#utility.yul\":7690:8056   */\n      swap2\n      swap1\n      pop\n      jump\t// out\n        /* \"#utility.yul\":8062:8481   */\n    tag_58:\n        /* \"#utility.yul\":8228:8232   */\n      0x00\n        /* \"#utility.yul\":8266:8268   */\n      0x20\n        /* \"#utility.yul\":8255:8264   */\n      dup3\n        /* \"#utility.yul\":8251:8269   */\n      add\n        /* \"#utility.yul\":8243:8269   */\n      swap1\n      pop\n        /* \"#utility.yul\":8315:8324   */\n      dup2\n        /* \"#utility.yul\":8309:8313   */\n      dup2\n        /* \"#utility.yul\":8305:8325   */\n      sub\n        /* \"#utility.yul\":8301:8302   */\n      0x00\n        /* \"#utility.yul\":8290:8299   */\n      dup4\n        /* \"#utility.yul\":8286:8303   */\n      add\n        /* \"#utility.yul\":8279:8326   */\n      mstore\n        /* \"#utility.yul\":8343:8474   */\n      tag_206\n        /* \"#utility.yul\":8469:8473   */\n      dup2\n        /* \"#utility.yul\":8343:8474   */\n      tag_118\n      jump\t// in\n    tag_206:\n        /* \"#utility.yul\":8335:8474   */\n      swap1\n      pop\n        /* \"#utility.yul\":8062:8481   */\n      swap2\n      swap1\n      pop\n      jump\t// out\n        /* \"#utility.yul\":8487:8650   */\n    tag_119:\n        /* \"#utility.yul\":8627:8642   */\n      0x4e6f7420746865206f776e657200000000000000000000000000000000000000\n        /* \"#utility.yul\":8623:8624   */\n      0x00\n        /* \"#utility.yul\":8615:8621   */\n      dup3\n        /* \"#utility.yul\":8611:8625   */\n      add\n        /* \"#utility.yul\":8604:8643   */\n      mstore\n        /* \"#utility.yul\":8487:8650   */\n      pop\n      jump\t// out\n        /* \"#utility.yul\":8656:9022   */\n    tag_120:\n        /* \"#utility.yul\":8798:8801   */\n      0x00\n        /* \"#utility.yul\":8819:8886   */\n      tag_209\n        /* \"#utility.yul\":8883:8885   */\n      0x0d\n        /* \"#utility.yul\":8878:8881   */\n      dup4\n        /* \"#utility.yul\":8819:8886   */\n      tag_106\n      jump\t// in\n    tag_209:\n        /* \"#utility.yul\":8812:8886   */\n      swap2\n      pop\n        /* \"#utility.yul\":8895:8988   */\n      tag_210\n        /* \"#utility.yul\":8984:8987   */\n      dup3\n        /* \"#utility.yul\":8895:8988   */\n      tag_119\n      jump\t// in\n    tag_210:\n        /* \"#utility.yul\":9013:9015   */\n      0x20\n        /* \"#utility.yul\":9008:9011   */\n      dup3\n        /* \"#utility.yul\":9004:9016   */\n      add\n        /* \"#utility.yul\":8997:9016   */\n      swap1\n      pop\n        /* \"#utility.yul\":8656:9022   */\n      swap2\n      swap1\n      pop\n      jump\t// out\n        /* \"#utility.yul\":9028:9447   */\n    tag_63:\n        /* \"#utility.yul\":9194:9198   */\n      0x00\n        /* \"#utility.yul\":9232:9234   */\n      0x20\n        /* \"#utility.yul\":9221:9230   */\n      dup3\n        /* \"#utility.yul\":9217:9235   */\n      add\n        /* \"#utility.yul\":9209:9235   */\n      swap1\n      pop\n        /* \"#utility.yul\":9281:9290   */\n      dup2\n        /* \"#utility.yul\":9275:9279   */\n      dup2\n        /* \"#utility.yul\":9271:9291   */\n      sub\n        /* \"#utility.yul\":9267:9268   */\n      0x00\n        /* \"#utility.yul\":9256:9265   */\n      dup4\n        /* \"#utility.yul\":9252:9269   */\n      add\n        /* \"#utility.yul\":9245:9292   */\n      mstore\n        /* \"#utility.yul\":9309:9440   */\n      tag_212\n        /* \"#utility.yul\":9435:9439   */\n      dup2\n        /* \"#utility.yul\":9309:9440   */\n      tag_120\n      jump\t// in\n    tag_212:\n        /* \"#utility.yul\":9301:9440   */\n      swap1\n      pop\n        /* \"#utility.yul\":9028:9447   */\n      swap2\n      swap1\n      pop\n      jump\t// out\n        /* \"#utility.yul\":9453:9623   */\n    tag_121:\n        /* \"#utility.yul\":9593:9615   */\n      0x4e6f20746f6b656e7320746f207265636f766572000000000000000000000000\n        /* \"#utility.yul\":9589:9590   */\n      0x00\n        /* \"#utility.yul\":9581:9587   */\n      dup3\n        /* \"#utility.yul\":9577:9591   */\n      add\n        /* \"#utility.yul\":9570:9616   */\n      mstore\n        /* \"#utility.yul\":9453:9623   */\n      pop\n      jump\t// out\n        /* \"#utility.yul\":9629:9995   */\n    tag_122:\n        /* \"#utility.yul\":9771:9774   */\n      0x00\n        /* \"#utility.yul\":9792:9859   */\n      tag_215\n        /* \"#utility.yul\":9856:9858   */\n      0x14\n        /* \"#utility.yul\":9851:9854   */\n      dup4\n        /* \"#utility.yul\":9792:9859   */\n      tag_106\n      jump\t// in\n    tag_215:\n        /* \"#utility.yul\":9785:9859   */\n      swap2\n      pop\n        /* \"#utility.yul\":9868:9961   */\n      tag_216\n        /* \"#utility.yul\":9957:9960   */\n      dup3\n        /* \"#utility.yul\":9868:9961   */\n      tag_121\n      jump\t// in\n    tag_216:\n        /* \"#utility.yul\":9986:9988   */\n      0x20\n        /* \"#utility.yul\":9981:9984   */\n      dup3\n        /* \"#utility.yul\":9977:9989   */\n      add\n        /* \"#utility.yul\":9970:9989   */\n      swap1\n      pop\n        /* \"#utility.yul\":9629:9995   */\n      swap2\n      swap1\n      pop\n      jump\t// out\n        /* \"#utility.yul\":10001:10420   */\n    tag_71:\n        /* \"#utility.yul\":10167:10171   */\n      0x00\n        /* \"#utility.yul\":10205:10207   */\n      0x20\n        /* \"#utility.yul\":10194:10203   */\n      dup3\n        /* \"#utility.yul\":10190:10208   */\n      add\n        /* \"#utility.yul\":10182:10208   */\n      swap1\n      pop\n        /* \"#utility.yul\":10254:10263   */\n      dup2\n        /* \"#utility.yul\":10248:10252   */\n      dup2\n        /* \"#utility.yul\":10244:10264   */\n      sub\n        /* \"#utility.yul\":10240:10241   */\n      0x00\n        /* \"#utility.yul\":10229:10238   */\n      dup4\n        /* \"#utility.yul\":10225:10242   */\n      add\n        /* \"#utility.yul\":10218:10265   */\n      mstore\n        /* \"#utility.yul\":10282:10413   */\n      tag_218\n        /* \"#utility.yul\":10408:10412   */\n      dup2\n        /* \"#utility.yul\":10282:10413   */\n      tag_122\n      jump\t// in\n    tag_218:\n        /* \"#utility.yul\":10274:10413   */\n      swap1\n      pop\n        /* \"#utility.yul\":10001:10420   */\n      swap2\n      swap1\n      pop\n      jump\t// out\n        /* \"#utility.yul\":10426:10607   */\n    tag_123:\n        /* \"#utility.yul\":10566:10599   */\n      0x416d6f756e742073686f756c642062652067726561746572207468616e203000\n        /* \"#utility.yul\":10562:10563   */\n      0x00\n        /* \"#utility.yul\":10554:10560   */\n      dup3\n        /* \"#utility.yul\":10550:10564   */\n      add\n        /* \"#utility.yul\":10543:10600   */\n      mstore\n        /* \"#utility.yul\":10426:10607   */\n      pop\n      jump\t// out\n        /* \"#utility.yul\":10613:10979   */\n    tag_124:\n        /* \"#utility.yul\":10755:10758   */\n      0x00\n        /* \"#utility.yul\":10776:10843   */\n      tag_221\n        /* \"#utility.yul\":10840:10842   */\n      0x1f\n        /* \"#utility.yul\":10835:10838   */\n      dup4\n        /* \"#utility.yul\":10776:10843   */\n      tag_106\n      jump\t// in\n    tag_221:\n        /* \"#utility.yul\":10769:10843   */\n      swap2\n      pop\n        /* \"#utility.yul\":10852:10945   */\n      tag_222\n        /* \"#utility.yul\":10941:10944   */\n      dup3\n        /* \"#utility.yul\":10852:10945   */\n      tag_123\n      jump\t// in\n    tag_222:\n        /* \"#utility.yul\":10970:10972   */\n      0x20\n        /* \"#utility.yul\":10965:10968   */\n      dup3\n        /* \"#utility.yul\":10961:10973   */\n      add\n        /* \"#utility.yul\":10954:10973   */\n      swap1\n      pop\n        /* \"#utility.yul\":10613:10979   */\n      swap2\n      swap1\n      pop\n      jump\t// out\n        /* \"#utility.yul\":10985:11404   */\n    tag_81:\n        /* \"#utility.yul\":11151:11155   */\n      0x00\n        /* \"#utility.yul\":11189:11191   */\n      0x20\n        /* \"#utility.yul\":11178:11187   */\n      dup3\n        /* \"#utility.yul\":11174:11192   */\n      add\n        /* \"#utility.yul\":11166:11192   */\n      swap1\n      pop\n        /* \"#utility.yul\":11238:11247   */\n      dup2\n        /* \"#utility.yul\":11232:11236   */\n      dup2\n        /* \"#utility.yul\":11228:11248   */\n      sub\n        /* \"#utility.yul\":11224:11225   */\n      0x00\n        /* \"#utility.yul\":11213:11222   */\n      dup4\n        /* \"#utility.yul\":11209:11226   */\n      add\n        /* \"#utility.yul\":11202:11249   */\n      mstore\n        /* \"#utility.yul\":11266:11397   */\n      tag_224\n        /* \"#utility.yul\":11392:11396   */\n      dup2\n        /* \"#utility.yul\":11266:11397   */\n      tag_124\n      jump\t// in\n    tag_224:\n        /* \"#utility.yul\":11258:11397   */\n      swap1\n      pop\n        /* \"#utility.yul\":10985:11404   */\n      swap2\n      swap1\n      pop\n      jump\t// out\n        /* \"#utility.yul\":11410:11852   */\n    tag_83:\n        /* \"#utility.yul\":11559:11563   */\n      0x00\n        /* \"#utility.yul\":11597:11599   */\n      0x60\n        /* \"#utility.yul\":11586:11595   */\n      dup3\n        /* \"#utility.yul\":11582:11600   */\n      add\n        /* \"#utility.yul\":11574:11600   */\n      swap1\n      pop\n        /* \"#utility.yul\":11610:11681   */\n      tag_226\n        /* \"#utility.yul\":11678:11679   */\n      0x00\n        /* \"#utility.yul\":11667:11676   */\n      dup4\n        /* \"#utility.yul\":11663:11680   */\n      add\n        /* \"#utility.yul\":11654:11660   */\n      dup7\n        /* \"#utility.yul\":11610:11681   */\n      tag_95\n      jump\t// in\n    tag_226:\n        /* \"#utility.yul\":11691:11763   */\n      tag_227\n        /* \"#utility.yul\":11759:11761   */\n      0x20\n        /* \"#utility.yul\":11748:11757   */\n      dup4\n        /* \"#utility.yul\":11744:11762   */\n      add\n        /* \"#utility.yul\":11735:11741   */\n      dup6\n        /* \"#utility.yul\":11691:11763   */\n      tag_95\n      jump\t// in\n    tag_227:\n        /* \"#utility.yul\":11773:11845   */\n      tag_228\n        /* \"#utility.yul\":11841:11843   */\n      0x40\n        /* \"#utility.yul\":11830:11839   */\n      dup4\n        /* \"#utility.yul\":11826:11844   */\n      add\n        /* \"#utility.yul\":11817:11823   */\n      dup5\n        /* \"#utility.yul\":11773:11845   */\n      tag_92\n      jump\t// in\n    tag_228:\n        /* \"#utility.yul\":11410:11852   */\n      swap5\n      swap4\n      pop\n      pop\n      pop\n      pop\n      jump\t// out\n        /* \"#utility.yul\":11858:12190   */\n    tag_90:\n        /* \"#utility.yul\":11979:11983   */\n      0x00\n        /* \"#utility.yul\":12017:12019   */\n      0x40\n        /* \"#utility.yul\":12006:12015   */\n      dup3\n        /* \"#utility.yul\":12002:12020   */\n      add\n        /* \"#utility.yul\":11994:12020   */\n      swap1\n      pop\n        /* \"#utility.yul\":12030:12101   */\n      tag_230\n        /* \"#utility.yul\":12098:12099   */\n      0x00\n        /* \"#utility.yul\":12087:12096   */\n      dup4\n        /* \"#utility.yul\":12083:12100   */\n      add\n        /* \"#utility.yul\":12074:12080   */\n      dup6\n        /* \"#utility.yul\":12030:12101   */\n      tag_92\n      jump\t// in\n    tag_230:\n        /* \"#utility.yul\":12111:12183   */\n      tag_231\n        /* \"#utility.yul\":12179:12181   */\n      0x20\n        /* \"#utility.yul\":12168:12177   */\n      dup4\n        /* \"#utility.yul\":12164:12182   */\n      add\n        /* \"#utility.yul\":12155:12161   */\n      dup5\n        /* \"#utility.yul\":12111:12183   */\n      tag_92\n      jump\t// in\n    tag_231:\n        /* \"#utility.yul\":11858:12190   */\n      swap4\n      swap3\n      pop\n      pop\n      pop\n      jump\t// out\n\n    auxdata: 0xa264697066735822122055aa87760db835468316fac2efeef0a107cf892fdfcb5411537fac64dabb977064736f6c634300081a0033\n}\n",
				"bytecode": {
					"linkReferences": {},
					"object": "608060405234801561000f575f80fd5b506040516110823803806110828339818101604052810190610031919061016b565b335f806101000a81548173ffffffffffffffffffffffffffffffffffffffff021916908373ffffffffffffffffffffffffffffffffffffffff1602179055508160015f6101000a81548173ffffffffffffffffffffffffffffffffffffffff021916908373ffffffffffffffffffffffffffffffffffffffff16021790555080426100bc91906101d6565b6002819055505050610209565b5f80fd5b5f73ffffffffffffffffffffffffffffffffffffffff82169050919050565b5f6100f6826100cd565b9050919050565b5f610107826100ec565b9050919050565b610117816100fd565b8114610121575f80fd5b50565b5f815190506101328161010e565b92915050565b5f819050919050565b61014a81610138565b8114610154575f80fd5b50565b5f8151905061016581610141565b92915050565b5f8060408385031215610181576101806100c9565b5b5f61018e85828601610124565b925050602061019f85828601610157565b9150509250929050565b7f4e487b71000000000000000000000000000000000000000000000000000000005f52601160045260245ffd5b5f6101e082610138565b91506101eb83610138565b9250828201905080821115610203576102026101a9565b5b92915050565b610e6c806102165f395ff3fe608060405234801561000f575f80fd5b506004361061007b575f3560e01c80638da5cb5b116100595780638da5cb5b146100d9578063a69df4b5146100f7578063b77f39fe14610101578063dd4670641461010b5761007b565b8063251c1aa31461007f57806338af3eed1461009d5780635fcbd285146100bb575b5f80fd5b610087610127565b60405161009491906108ee565b60405180910390f35b6100a561012d565b6040516100b29190610946565b60405180910390f35b6100c3610152565b6040516100d091906109ba565b60405180910390f35b6100e1610177565b6040516100ee9190610946565b60405180910390f35b6100ff61019a565b005b6101096104ba565b005b61012560048036038101906101209190610a01565b610722565b005b60025481565b60035f9054906101000a900473ffffffffffffffffffffffffffffffffffffffff1681565b60015f9054906101000a900473ffffffffffffffffffffffffffffffffffffffff1681565b5f8054906101000a900473ffffffffffffffffffffffffffffffffffffffff1681565b6002544210156101df576040517f08c379a00000000000000000000000000000000000000000000000000000000081526004016101d690610a86565b60405180910390fd5b60035f9054906101000a900473ffffffffffffffffffffffffffffffffffffffff1673ffffffffffffffffffffffffffffffffffffffff163373ffffffffffffffffffffffffffffffffffffffff161461026e576040517f08c379a000000000000000000000000000000000000000000000000000000000815260040161026590610aee565b60405180910390fd5b5f60015f9054906101000a900473ffffffffffffffffffffffffffffffffffffffff1673ffffffffffffffffffffffffffffffffffffffff166370a08231306040518263ffffffff1660e01b81526004016102c99190610946565b602060405180830381865afa1580156102e4573d5f803e3d5ffd5b505050506040513d601f19601f820116820180604052508101906103089190610b20565b90505f811161034c576040517f08c379a000000000000000000000000000000000000000000000000000000000815260040161034390610b95565b60405180910390fd5b60015f9054906101000a900473ffffffffffffffffffffffffffffffffffffffff1673ffffffffffffffffffffffffffffffffffffffff1663a9059cbb60035f9054906101000a900473ffffffffffffffffffffffffffffffffffffffff16836040518363ffffffff1660e01b81526004016103c9929190610bb3565b6020604051808303815f875af11580156103e5573d5f803e3d5ffd5b505050506040513d601f19601f820116820180604052508101906104099190610c0f565b610448576040517f08c379a000000000000000000000000000000000000000000000000000000000815260040161043f90610c84565b60405180910390fd5b60035f9054906101000a900473ffffffffffffffffffffffffffffffffffffffff1673ffffffffffffffffffffffffffffffffffffffff167f0f0bc5b519ddefdd8e5f9e6423433aa2b869738de2ae34d58ebc796fc749fa0d826040516104af91906108ee565b60405180910390a250565b5f8054906101000a900473ffffffffffffffffffffffffffffffffffffffff1673ffffffffffffffffffffffffffffffffffffffff163373ffffffffffffffffffffffffffffffffffffffff1614610547576040517f08c379a000000000000000000000000000000000000000000000000000000000815260040161053e90610cec565b60405180910390fd5b5f60015f9054906101000a900473ffffffffffffffffffffffffffffffffffffffff1673ffffffffffffffffffffffffffffffffffffffff166370a08231306040518263ffffffff1660e01b81526004016105a29190610946565b602060405180830381865afa1580156105bd573d5f803e3d5ffd5b505050506040513d601f19601f820116820180604052508101906105e19190610b20565b90505f8111610625576040517f08c379a000000000000000000000000000000000000000000000000000000000815260040161061c90610d54565b60405180910390fd5b60015f9054906101000a900473ffffffffffffffffffffffffffffffffffffffff1673ffffffffffffffffffffffffffffffffffffffff1663a9059cbb5f8054906101000a900473ffffffffffffffffffffffffffffffffffffffff16836040518363ffffffff1660e01b81526004016106a0929190610bb3565b6020604051808303815f875af11580156106bc573d5f803e3d5ffd5b505050506040513d601f19601f820116820180604052508101906106e09190610c0f565b61071f576040517f08c379a000000000000000000000000000000000000000000000000000000000815260040161071690610c84565b60405180910390fd5b50565b5f8111610764576040517f08c379a000000000000000000000000000000000000000000000000000000000815260040161075b90610dbc565b60405180910390fd5b60015f9054906101000a900473ffffffffffffffffffffffffffffffffffffffff1673ffffffffffffffffffffffffffffffffffffffff166323b872dd3330846040518463ffffffff1660e01b81526004016107c293929190610dda565b6020604051808303815f875af11580156107de573d5f803e3d5ffd5b505050506040513d601f19601f820116820180604052508101906108029190610c0f565b610841576040517f08c379a000000000000000000000000000000000000000000000000000000000815260040161083890610c84565b60405180910390fd5b3360035f6101000a81548173ffffffffffffffffffffffffffffffffffffffff021916908373ffffffffffffffffffffffffffffffffffffffff1602179055503373ffffffffffffffffffffffffffffffffffffffff167fd4665e3049283582ba6f9eba07a5b3e12dab49e02da99e8927a47af5d134bea5826002546040516108cb929190610e0f565b60405180910390a250565b5f819050919050565b6108e8816108d6565b82525050565b5f6020820190506109015f8301846108df565b92915050565b5f73ffffffffffffffffffffffffffffffffffffffff82169050919050565b5f61093082610907565b9050919050565b61094081610926565b82525050565b5f6020820190506109595f830184610937565b92915050565b5f819050919050565b5f61098261097d61097884610907565b61095f565b610907565b9050919050565b5f61099382610968565b9050919050565b5f6109a482610989565b9050919050565b6109b48161099a565b82525050565b5f6020820190506109cd5f8301846109ab565b92915050565b5f80fd5b6109e0816108d6565b81146109ea575f80fd5b50565b5f813590506109fb816109d7565b92915050565b5f60208284031215610a1657610a156109d3565b5b5f610a23848285016109ed565b91505092915050565b5f82825260208201905092915050565b7f546f6b656e7320617265206c6f636b65640000000000000000000000000000005f82015250565b5f610a70601183610a2c565b9150610a7b82610a3c565b602082019050919050565b5f6020820190508181035f830152610a9d81610a64565b9050919050565b7f4e6f74207468652062656e6566696369617279000000000000000000000000005f82015250565b5f610ad8601383610a2c565b9150610ae382610aa4565b602082019050919050565b5f6020820190508181035f830152610b0581610acc565b9050919050565b5f81519050610b1a816109d7565b92915050565b5f60208284031215610b3557610b346109d3565b5b5f610b4284828501610b0c565b91505092915050565b7f4e6f204c5020746f6b656e7320746f20756e6c6f636b000000000000000000005f82015250565b5f610b7f601683610a2c565b9150610b8a82610b4b565b602082019050919050565b5f6020820190508181035f830152610bac81610b73565b9050919050565b5f604082019050610bc65f830185610937565b610bd360208301846108df565b9392505050565b5f8115159050919050565b610bee81610bda565b8114610bf8575f80fd5b50565b5f81519050610c0981610be5565b92915050565b5f60208284031215610c2457610c236109d3565b5b5f610c3184828501610bfb565b91505092915050565b7f5472616e73666572206661696c656400000000000000000000000000000000005f82015250565b5f610c6e600f83610a2c565b9150610c7982610c3a565b602082019050919050565b5f6020820190508181035f830152610c9b81610c62565b9050919050565b7f4e6f7420746865206f776e6572000000000000000000000000000000000000005f82015250565b5f610cd6600d83610a2c565b9150610ce182610ca2565b602082019050919050565b5f6020820190508181035f830152610d0381610cca565b9050919050565b7f4e6f20746f6b656e7320746f207265636f7665720000000000000000000000005f82015250565b5f610d3e601483610a2c565b9150610d4982610d0a565b602082019050919050565b5f6020820190508181035f830152610d6b81610d32565b9050919050565b7f416d6f756e742073686f756c642062652067726561746572207468616e2030005f82015250565b5f610da6601f83610a2c565b9150610db182610d72565b602082019050919050565b5f6020820190508181035f830152610dd381610d9a565b9050919050565b5f606082019050610ded5f830186610937565b610dfa6020830185610937565b610e0760408301846108df565b949350505050565b5f604082019050610e225f8301856108df565b610e2f60208301846108df565b939250505056fea264697066735822122055aa87760db835468316fac2efeef0a107cf892fdfcb5411537fac64dabb977064736f6c634300081a0033",
					"opcodes": "PUSH1 0x80 PUSH1 0x40 MSTORE CALLVALUE DUP1 ISZERO PUSH2 0xF JUMPI PUSH0 DUP1 REVERT JUMPDEST POP PUSH1 0x40 MLOAD PUSH2 0x1082 CODESIZE SUB DUP1 PUSH2 0x1082 DUP4 CODECOPY DUP2 DUP2 ADD PUSH1 0x40 MSTORE DUP2 ADD SWAP1 PUSH2 0x31 SWAP2 SWAP1 PUSH2 0x16B JUMP JUMPDEST CALLER PUSH0 DUP1 PUSH2 0x100 EXP DUP2 SLOAD DUP2 PUSH20 0xFFFFFFFFFFFFFFFFFFFFFFFFFFFFFFFFFFFFFFFF MUL NOT AND SWAP1 DUP4 PUSH20 0xFFFFFFFFFFFFFFFFFFFFFFFFFFFFFFFFFFFFFFFF AND MUL OR SWAP1 SSTORE POP DUP2 PUSH1 0x1 PUSH0 PUSH2 0x100 EXP DUP2 SLOAD DUP2 PUSH20 0xFFFFFFFFFFFFFFFFFFFFFFFFFFFFFFFFFFFFFFFF MUL NOT AND SWAP1 DUP4 PUSH20 0xFFFFFFFFFFFFFFFFFFFFFFFFFFFFFFFFFFFFFFFF AND MUL OR SWAP1 SSTORE POP DUP1 TIMESTAMP PUSH2 0xBC SWAP2 SWAP1 PUSH2 0x1D6 JUMP JUMPDEST PUSH1 0x2 DUP2 SWAP1 SSTORE POP POP POP PUSH2 0x209 JUMP JUMPDEST PUSH0 DUP1 REVERT JUMPDEST PUSH0 PUSH20 0xFFFFFFFFFFFFFFFFFFFFFFFFFFFFFFFFFFFFFFFF DUP3 AND SWAP1 POP SWAP2 SWAP1 POP JUMP JUMPDEST PUSH0 PUSH2 0xF6 DUP3 PUSH2 0xCD JUMP JUMPDEST SWAP1 POP SWAP2 SWAP1 POP JUMP JUMPDEST PUSH0 PUSH2 0x107 DUP3 PUSH2 0xEC JUMP JUMPDEST SWAP1 POP SWAP2 SWAP1 POP JUMP JUMPDEST PUSH2 0x117 DUP2 PUSH2 0xFD JUMP JUMPDEST DUP2 EQ PUSH2 0x121 JUMPI PUSH0 DUP1 REVERT JUMPDEST POP JUMP JUMPDEST PUSH0 DUP2 MLOAD SWAP1 POP PUSH2 0x132 DUP2 PUSH2 0x10E JUMP JUMPDEST SWAP3 SWAP2 POP POP JUMP JUMPDEST PUSH0 DUP2 SWAP1 POP SWAP2 SWAP1 POP JUMP JUMPDEST PUSH2 0x14A DUP2 PUSH2 0x138 JUMP JUMPDEST DUP2 EQ PUSH2 0x154 JUMPI PUSH0 DUP1 REVERT JUMPDEST POP JUMP JUMPDEST PUSH0 DUP2 MLOAD SWAP1 POP PUSH2 0x165 DUP2 PUSH2 0x141 JUMP JUMPDEST SWAP3 SWAP2 POP POP JUMP JUMPDEST PUSH0 DUP1 PUSH1 0x40 DUP4 DUP6 SUB SLT ISZERO PUSH2 0x181 JUMPI PUSH2 0x180 PUSH2 0xC9 JUMP JUMPDEST JUMPDEST PUSH0 PUSH2 0x18E DUP6 DUP3 DUP7 ADD PUSH2 0x124 JUMP JUMPDEST SWAP3 POP POP PUSH1 0x20 PUSH2 0x19F DUP6 DUP3 DUP7 ADD PUSH2 0x157 JUMP JUMPDEST SWAP2 POP POP SWAP3 POP SWAP3 SWAP1 POP JUMP JUMPDEST PUSH32 0x4E487B7100000000000000000000000000000000000000000000000000000000 PUSH0 MSTORE PUSH1 0x11 PUSH1 0x4 MSTORE PUSH1 0x24 PUSH0 REVERT JUMPDEST PUSH0 PUSH2 0x1E0 DUP3 PUSH2 0x138 JUMP JUMPDEST SWAP2 POP PUSH2 0x1EB DUP4 PUSH2 0x138 JUMP JUMPDEST SWAP3 POP DUP3 DUP3 ADD SWAP1 POP DUP1 DUP3 GT ISZERO PUSH2 0x203 JUMPI PUSH2 0x202 PUSH2 0x1A9 JUMP JUMPDEST JUMPDEST SWAP3 SWAP2 POP POP JUMP JUMPDEST PUSH2 0xE6C DUP1 PUSH2 0x216 PUSH0 CODECOPY PUSH0 RETURN INVALID PUSH1 0x80 PUSH1 0x40 MSTORE CALLVALUE DUP1 ISZERO PUSH2 0xF JUMPI PUSH0 DUP1 REVERT JUMPDEST POP PUSH1 0x4 CALLDATASIZE LT PUSH2 0x7B JUMPI PUSH0 CALLDATALOAD PUSH1 0xE0 SHR DUP1 PUSH4 0x8DA5CB5B GT PUSH2 0x59 JUMPI DUP1 PUSH4 0x8DA5CB5B EQ PUSH2 0xD9 JUMPI DUP1 PUSH4 0xA69DF4B5 EQ PUSH2 0xF7 JUMPI DUP1 PUSH4 0xB77F39FE EQ PUSH2 0x101 JUMPI DUP1 PUSH4 0xDD467064 EQ PUSH2 0x10B JUMPI PUSH2 0x7B JUMP JUMPDEST DUP1 PUSH4 0x251C1AA3 EQ PUSH2 0x7F JUMPI DUP1 PUSH4 0x38AF3EED EQ PUSH2 0x9D JUMPI DUP1 PUSH4 0x5FCBD285 EQ PUSH2 0xBB JUMPI JUMPDEST PUSH0 DUP1 REVERT JUMPDEST PUSH2 0x87 PUSH2 0x127 JUMP JUMPDEST PUSH1 0x40 MLOAD PUSH2 0x94 SWAP2 SWAP1 PUSH2 0x8EE JUMP JUMPDEST PUSH1 0x40 MLOAD DUP1 SWAP2 SUB SWAP1 RETURN JUMPDEST PUSH2 0xA5 PUSH2 0x12D JUMP JUMPDEST PUSH1 0x40 MLOAD PUSH2 0xB2 SWAP2 SWAP1 PUSH2 0x946 JUMP JUMPDEST PUSH1 0x40 MLOAD DUP1 SWAP2 SUB SWAP1 RETURN JUMPDEST PUSH2 0xC3 PUSH2 0x152 JUMP JUMPDEST PUSH1 0x40 MLOAD PUSH2 0xD0 SWAP2 SWAP1 PUSH2 0x9BA JUMP JUMPDEST PUSH1 0x40 MLOAD DUP1 SWAP2 SUB SWAP1 RETURN JUMPDEST PUSH2 0xE1 PUSH2 0x177 JUMP JUMPDEST PUSH1 0x40 MLOAD PUSH2 0xEE SWAP2 SWAP1 PUSH2 0x946 JUMP JUMPDEST PUSH1 0x40 MLOAD DUP1 SWAP2 SUB SWAP1 RETURN JUMPDEST PUSH2 0xFF PUSH2 0x19A JUMP JUMPDEST STOP JUMPDEST PUSH2 0x109 PUSH2 0x4BA JUMP JUMPDEST STOP JUMPDEST PUSH2 0x125 PUSH1 0x4 DUP1 CALLDATASIZE SUB DUP2 ADD SWAP1 PUSH2 0x120 SWAP2 SWAP1 PUSH2 0xA01 JUMP JUMPDEST PUSH2 0x722 JUMP JUMPDEST STOP JUMPDEST PUSH1 0x2 SLOAD DUP2 JUMP JUMPDEST PUSH1 0x3 PUSH0 SWAP1 SLOAD SWAP1 PUSH2 0x100 EXP SWAP1 DIV PUSH20 0xFFFFFFFFFFFFFFFFFFFFFFFFFFFFFFFFFFFFFFFF AND DUP2 JUMP JUMPDEST PUSH1 0x1 PUSH0 SWAP1 SLOAD SWAP1 PUSH2 0x100 EXP SWAP1 DIV PUSH20 0xFFFFFFFFFFFFFFFFFFFFFFFFFFFFFFFFFFFFFFFF AND DUP2 JUMP JUMPDEST PUSH0 DUP1 SLOAD SWAP1 PUSH2 0x100 EXP SWAP1 DIV PUSH20 0xFFFFFFFFFFFFFFFFFFFFFFFFFFFFFFFFFFFFFFFF AND DUP2 JUMP JUMPDEST PUSH1 0x2 SLOAD TIMESTAMP LT ISZERO PUSH2 0x1DF JUMPI PUSH1 0x40 MLOAD PUSH32 0x8C379A000000000000000000000000000000000000000000000000000000000 DUP2 MSTORE PUSH1 0x4 ADD PUSH2 0x1D6 SWAP1 PUSH2 0xA86 JUMP JUMPDEST PUSH1 0x40 MLOAD DUP1 SWAP2 SUB SWAP1 REVERT JUMPDEST PUSH1 0x3 PUSH0 SWAP1 SLOAD SWAP1 PUSH2 0x100 EXP SWAP1 DIV PUSH20 0xFFFFFFFFFFFFFFFFFFFFFFFFFFFFFFFFFFFFFFFF AND PUSH20 0xFFFFFFFFFFFFFFFFFFFFFFFFFFFFFFFFFFFFFFFF AND CALLER PUSH20 0xFFFFFFFFFFFFFFFFFFFFFFFFFFFFFFFFFFFFFFFF AND EQ PUSH2 0x26E JUMPI PUSH1 0x40 MLOAD PUSH32 0x8C379A000000000000000000000000000000000000000000000000000000000 DUP2 MSTORE PUSH1 0x4 ADD PUSH2 0x265 SWAP1 PUSH2 0xAEE JUMP JUMPDEST PUSH1 0x40 MLOAD DUP1 SWAP2 SUB SWAP1 REVERT JUMPDEST PUSH0 PUSH1 0x1 PUSH0 SWAP1 SLOAD SWAP1 PUSH2 0x100 EXP SWAP1 DIV PUSH20 0xFFFFFFFFFFFFFFFFFFFFFFFFFFFFFFFFFFFFFFFF AND PUSH20 0xFFFFFFFFFFFFFFFFFFFFFFFFFFFFFFFFFFFFFFFF AND PUSH4 0x70A08231 ADDRESS PUSH1 0x40 MLOAD DUP3 PUSH4 0xFFFFFFFF AND PUSH1 0xE0 SHL DUP2 MSTORE PUSH1 0x4 ADD PUSH2 0x2C9 SWAP2 SWAP1 PUSH2 0x946 JUMP JUMPDEST PUSH1 0x20 PUSH1 0x40 MLOAD DUP1 DUP4 SUB DUP2 DUP7 GAS STATICCALL ISZERO DUP1 ISZERO PUSH2 0x2E4 JUMPI RETURNDATASIZE PUSH0 DUP1 RETURNDATACOPY RETURNDATASIZE PUSH0 REVERT JUMPDEST POP POP POP POP PUSH1 0x40 MLOAD RETURNDATASIZE PUSH1 0x1F NOT PUSH1 0x1F DUP3 ADD AND DUP3 ADD DUP1 PUSH1 0x40 MSTORE POP DUP2 ADD SWAP1 PUSH2 0x308 SWAP2 SWAP1 PUSH2 0xB20 JUMP JUMPDEST SWAP1 POP PUSH0 DUP2 GT PUSH2 0x34C JUMPI PUSH1 0x40 MLOAD PUSH32 0x8C379A000000000000000000000000000000000000000000000000000000000 DUP2 MSTORE PUSH1 0x4 ADD PUSH2 0x343 SWAP1 PUSH2 0xB95 JUMP JUMPDEST PUSH1 0x40 MLOAD DUP1 SWAP2 SUB SWAP1 REVERT JUMPDEST PUSH1 0x1 PUSH0 SWAP1 SLOAD SWAP1 PUSH2 0x100 EXP SWAP1 DIV PUSH20 0xFFFFFFFFFFFFFFFFFFFFFFFFFFFFFFFFFFFFFFFF AND PUSH20 0xFFFFFFFFFFFFFFFFFFFFFFFFFFFFFFFFFFFFFFFF AND PUSH4 0xA9059CBB PUSH1 0x3 PUSH0 SWAP1 SLOAD SWAP1 PUSH2 0x100 EXP SWAP1 DIV PUSH20 0xFFFFFFFFFFFFFFFFFFFFFFFFFFFFFFFFFFFFFFFF AND DUP4 PUSH1 0x40 MLOAD DUP4 PUSH4 0xFFFFFFFF AND PUSH1 0xE0 SHL DUP2 MSTORE PUSH1 0x4 ADD PUSH2 0x3C9 SWAP3 SWAP2 SWAP1 PUSH2 0xBB3 JUMP JUMPDEST PUSH1 0x20 PUSH1 0x40 MLOAD DUP1 DUP4 SUB DUP2 PUSH0 DUP8 GAS CALL ISZERO DUP1 ISZERO PUSH2 0x3E5 JUMPI RETURNDATASIZE PUSH0 DUP1 RETURNDATACOPY RETURNDATASIZE PUSH0 REVERT JUMPDEST POP POP POP POP PUSH1 0x40 MLOAD RETURNDATASIZE PUSH1 0x1F NOT PUSH1 0x1F DUP3 ADD AND DUP3 ADD DUP1 PUSH1 0x40 MSTORE POP DUP2 ADD SWAP1 PUSH2 0x409 SWAP2 SWAP1 PUSH2 0xC0F JUMP JUMPDEST PUSH2 0x448 JUMPI PUSH1 0x40 MLOAD PUSH32 0x8C379A000000000000000000000000000000000000000000000000000000000 DUP2 MSTORE PUSH1 0x4 ADD PUSH2 0x43F SWAP1 PUSH2 0xC84 JUMP JUMPDEST PUSH1 0x40 MLOAD DUP1 SWAP2 SUB SWAP1 REVERT JUMPDEST PUSH1 0x3 PUSH0 SWAP1 SLOAD SWAP1 PUSH2 0x100 EXP SWAP1 DIV PUSH20 0xFFFFFFFFFFFFFFFFFFFFFFFFFFFFFFFFFFFFFFFF AND PUSH20 0xFFFFFFFFFFFFFFFFFFFFFFFFFFFFFFFFFFFFFFFF AND PUSH32 0xF0BC5B519DDEFDD8E5F9E6423433AA2B869738DE2AE34D58EBC796FC749FA0D DUP3 PUSH1 0x40 MLOAD PUSH2 0x4AF SWAP2 SWAP1 PUSH2 0x8EE JUMP JUMPDEST PUSH1 0x40 MLOAD DUP1 SWAP2 SUB SWAP1 LOG2 POP JUMP JUMPDEST PUSH0 DUP1 SLOAD SWAP1 PUSH2 0x100 EXP SWAP1 DIV PUSH20 0xFFFFFFFFFFFFFFFFFFFFFFFFFFFFFFFFFFFFFFFF AND PUSH20 0xFFFFFFFFFFFFFFFFFFFFFFFFFFFFFFFFFFFFFFFF AND CALLER PUSH20 0xFFFFFFFFFFFFFFFFFFFFFFFFFFFFFFFFFFFFFFFF AND EQ PUSH2 0x547 JUMPI PUSH1 0x40 MLOAD PUSH32 0x8C379A000000000000000000000000000000000000000000000000000000000 DUP2 MSTORE PUSH1 0x4 ADD PUSH2 0x53E SWAP1 PUSH2 0xCEC JUMP JUMPDEST PUSH1 0x40 MLOAD DUP1 SWAP2 SUB SWAP1 REVERT JUMPDEST PUSH0 PUSH1 0x1 PUSH0 SWAP1 SLOAD SWAP1 PUSH2 0x100 EXP SWAP1 DIV PUSH20 0xFFFFFFFFFFFFFFFFFFFFFFFFFFFFFFFFFFFFFFFF AND PUSH20 0xFFFFFFFFFFFFFFFFFFFFFFFFFFFFFFFFFFFFFFFF AND PUSH4 0x70A08231 ADDRESS PUSH1 0x40 MLOAD DUP3 PUSH4 0xFFFFFFFF AND PUSH1 0xE0 SHL DUP2 MSTORE PUSH1 0x4 ADD PUSH2 0x5A2 SWAP2 SWAP1 PUSH2 0x946 JUMP JUMPDEST PUSH1 0x20 PUSH1 0x40 MLOAD DUP1 DUP4 SUB DUP2 DUP7 GAS STATICCALL ISZERO DUP1 ISZERO PUSH2 0x5BD JUMPI RETURNDATASIZE PUSH0 DUP1 RETURNDATACOPY RETURNDATASIZE PUSH0 REVERT JUMPDEST POP POP POP POP PUSH1 0x40 MLOAD RETURNDATASIZE PUSH1 0x1F NOT PUSH1 0x1F DUP3 ADD AND DUP3 ADD DUP1 PUSH1 0x40 MSTORE POP DUP2 ADD SWAP1 PUSH2 0x5E1 SWAP2 SWAP1 PUSH2 0xB20 JUMP JUMPDEST SWAP1 POP PUSH0 DUP2 GT PUSH2 0x625 JUMPI PUSH1 0x40 MLOAD PUSH32 0x8C379A000000000000000000000000000000000000000000000000000000000 DUP2 MSTORE PUSH1 0x4 ADD PUSH2 0x61C SWAP1 PUSH2 0xD54 JUMP JUMPDEST PUSH1 0x40 MLOAD DUP1 SWAP2 SUB SWAP1 REVERT JUMPDEST PUSH1 0x1 PUSH0 SWAP1 SLOAD SWAP1 PUSH2 0x100 EXP SWAP1 DIV PUSH20 0xFFFFFFFFFFFFFFFFFFFFFFFFFFFFFFFFFFFFFFFF AND PUSH20 0xFFFFFFFFFFFFFFFFFFFFFFFFFFFFFFFFFFFFFFFF AND PUSH4 0xA9059CBB PUSH0 DUP1 SLOAD SWAP1 PUSH2 0x100 EXP SWAP1 DIV PUSH20 0xFFFFFFFFFFFFFFFFFFFFFFFFFFFFFFFFFFFFFFFF AND DUP4 PUSH1 0x40 MLOAD DUP4 PUSH4 0xFFFFFFFF AND PUSH1 0xE0 SHL DUP2 MSTORE PUSH1 0x4 ADD PUSH2 0x6A0 SWAP3 SWAP2 SWAP1 PUSH2 0xBB3 JUMP JUMPDEST PUSH1 0x20 PUSH1 0x40 MLOAD DUP1 DUP4 SUB DUP2 PUSH0 DUP8 GAS CALL ISZERO DUP1 ISZERO PUSH2 0x6BC JUMPI RETURNDATASIZE PUSH0 DUP1 RETURNDATACOPY RETURNDATASIZE PUSH0 REVERT JUMPDEST POP POP POP POP PUSH1 0x40 MLOAD RETURNDATASIZE PUSH1 0x1F NOT PUSH1 0x1F DUP3 ADD AND DUP3 ADD DUP1 PUSH1 0x40 MSTORE POP DUP2 ADD SWAP1 PUSH2 0x6E0 SWAP2 SWAP1 PUSH2 0xC0F JUMP JUMPDEST PUSH2 0x71F JUMPI PUSH1 0x40 MLOAD PUSH32 0x8C379A000000000000000000000000000000000000000000000000000000000 DUP2 MSTORE PUSH1 0x4 ADD PUSH2 0x716 SWAP1 PUSH2 0xC84 JUMP JUMPDEST PUSH1 0x40 MLOAD DUP1 SWAP2 SUB SWAP1 REVERT JUMPDEST POP JUMP JUMPDEST PUSH0 DUP2 GT PUSH2 0x764 JUMPI PUSH1 0x40 MLOAD PUSH32 0x8C379A000000000000000000000000000000000000000000000000000000000 DUP2 MSTORE PUSH1 0x4 ADD PUSH2 0x75B SWAP1 PUSH2 0xDBC JUMP JUMPDEST PUSH1 0x40 MLOAD DUP1 SWAP2 SUB SWAP1 REVERT JUMPDEST PUSH1 0x1 PUSH0 SWAP1 SLOAD SWAP1 PUSH2 0x100 EXP SWAP1 DIV PUSH20 0xFFFFFFFFFFFFFFFFFFFFFFFFFFFFFFFFFFFFFFFF AND PUSH20 0xFFFFFFFFFFFFFFFFFFFFFFFFFFFFFFFFFFFFFFFF AND PUSH4 0x23B872DD CALLER ADDRESS DUP5 PUSH1 0x40 MLOAD DUP5 PUSH4 0xFFFFFFFF AND PUSH1 0xE0 SHL DUP2 MSTORE PUSH1 0x4 ADD PUSH2 0x7C2 SWAP4 SWAP3 SWAP2 SWAP1 PUSH2 0xDDA JUMP JUMPDEST PUSH1 0x20 PUSH1 0x40 MLOAD DUP1 DUP4 SUB DUP2 PUSH0 DUP8 GAS CALL ISZERO DUP1 ISZERO PUSH2 0x7DE JUMPI RETURNDATASIZE PUSH0 DUP1 RETURNDATACOPY RETURNDATASIZE PUSH0 REVERT JUMPDEST POP POP POP POP PUSH1 0x40 MLOAD RETURNDATASIZE PUSH1 0x1F NOT PUSH1 0x1F DUP3 ADD AND DUP3 ADD DUP1 PUSH1 0x40 MSTORE POP DUP2 ADD SWAP1 PUSH2 0x802 SWAP2 SWAP1 PUSH2 0xC0F JUMP JUMPDEST PUSH2 0x841 JUMPI PUSH1 0x40 MLOAD PUSH32 0x8C379A000000000000000000000000000000000000000000000000000000000 DUP2 MSTORE PUSH1 0x4 ADD PUSH2 0x838 SWAP1 PUSH2 0xC84 JUMP JUMPDEST PUSH1 0x40 MLOAD DUP1 SWAP2 SUB SWAP1 REVERT JUMPDEST CALLER PUSH1 0x3 PUSH0 PUSH2 0x100 EXP DUP2 SLOAD DUP2 PUSH20 0xFFFFFFFFFFFFFFFFFFFFFFFFFFFFFFFFFFFFFFFF MUL NOT AND SWAP1 DUP4 PUSH20 0xFFFFFFFFFFFFFFFFFFFFFFFFFFFFFFFFFFFFFFFF AND MUL OR SWAP1 SSTORE POP CALLER PUSH20 0xFFFFFFFFFFFFFFFFFFFFFFFFFFFFFFFFFFFFFFFF AND PUSH32 0xD4665E3049283582BA6F9EBA07A5B3E12DAB49E02DA99E8927A47AF5D134BEA5 DUP3 PUSH1 0x2 SLOAD PUSH1 0x40 MLOAD PUSH2 0x8CB SWAP3 SWAP2 SWAP1 PUSH2 0xE0F JUMP JUMPDEST PUSH1 0x40 MLOAD DUP1 SWAP2 SUB SWAP1 LOG2 POP JUMP JUMPDEST PUSH0 DUP2 SWAP1 POP SWAP2 SWAP1 POP JUMP JUMPDEST PUSH2 0x8E8 DUP2 PUSH2 0x8D6 JUMP JUMPDEST DUP3 MSTORE POP POP JUMP JUMPDEST PUSH0 PUSH1 0x20 DUP3 ADD SWAP1 POP PUSH2 0x901 PUSH0 DUP4 ADD DUP5 PUSH2 0x8DF JUMP JUMPDEST SWAP3 SWAP2 POP POP JUMP JUMPDEST PUSH0 PUSH20 0xFFFFFFFFFFFFFFFFFFFFFFFFFFFFFFFFFFFFFFFF DUP3 AND SWAP1 POP SWAP2 SWAP1 POP JUMP JUMPDEST PUSH0 PUSH2 0x930 DUP3 PUSH2 0x907 JUMP JUMPDEST SWAP1 POP SWAP2 SWAP1 POP JUMP JUMPDEST PUSH2 0x940 DUP2 PUSH2 0x926 JUMP JUMPDEST DUP3 MSTORE POP POP JUMP JUMPDEST PUSH0 PUSH1 0x20 DUP3 ADD SWAP1 POP PUSH2 0x959 PUSH0 DUP4 ADD DUP5 PUSH2 0x937 JUMP JUMPDEST SWAP3 SWAP2 POP POP JUMP JUMPDEST PUSH0 DUP2 SWAP1 POP SWAP2 SWAP1 POP JUMP JUMPDEST PUSH0 PUSH2 0x982 PUSH2 0x97D PUSH2 0x978 DUP5 PUSH2 0x907 JUMP JUMPDEST PUSH2 0x95F JUMP JUMPDEST PUSH2 0x907 JUMP JUMPDEST SWAP1 POP SWAP2 SWAP1 POP JUMP JUMPDEST PUSH0 PUSH2 0x993 DUP3 PUSH2 0x968 JUMP JUMPDEST SWAP1 POP SWAP2 SWAP1 POP JUMP JUMPDEST PUSH0 PUSH2 0x9A4 DUP3 PUSH2 0x989 JUMP JUMPDEST SWAP1 POP SWAP2 SWAP1 POP JUMP JUMPDEST PUSH2 0x9B4 DUP2 PUSH2 0x99A JUMP JUMPDEST DUP3 MSTORE POP POP JUMP JUMPDEST PUSH0 PUSH1 0x20 DUP3 ADD SWAP1 POP PUSH2 0x9CD PUSH0 DUP4 ADD DUP5 PUSH2 0x9AB JUMP JUMPDEST SWAP3 SWAP2 POP POP JUMP JUMPDEST PUSH0 DUP1 REVERT JUMPDEST PUSH2 0x9E0 DUP2 PUSH2 0x8D6 JUMP JUMPDEST DUP2 EQ PUSH2 0x9EA JUMPI PUSH0 DUP1 REVERT JUMPDEST POP JUMP JUMPDEST PUSH0 DUP2 CALLDATALOAD SWAP1 POP PUSH2 0x9FB DUP2 PUSH2 0x9D7 JUMP JUMPDEST SWAP3 SWAP2 POP POP JUMP JUMPDEST PUSH0 PUSH1 0x20 DUP3 DUP5 SUB SLT ISZERO PUSH2 0xA16 JUMPI PUSH2 0xA15 PUSH2 0x9D3 JUMP JUMPDEST JUMPDEST PUSH0 PUSH2 0xA23 DUP5 DUP3 DUP6 ADD PUSH2 0x9ED JUMP JUMPDEST SWAP2 POP POP SWAP3 SWAP2 POP POP JUMP JUMPDEST PUSH0 DUP3 DUP3 MSTORE PUSH1 0x20 DUP3 ADD SWAP1 POP SWAP3 SWAP2 POP POP JUMP JUMPDEST PUSH32 0x546F6B656E7320617265206C6F636B6564000000000000000000000000000000 PUSH0 DUP3 ADD MSTORE POP JUMP JUMPDEST PUSH0 PUSH2 0xA70 PUSH1 0x11 DUP4 PUSH2 0xA2C JUMP JUMPDEST SWAP2 POP PUSH2 0xA7B DUP3 PUSH2 0xA3C JUMP JUMPDEST PUSH1 0x20 DUP3 ADD SWAP1 POP SWAP2 SWAP1 POP JUMP JUMPDEST PUSH0 PUSH1 0x20 DUP3 ADD SWAP1 POP DUP2 DUP2 SUB PUSH0 DUP4 ADD MSTORE PUSH2 0xA9D DUP2 PUSH2 0xA64 JUMP JUMPDEST SWAP1 POP SWAP2 SWAP1 POP JUMP JUMPDEST PUSH32 0x4E6F74207468652062656E656669636961727900000000000000000000000000 PUSH0 DUP3 ADD MSTORE POP JUMP JUMPDEST PUSH0 PUSH2 0xAD8 PUSH1 0x13 DUP4 PUSH2 0xA2C JUMP JUMPDEST SWAP2 POP PUSH2 0xAE3 DUP3 PUSH2 0xAA4 JUMP JUMPDEST PUSH1 0x20 DUP3 ADD SWAP1 POP SWAP2 SWAP1 POP JUMP JUMPDEST PUSH0 PUSH1 0x20 DUP3 ADD SWAP1 POP DUP2 DUP2 SUB PUSH0 DUP4 ADD MSTORE PUSH2 0xB05 DUP2 PUSH2 0xACC JUMP JUMPDEST SWAP1 POP SWAP2 SWAP1 POP JUMP JUMPDEST PUSH0 DUP2 MLOAD SWAP1 POP PUSH2 0xB1A DUP2 PUSH2 0x9D7 JUMP JUMPDEST SWAP3 SWAP2 POP POP JUMP JUMPDEST PUSH0 PUSH1 0x20 DUP3 DUP5 SUB SLT ISZERO PUSH2 0xB35 JUMPI PUSH2 0xB34 PUSH2 0x9D3 JUMP JUMPDEST JUMPDEST PUSH0 PUSH2 0xB42 DUP5 DUP3 DUP6 ADD PUSH2 0xB0C JUMP JUMPDEST SWAP2 POP POP SWAP3 SWAP2 POP POP JUMP JUMPDEST PUSH32 0x4E6F204C5020746F6B656E7320746F20756E6C6F636B00000000000000000000 PUSH0 DUP3 ADD MSTORE POP JUMP JUMPDEST PUSH0 PUSH2 0xB7F PUSH1 0x16 DUP4 PUSH2 0xA2C JUMP JUMPDEST SWAP2 POP PUSH2 0xB8A DUP3 PUSH2 0xB4B JUMP JUMPDEST PUSH1 0x20 DUP3 ADD SWAP1 POP SWAP2 SWAP1 POP JUMP JUMPDEST PUSH0 PUSH1 0x20 DUP3 ADD SWAP1 POP DUP2 DUP2 SUB PUSH0 DUP4 ADD MSTORE PUSH2 0xBAC DUP2 PUSH2 0xB73 JUMP JUMPDEST SWAP1 POP SWAP2 SWAP1 POP JUMP JUMPDEST PUSH0 PUSH1 0x40 DUP3 ADD SWAP1 POP PUSH2 0xBC6 PUSH0 DUP4 ADD DUP6 PUSH2 0x937 JUMP JUMPDEST PUSH2 0xBD3 PUSH1 0x20 DUP4 ADD DUP5 PUSH2 0x8DF JUMP JUMPDEST SWAP4 SWAP3 POP POP POP JUMP JUMPDEST PUSH0 DUP2 ISZERO ISZERO SWAP1 POP SWAP2 SWAP1 POP JUMP JUMPDEST PUSH2 0xBEE DUP2 PUSH2 0xBDA JUMP JUMPDEST DUP2 EQ PUSH2 0xBF8 JUMPI PUSH0 DUP1 REVERT JUMPDEST POP JUMP JUMPDEST PUSH0 DUP2 MLOAD SWAP1 POP PUSH2 0xC09 DUP2 PUSH2 0xBE5 JUMP JUMPDEST SWAP3 SWAP2 POP POP JUMP JUMPDEST PUSH0 PUSH1 0x20 DUP3 DUP5 SUB SLT ISZERO PUSH2 0xC24 JUMPI PUSH2 0xC23 PUSH2 0x9D3 JUMP JUMPDEST JUMPDEST PUSH0 PUSH2 0xC31 DUP5 DUP3 DUP6 ADD PUSH2 0xBFB JUMP JUMPDEST SWAP2 POP POP SWAP3 SWAP2 POP POP JUMP JUMPDEST PUSH32 0x5472616E73666572206661696C65640000000000000000000000000000000000 PUSH0 DUP3 ADD MSTORE POP JUMP JUMPDEST PUSH0 PUSH2 0xC6E PUSH1 0xF DUP4 PUSH2 0xA2C JUMP JUMPDEST SWAP2 POP PUSH2 0xC79 DUP3 PUSH2 0xC3A JUMP JUMPDEST PUSH1 0x20 DUP3 ADD SWAP1 POP SWAP2 SWAP1 POP JUMP JUMPDEST PUSH0 PUSH1 0x20 DUP3 ADD SWAP1 POP DUP2 DUP2 SUB PUSH0 DUP4 ADD MSTORE PUSH2 0xC9B DUP2 PUSH2 0xC62 JUMP JUMPDEST SWAP1 POP SWAP2 SWAP1 POP JUMP JUMPDEST PUSH32 0x4E6F7420746865206F776E657200000000000000000000000000000000000000 PUSH0 DUP3 ADD MSTORE POP JUMP JUMPDEST PUSH0 PUSH2 0xCD6 PUSH1 0xD DUP4 PUSH2 0xA2C JUMP JUMPDEST SWAP2 POP PUSH2 0xCE1 DUP3 PUSH2 0xCA2 JUMP JUMPDEST PUSH1 0x20 DUP3 ADD SWAP1 POP SWAP2 SWAP1 POP JUMP JUMPDEST PUSH0 PUSH1 0x20 DUP3 ADD SWAP1 POP DUP2 DUP2 SUB PUSH0 DUP4 ADD MSTORE PUSH2 0xD03 DUP2 PUSH2 0xCCA JUMP JUMPDEST SWAP1 POP SWAP2 SWAP1 POP JUMP JUMPDEST PUSH32 0x4E6F20746F6B656E7320746F207265636F766572000000000000000000000000 PUSH0 DUP3 ADD MSTORE POP JUMP JUMPDEST PUSH0 PUSH2 0xD3E PUSH1 0x14 DUP4 PUSH2 0xA2C JUMP JUMPDEST SWAP2 POP PUSH2 0xD49 DUP3 PUSH2 0xD0A JUMP JUMPDEST PUSH1 0x20 DUP3 ADD SWAP1 POP SWAP2 SWAP1 POP JUMP JUMPDEST PUSH0 PUSH1 0x20 DUP3 ADD SWAP1 POP DUP2 DUP2 SUB PUSH0 DUP4 ADD MSTORE PUSH2 0xD6B DUP2 PUSH2 0xD32 JUMP JUMPDEST SWAP1 POP SWAP2 SWAP1 POP JUMP JUMPDEST PUSH32 0x416D6F756E742073686F756C642062652067726561746572207468616E203000 PUSH0 DUP3 ADD MSTORE POP JUMP JUMPDEST PUSH0 PUSH2 0xDA6 PUSH1 0x1F DUP4 PUSH2 0xA2C JUMP JUMPDEST SWAP2 POP PUSH2 0xDB1 DUP3 PUSH2 0xD72 JUMP JUMPDEST PUSH1 0x20 DUP3 ADD SWAP1 POP SWAP2 SWAP1 POP JUMP JUMPDEST PUSH0 PUSH1 0x20 DUP3 ADD SWAP1 POP DUP2 DUP2 SUB PUSH0 DUP4 ADD MSTORE PUSH2 0xDD3 DUP2 PUSH2 0xD9A JUMP JUMPDEST SWAP1 POP SWAP2 SWAP1 POP JUMP JUMPDEST PUSH0 PUSH1 0x60 DUP3 ADD SWAP1 POP PUSH2 0xDED PUSH0 DUP4 ADD DUP7 PUSH2 0x937 JUMP JUMPDEST PUSH2 0xDFA PUSH1 0x20 DUP4 ADD DUP6 PUSH2 0x937 JUMP JUMPDEST PUSH2 0xE07 PUSH1 0x40 DUP4 ADD DUP5 PUSH2 0x8DF JUMP JUMPDEST SWAP5 SWAP4 POP POP POP POP JUMP JUMPDEST PUSH0 PUSH1 0x40 DUP3 ADD SWAP1 POP PUSH2 0xE22 PUSH0 DUP4 ADD DUP6 PUSH2 0x8DF JUMP JUMPDEST PUSH2 0xE2F PUSH1 0x20 DUP4 ADD DUP5 PUSH2 0x8DF JUMP JUMPDEST SWAP4 SWAP3 POP POP POP JUMP INVALID LOG2 PUSH5 0x6970667358 0x22 SLT KECCAK256 SSTORE 0xAA DUP8 PUSH23 0xDB835468316FAC2EFEEF0A107CF892FDFCB5411537FAC PUSH5 0xDABB977064 PUSH20 0x6F6C634300081A00330000000000000000000000 "
				},
				"gasEstimates": {
					"creation": {
						"codeDepositCost": "738400",
						"executionCost": "infinite",
						"totalCost": "infinite"
					},
					"external": {
						"beneficiary()": "2531",
						"lock(uint256)": "infinite",
						"lpToken()": "infinite",
						"owner()": "2505",
						"recoverTokens()": "infinite",
						"unlock()": "infinite",
						"unlockTime()": "2426"
					}
				},
				"methodIdentifiers": {
					"beneficiary()": "38af3eed",
					"lock(uint256)": "dd467064",
					"lpToken()": "5fcbd285",
					"owner()": "8da5cb5b",
					"recoverTokens()": "b77f39fe",
					"unlock()": "a69df4b5",
					"unlockTime()": "251c1aa3"
				}
			},
			"storageLayout": {
				"storage": [
					{
						"astId": 82,
						"contract": "contracts/study3/LPLock.sol:LPLock",
						"label": "owner",
						"offset": 0,
						"slot": "0",
						"type": "t_address"
					},
					{
						"astId": 85,
						"contract": "contracts/study3/LPLock.sol:LPLock",
						"label": "lpToken",
						"offset": 0,
						"slot": "1",
						"type": "t_contract(IERC20)77"
					},
					{
						"astId": 87,
						"contract": "contracts/study3/LPLock.sol:LPLock",
						"label": "unlockTime",
						"offset": 0,
						"slot": "2",
						"type": "t_uint256"
					},
					{
						"astId": 89,
						"contract": "contracts/study3/LPLock.sol:LPLock",
						"label": "beneficiary",
						"offset": 0,
						"slot": "3",
						"type": "t_address"
					}
				],
				"types": {
					"t_address": {
						"encoding": "inplace",
						"label": "address",
						"numberOfBytes": "20"
					},
					"t_contract(IERC20)77": {
						"encoding": "inplace",
						"label": "contract IERC20",
						"numberOfBytes": "20"
					},
					"t_uint256": {
						"encoding": "inplace",
						"label": "uint256",
						"numberOfBytes": "32"
					}
				}
			},
			"userdoc": {
				"kind": "user",
				"methods": {},
				"version": 1
			}
		}
	}
}