{
	"contracts/study3/DutchAuction.sol": {
		"DutchAuction": {
			"abi": [
				{
					"inputs": [
						{
							"internalType": "uint256",
							"name": "_initialPrice",
							"type": "uint256"
						},
						{
							"internalType": "uint256",
							"name": "_finalPrice",
							"type": "uint256"
						},
						{
							"internalType": "uint256",
							"name": "_priceDecrement",
							"type": "uint256"
						},
						{
							"internalType": "uint256",
							"name": "_auctionDuration",
							"type": "uint256"
						}
					],
					"stateMutability": "payable",
					"type": "constructor"
				},
				{
					"anonymous": false,
					"inputs": [
						{
							"indexed": true,
							"internalType": "address",
							"name": "winner",
							"type": "address"
						},
						{
							"indexed": false,
							"internalType": "uint256",
							"name": "finalPrice",
							"type": "uint256"
						}
					],
					"name": "AuctionEnded",
					"type": "event"
				},
				{
					"anonymous": false,
					"inputs": [
						{
							"indexed": true,
							"internalType": "address",
							"name": "buyer",
							"type": "address"
						},
						{
							"indexed": false,
							"internalType": "uint256",
							"name": "price",
							"type": "uint256"
						}
					],
					"name": "ItemPurchased",
					"type": "event"
				},
				{
					"inputs": [],
					"name": "auctionDuration",
					"outputs": [
						{
							"internalType": "uint256",
							"name": "",
							"type": "uint256"
						}
					],
					"stateMutability": "view",
					"type": "function"
				},
				{
					"inputs": [],
					"name": "auctionEndTime",
					"outputs": [
						{
							"internalType": "uint256",
							"name": "",
							"type": "uint256"
						}
					],
					"stateMutability": "view",
					"type": "function"
				},
				{
					"inputs": [],
					"name": "auctionEnded",
					"outputs": [
						{
							"internalType": "bool",
							"name": "",
							"type": "bool"
						}
					],
					"stateMutability": "view",
					"type": "function"
				},
				{
					"inputs": [],
					"name": "auctionStartTime",
					"outputs": [
						{
							"internalType": "uint256",
							"name": "",
							"type": "uint256"
						}
					],
					"stateMutability": "view",
					"type": "function"
				},
				{
					"inputs": [],
					"name": "buyer",
					"outputs": [
						{
							"internalType": "address",
							"name": "",
							"type": "address"
						}
					],
					"stateMutability": "view",
					"type": "function"
				},
				{
					"inputs": [],
					"name": "cancelAuction",
					"outputs": [],
					"stateMutability": "nonpayable",
					"type": "function"
				},
				{
					"inputs": [],
					"name": "finalPrice",
					"outputs": [
						{
							"internalType": "uint256",
							"name": "",
							"type": "uint256"
						}
					],
					"stateMutability": "view",
					"type": "function"
				},
				{
					"inputs": [],
					"name": "getCurrentPrice",
					"outputs": [
						{
							"internalType": "uint256",
							"name": "",
							"type": "uint256"
						}
					],
					"stateMutability": "view",
					"type": "function"
				},
				{
					"inputs": [],
					"name": "getCurrentTime",
					"outputs": [
						{
							"internalType": "uint256",
							"name": "",
							"type": "uint256"
						}
					],
					"stateMutability": "view",
					"type": "function"
				},
				{
					"inputs": [],
					"name": "initialPrice",
					"outputs": [
						{
							"internalType": "uint256",
							"name": "",
							"type": "uint256"
						}
					],
					"stateMutability": "view",
					"type": "function"
				},
				{
					"inputs": [],
					"name": "money",
					"outputs": [
						{
							"internalType": "uint256",
							"name": "",
							"type": "uint256"
						}
					],
					"stateMutability": "view",
					"type": "function"
				},
				{
					"inputs": [],
					"name": "priceDecrement",
					"outputs": [
						{
							"internalType": "uint256",
							"name": "",
							"type": "uint256"
						}
					],
					"stateMutability": "view",
					"type": "function"
				},
				{
					"inputs": [],
					"name": "purchaseItem",
					"outputs": [],
					"stateMutability": "payable",
					"type": "function"
				},
				{
					"inputs": [],
					"name": "seller",
					"outputs": [
						{
							"internalType": "address",
							"name": "",
							"type": "address"
						}
					],
					"stateMutability": "view",
					"type": "function"
				},
				{
					"stateMutability": "payable",
					"type": "receive"
				}
			],
			"devdoc": {
				"kind": "dev",
				"methods": {},
				"version": 1
			},
			"evm": {
				"assembly": "    /* \"contracts/study3/DutchAuction.sol\":57:3177  contract DutchAuction {... */\n  mstore(0x40, 0x80)\n    /* \"contracts/study3/DutchAuction.sol\":528:533  false */\n  0x00\n    /* \"contracts/study3/DutchAuction.sol\":501:533  bool public auctionEnded = false */\n  0x07\n  exp(0x0100, 0x00)\n  dup2\n  sload\n  dup2\n  0xff\n  mul\n  not\n  and\n  swap1\n  dup4\n  iszero\n  iszero\n  mul\n  or\n  swap1\n  sstore\n  pop\n    /* \"contracts/study3/DutchAuction.sol\":815:1295  constructor(... */\n  mload(0x40)\n  sub(codesize, bytecodeSize)\n  dup1\n  bytecodeSize\n  dup4\n  codecopy\n  dup2\n  dup2\n  add\n  0x40\n  mstore\n  dup2\n  add\n  swap1\n  tag_1\n  swap2\n  swap1\n  tag_2\n  jump\t// in\ntag_1:\n    /* \"contracts/study3/DutchAuction.sol\":987:997  msg.sender */\n  caller\n    /* \"contracts/study3/DutchAuction.sol\":978:984  seller */\n  0x00\n  dup1\n    /* \"contracts/study3/DutchAuction.sol\":978:997  seller = msg.sender */\n  0x0100\n  exp\n  dup2\n  sload\n  dup2\n  0xffffffffffffffffffffffffffffffffffffffff\n  mul\n  not\n  and\n  swap1\n  dup4\n  0xffffffffffffffffffffffffffffffffffffffff\n  and\n  mul\n  or\n  swap1\n  sstore\n  pop\n    /* \"contracts/study3/DutchAuction.sol\":1022:1035  _initialPrice */\n  dup4\n    /* \"contracts/study3/DutchAuction.sol\":1007:1019  initialPrice */\n  0x01\n    /* \"contracts/study3/DutchAuction.sol\":1007:1035  initialPrice = _initialPrice */\n  dup2\n  swap1\n  sstore\n  pop\n    /* \"contracts/study3/DutchAuction.sol\":1058:1069  _finalPrice */\n  dup3\n    /* \"contracts/study3/DutchAuction.sol\":1045:1055  finalPrice */\n  0x02\n    /* \"contracts/study3/DutchAuction.sol\":1045:1069  finalPrice = _finalPrice */\n  dup2\n  swap1\n  sstore\n  pop\n    /* \"contracts/study3/DutchAuction.sol\":1096:1111  _priceDecrement */\n  dup2\n    /* \"contracts/study3/DutchAuction.sol\":1079:1093  priceDecrement */\n  0x03\n    /* \"contracts/study3/DutchAuction.sol\":1079:1111  priceDecrement = _priceDecrement */\n  dup2\n  swap1\n  sstore\n  pop\n    /* \"contracts/study3/DutchAuction.sol\":1139:1155  _auctionDuration */\n  dup1\n    /* \"contracts/study3/DutchAuction.sol\":1121:1136  auctionDuration */\n  0x05\n    /* \"contracts/study3/DutchAuction.sol\":1121:1155  auctionDuration = _auctionDuration */\n  dup2\n  swap1\n  sstore\n  pop\n    /* \"contracts/study3/DutchAuction.sol\":1184:1199  block.timestamp */\n  timestamp\n    /* \"contracts/study3/DutchAuction.sol\":1165:1181  auctionStartTime */\n  0x04\n    /* \"contracts/study3/DutchAuction.sol\":1165:1199  auctionStartTime = block.timestamp */\n  dup2\n  swap1\n  sstore\n  pop\n    /* \"contracts/study3/DutchAuction.sol\":1245:1261  _auctionDuration */\n  dup1\n    /* \"contracts/study3/DutchAuction.sol\":1226:1242  auctionStartTime */\n  sload(0x04)\n    /* \"contracts/study3/DutchAuction.sol\":1226:1261  auctionStartTime + _auctionDuration */\n  tag_5\n  swap2\n  swap1\n  tag_6\n  jump\t// in\ntag_5:\n    /* \"contracts/study3/DutchAuction.sol\":1209:1223  auctionEndTime */\n  0x06\n    /* \"contracts/study3/DutchAuction.sol\":1209:1261  auctionEndTime = auctionStartTime + _auctionDuration */\n  dup2\n  swap1\n  sstore\n  pop\n    /* \"contracts/study3/DutchAuction.sol\":1279:1288  msg.value */\n  callvalue\n    /* \"contracts/study3/DutchAuction.sol\":1271:1276  money */\n  0x08\n    /* \"contracts/study3/DutchAuction.sol\":1271:1288  money = msg.value */\n  dup2\n  swap1\n  sstore\n  pop\n    /* \"contracts/study3/DutchAuction.sol\":815:1295  constructor(... */\n  pop\n  pop\n  pop\n  pop\n    /* \"contracts/study3/DutchAuction.sol\":57:3177  contract DutchAuction {... */\n  jump(tag_7)\n    /* \"#utility.yul\":88:205   */\ntag_9:\n    /* \"#utility.yul\":197:198   */\n  0x00\n    /* \"#utility.yul\":194:195   */\n  dup1\n    /* \"#utility.yul\":187:199   */\n  revert\n    /* \"#utility.yul\":334:411   */\ntag_11:\n    /* \"#utility.yul\":371:378   */\n  0x00\n    /* \"#utility.yul\":400:405   */\n  dup2\n    /* \"#utility.yul\":389:405   */\n  swap1\n  pop\n    /* \"#utility.yul\":334:411   */\n  swap2\n  swap1\n  pop\n  jump\t// out\n    /* \"#utility.yul\":417:539   */\ntag_12:\n    /* \"#utility.yul\":490:514   */\n  tag_21\n    /* \"#utility.yul\":508:513   */\n  dup2\n    /* \"#utility.yul\":490:514   */\n  tag_11\n  jump\t// in\ntag_21:\n    /* \"#utility.yul\":483:488   */\n  dup2\n    /* \"#utility.yul\":480:515   */\n  eq\n    /* \"#utility.yul\":470:533   */\n  tag_22\n  jumpi\n    /* \"#utility.yul\":529:530   */\n  0x00\n    /* \"#utility.yul\":526:527   */\n  dup1\n    /* \"#utility.yul\":519:531   */\n  revert\n    /* \"#utility.yul\":470:533   */\ntag_22:\n    /* \"#utility.yul\":417:539   */\n  pop\n  jump\t// out\n    /* \"#utility.yul\":545:688   */\ntag_13:\n    /* \"#utility.yul\":602:607   */\n  0x00\n    /* \"#utility.yul\":633:639   */\n  dup2\n    /* \"#utility.yul\":627:640   */\n  mload\n    /* \"#utility.yul\":618:640   */\n  swap1\n  pop\n    /* \"#utility.yul\":649:682   */\n  tag_24\n    /* \"#utility.yul\":676:681   */\n  dup2\n    /* \"#utility.yul\":649:682   */\n  tag_12\n  jump\t// in\ntag_24:\n    /* \"#utility.yul\":545:688   */\n  swap3\n  swap2\n  pop\n  pop\n  jump\t// out\n    /* \"#utility.yul\":694:1514   */\ntag_2:\n    /* \"#utility.yul\":791:797   */\n  0x00\n    /* \"#utility.yul\":799:805   */\n  dup1\n    /* \"#utility.yul\":807:813   */\n  0x00\n    /* \"#utility.yul\":815:821   */\n  dup1\n    /* \"#utility.yul\":864:867   */\n  0x80\n    /* \"#utility.yul\":852:861   */\n  dup6\n    /* \"#utility.yul\":843:850   */\n  dup8\n    /* \"#utility.yul\":839:862   */\n  sub\n    /* \"#utility.yul\":835:868   */\n  slt\n    /* \"#utility.yul\":832:952   */\n  iszero\n  tag_26\n  jumpi\n    /* \"#utility.yul\":871:950   */\n  tag_27\n  tag_9\n  jump\t// in\ntag_27:\n    /* \"#utility.yul\":832:952   */\ntag_26:\n    /* \"#utility.yul\":991:992   */\n  0x00\n    /* \"#utility.yul\":1016:1080   */\n  tag_28\n    /* \"#utility.yul\":1072:1079   */\n  dup8\n    /* \"#utility.yul\":1063:1069   */\n  dup3\n    /* \"#utility.yul\":1052:1061   */\n  dup9\n    /* \"#utility.yul\":1048:1070   */\n  add\n    /* \"#utility.yul\":1016:1080   */\n  tag_13\n  jump\t// in\ntag_28:\n    /* \"#utility.yul\":1006:1080   */\n  swap5\n  pop\n    /* \"#utility.yul\":962:1090   */\n  pop\n    /* \"#utility.yul\":1129:1131   */\n  0x20\n    /* \"#utility.yul\":1155:1219   */\n  tag_29\n    /* \"#utility.yul\":1211:1218   */\n  dup8\n    /* \"#utility.yul\":1202:1208   */\n  dup3\n    /* \"#utility.yul\":1191:1200   */\n  dup9\n    /* \"#utility.yul\":1187:1209   */\n  add\n    /* \"#utility.yul\":1155:1219   */\n  tag_13\n  jump\t// in\ntag_29:\n    /* \"#utility.yul\":1145:1219   */\n  swap4\n  pop\n    /* \"#utility.yul\":1100:1229   */\n  pop\n    /* \"#utility.yul\":1268:1270   */\n  0x40\n    /* \"#utility.yul\":1294:1358   */\n  tag_30\n    /* \"#utility.yul\":1350:1357   */\n  dup8\n    /* \"#utility.yul\":1341:1347   */\n  dup3\n    /* \"#utility.yul\":1330:1339   */\n  dup9\n    /* \"#utility.yul\":1326:1348   */\n  add\n    /* \"#utility.yul\":1294:1358   */\n  tag_13\n  jump\t// in\ntag_30:\n    /* \"#utility.yul\":1284:1358   */\n  swap3\n  pop\n    /* \"#utility.yul\":1239:1368   */\n  pop\n    /* \"#utility.yul\":1407:1409   */\n  0x60\n    /* \"#utility.yul\":1433:1497   */\n  tag_31\n    /* \"#utility.yul\":1489:1496   */\n  dup8\n    /* \"#utility.yul\":1480:1486   */\n  dup3\n    /* \"#utility.yul\":1469:1478   */\n  dup9\n    /* \"#utility.yul\":1465:1487   */\n  add\n    /* \"#utility.yul\":1433:1497   */\n  tag_13\n  jump\t// in\ntag_31:\n    /* \"#utility.yul\":1423:1497   */\n  swap2\n  pop\n    /* \"#utility.yul\":1378:1507   */\n  pop\n    /* \"#utility.yul\":694:1514   */\n  swap3\n  swap6\n  swap2\n  swap5\n  pop\n  swap3\n  pop\n  jump\t// out\n    /* \"#utility.yul\":1520:1700   */\ntag_14:\n    /* \"#utility.yul\":1568:1645   */\n  0x4e487b7100000000000000000000000000000000000000000000000000000000\n    /* \"#utility.yul\":1565:1566   */\n  0x00\n    /* \"#utility.yul\":1558:1646   */\n  mstore\n    /* \"#utility.yul\":1665:1669   */\n  0x11\n    /* \"#utility.yul\":1662:1663   */\n  0x04\n    /* \"#utility.yul\":1655:1670   */\n  mstore\n    /* \"#utility.yul\":1689:1693   */\n  0x24\n    /* \"#utility.yul\":1686:1687   */\n  0x00\n    /* \"#utility.yul\":1679:1694   */\n  revert\n    /* \"#utility.yul\":1706:1897   */\ntag_6:\n    /* \"#utility.yul\":1746:1749   */\n  0x00\n    /* \"#utility.yul\":1765:1785   */\n  tag_34\n    /* \"#utility.yul\":1783:1784   */\n  dup3\n    /* \"#utility.yul\":1765:1785   */\n  tag_11\n  jump\t// in\ntag_34:\n    /* \"#utility.yul\":1760:1785   */\n  swap2\n  pop\n    /* \"#utility.yul\":1799:1819   */\n  tag_35\n    /* \"#utility.yul\":1817:1818   */\n  dup4\n    /* \"#utility.yul\":1799:1819   */\n  tag_11\n  jump\t// in\ntag_35:\n    /* \"#utility.yul\":1794:1819   */\n  swap3\n  pop\n    /* \"#utility.yul\":1842:1843   */\n  dup3\n    /* \"#utility.yul\":1839:1840   */\n  dup3\n    /* \"#utility.yul\":1835:1844   */\n  add\n    /* \"#utility.yul\":1828:1844   */\n  swap1\n  pop\n    /* \"#utility.yul\":1863:1866   */\n  dup1\n    /* \"#utility.yul\":1860:1861   */\n  dup3\n    /* \"#utility.yul\":1857:1867   */\n  gt\n    /* \"#utility.yul\":1854:1890   */\n  iszero\n  tag_36\n  jumpi\n    /* \"#utility.yul\":1870:1888   */\n  tag_37\n  tag_14\n  jump\t// in\ntag_37:\n    /* \"#utility.yul\":1854:1890   */\ntag_36:\n    /* \"#utility.yul\":1706:1897   */\n  swap3\n  swap2\n  pop\n  pop\n  jump\t// out\n    /* \"contracts/study3/DutchAuction.sol\":57:3177  contract DutchAuction {... */\ntag_7:\n  dataSize(sub_0)\n  dup1\n  dataOffset(sub_0)\n  0x00\n  codecopy\n  0x00\n  return\nstop\n\nsub_0: assembly {\n        /* \"contracts/study3/DutchAuction.sol\":57:3177  contract DutchAuction {... */\n      mstore(0x40, 0x80)\n      jumpi(tag_1, lt(calldatasize, 0x04))\n      shr(0xe0, calldataload(0x00))\n      dup1\n      0x7150d8ae\n      gt\n      tag_17\n      jumpi\n      dup1\n      0xa6b513ee\n      gt\n      tag_18\n      jumpi\n      dup1\n      0xa6b513ee\n      eq\n      tag_13\n      jumpi\n      dup1\n      0xe0d0c4a6\n      eq\n      tag_14\n      jumpi\n      dup1\n      0xeb54f9ec\n      eq\n      tag_15\n      jumpi\n      dup1\n      0xeb91d37e\n      eq\n      tag_16\n      jumpi\n      jump(tag_2)\n    tag_18:\n      dup1\n      0x7150d8ae\n      eq\n      tag_10\n      jumpi\n      dup1\n      0x86433374\n      eq\n      tag_11\n      jumpi\n      dup1\n      0x8fa8b790\n      eq\n      tag_12\n      jumpi\n      jump(tag_2)\n    tag_17:\n      dup1\n      0x26cddbfb\n      gt\n      tag_19\n      jumpi\n      dup1\n      0x26cddbfb\n      eq\n      tag_6\n      jumpi\n      dup1\n      0x29cb924d\n      eq\n      tag_7\n      jumpi\n      dup1\n      0x4b449cba\n      eq\n      tag_8\n      jumpi\n      dup1\n      0x4ddd108a\n      eq\n      tag_9\n      jumpi\n      jump(tag_2)\n    tag_19:\n      dup1\n      0x08551a53\n      eq\n      tag_3\n      jumpi\n      dup1\n      0x0cbf54c8\n      eq\n      tag_4\n      jumpi\n      dup1\n      0x1d0806ae\n      eq\n      tag_5\n      jumpi\n      jump(tag_2)\n    tag_1:\n      jumpi(tag_2, calldatasize)\n        /* \"contracts/study3/DutchAuction.sol\":1346:1355  msg.value */\n      callvalue\n        /* \"contracts/study3/DutchAuction.sol\":1338:1343  money */\n      0x08\n        /* \"contracts/study3/DutchAuction.sol\":1338:1355  money = msg.value */\n      dup2\n      swap1\n      sstore\n      stop\n        /* \"contracts/study3/DutchAuction.sol\":57:3177  contract DutchAuction {... */\n    tag_2:\n      0x00\n      dup1\n      revert\n        /* \"contracts/study3/DutchAuction.sol\":105:126  address public seller */\n    tag_3:\n      callvalue\n      dup1\n      iszero\n      tag_22\n      jumpi\n      0x00\n      dup1\n      revert\n    tag_22:\n      pop\n      tag_23\n      tag_24\n      jump\t// in\n    tag_23:\n      mload(0x40)\n      tag_25\n      swap2\n      swap1\n      tag_26\n      jump\t// in\n    tag_25:\n      mload(0x40)\n      dup1\n      swap2\n      sub\n      swap1\n      return\n        /* \"contracts/study3/DutchAuction.sol\":377:407  uint256 public auctionDuration */\n    tag_4:\n      callvalue\n      dup1\n      iszero\n      tag_27\n      jumpi\n      0x00\n      dup1\n      revert\n    tag_27:\n      pop\n      tag_28\n      tag_29\n      jump\t// in\n    tag_28:\n      mload(0x40)\n      tag_30\n      swap2\n      swap1\n      tag_31\n      jump\t// in\n    tag_30:\n      mload(0x40)\n      dup1\n      swap2\n      sub\n      swap1\n      return\n        /* \"contracts/study3/DutchAuction.sol\":132:159  uint256 public initialPrice */\n    tag_5:\n      callvalue\n      dup1\n      iszero\n      tag_32\n      jumpi\n      0x00\n      dup1\n      revert\n    tag_32:\n      pop\n      tag_33\n      tag_34\n      jump\t// in\n    tag_33:\n      mload(0x40)\n      tag_35\n      swap2\n      swap1\n      tag_31\n      jump\t// in\n    tag_35:\n      mload(0x40)\n      dup1\n      swap2\n      sub\n      swap1\n      return\n        /* \"contracts/study3/DutchAuction.sol\":252:281  uint256 public priceDecrement */\n    tag_6:\n      callvalue\n      dup1\n      iszero\n      tag_36\n      jumpi\n      0x00\n      dup1\n      revert\n    tag_36:\n      pop\n      tag_37\n      tag_38\n      jump\t// in\n    tag_37:\n      mload(0x40)\n      tag_39\n      swap2\n      swap1\n      tag_31\n      jump\t// in\n    tag_39:\n      mload(0x40)\n      dup1\n      swap2\n      sub\n      swap1\n      return\n        /* \"contracts/study3/DutchAuction.sol\":3078:3175  function getCurrentTime() external view returns (uint256) {... */\n    tag_7:\n      callvalue\n      dup1\n      iszero\n      tag_40\n      jumpi\n      0x00\n      dup1\n      revert\n    tag_40:\n      pop\n      tag_41\n      tag_42\n      jump\t// in\n    tag_41:\n      mload(0x40)\n      tag_43\n      swap2\n      swap1\n      tag_31\n      jump\t// in\n    tag_43:\n      mload(0x40)\n      dup1\n      swap2\n      sub\n      swap1\n      return\n        /* \"contracts/study3/DutchAuction.sol\":444:473  uint256 public auctionEndTime */\n    tag_8:\n      callvalue\n      dup1\n      iszero\n      tag_44\n      jumpi\n      0x00\n      dup1\n      revert\n    tag_44:\n      pop\n      tag_45\n      tag_46\n      jump\t// in\n    tag_45:\n      mload(0x40)\n      tag_47\n      swap2\n      swap1\n      tag_31\n      jump\t// in\n    tag_47:\n      mload(0x40)\n      dup1\n      swap2\n      sub\n      swap1\n      return\n        /* \"contracts/study3/DutchAuction.sol\":539:559  uint256 public money */\n    tag_9:\n      callvalue\n      dup1\n      iszero\n      tag_48\n      jumpi\n      0x00\n      dup1\n      revert\n    tag_48:\n      pop\n      tag_49\n      tag_50\n      jump\t// in\n    tag_49:\n      mload(0x40)\n      tag_51\n      swap2\n      swap1\n      tag_31\n      jump\t// in\n    tag_51:\n      mload(0x40)\n      dup1\n      swap2\n      sub\n      swap1\n      return\n        /* \"contracts/study3/DutchAuction.sol\":592:612  address public buyer */\n    tag_10:\n      callvalue\n      dup1\n      iszero\n      tag_52\n      jumpi\n      0x00\n      dup1\n      revert\n    tag_52:\n      pop\n      tag_53\n      tag_54\n      jump\t// in\n    tag_53:\n      mload(0x40)\n      tag_55\n      swap2\n      swap1\n      tag_26\n      jump\t// in\n    tag_55:\n      mload(0x40)\n      dup1\n      swap2\n      sub\n      swap1\n      return\n        /* \"contracts/study3/DutchAuction.sol\":501:533  bool public auctionEnded = false */\n    tag_11:\n      callvalue\n      dup1\n      iszero\n      tag_56\n      jumpi\n      0x00\n      dup1\n      revert\n    tag_56:\n      pop\n      tag_57\n      tag_58\n      jump\t// in\n    tag_57:\n      mload(0x40)\n      tag_59\n      swap2\n      swap1\n      tag_60\n      jump\t// in\n    tag_59:\n      mload(0x40)\n      dup1\n      swap2\n      sub\n      swap1\n      return\n        /* \"contracts/study3/DutchAuction.sol\":2833:3043  function cancelAuction() external {... */\n    tag_12:\n      callvalue\n      dup1\n      iszero\n      tag_61\n      jumpi\n      0x00\n      dup1\n      revert\n    tag_61:\n      pop\n      tag_62\n      tag_63\n      jump\t// in\n    tag_62:\n      stop\n        /* \"contracts/study3/DutchAuction.sol\":181:206  uint256 public finalPrice */\n    tag_13:\n      callvalue\n      dup1\n      iszero\n      tag_64\n      jumpi\n      0x00\n      dup1\n      revert\n    tag_64:\n      pop\n      tag_65\n      tag_66\n      jump\t// in\n    tag_65:\n      mload(0x40)\n      tag_67\n      swap2\n      swap1\n      tag_31\n      jump\t// in\n    tag_67:\n      mload(0x40)\n      dup1\n      swap2\n      sub\n      swap1\n      return\n        /* \"contracts/study3/DutchAuction.sol\":2091:2783  function purchaseItem() external payable {... */\n    tag_14:\n      tag_68\n      tag_69\n      jump\t// in\n    tag_68:\n      stop\n        /* \"contracts/study3/DutchAuction.sol\":318:349  uint256 public auctionStartTime */\n    tag_15:\n      callvalue\n      dup1\n      iszero\n      tag_70\n      jumpi\n      0x00\n      dup1\n      revert\n    tag_70:\n      pop\n      tag_71\n      tag_72\n      jump\t// in\n    tag_71:\n      mload(0x40)\n      tag_73\n      swap2\n      swap1\n      tag_31\n      jump\t// in\n    tag_73:\n      mload(0x40)\n      dup1\n      swap2\n      sub\n      swap1\n      return\n        /* \"contracts/study3/DutchAuction.sol\":1394:2059  function getCurrentPrice() public view returns (uint256) {... */\n    tag_16:\n      callvalue\n      dup1\n      iszero\n      tag_74\n      jumpi\n      0x00\n      dup1\n      revert\n    tag_74:\n      pop\n      tag_75\n      tag_76\n      jump\t// in\n    tag_75:\n      mload(0x40)\n      tag_77\n      swap2\n      swap1\n      tag_31\n      jump\t// in\n    tag_77:\n      mload(0x40)\n      dup1\n      swap2\n      sub\n      swap1\n      return\n        /* \"contracts/study3/DutchAuction.sol\":105:126  address public seller */\n    tag_24:\n      0x00\n      dup1\n      sload\n      swap1\n      0x0100\n      exp\n      swap1\n      div\n      0xffffffffffffffffffffffffffffffffffffffff\n      and\n      dup2\n      jump\t// out\n        /* \"contracts/study3/DutchAuction.sol\":377:407  uint256 public auctionDuration */\n    tag_29:\n      sload(0x05)\n      dup2\n      jump\t// out\n        /* \"contracts/study3/DutchAuction.sol\":132:159  uint256 public initialPrice */\n    tag_34:\n      sload(0x01)\n      dup2\n      jump\t// out\n        /* \"contracts/study3/DutchAuction.sol\":252:281  uint256 public priceDecrement */\n    tag_38:\n      sload(0x03)\n      dup2\n      jump\t// out\n        /* \"contracts/study3/DutchAuction.sol\":3078:3175  function getCurrentTime() external view returns (uint256) {... */\n    tag_42:\n        /* \"contracts/study3/DutchAuction.sol\":3127:3134  uint256 */\n      0x00\n        /* \"contracts/study3/DutchAuction.sol\":3153:3168  block.timestamp */\n      timestamp\n        /* \"contracts/study3/DutchAuction.sol\":3146:3168  return block.timestamp */\n      swap1\n      pop\n        /* \"contracts/study3/DutchAuction.sol\":3078:3175  function getCurrentTime() external view returns (uint256) {... */\n      swap1\n      jump\t// out\n        /* \"contracts/study3/DutchAuction.sol\":444:473  uint256 public auctionEndTime */\n    tag_46:\n      sload(0x06)\n      dup2\n      jump\t// out\n        /* \"contracts/study3/DutchAuction.sol\":539:559  uint256 public money */\n    tag_50:\n      sload(0x08)\n      dup2\n      jump\t// out\n        /* \"contracts/study3/DutchAuction.sol\":592:612  address public buyer */\n    tag_54:\n      0x09\n      0x00\n      swap1\n      sload\n      swap1\n      0x0100\n      exp\n      swap1\n      div\n      0xffffffffffffffffffffffffffffffffffffffff\n      and\n      dup2\n      jump\t// out\n        /* \"contracts/study3/DutchAuction.sol\":501:533  bool public auctionEnded = false */\n    tag_58:\n      0x07\n      0x00\n      swap1\n      sload\n      swap1\n      0x0100\n      exp\n      swap1\n      div\n      0xff\n      and\n      dup2\n      jump\t// out\n        /* \"contracts/study3/DutchAuction.sol\":2833:3043  function cancelAuction() external {... */\n    tag_63:\n        /* \"contracts/study3/DutchAuction.sol\":2899:2905  seller */\n      0x00\n      dup1\n      sload\n      swap1\n      0x0100\n      exp\n      swap1\n      div\n      0xffffffffffffffffffffffffffffffffffffffff\n      and\n        /* \"contracts/study3/DutchAuction.sol\":2885:2905  msg.sender == seller */\n      0xffffffffffffffffffffffffffffffffffffffff\n      and\n        /* \"contracts/study3/DutchAuction.sol\":2885:2895  msg.sender */\n      caller\n        /* \"contracts/study3/DutchAuction.sol\":2885:2905  msg.sender == seller */\n      0xffffffffffffffffffffffffffffffffffffffff\n      and\n      eq\n        /* \"contracts/study3/DutchAuction.sol\":2877:2945  require(msg.sender == seller, \"Only seller can cancel the auction.\") */\n      tag_80\n      jumpi\n      mload(0x40)\n      0x08c379a000000000000000000000000000000000000000000000000000000000\n      dup2\n      mstore\n      0x04\n      add\n      tag_81\n      swap1\n      tag_82\n      jump\t// in\n    tag_81:\n      mload(0x40)\n      dup1\n      swap2\n      sub\n      swap1\n      revert\n    tag_80:\n        /* \"contracts/study3/DutchAuction.sol\":2964:2976  auctionEnded */\n      0x07\n      0x00\n      swap1\n      sload\n      swap1\n      0x0100\n      exp\n      swap1\n      div\n      0xff\n      and\n        /* \"contracts/study3/DutchAuction.sol\":2963:2976  !auctionEnded */\n      iszero\n        /* \"contracts/study3/DutchAuction.sol\":2955:3007  require(!auctionEnded, \"Auction has already ended.\") */\n      tag_83\n      jumpi\n      mload(0x40)\n      0x08c379a000000000000000000000000000000000000000000000000000000000\n      dup2\n      mstore\n      0x04\n      add\n      tag_84\n      swap1\n      tag_85\n      jump\t// in\n    tag_84:\n      mload(0x40)\n      dup1\n      swap2\n      sub\n      swap1\n      revert\n    tag_83:\n        /* \"contracts/study3/DutchAuction.sol\":3032:3036  true */\n      0x01\n        /* \"contracts/study3/DutchAuction.sol\":3017:3029  auctionEnded */\n      0x07\n      0x00\n        /* \"contracts/study3/DutchAuction.sol\":3017:3036  auctionEnded = true */\n      0x0100\n      exp\n      dup2\n      sload\n      dup2\n      0xff\n      mul\n      not\n      and\n      swap1\n      dup4\n      iszero\n      iszero\n      mul\n      or\n      swap1\n      sstore\n      pop\n        /* \"contracts/study3/DutchAuction.sol\":2833:3043  function cancelAuction() external {... */\n      jump\t// out\n        /* \"contracts/study3/DutchAuction.sol\":181:206  uint256 public finalPrice */\n    tag_66:\n      sload(0x02)\n      dup2\n      jump\t// out\n        /* \"contracts/study3/DutchAuction.sol\":2091:2783  function purchaseItem() external payable {... */\n    tag_69:\n        /* \"contracts/study3/DutchAuction.sol\":2182:2198  auctionStartTime */\n      sload(0x04)\n        /* \"contracts/study3/DutchAuction.sol\":2163:2178  block.timestamp */\n      timestamp\n        /* \"contracts/study3/DutchAuction.sol\":2163:2198  block.timestamp >= auctionStartTime */\n      lt\n      iszero\n        /* \"contracts/study3/DutchAuction.sol\":2142:2251  require(... */\n      tag_87\n      jumpi\n      mload(0x40)\n      0x08c379a000000000000000000000000000000000000000000000000000000000\n      dup2\n      mstore\n      0x04\n      add\n      tag_88\n      swap1\n      tag_89\n      jump\t// in\n    tag_88:\n      mload(0x40)\n      dup1\n      swap2\n      sub\n      swap1\n      revert\n    tag_87:\n        /* \"contracts/study3/DutchAuction.sol\":2301:2315  auctionEndTime */\n      sload(0x06)\n        /* \"contracts/study3/DutchAuction.sol\":2282:2297  block.timestamp */\n      timestamp\n        /* \"contracts/study3/DutchAuction.sol\":2282:2315  block.timestamp <= auctionEndTime */\n      gt\n      iszero\n        /* \"contracts/study3/DutchAuction.sol\":2261:2367  require(... */\n      tag_90\n      jumpi\n      mload(0x40)\n      0x08c379a000000000000000000000000000000000000000000000000000000000\n      dup2\n      mstore\n      0x04\n      add\n      tag_91\n      swap1\n      tag_85\n      jump\t// in\n    tag_91:\n      mload(0x40)\n      dup1\n      swap2\n      sub\n      swap1\n      revert\n    tag_90:\n        /* \"contracts/study3/DutchAuction.sol\":2394:2411  getCurrentPrice() */\n      tag_92\n        /* \"contracts/study3/DutchAuction.sol\":2394:2409  getCurrentPrice */\n      tag_76\n        /* \"contracts/study3/DutchAuction.sol\":2394:2411  getCurrentPrice() */\n      jump\t// in\n    tag_92:\n        /* \"contracts/study3/DutchAuction.sol\":2385:2390  money */\n      sload(0x08)\n        /* \"contracts/study3/DutchAuction.sol\":2385:2411  money >= getCurrentPrice() */\n      lt\n      iszero\n        /* \"contracts/study3/DutchAuction.sol\":2377:2447  require(money >= getCurrentPrice(), \"Insufficient funds to purchase.\") */\n      tag_93\n      jumpi\n      mload(0x40)\n      0x08c379a000000000000000000000000000000000000000000000000000000000\n      dup2\n      mstore\n      0x04\n      add\n      tag_94\n      swap1\n      tag_95\n      jump\t// in\n    tag_94:\n      mload(0x40)\n      dup1\n      swap2\n      sub\n      swap1\n      revert\n    tag_93:\n        /* \"contracts/study3/DutchAuction.sol\":2466:2478  auctionEnded */\n      0x07\n      0x00\n      swap1\n      sload\n      swap1\n      0x0100\n      exp\n      swap1\n      div\n      0xff\n      and\n        /* \"contracts/study3/DutchAuction.sol\":2465:2478  !auctionEnded */\n      iszero\n        /* \"contracts/study3/DutchAuction.sol\":2457:2509  require(!auctionEnded, \"Auction has already ended.\") */\n      tag_96\n      jumpi\n      mload(0x40)\n      0x08c379a000000000000000000000000000000000000000000000000000000000\n      dup2\n      mstore\n      0x04\n      add\n      tag_97\n      swap1\n      tag_85\n      jump\t// in\n    tag_97:\n      mload(0x40)\n      dup1\n      swap2\n      sub\n      swap1\n      revert\n    tag_96:\n        /* \"contracts/study3/DutchAuction.sol\":2552:2562  msg.sender */\n      caller\n        /* \"contracts/study3/DutchAuction.sol\":2544:2549  buyer */\n      0x09\n      0x00\n        /* \"contracts/study3/DutchAuction.sol\":2544:2562  buyer = msg.sender */\n      0x0100\n      exp\n      dup2\n      sload\n      dup2\n      0xffffffffffffffffffffffffffffffffffffffff\n      mul\n      not\n      and\n      swap1\n      dup4\n      0xffffffffffffffffffffffffffffffffffffffff\n      and\n      mul\n      or\n      swap1\n      sstore\n      pop\n        /* \"contracts/study3/DutchAuction.sol\":2587:2591  true */\n      0x01\n        /* \"contracts/study3/DutchAuction.sol\":2572:2584  auctionEnded */\n      0x07\n      0x00\n        /* \"contracts/study3/DutchAuction.sol\":2572:2591  auctionEnded = true */\n      0x0100\n      exp\n      dup2\n      sload\n      dup2\n      0xff\n      mul\n      not\n      and\n      swap1\n      dup4\n      iszero\n      iszero\n      mul\n      or\n      swap1\n      sstore\n      pop\n        /* \"contracts/study3/DutchAuction.sol\":2649:2655  seller */\n      0x00\n      dup1\n      sload\n      swap1\n      0x0100\n      exp\n      swap1\n      div\n      0xffffffffffffffffffffffffffffffffffffffff\n      and\n        /* \"contracts/study3/DutchAuction.sol\":2641:2665  payable(seller).transfer */\n      0xffffffffffffffffffffffffffffffffffffffff\n      and\n        /* \"contracts/study3/DutchAuction.sol\":2641:2676  payable(seller).transfer(msg.value) */\n      0x08fc\n        /* \"contracts/study3/DutchAuction.sol\":2666:2675  msg.value */\n      callvalue\n        /* \"contracts/study3/DutchAuction.sol\":2641:2676  payable(seller).transfer(msg.value) */\n      swap1\n      dup2\n      iszero\n      mul\n      swap1\n      mload(0x40)\n      0x00\n      mload(0x40)\n      dup1\n      dup4\n      sub\n      dup2\n      dup6\n      dup9\n      dup9\n      call\n      swap4\n      pop\n      pop\n      pop\n      pop\n      iszero\n      dup1\n      iszero\n      tag_99\n      jumpi\n      returndatasize\n      0x00\n      dup1\n      returndatacopy\n      revert(0x00, returndatasize)\n    tag_99:\n      pop\n        /* \"contracts/study3/DutchAuction.sol\":2706:2711  buyer */\n      0x09\n      0x00\n      swap1\n      sload\n      swap1\n      0x0100\n      exp\n      swap1\n      div\n      0xffffffffffffffffffffffffffffffffffffffff\n      and\n        /* \"contracts/study3/DutchAuction.sol\":2692:2723  ItemPurchased(buyer, msg.value) */\n      0xffffffffffffffffffffffffffffffffffffffff\n      and\n      0x792fe07c0f3ce4ef42df79c4a2b07925168cddbaabf7a7ef1351f027a3760313\n        /* \"contracts/study3/DutchAuction.sol\":2713:2722  msg.value */\n      callvalue\n        /* \"contracts/study3/DutchAuction.sol\":2692:2723  ItemPurchased(buyer, msg.value) */\n      mload(0x40)\n      tag_100\n      swap2\n      swap1\n      tag_31\n      jump\t// in\n    tag_100:\n      mload(0x40)\n      dup1\n      swap2\n      sub\n      swap1\n      log2\n        /* \"contracts/study3/DutchAuction.sol\":2751:2756  buyer */\n      0x09\n      0x00\n      swap1\n      sload\n      swap1\n      0x0100\n      exp\n      swap1\n      div\n      0xffffffffffffffffffffffffffffffffffffffff\n      and\n        /* \"contracts/study3/DutchAuction.sol\":2738:2776  AuctionEnded(buyer, getCurrentPrice()) */\n      0xffffffffffffffffffffffffffffffffffffffff\n      and\n      0xdaec4582d5d9595688c8c98545fdd1c696d41c6aeaeb636737e84ed2f5c00eda\n        /* \"contracts/study3/DutchAuction.sol\":2758:2775  getCurrentPrice() */\n      tag_101\n        /* \"contracts/study3/DutchAuction.sol\":2758:2773  getCurrentPrice */\n      tag_76\n        /* \"contracts/study3/DutchAuction.sol\":2758:2775  getCurrentPrice() */\n      jump\t// in\n    tag_101:\n        /* \"contracts/study3/DutchAuction.sol\":2738:2776  AuctionEnded(buyer, getCurrentPrice()) */\n      mload(0x40)\n      tag_102\n      swap2\n      swap1\n      tag_31\n      jump\t// in\n    tag_102:\n      mload(0x40)\n      dup1\n      swap2\n      sub\n      swap1\n      log2\n        /* \"contracts/study3/DutchAuction.sol\":2091:2783  function purchaseItem() external payable {... */\n      jump\t// out\n        /* \"contracts/study3/DutchAuction.sol\":318:349  uint256 public auctionStartTime */\n    tag_72:\n      sload(0x04)\n      dup2\n      jump\t// out\n        /* \"contracts/study3/DutchAuction.sol\":1394:2059  function getCurrentPrice() public view returns (uint256) {... */\n    tag_76:\n        /* \"contracts/study3/DutchAuction.sol\":1442:1449  uint256 */\n      0x00\n        /* \"contracts/study3/DutchAuction.sol\":1497:1516  uint256 timeElapsed */\n      dup1\n        /* \"contracts/study3/DutchAuction.sol\":1537:1553  auctionStartTime */\n      sload(0x04)\n        /* \"contracts/study3/DutchAuction.sol\":1519:1534  block.timestamp */\n      timestamp\n        /* \"contracts/study3/DutchAuction.sol\":1519:1553  block.timestamp - auctionStartTime */\n      tag_104\n      swap2\n      swap1\n      tag_105\n      jump\t// in\n    tag_104:\n        /* \"contracts/study3/DutchAuction.sol\":1497:1553  uint256 timeElapsed = block.timestamp - auctionStartTime */\n      swap1\n      pop\n        /* \"contracts/study3/DutchAuction.sol\":1644:1658  auctionEndTime */\n      sload(0x06)\n        /* \"contracts/study3/DutchAuction.sol\":1625:1640  block.timestamp */\n      timestamp\n        /* \"contracts/study3/DutchAuction.sol\":1625:1658  block.timestamp >= auctionEndTime */\n      lt\n      iszero\n        /* \"contracts/study3/DutchAuction.sol\":1625:1674  block.timestamp >= auctionEndTime || auctionEnded */\n      dup1\n      tag_106\n      jumpi\n      pop\n        /* \"contracts/study3/DutchAuction.sol\":1662:1674  auctionEnded */\n      0x07\n      0x00\n      swap1\n      sload\n      swap1\n      0x0100\n      exp\n      swap1\n      div\n      0xff\n      and\n        /* \"contracts/study3/DutchAuction.sol\":1625:1674  block.timestamp >= auctionEndTime || auctionEnded */\n    tag_106:\n        /* \"contracts/study3/DutchAuction.sol\":1621:1718  if (block.timestamp >= auctionEndTime || auctionEnded) {... */\n      iszero\n      tag_107\n      jumpi\n        /* \"contracts/study3/DutchAuction.sol\":1697:1707  finalPrice */\n      sload(0x02)\n        /* \"contracts/study3/DutchAuction.sol\":1690:1707  return finalPrice */\n      swap2\n      pop\n      pop\n      jump(tag_103)\n        /* \"contracts/study3/DutchAuction.sol\":1621:1718  if (block.timestamp >= auctionEndTime || auctionEnded) {... */\n    tag_107:\n        /* \"contracts/study3/DutchAuction.sol\":1779:1801  uint256 priceReduction */\n      0x00\n        /* \"contracts/study3/DutchAuction.sol\":1818:1832  priceDecrement */\n      sload(0x03)\n        /* \"contracts/study3/DutchAuction.sol\":1804:1815  timeElapsed */\n      dup3\n        /* \"contracts/study3/DutchAuction.sol\":1804:1832  timeElapsed * priceDecrement */\n      tag_108\n      swap2\n      swap1\n      tag_109\n      jump\t// in\n    tag_108:\n        /* \"contracts/study3/DutchAuction.sol\":1779:1832  uint256 priceReduction = timeElapsed * priceDecrement */\n      swap1\n      pop\n        /* \"contracts/study3/DutchAuction.sol\":1842:1862  uint256 currentPrice */\n      0x00\n        /* \"contracts/study3/DutchAuction.sol\":1880:1894  priceReduction */\n      dup2\n        /* \"contracts/study3/DutchAuction.sol\":1865:1877  initialPrice */\n      sload(0x01)\n        /* \"contracts/study3/DutchAuction.sol\":1865:1894  initialPrice - priceReduction */\n      tag_110\n      swap2\n      swap1\n      tag_105\n      jump\t// in\n    tag_110:\n        /* \"contracts/study3/DutchAuction.sol\":1842:1894  uint256 currentPrice = initialPrice - priceReduction */\n      swap1\n      pop\n        /* \"contracts/study3/DutchAuction.sol\":1969:1979  finalPrice */\n      sload(0x02)\n        /* \"contracts/study3/DutchAuction.sol\":1954:1966  currentPrice */\n      dup2\n        /* \"contracts/study3/DutchAuction.sol\":1954:1979  currentPrice < finalPrice */\n      lt\n        /* \"contracts/study3/DutchAuction.sol\":1950:2023  if (currentPrice < finalPrice) {... */\n      iszero\n      tag_111\n      jumpi\n        /* \"contracts/study3/DutchAuction.sol\":2002:2012  finalPrice */\n      sload(0x02)\n        /* \"contracts/study3/DutchAuction.sol\":1995:2012  return finalPrice */\n      swap4\n      pop\n      pop\n      pop\n      pop\n      jump(tag_103)\n        /* \"contracts/study3/DutchAuction.sol\":1950:2023  if (currentPrice < finalPrice) {... */\n    tag_111:\n        /* \"contracts/study3/DutchAuction.sol\":2040:2052  currentPrice */\n      dup1\n        /* \"contracts/study3/DutchAuction.sol\":2033:2052  return currentPrice */\n      swap4\n      pop\n      pop\n      pop\n      pop\n        /* \"contracts/study3/DutchAuction.sol\":1394:2059  function getCurrentPrice() public view returns (uint256) {... */\n    tag_103:\n      swap1\n      jump\t// out\n        /* \"#utility.yul\":7:133   */\n    tag_112:\n        /* \"#utility.yul\":44:51   */\n      0x00\n        /* \"#utility.yul\":84:126   */\n      0xffffffffffffffffffffffffffffffffffffffff\n        /* \"#utility.yul\":77:82   */\n      dup3\n        /* \"#utility.yul\":73:127   */\n      and\n        /* \"#utility.yul\":62:127   */\n      swap1\n      pop\n        /* \"#utility.yul\":7:133   */\n      swap2\n      swap1\n      pop\n      jump\t// out\n        /* \"#utility.yul\":139:235   */\n    tag_113:\n        /* \"#utility.yul\":176:183   */\n      0x00\n        /* \"#utility.yul\":205:229   */\n      tag_132\n        /* \"#utility.yul\":223:228   */\n      dup3\n        /* \"#utility.yul\":205:229   */\n      tag_112\n      jump\t// in\n    tag_132:\n        /* \"#utility.yul\":194:229   */\n      swap1\n      pop\n        /* \"#utility.yul\":139:235   */\n      swap2\n      swap1\n      pop\n      jump\t// out\n        /* \"#utility.yul\":241:359   */\n    tag_114:\n        /* \"#utility.yul\":328:352   */\n      tag_134\n        /* \"#utility.yul\":346:351   */\n      dup2\n        /* \"#utility.yul\":328:352   */\n      tag_113\n      jump\t// in\n    tag_134:\n        /* \"#utility.yul\":323:326   */\n      dup3\n        /* \"#utility.yul\":316:353   */\n      mstore\n        /* \"#utility.yul\":241:359   */\n      pop\n      pop\n      jump\t// out\n        /* \"#utility.yul\":365:587   */\n    tag_26:\n        /* \"#utility.yul\":458:462   */\n      0x00\n        /* \"#utility.yul\":496:498   */\n      0x20\n        /* \"#utility.yul\":485:494   */\n      dup3\n        /* \"#utility.yul\":481:499   */\n      add\n        /* \"#utility.yul\":473:499   */\n      swap1\n      pop\n        /* \"#utility.yul\":509:580   */\n      tag_136\n        /* \"#utility.yul\":577:578   */\n      0x00\n        /* \"#utility.yul\":566:575   */\n      dup4\n        /* \"#utility.yul\":562:579   */\n      add\n        /* \"#utility.yul\":553:559   */\n      dup5\n        /* \"#utility.yul\":509:580   */\n      tag_114\n      jump\t// in\n    tag_136:\n        /* \"#utility.yul\":365:587   */\n      swap3\n      swap2\n      pop\n      pop\n      jump\t// out\n        /* \"#utility.yul\":593:670   */\n    tag_115:\n        /* \"#utility.yul\":630:637   */\n      0x00\n        /* \"#utility.yul\":659:664   */\n      dup2\n        /* \"#utility.yul\":648:664   */\n      swap1\n      pop\n        /* \"#utility.yul\":593:670   */\n      swap2\n      swap1\n      pop\n      jump\t// out\n        /* \"#utility.yul\":676:794   */\n    tag_116:\n        /* \"#utility.yul\":763:787   */\n      tag_139\n        /* \"#utility.yul\":781:786   */\n      dup2\n        /* \"#utility.yul\":763:787   */\n      tag_115\n      jump\t// in\n    tag_139:\n        /* \"#utility.yul\":758:761   */\n      dup3\n        /* \"#utility.yul\":751:788   */\n      mstore\n        /* \"#utility.yul\":676:794   */\n      pop\n      pop\n      jump\t// out\n        /* \"#utility.yul\":800:1022   */\n    tag_31:\n        /* \"#utility.yul\":893:897   */\n      0x00\n        /* \"#utility.yul\":931:933   */\n      0x20\n        /* \"#utility.yul\":920:929   */\n      dup3\n        /* \"#utility.yul\":916:934   */\n      add\n        /* \"#utility.yul\":908:934   */\n      swap1\n      pop\n        /* \"#utility.yul\":944:1015   */\n      tag_141\n        /* \"#utility.yul\":1012:1013   */\n      0x00\n        /* \"#utility.yul\":1001:1010   */\n      dup4\n        /* \"#utility.yul\":997:1014   */\n      add\n        /* \"#utility.yul\":988:994   */\n      dup5\n        /* \"#utility.yul\":944:1015   */\n      tag_116\n      jump\t// in\n    tag_141:\n        /* \"#utility.yul\":800:1022   */\n      swap3\n      swap2\n      pop\n      pop\n      jump\t// out\n        /* \"#utility.yul\":1028:1118   */\n    tag_117:\n        /* \"#utility.yul\":1062:1069   */\n      0x00\n        /* \"#utility.yul\":1105:1110   */\n      dup2\n        /* \"#utility.yul\":1098:1111   */\n      iszero\n        /* \"#utility.yul\":1091:1112   */\n      iszero\n        /* \"#utility.yul\":1080:1112   */\n      swap1\n      pop\n        /* \"#utility.yul\":1028:1118   */\n      swap2\n      swap1\n      pop\n      jump\t// out\n        /* \"#utility.yul\":1124:1233   */\n    tag_118:\n        /* \"#utility.yul\":1205:1226   */\n      tag_144\n        /* \"#utility.yul\":1220:1225   */\n      dup2\n        /* \"#utility.yul\":1205:1226   */\n      tag_117\n      jump\t// in\n    tag_144:\n        /* \"#utility.yul\":1200:1203   */\n      dup3\n        /* \"#utility.yul\":1193:1227   */\n      mstore\n        /* \"#utility.yul\":1124:1233   */\n      pop\n      pop\n      jump\t// out\n        /* \"#utility.yul\":1239:1449   */\n    tag_60:\n        /* \"#utility.yul\":1326:1330   */\n      0x00\n        /* \"#utility.yul\":1364:1366   */\n      0x20\n        /* \"#utility.yul\":1353:1362   */\n      dup3\n        /* \"#utility.yul\":1349:1367   */\n      add\n        /* \"#utility.yul\":1341:1367   */\n      swap1\n      pop\n        /* \"#utility.yul\":1377:1442   */\n      tag_146\n        /* \"#utility.yul\":1439:1440   */\n      0x00\n        /* \"#utility.yul\":1428:1437   */\n      dup4\n        /* \"#utility.yul\":1424:1441   */\n      add\n        /* \"#utility.yul\":1415:1421   */\n      dup5\n        /* \"#utility.yul\":1377:1442   */\n      tag_118\n      jump\t// in\n    tag_146:\n        /* \"#utility.yul\":1239:1449   */\n      swap3\n      swap2\n      pop\n      pop\n      jump\t// out\n        /* \"#utility.yul\":1455:1624   */\n    tag_119:\n        /* \"#utility.yul\":1539:1550   */\n      0x00\n        /* \"#utility.yul\":1573:1579   */\n      dup3\n        /* \"#utility.yul\":1568:1571   */\n      dup3\n        /* \"#utility.yul\":1561:1580   */\n      mstore\n        /* \"#utility.yul\":1613:1617   */\n      0x20\n        /* \"#utility.yul\":1608:1611   */\n      dup3\n        /* \"#utility.yul\":1604:1618   */\n      add\n        /* \"#utility.yul\":1589:1618   */\n      swap1\n      pop\n        /* \"#utility.yul\":1455:1624   */\n      swap3\n      swap2\n      pop\n      pop\n      jump\t// out\n        /* \"#utility.yul\":1630:1852   */\n    tag_120:\n        /* \"#utility.yul\":1770:1804   */\n      0x4f6e6c792073656c6c65722063616e2063616e63656c20746865206175637469\n        /* \"#utility.yul\":1766:1767   */\n      0x00\n        /* \"#utility.yul\":1758:1764   */\n      dup3\n        /* \"#utility.yul\":1754:1768   */\n      add\n        /* \"#utility.yul\":1747:1805   */\n      mstore\n        /* \"#utility.yul\":1839:1844   */\n      0x6f6e2e0000000000000000000000000000000000000000000000000000000000\n        /* \"#utility.yul\":1834:1836   */\n      0x20\n        /* \"#utility.yul\":1826:1832   */\n      dup3\n        /* \"#utility.yul\":1822:1837   */\n      add\n        /* \"#utility.yul\":1815:1845   */\n      mstore\n        /* \"#utility.yul\":1630:1852   */\n      pop\n      jump\t// out\n        /* \"#utility.yul\":1858:2224   */\n    tag_121:\n        /* \"#utility.yul\":2000:2003   */\n      0x00\n        /* \"#utility.yul\":2021:2088   */\n      tag_150\n        /* \"#utility.yul\":2085:2087   */\n      0x23\n        /* \"#utility.yul\":2080:2083   */\n      dup4\n        /* \"#utility.yul\":2021:2088   */\n      tag_119\n      jump\t// in\n    tag_150:\n        /* \"#utility.yul\":2014:2088   */\n      swap2\n      pop\n        /* \"#utility.yul\":2097:2190   */\n      tag_151\n        /* \"#utility.yul\":2186:2189   */\n      dup3\n        /* \"#utility.yul\":2097:2190   */\n      tag_120\n      jump\t// in\n    tag_151:\n        /* \"#utility.yul\":2215:2217   */\n      0x40\n        /* \"#utility.yul\":2210:2213   */\n      dup3\n        /* \"#utility.yul\":2206:2218   */\n      add\n        /* \"#utility.yul\":2199:2218   */\n      swap1\n      pop\n        /* \"#utility.yul\":1858:2224   */\n      swap2\n      swap1\n      pop\n      jump\t// out\n        /* \"#utility.yul\":2230:2649   */\n    tag_82:\n        /* \"#utility.yul\":2396:2400   */\n      0x00\n        /* \"#utility.yul\":2434:2436   */\n      0x20\n        /* \"#utility.yul\":2423:2432   */\n      dup3\n        /* \"#utility.yul\":2419:2437   */\n      add\n        /* \"#utility.yul\":2411:2437   */\n      swap1\n      pop\n        /* \"#utility.yul\":2483:2492   */\n      dup2\n        /* \"#utility.yul\":2477:2481   */\n      dup2\n        /* \"#utility.yul\":2473:2493   */\n      sub\n        /* \"#utility.yul\":2469:2470   */\n      0x00\n        /* \"#utility.yul\":2458:2467   */\n      dup4\n        /* \"#utility.yul\":2454:2471   */\n      add\n        /* \"#utility.yul\":2447:2494   */\n      mstore\n        /* \"#utility.yul\":2511:2642   */\n      tag_153\n        /* \"#utility.yul\":2637:2641   */\n      dup2\n        /* \"#utility.yul\":2511:2642   */\n      tag_121\n      jump\t// in\n    tag_153:\n        /* \"#utility.yul\":2503:2642   */\n      swap1\n      pop\n        /* \"#utility.yul\":2230:2649   */\n      swap2\n      swap1\n      pop\n      jump\t// out\n        /* \"#utility.yul\":2655:2831   */\n    tag_122:\n        /* \"#utility.yul\":2795:2823   */\n      0x41756374696f6e2068617320616c726561647920656e6465642e000000000000\n        /* \"#utility.yul\":2791:2792   */\n      0x00\n        /* \"#utility.yul\":2783:2789   */\n      dup3\n        /* \"#utility.yul\":2779:2793   */\n      add\n        /* \"#utility.yul\":2772:2824   */\n      mstore\n        /* \"#utility.yul\":2655:2831   */\n      pop\n      jump\t// out\n        /* \"#utility.yul\":2837:3203   */\n    tag_123:\n        /* \"#utility.yul\":2979:2982   */\n      0x00\n        /* \"#utility.yul\":3000:3067   */\n      tag_156\n        /* \"#utility.yul\":3064:3066   */\n      0x1a\n        /* \"#utility.yul\":3059:3062   */\n      dup4\n        /* \"#utility.yul\":3000:3067   */\n      tag_119\n      jump\t// in\n    tag_156:\n        /* \"#utility.yul\":2993:3067   */\n      swap2\n      pop\n        /* \"#utility.yul\":3076:3169   */\n      tag_157\n        /* \"#utility.yul\":3165:3168   */\n      dup3\n        /* \"#utility.yul\":3076:3169   */\n      tag_122\n      jump\t// in\n    tag_157:\n        /* \"#utility.yul\":3194:3196   */\n      0x20\n        /* \"#utility.yul\":3189:3192   */\n      dup3\n        /* \"#utility.yul\":3185:3197   */\n      add\n        /* \"#utility.yul\":3178:3197   */\n      swap1\n      pop\n        /* \"#utility.yul\":2837:3203   */\n      swap2\n      swap1\n      pop\n      jump\t// out\n        /* \"#utility.yul\":3209:3628   */\n    tag_85:\n        /* \"#utility.yul\":3375:3379   */\n      0x00\n        /* \"#utility.yul\":3413:3415   */\n      0x20\n        /* \"#utility.yul\":3402:3411   */\n      dup3\n        /* \"#utility.yul\":3398:3416   */\n      add\n        /* \"#utility.yul\":3390:3416   */\n      swap1\n      pop\n        /* \"#utility.yul\":3462:3471   */\n      dup2\n        /* \"#utility.yul\":3456:3460   */\n      dup2\n        /* \"#utility.yul\":3452:3472   */\n      sub\n        /* \"#utility.yul\":3448:3449   */\n      0x00\n        /* \"#utility.yul\":3437:3446   */\n      dup4\n        /* \"#utility.yul\":3433:3450   */\n      add\n        /* \"#utility.yul\":3426:3473   */\n      mstore\n        /* \"#utility.yul\":3490:3621   */\n      tag_159\n        /* \"#utility.yul\":3616:3620   */\n      dup2\n        /* \"#utility.yul\":3490:3621   */\n      tag_123\n      jump\t// in\n    tag_159:\n        /* \"#utility.yul\":3482:3621   */\n      swap1\n      pop\n        /* \"#utility.yul\":3209:3628   */\n      swap2\n      swap1\n      pop\n      jump\t// out\n        /* \"#utility.yul\":3634:3811   */\n    tag_124:\n        /* \"#utility.yul\":3774:3803   */\n      0x41756374696f6e206861736e27742073746172746564207965742e0000000000\n        /* \"#utility.yul\":3770:3771   */\n      0x00\n        /* \"#utility.yul\":3762:3768   */\n      dup3\n        /* \"#utility.yul\":3758:3772   */\n      add\n        /* \"#utility.yul\":3751:3804   */\n      mstore\n        /* \"#utility.yul\":3634:3811   */\n      pop\n      jump\t// out\n        /* \"#utility.yul\":3817:4183   */\n    tag_125:\n        /* \"#utility.yul\":3959:3962   */\n      0x00\n        /* \"#utility.yul\":3980:4047   */\n      tag_162\n        /* \"#utility.yul\":4044:4046   */\n      0x1b\n        /* \"#utility.yul\":4039:4042   */\n      dup4\n        /* \"#utility.yul\":3980:4047   */\n      tag_119\n      jump\t// in\n    tag_162:\n        /* \"#utility.yul\":3973:4047   */\n      swap2\n      pop\n        /* \"#utility.yul\":4056:4149   */\n      tag_163\n        /* \"#utility.yul\":4145:4148   */\n      dup3\n        /* \"#utility.yul\":4056:4149   */\n      tag_124\n      jump\t// in\n    tag_163:\n        /* \"#utility.yul\":4174:4176   */\n      0x20\n        /* \"#utility.yul\":4169:4172   */\n      dup3\n        /* \"#utility.yul\":4165:4177   */\n      add\n        /* \"#utility.yul\":4158:4177   */\n      swap1\n      pop\n        /* \"#utility.yul\":3817:4183   */\n      swap2\n      swap1\n      pop\n      jump\t// out\n        /* \"#utility.yul\":4189:4608   */\n    tag_89:\n        /* \"#utility.yul\":4355:4359   */\n      0x00\n        /* \"#utility.yul\":4393:4395   */\n      0x20\n        /* \"#utility.yul\":4382:4391   */\n      dup3\n        /* \"#utility.yul\":4378:4396   */\n      add\n        /* \"#utility.yul\":4370:4396   */\n      swap1\n      pop\n        /* \"#utility.yul\":4442:4451   */\n      dup2\n        /* \"#utility.yul\":4436:4440   */\n      dup2\n        /* \"#utility.yul\":4432:4452   */\n      sub\n        /* \"#utility.yul\":4428:4429   */\n      0x00\n        /* \"#utility.yul\":4417:4426   */\n      dup4\n        /* \"#utility.yul\":4413:4430   */\n      add\n        /* \"#utility.yul\":4406:4453   */\n      mstore\n        /* \"#utility.yul\":4470:4601   */\n      tag_165\n        /* \"#utility.yul\":4596:4600   */\n      dup2\n        /* \"#utility.yul\":4470:4601   */\n      tag_125\n      jump\t// in\n    tag_165:\n        /* \"#utility.yul\":4462:4601   */\n      swap1\n      pop\n        /* \"#utility.yul\":4189:4608   */\n      swap2\n      swap1\n      pop\n      jump\t// out\n        /* \"#utility.yul\":4614:4795   */\n    tag_126:\n        /* \"#utility.yul\":4754:4787   */\n      0x496e73756666696369656e742066756e647320746f2070757263686173652e00\n        /* \"#utility.yul\":4750:4751   */\n      0x00\n        /* \"#utility.yul\":4742:4748   */\n      dup3\n        /* \"#utility.yul\":4738:4752   */\n      add\n        /* \"#utility.yul\":4731:4788   */\n      mstore\n        /* \"#utility.yul\":4614:4795   */\n      pop\n      jump\t// out\n        /* \"#utility.yul\":4801:5167   */\n    tag_127:\n        /* \"#utility.yul\":4943:4946   */\n      0x00\n        /* \"#utility.yul\":4964:5031   */\n      tag_168\n        /* \"#utility.yul\":5028:5030   */\n      0x1f\n        /* \"#utility.yul\":5023:5026   */\n      dup4\n        /* \"#utility.yul\":4964:5031   */\n      tag_119\n      jump\t// in\n    tag_168:\n        /* \"#utility.yul\":4957:5031   */\n      swap2\n      pop\n        /* \"#utility.yul\":5040:5133   */\n      tag_169\n        /* \"#utility.yul\":5129:5132   */\n      dup3\n        /* \"#utility.yul\":5040:5133   */\n      tag_126\n      jump\t// in\n    tag_169:\n        /* \"#utility.yul\":5158:5160   */\n      0x20\n        /* \"#utility.yul\":5153:5156   */\n      dup3\n        /* \"#utility.yul\":5149:5161   */\n      add\n        /* \"#utility.yul\":5142:5161   */\n      swap1\n      pop\n        /* \"#utility.yul\":4801:5167   */\n      swap2\n      swap1\n      pop\n      jump\t// out\n        /* \"#utility.yul\":5173:5592   */\n    tag_95:\n        /* \"#utility.yul\":5339:5343   */\n      0x00\n        /* \"#utility.yul\":5377:5379   */\n      0x20\n        /* \"#utility.yul\":5366:5375   */\n      dup3\n        /* \"#utility.yul\":5362:5380   */\n      add\n        /* \"#utility.yul\":5354:5380   */\n      swap1\n      pop\n        /* \"#utility.yul\":5426:5435   */\n      dup2\n        /* \"#utility.yul\":5420:5424   */\n      dup2\n        /* \"#utility.yul\":5416:5436   */\n      sub\n        /* \"#utility.yul\":5412:5413   */\n      0x00\n        /* \"#utility.yul\":5401:5410   */\n      dup4\n        /* \"#utility.yul\":5397:5414   */\n      add\n        /* \"#utility.yul\":5390:5437   */\n      mstore\n        /* \"#utility.yul\":5454:5585   */\n      tag_171\n        /* \"#utility.yul\":5580:5584   */\n      dup2\n        /* \"#utility.yul\":5454:5585   */\n      tag_127\n      jump\t// in\n    tag_171:\n        /* \"#utility.yul\":5446:5585   */\n      swap1\n      pop\n        /* \"#utility.yul\":5173:5592   */\n      swap2\n      swap1\n      pop\n      jump\t// out\n        /* \"#utility.yul\":5598:5778   */\n    tag_128:\n        /* \"#utility.yul\":5646:5723   */\n      0x4e487b7100000000000000000000000000000000000000000000000000000000\n        /* \"#utility.yul\":5643:5644   */\n      0x00\n        /* \"#utility.yul\":5636:5724   */\n      mstore\n        /* \"#utility.yul\":5743:5747   */\n      0x11\n        /* \"#utility.yul\":5740:5741   */\n      0x04\n        /* \"#utility.yul\":5733:5748   */\n      mstore\n        /* \"#utility.yul\":5767:5771   */\n      0x24\n        /* \"#utility.yul\":5764:5765   */\n      0x00\n        /* \"#utility.yul\":5757:5772   */\n      revert\n        /* \"#utility.yul\":5784:5978   */\n    tag_105:\n        /* \"#utility.yul\":5824:5828   */\n      0x00\n        /* \"#utility.yul\":5844:5864   */\n      tag_174\n        /* \"#utility.yul\":5862:5863   */\n      dup3\n        /* \"#utility.yul\":5844:5864   */\n      tag_115\n      jump\t// in\n    tag_174:\n        /* \"#utility.yul\":5839:5864   */\n      swap2\n      pop\n        /* \"#utility.yul\":5878:5898   */\n      tag_175\n        /* \"#utility.yul\":5896:5897   */\n      dup4\n        /* \"#utility.yul\":5878:5898   */\n      tag_115\n      jump\t// in\n    tag_175:\n        /* \"#utility.yul\":5873:5898   */\n      swap3\n      pop\n        /* \"#utility.yul\":5922:5923   */\n      dup3\n        /* \"#utility.yul\":5919:5920   */\n      dup3\n        /* \"#utility.yul\":5915:5924   */\n      sub\n        /* \"#utility.yul\":5907:5924   */\n      swap1\n      pop\n        /* \"#utility.yul\":5946:5947   */\n      dup2\n        /* \"#utility.yul\":5940:5944   */\n      dup2\n        /* \"#utility.yul\":5937:5948   */\n      gt\n        /* \"#utility.yul\":5934:5971   */\n      iszero\n      tag_176\n      jumpi\n        /* \"#utility.yul\":5951:5969   */\n      tag_177\n      tag_128\n      jump\t// in\n    tag_177:\n        /* \"#utility.yul\":5934:5971   */\n    tag_176:\n        /* \"#utility.yul\":5784:5978   */\n      swap3\n      swap2\n      pop\n      pop\n      jump\t// out\n        /* \"#utility.yul\":5984:6394   */\n    tag_109:\n        /* \"#utility.yul\":6024:6031   */\n      0x00\n        /* \"#utility.yul\":6047:6067   */\n      tag_179\n        /* \"#utility.yul\":6065:6066   */\n      dup3\n        /* \"#utility.yul\":6047:6067   */\n      tag_115\n      jump\t// in\n    tag_179:\n        /* \"#utility.yul\":6042:6067   */\n      swap2\n      pop\n        /* \"#utility.yul\":6081:6101   */\n      tag_180\n        /* \"#utility.yul\":6099:6100   */\n      dup4\n        /* \"#utility.yul\":6081:6101   */\n      tag_115\n      jump\t// in\n    tag_180:\n        /* \"#utility.yul\":6076:6101   */\n      swap3\n      pop\n        /* \"#utility.yul\":6136:6137   */\n      dup3\n        /* \"#utility.yul\":6133:6134   */\n      dup3\n        /* \"#utility.yul\":6129:6138   */\n      mul\n        /* \"#utility.yul\":6158:6188   */\n      tag_181\n        /* \"#utility.yul\":6176:6187   */\n      dup2\n        /* \"#utility.yul\":6158:6188   */\n      tag_115\n      jump\t// in\n    tag_181:\n        /* \"#utility.yul\":6147:6188   */\n      swap2\n      pop\n        /* \"#utility.yul\":6337:6338   */\n      dup3\n        /* \"#utility.yul\":6328:6335   */\n      dup3\n        /* \"#utility.yul\":6324:6339   */\n      div\n        /* \"#utility.yul\":6321:6322   */\n      dup5\n        /* \"#utility.yul\":6318:6340   */\n      eq\n        /* \"#utility.yul\":6298:6299   */\n      dup4\n        /* \"#utility.yul\":6291:6300   */\n      iszero\n        /* \"#utility.yul\":6271:6354   */\n      or\n        /* \"#utility.yul\":6248:6387   */\n      tag_182\n      jumpi\n        /* \"#utility.yul\":6367:6385   */\n      tag_183\n      tag_128\n      jump\t// in\n    tag_183:\n        /* \"#utility.yul\":6248:6387   */\n    tag_182:\n        /* \"#utility.yul\":6032:6394   */\n      pop\n        /* \"#utility.yul\":5984:6394   */\n      swap3\n      swap2\n      pop\n      pop\n      jump\t// out\n\n    auxdata: 0xa26469706673582212200930c20849b772a990ed521af0ba20b6b9b971bf10c34bc11ab090b91079578a64736f6c634300081a0033\n}\n",
				"bytecode": {
					"linkReferences": {},
					"object": "60806040525f60075f6101000a81548160ff021916908315150217905550604051610d0b380380610d0b833981810160405281019061003e91906100fb565b335f806101000a81548173ffffffffffffffffffffffffffffffffffffffff021916908373ffffffffffffffffffffffffffffffffffffffff1602179055508360018190555082600281905550816003819055508060058190555042600481905550806004546100ae919061018c565b60068190555034600881905550505050506101bf565b5f80fd5b5f819050919050565b6100da816100c8565b81146100e4575f80fd5b50565b5f815190506100f5816100d1565b92915050565b5f805f8060808587031215610113576101126100c4565b5b5f610120878288016100e7565b9450506020610131878288016100e7565b9350506040610142878288016100e7565b9250506060610153878288016100e7565b91505092959194509250565b7f4e487b71000000000000000000000000000000000000000000000000000000005f52601160045260245ffd5b5f610196826100c8565b91506101a1836100c8565b92508282019050808211156101b9576101b861015f565b5b92915050565b610b3f806101cc5f395ff3fe6080604052600436106100e0575f3560e01c80637150d8ae1161007e578063a6b513ee11610058578063a6b513ee14610281578063e0d0c4a6146102ab578063eb54f9ec146102b5578063eb91d37e146102df576100ed565b80637150d8ae1461021757806386433374146102415780638fa8b7901461026b576100ed565b806326cddbfb116100ba57806326cddbfb1461016f57806329cb924d146101995780634b449cba146101c35780634ddd108a146101ed576100ed565b806308551a53146100f15780630cbf54c81461011b5780631d0806ae14610145576100ed565b366100ed57346008819055005b5f80fd5b3480156100fc575f80fd5b50610105610309565b6040516101129190610815565b60405180910390f35b348015610126575f80fd5b5061012f61032c565b60405161013c9190610846565b60405180910390f35b348015610150575f80fd5b50610159610332565b6040516101669190610846565b60405180910390f35b34801561017a575f80fd5b50610183610338565b6040516101909190610846565b60405180910390f35b3480156101a4575f80fd5b506101ad61033e565b6040516101ba9190610846565b60405180910390f35b3480156101ce575f80fd5b506101d7610345565b6040516101e49190610846565b60405180910390f35b3480156101f8575f80fd5b5061020161034b565b60405161020e9190610846565b60405180910390f35b348015610222575f80fd5b5061022b610351565b6040516102389190610815565b60405180910390f35b34801561024c575f80fd5b50610255610376565b6040516102629190610879565b60405180910390f35b348015610276575f80fd5b5061027f610388565b005b34801561028c575f80fd5b50610295610480565b6040516102a29190610846565b60405180910390f35b6102b3610486565b005b3480156102c0575f80fd5b506102c961074f565b6040516102d69190610846565b60405180910390f35b3480156102ea575f80fd5b506102f3610755565b6040516103009190610846565b60405180910390f35b5f8054906101000a900473ffffffffffffffffffffffffffffffffffffffff1681565b60055481565b60015481565b60035481565b5f42905090565b60065481565b60085481565b60095f9054906101000a900473ffffffffffffffffffffffffffffffffffffffff1681565b60075f9054906101000a900460ff1681565b5f8054906101000a900473ffffffffffffffffffffffffffffffffffffffff1673ffffffffffffffffffffffffffffffffffffffff163373ffffffffffffffffffffffffffffffffffffffff1614610415576040517f08c379a000000000000000000000000000000000000000000000000000000000815260040161040c90610912565b60405180910390fd5b60075f9054906101000a900460ff1615610464576040517f08c379a000000000000000000000000000000000000000000000000000000000815260040161045b9061097a565b60405180910390fd5b600160075f6101000a81548160ff021916908315150217905550565b60025481565b6004544210156104cb576040517f08c379a00000000000000000000000000000000000000000000000000000000081526004016104c2906109e2565b60405180910390fd5b600654421115610510576040517f08c379a00000000000000000000000000000000000000000000000000000000081526004016105079061097a565b60405180910390fd5b610518610755565b600854101561055c576040517f08c379a000000000000000000000000000000000000000000000000000000000815260040161055390610a4a565b60405180910390fd5b60075f9054906101000a900460ff16156105ab576040517f08c379a00000000000000000000000000000000000000000000000000000000081526004016105a29061097a565b60405180910390fd5b3360095f6101000a81548173ffffffffffffffffffffffffffffffffffffffff021916908373ffffffffffffffffffffffffffffffffffffffff160217905550600160075f6101000a81548160ff0219169083151502179055505f8054906101000a900473ffffffffffffffffffffffffffffffffffffffff1673ffffffffffffffffffffffffffffffffffffffff166108fc3490811502906040515f60405180830381858888f19350505050158015610667573d5f803e3d5ffd5b5060095f9054906101000a900473ffffffffffffffffffffffffffffffffffffffff1673ffffffffffffffffffffffffffffffffffffffff167f792fe07c0f3ce4ef42df79c4a2b07925168cddbaabf7a7ef1351f027a3760313346040516106cf9190610846565b60405180910390a260095f9054906101000a900473ffffffffffffffffffffffffffffffffffffffff1673ffffffffffffffffffffffffffffffffffffffff167fdaec4582d5d9595688c8c98545fdd1c696d41c6aeaeb636737e84ed2f5c00eda610738610755565b6040516107459190610846565b60405180910390a2565b60045481565b5f80600454426107659190610a95565b905060065442101580610783575060075f9054906101000a900460ff165b15610793576002549150506107d3565b5f600354826107a29190610ac8565b90505f816001546107b39190610a95565b90506002548110156107cc5760025493505050506107d3565b8093505050505b90565b5f73ffffffffffffffffffffffffffffffffffffffff82169050919050565b5f6107ff826107d6565b9050919050565b61080f816107f5565b82525050565b5f6020820190506108285f830184610806565b92915050565b5f819050919050565b6108408161082e565b82525050565b5f6020820190506108595f830184610837565b92915050565b5f8115159050919050565b6108738161085f565b82525050565b5f60208201905061088c5f83018461086a565b92915050565b5f82825260208201905092915050565b7f4f6e6c792073656c6c65722063616e2063616e63656c207468652061756374695f8201527f6f6e2e0000000000000000000000000000000000000000000000000000000000602082015250565b5f6108fc602383610892565b9150610907826108a2565b604082019050919050565b5f6020820190508181035f830152610929816108f0565b9050919050565b7f41756374696f6e2068617320616c726561647920656e6465642e0000000000005f82015250565b5f610964601a83610892565b915061096f82610930565b602082019050919050565b5f6020820190508181035f83015261099181610958565b9050919050565b7f41756374696f6e206861736e27742073746172746564207965742e00000000005f82015250565b5f6109cc601b83610892565b91506109d782610998565b602082019050919050565b5f6020820190508181035f8301526109f9816109c0565b9050919050565b7f496e73756666696369656e742066756e647320746f2070757263686173652e005f82015250565b5f610a34601f83610892565b9150610a3f82610a00565b602082019050919050565b5f6020820190508181035f830152610a6181610a28565b9050919050565b7f4e487b71000000000000000000000000000000000000000000000000000000005f52601160045260245ffd5b5f610a9f8261082e565b9150610aaa8361082e565b9250828203905081811115610ac257610ac1610a68565b5b92915050565b5f610ad28261082e565b9150610add8361082e565b9250828202610aeb8161082e565b91508282048414831517610b0257610b01610a68565b5b509291505056fea26469706673582212200930c20849b772a990ed521af0ba20b6b9b971bf10c34bc11ab090b91079578a64736f6c634300081a0033",
					"opcodes": "PUSH1 0x80 PUSH1 0x40 MSTORE PUSH0 PUSH1 0x7 PUSH0 PUSH2 0x100 EXP DUP2 SLOAD DUP2 PUSH1 0xFF MUL NOT AND SWAP1 DUP4 ISZERO ISZERO MUL OR SWAP1 SSTORE POP PUSH1 0x40 MLOAD PUSH2 0xD0B CODESIZE SUB DUP1 PUSH2 0xD0B DUP4 CODECOPY DUP2 DUP2 ADD PUSH1 0x40 MSTORE DUP2 ADD SWAP1 PUSH2 0x3E SWAP2 SWAP1 PUSH2 0xFB JUMP JUMPDEST CALLER PUSH0 DUP1 PUSH2 0x100 EXP DUP2 SLOAD DUP2 PUSH20 0xFFFFFFFFFFFFFFFFFFFFFFFFFFFFFFFFFFFFFFFF MUL NOT AND SWAP1 DUP4 PUSH20 0xFFFFFFFFFFFFFFFFFFFFFFFFFFFFFFFFFFFFFFFF AND MUL OR SWAP1 SSTORE POP DUP4 PUSH1 0x1 DUP2 SWAP1 SSTORE POP DUP3 PUSH1 0x2 DUP2 SWAP1 SSTORE POP DUP2 PUSH1 0x3 DUP2 SWAP1 SSTORE POP DUP1 PUSH1 0x5 DUP2 SWAP1 SSTORE POP TIMESTAMP PUSH1 0x4 DUP2 SWAP1 SSTORE POP DUP1 PUSH1 0x4 SLOAD PUSH2 0xAE SWAP2 SWAP1 PUSH2 0x18C JUMP JUMPDEST PUSH1 0x6 DUP2 SWAP1 SSTORE POP CALLVALUE PUSH1 0x8 DUP2 SWAP1 SSTORE POP POP POP POP POP PUSH2 0x1BF JUMP JUMPDEST PUSH0 DUP1 REVERT JUMPDEST PUSH0 DUP2 SWAP1 POP SWAP2 SWAP1 POP JUMP JUMPDEST PUSH2 0xDA DUP2 PUSH2 0xC8 JUMP JUMPDEST DUP2 EQ PUSH2 0xE4 JUMPI PUSH0 DUP1 REVERT JUMPDEST POP JUMP JUMPDEST PUSH0 DUP2 MLOAD SWAP1 POP PUSH2 0xF5 DUP2 PUSH2 0xD1 JUMP JUMPDEST SWAP3 SWAP2 POP POP JUMP JUMPDEST PUSH0 DUP1 PUSH0 DUP1 PUSH1 0x80 DUP6 DUP8 SUB SLT ISZERO PUSH2 0x113 JUMPI PUSH2 0x112 PUSH2 0xC4 JUMP JUMPDEST JUMPDEST PUSH0 PUSH2 0x120 DUP8 DUP3 DUP9 ADD PUSH2 0xE7 JUMP JUMPDEST SWAP5 POP POP PUSH1 0x20 PUSH2 0x131 DUP8 DUP3 DUP9 ADD PUSH2 0xE7 JUMP JUMPDEST SWAP4 POP POP PUSH1 0x40 PUSH2 0x142 DUP8 DUP3 DUP9 ADD PUSH2 0xE7 JUMP JUMPDEST SWAP3 POP POP PUSH1 0x60 PUSH2 0x153 DUP8 DUP3 DUP9 ADD PUSH2 0xE7 JUMP JUMPDEST SWAP2 POP POP SWAP3 SWAP6 SWAP2 SWAP5 POP SWAP3 POP JUMP JUMPDEST PUSH32 0x4E487B7100000000000000000000000000000000000000000000000000000000 PUSH0 MSTORE PUSH1 0x11 PUSH1 0x4 MSTORE PUSH1 0x24 PUSH0 REVERT JUMPDEST PUSH0 PUSH2 0x196 DUP3 PUSH2 0xC8 JUMP JUMPDEST SWAP2 POP PUSH2 0x1A1 DUP4 PUSH2 0xC8 JUMP JUMPDEST SWAP3 POP DUP3 DUP3 ADD SWAP1 POP DUP1 DUP3 GT ISZERO PUSH2 0x1B9 JUMPI PUSH2 0x1B8 PUSH2 0x15F JUMP JUMPDEST JUMPDEST SWAP3 SWAP2 POP POP JUMP JUMPDEST PUSH2 0xB3F DUP1 PUSH2 0x1CC PUSH0 CODECOPY PUSH0 RETURN INVALID PUSH1 0x80 PUSH1 0x40 MSTORE PUSH1 0x4 CALLDATASIZE LT PUSH2 0xE0 JUMPI PUSH0 CALLDATALOAD PUSH1 0xE0 SHR DUP1 PUSH4 0x7150D8AE GT PUSH2 0x7E JUMPI DUP1 PUSH4 0xA6B513EE GT PUSH2 0x58 JUMPI DUP1 PUSH4 0xA6B513EE EQ PUSH2 0x281 JUMPI DUP1 PUSH4 0xE0D0C4A6 EQ PUSH2 0x2AB JUMPI DUP1 PUSH4 0xEB54F9EC EQ PUSH2 0x2B5 JUMPI DUP1 PUSH4 0xEB91D37E EQ PUSH2 0x2DF JUMPI PUSH2 0xED JUMP JUMPDEST DUP1 PUSH4 0x7150D8AE EQ PUSH2 0x217 JUMPI DUP1 PUSH4 0x86433374 EQ PUSH2 0x241 JUMPI DUP1 PUSH4 0x8FA8B790 EQ PUSH2 0x26B JUMPI PUSH2 0xED JUMP JUMPDEST DUP1 PUSH4 0x26CDDBFB GT PUSH2 0xBA JUMPI DUP1 PUSH4 0x26CDDBFB EQ PUSH2 0x16F JUMPI DUP1 PUSH4 0x29CB924D EQ PUSH2 0x199 JUMPI DUP1 PUSH4 0x4B449CBA EQ PUSH2 0x1C3 JUMPI DUP1 PUSH4 0x4DDD108A EQ PUSH2 0x1ED JUMPI PUSH2 0xED JUMP JUMPDEST DUP1 PUSH4 0x8551A53 EQ PUSH2 0xF1 JUMPI DUP1 PUSH4 0xCBF54C8 EQ PUSH2 0x11B JUMPI DUP1 PUSH4 0x1D0806AE EQ PUSH2 0x145 JUMPI PUSH2 0xED JUMP JUMPDEST CALLDATASIZE PUSH2 0xED JUMPI CALLVALUE PUSH1 0x8 DUP2 SWAP1 SSTORE STOP JUMPDEST PUSH0 DUP1 REVERT JUMPDEST CALLVALUE DUP1 ISZERO PUSH2 0xFC JUMPI PUSH0 DUP1 REVERT JUMPDEST POP PUSH2 0x105 PUSH2 0x309 JUMP JUMPDEST PUSH1 0x40 MLOAD PUSH2 0x112 SWAP2 SWAP1 PUSH2 0x815 JUMP JUMPDEST PUSH1 0x40 MLOAD DUP1 SWAP2 SUB SWAP1 RETURN JUMPDEST CALLVALUE DUP1 ISZERO PUSH2 0x126 JUMPI PUSH0 DUP1 REVERT JUMPDEST POP PUSH2 0x12F PUSH2 0x32C JUMP JUMPDEST PUSH1 0x40 MLOAD PUSH2 0x13C SWAP2 SWAP1 PUSH2 0x846 JUMP JUMPDEST PUSH1 0x40 MLOAD DUP1 SWAP2 SUB SWAP1 RETURN JUMPDEST CALLVALUE DUP1 ISZERO PUSH2 0x150 JUMPI PUSH0 DUP1 REVERT JUMPDEST POP PUSH2 0x159 PUSH2 0x332 JUMP JUMPDEST PUSH1 0x40 MLOAD PUSH2 0x166 SWAP2 SWAP1 PUSH2 0x846 JUMP JUMPDEST PUSH1 0x40 MLOAD DUP1 SWAP2 SUB SWAP1 RETURN JUMPDEST CALLVALUE DUP1 ISZERO PUSH2 0x17A JUMPI PUSH0 DUP1 REVERT JUMPDEST POP PUSH2 0x183 PUSH2 0x338 JUMP JUMPDEST PUSH1 0x40 MLOAD PUSH2 0x190 SWAP2 SWAP1 PUSH2 0x846 JUMP JUMPDEST PUSH1 0x40 MLOAD DUP1 SWAP2 SUB SWAP1 RETURN JUMPDEST CALLVALUE DUP1 ISZERO PUSH2 0x1A4 JUMPI PUSH0 DUP1 REVERT JUMPDEST POP PUSH2 0x1AD PUSH2 0x33E JUMP JUMPDEST PUSH1 0x40 MLOAD PUSH2 0x1BA SWAP2 SWAP1 PUSH2 0x846 JUMP JUMPDEST PUSH1 0x40 MLOAD DUP1 SWAP2 SUB SWAP1 RETURN JUMPDEST CALLVALUE DUP1 ISZERO PUSH2 0x1CE JUMPI PUSH0 DUP1 REVERT JUMPDEST POP PUSH2 0x1D7 PUSH2 0x345 JUMP JUMPDEST PUSH1 0x40 MLOAD PUSH2 0x1E4 SWAP2 SWAP1 PUSH2 0x846 JUMP JUMPDEST PUSH1 0x40 MLOAD DUP1 SWAP2 SUB SWAP1 RETURN JUMPDEST CALLVALUE DUP1 ISZERO PUSH2 0x1F8 JUMPI PUSH0 DUP1 REVERT JUMPDEST POP PUSH2 0x201 PUSH2 0x34B JUMP JUMPDEST PUSH1 0x40 MLOAD PUSH2 0x20E SWAP2 SWAP1 PUSH2 0x846 JUMP JUMPDEST PUSH1 0x40 MLOAD DUP1 SWAP2 SUB SWAP1 RETURN JUMPDEST CALLVALUE DUP1 ISZERO PUSH2 0x222 JUMPI PUSH0 DUP1 REVERT JUMPDEST POP PUSH2 0x22B PUSH2 0x351 JUMP JUMPDEST PUSH1 0x40 MLOAD PUSH2 0x238 SWAP2 SWAP1 PUSH2 0x815 JUMP JUMPDEST PUSH1 0x40 MLOAD DUP1 SWAP2 SUB SWAP1 RETURN JUMPDEST CALLVALUE DUP1 ISZERO PUSH2 0x24C JUMPI PUSH0 DUP1 REVERT JUMPDEST POP PUSH2 0x255 PUSH2 0x376 JUMP JUMPDEST PUSH1 0x40 MLOAD PUSH2 0x262 SWAP2 SWAP1 PUSH2 0x879 JUMP JUMPDEST PUSH1 0x40 MLOAD DUP1 SWAP2 SUB SWAP1 RETURN JUMPDEST CALLVALUE DUP1 ISZERO PUSH2 0x276 JUMPI PUSH0 DUP1 REVERT JUMPDEST POP PUSH2 0x27F PUSH2 0x388 JUMP JUMPDEST STOP JUMPDEST CALLVALUE DUP1 ISZERO PUSH2 0x28C JUMPI PUSH0 DUP1 REVERT JUMPDEST POP PUSH2 0x295 PUSH2 0x480 JUMP JUMPDEST PUSH1 0x40 MLOAD PUSH2 0x2A2 SWAP2 SWAP1 PUSH2 0x846 JUMP JUMPDEST PUSH1 0x40 MLOAD DUP1 SWAP2 SUB SWAP1 RETURN JUMPDEST PUSH2 0x2B3 PUSH2 0x486 JUMP JUMPDEST STOP JUMPDEST CALLVALUE DUP1 ISZERO PUSH2 0x2C0 JUMPI PUSH0 DUP1 REVERT JUMPDEST POP PUSH2 0x2C9 PUSH2 0x74F JUMP JUMPDEST PUSH1 0x40 MLOAD PUSH2 0x2D6 SWAP2 SWAP1 PUSH2 0x846 JUMP JUMPDEST PUSH1 0x40 MLOAD DUP1 SWAP2 SUB SWAP1 RETURN JUMPDEST CALLVALUE DUP1 ISZERO PUSH2 0x2EA JUMPI PUSH0 DUP1 REVERT JUMPDEST POP PUSH2 0x2F3 PUSH2 0x755 JUMP JUMPDEST PUSH1 0x40 MLOAD PUSH2 0x300 SWAP2 SWAP1 PUSH2 0x846 JUMP JUMPDEST PUSH1 0x40 MLOAD DUP1 SWAP2 SUB SWAP1 RETURN JUMPDEST PUSH0 DUP1 SLOAD SWAP1 PUSH2 0x100 EXP SWAP1 DIV PUSH20 0xFFFFFFFFFFFFFFFFFFFFFFFFFFFFFFFFFFFFFFFF AND DUP2 JUMP JUMPDEST PUSH1 0x5 SLOAD DUP2 JUMP JUMPDEST PUSH1 0x1 SLOAD DUP2 JUMP JUMPDEST PUSH1 0x3 SLOAD DUP2 JUMP JUMPDEST PUSH0 TIMESTAMP SWAP1 POP SWAP1 JUMP JUMPDEST PUSH1 0x6 SLOAD DUP2 JUMP JUMPDEST PUSH1 0x8 SLOAD DUP2 JUMP JUMPDEST PUSH1 0x9 PUSH0 SWAP1 SLOAD SWAP1 PUSH2 0x100 EXP SWAP1 DIV PUSH20 0xFFFFFFFFFFFFFFFFFFFFFFFFFFFFFFFFFFFFFFFF AND DUP2 JUMP JUMPDEST PUSH1 0x7 PUSH0 SWAP1 SLOAD SWAP1 PUSH2 0x100 EXP SWAP1 DIV PUSH1 0xFF AND DUP2 JUMP JUMPDEST PUSH0 DUP1 SLOAD SWAP1 PUSH2 0x100 EXP SWAP1 DIV PUSH20 0xFFFFFFFFFFFFFFFFFFFFFFFFFFFFFFFFFFFFFFFF AND PUSH20 0xFFFFFFFFFFFFFFFFFFFFFFFFFFFFFFFFFFFFFFFF AND CALLER PUSH20 0xFFFFFFFFFFFFFFFFFFFFFFFFFFFFFFFFFFFFFFFF AND EQ PUSH2 0x415 JUMPI PUSH1 0x40 MLOAD PUSH32 0x8C379A000000000000000000000000000000000000000000000000000000000 DUP2 MSTORE PUSH1 0x4 ADD PUSH2 0x40C SWAP1 PUSH2 0x912 JUMP JUMPDEST PUSH1 0x40 MLOAD DUP1 SWAP2 SUB SWAP1 REVERT JUMPDEST PUSH1 0x7 PUSH0 SWAP1 SLOAD SWAP1 PUSH2 0x100 EXP SWAP1 DIV PUSH1 0xFF AND ISZERO PUSH2 0x464 JUMPI PUSH1 0x40 MLOAD PUSH32 0x8C379A000000000000000000000000000000000000000000000000000000000 DUP2 MSTORE PUSH1 0x4 ADD PUSH2 0x45B SWAP1 PUSH2 0x97A JUMP JUMPDEST PUSH1 0x40 MLOAD DUP1 SWAP2 SUB SWAP1 REVERT JUMPDEST PUSH1 0x1 PUSH1 0x7 PUSH0 PUSH2 0x100 EXP DUP2 SLOAD DUP2 PUSH1 0xFF MUL NOT AND SWAP1 DUP4 ISZERO ISZERO MUL OR SWAP1 SSTORE POP JUMP JUMPDEST PUSH1 0x2 SLOAD DUP2 JUMP JUMPDEST PUSH1 0x4 SLOAD TIMESTAMP LT ISZERO PUSH2 0x4CB JUMPI PUSH1 0x40 MLOAD PUSH32 0x8C379A000000000000000000000000000000000000000000000000000000000 DUP2 MSTORE PUSH1 0x4 ADD PUSH2 0x4C2 SWAP1 PUSH2 0x9E2 JUMP JUMPDEST PUSH1 0x40 MLOAD DUP1 SWAP2 SUB SWAP1 REVERT JUMPDEST PUSH1 0x6 SLOAD TIMESTAMP GT ISZERO PUSH2 0x510 JUMPI PUSH1 0x40 MLOAD PUSH32 0x8C379A000000000000000000000000000000000000000000000000000000000 DUP2 MSTORE PUSH1 0x4 ADD PUSH2 0x507 SWAP1 PUSH2 0x97A JUMP JUMPDEST PUSH1 0x40 MLOAD DUP1 SWAP2 SUB SWAP1 REVERT JUMPDEST PUSH2 0x518 PUSH2 0x755 JUMP JUMPDEST PUSH1 0x8 SLOAD LT ISZERO PUSH2 0x55C JUMPI PUSH1 0x40 MLOAD PUSH32 0x8C379A000000000000000000000000000000000000000000000000000000000 DUP2 MSTORE PUSH1 0x4 ADD PUSH2 0x553 SWAP1 PUSH2 0xA4A JUMP JUMPDEST PUSH1 0x40 MLOAD DUP1 SWAP2 SUB SWAP1 REVERT JUMPDEST PUSH1 0x7 PUSH0 SWAP1 SLOAD SWAP1 PUSH2 0x100 EXP SWAP1 DIV PUSH1 0xFF AND ISZERO PUSH2 0x5AB JUMPI PUSH1 0x40 MLOAD PUSH32 0x8C379A000000000000000000000000000000000000000000000000000000000 DUP2 MSTORE PUSH1 0x4 ADD PUSH2 0x5A2 SWAP1 PUSH2 0x97A JUMP JUMPDEST PUSH1 0x40 MLOAD DUP1 SWAP2 SUB SWAP1 REVERT JUMPDEST CALLER PUSH1 0x9 PUSH0 PUSH2 0x100 EXP DUP2 SLOAD DUP2 PUSH20 0xFFFFFFFFFFFFFFFFFFFFFFFFFFFFFFFFFFFFFFFF MUL NOT AND SWAP1 DUP4 PUSH20 0xFFFFFFFFFFFFFFFFFFFFFFFFFFFFFFFFFFFFFFFF AND MUL OR SWAP1 SSTORE POP PUSH1 0x1 PUSH1 0x7 PUSH0 PUSH2 0x100 EXP DUP2 SLOAD DUP2 PUSH1 0xFF MUL NOT AND SWAP1 DUP4 ISZERO ISZERO MUL OR SWAP1 SSTORE POP PUSH0 DUP1 SLOAD SWAP1 PUSH2 0x100 EXP SWAP1 DIV PUSH20 0xFFFFFFFFFFFFFFFFFFFFFFFFFFFFFFFFFFFFFFFF AND PUSH20 0xFFFFFFFFFFFFFFFFFFFFFFFFFFFFFFFFFFFFFFFF AND PUSH2 0x8FC CALLVALUE SWAP1 DUP2 ISZERO MUL SWAP1 PUSH1 0x40 MLOAD PUSH0 PUSH1 0x40 MLOAD DUP1 DUP4 SUB DUP2 DUP6 DUP9 DUP9 CALL SWAP4 POP POP POP POP ISZERO DUP1 ISZERO PUSH2 0x667 JUMPI RETURNDATASIZE PUSH0 DUP1 RETURNDATACOPY RETURNDATASIZE PUSH0 REVERT JUMPDEST POP PUSH1 0x9 PUSH0 SWAP1 SLOAD SWAP1 PUSH2 0x100 EXP SWAP1 DIV PUSH20 0xFFFFFFFFFFFFFFFFFFFFFFFFFFFFFFFFFFFFFFFF AND PUSH20 0xFFFFFFFFFFFFFFFFFFFFFFFFFFFFFFFFFFFFFFFF AND PUSH32 0x792FE07C0F3CE4EF42DF79C4A2B07925168CDDBAABF7A7EF1351F027A3760313 CALLVALUE PUSH1 0x40 MLOAD PUSH2 0x6CF SWAP2 SWAP1 PUSH2 0x846 JUMP JUMPDEST PUSH1 0x40 MLOAD DUP1 SWAP2 SUB SWAP1 LOG2 PUSH1 0x9 PUSH0 SWAP1 SLOAD SWAP1 PUSH2 0x100 EXP SWAP1 DIV PUSH20 0xFFFFFFFFFFFFFFFFFFFFFFFFFFFFFFFFFFFFFFFF AND PUSH20 0xFFFFFFFFFFFFFFFFFFFFFFFFFFFFFFFFFFFFFFFF AND PUSH32 0xDAEC4582D5D9595688C8C98545FDD1C696D41C6AEAEB636737E84ED2F5C00EDA PUSH2 0x738 PUSH2 0x755 JUMP JUMPDEST PUSH1 0x40 MLOAD PUSH2 0x745 SWAP2 SWAP1 PUSH2 0x846 JUMP JUMPDEST PUSH1 0x40 MLOAD DUP1 SWAP2 SUB SWAP1 LOG2 JUMP JUMPDEST PUSH1 0x4 SLOAD DUP2 JUMP JUMPDEST PUSH0 DUP1 PUSH1 0x4 SLOAD TIMESTAMP PUSH2 0x765 SWAP2 SWAP1 PUSH2 0xA95 JUMP JUMPDEST SWAP1 POP PUSH1 0x6 SLOAD TIMESTAMP LT ISZERO DUP1 PUSH2 0x783 JUMPI POP PUSH1 0x7 PUSH0 SWAP1 SLOAD SWAP1 PUSH2 0x100 EXP SWAP1 DIV PUSH1 0xFF AND JUMPDEST ISZERO PUSH2 0x793 JUMPI PUSH1 0x2 SLOAD SWAP2 POP POP PUSH2 0x7D3 JUMP JUMPDEST PUSH0 PUSH1 0x3 SLOAD DUP3 PUSH2 0x7A2 SWAP2 SWAP1 PUSH2 0xAC8 JUMP JUMPDEST SWAP1 POP PUSH0 DUP2 PUSH1 0x1 SLOAD PUSH2 0x7B3 SWAP2 SWAP1 PUSH2 0xA95 JUMP JUMPDEST SWAP1 POP PUSH1 0x2 SLOAD DUP2 LT ISZERO PUSH2 0x7CC JUMPI PUSH1 0x2 SLOAD SWAP4 POP POP POP POP PUSH2 0x7D3 JUMP JUMPDEST DUP1 SWAP4 POP POP POP POP JUMPDEST SWAP1 JUMP JUMPDEST PUSH0 PUSH20 0xFFFFFFFFFFFFFFFFFFFFFFFFFFFFFFFFFFFFFFFF DUP3 AND SWAP1 POP SWAP2 SWAP1 POP JUMP JUMPDEST PUSH0 PUSH2 0x7FF DUP3 PUSH2 0x7D6 JUMP JUMPDEST SWAP1 POP SWAP2 SWAP1 POP JUMP JUMPDEST PUSH2 0x80F DUP2 PUSH2 0x7F5 JUMP JUMPDEST DUP3 MSTORE POP POP JUMP JUMPDEST PUSH0 PUSH1 0x20 DUP3 ADD SWAP1 POP PUSH2 0x828 PUSH0 DUP4 ADD DUP5 PUSH2 0x806 JUMP JUMPDEST SWAP3 SWAP2 POP POP JUMP JUMPDEST PUSH0 DUP2 SWAP1 POP SWAP2 SWAP1 POP JUMP JUMPDEST PUSH2 0x840 DUP2 PUSH2 0x82E JUMP JUMPDEST DUP3 MSTORE POP POP JUMP JUMPDEST PUSH0 PUSH1 0x20 DUP3 ADD SWAP1 POP PUSH2 0x859 PUSH0 DUP4 ADD DUP5 PUSH2 0x837 JUMP JUMPDEST SWAP3 SWAP2 POP POP JUMP JUMPDEST PUSH0 DUP2 ISZERO ISZERO SWAP1 POP SWAP2 SWAP1 POP JUMP JUMPDEST PUSH2 0x873 DUP2 PUSH2 0x85F JUMP JUMPDEST DUP3 MSTORE POP POP JUMP JUMPDEST PUSH0 PUSH1 0x20 DUP3 ADD SWAP1 POP PUSH2 0x88C PUSH0 DUP4 ADD DUP5 PUSH2 0x86A JUMP JUMPDEST SWAP3 SWAP2 POP POP JUMP JUMPDEST PUSH0 DUP3 DUP3 MSTORE PUSH1 0x20 DUP3 ADD SWAP1 POP SWAP3 SWAP2 POP POP JUMP JUMPDEST PUSH32 0x4F6E6C792073656C6C65722063616E2063616E63656C20746865206175637469 PUSH0 DUP3 ADD MSTORE PUSH32 0x6F6E2E0000000000000000000000000000000000000000000000000000000000 PUSH1 0x20 DUP3 ADD MSTORE POP JUMP JUMPDEST PUSH0 PUSH2 0x8FC PUSH1 0x23 DUP4 PUSH2 0x892 JUMP JUMPDEST SWAP2 POP PUSH2 0x907 DUP3 PUSH2 0x8A2 JUMP JUMPDEST PUSH1 0x40 DUP3 ADD SWAP1 POP SWAP2 SWAP1 POP JUMP JUMPDEST PUSH0 PUSH1 0x20 DUP3 ADD SWAP1 POP DUP2 DUP2 SUB PUSH0 DUP4 ADD MSTORE PUSH2 0x929 DUP2 PUSH2 0x8F0 JUMP JUMPDEST SWAP1 POP SWAP2 SWAP1 POP JUMP JUMPDEST PUSH32 0x41756374696F6E2068617320616C726561647920656E6465642E000000000000 PUSH0 DUP3 ADD MSTORE POP JUMP JUMPDEST PUSH0 PUSH2 0x964 PUSH1 0x1A DUP4 PUSH2 0x892 JUMP JUMPDEST SWAP2 POP PUSH2 0x96F DUP3 PUSH2 0x930 JUMP JUMPDEST PUSH1 0x20 DUP3 ADD SWAP1 POP SWAP2 SWAP1 POP JUMP JUMPDEST PUSH0 PUSH1 0x20 DUP3 ADD SWAP1 POP DUP2 DUP2 SUB PUSH0 DUP4 ADD MSTORE PUSH2 0x991 DUP2 PUSH2 0x958 JUMP JUMPDEST SWAP1 POP SWAP2 SWAP1 POP JUMP JUMPDEST PUSH32 0x41756374696F6E206861736E27742073746172746564207965742E0000000000 PUSH0 DUP3 ADD MSTORE POP JUMP JUMPDEST PUSH0 PUSH2 0x9CC PUSH1 0x1B DUP4 PUSH2 0x892 JUMP JUMPDEST SWAP2 POP PUSH2 0x9D7 DUP3 PUSH2 0x998 JUMP JUMPDEST PUSH1 0x20 DUP3 ADD SWAP1 POP SWAP2 SWAP1 POP JUMP JUMPDEST PUSH0 PUSH1 0x20 DUP3 ADD SWAP1 POP DUP2 DUP2 SUB PUSH0 DUP4 ADD MSTORE PUSH2 0x9F9 DUP2 PUSH2 0x9C0 JUMP JUMPDEST SWAP1 POP SWAP2 SWAP1 POP JUMP JUMPDEST PUSH32 0x496E73756666696369656E742066756E647320746F2070757263686173652E00 PUSH0 DUP3 ADD MSTORE POP JUMP JUMPDEST PUSH0 PUSH2 0xA34 PUSH1 0x1F DUP4 PUSH2 0x892 JUMP JUMPDEST SWAP2 POP PUSH2 0xA3F DUP3 PUSH2 0xA00 JUMP JUMPDEST PUSH1 0x20 DUP3 ADD SWAP1 POP SWAP2 SWAP1 POP JUMP JUMPDEST PUSH0 PUSH1 0x20 DUP3 ADD SWAP1 POP DUP2 DUP2 SUB PUSH0 DUP4 ADD MSTORE PUSH2 0xA61 DUP2 PUSH2 0xA28 JUMP JUMPDEST SWAP1 POP SWAP2 SWAP1 POP JUMP JUMPDEST PUSH32 0x4E487B7100000000000000000000000000000000000000000000000000000000 PUSH0 MSTORE PUSH1 0x11 PUSH1 0x4 MSTORE PUSH1 0x24 PUSH0 REVERT JUMPDEST PUSH0 PUSH2 0xA9F DUP3 PUSH2 0x82E JUMP JUMPDEST SWAP2 POP PUSH2 0xAAA DUP4 PUSH2 0x82E JUMP JUMPDEST SWAP3 POP DUP3 DUP3 SUB SWAP1 POP DUP2 DUP2 GT ISZERO PUSH2 0xAC2 JUMPI PUSH2 0xAC1 PUSH2 0xA68 JUMP JUMPDEST JUMPDEST SWAP3 SWAP2 POP POP JUMP JUMPDEST PUSH0 PUSH2 0xAD2 DUP3 PUSH2 0x82E JUMP JUMPDEST SWAP2 POP PUSH2 0xADD DUP4 PUSH2 0x82E JUMP JUMPDEST SWAP3 POP DUP3 DUP3 MUL PUSH2 0xAEB DUP2 PUSH2 0x82E JUMP JUMPDEST SWAP2 POP DUP3 DUP3 DIV DUP5 EQ DUP4 ISZERO OR PUSH2 0xB02 JUMPI PUSH2 0xB01 PUSH2 0xA68 JUMP JUMPDEST JUMPDEST POP SWAP3 SWAP2 POP POP JUMP INVALID LOG2 PUSH5 0x6970667358 0x22 SLT KECCAK256 MULMOD ADDRESS 0xC2 ADDMOD BLOBHASH 0xB7 PUSH19 0xA990ED521AF0BA20B6B9B971BF10C34BC11AB0 SWAP1 0xB9 LT PUSH26 0x578A64736F6C634300081A003300000000000000000000000000 "
				},
				"gasEstimates": {
					"creation": {
						"codeDepositCost": "575800",
						"executionCost": "infinite",
						"totalCost": "infinite"
					},
					"external": {
						"auctionDuration()": "2471",
						"auctionEndTime()": "2492",
						"auctionEnded()": "2511",
						"auctionStartTime()": "2491",
						"buyer()": "2531",
						"cancelAuction()": "28797",
						"finalPrice()": "2447",
						"getCurrentPrice()": "infinite",
						"getCurrentTime()": "376",
						"initialPrice()": "2493",
						"money()": "2514",
						"priceDecrement()": "2448",
						"purchaseItem()": "infinite",
						"seller()": "2529"
					}
				},
				"methodIdentifiers": {
					"auctionDuration()": "0cbf54c8",
					"auctionEndTime()": "4b449cba",
					"auctionEnded()": "86433374",
					"auctionStartTime()": "eb54f9ec",
					"buyer()": "7150d8ae",
					"cancelAuction()": "8fa8b790",
					"finalPrice()": "a6b513ee",
					"getCurrentPrice()": "eb91d37e",
					"getCurrentTime()": "29cb924d",
					"initialPrice()": "1d0806ae",
					"money()": "4ddd108a",
					"priceDecrement()": "26cddbfb",
					"purchaseItem()": "e0d0c4a6",
					"seller()": "08551a53"
				}
			},
			"storageLayout": {
				"storage": [
					{
						"astId": 3,
						"contract": "contracts/study3/DutchAuction.sol:DutchAuction",
						"label": "seller",
						"offset": 0,
						"slot": "0",
						"type": "t_address"
					},
					{
						"astId": 5,
						"contract": "contracts/study3/DutchAuction.sol:DutchAuction",
						"label": "initialPrice",
						"offset": 0,
						"slot": "1",
						"type": "t_uint256"
					},
					{
						"astId": 7,
						"contract": "contracts/study3/DutchAuction.sol:DutchAuction",
						"label": "finalPrice",
						"offset": 0,
						"slot": "2",
						"type": "t_uint256"
					},
					{
						"astId": 9,
						"contract": "contracts/study3/DutchAuction.sol:DutchAuction",
						"label": "priceDecrement",
						"offset": 0,
						"slot": "3",
						"type": "t_uint256"
					},
					{
						"astId": 11,
						"contract": "contracts/study3/DutchAuction.sol:DutchAuction",
						"label": "auctionStartTime",
						"offset": 0,
						"slot": "4",
						"type": "t_uint256"
					},
					{
						"astId": 13,
						"contract": "contracts/study3/DutchAuction.sol:DutchAuction",
						"label": "auctionDuration",
						"offset": 0,
						"slot": "5",
						"type": "t_uint256"
					},
					{
						"astId": 15,
						"contract": "contracts/study3/DutchAuction.sol:DutchAuction",
						"label": "auctionEndTime",
						"offset": 0,
						"slot": "6",
						"type": "t_uint256"
					},
					{
						"astId": 18,
						"contract": "contracts/study3/DutchAuction.sol:DutchAuction",
						"label": "auctionEnded",
						"offset": 0,
						"slot": "7",
						"type": "t_bool"
					},
					{
						"astId": 20,
						"contract": "contracts/study3/DutchAuction.sol:DutchAuction",
						"label": "money",
						"offset": 0,
						"slot": "8",
						"type": "t_uint256"
					},
					{
						"astId": 22,
						"contract": "contracts/study3/DutchAuction.sol:DutchAuction",
						"label": "buyer",
						"offset": 0,
						"slot": "9",
						"type": "t_address"
					}
				],
				"types": {
					"t_address": {
						"encoding": "inplace",
						"label": "address",
						"numberOfBytes": "20"
					},
					"t_bool": {
						"encoding": "inplace",
						"label": "bool",
						"numberOfBytes": "1"
					},
					"t_uint256": {
						"encoding": "inplace",
						"label": "uint256",
						"numberOfBytes": "32"
					}
				}
			},
			"userdoc": {
				"kind": "user",
				"methods": {},
				"version": 1
			}
		}
	}
}