{
	"data": {
		"bytecode": {
			"linkReferences": {},
			"object": "6080604052348015600e575f80fd5b506119538061001c5f395ff3fe608060405234801561000f575f80fd5b5060043610610114575f3560e01c8063715018a6116100a0578063b6b55f251161006f578063b6b55f25146102d0578063dd62ed3e146102ec578063e001ff521461031c578063f2fde38b14610338578063fc0c546a1461035457610114565b8063715018a61461025a5780638da5cb5b1461026457806395d89b4114610282578063a9059cbb146102a057610114565b806323b872dd116100e757806323b872dd146101a25780632e1a7d4d146101d2578063313ce567146101ee57806361603d891461020c57806370a082311461022a57610114565b8063045544431461011857806306fdde0314610136578063095ea7b31461015457806318160ddd14610184575b5f80fd5b610120610372565b60405161012d9190610f0f565b60405180910390f35b61013e610378565b60405161014b9190610f98565b60405180910390f35b61016e6004803603810190610169919061104d565b610404565b60405161017b91906110a5565b60405180910390f35b61018c610437565b6040516101999190610f0f565b60405180910390f35b6101bc60048036038101906101b791906110be565b61043d565b6040516101c991906110a5565b60405180910390f35b6101ec60048036038101906101e7919061110e565b610470565b005b6101f66106e0565b6040516102039190611154565b60405180910390f35b610214610773565b6040516102219190610f0f565b60405180910390f35b610244600480360381019061023f919061116d565b610779565b6040516102519190610f0f565b60405180910390f35b61026261078e565b005b61026c6107a1565b60405161027991906111a7565b60405180910390f35b61028a6107d6565b6040516102979190610f98565b60405180910390f35b6102ba60048036038101906102b5919061104d565b610862565b6040516102c791906110a5565b60405180910390f35b6102ea60048036038101906102e5919061110e565b610895565b005b610306600480360381019061030191906111c0565b610a76565b6040516103139190610f0f565b60405180910390f35b6103366004803603810190610331919061132a565b610aa9565b005b610352600480360381019061034d919061116d565b610ca3565b005b61035c610d27565b6040516103699190611446565b60405180910390f35b60025481565b600380546103859061148c565b80601f01602080910402602001604051908101604052809291908181526020018280546103b19061148c565b80156103fc5780601f106103d3576101008083540402835291602001916103fc565b820191905f5260205f20905b8154815290600101906020018083116103df57829003601f168201915b505050505081565b5f6040517fa038794000000000000000000000000000000000000000000000000000000000815260040160405180910390fd5b60055481565b5f6040517fa038794000000000000000000000000000000000000000000000000000000000815260040160405180910390fd5b6001544211801561048f575060025460015461048c91906114e9565b42105b156104c6576040517f3c2c6e9d00000000000000000000000000000000000000000000000000000000815260040160405180910390fd5b8060065f3373ffffffffffffffffffffffffffffffffffffffff1673ffffffffffffffffffffffffffffffffffffffff1681526020019081526020015f2054101561053d576040517f7fa62f9d00000000000000000000000000000000000000000000000000000000815260040160405180910390fd5b8060065f3373ffffffffffffffffffffffffffffffffffffffff1673ffffffffffffffffffffffffffffffffffffffff1681526020019081526020015f205f828254610589919061151c565b925050819055508060055f8282546105a1919061151c565b925050819055505f8054906101000a900473ffffffffffffffffffffffffffffffffffffffff1673ffffffffffffffffffffffffffffffffffffffff1663a9059cbb33836040518363ffffffff1660e01b815260040161060292919061154f565b6020604051808303815f875af115801561061e573d5f803e3d5ffd5b505050506040513d601f19601f8201168201806040525081019061064291906115a0565b610678576040517f90b8ec1800000000000000000000000000000000000000000000000000000000815260040160405180910390fd5b3373ffffffffffffffffffffffffffffffffffffffff163073ffffffffffffffffffffffffffffffffffffffff167fddf252ad1be2c89b69c2b068fc378daa952ba7f163c4a11628f55a4df523b3ef836040516106d59190610f0f565b60405180910390a350565b5f805f9054906101000a900473ffffffffffffffffffffffffffffffffffffffff1673ffffffffffffffffffffffffffffffffffffffff1663313ce5676040518163ffffffff1660e01b8152600401602060405180830381865afa15801561074a573d5f803e3d5ffd5b505050506040513d601f19601f8201168201806040525081019061076e91906115f5565b905090565b60015481565b6006602052805f5260405f205f915090505481565b610796610d4a565b61079f5f610dd1565b565b5f806107ab610ea2565b9050805f015f9054906101000a900473ffffffffffffffffffffffffffffffffffffffff1691505090565b600480546107e39061148c565b80601f016020809104026020016040519081016040528092919081815260200182805461080f9061148c565b801561085a5780601f106108315761010080835404028352916020019161085a565b820191905f5260205f20905b81548152906001019060200180831161083d57829003601f168201915b505050505081565b5f6040517fa038794000000000000000000000000000000000000000000000000000000000815260040160405180910390fd5b6001544211156108d1576040517f9883528e00000000000000000000000000000000000000000000000000000000815260040160405180910390fd5b8060065f3373ffffffffffffffffffffffffffffffffffffffff1673ffffffffffffffffffffffffffffffffffffffff1681526020019081526020015f205f82825461091d91906114e9565b925050819055508060055f82825461093591906114e9565b925050819055505f8054906101000a900473ffffffffffffffffffffffffffffffffffffffff1673ffffffffffffffffffffffffffffffffffffffff166323b872dd3330846040518463ffffffff1660e01b815260040161099893929190611620565b6020604051808303815f875af11580156109b4573d5f803e3d5ffd5b505050506040513d601f19601f820116820180604052508101906109d891906115a0565b610a0e576040517f90b8ec1800000000000000000000000000000000000000000000000000000000815260040160405180910390fd5b3073ffffffffffffffffffffffffffffffffffffffff163373ffffffffffffffffffffffffffffffffffffffff167fddf252ad1be2c89b69c2b068fc378daa952ba7f163c4a11628f55a4df523b3ef83604051610a6b9190610f0f565b60405180910390a350565b5f6040517fa038794000000000000000000000000000000000000000000000000000000000815260040160405180910390fd5b5f610ab2610ec9565b90505f815f0160089054906101000a900460ff161590505f825f015f9054906101000a900467ffffffffffffffff1690505f808267ffffffffffffffff16148015610afa5750825b90505f60018367ffffffffffffffff16148015610b2d57505f3073ffffffffffffffffffffffffffffffffffffffff163b145b905081158015610b3b575080155b15610b72576040517ff92ee8a900000000000000000000000000000000000000000000000000000000815260040160405180910390fd5b6001855f015f6101000a81548167ffffffffffffffff021916908367ffffffffffffffff1602179055508315610bbf576001855f0160086101000a81548160ff0219169083151502179055505b610bc88b610ca3565b895f806101000a81548173ffffffffffffffffffffffffffffffffffffffff021916908373ffffffffffffffffffffffffffffffffffffffff16021790555088600181905550876002819055508660039081610c2491906117e9565b508560049081610c3491906117e9565b505f6005819055508315610c96575f855f0160086101000a81548160ff0219169083151502179055507fc7f505b2f371ae2175ee4913f4499e1f2633a7b5936321eed1cdaeb6115181d26001604051610c8d9190611904565b60405180910390a15b5050505050505050505050565b610cab610d4a565b5f73ffffffffffffffffffffffffffffffffffffffff168173ffffffffffffffffffffffffffffffffffffffff1603610d1b575f6040517f1e4fbdf7000000000000000000000000000000000000000000000000000000008152600401610d1291906111a7565b60405180910390fd5b610d2481610dd1565b50565b5f8054906101000a900473ffffffffffffffffffffffffffffffffffffffff1681565b610d52610ef0565b73ffffffffffffffffffffffffffffffffffffffff16610d706107a1565b73ffffffffffffffffffffffffffffffffffffffff1614610dcf57610d93610ef0565b6040517f118cdaa7000000000000000000000000000000000000000000000000000000008152600401610dc691906111a7565b60405180910390fd5b565b5f610dda610ea2565b90505f815f015f9054906101000a900473ffffffffffffffffffffffffffffffffffffffff16905082825f015f6101000a81548173ffffffffffffffffffffffffffffffffffffffff021916908373ffffffffffffffffffffffffffffffffffffffff1602179055508273ffffffffffffffffffffffffffffffffffffffff168173ffffffffffffffffffffffffffffffffffffffff167f8be0079c531659141344cd1fd0a4f28419497f9722a3daafe3b4186f6b6457e060405160405180910390a3505050565b5f7f9016d09d72d40fdae2fd8ceac6b6234c7706214fd39c1cd1e609a0528c199300905090565b5f7ff0c57e16840df040f15088dc2f81fe391c3923bec73e23a9662efc9c229c6a00905090565b5f33905090565b5f819050919050565b610f0981610ef7565b82525050565b5f602082019050610f225f830184610f00565b92915050565b5f81519050919050565b5f82825260208201905092915050565b8281835e5f83830152505050565b5f601f19601f8301169050919050565b5f610f6a82610f28565b610f748185610f32565b9350610f84818560208601610f42565b610f8d81610f50565b840191505092915050565b5f6020820190508181035f830152610fb08184610f60565b905092915050565b5f604051905090565b5f80fd5b5f80fd5b5f73ffffffffffffffffffffffffffffffffffffffff82169050919050565b5f610ff282610fc9565b9050919050565b61100281610fe8565b811461100c575f80fd5b50565b5f8135905061101d81610ff9565b92915050565b61102c81610ef7565b8114611036575f80fd5b50565b5f8135905061104781611023565b92915050565b5f806040838503121561106357611062610fc1565b5b5f6110708582860161100f565b925050602061108185828601611039565b9150509250929050565b5f8115159050919050565b61109f8161108b565b82525050565b5f6020820190506110b85f830184611096565b92915050565b5f805f606084860312156110d5576110d4610fc1565b5b5f6110e28682870161100f565b93505060206110f38682870161100f565b925050604061110486828701611039565b9150509250925092565b5f6020828403121561112357611122610fc1565b5b5f61113084828501611039565b91505092915050565b5f60ff82169050919050565b61114e81611139565b82525050565b5f6020820190506111675f830184611145565b92915050565b5f6020828403121561118257611181610fc1565b5b5f61118f8482850161100f565b91505092915050565b6111a181610fe8565b82525050565b5f6020820190506111ba5f830184611198565b92915050565b5f80604083850312156111d6576111d5610fc1565b5b5f6111e38582860161100f565b92505060206111f48582860161100f565b9150509250929050565b5f80fd5b5f80fd5b7f4e487b71000000000000000000000000000000000000000000000000000000005f52604160045260245ffd5b61123c82610f50565b810181811067ffffffffffffffff8211171561125b5761125a611206565b5b80604052505050565b5f61126d610fb8565b90506112798282611233565b919050565b5f67ffffffffffffffff82111561129857611297611206565b5b6112a182610f50565b9050602081019050919050565b828183375f83830152505050565b5f6112ce6112c98461127e565b611264565b9050828152602081018484840111156112ea576112e9611202565b5b6112f58482856112ae565b509392505050565b5f82601f830112611311576113106111fe565b5b81356113218482602086016112bc565b91505092915050565b5f805f805f8060c0878903121561134457611343610fc1565b5b5f61135189828a0161100f565b965050602061136289828a0161100f565b955050604061137389828a01611039565b945050606061138489828a01611039565b935050608087013567ffffffffffffffff8111156113a5576113a4610fc5565b5b6113b189828a016112fd565b92505060a087013567ffffffffffffffff8111156113d2576113d1610fc5565b5b6113de89828a016112fd565b9150509295509295509295565b5f819050919050565b5f61140e61140961140484610fc9565b6113eb565b610fc9565b9050919050565b5f61141f826113f4565b9050919050565b5f61143082611415565b9050919050565b61144081611426565b82525050565b5f6020820190506114595f830184611437565b92915050565b7f4e487b71000000000000000000000000000000000000000000000000000000005f52602260045260245ffd5b5f60028204905060018216806114a357607f821691505b6020821081036114b6576114b561145f565b5b50919050565b7f4e487b71000000000000000000000000000000000000000000000000000000005f52601160045260245ffd5b5f6114f382610ef7565b91506114fe83610ef7565b9250828201905080821115611516576115156114bc565b5b92915050565b5f61152682610ef7565b915061153183610ef7565b9250828203905081811115611549576115486114bc565b5b92915050565b5f6040820190506115625f830185611198565b61156f6020830184610f00565b9392505050565b61157f8161108b565b8114611589575f80fd5b50565b5f8151905061159a81611576565b92915050565b5f602082840312156115b5576115b4610fc1565b5b5f6115c28482850161158c565b91505092915050565b6115d481611139565b81146115de575f80fd5b50565b5f815190506115ef816115cb565b92915050565b5f6020828403121561160a57611609610fc1565b5b5f611617848285016115e1565b91505092915050565b5f6060820190506116335f830186611198565b6116406020830185611198565b61164d6040830184610f00565b949350505050565b5f819050815f5260205f209050919050565b5f6020601f8301049050919050565b5f82821b905092915050565b5f600883026116b17fffffffffffffffffffffffffffffffffffffffffffffffffffffffffffffffff82611676565b6116bb8683611676565b95508019841693508086168417925050509392505050565b5f6116ed6116e86116e384610ef7565b6113eb565b610ef7565b9050919050565b5f819050919050565b611706836116d3565b61171a611712826116f4565b848454611682565b825550505050565b5f90565b61172e611722565b6117398184846116fd565b505050565b5b8181101561175c576117515f82611726565b60018101905061173f565b5050565b601f8211156117a15761177281611655565b61177b84611667565b8101602085101561178a578190505b61179e61179685611667565b83018261173e565b50505b505050565b5f82821c905092915050565b5f6117c15f19846008026117a6565b1980831691505092915050565b5f6117d983836117b2565b9150826002028217905092915050565b6117f282610f28565b67ffffffffffffffff81111561180b5761180a611206565b5b611815825461148c565b611820828285611760565b5f60209050601f831160018114611851575f841561183f578287015190505b61184985826117ce565b8655506118b0565b601f19841661185f86611655565b5f5b8281101561188657848901518255600182019150602085019450602081019050611861565b868310156118a3578489015161189f601f8916826117b2565b8355505b6001600288020188555050505b505050505050565b5f819050919050565b5f67ffffffffffffffff82169050919050565b5f6118ee6118e96118e4846118b8565b6113eb565b6118c1565b9050919050565b6118fe816118d4565b82525050565b5f6020820190506119175f8301846118f5565b9291505056fea26469706673582212209a607b408d7ac81de8de9d02b43574e48c4dbd9af236f993e841b1feae57753b64736f6c634300081a0033",
			"opcodes": "PUSH1 0x80 PUSH1 0x40 MSTORE CALLVALUE DUP1 ISZERO PUSH1 0xE JUMPI PUSH0 DUP1 REVERT JUMPDEST POP PUSH2 0x1953 DUP1 PUSH2 0x1C PUSH0 CODECOPY PUSH0 RETURN INVALID PUSH1 0x80 PUSH1 0x40 MSTORE CALLVALUE DUP1 ISZERO PUSH2 0xF JUMPI PUSH0 DUP1 REVERT JUMPDEST POP PUSH1 0x4 CALLDATASIZE LT PUSH2 0x114 JUMPI PUSH0 CALLDATALOAD PUSH1 0xE0 SHR DUP1 PUSH4 0x715018A6 GT PUSH2 0xA0 JUMPI DUP1 PUSH4 0xB6B55F25 GT PUSH2 0x6F JUMPI DUP1 PUSH4 0xB6B55F25 EQ PUSH2 0x2D0 JUMPI DUP1 PUSH4 0xDD62ED3E EQ PUSH2 0x2EC JUMPI DUP1 PUSH4 0xE001FF52 EQ PUSH2 0x31C JUMPI DUP1 PUSH4 0xF2FDE38B EQ PUSH2 0x338 JUMPI DUP1 PUSH4 0xFC0C546A EQ PUSH2 0x354 JUMPI PUSH2 0x114 JUMP JUMPDEST DUP1 PUSH4 0x715018A6 EQ PUSH2 0x25A JUMPI DUP1 PUSH4 0x8DA5CB5B EQ PUSH2 0x264 JUMPI DUP1 PUSH4 0x95D89B41 EQ PUSH2 0x282 JUMPI DUP1 PUSH4 0xA9059CBB EQ PUSH2 0x2A0 JUMPI PUSH2 0x114 JUMP JUMPDEST DUP1 PUSH4 0x23B872DD GT PUSH2 0xE7 JUMPI DUP1 PUSH4 0x23B872DD EQ PUSH2 0x1A2 JUMPI DUP1 PUSH4 0x2E1A7D4D EQ PUSH2 0x1D2 JUMPI DUP1 PUSH4 0x313CE567 EQ PUSH2 0x1EE JUMPI DUP1 PUSH4 0x61603D89 EQ PUSH2 0x20C JUMPI DUP1 PUSH4 0x70A08231 EQ PUSH2 0x22A JUMPI PUSH2 0x114 JUMP JUMPDEST DUP1 PUSH4 0x4554443 EQ PUSH2 0x118 JUMPI DUP1 PUSH4 0x6FDDE03 EQ PUSH2 0x136 JUMPI DUP1 PUSH4 0x95EA7B3 EQ PUSH2 0x154 JUMPI DUP1 PUSH4 0x18160DDD EQ PUSH2 0x184 JUMPI JUMPDEST PUSH0 DUP1 REVERT JUMPDEST PUSH2 0x120 PUSH2 0x372 JUMP JUMPDEST PUSH1 0x40 MLOAD PUSH2 0x12D SWAP2 SWAP1 PUSH2 0xF0F JUMP JUMPDEST PUSH1 0x40 MLOAD DUP1 SWAP2 SUB SWAP1 RETURN JUMPDEST PUSH2 0x13E PUSH2 0x378 JUMP JUMPDEST PUSH1 0x40 MLOAD PUSH2 0x14B SWAP2 SWAP1 PUSH2 0xF98 JUMP JUMPDEST PUSH1 0x40 MLOAD DUP1 SWAP2 SUB SWAP1 RETURN JUMPDEST PUSH2 0x16E PUSH1 0x4 DUP1 CALLDATASIZE SUB DUP2 ADD SWAP1 PUSH2 0x169 SWAP2 SWAP1 PUSH2 0x104D JUMP JUMPDEST PUSH2 0x404 JUMP JUMPDEST PUSH1 0x40 MLOAD PUSH2 0x17B SWAP2 SWAP1 PUSH2 0x10A5 JUMP JUMPDEST PUSH1 0x40 MLOAD DUP1 SWAP2 SUB SWAP1 RETURN JUMPDEST PUSH2 0x18C PUSH2 0x437 JUMP JUMPDEST PUSH1 0x40 MLOAD PUSH2 0x199 SWAP2 SWAP1 PUSH2 0xF0F JUMP JUMPDEST PUSH1 0x40 MLOAD DUP1 SWAP2 SUB SWAP1 RETURN JUMPDEST PUSH2 0x1BC PUSH1 0x4 DUP1 CALLDATASIZE SUB DUP2 ADD SWAP1 PUSH2 0x1B7 SWAP2 SWAP1 PUSH2 0x10BE JUMP JUMPDEST PUSH2 0x43D JUMP JUMPDEST PUSH1 0x40 MLOAD PUSH2 0x1C9 SWAP2 SWAP1 PUSH2 0x10A5 JUMP JUMPDEST PUSH1 0x40 MLOAD DUP1 SWAP2 SUB SWAP1 RETURN JUMPDEST PUSH2 0x1EC PUSH1 0x4 DUP1 CALLDATASIZE SUB DUP2 ADD SWAP1 PUSH2 0x1E7 SWAP2 SWAP1 PUSH2 0x110E JUMP JUMPDEST PUSH2 0x470 JUMP JUMPDEST STOP JUMPDEST PUSH2 0x1F6 PUSH2 0x6E0 JUMP JUMPDEST PUSH1 0x40 MLOAD PUSH2 0x203 SWAP2 SWAP1 PUSH2 0x1154 JUMP JUMPDEST PUSH1 0x40 MLOAD DUP1 SWAP2 SUB SWAP1 RETURN JUMPDEST PUSH2 0x214 PUSH2 0x773 JUMP JUMPDEST PUSH1 0x40 MLOAD PUSH2 0x221 SWAP2 SWAP1 PUSH2 0xF0F JUMP JUMPDEST PUSH1 0x40 MLOAD DUP1 SWAP2 SUB SWAP1 RETURN JUMPDEST PUSH2 0x244 PUSH1 0x4 DUP1 CALLDATASIZE SUB DUP2 ADD SWAP1 PUSH2 0x23F SWAP2 SWAP1 PUSH2 0x116D JUMP JUMPDEST PUSH2 0x779 JUMP JUMPDEST PUSH1 0x40 MLOAD PUSH2 0x251 SWAP2 SWAP1 PUSH2 0xF0F JUMP JUMPDEST PUSH1 0x40 MLOAD DUP1 SWAP2 SUB SWAP1 RETURN JUMPDEST PUSH2 0x262 PUSH2 0x78E JUMP JUMPDEST STOP JUMPDEST PUSH2 0x26C PUSH2 0x7A1 JUMP JUMPDEST PUSH1 0x40 MLOAD PUSH2 0x279 SWAP2 SWAP1 PUSH2 0x11A7 JUMP JUMPDEST PUSH1 0x40 MLOAD DUP1 SWAP2 SUB SWAP1 RETURN JUMPDEST PUSH2 0x28A PUSH2 0x7D6 JUMP JUMPDEST PUSH1 0x40 MLOAD PUSH2 0x297 SWAP2 SWAP1 PUSH2 0xF98 JUMP JUMPDEST PUSH1 0x40 MLOAD DUP1 SWAP2 SUB SWAP1 RETURN JUMPDEST PUSH2 0x2BA PUSH1 0x4 DUP1 CALLDATASIZE SUB DUP2 ADD SWAP1 PUSH2 0x2B5 SWAP2 SWAP1 PUSH2 0x104D JUMP JUMPDEST PUSH2 0x862 JUMP JUMPDEST PUSH1 0x40 MLOAD PUSH2 0x2C7 SWAP2 SWAP1 PUSH2 0x10A5 JUMP JUMPDEST PUSH1 0x40 MLOAD DUP1 SWAP2 SUB SWAP1 RETURN JUMPDEST PUSH2 0x2EA PUSH1 0x4 DUP1 CALLDATASIZE SUB DUP2 ADD SWAP1 PUSH2 0x2E5 SWAP2 SWAP1 PUSH2 0x110E JUMP JUMPDEST PUSH2 0x895 JUMP JUMPDEST STOP JUMPDEST PUSH2 0x306 PUSH1 0x4 DUP1 CALLDATASIZE SUB DUP2 ADD SWAP1 PUSH2 0x301 SWAP2 SWAP1 PUSH2 0x11C0 JUMP JUMPDEST PUSH2 0xA76 JUMP JUMPDEST PUSH1 0x40 MLOAD PUSH2 0x313 SWAP2 SWAP1 PUSH2 0xF0F JUMP JUMPDEST PUSH1 0x40 MLOAD DUP1 SWAP2 SUB SWAP1 RETURN JUMPDEST PUSH2 0x336 PUSH1 0x4 DUP1 CALLDATASIZE SUB DUP2 ADD SWAP1 PUSH2 0x331 SWAP2 SWAP1 PUSH2 0x132A JUMP JUMPDEST PUSH2 0xAA9 JUMP JUMPDEST STOP JUMPDEST PUSH2 0x352 PUSH1 0x4 DUP1 CALLDATASIZE SUB DUP2 ADD SWAP1 PUSH2 0x34D SWAP2 SWAP1 PUSH2 0x116D JUMP JUMPDEST PUSH2 0xCA3 JUMP JUMPDEST STOP JUMPDEST PUSH2 0x35C PUSH2 0xD27 JUMP JUMPDEST PUSH1 0x40 MLOAD PUSH2 0x369 SWAP2 SWAP1 PUSH2 0x1446 JUMP JUMPDEST PUSH1 0x40 MLOAD DUP1 SWAP2 SUB SWAP1 RETURN JUMPDEST PUSH1 0x2 SLOAD DUP2 JUMP JUMPDEST PUSH1 0x3 DUP1 SLOAD PUSH2 0x385 SWAP1 PUSH2 0x148C JUMP JUMPDEST DUP1 PUSH1 0x1F ADD PUSH1 0x20 DUP1 SWAP2 DIV MUL PUSH1 0x20 ADD PUSH1 0x40 MLOAD SWAP1 DUP2 ADD PUSH1 0x40 MSTORE DUP1 SWAP3 SWAP2 SWAP1 DUP2 DUP2 MSTORE PUSH1 0x20 ADD DUP3 DUP1 SLOAD PUSH2 0x3B1 SWAP1 PUSH2 0x148C JUMP JUMPDEST DUP1 ISZERO PUSH2 0x3FC JUMPI DUP1 PUSH1 0x1F LT PUSH2 0x3D3 JUMPI PUSH2 0x100 DUP1 DUP4 SLOAD DIV MUL DUP4 MSTORE SWAP2 PUSH1 0x20 ADD SWAP2 PUSH2 0x3FC JUMP JUMPDEST DUP3 ADD SWAP2 SWAP1 PUSH0 MSTORE PUSH1 0x20 PUSH0 KECCAK256 SWAP1 JUMPDEST DUP2 SLOAD DUP2 MSTORE SWAP1 PUSH1 0x1 ADD SWAP1 PUSH1 0x20 ADD DUP1 DUP4 GT PUSH2 0x3DF JUMPI DUP3 SWAP1 SUB PUSH1 0x1F AND DUP3 ADD SWAP2 JUMPDEST POP POP POP POP POP DUP2 JUMP JUMPDEST PUSH0 PUSH1 0x40 MLOAD PUSH32 0xA038794000000000000000000000000000000000000000000000000000000000 DUP2 MSTORE PUSH1 0x4 ADD PUSH1 0x40 MLOAD DUP1 SWAP2 SUB SWAP1 REVERT JUMPDEST PUSH1 0x5 SLOAD DUP2 JUMP JUMPDEST PUSH0 PUSH1 0x40 MLOAD PUSH32 0xA038794000000000000000000000000000000000000000000000000000000000 DUP2 MSTORE PUSH1 0x4 ADD PUSH1 0x40 MLOAD DUP1 SWAP2 SUB SWAP1 REVERT JUMPDEST PUSH1 0x1 SLOAD TIMESTAMP GT DUP1 ISZERO PUSH2 0x48F JUMPI POP PUSH1 0x2 SLOAD PUSH1 0x1 SLOAD PUSH2 0x48C SWAP2 SWAP1 PUSH2 0x14E9 JUMP JUMPDEST TIMESTAMP LT JUMPDEST ISZERO PUSH2 0x4C6 JUMPI PUSH1 0x40 MLOAD PUSH32 0x3C2C6E9D00000000000000000000000000000000000000000000000000000000 DUP2 MSTORE PUSH1 0x4 ADD PUSH1 0x40 MLOAD DUP1 SWAP2 SUB SWAP1 REVERT JUMPDEST DUP1 PUSH1 0x6 PUSH0 CALLER PUSH20 0xFFFFFFFFFFFFFFFFFFFFFFFFFFFFFFFFFFFFFFFF AND PUSH20 0xFFFFFFFFFFFFFFFFFFFFFFFFFFFFFFFFFFFFFFFF AND DUP2 MSTORE PUSH1 0x20 ADD SWAP1 DUP2 MSTORE PUSH1 0x20 ADD PUSH0 KECCAK256 SLOAD LT ISZERO PUSH2 0x53D JUMPI PUSH1 0x40 MLOAD PUSH32 0x7FA62F9D00000000000000000000000000000000000000000000000000000000 DUP2 MSTORE PUSH1 0x4 ADD PUSH1 0x40 MLOAD DUP1 SWAP2 SUB SWAP1 REVERT JUMPDEST DUP1 PUSH1 0x6 PUSH0 CALLER PUSH20 0xFFFFFFFFFFFFFFFFFFFFFFFFFFFFFFFFFFFFFFFF AND PUSH20 0xFFFFFFFFFFFFFFFFFFFFFFFFFFFFFFFFFFFFFFFF AND DUP2 MSTORE PUSH1 0x20 ADD SWAP1 DUP2 MSTORE PUSH1 0x20 ADD PUSH0 KECCAK256 PUSH0 DUP3 DUP3 SLOAD PUSH2 0x589 SWAP2 SWAP1 PUSH2 0x151C JUMP JUMPDEST SWAP3 POP POP DUP2 SWAP1 SSTORE POP DUP1 PUSH1 0x5 PUSH0 DUP3 DUP3 SLOAD PUSH2 0x5A1 SWAP2 SWAP1 PUSH2 0x151C JUMP JUMPDEST SWAP3 POP POP DUP2 SWAP1 SSTORE POP PUSH0 DUP1 SLOAD SWAP1 PUSH2 0x100 EXP SWAP1 DIV PUSH20 0xFFFFFFFFFFFFFFFFFFFFFFFFFFFFFFFFFFFFFFFF AND PUSH20 0xFFFFFFFFFFFFFFFFFFFFFFFFFFFFFFFFFFFFFFFF AND PUSH4 0xA9059CBB CALLER DUP4 PUSH1 0x40 MLOAD DUP4 PUSH4 0xFFFFFFFF AND PUSH1 0xE0 SHL DUP2 MSTORE PUSH1 0x4 ADD PUSH2 0x602 SWAP3 SWAP2 SWAP1 PUSH2 0x154F JUMP JUMPDEST PUSH1 0x20 PUSH1 0x40 MLOAD DUP1 DUP4 SUB DUP2 PUSH0 DUP8 GAS CALL ISZERO DUP1 ISZERO PUSH2 0x61E JUMPI RETURNDATASIZE PUSH0 DUP1 RETURNDATACOPY RETURNDATASIZE PUSH0 REVERT JUMPDEST POP POP POP POP PUSH1 0x40 MLOAD RETURNDATASIZE PUSH1 0x1F NOT PUSH1 0x1F DUP3 ADD AND DUP3 ADD DUP1 PUSH1 0x40 MSTORE POP DUP2 ADD SWAP1 PUSH2 0x642 SWAP2 SWAP1 PUSH2 0x15A0 JUMP JUMPDEST PUSH2 0x678 JUMPI PUSH1 0x40 MLOAD PUSH32 0x90B8EC1800000000000000000000000000000000000000000000000000000000 DUP2 MSTORE PUSH1 0x4 ADD PUSH1 0x40 MLOAD DUP1 SWAP2 SUB SWAP1 REVERT JUMPDEST CALLER PUSH20 0xFFFFFFFFFFFFFFFFFFFFFFFFFFFFFFFFFFFFFFFF AND ADDRESS PUSH20 0xFFFFFFFFFFFFFFFFFFFFFFFFFFFFFFFFFFFFFFFF AND PUSH32 0xDDF252AD1BE2C89B69C2B068FC378DAA952BA7F163C4A11628F55A4DF523B3EF DUP4 PUSH1 0x40 MLOAD PUSH2 0x6D5 SWAP2 SWAP1 PUSH2 0xF0F JUMP JUMPDEST PUSH1 0x40 MLOAD DUP1 SWAP2 SUB SWAP1 LOG3 POP JUMP JUMPDEST PUSH0 DUP1 PUSH0 SWAP1 SLOAD SWAP1 PUSH2 0x100 EXP SWAP1 DIV PUSH20 0xFFFFFFFFFFFFFFFFFFFFFFFFFFFFFFFFFFFFFFFF AND PUSH20 0xFFFFFFFFFFFFFFFFFFFFFFFFFFFFFFFFFFFFFFFF AND PUSH4 0x313CE567 PUSH1 0x40 MLOAD DUP2 PUSH4 0xFFFFFFFF AND PUSH1 0xE0 SHL DUP2 MSTORE PUSH1 0x4 ADD PUSH1 0x20 PUSH1 0x40 MLOAD DUP1 DUP4 SUB DUP2 DUP7 GAS STATICCALL ISZERO DUP1 ISZERO PUSH2 0x74A JUMPI RETURNDATASIZE PUSH0 DUP1 RETURNDATACOPY RETURNDATASIZE PUSH0 REVERT JUMPDEST POP POP POP POP PUSH1 0x40 MLOAD RETURNDATASIZE PUSH1 0x1F NOT PUSH1 0x1F DUP3 ADD AND DUP3 ADD DUP1 PUSH1 0x40 MSTORE POP DUP2 ADD SWAP1 PUSH2 0x76E SWAP2 SWAP1 PUSH2 0x15F5 JUMP JUMPDEST SWAP1 POP SWAP1 JUMP JUMPDEST PUSH1 0x1 SLOAD DUP2 JUMP JUMPDEST PUSH1 0x6 PUSH1 0x20 MSTORE DUP1 PUSH0 MSTORE PUSH1 0x40 PUSH0 KECCAK256 PUSH0 SWAP2 POP SWAP1 POP SLOAD DUP2 JUMP JUMPDEST PUSH2 0x796 PUSH2 0xD4A JUMP JUMPDEST PUSH2 0x79F PUSH0 PUSH2 0xDD1 JUMP JUMPDEST JUMP JUMPDEST PUSH0 DUP1 PUSH2 0x7AB PUSH2 0xEA2 JUMP JUMPDEST SWAP1 POP DUP1 PUSH0 ADD PUSH0 SWAP1 SLOAD SWAP1 PUSH2 0x100 EXP SWAP1 DIV PUSH20 0xFFFFFFFFFFFFFFFFFFFFFFFFFFFFFFFFFFFFFFFF AND SWAP2 POP POP SWAP1 JUMP JUMPDEST PUSH1 0x4 DUP1 SLOAD PUSH2 0x7E3 SWAP1 PUSH2 0x148C JUMP JUMPDEST DUP1 PUSH1 0x1F ADD PUSH1 0x20 DUP1 SWAP2 DIV MUL PUSH1 0x20 ADD PUSH1 0x40 MLOAD SWAP1 DUP2 ADD PUSH1 0x40 MSTORE DUP1 SWAP3 SWAP2 SWAP1 DUP2 DUP2 MSTORE PUSH1 0x20 ADD DUP3 DUP1 SLOAD PUSH2 0x80F SWAP1 PUSH2 0x148C JUMP JUMPDEST DUP1 ISZERO PUSH2 0x85A JUMPI DUP1 PUSH1 0x1F LT PUSH2 0x831 JUMPI PUSH2 0x100 DUP1 DUP4 SLOAD DIV MUL DUP4 MSTORE SWAP2 PUSH1 0x20 ADD SWAP2 PUSH2 0x85A JUMP JUMPDEST DUP3 ADD SWAP2 SWAP1 PUSH0 MSTORE PUSH1 0x20 PUSH0 KECCAK256 SWAP1 JUMPDEST DUP2 SLOAD DUP2 MSTORE SWAP1 PUSH1 0x1 ADD SWAP1 PUSH1 0x20 ADD DUP1 DUP4 GT PUSH2 0x83D JUMPI DUP3 SWAP1 SUB PUSH1 0x1F AND DUP3 ADD SWAP2 JUMPDEST POP POP POP POP POP DUP2 JUMP JUMPDEST PUSH0 PUSH1 0x40 MLOAD PUSH32 0xA038794000000000000000000000000000000000000000000000000000000000 DUP2 MSTORE PUSH1 0x4 ADD PUSH1 0x40 MLOAD DUP1 SWAP2 SUB SWAP1 REVERT JUMPDEST PUSH1 0x1 SLOAD TIMESTAMP GT ISZERO PUSH2 0x8D1 JUMPI PUSH1 0x40 MLOAD PUSH32 0x9883528E00000000000000000000000000000000000000000000000000000000 DUP2 MSTORE PUSH1 0x4 ADD PUSH1 0x40 MLOAD DUP1 SWAP2 SUB SWAP1 REVERT JUMPDEST DUP1 PUSH1 0x6 PUSH0 CALLER PUSH20 0xFFFFFFFFFFFFFFFFFFFFFFFFFFFFFFFFFFFFFFFF AND PUSH20 0xFFFFFFFFFFFFFFFFFFFFFFFFFFFFFFFFFFFFFFFF AND DUP2 MSTORE PUSH1 0x20 ADD SWAP1 DUP2 MSTORE PUSH1 0x20 ADD PUSH0 KECCAK256 PUSH0 DUP3 DUP3 SLOAD PUSH2 0x91D SWAP2 SWAP1 PUSH2 0x14E9 JUMP JUMPDEST SWAP3 POP POP DUP2 SWAP1 SSTORE POP DUP1 PUSH1 0x5 PUSH0 DUP3 DUP3 SLOAD PUSH2 0x935 SWAP2 SWAP1 PUSH2 0x14E9 JUMP JUMPDEST SWAP3 POP POP DUP2 SWAP1 SSTORE POP PUSH0 DUP1 SLOAD SWAP1 PUSH2 0x100 EXP SWAP1 DIV PUSH20 0xFFFFFFFFFFFFFFFFFFFFFFFFFFFFFFFFFFFFFFFF AND PUSH20 0xFFFFFFFFFFFFFFFFFFFFFFFFFFFFFFFFFFFFFFFF AND PUSH4 0x23B872DD CALLER ADDRESS DUP5 PUSH1 0x40 MLOAD DUP5 PUSH4 0xFFFFFFFF AND PUSH1 0xE0 SHL DUP2 MSTORE PUSH1 0x4 ADD PUSH2 0x998 SWAP4 SWAP3 SWAP2 SWAP1 PUSH2 0x1620 JUMP JUMPDEST PUSH1 0x20 PUSH1 0x40 MLOAD DUP1 DUP4 SUB DUP2 PUSH0 DUP8 GAS CALL ISZERO DUP1 ISZERO PUSH2 0x9B4 JUMPI RETURNDATASIZE PUSH0 DUP1 RETURNDATACOPY RETURNDATASIZE PUSH0 REVERT JUMPDEST POP POP POP POP PUSH1 0x40 MLOAD RETURNDATASIZE PUSH1 0x1F NOT PUSH1 0x1F DUP3 ADD AND DUP3 ADD DUP1 PUSH1 0x40 MSTORE POP DUP2 ADD SWAP1 PUSH2 0x9D8 SWAP2 SWAP1 PUSH2 0x15A0 JUMP JUMPDEST PUSH2 0xA0E JUMPI PUSH1 0x40 MLOAD PUSH32 0x90B8EC1800000000000000000000000000000000000000000000000000000000 DUP2 MSTORE PUSH1 0x4 ADD PUSH1 0x40 MLOAD DUP1 SWAP2 SUB SWAP1 REVERT JUMPDEST ADDRESS PUSH20 0xFFFFFFFFFFFFFFFFFFFFFFFFFFFFFFFFFFFFFFFF AND CALLER PUSH20 0xFFFFFFFFFFFFFFFFFFFFFFFFFFFFFFFFFFFFFFFF AND PUSH32 0xDDF252AD1BE2C89B69C2B068FC378DAA952BA7F163C4A11628F55A4DF523B3EF DUP4 PUSH1 0x40 MLOAD PUSH2 0xA6B SWAP2 SWAP1 PUSH2 0xF0F JUMP JUMPDEST PUSH1 0x40 MLOAD DUP1 SWAP2 SUB SWAP1 LOG3 POP JUMP JUMPDEST PUSH0 PUSH1 0x40 MLOAD PUSH32 0xA038794000000000000000000000000000000000000000000000000000000000 DUP2 MSTORE PUSH1 0x4 ADD PUSH1 0x40 MLOAD DUP1 SWAP2 SUB SWAP1 REVERT JUMPDEST PUSH0 PUSH2 0xAB2 PUSH2 0xEC9 JUMP JUMPDEST SWAP1 POP PUSH0 DUP2 PUSH0 ADD PUSH1 0x8 SWAP1 SLOAD SWAP1 PUSH2 0x100 EXP SWAP1 DIV PUSH1 0xFF AND ISZERO SWAP1 POP PUSH0 DUP3 PUSH0 ADD PUSH0 SWAP1 SLOAD SWAP1 PUSH2 0x100 EXP SWAP1 DIV PUSH8 0xFFFFFFFFFFFFFFFF AND SWAP1 POP PUSH0 DUP1 DUP3 PUSH8 0xFFFFFFFFFFFFFFFF AND EQ DUP1 ISZERO PUSH2 0xAFA JUMPI POP DUP3 JUMPDEST SWAP1 POP PUSH0 PUSH1 0x1 DUP4 PUSH8 0xFFFFFFFFFFFFFFFF AND EQ DUP1 ISZERO PUSH2 0xB2D JUMPI POP PUSH0 ADDRESS PUSH20 0xFFFFFFFFFFFFFFFFFFFFFFFFFFFFFFFFFFFFFFFF AND EXTCODESIZE EQ JUMPDEST SWAP1 POP DUP2 ISZERO DUP1 ISZERO PUSH2 0xB3B JUMPI POP DUP1 ISZERO JUMPDEST ISZERO PUSH2 0xB72 JUMPI PUSH1 0x40 MLOAD PUSH32 0xF92EE8A900000000000000000000000000000000000000000000000000000000 DUP2 MSTORE PUSH1 0x4 ADD PUSH1 0x40 MLOAD DUP1 SWAP2 SUB SWAP1 REVERT JUMPDEST PUSH1 0x1 DUP6 PUSH0 ADD PUSH0 PUSH2 0x100 EXP DUP2 SLOAD DUP2 PUSH8 0xFFFFFFFFFFFFFFFF MUL NOT AND SWAP1 DUP4 PUSH8 0xFFFFFFFFFFFFFFFF AND MUL OR SWAP1 SSTORE POP DUP4 ISZERO PUSH2 0xBBF JUMPI PUSH1 0x1 DUP6 PUSH0 ADD PUSH1 0x8 PUSH2 0x100 EXP DUP2 SLOAD DUP2 PUSH1 0xFF MUL NOT AND SWAP1 DUP4 ISZERO ISZERO MUL OR SWAP1 SSTORE POP JUMPDEST PUSH2 0xBC8 DUP12 PUSH2 0xCA3 JUMP JUMPDEST DUP10 PUSH0 DUP1 PUSH2 0x100 EXP DUP2 SLOAD DUP2 PUSH20 0xFFFFFFFFFFFFFFFFFFFFFFFFFFFFFFFFFFFFFFFF MUL NOT AND SWAP1 DUP4 PUSH20 0xFFFFFFFFFFFFFFFFFFFFFFFFFFFFFFFFFFFFFFFF AND MUL OR SWAP1 SSTORE POP DUP9 PUSH1 0x1 DUP2 SWAP1 SSTORE POP DUP8 PUSH1 0x2 DUP2 SWAP1 SSTORE POP DUP7 PUSH1 0x3 SWAP1 DUP2 PUSH2 0xC24 SWAP2 SWAP1 PUSH2 0x17E9 JUMP JUMPDEST POP DUP6 PUSH1 0x4 SWAP1 DUP2 PUSH2 0xC34 SWAP2 SWAP1 PUSH2 0x17E9 JUMP JUMPDEST POP PUSH0 PUSH1 0x5 DUP2 SWAP1 SSTORE POP DUP4 ISZERO PUSH2 0xC96 JUMPI PUSH0 DUP6 PUSH0 ADD PUSH1 0x8 PUSH2 0x100 EXP DUP2 SLOAD DUP2 PUSH1 0xFF MUL NOT AND SWAP1 DUP4 ISZERO ISZERO MUL OR SWAP1 SSTORE POP PUSH32 0xC7F505B2F371AE2175EE4913F4499E1F2633A7B5936321EED1CDAEB6115181D2 PUSH1 0x1 PUSH1 0x40 MLOAD PUSH2 0xC8D SWAP2 SWAP1 PUSH2 0x1904 JUMP JUMPDEST PUSH1 0x40 MLOAD DUP1 SWAP2 SUB SWAP1 LOG1 JUMPDEST POP POP POP POP POP POP POP POP POP POP POP JUMP JUMPDEST PUSH2 0xCAB PUSH2 0xD4A JUMP JUMPDEST PUSH0 PUSH20 0xFFFFFFFFFFFFFFFFFFFFFFFFFFFFFFFFFFFFFFFF AND DUP2 PUSH20 0xFFFFFFFFFFFFFFFFFFFFFFFFFFFFFFFFFFFFFFFF AND SUB PUSH2 0xD1B JUMPI PUSH0 PUSH1 0x40 MLOAD PUSH32 0x1E4FBDF700000000000000000000000000000000000000000000000000000000 DUP2 MSTORE PUSH1 0x4 ADD PUSH2 0xD12 SWAP2 SWAP1 PUSH2 0x11A7 JUMP JUMPDEST PUSH1 0x40 MLOAD DUP1 SWAP2 SUB SWAP1 REVERT JUMPDEST PUSH2 0xD24 DUP2 PUSH2 0xDD1 JUMP JUMPDEST POP JUMP JUMPDEST PUSH0 DUP1 SLOAD SWAP1 PUSH2 0x100 EXP SWAP1 DIV PUSH20 0xFFFFFFFFFFFFFFFFFFFFFFFFFFFFFFFFFFFFFFFF AND DUP2 JUMP JUMPDEST PUSH2 0xD52 PUSH2 0xEF0 JUMP JUMPDEST PUSH20 0xFFFFFFFFFFFFFFFFFFFFFFFFFFFFFFFFFFFFFFFF AND PUSH2 0xD70 PUSH2 0x7A1 JUMP JUMPDEST PUSH20 0xFFFFFFFFFFFFFFFFFFFFFFFFFFFFFFFFFFFFFFFF AND EQ PUSH2 0xDCF JUMPI PUSH2 0xD93 PUSH2 0xEF0 JUMP JUMPDEST PUSH1 0x40 MLOAD PUSH32 0x118CDAA700000000000000000000000000000000000000000000000000000000 DUP2 MSTORE PUSH1 0x4 ADD PUSH2 0xDC6 SWAP2 SWAP1 PUSH2 0x11A7 JUMP JUMPDEST PUSH1 0x40 MLOAD DUP1 SWAP2 SUB SWAP1 REVERT JUMPDEST JUMP JUMPDEST PUSH0 PUSH2 0xDDA PUSH2 0xEA2 JUMP JUMPDEST SWAP1 POP PUSH0 DUP2 PUSH0 ADD PUSH0 SWAP1 SLOAD SWAP1 PUSH2 0x100 EXP SWAP1 DIV PUSH20 0xFFFFFFFFFFFFFFFFFFFFFFFFFFFFFFFFFFFFFFFF AND SWAP1 POP DUP3 DUP3 PUSH0 ADD PUSH0 PUSH2 0x100 EXP DUP2 SLOAD DUP2 PUSH20 0xFFFFFFFFFFFFFFFFFFFFFFFFFFFFFFFFFFFFFFFF MUL NOT AND SWAP1 DUP4 PUSH20 0xFFFFFFFFFFFFFFFFFFFFFFFFFFFFFFFFFFFFFFFF AND MUL OR SWAP1 SSTORE POP DUP3 PUSH20 0xFFFFFFFFFFFFFFFFFFFFFFFFFFFFFFFFFFFFFFFF AND DUP2 PUSH20 0xFFFFFFFFFFFFFFFFFFFFFFFFFFFFFFFFFFFFFFFF AND PUSH32 0x8BE0079C531659141344CD1FD0A4F28419497F9722A3DAAFE3B4186F6B6457E0 PUSH1 0x40 MLOAD PUSH1 0x40 MLOAD DUP1 SWAP2 SUB SWAP1 LOG3 POP POP POP JUMP JUMPDEST PUSH0 PUSH32 0x9016D09D72D40FDAE2FD8CEAC6B6234C7706214FD39C1CD1E609A0528C199300 SWAP1 POP SWAP1 JUMP JUMPDEST PUSH0 PUSH32 0xF0C57E16840DF040F15088DC2F81FE391C3923BEC73E23A9662EFC9C229C6A00 SWAP1 POP SWAP1 JUMP JUMPDEST PUSH0 CALLER SWAP1 POP SWAP1 JUMP JUMPDEST PUSH0 DUP2 SWAP1 POP SWAP2 SWAP1 POP JUMP JUMPDEST PUSH2 0xF09 DUP2 PUSH2 0xEF7 JUMP JUMPDEST DUP3 MSTORE POP POP JUMP JUMPDEST PUSH0 PUSH1 0x20 DUP3 ADD SWAP1 POP PUSH2 0xF22 PUSH0 DUP4 ADD DUP5 PUSH2 0xF00 JUMP JUMPDEST SWAP3 SWAP2 POP POP JUMP JUMPDEST PUSH0 DUP2 MLOAD SWAP1 POP SWAP2 SWAP1 POP JUMP JUMPDEST PUSH0 DUP3 DUP3 MSTORE PUSH1 0x20 DUP3 ADD SWAP1 POP SWAP3 SWAP2 POP POP JUMP JUMPDEST DUP3 DUP2 DUP4 MCOPY PUSH0 DUP4 DUP4 ADD MSTORE POP POP POP JUMP JUMPDEST PUSH0 PUSH1 0x1F NOT PUSH1 0x1F DUP4 ADD AND SWAP1 POP SWAP2 SWAP1 POP JUMP JUMPDEST PUSH0 PUSH2 0xF6A DUP3 PUSH2 0xF28 JUMP JUMPDEST PUSH2 0xF74 DUP2 DUP6 PUSH2 0xF32 JUMP JUMPDEST SWAP4 POP PUSH2 0xF84 DUP2 DUP6 PUSH1 0x20 DUP7 ADD PUSH2 0xF42 JUMP JUMPDEST PUSH2 0xF8D DUP2 PUSH2 0xF50 JUMP JUMPDEST DUP5 ADD SWAP2 POP POP SWAP3 SWAP2 POP POP JUMP JUMPDEST PUSH0 PUSH1 0x20 DUP3 ADD SWAP1 POP DUP2 DUP2 SUB PUSH0 DUP4 ADD MSTORE PUSH2 0xFB0 DUP2 DUP5 PUSH2 0xF60 JUMP JUMPDEST SWAP1 POP SWAP3 SWAP2 POP POP JUMP JUMPDEST PUSH0 PUSH1 0x40 MLOAD SWAP1 POP SWAP1 JUMP JUMPDEST PUSH0 DUP1 REVERT JUMPDEST PUSH0 DUP1 REVERT JUMPDEST PUSH0 PUSH20 0xFFFFFFFFFFFFFFFFFFFFFFFFFFFFFFFFFFFFFFFF DUP3 AND SWAP1 POP SWAP2 SWAP1 POP JUMP JUMPDEST PUSH0 PUSH2 0xFF2 DUP3 PUSH2 0xFC9 JUMP JUMPDEST SWAP1 POP SWAP2 SWAP1 POP JUMP JUMPDEST PUSH2 0x1002 DUP2 PUSH2 0xFE8 JUMP JUMPDEST DUP2 EQ PUSH2 0x100C JUMPI PUSH0 DUP1 REVERT JUMPDEST POP JUMP JUMPDEST PUSH0 DUP2 CALLDATALOAD SWAP1 POP PUSH2 0x101D DUP2 PUSH2 0xFF9 JUMP JUMPDEST SWAP3 SWAP2 POP POP JUMP JUMPDEST PUSH2 0x102C DUP2 PUSH2 0xEF7 JUMP JUMPDEST DUP2 EQ PUSH2 0x1036 JUMPI PUSH0 DUP1 REVERT JUMPDEST POP JUMP JUMPDEST PUSH0 DUP2 CALLDATALOAD SWAP1 POP PUSH2 0x1047 DUP2 PUSH2 0x1023 JUMP JUMPDEST SWAP3 SWAP2 POP POP JUMP JUMPDEST PUSH0 DUP1 PUSH1 0x40 DUP4 DUP6 SUB SLT ISZERO PUSH2 0x1063 JUMPI PUSH2 0x1062 PUSH2 0xFC1 JUMP JUMPDEST JUMPDEST PUSH0 PUSH2 0x1070 DUP6 DUP3 DUP7 ADD PUSH2 0x100F JUMP JUMPDEST SWAP3 POP POP PUSH1 0x20 PUSH2 0x1081 DUP6 DUP3 DUP7 ADD PUSH2 0x1039 JUMP JUMPDEST SWAP2 POP POP SWAP3 POP SWAP3 SWAP1 POP JUMP JUMPDEST PUSH0 DUP2 ISZERO ISZERO SWAP1 POP SWAP2 SWAP1 POP JUMP JUMPDEST PUSH2 0x109F DUP2 PUSH2 0x108B JUMP JUMPDEST DUP3 MSTORE POP POP JUMP JUMPDEST PUSH0 PUSH1 0x20 DUP3 ADD SWAP1 POP PUSH2 0x10B8 PUSH0 DUP4 ADD DUP5 PUSH2 0x1096 JUMP JUMPDEST SWAP3 SWAP2 POP POP JUMP JUMPDEST PUSH0 DUP1 PUSH0 PUSH1 0x60 DUP5 DUP7 SUB SLT ISZERO PUSH2 0x10D5 JUMPI PUSH2 0x10D4 PUSH2 0xFC1 JUMP JUMPDEST JUMPDEST PUSH0 PUSH2 0x10E2 DUP7 DUP3 DUP8 ADD PUSH2 0x100F JUMP JUMPDEST SWAP4 POP POP PUSH1 0x20 PUSH2 0x10F3 DUP7 DUP3 DUP8 ADD PUSH2 0x100F JUMP JUMPDEST SWAP3 POP POP PUSH1 0x40 PUSH2 0x1104 DUP7 DUP3 DUP8 ADD PUSH2 0x1039 JUMP JUMPDEST SWAP2 POP POP SWAP3 POP SWAP3 POP SWAP3 JUMP JUMPDEST PUSH0 PUSH1 0x20 DUP3 DUP5 SUB SLT ISZERO PUSH2 0x1123 JUMPI PUSH2 0x1122 PUSH2 0xFC1 JUMP JUMPDEST JUMPDEST PUSH0 PUSH2 0x1130 DUP5 DUP3 DUP6 ADD PUSH2 0x1039 JUMP JUMPDEST SWAP2 POP POP SWAP3 SWAP2 POP POP JUMP JUMPDEST PUSH0 PUSH1 0xFF DUP3 AND SWAP1 POP SWAP2 SWAP1 POP JUMP JUMPDEST PUSH2 0x114E DUP2 PUSH2 0x1139 JUMP JUMPDEST DUP3 MSTORE POP POP JUMP JUMPDEST PUSH0 PUSH1 0x20 DUP3 ADD SWAP1 POP PUSH2 0x1167 PUSH0 DUP4 ADD DUP5 PUSH2 0x1145 JUMP JUMPDEST SWAP3 SWAP2 POP POP JUMP JUMPDEST PUSH0 PUSH1 0x20 DUP3 DUP5 SUB SLT ISZERO PUSH2 0x1182 JUMPI PUSH2 0x1181 PUSH2 0xFC1 JUMP JUMPDEST JUMPDEST PUSH0 PUSH2 0x118F DUP5 DUP3 DUP6 ADD PUSH2 0x100F JUMP JUMPDEST SWAP2 POP POP SWAP3 SWAP2 POP POP JUMP JUMPDEST PUSH2 0x11A1 DUP2 PUSH2 0xFE8 JUMP JUMPDEST DUP3 MSTORE POP POP JUMP JUMPDEST PUSH0 PUSH1 0x20 DUP3 ADD SWAP1 POP PUSH2 0x11BA PUSH0 DUP4 ADD DUP5 PUSH2 0x1198 JUMP JUMPDEST SWAP3 SWAP2 POP POP JUMP JUMPDEST PUSH0 DUP1 PUSH1 0x40 DUP4 DUP6 SUB SLT ISZERO PUSH2 0x11D6 JUMPI PUSH2 0x11D5 PUSH2 0xFC1 JUMP JUMPDEST JUMPDEST PUSH0 PUSH2 0x11E3 DUP6 DUP3 DUP7 ADD PUSH2 0x100F JUMP JUMPDEST SWAP3 POP POP PUSH1 0x20 PUSH2 0x11F4 DUP6 DUP3 DUP7 ADD PUSH2 0x100F JUMP JUMPDEST SWAP2 POP POP SWAP3 POP SWAP3 SWAP1 POP JUMP JUMPDEST PUSH0 DUP1 REVERT JUMPDEST PUSH0 DUP1 REVERT JUMPDEST PUSH32 0x4E487B7100000000000000000000000000000000000000000000000000000000 PUSH0 MSTORE PUSH1 0x41 PUSH1 0x4 MSTORE PUSH1 0x24 PUSH0 REVERT JUMPDEST PUSH2 0x123C DUP3 PUSH2 0xF50 JUMP JUMPDEST DUP2 ADD DUP2 DUP2 LT PUSH8 0xFFFFFFFFFFFFFFFF DUP3 GT OR ISZERO PUSH2 0x125B JUMPI PUSH2 0x125A PUSH2 0x1206 JUMP JUMPDEST JUMPDEST DUP1 PUSH1 0x40 MSTORE POP POP POP JUMP JUMPDEST PUSH0 PUSH2 0x126D PUSH2 0xFB8 JUMP JUMPDEST SWAP1 POP PUSH2 0x1279 DUP3 DUP3 PUSH2 0x1233 JUMP JUMPDEST SWAP2 SWAP1 POP JUMP JUMPDEST PUSH0 PUSH8 0xFFFFFFFFFFFFFFFF DUP3 GT ISZERO PUSH2 0x1298 JUMPI PUSH2 0x1297 PUSH2 0x1206 JUMP JUMPDEST JUMPDEST PUSH2 0x12A1 DUP3 PUSH2 0xF50 JUMP JUMPDEST SWAP1 POP PUSH1 0x20 DUP2 ADD SWAP1 POP SWAP2 SWAP1 POP JUMP JUMPDEST DUP3 DUP2 DUP4 CALLDATACOPY PUSH0 DUP4 DUP4 ADD MSTORE POP POP POP JUMP JUMPDEST PUSH0 PUSH2 0x12CE PUSH2 0x12C9 DUP5 PUSH2 0x127E JUMP JUMPDEST PUSH2 0x1264 JUMP JUMPDEST SWAP1 POP DUP3 DUP2 MSTORE PUSH1 0x20 DUP2 ADD DUP5 DUP5 DUP5 ADD GT ISZERO PUSH2 0x12EA JUMPI PUSH2 0x12E9 PUSH2 0x1202 JUMP JUMPDEST JUMPDEST PUSH2 0x12F5 DUP5 DUP3 DUP6 PUSH2 0x12AE JUMP JUMPDEST POP SWAP4 SWAP3 POP POP POP JUMP JUMPDEST PUSH0 DUP3 PUSH1 0x1F DUP4 ADD SLT PUSH2 0x1311 JUMPI PUSH2 0x1310 PUSH2 0x11FE JUMP JUMPDEST JUMPDEST DUP2 CALLDATALOAD PUSH2 0x1321 DUP5 DUP3 PUSH1 0x20 DUP7 ADD PUSH2 0x12BC JUMP JUMPDEST SWAP2 POP POP SWAP3 SWAP2 POP POP JUMP JUMPDEST PUSH0 DUP1 PUSH0 DUP1 PUSH0 DUP1 PUSH1 0xC0 DUP8 DUP10 SUB SLT ISZERO PUSH2 0x1344 JUMPI PUSH2 0x1343 PUSH2 0xFC1 JUMP JUMPDEST JUMPDEST PUSH0 PUSH2 0x1351 DUP10 DUP3 DUP11 ADD PUSH2 0x100F JUMP JUMPDEST SWAP7 POP POP PUSH1 0x20 PUSH2 0x1362 DUP10 DUP3 DUP11 ADD PUSH2 0x100F JUMP JUMPDEST SWAP6 POP POP PUSH1 0x40 PUSH2 0x1373 DUP10 DUP3 DUP11 ADD PUSH2 0x1039 JUMP JUMPDEST SWAP5 POP POP PUSH1 0x60 PUSH2 0x1384 DUP10 DUP3 DUP11 ADD PUSH2 0x1039 JUMP JUMPDEST SWAP4 POP POP PUSH1 0x80 DUP8 ADD CALLDATALOAD PUSH8 0xFFFFFFFFFFFFFFFF DUP2 GT ISZERO PUSH2 0x13A5 JUMPI PUSH2 0x13A4 PUSH2 0xFC5 JUMP JUMPDEST JUMPDEST PUSH2 0x13B1 DUP10 DUP3 DUP11 ADD PUSH2 0x12FD JUMP JUMPDEST SWAP3 POP POP PUSH1 0xA0 DUP8 ADD CALLDATALOAD PUSH8 0xFFFFFFFFFFFFFFFF DUP2 GT ISZERO PUSH2 0x13D2 JUMPI PUSH2 0x13D1 PUSH2 0xFC5 JUMP JUMPDEST JUMPDEST PUSH2 0x13DE DUP10 DUP3 DUP11 ADD PUSH2 0x12FD JUMP JUMPDEST SWAP2 POP POP SWAP3 SWAP6 POP SWAP3 SWAP6 POP SWAP3 SWAP6 JUMP JUMPDEST PUSH0 DUP2 SWAP1 POP SWAP2 SWAP1 POP JUMP JUMPDEST PUSH0 PUSH2 0x140E PUSH2 0x1409 PUSH2 0x1404 DUP5 PUSH2 0xFC9 JUMP JUMPDEST PUSH2 0x13EB JUMP JUMPDEST PUSH2 0xFC9 JUMP JUMPDEST SWAP1 POP SWAP2 SWAP1 POP JUMP JUMPDEST PUSH0 PUSH2 0x141F DUP3 PUSH2 0x13F4 JUMP JUMPDEST SWAP1 POP SWAP2 SWAP1 POP JUMP JUMPDEST PUSH0 PUSH2 0x1430 DUP3 PUSH2 0x1415 JUMP JUMPDEST SWAP1 POP SWAP2 SWAP1 POP JUMP JUMPDEST PUSH2 0x1440 DUP2 PUSH2 0x1426 JUMP JUMPDEST DUP3 MSTORE POP POP JUMP JUMPDEST PUSH0 PUSH1 0x20 DUP3 ADD SWAP1 POP PUSH2 0x1459 PUSH0 DUP4 ADD DUP5 PUSH2 0x1437 JUMP JUMPDEST SWAP3 SWAP2 POP POP JUMP JUMPDEST PUSH32 0x4E487B7100000000000000000000000000000000000000000000000000000000 PUSH0 MSTORE PUSH1 0x22 PUSH1 0x4 MSTORE PUSH1 0x24 PUSH0 REVERT JUMPDEST PUSH0 PUSH1 0x2 DUP3 DIV SWAP1 POP PUSH1 0x1 DUP3 AND DUP1 PUSH2 0x14A3 JUMPI PUSH1 0x7F DUP3 AND SWAP2 POP JUMPDEST PUSH1 0x20 DUP3 LT DUP2 SUB PUSH2 0x14B6 JUMPI PUSH2 0x14B5 PUSH2 0x145F JUMP JUMPDEST JUMPDEST POP SWAP2 SWAP1 POP JUMP JUMPDEST PUSH32 0x4E487B7100000000000000000000000000000000000000000000000000000000 PUSH0 MSTORE PUSH1 0x11 PUSH1 0x4 MSTORE PUSH1 0x24 PUSH0 REVERT JUMPDEST PUSH0 PUSH2 0x14F3 DUP3 PUSH2 0xEF7 JUMP JUMPDEST SWAP2 POP PUSH2 0x14FE DUP4 PUSH2 0xEF7 JUMP JUMPDEST SWAP3 POP DUP3 DUP3 ADD SWAP1 POP DUP1 DUP3 GT ISZERO PUSH2 0x1516 JUMPI PUSH2 0x1515 PUSH2 0x14BC JUMP JUMPDEST JUMPDEST SWAP3 SWAP2 POP POP JUMP JUMPDEST PUSH0 PUSH2 0x1526 DUP3 PUSH2 0xEF7 JUMP JUMPDEST SWAP2 POP PUSH2 0x1531 DUP4 PUSH2 0xEF7 JUMP JUMPDEST SWAP3 POP DUP3 DUP3 SUB SWAP1 POP DUP2 DUP2 GT ISZERO PUSH2 0x1549 JUMPI PUSH2 0x1548 PUSH2 0x14BC JUMP JUMPDEST JUMPDEST SWAP3 SWAP2 POP POP JUMP JUMPDEST PUSH0 PUSH1 0x40 DUP3 ADD SWAP1 POP PUSH2 0x1562 PUSH0 DUP4 ADD DUP6 PUSH2 0x1198 JUMP JUMPDEST PUSH2 0x156F PUSH1 0x20 DUP4 ADD DUP5 PUSH2 0xF00 JUMP JUMPDEST SWAP4 SWAP3 POP POP POP JUMP JUMPDEST PUSH2 0x157F DUP2 PUSH2 0x108B JUMP JUMPDEST DUP2 EQ PUSH2 0x1589 JUMPI PUSH0 DUP1 REVERT JUMPDEST POP JUMP JUMPDEST PUSH0 DUP2 MLOAD SWAP1 POP PUSH2 0x159A DUP2 PUSH2 0x1576 JUMP JUMPDEST SWAP3 SWAP2 POP POP JUMP JUMPDEST PUSH0 PUSH1 0x20 DUP3 DUP5 SUB SLT ISZERO PUSH2 0x15B5 JUMPI PUSH2 0x15B4 PUSH2 0xFC1 JUMP JUMPDEST JUMPDEST PUSH0 PUSH2 0x15C2 DUP5 DUP3 DUP6 ADD PUSH2 0x158C JUMP JUMPDEST SWAP2 POP POP SWAP3 SWAP2 POP POP JUMP JUMPDEST PUSH2 0x15D4 DUP2 PUSH2 0x1139 JUMP JUMPDEST DUP2 EQ PUSH2 0x15DE JUMPI PUSH0 DUP1 REVERT JUMPDEST POP JUMP JUMPDEST PUSH0 DUP2 MLOAD SWAP1 POP PUSH2 0x15EF DUP2 PUSH2 0x15CB JUMP JUMPDEST SWAP3 SWAP2 POP POP JUMP JUMPDEST PUSH0 PUSH1 0x20 DUP3 DUP5 SUB SLT ISZERO PUSH2 0x160A JUMPI PUSH2 0x1609 PUSH2 0xFC1 JUMP JUMPDEST JUMPDEST PUSH0 PUSH2 0x1617 DUP5 DUP3 DUP6 ADD PUSH2 0x15E1 JUMP JUMPDEST SWAP2 POP POP SWAP3 SWAP2 POP POP JUMP JUMPDEST PUSH0 PUSH1 0x60 DUP3 ADD SWAP1 POP PUSH2 0x1633 PUSH0 DUP4 ADD DUP7 PUSH2 0x1198 JUMP JUMPDEST PUSH2 0x1640 PUSH1 0x20 DUP4 ADD DUP6 PUSH2 0x1198 JUMP JUMPDEST PUSH2 0x164D PUSH1 0x40 DUP4 ADD DUP5 PUSH2 0xF00 JUMP JUMPDEST SWAP5 SWAP4 POP POP POP POP JUMP JUMPDEST PUSH0 DUP2 SWAP1 POP DUP2 PUSH0 MSTORE PUSH1 0x20 PUSH0 KECCAK256 SWAP1 POP SWAP2 SWAP1 POP JUMP JUMPDEST PUSH0 PUSH1 0x20 PUSH1 0x1F DUP4 ADD DIV SWAP1 POP SWAP2 SWAP1 POP JUMP JUMPDEST PUSH0 DUP3 DUP3 SHL SWAP1 POP SWAP3 SWAP2 POP POP JUMP JUMPDEST PUSH0 PUSH1 0x8 DUP4 MUL PUSH2 0x16B1 PUSH32 0xFFFFFFFFFFFFFFFFFFFFFFFFFFFFFFFFFFFFFFFFFFFFFFFFFFFFFFFFFFFFFFFF DUP3 PUSH2 0x1676 JUMP JUMPDEST PUSH2 0x16BB DUP7 DUP4 PUSH2 0x1676 JUMP JUMPDEST SWAP6 POP DUP1 NOT DUP5 AND SWAP4 POP DUP1 DUP7 AND DUP5 OR SWAP3 POP POP POP SWAP4 SWAP3 POP POP POP JUMP JUMPDEST PUSH0 PUSH2 0x16ED PUSH2 0x16E8 PUSH2 0x16E3 DUP5 PUSH2 0xEF7 JUMP JUMPDEST PUSH2 0x13EB JUMP JUMPDEST PUSH2 0xEF7 JUMP JUMPDEST SWAP1 POP SWAP2 SWAP1 POP JUMP JUMPDEST PUSH0 DUP2 SWAP1 POP SWAP2 SWAP1 POP JUMP JUMPDEST PUSH2 0x1706 DUP4 PUSH2 0x16D3 JUMP JUMPDEST PUSH2 0x171A PUSH2 0x1712 DUP3 PUSH2 0x16F4 JUMP JUMPDEST DUP5 DUP5 SLOAD PUSH2 0x1682 JUMP JUMPDEST DUP3 SSTORE POP POP POP POP JUMP JUMPDEST PUSH0 SWAP1 JUMP JUMPDEST PUSH2 0x172E PUSH2 0x1722 JUMP JUMPDEST PUSH2 0x1739 DUP2 DUP5 DUP5 PUSH2 0x16FD JUMP JUMPDEST POP POP POP JUMP JUMPDEST JUMPDEST DUP2 DUP2 LT ISZERO PUSH2 0x175C JUMPI PUSH2 0x1751 PUSH0 DUP3 PUSH2 0x1726 JUMP JUMPDEST PUSH1 0x1 DUP2 ADD SWAP1 POP PUSH2 0x173F JUMP JUMPDEST POP POP JUMP JUMPDEST PUSH1 0x1F DUP3 GT ISZERO PUSH2 0x17A1 JUMPI PUSH2 0x1772 DUP2 PUSH2 0x1655 JUMP JUMPDEST PUSH2 0x177B DUP5 PUSH2 0x1667 JUMP JUMPDEST DUP2 ADD PUSH1 0x20 DUP6 LT ISZERO PUSH2 0x178A JUMPI DUP2 SWAP1 POP JUMPDEST PUSH2 0x179E PUSH2 0x1796 DUP6 PUSH2 0x1667 JUMP JUMPDEST DUP4 ADD DUP3 PUSH2 0x173E JUMP JUMPDEST POP POP JUMPDEST POP POP POP JUMP JUMPDEST PUSH0 DUP3 DUP3 SHR SWAP1 POP SWAP3 SWAP2 POP POP JUMP JUMPDEST PUSH0 PUSH2 0x17C1 PUSH0 NOT DUP5 PUSH1 0x8 MUL PUSH2 0x17A6 JUMP JUMPDEST NOT DUP1 DUP4 AND SWAP2 POP POP SWAP3 SWAP2 POP POP JUMP JUMPDEST PUSH0 PUSH2 0x17D9 DUP4 DUP4 PUSH2 0x17B2 JUMP JUMPDEST SWAP2 POP DUP3 PUSH1 0x2 MUL DUP3 OR SWAP1 POP SWAP3 SWAP2 POP POP JUMP JUMPDEST PUSH2 0x17F2 DUP3 PUSH2 0xF28 JUMP JUMPDEST PUSH8 0xFFFFFFFFFFFFFFFF DUP2 GT ISZERO PUSH2 0x180B JUMPI PUSH2 0x180A PUSH2 0x1206 JUMP JUMPDEST JUMPDEST PUSH2 0x1815 DUP3 SLOAD PUSH2 0x148C JUMP JUMPDEST PUSH2 0x1820 DUP3 DUP3 DUP6 PUSH2 0x1760 JUMP JUMPDEST PUSH0 PUSH1 0x20 SWAP1 POP PUSH1 0x1F DUP4 GT PUSH1 0x1 DUP2 EQ PUSH2 0x1851 JUMPI PUSH0 DUP5 ISZERO PUSH2 0x183F JUMPI DUP3 DUP8 ADD MLOAD SWAP1 POP JUMPDEST PUSH2 0x1849 DUP6 DUP3 PUSH2 0x17CE JUMP JUMPDEST DUP7 SSTORE POP PUSH2 0x18B0 JUMP JUMPDEST PUSH1 0x1F NOT DUP5 AND PUSH2 0x185F DUP7 PUSH2 0x1655 JUMP JUMPDEST PUSH0 JUMPDEST DUP3 DUP2 LT ISZERO PUSH2 0x1886 JUMPI DUP5 DUP10 ADD MLOAD DUP3 SSTORE PUSH1 0x1 DUP3 ADD SWAP2 POP PUSH1 0x20 DUP6 ADD SWAP5 POP PUSH1 0x20 DUP2 ADD SWAP1 POP PUSH2 0x1861 JUMP JUMPDEST DUP7 DUP4 LT ISZERO PUSH2 0x18A3 JUMPI DUP5 DUP10 ADD MLOAD PUSH2 0x189F PUSH1 0x1F DUP10 AND DUP3 PUSH2 0x17B2 JUMP JUMPDEST DUP4 SSTORE POP JUMPDEST PUSH1 0x1 PUSH1 0x2 DUP9 MUL ADD DUP9 SSTORE POP POP POP JUMPDEST POP POP POP POP POP POP JUMP JUMPDEST PUSH0 DUP2 SWAP1 POP SWAP2 SWAP1 POP JUMP JUMPDEST PUSH0 PUSH8 0xFFFFFFFFFFFFFFFF DUP3 AND SWAP1 POP SWAP2 SWAP1 POP JUMP JUMPDEST PUSH0 PUSH2 0x18EE PUSH2 0x18E9 PUSH2 0x18E4 DUP5 PUSH2 0x18B8 JUMP JUMPDEST PUSH2 0x13EB JUMP JUMPDEST PUSH2 0x18C1 JUMP JUMPDEST SWAP1 POP SWAP2 SWAP1 POP JUMP JUMPDEST PUSH2 0x18FE DUP2 PUSH2 0x18D4 JUMP JUMPDEST DUP3 MSTORE POP POP JUMP JUMPDEST PUSH0 PUSH1 0x20 DUP3 ADD SWAP1 POP PUSH2 0x1917 PUSH0 DUP4 ADD DUP5 PUSH2 0x18F5 JUMP JUMPDEST SWAP3 SWAP2 POP POP JUMP INVALID LOG2 PUSH5 0x6970667358 0x22 SLT KECCAK256 SWAP11 PUSH1 0x7B BLOCKHASH DUP14 PUSH27 0xC81DE8DE9D02B43574E48C4DBD9AF236F993E841B1FEAE57753B64 PUSH20 0x6F6C634300081A00330000000000000000000000 "
		},
		"gasEstimates": {
			"creation": {
				"codeDepositCost": "1296600",
				"executionCost": "1347",
				"totalCost": "1297947"
			},
			"external": {
				"allowance(address,address)": "infinite",
				"approve(address,uint256)": "722",
				"balanceOf(address)": "2913",
				"decimals()": "infinite",
				"deposit(uint256)": "infinite",
				"depositDeadline()": "2514",
				"initialize(address,address,uint256,uint256,string,string)": "infinite",
				"lockDuration()": "2449",
				"name()": "infinite",
				"owner()": "2612",
				"renounceOwnership()": "infinite",
				"symbol()": "infinite",
				"token()": "infinite",
				"totalSupply()": "2515",
				"transfer(address,uint256)": "743",
				"transferFrom(address,address,uint256)": "infinite",
				"transferOwnership(address)": "infinite",
				"withdraw(uint256)": "infinite"
			}
		},
		"methodIdentifiers": {
			"allowance(address,address)": "dd62ed3e",
			"approve(address,uint256)": "095ea7b3",
			"balanceOf(address)": "70a08231",
			"decimals()": "313ce567",
			"deposit(uint256)": "b6b55f25",
			"depositDeadline()": "61603d89",
			"initialize(address,address,uint256,uint256,string,string)": "e001ff52",
			"lockDuration()": "04554443",
			"name()": "06fdde03",
			"owner()": "8da5cb5b",
			"renounceOwnership()": "715018a6",
			"symbol()": "95d89b41",
			"token()": "fc0c546a",
			"totalSupply()": "18160ddd",
			"transfer(address,uint256)": "a9059cbb",
			"transferFrom(address,address,uint256)": "23b872dd",
			"transferOwnership(address)": "f2fde38b",
			"withdraw(uint256)": "2e1a7d4d"
		}
	},
	"abi": [
		{
			"inputs": [],
			"name": "DepositPeriodOver",
			"type": "error"
		},
		{
			"inputs": [],
			"name": "ExceedsBalance",
			"type": "error"
		},
		{
			"inputs": [],
			"name": "InvalidInitialization",
			"type": "error"
		},
		{
			"inputs": [],
			"name": "LockPeriodOngoing",
			"type": "error"
		},
		{
			"inputs": [],
			"name": "NotInitializing",
			"type": "error"
		},
		{
			"inputs": [],
			"name": "NotSupported",
			"type": "error"
		},
		{
			"inputs": [
				{
					"internalType": "address",
					"name": "owner",
					"type": "address"
				}
			],
			"name": "OwnableInvalidOwner",
			"type": "error"
		},
		{
			"inputs": [
				{
					"internalType": "address",
					"name": "account",
					"type": "address"
				}
			],
			"name": "OwnableUnauthorizedAccount",
			"type": "error"
		},
		{
			"inputs": [],
			"name": "TransferFailed",
			"type": "error"
		},
		{
			"anonymous": false,
			"inputs": [
				{
					"indexed": true,
					"internalType": "address",
					"name": "owner",
					"type": "address"
				},
				{
					"indexed": true,
					"internalType": "address",
					"name": "spender",
					"type": "address"
				},
				{
					"indexed": false,
					"internalType": "uint256",
					"name": "value",
					"type": "uint256"
				}
			],
			"name": "Approval",
			"type": "event"
		},
		{
			"anonymous": false,
			"inputs": [
				{
					"indexed": false,
					"internalType": "uint64",
					"name": "version",
					"type": "uint64"
				}
			],
			"name": "Initialized",
			"type": "event"
		},
		{
			"anonymous": false,
			"inputs": [
				{
					"indexed": true,
					"internalType": "address",
					"name": "previousOwner",
					"type": "address"
				},
				{
					"indexed": true,
					"internalType": "address",
					"name": "newOwner",
					"type": "address"
				}
			],
			"name": "OwnershipTransferred",
			"type": "event"
		},
		{
			"anonymous": false,
			"inputs": [
				{
					"indexed": true,
					"internalType": "address",
					"name": "from",
					"type": "address"
				},
				{
					"indexed": true,
					"internalType": "address",
					"name": "to",
					"type": "address"
				},
				{
					"indexed": false,
					"internalType": "uint256",
					"name": "value",
					"type": "uint256"
				}
			],
			"name": "Transfer",
			"type": "event"
		},
		{
			"inputs": [
				{
					"internalType": "address",
					"name": "",
					"type": "address"
				},
				{
					"internalType": "address",
					"name": "",
					"type": "address"
				}
			],
			"name": "allowance",
			"outputs": [
				{
					"internalType": "uint256",
					"name": "",
					"type": "uint256"
				}
			],
			"stateMutability": "pure",
			"type": "function"
		},
		{
			"inputs": [
				{
					"internalType": "address",
					"name": "",
					"type": "address"
				},
				{
					"internalType": "uint256",
					"name": "",
					"type": "uint256"
				}
			],
			"name": "approve",
			"outputs": [
				{
					"internalType": "bool",
					"name": "",
					"type": "bool"
				}
			],
			"stateMutability": "pure",
			"type": "function"
		},
		{
			"inputs": [
				{
					"internalType": "address",
					"name": "",
					"type": "address"
				}
			],
			"name": "balanceOf",
			"outputs": [
				{
					"internalType": "uint256",
					"name": "",
					"type": "uint256"
				}
			],
			"stateMutability": "view",
			"type": "function"
		},
		{
			"inputs": [],
			"name": "decimals",
			"outputs": [
				{
					"internalType": "uint8",
					"name": "",
					"type": "uint8"
				}
			],
			"stateMutability": "view",
			"type": "function"
		},
		{
			"inputs": [
				{
					"internalType": "uint256",
					"name": "amount",
					"type": "uint256"
				}
			],
			"name": "deposit",
			"outputs": [],
			"stateMutability": "nonpayable",
			"type": "function"
		},
		{
			"inputs": [],
			"name": "depositDeadline",
			"outputs": [
				{
					"internalType": "uint256",
					"name": "",
					"type": "uint256"
				}
			],
			"stateMutability": "view",
			"type": "function"
		},
		{
			"inputs": [
				{
					"internalType": "address",
					"name": "_owner",
					"type": "address"
				},
				{
					"internalType": "address",
					"name": "_token",
					"type": "address"
				},
				{
					"internalType": "uint256",
					"name": "_depositDeadline",
					"type": "uint256"
				},
				{
					"internalType": "uint256",
					"name": "_lockDuration",
					"type": "uint256"
				},
				{
					"internalType": "string",
					"name": "_name",
					"type": "string"
				},
				{
					"internalType": "string",
					"name": "_symbol",
					"type": "string"
				}
			],
			"name": "initialize",
			"outputs": [],
			"stateMutability": "nonpayable",
			"type": "function"
		},
		{
			"inputs": [],
			"name": "lockDuration",
			"outputs": [
				{
					"internalType": "uint256",
					"name": "",
					"type": "uint256"
				}
			],
			"stateMutability": "view",
			"type": "function"
		},
		{
			"inputs": [],
			"name": "name",
			"outputs": [
				{
					"internalType": "string",
					"name": "",
					"type": "string"
				}
			],
			"stateMutability": "view",
			"type": "function"
		},
		{
			"inputs": [],
			"name": "owner",
			"outputs": [
				{
					"internalType": "address",
					"name": "",
					"type": "address"
				}
			],
			"stateMutability": "view",
			"type": "function"
		},
		{
			"inputs": [],
			"name": "renounceOwnership",
			"outputs": [],
			"stateMutability": "nonpayable",
			"type": "function"
		},
		{
			"inputs": [],
			"name": "symbol",
			"outputs": [
				{
					"internalType": "string",
					"name": "",
					"type": "string"
				}
			],
			"stateMutability": "view",
			"type": "function"
		},
		{
			"inputs": [],
			"name": "token",
			"outputs": [
				{
					"internalType": "contract ERC20",
					"name": "",
					"type": "address"
				}
			],
			"stateMutability": "view",
			"type": "function"
		},
		{
			"inputs": [],
			"name": "totalSupply",
			"outputs": [
				{
					"internalType": "uint256",
					"name": "",
					"type": "uint256"
				}
			],
			"stateMutability": "view",
			"type": "function"
		},
		{
			"inputs": [
				{
					"internalType": "address",
					"name": "",
					"type": "address"
				},
				{
					"internalType": "uint256",
					"name": "",
					"type": "uint256"
				}
			],
			"name": "transfer",
			"outputs": [
				{
					"internalType": "bool",
					"name": "",
					"type": "bool"
				}
			],
			"stateMutability": "pure",
			"type": "function"
		},
		{
			"inputs": [
				{
					"internalType": "address",
					"name": "",
					"type": "address"
				},
				{
					"internalType": "address",
					"name": "",
					"type": "address"
				},
				{
					"internalType": "uint256",
					"name": "",
					"type": "uint256"
				}
			],
			"name": "transferFrom",
			"outputs": [
				{
					"internalType": "bool",
					"name": "",
					"type": "bool"
				}
			],
			"stateMutability": "pure",
			"type": "function"
		},
		{
			"inputs": [
				{
					"internalType": "address",
					"name": "newOwner",
					"type": "address"
				}
			],
			"name": "transferOwnership",
			"outputs": [],
			"stateMutability": "nonpayable",
			"type": "function"
		},
		{
			"inputs": [
				{
					"internalType": "uint256",
					"name": "amount",
					"type": "uint256"
				}
			],
			"name": "withdraw",
			"outputs": [],
			"stateMutability": "nonpayable",
			"type": "function"
		}
	]
}