{
	"data": {
		"bytecode": {
			"linkReferences": {},
			"object": "60806040525f60075f6101000a81548160ff021916908315150217905550604051610d0b380380610d0b833981810160405281019061003e91906100fb565b335f806101000a81548173ffffffffffffffffffffffffffffffffffffffff021916908373ffffffffffffffffffffffffffffffffffffffff1602179055508360018190555082600281905550816003819055508060058190555042600481905550806004546100ae919061018c565b60068190555034600881905550505050506101bf565b5f80fd5b5f819050919050565b6100da816100c8565b81146100e4575f80fd5b50565b5f815190506100f5816100d1565b92915050565b5f805f8060808587031215610113576101126100c4565b5b5f610120878288016100e7565b9450506020610131878288016100e7565b9350506040610142878288016100e7565b9250506060610153878288016100e7565b91505092959194509250565b7f4e487b71000000000000000000000000000000000000000000000000000000005f52601160045260245ffd5b5f610196826100c8565b91506101a1836100c8565b92508282019050808211156101b9576101b861015f565b5b92915050565b610b3f806101cc5f395ff3fe6080604052600436106100e0575f3560e01c80637150d8ae1161007e578063a6b513ee11610058578063a6b513ee14610281578063e0d0c4a6146102ab578063eb54f9ec146102b5578063eb91d37e146102df576100ed565b80637150d8ae1461021757806386433374146102415780638fa8b7901461026b576100ed565b806326cddbfb116100ba57806326cddbfb1461016f57806329cb924d146101995780634b449cba146101c35780634ddd108a146101ed576100ed565b806308551a53146100f15780630cbf54c81461011b5780631d0806ae14610145576100ed565b366100ed57346008819055005b5f80fd5b3480156100fc575f80fd5b50610105610309565b6040516101129190610815565b60405180910390f35b348015610126575f80fd5b5061012f61032c565b60405161013c9190610846565b60405180910390f35b348015610150575f80fd5b50610159610332565b6040516101669190610846565b60405180910390f35b34801561017a575f80fd5b50610183610338565b6040516101909190610846565b60405180910390f35b3480156101a4575f80fd5b506101ad61033e565b6040516101ba9190610846565b60405180910390f35b3480156101ce575f80fd5b506101d7610345565b6040516101e49190610846565b60405180910390f35b3480156101f8575f80fd5b5061020161034b565b60405161020e9190610846565b60405180910390f35b348015610222575f80fd5b5061022b610351565b6040516102389190610815565b60405180910390f35b34801561024c575f80fd5b50610255610376565b6040516102629190610879565b60405180910390f35b348015610276575f80fd5b5061027f610388565b005b34801561028c575f80fd5b50610295610480565b6040516102a29190610846565b60405180910390f35b6102b3610486565b005b3480156102c0575f80fd5b506102c961074f565b6040516102d69190610846565b60405180910390f35b3480156102ea575f80fd5b506102f3610755565b6040516103009190610846565b60405180910390f35b5f8054906101000a900473ffffffffffffffffffffffffffffffffffffffff1681565b60055481565b60015481565b60035481565b5f42905090565b60065481565b60085481565b60095f9054906101000a900473ffffffffffffffffffffffffffffffffffffffff1681565b60075f9054906101000a900460ff1681565b5f8054906101000a900473ffffffffffffffffffffffffffffffffffffffff1673ffffffffffffffffffffffffffffffffffffffff163373ffffffffffffffffffffffffffffffffffffffff1614610415576040517f08c379a000000000000000000000000000000000000000000000000000000000815260040161040c90610912565b60405180910390fd5b60075f9054906101000a900460ff1615610464576040517f08c379a000000000000000000000000000000000000000000000000000000000815260040161045b9061097a565b60405180910390fd5b600160075f6101000a81548160ff021916908315150217905550565b60025481565b6004544210156104cb576040517f08c379a00000000000000000000000000000000000000000000000000000000081526004016104c2906109e2565b60405180910390fd5b600654421115610510576040517f08c379a00000000000000000000000000000000000000000000000000000000081526004016105079061097a565b60405180910390fd5b610518610755565b600854101561055c576040517f08c379a000000000000000000000000000000000000000000000000000000000815260040161055390610a4a565b60405180910390fd5b60075f9054906101000a900460ff16156105ab576040517f08c379a00000000000000000000000000000000000000000000000000000000081526004016105a29061097a565b60405180910390fd5b3360095f6101000a81548173ffffffffffffffffffffffffffffffffffffffff021916908373ffffffffffffffffffffffffffffffffffffffff160217905550600160075f6101000a81548160ff0219169083151502179055505f8054906101000a900473ffffffffffffffffffffffffffffffffffffffff1673ffffffffffffffffffffffffffffffffffffffff166108fc3490811502906040515f60405180830381858888f19350505050158015610667573d5f803e3d5ffd5b5060095f9054906101000a900473ffffffffffffffffffffffffffffffffffffffff1673ffffffffffffffffffffffffffffffffffffffff167f792fe07c0f3ce4ef42df79c4a2b07925168cddbaabf7a7ef1351f027a3760313346040516106cf9190610846565b60405180910390a260095f9054906101000a900473ffffffffffffffffffffffffffffffffffffffff1673ffffffffffffffffffffffffffffffffffffffff167fdaec4582d5d9595688c8c98545fdd1c696d41c6aeaeb636737e84ed2f5c00eda610738610755565b6040516107459190610846565b60405180910390a2565b60045481565b5f80600454426107659190610a95565b905060065442101580610783575060075f9054906101000a900460ff165b15610793576002549150506107d3565b5f600354826107a29190610ac8565b90505f816001546107b39190610a95565b90506002548110156107cc5760025493505050506107d3565b8093505050505b90565b5f73ffffffffffffffffffffffffffffffffffffffff82169050919050565b5f6107ff826107d6565b9050919050565b61080f816107f5565b82525050565b5f6020820190506108285f830184610806565b92915050565b5f819050919050565b6108408161082e565b82525050565b5f6020820190506108595f830184610837565b92915050565b5f8115159050919050565b6108738161085f565b82525050565b5f60208201905061088c5f83018461086a565b92915050565b5f82825260208201905092915050565b7f4f6e6c792073656c6c65722063616e2063616e63656c207468652061756374695f8201527f6f6e2e0000000000000000000000000000000000000000000000000000000000602082015250565b5f6108fc602383610892565b9150610907826108a2565b604082019050919050565b5f6020820190508181035f830152610929816108f0565b9050919050565b7f41756374696f6e2068617320616c726561647920656e6465642e0000000000005f82015250565b5f610964601a83610892565b915061096f82610930565b602082019050919050565b5f6020820190508181035f83015261099181610958565b9050919050565b7f41756374696f6e206861736e27742073746172746564207965742e00000000005f82015250565b5f6109cc601b83610892565b91506109d782610998565b602082019050919050565b5f6020820190508181035f8301526109f9816109c0565b9050919050565b7f496e73756666696369656e742066756e647320746f2070757263686173652e005f82015250565b5f610a34601f83610892565b9150610a3f82610a00565b602082019050919050565b5f6020820190508181035f830152610a6181610a28565b9050919050565b7f4e487b71000000000000000000000000000000000000000000000000000000005f52601160045260245ffd5b5f610a9f8261082e565b9150610aaa8361082e565b9250828203905081811115610ac257610ac1610a68565b5b92915050565b5f610ad28261082e565b9150610add8361082e565b9250828202610aeb8161082e565b91508282048414831517610b0257610b01610a68565b5b509291505056fea26469706673582212200930c20849b772a990ed521af0ba20b6b9b971bf10c34bc11ab090b91079578a64736f6c634300081a0033",
			"opcodes": "PUSH1 0x80 PUSH1 0x40 MSTORE PUSH0 PUSH1 0x7 PUSH0 PUSH2 0x100 EXP DUP2 SLOAD DUP2 PUSH1 0xFF MUL NOT AND SWAP1 DUP4 ISZERO ISZERO MUL OR SWAP1 SSTORE POP PUSH1 0x40 MLOAD PUSH2 0xD0B CODESIZE SUB DUP1 PUSH2 0xD0B DUP4 CODECOPY DUP2 DUP2 ADD PUSH1 0x40 MSTORE DUP2 ADD SWAP1 PUSH2 0x3E SWAP2 SWAP1 PUSH2 0xFB JUMP JUMPDEST CALLER PUSH0 DUP1 PUSH2 0x100 EXP DUP2 SLOAD DUP2 PUSH20 0xFFFFFFFFFFFFFFFFFFFFFFFFFFFFFFFFFFFFFFFF MUL NOT AND SWAP1 DUP4 PUSH20 0xFFFFFFFFFFFFFFFFFFFFFFFFFFFFFFFFFFFFFFFF AND MUL OR SWAP1 SSTORE POP DUP4 PUSH1 0x1 DUP2 SWAP1 SSTORE POP DUP3 PUSH1 0x2 DUP2 SWAP1 SSTORE POP DUP2 PUSH1 0x3 DUP2 SWAP1 SSTORE POP DUP1 PUSH1 0x5 DUP2 SWAP1 SSTORE POP TIMESTAMP PUSH1 0x4 DUP2 SWAP1 SSTORE POP DUP1 PUSH1 0x4 SLOAD PUSH2 0xAE SWAP2 SWAP1 PUSH2 0x18C JUMP JUMPDEST PUSH1 0x6 DUP2 SWAP1 SSTORE POP CALLVALUE PUSH1 0x8 DUP2 SWAP1 SSTORE POP POP POP POP POP PUSH2 0x1BF JUMP JUMPDEST PUSH0 DUP1 REVERT JUMPDEST PUSH0 DUP2 SWAP1 POP SWAP2 SWAP1 POP JUMP JUMPDEST PUSH2 0xDA DUP2 PUSH2 0xC8 JUMP JUMPDEST DUP2 EQ PUSH2 0xE4 JUMPI PUSH0 DUP1 REVERT JUMPDEST POP JUMP JUMPDEST PUSH0 DUP2 MLOAD SWAP1 POP PUSH2 0xF5 DUP2 PUSH2 0xD1 JUMP JUMPDEST SWAP3 SWAP2 POP POP JUMP JUMPDEST PUSH0 DUP1 PUSH0 DUP1 PUSH1 0x80 DUP6 DUP8 SUB SLT ISZERO PUSH2 0x113 JUMPI PUSH2 0x112 PUSH2 0xC4 JUMP JUMPDEST JUMPDEST PUSH0 PUSH2 0x120 DUP8 DUP3 DUP9 ADD PUSH2 0xE7 JUMP JUMPDEST SWAP5 POP POP PUSH1 0x20 PUSH2 0x131 DUP8 DUP3 DUP9 ADD PUSH2 0xE7 JUMP JUMPDEST SWAP4 POP POP PUSH1 0x40 PUSH2 0x142 DUP8 DUP3 DUP9 ADD PUSH2 0xE7 JUMP JUMPDEST SWAP3 POP POP PUSH1 0x60 PUSH2 0x153 DUP8 DUP3 DUP9 ADD PUSH2 0xE7 JUMP JUMPDEST SWAP2 POP POP SWAP3 SWAP6 SWAP2 SWAP5 POP SWAP3 POP JUMP JUMPDEST PUSH32 0x4E487B7100000000000000000000000000000000000000000000000000000000 PUSH0 MSTORE PUSH1 0x11 PUSH1 0x4 MSTORE PUSH1 0x24 PUSH0 REVERT JUMPDEST PUSH0 PUSH2 0x196 DUP3 PUSH2 0xC8 JUMP JUMPDEST SWAP2 POP PUSH2 0x1A1 DUP4 PUSH2 0xC8 JUMP JUMPDEST SWAP3 POP DUP3 DUP3 ADD SWAP1 POP DUP1 DUP3 GT ISZERO PUSH2 0x1B9 JUMPI PUSH2 0x1B8 PUSH2 0x15F JUMP JUMPDEST JUMPDEST SWAP3 SWAP2 POP POP JUMP JUMPDEST PUSH2 0xB3F DUP1 PUSH2 0x1CC PUSH0 CODECOPY PUSH0 RETURN INVALID PUSH1 0x80 PUSH1 0x40 MSTORE PUSH1 0x4 CALLDATASIZE LT PUSH2 0xE0 JUMPI PUSH0 CALLDATALOAD PUSH1 0xE0 SHR DUP1 PUSH4 0x7150D8AE GT PUSH2 0x7E JUMPI DUP1 PUSH4 0xA6B513EE GT PUSH2 0x58 JUMPI DUP1 PUSH4 0xA6B513EE EQ PUSH2 0x281 JUMPI DUP1 PUSH4 0xE0D0C4A6 EQ PUSH2 0x2AB JUMPI DUP1 PUSH4 0xEB54F9EC EQ PUSH2 0x2B5 JUMPI DUP1 PUSH4 0xEB91D37E EQ PUSH2 0x2DF JUMPI PUSH2 0xED JUMP JUMPDEST DUP1 PUSH4 0x7150D8AE EQ PUSH2 0x217 JUMPI DUP1 PUSH4 0x86433374 EQ PUSH2 0x241 JUMPI DUP1 PUSH4 0x8FA8B790 EQ PUSH2 0x26B JUMPI PUSH2 0xED JUMP JUMPDEST DUP1 PUSH4 0x26CDDBFB GT PUSH2 0xBA JUMPI DUP1 PUSH4 0x26CDDBFB EQ PUSH2 0x16F JUMPI DUP1 PUSH4 0x29CB924D EQ PUSH2 0x199 JUMPI DUP1 PUSH4 0x4B449CBA EQ PUSH2 0x1C3 JUMPI DUP1 PUSH4 0x4DDD108A EQ PUSH2 0x1ED JUMPI PUSH2 0xED JUMP JUMPDEST DUP1 PUSH4 0x8551A53 EQ PUSH2 0xF1 JUMPI DUP1 PUSH4 0xCBF54C8 EQ PUSH2 0x11B JUMPI DUP1 PUSH4 0x1D0806AE EQ PUSH2 0x145 JUMPI PUSH2 0xED JUMP JUMPDEST CALLDATASIZE PUSH2 0xED JUMPI CALLVALUE PUSH1 0x8 DUP2 SWAP1 SSTORE STOP JUMPDEST PUSH0 DUP1 REVERT JUMPDEST CALLVALUE DUP1 ISZERO PUSH2 0xFC JUMPI PUSH0 DUP1 REVERT JUMPDEST POP PUSH2 0x105 PUSH2 0x309 JUMP JUMPDEST PUSH1 0x40 MLOAD PUSH2 0x112 SWAP2 SWAP1 PUSH2 0x815 JUMP JUMPDEST PUSH1 0x40 MLOAD DUP1 SWAP2 SUB SWAP1 RETURN JUMPDEST CALLVALUE DUP1 ISZERO PUSH2 0x126 JUMPI PUSH0 DUP1 REVERT JUMPDEST POP PUSH2 0x12F PUSH2 0x32C JUMP JUMPDEST PUSH1 0x40 MLOAD PUSH2 0x13C SWAP2 SWAP1 PUSH2 0x846 JUMP JUMPDEST PUSH1 0x40 MLOAD DUP1 SWAP2 SUB SWAP1 RETURN JUMPDEST CALLVALUE DUP1 ISZERO PUSH2 0x150 JUMPI PUSH0 DUP1 REVERT JUMPDEST POP PUSH2 0x159 PUSH2 0x332 JUMP JUMPDEST PUSH1 0x40 MLOAD PUSH2 0x166 SWAP2 SWAP1 PUSH2 0x846 JUMP JUMPDEST PUSH1 0x40 MLOAD DUP1 SWAP2 SUB SWAP1 RETURN JUMPDEST CALLVALUE DUP1 ISZERO PUSH2 0x17A JUMPI PUSH0 DUP1 REVERT JUMPDEST POP PUSH2 0x183 PUSH2 0x338 JUMP JUMPDEST PUSH1 0x40 MLOAD PUSH2 0x190 SWAP2 SWAP1 PUSH2 0x846 JUMP JUMPDEST PUSH1 0x40 MLOAD DUP1 SWAP2 SUB SWAP1 RETURN JUMPDEST CALLVALUE DUP1 ISZERO PUSH2 0x1A4 JUMPI PUSH0 DUP1 REVERT JUMPDEST POP PUSH2 0x1AD PUSH2 0x33E JUMP JUMPDEST PUSH1 0x40 MLOAD PUSH2 0x1BA SWAP2 SWAP1 PUSH2 0x846 JUMP JUMPDEST PUSH1 0x40 MLOAD DUP1 SWAP2 SUB SWAP1 RETURN JUMPDEST CALLVALUE DUP1 ISZERO PUSH2 0x1CE JUMPI PUSH0 DUP1 REVERT JUMPDEST POP PUSH2 0x1D7 PUSH2 0x345 JUMP JUMPDEST PUSH1 0x40 MLOAD PUSH2 0x1E4 SWAP2 SWAP1 PUSH2 0x846 JUMP JUMPDEST PUSH1 0x40 MLOAD DUP1 SWAP2 SUB SWAP1 RETURN JUMPDEST CALLVALUE DUP1 ISZERO PUSH2 0x1F8 JUMPI PUSH0 DUP1 REVERT JUMPDEST POP PUSH2 0x201 PUSH2 0x34B JUMP JUMPDEST PUSH1 0x40 MLOAD PUSH2 0x20E SWAP2 SWAP1 PUSH2 0x846 JUMP JUMPDEST PUSH1 0x40 MLOAD DUP1 SWAP2 SUB SWAP1 RETURN JUMPDEST CALLVALUE DUP1 ISZERO PUSH2 0x222 JUMPI PUSH0 DUP1 REVERT JUMPDEST POP PUSH2 0x22B PUSH2 0x351 JUMP JUMPDEST PUSH1 0x40 MLOAD PUSH2 0x238 SWAP2 SWAP1 PUSH2 0x815 JUMP JUMPDEST PUSH1 0x40 MLOAD DUP1 SWAP2 SUB SWAP1 RETURN JUMPDEST CALLVALUE DUP1 ISZERO PUSH2 0x24C JUMPI PUSH0 DUP1 REVERT JUMPDEST POP PUSH2 0x255 PUSH2 0x376 JUMP JUMPDEST PUSH1 0x40 MLOAD PUSH2 0x262 SWAP2 SWAP1 PUSH2 0x879 JUMP JUMPDEST PUSH1 0x40 MLOAD DUP1 SWAP2 SUB SWAP1 RETURN JUMPDEST CALLVALUE DUP1 ISZERO PUSH2 0x276 JUMPI PUSH0 DUP1 REVERT JUMPDEST POP PUSH2 0x27F PUSH2 0x388 JUMP JUMPDEST STOP JUMPDEST CALLVALUE DUP1 ISZERO PUSH2 0x28C JUMPI PUSH0 DUP1 REVERT JUMPDEST POP PUSH2 0x295 PUSH2 0x480 JUMP JUMPDEST PUSH1 0x40 MLOAD PUSH2 0x2A2 SWAP2 SWAP1 PUSH2 0x846 JUMP JUMPDEST PUSH1 0x40 MLOAD DUP1 SWAP2 SUB SWAP1 RETURN JUMPDEST PUSH2 0x2B3 PUSH2 0x486 JUMP JUMPDEST STOP JUMPDEST CALLVALUE DUP1 ISZERO PUSH2 0x2C0 JUMPI PUSH0 DUP1 REVERT JUMPDEST POP PUSH2 0x2C9 PUSH2 0x74F JUMP JUMPDEST PUSH1 0x40 MLOAD PUSH2 0x2D6 SWAP2 SWAP1 PUSH2 0x846 JUMP JUMPDEST PUSH1 0x40 MLOAD DUP1 SWAP2 SUB SWAP1 RETURN JUMPDEST CALLVALUE DUP1 ISZERO PUSH2 0x2EA JUMPI PUSH0 DUP1 REVERT JUMPDEST POP PUSH2 0x2F3 PUSH2 0x755 JUMP JUMPDEST PUSH1 0x40 MLOAD PUSH2 0x300 SWAP2 SWAP1 PUSH2 0x846 JUMP JUMPDEST PUSH1 0x40 MLOAD DUP1 SWAP2 SUB SWAP1 RETURN JUMPDEST PUSH0 DUP1 SLOAD SWAP1 PUSH2 0x100 EXP SWAP1 DIV PUSH20 0xFFFFFFFFFFFFFFFFFFFFFFFFFFFFFFFFFFFFFFFF AND DUP2 JUMP JUMPDEST PUSH1 0x5 SLOAD DUP2 JUMP JUMPDEST PUSH1 0x1 SLOAD DUP2 JUMP JUMPDEST PUSH1 0x3 SLOAD DUP2 JUMP JUMPDEST PUSH0 TIMESTAMP SWAP1 POP SWAP1 JUMP JUMPDEST PUSH1 0x6 SLOAD DUP2 JUMP JUMPDEST PUSH1 0x8 SLOAD DUP2 JUMP JUMPDEST PUSH1 0x9 PUSH0 SWAP1 SLOAD SWAP1 PUSH2 0x100 EXP SWAP1 DIV PUSH20 0xFFFFFFFFFFFFFFFFFFFFFFFFFFFFFFFFFFFFFFFF AND DUP2 JUMP JUMPDEST PUSH1 0x7 PUSH0 SWAP1 SLOAD SWAP1 PUSH2 0x100 EXP SWAP1 DIV PUSH1 0xFF AND DUP2 JUMP JUMPDEST PUSH0 DUP1 SLOAD SWAP1 PUSH2 0x100 EXP SWAP1 DIV PUSH20 0xFFFFFFFFFFFFFFFFFFFFFFFFFFFFFFFFFFFFFFFF AND PUSH20 0xFFFFFFFFFFFFFFFFFFFFFFFFFFFFFFFFFFFFFFFF AND CALLER PUSH20 0xFFFFFFFFFFFFFFFFFFFFFFFFFFFFFFFFFFFFFFFF AND EQ PUSH2 0x415 JUMPI PUSH1 0x40 MLOAD PUSH32 0x8C379A000000000000000000000000000000000000000000000000000000000 DUP2 MSTORE PUSH1 0x4 ADD PUSH2 0x40C SWAP1 PUSH2 0x912 JUMP JUMPDEST PUSH1 0x40 MLOAD DUP1 SWAP2 SUB SWAP1 REVERT JUMPDEST PUSH1 0x7 PUSH0 SWAP1 SLOAD SWAP1 PUSH2 0x100 EXP SWAP1 DIV PUSH1 0xFF AND ISZERO PUSH2 0x464 JUMPI PUSH1 0x40 MLOAD PUSH32 0x8C379A000000000000000000000000000000000000000000000000000000000 DUP2 MSTORE PUSH1 0x4 ADD PUSH2 0x45B SWAP1 PUSH2 0x97A JUMP JUMPDEST PUSH1 0x40 MLOAD DUP1 SWAP2 SUB SWAP1 REVERT JUMPDEST PUSH1 0x1 PUSH1 0x7 PUSH0 PUSH2 0x100 EXP DUP2 SLOAD DUP2 PUSH1 0xFF MUL NOT AND SWAP1 DUP4 ISZERO ISZERO MUL OR SWAP1 SSTORE POP JUMP JUMPDEST PUSH1 0x2 SLOAD DUP2 JUMP JUMPDEST PUSH1 0x4 SLOAD TIMESTAMP LT ISZERO PUSH2 0x4CB JUMPI PUSH1 0x40 MLOAD PUSH32 0x8C379A000000000000000000000000000000000000000000000000000000000 DUP2 MSTORE PUSH1 0x4 ADD PUSH2 0x4C2 SWAP1 PUSH2 0x9E2 JUMP JUMPDEST PUSH1 0x40 MLOAD DUP1 SWAP2 SUB SWAP1 REVERT JUMPDEST PUSH1 0x6 SLOAD TIMESTAMP GT ISZERO PUSH2 0x510 JUMPI PUSH1 0x40 MLOAD PUSH32 0x8C379A000000000000000000000000000000000000000000000000000000000 DUP2 MSTORE PUSH1 0x4 ADD PUSH2 0x507 SWAP1 PUSH2 0x97A JUMP JUMPDEST PUSH1 0x40 MLOAD DUP1 SWAP2 SUB SWAP1 REVERT JUMPDEST PUSH2 0x518 PUSH2 0x755 JUMP JUMPDEST PUSH1 0x8 SLOAD LT ISZERO PUSH2 0x55C JUMPI PUSH1 0x40 MLOAD PUSH32 0x8C379A000000000000000000000000000000000000000000000000000000000 DUP2 MSTORE PUSH1 0x4 ADD PUSH2 0x553 SWAP1 PUSH2 0xA4A JUMP JUMPDEST PUSH1 0x40 MLOAD DUP1 SWAP2 SUB SWAP1 REVERT JUMPDEST PUSH1 0x7 PUSH0 SWAP1 SLOAD SWAP1 PUSH2 0x100 EXP SWAP1 DIV PUSH1 0xFF AND ISZERO PUSH2 0x5AB JUMPI PUSH1 0x40 MLOAD PUSH32 0x8C379A000000000000000000000000000000000000000000000000000000000 DUP2 MSTORE PUSH1 0x4 ADD PUSH2 0x5A2 SWAP1 PUSH2 0x97A JUMP JUMPDEST PUSH1 0x40 MLOAD DUP1 SWAP2 SUB SWAP1 REVERT JUMPDEST CALLER PUSH1 0x9 PUSH0 PUSH2 0x100 EXP DUP2 SLOAD DUP2 PUSH20 0xFFFFFFFFFFFFFFFFFFFFFFFFFFFFFFFFFFFFFFFF MUL NOT AND SWAP1 DUP4 PUSH20 0xFFFFFFFFFFFFFFFFFFFFFFFFFFFFFFFFFFFFFFFF AND MUL OR SWAP1 SSTORE POP PUSH1 0x1 PUSH1 0x7 PUSH0 PUSH2 0x100 EXP DUP2 SLOAD DUP2 PUSH1 0xFF MUL NOT AND SWAP1 DUP4 ISZERO ISZERO MUL OR SWAP1 SSTORE POP PUSH0 DUP1 SLOAD SWAP1 PUSH2 0x100 EXP SWAP1 DIV PUSH20 0xFFFFFFFFFFFFFFFFFFFFFFFFFFFFFFFFFFFFFFFF AND PUSH20 0xFFFFFFFFFFFFFFFFFFFFFFFFFFFFFFFFFFFFFFFF AND PUSH2 0x8FC CALLVALUE SWAP1 DUP2 ISZERO MUL SWAP1 PUSH1 0x40 MLOAD PUSH0 PUSH1 0x40 MLOAD DUP1 DUP4 SUB DUP2 DUP6 DUP9 DUP9 CALL SWAP4 POP POP POP POP ISZERO DUP1 ISZERO PUSH2 0x667 JUMPI RETURNDATASIZE PUSH0 DUP1 RETURNDATACOPY RETURNDATASIZE PUSH0 REVERT JUMPDEST POP PUSH1 0x9 PUSH0 SWAP1 SLOAD SWAP1 PUSH2 0x100 EXP SWAP1 DIV PUSH20 0xFFFFFFFFFFFFFFFFFFFFFFFFFFFFFFFFFFFFFFFF AND PUSH20 0xFFFFFFFFFFFFFFFFFFFFFFFFFFFFFFFFFFFFFFFF AND PUSH32 0x792FE07C0F3CE4EF42DF79C4A2B07925168CDDBAABF7A7EF1351F027A3760313 CALLVALUE PUSH1 0x40 MLOAD PUSH2 0x6CF SWAP2 SWAP1 PUSH2 0x846 JUMP JUMPDEST PUSH1 0x40 MLOAD DUP1 SWAP2 SUB SWAP1 LOG2 PUSH1 0x9 PUSH0 SWAP1 SLOAD SWAP1 PUSH2 0x100 EXP SWAP1 DIV PUSH20 0xFFFFFFFFFFFFFFFFFFFFFFFFFFFFFFFFFFFFFFFF AND PUSH20 0xFFFFFFFFFFFFFFFFFFFFFFFFFFFFFFFFFFFFFFFF AND PUSH32 0xDAEC4582D5D9595688C8C98545FDD1C696D41C6AEAEB636737E84ED2F5C00EDA PUSH2 0x738 PUSH2 0x755 JUMP JUMPDEST PUSH1 0x40 MLOAD PUSH2 0x745 SWAP2 SWAP1 PUSH2 0x846 JUMP JUMPDEST PUSH1 0x40 MLOAD DUP1 SWAP2 SUB SWAP1 LOG2 JUMP JUMPDEST PUSH1 0x4 SLOAD DUP2 JUMP JUMPDEST PUSH0 DUP1 PUSH1 0x4 SLOAD TIMESTAMP PUSH2 0x765 SWAP2 SWAP1 PUSH2 0xA95 JUMP JUMPDEST SWAP1 POP PUSH1 0x6 SLOAD TIMESTAMP LT ISZERO DUP1 PUSH2 0x783 JUMPI POP PUSH1 0x7 PUSH0 SWAP1 SLOAD SWAP1 PUSH2 0x100 EXP SWAP1 DIV PUSH1 0xFF AND JUMPDEST ISZERO PUSH2 0x793 JUMPI PUSH1 0x2 SLOAD SWAP2 POP POP PUSH2 0x7D3 JUMP JUMPDEST PUSH0 PUSH1 0x3 SLOAD DUP3 PUSH2 0x7A2 SWAP2 SWAP1 PUSH2 0xAC8 JUMP JUMPDEST SWAP1 POP PUSH0 DUP2 PUSH1 0x1 SLOAD PUSH2 0x7B3 SWAP2 SWAP1 PUSH2 0xA95 JUMP JUMPDEST SWAP1 POP PUSH1 0x2 SLOAD DUP2 LT ISZERO PUSH2 0x7CC JUMPI PUSH1 0x2 SLOAD SWAP4 POP POP POP POP PUSH2 0x7D3 JUMP JUMPDEST DUP1 SWAP4 POP POP POP POP JUMPDEST SWAP1 JUMP JUMPDEST PUSH0 PUSH20 0xFFFFFFFFFFFFFFFFFFFFFFFFFFFFFFFFFFFFFFFF DUP3 AND SWAP1 POP SWAP2 SWAP1 POP JUMP JUMPDEST PUSH0 PUSH2 0x7FF DUP3 PUSH2 0x7D6 JUMP JUMPDEST SWAP1 POP SWAP2 SWAP1 POP JUMP JUMPDEST PUSH2 0x80F DUP2 PUSH2 0x7F5 JUMP JUMPDEST DUP3 MSTORE POP POP JUMP JUMPDEST PUSH0 PUSH1 0x20 DUP3 ADD SWAP1 POP PUSH2 0x828 PUSH0 DUP4 ADD DUP5 PUSH2 0x806 JUMP JUMPDEST SWAP3 SWAP2 POP POP JUMP JUMPDEST PUSH0 DUP2 SWAP1 POP SWAP2 SWAP1 POP JUMP JUMPDEST PUSH2 0x840 DUP2 PUSH2 0x82E JUMP JUMPDEST DUP3 MSTORE POP POP JUMP JUMPDEST PUSH0 PUSH1 0x20 DUP3 ADD SWAP1 POP PUSH2 0x859 PUSH0 DUP4 ADD DUP5 PUSH2 0x837 JUMP JUMPDEST SWAP3 SWAP2 POP POP JUMP JUMPDEST PUSH0 DUP2 ISZERO ISZERO SWAP1 POP SWAP2 SWAP1 POP JUMP JUMPDEST PUSH2 0x873 DUP2 PUSH2 0x85F JUMP JUMPDEST DUP3 MSTORE POP POP JUMP JUMPDEST PUSH0 PUSH1 0x20 DUP3 ADD SWAP1 POP PUSH2 0x88C PUSH0 DUP4 ADD DUP5 PUSH2 0x86A JUMP JUMPDEST SWAP3 SWAP2 POP POP JUMP JUMPDEST PUSH0 DUP3 DUP3 MSTORE PUSH1 0x20 DUP3 ADD SWAP1 POP SWAP3 SWAP2 POP POP JUMP JUMPDEST PUSH32 0x4F6E6C792073656C6C65722063616E2063616E63656C20746865206175637469 PUSH0 DUP3 ADD MSTORE PUSH32 0x6F6E2E0000000000000000000000000000000000000000000000000000000000 PUSH1 0x20 DUP3 ADD MSTORE POP JUMP JUMPDEST PUSH0 PUSH2 0x8FC PUSH1 0x23 DUP4 PUSH2 0x892 JUMP JUMPDEST SWAP2 POP PUSH2 0x907 DUP3 PUSH2 0x8A2 JUMP JUMPDEST PUSH1 0x40 DUP3 ADD SWAP1 POP SWAP2 SWAP1 POP JUMP JUMPDEST PUSH0 PUSH1 0x20 DUP3 ADD SWAP1 POP DUP2 DUP2 SUB PUSH0 DUP4 ADD MSTORE PUSH2 0x929 DUP2 PUSH2 0x8F0 JUMP JUMPDEST SWAP1 POP SWAP2 SWAP1 POP JUMP JUMPDEST PUSH32 0x41756374696F6E2068617320616C726561647920656E6465642E000000000000 PUSH0 DUP3 ADD MSTORE POP JUMP JUMPDEST PUSH0 PUSH2 0x964 PUSH1 0x1A DUP4 PUSH2 0x892 JUMP JUMPDEST SWAP2 POP PUSH2 0x96F DUP3 PUSH2 0x930 JUMP JUMPDEST PUSH1 0x20 DUP3 ADD SWAP1 POP SWAP2 SWAP1 POP JUMP JUMPDEST PUSH0 PUSH1 0x20 DUP3 ADD SWAP1 POP DUP2 DUP2 SUB PUSH0 DUP4 ADD MSTORE PUSH2 0x991 DUP2 PUSH2 0x958 JUMP JUMPDEST SWAP1 POP SWAP2 SWAP1 POP JUMP JUMPDEST PUSH32 0x41756374696F6E206861736E27742073746172746564207965742E0000000000 PUSH0 DUP3 ADD MSTORE POP JUMP JUMPDEST PUSH0 PUSH2 0x9CC PUSH1 0x1B DUP4 PUSH2 0x892 JUMP JUMPDEST SWAP2 POP PUSH2 0x9D7 DUP3 PUSH2 0x998 JUMP JUMPDEST PUSH1 0x20 DUP3 ADD SWAP1 POP SWAP2 SWAP1 POP JUMP JUMPDEST PUSH0 PUSH1 0x20 DUP3 ADD SWAP1 POP DUP2 DUP2 SUB PUSH0 DUP4 ADD MSTORE PUSH2 0x9F9 DUP2 PUSH2 0x9C0 JUMP JUMPDEST SWAP1 POP SWAP2 SWAP1 POP JUMP JUMPDEST PUSH32 0x496E73756666696369656E742066756E647320746F2070757263686173652E00 PUSH0 DUP3 ADD MSTORE POP JUMP JUMPDEST PUSH0 PUSH2 0xA34 PUSH1 0x1F DUP4 PUSH2 0x892 JUMP JUMPDEST SWAP2 POP PUSH2 0xA3F DUP3 PUSH2 0xA00 JUMP JUMPDEST PUSH1 0x20 DUP3 ADD SWAP1 POP SWAP2 SWAP1 POP JUMP JUMPDEST PUSH0 PUSH1 0x20 DUP3 ADD SWAP1 POP DUP2 DUP2 SUB PUSH0 DUP4 ADD MSTORE PUSH2 0xA61 DUP2 PUSH2 0xA28 JUMP JUMPDEST SWAP1 POP SWAP2 SWAP1 POP JUMP JUMPDEST PUSH32 0x4E487B7100000000000000000000000000000000000000000000000000000000 PUSH0 MSTORE PUSH1 0x11 PUSH1 0x4 MSTORE PUSH1 0x24 PUSH0 REVERT JUMPDEST PUSH0 PUSH2 0xA9F DUP3 PUSH2 0x82E JUMP JUMPDEST SWAP2 POP PUSH2 0xAAA DUP4 PUSH2 0x82E JUMP JUMPDEST SWAP3 POP DUP3 DUP3 SUB SWAP1 POP DUP2 DUP2 GT ISZERO PUSH2 0xAC2 JUMPI PUSH2 0xAC1 PUSH2 0xA68 JUMP JUMPDEST JUMPDEST SWAP3 SWAP2 POP POP JUMP JUMPDEST PUSH0 PUSH2 0xAD2 DUP3 PUSH2 0x82E JUMP JUMPDEST SWAP2 POP PUSH2 0xADD DUP4 PUSH2 0x82E JUMP JUMPDEST SWAP3 POP DUP3 DUP3 MUL PUSH2 0xAEB DUP2 PUSH2 0x82E JUMP JUMPDEST SWAP2 POP DUP3 DUP3 DIV DUP5 EQ DUP4 ISZERO OR PUSH2 0xB02 JUMPI PUSH2 0xB01 PUSH2 0xA68 JUMP JUMPDEST JUMPDEST POP SWAP3 SWAP2 POP POP JUMP INVALID LOG2 PUSH5 0x6970667358 0x22 SLT KECCAK256 MULMOD ADDRESS 0xC2 ADDMOD BLOBHASH 0xB7 PUSH19 0xA990ED521AF0BA20B6B9B971BF10C34BC11AB0 SWAP1 0xB9 LT PUSH26 0x578A64736F6C634300081A003300000000000000000000000000 "
		},
		"gasEstimates": {
			"creation": {
				"codeDepositCost": "575800",
				"executionCost": "infinite",
				"totalCost": "infinite"
			},
			"external": {
				"auctionDuration()": "2471",
				"auctionEndTime()": "2492",
				"auctionEnded()": "2511",
				"auctionStartTime()": "2491",
				"buyer()": "2531",
				"cancelAuction()": "28797",
				"finalPrice()": "2447",
				"getCurrentPrice()": "infinite",
				"getCurrentTime()": "376",
				"initialPrice()": "2493",
				"money()": "2514",
				"priceDecrement()": "2448",
				"purchaseItem()": "infinite",
				"seller()": "2529"
			}
		},
		"methodIdentifiers": {
			"auctionDuration()": "0cbf54c8",
			"auctionEndTime()": "4b449cba",
			"auctionEnded()": "86433374",
			"auctionStartTime()": "eb54f9ec",
			"buyer()": "7150d8ae",
			"cancelAuction()": "8fa8b790",
			"finalPrice()": "a6b513ee",
			"getCurrentPrice()": "eb91d37e",
			"getCurrentTime()": "29cb924d",
			"initialPrice()": "1d0806ae",
			"money()": "4ddd108a",
			"priceDecrement()": "26cddbfb",
			"purchaseItem()": "e0d0c4a6",
			"seller()": "08551a53"
		}
	},
	"abi": [
		{
			"inputs": [
				{
					"internalType": "uint256",
					"name": "_initialPrice",
					"type": "uint256"
				},
				{
					"internalType": "uint256",
					"name": "_finalPrice",
					"type": "uint256"
				},
				{
					"internalType": "uint256",
					"name": "_priceDecrement",
					"type": "uint256"
				},
				{
					"internalType": "uint256",
					"name": "_auctionDuration",
					"type": "uint256"
				}
			],
			"stateMutability": "payable",
			"type": "constructor"
		},
		{
			"anonymous": false,
			"inputs": [
				{
					"indexed": true,
					"internalType": "address",
					"name": "winner",
					"type": "address"
				},
				{
					"indexed": false,
					"internalType": "uint256",
					"name": "finalPrice",
					"type": "uint256"
				}
			],
			"name": "AuctionEnded",
			"type": "event"
		},
		{
			"anonymous": false,
			"inputs": [
				{
					"indexed": true,
					"internalType": "address",
					"name": "buyer",
					"type": "address"
				},
				{
					"indexed": false,
					"internalType": "uint256",
					"name": "price",
					"type": "uint256"
				}
			],
			"name": "ItemPurchased",
			"type": "event"
		},
		{
			"inputs": [],
			"name": "auctionDuration",
			"outputs": [
				{
					"internalType": "uint256",
					"name": "",
					"type": "uint256"
				}
			],
			"stateMutability": "view",
			"type": "function"
		},
		{
			"inputs": [],
			"name": "auctionEndTime",
			"outputs": [
				{
					"internalType": "uint256",
					"name": "",
					"type": "uint256"
				}
			],
			"stateMutability": "view",
			"type": "function"
		},
		{
			"inputs": [],
			"name": "auctionEnded",
			"outputs": [
				{
					"internalType": "bool",
					"name": "",
					"type": "bool"
				}
			],
			"stateMutability": "view",
			"type": "function"
		},
		{
			"inputs": [],
			"name": "auctionStartTime",
			"outputs": [
				{
					"internalType": "uint256",
					"name": "",
					"type": "uint256"
				}
			],
			"stateMutability": "view",
			"type": "function"
		},
		{
			"inputs": [],
			"name": "buyer",
			"outputs": [
				{
					"internalType": "address",
					"name": "",
					"type": "address"
				}
			],
			"stateMutability": "view",
			"type": "function"
		},
		{
			"inputs": [],
			"name": "cancelAuction",
			"outputs": [],
			"stateMutability": "nonpayable",
			"type": "function"
		},
		{
			"inputs": [],
			"name": "finalPrice",
			"outputs": [
				{
					"internalType": "uint256",
					"name": "",
					"type": "uint256"
				}
			],
			"stateMutability": "view",
			"type": "function"
		},
		{
			"inputs": [],
			"name": "getCurrentPrice",
			"outputs": [
				{
					"internalType": "uint256",
					"name": "",
					"type": "uint256"
				}
			],
			"stateMutability": "view",
			"type": "function"
		},
		{
			"inputs": [],
			"name": "getCurrentTime",
			"outputs": [
				{
					"internalType": "uint256",
					"name": "",
					"type": "uint256"
				}
			],
			"stateMutability": "view",
			"type": "function"
		},
		{
			"inputs": [],
			"name": "initialPrice",
			"outputs": [
				{
					"internalType": "uint256",
					"name": "",
					"type": "uint256"
				}
			],
			"stateMutability": "view",
			"type": "function"
		},
		{
			"inputs": [],
			"name": "money",
			"outputs": [
				{
					"internalType": "uint256",
					"name": "",
					"type": "uint256"
				}
			],
			"stateMutability": "view",
			"type": "function"
		},
		{
			"inputs": [],
			"name": "priceDecrement",
			"outputs": [
				{
					"internalType": "uint256",
					"name": "",
					"type": "uint256"
				}
			],
			"stateMutability": "view",
			"type": "function"
		},
		{
			"inputs": [],
			"name": "purchaseItem",
			"outputs": [],
			"stateMutability": "payable",
			"type": "function"
		},
		{
			"inputs": [],
			"name": "seller",
			"outputs": [
				{
					"internalType": "address",
					"name": "",
					"type": "address"
				}
			],
			"stateMutability": "view",
			"type": "function"
		},
		{
			"stateMutability": "payable",
			"type": "receive"
		}
	]
}