{
	"data": {
		"bytecode": {
			"linkReferences": {},
			"object": "6080604052348015600e575f80fd5b5061033e8061001c5f395ff3fe608060405234801561000f575f80fd5b506004361061003f575f3560e01c806360ba8967146100435780636b9241fc14610061578063d7b124541461007f575b5f80fd5b61004b6100af565b60405161005891906101de565b60405180910390f35b6100696100d3565b60405161007691906101de565b60405180910390f35b61009960048036038101906100949190610255565b6100fa565b6040516100a6919061029a565b60405180910390f35b7f80ac58cd0000000000000000000000000000000000000000000000000000000081565b5f7f80ac58cd00000000000000000000000000000000000000000000000000000000905090565b5f808290505f8173ffffffffffffffffffffffffffffffffffffffff166301ffc9a77f80ac58cd000000000000000000000000000000000000000000000000000000006040518263ffffffff1660e01b815260040161015991906101de565b602060405180830381865afa158015610174573d5f803e3d5ffd5b505050506040513d601f19601f8201168201806040525081019061019891906102dd565b90508092505050919050565b5f7fffffffff0000000000000000000000000000000000000000000000000000000082169050919050565b6101d8816101a4565b82525050565b5f6020820190506101f15f8301846101cf565b92915050565b5f80fd5b5f73ffffffffffffffffffffffffffffffffffffffff82169050919050565b5f610224826101fb565b9050919050565b6102348161021a565b811461023e575f80fd5b50565b5f8135905061024f8161022b565b92915050565b5f6020828403121561026a576102696101f7565b5b5f61027784828501610241565b91505092915050565b5f8115159050919050565b61029481610280565b82525050565b5f6020820190506102ad5f83018461028b565b92915050565b6102bc81610280565b81146102c6575f80fd5b50565b5f815190506102d7816102b3565b92915050565b5f602082840312156102f2576102f16101f7565b5b5f6102ff848285016102c9565b9150509291505056fea2646970667358221220fc45e14261c298549784abeb739412b383ef67eb286b348e71aa0411788742d064736f6c634300081a0033",
			"opcodes": "PUSH1 0x80 PUSH1 0x40 MSTORE CALLVALUE DUP1 ISZERO PUSH1 0xE JUMPI PUSH0 DUP1 REVERT JUMPDEST POP PUSH2 0x33E DUP1 PUSH2 0x1C PUSH0 CODECOPY PUSH0 RETURN INVALID PUSH1 0x80 PUSH1 0x40 MSTORE CALLVALUE DUP1 ISZERO PUSH2 0xF JUMPI PUSH0 DUP1 REVERT JUMPDEST POP PUSH1 0x4 CALLDATASIZE LT PUSH2 0x3F JUMPI PUSH0 CALLDATALOAD PUSH1 0xE0 SHR DUP1 PUSH4 0x60BA8967 EQ PUSH2 0x43 JUMPI DUP1 PUSH4 0x6B9241FC EQ PUSH2 0x61 JUMPI DUP1 PUSH4 0xD7B12454 EQ PUSH2 0x7F JUMPI JUMPDEST PUSH0 DUP1 REVERT JUMPDEST PUSH2 0x4B PUSH2 0xAF JUMP JUMPDEST PUSH1 0x40 MLOAD PUSH2 0x58 SWAP2 SWAP1 PUSH2 0x1DE JUMP JUMPDEST PUSH1 0x40 MLOAD DUP1 SWAP2 SUB SWAP1 RETURN JUMPDEST PUSH2 0x69 PUSH2 0xD3 JUMP JUMPDEST PUSH1 0x40 MLOAD PUSH2 0x76 SWAP2 SWAP1 PUSH2 0x1DE JUMP JUMPDEST PUSH1 0x40 MLOAD DUP1 SWAP2 SUB SWAP1 RETURN JUMPDEST PUSH2 0x99 PUSH1 0x4 DUP1 CALLDATASIZE SUB DUP2 ADD SWAP1 PUSH2 0x94 SWAP2 SWAP1 PUSH2 0x255 JUMP JUMPDEST PUSH2 0xFA JUMP JUMPDEST PUSH1 0x40 MLOAD PUSH2 0xA6 SWAP2 SWAP1 PUSH2 0x29A JUMP JUMPDEST PUSH1 0x40 MLOAD DUP1 SWAP2 SUB SWAP1 RETURN JUMPDEST PUSH32 0x80AC58CD00000000000000000000000000000000000000000000000000000000 DUP2 JUMP JUMPDEST PUSH0 PUSH32 0x80AC58CD00000000000000000000000000000000000000000000000000000000 SWAP1 POP SWAP1 JUMP JUMPDEST PUSH0 DUP1 DUP3 SWAP1 POP PUSH0 DUP2 PUSH20 0xFFFFFFFFFFFFFFFFFFFFFFFFFFFFFFFFFFFFFFFF AND PUSH4 0x1FFC9A7 PUSH32 0x80AC58CD00000000000000000000000000000000000000000000000000000000 PUSH1 0x40 MLOAD DUP3 PUSH4 0xFFFFFFFF AND PUSH1 0xE0 SHL DUP2 MSTORE PUSH1 0x4 ADD PUSH2 0x159 SWAP2 SWAP1 PUSH2 0x1DE JUMP JUMPDEST PUSH1 0x20 PUSH1 0x40 MLOAD DUP1 DUP4 SUB DUP2 DUP7 GAS STATICCALL ISZERO DUP1 ISZERO PUSH2 0x174 JUMPI RETURNDATASIZE PUSH0 DUP1 RETURNDATACOPY RETURNDATASIZE PUSH0 REVERT JUMPDEST POP POP POP POP PUSH1 0x40 MLOAD RETURNDATASIZE PUSH1 0x1F NOT PUSH1 0x1F DUP3 ADD AND DUP3 ADD DUP1 PUSH1 0x40 MSTORE POP DUP2 ADD SWAP1 PUSH2 0x198 SWAP2 SWAP1 PUSH2 0x2DD JUMP JUMPDEST SWAP1 POP DUP1 SWAP3 POP POP POP SWAP2 SWAP1 POP JUMP JUMPDEST PUSH0 PUSH32 0xFFFFFFFF00000000000000000000000000000000000000000000000000000000 DUP3 AND SWAP1 POP SWAP2 SWAP1 POP JUMP JUMPDEST PUSH2 0x1D8 DUP2 PUSH2 0x1A4 JUMP JUMPDEST DUP3 MSTORE POP POP JUMP JUMPDEST PUSH0 PUSH1 0x20 DUP3 ADD SWAP1 POP PUSH2 0x1F1 PUSH0 DUP4 ADD DUP5 PUSH2 0x1CF JUMP JUMPDEST SWAP3 SWAP2 POP POP JUMP JUMPDEST PUSH0 DUP1 REVERT JUMPDEST PUSH0 PUSH20 0xFFFFFFFFFFFFFFFFFFFFFFFFFFFFFFFFFFFFFFFF DUP3 AND SWAP1 POP SWAP2 SWAP1 POP JUMP JUMPDEST PUSH0 PUSH2 0x224 DUP3 PUSH2 0x1FB JUMP JUMPDEST SWAP1 POP SWAP2 SWAP1 POP JUMP JUMPDEST PUSH2 0x234 DUP2 PUSH2 0x21A JUMP JUMPDEST DUP2 EQ PUSH2 0x23E JUMPI PUSH0 DUP1 REVERT JUMPDEST POP JUMP JUMPDEST PUSH0 DUP2 CALLDATALOAD SWAP1 POP PUSH2 0x24F DUP2 PUSH2 0x22B JUMP JUMPDEST SWAP3 SWAP2 POP POP JUMP JUMPDEST PUSH0 PUSH1 0x20 DUP3 DUP5 SUB SLT ISZERO PUSH2 0x26A JUMPI PUSH2 0x269 PUSH2 0x1F7 JUMP JUMPDEST JUMPDEST PUSH0 PUSH2 0x277 DUP5 DUP3 DUP6 ADD PUSH2 0x241 JUMP JUMPDEST SWAP2 POP POP SWAP3 SWAP2 POP POP JUMP JUMPDEST PUSH0 DUP2 ISZERO ISZERO SWAP1 POP SWAP2 SWAP1 POP JUMP JUMPDEST PUSH2 0x294 DUP2 PUSH2 0x280 JUMP JUMPDEST DUP3 MSTORE POP POP JUMP JUMPDEST PUSH0 PUSH1 0x20 DUP3 ADD SWAP1 POP PUSH2 0x2AD PUSH0 DUP4 ADD DUP5 PUSH2 0x28B JUMP JUMPDEST SWAP3 SWAP2 POP POP JUMP JUMPDEST PUSH2 0x2BC DUP2 PUSH2 0x280 JUMP JUMPDEST DUP2 EQ PUSH2 0x2C6 JUMPI PUSH0 DUP1 REVERT JUMPDEST POP JUMP JUMPDEST PUSH0 DUP2 MLOAD SWAP1 POP PUSH2 0x2D7 DUP2 PUSH2 0x2B3 JUMP JUMPDEST SWAP3 SWAP2 POP POP JUMP JUMPDEST PUSH0 PUSH1 0x20 DUP3 DUP5 SUB SLT ISZERO PUSH2 0x2F2 JUMPI PUSH2 0x2F1 PUSH2 0x1F7 JUMP JUMPDEST JUMPDEST PUSH0 PUSH2 0x2FF DUP5 DUP3 DUP6 ADD PUSH2 0x2C9 JUMP JUMPDEST SWAP2 POP POP SWAP3 SWAP2 POP POP JUMP INVALID LOG2 PUSH5 0x6970667358 0x22 SLT KECCAK256 0xFC GASLIMIT 0xE1 TIMESTAMP PUSH2 0xC298 SLOAD SWAP8 DUP5 0xAB 0xEB PUSH20 0x9412B383EF67EB286B348E71AA0411788742D064 PUSH20 0x6F6C634300081A00330000000000000000000000 "
		},
		"gasEstimates": {
			"creation": {
				"codeDepositCost": "166000",
				"executionCost": "206",
				"totalCost": "166206"
			},
			"external": {
				"INTERFACE_ID_ERC20()": "309",
				"checkContract(address)": "infinite",
				"getInterfaceId()": "338"
			}
		},
		"methodIdentifiers": {
			"INTERFACE_ID_ERC20()": "60ba8967",
			"checkContract(address)": "d7b12454",
			"getInterfaceId()": "6b9241fc"
		}
	},
	"abi": [
		{
			"inputs": [],
			"name": "INTERFACE_ID_ERC20",
			"outputs": [
				{
					"internalType": "bytes4",
					"name": "",
					"type": "bytes4"
				}
			],
			"stateMutability": "view",
			"type": "function"
		},
		{
			"inputs": [
				{
					"internalType": "address",
					"name": "_Address",
					"type": "address"
				}
			],
			"name": "checkContract",
			"outputs": [
				{
					"internalType": "bool",
					"name": "",
					"type": "bool"
				}
			],
			"stateMutability": "view",
			"type": "function"
		},
		{
			"inputs": [],
			"name": "getInterfaceId",
			"outputs": [
				{
					"internalType": "bytes4",
					"name": "",
					"type": "bytes4"
				}
			],
			"stateMutability": "pure",
			"type": "function"
		}
	]
}