{
	"data": {
		"bytecode": {
			"linkReferences": {},
			"object": "6080604052348015600e575f80fd5b503360015f6101000a81548173ffffffffffffffffffffffffffffffffffffffff021916908373ffffffffffffffffffffffffffffffffffffffff1602179055506109228061005c5f395ff3fe608060405260043610610042575f3560e01c8063015677391461004d578063191655871461008c5780638da5cb5b146100b4578063b095e129146100de57610049565b3661004957005b5f80fd5b348015610058575f80fd5b50610073600480360381019061006e91906104cf565b610106565b6040516100839493929190610512565b60405180910390f35b348015610097575f80fd5b506100b260048036038101906100ad91906104cf565b610131565b005b3480156100bf575f80fd5b506100c86102b1565b6040516100d59190610564565b60405180910390f35b3480156100e9575f80fd5b5061010460048036038101906100ff91906105a7565b6102d6565b005b5f602052805f5260405f205f91509050805f0154908060010154908060020154908060030154905084565b5f805f8373ffffffffffffffffffffffffffffffffffffffff1673ffffffffffffffffffffffffffffffffffffffff1681526020019081526020015f2090505f815f0154116101b5576040517f08c379a00000000000000000000000000000000000000000000000000000000081526004016101ac90610665565b60405180910390fd5b5f8160020154426101c691906106b0565b9050816003015481106101db57816003015490505b5f8260010154836003015483855f01546101f591906106e3565b6101ff9190610751565b61020991906106b0565b90505f811161024d576040517f08c379a0000000000000000000000000000000000000000000000000000000008152600401610244906107cb565b60405180910390fd5b80836001015f82825461026091906107e9565b925050819055508373ffffffffffffffffffffffffffffffffffffffff166108fc8290811502906040515f60405180830381858888f193505050501580156102aa573d5f803e3d5ffd5b5050505050565b60015f9054906101000a900473ffffffffffffffffffffffffffffffffffffffff1681565b60015f9054906101000a900473ffffffffffffffffffffffffffffffffffffffff1673ffffffffffffffffffffffffffffffffffffffff163373ffffffffffffffffffffffffffffffffffffffff1614610365576040517f08c379a000000000000000000000000000000000000000000000000000000000815260040161035c90610866565b60405180910390fd5b5f805f8673ffffffffffffffffffffffffffffffffffffffff1673ffffffffffffffffffffffffffffffffffffffff1681526020019081526020015f205f0154146103e5576040517f08c379a00000000000000000000000000000000000000000000000000000000081526004016103dc906108ce565b60405180910390fd5b60405180608001604052808481526020015f8152602001838152602001828152505f808673ffffffffffffffffffffffffffffffffffffffff1673ffffffffffffffffffffffffffffffffffffffff1681526020019081526020015f205f820151815f015560208201518160010155604082015181600201556060820151816003015590505050505050565b5f80fd5b5f73ffffffffffffffffffffffffffffffffffffffff82169050919050565b5f61049e82610475565b9050919050565b6104ae81610494565b81146104b8575f80fd5b50565b5f813590506104c9816104a5565b92915050565b5f602082840312156104e4576104e3610471565b5b5f6104f1848285016104bb565b91505092915050565b5f819050919050565b61050c816104fa565b82525050565b5f6080820190506105255f830187610503565b6105326020830186610503565b61053f6040830185610503565b61054c6060830184610503565b95945050505050565b61055e81610494565b82525050565b5f6020820190506105775f830184610555565b92915050565b610586816104fa565b8114610590575f80fd5b50565b5f813590506105a18161057d565b92915050565b5f805f80608085870312156105bf576105be610471565b5b5f6105cc878288016104bb565b94505060206105dd87828801610593565b93505060406105ee87828801610593565b92505060606105ff87828801610593565b91505092959194509250565b5f82825260208201905092915050565b7f42656e6566696369617279206e6f7420666f756e6400000000000000000000005f82015250565b5f61064f60158361060b565b915061065a8261061b565b602082019050919050565b5f6020820190508181035f83015261067c81610643565b9050919050565b7f4e487b71000000000000000000000000000000000000000000000000000000005f52601160045260245ffd5b5f6106ba826104fa565b91506106c5836104fa565b92508282039050818111156106dd576106dc610683565b5b92915050565b5f6106ed826104fa565b91506106f8836104fa565b9250828202610706816104fa565b9150828204841483151761071d5761071c610683565b5b5092915050565b7f4e487b71000000000000000000000000000000000000000000000000000000005f52601260045260245ffd5b5f61075b826104fa565b9150610766836104fa565b92508261077657610775610724565b5b828204905092915050565b7f4e6f2066756e647320746f2072656c65617365000000000000000000000000005f82015250565b5f6107b560138361060b565b91506107c082610781565b602082019050919050565b5f6020820190508181035f8301526107e2816107a9565b9050919050565b5f6107f3826104fa565b91506107fe836104fa565b925082820190508082111561081657610815610683565b5b92915050565b7f4e6f7420617574686f72697a65640000000000000000000000000000000000005f82015250565b5f610850600e8361060b565b915061085b8261081c565b602082019050919050565b5f6020820190508181035f83015261087d81610844565b9050919050565b7f42656e656669636961727920616c7265616479206164646564000000000000005f82015250565b5f6108b860198361060b565b91506108c382610884565b602082019050919050565b5f6020820190508181035f8301526108e5816108ac565b905091905056fea2646970667358221220c4a0fce8e476d282e55806fbea96c2c905d927f9f859d963e260ac8953b9a98664736f6c634300081a0033",
			"opcodes": "PUSH1 0x80 PUSH1 0x40 MSTORE CALLVALUE DUP1 ISZERO PUSH1 0xE JUMPI PUSH0 DUP1 REVERT JUMPDEST POP CALLER PUSH1 0x1 PUSH0 PUSH2 0x100 EXP DUP2 SLOAD DUP2 PUSH20 0xFFFFFFFFFFFFFFFFFFFFFFFFFFFFFFFFFFFFFFFF MUL NOT AND SWAP1 DUP4 PUSH20 0xFFFFFFFFFFFFFFFFFFFFFFFFFFFFFFFFFFFFFFFF AND MUL OR SWAP1 SSTORE POP PUSH2 0x922 DUP1 PUSH2 0x5C PUSH0 CODECOPY PUSH0 RETURN INVALID PUSH1 0x80 PUSH1 0x40 MSTORE PUSH1 0x4 CALLDATASIZE LT PUSH2 0x42 JUMPI PUSH0 CALLDATALOAD PUSH1 0xE0 SHR DUP1 PUSH4 0x1567739 EQ PUSH2 0x4D JUMPI DUP1 PUSH4 0x19165587 EQ PUSH2 0x8C JUMPI DUP1 PUSH4 0x8DA5CB5B EQ PUSH2 0xB4 JUMPI DUP1 PUSH4 0xB095E129 EQ PUSH2 0xDE JUMPI PUSH2 0x49 JUMP JUMPDEST CALLDATASIZE PUSH2 0x49 JUMPI STOP JUMPDEST PUSH0 DUP1 REVERT JUMPDEST CALLVALUE DUP1 ISZERO PUSH2 0x58 JUMPI PUSH0 DUP1 REVERT JUMPDEST POP PUSH2 0x73 PUSH1 0x4 DUP1 CALLDATASIZE SUB DUP2 ADD SWAP1 PUSH2 0x6E SWAP2 SWAP1 PUSH2 0x4CF JUMP JUMPDEST PUSH2 0x106 JUMP JUMPDEST PUSH1 0x40 MLOAD PUSH2 0x83 SWAP5 SWAP4 SWAP3 SWAP2 SWAP1 PUSH2 0x512 JUMP JUMPDEST PUSH1 0x40 MLOAD DUP1 SWAP2 SUB SWAP1 RETURN JUMPDEST CALLVALUE DUP1 ISZERO PUSH2 0x97 JUMPI PUSH0 DUP1 REVERT JUMPDEST POP PUSH2 0xB2 PUSH1 0x4 DUP1 CALLDATASIZE SUB DUP2 ADD SWAP1 PUSH2 0xAD SWAP2 SWAP1 PUSH2 0x4CF JUMP JUMPDEST PUSH2 0x131 JUMP JUMPDEST STOP JUMPDEST CALLVALUE DUP1 ISZERO PUSH2 0xBF JUMPI PUSH0 DUP1 REVERT JUMPDEST POP PUSH2 0xC8 PUSH2 0x2B1 JUMP JUMPDEST PUSH1 0x40 MLOAD PUSH2 0xD5 SWAP2 SWAP1 PUSH2 0x564 JUMP JUMPDEST PUSH1 0x40 MLOAD DUP1 SWAP2 SUB SWAP1 RETURN JUMPDEST CALLVALUE DUP1 ISZERO PUSH2 0xE9 JUMPI PUSH0 DUP1 REVERT JUMPDEST POP PUSH2 0x104 PUSH1 0x4 DUP1 CALLDATASIZE SUB DUP2 ADD SWAP1 PUSH2 0xFF SWAP2 SWAP1 PUSH2 0x5A7 JUMP JUMPDEST PUSH2 0x2D6 JUMP JUMPDEST STOP JUMPDEST PUSH0 PUSH1 0x20 MSTORE DUP1 PUSH0 MSTORE PUSH1 0x40 PUSH0 KECCAK256 PUSH0 SWAP2 POP SWAP1 POP DUP1 PUSH0 ADD SLOAD SWAP1 DUP1 PUSH1 0x1 ADD SLOAD SWAP1 DUP1 PUSH1 0x2 ADD SLOAD SWAP1 DUP1 PUSH1 0x3 ADD SLOAD SWAP1 POP DUP5 JUMP JUMPDEST PUSH0 DUP1 PUSH0 DUP4 PUSH20 0xFFFFFFFFFFFFFFFFFFFFFFFFFFFFFFFFFFFFFFFF AND PUSH20 0xFFFFFFFFFFFFFFFFFFFFFFFFFFFFFFFFFFFFFFFF AND DUP2 MSTORE PUSH1 0x20 ADD SWAP1 DUP2 MSTORE PUSH1 0x20 ADD PUSH0 KECCAK256 SWAP1 POP PUSH0 DUP2 PUSH0 ADD SLOAD GT PUSH2 0x1B5 JUMPI PUSH1 0x40 MLOAD PUSH32 0x8C379A000000000000000000000000000000000000000000000000000000000 DUP2 MSTORE PUSH1 0x4 ADD PUSH2 0x1AC SWAP1 PUSH2 0x665 JUMP JUMPDEST PUSH1 0x40 MLOAD DUP1 SWAP2 SUB SWAP1 REVERT JUMPDEST PUSH0 DUP2 PUSH1 0x2 ADD SLOAD TIMESTAMP PUSH2 0x1C6 SWAP2 SWAP1 PUSH2 0x6B0 JUMP JUMPDEST SWAP1 POP DUP2 PUSH1 0x3 ADD SLOAD DUP2 LT PUSH2 0x1DB JUMPI DUP2 PUSH1 0x3 ADD SLOAD SWAP1 POP JUMPDEST PUSH0 DUP3 PUSH1 0x1 ADD SLOAD DUP4 PUSH1 0x3 ADD SLOAD DUP4 DUP6 PUSH0 ADD SLOAD PUSH2 0x1F5 SWAP2 SWAP1 PUSH2 0x6E3 JUMP JUMPDEST PUSH2 0x1FF SWAP2 SWAP1 PUSH2 0x751 JUMP JUMPDEST PUSH2 0x209 SWAP2 SWAP1 PUSH2 0x6B0 JUMP JUMPDEST SWAP1 POP PUSH0 DUP2 GT PUSH2 0x24D JUMPI PUSH1 0x40 MLOAD PUSH32 0x8C379A000000000000000000000000000000000000000000000000000000000 DUP2 MSTORE PUSH1 0x4 ADD PUSH2 0x244 SWAP1 PUSH2 0x7CB JUMP JUMPDEST PUSH1 0x40 MLOAD DUP1 SWAP2 SUB SWAP1 REVERT JUMPDEST DUP1 DUP4 PUSH1 0x1 ADD PUSH0 DUP3 DUP3 SLOAD PUSH2 0x260 SWAP2 SWAP1 PUSH2 0x7E9 JUMP JUMPDEST SWAP3 POP POP DUP2 SWAP1 SSTORE POP DUP4 PUSH20 0xFFFFFFFFFFFFFFFFFFFFFFFFFFFFFFFFFFFFFFFF AND PUSH2 0x8FC DUP3 SWAP1 DUP2 ISZERO MUL SWAP1 PUSH1 0x40 MLOAD PUSH0 PUSH1 0x40 MLOAD DUP1 DUP4 SUB DUP2 DUP6 DUP9 DUP9 CALL SWAP4 POP POP POP POP ISZERO DUP1 ISZERO PUSH2 0x2AA JUMPI RETURNDATASIZE PUSH0 DUP1 RETURNDATACOPY RETURNDATASIZE PUSH0 REVERT JUMPDEST POP POP POP POP POP JUMP JUMPDEST PUSH1 0x1 PUSH0 SWAP1 SLOAD SWAP1 PUSH2 0x100 EXP SWAP1 DIV PUSH20 0xFFFFFFFFFFFFFFFFFFFFFFFFFFFFFFFFFFFFFFFF AND DUP2 JUMP JUMPDEST PUSH1 0x1 PUSH0 SWAP1 SLOAD SWAP1 PUSH2 0x100 EXP SWAP1 DIV PUSH20 0xFFFFFFFFFFFFFFFFFFFFFFFFFFFFFFFFFFFFFFFF AND PUSH20 0xFFFFFFFFFFFFFFFFFFFFFFFFFFFFFFFFFFFFFFFF AND CALLER PUSH20 0xFFFFFFFFFFFFFFFFFFFFFFFFFFFFFFFFFFFFFFFF AND EQ PUSH2 0x365 JUMPI PUSH1 0x40 MLOAD PUSH32 0x8C379A000000000000000000000000000000000000000000000000000000000 DUP2 MSTORE PUSH1 0x4 ADD PUSH2 0x35C SWAP1 PUSH2 0x866 JUMP JUMPDEST PUSH1 0x40 MLOAD DUP1 SWAP2 SUB SWAP1 REVERT JUMPDEST PUSH0 DUP1 PUSH0 DUP7 PUSH20 0xFFFFFFFFFFFFFFFFFFFFFFFFFFFFFFFFFFFFFFFF AND PUSH20 0xFFFFFFFFFFFFFFFFFFFFFFFFFFFFFFFFFFFFFFFF AND DUP2 MSTORE PUSH1 0x20 ADD SWAP1 DUP2 MSTORE PUSH1 0x20 ADD PUSH0 KECCAK256 PUSH0 ADD SLOAD EQ PUSH2 0x3E5 JUMPI PUSH1 0x40 MLOAD PUSH32 0x8C379A000000000000000000000000000000000000000000000000000000000 DUP2 MSTORE PUSH1 0x4 ADD PUSH2 0x3DC SWAP1 PUSH2 0x8CE JUMP JUMPDEST PUSH1 0x40 MLOAD DUP1 SWAP2 SUB SWAP1 REVERT JUMPDEST PUSH1 0x40 MLOAD DUP1 PUSH1 0x80 ADD PUSH1 0x40 MSTORE DUP1 DUP5 DUP2 MSTORE PUSH1 0x20 ADD PUSH0 DUP2 MSTORE PUSH1 0x20 ADD DUP4 DUP2 MSTORE PUSH1 0x20 ADD DUP3 DUP2 MSTORE POP PUSH0 DUP1 DUP7 PUSH20 0xFFFFFFFFFFFFFFFFFFFFFFFFFFFFFFFFFFFFFFFF AND PUSH20 0xFFFFFFFFFFFFFFFFFFFFFFFFFFFFFFFFFFFFFFFF AND DUP2 MSTORE PUSH1 0x20 ADD SWAP1 DUP2 MSTORE PUSH1 0x20 ADD PUSH0 KECCAK256 PUSH0 DUP3 ADD MLOAD DUP2 PUSH0 ADD SSTORE PUSH1 0x20 DUP3 ADD MLOAD DUP2 PUSH1 0x1 ADD SSTORE PUSH1 0x40 DUP3 ADD MLOAD DUP2 PUSH1 0x2 ADD SSTORE PUSH1 0x60 DUP3 ADD MLOAD DUP2 PUSH1 0x3 ADD SSTORE SWAP1 POP POP POP POP POP POP JUMP JUMPDEST PUSH0 DUP1 REVERT JUMPDEST PUSH0 PUSH20 0xFFFFFFFFFFFFFFFFFFFFFFFFFFFFFFFFFFFFFFFF DUP3 AND SWAP1 POP SWAP2 SWAP1 POP JUMP JUMPDEST PUSH0 PUSH2 0x49E DUP3 PUSH2 0x475 JUMP JUMPDEST SWAP1 POP SWAP2 SWAP1 POP JUMP JUMPDEST PUSH2 0x4AE DUP2 PUSH2 0x494 JUMP JUMPDEST DUP2 EQ PUSH2 0x4B8 JUMPI PUSH0 DUP1 REVERT JUMPDEST POP JUMP JUMPDEST PUSH0 DUP2 CALLDATALOAD SWAP1 POP PUSH2 0x4C9 DUP2 PUSH2 0x4A5 JUMP JUMPDEST SWAP3 SWAP2 POP POP JUMP JUMPDEST PUSH0 PUSH1 0x20 DUP3 DUP5 SUB SLT ISZERO PUSH2 0x4E4 JUMPI PUSH2 0x4E3 PUSH2 0x471 JUMP JUMPDEST JUMPDEST PUSH0 PUSH2 0x4F1 DUP5 DUP3 DUP6 ADD PUSH2 0x4BB JUMP JUMPDEST SWAP2 POP POP SWAP3 SWAP2 POP POP JUMP JUMPDEST PUSH0 DUP2 SWAP1 POP SWAP2 SWAP1 POP JUMP JUMPDEST PUSH2 0x50C DUP2 PUSH2 0x4FA JUMP JUMPDEST DUP3 MSTORE POP POP JUMP JUMPDEST PUSH0 PUSH1 0x80 DUP3 ADD SWAP1 POP PUSH2 0x525 PUSH0 DUP4 ADD DUP8 PUSH2 0x503 JUMP JUMPDEST PUSH2 0x532 PUSH1 0x20 DUP4 ADD DUP7 PUSH2 0x503 JUMP JUMPDEST PUSH2 0x53F PUSH1 0x40 DUP4 ADD DUP6 PUSH2 0x503 JUMP JUMPDEST PUSH2 0x54C PUSH1 0x60 DUP4 ADD DUP5 PUSH2 0x503 JUMP JUMPDEST SWAP6 SWAP5 POP POP POP POP POP JUMP JUMPDEST PUSH2 0x55E DUP2 PUSH2 0x494 JUMP JUMPDEST DUP3 MSTORE POP POP JUMP JUMPDEST PUSH0 PUSH1 0x20 DUP3 ADD SWAP1 POP PUSH2 0x577 PUSH0 DUP4 ADD DUP5 PUSH2 0x555 JUMP JUMPDEST SWAP3 SWAP2 POP POP JUMP JUMPDEST PUSH2 0x586 DUP2 PUSH2 0x4FA JUMP JUMPDEST DUP2 EQ PUSH2 0x590 JUMPI PUSH0 DUP1 REVERT JUMPDEST POP JUMP JUMPDEST PUSH0 DUP2 CALLDATALOAD SWAP1 POP PUSH2 0x5A1 DUP2 PUSH2 0x57D JUMP JUMPDEST SWAP3 SWAP2 POP POP JUMP JUMPDEST PUSH0 DUP1 PUSH0 DUP1 PUSH1 0x80 DUP6 DUP8 SUB SLT ISZERO PUSH2 0x5BF JUMPI PUSH2 0x5BE PUSH2 0x471 JUMP JUMPDEST JUMPDEST PUSH0 PUSH2 0x5CC DUP8 DUP3 DUP9 ADD PUSH2 0x4BB JUMP JUMPDEST SWAP5 POP POP PUSH1 0x20 PUSH2 0x5DD DUP8 DUP3 DUP9 ADD PUSH2 0x593 JUMP JUMPDEST SWAP4 POP POP PUSH1 0x40 PUSH2 0x5EE DUP8 DUP3 DUP9 ADD PUSH2 0x593 JUMP JUMPDEST SWAP3 POP POP PUSH1 0x60 PUSH2 0x5FF DUP8 DUP3 DUP9 ADD PUSH2 0x593 JUMP JUMPDEST SWAP2 POP POP SWAP3 SWAP6 SWAP2 SWAP5 POP SWAP3 POP JUMP JUMPDEST PUSH0 DUP3 DUP3 MSTORE PUSH1 0x20 DUP3 ADD SWAP1 POP SWAP3 SWAP2 POP POP JUMP JUMPDEST PUSH32 0x42656E6566696369617279206E6F7420666F756E640000000000000000000000 PUSH0 DUP3 ADD MSTORE POP JUMP JUMPDEST PUSH0 PUSH2 0x64F PUSH1 0x15 DUP4 PUSH2 0x60B JUMP JUMPDEST SWAP2 POP PUSH2 0x65A DUP3 PUSH2 0x61B JUMP JUMPDEST PUSH1 0x20 DUP3 ADD SWAP1 POP SWAP2 SWAP1 POP JUMP JUMPDEST PUSH0 PUSH1 0x20 DUP3 ADD SWAP1 POP DUP2 DUP2 SUB PUSH0 DUP4 ADD MSTORE PUSH2 0x67C DUP2 PUSH2 0x643 JUMP JUMPDEST SWAP1 POP SWAP2 SWAP1 POP JUMP JUMPDEST PUSH32 0x4E487B7100000000000000000000000000000000000000000000000000000000 PUSH0 MSTORE PUSH1 0x11 PUSH1 0x4 MSTORE PUSH1 0x24 PUSH0 REVERT JUMPDEST PUSH0 PUSH2 0x6BA DUP3 PUSH2 0x4FA JUMP JUMPDEST SWAP2 POP PUSH2 0x6C5 DUP4 PUSH2 0x4FA JUMP JUMPDEST SWAP3 POP DUP3 DUP3 SUB SWAP1 POP DUP2 DUP2 GT ISZERO PUSH2 0x6DD JUMPI PUSH2 0x6DC PUSH2 0x683 JUMP JUMPDEST JUMPDEST SWAP3 SWAP2 POP POP JUMP JUMPDEST PUSH0 PUSH2 0x6ED DUP3 PUSH2 0x4FA JUMP JUMPDEST SWAP2 POP PUSH2 0x6F8 DUP4 PUSH2 0x4FA JUMP JUMPDEST SWAP3 POP DUP3 DUP3 MUL PUSH2 0x706 DUP2 PUSH2 0x4FA JUMP JUMPDEST SWAP2 POP DUP3 DUP3 DIV DUP5 EQ DUP4 ISZERO OR PUSH2 0x71D JUMPI PUSH2 0x71C PUSH2 0x683 JUMP JUMPDEST JUMPDEST POP SWAP3 SWAP2 POP POP JUMP JUMPDEST PUSH32 0x4E487B7100000000000000000000000000000000000000000000000000000000 PUSH0 MSTORE PUSH1 0x12 PUSH1 0x4 MSTORE PUSH1 0x24 PUSH0 REVERT JUMPDEST PUSH0 PUSH2 0x75B DUP3 PUSH2 0x4FA JUMP JUMPDEST SWAP2 POP PUSH2 0x766 DUP4 PUSH2 0x4FA JUMP JUMPDEST SWAP3 POP DUP3 PUSH2 0x776 JUMPI PUSH2 0x775 PUSH2 0x724 JUMP JUMPDEST JUMPDEST DUP3 DUP3 DIV SWAP1 POP SWAP3 SWAP2 POP POP JUMP JUMPDEST PUSH32 0x4E6F2066756E647320746F2072656C6561736500000000000000000000000000 PUSH0 DUP3 ADD MSTORE POP JUMP JUMPDEST PUSH0 PUSH2 0x7B5 PUSH1 0x13 DUP4 PUSH2 0x60B JUMP JUMPDEST SWAP2 POP PUSH2 0x7C0 DUP3 PUSH2 0x781 JUMP JUMPDEST PUSH1 0x20 DUP3 ADD SWAP1 POP SWAP2 SWAP1 POP JUMP JUMPDEST PUSH0 PUSH1 0x20 DUP3 ADD SWAP1 POP DUP2 DUP2 SUB PUSH0 DUP4 ADD MSTORE PUSH2 0x7E2 DUP2 PUSH2 0x7A9 JUMP JUMPDEST SWAP1 POP SWAP2 SWAP1 POP JUMP JUMPDEST PUSH0 PUSH2 0x7F3 DUP3 PUSH2 0x4FA JUMP JUMPDEST SWAP2 POP PUSH2 0x7FE DUP4 PUSH2 0x4FA JUMP JUMPDEST SWAP3 POP DUP3 DUP3 ADD SWAP1 POP DUP1 DUP3 GT ISZERO PUSH2 0x816 JUMPI PUSH2 0x815 PUSH2 0x683 JUMP JUMPDEST JUMPDEST SWAP3 SWAP2 POP POP JUMP JUMPDEST PUSH32 0x4E6F7420617574686F72697A6564000000000000000000000000000000000000 PUSH0 DUP3 ADD MSTORE POP JUMP JUMPDEST PUSH0 PUSH2 0x850 PUSH1 0xE DUP4 PUSH2 0x60B JUMP JUMPDEST SWAP2 POP PUSH2 0x85B DUP3 PUSH2 0x81C JUMP JUMPDEST PUSH1 0x20 DUP3 ADD SWAP1 POP SWAP2 SWAP1 POP JUMP JUMPDEST PUSH0 PUSH1 0x20 DUP3 ADD SWAP1 POP DUP2 DUP2 SUB PUSH0 DUP4 ADD MSTORE PUSH2 0x87D DUP2 PUSH2 0x844 JUMP JUMPDEST SWAP1 POP SWAP2 SWAP1 POP JUMP JUMPDEST PUSH32 0x42656E656669636961727920616C726561647920616464656400000000000000 PUSH0 DUP3 ADD MSTORE POP JUMP JUMPDEST PUSH0 PUSH2 0x8B8 PUSH1 0x19 DUP4 PUSH2 0x60B JUMP JUMPDEST SWAP2 POP PUSH2 0x8C3 DUP3 PUSH2 0x884 JUMP JUMPDEST PUSH1 0x20 DUP3 ADD SWAP1 POP SWAP2 SWAP1 POP JUMP JUMPDEST PUSH0 PUSH1 0x20 DUP3 ADD SWAP1 POP DUP2 DUP2 SUB PUSH0 DUP4 ADD MSTORE PUSH2 0x8E5 DUP2 PUSH2 0x8AC JUMP JUMPDEST SWAP1 POP SWAP2 SWAP1 POP JUMP INVALID LOG2 PUSH5 0x6970667358 0x22 SLT KECCAK256 0xC4 LOG0 0xFC 0xE8 0xE4 PUSH23 0xD282E55806FBEA96C2C905D927F9F859D963E260AC8953 0xB9 0xA9 DUP7 PUSH5 0x736F6C6343 STOP ADDMOD BYTE STOP CALLER "
		},
		"gasEstimates": {
			"creation": {
				"codeDepositCost": "467600",
				"executionCost": "24768",
				"totalCost": "492368"
			},
			"external": {
				"addBeneficiary(address,uint256,uint256,uint256)": "infinite",
				"beneficiaries(address)": "infinite",
				"owner()": "2530",
				"release(address)": "infinite"
			}
		},
		"methodIdentifiers": {
			"addBeneficiary(address,uint256,uint256,uint256)": "b095e129",
			"beneficiaries(address)": "01567739",
			"owner()": "8da5cb5b",
			"release(address)": "19165587"
		}
	},
	"abi": [
		{
			"inputs": [],
			"stateMutability": "nonpayable",
			"type": "constructor"
		},
		{
			"inputs": [
				{
					"internalType": "address",
					"name": "beneficiary",
					"type": "address"
				},
				{
					"internalType": "uint256",
					"name": "totalAmount",
					"type": "uint256"
				},
				{
					"internalType": "uint256",
					"name": "startTime",
					"type": "uint256"
				},
				{
					"internalType": "uint256",
					"name": "duration",
					"type": "uint256"
				}
			],
			"name": "addBeneficiary",
			"outputs": [],
			"stateMutability": "nonpayable",
			"type": "function"
		},
		{
			"inputs": [
				{
					"internalType": "address",
					"name": "",
					"type": "address"
				}
			],
			"name": "beneficiaries",
			"outputs": [
				{
					"internalType": "uint256",
					"name": "totalAmount",
					"type": "uint256"
				},
				{
					"internalType": "uint256",
					"name": "releasedAmount",
					"type": "uint256"
				},
				{
					"internalType": "uint256",
					"name": "startTime",
					"type": "uint256"
				},
				{
					"internalType": "uint256",
					"name": "duration",
					"type": "uint256"
				}
			],
			"stateMutability": "view",
			"type": "function"
		},
		{
			"inputs": [],
			"name": "owner",
			"outputs": [
				{
					"internalType": "address",
					"name": "",
					"type": "address"
				}
			],
			"stateMutability": "view",
			"type": "function"
		},
		{
			"inputs": [
				{
					"internalType": "address",
					"name": "beneficiary",
					"type": "address"
				}
			],
			"name": "release",
			"outputs": [],
			"stateMutability": "nonpayable",
			"type": "function"
		},
		{
			"stateMutability": "payable",
			"type": "receive"
		}
	]
}