{
	"contracts/ERC1155/MyERC1155Token.sol": {
		"ERC1155": {
			"abi": [
				{
					"inputs": [
						{
							"internalType": "string",
							"name": "name_",
							"type": "string"
						},
						{
							"internalType": "string",
							"name": "symbol_",
							"type": "string"
						}
					],
					"stateMutability": "nonpayable",
					"type": "constructor"
				},
				{
					"anonymous": false,
					"inputs": [
						{
							"indexed": true,
							"internalType": "address",
							"name": "account",
							"type": "address"
						},
						{
							"indexed": true,
							"internalType": "address",
							"name": "operator",
							"type": "address"
						},
						{
							"indexed": false,
							"internalType": "bool",
							"name": "approved",
							"type": "bool"
						}
					],
					"name": "ApprovalForAll",
					"type": "event"
				},
				{
					"anonymous": false,
					"inputs": [
						{
							"indexed": true,
							"internalType": "address",
							"name": "operator",
							"type": "address"
						},
						{
							"indexed": true,
							"internalType": "address",
							"name": "from",
							"type": "address"
						},
						{
							"indexed": true,
							"internalType": "address",
							"name": "to",
							"type": "address"
						},
						{
							"indexed": false,
							"internalType": "uint256[]",
							"name": "ids",
							"type": "uint256[]"
						},
						{
							"indexed": false,
							"internalType": "uint256[]",
							"name": "values",
							"type": "uint256[]"
						}
					],
					"name": "TransferBatch",
					"type": "event"
				},
				{
					"anonymous": false,
					"inputs": [
						{
							"indexed": true,
							"internalType": "address",
							"name": "operator",
							"type": "address"
						},
						{
							"indexed": true,
							"internalType": "address",
							"name": "from",
							"type": "address"
						},
						{
							"indexed": true,
							"internalType": "address",
							"name": "to",
							"type": "address"
						},
						{
							"indexed": false,
							"internalType": "uint256",
							"name": "id",
							"type": "uint256"
						},
						{
							"indexed": false,
							"internalType": "uint256",
							"name": "value",
							"type": "uint256"
						}
					],
					"name": "TransferSingle",
					"type": "event"
				},
				{
					"anonymous": false,
					"inputs": [
						{
							"indexed": false,
							"internalType": "string",
							"name": "value",
							"type": "string"
						},
						{
							"indexed": true,
							"internalType": "uint256",
							"name": "id",
							"type": "uint256"
						}
					],
					"name": "URI",
					"type": "event"
				},
				{
					"inputs": [
						{
							"internalType": "address",
							"name": "account",
							"type": "address"
						},
						{
							"internalType": "uint256",
							"name": "id",
							"type": "uint256"
						}
					],
					"name": "balanceOf",
					"outputs": [
						{
							"internalType": "uint256",
							"name": "",
							"type": "uint256"
						}
					],
					"stateMutability": "view",
					"type": "function"
				},
				{
					"inputs": [
						{
							"internalType": "address[]",
							"name": "accounts",
							"type": "address[]"
						},
						{
							"internalType": "uint256[]",
							"name": "ids",
							"type": "uint256[]"
						}
					],
					"name": "balanceOfBatch",
					"outputs": [
						{
							"internalType": "uint256[]",
							"name": "",
							"type": "uint256[]"
						}
					],
					"stateMutability": "view",
					"type": "function"
				},
				{
					"inputs": [
						{
							"internalType": "address",
							"name": "account",
							"type": "address"
						},
						{
							"internalType": "address",
							"name": "operator",
							"type": "address"
						}
					],
					"name": "isApprovedForAll",
					"outputs": [
						{
							"internalType": "bool",
							"name": "",
							"type": "bool"
						}
					],
					"stateMutability": "view",
					"type": "function"
				},
				{
					"inputs": [
						{
							"internalType": "address",
							"name": "account",
							"type": "address"
						}
					],
					"name": "isContract",
					"outputs": [
						{
							"internalType": "bool",
							"name": "",
							"type": "bool"
						}
					],
					"stateMutability": "view",
					"type": "function"
				},
				{
					"inputs": [],
					"name": "name",
					"outputs": [
						{
							"internalType": "string",
							"name": "",
							"type": "string"
						}
					],
					"stateMutability": "view",
					"type": "function"
				},
				{
					"inputs": [
						{
							"internalType": "address",
							"name": "from",
							"type": "address"
						},
						{
							"internalType": "address",
							"name": "to",
							"type": "address"
						},
						{
							"internalType": "uint256[]",
							"name": "ids",
							"type": "uint256[]"
						},
						{
							"internalType": "uint256[]",
							"name": "amounts",
							"type": "uint256[]"
						},
						{
							"internalType": "bytes",
							"name": "data",
							"type": "bytes"
						}
					],
					"name": "safeBatchTransferFrom",
					"outputs": [],
					"stateMutability": "nonpayable",
					"type": "function"
				},
				{
					"inputs": [
						{
							"internalType": "address",
							"name": "from",
							"type": "address"
						},
						{
							"internalType": "address",
							"name": "to",
							"type": "address"
						},
						{
							"internalType": "uint256",
							"name": "id",
							"type": "uint256"
						},
						{
							"internalType": "uint256",
							"name": "amount",
							"type": "uint256"
						},
						{
							"internalType": "bytes",
							"name": "data",
							"type": "bytes"
						}
					],
					"name": "safeTransferFrom",
					"outputs": [],
					"stateMutability": "nonpayable",
					"type": "function"
				},
				{
					"inputs": [
						{
							"internalType": "address",
							"name": "operator",
							"type": "address"
						},
						{
							"internalType": "bool",
							"name": "approved",
							"type": "bool"
						}
					],
					"name": "setApprovalForAll",
					"outputs": [],
					"stateMutability": "nonpayable",
					"type": "function"
				},
				{
					"inputs": [
						{
							"internalType": "bytes4",
							"name": "interfaceId",
							"type": "bytes4"
						}
					],
					"name": "supportsInterface",
					"outputs": [
						{
							"internalType": "bool",
							"name": "",
							"type": "bool"
						}
					],
					"stateMutability": "view",
					"type": "function"
				},
				{
					"inputs": [],
					"name": "symbol",
					"outputs": [
						{
							"internalType": "string",
							"name": "",
							"type": "string"
						}
					],
					"stateMutability": "view",
					"type": "function"
				},
				{
					"inputs": [
						{
							"internalType": "uint256",
							"name": "id",
							"type": "uint256"
						}
					],
					"name": "uri",
					"outputs": [
						{
							"internalType": "string",
							"name": "",
							"type": "string"
						}
					],
					"stateMutability": "view",
					"type": "function"
				}
			],
			"devdoc": {
				"details": "ERC1155多代币标准 见 https://eips.ethereum.org/EIPS/eip-1155",
				"events": {
					"ApprovalForAll(address,address,bool)": {
						"details": "批量授权事件 当`account`将所有代币授权给`operator`时释放"
					},
					"TransferBatch(address,address,address,uint256[],uint256[])": {
						"details": "批量代币转账事件 ids和values为转账的代币种类和数量数组"
					},
					"TransferSingle(address,address,address,uint256,uint256)": {
						"details": "单类代币转账事件 当`value`个`id`种类的代币被`operator`从`from`转账到`to`时释放."
					},
					"URI(string,uint256)": {
						"details": "当`id`种类的代币的URI发生变化时释放，`value`为新的URI"
					}
				},
				"kind": "dev",
				"methods": {
					"balanceOf(address,uint256)": {
						"details": "持仓查询 实现IERC1155的balanceOf，返回account地址的id种类代币持仓量。"
					},
					"balanceOfBatch(address[],uint256[])": {
						"details": "批量持仓查询 要求: - `accounts` 和 `ids` 数组长度相等."
					},
					"isApprovedForAll(address,address)": {
						"details": "查询批量授权."
					},
					"safeBatchTransferFrom(address,address,uint256[],uint256[],bytes)": {
						"details": "批量安全转账，将`amounts`数组单位的`ids`数组种类代币从`from`转账到`to` 释放 {TransferSingle} 事件. 要求: - to 不能是0地址. - from拥有足够的持仓量，且调用者拥有授权 - 如果 to 是智能合约, 他必须支持 IERC1155Receiver-onERC1155BatchReceived. - ids和amounts数组长度相等"
					},
					"safeTransferFrom(address,address,uint256,uint256,bytes)": {
						"details": "安全转账，将`amount`单位的`id`种类代币从`from`转账到`to` 释放 {TransferSingle} 事件. 要求: - to 不能是0地址. - from拥有足够的持仓量，且调用者拥有授权 - 如果 to 是智能合约, 他必须支持 IERC1155Receiver-onERC1155Received."
					},
					"setApprovalForAll(address,bool)": {
						"details": "批量授权，调用者授权operator使用其所有代币 释放{ApprovalForAll}事件 条件：msg.sender != operator"
					},
					"supportsInterface(bytes4)": {
						"details": "See {IERC165-supportsInterface}."
					},
					"uri(uint256)": {
						"details": "返回ERC1155的id种类代币的uri，存储metadata，类似ERC721的tokenURI."
					}
				},
				"version": 1
			},
			"evm": {
				"assembly": "    /* \"contracts/ERC1155/MyERC1155Token.sol\":459:12410  contract ERC1155 is IERC165, IERC1155, IERC1155MetadataURI {... */\n  mstore(0x40, 0x80)\n    /* \"contracts/ERC1155/MyERC1155Token.sol\":1104:1215  constructor(string memory name_, string memory symbol_) {... */\n  callvalue\n  dup1\n  iszero\n  tag_1\n  jumpi\n  0x00\n  dup1\n  revert\ntag_1:\n  pop\n  mload(0x40)\n  sub(codesize, bytecodeSize)\n  dup1\n  bytecodeSize\n  dup4\n  codecopy\n  dup2\n  dup2\n  add\n  0x40\n  mstore\n  dup2\n  add\n  swap1\n  tag_2\n  swap2\n  swap1\n  tag_3\n  jump\t// in\ntag_2:\n    /* \"contracts/ERC1155/MyERC1155Token.sol\":1177:1182  name_ */\n  dup2\n    /* \"contracts/ERC1155/MyERC1155Token.sol\":1170:1174  name */\n  0x00\n    /* \"contracts/ERC1155/MyERC1155Token.sol\":1170:1182  name = name_ */\n  swap1\n  dup2\n  tag_6\n  swap2\n  swap1\n  tag_7\n  jump\t// in\ntag_6:\n  pop\n    /* \"contracts/ERC1155/MyERC1155Token.sol\":1201:1208  symbol_ */\n  dup1\n    /* \"contracts/ERC1155/MyERC1155Token.sol\":1192:1198  symbol */\n  0x01\n    /* \"contracts/ERC1155/MyERC1155Token.sol\":1192:1208  symbol = symbol_ */\n  swap1\n  dup2\n  tag_8\n  swap2\n  swap1\n  tag_7\n  jump\t// in\ntag_8:\n  pop\n    /* \"contracts/ERC1155/MyERC1155Token.sol\":1104:1215  constructor(string memory name_, string memory symbol_) {... */\n  pop\n  pop\n    /* \"contracts/ERC1155/MyERC1155Token.sol\":459:12410  contract ERC1155 is IERC165, IERC1155, IERC1155MetadataURI {... */\n  jump(tag_9)\n    /* \"#utility.yul\":7:82   */\ntag_10:\n    /* \"#utility.yul\":40:46   */\n  0x00\n    /* \"#utility.yul\":73:75   */\n  0x40\n    /* \"#utility.yul\":67:76   */\n  mload\n    /* \"#utility.yul\":57:76   */\n  swap1\n  pop\n    /* \"#utility.yul\":7:82   */\n  swap1\n  jump\t// out\n    /* \"#utility.yul\":88:205   */\ntag_11:\n    /* \"#utility.yul\":197:198   */\n  0x00\n    /* \"#utility.yul\":194:195   */\n  dup1\n    /* \"#utility.yul\":187:199   */\n  revert\n    /* \"#utility.yul\":211:328   */\ntag_12:\n    /* \"#utility.yul\":320:321   */\n  0x00\n    /* \"#utility.yul\":317:318   */\n  dup1\n    /* \"#utility.yul\":310:322   */\n  revert\n    /* \"#utility.yul\":334:451   */\ntag_13:\n    /* \"#utility.yul\":443:444   */\n  0x00\n    /* \"#utility.yul\":440:441   */\n  dup1\n    /* \"#utility.yul\":433:445   */\n  revert\n    /* \"#utility.yul\":457:574   */\ntag_14:\n    /* \"#utility.yul\":566:567   */\n  0x00\n    /* \"#utility.yul\":563:564   */\n  dup1\n    /* \"#utility.yul\":556:568   */\n  revert\n    /* \"#utility.yul\":580:682   */\ntag_15:\n    /* \"#utility.yul\":621:627   */\n  0x00\n    /* \"#utility.yul\":672:674   */\n  0x1f\n    /* \"#utility.yul\":668:675   */\n  not\n    /* \"#utility.yul\":663:665   */\n  0x1f\n    /* \"#utility.yul\":656:661   */\n  dup4\n    /* \"#utility.yul\":652:666   */\n  add\n    /* \"#utility.yul\":648:676   */\n  and\n    /* \"#utility.yul\":638:676   */\n  swap1\n  pop\n    /* \"#utility.yul\":580:682   */\n  swap2\n  swap1\n  pop\n  jump\t// out\n    /* \"#utility.yul\":688:868   */\ntag_16:\n    /* \"#utility.yul\":736:813   */\n  0x4e487b7100000000000000000000000000000000000000000000000000000000\n    /* \"#utility.yul\":733:734   */\n  0x00\n    /* \"#utility.yul\":726:814   */\n  mstore\n    /* \"#utility.yul\":833:837   */\n  0x41\n    /* \"#utility.yul\":830:831   */\n  0x04\n    /* \"#utility.yul\":823:838   */\n  mstore\n    /* \"#utility.yul\":857:861   */\n  0x24\n    /* \"#utility.yul\":854:855   */\n  0x00\n    /* \"#utility.yul\":847:862   */\n  revert\n    /* \"#utility.yul\":874:1155   */\ntag_17:\n    /* \"#utility.yul\":957:984   */\n  tag_51\n    /* \"#utility.yul\":979:983   */\n  dup3\n    /* \"#utility.yul\":957:984   */\n  tag_15\n  jump\t// in\ntag_51:\n    /* \"#utility.yul\":949:955   */\n  dup2\n    /* \"#utility.yul\":945:985   */\n  add\n    /* \"#utility.yul\":1087:1093   */\n  dup2\n    /* \"#utility.yul\":1075:1085   */\n  dup2\n    /* \"#utility.yul\":1072:1094   */\n  lt\n    /* \"#utility.yul\":1051:1069   */\n  0xffffffffffffffff\n    /* \"#utility.yul\":1039:1049   */\n  dup3\n    /* \"#utility.yul\":1036:1070   */\n  gt\n    /* \"#utility.yul\":1033:1095   */\n  or\n    /* \"#utility.yul\":1030:1118   */\n  iszero\n  tag_52\n  jumpi\n    /* \"#utility.yul\":1098:1116   */\n  tag_53\n  tag_16\n  jump\t// in\ntag_53:\n    /* \"#utility.yul\":1030:1118   */\ntag_52:\n    /* \"#utility.yul\":1138:1148   */\n  dup1\n    /* \"#utility.yul\":1134:1136   */\n  0x40\n    /* \"#utility.yul\":1127:1149   */\n  mstore\n    /* \"#utility.yul\":917:1155   */\n  pop\n    /* \"#utility.yul\":874:1155   */\n  pop\n  pop\n  jump\t// out\n    /* \"#utility.yul\":1161:1290   */\ntag_18:\n    /* \"#utility.yul\":1195:1201   */\n  0x00\n    /* \"#utility.yul\":1222:1242   */\n  tag_55\n  tag_10\n  jump\t// in\ntag_55:\n    /* \"#utility.yul\":1212:1242   */\n  swap1\n  pop\n    /* \"#utility.yul\":1251:1284   */\n  tag_56\n    /* \"#utility.yul\":1279:1283   */\n  dup3\n    /* \"#utility.yul\":1271:1277   */\n  dup3\n    /* \"#utility.yul\":1251:1284   */\n  tag_17\n  jump\t// in\ntag_56:\n    /* \"#utility.yul\":1161:1290   */\n  swap2\n  swap1\n  pop\n  jump\t// out\n    /* \"#utility.yul\":1296:1604   */\ntag_19:\n    /* \"#utility.yul\":1358:1362   */\n  0x00\n    /* \"#utility.yul\":1448:1466   */\n  0xffffffffffffffff\n    /* \"#utility.yul\":1440:1446   */\n  dup3\n    /* \"#utility.yul\":1437:1467   */\n  gt\n    /* \"#utility.yul\":1434:1490   */\n  iszero\n  tag_58\n  jumpi\n    /* \"#utility.yul\":1470:1488   */\n  tag_59\n  tag_16\n  jump\t// in\ntag_59:\n    /* \"#utility.yul\":1434:1490   */\ntag_58:\n    /* \"#utility.yul\":1508:1537   */\n  tag_60\n    /* \"#utility.yul\":1530:1536   */\n  dup3\n    /* \"#utility.yul\":1508:1537   */\n  tag_15\n  jump\t// in\ntag_60:\n    /* \"#utility.yul\":1500:1537   */\n  swap1\n  pop\n    /* \"#utility.yul\":1592:1596   */\n  0x20\n    /* \"#utility.yul\":1586:1590   */\n  dup2\n    /* \"#utility.yul\":1582:1597   */\n  add\n    /* \"#utility.yul\":1574:1597   */\n  swap1\n  pop\n    /* \"#utility.yul\":1296:1604   */\n  swap2\n  swap1\n  pop\n  jump\t// out\n    /* \"#utility.yul\":1610:1749   */\ntag_20:\n    /* \"#utility.yul\":1699:1705   */\n  dup3\n    /* \"#utility.yul\":1694:1697   */\n  dup2\n    /* \"#utility.yul\":1689:1692   */\n  dup4\n    /* \"#utility.yul\":1683:1706   */\n  mcopy\n    /* \"#utility.yul\":1740:1741   */\n  0x00\n    /* \"#utility.yul\":1731:1737   */\n  dup4\n    /* \"#utility.yul\":1726:1729   */\n  dup4\n    /* \"#utility.yul\":1722:1738   */\n  add\n    /* \"#utility.yul\":1715:1742   */\n  mstore\n    /* \"#utility.yul\":1610:1749   */\n  pop\n  pop\n  pop\n  jump\t// out\n    /* \"#utility.yul\":1755:2189   */\ntag_21:\n    /* \"#utility.yul\":1844:1849   */\n  0x00\n    /* \"#utility.yul\":1869:1935   */\n  tag_63\n    /* \"#utility.yul\":1885:1934   */\n  tag_64\n    /* \"#utility.yul\":1927:1933   */\n  dup5\n    /* \"#utility.yul\":1885:1934   */\n  tag_19\n  jump\t// in\ntag_64:\n    /* \"#utility.yul\":1869:1935   */\n  tag_18\n  jump\t// in\ntag_63:\n    /* \"#utility.yul\":1860:1935   */\n  swap1\n  pop\n    /* \"#utility.yul\":1958:1964   */\n  dup3\n    /* \"#utility.yul\":1951:1956   */\n  dup2\n    /* \"#utility.yul\":1944:1965   */\n  mstore\n    /* \"#utility.yul\":1996:2000   */\n  0x20\n    /* \"#utility.yul\":1989:1994   */\n  dup2\n    /* \"#utility.yul\":1985:2001   */\n  add\n    /* \"#utility.yul\":2034:2037   */\n  dup5\n    /* \"#utility.yul\":2025:2031   */\n  dup5\n    /* \"#utility.yul\":2020:2023   */\n  dup5\n    /* \"#utility.yul\":2016:2032   */\n  add\n    /* \"#utility.yul\":2013:2038   */\n  gt\n    /* \"#utility.yul\":2010:2122   */\n  iszero\n  tag_65\n  jumpi\n    /* \"#utility.yul\":2041:2120   */\n  tag_66\n  tag_14\n  jump\t// in\ntag_66:\n    /* \"#utility.yul\":2010:2122   */\ntag_65:\n    /* \"#utility.yul\":2131:2183   */\n  tag_67\n    /* \"#utility.yul\":2176:2182   */\n  dup5\n    /* \"#utility.yul\":2171:2174   */\n  dup3\n    /* \"#utility.yul\":2166:2169   */\n  dup6\n    /* \"#utility.yul\":2131:2183   */\n  tag_20\n  jump\t// in\ntag_67:\n    /* \"#utility.yul\":1850:2189   */\n  pop\n    /* \"#utility.yul\":1755:2189   */\n  swap4\n  swap3\n  pop\n  pop\n  pop\n  jump\t// out\n    /* \"#utility.yul\":2209:2564   */\ntag_22:\n    /* \"#utility.yul\":2276:2281   */\n  0x00\n    /* \"#utility.yul\":2325:2328   */\n  dup3\n    /* \"#utility.yul\":2318:2322   */\n  0x1f\n    /* \"#utility.yul\":2310:2316   */\n  dup4\n    /* \"#utility.yul\":2306:2323   */\n  add\n    /* \"#utility.yul\":2302:2329   */\n  slt\n    /* \"#utility.yul\":2292:2414   */\n  tag_69\n  jumpi\n    /* \"#utility.yul\":2333:2412   */\n  tag_70\n  tag_13\n  jump\t// in\ntag_70:\n    /* \"#utility.yul\":2292:2414   */\ntag_69:\n    /* \"#utility.yul\":2443:2449   */\n  dup2\n    /* \"#utility.yul\":2437:2450   */\n  mload\n    /* \"#utility.yul\":2468:2558   */\n  tag_71\n    /* \"#utility.yul\":2554:2557   */\n  dup5\n    /* \"#utility.yul\":2546:2552   */\n  dup3\n    /* \"#utility.yul\":2539:2543   */\n  0x20\n    /* \"#utility.yul\":2531:2537   */\n  dup7\n    /* \"#utility.yul\":2527:2544   */\n  add\n    /* \"#utility.yul\":2468:2558   */\n  tag_21\n  jump\t// in\ntag_71:\n    /* \"#utility.yul\":2459:2558   */\n  swap2\n  pop\n    /* \"#utility.yul\":2282:2564   */\n  pop\n    /* \"#utility.yul\":2209:2564   */\n  swap3\n  swap2\n  pop\n  pop\n  jump\t// out\n    /* \"#utility.yul\":2570:3423   */\ntag_3:\n    /* \"#utility.yul\":2669:2675   */\n  0x00\n    /* \"#utility.yul\":2677:2683   */\n  dup1\n    /* \"#utility.yul\":2726:2728   */\n  0x40\n    /* \"#utility.yul\":2714:2723   */\n  dup4\n    /* \"#utility.yul\":2705:2712   */\n  dup6\n    /* \"#utility.yul\":2701:2724   */\n  sub\n    /* \"#utility.yul\":2697:2729   */\n  slt\n    /* \"#utility.yul\":2694:2813   */\n  iszero\n  tag_73\n  jumpi\n    /* \"#utility.yul\":2732:2811   */\n  tag_74\n  tag_11\n  jump\t// in\ntag_74:\n    /* \"#utility.yul\":2694:2813   */\ntag_73:\n    /* \"#utility.yul\":2873:2874   */\n  0x00\n    /* \"#utility.yul\":2862:2871   */\n  dup4\n    /* \"#utility.yul\":2858:2875   */\n  add\n    /* \"#utility.yul\":2852:2876   */\n  mload\n    /* \"#utility.yul\":2903:2921   */\n  0xffffffffffffffff\n    /* \"#utility.yul\":2895:2901   */\n  dup2\n    /* \"#utility.yul\":2892:2922   */\n  gt\n    /* \"#utility.yul\":2889:3006   */\n  iszero\n  tag_75\n  jumpi\n    /* \"#utility.yul\":2925:3004   */\n  tag_76\n  tag_12\n  jump\t// in\ntag_76:\n    /* \"#utility.yul\":2889:3006   */\ntag_75:\n    /* \"#utility.yul\":3030:3104   */\n  tag_77\n    /* \"#utility.yul\":3096:3103   */\n  dup6\n    /* \"#utility.yul\":3087:3093   */\n  dup3\n    /* \"#utility.yul\":3076:3085   */\n  dup7\n    /* \"#utility.yul\":3072:3094   */\n  add\n    /* \"#utility.yul\":3030:3104   */\n  tag_22\n  jump\t// in\ntag_77:\n    /* \"#utility.yul\":3020:3104   */\n  swap3\n  pop\n    /* \"#utility.yul\":2823:3114   */\n  pop\n    /* \"#utility.yul\":3174:3176   */\n  0x20\n    /* \"#utility.yul\":3163:3172   */\n  dup4\n    /* \"#utility.yul\":3159:3177   */\n  add\n    /* \"#utility.yul\":3153:3178   */\n  mload\n    /* \"#utility.yul\":3205:3223   */\n  0xffffffffffffffff\n    /* \"#utility.yul\":3197:3203   */\n  dup2\n    /* \"#utility.yul\":3194:3224   */\n  gt\n    /* \"#utility.yul\":3191:3308   */\n  iszero\n  tag_78\n  jumpi\n    /* \"#utility.yul\":3227:3306   */\n  tag_79\n  tag_12\n  jump\t// in\ntag_79:\n    /* \"#utility.yul\":3191:3308   */\ntag_78:\n    /* \"#utility.yul\":3332:3406   */\n  tag_80\n    /* \"#utility.yul\":3398:3405   */\n  dup6\n    /* \"#utility.yul\":3389:3395   */\n  dup3\n    /* \"#utility.yul\":3378:3387   */\n  dup7\n    /* \"#utility.yul\":3374:3396   */\n  add\n    /* \"#utility.yul\":3332:3406   */\n  tag_22\n  jump\t// in\ntag_80:\n    /* \"#utility.yul\":3322:3406   */\n  swap2\n  pop\n    /* \"#utility.yul\":3124:3416   */\n  pop\n    /* \"#utility.yul\":2570:3423   */\n  swap3\n  pop\n  swap3\n  swap1\n  pop\n  jump\t// out\n    /* \"#utility.yul\":3429:3528   */\ntag_23:\n    /* \"#utility.yul\":3481:3487   */\n  0x00\n    /* \"#utility.yul\":3515:3520   */\n  dup2\n    /* \"#utility.yul\":3509:3521   */\n  mload\n    /* \"#utility.yul\":3499:3521   */\n  swap1\n  pop\n    /* \"#utility.yul\":3429:3528   */\n  swap2\n  swap1\n  pop\n  jump\t// out\n    /* \"#utility.yul\":3534:3714   */\ntag_24:\n    /* \"#utility.yul\":3582:3659   */\n  0x4e487b7100000000000000000000000000000000000000000000000000000000\n    /* \"#utility.yul\":3579:3580   */\n  0x00\n    /* \"#utility.yul\":3572:3660   */\n  mstore\n    /* \"#utility.yul\":3679:3683   */\n  0x22\n    /* \"#utility.yul\":3676:3677   */\n  0x04\n    /* \"#utility.yul\":3669:3684   */\n  mstore\n    /* \"#utility.yul\":3703:3707   */\n  0x24\n    /* \"#utility.yul\":3700:3701   */\n  0x00\n    /* \"#utility.yul\":3693:3708   */\n  revert\n    /* \"#utility.yul\":3720:4040   */\ntag_25:\n    /* \"#utility.yul\":3764:3770   */\n  0x00\n    /* \"#utility.yul\":3801:3802   */\n  0x02\n    /* \"#utility.yul\":3795:3799   */\n  dup3\n    /* \"#utility.yul\":3791:3803   */\n  div\n    /* \"#utility.yul\":3781:3803   */\n  swap1\n  pop\n    /* \"#utility.yul\":3848:3849   */\n  0x01\n    /* \"#utility.yul\":3842:3846   */\n  dup3\n    /* \"#utility.yul\":3838:3850   */\n  and\n    /* \"#utility.yul\":3869:3887   */\n  dup1\n    /* \"#utility.yul\":3859:3940   */\n  tag_84\n  jumpi\n    /* \"#utility.yul\":3925:3929   */\n  0x7f\n    /* \"#utility.yul\":3917:3923   */\n  dup3\n    /* \"#utility.yul\":3913:3930   */\n  and\n    /* \"#utility.yul\":3903:3930   */\n  swap2\n  pop\n    /* \"#utility.yul\":3859:3940   */\ntag_84:\n    /* \"#utility.yul\":3987:3989   */\n  0x20\n    /* \"#utility.yul\":3979:3985   */\n  dup3\n    /* \"#utility.yul\":3976:3990   */\n  lt\n    /* \"#utility.yul\":3956:3974   */\n  dup2\n    /* \"#utility.yul\":3953:3991   */\n  sub\n    /* \"#utility.yul\":3950:4034   */\n  tag_85\n  jumpi\n    /* \"#utility.yul\":4006:4024   */\n  tag_86\n  tag_24\n  jump\t// in\ntag_86:\n    /* \"#utility.yul\":3950:4034   */\ntag_85:\n    /* \"#utility.yul\":3771:4040   */\n  pop\n    /* \"#utility.yul\":3720:4040   */\n  swap2\n  swap1\n  pop\n  jump\t// out\n    /* \"#utility.yul\":4046:4187   */\ntag_26:\n    /* \"#utility.yul\":4095:4099   */\n  0x00\n    /* \"#utility.yul\":4118:4121   */\n  dup2\n    /* \"#utility.yul\":4110:4121   */\n  swap1\n  pop\n    /* \"#utility.yul\":4141:4144   */\n  dup2\n    /* \"#utility.yul\":4138:4139   */\n  0x00\n    /* \"#utility.yul\":4131:4145   */\n  mstore\n    /* \"#utility.yul\":4175:4179   */\n  0x20\n    /* \"#utility.yul\":4172:4173   */\n  0x00\n    /* \"#utility.yul\":4162:4180   */\n  keccak256\n    /* \"#utility.yul\":4154:4180   */\n  swap1\n  pop\n    /* \"#utility.yul\":4046:4187   */\n  swap2\n  swap1\n  pop\n  jump\t// out\n    /* \"#utility.yul\":4193:4286   */\ntag_27:\n    /* \"#utility.yul\":4230:4236   */\n  0x00\n    /* \"#utility.yul\":4277:4279   */\n  0x20\n    /* \"#utility.yul\":4272:4274   */\n  0x1f\n    /* \"#utility.yul\":4265:4270   */\n  dup4\n    /* \"#utility.yul\":4261:4275   */\n  add\n    /* \"#utility.yul\":4257:4280   */\n  div\n    /* \"#utility.yul\":4247:4280   */\n  swap1\n  pop\n    /* \"#utility.yul\":4193:4286   */\n  swap2\n  swap1\n  pop\n  jump\t// out\n    /* \"#utility.yul\":4292:4399   */\ntag_28:\n    /* \"#utility.yul\":4336:4344   */\n  0x00\n    /* \"#utility.yul\":4386:4391   */\n  dup3\n    /* \"#utility.yul\":4380:4384   */\n  dup3\n    /* \"#utility.yul\":4376:4392   */\n  shl\n    /* \"#utility.yul\":4355:4392   */\n  swap1\n  pop\n    /* \"#utility.yul\":4292:4399   */\n  swap3\n  swap2\n  pop\n  pop\n  jump\t// out\n    /* \"#utility.yul\":4405:4798   */\ntag_29:\n    /* \"#utility.yul\":4474:4480   */\n  0x00\n    /* \"#utility.yul\":4524:4525   */\n  0x08\n    /* \"#utility.yul\":4512:4522   */\n  dup4\n    /* \"#utility.yul\":4508:4526   */\n  mul\n    /* \"#utility.yul\":4547:4644   */\n  tag_91\n    /* \"#utility.yul\":4577:4643   */\n  0xffffffffffffffffffffffffffffffffffffffffffffffffffffffffffffffff\n    /* \"#utility.yul\":4566:4575   */\n  dup3\n    /* \"#utility.yul\":4547:4644   */\n  tag_28\n  jump\t// in\ntag_91:\n    /* \"#utility.yul\":4665:4704   */\n  tag_92\n    /* \"#utility.yul\":4695:4703   */\n  dup7\n    /* \"#utility.yul\":4684:4693   */\n  dup4\n    /* \"#utility.yul\":4665:4704   */\n  tag_28\n  jump\t// in\ntag_92:\n    /* \"#utility.yul\":4653:4704   */\n  swap6\n  pop\n    /* \"#utility.yul\":4737:4741   */\n  dup1\n    /* \"#utility.yul\":4733:4742   */\n  not\n    /* \"#utility.yul\":4726:4731   */\n  dup5\n    /* \"#utility.yul\":4722:4743   */\n  and\n    /* \"#utility.yul\":4713:4743   */\n  swap4\n  pop\n    /* \"#utility.yul\":4786:4790   */\n  dup1\n    /* \"#utility.yul\":4776:4784   */\n  dup7\n    /* \"#utility.yul\":4772:4791   */\n  and\n    /* \"#utility.yul\":4765:4770   */\n  dup5\n    /* \"#utility.yul\":4762:4792   */\n  or\n    /* \"#utility.yul\":4752:4792   */\n  swap3\n  pop\n    /* \"#utility.yul\":4481:4798   */\n  pop\n  pop\n    /* \"#utility.yul\":4405:4798   */\n  swap4\n  swap3\n  pop\n  pop\n  pop\n  jump\t// out\n    /* \"#utility.yul\":4804:4881   */\ntag_30:\n    /* \"#utility.yul\":4841:4848   */\n  0x00\n    /* \"#utility.yul\":4870:4875   */\n  dup2\n    /* \"#utility.yul\":4859:4875   */\n  swap1\n  pop\n    /* \"#utility.yul\":4804:4881   */\n  swap2\n  swap1\n  pop\n  jump\t// out\n    /* \"#utility.yul\":4887:4947   */\ntag_31:\n    /* \"#utility.yul\":4915:4918   */\n  0x00\n    /* \"#utility.yul\":4936:4941   */\n  dup2\n    /* \"#utility.yul\":4929:4941   */\n  swap1\n  pop\n    /* \"#utility.yul\":4887:4947   */\n  swap2\n  swap1\n  pop\n  jump\t// out\n    /* \"#utility.yul\":4953:5095   */\ntag_32:\n    /* \"#utility.yul\":5003:5012   */\n  0x00\n    /* \"#utility.yul\":5036:5089   */\n  tag_96\n    /* \"#utility.yul\":5054:5088   */\n  tag_97\n    /* \"#utility.yul\":5063:5087   */\n  tag_98\n    /* \"#utility.yul\":5081:5086   */\n  dup5\n    /* \"#utility.yul\":5063:5087   */\n  tag_30\n  jump\t// in\ntag_98:\n    /* \"#utility.yul\":5054:5088   */\n  tag_31\n  jump\t// in\ntag_97:\n    /* \"#utility.yul\":5036:5089   */\n  tag_30\n  jump\t// in\ntag_96:\n    /* \"#utility.yul\":5023:5089   */\n  swap1\n  pop\n    /* \"#utility.yul\":4953:5095   */\n  swap2\n  swap1\n  pop\n  jump\t// out\n    /* \"#utility.yul\":5101:5176   */\ntag_33:\n    /* \"#utility.yul\":5144:5147   */\n  0x00\n    /* \"#utility.yul\":5165:5170   */\n  dup2\n    /* \"#utility.yul\":5158:5170   */\n  swap1\n  pop\n    /* \"#utility.yul\":5101:5176   */\n  swap2\n  swap1\n  pop\n  jump\t// out\n    /* \"#utility.yul\":5182:5451   */\ntag_34:\n    /* \"#utility.yul\":5292:5331   */\n  tag_101\n    /* \"#utility.yul\":5323:5330   */\n  dup4\n    /* \"#utility.yul\":5292:5331   */\n  tag_32\n  jump\t// in\ntag_101:\n    /* \"#utility.yul\":5353:5444   */\n  tag_102\n    /* \"#utility.yul\":5402:5443   */\n  tag_103\n    /* \"#utility.yul\":5426:5442   */\n  dup3\n    /* \"#utility.yul\":5402:5443   */\n  tag_33\n  jump\t// in\ntag_103:\n    /* \"#utility.yul\":5394:5400   */\n  dup5\n    /* \"#utility.yul\":5387:5391   */\n  dup5\n    /* \"#utility.yul\":5381:5392   */\n  sload\n    /* \"#utility.yul\":5353:5444   */\n  tag_29\n  jump\t// in\ntag_102:\n    /* \"#utility.yul\":5347:5351   */\n  dup3\n    /* \"#utility.yul\":5340:5445   */\n  sstore\n    /* \"#utility.yul\":5258:5451   */\n  pop\n    /* \"#utility.yul\":5182:5451   */\n  pop\n  pop\n  pop\n  jump\t// out\n    /* \"#utility.yul\":5457:5530   */\ntag_35:\n    /* \"#utility.yul\":5502:5505   */\n  0x00\n    /* \"#utility.yul\":5457:5530   */\n  swap1\n  jump\t// out\n    /* \"#utility.yul\":5536:5725   */\ntag_36:\n    /* \"#utility.yul\":5613:5645   */\n  tag_106\n  tag_35\n  jump\t// in\ntag_106:\n    /* \"#utility.yul\":5654:5719   */\n  tag_107\n    /* \"#utility.yul\":5712:5718   */\n  dup2\n    /* \"#utility.yul\":5704:5710   */\n  dup5\n    /* \"#utility.yul\":5698:5702   */\n  dup5\n    /* \"#utility.yul\":5654:5719   */\n  tag_34\n  jump\t// in\ntag_107:\n    /* \"#utility.yul\":5589:5725   */\n  pop\n    /* \"#utility.yul\":5536:5725   */\n  pop\n  pop\n  jump\t// out\n    /* \"#utility.yul\":5731:5917   */\ntag_37:\n    /* \"#utility.yul\":5791:5911   */\ntag_109:\n    /* \"#utility.yul\":5808:5811   */\n  dup2\n    /* \"#utility.yul\":5801:5806   */\n  dup2\n    /* \"#utility.yul\":5798:5812   */\n  lt\n    /* \"#utility.yul\":5791:5911   */\n  iszero\n  tag_111\n  jumpi\n    /* \"#utility.yul\":5862:5901   */\n  tag_112\n    /* \"#utility.yul\":5899:5900   */\n  0x00\n    /* \"#utility.yul\":5892:5897   */\n  dup3\n    /* \"#utility.yul\":5862:5901   */\n  tag_36\n  jump\t// in\ntag_112:\n    /* \"#utility.yul\":5835:5836   */\n  0x01\n    /* \"#utility.yul\":5828:5833   */\n  dup2\n    /* \"#utility.yul\":5824:5837   */\n  add\n    /* \"#utility.yul\":5815:5837   */\n  swap1\n  pop\n    /* \"#utility.yul\":5791:5911   */\n  jump(tag_109)\ntag_111:\n    /* \"#utility.yul\":5731:5917   */\n  pop\n  pop\n  jump\t// out\n    /* \"#utility.yul\":5923:6466   */\ntag_38:\n    /* \"#utility.yul\":6024:6026   */\n  0x1f\n    /* \"#utility.yul\":6019:6022   */\n  dup3\n    /* \"#utility.yul\":6016:6027   */\n  gt\n    /* \"#utility.yul\":6013:6459   */\n  iszero\n  tag_114\n  jumpi\n    /* \"#utility.yul\":6058:6096   */\n  tag_115\n    /* \"#utility.yul\":6090:6095   */\n  dup2\n    /* \"#utility.yul\":6058:6096   */\n  tag_26\n  jump\t// in\ntag_115:\n    /* \"#utility.yul\":6142:6171   */\n  tag_116\n    /* \"#utility.yul\":6160:6170   */\n  dup5\n    /* \"#utility.yul\":6142:6171   */\n  tag_27\n  jump\t// in\ntag_116:\n    /* \"#utility.yul\":6132:6140   */\n  dup2\n    /* \"#utility.yul\":6128:6172   */\n  add\n    /* \"#utility.yul\":6325:6327   */\n  0x20\n    /* \"#utility.yul\":6313:6323   */\n  dup6\n    /* \"#utility.yul\":6310:6328   */\n  lt\n    /* \"#utility.yul\":6307:6356   */\n  iszero\n  tag_117\n  jumpi\n    /* \"#utility.yul\":6346:6354   */\n  dup2\n    /* \"#utility.yul\":6331:6354   */\n  swap1\n  pop\n    /* \"#utility.yul\":6307:6356   */\ntag_117:\n    /* \"#utility.yul\":6369:6449   */\n  tag_118\n    /* \"#utility.yul\":6425:6447   */\n  tag_119\n    /* \"#utility.yul\":6443:6446   */\n  dup6\n    /* \"#utility.yul\":6425:6447   */\n  tag_27\n  jump\t// in\ntag_119:\n    /* \"#utility.yul\":6415:6423   */\n  dup4\n    /* \"#utility.yul\":6411:6448   */\n  add\n    /* \"#utility.yul\":6398:6409   */\n  dup3\n    /* \"#utility.yul\":6369:6449   */\n  tag_37\n  jump\t// in\ntag_118:\n    /* \"#utility.yul\":6028:6459   */\n  pop\n  pop\n    /* \"#utility.yul\":6013:6459   */\ntag_114:\n    /* \"#utility.yul\":5923:6466   */\n  pop\n  pop\n  pop\n  jump\t// out\n    /* \"#utility.yul\":6472:6589   */\ntag_39:\n    /* \"#utility.yul\":6526:6534   */\n  0x00\n    /* \"#utility.yul\":6576:6581   */\n  dup3\n    /* \"#utility.yul\":6570:6574   */\n  dup3\n    /* \"#utility.yul\":6566:6582   */\n  shr\n    /* \"#utility.yul\":6545:6582   */\n  swap1\n  pop\n    /* \"#utility.yul\":6472:6589   */\n  swap3\n  swap2\n  pop\n  pop\n  jump\t// out\n    /* \"#utility.yul\":6595:6764   */\ntag_40:\n    /* \"#utility.yul\":6639:6645   */\n  0x00\n    /* \"#utility.yul\":6672:6723   */\n  tag_122\n    /* \"#utility.yul\":6720:6721   */\n  0x00\n    /* \"#utility.yul\":6716:6722   */\n  not\n    /* \"#utility.yul\":6708:6713   */\n  dup5\n    /* \"#utility.yul\":6705:6706   */\n  0x08\n    /* \"#utility.yul\":6701:6714   */\n  mul\n    /* \"#utility.yul\":6672:6723   */\n  tag_39\n  jump\t// in\ntag_122:\n    /* \"#utility.yul\":6668:6724   */\n  not\n    /* \"#utility.yul\":6753:6757   */\n  dup1\n    /* \"#utility.yul\":6747:6751   */\n  dup4\n    /* \"#utility.yul\":6743:6758   */\n  and\n    /* \"#utility.yul\":6733:6758   */\n  swap2\n  pop\n    /* \"#utility.yul\":6646:6764   */\n  pop\n    /* \"#utility.yul\":6595:6764   */\n  swap3\n  swap2\n  pop\n  pop\n  jump\t// out\n    /* \"#utility.yul\":6769:7064   */\ntag_41:\n    /* \"#utility.yul\":6845:6849   */\n  0x00\n    /* \"#utility.yul\":6991:7020   */\n  tag_124\n    /* \"#utility.yul\":7016:7019   */\n  dup4\n    /* \"#utility.yul\":7010:7014   */\n  dup4\n    /* \"#utility.yul\":6991:7020   */\n  tag_40\n  jump\t// in\ntag_124:\n    /* \"#utility.yul\":6983:7020   */\n  swap2\n  pop\n    /* \"#utility.yul\":7053:7056   */\n  dup3\n    /* \"#utility.yul\":7050:7051   */\n  0x02\n    /* \"#utility.yul\":7046:7057   */\n  mul\n    /* \"#utility.yul\":7040:7044   */\n  dup3\n    /* \"#utility.yul\":7037:7058   */\n  or\n    /* \"#utility.yul\":7029:7058   */\n  swap1\n  pop\n    /* \"#utility.yul\":6769:7064   */\n  swap3\n  swap2\n  pop\n  pop\n  jump\t// out\n    /* \"#utility.yul\":7069:8464   */\ntag_7:\n    /* \"#utility.yul\":7186:7223   */\n  tag_126\n    /* \"#utility.yul\":7219:7222   */\n  dup3\n    /* \"#utility.yul\":7186:7223   */\n  tag_23\n  jump\t// in\ntag_126:\n    /* \"#utility.yul\":7288:7306   */\n  0xffffffffffffffff\n    /* \"#utility.yul\":7280:7286   */\n  dup2\n    /* \"#utility.yul\":7277:7307   */\n  gt\n    /* \"#utility.yul\":7274:7330   */\n  iszero\n  tag_127\n  jumpi\n    /* \"#utility.yul\":7310:7328   */\n  tag_128\n  tag_16\n  jump\t// in\ntag_128:\n    /* \"#utility.yul\":7274:7330   */\ntag_127:\n    /* \"#utility.yul\":7354:7392   */\n  tag_129\n    /* \"#utility.yul\":7386:7390   */\n  dup3\n    /* \"#utility.yul\":7380:7391   */\n  sload\n    /* \"#utility.yul\":7354:7392   */\n  tag_25\n  jump\t// in\ntag_129:\n    /* \"#utility.yul\":7439:7506   */\n  tag_130\n    /* \"#utility.yul\":7499:7505   */\n  dup3\n    /* \"#utility.yul\":7491:7497   */\n  dup3\n    /* \"#utility.yul\":7485:7489   */\n  dup6\n    /* \"#utility.yul\":7439:7506   */\n  tag_38\n  jump\t// in\ntag_130:\n    /* \"#utility.yul\":7533:7534   */\n  0x00\n    /* \"#utility.yul\":7557:7561   */\n  0x20\n    /* \"#utility.yul\":7544:7561   */\n  swap1\n  pop\n    /* \"#utility.yul\":7589:7591   */\n  0x1f\n    /* \"#utility.yul\":7581:7587   */\n  dup4\n    /* \"#utility.yul\":7578:7592   */\n  gt\n    /* \"#utility.yul\":7606:7607   */\n  0x01\n    /* \"#utility.yul\":7601:8219   */\n  dup2\n  eq\n  tag_132\n  jumpi\n    /* \"#utility.yul\":8263:8264   */\n  0x00\n    /* \"#utility.yul\":8280:8286   */\n  dup5\n    /* \"#utility.yul\":8277:8354   */\n  iszero\n  tag_133\n  jumpi\n    /* \"#utility.yul\":8329:8338   */\n  dup3\n    /* \"#utility.yul\":8324:8327   */\n  dup8\n    /* \"#utility.yul\":8320:8339   */\n  add\n    /* \"#utility.yul\":8314:8340   */\n  mload\n    /* \"#utility.yul\":8305:8340   */\n  swap1\n  pop\n    /* \"#utility.yul\":8277:8354   */\ntag_133:\n    /* \"#utility.yul\":8380:8447   */\n  tag_134\n    /* \"#utility.yul\":8440:8446   */\n  dup6\n    /* \"#utility.yul\":8433:8438   */\n  dup3\n    /* \"#utility.yul\":8380:8447   */\n  tag_41\n  jump\t// in\ntag_134:\n    /* \"#utility.yul\":8374:8378   */\n  dup7\n    /* \"#utility.yul\":8367:8448   */\n  sstore\n    /* \"#utility.yul\":8236:8458   */\n  pop\n    /* \"#utility.yul\":7571:8458   */\n  jump(tag_131)\n    /* \"#utility.yul\":7601:8219   */\ntag_132:\n    /* \"#utility.yul\":7653:7657   */\n  0x1f\n    /* \"#utility.yul\":7649:7658   */\n  not\n    /* \"#utility.yul\":7641:7647   */\n  dup5\n    /* \"#utility.yul\":7637:7659   */\n  and\n    /* \"#utility.yul\":7687:7724   */\n  tag_135\n    /* \"#utility.yul\":7719:7723   */\n  dup7\n    /* \"#utility.yul\":7687:7724   */\n  tag_26\n  jump\t// in\ntag_135:\n    /* \"#utility.yul\":7746:7747   */\n  0x00\n    /* \"#utility.yul\":7760:7968   */\ntag_136:\n    /* \"#utility.yul\":7774:7781   */\n  dup3\n    /* \"#utility.yul\":7771:7772   */\n  dup2\n    /* \"#utility.yul\":7768:7782   */\n  lt\n    /* \"#utility.yul\":7760:7968   */\n  iszero\n  tag_138\n  jumpi\n    /* \"#utility.yul\":7853:7862   */\n  dup5\n    /* \"#utility.yul\":7848:7851   */\n  dup10\n    /* \"#utility.yul\":7844:7863   */\n  add\n    /* \"#utility.yul\":7838:7864   */\n  mload\n    /* \"#utility.yul\":7830:7836   */\n  dup3\n    /* \"#utility.yul\":7823:7865   */\n  sstore\n    /* \"#utility.yul\":7904:7905   */\n  0x01\n    /* \"#utility.yul\":7896:7902   */\n  dup3\n    /* \"#utility.yul\":7892:7906   */\n  add\n    /* \"#utility.yul\":7882:7906   */\n  swap2\n  pop\n    /* \"#utility.yul\":7951:7953   */\n  0x20\n    /* \"#utility.yul\":7940:7949   */\n  dup6\n    /* \"#utility.yul\":7936:7954   */\n  add\n    /* \"#utility.yul\":7923:7954   */\n  swap5\n  pop\n    /* \"#utility.yul\":7797:7801   */\n  0x20\n    /* \"#utility.yul\":7794:7795   */\n  dup2\n    /* \"#utility.yul\":7790:7802   */\n  add\n    /* \"#utility.yul\":7785:7802   */\n  swap1\n  pop\n    /* \"#utility.yul\":7760:7968   */\n  jump(tag_136)\ntag_138:\n    /* \"#utility.yul\":7996:8002   */\n  dup7\n    /* \"#utility.yul\":7987:7994   */\n  dup4\n    /* \"#utility.yul\":7984:8003   */\n  lt\n    /* \"#utility.yul\":7981:8160   */\n  iszero\n  tag_139\n  jumpi\n    /* \"#utility.yul\":8054:8063   */\n  dup5\n    /* \"#utility.yul\":8049:8052   */\n  dup10\n    /* \"#utility.yul\":8045:8064   */\n  add\n    /* \"#utility.yul\":8039:8065   */\n  mload\n    /* \"#utility.yul\":8097:8145   */\n  tag_140\n    /* \"#utility.yul\":8139:8143   */\n  0x1f\n    /* \"#utility.yul\":8131:8137   */\n  dup10\n    /* \"#utility.yul\":8127:8144   */\n  and\n    /* \"#utility.yul\":8116:8125   */\n  dup3\n    /* \"#utility.yul\":8097:8145   */\n  tag_40\n  jump\t// in\ntag_140:\n    /* \"#utility.yul\":8089:8095   */\n  dup4\n    /* \"#utility.yul\":8082:8146   */\n  sstore\n    /* \"#utility.yul\":8004:8160   */\n  pop\n    /* \"#utility.yul\":7981:8160   */\ntag_139:\n    /* \"#utility.yul\":8206:8207   */\n  0x01\n    /* \"#utility.yul\":8202:8203   */\n  0x02\n    /* \"#utility.yul\":8194:8200   */\n  dup9\n    /* \"#utility.yul\":8190:8204   */\n  mul\n    /* \"#utility.yul\":8186:8208   */\n  add\n    /* \"#utility.yul\":8180:8184   */\n  dup9\n    /* \"#utility.yul\":8173:8209   */\n  sstore\n    /* \"#utility.yul\":7608:8219   */\n  pop\n  pop\n  pop\n    /* \"#utility.yul\":7571:8458   */\ntag_131:\n  pop\n    /* \"#utility.yul\":7161:8464   */\n  pop\n  pop\n  pop\n    /* \"#utility.yul\":7069:8464   */\n  pop\n  pop\n  jump\t// out\n    /* \"contracts/ERC1155/MyERC1155Token.sol\":459:12410  contract ERC1155 is IERC165, IERC1155, IERC1155MetadataURI {... */\ntag_9:\n  dataSize(sub_0)\n  dup1\n  dataOffset(sub_0)\n  0x00\n  codecopy\n  0x00\n  return\nstop\n\nsub_0: assembly {\n        /* \"contracts/ERC1155/MyERC1155Token.sol\":459:12410  contract ERC1155 is IERC165, IERC1155, IERC1155MetadataURI {... */\n      mstore(0x40, 0x80)\n      callvalue\n      dup1\n      iszero\n      tag_1\n      jumpi\n      0x00\n      dup1\n      revert\n    tag_1:\n      pop\n      jumpi(tag_2, lt(calldatasize, 0x04))\n      shr(0xe0, calldataload(0x00))\n      dup1\n      0x2eb2c2d6\n      gt\n      tag_14\n      jumpi\n      dup1\n      0x2eb2c2d6\n      eq\n      tag_8\n      jumpi\n      dup1\n      0x4e1273f4\n      eq\n      tag_9\n      jumpi\n      dup1\n      0x95d89b41\n      eq\n      tag_10\n      jumpi\n      dup1\n      0xa22cb465\n      eq\n      tag_11\n      jumpi\n      dup1\n      0xe985e9c5\n      eq\n      tag_12\n      jumpi\n      dup1\n      0xf242432a\n      eq\n      tag_13\n      jumpi\n      jump(tag_2)\n    tag_14:\n      dup1\n      0xfdd58e\n      eq\n      tag_3\n      jumpi\n      dup1\n      0x01ffc9a7\n      eq\n      tag_4\n      jumpi\n      dup1\n      0x06fdde03\n      eq\n      tag_5\n      jumpi\n      dup1\n      0x0e89341c\n      eq\n      tag_6\n      jumpi\n      dup1\n      0x16279055\n      eq\n      tag_7\n      jumpi\n    tag_2:\n      0x00\n      dup1\n      revert\n        /* \"contracts/ERC1155/MyERC1155Token.sol\":1986:2291  function balanceOf(address account, uint256 id)... */\n    tag_3:\n      tag_15\n      0x04\n      dup1\n      calldatasize\n      sub\n      dup2\n      add\n      swap1\n      tag_16\n      swap2\n      swap1\n      tag_17\n      jump\t// in\n    tag_16:\n      tag_18\n      jump\t// in\n    tag_15:\n      mload(0x40)\n      tag_19\n      swap2\n      swap1\n      tag_20\n      jump\t// in\n    tag_19:\n      mload(0x40)\n      dup1\n      swap2\n      sub\n      swap1\n      return\n        /* \"contracts/ERC1155/MyERC1155Token.sol\":1525:1861  function supportsInterface(bytes4 interfaceId)... */\n    tag_4:\n      tag_21\n      0x04\n      dup1\n      calldatasize\n      sub\n      dup2\n      add\n      swap1\n      tag_22\n      swap2\n      swap1\n      tag_23\n      jump\t// in\n    tag_22:\n      tag_24\n      jump\t// in\n    tag_21:\n      mload(0x40)\n      tag_25\n      swap2\n      swap1\n      tag_26\n      jump\t// in\n    tag_25:\n      mload(0x40)\n      dup1\n      swap2\n      sub\n      swap1\n      return\n        /* \"contracts/ERC1155/MyERC1155Token.sol\":691:709  string public name */\n    tag_5:\n      tag_27\n      tag_28\n      jump\t// in\n    tag_27:\n      mload(0x40)\n      tag_29\n      swap2\n      swap1\n      tag_30\n      jump\t// in\n    tag_29:\n      mload(0x40)\n      dup1\n      swap2\n      sub\n      swap1\n      return\n        /* \"contracts/ERC1155/MyERC1155Token.sol\":11881:12196  function uri(uint256 id)... */\n    tag_6:\n      tag_31\n      0x04\n      dup1\n      calldatasize\n      sub\n      dup2\n      add\n      swap1\n      tag_32\n      swap2\n      swap1\n      tag_33\n      jump\t// in\n    tag_32:\n      tag_34\n      jump\t// in\n    tag_31:\n      mload(0x40)\n      tag_35\n      swap2\n      swap1\n      tag_30\n      jump\t// in\n    tag_35:\n      mload(0x40)\n      dup1\n      swap2\n      sub\n      swap1\n      return\n        /* \"contracts/ERC1155/MyERC1155Token.sol\":1221:1458  function isContract(address account) public view returns (bool) {... */\n    tag_7:\n      tag_36\n      0x04\n      dup1\n      calldatasize\n      sub\n      dup2\n      add\n      swap1\n      tag_37\n      swap2\n      swap1\n      tag_38\n      jump\t// in\n    tag_37:\n      tag_39\n      jump\t// in\n    tag_36:\n      mload(0x40)\n      tag_40\n      swap2\n      swap1\n      tag_26\n      jump\t// in\n    tag_40:\n      mload(0x40)\n      dup1\n      swap2\n      sub\n      swap1\n      return\n        /* \"contracts/ERC1155/MyERC1155Token.sol\":5538:6943  function safeBatchTransferFrom(... */\n    tag_8:\n      tag_41\n      0x04\n      dup1\n      calldatasize\n      sub\n      dup2\n      add\n      swap1\n      tag_42\n      swap2\n      swap1\n      tag_43\n      jump\t// in\n    tag_42:\n      tag_44\n      jump\t// in\n    tag_41:\n      stop\n        /* \"contracts/ERC1155/MyERC1155Token.sol\":2409:2948  function balanceOfBatch(address[] memory accounts, uint256[] memory ids)... */\n    tag_9:\n      tag_45\n      0x04\n      dup1\n      calldatasize\n      sub\n      dup2\n      add\n      swap1\n      tag_46\n      swap2\n      swap1\n      tag_47\n      jump\t// in\n    tag_46:\n      tag_48\n      jump\t// in\n    tag_45:\n      mload(0x40)\n      tag_49\n      swap2\n      swap1\n      tag_50\n      jump\t// in\n    tag_49:\n      mload(0x40)\n      dup1\n      swap2\n      sub\n      swap1\n      return\n        /* \"contracts/ERC1155/MyERC1155Token.sol\":734:754  string public symbol */\n    tag_10:\n      tag_51\n      tag_52\n      jump\t// in\n    tag_51:\n      mload(0x40)\n      tag_53\n      swap2\n      swap1\n      tag_30\n      jump\t// in\n    tag_53:\n      mload(0x40)\n      dup1\n      swap2\n      sub\n      swap1\n      return\n        /* \"contracts/ERC1155/MyERC1155Token.sol\":3117:3478  function setApprovalForAll(address operator, bool approved)... */\n    tag_11:\n      tag_54\n      0x04\n      dup1\n      calldatasize\n      sub\n      dup2\n      add\n      swap1\n      tag_55\n      swap2\n      swap1\n      tag_56\n      jump\t// in\n    tag_55:\n      tag_57\n      jump\t// in\n    tag_54:\n      stop\n        /* \"contracts/ERC1155/MyERC1155Token.sol\":3532:3742  function isApprovedForAll(address account, address operator)... */\n    tag_12:\n      tag_58\n      0x04\n      dup1\n      calldatasize\n      sub\n      dup2\n      add\n      swap1\n      tag_59\n      swap2\n      swap1\n      tag_60\n      jump\t// in\n    tag_59:\n      tag_61\n      jump\t// in\n    tag_58:\n      mload(0x40)\n      tag_62\n      swap2\n      swap1\n      tag_26\n      jump\t// in\n    tag_62:\n      mload(0x40)\n      dup1\n      swap2\n      sub\n      swap1\n      return\n        /* \"contracts/ERC1155/MyERC1155Token.sol\":4087:5127  function safeTransferFrom(... */\n    tag_13:\n      tag_63\n      0x04\n      dup1\n      calldatasize\n      sub\n      dup2\n      add\n      swap1\n      tag_64\n      swap2\n      swap1\n      tag_65\n      jump\t// in\n    tag_64:\n      tag_66\n      jump\t// in\n    tag_63:\n      stop\n        /* \"contracts/ERC1155/MyERC1155Token.sol\":1986:2291  function balanceOf(address account, uint256 id)... */\n    tag_18:\n        /* \"contracts/ERC1155/MyERC1155Token.sol\":2112:2119  uint256 */\n      0x00\n        /* \"contracts/ERC1155/MyERC1155Token.sol\":2175:2176  0 */\n      dup1\n        /* \"contracts/ERC1155/MyERC1155Token.sol\":2156:2177  account != address(0) */\n      0xffffffffffffffffffffffffffffffffffffffff\n      and\n        /* \"contracts/ERC1155/MyERC1155Token.sol\":2156:2163  account */\n      dup4\n        /* \"contracts/ERC1155/MyERC1155Token.sol\":2156:2177  account != address(0) */\n      0xffffffffffffffffffffffffffffffffffffffff\n      and\n      sub\n        /* \"contracts/ERC1155/MyERC1155Token.sol\":2135:2245  require(... */\n      tag_68\n      jumpi\n      mload(0x40)\n      0x08c379a000000000000000000000000000000000000000000000000000000000\n      dup2\n      mstore\n      0x04\n      add\n      tag_69\n      swap1\n      tag_70\n      jump\t// in\n    tag_69:\n      mload(0x40)\n      dup1\n      swap2\n      sub\n      swap1\n      revert\n    tag_68:\n        /* \"contracts/ERC1155/MyERC1155Token.sol\":2262:2271  _balances */\n      0x02\n        /* \"contracts/ERC1155/MyERC1155Token.sol\":2262:2275  _balances[id] */\n      0x00\n        /* \"contracts/ERC1155/MyERC1155Token.sol\":2272:2274  id */\n      dup4\n        /* \"contracts/ERC1155/MyERC1155Token.sol\":2262:2275  _balances[id] */\n      dup2\n      mstore\n      0x20\n      add\n      swap1\n      dup2\n      mstore\n      0x20\n      add\n      0x00\n      keccak256\n        /* \"contracts/ERC1155/MyERC1155Token.sol\":2262:2284  _balances[id][account] */\n      0x00\n        /* \"contracts/ERC1155/MyERC1155Token.sol\":2276:2283  account */\n      dup5\n        /* \"contracts/ERC1155/MyERC1155Token.sol\":2262:2284  _balances[id][account] */\n      0xffffffffffffffffffffffffffffffffffffffff\n      and\n      0xffffffffffffffffffffffffffffffffffffffff\n      and\n      dup2\n      mstore\n      0x20\n      add\n      swap1\n      dup2\n      mstore\n      0x20\n      add\n      0x00\n      keccak256\n      sload\n        /* \"contracts/ERC1155/MyERC1155Token.sol\":2255:2284  return _balances[id][account] */\n      swap1\n      pop\n        /* \"contracts/ERC1155/MyERC1155Token.sol\":1986:2291  function balanceOf(address account, uint256 id)... */\n      swap3\n      swap2\n      pop\n      pop\n      jump\t// out\n        /* \"contracts/ERC1155/MyERC1155Token.sol\":1525:1861  function supportsInterface(bytes4 interfaceId)... */\n    tag_24:\n        /* \"contracts/ERC1155/MyERC1155Token.sol\":1650:1654  bool */\n      0x00\n        /* \"contracts/ERC1155/MyERC1155Token.sol\":1704:1730  type(IERC1155).interfaceId */\n      0xd9b67a2600000000000000000000000000000000000000000000000000000000\n        /* \"contracts/ERC1155/MyERC1155Token.sol\":1689:1730  interfaceId == type(IERC1155).interfaceId */\n      not(0xffffffffffffffffffffffffffffffffffffffffffffffffffffffff)\n      and\n        /* \"contracts/ERC1155/MyERC1155Token.sol\":1689:1700  interfaceId */\n      dup3\n        /* \"contracts/ERC1155/MyERC1155Token.sol\":1689:1730  interfaceId == type(IERC1155).interfaceId */\n      not(0xffffffffffffffffffffffffffffffffffffffffffffffffffffffff)\n      and\n      eq\n        /* \"contracts/ERC1155/MyERC1155Token.sol\":1689:1798  interfaceId == type(IERC1155).interfaceId ||... */\n      dup1\n      tag_72\n      jumpi\n      pop\n        /* \"contracts/ERC1155/MyERC1155Token.sol\":1761:1798  type(IERC1155MetadataURI).interfaceId */\n      0x0e89341c00000000000000000000000000000000000000000000000000000000\n        /* \"contracts/ERC1155/MyERC1155Token.sol\":1746:1798  interfaceId == type(IERC1155MetadataURI).interfaceId */\n      not(0xffffffffffffffffffffffffffffffffffffffffffffffffffffffff)\n      and\n        /* \"contracts/ERC1155/MyERC1155Token.sol\":1746:1757  interfaceId */\n      dup3\n        /* \"contracts/ERC1155/MyERC1155Token.sol\":1746:1798  interfaceId == type(IERC1155MetadataURI).interfaceId */\n      not(0xffffffffffffffffffffffffffffffffffffffffffffffffffffffff)\n      and\n      eq\n        /* \"contracts/ERC1155/MyERC1155Token.sol\":1689:1798  interfaceId == type(IERC1155).interfaceId ||... */\n    tag_72:\n        /* \"contracts/ERC1155/MyERC1155Token.sol\":1689:1854  interfaceId == type(IERC1155).interfaceId ||... */\n      dup1\n      tag_73\n      jumpi\n      pop\n        /* \"contracts/ERC1155/MyERC1155Token.sol\":1829:1854  type(IERC165).interfaceId */\n      0x01ffc9a700000000000000000000000000000000000000000000000000000000\n        /* \"contracts/ERC1155/MyERC1155Token.sol\":1814:1854  interfaceId == type(IERC165).interfaceId */\n      not(0xffffffffffffffffffffffffffffffffffffffffffffffffffffffff)\n      and\n        /* \"contracts/ERC1155/MyERC1155Token.sol\":1814:1825  interfaceId */\n      dup3\n        /* \"contracts/ERC1155/MyERC1155Token.sol\":1814:1854  interfaceId == type(IERC165).interfaceId */\n      not(0xffffffffffffffffffffffffffffffffffffffffffffffffffffffff)\n      and\n      eq\n        /* \"contracts/ERC1155/MyERC1155Token.sol\":1689:1854  interfaceId == type(IERC1155).interfaceId ||... */\n    tag_73:\n        /* \"contracts/ERC1155/MyERC1155Token.sol\":1670:1854  return... */\n      swap1\n      pop\n        /* \"contracts/ERC1155/MyERC1155Token.sol\":1525:1861  function supportsInterface(bytes4 interfaceId)... */\n      swap2\n      swap1\n      pop\n      jump\t// out\n        /* \"contracts/ERC1155/MyERC1155Token.sol\":691:709  string public name */\n    tag_28:\n      0x00\n      dup1\n      sload\n      tag_74\n      swap1\n      tag_75\n      jump\t// in\n    tag_74:\n      dup1\n      0x1f\n      add\n      0x20\n      dup1\n      swap2\n      div\n      mul\n      0x20\n      add\n      mload(0x40)\n      swap1\n      dup2\n      add\n      0x40\n      mstore\n      dup1\n      swap3\n      swap2\n      swap1\n      dup2\n      dup2\n      mstore\n      0x20\n      add\n      dup3\n      dup1\n      sload\n      tag_76\n      swap1\n      tag_75\n      jump\t// in\n    tag_76:\n      dup1\n      iszero\n      tag_77\n      jumpi\n      dup1\n      0x1f\n      lt\n      tag_78\n      jumpi\n      0x0100\n      dup1\n      dup4\n      sload\n      div\n      mul\n      dup4\n      mstore\n      swap2\n      0x20\n      add\n      swap2\n      jump(tag_77)\n    tag_78:\n      dup3\n      add\n      swap2\n      swap1\n      0x00\n      mstore\n      keccak256(0x00, 0x20)\n      swap1\n    tag_79:\n      dup2\n      sload\n      dup2\n      mstore\n      swap1\n      0x01\n      add\n      swap1\n      0x20\n      add\n      dup1\n      dup4\n      gt\n      tag_79\n      jumpi\n      dup3\n      swap1\n      sub\n      0x1f\n      and\n      dup3\n      add\n      swap2\n    tag_77:\n      pop\n      pop\n      pop\n      pop\n      pop\n      dup2\n      jump\t// out\n        /* \"contracts/ERC1155/MyERC1155Token.sol\":11881:12196  function uri(uint256 id)... */\n    tag_34:\n        /* \"contracts/ERC1155/MyERC1155Token.sol\":11984:11997  string memory */\n      0x60\n        /* \"contracts/ERC1155/MyERC1155Token.sol\":12013:12034  string memory baseURI */\n      0x00\n        /* \"contracts/ERC1155/MyERC1155Token.sol\":12037:12047  _baseURI() */\n      tag_81\n        /* \"contracts/ERC1155/MyERC1155Token.sol\":12037:12045  _baseURI */\n      tag_82\n        /* \"contracts/ERC1155/MyERC1155Token.sol\":12037:12047  _baseURI() */\n      jump\t// in\n    tag_81:\n        /* \"contracts/ERC1155/MyERC1155Token.sol\":12013:12047  string memory baseURI = _baseURI() */\n      swap1\n      pop\n        /* \"contracts/ERC1155/MyERC1155Token.sol\":12100:12101  0 */\n      0x00\n        /* \"contracts/ERC1155/MyERC1155Token.sol\":12082:12089  baseURI */\n      dup2\n        /* \"contracts/ERC1155/MyERC1155Token.sol\":12076:12097  bytes(baseURI).length */\n      mload\n        /* \"contracts/ERC1155/MyERC1155Token.sol\":12076:12101  bytes(baseURI).length > 0 */\n      gt\n        /* \"contracts/ERC1155/MyERC1155Token.sol\":12076:12189  bytes(baseURI).length > 0... */\n      tag_83\n      jumpi\n      mload(0x40)\n      dup1\n      0x20\n      add\n      0x40\n      mstore\n      dup1\n      0x00\n      dup2\n      mstore\n      pop\n      jump(tag_84)\n    tag_83:\n        /* \"contracts/ERC1155/MyERC1155Token.sol\":12144:12151  baseURI */\n      dup1\n        /* \"contracts/ERC1155/MyERC1155Token.sol\":12153:12166  id.toString() */\n      tag_85\n        /* \"contracts/ERC1155/MyERC1155Token.sol\":12153:12155  id */\n      dup5\n        /* \"contracts/ERC1155/MyERC1155Token.sol\":12153:12164  id.toString */\n      tag_86\n        /* \"contracts/ERC1155/MyERC1155Token.sol\":12153:12166  id.toString() */\n      jump\t// in\n    tag_85:\n        /* \"contracts/ERC1155/MyERC1155Token.sol\":12127:12167  abi.encodePacked(baseURI, id.toString()) */\n      add(0x20, mload(0x40))\n      tag_87\n      swap3\n      swap2\n      swap1\n      tag_88\n      jump\t// in\n    tag_87:\n      mload(0x40)\n      0x20\n      dup2\n      dup4\n      sub\n      sub\n      dup2\n      mstore\n      swap1\n      0x40\n      mstore\n        /* \"contracts/ERC1155/MyERC1155Token.sol\":12076:12189  bytes(baseURI).length > 0... */\n    tag_84:\n        /* \"contracts/ERC1155/MyERC1155Token.sol\":12057:12189  return... */\n      swap2\n      pop\n      pop\n        /* \"contracts/ERC1155/MyERC1155Token.sol\":11881:12196  function uri(uint256 id)... */\n      swap2\n      swap1\n      pop\n      jump\t// out\n        /* \"contracts/ERC1155/MyERC1155Token.sol\":1221:1458  function isContract(address account) public view returns (bool) {... */\n    tag_39:\n        /* \"contracts/ERC1155/MyERC1155Token.sol\":1279:1283  bool */\n      0x00\n        /* \"contracts/ERC1155/MyERC1155Token.sol\":1295:1311  uint256 codeSize */\n      dup1\n        /* \"contracts/ERC1155/MyERC1155Token.sol\":1368:1375  account */\n      dup3\n        /* \"contracts/ERC1155/MyERC1155Token.sol\":1356:1376  extcodesize(account) */\n      extcodesize\n        /* \"contracts/ERC1155/MyERC1155Token.sol\":1344:1376  codeSize := extcodesize(account) */\n      swap1\n      pop\n        /* \"contracts/ERC1155/MyERC1155Token.sol\":1450:1451  0 */\n      0x00\n        /* \"contracts/ERC1155/MyERC1155Token.sol\":1439:1447  codeSize */\n      dup2\n        /* \"contracts/ERC1155/MyERC1155Token.sol\":1439:1451  codeSize > 0 */\n      gt\n        /* \"contracts/ERC1155/MyERC1155Token.sol\":1432:1451  return codeSize > 0 */\n      swap2\n      pop\n      pop\n        /* \"contracts/ERC1155/MyERC1155Token.sol\":1221:1458  function isContract(address account) public view returns (bool) {... */\n      swap2\n      swap1\n      pop\n      jump\t// out\n        /* \"contracts/ERC1155/MyERC1155Token.sol\":5538:6943  function safeBatchTransferFrom(... */\n    tag_44:\n        /* \"contracts/ERC1155/MyERC1155Token.sol\":5742:5758  address operator */\n      0x00\n        /* \"contracts/ERC1155/MyERC1155Token.sol\":5761:5771  msg.sender */\n      caller\n        /* \"contracts/ERC1155/MyERC1155Token.sol\":5742:5771  address operator = msg.sender */\n      swap1\n      pop\n        /* \"contracts/ERC1155/MyERC1155Token.sol\":5858:5866  operator */\n      dup1\n        /* \"contracts/ERC1155/MyERC1155Token.sol\":5850:5866  from == operator */\n      0xffffffffffffffffffffffffffffffffffffffff\n      and\n        /* \"contracts/ERC1155/MyERC1155Token.sol\":5850:5854  from */\n      dup7\n        /* \"contracts/ERC1155/MyERC1155Token.sol\":5850:5866  from == operator */\n      0xffffffffffffffffffffffffffffffffffffffff\n      and\n      eq\n        /* \"contracts/ERC1155/MyERC1155Token.sol\":5850:5902  from == operator || isApprovedForAll(from, operator) */\n      dup1\n      tag_91\n      jumpi\n      pop\n        /* \"contracts/ERC1155/MyERC1155Token.sol\":5870:5902  isApprovedForAll(from, operator) */\n      tag_92\n        /* \"contracts/ERC1155/MyERC1155Token.sol\":5887:5891  from */\n      dup7\n        /* \"contracts/ERC1155/MyERC1155Token.sol\":5893:5901  operator */\n      dup3\n        /* \"contracts/ERC1155/MyERC1155Token.sol\":5870:5886  isApprovedForAll */\n      tag_61\n        /* \"contracts/ERC1155/MyERC1155Token.sol\":5870:5902  isApprovedForAll(from, operator) */\n      jump\t// in\n    tag_92:\n        /* \"contracts/ERC1155/MyERC1155Token.sol\":5850:5902  from == operator || isApprovedForAll(from, operator) */\n    tag_91:\n        /* \"contracts/ERC1155/MyERC1155Token.sol\":5829:5975  require(... */\n      tag_93\n      jumpi\n      mload(0x40)\n      0x08c379a000000000000000000000000000000000000000000000000000000000\n      dup2\n      mstore\n      0x04\n      add\n      tag_94\n      swap1\n      tag_95\n      jump\t// in\n    tag_94:\n      mload(0x40)\n      dup1\n      swap2\n      sub\n      swap1\n      revert\n    tag_93:\n        /* \"contracts/ERC1155/MyERC1155Token.sol\":6020:6027  amounts */\n      dup3\n        /* \"contracts/ERC1155/MyERC1155Token.sol\":6020:6034  amounts.length */\n      mload\n        /* \"contracts/ERC1155/MyERC1155Token.sol\":6006:6009  ids */\n      dup5\n        /* \"contracts/ERC1155/MyERC1155Token.sol\":6006:6016  ids.length */\n      mload\n        /* \"contracts/ERC1155/MyERC1155Token.sol\":6006:6034  ids.length == amounts.length */\n      eq\n        /* \"contracts/ERC1155/MyERC1155Token.sol\":5985:6100  require(... */\n      tag_96\n      jumpi\n      mload(0x40)\n      0x08c379a000000000000000000000000000000000000000000000000000000000\n      dup2\n      mstore\n      0x04\n      add\n      tag_97\n      swap1\n      tag_98\n      jump\t// in\n    tag_97:\n      mload(0x40)\n      dup1\n      swap2\n      sub\n      swap1\n      revert\n    tag_96:\n        /* \"contracts/ERC1155/MyERC1155Token.sol\":6132:6133  0 */\n      0x00\n        /* \"contracts/ERC1155/MyERC1155Token.sol\":6118:6134  to != address(0) */\n      0xffffffffffffffffffffffffffffffffffffffff\n      and\n        /* \"contracts/ERC1155/MyERC1155Token.sol\":6118:6120  to */\n      dup6\n        /* \"contracts/ERC1155/MyERC1155Token.sol\":6118:6134  to != address(0) */\n      0xffffffffffffffffffffffffffffffffffffffff\n      and\n      sub\n        /* \"contracts/ERC1155/MyERC1155Token.sol\":6110:6176  require(to != address(0), \"ERC1155: transfer to the zero address\") */\n      tag_99\n      jumpi\n      mload(0x40)\n      0x08c379a000000000000000000000000000000000000000000000000000000000\n      dup2\n      mstore\n      0x04\n      add\n      tag_100\n      swap1\n      tag_101\n      jump\t// in\n    tag_100:\n      mload(0x40)\n      dup1\n      swap2\n      sub\n      swap1\n      revert\n    tag_99:\n        /* \"contracts/ERC1155/MyERC1155Token.sol\":6231:6240  uint256 i */\n      0x00\n        /* \"contracts/ERC1155/MyERC1155Token.sol\":6226:6683  for (uint256 i = 0; i < ids.length; ++i) {... */\n    tag_102:\n        /* \"contracts/ERC1155/MyERC1155Token.sol\":6250:6253  ids */\n      dup5\n        /* \"contracts/ERC1155/MyERC1155Token.sol\":6250:6260  ids.length */\n      mload\n        /* \"contracts/ERC1155/MyERC1155Token.sol\":6246:6247  i */\n      dup2\n        /* \"contracts/ERC1155/MyERC1155Token.sol\":6246:6260  i < ids.length */\n      lt\n        /* \"contracts/ERC1155/MyERC1155Token.sol\":6226:6683  for (uint256 i = 0; i < ids.length; ++i) {... */\n      iszero\n      tag_103\n      jumpi\n        /* \"contracts/ERC1155/MyERC1155Token.sol\":6281:6291  uint256 id */\n      0x00\n        /* \"contracts/ERC1155/MyERC1155Token.sol\":6294:6297  ids */\n      dup6\n        /* \"contracts/ERC1155/MyERC1155Token.sol\":6298:6299  i */\n      dup3\n        /* \"contracts/ERC1155/MyERC1155Token.sol\":6294:6300  ids[i] */\n      dup2\n      mload\n      dup2\n      lt\n      tag_105\n      jumpi\n      tag_106\n      tag_107\n      jump\t// in\n    tag_106:\n    tag_105:\n      0x20\n      mul\n      0x20\n      add\n      add\n      mload\n        /* \"contracts/ERC1155/MyERC1155Token.sol\":6281:6300  uint256 id = ids[i] */\n      swap1\n      pop\n        /* \"contracts/ERC1155/MyERC1155Token.sol\":6314:6328  uint256 amount */\n      0x00\n        /* \"contracts/ERC1155/MyERC1155Token.sol\":6331:6338  amounts */\n      dup6\n        /* \"contracts/ERC1155/MyERC1155Token.sol\":6339:6340  i */\n      dup4\n        /* \"contracts/ERC1155/MyERC1155Token.sol\":6331:6341  amounts[i] */\n      dup2\n      mload\n      dup2\n      lt\n      tag_108\n      jumpi\n      tag_109\n      tag_107\n      jump\t// in\n    tag_109:\n    tag_108:\n      0x20\n      mul\n      0x20\n      add\n      add\n      mload\n        /* \"contracts/ERC1155/MyERC1155Token.sol\":6314:6341  uint256 amount = amounts[i] */\n      swap1\n      pop\n        /* \"contracts/ERC1155/MyERC1155Token.sol\":6356:6375  uint256 fromBalance */\n      0x00\n        /* \"contracts/ERC1155/MyERC1155Token.sol\":6378:6387  _balances */\n      0x02\n        /* \"contracts/ERC1155/MyERC1155Token.sol\":6378:6391  _balances[id] */\n      0x00\n        /* \"contracts/ERC1155/MyERC1155Token.sol\":6388:6390  id */\n      dup5\n        /* \"contracts/ERC1155/MyERC1155Token.sol\":6378:6391  _balances[id] */\n      dup2\n      mstore\n      0x20\n      add\n      swap1\n      dup2\n      mstore\n      0x20\n      add\n      0x00\n      keccak256\n        /* \"contracts/ERC1155/MyERC1155Token.sol\":6378:6397  _balances[id][from] */\n      0x00\n        /* \"contracts/ERC1155/MyERC1155Token.sol\":6392:6396  from */\n      dup12\n        /* \"contracts/ERC1155/MyERC1155Token.sol\":6378:6397  _balances[id][from] */\n      0xffffffffffffffffffffffffffffffffffffffff\n      and\n      0xffffffffffffffffffffffffffffffffffffffff\n      and\n      dup2\n      mstore\n      0x20\n      add\n      swap1\n      dup2\n      mstore\n      0x20\n      add\n      0x00\n      keccak256\n      sload\n        /* \"contracts/ERC1155/MyERC1155Token.sol\":6356:6397  uint256 fromBalance = _balances[id][from] */\n      swap1\n      pop\n        /* \"contracts/ERC1155/MyERC1155Token.sol\":6451:6457  amount */\n      dup2\n        /* \"contracts/ERC1155/MyERC1155Token.sol\":6436:6447  fromBalance */\n      dup2\n        /* \"contracts/ERC1155/MyERC1155Token.sol\":6436:6457  fromBalance >= amount */\n      lt\n      iszero\n        /* \"contracts/ERC1155/MyERC1155Token.sol\":6411:6533  require(... */\n      tag_110\n      jumpi\n      mload(0x40)\n      0x08c379a000000000000000000000000000000000000000000000000000000000\n      dup2\n      mstore\n      0x04\n      add\n      tag_111\n      swap1\n      tag_112\n      jump\t// in\n    tag_111:\n      mload(0x40)\n      dup1\n      swap2\n      sub\n      swap1\n      revert\n    tag_110:\n        /* \"contracts/ERC1155/MyERC1155Token.sol\":6611:6617  amount */\n      dup2\n        /* \"contracts/ERC1155/MyERC1155Token.sol\":6597:6608  fromBalance */\n      dup2\n        /* \"contracts/ERC1155/MyERC1155Token.sol\":6597:6617  fromBalance - amount */\n      sub\n        /* \"contracts/ERC1155/MyERC1155Token.sol\":6575:6584  _balances */\n      0x02\n        /* \"contracts/ERC1155/MyERC1155Token.sol\":6575:6588  _balances[id] */\n      0x00\n        /* \"contracts/ERC1155/MyERC1155Token.sol\":6585:6587  id */\n      dup6\n        /* \"contracts/ERC1155/MyERC1155Token.sol\":6575:6588  _balances[id] */\n      dup2\n      mstore\n      0x20\n      add\n      swap1\n      dup2\n      mstore\n      0x20\n      add\n      0x00\n      keccak256\n        /* \"contracts/ERC1155/MyERC1155Token.sol\":6575:6594  _balances[id][from] */\n      0x00\n        /* \"contracts/ERC1155/MyERC1155Token.sol\":6589:6593  from */\n      dup13\n        /* \"contracts/ERC1155/MyERC1155Token.sol\":6575:6594  _balances[id][from] */\n      0xffffffffffffffffffffffffffffffffffffffff\n      and\n      0xffffffffffffffffffffffffffffffffffffffff\n      and\n      dup2\n      mstore\n      0x20\n      add\n      swap1\n      dup2\n      mstore\n      0x20\n      add\n      0x00\n      keccak256\n        /* \"contracts/ERC1155/MyERC1155Token.sol\":6575:6617  _balances[id][from] = fromBalance - amount */\n      dup2\n      swap1\n      sstore\n      pop\n        /* \"contracts/ERC1155/MyERC1155Token.sol\":6666:6672  amount */\n      dup2\n        /* \"contracts/ERC1155/MyERC1155Token.sol\":6645:6654  _balances */\n      0x02\n        /* \"contracts/ERC1155/MyERC1155Token.sol\":6645:6658  _balances[id] */\n      0x00\n        /* \"contracts/ERC1155/MyERC1155Token.sol\":6655:6657  id */\n      dup6\n        /* \"contracts/ERC1155/MyERC1155Token.sol\":6645:6658  _balances[id] */\n      dup2\n      mstore\n      0x20\n      add\n      swap1\n      dup2\n      mstore\n      0x20\n      add\n      0x00\n      keccak256\n        /* \"contracts/ERC1155/MyERC1155Token.sol\":6645:6662  _balances[id][to] */\n      0x00\n        /* \"contracts/ERC1155/MyERC1155Token.sol\":6659:6661  to */\n      dup12\n        /* \"contracts/ERC1155/MyERC1155Token.sol\":6645:6662  _balances[id][to] */\n      0xffffffffffffffffffffffffffffffffffffffff\n      and\n      0xffffffffffffffffffffffffffffffffffffffff\n      and\n      dup2\n      mstore\n      0x20\n      add\n      swap1\n      dup2\n      mstore\n      0x20\n      add\n      0x00\n      keccak256\n      0x00\n        /* \"contracts/ERC1155/MyERC1155Token.sol\":6645:6672  _balances[id][to] += amount */\n      dup3\n      dup3\n      sload\n      tag_113\n      swap2\n      swap1\n      tag_114\n      jump\t// in\n    tag_113:\n      swap3\n      pop\n      pop\n      dup2\n      swap1\n      sstore\n      pop\n        /* \"contracts/ERC1155/MyERC1155Token.sol\":6267:6683  {... */\n      pop\n      pop\n      pop\n        /* \"contracts/ERC1155/MyERC1155Token.sol\":6262:6265  ++i */\n      dup1\n      0x01\n      add\n      swap1\n      pop\n        /* \"contracts/ERC1155/MyERC1155Token.sol\":6226:6683  for (uint256 i = 0; i < ids.length; ++i) {... */\n      jump(tag_102)\n    tag_103:\n      pop\n        /* \"contracts/ERC1155/MyERC1155Token.sol\":6728:6730  to */\n      dup5\n        /* \"contracts/ERC1155/MyERC1155Token.sol\":6698:6745  TransferBatch(operator, from, to, ids, amounts) */\n      0xffffffffffffffffffffffffffffffffffffffff\n      and\n        /* \"contracts/ERC1155/MyERC1155Token.sol\":6722:6726  from */\n      dup7\n        /* \"contracts/ERC1155/MyERC1155Token.sol\":6698:6745  TransferBatch(operator, from, to, ids, amounts) */\n      0xffffffffffffffffffffffffffffffffffffffff\n      and\n        /* \"contracts/ERC1155/MyERC1155Token.sol\":6712:6720  operator */\n      dup3\n        /* \"contracts/ERC1155/MyERC1155Token.sol\":6698:6745  TransferBatch(operator, from, to, ids, amounts) */\n      0xffffffffffffffffffffffffffffffffffffffff\n      and\n      0x4a39dc06d4c0dbc64b70af90fd698a233a518aa5d07e595d983b8c0526c8f7fb\n        /* \"contracts/ERC1155/MyERC1155Token.sol\":6732:6735  ids */\n      dup8\n        /* \"contracts/ERC1155/MyERC1155Token.sol\":6737:6744  amounts */\n      dup8\n        /* \"contracts/ERC1155/MyERC1155Token.sol\":6698:6745  TransferBatch(operator, from, to, ids, amounts) */\n      mload(0x40)\n      tag_115\n      swap3\n      swap2\n      swap1\n      tag_116\n      jump\t// in\n    tag_115:\n      mload(0x40)\n      dup1\n      swap2\n      sub\n      swap1\n      log4\n        /* \"contracts/ERC1155/MyERC1155Token.sol\":6779:6936  _doSafeBatchTransferAcceptanceCheck(... */\n      tag_117\n        /* \"contracts/ERC1155/MyERC1155Token.sol\":6828:6836  operator */\n      dup2\n        /* \"contracts/ERC1155/MyERC1155Token.sol\":6850:6854  from */\n      dup8\n        /* \"contracts/ERC1155/MyERC1155Token.sol\":6868:6870  to */\n      dup8\n        /* \"contracts/ERC1155/MyERC1155Token.sol\":6884:6887  ids */\n      dup8\n        /* \"contracts/ERC1155/MyERC1155Token.sol\":6901:6908  amounts */\n      dup8\n        /* \"contracts/ERC1155/MyERC1155Token.sol\":6922:6926  data */\n      dup8\n        /* \"contracts/ERC1155/MyERC1155Token.sol\":6779:6814  _doSafeBatchTransferAcceptanceCheck */\n      tag_118\n        /* \"contracts/ERC1155/MyERC1155Token.sol\":6779:6936  _doSafeBatchTransferAcceptanceCheck(... */\n      jump\t// in\n    tag_117:\n        /* \"contracts/ERC1155/MyERC1155Token.sol\":5732:6943  {... */\n      pop\n        /* \"contracts/ERC1155/MyERC1155Token.sol\":5538:6943  function safeBatchTransferFrom(... */\n      pop\n      pop\n      pop\n      pop\n      pop\n      jump\t// out\n        /* \"contracts/ERC1155/MyERC1155Token.sol\":2409:2948  function balanceOfBatch(address[] memory accounts, uint256[] memory ids)... */\n    tag_48:\n        /* \"contracts/ERC1155/MyERC1155Token.sol\":2560:2576  uint256[] memory */\n      0x60\n        /* \"contracts/ERC1155/MyERC1155Token.sol\":2632:2635  ids */\n      dup2\n        /* \"contracts/ERC1155/MyERC1155Token.sol\":2632:2642  ids.length */\n      mload\n        /* \"contracts/ERC1155/MyERC1155Token.sol\":2613:2621  accounts */\n      dup4\n        /* \"contracts/ERC1155/MyERC1155Token.sol\":2613:2628  accounts.length */\n      mload\n        /* \"contracts/ERC1155/MyERC1155Token.sol\":2613:2642  accounts.length == ids.length */\n      eq\n        /* \"contracts/ERC1155/MyERC1155Token.sol\":2592:2709  require(... */\n      tag_120\n      jumpi\n      mload(0x40)\n      0x08c379a000000000000000000000000000000000000000000000000000000000\n      dup2\n      mstore\n      0x04\n      add\n      tag_121\n      swap1\n      tag_122\n      jump\t// in\n    tag_121:\n      mload(0x40)\n      dup1\n      swap2\n      sub\n      swap1\n      revert\n    tag_120:\n        /* \"contracts/ERC1155/MyERC1155Token.sol\":2719:2749  uint256[] memory batchBalances */\n      0x00\n        /* \"contracts/ERC1155/MyERC1155Token.sol\":2766:2774  accounts */\n      dup4\n        /* \"contracts/ERC1155/MyERC1155Token.sol\":2766:2781  accounts.length */\n      mload\n        /* \"contracts/ERC1155/MyERC1155Token.sol\":2752:2782  new uint256[](accounts.length) */\n      0xffffffffffffffff\n      dup2\n      gt\n      iszero\n      tag_123\n      jumpi\n      tag_124\n      tag_125\n      jump\t// in\n    tag_124:\n    tag_123:\n      mload(0x40)\n      swap1\n      dup1\n      dup3\n      mstore\n      dup1\n      0x20\n      mul\n      0x20\n      add\n      dup3\n      add\n      0x40\n      mstore\n      dup1\n      iszero\n      tag_126\n      jumpi\n      dup2\n      0x20\n      add\n      0x20\n      dup3\n      mul\n      dup1\n      calldatasize\n      dup4\n      calldatacopy\n      dup1\n      dup3\n      add\n      swap2\n      pop\n      pop\n      swap1\n      pop\n    tag_126:\n      pop\n        /* \"contracts/ERC1155/MyERC1155Token.sol\":2719:2782  uint256[] memory batchBalances = new uint256[](accounts.length) */\n      swap1\n      pop\n        /* \"contracts/ERC1155/MyERC1155Token.sol\":2797:2806  uint256 i */\n      0x00\n        /* \"contracts/ERC1155/MyERC1155Token.sol\":2792:2912  for (uint256 i = 0; i < accounts.length; ++i) {... */\n    tag_127:\n        /* \"contracts/ERC1155/MyERC1155Token.sol\":2816:2824  accounts */\n      dup5\n        /* \"contracts/ERC1155/MyERC1155Token.sol\":2816:2831  accounts.length */\n      mload\n        /* \"contracts/ERC1155/MyERC1155Token.sol\":2812:2813  i */\n      dup2\n        /* \"contracts/ERC1155/MyERC1155Token.sol\":2812:2831  i < accounts.length */\n      lt\n        /* \"contracts/ERC1155/MyERC1155Token.sol\":2792:2912  for (uint256 i = 0; i < accounts.length; ++i) {... */\n      iszero\n      tag_128\n      jumpi\n        /* \"contracts/ERC1155/MyERC1155Token.sol\":2871:2901  balanceOf(accounts[i], ids[i]) */\n      tag_130\n        /* \"contracts/ERC1155/MyERC1155Token.sol\":2881:2889  accounts */\n      dup6\n        /* \"contracts/ERC1155/MyERC1155Token.sol\":2890:2891  i */\n      dup3\n        /* \"contracts/ERC1155/MyERC1155Token.sol\":2881:2892  accounts[i] */\n      dup2\n      mload\n      dup2\n      lt\n      tag_131\n      jumpi\n      tag_132\n      tag_107\n      jump\t// in\n    tag_132:\n    tag_131:\n      0x20\n      mul\n      0x20\n      add\n      add\n      mload\n        /* \"contracts/ERC1155/MyERC1155Token.sol\":2894:2897  ids */\n      dup6\n        /* \"contracts/ERC1155/MyERC1155Token.sol\":2898:2899  i */\n      dup4\n        /* \"contracts/ERC1155/MyERC1155Token.sol\":2894:2900  ids[i] */\n      dup2\n      mload\n      dup2\n      lt\n      tag_133\n      jumpi\n      tag_134\n      tag_107\n      jump\t// in\n    tag_134:\n    tag_133:\n      0x20\n      mul\n      0x20\n      add\n      add\n      mload\n        /* \"contracts/ERC1155/MyERC1155Token.sol\":2871:2880  balanceOf */\n      tag_18\n        /* \"contracts/ERC1155/MyERC1155Token.sol\":2871:2901  balanceOf(accounts[i], ids[i]) */\n      jump\t// in\n    tag_130:\n        /* \"contracts/ERC1155/MyERC1155Token.sol\":2852:2865  batchBalances */\n      dup3\n        /* \"contracts/ERC1155/MyERC1155Token.sol\":2866:2867  i */\n      dup3\n        /* \"contracts/ERC1155/MyERC1155Token.sol\":2852:2868  batchBalances[i] */\n      dup2\n      mload\n      dup2\n      lt\n      tag_135\n      jumpi\n      tag_136\n      tag_107\n      jump\t// in\n    tag_136:\n    tag_135:\n      0x20\n      mul\n      0x20\n      add\n      add\n        /* \"contracts/ERC1155/MyERC1155Token.sol\":2852:2901  batchBalances[i] = balanceOf(accounts[i], ids[i]) */\n      dup2\n      dup2\n      mstore\n      pop\n      pop\n        /* \"contracts/ERC1155/MyERC1155Token.sol\":2833:2836  ++i */\n      dup1\n      0x01\n      add\n      swap1\n      pop\n        /* \"contracts/ERC1155/MyERC1155Token.sol\":2792:2912  for (uint256 i = 0; i < accounts.length; ++i) {... */\n      jump(tag_127)\n    tag_128:\n      pop\n        /* \"contracts/ERC1155/MyERC1155Token.sol\":2928:2941  batchBalances */\n      dup1\n        /* \"contracts/ERC1155/MyERC1155Token.sol\":2921:2941  return batchBalances */\n      swap2\n      pop\n      pop\n        /* \"contracts/ERC1155/MyERC1155Token.sol\":2409:2948  function balanceOfBatch(address[] memory accounts, uint256[] memory ids)... */\n      swap3\n      swap2\n      pop\n      pop\n      jump\t// out\n        /* \"contracts/ERC1155/MyERC1155Token.sol\":734:754  string public symbol */\n    tag_52:\n      0x01\n      dup1\n      sload\n      tag_137\n      swap1\n      tag_75\n      jump\t// in\n    tag_137:\n      dup1\n      0x1f\n      add\n      0x20\n      dup1\n      swap2\n      div\n      mul\n      0x20\n      add\n      mload(0x40)\n      swap1\n      dup2\n      add\n      0x40\n      mstore\n      dup1\n      swap3\n      swap2\n      swap1\n      dup2\n      dup2\n      mstore\n      0x20\n      add\n      dup3\n      dup1\n      sload\n      tag_138\n      swap1\n      tag_75\n      jump\t// in\n    tag_138:\n      dup1\n      iszero\n      tag_139\n      jumpi\n      dup1\n      0x1f\n      lt\n      tag_140\n      jumpi\n      0x0100\n      dup1\n      dup4\n      sload\n      div\n      mul\n      dup4\n      mstore\n      swap2\n      0x20\n      add\n      swap2\n      jump(tag_139)\n    tag_140:\n      dup3\n      add\n      swap2\n      swap1\n      0x00\n      mstore\n      keccak256(0x00, 0x20)\n      swap1\n    tag_141:\n      dup2\n      sload\n      dup2\n      mstore\n      swap1\n      0x01\n      add\n      swap1\n      0x20\n      add\n      dup1\n      dup4\n      gt\n      tag_141\n      jumpi\n      dup3\n      swap1\n      sub\n      0x1f\n      and\n      dup3\n      add\n      swap2\n    tag_139:\n      pop\n      pop\n      pop\n      pop\n      pop\n      dup2\n      jump\t// out\n        /* \"contracts/ERC1155/MyERC1155Token.sol\":3117:3478  function setApprovalForAll(address operator, bool approved)... */\n    tag_57:\n        /* \"contracts/ERC1155/MyERC1155Token.sol\":3274:3282  operator */\n      dup2\n        /* \"contracts/ERC1155/MyERC1155Token.sol\":3260:3282  msg.sender != operator */\n      0xffffffffffffffffffffffffffffffffffffffff\n      and\n        /* \"contracts/ERC1155/MyERC1155Token.sol\":3260:3270  msg.sender */\n      caller\n        /* \"contracts/ERC1155/MyERC1155Token.sol\":3260:3282  msg.sender != operator */\n      0xffffffffffffffffffffffffffffffffffffffff\n      and\n      sub\n        /* \"contracts/ERC1155/MyERC1155Token.sol\":3239:3349  require(... */\n      tag_143\n      jumpi\n      mload(0x40)\n      0x08c379a000000000000000000000000000000000000000000000000000000000\n      dup2\n      mstore\n      0x04\n      add\n      tag_144\n      swap1\n      tag_145\n      jump\t// in\n    tag_144:\n      mload(0x40)\n      dup1\n      swap2\n      sub\n      swap1\n      revert\n    tag_143:\n        /* \"contracts/ERC1155/MyERC1155Token.sol\":3402:3410  approved */\n      dup1\n        /* \"contracts/ERC1155/MyERC1155Token.sol\":3359:3377  _operatorApprovals */\n      0x03\n        /* \"contracts/ERC1155/MyERC1155Token.sol\":3359:3389  _operatorApprovals[msg.sender] */\n      0x00\n        /* \"contracts/ERC1155/MyERC1155Token.sol\":3378:3388  msg.sender */\n      caller\n        /* \"contracts/ERC1155/MyERC1155Token.sol\":3359:3389  _operatorApprovals[msg.sender] */\n      0xffffffffffffffffffffffffffffffffffffffff\n      and\n      0xffffffffffffffffffffffffffffffffffffffff\n      and\n      dup2\n      mstore\n      0x20\n      add\n      swap1\n      dup2\n      mstore\n      0x20\n      add\n      0x00\n      keccak256\n        /* \"contracts/ERC1155/MyERC1155Token.sol\":3359:3399  _operatorApprovals[msg.sender][operator] */\n      0x00\n        /* \"contracts/ERC1155/MyERC1155Token.sol\":3390:3398  operator */\n      dup5\n        /* \"contracts/ERC1155/MyERC1155Token.sol\":3359:3399  _operatorApprovals[msg.sender][operator] */\n      0xffffffffffffffffffffffffffffffffffffffff\n      and\n      0xffffffffffffffffffffffffffffffffffffffff\n      and\n      dup2\n      mstore\n      0x20\n      add\n      swap1\n      dup2\n      mstore\n      0x20\n      add\n      0x00\n      keccak256\n      0x00\n        /* \"contracts/ERC1155/MyERC1155Token.sol\":3359:3410  _operatorApprovals[msg.sender][operator] = approved */\n      0x0100\n      exp\n      dup2\n      sload\n      dup2\n      0xff\n      mul\n      not\n      and\n      swap1\n      dup4\n      iszero\n      iszero\n      mul\n      or\n      swap1\n      sstore\n      pop\n        /* \"contracts/ERC1155/MyERC1155Token.sol\":3452:3460  operator */\n      dup2\n        /* \"contracts/ERC1155/MyERC1155Token.sol\":3425:3471  ApprovalForAll(msg.sender, operator, approved) */\n      0xffffffffffffffffffffffffffffffffffffffff\n      and\n        /* \"contracts/ERC1155/MyERC1155Token.sol\":3440:3450  msg.sender */\n      caller\n        /* \"contracts/ERC1155/MyERC1155Token.sol\":3425:3471  ApprovalForAll(msg.sender, operator, approved) */\n      0xffffffffffffffffffffffffffffffffffffffff\n      and\n      0x17307eab39ab6107e8899845ad3d59bd9653f200f220920489ca2b5937696c31\n        /* \"contracts/ERC1155/MyERC1155Token.sol\":3462:3470  approved */\n      dup4\n        /* \"contracts/ERC1155/MyERC1155Token.sol\":3425:3471  ApprovalForAll(msg.sender, operator, approved) */\n      mload(0x40)\n      tag_146\n      swap2\n      swap1\n      tag_26\n      jump\t// in\n    tag_146:\n      mload(0x40)\n      dup1\n      swap2\n      sub\n      swap1\n      log3\n        /* \"contracts/ERC1155/MyERC1155Token.sol\":3117:3478  function setApprovalForAll(address operator, bool approved)... */\n      pop\n      pop\n      jump\t// out\n        /* \"contracts/ERC1155/MyERC1155Token.sol\":3532:3742  function isApprovedForAll(address account, address operator)... */\n    tag_61:\n        /* \"contracts/ERC1155/MyERC1155Token.sol\":3671:3675  bool */\n      0x00\n        /* \"contracts/ERC1155/MyERC1155Token.sol\":3698:3716  _operatorApprovals */\n      0x03\n        /* \"contracts/ERC1155/MyERC1155Token.sol\":3698:3725  _operatorApprovals[account] */\n      0x00\n        /* \"contracts/ERC1155/MyERC1155Token.sol\":3717:3724  account */\n      dup5\n        /* \"contracts/ERC1155/MyERC1155Token.sol\":3698:3725  _operatorApprovals[account] */\n      0xffffffffffffffffffffffffffffffffffffffff\n      and\n      0xffffffffffffffffffffffffffffffffffffffff\n      and\n      dup2\n      mstore\n      0x20\n      add\n      swap1\n      dup2\n      mstore\n      0x20\n      add\n      0x00\n      keccak256\n        /* \"contracts/ERC1155/MyERC1155Token.sol\":3698:3735  _operatorApprovals[account][operator] */\n      0x00\n        /* \"contracts/ERC1155/MyERC1155Token.sol\":3726:3734  operator */\n      dup4\n        /* \"contracts/ERC1155/MyERC1155Token.sol\":3698:3735  _operatorApprovals[account][operator] */\n      0xffffffffffffffffffffffffffffffffffffffff\n      and\n      0xffffffffffffffffffffffffffffffffffffffff\n      and\n      dup2\n      mstore\n      0x20\n      add\n      swap1\n      dup2\n      mstore\n      0x20\n      add\n      0x00\n      keccak256\n      0x00\n      swap1\n      sload\n      swap1\n      0x0100\n      exp\n      swap1\n      div\n      0xff\n      and\n        /* \"contracts/ERC1155/MyERC1155Token.sol\":3691:3735  return _operatorApprovals[account][operator] */\n      swap1\n      pop\n        /* \"contracts/ERC1155/MyERC1155Token.sol\":3532:3742  function isApprovedForAll(address account, address operator)... */\n      swap3\n      swap2\n      pop\n      pop\n      jump\t// out\n        /* \"contracts/ERC1155/MyERC1155Token.sol\":4087:5127  function safeTransferFrom(... */\n    tag_66:\n        /* \"contracts/ERC1155/MyERC1155Token.sol\":4266:4282  address operator */\n      0x00\n        /* \"contracts/ERC1155/MyERC1155Token.sol\":4285:4295  msg.sender */\n      caller\n        /* \"contracts/ERC1155/MyERC1155Token.sol\":4266:4295  address operator = msg.sender */\n      swap1\n      pop\n        /* \"contracts/ERC1155/MyERC1155Token.sol\":4382:4390  operator */\n      dup1\n        /* \"contracts/ERC1155/MyERC1155Token.sol\":4374:4390  from == operator */\n      0xffffffffffffffffffffffffffffffffffffffff\n      and\n        /* \"contracts/ERC1155/MyERC1155Token.sol\":4374:4378  from */\n      dup7\n        /* \"contracts/ERC1155/MyERC1155Token.sol\":4374:4390  from == operator */\n      0xffffffffffffffffffffffffffffffffffffffff\n      and\n      eq\n        /* \"contracts/ERC1155/MyERC1155Token.sol\":4374:4426  from == operator || isApprovedForAll(from, operator) */\n      dup1\n      tag_149\n      jumpi\n      pop\n        /* \"contracts/ERC1155/MyERC1155Token.sol\":4394:4426  isApprovedForAll(from, operator) */\n      tag_150\n        /* \"contracts/ERC1155/MyERC1155Token.sol\":4411:4415  from */\n      dup7\n        /* \"contracts/ERC1155/MyERC1155Token.sol\":4417:4425  operator */\n      dup3\n        /* \"contracts/ERC1155/MyERC1155Token.sol\":4394:4410  isApprovedForAll */\n      tag_61\n        /* \"contracts/ERC1155/MyERC1155Token.sol\":4394:4426  isApprovedForAll(from, operator) */\n      jump\t// in\n    tag_150:\n        /* \"contracts/ERC1155/MyERC1155Token.sol\":4374:4426  from == operator || isApprovedForAll(from, operator) */\n    tag_149:\n        /* \"contracts/ERC1155/MyERC1155Token.sol\":4353:4499  require(... */\n      tag_151\n      jumpi\n      mload(0x40)\n      0x08c379a000000000000000000000000000000000000000000000000000000000\n      dup2\n      mstore\n      0x04\n      add\n      tag_152\n      swap1\n      tag_95\n      jump\t// in\n    tag_152:\n      mload(0x40)\n      dup1\n      swap2\n      sub\n      swap1\n      revert\n    tag_151:\n        /* \"contracts/ERC1155/MyERC1155Token.sol\":4531:4532  0 */\n      0x00\n        /* \"contracts/ERC1155/MyERC1155Token.sol\":4517:4533  to != address(0) */\n      0xffffffffffffffffffffffffffffffffffffffff\n      and\n        /* \"contracts/ERC1155/MyERC1155Token.sol\":4517:4519  to */\n      dup6\n        /* \"contracts/ERC1155/MyERC1155Token.sol\":4517:4533  to != address(0) */\n      0xffffffffffffffffffffffffffffffffffffffff\n      and\n      sub\n        /* \"contracts/ERC1155/MyERC1155Token.sol\":4509:4575  require(to != address(0), \"ERC1155: transfer to the zero address\") */\n      tag_153\n      jumpi\n      mload(0x40)\n      0x08c379a000000000000000000000000000000000000000000000000000000000\n      dup2\n      mstore\n      0x04\n      add\n      tag_154\n      swap1\n      tag_101\n      jump\t// in\n    tag_154:\n      mload(0x40)\n      dup1\n      swap2\n      sub\n      swap1\n      revert\n    tag_153:\n        /* \"contracts/ERC1155/MyERC1155Token.sol\":4622:4641  uint256 fromBalance */\n      0x00\n        /* \"contracts/ERC1155/MyERC1155Token.sol\":4644:4653  _balances */\n      0x02\n        /* \"contracts/ERC1155/MyERC1155Token.sol\":4644:4657  _balances[id] */\n      0x00\n        /* \"contracts/ERC1155/MyERC1155Token.sol\":4654:4656  id */\n      dup7\n        /* \"contracts/ERC1155/MyERC1155Token.sol\":4644:4657  _balances[id] */\n      dup2\n      mstore\n      0x20\n      add\n      swap1\n      dup2\n      mstore\n      0x20\n      add\n      0x00\n      keccak256\n        /* \"contracts/ERC1155/MyERC1155Token.sol\":4644:4663  _balances[id][from] */\n      0x00\n        /* \"contracts/ERC1155/MyERC1155Token.sol\":4658:4662  from */\n      dup9\n        /* \"contracts/ERC1155/MyERC1155Token.sol\":4644:4663  _balances[id][from] */\n      0xffffffffffffffffffffffffffffffffffffffff\n      and\n      0xffffffffffffffffffffffffffffffffffffffff\n      and\n      dup2\n      mstore\n      0x20\n      add\n      swap1\n      dup2\n      mstore\n      0x20\n      add\n      0x00\n      keccak256\n      sload\n        /* \"contracts/ERC1155/MyERC1155Token.sol\":4622:4663  uint256 fromBalance = _balances[id][from] */\n      swap1\n      pop\n        /* \"contracts/ERC1155/MyERC1155Token.sol\":4709:4715  amount */\n      dup4\n        /* \"contracts/ERC1155/MyERC1155Token.sol\":4694:4705  fromBalance */\n      dup2\n        /* \"contracts/ERC1155/MyERC1155Token.sol\":4694:4715  fromBalance >= amount */\n      lt\n      iszero\n        /* \"contracts/ERC1155/MyERC1155Token.sol\":4673:4783  require(... */\n      tag_155\n      jumpi\n      mload(0x40)\n      0x08c379a000000000000000000000000000000000000000000000000000000000\n      dup2\n      mstore\n      0x04\n      add\n      tag_156\n      swap1\n      tag_112\n      jump\t// in\n    tag_156:\n      mload(0x40)\n      dup1\n      swap2\n      sub\n      swap1\n      revert\n    tag_155:\n        /* \"contracts/ERC1155/MyERC1155Token.sol\":4880:4886  amount */\n      dup4\n        /* \"contracts/ERC1155/MyERC1155Token.sol\":4866:4877  fromBalance */\n      dup2\n        /* \"contracts/ERC1155/MyERC1155Token.sol\":4866:4886  fromBalance - amount */\n      sub\n        /* \"contracts/ERC1155/MyERC1155Token.sol\":4844:4853  _balances */\n      0x02\n        /* \"contracts/ERC1155/MyERC1155Token.sol\":4844:4857  _balances[id] */\n      0x00\n        /* \"contracts/ERC1155/MyERC1155Token.sol\":4854:4856  id */\n      dup8\n        /* \"contracts/ERC1155/MyERC1155Token.sol\":4844:4857  _balances[id] */\n      dup2\n      mstore\n      0x20\n      add\n      swap1\n      dup2\n      mstore\n      0x20\n      add\n      0x00\n      keccak256\n        /* \"contracts/ERC1155/MyERC1155Token.sol\":4844:4863  _balances[id][from] */\n      0x00\n        /* \"contracts/ERC1155/MyERC1155Token.sol\":4858:4862  from */\n      dup10\n        /* \"contracts/ERC1155/MyERC1155Token.sol\":4844:4863  _balances[id][from] */\n      0xffffffffffffffffffffffffffffffffffffffff\n      and\n      0xffffffffffffffffffffffffffffffffffffffff\n      and\n      dup2\n      mstore\n      0x20\n      add\n      swap1\n      dup2\n      mstore\n      0x20\n      add\n      0x00\n      keccak256\n        /* \"contracts/ERC1155/MyERC1155Token.sol\":4844:4886  _balances[id][from] = fromBalance - amount */\n      dup2\n      swap1\n      sstore\n      pop\n        /* \"contracts/ERC1155/MyERC1155Token.sol\":4927:4933  amount */\n      dup4\n        /* \"contracts/ERC1155/MyERC1155Token.sol\":4906:4915  _balances */\n      0x02\n        /* \"contracts/ERC1155/MyERC1155Token.sol\":4906:4919  _balances[id] */\n      0x00\n        /* \"contracts/ERC1155/MyERC1155Token.sol\":4916:4918  id */\n      dup8\n        /* \"contracts/ERC1155/MyERC1155Token.sol\":4906:4919  _balances[id] */\n      dup2\n      mstore\n      0x20\n      add\n      swap1\n      dup2\n      mstore\n      0x20\n      add\n      0x00\n      keccak256\n        /* \"contracts/ERC1155/MyERC1155Token.sol\":4906:4923  _balances[id][to] */\n      0x00\n        /* \"contracts/ERC1155/MyERC1155Token.sol\":4920:4922  to */\n      dup9\n        /* \"contracts/ERC1155/MyERC1155Token.sol\":4906:4923  _balances[id][to] */\n      0xffffffffffffffffffffffffffffffffffffffff\n      and\n      0xffffffffffffffffffffffffffffffffffffffff\n      and\n      dup2\n      mstore\n      0x20\n      add\n      swap1\n      dup2\n      mstore\n      0x20\n      add\n      0x00\n      keccak256\n      0x00\n        /* \"contracts/ERC1155/MyERC1155Token.sol\":4906:4933  _balances[id][to] += amount */\n      dup3\n      dup3\n      sload\n      tag_157\n      swap2\n      swap1\n      tag_114\n      jump\t// in\n    tag_157:\n      swap3\n      pop\n      pop\n      dup2\n      swap1\n      sstore\n      pop\n        /* \"contracts/ERC1155/MyERC1155Token.sol\":5003:5005  to */\n      dup6\n        /* \"contracts/ERC1155/MyERC1155Token.sol\":4972:5018  TransferSingle(operator, from, to, id, amount) */\n      0xffffffffffffffffffffffffffffffffffffffff\n      and\n        /* \"contracts/ERC1155/MyERC1155Token.sol\":4997:5001  from */\n      dup8\n        /* \"contracts/ERC1155/MyERC1155Token.sol\":4972:5018  TransferSingle(operator, from, to, id, amount) */\n      0xffffffffffffffffffffffffffffffffffffffff\n      and\n        /* \"contracts/ERC1155/MyERC1155Token.sol\":4987:4995  operator */\n      dup4\n        /* \"contracts/ERC1155/MyERC1155Token.sol\":4972:5018  TransferSingle(operator, from, to, id, amount) */\n      0xffffffffffffffffffffffffffffffffffffffff\n      and\n      0xc3d58168c5ae7397731d063d5bbf3d657854427343f4c083240f7aacaa2d0f62\n        /* \"contracts/ERC1155/MyERC1155Token.sol\":5007:5009  id */\n      dup9\n        /* \"contracts/ERC1155/MyERC1155Token.sol\":5011:5017  amount */\n      dup9\n        /* \"contracts/ERC1155/MyERC1155Token.sol\":4972:5018  TransferSingle(operator, from, to, id, amount) */\n      mload(0x40)\n      tag_158\n      swap3\n      swap2\n      swap1\n      tag_159\n      jump\t// in\n    tag_158:\n      mload(0x40)\n      dup1\n      swap2\n      sub\n      swap1\n      log4\n        /* \"contracts/ERC1155/MyERC1155Token.sol\":5052:5120  _doSafeTransferAcceptanceCheck(operator, from, to, id, amount, data) */\n      tag_160\n        /* \"contracts/ERC1155/MyERC1155Token.sol\":5083:5091  operator */\n      dup3\n        /* \"contracts/ERC1155/MyERC1155Token.sol\":5093:5097  from */\n      dup9\n        /* \"contracts/ERC1155/MyERC1155Token.sol\":5099:5101  to */\n      dup9\n        /* \"contracts/ERC1155/MyERC1155Token.sol\":5103:5105  id */\n      dup9\n        /* \"contracts/ERC1155/MyERC1155Token.sol\":5107:5113  amount */\n      dup9\n        /* \"contracts/ERC1155/MyERC1155Token.sol\":5115:5119  data */\n      dup9\n        /* \"contracts/ERC1155/MyERC1155Token.sol\":5052:5082  _doSafeTransferAcceptanceCheck */\n      tag_161\n        /* \"contracts/ERC1155/MyERC1155Token.sol\":5052:5120  _doSafeTransferAcceptanceCheck(operator, from, to, id, amount, data) */\n      jump\t// in\n    tag_160:\n        /* \"contracts/ERC1155/MyERC1155Token.sol\":4256:5127  {... */\n      pop\n      pop\n        /* \"contracts/ERC1155/MyERC1155Token.sol\":4087:5127  function safeTransferFrom(... */\n      pop\n      pop\n      pop\n      pop\n      pop\n      jump\t// out\n        /* \"contracts/ERC1155/MyERC1155Token.sol\":12316:12408  function _baseURI() internal view virtual returns (string memory) {... */\n    tag_82:\n        /* \"contracts/ERC1155/MyERC1155Token.sol\":12367:12380  string memory */\n      0x60\n        /* \"contracts/ERC1155/MyERC1155Token.sol\":12392:12401  return \"\" */\n      mload(0x40)\n      dup1\n      0x20\n      add\n      0x40\n      mstore\n      dup1\n      0x00\n      dup2\n      mstore\n      pop\n      swap1\n      pop\n        /* \"contracts/ERC1155/MyERC1155Token.sol\":12316:12408  function _baseURI() internal view virtual returns (string memory) {... */\n      swap1\n      jump\t// out\n        /* \"https://github.com/AmazingAng/WTF-Solidity/blob/main/34_ERC721/String.sol\":393:1096  function toString(uint256 value) internal pure returns (string memory) {... */\n    tag_86:\n        /* \"https://github.com/AmazingAng/WTF-Solidity/blob/main/34_ERC721/String.sol\":449:462  string memory */\n      0x60\n        /* \"https://github.com/AmazingAng/WTF-Solidity/blob/main/34_ERC721/String.sol\":675:676  0 */\n      0x00\n        /* \"https://github.com/AmazingAng/WTF-Solidity/blob/main/34_ERC721/String.sol\":666:671  value */\n      dup3\n        /* \"https://github.com/AmazingAng/WTF-Solidity/blob/main/34_ERC721/String.sol\":666:676  value == 0 */\n      sub\n        /* \"https://github.com/AmazingAng/WTF-Solidity/blob/main/34_ERC721/String.sol\":662:713  if (value == 0) {... */\n      tag_164\n      jumpi\n        /* \"https://github.com/AmazingAng/WTF-Solidity/blob/main/34_ERC721/String.sol\":692:702  return \"0\" */\n      mload(0x40)\n      dup1\n      0x40\n      add\n      0x40\n      mstore\n      dup1\n      0x01\n      dup2\n      mstore\n      0x20\n      add\n      0x3000000000000000000000000000000000000000000000000000000000000000\n      dup2\n      mstore\n      pop\n      swap1\n      pop\n      jump(tag_163)\n        /* \"https://github.com/AmazingAng/WTF-Solidity/blob/main/34_ERC721/String.sol\":662:713  if (value == 0) {... */\n    tag_164:\n        /* \"https://github.com/AmazingAng/WTF-Solidity/blob/main/34_ERC721/String.sol\":722:734  uint256 temp */\n      0x00\n        /* \"https://github.com/AmazingAng/WTF-Solidity/blob/main/34_ERC721/String.sol\":737:742  value */\n      dup3\n        /* \"https://github.com/AmazingAng/WTF-Solidity/blob/main/34_ERC721/String.sol\":722:742  uint256 temp = value */\n      swap1\n      pop\n        /* \"https://github.com/AmazingAng/WTF-Solidity/blob/main/34_ERC721/String.sol\":752:766  uint256 digits */\n      0x00\n        /* \"https://github.com/AmazingAng/WTF-Solidity/blob/main/34_ERC721/String.sol\":776:851  while (temp != 0) {... */\n    tag_165:\n        /* \"https://github.com/AmazingAng/WTF-Solidity/blob/main/34_ERC721/String.sol\":791:792  0 */\n      0x00\n        /* \"https://github.com/AmazingAng/WTF-Solidity/blob/main/34_ERC721/String.sol\":783:787  temp */\n      dup3\n        /* \"https://github.com/AmazingAng/WTF-Solidity/blob/main/34_ERC721/String.sol\":783:792  temp != 0 */\n      eq\n        /* \"https://github.com/AmazingAng/WTF-Solidity/blob/main/34_ERC721/String.sol\":776:851  while (temp != 0) {... */\n      tag_166\n      jumpi\n        /* \"https://github.com/AmazingAng/WTF-Solidity/blob/main/34_ERC721/String.sol\":808:816  digits++ */\n      dup1\n      dup1\n      tag_167\n      swap1\n      tag_168\n      jump\t// in\n    tag_167:\n      swap2\n      pop\n      pop\n        /* \"https://github.com/AmazingAng/WTF-Solidity/blob/main/34_ERC721/String.sol\":838:840  10 */\n      0x0a\n        /* \"https://github.com/AmazingAng/WTF-Solidity/blob/main/34_ERC721/String.sol\":830:840  temp /= 10 */\n      dup3\n      tag_169\n      swap2\n      swap1\n      tag_170\n      jump\t// in\n    tag_169:\n      swap2\n      pop\n        /* \"https://github.com/AmazingAng/WTF-Solidity/blob/main/34_ERC721/String.sol\":776:851  while (temp != 0) {... */\n      jump(tag_165)\n    tag_166:\n        /* \"https://github.com/AmazingAng/WTF-Solidity/blob/main/34_ERC721/String.sol\":860:879  bytes memory buffer */\n      0x00\n        /* \"https://github.com/AmazingAng/WTF-Solidity/blob/main/34_ERC721/String.sol\":892:898  digits */\n      dup2\n        /* \"https://github.com/AmazingAng/WTF-Solidity/blob/main/34_ERC721/String.sol\":882:899  new bytes(digits) */\n      0xffffffffffffffff\n      dup2\n      gt\n      iszero\n      tag_171\n      jumpi\n      tag_172\n      tag_125\n      jump\t// in\n    tag_172:\n    tag_171:\n      mload(0x40)\n      swap1\n      dup1\n      dup3\n      mstore\n      dup1\n      0x1f\n      add\n      not(0x1f)\n      and\n      0x20\n      add\n      dup3\n      add\n      0x40\n      mstore\n      dup1\n      iszero\n      tag_173\n      jumpi\n      dup2\n      0x20\n      add\n      0x01\n      dup3\n      mul\n      dup1\n      calldatasize\n      dup4\n      calldatacopy\n      dup1\n      dup3\n      add\n      swap2\n      pop\n      pop\n      swap1\n      pop\n    tag_173:\n      pop\n        /* \"https://github.com/AmazingAng/WTF-Solidity/blob/main/34_ERC721/String.sol\":860:899  bytes memory buffer = new bytes(digits) */\n      swap1\n      pop\n        /* \"https://github.com/AmazingAng/WTF-Solidity/blob/main/34_ERC721/String.sol\":909:1059  while (value != 0) {... */\n    tag_174:\n        /* \"https://github.com/AmazingAng/WTF-Solidity/blob/main/34_ERC721/String.sol\":925:926  0 */\n      0x00\n        /* \"https://github.com/AmazingAng/WTF-Solidity/blob/main/34_ERC721/String.sol\":916:921  value */\n      dup6\n        /* \"https://github.com/AmazingAng/WTF-Solidity/blob/main/34_ERC721/String.sol\":916:926  value != 0 */\n      eq\n        /* \"https://github.com/AmazingAng/WTF-Solidity/blob/main/34_ERC721/String.sol\":909:1059  while (value != 0) {... */\n      tag_175\n      jumpi\n        /* \"https://github.com/AmazingAng/WTF-Solidity/blob/main/34_ERC721/String.sol\":952:953  1 */\n      0x01\n        /* \"https://github.com/AmazingAng/WTF-Solidity/blob/main/34_ERC721/String.sol\":942:953  digits -= 1 */\n      dup3\n      tag_176\n      swap2\n      swap1\n      tag_177\n      jump\t// in\n    tag_176:\n      swap2\n      pop\n        /* \"https://github.com/AmazingAng/WTF-Solidity/blob/main/34_ERC721/String.sol\":1018:1020  10 */\n      0x0a\n        /* \"https://github.com/AmazingAng/WTF-Solidity/blob/main/34_ERC721/String.sol\":1010:1015  value */\n      dup6\n        /* \"https://github.com/AmazingAng/WTF-Solidity/blob/main/34_ERC721/String.sol\":1010:1020  value % 10 */\n      tag_178\n      swap2\n      swap1\n      tag_179\n      jump\t// in\n    tag_178:\n        /* \"https://github.com/AmazingAng/WTF-Solidity/blob/main/34_ERC721/String.sol\":997:999  48 */\n      0x30\n        /* \"https://github.com/AmazingAng/WTF-Solidity/blob/main/34_ERC721/String.sol\":997:1021  48 + uint256(value % 10) */\n      tag_180\n      swap2\n      swap1\n      tag_114\n      jump\t// in\n    tag_180:\n        /* \"https://github.com/AmazingAng/WTF-Solidity/blob/main/34_ERC721/String.sol\":984:1023  bytes1(uint8(48 + uint256(value % 10))) */\n      0xf8\n      shl\n        /* \"https://github.com/AmazingAng/WTF-Solidity/blob/main/34_ERC721/String.sol\":967:973  buffer */\n      dup2\n        /* \"https://github.com/AmazingAng/WTF-Solidity/blob/main/34_ERC721/String.sol\":974:980  digits */\n      dup4\n        /* \"https://github.com/AmazingAng/WTF-Solidity/blob/main/34_ERC721/String.sol\":967:981  buffer[digits] */\n      dup2\n      mload\n      dup2\n      lt\n      tag_181\n      jumpi\n      tag_182\n      tag_107\n      jump\t// in\n    tag_182:\n    tag_181:\n      0x20\n      add\n      add\n        /* \"https://github.com/AmazingAng/WTF-Solidity/blob/main/34_ERC721/String.sol\":967:1023  buffer[digits] = bytes1(uint8(48 + uint256(value % 10))) */\n      swap1\n      not(0xffffffffffffffffffffffffffffffffffffffffffffffffffffffffffffff)\n      and\n      swap1\n      dup2\n      0x00\n      byte\n      swap1\n      mstore8\n      pop\n        /* \"https://github.com/AmazingAng/WTF-Solidity/blob/main/34_ERC721/String.sol\":1046:1048  10 */\n      0x0a\n        /* \"https://github.com/AmazingAng/WTF-Solidity/blob/main/34_ERC721/String.sol\":1037:1048  value /= 10 */\n      dup6\n      tag_183\n      swap2\n      swap1\n      tag_170\n      jump\t// in\n    tag_183:\n      swap5\n      pop\n        /* \"https://github.com/AmazingAng/WTF-Solidity/blob/main/34_ERC721/String.sol\":909:1059  while (value != 0) {... */\n      jump(tag_174)\n    tag_175:\n        /* \"https://github.com/AmazingAng/WTF-Solidity/blob/main/34_ERC721/String.sol\":1082:1088  buffer */\n      dup1\n        /* \"https://github.com/AmazingAng/WTF-Solidity/blob/main/34_ERC721/String.sol\":1068:1089  return string(buffer) */\n      swap4\n      pop\n      pop\n      pop\n      pop\n        /* \"https://github.com/AmazingAng/WTF-Solidity/blob/main/34_ERC721/String.sol\":393:1096  function toString(uint256 value) internal pure returns (string memory) {... */\n    tag_163:\n      swap2\n      swap1\n      pop\n      jump\t// out\n        /* \"contracts/ERC1155/MyERC1155Token.sol\":10821:11766  function _doSafeBatchTransferAcceptanceCheck(... */\n    tag_118:\n        /* \"contracts/ERC1155/MyERC1155Token.sol\":11053:11067  isContract(to) */\n      tag_185\n        /* \"contracts/ERC1155/MyERC1155Token.sol\":11064:11066  to */\n      dup5\n        /* \"contracts/ERC1155/MyERC1155Token.sol\":11053:11063  isContract */\n      tag_39\n        /* \"contracts/ERC1155/MyERC1155Token.sol\":11053:11067  isContract(to) */\n      jump\t// in\n    tag_185:\n        /* \"contracts/ERC1155/MyERC1155Token.sol\":11049:11760  if (isContract(to)) {... */\n      iszero\n      tag_186\n      jumpi\n        /* \"contracts/ERC1155/MyERC1155Token.sol\":11120:11122  to */\n      dup4\n        /* \"contracts/ERC1155/MyERC1155Token.sol\":11103:11146  IERC1155Receiver(to).onERC1155BatchReceived */\n      0xffffffffffffffffffffffffffffffffffffffff\n      and\n      0xbc197c81\n        /* \"contracts/ERC1155/MyERC1155Token.sol\":11168:11176  operator */\n      dup8\n        /* \"contracts/ERC1155/MyERC1155Token.sol\":11198:11202  from */\n      dup8\n        /* \"contracts/ERC1155/MyERC1155Token.sol\":11224:11227  ids */\n      dup7\n        /* \"contracts/ERC1155/MyERC1155Token.sol\":11249:11256  amounts */\n      dup7\n        /* \"contracts/ERC1155/MyERC1155Token.sol\":11278:11282  data */\n      dup7\n        /* \"contracts/ERC1155/MyERC1155Token.sol\":11103:11300  IERC1155Receiver(to).onERC1155BatchReceived(... */\n      mload(0x40)\n      dup7\n      0xffffffff\n      and\n      0xe0\n      shl\n      dup2\n      mstore\n      0x04\n      add\n      tag_187\n      swap6\n      swap5\n      swap4\n      swap3\n      swap2\n      swap1\n      tag_188\n      jump\t// in\n    tag_187:\n      0x20\n      mload(0x40)\n      dup1\n      dup4\n      sub\n      dup2\n      0x00\n      dup8\n      gas\n      call\n      swap3\n      pop\n      pop\n      pop\n      dup1\n      iszero\n      tag_189\n      jumpi\n      pop\n      mload(0x40)\n      returndatasize\n      not(0x1f)\n      0x1f\n      dup3\n      add\n      and\n      dup3\n      add\n      dup1\n      0x40\n      mstore\n      pop\n      dup2\n      add\n      swap1\n      tag_190\n      swap2\n      swap1\n      tag_191\n      jump\t// in\n    tag_190:\n      0x01\n    tag_189:\n        /* \"contracts/ERC1155/MyERC1155Token.sol\":11083:11750  try... */\n      tag_192\n      jumpi\n      tag_196\n      tag_197\n      jump\t// in\n    tag_196:\n      dup1\n      0x08c379a0\n      sub\n      tag_195\n      jumpi\n      pop\n      tag_198\n      tag_199\n      jump\t// in\n    tag_198:\n      dup1\n      tag_200\n      jumpi\n      pop\n      jump(tag_194)\n    tag_200:\n        /* \"contracts/ERC1155/MyERC1155Token.sol\":11626:11632  reason */\n      dup1\n        /* \"contracts/ERC1155/MyERC1155Token.sol\":11619:11633  revert(reason) */\n      mload(0x40)\n      0x08c379a000000000000000000000000000000000000000000000000000000000\n      dup2\n      mstore\n      0x04\n      add\n      tag_201\n      swap2\n      swap1\n      tag_30\n      jump\t// in\n    tag_201:\n      mload(0x40)\n      dup1\n      swap2\n      sub\n      swap1\n      revert\n        /* \"contracts/ERC1155/MyERC1155Token.sol\":11083:11750  try... */\n    tag_195:\n      pop\n    tag_194:\n        /* \"contracts/ERC1155/MyERC1155Token.sol\":11673:11735  revert(\"ERC1155: transfer to non-ERC1155Receiver implementer\") */\n      mload(0x40)\n      0x08c379a000000000000000000000000000000000000000000000000000000000\n      dup2\n      mstore\n      0x04\n      add\n      tag_202\n      swap1\n      tag_203\n      jump\t// in\n    tag_202:\n      mload(0x40)\n      dup1\n      swap2\n      sub\n      swap1\n      revert\n        /* \"contracts/ERC1155/MyERC1155Token.sol\":11083:11750  try... */\n    tag_192:\n        /* \"contracts/ERC1155/MyERC1155Token.sol\":11394:11442  IERC1155Receiver.onERC1155BatchReceived.selector */\n      shl(0xe0, 0xbc197c81)\n        /* \"contracts/ERC1155/MyERC1155Token.sol\":11382:11442  response != IERC1155Receiver.onERC1155BatchReceived.selector */\n      not(0xffffffffffffffffffffffffffffffffffffffffffffffffffffffff)\n      and\n        /* \"contracts/ERC1155/MyERC1155Token.sol\":11382:11390  response */\n      dup2\n        /* \"contracts/ERC1155/MyERC1155Token.sol\":11382:11442  response != IERC1155Receiver.onERC1155BatchReceived.selector */\n      not(0xffffffffffffffffffffffffffffffffffffffffffffffffffffffff)\n      and\n      eq\n        /* \"contracts/ERC1155/MyERC1155Token.sol\":11357:11552  if (... */\n      tag_205\n      jumpi\n        /* \"contracts/ERC1155/MyERC1155Token.sol\":11483:11533  revert(\"ERC1155: ERC1155Receiver rejected tokens\") */\n      mload(0x40)\n      0x08c379a000000000000000000000000000000000000000000000000000000000\n      dup2\n      mstore\n      0x04\n      add\n      tag_206\n      swap1\n      tag_207\n      jump\t// in\n    tag_206:\n      mload(0x40)\n      dup1\n      swap2\n      sub\n      swap1\n      revert\n        /* \"contracts/ERC1155/MyERC1155Token.sol\":11357:11552  if (... */\n    tag_205:\n        /* \"contracts/ERC1155/MyERC1155Token.sol\":11313:11566  returns (bytes4 response) {... */\n      pop\n        /* \"contracts/ERC1155/MyERC1155Token.sol\":11049:11760  if (isContract(to)) {... */\n    tag_186:\n        /* \"contracts/ERC1155/MyERC1155Token.sol\":10821:11766  function _doSafeBatchTransferAcceptanceCheck(... */\n      pop\n      pop\n      pop\n      pop\n      pop\n      pop\n      jump\t// out\n        /* \"contracts/ERC1155/MyERC1155Token.sol\":9898:10768  function _doSafeTransferAcceptanceCheck(... */\n    tag_161:\n        /* \"contracts/ERC1155/MyERC1155Token.sol\":10105:10119  isContract(to) */\n      tag_209\n        /* \"contracts/ERC1155/MyERC1155Token.sol\":10116:10118  to */\n      dup5\n        /* \"contracts/ERC1155/MyERC1155Token.sol\":10105:10115  isContract */\n      tag_39\n        /* \"contracts/ERC1155/MyERC1155Token.sol\":10105:10119  isContract(to) */\n      jump\t// in\n    tag_209:\n        /* \"contracts/ERC1155/MyERC1155Token.sol\":10101:10762  if (isContract(to)) {... */\n      iszero\n      tag_210\n      jumpi\n        /* \"contracts/ERC1155/MyERC1155Token.sol\":10172:10174  to */\n      dup4\n        /* \"contracts/ERC1155/MyERC1155Token.sol\":10155:10193  IERC1155Receiver(to).onERC1155Received */\n      0xffffffffffffffffffffffffffffffffffffffff\n      and\n      0xf23a6e61\n        /* \"contracts/ERC1155/MyERC1155Token.sol\":10215:10223  operator */\n      dup8\n        /* \"contracts/ERC1155/MyERC1155Token.sol\":10245:10249  from */\n      dup8\n        /* \"contracts/ERC1155/MyERC1155Token.sol\":10271:10273  id */\n      dup7\n        /* \"contracts/ERC1155/MyERC1155Token.sol\":10295:10301  amount */\n      dup7\n        /* \"contracts/ERC1155/MyERC1155Token.sol\":10323:10327  data */\n      dup7\n        /* \"contracts/ERC1155/MyERC1155Token.sol\":10155:10345  IERC1155Receiver(to).onERC1155Received(... */\n      mload(0x40)\n      dup7\n      0xffffffff\n      and\n      0xe0\n      shl\n      dup2\n      mstore\n      0x04\n      add\n      tag_211\n      swap6\n      swap5\n      swap4\n      swap3\n      swap2\n      swap1\n      tag_212\n      jump\t// in\n    tag_211:\n      0x20\n      mload(0x40)\n      dup1\n      dup4\n      sub\n      dup2\n      0x00\n      dup8\n      gas\n      call\n      swap3\n      pop\n      pop\n      pop\n      dup1\n      iszero\n      tag_213\n      jumpi\n      pop\n      mload(0x40)\n      returndatasize\n      not(0x1f)\n      0x1f\n      dup3\n      add\n      and\n      dup3\n      add\n      dup1\n      0x40\n      mstore\n      pop\n      dup2\n      add\n      swap1\n      tag_214\n      swap2\n      swap1\n      tag_191\n      jump\t// in\n    tag_214:\n      0x01\n    tag_213:\n        /* \"contracts/ERC1155/MyERC1155Token.sol\":10135:10752  try... */\n      tag_215\n      jumpi\n      tag_219\n      tag_197\n      jump\t// in\n    tag_219:\n      dup1\n      0x08c379a0\n      sub\n      tag_218\n      jumpi\n      pop\n      tag_220\n      tag_199\n      jump\t// in\n    tag_220:\n      dup1\n      tag_221\n      jumpi\n      pop\n      jump(tag_217)\n    tag_221:\n        /* \"contracts/ERC1155/MyERC1155Token.sol\":10628:10634  reason */\n      dup1\n        /* \"contracts/ERC1155/MyERC1155Token.sol\":10621:10635  revert(reason) */\n      mload(0x40)\n      0x08c379a000000000000000000000000000000000000000000000000000000000\n      dup2\n      mstore\n      0x04\n      add\n      tag_222\n      swap2\n      swap1\n      tag_30\n      jump\t// in\n    tag_222:\n      mload(0x40)\n      dup1\n      swap2\n      sub\n      swap1\n      revert\n        /* \"contracts/ERC1155/MyERC1155Token.sol\":10135:10752  try... */\n    tag_218:\n      pop\n    tag_217:\n        /* \"contracts/ERC1155/MyERC1155Token.sol\":10675:10737  revert(\"ERC1155: transfer to non-ERC1155Receiver implementer\") */\n      mload(0x40)\n      0x08c379a000000000000000000000000000000000000000000000000000000000\n      dup2\n      mstore\n      0x04\n      add\n      tag_223\n      swap1\n      tag_203\n      jump\t// in\n    tag_223:\n      mload(0x40)\n      dup1\n      swap2\n      sub\n      swap1\n      revert\n        /* \"contracts/ERC1155/MyERC1155Token.sol\":10135:10752  try... */\n    tag_215:\n        /* \"contracts/ERC1155/MyERC1155Token.sol\":10418:10461  IERC1155Receiver.onERC1155Received.selector */\n      shl(0xe0, 0xf23a6e61)\n        /* \"contracts/ERC1155/MyERC1155Token.sol\":10406:10461  response != IERC1155Receiver.onERC1155Received.selector */\n      not(0xffffffffffffffffffffffffffffffffffffffffffffffffffffffff)\n      and\n        /* \"contracts/ERC1155/MyERC1155Token.sol\":10406:10414  response */\n      dup2\n        /* \"contracts/ERC1155/MyERC1155Token.sol\":10406:10461  response != IERC1155Receiver.onERC1155Received.selector */\n      not(0xffffffffffffffffffffffffffffffffffffffffffffffffffffffff)\n      and\n      eq\n        /* \"contracts/ERC1155/MyERC1155Token.sol\":10402:10554  if (response != IERC1155Receiver.onERC1155Received.selector) {... */\n      tag_225\n      jumpi\n        /* \"contracts/ERC1155/MyERC1155Token.sol\":10485:10535  revert(\"ERC1155: ERC1155Receiver rejected tokens\") */\n      mload(0x40)\n      0x08c379a000000000000000000000000000000000000000000000000000000000\n      dup2\n      mstore\n      0x04\n      add\n      tag_226\n      swap1\n      tag_207\n      jump\t// in\n    tag_226:\n      mload(0x40)\n      dup1\n      swap2\n      sub\n      swap1\n      revert\n        /* \"contracts/ERC1155/MyERC1155Token.sol\":10402:10554  if (response != IERC1155Receiver.onERC1155Received.selector) {... */\n    tag_225:\n        /* \"contracts/ERC1155/MyERC1155Token.sol\":10358:10568  returns (bytes4 response) {... */\n      pop\n        /* \"contracts/ERC1155/MyERC1155Token.sol\":10101:10762  if (isContract(to)) {... */\n    tag_210:\n        /* \"contracts/ERC1155/MyERC1155Token.sol\":9898:10768  function _doSafeTransferAcceptanceCheck(... */\n      pop\n      pop\n      pop\n      pop\n      pop\n      pop\n      jump\t// out\n        /* \"#utility.yul\":7:82   */\n    tag_227:\n        /* \"#utility.yul\":40:46   */\n      0x00\n        /* \"#utility.yul\":73:75   */\n      0x40\n        /* \"#utility.yul\":67:76   */\n      mload\n        /* \"#utility.yul\":57:76   */\n      swap1\n      pop\n        /* \"#utility.yul\":7:82   */\n      swap1\n      jump\t// out\n        /* \"#utility.yul\":88:205   */\n    tag_228:\n        /* \"#utility.yul\":197:198   */\n      0x00\n        /* \"#utility.yul\":194:195   */\n      dup1\n        /* \"#utility.yul\":187:199   */\n      revert\n        /* \"#utility.yul\":211:328   */\n    tag_229:\n        /* \"#utility.yul\":320:321   */\n      0x00\n        /* \"#utility.yul\":317:318   */\n      dup1\n        /* \"#utility.yul\":310:322   */\n      revert\n        /* \"#utility.yul\":334:460   */\n    tag_230:\n        /* \"#utility.yul\":371:378   */\n      0x00\n        /* \"#utility.yul\":411:453   */\n      0xffffffffffffffffffffffffffffffffffffffff\n        /* \"#utility.yul\":404:409   */\n      dup3\n        /* \"#utility.yul\":400:454   */\n      and\n        /* \"#utility.yul\":389:454   */\n      swap1\n      pop\n        /* \"#utility.yul\":334:460   */\n      swap2\n      swap1\n      pop\n      jump\t// out\n        /* \"#utility.yul\":466:562   */\n    tag_231:\n        /* \"#utility.yul\":503:510   */\n      0x00\n        /* \"#utility.yul\":532:556   */\n      tag_307\n        /* \"#utility.yul\":550:555   */\n      dup3\n        /* \"#utility.yul\":532:556   */\n      tag_230\n      jump\t// in\n    tag_307:\n        /* \"#utility.yul\":521:556   */\n      swap1\n      pop\n        /* \"#utility.yul\":466:562   */\n      swap2\n      swap1\n      pop\n      jump\t// out\n        /* \"#utility.yul\":568:690   */\n    tag_232:\n        /* \"#utility.yul\":641:665   */\n      tag_309\n        /* \"#utility.yul\":659:664   */\n      dup2\n        /* \"#utility.yul\":641:665   */\n      tag_231\n      jump\t// in\n    tag_309:\n        /* \"#utility.yul\":634:639   */\n      dup2\n        /* \"#utility.yul\":631:666   */\n      eq\n        /* \"#utility.yul\":621:684   */\n      tag_310\n      jumpi\n        /* \"#utility.yul\":680:681   */\n      0x00\n        /* \"#utility.yul\":677:678   */\n      dup1\n        /* \"#utility.yul\":670:682   */\n      revert\n        /* \"#utility.yul\":621:684   */\n    tag_310:\n        /* \"#utility.yul\":568:690   */\n      pop\n      jump\t// out\n        /* \"#utility.yul\":696:835   */\n    tag_233:\n        /* \"#utility.yul\":742:747   */\n      0x00\n        /* \"#utility.yul\":780:786   */\n      dup2\n        /* \"#utility.yul\":767:787   */\n      calldataload\n        /* \"#utility.yul\":758:787   */\n      swap1\n      pop\n        /* \"#utility.yul\":796:829   */\n      tag_312\n        /* \"#utility.yul\":823:828   */\n      dup2\n        /* \"#utility.yul\":796:829   */\n      tag_232\n      jump\t// in\n    tag_312:\n        /* \"#utility.yul\":696:835   */\n      swap3\n      swap2\n      pop\n      pop\n      jump\t// out\n        /* \"#utility.yul\":841:918   */\n    tag_234:\n        /* \"#utility.yul\":878:885   */\n      0x00\n        /* \"#utility.yul\":907:912   */\n      dup2\n        /* \"#utility.yul\":896:912   */\n      swap1\n      pop\n        /* \"#utility.yul\":841:918   */\n      swap2\n      swap1\n      pop\n      jump\t// out\n        /* \"#utility.yul\":924:1046   */\n    tag_235:\n        /* \"#utility.yul\":997:1021   */\n      tag_315\n        /* \"#utility.yul\":1015:1020   */\n      dup2\n        /* \"#utility.yul\":997:1021   */\n      tag_234\n      jump\t// in\n    tag_315:\n        /* \"#utility.yul\":990:995   */\n      dup2\n        /* \"#utility.yul\":987:1022   */\n      eq\n        /* \"#utility.yul\":977:1040   */\n      tag_316\n      jumpi\n        /* \"#utility.yul\":1036:1037   */\n      0x00\n        /* \"#utility.yul\":1033:1034   */\n      dup1\n        /* \"#utility.yul\":1026:1038   */\n      revert\n        /* \"#utility.yul\":977:1040   */\n    tag_316:\n        /* \"#utility.yul\":924:1046   */\n      pop\n      jump\t// out\n        /* \"#utility.yul\":1052:1191   */\n    tag_236:\n        /* \"#utility.yul\":1098:1103   */\n      0x00\n        /* \"#utility.yul\":1136:1142   */\n      dup2\n        /* \"#utility.yul\":1123:1143   */\n      calldataload\n        /* \"#utility.yul\":1114:1143   */\n      swap1\n      pop\n        /* \"#utility.yul\":1152:1185   */\n      tag_318\n        /* \"#utility.yul\":1179:1184   */\n      dup2\n        /* \"#utility.yul\":1152:1185   */\n      tag_235\n      jump\t// in\n    tag_318:\n        /* \"#utility.yul\":1052:1191   */\n      swap3\n      swap2\n      pop\n      pop\n      jump\t// out\n        /* \"#utility.yul\":1197:1671   */\n    tag_17:\n        /* \"#utility.yul\":1265:1271   */\n      0x00\n        /* \"#utility.yul\":1273:1279   */\n      dup1\n        /* \"#utility.yul\":1322:1324   */\n      0x40\n        /* \"#utility.yul\":1310:1319   */\n      dup4\n        /* \"#utility.yul\":1301:1308   */\n      dup6\n        /* \"#utility.yul\":1297:1320   */\n      sub\n        /* \"#utility.yul\":1293:1325   */\n      slt\n        /* \"#utility.yul\":1290:1409   */\n      iszero\n      tag_320\n      jumpi\n        /* \"#utility.yul\":1328:1407   */\n      tag_321\n      tag_228\n      jump\t// in\n    tag_321:\n        /* \"#utility.yul\":1290:1409   */\n    tag_320:\n        /* \"#utility.yul\":1448:1449   */\n      0x00\n        /* \"#utility.yul\":1473:1526   */\n      tag_322\n        /* \"#utility.yul\":1518:1525   */\n      dup6\n        /* \"#utility.yul\":1509:1515   */\n      dup3\n        /* \"#utility.yul\":1498:1507   */\n      dup7\n        /* \"#utility.yul\":1494:1516   */\n      add\n        /* \"#utility.yul\":1473:1526   */\n      tag_233\n      jump\t// in\n    tag_322:\n        /* \"#utility.yul\":1463:1526   */\n      swap3\n      pop\n        /* \"#utility.yul\":1419:1536   */\n      pop\n        /* \"#utility.yul\":1575:1577   */\n      0x20\n        /* \"#utility.yul\":1601:1654   */\n      tag_323\n        /* \"#utility.yul\":1646:1653   */\n      dup6\n        /* \"#utility.yul\":1637:1643   */\n      dup3\n        /* \"#utility.yul\":1626:1635   */\n      dup7\n        /* \"#utility.yul\":1622:1644   */\n      add\n        /* \"#utility.yul\":1601:1654   */\n      tag_236\n      jump\t// in\n    tag_323:\n        /* \"#utility.yul\":1591:1654   */\n      swap2\n      pop\n        /* \"#utility.yul\":1546:1664   */\n      pop\n        /* \"#utility.yul\":1197:1671   */\n      swap3\n      pop\n      swap3\n      swap1\n      pop\n      jump\t// out\n        /* \"#utility.yul\":1677:1795   */\n    tag_237:\n        /* \"#utility.yul\":1764:1788   */\n      tag_325\n        /* \"#utility.yul\":1782:1787   */\n      dup2\n        /* \"#utility.yul\":1764:1788   */\n      tag_234\n      jump\t// in\n    tag_325:\n        /* \"#utility.yul\":1759:1762   */\n      dup3\n        /* \"#utility.yul\":1752:1789   */\n      mstore\n        /* \"#utility.yul\":1677:1795   */\n      pop\n      pop\n      jump\t// out\n        /* \"#utility.yul\":1801:2023   */\n    tag_20:\n        /* \"#utility.yul\":1894:1898   */\n      0x00\n        /* \"#utility.yul\":1932:1934   */\n      0x20\n        /* \"#utility.yul\":1921:1930   */\n      dup3\n        /* \"#utility.yul\":1917:1935   */\n      add\n        /* \"#utility.yul\":1909:1935   */\n      swap1\n      pop\n        /* \"#utility.yul\":1945:2016   */\n      tag_327\n        /* \"#utility.yul\":2013:2014   */\n      0x00\n        /* \"#utility.yul\":2002:2011   */\n      dup4\n        /* \"#utility.yul\":1998:2015   */\n      add\n        /* \"#utility.yul\":1989:1995   */\n      dup5\n        /* \"#utility.yul\":1945:2016   */\n      tag_237\n      jump\t// in\n    tag_327:\n        /* \"#utility.yul\":1801:2023   */\n      swap3\n      swap2\n      pop\n      pop\n      jump\t// out\n        /* \"#utility.yul\":2029:2178   */\n    tag_238:\n        /* \"#utility.yul\":2065:2072   */\n      0x00\n        /* \"#utility.yul\":2105:2171   */\n      0xffffffff00000000000000000000000000000000000000000000000000000000\n        /* \"#utility.yul\":2098:2103   */\n      dup3\n        /* \"#utility.yul\":2094:2172   */\n      and\n        /* \"#utility.yul\":2083:2172   */\n      swap1\n      pop\n        /* \"#utility.yul\":2029:2178   */\n      swap2\n      swap1\n      pop\n      jump\t// out\n        /* \"#utility.yul\":2184:2304   */\n    tag_239:\n        /* \"#utility.yul\":2256:2279   */\n      tag_330\n        /* \"#utility.yul\":2273:2278   */\n      dup2\n        /* \"#utility.yul\":2256:2279   */\n      tag_238\n      jump\t// in\n    tag_330:\n        /* \"#utility.yul\":2249:2254   */\n      dup2\n        /* \"#utility.yul\":2246:2280   */\n      eq\n        /* \"#utility.yul\":2236:2298   */\n      tag_331\n      jumpi\n        /* \"#utility.yul\":2294:2295   */\n      0x00\n        /* \"#utility.yul\":2291:2292   */\n      dup1\n        /* \"#utility.yul\":2284:2296   */\n      revert\n        /* \"#utility.yul\":2236:2298   */\n    tag_331:\n        /* \"#utility.yul\":2184:2304   */\n      pop\n      jump\t// out\n        /* \"#utility.yul\":2310:2447   */\n    tag_240:\n        /* \"#utility.yul\":2355:2360   */\n      0x00\n        /* \"#utility.yul\":2393:2399   */\n      dup2\n        /* \"#utility.yul\":2380:2400   */\n      calldataload\n        /* \"#utility.yul\":2371:2400   */\n      swap1\n      pop\n        /* \"#utility.yul\":2409:2441   */\n      tag_333\n        /* \"#utility.yul\":2435:2440   */\n      dup2\n        /* \"#utility.yul\":2409:2441   */\n      tag_239\n      jump\t// in\n    tag_333:\n        /* \"#utility.yul\":2310:2447   */\n      swap3\n      swap2\n      pop\n      pop\n      jump\t// out\n        /* \"#utility.yul\":2453:2780   */\n    tag_23:\n        /* \"#utility.yul\":2511:2517   */\n      0x00\n        /* \"#utility.yul\":2560:2562   */\n      0x20\n        /* \"#utility.yul\":2548:2557   */\n      dup3\n        /* \"#utility.yul\":2539:2546   */\n      dup5\n        /* \"#utility.yul\":2535:2558   */\n      sub\n        /* \"#utility.yul\":2531:2563   */\n      slt\n        /* \"#utility.yul\":2528:2647   */\n      iszero\n      tag_335\n      jumpi\n        /* \"#utility.yul\":2566:2645   */\n      tag_336\n      tag_228\n      jump\t// in\n    tag_336:\n        /* \"#utility.yul\":2528:2647   */\n    tag_335:\n        /* \"#utility.yul\":2686:2687   */\n      0x00\n        /* \"#utility.yul\":2711:2763   */\n      tag_337\n        /* \"#utility.yul\":2755:2762   */\n      dup5\n        /* \"#utility.yul\":2746:2752   */\n      dup3\n        /* \"#utility.yul\":2735:2744   */\n      dup6\n        /* \"#utility.yul\":2731:2753   */\n      add\n        /* \"#utility.yul\":2711:2763   */\n      tag_240\n      jump\t// in\n    tag_337:\n        /* \"#utility.yul\":2701:2763   */\n      swap2\n      pop\n        /* \"#utility.yul\":2657:2773   */\n      pop\n        /* \"#utility.yul\":2453:2780   */\n      swap3\n      swap2\n      pop\n      pop\n      jump\t// out\n        /* \"#utility.yul\":2786:2876   */\n    tag_241:\n        /* \"#utility.yul\":2820:2827   */\n      0x00\n        /* \"#utility.yul\":2863:2868   */\n      dup2\n        /* \"#utility.yul\":2856:2869   */\n      iszero\n        /* \"#utility.yul\":2849:2870   */\n      iszero\n        /* \"#utility.yul\":2838:2870   */\n      swap1\n      pop\n        /* \"#utility.yul\":2786:2876   */\n      swap2\n      swap1\n      pop\n      jump\t// out\n        /* \"#utility.yul\":2882:2991   */\n    tag_242:\n        /* \"#utility.yul\":2963:2984   */\n      tag_340\n        /* \"#utility.yul\":2978:2983   */\n      dup2\n        /* \"#utility.yul\":2963:2984   */\n      tag_241\n      jump\t// in\n    tag_340:\n        /* \"#utility.yul\":2958:2961   */\n      dup3\n        /* \"#utility.yul\":2951:2985   */\n      mstore\n        /* \"#utility.yul\":2882:2991   */\n      pop\n      pop\n      jump\t// out\n        /* \"#utility.yul\":2997:3207   */\n    tag_26:\n        /* \"#utility.yul\":3084:3088   */\n      0x00\n        /* \"#utility.yul\":3122:3124   */\n      0x20\n        /* \"#utility.yul\":3111:3120   */\n      dup3\n        /* \"#utility.yul\":3107:3125   */\n      add\n        /* \"#utility.yul\":3099:3125   */\n      swap1\n      pop\n        /* \"#utility.yul\":3135:3200   */\n      tag_342\n        /* \"#utility.yul\":3197:3198   */\n      0x00\n        /* \"#utility.yul\":3186:3195   */\n      dup4\n        /* \"#utility.yul\":3182:3199   */\n      add\n        /* \"#utility.yul\":3173:3179   */\n      dup5\n        /* \"#utility.yul\":3135:3200   */\n      tag_242\n      jump\t// in\n    tag_342:\n        /* \"#utility.yul\":2997:3207   */\n      swap3\n      swap2\n      pop\n      pop\n      jump\t// out\n        /* \"#utility.yul\":3213:3312   */\n    tag_243:\n        /* \"#utility.yul\":3265:3271   */\n      0x00\n        /* \"#utility.yul\":3299:3304   */\n      dup2\n        /* \"#utility.yul\":3293:3305   */\n      mload\n        /* \"#utility.yul\":3283:3305   */\n      swap1\n      pop\n        /* \"#utility.yul\":3213:3312   */\n      swap2\n      swap1\n      pop\n      jump\t// out\n        /* \"#utility.yul\":3318:3487   */\n    tag_244:\n        /* \"#utility.yul\":3402:3413   */\n      0x00\n        /* \"#utility.yul\":3436:3442   */\n      dup3\n        /* \"#utility.yul\":3431:3434   */\n      dup3\n        /* \"#utility.yul\":3424:3443   */\n      mstore\n        /* \"#utility.yul\":3476:3480   */\n      0x20\n        /* \"#utility.yul\":3471:3474   */\n      dup3\n        /* \"#utility.yul\":3467:3481   */\n      add\n        /* \"#utility.yul\":3452:3481   */\n      swap1\n      pop\n        /* \"#utility.yul\":3318:3487   */\n      swap3\n      swap2\n      pop\n      pop\n      jump\t// out\n        /* \"#utility.yul\":3493:3632   */\n    tag_245:\n        /* \"#utility.yul\":3582:3588   */\n      dup3\n        /* \"#utility.yul\":3577:3580   */\n      dup2\n        /* \"#utility.yul\":3572:3575   */\n      dup4\n        /* \"#utility.yul\":3566:3589   */\n      mcopy\n        /* \"#utility.yul\":3623:3624   */\n      0x00\n        /* \"#utility.yul\":3614:3620   */\n      dup4\n        /* \"#utility.yul\":3609:3612   */\n      dup4\n        /* \"#utility.yul\":3605:3621   */\n      add\n        /* \"#utility.yul\":3598:3625   */\n      mstore\n        /* \"#utility.yul\":3493:3632   */\n      pop\n      pop\n      pop\n      jump\t// out\n        /* \"#utility.yul\":3638:3740   */\n    tag_246:\n        /* \"#utility.yul\":3679:3685   */\n      0x00\n        /* \"#utility.yul\":3730:3732   */\n      0x1f\n        /* \"#utility.yul\":3726:3733   */\n      not\n        /* \"#utility.yul\":3721:3723   */\n      0x1f\n        /* \"#utility.yul\":3714:3719   */\n      dup4\n        /* \"#utility.yul\":3710:3724   */\n      add\n        /* \"#utility.yul\":3706:3734   */\n      and\n        /* \"#utility.yul\":3696:3734   */\n      swap1\n      pop\n        /* \"#utility.yul\":3638:3740   */\n      swap2\n      swap1\n      pop\n      jump\t// out\n        /* \"#utility.yul\":3746:4123   */\n    tag_247:\n        /* \"#utility.yul\":3834:3837   */\n      0x00\n        /* \"#utility.yul\":3862:3901   */\n      tag_348\n        /* \"#utility.yul\":3895:3900   */\n      dup3\n        /* \"#utility.yul\":3862:3901   */\n      tag_243\n      jump\t// in\n    tag_348:\n        /* \"#utility.yul\":3917:3988   */\n      tag_349\n        /* \"#utility.yul\":3981:3987   */\n      dup2\n        /* \"#utility.yul\":3976:3979   */\n      dup6\n        /* \"#utility.yul\":3917:3988   */\n      tag_244\n      jump\t// in\n    tag_349:\n        /* \"#utility.yul\":3910:3988   */\n      swap4\n      pop\n        /* \"#utility.yul\":3997:4062   */\n      tag_350\n        /* \"#utility.yul\":4055:4061   */\n      dup2\n        /* \"#utility.yul\":4050:4053   */\n      dup6\n        /* \"#utility.yul\":4043:4047   */\n      0x20\n        /* \"#utility.yul\":4036:4041   */\n      dup7\n        /* \"#utility.yul\":4032:4048   */\n      add\n        /* \"#utility.yul\":3997:4062   */\n      tag_245\n      jump\t// in\n    tag_350:\n        /* \"#utility.yul\":4087:4116   */\n      tag_351\n        /* \"#utility.yul\":4109:4115   */\n      dup2\n        /* \"#utility.yul\":4087:4116   */\n      tag_246\n      jump\t// in\n    tag_351:\n        /* \"#utility.yul\":4082:4085   */\n      dup5\n        /* \"#utility.yul\":4078:4117   */\n      add\n        /* \"#utility.yul\":4071:4117   */\n      swap2\n      pop\n        /* \"#utility.yul\":3838:4123   */\n      pop\n        /* \"#utility.yul\":3746:4123   */\n      swap3\n      swap2\n      pop\n      pop\n      jump\t// out\n        /* \"#utility.yul\":4129:4442   */\n    tag_30:\n        /* \"#utility.yul\":4242:4246   */\n      0x00\n        /* \"#utility.yul\":4280:4282   */\n      0x20\n        /* \"#utility.yul\":4269:4278   */\n      dup3\n        /* \"#utility.yul\":4265:4283   */\n      add\n        /* \"#utility.yul\":4257:4283   */\n      swap1\n      pop\n        /* \"#utility.yul\":4329:4338   */\n      dup2\n        /* \"#utility.yul\":4323:4327   */\n      dup2\n        /* \"#utility.yul\":4319:4339   */\n      sub\n        /* \"#utility.yul\":4315:4316   */\n      0x00\n        /* \"#utility.yul\":4304:4313   */\n      dup4\n        /* \"#utility.yul\":4300:4317   */\n      add\n        /* \"#utility.yul\":4293:4340   */\n      mstore\n        /* \"#utility.yul\":4357:4435   */\n      tag_353\n        /* \"#utility.yul\":4430:4434   */\n      dup2\n        /* \"#utility.yul\":4421:4427   */\n      dup5\n        /* \"#utility.yul\":4357:4435   */\n      tag_247\n      jump\t// in\n    tag_353:\n        /* \"#utility.yul\":4349:4435   */\n      swap1\n      pop\n        /* \"#utility.yul\":4129:4442   */\n      swap3\n      swap2\n      pop\n      pop\n      jump\t// out\n        /* \"#utility.yul\":4448:4777   */\n    tag_33:\n        /* \"#utility.yul\":4507:4513   */\n      0x00\n        /* \"#utility.yul\":4556:4558   */\n      0x20\n        /* \"#utility.yul\":4544:4553   */\n      dup3\n        /* \"#utility.yul\":4535:4542   */\n      dup5\n        /* \"#utility.yul\":4531:4554   */\n      sub\n        /* \"#utility.yul\":4527:4559   */\n      slt\n        /* \"#utility.yul\":4524:4643   */\n      iszero\n      tag_355\n      jumpi\n        /* \"#utility.yul\":4562:4641   */\n      tag_356\n      tag_228\n      jump\t// in\n    tag_356:\n        /* \"#utility.yul\":4524:4643   */\n    tag_355:\n        /* \"#utility.yul\":4682:4683   */\n      0x00\n        /* \"#utility.yul\":4707:4760   */\n      tag_357\n        /* \"#utility.yul\":4752:4759   */\n      dup5\n        /* \"#utility.yul\":4743:4749   */\n      dup3\n        /* \"#utility.yul\":4732:4741   */\n      dup6\n        /* \"#utility.yul\":4728:4750   */\n      add\n        /* \"#utility.yul\":4707:4760   */\n      tag_236\n      jump\t// in\n    tag_357:\n        /* \"#utility.yul\":4697:4760   */\n      swap2\n      pop\n        /* \"#utility.yul\":4653:4770   */\n      pop\n        /* \"#utility.yul\":4448:4777   */\n      swap3\n      swap2\n      pop\n      pop\n      jump\t// out\n        /* \"#utility.yul\":4783:5112   */\n    tag_38:\n        /* \"#utility.yul\":4842:4848   */\n      0x00\n        /* \"#utility.yul\":4891:4893   */\n      0x20\n        /* \"#utility.yul\":4879:4888   */\n      dup3\n        /* \"#utility.yul\":4870:4877   */\n      dup5\n        /* \"#utility.yul\":4866:4889   */\n      sub\n        /* \"#utility.yul\":4862:4894   */\n      slt\n        /* \"#utility.yul\":4859:4978   */\n      iszero\n      tag_359\n      jumpi\n        /* \"#utility.yul\":4897:4976   */\n      tag_360\n      tag_228\n      jump\t// in\n    tag_360:\n        /* \"#utility.yul\":4859:4978   */\n    tag_359:\n        /* \"#utility.yul\":5017:5018   */\n      0x00\n        /* \"#utility.yul\":5042:5095   */\n      tag_361\n        /* \"#utility.yul\":5087:5094   */\n      dup5\n        /* \"#utility.yul\":5078:5084   */\n      dup3\n        /* \"#utility.yul\":5067:5076   */\n      dup6\n        /* \"#utility.yul\":5063:5085   */\n      add\n        /* \"#utility.yul\":5042:5095   */\n      tag_233\n      jump\t// in\n    tag_361:\n        /* \"#utility.yul\":5032:5095   */\n      swap2\n      pop\n        /* \"#utility.yul\":4988:5105   */\n      pop\n        /* \"#utility.yul\":4783:5112   */\n      swap3\n      swap2\n      pop\n      pop\n      jump\t// out\n        /* \"#utility.yul\":5118:5235   */\n    tag_248:\n        /* \"#utility.yul\":5227:5228   */\n      0x00\n        /* \"#utility.yul\":5224:5225   */\n      dup1\n        /* \"#utility.yul\":5217:5229   */\n      revert\n        /* \"#utility.yul\":5241:5421   */\n    tag_125:\n        /* \"#utility.yul\":5289:5366   */\n      0x4e487b7100000000000000000000000000000000000000000000000000000000\n        /* \"#utility.yul\":5286:5287   */\n      0x00\n        /* \"#utility.yul\":5279:5367   */\n      mstore\n        /* \"#utility.yul\":5386:5390   */\n      0x41\n        /* \"#utility.yul\":5383:5384   */\n      0x04\n        /* \"#utility.yul\":5376:5391   */\n      mstore\n        /* \"#utility.yul\":5410:5414   */\n      0x24\n        /* \"#utility.yul\":5407:5408   */\n      0x00\n        /* \"#utility.yul\":5400:5415   */\n      revert\n        /* \"#utility.yul\":5427:5708   */\n    tag_249:\n        /* \"#utility.yul\":5510:5537   */\n      tag_365\n        /* \"#utility.yul\":5532:5536   */\n      dup3\n        /* \"#utility.yul\":5510:5537   */\n      tag_246\n      jump\t// in\n    tag_365:\n        /* \"#utility.yul\":5502:5508   */\n      dup2\n        /* \"#utility.yul\":5498:5538   */\n      add\n        /* \"#utility.yul\":5640:5646   */\n      dup2\n        /* \"#utility.yul\":5628:5638   */\n      dup2\n        /* \"#utility.yul\":5625:5647   */\n      lt\n        /* \"#utility.yul\":5604:5622   */\n      0xffffffffffffffff\n        /* \"#utility.yul\":5592:5602   */\n      dup3\n        /* \"#utility.yul\":5589:5623   */\n      gt\n        /* \"#utility.yul\":5586:5648   */\n      or\n        /* \"#utility.yul\":5583:5671   */\n      iszero\n      tag_366\n      jumpi\n        /* \"#utility.yul\":5651:5669   */\n      tag_367\n      tag_125\n      jump\t// in\n    tag_367:\n        /* \"#utility.yul\":5583:5671   */\n    tag_366:\n        /* \"#utility.yul\":5691:5701   */\n      dup1\n        /* \"#utility.yul\":5687:5689   */\n      0x40\n        /* \"#utility.yul\":5680:5702   */\n      mstore\n        /* \"#utility.yul\":5470:5708   */\n      pop\n        /* \"#utility.yul\":5427:5708   */\n      pop\n      pop\n      jump\t// out\n        /* \"#utility.yul\":5714:5843   */\n    tag_250:\n        /* \"#utility.yul\":5748:5754   */\n      0x00\n        /* \"#utility.yul\":5775:5795   */\n      tag_369\n      tag_227\n      jump\t// in\n    tag_369:\n        /* \"#utility.yul\":5765:5795   */\n      swap1\n      pop\n        /* \"#utility.yul\":5804:5837   */\n      tag_370\n        /* \"#utility.yul\":5832:5836   */\n      dup3\n        /* \"#utility.yul\":5824:5830   */\n      dup3\n        /* \"#utility.yul\":5804:5837   */\n      tag_249\n      jump\t// in\n    tag_370:\n        /* \"#utility.yul\":5714:5843   */\n      swap2\n      swap1\n      pop\n      jump\t// out\n        /* \"#utility.yul\":5849:6160   */\n    tag_251:\n        /* \"#utility.yul\":5926:5930   */\n      0x00\n        /* \"#utility.yul\":6016:6034   */\n      0xffffffffffffffff\n        /* \"#utility.yul\":6008:6014   */\n      dup3\n        /* \"#utility.yul\":6005:6035   */\n      gt\n        /* \"#utility.yul\":6002:6058   */\n      iszero\n      tag_372\n      jumpi\n        /* \"#utility.yul\":6038:6056   */\n      tag_373\n      tag_125\n      jump\t// in\n    tag_373:\n        /* \"#utility.yul\":6002:6058   */\n    tag_372:\n        /* \"#utility.yul\":6088:6092   */\n      0x20\n        /* \"#utility.yul\":6080:6086   */\n      dup3\n        /* \"#utility.yul\":6076:6093   */\n      mul\n        /* \"#utility.yul\":6068:6093   */\n      swap1\n      pop\n        /* \"#utility.yul\":6148:6152   */\n      0x20\n        /* \"#utility.yul\":6142:6146   */\n      dup2\n        /* \"#utility.yul\":6138:6153   */\n      add\n        /* \"#utility.yul\":6130:6153   */\n      swap1\n      pop\n        /* \"#utility.yul\":5849:6160   */\n      swap2\n      swap1\n      pop\n      jump\t// out\n        /* \"#utility.yul\":6166:6283   */\n    tag_252:\n        /* \"#utility.yul\":6275:6276   */\n      0x00\n        /* \"#utility.yul\":6272:6273   */\n      dup1\n        /* \"#utility.yul\":6265:6277   */\n      revert\n        /* \"#utility.yul\":6306:7016   */\n    tag_253:\n        /* \"#utility.yul\":6402:6407   */\n      0x00\n        /* \"#utility.yul\":6427:6508   */\n      tag_376\n        /* \"#utility.yul\":6443:6507   */\n      tag_377\n        /* \"#utility.yul\":6500:6506   */\n      dup5\n        /* \"#utility.yul\":6443:6507   */\n      tag_251\n      jump\t// in\n    tag_377:\n        /* \"#utility.yul\":6427:6508   */\n      tag_250\n      jump\t// in\n    tag_376:\n        /* \"#utility.yul\":6418:6508   */\n      swap1\n      pop\n        /* \"#utility.yul\":6528:6533   */\n      dup1\n        /* \"#utility.yul\":6557:6563   */\n      dup4\n        /* \"#utility.yul\":6550:6555   */\n      dup3\n        /* \"#utility.yul\":6543:6564   */\n      mstore\n        /* \"#utility.yul\":6591:6595   */\n      0x20\n        /* \"#utility.yul\":6584:6589   */\n      dup3\n        /* \"#utility.yul\":6580:6596   */\n      add\n        /* \"#utility.yul\":6573:6596   */\n      swap1\n      pop\n        /* \"#utility.yul\":6644:6648   */\n      0x20\n        /* \"#utility.yul\":6636:6642   */\n      dup5\n        /* \"#utility.yul\":6632:6649   */\n      mul\n        /* \"#utility.yul\":6624:6630   */\n      dup4\n        /* \"#utility.yul\":6620:6650   */\n      add\n        /* \"#utility.yul\":6673:6676   */\n      dup6\n        /* \"#utility.yul\":6665:6671   */\n      dup2\n        /* \"#utility.yul\":6662:6677   */\n      gt\n        /* \"#utility.yul\":6659:6781   */\n      iszero\n      tag_378\n      jumpi\n        /* \"#utility.yul\":6692:6771   */\n      tag_379\n      tag_252\n      jump\t// in\n    tag_379:\n        /* \"#utility.yul\":6659:6781   */\n    tag_378:\n        /* \"#utility.yul\":6807:6813   */\n      dup4\n        /* \"#utility.yul\":6790:7010   */\n    tag_380:\n        /* \"#utility.yul\":6824:6830   */\n      dup2\n        /* \"#utility.yul\":6819:6822   */\n      dup2\n        /* \"#utility.yul\":6816:6831   */\n      lt\n        /* \"#utility.yul\":6790:7010   */\n      iszero\n      tag_382\n      jumpi\n        /* \"#utility.yul\":6899:6902   */\n      dup1\n        /* \"#utility.yul\":6928:6965   */\n      tag_383\n        /* \"#utility.yul\":6961:6964   */\n      dup9\n        /* \"#utility.yul\":6949:6959   */\n      dup3\n        /* \"#utility.yul\":6928:6965   */\n      tag_236\n      jump\t// in\n    tag_383:\n        /* \"#utility.yul\":6923:6926   */\n      dup5\n        /* \"#utility.yul\":6916:6966   */\n      mstore\n        /* \"#utility.yul\":6995:6999   */\n      0x20\n        /* \"#utility.yul\":6990:6993   */\n      dup5\n        /* \"#utility.yul\":6986:7000   */\n      add\n        /* \"#utility.yul\":6979:7000   */\n      swap4\n      pop\n        /* \"#utility.yul\":6866:7010   */\n      pop\n        /* \"#utility.yul\":6850:6854   */\n      0x20\n        /* \"#utility.yul\":6845:6848   */\n      dup2\n        /* \"#utility.yul\":6841:6855   */\n      add\n        /* \"#utility.yul\":6834:6855   */\n      swap1\n      pop\n        /* \"#utility.yul\":6790:7010   */\n      jump(tag_380)\n    tag_382:\n        /* \"#utility.yul\":6794:6815   */\n      pop\n        /* \"#utility.yul\":6408:7016   */\n      pop\n      pop\n        /* \"#utility.yul\":6306:7016   */\n      swap4\n      swap3\n      pop\n      pop\n      pop\n      jump\t// out\n        /* \"#utility.yul\":7039:7409   */\n    tag_254:\n        /* \"#utility.yul\":7110:7115   */\n      0x00\n        /* \"#utility.yul\":7159:7162   */\n      dup3\n        /* \"#utility.yul\":7152:7156   */\n      0x1f\n        /* \"#utility.yul\":7144:7150   */\n      dup4\n        /* \"#utility.yul\":7140:7157   */\n      add\n        /* \"#utility.yul\":7136:7163   */\n      slt\n        /* \"#utility.yul\":7126:7248   */\n      tag_385\n      jumpi\n        /* \"#utility.yul\":7167:7246   */\n      tag_386\n      tag_248\n      jump\t// in\n    tag_386:\n        /* \"#utility.yul\":7126:7248   */\n    tag_385:\n        /* \"#utility.yul\":7284:7290   */\n      dup2\n        /* \"#utility.yul\":7271:7291   */\n      calldataload\n        /* \"#utility.yul\":7309:7403   */\n      tag_387\n        /* \"#utility.yul\":7399:7402   */\n      dup5\n        /* \"#utility.yul\":7391:7397   */\n      dup3\n        /* \"#utility.yul\":7384:7388   */\n      0x20\n        /* \"#utility.yul\":7376:7382   */\n      dup7\n        /* \"#utility.yul\":7372:7389   */\n      add\n        /* \"#utility.yul\":7309:7403   */\n      tag_253\n      jump\t// in\n    tag_387:\n        /* \"#utility.yul\":7300:7403   */\n      swap2\n      pop\n        /* \"#utility.yul\":7116:7409   */\n      pop\n        /* \"#utility.yul\":7039:7409   */\n      swap3\n      swap2\n      pop\n      pop\n      jump\t// out\n        /* \"#utility.yul\":7415:7532   */\n    tag_255:\n        /* \"#utility.yul\":7524:7525   */\n      0x00\n        /* \"#utility.yul\":7521:7522   */\n      dup1\n        /* \"#utility.yul\":7514:7526   */\n      revert\n        /* \"#utility.yul\":7538:7845   */\n    tag_256:\n        /* \"#utility.yul\":7599:7603   */\n      0x00\n        /* \"#utility.yul\":7689:7707   */\n      0xffffffffffffffff\n        /* \"#utility.yul\":7681:7687   */\n      dup3\n        /* \"#utility.yul\":7678:7708   */\n      gt\n        /* \"#utility.yul\":7675:7731   */\n      iszero\n      tag_390\n      jumpi\n        /* \"#utility.yul\":7711:7729   */\n      tag_391\n      tag_125\n      jump\t// in\n    tag_391:\n        /* \"#utility.yul\":7675:7731   */\n    tag_390:\n        /* \"#utility.yul\":7749:7778   */\n      tag_392\n        /* \"#utility.yul\":7771:7777   */\n      dup3\n        /* \"#utility.yul\":7749:7778   */\n      tag_246\n      jump\t// in\n    tag_392:\n        /* \"#utility.yul\":7741:7778   */\n      swap1\n      pop\n        /* \"#utility.yul\":7833:7837   */\n      0x20\n        /* \"#utility.yul\":7827:7831   */\n      dup2\n        /* \"#utility.yul\":7823:7838   */\n      add\n        /* \"#utility.yul\":7815:7838   */\n      swap1\n      pop\n        /* \"#utility.yul\":7538:7845   */\n      swap2\n      swap1\n      pop\n      jump\t// out\n        /* \"#utility.yul\":7851:7999   */\n    tag_257:\n        /* \"#utility.yul\":7949:7955   */\n      dup3\n        /* \"#utility.yul\":7944:7947   */\n      dup2\n        /* \"#utility.yul\":7939:7942   */\n      dup4\n        /* \"#utility.yul\":7926:7956   */\n      calldatacopy\n        /* \"#utility.yul\":7990:7991   */\n      0x00\n        /* \"#utility.yul\":7981:7987   */\n      dup4\n        /* \"#utility.yul\":7976:7979   */\n      dup4\n        /* \"#utility.yul\":7972:7988   */\n      add\n        /* \"#utility.yul\":7965:7992   */\n      mstore\n        /* \"#utility.yul\":7851:7999   */\n      pop\n      pop\n      pop\n      jump\t// out\n        /* \"#utility.yul\":8005:8428   */\n    tag_258:\n        /* \"#utility.yul\":8082:8087   */\n      0x00\n        /* \"#utility.yul\":8107:8172   */\n      tag_395\n        /* \"#utility.yul\":8123:8171   */\n      tag_396\n        /* \"#utility.yul\":8164:8170   */\n      dup5\n        /* \"#utility.yul\":8123:8171   */\n      tag_256\n      jump\t// in\n    tag_396:\n        /* \"#utility.yul\":8107:8172   */\n      tag_250\n      jump\t// in\n    tag_395:\n        /* \"#utility.yul\":8098:8172   */\n      swap1\n      pop\n        /* \"#utility.yul\":8195:8201   */\n      dup3\n        /* \"#utility.yul\":8188:8193   */\n      dup2\n        /* \"#utility.yul\":8181:8202   */\n      mstore\n        /* \"#utility.yul\":8233:8237   */\n      0x20\n        /* \"#utility.yul\":8226:8231   */\n      dup2\n        /* \"#utility.yul\":8222:8238   */\n      add\n        /* \"#utility.yul\":8271:8274   */\n      dup5\n        /* \"#utility.yul\":8262:8268   */\n      dup5\n        /* \"#utility.yul\":8257:8260   */\n      dup5\n        /* \"#utility.yul\":8253:8269   */\n      add\n        /* \"#utility.yul\":8250:8275   */\n      gt\n        /* \"#utility.yul\":8247:8359   */\n      iszero\n      tag_397\n      jumpi\n        /* \"#utility.yul\":8278:8357   */\n      tag_398\n      tag_255\n      jump\t// in\n    tag_398:\n        /* \"#utility.yul\":8247:8359   */\n    tag_397:\n        /* \"#utility.yul\":8368:8422   */\n      tag_399\n        /* \"#utility.yul\":8415:8421   */\n      dup5\n        /* \"#utility.yul\":8410:8413   */\n      dup3\n        /* \"#utility.yul\":8405:8408   */\n      dup6\n        /* \"#utility.yul\":8368:8422   */\n      tag_257\n      jump\t// in\n    tag_399:\n        /* \"#utility.yul\":8088:8428   */\n      pop\n        /* \"#utility.yul\":8005:8428   */\n      swap4\n      swap3\n      pop\n      pop\n      pop\n      jump\t// out\n        /* \"#utility.yul\":8447:8785   */\n    tag_259:\n        /* \"#utility.yul\":8502:8507   */\n      0x00\n        /* \"#utility.yul\":8551:8554   */\n      dup3\n        /* \"#utility.yul\":8544:8548   */\n      0x1f\n        /* \"#utility.yul\":8536:8542   */\n      dup4\n        /* \"#utility.yul\":8532:8549   */\n      add\n        /* \"#utility.yul\":8528:8555   */\n      slt\n        /* \"#utility.yul\":8518:8640   */\n      tag_401\n      jumpi\n        /* \"#utility.yul\":8559:8638   */\n      tag_402\n      tag_248\n      jump\t// in\n    tag_402:\n        /* \"#utility.yul\":8518:8640   */\n    tag_401:\n        /* \"#utility.yul\":8676:8682   */\n      dup2\n        /* \"#utility.yul\":8663:8683   */\n      calldataload\n        /* \"#utility.yul\":8701:8779   */\n      tag_403\n        /* \"#utility.yul\":8775:8778   */\n      dup5\n        /* \"#utility.yul\":8767:8773   */\n      dup3\n        /* \"#utility.yul\":8760:8764   */\n      0x20\n        /* \"#utility.yul\":8752:8758   */\n      dup7\n        /* \"#utility.yul\":8748:8765   */\n      add\n        /* \"#utility.yul\":8701:8779   */\n      tag_258\n      jump\t// in\n    tag_403:\n        /* \"#utility.yul\":8692:8779   */\n      swap2\n      pop\n        /* \"#utility.yul\":8508:8785   */\n      pop\n        /* \"#utility.yul\":8447:8785   */\n      swap3\n      swap2\n      pop\n      pop\n      jump\t// out\n        /* \"#utility.yul\":8791:10300   */\n    tag_43:\n        /* \"#utility.yul\":8945:8951   */\n      0x00\n        /* \"#utility.yul\":8953:8959   */\n      dup1\n        /* \"#utility.yul\":8961:8967   */\n      0x00\n        /* \"#utility.yul\":8969:8975   */\n      dup1\n        /* \"#utility.yul\":8977:8983   */\n      0x00\n        /* \"#utility.yul\":9026:9029   */\n      0xa0\n        /* \"#utility.yul\":9014:9023   */\n      dup7\n        /* \"#utility.yul\":9005:9012   */\n      dup9\n        /* \"#utility.yul\":9001:9024   */\n      sub\n        /* \"#utility.yul\":8997:9030   */\n      slt\n        /* \"#utility.yul\":8994:9114   */\n      iszero\n      tag_405\n      jumpi\n        /* \"#utility.yul\":9033:9112   */\n      tag_406\n      tag_228\n      jump\t// in\n    tag_406:\n        /* \"#utility.yul\":8994:9114   */\n    tag_405:\n        /* \"#utility.yul\":9153:9154   */\n      0x00\n        /* \"#utility.yul\":9178:9231   */\n      tag_407\n        /* \"#utility.yul\":9223:9230   */\n      dup9\n        /* \"#utility.yul\":9214:9220   */\n      dup3\n        /* \"#utility.yul\":9203:9212   */\n      dup10\n        /* \"#utility.yul\":9199:9221   */\n      add\n        /* \"#utility.yul\":9178:9231   */\n      tag_233\n      jump\t// in\n    tag_407:\n        /* \"#utility.yul\":9168:9231   */\n      swap6\n      pop\n        /* \"#utility.yul\":9124:9241   */\n      pop\n        /* \"#utility.yul\":9280:9282   */\n      0x20\n        /* \"#utility.yul\":9306:9359   */\n      tag_408\n        /* \"#utility.yul\":9351:9358   */\n      dup9\n        /* \"#utility.yul\":9342:9348   */\n      dup3\n        /* \"#utility.yul\":9331:9340   */\n      dup10\n        /* \"#utility.yul\":9327:9349   */\n      add\n        /* \"#utility.yul\":9306:9359   */\n      tag_233\n      jump\t// in\n    tag_408:\n        /* \"#utility.yul\":9296:9359   */\n      swap5\n      pop\n        /* \"#utility.yul\":9251:9369   */\n      pop\n        /* \"#utility.yul\":9436:9438   */\n      0x40\n        /* \"#utility.yul\":9425:9434   */\n      dup7\n        /* \"#utility.yul\":9421:9439   */\n      add\n        /* \"#utility.yul\":9408:9440   */\n      calldataload\n        /* \"#utility.yul\":9467:9485   */\n      0xffffffffffffffff\n        /* \"#utility.yul\":9459:9465   */\n      dup2\n        /* \"#utility.yul\":9456:9486   */\n      gt\n        /* \"#utility.yul\":9453:9570   */\n      iszero\n      tag_409\n      jumpi\n        /* \"#utility.yul\":9489:9568   */\n      tag_410\n      tag_229\n      jump\t// in\n    tag_410:\n        /* \"#utility.yul\":9453:9570   */\n    tag_409:\n        /* \"#utility.yul\":9594:9672   */\n      tag_411\n        /* \"#utility.yul\":9664:9671   */\n      dup9\n        /* \"#utility.yul\":9655:9661   */\n      dup3\n        /* \"#utility.yul\":9644:9653   */\n      dup10\n        /* \"#utility.yul\":9640:9662   */\n      add\n        /* \"#utility.yul\":9594:9672   */\n      tag_254\n      jump\t// in\n    tag_411:\n        /* \"#utility.yul\":9584:9672   */\n      swap4\n      pop\n        /* \"#utility.yul\":9379:9682   */\n      pop\n        /* \"#utility.yul\":9749:9751   */\n      0x60\n        /* \"#utility.yul\":9738:9747   */\n      dup7\n        /* \"#utility.yul\":9734:9752   */\n      add\n        /* \"#utility.yul\":9721:9753   */\n      calldataload\n        /* \"#utility.yul\":9780:9798   */\n      0xffffffffffffffff\n        /* \"#utility.yul\":9772:9778   */\n      dup2\n        /* \"#utility.yul\":9769:9799   */\n      gt\n        /* \"#utility.yul\":9766:9883   */\n      iszero\n      tag_412\n      jumpi\n        /* \"#utility.yul\":9802:9881   */\n      tag_413\n      tag_229\n      jump\t// in\n    tag_413:\n        /* \"#utility.yul\":9766:9883   */\n    tag_412:\n        /* \"#utility.yul\":9907:9985   */\n      tag_414\n        /* \"#utility.yul\":9977:9984   */\n      dup9\n        /* \"#utility.yul\":9968:9974   */\n      dup3\n        /* \"#utility.yul\":9957:9966   */\n      dup10\n        /* \"#utility.yul\":9953:9975   */\n      add\n        /* \"#utility.yul\":9907:9985   */\n      tag_254\n      jump\t// in\n    tag_414:\n        /* \"#utility.yul\":9897:9985   */\n      swap3\n      pop\n        /* \"#utility.yul\":9692:9995   */\n      pop\n        /* \"#utility.yul\":10062:10065   */\n      0x80\n        /* \"#utility.yul\":10051:10060   */\n      dup7\n        /* \"#utility.yul\":10047:10066   */\n      add\n        /* \"#utility.yul\":10034:10067   */\n      calldataload\n        /* \"#utility.yul\":10094:10112   */\n      0xffffffffffffffff\n        /* \"#utility.yul\":10086:10092   */\n      dup2\n        /* \"#utility.yul\":10083:10113   */\n      gt\n        /* \"#utility.yul\":10080:10197   */\n      iszero\n      tag_415\n      jumpi\n        /* \"#utility.yul\":10116:10195   */\n      tag_416\n      tag_229\n      jump\t// in\n    tag_416:\n        /* \"#utility.yul\":10080:10197   */\n    tag_415:\n        /* \"#utility.yul\":10221:10283   */\n      tag_417\n        /* \"#utility.yul\":10275:10282   */\n      dup9\n        /* \"#utility.yul\":10266:10272   */\n      dup3\n        /* \"#utility.yul\":10255:10264   */\n      dup10\n        /* \"#utility.yul\":10251:10273   */\n      add\n        /* \"#utility.yul\":10221:10283   */\n      tag_259\n      jump\t// in\n    tag_417:\n        /* \"#utility.yul\":10211:10283   */\n      swap2\n      pop\n        /* \"#utility.yul\":10005:10293   */\n      pop\n        /* \"#utility.yul\":8791:10300   */\n      swap3\n      swap6\n      pop\n      swap3\n      swap6\n      swap1\n      swap4\n      pop\n      jump\t// out\n        /* \"#utility.yul\":10306:10617   */\n    tag_260:\n        /* \"#utility.yul\":10383:10387   */\n      0x00\n        /* \"#utility.yul\":10473:10491   */\n      0xffffffffffffffff\n        /* \"#utility.yul\":10465:10471   */\n      dup3\n        /* \"#utility.yul\":10462:10492   */\n      gt\n        /* \"#utility.yul\":10459:10515   */\n      iszero\n      tag_419\n      jumpi\n        /* \"#utility.yul\":10495:10513   */\n      tag_420\n      tag_125\n      jump\t// in\n    tag_420:\n        /* \"#utility.yul\":10459:10515   */\n    tag_419:\n        /* \"#utility.yul\":10545:10549   */\n      0x20\n        /* \"#utility.yul\":10537:10543   */\n      dup3\n        /* \"#utility.yul\":10533:10550   */\n      mul\n        /* \"#utility.yul\":10525:10550   */\n      swap1\n      pop\n        /* \"#utility.yul\":10605:10609   */\n      0x20\n        /* \"#utility.yul\":10599:10603   */\n      dup2\n        /* \"#utility.yul\":10595:10610   */\n      add\n        /* \"#utility.yul\":10587:10610   */\n      swap1\n      pop\n        /* \"#utility.yul\":10306:10617   */\n      swap2\n      swap1\n      pop\n      jump\t// out\n        /* \"#utility.yul\":10640:11350   */\n    tag_261:\n        /* \"#utility.yul\":10736:10741   */\n      0x00\n        /* \"#utility.yul\":10761:10842   */\n      tag_422\n        /* \"#utility.yul\":10777:10841   */\n      tag_423\n        /* \"#utility.yul\":10834:10840   */\n      dup5\n        /* \"#utility.yul\":10777:10841   */\n      tag_260\n      jump\t// in\n    tag_423:\n        /* \"#utility.yul\":10761:10842   */\n      tag_250\n      jump\t// in\n    tag_422:\n        /* \"#utility.yul\":10752:10842   */\n      swap1\n      pop\n        /* \"#utility.yul\":10862:10867   */\n      dup1\n        /* \"#utility.yul\":10891:10897   */\n      dup4\n        /* \"#utility.yul\":10884:10889   */\n      dup3\n        /* \"#utility.yul\":10877:10898   */\n      mstore\n        /* \"#utility.yul\":10925:10929   */\n      0x20\n        /* \"#utility.yul\":10918:10923   */\n      dup3\n        /* \"#utility.yul\":10914:10930   */\n      add\n        /* \"#utility.yul\":10907:10930   */\n      swap1\n      pop\n        /* \"#utility.yul\":10978:10982   */\n      0x20\n        /* \"#utility.yul\":10970:10976   */\n      dup5\n        /* \"#utility.yul\":10966:10983   */\n      mul\n        /* \"#utility.yul\":10958:10964   */\n      dup4\n        /* \"#utility.yul\":10954:10984   */\n      add\n        /* \"#utility.yul\":11007:11010   */\n      dup6\n        /* \"#utility.yul\":10999:11005   */\n      dup2\n        /* \"#utility.yul\":10996:11011   */\n      gt\n        /* \"#utility.yul\":10993:11115   */\n      iszero\n      tag_424\n      jumpi\n        /* \"#utility.yul\":11026:11105   */\n      tag_425\n      tag_252\n      jump\t// in\n    tag_425:\n        /* \"#utility.yul\":10993:11115   */\n    tag_424:\n        /* \"#utility.yul\":11141:11147   */\n      dup4\n        /* \"#utility.yul\":11124:11344   */\n    tag_426:\n        /* \"#utility.yul\":11158:11164   */\n      dup2\n        /* \"#utility.yul\":11153:11156   */\n      dup2\n        /* \"#utility.yul\":11150:11165   */\n      lt\n        /* \"#utility.yul\":11124:11344   */\n      iszero\n      tag_428\n      jumpi\n        /* \"#utility.yul\":11233:11236   */\n      dup1\n        /* \"#utility.yul\":11262:11299   */\n      tag_429\n        /* \"#utility.yul\":11295:11298   */\n      dup9\n        /* \"#utility.yul\":11283:11293   */\n      dup3\n        /* \"#utility.yul\":11262:11299   */\n      tag_233\n      jump\t// in\n    tag_429:\n        /* \"#utility.yul\":11257:11260   */\n      dup5\n        /* \"#utility.yul\":11250:11300   */\n      mstore\n        /* \"#utility.yul\":11329:11333   */\n      0x20\n        /* \"#utility.yul\":11324:11327   */\n      dup5\n        /* \"#utility.yul\":11320:11334   */\n      add\n        /* \"#utility.yul\":11313:11334   */\n      swap4\n      pop\n        /* \"#utility.yul\":11200:11344   */\n      pop\n        /* \"#utility.yul\":11184:11188   */\n      0x20\n        /* \"#utility.yul\":11179:11182   */\n      dup2\n        /* \"#utility.yul\":11175:11189   */\n      add\n        /* \"#utility.yul\":11168:11189   */\n      swap1\n      pop\n        /* \"#utility.yul\":11124:11344   */\n      jump(tag_426)\n    tag_428:\n        /* \"#utility.yul\":11128:11149   */\n      pop\n        /* \"#utility.yul\":10742:11350   */\n      pop\n      pop\n        /* \"#utility.yul\":10640:11350   */\n      swap4\n      swap3\n      pop\n      pop\n      pop\n      jump\t// out\n        /* \"#utility.yul\":11373:11743   */\n    tag_262:\n        /* \"#utility.yul\":11444:11449   */\n      0x00\n        /* \"#utility.yul\":11493:11496   */\n      dup3\n        /* \"#utility.yul\":11486:11490   */\n      0x1f\n        /* \"#utility.yul\":11478:11484   */\n      dup4\n        /* \"#utility.yul\":11474:11491   */\n      add\n        /* \"#utility.yul\":11470:11497   */\n      slt\n        /* \"#utility.yul\":11460:11582   */\n      tag_431\n      jumpi\n        /* \"#utility.yul\":11501:11580   */\n      tag_432\n      tag_248\n      jump\t// in\n    tag_432:\n        /* \"#utility.yul\":11460:11582   */\n    tag_431:\n        /* \"#utility.yul\":11618:11624   */\n      dup2\n        /* \"#utility.yul\":11605:11625   */\n      calldataload\n        /* \"#utility.yul\":11643:11737   */\n      tag_433\n        /* \"#utility.yul\":11733:11736   */\n      dup5\n        /* \"#utility.yul\":11725:11731   */\n      dup3\n        /* \"#utility.yul\":11718:11722   */\n      0x20\n        /* \"#utility.yul\":11710:11716   */\n      dup7\n        /* \"#utility.yul\":11706:11723   */\n      add\n        /* \"#utility.yul\":11643:11737   */\n      tag_261\n      jump\t// in\n    tag_433:\n        /* \"#utility.yul\":11634:11737   */\n      swap2\n      pop\n        /* \"#utility.yul\":11450:11743   */\n      pop\n        /* \"#utility.yul\":11373:11743   */\n      swap3\n      swap2\n      pop\n      pop\n      jump\t// out\n        /* \"#utility.yul\":11749:12643   */\n    tag_47:\n        /* \"#utility.yul\":11867:11873   */\n      0x00\n        /* \"#utility.yul\":11875:11881   */\n      dup1\n        /* \"#utility.yul\":11924:11926   */\n      0x40\n        /* \"#utility.yul\":11912:11921   */\n      dup4\n        /* \"#utility.yul\":11903:11910   */\n      dup6\n        /* \"#utility.yul\":11899:11922   */\n      sub\n        /* \"#utility.yul\":11895:11927   */\n      slt\n        /* \"#utility.yul\":11892:12011   */\n      iszero\n      tag_435\n      jumpi\n        /* \"#utility.yul\":11930:12009   */\n      tag_436\n      tag_228\n      jump\t// in\n    tag_436:\n        /* \"#utility.yul\":11892:12011   */\n    tag_435:\n        /* \"#utility.yul\":12078:12079   */\n      0x00\n        /* \"#utility.yul\":12067:12076   */\n      dup4\n        /* \"#utility.yul\":12063:12080   */\n      add\n        /* \"#utility.yul\":12050:12081   */\n      calldataload\n        /* \"#utility.yul\":12108:12126   */\n      0xffffffffffffffff\n        /* \"#utility.yul\":12100:12106   */\n      dup2\n        /* \"#utility.yul\":12097:12127   */\n      gt\n        /* \"#utility.yul\":12094:12211   */\n      iszero\n      tag_437\n      jumpi\n        /* \"#utility.yul\":12130:12209   */\n      tag_438\n      tag_229\n      jump\t// in\n    tag_438:\n        /* \"#utility.yul\":12094:12211   */\n    tag_437:\n        /* \"#utility.yul\":12235:12313   */\n      tag_439\n        /* \"#utility.yul\":12305:12312   */\n      dup6\n        /* \"#utility.yul\":12296:12302   */\n      dup3\n        /* \"#utility.yul\":12285:12294   */\n      dup7\n        /* \"#utility.yul\":12281:12303   */\n      add\n        /* \"#utility.yul\":12235:12313   */\n      tag_262\n      jump\t// in\n    tag_439:\n        /* \"#utility.yul\":12225:12313   */\n      swap3\n      pop\n        /* \"#utility.yul\":12021:12323   */\n      pop\n        /* \"#utility.yul\":12390:12392   */\n      0x20\n        /* \"#utility.yul\":12379:12388   */\n      dup4\n        /* \"#utility.yul\":12375:12393   */\n      add\n        /* \"#utility.yul\":12362:12394   */\n      calldataload\n        /* \"#utility.yul\":12421:12439   */\n      0xffffffffffffffff\n        /* \"#utility.yul\":12413:12419   */\n      dup2\n        /* \"#utility.yul\":12410:12440   */\n      gt\n        /* \"#utility.yul\":12407:12524   */\n      iszero\n      tag_440\n      jumpi\n        /* \"#utility.yul\":12443:12522   */\n      tag_441\n      tag_229\n      jump\t// in\n    tag_441:\n        /* \"#utility.yul\":12407:12524   */\n    tag_440:\n        /* \"#utility.yul\":12548:12626   */\n      tag_442\n        /* \"#utility.yul\":12618:12625   */\n      dup6\n        /* \"#utility.yul\":12609:12615   */\n      dup3\n        /* \"#utility.yul\":12598:12607   */\n      dup7\n        /* \"#utility.yul\":12594:12616   */\n      add\n        /* \"#utility.yul\":12548:12626   */\n      tag_254\n      jump\t// in\n    tag_442:\n        /* \"#utility.yul\":12538:12626   */\n      swap2\n      pop\n        /* \"#utility.yul\":12333:12636   */\n      pop\n        /* \"#utility.yul\":11749:12643   */\n      swap3\n      pop\n      swap3\n      swap1\n      pop\n      jump\t// out\n        /* \"#utility.yul\":12649:12763   */\n    tag_263:\n        /* \"#utility.yul\":12716:12722   */\n      0x00\n        /* \"#utility.yul\":12750:12755   */\n      dup2\n        /* \"#utility.yul\":12744:12756   */\n      mload\n        /* \"#utility.yul\":12734:12756   */\n      swap1\n      pop\n        /* \"#utility.yul\":12649:12763   */\n      swap2\n      swap1\n      pop\n      jump\t// out\n        /* \"#utility.yul\":12769:12953   */\n    tag_264:\n        /* \"#utility.yul\":12868:12879   */\n      0x00\n        /* \"#utility.yul\":12902:12908   */\n      dup3\n        /* \"#utility.yul\":12897:12900   */\n      dup3\n        /* \"#utility.yul\":12890:12909   */\n      mstore\n        /* \"#utility.yul\":12942:12946   */\n      0x20\n        /* \"#utility.yul\":12937:12940   */\n      dup3\n        /* \"#utility.yul\":12933:12947   */\n      add\n        /* \"#utility.yul\":12918:12947   */\n      swap1\n      pop\n        /* \"#utility.yul\":12769:12953   */\n      swap3\n      swap2\n      pop\n      pop\n      jump\t// out\n        /* \"#utility.yul\":12959:13091   */\n    tag_265:\n        /* \"#utility.yul\":13026:13030   */\n      0x00\n        /* \"#utility.yul\":13049:13052   */\n      dup2\n        /* \"#utility.yul\":13041:13052   */\n      swap1\n      pop\n        /* \"#utility.yul\":13079:13083   */\n      0x20\n        /* \"#utility.yul\":13074:13077   */\n      dup3\n        /* \"#utility.yul\":13070:13084   */\n      add\n        /* \"#utility.yul\":13062:13084   */\n      swap1\n      pop\n        /* \"#utility.yul\":12959:13091   */\n      swap2\n      swap1\n      pop\n      jump\t// out\n        /* \"#utility.yul\":13097:13205   */\n    tag_266:\n        /* \"#utility.yul\":13174:13198   */\n      tag_447\n        /* \"#utility.yul\":13192:13197   */\n      dup2\n        /* \"#utility.yul\":13174:13198   */\n      tag_234\n      jump\t// in\n    tag_447:\n        /* \"#utility.yul\":13169:13172   */\n      dup3\n        /* \"#utility.yul\":13162:13199   */\n      mstore\n        /* \"#utility.yul\":13097:13205   */\n      pop\n      pop\n      jump\t// out\n        /* \"#utility.yul\":13211:13390   */\n    tag_267:\n        /* \"#utility.yul\":13280:13290   */\n      0x00\n        /* \"#utility.yul\":13301:13347   */\n      tag_449\n        /* \"#utility.yul\":13343:13346   */\n      dup4\n        /* \"#utility.yul\":13335:13341   */\n      dup4\n        /* \"#utility.yul\":13301:13347   */\n      tag_266\n      jump\t// in\n    tag_449:\n        /* \"#utility.yul\":13379:13383   */\n      0x20\n        /* \"#utility.yul\":13374:13377   */\n      dup4\n        /* \"#utility.yul\":13370:13384   */\n      add\n        /* \"#utility.yul\":13356:13384   */\n      swap1\n      pop\n        /* \"#utility.yul\":13211:13390   */\n      swap3\n      swap2\n      pop\n      pop\n      jump\t// out\n        /* \"#utility.yul\":13396:13509   */\n    tag_268:\n        /* \"#utility.yul\":13466:13470   */\n      0x00\n        /* \"#utility.yul\":13498:13502   */\n      0x20\n        /* \"#utility.yul\":13493:13496   */\n      dup3\n        /* \"#utility.yul\":13489:13503   */\n      add\n        /* \"#utility.yul\":13481:13503   */\n      swap1\n      pop\n        /* \"#utility.yul\":13396:13509   */\n      swap2\n      swap1\n      pop\n      jump\t// out\n        /* \"#utility.yul\":13545:14277   */\n    tag_269:\n        /* \"#utility.yul\":13664:13667   */\n      0x00\n        /* \"#utility.yul\":13693:13747   */\n      tag_452\n        /* \"#utility.yul\":13741:13746   */\n      dup3\n        /* \"#utility.yul\":13693:13747   */\n      tag_263\n      jump\t// in\n    tag_452:\n        /* \"#utility.yul\":13763:13849   */\n      tag_453\n        /* \"#utility.yul\":13842:13848   */\n      dup2\n        /* \"#utility.yul\":13837:13840   */\n      dup6\n        /* \"#utility.yul\":13763:13849   */\n      tag_264\n      jump\t// in\n    tag_453:\n        /* \"#utility.yul\":13756:13849   */\n      swap4\n      pop\n        /* \"#utility.yul\":13873:13929   */\n      tag_454\n        /* \"#utility.yul\":13923:13928   */\n      dup4\n        /* \"#utility.yul\":13873:13929   */\n      tag_265\n      jump\t// in\n    tag_454:\n        /* \"#utility.yul\":13952:13959   */\n      dup1\n        /* \"#utility.yul\":13983:13984   */\n      0x00\n        /* \"#utility.yul\":13968:14252   */\n    tag_455:\n        /* \"#utility.yul\":13993:13999   */\n      dup4\n        /* \"#utility.yul\":13990:13991   */\n      dup2\n        /* \"#utility.yul\":13987:14000   */\n      lt\n        /* \"#utility.yul\":13968:14252   */\n      iszero\n      tag_457\n      jumpi\n        /* \"#utility.yul\":14069:14075   */\n      dup2\n        /* \"#utility.yul\":14063:14076   */\n      mload\n        /* \"#utility.yul\":14096:14159   */\n      tag_458\n        /* \"#utility.yul\":14155:14158   */\n      dup9\n        /* \"#utility.yul\":14140:14153   */\n      dup3\n        /* \"#utility.yul\":14096:14159   */\n      tag_267\n      jump\t// in\n    tag_458:\n        /* \"#utility.yul\":14089:14159   */\n      swap8\n      pop\n        /* \"#utility.yul\":14182:14242   */\n      tag_459\n        /* \"#utility.yul\":14235:14241   */\n      dup4\n        /* \"#utility.yul\":14182:14242   */\n      tag_268\n      jump\t// in\n    tag_459:\n        /* \"#utility.yul\":14172:14242   */\n      swap3\n      pop\n        /* \"#utility.yul\":14028:14252   */\n      pop\n        /* \"#utility.yul\":14015:14016   */\n      0x01\n        /* \"#utility.yul\":14012:14013   */\n      dup2\n        /* \"#utility.yul\":14008:14017   */\n      add\n        /* \"#utility.yul\":14003:14017   */\n      swap1\n      pop\n        /* \"#utility.yul\":13968:14252   */\n      jump(tag_455)\n    tag_457:\n        /* \"#utility.yul\":13972:13986   */\n      pop\n        /* \"#utility.yul\":14268:14271   */\n      dup6\n        /* \"#utility.yul\":14261:14271   */\n      swap4\n      pop\n        /* \"#utility.yul\":13669:14277   */\n      pop\n      pop\n      pop\n        /* \"#utility.yul\":13545:14277   */\n      swap3\n      swap2\n      pop\n      pop\n      jump\t// out\n        /* \"#utility.yul\":14283:14656   */\n    tag_50:\n        /* \"#utility.yul\":14426:14430   */\n      0x00\n        /* \"#utility.yul\":14464:14466   */\n      0x20\n        /* \"#utility.yul\":14453:14462   */\n      dup3\n        /* \"#utility.yul\":14449:14467   */\n      add\n        /* \"#utility.yul\":14441:14467   */\n      swap1\n      pop\n        /* \"#utility.yul\":14513:14522   */\n      dup2\n        /* \"#utility.yul\":14507:14511   */\n      dup2\n        /* \"#utility.yul\":14503:14523   */\n      sub\n        /* \"#utility.yul\":14499:14500   */\n      0x00\n        /* \"#utility.yul\":14488:14497   */\n      dup4\n        /* \"#utility.yul\":14484:14501   */\n      add\n        /* \"#utility.yul\":14477:14524   */\n      mstore\n        /* \"#utility.yul\":14541:14649   */\n      tag_461\n        /* \"#utility.yul\":14644:14648   */\n      dup2\n        /* \"#utility.yul\":14635:14641   */\n      dup5\n        /* \"#utility.yul\":14541:14649   */\n      tag_269\n      jump\t// in\n    tag_461:\n        /* \"#utility.yul\":14533:14649   */\n      swap1\n      pop\n        /* \"#utility.yul\":14283:14656   */\n      swap3\n      swap2\n      pop\n      pop\n      jump\t// out\n        /* \"#utility.yul\":14662:14778   */\n    tag_270:\n        /* \"#utility.yul\":14732:14753   */\n      tag_463\n        /* \"#utility.yul\":14747:14752   */\n      dup2\n        /* \"#utility.yul\":14732:14753   */\n      tag_241\n      jump\t// in\n    tag_463:\n        /* \"#utility.yul\":14725:14730   */\n      dup2\n        /* \"#utility.yul\":14722:14754   */\n      eq\n        /* \"#utility.yul\":14712:14772   */\n      tag_464\n      jumpi\n        /* \"#utility.yul\":14768:14769   */\n      0x00\n        /* \"#utility.yul\":14765:14766   */\n      dup1\n        /* \"#utility.yul\":14758:14770   */\n      revert\n        /* \"#utility.yul\":14712:14772   */\n    tag_464:\n        /* \"#utility.yul\":14662:14778   */\n      pop\n      jump\t// out\n        /* \"#utility.yul\":14784:14917   */\n    tag_271:\n        /* \"#utility.yul\":14827:14832   */\n      0x00\n        /* \"#utility.yul\":14865:14871   */\n      dup2\n        /* \"#utility.yul\":14852:14872   */\n      calldataload\n        /* \"#utility.yul\":14843:14872   */\n      swap1\n      pop\n        /* \"#utility.yul\":14881:14911   */\n      tag_466\n        /* \"#utility.yul\":14905:14910   */\n      dup2\n        /* \"#utility.yul\":14881:14911   */\n      tag_270\n      jump\t// in\n    tag_466:\n        /* \"#utility.yul\":14784:14917   */\n      swap3\n      swap2\n      pop\n      pop\n      jump\t// out\n        /* \"#utility.yul\":14923:15391   */\n    tag_56:\n        /* \"#utility.yul\":14988:14994   */\n      0x00\n        /* \"#utility.yul\":14996:15002   */\n      dup1\n        /* \"#utility.yul\":15045:15047   */\n      0x40\n        /* \"#utility.yul\":15033:15042   */\n      dup4\n        /* \"#utility.yul\":15024:15031   */\n      dup6\n        /* \"#utility.yul\":15020:15043   */\n      sub\n        /* \"#utility.yul\":15016:15048   */\n      slt\n        /* \"#utility.yul\":15013:15132   */\n      iszero\n      tag_468\n      jumpi\n        /* \"#utility.yul\":15051:15130   */\n      tag_469\n      tag_228\n      jump\t// in\n    tag_469:\n        /* \"#utility.yul\":15013:15132   */\n    tag_468:\n        /* \"#utility.yul\":15171:15172   */\n      0x00\n        /* \"#utility.yul\":15196:15249   */\n      tag_470\n        /* \"#utility.yul\":15241:15248   */\n      dup6\n        /* \"#utility.yul\":15232:15238   */\n      dup3\n        /* \"#utility.yul\":15221:15230   */\n      dup7\n        /* \"#utility.yul\":15217:15239   */\n      add\n        /* \"#utility.yul\":15196:15249   */\n      tag_233\n      jump\t// in\n    tag_470:\n        /* \"#utility.yul\":15186:15249   */\n      swap3\n      pop\n        /* \"#utility.yul\":15142:15259   */\n      pop\n        /* \"#utility.yul\":15298:15300   */\n      0x20\n        /* \"#utility.yul\":15324:15374   */\n      tag_471\n        /* \"#utility.yul\":15366:15373   */\n      dup6\n        /* \"#utility.yul\":15357:15363   */\n      dup3\n        /* \"#utility.yul\":15346:15355   */\n      dup7\n        /* \"#utility.yul\":15342:15364   */\n      add\n        /* \"#utility.yul\":15324:15374   */\n      tag_271\n      jump\t// in\n    tag_471:\n        /* \"#utility.yul\":15314:15374   */\n      swap2\n      pop\n        /* \"#utility.yul\":15269:15384   */\n      pop\n        /* \"#utility.yul\":14923:15391   */\n      swap3\n      pop\n      swap3\n      swap1\n      pop\n      jump\t// out\n        /* \"#utility.yul\":15397:15871   */\n    tag_60:\n        /* \"#utility.yul\":15465:15471   */\n      0x00\n        /* \"#utility.yul\":15473:15479   */\n      dup1\n        /* \"#utility.yul\":15522:15524   */\n      0x40\n        /* \"#utility.yul\":15510:15519   */\n      dup4\n        /* \"#utility.yul\":15501:15508   */\n      dup6\n        /* \"#utility.yul\":15497:15520   */\n      sub\n        /* \"#utility.yul\":15493:15525   */\n      slt\n        /* \"#utility.yul\":15490:15609   */\n      iszero\n      tag_473\n      jumpi\n        /* \"#utility.yul\":15528:15607   */\n      tag_474\n      tag_228\n      jump\t// in\n    tag_474:\n        /* \"#utility.yul\":15490:15609   */\n    tag_473:\n        /* \"#utility.yul\":15648:15649   */\n      0x00\n        /* \"#utility.yul\":15673:15726   */\n      tag_475\n        /* \"#utility.yul\":15718:15725   */\n      dup6\n        /* \"#utility.yul\":15709:15715   */\n      dup3\n        /* \"#utility.yul\":15698:15707   */\n      dup7\n        /* \"#utility.yul\":15694:15716   */\n      add\n        /* \"#utility.yul\":15673:15726   */\n      tag_233\n      jump\t// in\n    tag_475:\n        /* \"#utility.yul\":15663:15726   */\n      swap3\n      pop\n        /* \"#utility.yul\":15619:15736   */\n      pop\n        /* \"#utility.yul\":15775:15777   */\n      0x20\n        /* \"#utility.yul\":15801:15854   */\n      tag_476\n        /* \"#utility.yul\":15846:15853   */\n      dup6\n        /* \"#utility.yul\":15837:15843   */\n      dup3\n        /* \"#utility.yul\":15826:15835   */\n      dup7\n        /* \"#utility.yul\":15822:15844   */\n      add\n        /* \"#utility.yul\":15801:15854   */\n      tag_233\n      jump\t// in\n    tag_476:\n        /* \"#utility.yul\":15791:15854   */\n      swap2\n      pop\n        /* \"#utility.yul\":15746:15864   */\n      pop\n        /* \"#utility.yul\":15397:15871   */\n      swap3\n      pop\n      swap3\n      swap1\n      pop\n      jump\t// out\n        /* \"#utility.yul\":15877:16966   */\n    tag_65:\n        /* \"#utility.yul\":15981:15987   */\n      0x00\n        /* \"#utility.yul\":15989:15995   */\n      dup1\n        /* \"#utility.yul\":15997:16003   */\n      0x00\n        /* \"#utility.yul\":16005:16011   */\n      dup1\n        /* \"#utility.yul\":16013:16019   */\n      0x00\n        /* \"#utility.yul\":16062:16065   */\n      0xa0\n        /* \"#utility.yul\":16050:16059   */\n      dup7\n        /* \"#utility.yul\":16041:16048   */\n      dup9\n        /* \"#utility.yul\":16037:16060   */\n      sub\n        /* \"#utility.yul\":16033:16066   */\n      slt\n        /* \"#utility.yul\":16030:16150   */\n      iszero\n      tag_478\n      jumpi\n        /* \"#utility.yul\":16069:16148   */\n      tag_479\n      tag_228\n      jump\t// in\n    tag_479:\n        /* \"#utility.yul\":16030:16150   */\n    tag_478:\n        /* \"#utility.yul\":16189:16190   */\n      0x00\n        /* \"#utility.yul\":16214:16267   */\n      tag_480\n        /* \"#utility.yul\":16259:16266   */\n      dup9\n        /* \"#utility.yul\":16250:16256   */\n      dup3\n        /* \"#utility.yul\":16239:16248   */\n      dup10\n        /* \"#utility.yul\":16235:16257   */\n      add\n        /* \"#utility.yul\":16214:16267   */\n      tag_233\n      jump\t// in\n    tag_480:\n        /* \"#utility.yul\":16204:16267   */\n      swap6\n      pop\n        /* \"#utility.yul\":16160:16277   */\n      pop\n        /* \"#utility.yul\":16316:16318   */\n      0x20\n        /* \"#utility.yul\":16342:16395   */\n      tag_481\n        /* \"#utility.yul\":16387:16394   */\n      dup9\n        /* \"#utility.yul\":16378:16384   */\n      dup3\n        /* \"#utility.yul\":16367:16376   */\n      dup10\n        /* \"#utility.yul\":16363:16385   */\n      add\n        /* \"#utility.yul\":16342:16395   */\n      tag_233\n      jump\t// in\n    tag_481:\n        /* \"#utility.yul\":16332:16395   */\n      swap5\n      pop\n        /* \"#utility.yul\":16287:16405   */\n      pop\n        /* \"#utility.yul\":16444:16446   */\n      0x40\n        /* \"#utility.yul\":16470:16523   */\n      tag_482\n        /* \"#utility.yul\":16515:16522   */\n      dup9\n        /* \"#utility.yul\":16506:16512   */\n      dup3\n        /* \"#utility.yul\":16495:16504   */\n      dup10\n        /* \"#utility.yul\":16491:16513   */\n      add\n        /* \"#utility.yul\":16470:16523   */\n      tag_236\n      jump\t// in\n    tag_482:\n        /* \"#utility.yul\":16460:16523   */\n      swap4\n      pop\n        /* \"#utility.yul\":16415:16533   */\n      pop\n        /* \"#utility.yul\":16572:16574   */\n      0x60\n        /* \"#utility.yul\":16598:16651   */\n      tag_483\n        /* \"#utility.yul\":16643:16650   */\n      dup9\n        /* \"#utility.yul\":16634:16640   */\n      dup3\n        /* \"#utility.yul\":16623:16632   */\n      dup10\n        /* \"#utility.yul\":16619:16641   */\n      add\n        /* \"#utility.yul\":16598:16651   */\n      tag_236\n      jump\t// in\n    tag_483:\n        /* \"#utility.yul\":16588:16651   */\n      swap3\n      pop\n        /* \"#utility.yul\":16543:16661   */\n      pop\n        /* \"#utility.yul\":16728:16731   */\n      0x80\n        /* \"#utility.yul\":16717:16726   */\n      dup7\n        /* \"#utility.yul\":16713:16732   */\n      add\n        /* \"#utility.yul\":16700:16733   */\n      calldataload\n        /* \"#utility.yul\":16760:16778   */\n      0xffffffffffffffff\n        /* \"#utility.yul\":16752:16758   */\n      dup2\n        /* \"#utility.yul\":16749:16779   */\n      gt\n        /* \"#utility.yul\":16746:16863   */\n      iszero\n      tag_484\n      jumpi\n        /* \"#utility.yul\":16782:16861   */\n      tag_485\n      tag_229\n      jump\t// in\n    tag_485:\n        /* \"#utility.yul\":16746:16863   */\n    tag_484:\n        /* \"#utility.yul\":16887:16949   */\n      tag_486\n        /* \"#utility.yul\":16941:16948   */\n      dup9\n        /* \"#utility.yul\":16932:16938   */\n      dup3\n        /* \"#utility.yul\":16921:16930   */\n      dup10\n        /* \"#utility.yul\":16917:16939   */\n      add\n        /* \"#utility.yul\":16887:16949   */\n      tag_259\n      jump\t// in\n    tag_486:\n        /* \"#utility.yul\":16877:16949   */\n      swap2\n      pop\n        /* \"#utility.yul\":16671:16959   */\n      pop\n        /* \"#utility.yul\":15877:16966   */\n      swap3\n      swap6\n      pop\n      swap3\n      swap6\n      swap1\n      swap4\n      pop\n      jump\t// out\n        /* \"#utility.yul\":16972:17201   */\n    tag_272:\n        /* \"#utility.yul\":17112:17146   */\n      0x455243313135353a2061646472657373207a65726f206973206e6f7420612076\n        /* \"#utility.yul\":17108:17109   */\n      0x00\n        /* \"#utility.yul\":17100:17106   */\n      dup3\n        /* \"#utility.yul\":17096:17110   */\n      add\n        /* \"#utility.yul\":17089:17147   */\n      mstore\n        /* \"#utility.yul\":17181:17193   */\n      0x616c6964206f776e657200000000000000000000000000000000000000000000\n        /* \"#utility.yul\":17176:17178   */\n      0x20\n        /* \"#utility.yul\":17168:17174   */\n      dup3\n        /* \"#utility.yul\":17164:17179   */\n      add\n        /* \"#utility.yul\":17157:17194   */\n      mstore\n        /* \"#utility.yul\":16972:17201   */\n      pop\n      jump\t// out\n        /* \"#utility.yul\":17207:17573   */\n    tag_273:\n        /* \"#utility.yul\":17349:17352   */\n      0x00\n        /* \"#utility.yul\":17370:17437   */\n      tag_489\n        /* \"#utility.yul\":17434:17436   */\n      0x2a\n        /* \"#utility.yul\":17429:17432   */\n      dup4\n        /* \"#utility.yul\":17370:17437   */\n      tag_244\n      jump\t// in\n    tag_489:\n        /* \"#utility.yul\":17363:17437   */\n      swap2\n      pop\n        /* \"#utility.yul\":17446:17539   */\n      tag_490\n        /* \"#utility.yul\":17535:17538   */\n      dup3\n        /* \"#utility.yul\":17446:17539   */\n      tag_272\n      jump\t// in\n    tag_490:\n        /* \"#utility.yul\":17564:17566   */\n      0x40\n        /* \"#utility.yul\":17559:17562   */\n      dup3\n        /* \"#utility.yul\":17555:17567   */\n      add\n        /* \"#utility.yul\":17548:17567   */\n      swap1\n      pop\n        /* \"#utility.yul\":17207:17573   */\n      swap2\n      swap1\n      pop\n      jump\t// out\n        /* \"#utility.yul\":17579:17998   */\n    tag_70:\n        /* \"#utility.yul\":17745:17749   */\n      0x00\n        /* \"#utility.yul\":17783:17785   */\n      0x20\n        /* \"#utility.yul\":17772:17781   */\n      dup3\n        /* \"#utility.yul\":17768:17786   */\n      add\n        /* \"#utility.yul\":17760:17786   */\n      swap1\n      pop\n        /* \"#utility.yul\":17832:17841   */\n      dup2\n        /* \"#utility.yul\":17826:17830   */\n      dup2\n        /* \"#utility.yul\":17822:17842   */\n      sub\n        /* \"#utility.yul\":17818:17819   */\n      0x00\n        /* \"#utility.yul\":17807:17816   */\n      dup4\n        /* \"#utility.yul\":17803:17820   */\n      add\n        /* \"#utility.yul\":17796:17843   */\n      mstore\n        /* \"#utility.yul\":17860:17991   */\n      tag_492\n        /* \"#utility.yul\":17986:17990   */\n      dup2\n        /* \"#utility.yul\":17860:17991   */\n      tag_273\n      jump\t// in\n    tag_492:\n        /* \"#utility.yul\":17852:17991   */\n      swap1\n      pop\n        /* \"#utility.yul\":17579:17998   */\n      swap2\n      swap1\n      pop\n      jump\t// out\n        /* \"#utility.yul\":18004:18184   */\n    tag_274:\n        /* \"#utility.yul\":18052:18129   */\n      0x4e487b7100000000000000000000000000000000000000000000000000000000\n        /* \"#utility.yul\":18049:18050   */\n      0x00\n        /* \"#utility.yul\":18042:18130   */\n      mstore\n        /* \"#utility.yul\":18149:18153   */\n      0x22\n        /* \"#utility.yul\":18146:18147   */\n      0x04\n        /* \"#utility.yul\":18139:18154   */\n      mstore\n        /* \"#utility.yul\":18173:18177   */\n      0x24\n        /* \"#utility.yul\":18170:18171   */\n      0x00\n        /* \"#utility.yul\":18163:18178   */\n      revert\n        /* \"#utility.yul\":18190:18510   */\n    tag_75:\n        /* \"#utility.yul\":18234:18240   */\n      0x00\n        /* \"#utility.yul\":18271:18272   */\n      0x02\n        /* \"#utility.yul\":18265:18269   */\n      dup3\n        /* \"#utility.yul\":18261:18273   */\n      div\n        /* \"#utility.yul\":18251:18273   */\n      swap1\n      pop\n        /* \"#utility.yul\":18318:18319   */\n      0x01\n        /* \"#utility.yul\":18312:18316   */\n      dup3\n        /* \"#utility.yul\":18308:18320   */\n      and\n        /* \"#utility.yul\":18339:18357   */\n      dup1\n        /* \"#utility.yul\":18329:18410   */\n      tag_495\n      jumpi\n        /* \"#utility.yul\":18395:18399   */\n      0x7f\n        /* \"#utility.yul\":18387:18393   */\n      dup3\n        /* \"#utility.yul\":18383:18400   */\n      and\n        /* \"#utility.yul\":18373:18400   */\n      swap2\n      pop\n        /* \"#utility.yul\":18329:18410   */\n    tag_495:\n        /* \"#utility.yul\":18457:18459   */\n      0x20\n        /* \"#utility.yul\":18449:18455   */\n      dup3\n        /* \"#utility.yul\":18446:18460   */\n      lt\n        /* \"#utility.yul\":18426:18444   */\n      dup2\n        /* \"#utility.yul\":18423:18461   */\n      sub\n        /* \"#utility.yul\":18420:18504   */\n      tag_496\n      jumpi\n        /* \"#utility.yul\":18476:18494   */\n      tag_497\n      tag_274\n      jump\t// in\n    tag_497:\n        /* \"#utility.yul\":18420:18504   */\n    tag_496:\n        /* \"#utility.yul\":18241:18510   */\n      pop\n        /* \"#utility.yul\":18190:18510   */\n      swap2\n      swap1\n      pop\n      jump\t// out\n        /* \"#utility.yul\":18516:18664   */\n    tag_275:\n        /* \"#utility.yul\":18618:18629   */\n      0x00\n        /* \"#utility.yul\":18655:18658   */\n      dup2\n        /* \"#utility.yul\":18640:18658   */\n      swap1\n      pop\n        /* \"#utility.yul\":18516:18664   */\n      swap3\n      swap2\n      pop\n      pop\n      jump\t// out\n        /* \"#utility.yul\":18670:19060   */\n    tag_276:\n        /* \"#utility.yul\":18776:18779   */\n      0x00\n        /* \"#utility.yul\":18804:18843   */\n      tag_500\n        /* \"#utility.yul\":18837:18842   */\n      dup3\n        /* \"#utility.yul\":18804:18843   */\n      tag_243\n      jump\t// in\n    tag_500:\n        /* \"#utility.yul\":18859:18948   */\n      tag_501\n        /* \"#utility.yul\":18941:18947   */\n      dup2\n        /* \"#utility.yul\":18936:18939   */\n      dup6\n        /* \"#utility.yul\":18859:18948   */\n      tag_275\n      jump\t// in\n    tag_501:\n        /* \"#utility.yul\":18852:18948   */\n      swap4\n      pop\n        /* \"#utility.yul\":18957:19022   */\n      tag_502\n        /* \"#utility.yul\":19015:19021   */\n      dup2\n        /* \"#utility.yul\":19010:19013   */\n      dup6\n        /* \"#utility.yul\":19003:19007   */\n      0x20\n        /* \"#utility.yul\":18996:19001   */\n      dup7\n        /* \"#utility.yul\":18992:19008   */\n      add\n        /* \"#utility.yul\":18957:19022   */\n      tag_245\n      jump\t// in\n    tag_502:\n        /* \"#utility.yul\":19047:19053   */\n      dup1\n        /* \"#utility.yul\":19042:19045   */\n      dup5\n        /* \"#utility.yul\":19038:19054   */\n      add\n        /* \"#utility.yul\":19031:19054   */\n      swap2\n      pop\n        /* \"#utility.yul\":18780:19060   */\n      pop\n        /* \"#utility.yul\":18670:19060   */\n      swap3\n      swap2\n      pop\n      pop\n      jump\t// out\n        /* \"#utility.yul\":19066:19501   */\n    tag_88:\n        /* \"#utility.yul\":19246:19249   */\n      0x00\n        /* \"#utility.yul\":19268:19363   */\n      tag_504\n        /* \"#utility.yul\":19359:19362   */\n      dup3\n        /* \"#utility.yul\":19350:19356   */\n      dup6\n        /* \"#utility.yul\":19268:19363   */\n      tag_276\n      jump\t// in\n    tag_504:\n        /* \"#utility.yul\":19261:19363   */\n      swap2\n      pop\n        /* \"#utility.yul\":19380:19475   */\n      tag_505\n        /* \"#utility.yul\":19471:19474   */\n      dup3\n        /* \"#utility.yul\":19462:19468   */\n      dup5\n        /* \"#utility.yul\":19380:19475   */\n      tag_276\n      jump\t// in\n    tag_505:\n        /* \"#utility.yul\":19373:19475   */\n      swap2\n      pop\n        /* \"#utility.yul\":19492:19495   */\n      dup2\n        /* \"#utility.yul\":19485:19495   */\n      swap1\n      pop\n        /* \"#utility.yul\":19066:19501   */\n      swap4\n      swap3\n      pop\n      pop\n      pop\n      jump\t// out\n        /* \"#utility.yul\":19507:19741   */\n    tag_277:\n        /* \"#utility.yul\":19647:19681   */\n      0x455243313135353a2063616c6c6572206973206e6f7420746f6b656e206f776e\n        /* \"#utility.yul\":19643:19644   */\n      0x00\n        /* \"#utility.yul\":19635:19641   */\n      dup3\n        /* \"#utility.yul\":19631:19645   */\n      add\n        /* \"#utility.yul\":19624:19682   */\n      mstore\n        /* \"#utility.yul\":19716:19733   */\n      0x6572206e6f7220617070726f7665640000000000000000000000000000000000\n        /* \"#utility.yul\":19711:19713   */\n      0x20\n        /* \"#utility.yul\":19703:19709   */\n      dup3\n        /* \"#utility.yul\":19699:19714   */\n      add\n        /* \"#utility.yul\":19692:19734   */\n      mstore\n        /* \"#utility.yul\":19507:19741   */\n      pop\n      jump\t// out\n        /* \"#utility.yul\":19747:20113   */\n    tag_278:\n        /* \"#utility.yul\":19889:19892   */\n      0x00\n        /* \"#utility.yul\":19910:19977   */\n      tag_508\n        /* \"#utility.yul\":19974:19976   */\n      0x2f\n        /* \"#utility.yul\":19969:19972   */\n      dup4\n        /* \"#utility.yul\":19910:19977   */\n      tag_244\n      jump\t// in\n    tag_508:\n        /* \"#utility.yul\":19903:19977   */\n      swap2\n      pop\n        /* \"#utility.yul\":19986:20079   */\n      tag_509\n        /* \"#utility.yul\":20075:20078   */\n      dup3\n        /* \"#utility.yul\":19986:20079   */\n      tag_277\n      jump\t// in\n    tag_509:\n        /* \"#utility.yul\":20104:20106   */\n      0x40\n        /* \"#utility.yul\":20099:20102   */\n      dup3\n        /* \"#utility.yul\":20095:20107   */\n      add\n        /* \"#utility.yul\":20088:20107   */\n      swap1\n      pop\n        /* \"#utility.yul\":19747:20113   */\n      swap2\n      swap1\n      pop\n      jump\t// out\n        /* \"#utility.yul\":20119:20538   */\n    tag_95:\n        /* \"#utility.yul\":20285:20289   */\n      0x00\n        /* \"#utility.yul\":20323:20325   */\n      0x20\n        /* \"#utility.yul\":20312:20321   */\n      dup3\n        /* \"#utility.yul\":20308:20326   */\n      add\n        /* \"#utility.yul\":20300:20326   */\n      swap1\n      pop\n        /* \"#utility.yul\":20372:20381   */\n      dup2\n        /* \"#utility.yul\":20366:20370   */\n      dup2\n        /* \"#utility.yul\":20362:20382   */\n      sub\n        /* \"#utility.yul\":20358:20359   */\n      0x00\n        /* \"#utility.yul\":20347:20356   */\n      dup4\n        /* \"#utility.yul\":20343:20360   */\n      add\n        /* \"#utility.yul\":20336:20383   */\n      mstore\n        /* \"#utility.yul\":20400:20531   */\n      tag_511\n        /* \"#utility.yul\":20526:20530   */\n      dup2\n        /* \"#utility.yul\":20400:20531   */\n      tag_278\n      jump\t// in\n    tag_511:\n        /* \"#utility.yul\":20392:20531   */\n      swap1\n      pop\n        /* \"#utility.yul\":20119:20538   */\n      swap2\n      swap1\n      pop\n      jump\t// out\n        /* \"#utility.yul\":20544:20771   */\n    tag_279:\n        /* \"#utility.yul\":20684:20718   */\n      0x455243313135353a2069647320616e6420616d6f756e7473206c656e67746820\n        /* \"#utility.yul\":20680:20681   */\n      0x00\n        /* \"#utility.yul\":20672:20678   */\n      dup3\n        /* \"#utility.yul\":20668:20682   */\n      add\n        /* \"#utility.yul\":20661:20719   */\n      mstore\n        /* \"#utility.yul\":20753:20763   */\n      0x6d69736d61746368000000000000000000000000000000000000000000000000\n        /* \"#utility.yul\":20748:20750   */\n      0x20\n        /* \"#utility.yul\":20740:20746   */\n      dup3\n        /* \"#utility.yul\":20736:20751   */\n      add\n        /* \"#utility.yul\":20729:20764   */\n      mstore\n        /* \"#utility.yul\":20544:20771   */\n      pop\n      jump\t// out\n        /* \"#utility.yul\":20777:21143   */\n    tag_280:\n        /* \"#utility.yul\":20919:20922   */\n      0x00\n        /* \"#utility.yul\":20940:21007   */\n      tag_514\n        /* \"#utility.yul\":21004:21006   */\n      0x28\n        /* \"#utility.yul\":20999:21002   */\n      dup4\n        /* \"#utility.yul\":20940:21007   */\n      tag_244\n      jump\t// in\n    tag_514:\n        /* \"#utility.yul\":20933:21007   */\n      swap2\n      pop\n        /* \"#utility.yul\":21016:21109   */\n      tag_515\n        /* \"#utility.yul\":21105:21108   */\n      dup3\n        /* \"#utility.yul\":21016:21109   */\n      tag_279\n      jump\t// in\n    tag_515:\n        /* \"#utility.yul\":21134:21136   */\n      0x40\n        /* \"#utility.yul\":21129:21132   */\n      dup3\n        /* \"#utility.yul\":21125:21137   */\n      add\n        /* \"#utility.yul\":21118:21137   */\n      swap1\n      pop\n        /* \"#utility.yul\":20777:21143   */\n      swap2\n      swap1\n      pop\n      jump\t// out\n        /* \"#utility.yul\":21149:21568   */\n    tag_98:\n        /* \"#utility.yul\":21315:21319   */\n      0x00\n        /* \"#utility.yul\":21353:21355   */\n      0x20\n        /* \"#utility.yul\":21342:21351   */\n      dup3\n        /* \"#utility.yul\":21338:21356   */\n      add\n        /* \"#utility.yul\":21330:21356   */\n      swap1\n      pop\n        /* \"#utility.yul\":21402:21411   */\n      dup2\n        /* \"#utility.yul\":21396:21400   */\n      dup2\n        /* \"#utility.yul\":21392:21412   */\n      sub\n        /* \"#utility.yul\":21388:21389   */\n      0x00\n        /* \"#utility.yul\":21377:21386   */\n      dup4\n        /* \"#utility.yul\":21373:21390   */\n      add\n        /* \"#utility.yul\":21366:21413   */\n      mstore\n        /* \"#utility.yul\":21430:21561   */\n      tag_517\n        /* \"#utility.yul\":21556:21560   */\n      dup2\n        /* \"#utility.yul\":21430:21561   */\n      tag_280\n      jump\t// in\n    tag_517:\n        /* \"#utility.yul\":21422:21561   */\n      swap1\n      pop\n        /* \"#utility.yul\":21149:21568   */\n      swap2\n      swap1\n      pop\n      jump\t// out\n        /* \"#utility.yul\":21574:21798   */\n    tag_281:\n        /* \"#utility.yul\":21714:21748   */\n      0x455243313135353a207472616e7366657220746f20746865207a65726f206164\n        /* \"#utility.yul\":21710:21711   */\n      0x00\n        /* \"#utility.yul\":21702:21708   */\n      dup3\n        /* \"#utility.yul\":21698:21712   */\n      add\n        /* \"#utility.yul\":21691:21749   */\n      mstore\n        /* \"#utility.yul\":21783:21790   */\n      0x6472657373000000000000000000000000000000000000000000000000000000\n        /* \"#utility.yul\":21778:21780   */\n      0x20\n        /* \"#utility.yul\":21770:21776   */\n      dup3\n        /* \"#utility.yul\":21766:21781   */\n      add\n        /* \"#utility.yul\":21759:21791   */\n      mstore\n        /* \"#utility.yul\":21574:21798   */\n      pop\n      jump\t// out\n        /* \"#utility.yul\":21804:22170   */\n    tag_282:\n        /* \"#utility.yul\":21946:21949   */\n      0x00\n        /* \"#utility.yul\":21967:22034   */\n      tag_520\n        /* \"#utility.yul\":22031:22033   */\n      0x25\n        /* \"#utility.yul\":22026:22029   */\n      dup4\n        /* \"#utility.yul\":21967:22034   */\n      tag_244\n      jump\t// in\n    tag_520:\n        /* \"#utility.yul\":21960:22034   */\n      swap2\n      pop\n        /* \"#utility.yul\":22043:22136   */\n      tag_521\n        /* \"#utility.yul\":22132:22135   */\n      dup3\n        /* \"#utility.yul\":22043:22136   */\n      tag_281\n      jump\t// in\n    tag_521:\n        /* \"#utility.yul\":22161:22163   */\n      0x40\n        /* \"#utility.yul\":22156:22159   */\n      dup3\n        /* \"#utility.yul\":22152:22164   */\n      add\n        /* \"#utility.yul\":22145:22164   */\n      swap1\n      pop\n        /* \"#utility.yul\":21804:22170   */\n      swap2\n      swap1\n      pop\n      jump\t// out\n        /* \"#utility.yul\":22176:22595   */\n    tag_101:\n        /* \"#utility.yul\":22342:22346   */\n      0x00\n        /* \"#utility.yul\":22380:22382   */\n      0x20\n        /* \"#utility.yul\":22369:22378   */\n      dup3\n        /* \"#utility.yul\":22365:22383   */\n      add\n        /* \"#utility.yul\":22357:22383   */\n      swap1\n      pop\n        /* \"#utility.yul\":22429:22438   */\n      dup2\n        /* \"#utility.yul\":22423:22427   */\n      dup2\n        /* \"#utility.yul\":22419:22439   */\n      sub\n        /* \"#utility.yul\":22415:22416   */\n      0x00\n        /* \"#utility.yul\":22404:22413   */\n      dup4\n        /* \"#utility.yul\":22400:22417   */\n      add\n        /* \"#utility.yul\":22393:22440   */\n      mstore\n        /* \"#utility.yul\":22457:22588   */\n      tag_523\n        /* \"#utility.yul\":22583:22587   */\n      dup2\n        /* \"#utility.yul\":22457:22588   */\n      tag_282\n      jump\t// in\n    tag_523:\n        /* \"#utility.yul\":22449:22588   */\n      swap1\n      pop\n        /* \"#utility.yul\":22176:22595   */\n      swap2\n      swap1\n      pop\n      jump\t// out\n        /* \"#utility.yul\":22601:22781   */\n    tag_107:\n        /* \"#utility.yul\":22649:22726   */\n      0x4e487b7100000000000000000000000000000000000000000000000000000000\n        /* \"#utility.yul\":22646:22647   */\n      0x00\n        /* \"#utility.yul\":22639:22727   */\n      mstore\n        /* \"#utility.yul\":22746:22750   */\n      0x32\n        /* \"#utility.yul\":22743:22744   */\n      0x04\n        /* \"#utility.yul\":22736:22751   */\n      mstore\n        /* \"#utility.yul\":22770:22774   */\n      0x24\n        /* \"#utility.yul\":22767:22768   */\n      0x00\n        /* \"#utility.yul\":22760:22775   */\n      revert\n        /* \"#utility.yul\":22787:23016   */\n    tag_283:\n        /* \"#utility.yul\":22927:22961   */\n      0x455243313135353a20696e73756666696369656e742062616c616e636520666f\n        /* \"#utility.yul\":22923:22924   */\n      0x00\n        /* \"#utility.yul\":22915:22921   */\n      dup3\n        /* \"#utility.yul\":22911:22925   */\n      add\n        /* \"#utility.yul\":22904:22962   */\n      mstore\n        /* \"#utility.yul\":22996:23008   */\n      0x72207472616e7366657200000000000000000000000000000000000000000000\n        /* \"#utility.yul\":22991:22993   */\n      0x20\n        /* \"#utility.yul\":22983:22989   */\n      dup3\n        /* \"#utility.yul\":22979:22994   */\n      add\n        /* \"#utility.yul\":22972:23009   */\n      mstore\n        /* \"#utility.yul\":22787:23016   */\n      pop\n      jump\t// out\n        /* \"#utility.yul\":23022:23388   */\n    tag_284:\n        /* \"#utility.yul\":23164:23167   */\n      0x00\n        /* \"#utility.yul\":23185:23252   */\n      tag_527\n        /* \"#utility.yul\":23249:23251   */\n      0x2a\n        /* \"#utility.yul\":23244:23247   */\n      dup4\n        /* \"#utility.yul\":23185:23252   */\n      tag_244\n      jump\t// in\n    tag_527:\n        /* \"#utility.yul\":23178:23252   */\n      swap2\n      pop\n        /* \"#utility.yul\":23261:23354   */\n      tag_528\n        /* \"#utility.yul\":23350:23353   */\n      dup3\n        /* \"#utility.yul\":23261:23354   */\n      tag_283\n      jump\t// in\n    tag_528:\n        /* \"#utility.yul\":23379:23381   */\n      0x40\n        /* \"#utility.yul\":23374:23377   */\n      dup3\n        /* \"#utility.yul\":23370:23382   */\n      add\n        /* \"#utility.yul\":23363:23382   */\n      swap1\n      pop\n        /* \"#utility.yul\":23022:23388   */\n      swap2\n      swap1\n      pop\n      jump\t// out\n        /* \"#utility.yul\":23394:23813   */\n    tag_112:\n        /* \"#utility.yul\":23560:23564   */\n      0x00\n        /* \"#utility.yul\":23598:23600   */\n      0x20\n        /* \"#utility.yul\":23587:23596   */\n      dup3\n        /* \"#utility.yul\":23583:23601   */\n      add\n        /* \"#utility.yul\":23575:23601   */\n      swap1\n      pop\n        /* \"#utility.yul\":23647:23656   */\n      dup2\n        /* \"#utility.yul\":23641:23645   */\n      dup2\n        /* \"#utility.yul\":23637:23657   */\n      sub\n        /* \"#utility.yul\":23633:23634   */\n      0x00\n        /* \"#utility.yul\":23622:23631   */\n      dup4\n        /* \"#utility.yul\":23618:23635   */\n      add\n        /* \"#utility.yul\":23611:23658   */\n      mstore\n        /* \"#utility.yul\":23675:23806   */\n      tag_530\n        /* \"#utility.yul\":23801:23805   */\n      dup2\n        /* \"#utility.yul\":23675:23806   */\n      tag_284\n      jump\t// in\n    tag_530:\n        /* \"#utility.yul\":23667:23806   */\n      swap1\n      pop\n        /* \"#utility.yul\":23394:23813   */\n      swap2\n      swap1\n      pop\n      jump\t// out\n        /* \"#utility.yul\":23819:23999   */\n    tag_285:\n        /* \"#utility.yul\":23867:23944   */\n      0x4e487b7100000000000000000000000000000000000000000000000000000000\n        /* \"#utility.yul\":23864:23865   */\n      0x00\n        /* \"#utility.yul\":23857:23945   */\n      mstore\n        /* \"#utility.yul\":23964:23968   */\n      0x11\n        /* \"#utility.yul\":23961:23962   */\n      0x04\n        /* \"#utility.yul\":23954:23969   */\n      mstore\n        /* \"#utility.yul\":23988:23992   */\n      0x24\n        /* \"#utility.yul\":23985:23986   */\n      0x00\n        /* \"#utility.yul\":23978:23993   */\n      revert\n        /* \"#utility.yul\":24005:24196   */\n    tag_114:\n        /* \"#utility.yul\":24045:24048   */\n      0x00\n        /* \"#utility.yul\":24064:24084   */\n      tag_533\n        /* \"#utility.yul\":24082:24083   */\n      dup3\n        /* \"#utility.yul\":24064:24084   */\n      tag_234\n      jump\t// in\n    tag_533:\n        /* \"#utility.yul\":24059:24084   */\n      swap2\n      pop\n        /* \"#utility.yul\":24098:24118   */\n      tag_534\n        /* \"#utility.yul\":24116:24117   */\n      dup4\n        /* \"#utility.yul\":24098:24118   */\n      tag_234\n      jump\t// in\n    tag_534:\n        /* \"#utility.yul\":24093:24118   */\n      swap3\n      pop\n        /* \"#utility.yul\":24141:24142   */\n      dup3\n        /* \"#utility.yul\":24138:24139   */\n      dup3\n        /* \"#utility.yul\":24134:24143   */\n      add\n        /* \"#utility.yul\":24127:24143   */\n      swap1\n      pop\n        /* \"#utility.yul\":24162:24165   */\n      dup1\n        /* \"#utility.yul\":24159:24160   */\n      dup3\n        /* \"#utility.yul\":24156:24166   */\n      gt\n        /* \"#utility.yul\":24153:24189   */\n      iszero\n      tag_535\n      jumpi\n        /* \"#utility.yul\":24169:24187   */\n      tag_536\n      tag_285\n      jump\t// in\n    tag_536:\n        /* \"#utility.yul\":24153:24189   */\n    tag_535:\n        /* \"#utility.yul\":24005:24196   */\n      swap3\n      swap2\n      pop\n      pop\n      jump\t// out\n        /* \"#utility.yul\":24202:24836   */\n    tag_116:\n        /* \"#utility.yul\":24423:24427   */\n      0x00\n        /* \"#utility.yul\":24461:24463   */\n      0x40\n        /* \"#utility.yul\":24450:24459   */\n      dup3\n        /* \"#utility.yul\":24446:24464   */\n      add\n        /* \"#utility.yul\":24438:24464   */\n      swap1\n      pop\n        /* \"#utility.yul\":24510:24519   */\n      dup2\n        /* \"#utility.yul\":24504:24508   */\n      dup2\n        /* \"#utility.yul\":24500:24520   */\n      sub\n        /* \"#utility.yul\":24496:24497   */\n      0x00\n        /* \"#utility.yul\":24485:24494   */\n      dup4\n        /* \"#utility.yul\":24481:24498   */\n      add\n        /* \"#utility.yul\":24474:24521   */\n      mstore\n        /* \"#utility.yul\":24538:24646   */\n      tag_538\n        /* \"#utility.yul\":24641:24645   */\n      dup2\n        /* \"#utility.yul\":24632:24638   */\n      dup6\n        /* \"#utility.yul\":24538:24646   */\n      tag_269\n      jump\t// in\n    tag_538:\n        /* \"#utility.yul\":24530:24646   */\n      swap1\n      pop\n        /* \"#utility.yul\":24693:24702   */\n      dup2\n        /* \"#utility.yul\":24687:24691   */\n      dup2\n        /* \"#utility.yul\":24683:24703   */\n      sub\n        /* \"#utility.yul\":24678:24680   */\n      0x20\n        /* \"#utility.yul\":24667:24676   */\n      dup4\n        /* \"#utility.yul\":24663:24681   */\n      add\n        /* \"#utility.yul\":24656:24704   */\n      mstore\n        /* \"#utility.yul\":24721:24829   */\n      tag_539\n        /* \"#utility.yul\":24824:24828   */\n      dup2\n        /* \"#utility.yul\":24815:24821   */\n      dup5\n        /* \"#utility.yul\":24721:24829   */\n      tag_269\n      jump\t// in\n    tag_539:\n        /* \"#utility.yul\":24713:24829   */\n      swap1\n      pop\n        /* \"#utility.yul\":24202:24836   */\n      swap4\n      swap3\n      pop\n      pop\n      pop\n      jump\t// out\n        /* \"#utility.yul\":24842:25070   */\n    tag_286:\n        /* \"#utility.yul\":24982:25016   */\n      0x455243313135353a206163636f756e747320616e6420696473206c656e677468\n        /* \"#utility.yul\":24978:24979   */\n      0x00\n        /* \"#utility.yul\":24970:24976   */\n      dup3\n        /* \"#utility.yul\":24966:24980   */\n      add\n        /* \"#utility.yul\":24959:25017   */\n      mstore\n        /* \"#utility.yul\":25051:25062   */\n      0x206d69736d617463680000000000000000000000000000000000000000000000\n        /* \"#utility.yul\":25046:25048   */\n      0x20\n        /* \"#utility.yul\":25038:25044   */\n      dup3\n        /* \"#utility.yul\":25034:25049   */\n      add\n        /* \"#utility.yul\":25027:25063   */\n      mstore\n        /* \"#utility.yul\":24842:25070   */\n      pop\n      jump\t// out\n        /* \"#utility.yul\":25076:25442   */\n    tag_287:\n        /* \"#utility.yul\":25218:25221   */\n      0x00\n        /* \"#utility.yul\":25239:25306   */\n      tag_542\n        /* \"#utility.yul\":25303:25305   */\n      0x29\n        /* \"#utility.yul\":25298:25301   */\n      dup4\n        /* \"#utility.yul\":25239:25306   */\n      tag_244\n      jump\t// in\n    tag_542:\n        /* \"#utility.yul\":25232:25306   */\n      swap2\n      pop\n        /* \"#utility.yul\":25315:25408   */\n      tag_543\n        /* \"#utility.yul\":25404:25407   */\n      dup3\n        /* \"#utility.yul\":25315:25408   */\n      tag_286\n      jump\t// in\n    tag_543:\n        /* \"#utility.yul\":25433:25435   */\n      0x40\n        /* \"#utility.yul\":25428:25431   */\n      dup3\n        /* \"#utility.yul\":25424:25436   */\n      add\n        /* \"#utility.yul\":25417:25436   */\n      swap1\n      pop\n        /* \"#utility.yul\":25076:25442   */\n      swap2\n      swap1\n      pop\n      jump\t// out\n        /* \"#utility.yul\":25448:25867   */\n    tag_122:\n        /* \"#utility.yul\":25614:25618   */\n      0x00\n        /* \"#utility.yul\":25652:25654   */\n      0x20\n        /* \"#utility.yul\":25641:25650   */\n      dup3\n        /* \"#utility.yul\":25637:25655   */\n      add\n        /* \"#utility.yul\":25629:25655   */\n      swap1\n      pop\n        /* \"#utility.yul\":25701:25710   */\n      dup2\n        /* \"#utility.yul\":25695:25699   */\n      dup2\n        /* \"#utility.yul\":25691:25711   */\n      sub\n        /* \"#utility.yul\":25687:25688   */\n      0x00\n        /* \"#utility.yul\":25676:25685   */\n      dup4\n        /* \"#utility.yul\":25672:25689   */\n      add\n        /* \"#utility.yul\":25665:25712   */\n      mstore\n        /* \"#utility.yul\":25729:25860   */\n      tag_545\n        /* \"#utility.yul\":25855:25859   */\n      dup2\n        /* \"#utility.yul\":25729:25860   */\n      tag_287\n      jump\t// in\n    tag_545:\n        /* \"#utility.yul\":25721:25860   */\n      swap1\n      pop\n        /* \"#utility.yul\":25448:25867   */\n      swap2\n      swap1\n      pop\n      jump\t// out\n        /* \"#utility.yul\":25873:26101   */\n    tag_288:\n        /* \"#utility.yul\":26013:26047   */\n      0x455243313135353a2073657474696e6720617070726f76616c20737461747573\n        /* \"#utility.yul\":26009:26010   */\n      0x00\n        /* \"#utility.yul\":26001:26007   */\n      dup3\n        /* \"#utility.yul\":25997:26011   */\n      add\n        /* \"#utility.yul\":25990:26048   */\n      mstore\n        /* \"#utility.yul\":26082:26093   */\n      0x20666f722073656c660000000000000000000000000000000000000000000000\n        /* \"#utility.yul\":26077:26079   */\n      0x20\n        /* \"#utility.yul\":26069:26075   */\n      dup3\n        /* \"#utility.yul\":26065:26080   */\n      add\n        /* \"#utility.yul\":26058:26094   */\n      mstore\n        /* \"#utility.yul\":25873:26101   */\n      pop\n      jump\t// out\n        /* \"#utility.yul\":26107:26473   */\n    tag_289:\n        /* \"#utility.yul\":26249:26252   */\n      0x00\n        /* \"#utility.yul\":26270:26337   */\n      tag_548\n        /* \"#utility.yul\":26334:26336   */\n      0x29\n        /* \"#utility.yul\":26329:26332   */\n      dup4\n        /* \"#utility.yul\":26270:26337   */\n      tag_244\n      jump\t// in\n    tag_548:\n        /* \"#utility.yul\":26263:26337   */\n      swap2\n      pop\n        /* \"#utility.yul\":26346:26439   */\n      tag_549\n        /* \"#utility.yul\":26435:26438   */\n      dup3\n        /* \"#utility.yul\":26346:26439   */\n      tag_288\n      jump\t// in\n    tag_549:\n        /* \"#utility.yul\":26464:26466   */\n      0x40\n        /* \"#utility.yul\":26459:26462   */\n      dup3\n        /* \"#utility.yul\":26455:26467   */\n      add\n        /* \"#utility.yul\":26448:26467   */\n      swap1\n      pop\n        /* \"#utility.yul\":26107:26473   */\n      swap2\n      swap1\n      pop\n      jump\t// out\n        /* \"#utility.yul\":26479:26898   */\n    tag_145:\n        /* \"#utility.yul\":26645:26649   */\n      0x00\n        /* \"#utility.yul\":26683:26685   */\n      0x20\n        /* \"#utility.yul\":26672:26681   */\n      dup3\n        /* \"#utility.yul\":26668:26686   */\n      add\n        /* \"#utility.yul\":26660:26686   */\n      swap1\n      pop\n        /* \"#utility.yul\":26732:26741   */\n      dup2\n        /* \"#utility.yul\":26726:26730   */\n      dup2\n        /* \"#utility.yul\":26722:26742   */\n      sub\n        /* \"#utility.yul\":26718:26719   */\n      0x00\n        /* \"#utility.yul\":26707:26716   */\n      dup4\n        /* \"#utility.yul\":26703:26720   */\n      add\n        /* \"#utility.yul\":26696:26743   */\n      mstore\n        /* \"#utility.yul\":26760:26891   */\n      tag_551\n        /* \"#utility.yul\":26886:26890   */\n      dup2\n        /* \"#utility.yul\":26760:26891   */\n      tag_289\n      jump\t// in\n    tag_551:\n        /* \"#utility.yul\":26752:26891   */\n      swap1\n      pop\n        /* \"#utility.yul\":26479:26898   */\n      swap2\n      swap1\n      pop\n      jump\t// out\n        /* \"#utility.yul\":26904:27236   */\n    tag_159:\n        /* \"#utility.yul\":27025:27029   */\n      0x00\n        /* \"#utility.yul\":27063:27065   */\n      0x40\n        /* \"#utility.yul\":27052:27061   */\n      dup3\n        /* \"#utility.yul\":27048:27066   */\n      add\n        /* \"#utility.yul\":27040:27066   */\n      swap1\n      pop\n        /* \"#utility.yul\":27076:27147   */\n      tag_553\n        /* \"#utility.yul\":27144:27145   */\n      0x00\n        /* \"#utility.yul\":27133:27142   */\n      dup4\n        /* \"#utility.yul\":27129:27146   */\n      add\n        /* \"#utility.yul\":27120:27126   */\n      dup6\n        /* \"#utility.yul\":27076:27147   */\n      tag_237\n      jump\t// in\n    tag_553:\n        /* \"#utility.yul\":27157:27229   */\n      tag_554\n        /* \"#utility.yul\":27225:27227   */\n      0x20\n        /* \"#utility.yul\":27214:27223   */\n      dup4\n        /* \"#utility.yul\":27210:27228   */\n      add\n        /* \"#utility.yul\":27201:27207   */\n      dup5\n        /* \"#utility.yul\":27157:27229   */\n      tag_237\n      jump\t// in\n    tag_554:\n        /* \"#utility.yul\":26904:27236   */\n      swap4\n      swap3\n      pop\n      pop\n      pop\n      jump\t// out\n        /* \"#utility.yul\":27242:27475   */\n    tag_168:\n        /* \"#utility.yul\":27281:27284   */\n      0x00\n        /* \"#utility.yul\":27304:27328   */\n      tag_556\n        /* \"#utility.yul\":27322:27327   */\n      dup3\n        /* \"#utility.yul\":27304:27328   */\n      tag_234\n      jump\t// in\n    tag_556:\n        /* \"#utility.yul\":27295:27328   */\n      swap2\n      pop\n        /* \"#utility.yul\":27350:27416   */\n      0xffffffffffffffffffffffffffffffffffffffffffffffffffffffffffffffff\n        /* \"#utility.yul\":27343:27348   */\n      dup3\n        /* \"#utility.yul\":27340:27417   */\n      sub\n        /* \"#utility.yul\":27337:27440   */\n      tag_557\n      jumpi\n        /* \"#utility.yul\":27420:27438   */\n      tag_558\n      tag_285\n      jump\t// in\n    tag_558:\n        /* \"#utility.yul\":27337:27440   */\n    tag_557:\n        /* \"#utility.yul\":27467:27468   */\n      0x01\n        /* \"#utility.yul\":27460:27465   */\n      dup3\n        /* \"#utility.yul\":27456:27469   */\n      add\n        /* \"#utility.yul\":27449:27469   */\n      swap1\n      pop\n        /* \"#utility.yul\":27242:27475   */\n      swap2\n      swap1\n      pop\n      jump\t// out\n        /* \"#utility.yul\":27481:27661   */\n    tag_290:\n        /* \"#utility.yul\":27529:27606   */\n      0x4e487b7100000000000000000000000000000000000000000000000000000000\n        /* \"#utility.yul\":27526:27527   */\n      0x00\n        /* \"#utility.yul\":27519:27607   */\n      mstore\n        /* \"#utility.yul\":27626:27630   */\n      0x12\n        /* \"#utility.yul\":27623:27624   */\n      0x04\n        /* \"#utility.yul\":27616:27631   */\n      mstore\n        /* \"#utility.yul\":27650:27654   */\n      0x24\n        /* \"#utility.yul\":27647:27648   */\n      0x00\n        /* \"#utility.yul\":27640:27655   */\n      revert\n        /* \"#utility.yul\":27667:27852   */\n    tag_170:\n        /* \"#utility.yul\":27707:27708   */\n      0x00\n        /* \"#utility.yul\":27724:27744   */\n      tag_561\n        /* \"#utility.yul\":27742:27743   */\n      dup3\n        /* \"#utility.yul\":27724:27744   */\n      tag_234\n      jump\t// in\n    tag_561:\n        /* \"#utility.yul\":27719:27744   */\n      swap2\n      pop\n        /* \"#utility.yul\":27758:27778   */\n      tag_562\n        /* \"#utility.yul\":27776:27777   */\n      dup4\n        /* \"#utility.yul\":27758:27778   */\n      tag_234\n      jump\t// in\n    tag_562:\n        /* \"#utility.yul\":27753:27778   */\n      swap3\n      pop\n        /* \"#utility.yul\":27797:27798   */\n      dup3\n        /* \"#utility.yul\":27787:27822   */\n      tag_563\n      jumpi\n        /* \"#utility.yul\":27802:27820   */\n      tag_564\n      tag_290\n      jump\t// in\n    tag_564:\n        /* \"#utility.yul\":27787:27822   */\n    tag_563:\n        /* \"#utility.yul\":27844:27845   */\n      dup3\n        /* \"#utility.yul\":27841:27842   */\n      dup3\n        /* \"#utility.yul\":27837:27846   */\n      div\n        /* \"#utility.yul\":27832:27846   */\n      swap1\n      pop\n        /* \"#utility.yul\":27667:27852   */\n      swap3\n      swap2\n      pop\n      pop\n      jump\t// out\n        /* \"#utility.yul\":27858:28052   */\n    tag_177:\n        /* \"#utility.yul\":27898:27902   */\n      0x00\n        /* \"#utility.yul\":27918:27938   */\n      tag_566\n        /* \"#utility.yul\":27936:27937   */\n      dup3\n        /* \"#utility.yul\":27918:27938   */\n      tag_234\n      jump\t// in\n    tag_566:\n        /* \"#utility.yul\":27913:27938   */\n      swap2\n      pop\n        /* \"#utility.yul\":27952:27972   */\n      tag_567\n        /* \"#utility.yul\":27970:27971   */\n      dup4\n        /* \"#utility.yul\":27952:27972   */\n      tag_234\n      jump\t// in\n    tag_567:\n        /* \"#utility.yul\":27947:27972   */\n      swap3\n      pop\n        /* \"#utility.yul\":27996:27997   */\n      dup3\n        /* \"#utility.yul\":27993:27994   */\n      dup3\n        /* \"#utility.yul\":27989:27998   */\n      sub\n        /* \"#utility.yul\":27981:27998   */\n      swap1\n      pop\n        /* \"#utility.yul\":28020:28021   */\n      dup2\n        /* \"#utility.yul\":28014:28018   */\n      dup2\n        /* \"#utility.yul\":28011:28022   */\n      gt\n        /* \"#utility.yul\":28008:28045   */\n      iszero\n      tag_568\n      jumpi\n        /* \"#utility.yul\":28025:28043   */\n      tag_569\n      tag_285\n      jump\t// in\n    tag_569:\n        /* \"#utility.yul\":28008:28045   */\n    tag_568:\n        /* \"#utility.yul\":27858:28052   */\n      swap3\n      swap2\n      pop\n      pop\n      jump\t// out\n        /* \"#utility.yul\":28058:28234   */\n    tag_179:\n        /* \"#utility.yul\":28090:28091   */\n      0x00\n        /* \"#utility.yul\":28107:28127   */\n      tag_571\n        /* \"#utility.yul\":28125:28126   */\n      dup3\n        /* \"#utility.yul\":28107:28127   */\n      tag_234\n      jump\t// in\n    tag_571:\n        /* \"#utility.yul\":28102:28127   */\n      swap2\n      pop\n        /* \"#utility.yul\":28141:28161   */\n      tag_572\n        /* \"#utility.yul\":28159:28160   */\n      dup4\n        /* \"#utility.yul\":28141:28161   */\n      tag_234\n      jump\t// in\n    tag_572:\n        /* \"#utility.yul\":28136:28161   */\n      swap3\n      pop\n        /* \"#utility.yul\":28180:28181   */\n      dup3\n        /* \"#utility.yul\":28170:28205   */\n      tag_573\n      jumpi\n        /* \"#utility.yul\":28185:28203   */\n      tag_574\n      tag_290\n      jump\t// in\n    tag_574:\n        /* \"#utility.yul\":28170:28205   */\n    tag_573:\n        /* \"#utility.yul\":28226:28227   */\n      dup3\n        /* \"#utility.yul\":28223:28224   */\n      dup3\n        /* \"#utility.yul\":28219:28228   */\n      mod\n        /* \"#utility.yul\":28214:28228   */\n      swap1\n      pop\n        /* \"#utility.yul\":28058:28234   */\n      swap3\n      swap2\n      pop\n      pop\n      jump\t// out\n        /* \"#utility.yul\":28240:28358   */\n    tag_291:\n        /* \"#utility.yul\":28327:28351   */\n      tag_576\n        /* \"#utility.yul\":28345:28350   */\n      dup2\n        /* \"#utility.yul\":28327:28351   */\n      tag_231\n      jump\t// in\n    tag_576:\n        /* \"#utility.yul\":28322:28325   */\n      dup3\n        /* \"#utility.yul\":28315:28352   */\n      mstore\n        /* \"#utility.yul\":28240:28358   */\n      pop\n      pop\n      jump\t// out\n        /* \"#utility.yul\":28364:28462   */\n    tag_292:\n        /* \"#utility.yul\":28415:28421   */\n      0x00\n        /* \"#utility.yul\":28449:28454   */\n      dup2\n        /* \"#utility.yul\":28443:28455   */\n      mload\n        /* \"#utility.yul\":28433:28455   */\n      swap1\n      pop\n        /* \"#utility.yul\":28364:28462   */\n      swap2\n      swap1\n      pop\n      jump\t// out\n        /* \"#utility.yul\":28468:28636   */\n    tag_293:\n        /* \"#utility.yul\":28551:28562   */\n      0x00\n        /* \"#utility.yul\":28585:28591   */\n      dup3\n        /* \"#utility.yul\":28580:28583   */\n      dup3\n        /* \"#utility.yul\":28573:28592   */\n      mstore\n        /* \"#utility.yul\":28625:28629   */\n      0x20\n        /* \"#utility.yul\":28620:28623   */\n      dup3\n        /* \"#utility.yul\":28616:28630   */\n      add\n        /* \"#utility.yul\":28601:28630   */\n      swap1\n      pop\n        /* \"#utility.yul\":28468:28636   */\n      swap3\n      swap2\n      pop\n      pop\n      jump\t// out\n        /* \"#utility.yul\":28642:29015   */\n    tag_294:\n        /* \"#utility.yul\":28728:28731   */\n      0x00\n        /* \"#utility.yul\":28756:28794   */\n      tag_580\n        /* \"#utility.yul\":28788:28793   */\n      dup3\n        /* \"#utility.yul\":28756:28794   */\n      tag_292\n      jump\t// in\n    tag_580:\n        /* \"#utility.yul\":28810:28880   */\n      tag_581\n        /* \"#utility.yul\":28873:28879   */\n      dup2\n        /* \"#utility.yul\":28868:28871   */\n      dup6\n        /* \"#utility.yul\":28810:28880   */\n      tag_293\n      jump\t// in\n    tag_581:\n        /* \"#utility.yul\":28803:28880   */\n      swap4\n      pop\n        /* \"#utility.yul\":28889:28954   */\n      tag_582\n        /* \"#utility.yul\":28947:28953   */\n      dup2\n        /* \"#utility.yul\":28942:28945   */\n      dup6\n        /* \"#utility.yul\":28935:28939   */\n      0x20\n        /* \"#utility.yul\":28928:28933   */\n      dup7\n        /* \"#utility.yul\":28924:28940   */\n      add\n        /* \"#utility.yul\":28889:28954   */\n      tag_245\n      jump\t// in\n    tag_582:\n        /* \"#utility.yul\":28979:29008   */\n      tag_583\n        /* \"#utility.yul\":29001:29007   */\n      dup2\n        /* \"#utility.yul\":28979:29008   */\n      tag_246\n      jump\t// in\n    tag_583:\n        /* \"#utility.yul\":28974:28977   */\n      dup5\n        /* \"#utility.yul\":28970:29009   */\n      add\n        /* \"#utility.yul\":28963:29009   */\n      swap2\n      pop\n        /* \"#utility.yul\":28732:29015   */\n      pop\n        /* \"#utility.yul\":28642:29015   */\n      swap3\n      swap2\n      pop\n      pop\n      jump\t// out\n        /* \"#utility.yul\":29021:30074   */\n    tag_188:\n        /* \"#utility.yul\":29344:29348   */\n      0x00\n        /* \"#utility.yul\":29382:29385   */\n      0xa0\n        /* \"#utility.yul\":29371:29380   */\n      dup3\n        /* \"#utility.yul\":29367:29386   */\n      add\n        /* \"#utility.yul\":29359:29386   */\n      swap1\n      pop\n        /* \"#utility.yul\":29396:29467   */\n      tag_585\n        /* \"#utility.yul\":29464:29465   */\n      0x00\n        /* \"#utility.yul\":29453:29462   */\n      dup4\n        /* \"#utility.yul\":29449:29466   */\n      add\n        /* \"#utility.yul\":29440:29446   */\n      dup9\n        /* \"#utility.yul\":29396:29467   */\n      tag_291\n      jump\t// in\n    tag_585:\n        /* \"#utility.yul\":29477:29549   */\n      tag_586\n        /* \"#utility.yul\":29545:29547   */\n      0x20\n        /* \"#utility.yul\":29534:29543   */\n      dup4\n        /* \"#utility.yul\":29530:29548   */\n      add\n        /* \"#utility.yul\":29521:29527   */\n      dup8\n        /* \"#utility.yul\":29477:29549   */\n      tag_291\n      jump\t// in\n    tag_586:\n        /* \"#utility.yul\":29596:29605   */\n      dup2\n        /* \"#utility.yul\":29590:29594   */\n      dup2\n        /* \"#utility.yul\":29586:29606   */\n      sub\n        /* \"#utility.yul\":29581:29583   */\n      0x40\n        /* \"#utility.yul\":29570:29579   */\n      dup4\n        /* \"#utility.yul\":29566:29584   */\n      add\n        /* \"#utility.yul\":29559:29607   */\n      mstore\n        /* \"#utility.yul\":29624:29732   */\n      tag_587\n        /* \"#utility.yul\":29727:29731   */\n      dup2\n        /* \"#utility.yul\":29718:29724   */\n      dup7\n        /* \"#utility.yul\":29624:29732   */\n      tag_269\n      jump\t// in\n    tag_587:\n        /* \"#utility.yul\":29616:29732   */\n      swap1\n      pop\n        /* \"#utility.yul\":29779:29788   */\n      dup2\n        /* \"#utility.yul\":29773:29777   */\n      dup2\n        /* \"#utility.yul\":29769:29789   */\n      sub\n        /* \"#utility.yul\":29764:29766   */\n      0x60\n        /* \"#utility.yul\":29753:29762   */\n      dup4\n        /* \"#utility.yul\":29749:29767   */\n      add\n        /* \"#utility.yul\":29742:29790   */\n      mstore\n        /* \"#utility.yul\":29807:29915   */\n      tag_588\n        /* \"#utility.yul\":29910:29914   */\n      dup2\n        /* \"#utility.yul\":29901:29907   */\n      dup6\n        /* \"#utility.yul\":29807:29915   */\n      tag_269\n      jump\t// in\n    tag_588:\n        /* \"#utility.yul\":29799:29915   */\n      swap1\n      pop\n        /* \"#utility.yul\":29963:29972   */\n      dup2\n        /* \"#utility.yul\":29957:29961   */\n      dup2\n        /* \"#utility.yul\":29953:29973   */\n      sub\n        /* \"#utility.yul\":29947:29950   */\n      0x80\n        /* \"#utility.yul\":29936:29945   */\n      dup4\n        /* \"#utility.yul\":29932:29951   */\n      add\n        /* \"#utility.yul\":29925:29974   */\n      mstore\n        /* \"#utility.yul\":29991:30067   */\n      tag_589\n        /* \"#utility.yul\":30062:30066   */\n      dup2\n        /* \"#utility.yul\":30053:30059   */\n      dup5\n        /* \"#utility.yul\":29991:30067   */\n      tag_294\n      jump\t// in\n    tag_589:\n        /* \"#utility.yul\":29983:30067   */\n      swap1\n      pop\n        /* \"#utility.yul\":29021:30074   */\n      swap7\n      swap6\n      pop\n      pop\n      pop\n      pop\n      pop\n      pop\n      jump\t// out\n        /* \"#utility.yul\":30080:30221   */\n    tag_295:\n        /* \"#utility.yul\":30136:30141   */\n      0x00\n        /* \"#utility.yul\":30167:30173   */\n      dup2\n        /* \"#utility.yul\":30161:30174   */\n      mload\n        /* \"#utility.yul\":30152:30174   */\n      swap1\n      pop\n        /* \"#utility.yul\":30183:30215   */\n      tag_591\n        /* \"#utility.yul\":30209:30214   */\n      dup2\n        /* \"#utility.yul\":30183:30215   */\n      tag_239\n      jump\t// in\n    tag_591:\n        /* \"#utility.yul\":30080:30221   */\n      swap3\n      swap2\n      pop\n      pop\n      jump\t// out\n        /* \"#utility.yul\":30227:30576   */\n    tag_191:\n        /* \"#utility.yul\":30296:30302   */\n      0x00\n        /* \"#utility.yul\":30345:30347   */\n      0x20\n        /* \"#utility.yul\":30333:30342   */\n      dup3\n        /* \"#utility.yul\":30324:30331   */\n      dup5\n        /* \"#utility.yul\":30320:30343   */\n      sub\n        /* \"#utility.yul\":30316:30348   */\n      slt\n        /* \"#utility.yul\":30313:30432   */\n      iszero\n      tag_593\n      jumpi\n        /* \"#utility.yul\":30351:30430   */\n      tag_594\n      tag_228\n      jump\t// in\n    tag_594:\n        /* \"#utility.yul\":30313:30432   */\n    tag_593:\n        /* \"#utility.yul\":30471:30472   */\n      0x00\n        /* \"#utility.yul\":30496:30559   */\n      tag_595\n        /* \"#utility.yul\":30551:30558   */\n      dup5\n        /* \"#utility.yul\":30542:30548   */\n      dup3\n        /* \"#utility.yul\":30531:30540   */\n      dup6\n        /* \"#utility.yul\":30527:30549   */\n      add\n        /* \"#utility.yul\":30496:30559   */\n      tag_295\n      jump\t// in\n    tag_595:\n        /* \"#utility.yul\":30486:30559   */\n      swap2\n      pop\n        /* \"#utility.yul\":30442:30569   */\n      pop\n        /* \"#utility.yul\":30227:30576   */\n      swap3\n      swap2\n      pop\n      pop\n      jump\t// out\n        /* \"#utility.yul\":30582:30688   */\n    tag_296:\n        /* \"#utility.yul\":30626:30634   */\n      0x00\n        /* \"#utility.yul\":30675:30680   */\n      dup2\n        /* \"#utility.yul\":30670:30673   */\n      0xe0\n        /* \"#utility.yul\":30666:30681   */\n      shr\n        /* \"#utility.yul\":30645:30681   */\n      swap1\n      pop\n        /* \"#utility.yul\":30582:30688   */\n      swap2\n      swap1\n      pop\n      jump\t// out\n        /* \"#utility.yul\":30694:30877   */\n    tag_197:\n        /* \"#utility.yul\":30729:30732   */\n      0x00\n        /* \"#utility.yul\":30767:30768   */\n      0x03\n        /* \"#utility.yul\":30749:30765   */\n      returndatasize\n        /* \"#utility.yul\":30746:30769   */\n      gt\n        /* \"#utility.yul\":30743:30871   */\n      iszero\n      tag_598\n      jumpi\n        /* \"#utility.yul\":30805:30806   */\n      0x04\n        /* \"#utility.yul\":30802:30803   */\n      0x00\n        /* \"#utility.yul\":30799:30800   */\n      dup1\n        /* \"#utility.yul\":30784:30807   */\n      returndatacopy\n        /* \"#utility.yul\":30827:30861   */\n      tag_599\n        /* \"#utility.yul\":30858:30859   */\n      0x00\n        /* \"#utility.yul\":30852:30860   */\n      mload\n        /* \"#utility.yul\":30827:30861   */\n      tag_296\n      jump\t// in\n    tag_599:\n        /* \"#utility.yul\":30820:30861   */\n      swap1\n      pop\n        /* \"#utility.yul\":30743:30871   */\n    tag_598:\n        /* \"#utility.yul\":30694:30877   */\n      swap1\n      jump\t// out\n        /* \"#utility.yul\":30883:31594   */\n    tag_199:\n        /* \"#utility.yul\":30922:30925   */\n      0x00\n        /* \"#utility.yul\":30960:30964   */\n      0x44\n        /* \"#utility.yul\":30942:30958   */\n      returndatasize\n        /* \"#utility.yul\":30939:30965   */\n      lt\n        /* \"#utility.yul\":30968:30973   */\n      tag_600\n        /* \"#utility.yul\":30936:30975   */\n      jumpi\n        /* \"#utility.yul\":30997:31017   */\n      tag_602\n      tag_227\n      jump\t// in\n    tag_602:\n        /* \"#utility.yul\":31072:31073   */\n      0x04\n        /* \"#utility.yul\":31054:31070   */\n      returndatasize\n        /* \"#utility.yul\":31050:31074   */\n      sub\n        /* \"#utility.yul\":31047:31048   */\n      0x04\n        /* \"#utility.yul\":31041:31045   */\n      dup3\n        /* \"#utility.yul\":31026:31075   */\n      returndatacopy\n        /* \"#utility.yul\":31105:31109   */\n      dup1\n        /* \"#utility.yul\":31099:31110   */\n      mload\n        /* \"#utility.yul\":31204:31220   */\n      returndatasize\n        /* \"#utility.yul\":31197:31201   */\n      0x24\n        /* \"#utility.yul\":31189:31195   */\n      dup3\n        /* \"#utility.yul\":31185:31202   */\n      add\n        /* \"#utility.yul\":31182:31221   */\n      gt\n        /* \"#utility.yul\":31149:31167   */\n      0xffffffffffffffff\n        /* \"#utility.yul\":31141:31147   */\n      dup3\n        /* \"#utility.yul\":31138:31168   */\n      gt\n        /* \"#utility.yul\":31122:31235   */\n      or\n        /* \"#utility.yul\":31119:31265   */\n      iszero\n      tag_603\n      jumpi\n        /* \"#utility.yul\":31250:31255   */\n      pop\n      pop\n      jump(tag_600)\n        /* \"#utility.yul\":31119:31265   */\n    tag_603:\n        /* \"#utility.yul\":31296:31302   */\n      dup1\n        /* \"#utility.yul\":31290:31294   */\n      dup3\n        /* \"#utility.yul\":31286:31303   */\n      add\n        /* \"#utility.yul\":31332:31335   */\n      dup1\n        /* \"#utility.yul\":31326:31336   */\n      mload\n        /* \"#utility.yul\":31359:31377   */\n      0xffffffffffffffff\n        /* \"#utility.yul\":31351:31357   */\n      dup2\n        /* \"#utility.yul\":31348:31378   */\n      gt\n        /* \"#utility.yul\":31345:31388   */\n      iszero\n      tag_604\n      jumpi\n        /* \"#utility.yul\":31381:31386   */\n      pop\n      pop\n      pop\n      pop\n      jump(tag_600)\n        /* \"#utility.yul\":31345:31388   */\n    tag_604:\n        /* \"#utility.yul\":31429:31435   */\n      dup1\n        /* \"#utility.yul\":31422:31426   */\n      0x20\n        /* \"#utility.yul\":31417:31420   */\n      dup4\n        /* \"#utility.yul\":31413:31427   */\n      add\n        /* \"#utility.yul\":31409:31436   */\n      add\n        /* \"#utility.yul\":31488:31489   */\n      0x04\n        /* \"#utility.yul\":31470:31486   */\n      returndatasize\n        /* \"#utility.yul\":31466:31490   */\n      sub\n        /* \"#utility.yul\":31460:31464   */\n      dup6\n        /* \"#utility.yul\":31456:31491   */\n      add\n        /* \"#utility.yul\":31451:31454   */\n      dup2\n        /* \"#utility.yul\":31448:31492   */\n      gt\n        /* \"#utility.yul\":31445:31502   */\n      iszero\n      tag_605\n      jumpi\n        /* \"#utility.yul\":31495:31500   */\n      pop\n      pop\n      pop\n      pop\n      pop\n      jump(tag_600)\n        /* \"#utility.yul\":31445:31502   */\n    tag_605:\n        /* \"#utility.yul\":31512:31569   */\n      tag_606\n        /* \"#utility.yul\":31560:31566   */\n      dup3\n        /* \"#utility.yul\":31554:31558   */\n      0x20\n        /* \"#utility.yul\":31550:31567   */\n      add\n        /* \"#utility.yul\":31542:31548   */\n      dup6\n        /* \"#utility.yul\":31538:31568   */\n      add\n        /* \"#utility.yul\":31532:31536   */\n      dup7\n        /* \"#utility.yul\":31512:31569   */\n      tag_249\n      jump\t// in\n    tag_606:\n        /* \"#utility.yul\":31585:31588   */\n      dup3\n        /* \"#utility.yul\":31578:31588   */\n      swap6\n      pop\n        /* \"#utility.yul\":30926:31594   */\n      pop\n      pop\n      pop\n      pop\n      pop\n        /* \"#utility.yul\":30883:31594   */\n    tag_600:\n      swap1\n      jump\t// out\n        /* \"#utility.yul\":31600:31839   */\n    tag_297:\n        /* \"#utility.yul\":31740:31774   */\n      0x455243313135353a207472616e7366657220746f206e6f6e2d45524331313535\n        /* \"#utility.yul\":31736:31737   */\n      0x00\n        /* \"#utility.yul\":31728:31734   */\n      dup3\n        /* \"#utility.yul\":31724:31738   */\n      add\n        /* \"#utility.yul\":31717:31775   */\n      mstore\n        /* \"#utility.yul\":31809:31831   */\n      0x526563656976657220696d706c656d656e746572000000000000000000000000\n        /* \"#utility.yul\":31804:31806   */\n      0x20\n        /* \"#utility.yul\":31796:31802   */\n      dup3\n        /* \"#utility.yul\":31792:31807   */\n      add\n        /* \"#utility.yul\":31785:31832   */\n      mstore\n        /* \"#utility.yul\":31600:31839   */\n      pop\n      jump\t// out\n        /* \"#utility.yul\":31845:32211   */\n    tag_298:\n        /* \"#utility.yul\":31987:31990   */\n      0x00\n        /* \"#utility.yul\":32008:32075   */\n      tag_609\n        /* \"#utility.yul\":32072:32074   */\n      0x34\n        /* \"#utility.yul\":32067:32070   */\n      dup4\n        /* \"#utility.yul\":32008:32075   */\n      tag_244\n      jump\t// in\n    tag_609:\n        /* \"#utility.yul\":32001:32075   */\n      swap2\n      pop\n        /* \"#utility.yul\":32084:32177   */\n      tag_610\n        /* \"#utility.yul\":32173:32176   */\n      dup3\n        /* \"#utility.yul\":32084:32177   */\n      tag_297\n      jump\t// in\n    tag_610:\n        /* \"#utility.yul\":32202:32204   */\n      0x40\n        /* \"#utility.yul\":32197:32200   */\n      dup3\n        /* \"#utility.yul\":32193:32205   */\n      add\n        /* \"#utility.yul\":32186:32205   */\n      swap1\n      pop\n        /* \"#utility.yul\":31845:32211   */\n      swap2\n      swap1\n      pop\n      jump\t// out\n        /* \"#utility.yul\":32217:32636   */\n    tag_203:\n        /* \"#utility.yul\":32383:32387   */\n      0x00\n        /* \"#utility.yul\":32421:32423   */\n      0x20\n        /* \"#utility.yul\":32410:32419   */\n      dup3\n        /* \"#utility.yul\":32406:32424   */\n      add\n        /* \"#utility.yul\":32398:32424   */\n      swap1\n      pop\n        /* \"#utility.yul\":32470:32479   */\n      dup2\n        /* \"#utility.yul\":32464:32468   */\n      dup2\n        /* \"#utility.yul\":32460:32480   */\n      sub\n        /* \"#utility.yul\":32456:32457   */\n      0x00\n        /* \"#utility.yul\":32445:32454   */\n      dup4\n        /* \"#utility.yul\":32441:32458   */\n      add\n        /* \"#utility.yul\":32434:32481   */\n      mstore\n        /* \"#utility.yul\":32498:32629   */\n      tag_612\n        /* \"#utility.yul\":32624:32628   */\n      dup2\n        /* \"#utility.yul\":32498:32629   */\n      tag_298\n      jump\t// in\n    tag_612:\n        /* \"#utility.yul\":32490:32629   */\n      swap1\n      pop\n        /* \"#utility.yul\":32217:32636   */\n      swap2\n      swap1\n      pop\n      jump\t// out\n        /* \"#utility.yul\":32642:32869   */\n    tag_299:\n        /* \"#utility.yul\":32782:32816   */\n      0x455243313135353a204552433131353552656365697665722072656a65637465\n        /* \"#utility.yul\":32778:32779   */\n      0x00\n        /* \"#utility.yul\":32770:32776   */\n      dup3\n        /* \"#utility.yul\":32766:32780   */\n      add\n        /* \"#utility.yul\":32759:32817   */\n      mstore\n        /* \"#utility.yul\":32851:32861   */\n      0x6420746f6b656e73000000000000000000000000000000000000000000000000\n        /* \"#utility.yul\":32846:32848   */\n      0x20\n        /* \"#utility.yul\":32838:32844   */\n      dup3\n        /* \"#utility.yul\":32834:32849   */\n      add\n        /* \"#utility.yul\":32827:32862   */\n      mstore\n        /* \"#utility.yul\":32642:32869   */\n      pop\n      jump\t// out\n        /* \"#utility.yul\":32875:33241   */\n    tag_300:\n        /* \"#utility.yul\":33017:33020   */\n      0x00\n        /* \"#utility.yul\":33038:33105   */\n      tag_615\n        /* \"#utility.yul\":33102:33104   */\n      0x28\n        /* \"#utility.yul\":33097:33100   */\n      dup4\n        /* \"#utility.yul\":33038:33105   */\n      tag_244\n      jump\t// in\n    tag_615:\n        /* \"#utility.yul\":33031:33105   */\n      swap2\n      pop\n        /* \"#utility.yul\":33114:33207   */\n      tag_616\n        /* \"#utility.yul\":33203:33206   */\n      dup3\n        /* \"#utility.yul\":33114:33207   */\n      tag_299\n      jump\t// in\n    tag_616:\n        /* \"#utility.yul\":33232:33234   */\n      0x40\n        /* \"#utility.yul\":33227:33230   */\n      dup3\n        /* \"#utility.yul\":33223:33235   */\n      add\n        /* \"#utility.yul\":33216:33235   */\n      swap1\n      pop\n        /* \"#utility.yul\":32875:33241   */\n      swap2\n      swap1\n      pop\n      jump\t// out\n        /* \"#utility.yul\":33247:33666   */\n    tag_207:\n        /* \"#utility.yul\":33413:33417   */\n      0x00\n        /* \"#utility.yul\":33451:33453   */\n      0x20\n        /* \"#utility.yul\":33440:33449   */\n      dup3\n        /* \"#utility.yul\":33436:33454   */\n      add\n        /* \"#utility.yul\":33428:33454   */\n      swap1\n      pop\n        /* \"#utility.yul\":33500:33509   */\n      dup2\n        /* \"#utility.yul\":33494:33498   */\n      dup2\n        /* \"#utility.yul\":33490:33510   */\n      sub\n        /* \"#utility.yul\":33486:33487   */\n      0x00\n        /* \"#utility.yul\":33475:33484   */\n      dup4\n        /* \"#utility.yul\":33471:33488   */\n      add\n        /* \"#utility.yul\":33464:33511   */\n      mstore\n        /* \"#utility.yul\":33528:33659   */\n      tag_618\n        /* \"#utility.yul\":33654:33658   */\n      dup2\n        /* \"#utility.yul\":33528:33659   */\n      tag_300\n      jump\t// in\n    tag_618:\n        /* \"#utility.yul\":33520:33659   */\n      swap1\n      pop\n        /* \"#utility.yul\":33247:33666   */\n      swap2\n      swap1\n      pop\n      jump\t// out\n        /* \"#utility.yul\":33672:34423   */\n    tag_212:\n        /* \"#utility.yul\":33895:33899   */\n      0x00\n        /* \"#utility.yul\":33933:33936   */\n      0xa0\n        /* \"#utility.yul\":33922:33931   */\n      dup3\n        /* \"#utility.yul\":33918:33937   */\n      add\n        /* \"#utility.yul\":33910:33937   */\n      swap1\n      pop\n        /* \"#utility.yul\":33947:34018   */\n      tag_620\n        /* \"#utility.yul\":34015:34016   */\n      0x00\n        /* \"#utility.yul\":34004:34013   */\n      dup4\n        /* \"#utility.yul\":34000:34017   */\n      add\n        /* \"#utility.yul\":33991:33997   */\n      dup9\n        /* \"#utility.yul\":33947:34018   */\n      tag_291\n      jump\t// in\n    tag_620:\n        /* \"#utility.yul\":34028:34100   */\n      tag_621\n        /* \"#utility.yul\":34096:34098   */\n      0x20\n        /* \"#utility.yul\":34085:34094   */\n      dup4\n        /* \"#utility.yul\":34081:34099   */\n      add\n        /* \"#utility.yul\":34072:34078   */\n      dup8\n        /* \"#utility.yul\":34028:34100   */\n      tag_291\n      jump\t// in\n    tag_621:\n        /* \"#utility.yul\":34110:34182   */\n      tag_622\n        /* \"#utility.yul\":34178:34180   */\n      0x40\n        /* \"#utility.yul\":34167:34176   */\n      dup4\n        /* \"#utility.yul\":34163:34181   */\n      add\n        /* \"#utility.yul\":34154:34160   */\n      dup7\n        /* \"#utility.yul\":34110:34182   */\n      tag_237\n      jump\t// in\n    tag_622:\n        /* \"#utility.yul\":34192:34264   */\n      tag_623\n        /* \"#utility.yul\":34260:34262   */\n      0x60\n        /* \"#utility.yul\":34249:34258   */\n      dup4\n        /* \"#utility.yul\":34245:34263   */\n      add\n        /* \"#utility.yul\":34236:34242   */\n      dup6\n        /* \"#utility.yul\":34192:34264   */\n      tag_237\n      jump\t// in\n    tag_623:\n        /* \"#utility.yul\":34312:34321   */\n      dup2\n        /* \"#utility.yul\":34306:34310   */\n      dup2\n        /* \"#utility.yul\":34302:34322   */\n      sub\n        /* \"#utility.yul\":34296:34299   */\n      0x80\n        /* \"#utility.yul\":34285:34294   */\n      dup4\n        /* \"#utility.yul\":34281:34300   */\n      add\n        /* \"#utility.yul\":34274:34323   */\n      mstore\n        /* \"#utility.yul\":34340:34416   */\n      tag_624\n        /* \"#utility.yul\":34411:34415   */\n      dup2\n        /* \"#utility.yul\":34402:34408   */\n      dup5\n        /* \"#utility.yul\":34340:34416   */\n      tag_294\n      jump\t// in\n    tag_624:\n        /* \"#utility.yul\":34332:34416   */\n      swap1\n      pop\n        /* \"#utility.yul\":33672:34423   */\n      swap7\n      swap6\n      pop\n      pop\n      pop\n      pop\n      pop\n      pop\n      jump\t// out\n\n    auxdata: 0xa2646970667358221220ce65f221410c845c51b6ac4a5d74e33b8d5e75fb511ab5d2e17488395e405a0b64736f6c634300081a0033\n}\n",
				"bytecode": {
					"linkReferences": {},
					"object": "608060405234801561000f575f80fd5b50604051612b9b380380612b9b833981810160405281019061003191906101a4565b815f908161003f9190610427565b50806001908161004f9190610427565b5050506104f6565b5f604051905090565b5f80fd5b5f80fd5b5f80fd5b5f80fd5b5f601f19601f8301169050919050565b7f4e487b71000000000000000000000000000000000000000000000000000000005f52604160045260245ffd5b6100b682610070565b810181811067ffffffffffffffff821117156100d5576100d4610080565b5b80604052505050565b5f6100e7610057565b90506100f382826100ad565b919050565b5f67ffffffffffffffff82111561011257610111610080565b5b61011b82610070565b9050602081019050919050565b8281835e5f83830152505050565b5f610148610143846100f8565b6100de565b9050828152602081018484840111156101645761016361006c565b5b61016f848285610128565b509392505050565b5f82601f83011261018b5761018a610068565b5b815161019b848260208601610136565b91505092915050565b5f80604083850312156101ba576101b9610060565b5b5f83015167ffffffffffffffff8111156101d7576101d6610064565b5b6101e385828601610177565b925050602083015167ffffffffffffffff81111561020457610203610064565b5b61021085828601610177565b9150509250929050565b5f81519050919050565b7f4e487b71000000000000000000000000000000000000000000000000000000005f52602260045260245ffd5b5f600282049050600182168061026857607f821691505b60208210810361027b5761027a610224565b5b50919050565b5f819050815f5260205f209050919050565b5f6020601f8301049050919050565b5f82821b905092915050565b5f600883026102dd7fffffffffffffffffffffffffffffffffffffffffffffffffffffffffffffffff826102a2565b6102e786836102a2565b95508019841693508086168417925050509392505050565b5f819050919050565b5f819050919050565b5f61032b610326610321846102ff565b610308565b6102ff565b9050919050565b5f819050919050565b61034483610311565b61035861035082610332565b8484546102ae565b825550505050565b5f90565b61036c610360565b61037781848461033b565b505050565b5b8181101561039a5761038f5f82610364565b60018101905061037d565b5050565b601f8211156103df576103b081610281565b6103b984610293565b810160208510156103c8578190505b6103dc6103d485610293565b83018261037c565b50505b505050565b5f82821c905092915050565b5f6103ff5f19846008026103e4565b1980831691505092915050565b5f61041783836103f0565b9150826002028217905092915050565b6104308261021a565b67ffffffffffffffff81111561044957610448610080565b5b6104538254610251565b61045e82828561039e565b5f60209050601f83116001811461048f575f841561047d578287015190505b610487858261040c565b8655506104ee565b601f19841661049d86610281565b5f5b828110156104c45784890151825560018201915060208501945060208101905061049f565b868310156104e157848901516104dd601f8916826103f0565b8355505b6001600288020188555050505b505050505050565b612698806105035f395ff3fe608060405234801561000f575f80fd5b50600436106100a6575f3560e01c80632eb2c2d61161006f5780632eb2c2d6146101885780634e1273f4146101a457806395d89b41146101d4578063a22cb465146101f2578063e985e9c51461020e578063f242432a1461023e576100a6565b8062fdd58e146100aa57806301ffc9a7146100da57806306fdde031461010a5780630e89341c146101285780631627905514610158575b5f80fd5b6100c460048036038101906100bf91906114a2565b61025a565b6040516100d191906114ef565b60405180910390f35b6100f460048036038101906100ef919061155d565b61031e565b60405161010191906115a2565b60405180910390f35b610112610457565b60405161011f919061162b565b60405180910390f35b610142600480360381019061013d919061164b565b6104e2565b60405161014f919061162b565b60405180910390f35b610172600480360381019061016d9190611676565b61053e565b60405161017f91906115a2565b60405180910390f35b6101a2600480360381019061019d9190611891565b61054f565b005b6101be60048036038101906101b99190611a1c565b6108b6565b6040516101cb9190611b49565b60405180910390f35b6101dc6109c7565b6040516101e9919061162b565b60405180910390f35b61020c60048036038101906102079190611b93565b610a53565b005b61022860048036038101906102239190611bd1565b610bb9565b60405161023591906115a2565b60405180910390f35b61025860048036038101906102539190611c0f565b610c47565b005b5f8073ffffffffffffffffffffffffffffffffffffffff168373ffffffffffffffffffffffffffffffffffffffff16036102c9576040517f08c379a00000000000000000000000000000000000000000000000000000000081526004016102c090611d12565b60405180910390fd5b60025f8381526020019081526020015f205f8473ffffffffffffffffffffffffffffffffffffffff1673ffffffffffffffffffffffffffffffffffffffff1681526020019081526020015f2054905092915050565b5f7fd9b67a26000000000000000000000000000000000000000000000000000000007bffffffffffffffffffffffffffffffffffffffffffffffffffffffff1916827bffffffffffffffffffffffffffffffffffffffffffffffffffffffff191614806103e857507f0e89341c000000000000000000000000000000000000000000000000000000007bffffffffffffffffffffffffffffffffffffffffffffffffffffffff1916827bffffffffffffffffffffffffffffffffffffffffffffffffffffffff1916145b8061045057507f01ffc9a7000000000000000000000000000000000000000000000000000000007bffffffffffffffffffffffffffffffffffffffffffffffffffffffff1916827bffffffffffffffffffffffffffffffffffffffffffffffffffffffff1916145b9050919050565b5f805461046390611d5d565b80601f016020809104026020016040519081016040528092919081815260200182805461048f90611d5d565b80156104da5780601f106104b1576101008083540402835291602001916104da565b820191905f5260205f20905b8154815290600101906020018083116104bd57829003601f168201915b505050505081565b60605f6104ed610f15565b90505f81511161050b5760405180602001604052805f815250610536565b8061051584610f2b565b604051602001610526929190611dc7565b6040516020818303038152906040525b915050919050565b5f80823b90505f8111915050919050565b5f3390508073ffffffffffffffffffffffffffffffffffffffff168673ffffffffffffffffffffffffffffffffffffffff16148061059357506105928682610bb9565b5b6105d2576040517f08c379a00000000000000000000000000000000000000000000000000000000081526004016105c990611e5a565b60405180910390fd5b8251845114610616576040517f08c379a000000000000000000000000000000000000000000000000000000000815260040161060d90611ee8565b60405180910390fd5b5f73ffffffffffffffffffffffffffffffffffffffff168573ffffffffffffffffffffffffffffffffffffffff1603610684576040517f08c379a000000000000000000000000000000000000000000000000000000000815260040161067b90611f76565b60405180910390fd5b5f5b8451811015610821575f8582815181106106a3576106a2611f94565b5b602002602001015190505f8583815181106106c1576106c0611f94565b5b602002602001015190505f60025f8481526020019081526020015f205f8b73ffffffffffffffffffffffffffffffffffffffff1673ffffffffffffffffffffffffffffffffffffffff1681526020019081526020015f205490508181101561075e576040517f08c379a000000000000000000000000000000000000000000000000000000000815260040161075590612031565b60405180910390fd5b81810360025f8581526020019081526020015f205f8c73ffffffffffffffffffffffffffffffffffffffff1673ffffffffffffffffffffffffffffffffffffffff1681526020019081526020015f20819055508160025f8581526020019081526020015f205f8b73ffffffffffffffffffffffffffffffffffffffff1673ffffffffffffffffffffffffffffffffffffffff1681526020019081526020015f205f82825461080c919061207c565b92505081905550505050806001019050610686565b508473ffffffffffffffffffffffffffffffffffffffff168673ffffffffffffffffffffffffffffffffffffffff168273ffffffffffffffffffffffffffffffffffffffff167f4a39dc06d4c0dbc64b70af90fd698a233a518aa5d07e595d983b8c0526c8f7fb87876040516108989291906120af565b60405180910390a46108ae818787878787611084565b505050505050565b606081518351146108fc576040517f08c379a00000000000000000000000000000000000000000000000000000000081526004016108f390612154565b60405180910390fd5b5f835167ffffffffffffffff811115610918576109176116a5565b5b6040519080825280602002602001820160405280156109465781602001602082028036833780820191505090505b5090505f5b84518110156109bc5761099285828151811061096a57610969611f94565b5b602002602001015185838151811061098557610984611f94565b5b602002602001015161025a565b8282815181106109a5576109a4611f94565b5b60200260200101818152505080600101905061094b565b508091505092915050565b600180546109d490611d5d565b80601f0160208091040260200160405190810160405280929190818152602001828054610a0090611d5d565b8015610a4b5780601f10610a2257610100808354040283529160200191610a4b565b820191905f5260205f20905b815481529060010190602001808311610a2e57829003601f168201915b505050505081565b8173ffffffffffffffffffffffffffffffffffffffff163373ffffffffffffffffffffffffffffffffffffffff1603610ac1576040517f08c379a0000000000000000000000000000000000000000000000000000000008152600401610ab8906121e2565b60405180910390fd5b8060035f3373ffffffffffffffffffffffffffffffffffffffff1673ffffffffffffffffffffffffffffffffffffffff1681526020019081526020015f205f8473ffffffffffffffffffffffffffffffffffffffff1673ffffffffffffffffffffffffffffffffffffffff1681526020019081526020015f205f6101000a81548160ff0219169083151502179055508173ffffffffffffffffffffffffffffffffffffffff163373ffffffffffffffffffffffffffffffffffffffff167f17307eab39ab6107e8899845ad3d59bd9653f200f220920489ca2b5937696c3183604051610bad91906115a2565b60405180910390a35050565b5f60035f8473ffffffffffffffffffffffffffffffffffffffff1673ffffffffffffffffffffffffffffffffffffffff1681526020019081526020015f205f8373ffffffffffffffffffffffffffffffffffffffff1673ffffffffffffffffffffffffffffffffffffffff1681526020019081526020015f205f9054906101000a900460ff16905092915050565b5f3390508073ffffffffffffffffffffffffffffffffffffffff168673ffffffffffffffffffffffffffffffffffffffff161480610c8b5750610c8a8682610bb9565b5b610cca576040517f08c379a0000000000000000000000000000000000000000000000000000000008152600401610cc190611e5a565b60405180910390fd5b5f73ffffffffffffffffffffffffffffffffffffffff168573ffffffffffffffffffffffffffffffffffffffff1603610d38576040517f08c379a0000000000000000000000000000000000000000000000000000000008152600401610d2f90611f76565b60405180910390fd5b5f60025f8681526020019081526020015f205f8873ffffffffffffffffffffffffffffffffffffffff1673ffffffffffffffffffffffffffffffffffffffff1681526020019081526020015f2054905083811015610dcb576040517f08c379a0000000000000000000000000000000000000000000000000000000008152600401610dc290612031565b60405180910390fd5b83810360025f8781526020019081526020015f205f8973ffffffffffffffffffffffffffffffffffffffff1673ffffffffffffffffffffffffffffffffffffffff1681526020019081526020015f20819055508360025f8781526020019081526020015f205f8873ffffffffffffffffffffffffffffffffffffffff1673ffffffffffffffffffffffffffffffffffffffff1681526020019081526020015f205f828254610e79919061207c565b925050819055508573ffffffffffffffffffffffffffffffffffffffff168773ffffffffffffffffffffffffffffffffffffffff168373ffffffffffffffffffffffffffffffffffffffff167fc3d58168c5ae7397731d063d5bbf3d657854427343f4c083240f7aacaa2d0f628888604051610ef6929190612200565b60405180910390a4610f0c828888888888611244565b50505050505050565b606060405180602001604052805f815250905090565b60605f8203610f71576040518060400160405280600181526020017f3000000000000000000000000000000000000000000000000000000000000000815250905061107f565b5f8290505f5b5f8214610fa0578080610f8990612227565b915050600a82610f99919061229b565b9150610f77565b5f8167ffffffffffffffff811115610fbb57610fba6116a5565b5b6040519080825280601f01601f191660200182016040528015610fed5781602001600182028036833780820191505090505b5090505b5f85146110785760018261100591906122cb565b9150600a8561101491906122fe565b6030611020919061207c565b60f81b81838151811061103657611035611f94565b5b60200101907effffffffffffffffffffffffffffffffffffffffffffffffffffffffffffff191690815f1a905350600a85611071919061229b565b9450610ff1565b8093505050505b919050565b61108d8461053e565b1561123c578373ffffffffffffffffffffffffffffffffffffffff1663bc197c8187878686866040518663ffffffff1660e01b81526004016110d395949392919061238f565b6020604051808303815f875af192505050801561110e57506040513d601f19601f8201168201806040525081019061110b9190612409565b60015b6111b35761111a612440565b806308c379a003611176575061112e61245f565b806111395750611178565b806040517f08c379a000000000000000000000000000000000000000000000000000000000815260040161116d919061162b565b60405180910390fd5b505b6040517f08c379a00000000000000000000000000000000000000000000000000000000081526004016111aa9061255e565b60405180910390fd5b63bc197c8160e01b7bffffffffffffffffffffffffffffffffffffffffffffffffffffffff1916817bffffffffffffffffffffffffffffffffffffffffffffffffffffffff19161461123a576040517f08c379a0000000000000000000000000000000000000000000000000000000008152600401611231906125ec565b60405180910390fd5b505b505050505050565b61124d8461053e565b156113fc578373ffffffffffffffffffffffffffffffffffffffff1663f23a6e6187878686866040518663ffffffff1660e01b815260040161129395949392919061260a565b6020604051808303815f875af19250505080156112ce57506040513d601f19601f820116820180604052508101906112cb9190612409565b60015b611373576112da612440565b806308c379a00361133657506112ee61245f565b806112f95750611338565b806040517f08c379a000000000000000000000000000000000000000000000000000000000815260040161132d919061162b565b60405180910390fd5b505b6040517f08c379a000000000000000000000000000000000000000000000000000000000815260040161136a9061255e565b60405180910390fd5b63f23a6e6160e01b7bffffffffffffffffffffffffffffffffffffffffffffffffffffffff1916817bffffffffffffffffffffffffffffffffffffffffffffffffffffffff1916146113fa576040517f08c379a00000000000000000000000000000000000000000000000000000000081526004016113f1906125ec565b60405180910390fd5b505b505050505050565b5f604051905090565b5f80fd5b5f80fd5b5f73ffffffffffffffffffffffffffffffffffffffff82169050919050565b5f61143e82611415565b9050919050565b61144e81611434565b8114611458575f80fd5b50565b5f8135905061146981611445565b92915050565b5f819050919050565b6114818161146f565b811461148b575f80fd5b50565b5f8135905061149c81611478565b92915050565b5f80604083850312156114b8576114b761140d565b5b5f6114c58582860161145b565b92505060206114d68582860161148e565b9150509250929050565b6114e98161146f565b82525050565b5f6020820190506115025f8301846114e0565b92915050565b5f7fffffffff0000000000000000000000000000000000000000000000000000000082169050919050565b61153c81611508565b8114611546575f80fd5b50565b5f8135905061155781611533565b92915050565b5f602082840312156115725761157161140d565b5b5f61157f84828501611549565b91505092915050565b5f8115159050919050565b61159c81611588565b82525050565b5f6020820190506115b55f830184611593565b92915050565b5f81519050919050565b5f82825260208201905092915050565b8281835e5f83830152505050565b5f601f19601f8301169050919050565b5f6115fd826115bb565b61160781856115c5565b93506116178185602086016115d5565b611620816115e3565b840191505092915050565b5f6020820190508181035f83015261164381846115f3565b905092915050565b5f602082840312156116605761165f61140d565b5b5f61166d8482850161148e565b91505092915050565b5f6020828403121561168b5761168a61140d565b5b5f6116988482850161145b565b91505092915050565b5f80fd5b7f4e487b71000000000000000000000000000000000000000000000000000000005f52604160045260245ffd5b6116db826115e3565b810181811067ffffffffffffffff821117156116fa576116f96116a5565b5b80604052505050565b5f61170c611404565b905061171882826116d2565b919050565b5f67ffffffffffffffff821115611737576117366116a5565b5b602082029050602081019050919050565b5f80fd5b5f61175e6117598461171d565b611703565b9050808382526020820190506020840283018581111561178157611780611748565b5b835b818110156117aa5780611796888261148e565b845260208401935050602081019050611783565b5050509392505050565b5f82601f8301126117c8576117c76116a1565b5b81356117d884826020860161174c565b91505092915050565b5f80fd5b5f67ffffffffffffffff8211156117ff576117fe6116a5565b5b611808826115e3565b9050602081019050919050565b828183375f83830152505050565b5f611835611830846117e5565b611703565b905082815260208101848484011115611851576118506117e1565b5b61185c848285611815565b509392505050565b5f82601f830112611878576118776116a1565b5b8135611888848260208601611823565b91505092915050565b5f805f805f60a086880312156118aa576118a961140d565b5b5f6118b78882890161145b565b95505060206118c88882890161145b565b945050604086013567ffffffffffffffff8111156118e9576118e8611411565b5b6118f5888289016117b4565b935050606086013567ffffffffffffffff81111561191657611915611411565b5b611922888289016117b4565b925050608086013567ffffffffffffffff81111561194357611942611411565b5b61194f88828901611864565b9150509295509295909350565b5f67ffffffffffffffff821115611976576119756116a5565b5b602082029050602081019050919050565b5f6119996119948461195c565b611703565b905080838252602082019050602084028301858111156119bc576119bb611748565b5b835b818110156119e557806119d1888261145b565b8452602084019350506020810190506119be565b5050509392505050565b5f82601f830112611a0357611a026116a1565b5b8135611a13848260208601611987565b91505092915050565b5f8060408385031215611a3257611a3161140d565b5b5f83013567ffffffffffffffff811115611a4f57611a4e611411565b5b611a5b858286016119ef565b925050602083013567ffffffffffffffff811115611a7c57611a7b611411565b5b611a88858286016117b4565b9150509250929050565b5f81519050919050565b5f82825260208201905092915050565b5f819050602082019050919050565b611ac48161146f565b82525050565b5f611ad58383611abb565b60208301905092915050565b5f602082019050919050565b5f611af782611a92565b611b018185611a9c565b9350611b0c83611aac565b805f5b83811015611b3c578151611b238882611aca565b9750611b2e83611ae1565b925050600181019050611b0f565b5085935050505092915050565b5f6020820190508181035f830152611b618184611aed565b905092915050565b611b7281611588565b8114611b7c575f80fd5b50565b5f81359050611b8d81611b69565b92915050565b5f8060408385031215611ba957611ba861140d565b5b5f611bb68582860161145b565b9250506020611bc785828601611b7f565b9150509250929050565b5f8060408385031215611be757611be661140d565b5b5f611bf48582860161145b565b9250506020611c058582860161145b565b9150509250929050565b5f805f805f60a08688031215611c2857611c2761140d565b5b5f611c358882890161145b565b9550506020611c468882890161145b565b9450506040611c578882890161148e565b9350506060611c688882890161148e565b925050608086013567ffffffffffffffff811115611c8957611c88611411565b5b611c9588828901611864565b9150509295509295909350565b7f455243313135353a2061646472657373207a65726f206973206e6f74206120765f8201527f616c6964206f776e657200000000000000000000000000000000000000000000602082015250565b5f611cfc602a836115c5565b9150611d0782611ca2565b604082019050919050565b5f6020820190508181035f830152611d2981611cf0565b9050919050565b7f4e487b71000000000000000000000000000000000000000000000000000000005f52602260045260245ffd5b5f6002820490506001821680611d7457607f821691505b602082108103611d8757611d86611d30565b5b50919050565b5f81905092915050565b5f611da1826115bb565b611dab8185611d8d565b9350611dbb8185602086016115d5565b80840191505092915050565b5f611dd28285611d97565b9150611dde8284611d97565b91508190509392505050565b7f455243313135353a2063616c6c6572206973206e6f7420746f6b656e206f776e5f8201527f6572206e6f7220617070726f7665640000000000000000000000000000000000602082015250565b5f611e44602f836115c5565b9150611e4f82611dea565b604082019050919050565b5f6020820190508181035f830152611e7181611e38565b9050919050565b7f455243313135353a2069647320616e6420616d6f756e7473206c656e677468205f8201527f6d69736d61746368000000000000000000000000000000000000000000000000602082015250565b5f611ed26028836115c5565b9150611edd82611e78565b604082019050919050565b5f6020820190508181035f830152611eff81611ec6565b9050919050565b7f455243313135353a207472616e7366657220746f20746865207a65726f2061645f8201527f6472657373000000000000000000000000000000000000000000000000000000602082015250565b5f611f606025836115c5565b9150611f6b82611f06565b604082019050919050565b5f6020820190508181035f830152611f8d81611f54565b9050919050565b7f4e487b71000000000000000000000000000000000000000000000000000000005f52603260045260245ffd5b7f455243313135353a20696e73756666696369656e742062616c616e636520666f5f8201527f72207472616e7366657200000000000000000000000000000000000000000000602082015250565b5f61201b602a836115c5565b915061202682611fc1565b604082019050919050565b5f6020820190508181035f8301526120488161200f565b9050919050565b7f4e487b71000000000000000000000000000000000000000000000000000000005f52601160045260245ffd5b5f6120868261146f565b91506120918361146f565b92508282019050808211156120a9576120a861204f565b5b92915050565b5f6040820190508181035f8301526120c78185611aed565b905081810360208301526120db8184611aed565b90509392505050565b7f455243313135353a206163636f756e747320616e6420696473206c656e6774685f8201527f206d69736d617463680000000000000000000000000000000000000000000000602082015250565b5f61213e6029836115c5565b9150612149826120e4565b604082019050919050565b5f6020820190508181035f83015261216b81612132565b9050919050565b7f455243313135353a2073657474696e6720617070726f76616c207374617475735f8201527f20666f722073656c660000000000000000000000000000000000000000000000602082015250565b5f6121cc6029836115c5565b91506121d782612172565b604082019050919050565b5f6020820190508181035f8301526121f9816121c0565b9050919050565b5f6040820190506122135f8301856114e0565b61222060208301846114e0565b9392505050565b5f6122318261146f565b91507fffffffffffffffffffffffffffffffffffffffffffffffffffffffffffffffff82036122635761226261204f565b5b600182019050919050565b7f4e487b71000000000000000000000000000000000000000000000000000000005f52601260045260245ffd5b5f6122a58261146f565b91506122b08361146f565b9250826122c0576122bf61226e565b5b828204905092915050565b5f6122d58261146f565b91506122e08361146f565b92508282039050818111156122f8576122f761204f565b5b92915050565b5f6123088261146f565b91506123138361146f565b9250826123235761232261226e565b5b828206905092915050565b61233781611434565b82525050565b5f81519050919050565b5f82825260208201905092915050565b5f6123618261233d565b61236b8185612347565b935061237b8185602086016115d5565b612384816115e3565b840191505092915050565b5f60a0820190506123a25f83018861232e565b6123af602083018761232e565b81810360408301526123c18186611aed565b905081810360608301526123d58185611aed565b905081810360808301526123e98184612357565b90509695505050505050565b5f8151905061240381611533565b92915050565b5f6020828403121561241e5761241d61140d565b5b5f61242b848285016123f5565b91505092915050565b5f8160e01c9050919050565b5f60033d111561245c5760045f803e6124595f51612434565b90505b90565b5f60443d106124eb57612470611404565b60043d036004823e80513d602482011167ffffffffffffffff821117156124985750506124eb565b808201805167ffffffffffffffff8111156124b657505050506124eb565b80602083010160043d0385018111156124d35750505050506124eb565b6124e2826020018501866116d2565b82955050505050505b90565b7f455243313135353a207472616e7366657220746f206e6f6e2d455243313135355f8201527f526563656976657220696d706c656d656e746572000000000000000000000000602082015250565b5f6125486034836115c5565b9150612553826124ee565b604082019050919050565b5f6020820190508181035f8301526125758161253c565b9050919050565b7f455243313135353a204552433131353552656365697665722072656a656374655f8201527f6420746f6b656e73000000000000000000000000000000000000000000000000602082015250565b5f6125d66028836115c5565b91506125e18261257c565b604082019050919050565b5f6020820190508181035f830152612603816125ca565b9050919050565b5f60a08201905061261d5f83018861232e565b61262a602083018761232e565b61263760408301866114e0565b61264460608301856114e0565b81810360808301526126568184612357565b9050969550505050505056fea2646970667358221220ce65f221410c845c51b6ac4a5d74e33b8d5e75fb511ab5d2e17488395e405a0b64736f6c634300081a0033",
					"opcodes": "PUSH1 0x80 PUSH1 0x40 MSTORE CALLVALUE DUP1 ISZERO PUSH2 0xF JUMPI PUSH0 DUP1 REVERT JUMPDEST POP PUSH1 0x40 MLOAD PUSH2 0x2B9B CODESIZE SUB DUP1 PUSH2 0x2B9B DUP4 CODECOPY DUP2 DUP2 ADD PUSH1 0x40 MSTORE DUP2 ADD SWAP1 PUSH2 0x31 SWAP2 SWAP1 PUSH2 0x1A4 JUMP JUMPDEST DUP2 PUSH0 SWAP1 DUP2 PUSH2 0x3F SWAP2 SWAP1 PUSH2 0x427 JUMP JUMPDEST POP DUP1 PUSH1 0x1 SWAP1 DUP2 PUSH2 0x4F SWAP2 SWAP1 PUSH2 0x427 JUMP JUMPDEST POP POP POP PUSH2 0x4F6 JUMP JUMPDEST PUSH0 PUSH1 0x40 MLOAD SWAP1 POP SWAP1 JUMP JUMPDEST PUSH0 DUP1 REVERT JUMPDEST PUSH0 DUP1 REVERT JUMPDEST PUSH0 DUP1 REVERT JUMPDEST PUSH0 DUP1 REVERT JUMPDEST PUSH0 PUSH1 0x1F NOT PUSH1 0x1F DUP4 ADD AND SWAP1 POP SWAP2 SWAP1 POP JUMP JUMPDEST PUSH32 0x4E487B7100000000000000000000000000000000000000000000000000000000 PUSH0 MSTORE PUSH1 0x41 PUSH1 0x4 MSTORE PUSH1 0x24 PUSH0 REVERT JUMPDEST PUSH2 0xB6 DUP3 PUSH2 0x70 JUMP JUMPDEST DUP2 ADD DUP2 DUP2 LT PUSH8 0xFFFFFFFFFFFFFFFF DUP3 GT OR ISZERO PUSH2 0xD5 JUMPI PUSH2 0xD4 PUSH2 0x80 JUMP JUMPDEST JUMPDEST DUP1 PUSH1 0x40 MSTORE POP POP POP JUMP JUMPDEST PUSH0 PUSH2 0xE7 PUSH2 0x57 JUMP JUMPDEST SWAP1 POP PUSH2 0xF3 DUP3 DUP3 PUSH2 0xAD JUMP JUMPDEST SWAP2 SWAP1 POP JUMP JUMPDEST PUSH0 PUSH8 0xFFFFFFFFFFFFFFFF DUP3 GT ISZERO PUSH2 0x112 JUMPI PUSH2 0x111 PUSH2 0x80 JUMP JUMPDEST JUMPDEST PUSH2 0x11B DUP3 PUSH2 0x70 JUMP JUMPDEST SWAP1 POP PUSH1 0x20 DUP2 ADD SWAP1 POP SWAP2 SWAP1 POP JUMP JUMPDEST DUP3 DUP2 DUP4 MCOPY PUSH0 DUP4 DUP4 ADD MSTORE POP POP POP JUMP JUMPDEST PUSH0 PUSH2 0x148 PUSH2 0x143 DUP5 PUSH2 0xF8 JUMP JUMPDEST PUSH2 0xDE JUMP JUMPDEST SWAP1 POP DUP3 DUP2 MSTORE PUSH1 0x20 DUP2 ADD DUP5 DUP5 DUP5 ADD GT ISZERO PUSH2 0x164 JUMPI PUSH2 0x163 PUSH2 0x6C JUMP JUMPDEST JUMPDEST PUSH2 0x16F DUP5 DUP3 DUP6 PUSH2 0x128 JUMP JUMPDEST POP SWAP4 SWAP3 POP POP POP JUMP JUMPDEST PUSH0 DUP3 PUSH1 0x1F DUP4 ADD SLT PUSH2 0x18B JUMPI PUSH2 0x18A PUSH2 0x68 JUMP JUMPDEST JUMPDEST DUP2 MLOAD PUSH2 0x19B DUP5 DUP3 PUSH1 0x20 DUP7 ADD PUSH2 0x136 JUMP JUMPDEST SWAP2 POP POP SWAP3 SWAP2 POP POP JUMP JUMPDEST PUSH0 DUP1 PUSH1 0x40 DUP4 DUP6 SUB SLT ISZERO PUSH2 0x1BA JUMPI PUSH2 0x1B9 PUSH2 0x60 JUMP JUMPDEST JUMPDEST PUSH0 DUP4 ADD MLOAD PUSH8 0xFFFFFFFFFFFFFFFF DUP2 GT ISZERO PUSH2 0x1D7 JUMPI PUSH2 0x1D6 PUSH2 0x64 JUMP JUMPDEST JUMPDEST PUSH2 0x1E3 DUP6 DUP3 DUP7 ADD PUSH2 0x177 JUMP JUMPDEST SWAP3 POP POP PUSH1 0x20 DUP4 ADD MLOAD PUSH8 0xFFFFFFFFFFFFFFFF DUP2 GT ISZERO PUSH2 0x204 JUMPI PUSH2 0x203 PUSH2 0x64 JUMP JUMPDEST JUMPDEST PUSH2 0x210 DUP6 DUP3 DUP7 ADD PUSH2 0x177 JUMP JUMPDEST SWAP2 POP POP SWAP3 POP SWAP3 SWAP1 POP JUMP JUMPDEST PUSH0 DUP2 MLOAD SWAP1 POP SWAP2 SWAP1 POP JUMP JUMPDEST PUSH32 0x4E487B7100000000000000000000000000000000000000000000000000000000 PUSH0 MSTORE PUSH1 0x22 PUSH1 0x4 MSTORE PUSH1 0x24 PUSH0 REVERT JUMPDEST PUSH0 PUSH1 0x2 DUP3 DIV SWAP1 POP PUSH1 0x1 DUP3 AND DUP1 PUSH2 0x268 JUMPI PUSH1 0x7F DUP3 AND SWAP2 POP JUMPDEST PUSH1 0x20 DUP3 LT DUP2 SUB PUSH2 0x27B JUMPI PUSH2 0x27A PUSH2 0x224 JUMP JUMPDEST JUMPDEST POP SWAP2 SWAP1 POP JUMP JUMPDEST PUSH0 DUP2 SWAP1 POP DUP2 PUSH0 MSTORE PUSH1 0x20 PUSH0 KECCAK256 SWAP1 POP SWAP2 SWAP1 POP JUMP JUMPDEST PUSH0 PUSH1 0x20 PUSH1 0x1F DUP4 ADD DIV SWAP1 POP SWAP2 SWAP1 POP JUMP JUMPDEST PUSH0 DUP3 DUP3 SHL SWAP1 POP SWAP3 SWAP2 POP POP JUMP JUMPDEST PUSH0 PUSH1 0x8 DUP4 MUL PUSH2 0x2DD PUSH32 0xFFFFFFFFFFFFFFFFFFFFFFFFFFFFFFFFFFFFFFFFFFFFFFFFFFFFFFFFFFFFFFFF DUP3 PUSH2 0x2A2 JUMP JUMPDEST PUSH2 0x2E7 DUP7 DUP4 PUSH2 0x2A2 JUMP JUMPDEST SWAP6 POP DUP1 NOT DUP5 AND SWAP4 POP DUP1 DUP7 AND DUP5 OR SWAP3 POP POP POP SWAP4 SWAP3 POP POP POP JUMP JUMPDEST PUSH0 DUP2 SWAP1 POP SWAP2 SWAP1 POP JUMP JUMPDEST PUSH0 DUP2 SWAP1 POP SWAP2 SWAP1 POP JUMP JUMPDEST PUSH0 PUSH2 0x32B PUSH2 0x326 PUSH2 0x321 DUP5 PUSH2 0x2FF JUMP JUMPDEST PUSH2 0x308 JUMP JUMPDEST PUSH2 0x2FF JUMP JUMPDEST SWAP1 POP SWAP2 SWAP1 POP JUMP JUMPDEST PUSH0 DUP2 SWAP1 POP SWAP2 SWAP1 POP JUMP JUMPDEST PUSH2 0x344 DUP4 PUSH2 0x311 JUMP JUMPDEST PUSH2 0x358 PUSH2 0x350 DUP3 PUSH2 0x332 JUMP JUMPDEST DUP5 DUP5 SLOAD PUSH2 0x2AE JUMP JUMPDEST DUP3 SSTORE POP POP POP POP JUMP JUMPDEST PUSH0 SWAP1 JUMP JUMPDEST PUSH2 0x36C PUSH2 0x360 JUMP JUMPDEST PUSH2 0x377 DUP2 DUP5 DUP5 PUSH2 0x33B JUMP JUMPDEST POP POP POP JUMP JUMPDEST JUMPDEST DUP2 DUP2 LT ISZERO PUSH2 0x39A JUMPI PUSH2 0x38F PUSH0 DUP3 PUSH2 0x364 JUMP JUMPDEST PUSH1 0x1 DUP2 ADD SWAP1 POP PUSH2 0x37D JUMP JUMPDEST POP POP JUMP JUMPDEST PUSH1 0x1F DUP3 GT ISZERO PUSH2 0x3DF JUMPI PUSH2 0x3B0 DUP2 PUSH2 0x281 JUMP JUMPDEST PUSH2 0x3B9 DUP5 PUSH2 0x293 JUMP JUMPDEST DUP2 ADD PUSH1 0x20 DUP6 LT ISZERO PUSH2 0x3C8 JUMPI DUP2 SWAP1 POP JUMPDEST PUSH2 0x3DC PUSH2 0x3D4 DUP6 PUSH2 0x293 JUMP JUMPDEST DUP4 ADD DUP3 PUSH2 0x37C JUMP JUMPDEST POP POP JUMPDEST POP POP POP JUMP JUMPDEST PUSH0 DUP3 DUP3 SHR SWAP1 POP SWAP3 SWAP2 POP POP JUMP JUMPDEST PUSH0 PUSH2 0x3FF PUSH0 NOT DUP5 PUSH1 0x8 MUL PUSH2 0x3E4 JUMP JUMPDEST NOT DUP1 DUP4 AND SWAP2 POP POP SWAP3 SWAP2 POP POP JUMP JUMPDEST PUSH0 PUSH2 0x417 DUP4 DUP4 PUSH2 0x3F0 JUMP JUMPDEST SWAP2 POP DUP3 PUSH1 0x2 MUL DUP3 OR SWAP1 POP SWAP3 SWAP2 POP POP JUMP JUMPDEST PUSH2 0x430 DUP3 PUSH2 0x21A JUMP JUMPDEST PUSH8 0xFFFFFFFFFFFFFFFF DUP2 GT ISZERO PUSH2 0x449 JUMPI PUSH2 0x448 PUSH2 0x80 JUMP JUMPDEST JUMPDEST PUSH2 0x453 DUP3 SLOAD PUSH2 0x251 JUMP JUMPDEST PUSH2 0x45E DUP3 DUP3 DUP6 PUSH2 0x39E JUMP JUMPDEST PUSH0 PUSH1 0x20 SWAP1 POP PUSH1 0x1F DUP4 GT PUSH1 0x1 DUP2 EQ PUSH2 0x48F JUMPI PUSH0 DUP5 ISZERO PUSH2 0x47D JUMPI DUP3 DUP8 ADD MLOAD SWAP1 POP JUMPDEST PUSH2 0x487 DUP6 DUP3 PUSH2 0x40C JUMP JUMPDEST DUP7 SSTORE POP PUSH2 0x4EE JUMP JUMPDEST PUSH1 0x1F NOT DUP5 AND PUSH2 0x49D DUP7 PUSH2 0x281 JUMP JUMPDEST PUSH0 JUMPDEST DUP3 DUP2 LT ISZERO PUSH2 0x4C4 JUMPI DUP5 DUP10 ADD MLOAD DUP3 SSTORE PUSH1 0x1 DUP3 ADD SWAP2 POP PUSH1 0x20 DUP6 ADD SWAP5 POP PUSH1 0x20 DUP2 ADD SWAP1 POP PUSH2 0x49F JUMP JUMPDEST DUP7 DUP4 LT ISZERO PUSH2 0x4E1 JUMPI DUP5 DUP10 ADD MLOAD PUSH2 0x4DD PUSH1 0x1F DUP10 AND DUP3 PUSH2 0x3F0 JUMP JUMPDEST DUP4 SSTORE POP JUMPDEST PUSH1 0x1 PUSH1 0x2 DUP9 MUL ADD DUP9 SSTORE POP POP POP JUMPDEST POP POP POP POP POP POP JUMP JUMPDEST PUSH2 0x2698 DUP1 PUSH2 0x503 PUSH0 CODECOPY PUSH0 RETURN INVALID PUSH1 0x80 PUSH1 0x40 MSTORE CALLVALUE DUP1 ISZERO PUSH2 0xF JUMPI PUSH0 DUP1 REVERT JUMPDEST POP PUSH1 0x4 CALLDATASIZE LT PUSH2 0xA6 JUMPI PUSH0 CALLDATALOAD PUSH1 0xE0 SHR DUP1 PUSH4 0x2EB2C2D6 GT PUSH2 0x6F JUMPI DUP1 PUSH4 0x2EB2C2D6 EQ PUSH2 0x188 JUMPI DUP1 PUSH4 0x4E1273F4 EQ PUSH2 0x1A4 JUMPI DUP1 PUSH4 0x95D89B41 EQ PUSH2 0x1D4 JUMPI DUP1 PUSH4 0xA22CB465 EQ PUSH2 0x1F2 JUMPI DUP1 PUSH4 0xE985E9C5 EQ PUSH2 0x20E JUMPI DUP1 PUSH4 0xF242432A EQ PUSH2 0x23E JUMPI PUSH2 0xA6 JUMP JUMPDEST DUP1 PUSH3 0xFDD58E EQ PUSH2 0xAA JUMPI DUP1 PUSH4 0x1FFC9A7 EQ PUSH2 0xDA JUMPI DUP1 PUSH4 0x6FDDE03 EQ PUSH2 0x10A JUMPI DUP1 PUSH4 0xE89341C EQ PUSH2 0x128 JUMPI DUP1 PUSH4 0x16279055 EQ PUSH2 0x158 JUMPI JUMPDEST PUSH0 DUP1 REVERT JUMPDEST PUSH2 0xC4 PUSH1 0x4 DUP1 CALLDATASIZE SUB DUP2 ADD SWAP1 PUSH2 0xBF SWAP2 SWAP1 PUSH2 0x14A2 JUMP JUMPDEST PUSH2 0x25A JUMP JUMPDEST PUSH1 0x40 MLOAD PUSH2 0xD1 SWAP2 SWAP1 PUSH2 0x14EF JUMP JUMPDEST PUSH1 0x40 MLOAD DUP1 SWAP2 SUB SWAP1 RETURN JUMPDEST PUSH2 0xF4 PUSH1 0x4 DUP1 CALLDATASIZE SUB DUP2 ADD SWAP1 PUSH2 0xEF SWAP2 SWAP1 PUSH2 0x155D JUMP JUMPDEST PUSH2 0x31E JUMP JUMPDEST PUSH1 0x40 MLOAD PUSH2 0x101 SWAP2 SWAP1 PUSH2 0x15A2 JUMP JUMPDEST PUSH1 0x40 MLOAD DUP1 SWAP2 SUB SWAP1 RETURN JUMPDEST PUSH2 0x112 PUSH2 0x457 JUMP JUMPDEST PUSH1 0x40 MLOAD PUSH2 0x11F SWAP2 SWAP1 PUSH2 0x162B JUMP JUMPDEST PUSH1 0x40 MLOAD DUP1 SWAP2 SUB SWAP1 RETURN JUMPDEST PUSH2 0x142 PUSH1 0x4 DUP1 CALLDATASIZE SUB DUP2 ADD SWAP1 PUSH2 0x13D SWAP2 SWAP1 PUSH2 0x164B JUMP JUMPDEST PUSH2 0x4E2 JUMP JUMPDEST PUSH1 0x40 MLOAD PUSH2 0x14F SWAP2 SWAP1 PUSH2 0x162B JUMP JUMPDEST PUSH1 0x40 MLOAD DUP1 SWAP2 SUB SWAP1 RETURN JUMPDEST PUSH2 0x172 PUSH1 0x4 DUP1 CALLDATASIZE SUB DUP2 ADD SWAP1 PUSH2 0x16D SWAP2 SWAP1 PUSH2 0x1676 JUMP JUMPDEST PUSH2 0x53E JUMP JUMPDEST PUSH1 0x40 MLOAD PUSH2 0x17F SWAP2 SWAP1 PUSH2 0x15A2 JUMP JUMPDEST PUSH1 0x40 MLOAD DUP1 SWAP2 SUB SWAP1 RETURN JUMPDEST PUSH2 0x1A2 PUSH1 0x4 DUP1 CALLDATASIZE SUB DUP2 ADD SWAP1 PUSH2 0x19D SWAP2 SWAP1 PUSH2 0x1891 JUMP JUMPDEST PUSH2 0x54F JUMP JUMPDEST STOP JUMPDEST PUSH2 0x1BE PUSH1 0x4 DUP1 CALLDATASIZE SUB DUP2 ADD SWAP1 PUSH2 0x1B9 SWAP2 SWAP1 PUSH2 0x1A1C JUMP JUMPDEST PUSH2 0x8B6 JUMP JUMPDEST PUSH1 0x40 MLOAD PUSH2 0x1CB SWAP2 SWAP1 PUSH2 0x1B49 JUMP JUMPDEST PUSH1 0x40 MLOAD DUP1 SWAP2 SUB SWAP1 RETURN JUMPDEST PUSH2 0x1DC PUSH2 0x9C7 JUMP JUMPDEST PUSH1 0x40 MLOAD PUSH2 0x1E9 SWAP2 SWAP1 PUSH2 0x162B JUMP JUMPDEST PUSH1 0x40 MLOAD DUP1 SWAP2 SUB SWAP1 RETURN JUMPDEST PUSH2 0x20C PUSH1 0x4 DUP1 CALLDATASIZE SUB DUP2 ADD SWAP1 PUSH2 0x207 SWAP2 SWAP1 PUSH2 0x1B93 JUMP JUMPDEST PUSH2 0xA53 JUMP JUMPDEST STOP JUMPDEST PUSH2 0x228 PUSH1 0x4 DUP1 CALLDATASIZE SUB DUP2 ADD SWAP1 PUSH2 0x223 SWAP2 SWAP1 PUSH2 0x1BD1 JUMP JUMPDEST PUSH2 0xBB9 JUMP JUMPDEST PUSH1 0x40 MLOAD PUSH2 0x235 SWAP2 SWAP1 PUSH2 0x15A2 JUMP JUMPDEST PUSH1 0x40 MLOAD DUP1 SWAP2 SUB SWAP1 RETURN JUMPDEST PUSH2 0x258 PUSH1 0x4 DUP1 CALLDATASIZE SUB DUP2 ADD SWAP1 PUSH2 0x253 SWAP2 SWAP1 PUSH2 0x1C0F JUMP JUMPDEST PUSH2 0xC47 JUMP JUMPDEST STOP JUMPDEST PUSH0 DUP1 PUSH20 0xFFFFFFFFFFFFFFFFFFFFFFFFFFFFFFFFFFFFFFFF AND DUP4 PUSH20 0xFFFFFFFFFFFFFFFFFFFFFFFFFFFFFFFFFFFFFFFF AND SUB PUSH2 0x2C9 JUMPI PUSH1 0x40 MLOAD PUSH32 0x8C379A000000000000000000000000000000000000000000000000000000000 DUP2 MSTORE PUSH1 0x4 ADD PUSH2 0x2C0 SWAP1 PUSH2 0x1D12 JUMP JUMPDEST PUSH1 0x40 MLOAD DUP1 SWAP2 SUB SWAP1 REVERT JUMPDEST PUSH1 0x2 PUSH0 DUP4 DUP2 MSTORE PUSH1 0x20 ADD SWAP1 DUP2 MSTORE PUSH1 0x20 ADD PUSH0 KECCAK256 PUSH0 DUP5 PUSH20 0xFFFFFFFFFFFFFFFFFFFFFFFFFFFFFFFFFFFFFFFF AND PUSH20 0xFFFFFFFFFFFFFFFFFFFFFFFFFFFFFFFFFFFFFFFF AND DUP2 MSTORE PUSH1 0x20 ADD SWAP1 DUP2 MSTORE PUSH1 0x20 ADD PUSH0 KECCAK256 SLOAD SWAP1 POP SWAP3 SWAP2 POP POP JUMP JUMPDEST PUSH0 PUSH32 0xD9B67A2600000000000000000000000000000000000000000000000000000000 PUSH28 0xFFFFFFFFFFFFFFFFFFFFFFFFFFFFFFFFFFFFFFFFFFFFFFFFFFFFFFFF NOT AND DUP3 PUSH28 0xFFFFFFFFFFFFFFFFFFFFFFFFFFFFFFFFFFFFFFFFFFFFFFFFFFFFFFFF NOT AND EQ DUP1 PUSH2 0x3E8 JUMPI POP PUSH32 0xE89341C00000000000000000000000000000000000000000000000000000000 PUSH28 0xFFFFFFFFFFFFFFFFFFFFFFFFFFFFFFFFFFFFFFFFFFFFFFFFFFFFFFFF NOT AND DUP3 PUSH28 0xFFFFFFFFFFFFFFFFFFFFFFFFFFFFFFFFFFFFFFFFFFFFFFFFFFFFFFFF NOT AND EQ JUMPDEST DUP1 PUSH2 0x450 JUMPI POP PUSH32 0x1FFC9A700000000000000000000000000000000000000000000000000000000 PUSH28 0xFFFFFFFFFFFFFFFFFFFFFFFFFFFFFFFFFFFFFFFFFFFFFFFFFFFFFFFF NOT AND DUP3 PUSH28 0xFFFFFFFFFFFFFFFFFFFFFFFFFFFFFFFFFFFFFFFFFFFFFFFFFFFFFFFF NOT AND EQ JUMPDEST SWAP1 POP SWAP2 SWAP1 POP JUMP JUMPDEST PUSH0 DUP1 SLOAD PUSH2 0x463 SWAP1 PUSH2 0x1D5D JUMP JUMPDEST DUP1 PUSH1 0x1F ADD PUSH1 0x20 DUP1 SWAP2 DIV MUL PUSH1 0x20 ADD PUSH1 0x40 MLOAD SWAP1 DUP2 ADD PUSH1 0x40 MSTORE DUP1 SWAP3 SWAP2 SWAP1 DUP2 DUP2 MSTORE PUSH1 0x20 ADD DUP3 DUP1 SLOAD PUSH2 0x48F SWAP1 PUSH2 0x1D5D JUMP JUMPDEST DUP1 ISZERO PUSH2 0x4DA JUMPI DUP1 PUSH1 0x1F LT PUSH2 0x4B1 JUMPI PUSH2 0x100 DUP1 DUP4 SLOAD DIV MUL DUP4 MSTORE SWAP2 PUSH1 0x20 ADD SWAP2 PUSH2 0x4DA JUMP JUMPDEST DUP3 ADD SWAP2 SWAP1 PUSH0 MSTORE PUSH1 0x20 PUSH0 KECCAK256 SWAP1 JUMPDEST DUP2 SLOAD DUP2 MSTORE SWAP1 PUSH1 0x1 ADD SWAP1 PUSH1 0x20 ADD DUP1 DUP4 GT PUSH2 0x4BD JUMPI DUP3 SWAP1 SUB PUSH1 0x1F AND DUP3 ADD SWAP2 JUMPDEST POP POP POP POP POP DUP2 JUMP JUMPDEST PUSH1 0x60 PUSH0 PUSH2 0x4ED PUSH2 0xF15 JUMP JUMPDEST SWAP1 POP PUSH0 DUP2 MLOAD GT PUSH2 0x50B JUMPI PUSH1 0x40 MLOAD DUP1 PUSH1 0x20 ADD PUSH1 0x40 MSTORE DUP1 PUSH0 DUP2 MSTORE POP PUSH2 0x536 JUMP JUMPDEST DUP1 PUSH2 0x515 DUP5 PUSH2 0xF2B JUMP JUMPDEST PUSH1 0x40 MLOAD PUSH1 0x20 ADD PUSH2 0x526 SWAP3 SWAP2 SWAP1 PUSH2 0x1DC7 JUMP JUMPDEST PUSH1 0x40 MLOAD PUSH1 0x20 DUP2 DUP4 SUB SUB DUP2 MSTORE SWAP1 PUSH1 0x40 MSTORE JUMPDEST SWAP2 POP POP SWAP2 SWAP1 POP JUMP JUMPDEST PUSH0 DUP1 DUP3 EXTCODESIZE SWAP1 POP PUSH0 DUP2 GT SWAP2 POP POP SWAP2 SWAP1 POP JUMP JUMPDEST PUSH0 CALLER SWAP1 POP DUP1 PUSH20 0xFFFFFFFFFFFFFFFFFFFFFFFFFFFFFFFFFFFFFFFF AND DUP7 PUSH20 0xFFFFFFFFFFFFFFFFFFFFFFFFFFFFFFFFFFFFFFFF AND EQ DUP1 PUSH2 0x593 JUMPI POP PUSH2 0x592 DUP7 DUP3 PUSH2 0xBB9 JUMP JUMPDEST JUMPDEST PUSH2 0x5D2 JUMPI PUSH1 0x40 MLOAD PUSH32 0x8C379A000000000000000000000000000000000000000000000000000000000 DUP2 MSTORE PUSH1 0x4 ADD PUSH2 0x5C9 SWAP1 PUSH2 0x1E5A JUMP JUMPDEST PUSH1 0x40 MLOAD DUP1 SWAP2 SUB SWAP1 REVERT JUMPDEST DUP3 MLOAD DUP5 MLOAD EQ PUSH2 0x616 JUMPI PUSH1 0x40 MLOAD PUSH32 0x8C379A000000000000000000000000000000000000000000000000000000000 DUP2 MSTORE PUSH1 0x4 ADD PUSH2 0x60D SWAP1 PUSH2 0x1EE8 JUMP JUMPDEST PUSH1 0x40 MLOAD DUP1 SWAP2 SUB SWAP1 REVERT JUMPDEST PUSH0 PUSH20 0xFFFFFFFFFFFFFFFFFFFFFFFFFFFFFFFFFFFFFFFF AND DUP6 PUSH20 0xFFFFFFFFFFFFFFFFFFFFFFFFFFFFFFFFFFFFFFFF AND SUB PUSH2 0x684 JUMPI PUSH1 0x40 MLOAD PUSH32 0x8C379A000000000000000000000000000000000000000000000000000000000 DUP2 MSTORE PUSH1 0x4 ADD PUSH2 0x67B SWAP1 PUSH2 0x1F76 JUMP JUMPDEST PUSH1 0x40 MLOAD DUP1 SWAP2 SUB SWAP1 REVERT JUMPDEST PUSH0 JUMPDEST DUP5 MLOAD DUP2 LT ISZERO PUSH2 0x821 JUMPI PUSH0 DUP6 DUP3 DUP2 MLOAD DUP2 LT PUSH2 0x6A3 JUMPI PUSH2 0x6A2 PUSH2 0x1F94 JUMP JUMPDEST JUMPDEST PUSH1 0x20 MUL PUSH1 0x20 ADD ADD MLOAD SWAP1 POP PUSH0 DUP6 DUP4 DUP2 MLOAD DUP2 LT PUSH2 0x6C1 JUMPI PUSH2 0x6C0 PUSH2 0x1F94 JUMP JUMPDEST JUMPDEST PUSH1 0x20 MUL PUSH1 0x20 ADD ADD MLOAD SWAP1 POP PUSH0 PUSH1 0x2 PUSH0 DUP5 DUP2 MSTORE PUSH1 0x20 ADD SWAP1 DUP2 MSTORE PUSH1 0x20 ADD PUSH0 KECCAK256 PUSH0 DUP12 PUSH20 0xFFFFFFFFFFFFFFFFFFFFFFFFFFFFFFFFFFFFFFFF AND PUSH20 0xFFFFFFFFFFFFFFFFFFFFFFFFFFFFFFFFFFFFFFFF AND DUP2 MSTORE PUSH1 0x20 ADD SWAP1 DUP2 MSTORE PUSH1 0x20 ADD PUSH0 KECCAK256 SLOAD SWAP1 POP DUP2 DUP2 LT ISZERO PUSH2 0x75E JUMPI PUSH1 0x40 MLOAD PUSH32 0x8C379A000000000000000000000000000000000000000000000000000000000 DUP2 MSTORE PUSH1 0x4 ADD PUSH2 0x755 SWAP1 PUSH2 0x2031 JUMP JUMPDEST PUSH1 0x40 MLOAD DUP1 SWAP2 SUB SWAP1 REVERT JUMPDEST DUP2 DUP2 SUB PUSH1 0x2 PUSH0 DUP6 DUP2 MSTORE PUSH1 0x20 ADD SWAP1 DUP2 MSTORE PUSH1 0x20 ADD PUSH0 KECCAK256 PUSH0 DUP13 PUSH20 0xFFFFFFFFFFFFFFFFFFFFFFFFFFFFFFFFFFFFFFFF AND PUSH20 0xFFFFFFFFFFFFFFFFFFFFFFFFFFFFFFFFFFFFFFFF AND DUP2 MSTORE PUSH1 0x20 ADD SWAP1 DUP2 MSTORE PUSH1 0x20 ADD PUSH0 KECCAK256 DUP2 SWAP1 SSTORE POP DUP2 PUSH1 0x2 PUSH0 DUP6 DUP2 MSTORE PUSH1 0x20 ADD SWAP1 DUP2 MSTORE PUSH1 0x20 ADD PUSH0 KECCAK256 PUSH0 DUP12 PUSH20 0xFFFFFFFFFFFFFFFFFFFFFFFFFFFFFFFFFFFFFFFF AND PUSH20 0xFFFFFFFFFFFFFFFFFFFFFFFFFFFFFFFFFFFFFFFF AND DUP2 MSTORE PUSH1 0x20 ADD SWAP1 DUP2 MSTORE PUSH1 0x20 ADD PUSH0 KECCAK256 PUSH0 DUP3 DUP3 SLOAD PUSH2 0x80C SWAP2 SWAP1 PUSH2 0x207C JUMP JUMPDEST SWAP3 POP POP DUP2 SWAP1 SSTORE POP POP POP POP DUP1 PUSH1 0x1 ADD SWAP1 POP PUSH2 0x686 JUMP JUMPDEST POP DUP5 PUSH20 0xFFFFFFFFFFFFFFFFFFFFFFFFFFFFFFFFFFFFFFFF AND DUP7 PUSH20 0xFFFFFFFFFFFFFFFFFFFFFFFFFFFFFFFFFFFFFFFF AND DUP3 PUSH20 0xFFFFFFFFFFFFFFFFFFFFFFFFFFFFFFFFFFFFFFFF AND PUSH32 0x4A39DC06D4C0DBC64B70AF90FD698A233A518AA5D07E595D983B8C0526C8F7FB DUP8 DUP8 PUSH1 0x40 MLOAD PUSH2 0x898 SWAP3 SWAP2 SWAP1 PUSH2 0x20AF JUMP JUMPDEST PUSH1 0x40 MLOAD DUP1 SWAP2 SUB SWAP1 LOG4 PUSH2 0x8AE DUP2 DUP8 DUP8 DUP8 DUP8 DUP8 PUSH2 0x1084 JUMP JUMPDEST POP POP POP POP POP POP JUMP JUMPDEST PUSH1 0x60 DUP2 MLOAD DUP4 MLOAD EQ PUSH2 0x8FC JUMPI PUSH1 0x40 MLOAD PUSH32 0x8C379A000000000000000000000000000000000000000000000000000000000 DUP2 MSTORE PUSH1 0x4 ADD PUSH2 0x8F3 SWAP1 PUSH2 0x2154 JUMP JUMPDEST PUSH1 0x40 MLOAD DUP1 SWAP2 SUB SWAP1 REVERT JUMPDEST PUSH0 DUP4 MLOAD PUSH8 0xFFFFFFFFFFFFFFFF DUP2 GT ISZERO PUSH2 0x918 JUMPI PUSH2 0x917 PUSH2 0x16A5 JUMP JUMPDEST JUMPDEST PUSH1 0x40 MLOAD SWAP1 DUP1 DUP3 MSTORE DUP1 PUSH1 0x20 MUL PUSH1 0x20 ADD DUP3 ADD PUSH1 0x40 MSTORE DUP1 ISZERO PUSH2 0x946 JUMPI DUP2 PUSH1 0x20 ADD PUSH1 0x20 DUP3 MUL DUP1 CALLDATASIZE DUP4 CALLDATACOPY DUP1 DUP3 ADD SWAP2 POP POP SWAP1 POP JUMPDEST POP SWAP1 POP PUSH0 JUMPDEST DUP5 MLOAD DUP2 LT ISZERO PUSH2 0x9BC JUMPI PUSH2 0x992 DUP6 DUP3 DUP2 MLOAD DUP2 LT PUSH2 0x96A JUMPI PUSH2 0x969 PUSH2 0x1F94 JUMP JUMPDEST JUMPDEST PUSH1 0x20 MUL PUSH1 0x20 ADD ADD MLOAD DUP6 DUP4 DUP2 MLOAD DUP2 LT PUSH2 0x985 JUMPI PUSH2 0x984 PUSH2 0x1F94 JUMP JUMPDEST JUMPDEST PUSH1 0x20 MUL PUSH1 0x20 ADD ADD MLOAD PUSH2 0x25A JUMP JUMPDEST DUP3 DUP3 DUP2 MLOAD DUP2 LT PUSH2 0x9A5 JUMPI PUSH2 0x9A4 PUSH2 0x1F94 JUMP JUMPDEST JUMPDEST PUSH1 0x20 MUL PUSH1 0x20 ADD ADD DUP2 DUP2 MSTORE POP POP DUP1 PUSH1 0x1 ADD SWAP1 POP PUSH2 0x94B JUMP JUMPDEST POP DUP1 SWAP2 POP POP SWAP3 SWAP2 POP POP JUMP JUMPDEST PUSH1 0x1 DUP1 SLOAD PUSH2 0x9D4 SWAP1 PUSH2 0x1D5D JUMP JUMPDEST DUP1 PUSH1 0x1F ADD PUSH1 0x20 DUP1 SWAP2 DIV MUL PUSH1 0x20 ADD PUSH1 0x40 MLOAD SWAP1 DUP2 ADD PUSH1 0x40 MSTORE DUP1 SWAP3 SWAP2 SWAP1 DUP2 DUP2 MSTORE PUSH1 0x20 ADD DUP3 DUP1 SLOAD PUSH2 0xA00 SWAP1 PUSH2 0x1D5D JUMP JUMPDEST DUP1 ISZERO PUSH2 0xA4B JUMPI DUP1 PUSH1 0x1F LT PUSH2 0xA22 JUMPI PUSH2 0x100 DUP1 DUP4 SLOAD DIV MUL DUP4 MSTORE SWAP2 PUSH1 0x20 ADD SWAP2 PUSH2 0xA4B JUMP JUMPDEST DUP3 ADD SWAP2 SWAP1 PUSH0 MSTORE PUSH1 0x20 PUSH0 KECCAK256 SWAP1 JUMPDEST DUP2 SLOAD DUP2 MSTORE SWAP1 PUSH1 0x1 ADD SWAP1 PUSH1 0x20 ADD DUP1 DUP4 GT PUSH2 0xA2E JUMPI DUP3 SWAP1 SUB PUSH1 0x1F AND DUP3 ADD SWAP2 JUMPDEST POP POP POP POP POP DUP2 JUMP JUMPDEST DUP2 PUSH20 0xFFFFFFFFFFFFFFFFFFFFFFFFFFFFFFFFFFFFFFFF AND CALLER PUSH20 0xFFFFFFFFFFFFFFFFFFFFFFFFFFFFFFFFFFFFFFFF AND SUB PUSH2 0xAC1 JUMPI PUSH1 0x40 MLOAD PUSH32 0x8C379A000000000000000000000000000000000000000000000000000000000 DUP2 MSTORE PUSH1 0x4 ADD PUSH2 0xAB8 SWAP1 PUSH2 0x21E2 JUMP JUMPDEST PUSH1 0x40 MLOAD DUP1 SWAP2 SUB SWAP1 REVERT JUMPDEST DUP1 PUSH1 0x3 PUSH0 CALLER PUSH20 0xFFFFFFFFFFFFFFFFFFFFFFFFFFFFFFFFFFFFFFFF AND PUSH20 0xFFFFFFFFFFFFFFFFFFFFFFFFFFFFFFFFFFFFFFFF AND DUP2 MSTORE PUSH1 0x20 ADD SWAP1 DUP2 MSTORE PUSH1 0x20 ADD PUSH0 KECCAK256 PUSH0 DUP5 PUSH20 0xFFFFFFFFFFFFFFFFFFFFFFFFFFFFFFFFFFFFFFFF AND PUSH20 0xFFFFFFFFFFFFFFFFFFFFFFFFFFFFFFFFFFFFFFFF AND DUP2 MSTORE PUSH1 0x20 ADD SWAP1 DUP2 MSTORE PUSH1 0x20 ADD PUSH0 KECCAK256 PUSH0 PUSH2 0x100 EXP DUP2 SLOAD DUP2 PUSH1 0xFF MUL NOT AND SWAP1 DUP4 ISZERO ISZERO MUL OR SWAP1 SSTORE POP DUP2 PUSH20 0xFFFFFFFFFFFFFFFFFFFFFFFFFFFFFFFFFFFFFFFF AND CALLER PUSH20 0xFFFFFFFFFFFFFFFFFFFFFFFFFFFFFFFFFFFFFFFF AND PUSH32 0x17307EAB39AB6107E8899845AD3D59BD9653F200F220920489CA2B5937696C31 DUP4 PUSH1 0x40 MLOAD PUSH2 0xBAD SWAP2 SWAP1 PUSH2 0x15A2 JUMP JUMPDEST PUSH1 0x40 MLOAD DUP1 SWAP2 SUB SWAP1 LOG3 POP POP JUMP JUMPDEST PUSH0 PUSH1 0x3 PUSH0 DUP5 PUSH20 0xFFFFFFFFFFFFFFFFFFFFFFFFFFFFFFFFFFFFFFFF AND PUSH20 0xFFFFFFFFFFFFFFFFFFFFFFFFFFFFFFFFFFFFFFFF AND DUP2 MSTORE PUSH1 0x20 ADD SWAP1 DUP2 MSTORE PUSH1 0x20 ADD PUSH0 KECCAK256 PUSH0 DUP4 PUSH20 0xFFFFFFFFFFFFFFFFFFFFFFFFFFFFFFFFFFFFFFFF AND PUSH20 0xFFFFFFFFFFFFFFFFFFFFFFFFFFFFFFFFFFFFFFFF AND DUP2 MSTORE PUSH1 0x20 ADD SWAP1 DUP2 MSTORE PUSH1 0x20 ADD PUSH0 KECCAK256 PUSH0 SWAP1 SLOAD SWAP1 PUSH2 0x100 EXP SWAP1 DIV PUSH1 0xFF AND SWAP1 POP SWAP3 SWAP2 POP POP JUMP JUMPDEST PUSH0 CALLER SWAP1 POP DUP1 PUSH20 0xFFFFFFFFFFFFFFFFFFFFFFFFFFFFFFFFFFFFFFFF AND DUP7 PUSH20 0xFFFFFFFFFFFFFFFFFFFFFFFFFFFFFFFFFFFFFFFF AND EQ DUP1 PUSH2 0xC8B JUMPI POP PUSH2 0xC8A DUP7 DUP3 PUSH2 0xBB9 JUMP JUMPDEST JUMPDEST PUSH2 0xCCA JUMPI PUSH1 0x40 MLOAD PUSH32 0x8C379A000000000000000000000000000000000000000000000000000000000 DUP2 MSTORE PUSH1 0x4 ADD PUSH2 0xCC1 SWAP1 PUSH2 0x1E5A JUMP JUMPDEST PUSH1 0x40 MLOAD DUP1 SWAP2 SUB SWAP1 REVERT JUMPDEST PUSH0 PUSH20 0xFFFFFFFFFFFFFFFFFFFFFFFFFFFFFFFFFFFFFFFF AND DUP6 PUSH20 0xFFFFFFFFFFFFFFFFFFFFFFFFFFFFFFFFFFFFFFFF AND SUB PUSH2 0xD38 JUMPI PUSH1 0x40 MLOAD PUSH32 0x8C379A000000000000000000000000000000000000000000000000000000000 DUP2 MSTORE PUSH1 0x4 ADD PUSH2 0xD2F SWAP1 PUSH2 0x1F76 JUMP JUMPDEST PUSH1 0x40 MLOAD DUP1 SWAP2 SUB SWAP1 REVERT JUMPDEST PUSH0 PUSH1 0x2 PUSH0 DUP7 DUP2 MSTORE PUSH1 0x20 ADD SWAP1 DUP2 MSTORE PUSH1 0x20 ADD PUSH0 KECCAK256 PUSH0 DUP9 PUSH20 0xFFFFFFFFFFFFFFFFFFFFFFFFFFFFFFFFFFFFFFFF AND PUSH20 0xFFFFFFFFFFFFFFFFFFFFFFFFFFFFFFFFFFFFFFFF AND DUP2 MSTORE PUSH1 0x20 ADD SWAP1 DUP2 MSTORE PUSH1 0x20 ADD PUSH0 KECCAK256 SLOAD SWAP1 POP DUP4 DUP2 LT ISZERO PUSH2 0xDCB JUMPI PUSH1 0x40 MLOAD PUSH32 0x8C379A000000000000000000000000000000000000000000000000000000000 DUP2 MSTORE PUSH1 0x4 ADD PUSH2 0xDC2 SWAP1 PUSH2 0x2031 JUMP JUMPDEST PUSH1 0x40 MLOAD DUP1 SWAP2 SUB SWAP1 REVERT JUMPDEST DUP4 DUP2 SUB PUSH1 0x2 PUSH0 DUP8 DUP2 MSTORE PUSH1 0x20 ADD SWAP1 DUP2 MSTORE PUSH1 0x20 ADD PUSH0 KECCAK256 PUSH0 DUP10 PUSH20 0xFFFFFFFFFFFFFFFFFFFFFFFFFFFFFFFFFFFFFFFF AND PUSH20 0xFFFFFFFFFFFFFFFFFFFFFFFFFFFFFFFFFFFFFFFF AND DUP2 MSTORE PUSH1 0x20 ADD SWAP1 DUP2 MSTORE PUSH1 0x20 ADD PUSH0 KECCAK256 DUP2 SWAP1 SSTORE POP DUP4 PUSH1 0x2 PUSH0 DUP8 DUP2 MSTORE PUSH1 0x20 ADD SWAP1 DUP2 MSTORE PUSH1 0x20 ADD PUSH0 KECCAK256 PUSH0 DUP9 PUSH20 0xFFFFFFFFFFFFFFFFFFFFFFFFFFFFFFFFFFFFFFFF AND PUSH20 0xFFFFFFFFFFFFFFFFFFFFFFFFFFFFFFFFFFFFFFFF AND DUP2 MSTORE PUSH1 0x20 ADD SWAP1 DUP2 MSTORE PUSH1 0x20 ADD PUSH0 KECCAK256 PUSH0 DUP3 DUP3 SLOAD PUSH2 0xE79 SWAP2 SWAP1 PUSH2 0x207C JUMP JUMPDEST SWAP3 POP POP DUP2 SWAP1 SSTORE POP DUP6 PUSH20 0xFFFFFFFFFFFFFFFFFFFFFFFFFFFFFFFFFFFFFFFF AND DUP8 PUSH20 0xFFFFFFFFFFFFFFFFFFFFFFFFFFFFFFFFFFFFFFFF AND DUP4 PUSH20 0xFFFFFFFFFFFFFFFFFFFFFFFFFFFFFFFFFFFFFFFF AND PUSH32 0xC3D58168C5AE7397731D063D5BBF3D657854427343F4C083240F7AACAA2D0F62 DUP9 DUP9 PUSH1 0x40 MLOAD PUSH2 0xEF6 SWAP3 SWAP2 SWAP1 PUSH2 0x2200 JUMP JUMPDEST PUSH1 0x40 MLOAD DUP1 SWAP2 SUB SWAP1 LOG4 PUSH2 0xF0C DUP3 DUP9 DUP9 DUP9 DUP9 DUP9 PUSH2 0x1244 JUMP JUMPDEST POP POP POP POP POP POP POP JUMP JUMPDEST PUSH1 0x60 PUSH1 0x40 MLOAD DUP1 PUSH1 0x20 ADD PUSH1 0x40 MSTORE DUP1 PUSH0 DUP2 MSTORE POP SWAP1 POP SWAP1 JUMP JUMPDEST PUSH1 0x60 PUSH0 DUP3 SUB PUSH2 0xF71 JUMPI PUSH1 0x40 MLOAD DUP1 PUSH1 0x40 ADD PUSH1 0x40 MSTORE DUP1 PUSH1 0x1 DUP2 MSTORE PUSH1 0x20 ADD PUSH32 0x3000000000000000000000000000000000000000000000000000000000000000 DUP2 MSTORE POP SWAP1 POP PUSH2 0x107F JUMP JUMPDEST PUSH0 DUP3 SWAP1 POP PUSH0 JUMPDEST PUSH0 DUP3 EQ PUSH2 0xFA0 JUMPI DUP1 DUP1 PUSH2 0xF89 SWAP1 PUSH2 0x2227 JUMP JUMPDEST SWAP2 POP POP PUSH1 0xA DUP3 PUSH2 0xF99 SWAP2 SWAP1 PUSH2 0x229B JUMP JUMPDEST SWAP2 POP PUSH2 0xF77 JUMP JUMPDEST PUSH0 DUP2 PUSH8 0xFFFFFFFFFFFFFFFF DUP2 GT ISZERO PUSH2 0xFBB JUMPI PUSH2 0xFBA PUSH2 0x16A5 JUMP JUMPDEST JUMPDEST PUSH1 0x40 MLOAD SWAP1 DUP1 DUP3 MSTORE DUP1 PUSH1 0x1F ADD PUSH1 0x1F NOT AND PUSH1 0x20 ADD DUP3 ADD PUSH1 0x40 MSTORE DUP1 ISZERO PUSH2 0xFED JUMPI DUP2 PUSH1 0x20 ADD PUSH1 0x1 DUP3 MUL DUP1 CALLDATASIZE DUP4 CALLDATACOPY DUP1 DUP3 ADD SWAP2 POP POP SWAP1 POP JUMPDEST POP SWAP1 POP JUMPDEST PUSH0 DUP6 EQ PUSH2 0x1078 JUMPI PUSH1 0x1 DUP3 PUSH2 0x1005 SWAP2 SWAP1 PUSH2 0x22CB JUMP JUMPDEST SWAP2 POP PUSH1 0xA DUP6 PUSH2 0x1014 SWAP2 SWAP1 PUSH2 0x22FE JUMP JUMPDEST PUSH1 0x30 PUSH2 0x1020 SWAP2 SWAP1 PUSH2 0x207C JUMP JUMPDEST PUSH1 0xF8 SHL DUP2 DUP4 DUP2 MLOAD DUP2 LT PUSH2 0x1036 JUMPI PUSH2 0x1035 PUSH2 0x1F94 JUMP JUMPDEST JUMPDEST PUSH1 0x20 ADD ADD SWAP1 PUSH31 0xFFFFFFFFFFFFFFFFFFFFFFFFFFFFFFFFFFFFFFFFFFFFFFFFFFFFFFFFFFFFFF NOT AND SWAP1 DUP2 PUSH0 BYTE SWAP1 MSTORE8 POP PUSH1 0xA DUP6 PUSH2 0x1071 SWAP2 SWAP1 PUSH2 0x229B JUMP JUMPDEST SWAP5 POP PUSH2 0xFF1 JUMP JUMPDEST DUP1 SWAP4 POP POP POP POP JUMPDEST SWAP2 SWAP1 POP JUMP JUMPDEST PUSH2 0x108D DUP5 PUSH2 0x53E JUMP JUMPDEST ISZERO PUSH2 0x123C JUMPI DUP4 PUSH20 0xFFFFFFFFFFFFFFFFFFFFFFFFFFFFFFFFFFFFFFFF AND PUSH4 0xBC197C81 DUP8 DUP8 DUP7 DUP7 DUP7 PUSH1 0x40 MLOAD DUP7 PUSH4 0xFFFFFFFF AND PUSH1 0xE0 SHL DUP2 MSTORE PUSH1 0x4 ADD PUSH2 0x10D3 SWAP6 SWAP5 SWAP4 SWAP3 SWAP2 SWAP1 PUSH2 0x238F JUMP JUMPDEST PUSH1 0x20 PUSH1 0x40 MLOAD DUP1 DUP4 SUB DUP2 PUSH0 DUP8 GAS CALL SWAP3 POP POP POP DUP1 ISZERO PUSH2 0x110E JUMPI POP PUSH1 0x40 MLOAD RETURNDATASIZE PUSH1 0x1F NOT PUSH1 0x1F DUP3 ADD AND DUP3 ADD DUP1 PUSH1 0x40 MSTORE POP DUP2 ADD SWAP1 PUSH2 0x110B SWAP2 SWAP1 PUSH2 0x2409 JUMP JUMPDEST PUSH1 0x1 JUMPDEST PUSH2 0x11B3 JUMPI PUSH2 0x111A PUSH2 0x2440 JUMP JUMPDEST DUP1 PUSH4 0x8C379A0 SUB PUSH2 0x1176 JUMPI POP PUSH2 0x112E PUSH2 0x245F JUMP JUMPDEST DUP1 PUSH2 0x1139 JUMPI POP PUSH2 0x1178 JUMP JUMPDEST DUP1 PUSH1 0x40 MLOAD PUSH32 0x8C379A000000000000000000000000000000000000000000000000000000000 DUP2 MSTORE PUSH1 0x4 ADD PUSH2 0x116D SWAP2 SWAP1 PUSH2 0x162B JUMP JUMPDEST PUSH1 0x40 MLOAD DUP1 SWAP2 SUB SWAP1 REVERT JUMPDEST POP JUMPDEST PUSH1 0x40 MLOAD PUSH32 0x8C379A000000000000000000000000000000000000000000000000000000000 DUP2 MSTORE PUSH1 0x4 ADD PUSH2 0x11AA SWAP1 PUSH2 0x255E JUMP JUMPDEST PUSH1 0x40 MLOAD DUP1 SWAP2 SUB SWAP1 REVERT JUMPDEST PUSH4 0xBC197C81 PUSH1 0xE0 SHL PUSH28 0xFFFFFFFFFFFFFFFFFFFFFFFFFFFFFFFFFFFFFFFFFFFFFFFFFFFFFFFF NOT AND DUP2 PUSH28 0xFFFFFFFFFFFFFFFFFFFFFFFFFFFFFFFFFFFFFFFFFFFFFFFFFFFFFFFF NOT AND EQ PUSH2 0x123A JUMPI PUSH1 0x40 MLOAD PUSH32 0x8C379A000000000000000000000000000000000000000000000000000000000 DUP2 MSTORE PUSH1 0x4 ADD PUSH2 0x1231 SWAP1 PUSH2 0x25EC JUMP JUMPDEST PUSH1 0x40 MLOAD DUP1 SWAP2 SUB SWAP1 REVERT JUMPDEST POP JUMPDEST POP POP POP POP POP POP JUMP JUMPDEST PUSH2 0x124D DUP5 PUSH2 0x53E JUMP JUMPDEST ISZERO PUSH2 0x13FC JUMPI DUP4 PUSH20 0xFFFFFFFFFFFFFFFFFFFFFFFFFFFFFFFFFFFFFFFF AND PUSH4 0xF23A6E61 DUP8 DUP8 DUP7 DUP7 DUP7 PUSH1 0x40 MLOAD DUP7 PUSH4 0xFFFFFFFF AND PUSH1 0xE0 SHL DUP2 MSTORE PUSH1 0x4 ADD PUSH2 0x1293 SWAP6 SWAP5 SWAP4 SWAP3 SWAP2 SWAP1 PUSH2 0x260A JUMP JUMPDEST PUSH1 0x20 PUSH1 0x40 MLOAD DUP1 DUP4 SUB DUP2 PUSH0 DUP8 GAS CALL SWAP3 POP POP POP DUP1 ISZERO PUSH2 0x12CE JUMPI POP PUSH1 0x40 MLOAD RETURNDATASIZE PUSH1 0x1F NOT PUSH1 0x1F DUP3 ADD AND DUP3 ADD DUP1 PUSH1 0x40 MSTORE POP DUP2 ADD SWAP1 PUSH2 0x12CB SWAP2 SWAP1 PUSH2 0x2409 JUMP JUMPDEST PUSH1 0x1 JUMPDEST PUSH2 0x1373 JUMPI PUSH2 0x12DA PUSH2 0x2440 JUMP JUMPDEST DUP1 PUSH4 0x8C379A0 SUB PUSH2 0x1336 JUMPI POP PUSH2 0x12EE PUSH2 0x245F JUMP JUMPDEST DUP1 PUSH2 0x12F9 JUMPI POP PUSH2 0x1338 JUMP JUMPDEST DUP1 PUSH1 0x40 MLOAD PUSH32 0x8C379A000000000000000000000000000000000000000000000000000000000 DUP2 MSTORE PUSH1 0x4 ADD PUSH2 0x132D SWAP2 SWAP1 PUSH2 0x162B JUMP JUMPDEST PUSH1 0x40 MLOAD DUP1 SWAP2 SUB SWAP1 REVERT JUMPDEST POP JUMPDEST PUSH1 0x40 MLOAD PUSH32 0x8C379A000000000000000000000000000000000000000000000000000000000 DUP2 MSTORE PUSH1 0x4 ADD PUSH2 0x136A SWAP1 PUSH2 0x255E JUMP JUMPDEST PUSH1 0x40 MLOAD DUP1 SWAP2 SUB SWAP1 REVERT JUMPDEST PUSH4 0xF23A6E61 PUSH1 0xE0 SHL PUSH28 0xFFFFFFFFFFFFFFFFFFFFFFFFFFFFFFFFFFFFFFFFFFFFFFFFFFFFFFFF NOT AND DUP2 PUSH28 0xFFFFFFFFFFFFFFFFFFFFFFFFFFFFFFFFFFFFFFFFFFFFFFFFFFFFFFFF NOT AND EQ PUSH2 0x13FA JUMPI PUSH1 0x40 MLOAD PUSH32 0x8C379A000000000000000000000000000000000000000000000000000000000 DUP2 MSTORE PUSH1 0x4 ADD PUSH2 0x13F1 SWAP1 PUSH2 0x25EC JUMP JUMPDEST PUSH1 0x40 MLOAD DUP1 SWAP2 SUB SWAP1 REVERT JUMPDEST POP JUMPDEST POP POP POP POP POP POP JUMP JUMPDEST PUSH0 PUSH1 0x40 MLOAD SWAP1 POP SWAP1 JUMP JUMPDEST PUSH0 DUP1 REVERT JUMPDEST PUSH0 DUP1 REVERT JUMPDEST PUSH0 PUSH20 0xFFFFFFFFFFFFFFFFFFFFFFFFFFFFFFFFFFFFFFFF DUP3 AND SWAP1 POP SWAP2 SWAP1 POP JUMP JUMPDEST PUSH0 PUSH2 0x143E DUP3 PUSH2 0x1415 JUMP JUMPDEST SWAP1 POP SWAP2 SWAP1 POP JUMP JUMPDEST PUSH2 0x144E DUP2 PUSH2 0x1434 JUMP JUMPDEST DUP2 EQ PUSH2 0x1458 JUMPI PUSH0 DUP1 REVERT JUMPDEST POP JUMP JUMPDEST PUSH0 DUP2 CALLDATALOAD SWAP1 POP PUSH2 0x1469 DUP2 PUSH2 0x1445 JUMP JUMPDEST SWAP3 SWAP2 POP POP JUMP JUMPDEST PUSH0 DUP2 SWAP1 POP SWAP2 SWAP1 POP JUMP JUMPDEST PUSH2 0x1481 DUP2 PUSH2 0x146F JUMP JUMPDEST DUP2 EQ PUSH2 0x148B JUMPI PUSH0 DUP1 REVERT JUMPDEST POP JUMP JUMPDEST PUSH0 DUP2 CALLDATALOAD SWAP1 POP PUSH2 0x149C DUP2 PUSH2 0x1478 JUMP JUMPDEST SWAP3 SWAP2 POP POP JUMP JUMPDEST PUSH0 DUP1 PUSH1 0x40 DUP4 DUP6 SUB SLT ISZERO PUSH2 0x14B8 JUMPI PUSH2 0x14B7 PUSH2 0x140D JUMP JUMPDEST JUMPDEST PUSH0 PUSH2 0x14C5 DUP6 DUP3 DUP7 ADD PUSH2 0x145B JUMP JUMPDEST SWAP3 POP POP PUSH1 0x20 PUSH2 0x14D6 DUP6 DUP3 DUP7 ADD PUSH2 0x148E JUMP JUMPDEST SWAP2 POP POP SWAP3 POP SWAP3 SWAP1 POP JUMP JUMPDEST PUSH2 0x14E9 DUP2 PUSH2 0x146F JUMP JUMPDEST DUP3 MSTORE POP POP JUMP JUMPDEST PUSH0 PUSH1 0x20 DUP3 ADD SWAP1 POP PUSH2 0x1502 PUSH0 DUP4 ADD DUP5 PUSH2 0x14E0 JUMP JUMPDEST SWAP3 SWAP2 POP POP JUMP JUMPDEST PUSH0 PUSH32 0xFFFFFFFF00000000000000000000000000000000000000000000000000000000 DUP3 AND SWAP1 POP SWAP2 SWAP1 POP JUMP JUMPDEST PUSH2 0x153C DUP2 PUSH2 0x1508 JUMP JUMPDEST DUP2 EQ PUSH2 0x1546 JUMPI PUSH0 DUP1 REVERT JUMPDEST POP JUMP JUMPDEST PUSH0 DUP2 CALLDATALOAD SWAP1 POP PUSH2 0x1557 DUP2 PUSH2 0x1533 JUMP JUMPDEST SWAP3 SWAP2 POP POP JUMP JUMPDEST PUSH0 PUSH1 0x20 DUP3 DUP5 SUB SLT ISZERO PUSH2 0x1572 JUMPI PUSH2 0x1571 PUSH2 0x140D JUMP JUMPDEST JUMPDEST PUSH0 PUSH2 0x157F DUP5 DUP3 DUP6 ADD PUSH2 0x1549 JUMP JUMPDEST SWAP2 POP POP SWAP3 SWAP2 POP POP JUMP JUMPDEST PUSH0 DUP2 ISZERO ISZERO SWAP1 POP SWAP2 SWAP1 POP JUMP JUMPDEST PUSH2 0x159C DUP2 PUSH2 0x1588 JUMP JUMPDEST DUP3 MSTORE POP POP JUMP JUMPDEST PUSH0 PUSH1 0x20 DUP3 ADD SWAP1 POP PUSH2 0x15B5 PUSH0 DUP4 ADD DUP5 PUSH2 0x1593 JUMP JUMPDEST SWAP3 SWAP2 POP POP JUMP JUMPDEST PUSH0 DUP2 MLOAD SWAP1 POP SWAP2 SWAP1 POP JUMP JUMPDEST PUSH0 DUP3 DUP3 MSTORE PUSH1 0x20 DUP3 ADD SWAP1 POP SWAP3 SWAP2 POP POP JUMP JUMPDEST DUP3 DUP2 DUP4 MCOPY PUSH0 DUP4 DUP4 ADD MSTORE POP POP POP JUMP JUMPDEST PUSH0 PUSH1 0x1F NOT PUSH1 0x1F DUP4 ADD AND SWAP1 POP SWAP2 SWAP1 POP JUMP JUMPDEST PUSH0 PUSH2 0x15FD DUP3 PUSH2 0x15BB JUMP JUMPDEST PUSH2 0x1607 DUP2 DUP6 PUSH2 0x15C5 JUMP JUMPDEST SWAP4 POP PUSH2 0x1617 DUP2 DUP6 PUSH1 0x20 DUP7 ADD PUSH2 0x15D5 JUMP JUMPDEST PUSH2 0x1620 DUP2 PUSH2 0x15E3 JUMP JUMPDEST DUP5 ADD SWAP2 POP POP SWAP3 SWAP2 POP POP JUMP JUMPDEST PUSH0 PUSH1 0x20 DUP3 ADD SWAP1 POP DUP2 DUP2 SUB PUSH0 DUP4 ADD MSTORE PUSH2 0x1643 DUP2 DUP5 PUSH2 0x15F3 JUMP JUMPDEST SWAP1 POP SWAP3 SWAP2 POP POP JUMP JUMPDEST PUSH0 PUSH1 0x20 DUP3 DUP5 SUB SLT ISZERO PUSH2 0x1660 JUMPI PUSH2 0x165F PUSH2 0x140D JUMP JUMPDEST JUMPDEST PUSH0 PUSH2 0x166D DUP5 DUP3 DUP6 ADD PUSH2 0x148E JUMP JUMPDEST SWAP2 POP POP SWAP3 SWAP2 POP POP JUMP JUMPDEST PUSH0 PUSH1 0x20 DUP3 DUP5 SUB SLT ISZERO PUSH2 0x168B JUMPI PUSH2 0x168A PUSH2 0x140D JUMP JUMPDEST JUMPDEST PUSH0 PUSH2 0x1698 DUP5 DUP3 DUP6 ADD PUSH2 0x145B JUMP JUMPDEST SWAP2 POP POP SWAP3 SWAP2 POP POP JUMP JUMPDEST PUSH0 DUP1 REVERT JUMPDEST PUSH32 0x4E487B7100000000000000000000000000000000000000000000000000000000 PUSH0 MSTORE PUSH1 0x41 PUSH1 0x4 MSTORE PUSH1 0x24 PUSH0 REVERT JUMPDEST PUSH2 0x16DB DUP3 PUSH2 0x15E3 JUMP JUMPDEST DUP2 ADD DUP2 DUP2 LT PUSH8 0xFFFFFFFFFFFFFFFF DUP3 GT OR ISZERO PUSH2 0x16FA JUMPI PUSH2 0x16F9 PUSH2 0x16A5 JUMP JUMPDEST JUMPDEST DUP1 PUSH1 0x40 MSTORE POP POP POP JUMP JUMPDEST PUSH0 PUSH2 0x170C PUSH2 0x1404 JUMP JUMPDEST SWAP1 POP PUSH2 0x1718 DUP3 DUP3 PUSH2 0x16D2 JUMP JUMPDEST SWAP2 SWAP1 POP JUMP JUMPDEST PUSH0 PUSH8 0xFFFFFFFFFFFFFFFF DUP3 GT ISZERO PUSH2 0x1737 JUMPI PUSH2 0x1736 PUSH2 0x16A5 JUMP JUMPDEST JUMPDEST PUSH1 0x20 DUP3 MUL SWAP1 POP PUSH1 0x20 DUP2 ADD SWAP1 POP SWAP2 SWAP1 POP JUMP JUMPDEST PUSH0 DUP1 REVERT JUMPDEST PUSH0 PUSH2 0x175E PUSH2 0x1759 DUP5 PUSH2 0x171D JUMP JUMPDEST PUSH2 0x1703 JUMP JUMPDEST SWAP1 POP DUP1 DUP4 DUP3 MSTORE PUSH1 0x20 DUP3 ADD SWAP1 POP PUSH1 0x20 DUP5 MUL DUP4 ADD DUP6 DUP2 GT ISZERO PUSH2 0x1781 JUMPI PUSH2 0x1780 PUSH2 0x1748 JUMP JUMPDEST JUMPDEST DUP4 JUMPDEST DUP2 DUP2 LT ISZERO PUSH2 0x17AA JUMPI DUP1 PUSH2 0x1796 DUP9 DUP3 PUSH2 0x148E JUMP JUMPDEST DUP5 MSTORE PUSH1 0x20 DUP5 ADD SWAP4 POP POP PUSH1 0x20 DUP2 ADD SWAP1 POP PUSH2 0x1783 JUMP JUMPDEST POP POP POP SWAP4 SWAP3 POP POP POP JUMP JUMPDEST PUSH0 DUP3 PUSH1 0x1F DUP4 ADD SLT PUSH2 0x17C8 JUMPI PUSH2 0x17C7 PUSH2 0x16A1 JUMP JUMPDEST JUMPDEST DUP2 CALLDATALOAD PUSH2 0x17D8 DUP5 DUP3 PUSH1 0x20 DUP7 ADD PUSH2 0x174C JUMP JUMPDEST SWAP2 POP POP SWAP3 SWAP2 POP POP JUMP JUMPDEST PUSH0 DUP1 REVERT JUMPDEST PUSH0 PUSH8 0xFFFFFFFFFFFFFFFF DUP3 GT ISZERO PUSH2 0x17FF JUMPI PUSH2 0x17FE PUSH2 0x16A5 JUMP JUMPDEST JUMPDEST PUSH2 0x1808 DUP3 PUSH2 0x15E3 JUMP JUMPDEST SWAP1 POP PUSH1 0x20 DUP2 ADD SWAP1 POP SWAP2 SWAP1 POP JUMP JUMPDEST DUP3 DUP2 DUP4 CALLDATACOPY PUSH0 DUP4 DUP4 ADD MSTORE POP POP POP JUMP JUMPDEST PUSH0 PUSH2 0x1835 PUSH2 0x1830 DUP5 PUSH2 0x17E5 JUMP JUMPDEST PUSH2 0x1703 JUMP JUMPDEST SWAP1 POP DUP3 DUP2 MSTORE PUSH1 0x20 DUP2 ADD DUP5 DUP5 DUP5 ADD GT ISZERO PUSH2 0x1851 JUMPI PUSH2 0x1850 PUSH2 0x17E1 JUMP JUMPDEST JUMPDEST PUSH2 0x185C DUP5 DUP3 DUP6 PUSH2 0x1815 JUMP JUMPDEST POP SWAP4 SWAP3 POP POP POP JUMP JUMPDEST PUSH0 DUP3 PUSH1 0x1F DUP4 ADD SLT PUSH2 0x1878 JUMPI PUSH2 0x1877 PUSH2 0x16A1 JUMP JUMPDEST JUMPDEST DUP2 CALLDATALOAD PUSH2 0x1888 DUP5 DUP3 PUSH1 0x20 DUP7 ADD PUSH2 0x1823 JUMP JUMPDEST SWAP2 POP POP SWAP3 SWAP2 POP POP JUMP JUMPDEST PUSH0 DUP1 PUSH0 DUP1 PUSH0 PUSH1 0xA0 DUP7 DUP9 SUB SLT ISZERO PUSH2 0x18AA JUMPI PUSH2 0x18A9 PUSH2 0x140D JUMP JUMPDEST JUMPDEST PUSH0 PUSH2 0x18B7 DUP9 DUP3 DUP10 ADD PUSH2 0x145B JUMP JUMPDEST SWAP6 POP POP PUSH1 0x20 PUSH2 0x18C8 DUP9 DUP3 DUP10 ADD PUSH2 0x145B JUMP JUMPDEST SWAP5 POP POP PUSH1 0x40 DUP7 ADD CALLDATALOAD PUSH8 0xFFFFFFFFFFFFFFFF DUP2 GT ISZERO PUSH2 0x18E9 JUMPI PUSH2 0x18E8 PUSH2 0x1411 JUMP JUMPDEST JUMPDEST PUSH2 0x18F5 DUP9 DUP3 DUP10 ADD PUSH2 0x17B4 JUMP JUMPDEST SWAP4 POP POP PUSH1 0x60 DUP7 ADD CALLDATALOAD PUSH8 0xFFFFFFFFFFFFFFFF DUP2 GT ISZERO PUSH2 0x1916 JUMPI PUSH2 0x1915 PUSH2 0x1411 JUMP JUMPDEST JUMPDEST PUSH2 0x1922 DUP9 DUP3 DUP10 ADD PUSH2 0x17B4 JUMP JUMPDEST SWAP3 POP POP PUSH1 0x80 DUP7 ADD CALLDATALOAD PUSH8 0xFFFFFFFFFFFFFFFF DUP2 GT ISZERO PUSH2 0x1943 JUMPI PUSH2 0x1942 PUSH2 0x1411 JUMP JUMPDEST JUMPDEST PUSH2 0x194F DUP9 DUP3 DUP10 ADD PUSH2 0x1864 JUMP JUMPDEST SWAP2 POP POP SWAP3 SWAP6 POP SWAP3 SWAP6 SWAP1 SWAP4 POP JUMP JUMPDEST PUSH0 PUSH8 0xFFFFFFFFFFFFFFFF DUP3 GT ISZERO PUSH2 0x1976 JUMPI PUSH2 0x1975 PUSH2 0x16A5 JUMP JUMPDEST JUMPDEST PUSH1 0x20 DUP3 MUL SWAP1 POP PUSH1 0x20 DUP2 ADD SWAP1 POP SWAP2 SWAP1 POP JUMP JUMPDEST PUSH0 PUSH2 0x1999 PUSH2 0x1994 DUP5 PUSH2 0x195C JUMP JUMPDEST PUSH2 0x1703 JUMP JUMPDEST SWAP1 POP DUP1 DUP4 DUP3 MSTORE PUSH1 0x20 DUP3 ADD SWAP1 POP PUSH1 0x20 DUP5 MUL DUP4 ADD DUP6 DUP2 GT ISZERO PUSH2 0x19BC JUMPI PUSH2 0x19BB PUSH2 0x1748 JUMP JUMPDEST JUMPDEST DUP4 JUMPDEST DUP2 DUP2 LT ISZERO PUSH2 0x19E5 JUMPI DUP1 PUSH2 0x19D1 DUP9 DUP3 PUSH2 0x145B JUMP JUMPDEST DUP5 MSTORE PUSH1 0x20 DUP5 ADD SWAP4 POP POP PUSH1 0x20 DUP2 ADD SWAP1 POP PUSH2 0x19BE JUMP JUMPDEST POP POP POP SWAP4 SWAP3 POP POP POP JUMP JUMPDEST PUSH0 DUP3 PUSH1 0x1F DUP4 ADD SLT PUSH2 0x1A03 JUMPI PUSH2 0x1A02 PUSH2 0x16A1 JUMP JUMPDEST JUMPDEST DUP2 CALLDATALOAD PUSH2 0x1A13 DUP5 DUP3 PUSH1 0x20 DUP7 ADD PUSH2 0x1987 JUMP JUMPDEST SWAP2 POP POP SWAP3 SWAP2 POP POP JUMP JUMPDEST PUSH0 DUP1 PUSH1 0x40 DUP4 DUP6 SUB SLT ISZERO PUSH2 0x1A32 JUMPI PUSH2 0x1A31 PUSH2 0x140D JUMP JUMPDEST JUMPDEST PUSH0 DUP4 ADD CALLDATALOAD PUSH8 0xFFFFFFFFFFFFFFFF DUP2 GT ISZERO PUSH2 0x1A4F JUMPI PUSH2 0x1A4E PUSH2 0x1411 JUMP JUMPDEST JUMPDEST PUSH2 0x1A5B DUP6 DUP3 DUP7 ADD PUSH2 0x19EF JUMP JUMPDEST SWAP3 POP POP PUSH1 0x20 DUP4 ADD CALLDATALOAD PUSH8 0xFFFFFFFFFFFFFFFF DUP2 GT ISZERO PUSH2 0x1A7C JUMPI PUSH2 0x1A7B PUSH2 0x1411 JUMP JUMPDEST JUMPDEST PUSH2 0x1A88 DUP6 DUP3 DUP7 ADD PUSH2 0x17B4 JUMP JUMPDEST SWAP2 POP POP SWAP3 POP SWAP3 SWAP1 POP JUMP JUMPDEST PUSH0 DUP2 MLOAD SWAP1 POP SWAP2 SWAP1 POP JUMP JUMPDEST PUSH0 DUP3 DUP3 MSTORE PUSH1 0x20 DUP3 ADD SWAP1 POP SWAP3 SWAP2 POP POP JUMP JUMPDEST PUSH0 DUP2 SWAP1 POP PUSH1 0x20 DUP3 ADD SWAP1 POP SWAP2 SWAP1 POP JUMP JUMPDEST PUSH2 0x1AC4 DUP2 PUSH2 0x146F JUMP JUMPDEST DUP3 MSTORE POP POP JUMP JUMPDEST PUSH0 PUSH2 0x1AD5 DUP4 DUP4 PUSH2 0x1ABB JUMP JUMPDEST PUSH1 0x20 DUP4 ADD SWAP1 POP SWAP3 SWAP2 POP POP JUMP JUMPDEST PUSH0 PUSH1 0x20 DUP3 ADD SWAP1 POP SWAP2 SWAP1 POP JUMP JUMPDEST PUSH0 PUSH2 0x1AF7 DUP3 PUSH2 0x1A92 JUMP JUMPDEST PUSH2 0x1B01 DUP2 DUP6 PUSH2 0x1A9C JUMP JUMPDEST SWAP4 POP PUSH2 0x1B0C DUP4 PUSH2 0x1AAC JUMP JUMPDEST DUP1 PUSH0 JUMPDEST DUP4 DUP2 LT ISZERO PUSH2 0x1B3C JUMPI DUP2 MLOAD PUSH2 0x1B23 DUP9 DUP3 PUSH2 0x1ACA JUMP JUMPDEST SWAP8 POP PUSH2 0x1B2E DUP4 PUSH2 0x1AE1 JUMP JUMPDEST SWAP3 POP POP PUSH1 0x1 DUP2 ADD SWAP1 POP PUSH2 0x1B0F JUMP JUMPDEST POP DUP6 SWAP4 POP POP POP POP SWAP3 SWAP2 POP POP JUMP JUMPDEST PUSH0 PUSH1 0x20 DUP3 ADD SWAP1 POP DUP2 DUP2 SUB PUSH0 DUP4 ADD MSTORE PUSH2 0x1B61 DUP2 DUP5 PUSH2 0x1AED JUMP JUMPDEST SWAP1 POP SWAP3 SWAP2 POP POP JUMP JUMPDEST PUSH2 0x1B72 DUP2 PUSH2 0x1588 JUMP JUMPDEST DUP2 EQ PUSH2 0x1B7C JUMPI PUSH0 DUP1 REVERT JUMPDEST POP JUMP JUMPDEST PUSH0 DUP2 CALLDATALOAD SWAP1 POP PUSH2 0x1B8D DUP2 PUSH2 0x1B69 JUMP JUMPDEST SWAP3 SWAP2 POP POP JUMP JUMPDEST PUSH0 DUP1 PUSH1 0x40 DUP4 DUP6 SUB SLT ISZERO PUSH2 0x1BA9 JUMPI PUSH2 0x1BA8 PUSH2 0x140D JUMP JUMPDEST JUMPDEST PUSH0 PUSH2 0x1BB6 DUP6 DUP3 DUP7 ADD PUSH2 0x145B JUMP JUMPDEST SWAP3 POP POP PUSH1 0x20 PUSH2 0x1BC7 DUP6 DUP3 DUP7 ADD PUSH2 0x1B7F JUMP JUMPDEST SWAP2 POP POP SWAP3 POP SWAP3 SWAP1 POP JUMP JUMPDEST PUSH0 DUP1 PUSH1 0x40 DUP4 DUP6 SUB SLT ISZERO PUSH2 0x1BE7 JUMPI PUSH2 0x1BE6 PUSH2 0x140D JUMP JUMPDEST JUMPDEST PUSH0 PUSH2 0x1BF4 DUP6 DUP3 DUP7 ADD PUSH2 0x145B JUMP JUMPDEST SWAP3 POP POP PUSH1 0x20 PUSH2 0x1C05 DUP6 DUP3 DUP7 ADD PUSH2 0x145B JUMP JUMPDEST SWAP2 POP POP SWAP3 POP SWAP3 SWAP1 POP JUMP JUMPDEST PUSH0 DUP1 PUSH0 DUP1 PUSH0 PUSH1 0xA0 DUP7 DUP9 SUB SLT ISZERO PUSH2 0x1C28 JUMPI PUSH2 0x1C27 PUSH2 0x140D JUMP JUMPDEST JUMPDEST PUSH0 PUSH2 0x1C35 DUP9 DUP3 DUP10 ADD PUSH2 0x145B JUMP JUMPDEST SWAP6 POP POP PUSH1 0x20 PUSH2 0x1C46 DUP9 DUP3 DUP10 ADD PUSH2 0x145B JUMP JUMPDEST SWAP5 POP POP PUSH1 0x40 PUSH2 0x1C57 DUP9 DUP3 DUP10 ADD PUSH2 0x148E JUMP JUMPDEST SWAP4 POP POP PUSH1 0x60 PUSH2 0x1C68 DUP9 DUP3 DUP10 ADD PUSH2 0x148E JUMP JUMPDEST SWAP3 POP POP PUSH1 0x80 DUP7 ADD CALLDATALOAD PUSH8 0xFFFFFFFFFFFFFFFF DUP2 GT ISZERO PUSH2 0x1C89 JUMPI PUSH2 0x1C88 PUSH2 0x1411 JUMP JUMPDEST JUMPDEST PUSH2 0x1C95 DUP9 DUP3 DUP10 ADD PUSH2 0x1864 JUMP JUMPDEST SWAP2 POP POP SWAP3 SWAP6 POP SWAP3 SWAP6 SWAP1 SWAP4 POP JUMP JUMPDEST PUSH32 0x455243313135353A2061646472657373207A65726F206973206E6F7420612076 PUSH0 DUP3 ADD MSTORE PUSH32 0x616C6964206F776E657200000000000000000000000000000000000000000000 PUSH1 0x20 DUP3 ADD MSTORE POP JUMP JUMPDEST PUSH0 PUSH2 0x1CFC PUSH1 0x2A DUP4 PUSH2 0x15C5 JUMP JUMPDEST SWAP2 POP PUSH2 0x1D07 DUP3 PUSH2 0x1CA2 JUMP JUMPDEST PUSH1 0x40 DUP3 ADD SWAP1 POP SWAP2 SWAP1 POP JUMP JUMPDEST PUSH0 PUSH1 0x20 DUP3 ADD SWAP1 POP DUP2 DUP2 SUB PUSH0 DUP4 ADD MSTORE PUSH2 0x1D29 DUP2 PUSH2 0x1CF0 JUMP JUMPDEST SWAP1 POP SWAP2 SWAP1 POP JUMP JUMPDEST PUSH32 0x4E487B7100000000000000000000000000000000000000000000000000000000 PUSH0 MSTORE PUSH1 0x22 PUSH1 0x4 MSTORE PUSH1 0x24 PUSH0 REVERT JUMPDEST PUSH0 PUSH1 0x2 DUP3 DIV SWAP1 POP PUSH1 0x1 DUP3 AND DUP1 PUSH2 0x1D74 JUMPI PUSH1 0x7F DUP3 AND SWAP2 POP JUMPDEST PUSH1 0x20 DUP3 LT DUP2 SUB PUSH2 0x1D87 JUMPI PUSH2 0x1D86 PUSH2 0x1D30 JUMP JUMPDEST JUMPDEST POP SWAP2 SWAP1 POP JUMP JUMPDEST PUSH0 DUP2 SWAP1 POP SWAP3 SWAP2 POP POP JUMP JUMPDEST PUSH0 PUSH2 0x1DA1 DUP3 PUSH2 0x15BB JUMP JUMPDEST PUSH2 0x1DAB DUP2 DUP6 PUSH2 0x1D8D JUMP JUMPDEST SWAP4 POP PUSH2 0x1DBB DUP2 DUP6 PUSH1 0x20 DUP7 ADD PUSH2 0x15D5 JUMP JUMPDEST DUP1 DUP5 ADD SWAP2 POP POP SWAP3 SWAP2 POP POP JUMP JUMPDEST PUSH0 PUSH2 0x1DD2 DUP3 DUP6 PUSH2 0x1D97 JUMP JUMPDEST SWAP2 POP PUSH2 0x1DDE DUP3 DUP5 PUSH2 0x1D97 JUMP JUMPDEST SWAP2 POP DUP2 SWAP1 POP SWAP4 SWAP3 POP POP POP JUMP JUMPDEST PUSH32 0x455243313135353A2063616C6C6572206973206E6F7420746F6B656E206F776E PUSH0 DUP3 ADD MSTORE PUSH32 0x6572206E6F7220617070726F7665640000000000000000000000000000000000 PUSH1 0x20 DUP3 ADD MSTORE POP JUMP JUMPDEST PUSH0 PUSH2 0x1E44 PUSH1 0x2F DUP4 PUSH2 0x15C5 JUMP JUMPDEST SWAP2 POP PUSH2 0x1E4F DUP3 PUSH2 0x1DEA JUMP JUMPDEST PUSH1 0x40 DUP3 ADD SWAP1 POP SWAP2 SWAP1 POP JUMP JUMPDEST PUSH0 PUSH1 0x20 DUP3 ADD SWAP1 POP DUP2 DUP2 SUB PUSH0 DUP4 ADD MSTORE PUSH2 0x1E71 DUP2 PUSH2 0x1E38 JUMP JUMPDEST SWAP1 POP SWAP2 SWAP1 POP JUMP JUMPDEST PUSH32 0x455243313135353A2069647320616E6420616D6F756E7473206C656E67746820 PUSH0 DUP3 ADD MSTORE PUSH32 0x6D69736D61746368000000000000000000000000000000000000000000000000 PUSH1 0x20 DUP3 ADD MSTORE POP JUMP JUMPDEST PUSH0 PUSH2 0x1ED2 PUSH1 0x28 DUP4 PUSH2 0x15C5 JUMP JUMPDEST SWAP2 POP PUSH2 0x1EDD DUP3 PUSH2 0x1E78 JUMP JUMPDEST PUSH1 0x40 DUP3 ADD SWAP1 POP SWAP2 SWAP1 POP JUMP JUMPDEST PUSH0 PUSH1 0x20 DUP3 ADD SWAP1 POP DUP2 DUP2 SUB PUSH0 DUP4 ADD MSTORE PUSH2 0x1EFF DUP2 PUSH2 0x1EC6 JUMP JUMPDEST SWAP1 POP SWAP2 SWAP1 POP JUMP JUMPDEST PUSH32 0x455243313135353A207472616E7366657220746F20746865207A65726F206164 PUSH0 DUP3 ADD MSTORE PUSH32 0x6472657373000000000000000000000000000000000000000000000000000000 PUSH1 0x20 DUP3 ADD MSTORE POP JUMP JUMPDEST PUSH0 PUSH2 0x1F60 PUSH1 0x25 DUP4 PUSH2 0x15C5 JUMP JUMPDEST SWAP2 POP PUSH2 0x1F6B DUP3 PUSH2 0x1F06 JUMP JUMPDEST PUSH1 0x40 DUP3 ADD SWAP1 POP SWAP2 SWAP1 POP JUMP JUMPDEST PUSH0 PUSH1 0x20 DUP3 ADD SWAP1 POP DUP2 DUP2 SUB PUSH0 DUP4 ADD MSTORE PUSH2 0x1F8D DUP2 PUSH2 0x1F54 JUMP JUMPDEST SWAP1 POP SWAP2 SWAP1 POP JUMP JUMPDEST PUSH32 0x4E487B7100000000000000000000000000000000000000000000000000000000 PUSH0 MSTORE PUSH1 0x32 PUSH1 0x4 MSTORE PUSH1 0x24 PUSH0 REVERT JUMPDEST PUSH32 0x455243313135353A20696E73756666696369656E742062616C616E636520666F PUSH0 DUP3 ADD MSTORE PUSH32 0x72207472616E7366657200000000000000000000000000000000000000000000 PUSH1 0x20 DUP3 ADD MSTORE POP JUMP JUMPDEST PUSH0 PUSH2 0x201B PUSH1 0x2A DUP4 PUSH2 0x15C5 JUMP JUMPDEST SWAP2 POP PUSH2 0x2026 DUP3 PUSH2 0x1FC1 JUMP JUMPDEST PUSH1 0x40 DUP3 ADD SWAP1 POP SWAP2 SWAP1 POP JUMP JUMPDEST PUSH0 PUSH1 0x20 DUP3 ADD SWAP1 POP DUP2 DUP2 SUB PUSH0 DUP4 ADD MSTORE PUSH2 0x2048 DUP2 PUSH2 0x200F JUMP JUMPDEST SWAP1 POP SWAP2 SWAP1 POP JUMP JUMPDEST PUSH32 0x4E487B7100000000000000000000000000000000000000000000000000000000 PUSH0 MSTORE PUSH1 0x11 PUSH1 0x4 MSTORE PUSH1 0x24 PUSH0 REVERT JUMPDEST PUSH0 PUSH2 0x2086 DUP3 PUSH2 0x146F JUMP JUMPDEST SWAP2 POP PUSH2 0x2091 DUP4 PUSH2 0x146F JUMP JUMPDEST SWAP3 POP DUP3 DUP3 ADD SWAP1 POP DUP1 DUP3 GT ISZERO PUSH2 0x20A9 JUMPI PUSH2 0x20A8 PUSH2 0x204F JUMP JUMPDEST JUMPDEST SWAP3 SWAP2 POP POP JUMP JUMPDEST PUSH0 PUSH1 0x40 DUP3 ADD SWAP1 POP DUP2 DUP2 SUB PUSH0 DUP4 ADD MSTORE PUSH2 0x20C7 DUP2 DUP6 PUSH2 0x1AED JUMP JUMPDEST SWAP1 POP DUP2 DUP2 SUB PUSH1 0x20 DUP4 ADD MSTORE PUSH2 0x20DB DUP2 DUP5 PUSH2 0x1AED JUMP JUMPDEST SWAP1 POP SWAP4 SWAP3 POP POP POP JUMP JUMPDEST PUSH32 0x455243313135353A206163636F756E747320616E6420696473206C656E677468 PUSH0 DUP3 ADD MSTORE PUSH32 0x206D69736D617463680000000000000000000000000000000000000000000000 PUSH1 0x20 DUP3 ADD MSTORE POP JUMP JUMPDEST PUSH0 PUSH2 0x213E PUSH1 0x29 DUP4 PUSH2 0x15C5 JUMP JUMPDEST SWAP2 POP PUSH2 0x2149 DUP3 PUSH2 0x20E4 JUMP JUMPDEST PUSH1 0x40 DUP3 ADD SWAP1 POP SWAP2 SWAP1 POP JUMP JUMPDEST PUSH0 PUSH1 0x20 DUP3 ADD SWAP1 POP DUP2 DUP2 SUB PUSH0 DUP4 ADD MSTORE PUSH2 0x216B DUP2 PUSH2 0x2132 JUMP JUMPDEST SWAP1 POP SWAP2 SWAP1 POP JUMP JUMPDEST PUSH32 0x455243313135353A2073657474696E6720617070726F76616C20737461747573 PUSH0 DUP3 ADD MSTORE PUSH32 0x20666F722073656C660000000000000000000000000000000000000000000000 PUSH1 0x20 DUP3 ADD MSTORE POP JUMP JUMPDEST PUSH0 PUSH2 0x21CC PUSH1 0x29 DUP4 PUSH2 0x15C5 JUMP JUMPDEST SWAP2 POP PUSH2 0x21D7 DUP3 PUSH2 0x2172 JUMP JUMPDEST PUSH1 0x40 DUP3 ADD SWAP1 POP SWAP2 SWAP1 POP JUMP JUMPDEST PUSH0 PUSH1 0x20 DUP3 ADD SWAP1 POP DUP2 DUP2 SUB PUSH0 DUP4 ADD MSTORE PUSH2 0x21F9 DUP2 PUSH2 0x21C0 JUMP JUMPDEST SWAP1 POP SWAP2 SWAP1 POP JUMP JUMPDEST PUSH0 PUSH1 0x40 DUP3 ADD SWAP1 POP PUSH2 0x2213 PUSH0 DUP4 ADD DUP6 PUSH2 0x14E0 JUMP JUMPDEST PUSH2 0x2220 PUSH1 0x20 DUP4 ADD DUP5 PUSH2 0x14E0 JUMP JUMPDEST SWAP4 SWAP3 POP POP POP JUMP JUMPDEST PUSH0 PUSH2 0x2231 DUP3 PUSH2 0x146F JUMP JUMPDEST SWAP2 POP PUSH32 0xFFFFFFFFFFFFFFFFFFFFFFFFFFFFFFFFFFFFFFFFFFFFFFFFFFFFFFFFFFFFFFFF DUP3 SUB PUSH2 0x2263 JUMPI PUSH2 0x2262 PUSH2 0x204F JUMP JUMPDEST JUMPDEST PUSH1 0x1 DUP3 ADD SWAP1 POP SWAP2 SWAP1 POP JUMP JUMPDEST PUSH32 0x4E487B7100000000000000000000000000000000000000000000000000000000 PUSH0 MSTORE PUSH1 0x12 PUSH1 0x4 MSTORE PUSH1 0x24 PUSH0 REVERT JUMPDEST PUSH0 PUSH2 0x22A5 DUP3 PUSH2 0x146F JUMP JUMPDEST SWAP2 POP PUSH2 0x22B0 DUP4 PUSH2 0x146F JUMP JUMPDEST SWAP3 POP DUP3 PUSH2 0x22C0 JUMPI PUSH2 0x22BF PUSH2 0x226E JUMP JUMPDEST JUMPDEST DUP3 DUP3 DIV SWAP1 POP SWAP3 SWAP2 POP POP JUMP JUMPDEST PUSH0 PUSH2 0x22D5 DUP3 PUSH2 0x146F JUMP JUMPDEST SWAP2 POP PUSH2 0x22E0 DUP4 PUSH2 0x146F JUMP JUMPDEST SWAP3 POP DUP3 DUP3 SUB SWAP1 POP DUP2 DUP2 GT ISZERO PUSH2 0x22F8 JUMPI PUSH2 0x22F7 PUSH2 0x204F JUMP JUMPDEST JUMPDEST SWAP3 SWAP2 POP POP JUMP JUMPDEST PUSH0 PUSH2 0x2308 DUP3 PUSH2 0x146F JUMP JUMPDEST SWAP2 POP PUSH2 0x2313 DUP4 PUSH2 0x146F JUMP JUMPDEST SWAP3 POP DUP3 PUSH2 0x2323 JUMPI PUSH2 0x2322 PUSH2 0x226E JUMP JUMPDEST JUMPDEST DUP3 DUP3 MOD SWAP1 POP SWAP3 SWAP2 POP POP JUMP JUMPDEST PUSH2 0x2337 DUP2 PUSH2 0x1434 JUMP JUMPDEST DUP3 MSTORE POP POP JUMP JUMPDEST PUSH0 DUP2 MLOAD SWAP1 POP SWAP2 SWAP1 POP JUMP JUMPDEST PUSH0 DUP3 DUP3 MSTORE PUSH1 0x20 DUP3 ADD SWAP1 POP SWAP3 SWAP2 POP POP JUMP JUMPDEST PUSH0 PUSH2 0x2361 DUP3 PUSH2 0x233D JUMP JUMPDEST PUSH2 0x236B DUP2 DUP6 PUSH2 0x2347 JUMP JUMPDEST SWAP4 POP PUSH2 0x237B DUP2 DUP6 PUSH1 0x20 DUP7 ADD PUSH2 0x15D5 JUMP JUMPDEST PUSH2 0x2384 DUP2 PUSH2 0x15E3 JUMP JUMPDEST DUP5 ADD SWAP2 POP POP SWAP3 SWAP2 POP POP JUMP JUMPDEST PUSH0 PUSH1 0xA0 DUP3 ADD SWAP1 POP PUSH2 0x23A2 PUSH0 DUP4 ADD DUP9 PUSH2 0x232E JUMP JUMPDEST PUSH2 0x23AF PUSH1 0x20 DUP4 ADD DUP8 PUSH2 0x232E JUMP JUMPDEST DUP2 DUP2 SUB PUSH1 0x40 DUP4 ADD MSTORE PUSH2 0x23C1 DUP2 DUP7 PUSH2 0x1AED JUMP JUMPDEST SWAP1 POP DUP2 DUP2 SUB PUSH1 0x60 DUP4 ADD MSTORE PUSH2 0x23D5 DUP2 DUP6 PUSH2 0x1AED JUMP JUMPDEST SWAP1 POP DUP2 DUP2 SUB PUSH1 0x80 DUP4 ADD MSTORE PUSH2 0x23E9 DUP2 DUP5 PUSH2 0x2357 JUMP JUMPDEST SWAP1 POP SWAP7 SWAP6 POP POP POP POP POP POP JUMP JUMPDEST PUSH0 DUP2 MLOAD SWAP1 POP PUSH2 0x2403 DUP2 PUSH2 0x1533 JUMP JUMPDEST SWAP3 SWAP2 POP POP JUMP JUMPDEST PUSH0 PUSH1 0x20 DUP3 DUP5 SUB SLT ISZERO PUSH2 0x241E JUMPI PUSH2 0x241D PUSH2 0x140D JUMP JUMPDEST JUMPDEST PUSH0 PUSH2 0x242B DUP5 DUP3 DUP6 ADD PUSH2 0x23F5 JUMP JUMPDEST SWAP2 POP POP SWAP3 SWAP2 POP POP JUMP JUMPDEST PUSH0 DUP2 PUSH1 0xE0 SHR SWAP1 POP SWAP2 SWAP1 POP JUMP JUMPDEST PUSH0 PUSH1 0x3 RETURNDATASIZE GT ISZERO PUSH2 0x245C JUMPI PUSH1 0x4 PUSH0 DUP1 RETURNDATACOPY PUSH2 0x2459 PUSH0 MLOAD PUSH2 0x2434 JUMP JUMPDEST SWAP1 POP JUMPDEST SWAP1 JUMP JUMPDEST PUSH0 PUSH1 0x44 RETURNDATASIZE LT PUSH2 0x24EB JUMPI PUSH2 0x2470 PUSH2 0x1404 JUMP JUMPDEST PUSH1 0x4 RETURNDATASIZE SUB PUSH1 0x4 DUP3 RETURNDATACOPY DUP1 MLOAD RETURNDATASIZE PUSH1 0x24 DUP3 ADD GT PUSH8 0xFFFFFFFFFFFFFFFF DUP3 GT OR ISZERO PUSH2 0x2498 JUMPI POP POP PUSH2 0x24EB JUMP JUMPDEST DUP1 DUP3 ADD DUP1 MLOAD PUSH8 0xFFFFFFFFFFFFFFFF DUP2 GT ISZERO PUSH2 0x24B6 JUMPI POP POP POP POP PUSH2 0x24EB JUMP JUMPDEST DUP1 PUSH1 0x20 DUP4 ADD ADD PUSH1 0x4 RETURNDATASIZE SUB DUP6 ADD DUP2 GT ISZERO PUSH2 0x24D3 JUMPI POP POP POP POP POP PUSH2 0x24EB JUMP JUMPDEST PUSH2 0x24E2 DUP3 PUSH1 0x20 ADD DUP6 ADD DUP7 PUSH2 0x16D2 JUMP JUMPDEST DUP3 SWAP6 POP POP POP POP POP POP JUMPDEST SWAP1 JUMP JUMPDEST PUSH32 0x455243313135353A207472616E7366657220746F206E6F6E2D45524331313535 PUSH0 DUP3 ADD MSTORE PUSH32 0x526563656976657220696D706C656D656E746572000000000000000000000000 PUSH1 0x20 DUP3 ADD MSTORE POP JUMP JUMPDEST PUSH0 PUSH2 0x2548 PUSH1 0x34 DUP4 PUSH2 0x15C5 JUMP JUMPDEST SWAP2 POP PUSH2 0x2553 DUP3 PUSH2 0x24EE JUMP JUMPDEST PUSH1 0x40 DUP3 ADD SWAP1 POP SWAP2 SWAP1 POP JUMP JUMPDEST PUSH0 PUSH1 0x20 DUP3 ADD SWAP1 POP DUP2 DUP2 SUB PUSH0 DUP4 ADD MSTORE PUSH2 0x2575 DUP2 PUSH2 0x253C JUMP JUMPDEST SWAP1 POP SWAP2 SWAP1 POP JUMP JUMPDEST PUSH32 0x455243313135353A204552433131353552656365697665722072656A65637465 PUSH0 DUP3 ADD MSTORE PUSH32 0x6420746F6B656E73000000000000000000000000000000000000000000000000 PUSH1 0x20 DUP3 ADD MSTORE POP JUMP JUMPDEST PUSH0 PUSH2 0x25D6 PUSH1 0x28 DUP4 PUSH2 0x15C5 JUMP JUMPDEST SWAP2 POP PUSH2 0x25E1 DUP3 PUSH2 0x257C JUMP JUMPDEST PUSH1 0x40 DUP3 ADD SWAP1 POP SWAP2 SWAP1 POP JUMP JUMPDEST PUSH0 PUSH1 0x20 DUP3 ADD SWAP1 POP DUP2 DUP2 SUB PUSH0 DUP4 ADD MSTORE PUSH2 0x2603 DUP2 PUSH2 0x25CA JUMP JUMPDEST SWAP1 POP SWAP2 SWAP1 POP JUMP JUMPDEST PUSH0 PUSH1 0xA0 DUP3 ADD SWAP1 POP PUSH2 0x261D PUSH0 DUP4 ADD DUP9 PUSH2 0x232E JUMP JUMPDEST PUSH2 0x262A PUSH1 0x20 DUP4 ADD DUP8 PUSH2 0x232E JUMP JUMPDEST PUSH2 0x2637 PUSH1 0x40 DUP4 ADD DUP7 PUSH2 0x14E0 JUMP JUMPDEST PUSH2 0x2644 PUSH1 0x60 DUP4 ADD DUP6 PUSH2 0x14E0 JUMP JUMPDEST DUP2 DUP2 SUB PUSH1 0x80 DUP4 ADD MSTORE PUSH2 0x2656 DUP2 DUP5 PUSH2 0x2357 JUMP JUMPDEST SWAP1 POP SWAP7 SWAP6 POP POP POP POP POP POP JUMP INVALID LOG2 PUSH5 0x6970667358 0x22 SLT KECCAK256 0xCE PUSH6 0xF221410C845C MLOAD 0xB6 0xAC BLOBBASEFEE TSTORE PUSH21 0xE33B8D5E75FB511AB5D2E17488395E405A0B64736F PUSH13 0x634300081A0033000000000000 "
				},
				"gasEstimates": {
					"creation": {
						"codeDepositCost": "1976000",
						"executionCost": "infinite",
						"totalCost": "infinite"
					},
					"external": {
						"balanceOf(address,uint256)": "infinite",
						"balanceOfBatch(address[],uint256[])": "infinite",
						"isApprovedForAll(address,address)": "infinite",
						"isContract(address)": "3354",
						"name()": "infinite",
						"safeBatchTransferFrom(address,address,uint256[],uint256[],bytes)": "infinite",
						"safeTransferFrom(address,address,uint256,uint256,bytes)": "infinite",
						"setApprovalForAll(address,bool)": "infinite",
						"supportsInterface(bytes4)": "744",
						"symbol()": "infinite",
						"uri(uint256)": "infinite"
					},
					"internal": {
						"_baseURI()": "infinite",
						"_burn(address,uint256,uint256)": "infinite",
						"_burnBatch(address,uint256[] memory,uint256[] memory)": "infinite",
						"_doSafeBatchTransferAcceptanceCheck(address,address,address,uint256[] memory,uint256[] memory,bytes memory)": "infinite",
						"_doSafeTransferAcceptanceCheck(address,address,address,uint256,uint256,bytes memory)": "infinite",
						"_mint(address,uint256,uint256,bytes memory)": "infinite",
						"_mintBatch(address,uint256[] memory,uint256[] memory,bytes memory)": "infinite"
					}
				},
				"methodIdentifiers": {
					"balanceOf(address,uint256)": "00fdd58e",
					"balanceOfBatch(address[],uint256[])": "4e1273f4",
					"isApprovedForAll(address,address)": "e985e9c5",
					"isContract(address)": "16279055",
					"name()": "06fdde03",
					"safeBatchTransferFrom(address,address,uint256[],uint256[],bytes)": "2eb2c2d6",
					"safeTransferFrom(address,address,uint256,uint256,bytes)": "f242432a",
					"setApprovalForAll(address,bool)": "a22cb465",
					"supportsInterface(bytes4)": "01ffc9a7",
					"symbol()": "95d89b41",
					"uri(uint256)": "0e89341c"
				}
			},
			"storageLayout": {
				"storage": [
					{
						"astId": 481,
						"contract": "contracts/ERC1155/MyERC1155Token.sol:ERC1155",
						"label": "name",
						"offset": 0,
						"slot": "0",
						"type": "t_string_storage"
					},
					{
						"astId": 483,
						"contract": "contracts/ERC1155/MyERC1155Token.sol:ERC1155",
						"label": "symbol",
						"offset": 0,
						"slot": "1",
						"type": "t_string_storage"
					},
					{
						"astId": 489,
						"contract": "contracts/ERC1155/MyERC1155Token.sol:ERC1155",
						"label": "_balances",
						"offset": 0,
						"slot": "2",
						"type": "t_mapping(t_uint256,t_mapping(t_address,t_uint256))"
					},
					{
						"astId": 495,
						"contract": "contracts/ERC1155/MyERC1155Token.sol:ERC1155",
						"label": "_operatorApprovals",
						"offset": 0,
						"slot": "3",
						"type": "t_mapping(t_address,t_mapping(t_address,t_bool))"
					}
				],
				"types": {
					"t_address": {
						"encoding": "inplace",
						"label": "address",
						"numberOfBytes": "20"
					},
					"t_bool": {
						"encoding": "inplace",
						"label": "bool",
						"numberOfBytes": "1"
					},
					"t_mapping(t_address,t_bool)": {
						"encoding": "mapping",
						"key": "t_address",
						"label": "mapping(address => bool)",
						"numberOfBytes": "32",
						"value": "t_bool"
					},
					"t_mapping(t_address,t_mapping(t_address,t_bool))": {
						"encoding": "mapping",
						"key": "t_address",
						"label": "mapping(address => mapping(address => bool))",
						"numberOfBytes": "32",
						"value": "t_mapping(t_address,t_bool)"
					},
					"t_mapping(t_address,t_uint256)": {
						"encoding": "mapping",
						"key": "t_address",
						"label": "mapping(address => uint256)",
						"numberOfBytes": "32",
						"value": "t_uint256"
					},
					"t_mapping(t_uint256,t_mapping(t_address,t_uint256))": {
						"encoding": "mapping",
						"key": "t_uint256",
						"label": "mapping(uint256 => mapping(address => uint256))",
						"numberOfBytes": "32",
						"value": "t_mapping(t_address,t_uint256)"
					},
					"t_string_storage": {
						"encoding": "bytes",
						"label": "string",
						"numberOfBytes": "32"
					},
					"t_uint256": {
						"encoding": "inplace",
						"label": "uint256",
						"numberOfBytes": "32"
					}
				}
			},
			"userdoc": {
				"kind": "user",
				"methods": {
					"constructor": {
						"notice": "构造函数，初始化`name` 和`symbol`, uri_"
					}
				},
				"version": 1
			}
		}
	}
}