{
	"data": {
		"bytecode": {
			"linkReferences": {},
			"object": "60c060405234801561000f575f80fd5b50604051610b67380380610b678339818101604052810190610031919061014c565b82828173ffffffffffffffffffffffffffffffffffffffff1660a08173ffffffffffffffffffffffffffffffffffffffff16815250508073ffffffffffffffffffffffffffffffffffffffff1660808173ffffffffffffffffffffffffffffffffffffffff168152505050508060018190555067016345785d8a000060028190555050505061019c565b5f80fd5b5f73ffffffffffffffffffffffffffffffffffffffff82169050919050565b5f6100e8826100bf565b9050919050565b6100f8816100de565b8114610102575f80fd5b50565b5f81519050610113816100ef565b92915050565b5f819050919050565b61012b81610119565b8114610135575f80fd5b50565b5f8151905061014681610122565b92915050565b5f805f60608486031215610163576101626100bb565b5b5f61017086828701610105565b935050602061018186828701610105565b925050604061019286828701610138565b9150509250925092565b60805160a0516109966101d15f395f81816101d7015261034e01525f818160ed01528181610274015261031201526109965ff3fe608060405234801561000f575f80fd5b5060043610610055575f3560e01c806342619f66146100595780637390c786146100775780638678a7b21461009557806394985ddd1461009f578063a24bf4ff146100bb575b5f80fd5b6100616100d9565b60405161006e91906104e1565b60405180910390f35b61007f6100df565b60405161008c91906104e1565b60405180910390f35b61009d6100e8565b005b6100b960048036038101906100b4919061055b565b6101d5565b005b6100c3610271565b6040516100d091906104e1565b60405180910390f35b60035481565b5f600354905090565b6002547f000000000000000000000000000000000000000000000000000000000000000073ffffffffffffffffffffffffffffffffffffffff166370a08231306040518263ffffffff1660e01b815260040161014491906105d8565b602060405180830381865afa15801561015f573d5f803e3d5ffd5b505050506040513d601f19601f820116820180604052508101906101839190610605565b10156101c4576040517f08c379a00000000000000000000000000000000000000000000000000000000081526004016101bb9061068a565b60405180910390fd5b6101d260015460025461030f565b50565b7f000000000000000000000000000000000000000000000000000000000000000073ffffffffffffffffffffffffffffffffffffffff163373ffffffffffffffffffffffffffffffffffffffff1614610263576040517f08c379a000000000000000000000000000000000000000000000000000000000815260040161025a906106f2565b60405180910390fd5b61026d8282610452565b5050565b5f7f000000000000000000000000000000000000000000000000000000000000000073ffffffffffffffffffffffffffffffffffffffff166370a08231306040518263ffffffff1660e01b81526004016102cb91906105d8565b602060405180830381865afa1580156102e6573d5f803e3d5ffd5b505050506040513d601f19601f8201168201806040525081019061030a9190610605565b905090565b5f7f000000000000000000000000000000000000000000000000000000000000000073ffffffffffffffffffffffffffffffffffffffff16634000aea07f000000000000000000000000000000000000000000000000000000000000000084865f60405160200161038192919061071f565b6040516020818303038152906040526040518463ffffffff1660e01b81526004016103ae939291906107b6565b6020604051808303815f875af11580156103ca573d5f803e3d5ffd5b505050506040513d601f19601f820116820180604052508101906103ee9190610827565b505f61040c845f305f808981526020019081526020015f205461045d565b905060015f808681526020019081526020015f205461042b919061087f565b5f808681526020019081526020015f20819055506104498482610497565b91505092915050565b806003819055505050565b5f8484848460405160200161047594939291906108b2565b604051602081830303815290604052805190602001205f1c9050949350505050565b5f82826040516020016104ab929190610935565b60405160208183030381529060405280519060200120905092915050565b5f819050919050565b6104db816104c9565b82525050565b5f6020820190506104f45f8301846104d2565b92915050565b5f80fd5b5f819050919050565b610510816104fe565b811461051a575f80fd5b50565b5f8135905061052b81610507565b92915050565b61053a816104c9565b8114610544575f80fd5b50565b5f8135905061055581610531565b92915050565b5f8060408385031215610571576105706104fa565b5b5f61057e8582860161051d565b925050602061058f85828601610547565b9150509250929050565b5f73ffffffffffffffffffffffffffffffffffffffff82169050919050565b5f6105c282610599565b9050919050565b6105d2816105b8565b82525050565b5f6020820190506105eb5f8301846105c9565b92915050565b5f815190506105ff81610531565b92915050565b5f6020828403121561061a576106196104fa565b5b5f610627848285016105f1565b91505092915050565b5f82825260208201905092915050565b7f4e6f7420656e6f756768204c494e4b20746f20706179206665650000000000005f82015250565b5f610674601a83610630565b915061067f82610640565b602082019050919050565b5f6020820190508181035f8301526106a181610668565b9050919050565b7f4f6e6c7920565246436f6f7264696e61746f722063616e2066756c66696c6c005f82015250565b5f6106dc601f83610630565b91506106e7826106a8565b602082019050919050565b5f6020820190508181035f830152610709816106d0565b9050919050565b610719816104fe565b82525050565b5f6040820190506107325f830185610710565b61073f60208301846104d2565b9392505050565b5f81519050919050565b5f82825260208201905092915050565b8281835e5f83830152505050565b5f601f19601f8301169050919050565b5f61078882610746565b6107928185610750565b93506107a2818560208601610760565b6107ab8161076e565b840191505092915050565b5f6060820190506107c95f8301866105c9565b6107d660208301856104d2565b81810360408301526107e8818461077e565b9050949350505050565b5f8115159050919050565b610806816107f2565b8114610810575f80fd5b50565b5f81519050610821816107fd565b92915050565b5f6020828403121561083c5761083b6104fa565b5b5f61084984828501610813565b91505092915050565b7f4e487b71000000000000000000000000000000000000000000000000000000005f52601160045260245ffd5b5f610889826104c9565b9150610894836104c9565b92508282019050808211156108ac576108ab610852565b5b92915050565b5f6080820190506108c55f830187610710565b6108d260208301866104d2565b6108df60408301856105c9565b6108ec60608301846104d2565b95945050505050565b5f819050919050565b61090f61090a826104fe565b6108f5565b82525050565b5f819050919050565b61092f61092a826104c9565b610915565b82525050565b5f61094082856108fe565b602082019150610950828461091e565b602082019150819050939250505056fea2646970667358221220c9e80ecb67e34e930ae36d45082629c8b45ca6bcf7f2c66f10cf8ce6f1f7877d64736f6c634300081a0033",
			"opcodes": "PUSH1 0xC0 PUSH1 0x40 MSTORE CALLVALUE DUP1 ISZERO PUSH2 0xF JUMPI PUSH0 DUP1 REVERT JUMPDEST POP PUSH1 0x40 MLOAD PUSH2 0xB67 CODESIZE SUB DUP1 PUSH2 0xB67 DUP4 CODECOPY DUP2 DUP2 ADD PUSH1 0x40 MSTORE DUP2 ADD SWAP1 PUSH2 0x31 SWAP2 SWAP1 PUSH2 0x14C JUMP JUMPDEST DUP3 DUP3 DUP2 PUSH20 0xFFFFFFFFFFFFFFFFFFFFFFFFFFFFFFFFFFFFFFFF AND PUSH1 0xA0 DUP2 PUSH20 0xFFFFFFFFFFFFFFFFFFFFFFFFFFFFFFFFFFFFFFFF AND DUP2 MSTORE POP POP DUP1 PUSH20 0xFFFFFFFFFFFFFFFFFFFFFFFFFFFFFFFFFFFFFFFF AND PUSH1 0x80 DUP2 PUSH20 0xFFFFFFFFFFFFFFFFFFFFFFFFFFFFFFFFFFFFFFFF AND DUP2 MSTORE POP POP POP POP DUP1 PUSH1 0x1 DUP2 SWAP1 SSTORE POP PUSH8 0x16345785D8A0000 PUSH1 0x2 DUP2 SWAP1 SSTORE POP POP POP POP PUSH2 0x19C JUMP JUMPDEST PUSH0 DUP1 REVERT JUMPDEST PUSH0 PUSH20 0xFFFFFFFFFFFFFFFFFFFFFFFFFFFFFFFFFFFFFFFF DUP3 AND SWAP1 POP SWAP2 SWAP1 POP JUMP JUMPDEST PUSH0 PUSH2 0xE8 DUP3 PUSH2 0xBF JUMP JUMPDEST SWAP1 POP SWAP2 SWAP1 POP JUMP JUMPDEST PUSH2 0xF8 DUP2 PUSH2 0xDE JUMP JUMPDEST DUP2 EQ PUSH2 0x102 JUMPI PUSH0 DUP1 REVERT JUMPDEST POP JUMP JUMPDEST PUSH0 DUP2 MLOAD SWAP1 POP PUSH2 0x113 DUP2 PUSH2 0xEF JUMP JUMPDEST SWAP3 SWAP2 POP POP JUMP JUMPDEST PUSH0 DUP2 SWAP1 POP SWAP2 SWAP1 POP JUMP JUMPDEST PUSH2 0x12B DUP2 PUSH2 0x119 JUMP JUMPDEST DUP2 EQ PUSH2 0x135 JUMPI PUSH0 DUP1 REVERT JUMPDEST POP JUMP JUMPDEST PUSH0 DUP2 MLOAD SWAP1 POP PUSH2 0x146 DUP2 PUSH2 0x122 JUMP JUMPDEST SWAP3 SWAP2 POP POP JUMP JUMPDEST PUSH0 DUP1 PUSH0 PUSH1 0x60 DUP5 DUP7 SUB SLT ISZERO PUSH2 0x163 JUMPI PUSH2 0x162 PUSH2 0xBB JUMP JUMPDEST JUMPDEST PUSH0 PUSH2 0x170 DUP7 DUP3 DUP8 ADD PUSH2 0x105 JUMP JUMPDEST SWAP4 POP POP PUSH1 0x20 PUSH2 0x181 DUP7 DUP3 DUP8 ADD PUSH2 0x105 JUMP JUMPDEST SWAP3 POP POP PUSH1 0x40 PUSH2 0x192 DUP7 DUP3 DUP8 ADD PUSH2 0x138 JUMP JUMPDEST SWAP2 POP POP SWAP3 POP SWAP3 POP SWAP3 JUMP JUMPDEST PUSH1 0x80 MLOAD PUSH1 0xA0 MLOAD PUSH2 0x996 PUSH2 0x1D1 PUSH0 CODECOPY PUSH0 DUP2 DUP2 PUSH2 0x1D7 ADD MSTORE PUSH2 0x34E ADD MSTORE PUSH0 DUP2 DUP2 PUSH1 0xED ADD MSTORE DUP2 DUP2 PUSH2 0x274 ADD MSTORE PUSH2 0x312 ADD MSTORE PUSH2 0x996 PUSH0 RETURN INVALID PUSH1 0x80 PUSH1 0x40 MSTORE CALLVALUE DUP1 ISZERO PUSH2 0xF JUMPI PUSH0 DUP1 REVERT JUMPDEST POP PUSH1 0x4 CALLDATASIZE LT PUSH2 0x55 JUMPI PUSH0 CALLDATALOAD PUSH1 0xE0 SHR DUP1 PUSH4 0x42619F66 EQ PUSH2 0x59 JUMPI DUP1 PUSH4 0x7390C786 EQ PUSH2 0x77 JUMPI DUP1 PUSH4 0x8678A7B2 EQ PUSH2 0x95 JUMPI DUP1 PUSH4 0x94985DDD EQ PUSH2 0x9F JUMPI DUP1 PUSH4 0xA24BF4FF EQ PUSH2 0xBB JUMPI JUMPDEST PUSH0 DUP1 REVERT JUMPDEST PUSH2 0x61 PUSH2 0xD9 JUMP JUMPDEST PUSH1 0x40 MLOAD PUSH2 0x6E SWAP2 SWAP1 PUSH2 0x4E1 JUMP JUMPDEST PUSH1 0x40 MLOAD DUP1 SWAP2 SUB SWAP1 RETURN JUMPDEST PUSH2 0x7F PUSH2 0xDF JUMP JUMPDEST PUSH1 0x40 MLOAD PUSH2 0x8C SWAP2 SWAP1 PUSH2 0x4E1 JUMP JUMPDEST PUSH1 0x40 MLOAD DUP1 SWAP2 SUB SWAP1 RETURN JUMPDEST PUSH2 0x9D PUSH2 0xE8 JUMP JUMPDEST STOP JUMPDEST PUSH2 0xB9 PUSH1 0x4 DUP1 CALLDATASIZE SUB DUP2 ADD SWAP1 PUSH2 0xB4 SWAP2 SWAP1 PUSH2 0x55B JUMP JUMPDEST PUSH2 0x1D5 JUMP JUMPDEST STOP JUMPDEST PUSH2 0xC3 PUSH2 0x271 JUMP JUMPDEST PUSH1 0x40 MLOAD PUSH2 0xD0 SWAP2 SWAP1 PUSH2 0x4E1 JUMP JUMPDEST PUSH1 0x40 MLOAD DUP1 SWAP2 SUB SWAP1 RETURN JUMPDEST PUSH1 0x3 SLOAD DUP2 JUMP JUMPDEST PUSH0 PUSH1 0x3 SLOAD SWAP1 POP SWAP1 JUMP JUMPDEST PUSH1 0x2 SLOAD PUSH32 0x0 PUSH20 0xFFFFFFFFFFFFFFFFFFFFFFFFFFFFFFFFFFFFFFFF AND PUSH4 0x70A08231 ADDRESS PUSH1 0x40 MLOAD DUP3 PUSH4 0xFFFFFFFF AND PUSH1 0xE0 SHL DUP2 MSTORE PUSH1 0x4 ADD PUSH2 0x144 SWAP2 SWAP1 PUSH2 0x5D8 JUMP JUMPDEST PUSH1 0x20 PUSH1 0x40 MLOAD DUP1 DUP4 SUB DUP2 DUP7 GAS STATICCALL ISZERO DUP1 ISZERO PUSH2 0x15F JUMPI RETURNDATASIZE PUSH0 DUP1 RETURNDATACOPY RETURNDATASIZE PUSH0 REVERT JUMPDEST POP POP POP POP PUSH1 0x40 MLOAD RETURNDATASIZE PUSH1 0x1F NOT PUSH1 0x1F DUP3 ADD AND DUP3 ADD DUP1 PUSH1 0x40 MSTORE POP DUP2 ADD SWAP1 PUSH2 0x183 SWAP2 SWAP1 PUSH2 0x605 JUMP JUMPDEST LT ISZERO PUSH2 0x1C4 JUMPI PUSH1 0x40 MLOAD PUSH32 0x8C379A000000000000000000000000000000000000000000000000000000000 DUP2 MSTORE PUSH1 0x4 ADD PUSH2 0x1BB SWAP1 PUSH2 0x68A JUMP JUMPDEST PUSH1 0x40 MLOAD DUP1 SWAP2 SUB SWAP1 REVERT JUMPDEST PUSH2 0x1D2 PUSH1 0x1 SLOAD PUSH1 0x2 SLOAD PUSH2 0x30F JUMP JUMPDEST POP JUMP JUMPDEST PUSH32 0x0 PUSH20 0xFFFFFFFFFFFFFFFFFFFFFFFFFFFFFFFFFFFFFFFF AND CALLER PUSH20 0xFFFFFFFFFFFFFFFFFFFFFFFFFFFFFFFFFFFFFFFF AND EQ PUSH2 0x263 JUMPI PUSH1 0x40 MLOAD PUSH32 0x8C379A000000000000000000000000000000000000000000000000000000000 DUP2 MSTORE PUSH1 0x4 ADD PUSH2 0x25A SWAP1 PUSH2 0x6F2 JUMP JUMPDEST PUSH1 0x40 MLOAD DUP1 SWAP2 SUB SWAP1 REVERT JUMPDEST PUSH2 0x26D DUP3 DUP3 PUSH2 0x452 JUMP JUMPDEST POP POP JUMP JUMPDEST PUSH0 PUSH32 0x0 PUSH20 0xFFFFFFFFFFFFFFFFFFFFFFFFFFFFFFFFFFFFFFFF AND PUSH4 0x70A08231 ADDRESS PUSH1 0x40 MLOAD DUP3 PUSH4 0xFFFFFFFF AND PUSH1 0xE0 SHL DUP2 MSTORE PUSH1 0x4 ADD PUSH2 0x2CB SWAP2 SWAP1 PUSH2 0x5D8 JUMP JUMPDEST PUSH1 0x20 PUSH1 0x40 MLOAD DUP1 DUP4 SUB DUP2 DUP7 GAS STATICCALL ISZERO DUP1 ISZERO PUSH2 0x2E6 JUMPI RETURNDATASIZE PUSH0 DUP1 RETURNDATACOPY RETURNDATASIZE PUSH0 REVERT JUMPDEST POP POP POP POP PUSH1 0x40 MLOAD RETURNDATASIZE PUSH1 0x1F NOT PUSH1 0x1F DUP3 ADD AND DUP3 ADD DUP1 PUSH1 0x40 MSTORE POP DUP2 ADD SWAP1 PUSH2 0x30A SWAP2 SWAP1 PUSH2 0x605 JUMP JUMPDEST SWAP1 POP SWAP1 JUMP JUMPDEST PUSH0 PUSH32 0x0 PUSH20 0xFFFFFFFFFFFFFFFFFFFFFFFFFFFFFFFFFFFFFFFF AND PUSH4 0x4000AEA0 PUSH32 0x0 DUP5 DUP7 PUSH0 PUSH1 0x40 MLOAD PUSH1 0x20 ADD PUSH2 0x381 SWAP3 SWAP2 SWAP1 PUSH2 0x71F JUMP JUMPDEST PUSH1 0x40 MLOAD PUSH1 0x20 DUP2 DUP4 SUB SUB DUP2 MSTORE SWAP1 PUSH1 0x40 MSTORE PUSH1 0x40 MLOAD DUP5 PUSH4 0xFFFFFFFF AND PUSH1 0xE0 SHL DUP2 MSTORE PUSH1 0x4 ADD PUSH2 0x3AE SWAP4 SWAP3 SWAP2 SWAP1 PUSH2 0x7B6 JUMP JUMPDEST PUSH1 0x20 PUSH1 0x40 MLOAD DUP1 DUP4 SUB DUP2 PUSH0 DUP8 GAS CALL ISZERO DUP1 ISZERO PUSH2 0x3CA JUMPI RETURNDATASIZE PUSH0 DUP1 RETURNDATACOPY RETURNDATASIZE PUSH0 REVERT JUMPDEST POP POP POP POP PUSH1 0x40 MLOAD RETURNDATASIZE PUSH1 0x1F NOT PUSH1 0x1F DUP3 ADD AND DUP3 ADD DUP1 PUSH1 0x40 MSTORE POP DUP2 ADD SWAP1 PUSH2 0x3EE SWAP2 SWAP1 PUSH2 0x827 JUMP JUMPDEST POP PUSH0 PUSH2 0x40C DUP5 PUSH0 ADDRESS PUSH0 DUP1 DUP10 DUP2 MSTORE PUSH1 0x20 ADD SWAP1 DUP2 MSTORE PUSH1 0x20 ADD PUSH0 KECCAK256 SLOAD PUSH2 0x45D JUMP JUMPDEST SWAP1 POP PUSH1 0x1 PUSH0 DUP1 DUP7 DUP2 MSTORE PUSH1 0x20 ADD SWAP1 DUP2 MSTORE PUSH1 0x20 ADD PUSH0 KECCAK256 SLOAD PUSH2 0x42B SWAP2 SWAP1 PUSH2 0x87F JUMP JUMPDEST PUSH0 DUP1 DUP7 DUP2 MSTORE PUSH1 0x20 ADD SWAP1 DUP2 MSTORE PUSH1 0x20 ADD PUSH0 KECCAK256 DUP2 SWAP1 SSTORE POP PUSH2 0x449 DUP5 DUP3 PUSH2 0x497 JUMP JUMPDEST SWAP2 POP POP SWAP3 SWAP2 POP POP JUMP JUMPDEST DUP1 PUSH1 0x3 DUP2 SWAP1 SSTORE POP POP POP JUMP JUMPDEST PUSH0 DUP5 DUP5 DUP5 DUP5 PUSH1 0x40 MLOAD PUSH1 0x20 ADD PUSH2 0x475 SWAP5 SWAP4 SWAP3 SWAP2 SWAP1 PUSH2 0x8B2 JUMP JUMPDEST PUSH1 0x40 MLOAD PUSH1 0x20 DUP2 DUP4 SUB SUB DUP2 MSTORE SWAP1 PUSH1 0x40 MSTORE DUP1 MLOAD SWAP1 PUSH1 0x20 ADD KECCAK256 PUSH0 SHR SWAP1 POP SWAP5 SWAP4 POP POP POP POP JUMP JUMPDEST PUSH0 DUP3 DUP3 PUSH1 0x40 MLOAD PUSH1 0x20 ADD PUSH2 0x4AB SWAP3 SWAP2 SWAP1 PUSH2 0x935 JUMP JUMPDEST PUSH1 0x40 MLOAD PUSH1 0x20 DUP2 DUP4 SUB SUB DUP2 MSTORE SWAP1 PUSH1 0x40 MSTORE DUP1 MLOAD SWAP1 PUSH1 0x20 ADD KECCAK256 SWAP1 POP SWAP3 SWAP2 POP POP JUMP JUMPDEST PUSH0 DUP2 SWAP1 POP SWAP2 SWAP1 POP JUMP JUMPDEST PUSH2 0x4DB DUP2 PUSH2 0x4C9 JUMP JUMPDEST DUP3 MSTORE POP POP JUMP JUMPDEST PUSH0 PUSH1 0x20 DUP3 ADD SWAP1 POP PUSH2 0x4F4 PUSH0 DUP4 ADD DUP5 PUSH2 0x4D2 JUMP JUMPDEST SWAP3 SWAP2 POP POP JUMP JUMPDEST PUSH0 DUP1 REVERT JUMPDEST PUSH0 DUP2 SWAP1 POP SWAP2 SWAP1 POP JUMP JUMPDEST PUSH2 0x510 DUP2 PUSH2 0x4FE JUMP JUMPDEST DUP2 EQ PUSH2 0x51A JUMPI PUSH0 DUP1 REVERT JUMPDEST POP JUMP JUMPDEST PUSH0 DUP2 CALLDATALOAD SWAP1 POP PUSH2 0x52B DUP2 PUSH2 0x507 JUMP JUMPDEST SWAP3 SWAP2 POP POP JUMP JUMPDEST PUSH2 0x53A DUP2 PUSH2 0x4C9 JUMP JUMPDEST DUP2 EQ PUSH2 0x544 JUMPI PUSH0 DUP1 REVERT JUMPDEST POP JUMP JUMPDEST PUSH0 DUP2 CALLDATALOAD SWAP1 POP PUSH2 0x555 DUP2 PUSH2 0x531 JUMP JUMPDEST SWAP3 SWAP2 POP POP JUMP JUMPDEST PUSH0 DUP1 PUSH1 0x40 DUP4 DUP6 SUB SLT ISZERO PUSH2 0x571 JUMPI PUSH2 0x570 PUSH2 0x4FA JUMP JUMPDEST JUMPDEST PUSH0 PUSH2 0x57E DUP6 DUP3 DUP7 ADD PUSH2 0x51D JUMP JUMPDEST SWAP3 POP POP PUSH1 0x20 PUSH2 0x58F DUP6 DUP3 DUP7 ADD PUSH2 0x547 JUMP JUMPDEST SWAP2 POP POP SWAP3 POP SWAP3 SWAP1 POP JUMP JUMPDEST PUSH0 PUSH20 0xFFFFFFFFFFFFFFFFFFFFFFFFFFFFFFFFFFFFFFFF DUP3 AND SWAP1 POP SWAP2 SWAP1 POP JUMP JUMPDEST PUSH0 PUSH2 0x5C2 DUP3 PUSH2 0x599 JUMP JUMPDEST SWAP1 POP SWAP2 SWAP1 POP JUMP JUMPDEST PUSH2 0x5D2 DUP2 PUSH2 0x5B8 JUMP JUMPDEST DUP3 MSTORE POP POP JUMP JUMPDEST PUSH0 PUSH1 0x20 DUP3 ADD SWAP1 POP PUSH2 0x5EB PUSH0 DUP4 ADD DUP5 PUSH2 0x5C9 JUMP JUMPDEST SWAP3 SWAP2 POP POP JUMP JUMPDEST PUSH0 DUP2 MLOAD SWAP1 POP PUSH2 0x5FF DUP2 PUSH2 0x531 JUMP JUMPDEST SWAP3 SWAP2 POP POP JUMP JUMPDEST PUSH0 PUSH1 0x20 DUP3 DUP5 SUB SLT ISZERO PUSH2 0x61A JUMPI PUSH2 0x619 PUSH2 0x4FA JUMP JUMPDEST JUMPDEST PUSH0 PUSH2 0x627 DUP5 DUP3 DUP6 ADD PUSH2 0x5F1 JUMP JUMPDEST SWAP2 POP POP SWAP3 SWAP2 POP POP JUMP JUMPDEST PUSH0 DUP3 DUP3 MSTORE PUSH1 0x20 DUP3 ADD SWAP1 POP SWAP3 SWAP2 POP POP JUMP JUMPDEST PUSH32 0x4E6F7420656E6F756768204C494E4B20746F2070617920666565000000000000 PUSH0 DUP3 ADD MSTORE POP JUMP JUMPDEST PUSH0 PUSH2 0x674 PUSH1 0x1A DUP4 PUSH2 0x630 JUMP JUMPDEST SWAP2 POP PUSH2 0x67F DUP3 PUSH2 0x640 JUMP JUMPDEST PUSH1 0x20 DUP3 ADD SWAP1 POP SWAP2 SWAP1 POP JUMP JUMPDEST PUSH0 PUSH1 0x20 DUP3 ADD SWAP1 POP DUP2 DUP2 SUB PUSH0 DUP4 ADD MSTORE PUSH2 0x6A1 DUP2 PUSH2 0x668 JUMP JUMPDEST SWAP1 POP SWAP2 SWAP1 POP JUMP JUMPDEST PUSH32 0x4F6E6C7920565246436F6F7264696E61746F722063616E2066756C66696C6C00 PUSH0 DUP3 ADD MSTORE POP JUMP JUMPDEST PUSH0 PUSH2 0x6DC PUSH1 0x1F DUP4 PUSH2 0x630 JUMP JUMPDEST SWAP2 POP PUSH2 0x6E7 DUP3 PUSH2 0x6A8 JUMP JUMPDEST PUSH1 0x20 DUP3 ADD SWAP1 POP SWAP2 SWAP1 POP JUMP JUMPDEST PUSH0 PUSH1 0x20 DUP3 ADD SWAP1 POP DUP2 DUP2 SUB PUSH0 DUP4 ADD MSTORE PUSH2 0x709 DUP2 PUSH2 0x6D0 JUMP JUMPDEST SWAP1 POP SWAP2 SWAP1 POP JUMP JUMPDEST PUSH2 0x719 DUP2 PUSH2 0x4FE JUMP JUMPDEST DUP3 MSTORE POP POP JUMP JUMPDEST PUSH0 PUSH1 0x40 DUP3 ADD SWAP1 POP PUSH2 0x732 PUSH0 DUP4 ADD DUP6 PUSH2 0x710 JUMP JUMPDEST PUSH2 0x73F PUSH1 0x20 DUP4 ADD DUP5 PUSH2 0x4D2 JUMP JUMPDEST SWAP4 SWAP3 POP POP POP JUMP JUMPDEST PUSH0 DUP2 MLOAD SWAP1 POP SWAP2 SWAP1 POP JUMP JUMPDEST PUSH0 DUP3 DUP3 MSTORE PUSH1 0x20 DUP3 ADD SWAP1 POP SWAP3 SWAP2 POP POP JUMP JUMPDEST DUP3 DUP2 DUP4 MCOPY PUSH0 DUP4 DUP4 ADD MSTORE POP POP POP JUMP JUMPDEST PUSH0 PUSH1 0x1F NOT PUSH1 0x1F DUP4 ADD AND SWAP1 POP SWAP2 SWAP1 POP JUMP JUMPDEST PUSH0 PUSH2 0x788 DUP3 PUSH2 0x746 JUMP JUMPDEST PUSH2 0x792 DUP2 DUP6 PUSH2 0x750 JUMP JUMPDEST SWAP4 POP PUSH2 0x7A2 DUP2 DUP6 PUSH1 0x20 DUP7 ADD PUSH2 0x760 JUMP JUMPDEST PUSH2 0x7AB DUP2 PUSH2 0x76E JUMP JUMPDEST DUP5 ADD SWAP2 POP POP SWAP3 SWAP2 POP POP JUMP JUMPDEST PUSH0 PUSH1 0x60 DUP3 ADD SWAP1 POP PUSH2 0x7C9 PUSH0 DUP4 ADD DUP7 PUSH2 0x5C9 JUMP JUMPDEST PUSH2 0x7D6 PUSH1 0x20 DUP4 ADD DUP6 PUSH2 0x4D2 JUMP JUMPDEST DUP2 DUP2 SUB PUSH1 0x40 DUP4 ADD MSTORE PUSH2 0x7E8 DUP2 DUP5 PUSH2 0x77E JUMP JUMPDEST SWAP1 POP SWAP5 SWAP4 POP POP POP POP JUMP JUMPDEST PUSH0 DUP2 ISZERO ISZERO SWAP1 POP SWAP2 SWAP1 POP JUMP JUMPDEST PUSH2 0x806 DUP2 PUSH2 0x7F2 JUMP JUMPDEST DUP2 EQ PUSH2 0x810 JUMPI PUSH0 DUP1 REVERT JUMPDEST POP JUMP JUMPDEST PUSH0 DUP2 MLOAD SWAP1 POP PUSH2 0x821 DUP2 PUSH2 0x7FD JUMP JUMPDEST SWAP3 SWAP2 POP POP JUMP JUMPDEST PUSH0 PUSH1 0x20 DUP3 DUP5 SUB SLT ISZERO PUSH2 0x83C JUMPI PUSH2 0x83B PUSH2 0x4FA JUMP JUMPDEST JUMPDEST PUSH0 PUSH2 0x849 DUP5 DUP3 DUP6 ADD PUSH2 0x813 JUMP JUMPDEST SWAP2 POP POP SWAP3 SWAP2 POP POP JUMP JUMPDEST PUSH32 0x4E487B7100000000000000000000000000000000000000000000000000000000 PUSH0 MSTORE PUSH1 0x11 PUSH1 0x4 MSTORE PUSH1 0x24 PUSH0 REVERT JUMPDEST PUSH0 PUSH2 0x889 DUP3 PUSH2 0x4C9 JUMP JUMPDEST SWAP2 POP PUSH2 0x894 DUP4 PUSH2 0x4C9 JUMP JUMPDEST SWAP3 POP DUP3 DUP3 ADD SWAP1 POP DUP1 DUP3 GT ISZERO PUSH2 0x8AC JUMPI PUSH2 0x8AB PUSH2 0x852 JUMP JUMPDEST JUMPDEST SWAP3 SWAP2 POP POP JUMP JUMPDEST PUSH0 PUSH1 0x80 DUP3 ADD SWAP1 POP PUSH2 0x8C5 PUSH0 DUP4 ADD DUP8 PUSH2 0x710 JUMP JUMPDEST PUSH2 0x8D2 PUSH1 0x20 DUP4 ADD DUP7 PUSH2 0x4D2 JUMP JUMPDEST PUSH2 0x8DF PUSH1 0x40 DUP4 ADD DUP6 PUSH2 0x5C9 JUMP JUMPDEST PUSH2 0x8EC PUSH1 0x60 DUP4 ADD DUP5 PUSH2 0x4D2 JUMP JUMPDEST SWAP6 SWAP5 POP POP POP POP POP JUMP JUMPDEST PUSH0 DUP2 SWAP1 POP SWAP2 SWAP1 POP JUMP JUMPDEST PUSH2 0x90F PUSH2 0x90A DUP3 PUSH2 0x4FE JUMP JUMPDEST PUSH2 0x8F5 JUMP JUMPDEST DUP3 MSTORE POP POP JUMP JUMPDEST PUSH0 DUP2 SWAP1 POP SWAP2 SWAP1 POP JUMP JUMPDEST PUSH2 0x92F PUSH2 0x92A DUP3 PUSH2 0x4C9 JUMP JUMPDEST PUSH2 0x915 JUMP JUMPDEST DUP3 MSTORE POP POP JUMP JUMPDEST PUSH0 PUSH2 0x940 DUP3 DUP6 PUSH2 0x8FE JUMP JUMPDEST PUSH1 0x20 DUP3 ADD SWAP2 POP PUSH2 0x950 DUP3 DUP5 PUSH2 0x91E JUMP JUMPDEST PUSH1 0x20 DUP3 ADD SWAP2 POP DUP2 SWAP1 POP SWAP4 SWAP3 POP POP POP JUMP INVALID LOG2 PUSH5 0x6970667358 0x22 SLT KECCAK256 0xC9 0xE8 0xE 0xCB PUSH8 0xE34E930AE36D4508 0x26 0x29 0xC8 0xB4 TLOAD 0xA6 0xBC 0xF7 CALLCODE 0xC6 PUSH16 0x10CF8CE6F1F7877D64736F6C63430008 BYTE STOP CALLER "
		},
		"gasEstimates": {
			"creation": {
				"codeDepositCost": "490800",
				"executionCost": "infinite",
				"totalCost": "infinite"
			},
			"external": {
				"checkLinkBalance()": "infinite",
				"getRandomResult()": "2432",
				"randomResult()": "2403",
				"rawFulfillRandomness(bytes32,uint256)": "infinite",
				"requestRandomNumber()": "infinite"
			},
			"internal": {
				"fulfillRandomness(bytes32,uint256)": "22127"
			}
		},
		"methodIdentifiers": {
			"checkLinkBalance()": "a24bf4ff",
			"getRandomResult()": "7390c786",
			"randomResult()": "42619f66",
			"rawFulfillRandomness(bytes32,uint256)": "94985ddd",
			"requestRandomNumber()": "8678a7b2"
		}
	},
	"abi": [
		{
			"inputs": [
				{
					"internalType": "address",
					"name": "_vrfCoordinator",
					"type": "address"
				},
				{
					"internalType": "address",
					"name": "_linkToken",
					"type": "address"
				},
				{
					"internalType": "bytes32",
					"name": "_keyHash",
					"type": "bytes32"
				}
			],
			"stateMutability": "nonpayable",
			"type": "constructor"
		},
		{
			"inputs": [],
			"name": "checkLinkBalance",
			"outputs": [
				{
					"internalType": "uint256",
					"name": "",
					"type": "uint256"
				}
			],
			"stateMutability": "view",
			"type": "function"
		},
		{
			"inputs": [],
			"name": "getRandomResult",
			"outputs": [
				{
					"internalType": "uint256",
					"name": "",
					"type": "uint256"
				}
			],
			"stateMutability": "view",
			"type": "function"
		},
		{
			"inputs": [],
			"name": "randomResult",
			"outputs": [
				{
					"internalType": "uint256",
					"name": "",
					"type": "uint256"
				}
			],
			"stateMutability": "view",
			"type": "function"
		},
		{
			"inputs": [
				{
					"internalType": "bytes32",
					"name": "requestId",
					"type": "bytes32"
				},
				{
					"internalType": "uint256",
					"name": "randomness",
					"type": "uint256"
				}
			],
			"name": "rawFulfillRandomness",
			"outputs": [],
			"stateMutability": "nonpayable",
			"type": "function"
		},
		{
			"inputs": [],
			"name": "requestRandomNumber",
			"outputs": [],
			"stateMutability": "nonpayable",
			"type": "function"
		}
	]
}