{
	".deps/npm/@openzeppelin/contracts/finance/PaymentSplitter.sol": {
		"PaymentSplitter": {
			"abi": [
				{
					"inputs": [
						{
							"internalType": "address[]",
							"name": "payees",
							"type": "address[]"
						},
						{
							"internalType": "uint256[]",
							"name": "shares_",
							"type": "uint256[]"
						}
					],
					"stateMutability": "payable",
					"type": "constructor"
				},
				{
					"inputs": [],
					"name": "FailedCall",
					"type": "error"
				},
				{
					"inputs": [
						{
							"internalType": "uint256",
							"name": "balance",
							"type": "uint256"
						},
						{
							"internalType": "uint256",
							"name": "needed",
							"type": "uint256"
						}
					],
					"name": "InsufficientBalance",
					"type": "error"
				},
				{
					"inputs": [
						{
							"internalType": "address",
							"name": "token",
							"type": "address"
						}
					],
					"name": "SafeERC20FailedOperation",
					"type": "error"
				},
				{
					"anonymous": false,
					"inputs": [
						{
							"indexed": true,
							"internalType": "contract IERC20",
							"name": "token",
							"type": "address"
						},
						{
							"indexed": false,
							"internalType": "address",
							"name": "to",
							"type": "address"
						},
						{
							"indexed": false,
							"internalType": "uint256",
							"name": "amount",
							"type": "uint256"
						}
					],
					"name": "ERC20PaymentReleased",
					"type": "event"
				},
				{
					"anonymous": false,
					"inputs": [
						{
							"indexed": false,
							"internalType": "address",
							"name": "account",
							"type": "address"
						},
						{
							"indexed": false,
							"internalType": "uint256",
							"name": "shares",
							"type": "uint256"
						}
					],
					"name": "PayeeAdded",
					"type": "event"
				},
				{
					"anonymous": false,
					"inputs": [
						{
							"indexed": false,
							"internalType": "address",
							"name": "from",
							"type": "address"
						},
						{
							"indexed": false,
							"internalType": "uint256",
							"name": "amount",
							"type": "uint256"
						}
					],
					"name": "PaymentReceived",
					"type": "event"
				},
				{
					"anonymous": false,
					"inputs": [
						{
							"indexed": false,
							"internalType": "address",
							"name": "to",
							"type": "address"
						},
						{
							"indexed": false,
							"internalType": "uint256",
							"name": "amount",
							"type": "uint256"
						}
					],
					"name": "PaymentReleased",
					"type": "event"
				},
				{
					"inputs": [
						{
							"internalType": "uint256",
							"name": "index",
							"type": "uint256"
						}
					],
					"name": "payee",
					"outputs": [
						{
							"internalType": "address",
							"name": "",
							"type": "address"
						}
					],
					"stateMutability": "view",
					"type": "function"
				},
				{
					"inputs": [
						{
							"internalType": "address",
							"name": "account",
							"type": "address"
						}
					],
					"name": "releasable",
					"outputs": [
						{
							"internalType": "uint256",
							"name": "",
							"type": "uint256"
						}
					],
					"stateMutability": "view",
					"type": "function"
				},
				{
					"inputs": [
						{
							"internalType": "contract IERC20",
							"name": "token",
							"type": "address"
						},
						{
							"internalType": "address",
							"name": "account",
							"type": "address"
						}
					],
					"name": "releasable",
					"outputs": [
						{
							"internalType": "uint256",
							"name": "",
							"type": "uint256"
						}
					],
					"stateMutability": "view",
					"type": "function"
				},
				{
					"inputs": [
						{
							"internalType": "address payable",
							"name": "account",
							"type": "address"
						}
					],
					"name": "release",
					"outputs": [],
					"stateMutability": "nonpayable",
					"type": "function"
				},
				{
					"inputs": [
						{
							"internalType": "contract IERC20",
							"name": "token",
							"type": "address"
						},
						{
							"internalType": "address",
							"name": "account",
							"type": "address"
						}
					],
					"name": "release",
					"outputs": [],
					"stateMutability": "nonpayable",
					"type": "function"
				},
				{
					"inputs": [
						{
							"internalType": "contract IERC20",
							"name": "token",
							"type": "address"
						},
						{
							"internalType": "address",
							"name": "account",
							"type": "address"
						}
					],
					"name": "released",
					"outputs": [
						{
							"internalType": "uint256",
							"name": "",
							"type": "uint256"
						}
					],
					"stateMutability": "view",
					"type": "function"
				},
				{
					"inputs": [
						{
							"internalType": "address",
							"name": "account",
							"type": "address"
						}
					],
					"name": "released",
					"outputs": [
						{
							"internalType": "uint256",
							"name": "",
							"type": "uint256"
						}
					],
					"stateMutability": "view",
					"type": "function"
				},
				{
					"inputs": [
						{
							"internalType": "address",
							"name": "account",
							"type": "address"
						}
					],
					"name": "shares",
					"outputs": [
						{
							"internalType": "uint256",
							"name": "",
							"type": "uint256"
						}
					],
					"stateMutability": "view",
					"type": "function"
				},
				{
					"inputs": [
						{
							"internalType": "contract IERC20",
							"name": "token",
							"type": "address"
						}
					],
					"name": "totalReleased",
					"outputs": [
						{
							"internalType": "uint256",
							"name": "",
							"type": "uint256"
						}
					],
					"stateMutability": "view",
					"type": "function"
				},
				{
					"inputs": [],
					"name": "totalReleased",
					"outputs": [
						{
							"internalType": "uint256",
							"name": "",
							"type": "uint256"
						}
					],
					"stateMutability": "view",
					"type": "function"
				},
				{
					"inputs": [],
					"name": "totalShares",
					"outputs": [
						{
							"internalType": "uint256",
							"name": "",
							"type": "uint256"
						}
					],
					"stateMutability": "view",
					"type": "function"
				},
				{
					"stateMutability": "payable",
					"type": "receive"
				}
			],
			"devdoc": {
				"details": "This contract allows to split Ether payments among a group of accounts. The sender does not need to be aware that the Ether will be split in this way, since it is handled transparently by the contract. The split can be in equal parts or in any other arbitrary proportion. The way this is specified is by assigning each account to a number of shares. Of all the Ether that this contract receives, each account will then be able to claim an amount proportional to the percentage of total shares they were assigned. The distribution of shares is set at the time of contract deployment and can't be updated thereafter. `PaymentSplitter` follows a _pull payment_ model. This means that payments are not automatically forwarded to the accounts but kept in this contract, and the actual transfer is triggered as a separate step by calling the {release} function. NOTE: This contract assumes that ERC20 tokens will behave similarly to native tokens (Ether). Rebasing tokens, and tokens that apply fees during transfers, are likely to not be supported as expected. If in doubt, we encourage you to run tests before sending real value to this contract.",
				"errors": {
					"FailedCall()": [
						{
							"details": "A call to an address target failed. The target may have reverted."
						}
					],
					"InsufficientBalance(uint256,uint256)": [
						{
							"details": "The ETH balance of the account is not enough to perform the operation."
						}
					],
					"SafeERC20FailedOperation(address)": [
						{
							"details": "An operation with an ERC-20 token failed."
						}
					]
				},
				"kind": "dev",
				"methods": {
					"constructor": {
						"details": "Creates an instance of `PaymentSplitter` where each account in `payees` is assigned the number of shares at the matching position in the `shares` array. All addresses in `payees` must be non-zero. Both arrays must have the same non-zero length, and there must be no duplicates in `payees`."
					},
					"payee(uint256)": {
						"details": "Getter for the address of the payee number `index`."
					},
					"releasable(address)": {
						"details": "Getter for the amount of payee's releasable Ether."
					},
					"releasable(address,address)": {
						"details": "Getter for the amount of payee's releasable `token` tokens. `token` should be the address of an IERC20 contract."
					},
					"release(address)": {
						"details": "Triggers a transfer to `account` of the amount of Ether they are owed, according to their percentage of the total shares and their previous withdrawals."
					},
					"release(address,address)": {
						"details": "Triggers a transfer to `account` of the amount of `token` tokens they are owed, according to their percentage of the total shares and their previous withdrawals. `token` must be the address of an IERC20 contract."
					},
					"released(address)": {
						"details": "Getter for the amount of Ether already released to a payee."
					},
					"released(address,address)": {
						"details": "Getter for the amount of `token` tokens already released to a payee. `token` should be the address of an IERC20 contract."
					},
					"shares(address)": {
						"details": "Getter for the amount of shares held by an account."
					},
					"totalReleased()": {
						"details": "Getter for the total amount of Ether already released."
					},
					"totalReleased(address)": {
						"details": "Getter for the total amount of `token` already released. `token` should be the address of an IERC20 contract."
					},
					"totalShares()": {
						"details": "Getter for the total shares held by payees."
					}
				},
				"title": "PaymentSplitter",
				"version": 1
			},
			"evm": {
				"assembly": "    /* \".deps/npm/@openzeppelin/contracts/finance/PaymentSplitter.sol\":1471:8571  contract PaymentSplitter is Context {... */\n  mstore(0x40, 0x80)\n    /* \".deps/npm/@openzeppelin/contracts/finance/PaymentSplitter.sol\":2448:2807  constructor(address[] memory payees, uint256[] memory shares_) payable {... */\n  mload(0x40)\n  sub(codesize, bytecodeSize)\n  dup1\n  bytecodeSize\n  dup4\n  codecopy\n  dup2\n  dup2\n  add\n  0x40\n  mstore\n  dup2\n  add\n  swap1\n  tag_1\n  swap2\n  swap1\n  tag_2\n  jump\t// in\ntag_1:\n    /* \".deps/npm/@openzeppelin/contracts/finance/PaymentSplitter.sol\":2554:2561  shares_ */\n  dup1\n    /* \".deps/npm/@openzeppelin/contracts/finance/PaymentSplitter.sol\":2554:2568  shares_.length */\n  mload\n    /* \".deps/npm/@openzeppelin/contracts/finance/PaymentSplitter.sol\":2537:2543  payees */\n  dup3\n    /* \".deps/npm/@openzeppelin/contracts/finance/PaymentSplitter.sol\":2537:2550  payees.length */\n  mload\n    /* \".deps/npm/@openzeppelin/contracts/finance/PaymentSplitter.sol\":2537:2568  payees.length == shares_.length */\n  eq\n    /* \".deps/npm/@openzeppelin/contracts/finance/PaymentSplitter.sol\":2529:2623  require(payees.length == shares_.length, \"PaymentSplitter: payees and shares length mismatch\") */\n  tag_5\n  jumpi\n  mload(0x40)\n  0x08c379a000000000000000000000000000000000000000000000000000000000\n  dup2\n  mstore\n  0x04\n  add\n  tag_6\n  swap1\n  tag_7\n  jump\t// in\ntag_6:\n  mload(0x40)\n  dup1\n  swap2\n  sub\n  swap1\n  revert\ntag_5:\n    /* \".deps/npm/@openzeppelin/contracts/finance/PaymentSplitter.sol\":2657:2658  0 */\n  0x00\n    /* \".deps/npm/@openzeppelin/contracts/finance/PaymentSplitter.sol\":2641:2647  payees */\n  dup3\n    /* \".deps/npm/@openzeppelin/contracts/finance/PaymentSplitter.sol\":2641:2654  payees.length */\n  mload\n    /* \".deps/npm/@openzeppelin/contracts/finance/PaymentSplitter.sol\":2641:2658  payees.length > 0 */\n  gt\n    /* \".deps/npm/@openzeppelin/contracts/finance/PaymentSplitter.sol\":2633:2689  require(payees.length > 0, \"PaymentSplitter: no payees\") */\n  tag_8\n  jumpi\n  mload(0x40)\n  0x08c379a000000000000000000000000000000000000000000000000000000000\n  dup2\n  mstore\n  0x04\n  add\n  tag_9\n  swap1\n  tag_10\n  jump\t// in\ntag_9:\n  mload(0x40)\n  dup1\n  swap2\n  sub\n  swap1\n  revert\ntag_8:\n    /* \".deps/npm/@openzeppelin/contracts/finance/PaymentSplitter.sol\":2705:2714  uint256 i */\n  0x00\n    /* \".deps/npm/@openzeppelin/contracts/finance/PaymentSplitter.sol\":2700:2801  for (uint256 i = 0; i < payees.length; i++) {... */\ntag_11:\n    /* \".deps/npm/@openzeppelin/contracts/finance/PaymentSplitter.sol\":2724:2730  payees */\n  dup3\n    /* \".deps/npm/@openzeppelin/contracts/finance/PaymentSplitter.sol\":2724:2737  payees.length */\n  mload\n    /* \".deps/npm/@openzeppelin/contracts/finance/PaymentSplitter.sol\":2720:2721  i */\n  dup2\n    /* \".deps/npm/@openzeppelin/contracts/finance/PaymentSplitter.sol\":2720:2737  i < payees.length */\n  lt\n    /* \".deps/npm/@openzeppelin/contracts/finance/PaymentSplitter.sol\":2700:2801  for (uint256 i = 0; i < payees.length; i++) {... */\n  iszero\n  tag_12\n  jumpi\n    /* \".deps/npm/@openzeppelin/contracts/finance/PaymentSplitter.sol\":2758:2790  _addPayee(payees[i], shares_[i]) */\n  tag_14\n    /* \".deps/npm/@openzeppelin/contracts/finance/PaymentSplitter.sol\":2768:2774  payees */\n  dup4\n    /* \".deps/npm/@openzeppelin/contracts/finance/PaymentSplitter.sol\":2775:2776  i */\n  dup3\n    /* \".deps/npm/@openzeppelin/contracts/finance/PaymentSplitter.sol\":2768:2777  payees[i] */\n  dup2\n  mload\n  dup2\n  lt\n  tag_15\n  jumpi\n  tag_16\n  tag_17\n  jump\t// in\ntag_16:\ntag_15:\n  0x20\n  mul\n  0x20\n  add\n  add\n  mload\n    /* \".deps/npm/@openzeppelin/contracts/finance/PaymentSplitter.sol\":2779:2786  shares_ */\n  dup4\n    /* \".deps/npm/@openzeppelin/contracts/finance/PaymentSplitter.sol\":2787:2788  i */\n  dup4\n    /* \".deps/npm/@openzeppelin/contracts/finance/PaymentSplitter.sol\":2779:2789  shares_[i] */\n  dup2\n  mload\n  dup2\n  lt\n  tag_18\n  jumpi\n  tag_19\n  tag_17\n  jump\t// in\ntag_19:\ntag_18:\n  0x20\n  mul\n  0x20\n  add\n  add\n  mload\n    /* \".deps/npm/@openzeppelin/contracts/finance/PaymentSplitter.sol\":2758:2767  _addPayee */\n  shl(0x20, tag_20)\n    /* \".deps/npm/@openzeppelin/contracts/finance/PaymentSplitter.sol\":2758:2790  _addPayee(payees[i], shares_[i]) */\n  0x20\n  shr\n  jump\t// in\ntag_14:\n    /* \".deps/npm/@openzeppelin/contracts/finance/PaymentSplitter.sol\":2739:2742  i++ */\n  dup1\n  dup1\n  0x01\n  add\n  swap2\n  pop\n  pop\n    /* \".deps/npm/@openzeppelin/contracts/finance/PaymentSplitter.sol\":2700:2801  for (uint256 i = 0; i < payees.length; i++) {... */\n  jump(tag_11)\ntag_12:\n  pop\n    /* \".deps/npm/@openzeppelin/contracts/finance/PaymentSplitter.sol\":2448:2807  constructor(address[] memory payees, uint256[] memory shares_) payable {... */\n  pop\n  pop\n    /* \".deps/npm/@openzeppelin/contracts/finance/PaymentSplitter.sol\":1471:8571  contract PaymentSplitter is Context {... */\n  jump(tag_21)\n    /* \".deps/npm/@openzeppelin/contracts/finance/PaymentSplitter.sol\":8105:8569  function _addPayee(address account, uint256 shares_) private {... */\ntag_20:\n    /* \".deps/npm/@openzeppelin/contracts/finance/PaymentSplitter.sol\":8203:8204  0 */\n  0x00\n    /* \".deps/npm/@openzeppelin/contracts/finance/PaymentSplitter.sol\":8184:8205  account != address(0) */\n  0xffffffffffffffffffffffffffffffffffffffff\n  and\n    /* \".deps/npm/@openzeppelin/contracts/finance/PaymentSplitter.sol\":8184:8191  account */\n  dup3\n    /* \".deps/npm/@openzeppelin/contracts/finance/PaymentSplitter.sol\":8184:8205  account != address(0) */\n  0xffffffffffffffffffffffffffffffffffffffff\n  and\n  sub\n    /* \".deps/npm/@openzeppelin/contracts/finance/PaymentSplitter.sol\":8176:8254  require(account != address(0), \"PaymentSplitter: account is the zero address\") */\n  tag_23\n  jumpi\n  mload(0x40)\n  0x08c379a000000000000000000000000000000000000000000000000000000000\n  dup2\n  mstore\n  0x04\n  add\n  tag_24\n  swap1\n  tag_25\n  jump\t// in\ntag_24:\n  mload(0x40)\n  dup1\n  swap2\n  sub\n  swap1\n  revert\ntag_23:\n    /* \".deps/npm/@openzeppelin/contracts/finance/PaymentSplitter.sol\":8282:8283  0 */\n  0x00\n    /* \".deps/npm/@openzeppelin/contracts/finance/PaymentSplitter.sol\":8272:8279  shares_ */\n  dup2\n    /* \".deps/npm/@openzeppelin/contracts/finance/PaymentSplitter.sol\":8272:8283  shares_ > 0 */\n  gt\n    /* \".deps/npm/@openzeppelin/contracts/finance/PaymentSplitter.sol\":8264:8317  require(shares_ > 0, \"PaymentSplitter: shares are 0\") */\n  tag_26\n  jumpi\n  mload(0x40)\n  0x08c379a000000000000000000000000000000000000000000000000000000000\n  dup2\n  mstore\n  0x04\n  add\n  tag_27\n  swap1\n  tag_28\n  jump\t// in\ntag_27:\n  mload(0x40)\n  dup1\n  swap2\n  sub\n  swap1\n  revert\ntag_26:\n    /* \".deps/npm/@openzeppelin/contracts/finance/PaymentSplitter.sol\":8355:8356  0 */\n  0x00\n    /* \".deps/npm/@openzeppelin/contracts/finance/PaymentSplitter.sol\":8335:8342  _shares */\n  0x02\n    /* \".deps/npm/@openzeppelin/contracts/finance/PaymentSplitter.sol\":8335:8351  _shares[account] */\n  0x00\n    /* \".deps/npm/@openzeppelin/contracts/finance/PaymentSplitter.sol\":8343:8350  account */\n  dup5\n    /* \".deps/npm/@openzeppelin/contracts/finance/PaymentSplitter.sol\":8335:8351  _shares[account] */\n  0xffffffffffffffffffffffffffffffffffffffff\n  and\n  0xffffffffffffffffffffffffffffffffffffffff\n  and\n  dup2\n  mstore\n  0x20\n  add\n  swap1\n  dup2\n  mstore\n  0x20\n  add\n  0x00\n  keccak256\n  sload\n    /* \".deps/npm/@openzeppelin/contracts/finance/PaymentSplitter.sol\":8335:8356  _shares[account] == 0 */\n  eq\n    /* \".deps/npm/@openzeppelin/contracts/finance/PaymentSplitter.sol\":8327:8404  require(_shares[account] == 0, \"PaymentSplitter: account already has shares\") */\n  tag_29\n  jumpi\n  mload(0x40)\n  0x08c379a000000000000000000000000000000000000000000000000000000000\n  dup2\n  mstore\n  0x04\n  add\n  tag_30\n  swap1\n  tag_31\n  jump\t// in\ntag_30:\n  mload(0x40)\n  dup1\n  swap2\n  sub\n  swap1\n  revert\ntag_29:\n    /* \".deps/npm/@openzeppelin/contracts/finance/PaymentSplitter.sol\":8415:8422  _payees */\n  0x04\n    /* \".deps/npm/@openzeppelin/contracts/finance/PaymentSplitter.sol\":8428:8435  account */\n  dup3\n    /* \".deps/npm/@openzeppelin/contracts/finance/PaymentSplitter.sol\":8415:8436  _payees.push(account) */\n  swap1\n  dup1\n  0x01\n  dup2\n  sload\n  add\n  dup1\n  dup3\n  sstore\n  dup1\n  swap2\n  pop\n  pop\n  0x01\n  swap1\n  sub\n  swap1\n  0x00\n  mstore\n  keccak256(0x00, 0x20)\n  add\n  0x00\n  swap1\n  swap2\n  swap1\n  swap2\n  swap1\n  swap2\n  0x0100\n  exp\n  dup2\n  sload\n  dup2\n  0xffffffffffffffffffffffffffffffffffffffff\n  mul\n  not\n  and\n  swap1\n  dup4\n  0xffffffffffffffffffffffffffffffffffffffff\n  and\n  mul\n  or\n  swap1\n  sstore\n  pop\n    /* \".deps/npm/@openzeppelin/contracts/finance/PaymentSplitter.sol\":8465:8472  shares_ */\n  dup1\n    /* \".deps/npm/@openzeppelin/contracts/finance/PaymentSplitter.sol\":8446:8453  _shares */\n  0x02\n    /* \".deps/npm/@openzeppelin/contracts/finance/PaymentSplitter.sol\":8446:8462  _shares[account] */\n  0x00\n    /* \".deps/npm/@openzeppelin/contracts/finance/PaymentSplitter.sol\":8454:8461  account */\n  dup5\n    /* \".deps/npm/@openzeppelin/contracts/finance/PaymentSplitter.sol\":8446:8462  _shares[account] */\n  0xffffffffffffffffffffffffffffffffffffffff\n  and\n  0xffffffffffffffffffffffffffffffffffffffff\n  and\n  dup2\n  mstore\n  0x20\n  add\n  swap1\n  dup2\n  mstore\n  0x20\n  add\n  0x00\n  keccak256\n    /* \".deps/npm/@openzeppelin/contracts/finance/PaymentSplitter.sol\":8446:8472  _shares[account] = shares_ */\n  dup2\n  swap1\n  sstore\n  pop\n    /* \".deps/npm/@openzeppelin/contracts/finance/PaymentSplitter.sol\":8512:8519  shares_ */\n  dup1\n    /* \".deps/npm/@openzeppelin/contracts/finance/PaymentSplitter.sol\":8497:8509  _totalShares */\n  sload(0x00)\n    /* \".deps/npm/@openzeppelin/contracts/finance/PaymentSplitter.sol\":8497:8519  _totalShares + shares_ */\n  tag_33\n  swap2\n  swap1\n  tag_34\n  jump\t// in\ntag_33:\n    /* \".deps/npm/@openzeppelin/contracts/finance/PaymentSplitter.sol\":8482:8494  _totalShares */\n  0x00\n    /* \".deps/npm/@openzeppelin/contracts/finance/PaymentSplitter.sol\":8482:8519  _totalShares = _totalShares + shares_ */\n  dup2\n  swap1\n  sstore\n  pop\n    /* \".deps/npm/@openzeppelin/contracts/finance/PaymentSplitter.sol\":8534:8562  PayeeAdded(account, shares_) */\n  0x40c340f65e17194d14ddddb073d3c9f888e3cb52b5aae0c6c7706b4fbc905fac\n    /* \".deps/npm/@openzeppelin/contracts/finance/PaymentSplitter.sol\":8545:8552  account */\n  dup3\n    /* \".deps/npm/@openzeppelin/contracts/finance/PaymentSplitter.sol\":8554:8561  shares_ */\n  dup3\n    /* \".deps/npm/@openzeppelin/contracts/finance/PaymentSplitter.sol\":8534:8562  PayeeAdded(account, shares_) */\n  mload(0x40)\n  tag_35\n  swap3\n  swap2\n  swap1\n  tag_36\n  jump\t// in\ntag_35:\n  mload(0x40)\n  dup1\n  swap2\n  sub\n  swap1\n  log1\n    /* \".deps/npm/@openzeppelin/contracts/finance/PaymentSplitter.sol\":8105:8569  function _addPayee(address account, uint256 shares_) private {... */\n  pop\n  pop\n  jump\t// out\n    /* \"#utility.yul\":7:82   */\ntag_37:\n    /* \"#utility.yul\":40:46   */\n  0x00\n    /* \"#utility.yul\":73:75   */\n  0x40\n    /* \"#utility.yul\":67:76   */\n  mload\n    /* \"#utility.yul\":57:76   */\n  swap1\n  pop\n    /* \"#utility.yul\":7:82   */\n  swap1\n  jump\t// out\n    /* \"#utility.yul\":88:205   */\ntag_38:\n    /* \"#utility.yul\":197:198   */\n  0x00\n    /* \"#utility.yul\":194:195   */\n  dup1\n    /* \"#utility.yul\":187:199   */\n  revert\n    /* \"#utility.yul\":211:328   */\ntag_39:\n    /* \"#utility.yul\":320:321   */\n  0x00\n    /* \"#utility.yul\":317:318   */\n  dup1\n    /* \"#utility.yul\":310:322   */\n  revert\n    /* \"#utility.yul\":334:451   */\ntag_40:\n    /* \"#utility.yul\":443:444   */\n  0x00\n    /* \"#utility.yul\":440:441   */\n  dup1\n    /* \"#utility.yul\":433:445   */\n  revert\n    /* \"#utility.yul\":457:559   */\ntag_41:\n    /* \"#utility.yul\":498:504   */\n  0x00\n    /* \"#utility.yul\":549:551   */\n  0x1f\n    /* \"#utility.yul\":545:552   */\n  not\n    /* \"#utility.yul\":540:542   */\n  0x1f\n    /* \"#utility.yul\":533:538   */\n  dup4\n    /* \"#utility.yul\":529:543   */\n  add\n    /* \"#utility.yul\":525:553   */\n  and\n    /* \"#utility.yul\":515:553   */\n  swap1\n  pop\n    /* \"#utility.yul\":457:559   */\n  swap2\n  swap1\n  pop\n  jump\t// out\n    /* \"#utility.yul\":565:745   */\ntag_42:\n    /* \"#utility.yul\":613:690   */\n  0x4e487b7100000000000000000000000000000000000000000000000000000000\n    /* \"#utility.yul\":610:611   */\n  0x00\n    /* \"#utility.yul\":603:691   */\n  mstore\n    /* \"#utility.yul\":710:714   */\n  0x41\n    /* \"#utility.yul\":707:708   */\n  0x04\n    /* \"#utility.yul\":700:715   */\n  mstore\n    /* \"#utility.yul\":734:738   */\n  0x24\n    /* \"#utility.yul\":731:732   */\n  0x00\n    /* \"#utility.yul\":724:739   */\n  revert\n    /* \"#utility.yul\":751:1032   */\ntag_43:\n    /* \"#utility.yul\":834:861   */\n  tag_81\n    /* \"#utility.yul\":856:860   */\n  dup3\n    /* \"#utility.yul\":834:861   */\n  tag_41\n  jump\t// in\ntag_81:\n    /* \"#utility.yul\":826:832   */\n  dup2\n    /* \"#utility.yul\":822:862   */\n  add\n    /* \"#utility.yul\":964:970   */\n  dup2\n    /* \"#utility.yul\":952:962   */\n  dup2\n    /* \"#utility.yul\":949:971   */\n  lt\n    /* \"#utility.yul\":928:946   */\n  0xffffffffffffffff\n    /* \"#utility.yul\":916:926   */\n  dup3\n    /* \"#utility.yul\":913:947   */\n  gt\n    /* \"#utility.yul\":910:972   */\n  or\n    /* \"#utility.yul\":907:995   */\n  iszero\n  tag_82\n  jumpi\n    /* \"#utility.yul\":975:993   */\n  tag_83\n  tag_42\n  jump\t// in\ntag_83:\n    /* \"#utility.yul\":907:995   */\ntag_82:\n    /* \"#utility.yul\":1015:1025   */\n  dup1\n    /* \"#utility.yul\":1011:1013   */\n  0x40\n    /* \"#utility.yul\":1004:1026   */\n  mstore\n    /* \"#utility.yul\":794:1032   */\n  pop\n    /* \"#utility.yul\":751:1032   */\n  pop\n  pop\n  jump\t// out\n    /* \"#utility.yul\":1038:1167   */\ntag_44:\n    /* \"#utility.yul\":1072:1078   */\n  0x00\n    /* \"#utility.yul\":1099:1119   */\n  tag_85\n  tag_37\n  jump\t// in\ntag_85:\n    /* \"#utility.yul\":1089:1119   */\n  swap1\n  pop\n    /* \"#utility.yul\":1128:1161   */\n  tag_86\n    /* \"#utility.yul\":1156:1160   */\n  dup3\n    /* \"#utility.yul\":1148:1154   */\n  dup3\n    /* \"#utility.yul\":1128:1161   */\n  tag_43\n  jump\t// in\ntag_86:\n    /* \"#utility.yul\":1038:1167   */\n  swap2\n  swap1\n  pop\n  jump\t// out\n    /* \"#utility.yul\":1173:1484   */\ntag_45:\n    /* \"#utility.yul\":1250:1254   */\n  0x00\n    /* \"#utility.yul\":1340:1358   */\n  0xffffffffffffffff\n    /* \"#utility.yul\":1332:1338   */\n  dup3\n    /* \"#utility.yul\":1329:1359   */\n  gt\n    /* \"#utility.yul\":1326:1382   */\n  iszero\n  tag_88\n  jumpi\n    /* \"#utility.yul\":1362:1380   */\n  tag_89\n  tag_42\n  jump\t// in\ntag_89:\n    /* \"#utility.yul\":1326:1382   */\ntag_88:\n    /* \"#utility.yul\":1412:1416   */\n  0x20\n    /* \"#utility.yul\":1404:1410   */\n  dup3\n    /* \"#utility.yul\":1400:1417   */\n  mul\n    /* \"#utility.yul\":1392:1417   */\n  swap1\n  pop\n    /* \"#utility.yul\":1472:1476   */\n  0x20\n    /* \"#utility.yul\":1466:1470   */\n  dup2\n    /* \"#utility.yul\":1462:1477   */\n  add\n    /* \"#utility.yul\":1454:1477   */\n  swap1\n  pop\n    /* \"#utility.yul\":1173:1484   */\n  swap2\n  swap1\n  pop\n  jump\t// out\n    /* \"#utility.yul\":1490:1607   */\ntag_46:\n    /* \"#utility.yul\":1599:1600   */\n  0x00\n    /* \"#utility.yul\":1596:1597   */\n  dup1\n    /* \"#utility.yul\":1589:1601   */\n  revert\n    /* \"#utility.yul\":1613:1739   */\ntag_47:\n    /* \"#utility.yul\":1650:1657   */\n  0x00\n    /* \"#utility.yul\":1690:1732   */\n  0xffffffffffffffffffffffffffffffffffffffff\n    /* \"#utility.yul\":1683:1688   */\n  dup3\n    /* \"#utility.yul\":1679:1733   */\n  and\n    /* \"#utility.yul\":1668:1733   */\n  swap1\n  pop\n    /* \"#utility.yul\":1613:1739   */\n  swap2\n  swap1\n  pop\n  jump\t// out\n    /* \"#utility.yul\":1745:1841   */\ntag_48:\n    /* \"#utility.yul\":1782:1789   */\n  0x00\n    /* \"#utility.yul\":1811:1835   */\n  tag_93\n    /* \"#utility.yul\":1829:1834   */\n  dup3\n    /* \"#utility.yul\":1811:1835   */\n  tag_47\n  jump\t// in\ntag_93:\n    /* \"#utility.yul\":1800:1835   */\n  swap1\n  pop\n    /* \"#utility.yul\":1745:1841   */\n  swap2\n  swap1\n  pop\n  jump\t// out\n    /* \"#utility.yul\":1847:1969   */\ntag_49:\n    /* \"#utility.yul\":1920:1944   */\n  tag_95\n    /* \"#utility.yul\":1938:1943   */\n  dup2\n    /* \"#utility.yul\":1920:1944   */\n  tag_48\n  jump\t// in\ntag_95:\n    /* \"#utility.yul\":1913:1918   */\n  dup2\n    /* \"#utility.yul\":1910:1945   */\n  eq\n    /* \"#utility.yul\":1900:1963   */\n  tag_96\n  jumpi\n    /* \"#utility.yul\":1959:1960   */\n  0x00\n    /* \"#utility.yul\":1956:1957   */\n  dup1\n    /* \"#utility.yul\":1949:1961   */\n  revert\n    /* \"#utility.yul\":1900:1963   */\ntag_96:\n    /* \"#utility.yul\":1847:1969   */\n  pop\n  jump\t// out\n    /* \"#utility.yul\":1975:2118   */\ntag_50:\n    /* \"#utility.yul\":2032:2037   */\n  0x00\n    /* \"#utility.yul\":2063:2069   */\n  dup2\n    /* \"#utility.yul\":2057:2070   */\n  mload\n    /* \"#utility.yul\":2048:2070   */\n  swap1\n  pop\n    /* \"#utility.yul\":2079:2112   */\n  tag_98\n    /* \"#utility.yul\":2106:2111   */\n  dup2\n    /* \"#utility.yul\":2079:2112   */\n  tag_49\n  jump\t// in\ntag_98:\n    /* \"#utility.yul\":1975:2118   */\n  swap3\n  swap2\n  pop\n  pop\n  jump\t// out\n    /* \"#utility.yul\":2141:2873   */\ntag_51:\n    /* \"#utility.yul\":2248:2253   */\n  0x00\n    /* \"#utility.yul\":2273:2354   */\n  tag_100\n    /* \"#utility.yul\":2289:2353   */\n  tag_101\n    /* \"#utility.yul\":2346:2352   */\n  dup5\n    /* \"#utility.yul\":2289:2353   */\n  tag_45\n  jump\t// in\ntag_101:\n    /* \"#utility.yul\":2273:2354   */\n  tag_44\n  jump\t// in\ntag_100:\n    /* \"#utility.yul\":2264:2354   */\n  swap1\n  pop\n    /* \"#utility.yul\":2374:2379   */\n  dup1\n    /* \"#utility.yul\":2403:2409   */\n  dup4\n    /* \"#utility.yul\":2396:2401   */\n  dup3\n    /* \"#utility.yul\":2389:2410   */\n  mstore\n    /* \"#utility.yul\":2437:2441   */\n  0x20\n    /* \"#utility.yul\":2430:2435   */\n  dup3\n    /* \"#utility.yul\":2426:2442   */\n  add\n    /* \"#utility.yul\":2419:2442   */\n  swap1\n  pop\n    /* \"#utility.yul\":2490:2494   */\n  0x20\n    /* \"#utility.yul\":2482:2488   */\n  dup5\n    /* \"#utility.yul\":2478:2495   */\n  mul\n    /* \"#utility.yul\":2470:2476   */\n  dup4\n    /* \"#utility.yul\":2466:2496   */\n  add\n    /* \"#utility.yul\":2519:2522   */\n  dup6\n    /* \"#utility.yul\":2511:2517   */\n  dup2\n    /* \"#utility.yul\":2508:2523   */\n  gt\n    /* \"#utility.yul\":2505:2627   */\n  iszero\n  tag_102\n  jumpi\n    /* \"#utility.yul\":2538:2617   */\n  tag_103\n  tag_46\n  jump\t// in\ntag_103:\n    /* \"#utility.yul\":2505:2627   */\ntag_102:\n    /* \"#utility.yul\":2653:2659   */\n  dup4\n    /* \"#utility.yul\":2636:2867   */\ntag_104:\n    /* \"#utility.yul\":2670:2676   */\n  dup2\n    /* \"#utility.yul\":2665:2668   */\n  dup2\n    /* \"#utility.yul\":2662:2677   */\n  lt\n    /* \"#utility.yul\":2636:2867   */\n  iszero\n  tag_106\n  jumpi\n    /* \"#utility.yul\":2745:2748   */\n  dup1\n    /* \"#utility.yul\":2774:2822   */\n  tag_107\n    /* \"#utility.yul\":2818:2821   */\n  dup9\n    /* \"#utility.yul\":2806:2816   */\n  dup3\n    /* \"#utility.yul\":2774:2822   */\n  tag_50\n  jump\t// in\ntag_107:\n    /* \"#utility.yul\":2769:2772   */\n  dup5\n    /* \"#utility.yul\":2762:2823   */\n  mstore\n    /* \"#utility.yul\":2852:2856   */\n  0x20\n    /* \"#utility.yul\":2847:2850   */\n  dup5\n    /* \"#utility.yul\":2843:2857   */\n  add\n    /* \"#utility.yul\":2836:2857   */\n  swap4\n  pop\n    /* \"#utility.yul\":2712:2867   */\n  pop\n    /* \"#utility.yul\":2696:2700   */\n  0x20\n    /* \"#utility.yul\":2691:2694   */\n  dup2\n    /* \"#utility.yul\":2687:2701   */\n  add\n    /* \"#utility.yul\":2680:2701   */\n  swap1\n  pop\n    /* \"#utility.yul\":2636:2867   */\n  jump(tag_104)\ntag_106:\n    /* \"#utility.yul\":2640:2661   */\n  pop\n    /* \"#utility.yul\":2254:2873   */\n  pop\n  pop\n    /* \"#utility.yul\":2141:2873   */\n  swap4\n  swap3\n  pop\n  pop\n  pop\n  jump\t// out\n    /* \"#utility.yul\":2896:3281   */\ntag_52:\n    /* \"#utility.yul\":2978:2983   */\n  0x00\n    /* \"#utility.yul\":3027:3030   */\n  dup3\n    /* \"#utility.yul\":3020:3024   */\n  0x1f\n    /* \"#utility.yul\":3012:3018   */\n  dup4\n    /* \"#utility.yul\":3008:3025   */\n  add\n    /* \"#utility.yul\":3004:3031   */\n  slt\n    /* \"#utility.yul\":2994:3116   */\n  tag_109\n  jumpi\n    /* \"#utility.yul\":3035:3114   */\n  tag_110\n  tag_40\n  jump\t// in\ntag_110:\n    /* \"#utility.yul\":2994:3116   */\ntag_109:\n    /* \"#utility.yul\":3145:3151   */\n  dup2\n    /* \"#utility.yul\":3139:3152   */\n  mload\n    /* \"#utility.yul\":3170:3275   */\n  tag_111\n    /* \"#utility.yul\":3271:3274   */\n  dup5\n    /* \"#utility.yul\":3263:3269   */\n  dup3\n    /* \"#utility.yul\":3256:3260   */\n  0x20\n    /* \"#utility.yul\":3248:3254   */\n  dup7\n    /* \"#utility.yul\":3244:3261   */\n  add\n    /* \"#utility.yul\":3170:3275   */\n  tag_51\n  jump\t// in\ntag_111:\n    /* \"#utility.yul\":3161:3275   */\n  swap2\n  pop\n    /* \"#utility.yul\":2984:3281   */\n  pop\n    /* \"#utility.yul\":2896:3281   */\n  swap3\n  swap2\n  pop\n  pop\n  jump\t// out\n    /* \"#utility.yul\":3287:3598   */\ntag_53:\n    /* \"#utility.yul\":3364:3368   */\n  0x00\n    /* \"#utility.yul\":3454:3472   */\n  0xffffffffffffffff\n    /* \"#utility.yul\":3446:3452   */\n  dup3\n    /* \"#utility.yul\":3443:3473   */\n  gt\n    /* \"#utility.yul\":3440:3496   */\n  iszero\n  tag_113\n  jumpi\n    /* \"#utility.yul\":3476:3494   */\n  tag_114\n  tag_42\n  jump\t// in\ntag_114:\n    /* \"#utility.yul\":3440:3496   */\ntag_113:\n    /* \"#utility.yul\":3526:3530   */\n  0x20\n    /* \"#utility.yul\":3518:3524   */\n  dup3\n    /* \"#utility.yul\":3514:3531   */\n  mul\n    /* \"#utility.yul\":3506:3531   */\n  swap1\n  pop\n    /* \"#utility.yul\":3586:3590   */\n  0x20\n    /* \"#utility.yul\":3580:3584   */\n  dup2\n    /* \"#utility.yul\":3576:3591   */\n  add\n    /* \"#utility.yul\":3568:3591   */\n  swap1\n  pop\n    /* \"#utility.yul\":3287:3598   */\n  swap2\n  swap1\n  pop\n  jump\t// out\n    /* \"#utility.yul\":3604:3681   */\ntag_54:\n    /* \"#utility.yul\":3641:3648   */\n  0x00\n    /* \"#utility.yul\":3670:3675   */\n  dup2\n    /* \"#utility.yul\":3659:3675   */\n  swap1\n  pop\n    /* \"#utility.yul\":3604:3681   */\n  swap2\n  swap1\n  pop\n  jump\t// out\n    /* \"#utility.yul\":3687:3809   */\ntag_55:\n    /* \"#utility.yul\":3760:3784   */\n  tag_117\n    /* \"#utility.yul\":3778:3783   */\n  dup2\n    /* \"#utility.yul\":3760:3784   */\n  tag_54\n  jump\t// in\ntag_117:\n    /* \"#utility.yul\":3753:3758   */\n  dup2\n    /* \"#utility.yul\":3750:3785   */\n  eq\n    /* \"#utility.yul\":3740:3803   */\n  tag_118\n  jumpi\n    /* \"#utility.yul\":3799:3800   */\n  0x00\n    /* \"#utility.yul\":3796:3797   */\n  dup1\n    /* \"#utility.yul\":3789:3801   */\n  revert\n    /* \"#utility.yul\":3740:3803   */\ntag_118:\n    /* \"#utility.yul\":3687:3809   */\n  pop\n  jump\t// out\n    /* \"#utility.yul\":3815:3958   */\ntag_56:\n    /* \"#utility.yul\":3872:3877   */\n  0x00\n    /* \"#utility.yul\":3903:3909   */\n  dup2\n    /* \"#utility.yul\":3897:3910   */\n  mload\n    /* \"#utility.yul\":3888:3910   */\n  swap1\n  pop\n    /* \"#utility.yul\":3919:3952   */\n  tag_120\n    /* \"#utility.yul\":3946:3951   */\n  dup2\n    /* \"#utility.yul\":3919:3952   */\n  tag_55\n  jump\t// in\ntag_120:\n    /* \"#utility.yul\":3815:3958   */\n  swap3\n  swap2\n  pop\n  pop\n  jump\t// out\n    /* \"#utility.yul\":3981:4713   */\ntag_57:\n    /* \"#utility.yul\":4088:4093   */\n  0x00\n    /* \"#utility.yul\":4113:4194   */\n  tag_122\n    /* \"#utility.yul\":4129:4193   */\n  tag_123\n    /* \"#utility.yul\":4186:4192   */\n  dup5\n    /* \"#utility.yul\":4129:4193   */\n  tag_53\n  jump\t// in\ntag_123:\n    /* \"#utility.yul\":4113:4194   */\n  tag_44\n  jump\t// in\ntag_122:\n    /* \"#utility.yul\":4104:4194   */\n  swap1\n  pop\n    /* \"#utility.yul\":4214:4219   */\n  dup1\n    /* \"#utility.yul\":4243:4249   */\n  dup4\n    /* \"#utility.yul\":4236:4241   */\n  dup3\n    /* \"#utility.yul\":4229:4250   */\n  mstore\n    /* \"#utility.yul\":4277:4281   */\n  0x20\n    /* \"#utility.yul\":4270:4275   */\n  dup3\n    /* \"#utility.yul\":4266:4282   */\n  add\n    /* \"#utility.yul\":4259:4282   */\n  swap1\n  pop\n    /* \"#utility.yul\":4330:4334   */\n  0x20\n    /* \"#utility.yul\":4322:4328   */\n  dup5\n    /* \"#utility.yul\":4318:4335   */\n  mul\n    /* \"#utility.yul\":4310:4316   */\n  dup4\n    /* \"#utility.yul\":4306:4336   */\n  add\n    /* \"#utility.yul\":4359:4362   */\n  dup6\n    /* \"#utility.yul\":4351:4357   */\n  dup2\n    /* \"#utility.yul\":4348:4363   */\n  gt\n    /* \"#utility.yul\":4345:4467   */\n  iszero\n  tag_124\n  jumpi\n    /* \"#utility.yul\":4378:4457   */\n  tag_125\n  tag_46\n  jump\t// in\ntag_125:\n    /* \"#utility.yul\":4345:4467   */\ntag_124:\n    /* \"#utility.yul\":4493:4499   */\n  dup4\n    /* \"#utility.yul\":4476:4707   */\ntag_126:\n    /* \"#utility.yul\":4510:4516   */\n  dup2\n    /* \"#utility.yul\":4505:4508   */\n  dup2\n    /* \"#utility.yul\":4502:4517   */\n  lt\n    /* \"#utility.yul\":4476:4707   */\n  iszero\n  tag_128\n  jumpi\n    /* \"#utility.yul\":4585:4588   */\n  dup1\n    /* \"#utility.yul\":4614:4662   */\n  tag_129\n    /* \"#utility.yul\":4658:4661   */\n  dup9\n    /* \"#utility.yul\":4646:4656   */\n  dup3\n    /* \"#utility.yul\":4614:4662   */\n  tag_56\n  jump\t// in\ntag_129:\n    /* \"#utility.yul\":4609:4612   */\n  dup5\n    /* \"#utility.yul\":4602:4663   */\n  mstore\n    /* \"#utility.yul\":4692:4696   */\n  0x20\n    /* \"#utility.yul\":4687:4690   */\n  dup5\n    /* \"#utility.yul\":4683:4697   */\n  add\n    /* \"#utility.yul\":4676:4697   */\n  swap4\n  pop\n    /* \"#utility.yul\":4552:4707   */\n  pop\n    /* \"#utility.yul\":4536:4540   */\n  0x20\n    /* \"#utility.yul\":4531:4534   */\n  dup2\n    /* \"#utility.yul\":4527:4541   */\n  add\n    /* \"#utility.yul\":4520:4541   */\n  swap1\n  pop\n    /* \"#utility.yul\":4476:4707   */\n  jump(tag_126)\ntag_128:\n    /* \"#utility.yul\":4480:4501   */\n  pop\n    /* \"#utility.yul\":4094:4713   */\n  pop\n  pop\n    /* \"#utility.yul\":3981:4713   */\n  swap4\n  swap3\n  pop\n  pop\n  pop\n  jump\t// out\n    /* \"#utility.yul\":4736:5121   */\ntag_58:\n    /* \"#utility.yul\":4818:4823   */\n  0x00\n    /* \"#utility.yul\":4867:4870   */\n  dup3\n    /* \"#utility.yul\":4860:4864   */\n  0x1f\n    /* \"#utility.yul\":4852:4858   */\n  dup4\n    /* \"#utility.yul\":4848:4865   */\n  add\n    /* \"#utility.yul\":4844:4871   */\n  slt\n    /* \"#utility.yul\":4834:4956   */\n  tag_131\n  jumpi\n    /* \"#utility.yul\":4875:4954   */\n  tag_132\n  tag_40\n  jump\t// in\ntag_132:\n    /* \"#utility.yul\":4834:4956   */\ntag_131:\n    /* \"#utility.yul\":4985:4991   */\n  dup2\n    /* \"#utility.yul\":4979:4992   */\n  mload\n    /* \"#utility.yul\":5010:5115   */\n  tag_133\n    /* \"#utility.yul\":5111:5114   */\n  dup5\n    /* \"#utility.yul\":5103:5109   */\n  dup3\n    /* \"#utility.yul\":5096:5100   */\n  0x20\n    /* \"#utility.yul\":5088:5094   */\n  dup7\n    /* \"#utility.yul\":5084:5101   */\n  add\n    /* \"#utility.yul\":5010:5115   */\n  tag_57\n  jump\t// in\ntag_133:\n    /* \"#utility.yul\":5001:5115   */\n  swap2\n  pop\n    /* \"#utility.yul\":4824:5121   */\n  pop\n    /* \"#utility.yul\":4736:5121   */\n  swap3\n  swap2\n  pop\n  pop\n  jump\t// out\n    /* \"#utility.yul\":5127:6040   */\ntag_2:\n    /* \"#utility.yul\":5256:5262   */\n  0x00\n    /* \"#utility.yul\":5264:5270   */\n  dup1\n    /* \"#utility.yul\":5313:5315   */\n  0x40\n    /* \"#utility.yul\":5301:5310   */\n  dup4\n    /* \"#utility.yul\":5292:5299   */\n  dup6\n    /* \"#utility.yul\":5288:5311   */\n  sub\n    /* \"#utility.yul\":5284:5316   */\n  slt\n    /* \"#utility.yul\":5281:5400   */\n  iszero\n  tag_135\n  jumpi\n    /* \"#utility.yul\":5319:5398   */\n  tag_136\n  tag_38\n  jump\t// in\ntag_136:\n    /* \"#utility.yul\":5281:5400   */\ntag_135:\n    /* \"#utility.yul\":5460:5461   */\n  0x00\n    /* \"#utility.yul\":5449:5458   */\n  dup4\n    /* \"#utility.yul\":5445:5462   */\n  add\n    /* \"#utility.yul\":5439:5463   */\n  mload\n    /* \"#utility.yul\":5490:5508   */\n  0xffffffffffffffff\n    /* \"#utility.yul\":5482:5488   */\n  dup2\n    /* \"#utility.yul\":5479:5509   */\n  gt\n    /* \"#utility.yul\":5476:5593   */\n  iszero\n  tag_137\n  jumpi\n    /* \"#utility.yul\":5512:5591   */\n  tag_138\n  tag_39\n  jump\t// in\ntag_138:\n    /* \"#utility.yul\":5476:5593   */\ntag_137:\n    /* \"#utility.yul\":5617:5706   */\n  tag_139\n    /* \"#utility.yul\":5698:5705   */\n  dup6\n    /* \"#utility.yul\":5689:5695   */\n  dup3\n    /* \"#utility.yul\":5678:5687   */\n  dup7\n    /* \"#utility.yul\":5674:5696   */\n  add\n    /* \"#utility.yul\":5617:5706   */\n  tag_52\n  jump\t// in\ntag_139:\n    /* \"#utility.yul\":5607:5706   */\n  swap3\n  pop\n    /* \"#utility.yul\":5410:5716   */\n  pop\n    /* \"#utility.yul\":5776:5778   */\n  0x20\n    /* \"#utility.yul\":5765:5774   */\n  dup4\n    /* \"#utility.yul\":5761:5779   */\n  add\n    /* \"#utility.yul\":5755:5780   */\n  mload\n    /* \"#utility.yul\":5807:5825   */\n  0xffffffffffffffff\n    /* \"#utility.yul\":5799:5805   */\n  dup2\n    /* \"#utility.yul\":5796:5826   */\n  gt\n    /* \"#utility.yul\":5793:5910   */\n  iszero\n  tag_140\n  jumpi\n    /* \"#utility.yul\":5829:5908   */\n  tag_141\n  tag_39\n  jump\t// in\ntag_141:\n    /* \"#utility.yul\":5793:5910   */\ntag_140:\n    /* \"#utility.yul\":5934:6023   */\n  tag_142\n    /* \"#utility.yul\":6015:6022   */\n  dup6\n    /* \"#utility.yul\":6006:6012   */\n  dup3\n    /* \"#utility.yul\":5995:6004   */\n  dup7\n    /* \"#utility.yul\":5991:6013   */\n  add\n    /* \"#utility.yul\":5934:6023   */\n  tag_58\n  jump\t// in\ntag_142:\n    /* \"#utility.yul\":5924:6023   */\n  swap2\n  pop\n    /* \"#utility.yul\":5726:6033   */\n  pop\n    /* \"#utility.yul\":5127:6040   */\n  swap3\n  pop\n  swap3\n  swap1\n  pop\n  jump\t// out\n    /* \"#utility.yul\":6046:6215   */\ntag_59:\n    /* \"#utility.yul\":6130:6141   */\n  0x00\n    /* \"#utility.yul\":6164:6170   */\n  dup3\n    /* \"#utility.yul\":6159:6162   */\n  dup3\n    /* \"#utility.yul\":6152:6171   */\n  mstore\n    /* \"#utility.yul\":6204:6208   */\n  0x20\n    /* \"#utility.yul\":6199:6202   */\n  dup3\n    /* \"#utility.yul\":6195:6209   */\n  add\n    /* \"#utility.yul\":6180:6209   */\n  swap1\n  pop\n    /* \"#utility.yul\":6046:6215   */\n  swap3\n  swap2\n  pop\n  pop\n  jump\t// out\n    /* \"#utility.yul\":6221:6458   */\ntag_60:\n    /* \"#utility.yul\":6361:6395   */\n  0x5061796d656e7453706c69747465723a2070617965657320616e642073686172\n    /* \"#utility.yul\":6357:6358   */\n  0x00\n    /* \"#utility.yul\":6349:6355   */\n  dup3\n    /* \"#utility.yul\":6345:6359   */\n  add\n    /* \"#utility.yul\":6338:6396   */\n  mstore\n    /* \"#utility.yul\":6430:6450   */\n  0x6573206c656e677468206d69736d617463680000000000000000000000000000\n    /* \"#utility.yul\":6425:6427   */\n  0x20\n    /* \"#utility.yul\":6417:6423   */\n  dup3\n    /* \"#utility.yul\":6413:6428   */\n  add\n    /* \"#utility.yul\":6406:6451   */\n  mstore\n    /* \"#utility.yul\":6221:6458   */\n  pop\n  jump\t// out\n    /* \"#utility.yul\":6464:6830   */\ntag_61:\n    /* \"#utility.yul\":6606:6609   */\n  0x00\n    /* \"#utility.yul\":6627:6694   */\n  tag_146\n    /* \"#utility.yul\":6691:6693   */\n  0x32\n    /* \"#utility.yul\":6686:6689   */\n  dup4\n    /* \"#utility.yul\":6627:6694   */\n  tag_59\n  jump\t// in\ntag_146:\n    /* \"#utility.yul\":6620:6694   */\n  swap2\n  pop\n    /* \"#utility.yul\":6703:6796   */\n  tag_147\n    /* \"#utility.yul\":6792:6795   */\n  dup3\n    /* \"#utility.yul\":6703:6796   */\n  tag_60\n  jump\t// in\ntag_147:\n    /* \"#utility.yul\":6821:6823   */\n  0x40\n    /* \"#utility.yul\":6816:6819   */\n  dup3\n    /* \"#utility.yul\":6812:6824   */\n  add\n    /* \"#utility.yul\":6805:6824   */\n  swap1\n  pop\n    /* \"#utility.yul\":6464:6830   */\n  swap2\n  swap1\n  pop\n  jump\t// out\n    /* \"#utility.yul\":6836:7255   */\ntag_7:\n    /* \"#utility.yul\":7002:7006   */\n  0x00\n    /* \"#utility.yul\":7040:7042   */\n  0x20\n    /* \"#utility.yul\":7029:7038   */\n  dup3\n    /* \"#utility.yul\":7025:7043   */\n  add\n    /* \"#utility.yul\":7017:7043   */\n  swap1\n  pop\n    /* \"#utility.yul\":7089:7098   */\n  dup2\n    /* \"#utility.yul\":7083:7087   */\n  dup2\n    /* \"#utility.yul\":7079:7099   */\n  sub\n    /* \"#utility.yul\":7075:7076   */\n  0x00\n    /* \"#utility.yul\":7064:7073   */\n  dup4\n    /* \"#utility.yul\":7060:7077   */\n  add\n    /* \"#utility.yul\":7053:7100   */\n  mstore\n    /* \"#utility.yul\":7117:7248   */\n  tag_149\n    /* \"#utility.yul\":7243:7247   */\n  dup2\n    /* \"#utility.yul\":7117:7248   */\n  tag_61\n  jump\t// in\ntag_149:\n    /* \"#utility.yul\":7109:7248   */\n  swap1\n  pop\n    /* \"#utility.yul\":6836:7255   */\n  swap2\n  swap1\n  pop\n  jump\t// out\n    /* \"#utility.yul\":7261:7437   */\ntag_62:\n    /* \"#utility.yul\":7401:7429   */\n  0x5061796d656e7453706c69747465723a206e6f20706179656573000000000000\n    /* \"#utility.yul\":7397:7398   */\n  0x00\n    /* \"#utility.yul\":7389:7395   */\n  dup3\n    /* \"#utility.yul\":7385:7399   */\n  add\n    /* \"#utility.yul\":7378:7430   */\n  mstore\n    /* \"#utility.yul\":7261:7437   */\n  pop\n  jump\t// out\n    /* \"#utility.yul\":7443:7809   */\ntag_63:\n    /* \"#utility.yul\":7585:7588   */\n  0x00\n    /* \"#utility.yul\":7606:7673   */\n  tag_152\n    /* \"#utility.yul\":7670:7672   */\n  0x1a\n    /* \"#utility.yul\":7665:7668   */\n  dup4\n    /* \"#utility.yul\":7606:7673   */\n  tag_59\n  jump\t// in\ntag_152:\n    /* \"#utility.yul\":7599:7673   */\n  swap2\n  pop\n    /* \"#utility.yul\":7682:7775   */\n  tag_153\n    /* \"#utility.yul\":7771:7774   */\n  dup3\n    /* \"#utility.yul\":7682:7775   */\n  tag_62\n  jump\t// in\ntag_153:\n    /* \"#utility.yul\":7800:7802   */\n  0x20\n    /* \"#utility.yul\":7795:7798   */\n  dup3\n    /* \"#utility.yul\":7791:7803   */\n  add\n    /* \"#utility.yul\":7784:7803   */\n  swap1\n  pop\n    /* \"#utility.yul\":7443:7809   */\n  swap2\n  swap1\n  pop\n  jump\t// out\n    /* \"#utility.yul\":7815:8234   */\ntag_10:\n    /* \"#utility.yul\":7981:7985   */\n  0x00\n    /* \"#utility.yul\":8019:8021   */\n  0x20\n    /* \"#utility.yul\":8008:8017   */\n  dup3\n    /* \"#utility.yul\":8004:8022   */\n  add\n    /* \"#utility.yul\":7996:8022   */\n  swap1\n  pop\n    /* \"#utility.yul\":8068:8077   */\n  dup2\n    /* \"#utility.yul\":8062:8066   */\n  dup2\n    /* \"#utility.yul\":8058:8078   */\n  sub\n    /* \"#utility.yul\":8054:8055   */\n  0x00\n    /* \"#utility.yul\":8043:8052   */\n  dup4\n    /* \"#utility.yul\":8039:8056   */\n  add\n    /* \"#utility.yul\":8032:8079   */\n  mstore\n    /* \"#utility.yul\":8096:8227   */\n  tag_155\n    /* \"#utility.yul\":8222:8226   */\n  dup2\n    /* \"#utility.yul\":8096:8227   */\n  tag_63\n  jump\t// in\ntag_155:\n    /* \"#utility.yul\":8088:8227   */\n  swap1\n  pop\n    /* \"#utility.yul\":7815:8234   */\n  swap2\n  swap1\n  pop\n  jump\t// out\n    /* \"#utility.yul\":8240:8420   */\ntag_17:\n    /* \"#utility.yul\":8288:8365   */\n  0x4e487b7100000000000000000000000000000000000000000000000000000000\n    /* \"#utility.yul\":8285:8286   */\n  0x00\n    /* \"#utility.yul\":8278:8366   */\n  mstore\n    /* \"#utility.yul\":8385:8389   */\n  0x32\n    /* \"#utility.yul\":8382:8383   */\n  0x04\n    /* \"#utility.yul\":8375:8390   */\n  mstore\n    /* \"#utility.yul\":8409:8413   */\n  0x24\n    /* \"#utility.yul\":8406:8407   */\n  0x00\n    /* \"#utility.yul\":8399:8414   */\n  revert\n    /* \"#utility.yul\":8426:8657   */\ntag_64:\n    /* \"#utility.yul\":8566:8600   */\n  0x5061796d656e7453706c69747465723a206163636f756e742069732074686520\n    /* \"#utility.yul\":8562:8563   */\n  0x00\n    /* \"#utility.yul\":8554:8560   */\n  dup3\n    /* \"#utility.yul\":8550:8564   */\n  add\n    /* \"#utility.yul\":8543:8601   */\n  mstore\n    /* \"#utility.yul\":8635:8649   */\n  0x7a65726f20616464726573730000000000000000000000000000000000000000\n    /* \"#utility.yul\":8630:8632   */\n  0x20\n    /* \"#utility.yul\":8622:8628   */\n  dup3\n    /* \"#utility.yul\":8618:8633   */\n  add\n    /* \"#utility.yul\":8611:8650   */\n  mstore\n    /* \"#utility.yul\":8426:8657   */\n  pop\n  jump\t// out\n    /* \"#utility.yul\":8663:9029   */\ntag_65:\n    /* \"#utility.yul\":8805:8808   */\n  0x00\n    /* \"#utility.yul\":8826:8893   */\n  tag_159\n    /* \"#utility.yul\":8890:8892   */\n  0x2c\n    /* \"#utility.yul\":8885:8888   */\n  dup4\n    /* \"#utility.yul\":8826:8893   */\n  tag_59\n  jump\t// in\ntag_159:\n    /* \"#utility.yul\":8819:8893   */\n  swap2\n  pop\n    /* \"#utility.yul\":8902:8995   */\n  tag_160\n    /* \"#utility.yul\":8991:8994   */\n  dup3\n    /* \"#utility.yul\":8902:8995   */\n  tag_64\n  jump\t// in\ntag_160:\n    /* \"#utility.yul\":9020:9022   */\n  0x40\n    /* \"#utility.yul\":9015:9018   */\n  dup3\n    /* \"#utility.yul\":9011:9023   */\n  add\n    /* \"#utility.yul\":9004:9023   */\n  swap1\n  pop\n    /* \"#utility.yul\":8663:9029   */\n  swap2\n  swap1\n  pop\n  jump\t// out\n    /* \"#utility.yul\":9035:9454   */\ntag_25:\n    /* \"#utility.yul\":9201:9205   */\n  0x00\n    /* \"#utility.yul\":9239:9241   */\n  0x20\n    /* \"#utility.yul\":9228:9237   */\n  dup3\n    /* \"#utility.yul\":9224:9242   */\n  add\n    /* \"#utility.yul\":9216:9242   */\n  swap1\n  pop\n    /* \"#utility.yul\":9288:9297   */\n  dup2\n    /* \"#utility.yul\":9282:9286   */\n  dup2\n    /* \"#utility.yul\":9278:9298   */\n  sub\n    /* \"#utility.yul\":9274:9275   */\n  0x00\n    /* \"#utility.yul\":9263:9272   */\n  dup4\n    /* \"#utility.yul\":9259:9276   */\n  add\n    /* \"#utility.yul\":9252:9299   */\n  mstore\n    /* \"#utility.yul\":9316:9447   */\n  tag_162\n    /* \"#utility.yul\":9442:9446   */\n  dup2\n    /* \"#utility.yul\":9316:9447   */\n  tag_65\n  jump\t// in\ntag_162:\n    /* \"#utility.yul\":9308:9447   */\n  swap1\n  pop\n    /* \"#utility.yul\":9035:9454   */\n  swap2\n  swap1\n  pop\n  jump\t// out\n    /* \"#utility.yul\":9460:9639   */\ntag_66:\n    /* \"#utility.yul\":9600:9631   */\n  0x5061796d656e7453706c69747465723a20736861726573206172652030000000\n    /* \"#utility.yul\":9596:9597   */\n  0x00\n    /* \"#utility.yul\":9588:9594   */\n  dup3\n    /* \"#utility.yul\":9584:9598   */\n  add\n    /* \"#utility.yul\":9577:9632   */\n  mstore\n    /* \"#utility.yul\":9460:9639   */\n  pop\n  jump\t// out\n    /* \"#utility.yul\":9645:10011   */\ntag_67:\n    /* \"#utility.yul\":9787:9790   */\n  0x00\n    /* \"#utility.yul\":9808:9875   */\n  tag_165\n    /* \"#utility.yul\":9872:9874   */\n  0x1d\n    /* \"#utility.yul\":9867:9870   */\n  dup4\n    /* \"#utility.yul\":9808:9875   */\n  tag_59\n  jump\t// in\ntag_165:\n    /* \"#utility.yul\":9801:9875   */\n  swap2\n  pop\n    /* \"#utility.yul\":9884:9977   */\n  tag_166\n    /* \"#utility.yul\":9973:9976   */\n  dup3\n    /* \"#utility.yul\":9884:9977   */\n  tag_66\n  jump\t// in\ntag_166:\n    /* \"#utility.yul\":10002:10004   */\n  0x20\n    /* \"#utility.yul\":9997:10000   */\n  dup3\n    /* \"#utility.yul\":9993:10005   */\n  add\n    /* \"#utility.yul\":9986:10005   */\n  swap1\n  pop\n    /* \"#utility.yul\":9645:10011   */\n  swap2\n  swap1\n  pop\n  jump\t// out\n    /* \"#utility.yul\":10017:10436   */\ntag_28:\n    /* \"#utility.yul\":10183:10187   */\n  0x00\n    /* \"#utility.yul\":10221:10223   */\n  0x20\n    /* \"#utility.yul\":10210:10219   */\n  dup3\n    /* \"#utility.yul\":10206:10224   */\n  add\n    /* \"#utility.yul\":10198:10224   */\n  swap1\n  pop\n    /* \"#utility.yul\":10270:10279   */\n  dup2\n    /* \"#utility.yul\":10264:10268   */\n  dup2\n    /* \"#utility.yul\":10260:10280   */\n  sub\n    /* \"#utility.yul\":10256:10257   */\n  0x00\n    /* \"#utility.yul\":10245:10254   */\n  dup4\n    /* \"#utility.yul\":10241:10258   */\n  add\n    /* \"#utility.yul\":10234:10281   */\n  mstore\n    /* \"#utility.yul\":10298:10429   */\n  tag_168\n    /* \"#utility.yul\":10424:10428   */\n  dup2\n    /* \"#utility.yul\":10298:10429   */\n  tag_67\n  jump\t// in\ntag_168:\n    /* \"#utility.yul\":10290:10429   */\n  swap1\n  pop\n    /* \"#utility.yul\":10017:10436   */\n  swap2\n  swap1\n  pop\n  jump\t// out\n    /* \"#utility.yul\":10442:10672   */\ntag_68:\n    /* \"#utility.yul\":10582:10616   */\n  0x5061796d656e7453706c69747465723a206163636f756e7420616c7265616479\n    /* \"#utility.yul\":10578:10579   */\n  0x00\n    /* \"#utility.yul\":10570:10576   */\n  dup3\n    /* \"#utility.yul\":10566:10580   */\n  add\n    /* \"#utility.yul\":10559:10617   */\n  mstore\n    /* \"#utility.yul\":10651:10664   */\n  0x2068617320736861726573000000000000000000000000000000000000000000\n    /* \"#utility.yul\":10646:10648   */\n  0x20\n    /* \"#utility.yul\":10638:10644   */\n  dup3\n    /* \"#utility.yul\":10634:10649   */\n  add\n    /* \"#utility.yul\":10627:10665   */\n  mstore\n    /* \"#utility.yul\":10442:10672   */\n  pop\n  jump\t// out\n    /* \"#utility.yul\":10678:11044   */\ntag_69:\n    /* \"#utility.yul\":10820:10823   */\n  0x00\n    /* \"#utility.yul\":10841:10908   */\n  tag_171\n    /* \"#utility.yul\":10905:10907   */\n  0x2b\n    /* \"#utility.yul\":10900:10903   */\n  dup4\n    /* \"#utility.yul\":10841:10908   */\n  tag_59\n  jump\t// in\ntag_171:\n    /* \"#utility.yul\":10834:10908   */\n  swap2\n  pop\n    /* \"#utility.yul\":10917:11010   */\n  tag_172\n    /* \"#utility.yul\":11006:11009   */\n  dup3\n    /* \"#utility.yul\":10917:11010   */\n  tag_68\n  jump\t// in\ntag_172:\n    /* \"#utility.yul\":11035:11037   */\n  0x40\n    /* \"#utility.yul\":11030:11033   */\n  dup3\n    /* \"#utility.yul\":11026:11038   */\n  add\n    /* \"#utility.yul\":11019:11038   */\n  swap1\n  pop\n    /* \"#utility.yul\":10678:11044   */\n  swap2\n  swap1\n  pop\n  jump\t// out\n    /* \"#utility.yul\":11050:11469   */\ntag_31:\n    /* \"#utility.yul\":11216:11220   */\n  0x00\n    /* \"#utility.yul\":11254:11256   */\n  0x20\n    /* \"#utility.yul\":11243:11252   */\n  dup3\n    /* \"#utility.yul\":11239:11257   */\n  add\n    /* \"#utility.yul\":11231:11257   */\n  swap1\n  pop\n    /* \"#utility.yul\":11303:11312   */\n  dup2\n    /* \"#utility.yul\":11297:11301   */\n  dup2\n    /* \"#utility.yul\":11293:11313   */\n  sub\n    /* \"#utility.yul\":11289:11290   */\n  0x00\n    /* \"#utility.yul\":11278:11287   */\n  dup4\n    /* \"#utility.yul\":11274:11291   */\n  add\n    /* \"#utility.yul\":11267:11314   */\n  mstore\n    /* \"#utility.yul\":11331:11462   */\n  tag_174\n    /* \"#utility.yul\":11457:11461   */\n  dup2\n    /* \"#utility.yul\":11331:11462   */\n  tag_69\n  jump\t// in\ntag_174:\n    /* \"#utility.yul\":11323:11462   */\n  swap1\n  pop\n    /* \"#utility.yul\":11050:11469   */\n  swap2\n  swap1\n  pop\n  jump\t// out\n    /* \"#utility.yul\":11475:11655   */\ntag_70:\n    /* \"#utility.yul\":11523:11600   */\n  0x4e487b7100000000000000000000000000000000000000000000000000000000\n    /* \"#utility.yul\":11520:11521   */\n  0x00\n    /* \"#utility.yul\":11513:11601   */\n  mstore\n    /* \"#utility.yul\":11620:11624   */\n  0x11\n    /* \"#utility.yul\":11617:11618   */\n  0x04\n    /* \"#utility.yul\":11610:11625   */\n  mstore\n    /* \"#utility.yul\":11644:11648   */\n  0x24\n    /* \"#utility.yul\":11641:11642   */\n  0x00\n    /* \"#utility.yul\":11634:11649   */\n  revert\n    /* \"#utility.yul\":11661:11852   */\ntag_34:\n    /* \"#utility.yul\":11701:11704   */\n  0x00\n    /* \"#utility.yul\":11720:11740   */\n  tag_177\n    /* \"#utility.yul\":11738:11739   */\n  dup3\n    /* \"#utility.yul\":11720:11740   */\n  tag_54\n  jump\t// in\ntag_177:\n    /* \"#utility.yul\":11715:11740   */\n  swap2\n  pop\n    /* \"#utility.yul\":11754:11774   */\n  tag_178\n    /* \"#utility.yul\":11772:11773   */\n  dup4\n    /* \"#utility.yul\":11754:11774   */\n  tag_54\n  jump\t// in\ntag_178:\n    /* \"#utility.yul\":11749:11774   */\n  swap3\n  pop\n    /* \"#utility.yul\":11797:11798   */\n  dup3\n    /* \"#utility.yul\":11794:11795   */\n  dup3\n    /* \"#utility.yul\":11790:11799   */\n  add\n    /* \"#utility.yul\":11783:11799   */\n  swap1\n  pop\n    /* \"#utility.yul\":11818:11821   */\n  dup1\n    /* \"#utility.yul\":11815:11816   */\n  dup3\n    /* \"#utility.yul\":11812:11822   */\n  gt\n    /* \"#utility.yul\":11809:11845   */\n  iszero\n  tag_179\n  jumpi\n    /* \"#utility.yul\":11825:11843   */\n  tag_180\n  tag_70\n  jump\t// in\ntag_180:\n    /* \"#utility.yul\":11809:11845   */\ntag_179:\n    /* \"#utility.yul\":11661:11852   */\n  swap3\n  swap2\n  pop\n  pop\n  jump\t// out\n    /* \"#utility.yul\":11858:11976   */\ntag_71:\n    /* \"#utility.yul\":11945:11969   */\n  tag_182\n    /* \"#utility.yul\":11963:11968   */\n  dup2\n    /* \"#utility.yul\":11945:11969   */\n  tag_48\n  jump\t// in\ntag_182:\n    /* \"#utility.yul\":11940:11943   */\n  dup3\n    /* \"#utility.yul\":11933:11970   */\n  mstore\n    /* \"#utility.yul\":11858:11976   */\n  pop\n  pop\n  jump\t// out\n    /* \"#utility.yul\":11982:12100   */\ntag_72:\n    /* \"#utility.yul\":12069:12093   */\n  tag_184\n    /* \"#utility.yul\":12087:12092   */\n  dup2\n    /* \"#utility.yul\":12069:12093   */\n  tag_54\n  jump\t// in\ntag_184:\n    /* \"#utility.yul\":12064:12067   */\n  dup3\n    /* \"#utility.yul\":12057:12094   */\n  mstore\n    /* \"#utility.yul\":11982:12100   */\n  pop\n  pop\n  jump\t// out\n    /* \"#utility.yul\":12106:12438   */\ntag_36:\n    /* \"#utility.yul\":12227:12231   */\n  0x00\n    /* \"#utility.yul\":12265:12267   */\n  0x40\n    /* \"#utility.yul\":12254:12263   */\n  dup3\n    /* \"#utility.yul\":12250:12268   */\n  add\n    /* \"#utility.yul\":12242:12268   */\n  swap1\n  pop\n    /* \"#utility.yul\":12278:12349   */\n  tag_186\n    /* \"#utility.yul\":12346:12347   */\n  0x00\n    /* \"#utility.yul\":12335:12344   */\n  dup4\n    /* \"#utility.yul\":12331:12348   */\n  add\n    /* \"#utility.yul\":12322:12328   */\n  dup6\n    /* \"#utility.yul\":12278:12349   */\n  tag_71\n  jump\t// in\ntag_186:\n    /* \"#utility.yul\":12359:12431   */\n  tag_187\n    /* \"#utility.yul\":12427:12429   */\n  0x20\n    /* \"#utility.yul\":12416:12425   */\n  dup4\n    /* \"#utility.yul\":12412:12430   */\n  add\n    /* \"#utility.yul\":12403:12409   */\n  dup5\n    /* \"#utility.yul\":12359:12431   */\n  tag_72\n  jump\t// in\ntag_187:\n    /* \"#utility.yul\":12106:12438   */\n  swap4\n  swap3\n  pop\n  pop\n  pop\n  jump\t// out\n    /* \".deps/npm/@openzeppelin/contracts/finance/PaymentSplitter.sol\":1471:8571  contract PaymentSplitter is Context {... */\ntag_21:\n  dataSize(sub_0)\n  dup1\n  dataOffset(sub_0)\n  0x00\n  codecopy\n  0x00\n  return\nstop\n\nsub_0: assembly {\n        /* \".deps/npm/@openzeppelin/contracts/finance/PaymentSplitter.sol\":1471:8571  contract PaymentSplitter is Context {... */\n      mstore(0x40, 0x80)\n      jumpi(tag_1, lt(calldatasize, 0x04))\n      shr(0xe0, calldataload(0x00))\n      dup1\n      0x9852595c\n      gt\n      tag_14\n      jumpi\n      dup1\n      0x9852595c\n      eq\n      tag_8\n      jumpi\n      dup1\n      0xa3f8eace\n      eq\n      tag_9\n      jumpi\n      dup1\n      0xc45ac050\n      eq\n      tag_10\n      jumpi\n      dup1\n      0xce7c2ac2\n      eq\n      tag_11\n      jumpi\n      dup1\n      0xd79779b2\n      eq\n      tag_12\n      jumpi\n      dup1\n      0xe33b7de3\n      eq\n      tag_13\n      jumpi\n      jump(tag_2)\n    tag_14:\n      dup1\n      0x19165587\n      eq\n      tag_3\n      jumpi\n      dup1\n      0x3a98ef39\n      eq\n      tag_4\n      jumpi\n      dup1\n      0x406072a9\n      eq\n      tag_5\n      jumpi\n      dup1\n      0x48b75044\n      eq\n      tag_6\n      jumpi\n      dup1\n      0x8b83209b\n      eq\n      tag_7\n      jumpi\n      jump(tag_2)\n    tag_1:\n      jumpi(tag_2, calldatasize)\n        /* \".deps/npm/@openzeppelin/contracts/finance/PaymentSplitter.sol\":3369:3409  PaymentReceived(_msgSender(), msg.value) */\n      0x6ef95f06320e7a25a04a175ca677b7052bdd97131872c2192525a629f51be770\n        /* \".deps/npm/@openzeppelin/contracts/finance/PaymentSplitter.sol\":3385:3397  _msgSender() */\n      tag_17\n        /* \".deps/npm/@openzeppelin/contracts/finance/PaymentSplitter.sol\":3385:3395  _msgSender */\n      tag_18\n        /* \".deps/npm/@openzeppelin/contracts/finance/PaymentSplitter.sol\":3385:3397  _msgSender() */\n      jump\t// in\n    tag_17:\n        /* \".deps/npm/@openzeppelin/contracts/finance/PaymentSplitter.sol\":3399:3408  msg.value */\n      callvalue\n        /* \".deps/npm/@openzeppelin/contracts/finance/PaymentSplitter.sol\":3369:3409  PaymentReceived(_msgSender(), msg.value) */\n      mload(0x40)\n      tag_19\n      swap3\n      swap2\n      swap1\n      tag_20\n      jump\t// in\n    tag_19:\n      mload(0x40)\n      dup1\n      swap2\n      sub\n      swap1\n      log1\n        /* \".deps/npm/@openzeppelin/contracts/finance/PaymentSplitter.sol\":1471:8571  contract PaymentSplitter is Context {... */\n      stop\n    tag_2:\n      0x00\n      dup1\n      revert\n        /* \".deps/npm/@openzeppelin/contracts/finance/PaymentSplitter.sol\":5815:6470  function release(address payable account) public virtual {... */\n    tag_3:\n      callvalue\n      dup1\n      iszero\n      tag_21\n      jumpi\n      0x00\n      dup1\n      revert\n    tag_21:\n      pop\n      tag_22\n      0x04\n      dup1\n      calldatasize\n      sub\n      dup2\n      add\n      swap1\n      tag_23\n      swap2\n      swap1\n      tag_24\n      jump\t// in\n    tag_23:\n      tag_25\n      jump\t// in\n    tag_22:\n      stop\n        /* \".deps/npm/@openzeppelin/contracts/finance/PaymentSplitter.sol\":3494:3583  function totalShares() public view returns (uint256) {... */\n    tag_4:\n      callvalue\n      dup1\n      iszero\n      tag_26\n      jumpi\n      0x00\n      dup1\n      revert\n    tag_26:\n      pop\n      tag_27\n      tag_28\n      jump\t// in\n    tag_27:\n      mload(0x40)\n      tag_29\n      swap2\n      swap1\n      tag_30\n      jump\t// in\n    tag_29:\n      mload(0x40)\n      dup1\n      swap2\n      sub\n      swap1\n      return\n        /* \".deps/npm/@openzeppelin/contracts/finance/PaymentSplitter.sol\":4586:4719  function released(IERC20 token, address account) public view returns (uint256) {... */\n    tag_5:\n      callvalue\n      dup1\n      iszero\n      tag_31\n      jumpi\n      0x00\n      dup1\n      revert\n    tag_31:\n      pop\n      tag_32\n      0x04\n      dup1\n      calldatasize\n      sub\n      dup2\n      add\n      swap1\n      tag_33\n      swap2\n      swap1\n      tag_34\n      jump\t// in\n    tag_33:\n      tag_35\n      jump\t// in\n    tag_32:\n      mload(0x40)\n      tag_36\n      swap2\n      swap1\n      tag_30\n      jump\t// in\n    tag_36:\n      mload(0x40)\n      dup1\n      swap2\n      sub\n      swap1\n      return\n        /* \".deps/npm/@openzeppelin/contracts/finance/PaymentSplitter.sol\":6731:7506  function release(IERC20 token, address account) public virtual {... */\n    tag_6:\n      callvalue\n      dup1\n      iszero\n      tag_37\n      jumpi\n      0x00\n      dup1\n      revert\n    tag_37:\n      pop\n      tag_38\n      0x04\n      dup1\n      calldatasize\n      sub\n      dup2\n      add\n      swap1\n      tag_39\n      swap2\n      swap1\n      tag_34\n      jump\t// in\n    tag_39:\n      tag_40\n      jump\t// in\n    tag_38:\n      stop\n        /* \".deps/npm/@openzeppelin/contracts/finance/PaymentSplitter.sol\":4805:4903  function payee(uint256 index) public view returns (address) {... */\n    tag_7:\n      callvalue\n      dup1\n      iszero\n      tag_41\n      jumpi\n      0x00\n      dup1\n      revert\n    tag_41:\n      pop\n      tag_42\n      0x04\n      dup1\n      calldatasize\n      sub\n      dup2\n      add\n      swap1\n      tag_43\n      swap2\n      swap1\n      tag_44\n      jump\t// in\n    tag_43:\n      tag_45\n      jump\t// in\n    tag_42:\n      mload(0x40)\n      tag_46\n      swap2\n      swap1\n      tag_47\n      jump\t// in\n    tag_46:\n      mload(0x40)\n      dup1\n      swap2\n      sub\n      swap1\n      return\n        /* \".deps/npm/@openzeppelin/contracts/finance/PaymentSplitter.sol\":4316:4423  function released(address account) public view returns (uint256) {... */\n    tag_8:\n      callvalue\n      dup1\n      iszero\n      tag_48\n      jumpi\n      0x00\n      dup1\n      revert\n    tag_48:\n      pop\n      tag_49\n      0x04\n      dup1\n      calldatasize\n      sub\n      dup2\n      add\n      swap1\n      tag_50\n      swap2\n      swap1\n      tag_51\n      jump\t// in\n    tag_50:\n      tag_52\n      jump\t// in\n    tag_49:\n      mload(0x40)\n      tag_53\n      swap2\n      swap1\n      tag_30\n      jump\t// in\n    tag_53:\n      mload(0x40)\n      dup1\n      swap2\n      sub\n      swap1\n      return\n        /* \".deps/npm/@openzeppelin/contracts/finance/PaymentSplitter.sol\":4988:5210  function releasable(address account) public view returns (uint256) {... */\n    tag_9:\n      callvalue\n      dup1\n      iszero\n      tag_54\n      jumpi\n      0x00\n      dup1\n      revert\n    tag_54:\n      pop\n      tag_55\n      0x04\n      dup1\n      calldatasize\n      sub\n      dup2\n      add\n      swap1\n      tag_56\n      swap2\n      swap1\n      tag_51\n      jump\t// in\n    tag_56:\n      tag_57\n      jump\t// in\n    tag_55:\n      mload(0x40)\n      tag_58\n      swap2\n      swap1\n      tag_30\n      jump\t// in\n    tag_58:\n      mload(0x40)\n      dup1\n      swap2\n      sub\n      swap1\n      return\n        /* \".deps/npm/@openzeppelin/contracts/finance/PaymentSplitter.sol\":5364:5621  function releasable(IERC20 token, address account) public view returns (uint256) {... */\n    tag_10:\n      callvalue\n      dup1\n      iszero\n      tag_59\n      jumpi\n      0x00\n      dup1\n      revert\n    tag_59:\n      pop\n      tag_60\n      0x04\n      dup1\n      calldatasize\n      sub\n      dup2\n      add\n      swap1\n      tag_61\n      swap2\n      swap1\n      tag_34\n      jump\t// in\n    tag_61:\n      tag_62\n      jump\t// in\n    tag_60:\n      mload(0x40)\n      tag_63\n      swap2\n      swap1\n      tag_30\n      jump\t// in\n    tag_63:\n      mload(0x40)\n      dup1\n      swap2\n      sub\n      swap1\n      return\n        /* \".deps/npm/@openzeppelin/contracts/finance/PaymentSplitter.sol\":4119:4222  function shares(address account) public view returns (uint256) {... */\n    tag_11:\n      callvalue\n      dup1\n      iszero\n      tag_64\n      jumpi\n      0x00\n      dup1\n      revert\n    tag_64:\n      pop\n      tag_65\n      0x04\n      dup1\n      calldatasize\n      sub\n      dup2\n      add\n      swap1\n      tag_66\n      swap2\n      swap1\n      tag_51\n      jump\t// in\n    tag_66:\n      tag_67\n      jump\t// in\n    tag_65:\n      mload(0x40)\n      tag_68\n      swap2\n      swap1\n      tag_30\n      jump\t// in\n    tag_68:\n      mload(0x40)\n      dup1\n      swap2\n      sub\n      swap1\n      return\n        /* \".deps/npm/@openzeppelin/contracts/finance/PaymentSplitter.sol\":3916:4033  function totalReleased(IERC20 token) public view returns (uint256) {... */\n    tag_12:\n      callvalue\n      dup1\n      iszero\n      tag_69\n      jumpi\n      0x00\n      dup1\n      revert\n    tag_69:\n      pop\n      tag_70\n      0x04\n      dup1\n      calldatasize\n      sub\n      dup2\n      add\n      swap1\n      tag_71\n      swap2\n      swap1\n      tag_72\n      jump\t// in\n    tag_71:\n      tag_73\n      jump\t// in\n    tag_70:\n      mload(0x40)\n      tag_74\n      swap2\n      swap1\n      tag_30\n      jump\t// in\n    tag_74:\n      mload(0x40)\n      dup1\n      swap2\n      sub\n      swap1\n      return\n        /* \".deps/npm/@openzeppelin/contracts/finance/PaymentSplitter.sol\":3672:3765  function totalReleased() public view returns (uint256) {... */\n    tag_13:\n      callvalue\n      dup1\n      iszero\n      tag_75\n      jumpi\n      0x00\n      dup1\n      revert\n    tag_75:\n      pop\n      tag_76\n      tag_77\n      jump\t// in\n    tag_76:\n      mload(0x40)\n      tag_78\n      swap2\n      swap1\n      tag_30\n      jump\t// in\n    tag_78:\n      mload(0x40)\n      dup1\n      swap2\n      sub\n      swap1\n      return\n        /* \".deps/npm/@openzeppelin/contracts/utils/Context.sol\":656:752  function _msgSender() internal view virtual returns (address) {... */\n    tag_18:\n        /* \".deps/npm/@openzeppelin/contracts/utils/Context.sol\":709:716  address */\n      0x00\n        /* \".deps/npm/@openzeppelin/contracts/utils/Context.sol\":735:745  msg.sender */\n      caller\n        /* \".deps/npm/@openzeppelin/contracts/utils/Context.sol\":728:745  return msg.sender */\n      swap1\n      pop\n        /* \".deps/npm/@openzeppelin/contracts/utils/Context.sol\":656:752  function _msgSender() internal view virtual returns (address) {... */\n      swap1\n      jump\t// out\n        /* \".deps/npm/@openzeppelin/contracts/finance/PaymentSplitter.sol\":5815:6470  function release(address payable account) public virtual {... */\n    tag_25:\n        /* \".deps/npm/@openzeppelin/contracts/finance/PaymentSplitter.sol\":5909:5910  0 */\n      0x00\n        /* \".deps/npm/@openzeppelin/contracts/finance/PaymentSplitter.sol\":5890:5897  _shares */\n      0x02\n        /* \".deps/npm/@openzeppelin/contracts/finance/PaymentSplitter.sol\":5890:5906  _shares[account] */\n      0x00\n        /* \".deps/npm/@openzeppelin/contracts/finance/PaymentSplitter.sol\":5898:5905  account */\n      dup4\n        /* \".deps/npm/@openzeppelin/contracts/finance/PaymentSplitter.sol\":5890:5906  _shares[account] */\n      0xffffffffffffffffffffffffffffffffffffffff\n      and\n      0xffffffffffffffffffffffffffffffffffffffff\n      and\n      dup2\n      mstore\n      0x20\n      add\n      swap1\n      dup2\n      mstore\n      0x20\n      add\n      0x00\n      keccak256\n      sload\n        /* \".deps/npm/@openzeppelin/contracts/finance/PaymentSplitter.sol\":5890:5910  _shares[account] > 0 */\n      gt\n        /* \".deps/npm/@openzeppelin/contracts/finance/PaymentSplitter.sol\":5882:5953  require(_shares[account] > 0, \"PaymentSplitter: account has no shares\") */\n      tag_81\n      jumpi\n      mload(0x40)\n      0x08c379a000000000000000000000000000000000000000000000000000000000\n      dup2\n      mstore\n      0x04\n      add\n      tag_82\n      swap1\n      tag_83\n      jump\t// in\n    tag_82:\n      mload(0x40)\n      dup1\n      swap2\n      sub\n      swap1\n      revert\n    tag_81:\n        /* \".deps/npm/@openzeppelin/contracts/finance/PaymentSplitter.sol\":5964:5979  uint256 payment */\n      0x00\n        /* \".deps/npm/@openzeppelin/contracts/finance/PaymentSplitter.sol\":5982:6001  releasable(account) */\n      tag_84\n        /* \".deps/npm/@openzeppelin/contracts/finance/PaymentSplitter.sol\":5993:6000  account */\n      dup3\n        /* \".deps/npm/@openzeppelin/contracts/finance/PaymentSplitter.sol\":5982:5992  releasable */\n      tag_57\n        /* \".deps/npm/@openzeppelin/contracts/finance/PaymentSplitter.sol\":5982:6001  releasable(account) */\n      jump\t// in\n    tag_84:\n        /* \".deps/npm/@openzeppelin/contracts/finance/PaymentSplitter.sol\":5964:6001  uint256 payment = releasable(account) */\n      swap1\n      pop\n        /* \".deps/npm/@openzeppelin/contracts/finance/PaymentSplitter.sol\":6031:6032  0 */\n      0x00\n        /* \".deps/npm/@openzeppelin/contracts/finance/PaymentSplitter.sol\":6020:6027  payment */\n      dup2\n        /* \".deps/npm/@openzeppelin/contracts/finance/PaymentSplitter.sol\":6020:6032  payment != 0 */\n      sub\n        /* \".deps/npm/@openzeppelin/contracts/finance/PaymentSplitter.sol\":6012:6080  require(payment != 0, \"PaymentSplitter: account is not due payment\") */\n      tag_85\n      jumpi\n      mload(0x40)\n      0x08c379a000000000000000000000000000000000000000000000000000000000\n      dup2\n      mstore\n      0x04\n      add\n      tag_86\n      swap1\n      tag_87\n      jump\t// in\n    tag_86:\n      mload(0x40)\n      dup1\n      swap2\n      sub\n      swap1\n      revert\n    tag_85:\n        /* \".deps/npm/@openzeppelin/contracts/finance/PaymentSplitter.sol\":6289:6296  payment */\n      dup1\n        /* \".deps/npm/@openzeppelin/contracts/finance/PaymentSplitter.sol\":6271:6285  _totalReleased */\n      0x01\n      0x00\n        /* \".deps/npm/@openzeppelin/contracts/finance/PaymentSplitter.sol\":6271:6296  _totalReleased += payment */\n      dup3\n      dup3\n      sload\n      tag_88\n      swap2\n      swap1\n      tag_89\n      jump\t// in\n    tag_88:\n      swap3\n      pop\n      pop\n      dup2\n      swap1\n      sstore\n      pop\n        /* \".deps/npm/@openzeppelin/contracts/finance/PaymentSplitter.sol\":6352:6359  payment */\n      dup1\n        /* \".deps/npm/@openzeppelin/contracts/finance/PaymentSplitter.sol\":6330:6339  _released */\n      0x03\n        /* \".deps/npm/@openzeppelin/contracts/finance/PaymentSplitter.sol\":6330:6348  _released[account] */\n      0x00\n        /* \".deps/npm/@openzeppelin/contracts/finance/PaymentSplitter.sol\":6340:6347  account */\n      dup5\n        /* \".deps/npm/@openzeppelin/contracts/finance/PaymentSplitter.sol\":6330:6348  _released[account] */\n      0xffffffffffffffffffffffffffffffffffffffff\n      and\n      0xffffffffffffffffffffffffffffffffffffffff\n      and\n      dup2\n      mstore\n      0x20\n      add\n      swap1\n      dup2\n      mstore\n      0x20\n      add\n      0x00\n      keccak256\n      0x00\n        /* \".deps/npm/@openzeppelin/contracts/finance/PaymentSplitter.sol\":6330:6359  _released[account] += payment */\n      dup3\n      dup3\n      sload\n      add\n      swap3\n      pop\n      pop\n      dup2\n      swap1\n      sstore\n      pop\n        /* \".deps/npm/@openzeppelin/contracts/finance/PaymentSplitter.sol\":6380:6415  Address.sendValue(account, payment) */\n      tag_90\n        /* \".deps/npm/@openzeppelin/contracts/finance/PaymentSplitter.sol\":6398:6405  account */\n      dup3\n        /* \".deps/npm/@openzeppelin/contracts/finance/PaymentSplitter.sol\":6407:6414  payment */\n      dup3\n        /* \".deps/npm/@openzeppelin/contracts/finance/PaymentSplitter.sol\":6380:6397  Address.sendValue */\n      tag_91\n        /* \".deps/npm/@openzeppelin/contracts/finance/PaymentSplitter.sol\":6380:6415  Address.sendValue(account, payment) */\n      jump\t// in\n    tag_90:\n        /* \".deps/npm/@openzeppelin/contracts/finance/PaymentSplitter.sol\":6430:6463  PaymentReleased(account, payment) */\n      0xdf20fd1e76bc69d672e4814fafb2c449bba3a5369d8359adf9e05e6fde87b056\n        /* \".deps/npm/@openzeppelin/contracts/finance/PaymentSplitter.sol\":6446:6453  account */\n      dup3\n        /* \".deps/npm/@openzeppelin/contracts/finance/PaymentSplitter.sol\":6455:6462  payment */\n      dup3\n        /* \".deps/npm/@openzeppelin/contracts/finance/PaymentSplitter.sol\":6430:6463  PaymentReleased(account, payment) */\n      mload(0x40)\n      tag_92\n      swap3\n      swap2\n      swap1\n      tag_93\n      jump\t// in\n    tag_92:\n      mload(0x40)\n      dup1\n      swap2\n      sub\n      swap1\n      log1\n        /* \".deps/npm/@openzeppelin/contracts/finance/PaymentSplitter.sol\":5872:6470  {... */\n      pop\n        /* \".deps/npm/@openzeppelin/contracts/finance/PaymentSplitter.sol\":5815:6470  function release(address payable account) public virtual {... */\n      pop\n      jump\t// out\n        /* \".deps/npm/@openzeppelin/contracts/finance/PaymentSplitter.sol\":3494:3583  function totalShares() public view returns (uint256) {... */\n    tag_28:\n        /* \".deps/npm/@openzeppelin/contracts/finance/PaymentSplitter.sol\":3538:3545  uint256 */\n      0x00\n        /* \".deps/npm/@openzeppelin/contracts/finance/PaymentSplitter.sol\":3564:3576  _totalShares */\n      dup1\n      sload\n        /* \".deps/npm/@openzeppelin/contracts/finance/PaymentSplitter.sol\":3557:3576  return _totalShares */\n      swap1\n      pop\n        /* \".deps/npm/@openzeppelin/contracts/finance/PaymentSplitter.sol\":3494:3583  function totalShares() public view returns (uint256) {... */\n      swap1\n      jump\t// out\n        /* \".deps/npm/@openzeppelin/contracts/finance/PaymentSplitter.sol\":4586:4719  function released(IERC20 token, address account) public view returns (uint256) {... */\n    tag_35:\n        /* \".deps/npm/@openzeppelin/contracts/finance/PaymentSplitter.sol\":4656:4663  uint256 */\n      0x00\n        /* \".deps/npm/@openzeppelin/contracts/finance/PaymentSplitter.sol\":4682:4696  _erc20Released */\n      0x06\n        /* \".deps/npm/@openzeppelin/contracts/finance/PaymentSplitter.sol\":4682:4703  _erc20Released[token] */\n      0x00\n        /* \".deps/npm/@openzeppelin/contracts/finance/PaymentSplitter.sol\":4697:4702  token */\n      dup5\n        /* \".deps/npm/@openzeppelin/contracts/finance/PaymentSplitter.sol\":4682:4703  _erc20Released[token] */\n      0xffffffffffffffffffffffffffffffffffffffff\n      and\n      0xffffffffffffffffffffffffffffffffffffffff\n      and\n      dup2\n      mstore\n      0x20\n      add\n      swap1\n      dup2\n      mstore\n      0x20\n      add\n      0x00\n      keccak256\n        /* \".deps/npm/@openzeppelin/contracts/finance/PaymentSplitter.sol\":4682:4712  _erc20Released[token][account] */\n      0x00\n        /* \".deps/npm/@openzeppelin/contracts/finance/PaymentSplitter.sol\":4704:4711  account */\n      dup4\n        /* \".deps/npm/@openzeppelin/contracts/finance/PaymentSplitter.sol\":4682:4712  _erc20Released[token][account] */\n      0xffffffffffffffffffffffffffffffffffffffff\n      and\n      0xffffffffffffffffffffffffffffffffffffffff\n      and\n      dup2\n      mstore\n      0x20\n      add\n      swap1\n      dup2\n      mstore\n      0x20\n      add\n      0x00\n      keccak256\n      sload\n        /* \".deps/npm/@openzeppelin/contracts/finance/PaymentSplitter.sol\":4675:4712  return _erc20Released[token][account] */\n      swap1\n      pop\n        /* \".deps/npm/@openzeppelin/contracts/finance/PaymentSplitter.sol\":4586:4719  function released(IERC20 token, address account) public view returns (uint256) {... */\n      swap3\n      swap2\n      pop\n      pop\n      jump\t// out\n        /* \".deps/npm/@openzeppelin/contracts/finance/PaymentSplitter.sol\":6731:7506  function release(IERC20 token, address account) public virtual {... */\n    tag_40:\n        /* \".deps/npm/@openzeppelin/contracts/finance/PaymentSplitter.sol\":6831:6832  0 */\n      0x00\n        /* \".deps/npm/@openzeppelin/contracts/finance/PaymentSplitter.sol\":6812:6819  _shares */\n      0x02\n        /* \".deps/npm/@openzeppelin/contracts/finance/PaymentSplitter.sol\":6812:6828  _shares[account] */\n      0x00\n        /* \".deps/npm/@openzeppelin/contracts/finance/PaymentSplitter.sol\":6820:6827  account */\n      dup4\n        /* \".deps/npm/@openzeppelin/contracts/finance/PaymentSplitter.sol\":6812:6828  _shares[account] */\n      0xffffffffffffffffffffffffffffffffffffffff\n      and\n      0xffffffffffffffffffffffffffffffffffffffff\n      and\n      dup2\n      mstore\n      0x20\n      add\n      swap1\n      dup2\n      mstore\n      0x20\n      add\n      0x00\n      keccak256\n      sload\n        /* \".deps/npm/@openzeppelin/contracts/finance/PaymentSplitter.sol\":6812:6832  _shares[account] > 0 */\n      gt\n        /* \".deps/npm/@openzeppelin/contracts/finance/PaymentSplitter.sol\":6804:6875  require(_shares[account] > 0, \"PaymentSplitter: account has no shares\") */\n      tag_97\n      jumpi\n      mload(0x40)\n      0x08c379a000000000000000000000000000000000000000000000000000000000\n      dup2\n      mstore\n      0x04\n      add\n      tag_98\n      swap1\n      tag_83\n      jump\t// in\n    tag_98:\n      mload(0x40)\n      dup1\n      swap2\n      sub\n      swap1\n      revert\n    tag_97:\n        /* \".deps/npm/@openzeppelin/contracts/finance/PaymentSplitter.sol\":6886:6901  uint256 payment */\n      0x00\n        /* \".deps/npm/@openzeppelin/contracts/finance/PaymentSplitter.sol\":6904:6930  releasable(token, account) */\n      tag_99\n        /* \".deps/npm/@openzeppelin/contracts/finance/PaymentSplitter.sol\":6915:6920  token */\n      dup4\n        /* \".deps/npm/@openzeppelin/contracts/finance/PaymentSplitter.sol\":6922:6929  account */\n      dup4\n        /* \".deps/npm/@openzeppelin/contracts/finance/PaymentSplitter.sol\":6904:6914  releasable */\n      tag_62\n        /* \".deps/npm/@openzeppelin/contracts/finance/PaymentSplitter.sol\":6904:6930  releasable(token, account) */\n      jump\t// in\n    tag_99:\n        /* \".deps/npm/@openzeppelin/contracts/finance/PaymentSplitter.sol\":6886:6930  uint256 payment = releasable(token, account) */\n      swap1\n      pop\n        /* \".deps/npm/@openzeppelin/contracts/finance/PaymentSplitter.sol\":6960:6961  0 */\n      0x00\n        /* \".deps/npm/@openzeppelin/contracts/finance/PaymentSplitter.sol\":6949:6956  payment */\n      dup2\n        /* \".deps/npm/@openzeppelin/contracts/finance/PaymentSplitter.sol\":6949:6961  payment != 0 */\n      sub\n        /* \".deps/npm/@openzeppelin/contracts/finance/PaymentSplitter.sol\":6941:7009  require(payment != 0, \"PaymentSplitter: account is not due payment\") */\n      tag_100\n      jumpi\n      mload(0x40)\n      0x08c379a000000000000000000000000000000000000000000000000000000000\n      dup2\n      mstore\n      0x04\n      add\n      tag_101\n      swap1\n      tag_87\n      jump\t// in\n    tag_101:\n      mload(0x40)\n      dup1\n      swap2\n      sub\n      swap1\n      revert\n    tag_100:\n        /* \".deps/npm/@openzeppelin/contracts/finance/PaymentSplitter.sol\":7289:7296  payment */\n      dup1\n        /* \".deps/npm/@openzeppelin/contracts/finance/PaymentSplitter.sol\":7259:7278  _erc20TotalReleased */\n      0x05\n        /* \".deps/npm/@openzeppelin/contracts/finance/PaymentSplitter.sol\":7259:7285  _erc20TotalReleased[token] */\n      0x00\n        /* \".deps/npm/@openzeppelin/contracts/finance/PaymentSplitter.sol\":7279:7284  token */\n      dup6\n        /* \".deps/npm/@openzeppelin/contracts/finance/PaymentSplitter.sol\":7259:7285  _erc20TotalReleased[token] */\n      0xffffffffffffffffffffffffffffffffffffffff\n      and\n      0xffffffffffffffffffffffffffffffffffffffff\n      and\n      dup2\n      mstore\n      0x20\n      add\n      swap1\n      dup2\n      mstore\n      0x20\n      add\n      0x00\n      keccak256\n      0x00\n        /* \".deps/npm/@openzeppelin/contracts/finance/PaymentSplitter.sol\":7259:7296  _erc20TotalReleased[token] += payment */\n      dup3\n      dup3\n      sload\n      tag_102\n      swap2\n      swap1\n      tag_89\n      jump\t// in\n    tag_102:\n      swap3\n      pop\n      pop\n      dup2\n      swap1\n      sstore\n      pop\n        /* \".deps/npm/@openzeppelin/contracts/finance/PaymentSplitter.sol\":7364:7371  payment */\n      dup1\n        /* \".deps/npm/@openzeppelin/contracts/finance/PaymentSplitter.sol\":7330:7344  _erc20Released */\n      0x06\n        /* \".deps/npm/@openzeppelin/contracts/finance/PaymentSplitter.sol\":7330:7351  _erc20Released[token] */\n      0x00\n        /* \".deps/npm/@openzeppelin/contracts/finance/PaymentSplitter.sol\":7345:7350  token */\n      dup6\n        /* \".deps/npm/@openzeppelin/contracts/finance/PaymentSplitter.sol\":7330:7351  _erc20Released[token] */\n      0xffffffffffffffffffffffffffffffffffffffff\n      and\n      0xffffffffffffffffffffffffffffffffffffffff\n      and\n      dup2\n      mstore\n      0x20\n      add\n      swap1\n      dup2\n      mstore\n      0x20\n      add\n      0x00\n      keccak256\n        /* \".deps/npm/@openzeppelin/contracts/finance/PaymentSplitter.sol\":7330:7360  _erc20Released[token][account] */\n      0x00\n        /* \".deps/npm/@openzeppelin/contracts/finance/PaymentSplitter.sol\":7352:7359  account */\n      dup5\n        /* \".deps/npm/@openzeppelin/contracts/finance/PaymentSplitter.sol\":7330:7360  _erc20Released[token][account] */\n      0xffffffffffffffffffffffffffffffffffffffff\n      and\n      0xffffffffffffffffffffffffffffffffffffffff\n      and\n      dup2\n      mstore\n      0x20\n      add\n      swap1\n      dup2\n      mstore\n      0x20\n      add\n      0x00\n      keccak256\n      0x00\n        /* \".deps/npm/@openzeppelin/contracts/finance/PaymentSplitter.sol\":7330:7371  _erc20Released[token][account] += payment */\n      dup3\n      dup3\n      sload\n      add\n      swap3\n      pop\n      pop\n      dup2\n      swap1\n      sstore\n      pop\n        /* \".deps/npm/@openzeppelin/contracts/finance/PaymentSplitter.sol\":7392:7439  SafeERC20.safeTransfer(token, account, payment) */\n      tag_103\n        /* \".deps/npm/@openzeppelin/contracts/finance/PaymentSplitter.sol\":7415:7420  token */\n      dup4\n        /* \".deps/npm/@openzeppelin/contracts/finance/PaymentSplitter.sol\":7422:7429  account */\n      dup4\n        /* \".deps/npm/@openzeppelin/contracts/finance/PaymentSplitter.sol\":7431:7438  payment */\n      dup4\n        /* \".deps/npm/@openzeppelin/contracts/finance/PaymentSplitter.sol\":7392:7414  SafeERC20.safeTransfer */\n      tag_104\n        /* \".deps/npm/@openzeppelin/contracts/finance/PaymentSplitter.sol\":7392:7439  SafeERC20.safeTransfer(token, account, payment) */\n      jump\t// in\n    tag_103:\n        /* \".deps/npm/@openzeppelin/contracts/finance/PaymentSplitter.sol\":7475:7480  token */\n      dup3\n        /* \".deps/npm/@openzeppelin/contracts/finance/PaymentSplitter.sol\":7454:7499  ERC20PaymentReleased(token, account, payment) */\n      0xffffffffffffffffffffffffffffffffffffffff\n      and\n      0x3be5b7a71e84ed12875d241991c70855ac5817d847039e17a9d895c1ceb0f18a\n        /* \".deps/npm/@openzeppelin/contracts/finance/PaymentSplitter.sol\":7482:7489  account */\n      dup4\n        /* \".deps/npm/@openzeppelin/contracts/finance/PaymentSplitter.sol\":7491:7498  payment */\n      dup4\n        /* \".deps/npm/@openzeppelin/contracts/finance/PaymentSplitter.sol\":7454:7499  ERC20PaymentReleased(token, account, payment) */\n      mload(0x40)\n      tag_105\n      swap3\n      swap2\n      swap1\n      tag_20\n      jump\t// in\n    tag_105:\n      mload(0x40)\n      dup1\n      swap2\n      sub\n      swap1\n      log2\n        /* \".deps/npm/@openzeppelin/contracts/finance/PaymentSplitter.sol\":6794:7506  {... */\n      pop\n        /* \".deps/npm/@openzeppelin/contracts/finance/PaymentSplitter.sol\":6731:7506  function release(IERC20 token, address account) public virtual {... */\n      pop\n      pop\n      jump\t// out\n        /* \".deps/npm/@openzeppelin/contracts/finance/PaymentSplitter.sol\":4805:4903  function payee(uint256 index) public view returns (address) {... */\n    tag_45:\n        /* \".deps/npm/@openzeppelin/contracts/finance/PaymentSplitter.sol\":4856:4863  address */\n      0x00\n        /* \".deps/npm/@openzeppelin/contracts/finance/PaymentSplitter.sol\":4882:4889  _payees */\n      0x04\n        /* \".deps/npm/@openzeppelin/contracts/finance/PaymentSplitter.sol\":4890:4895  index */\n      dup3\n        /* \".deps/npm/@openzeppelin/contracts/finance/PaymentSplitter.sol\":4882:4896  _payees[index] */\n      dup2\n      sload\n      dup2\n      lt\n      tag_107\n      jumpi\n      tag_108\n      tag_109\n      jump\t// in\n    tag_108:\n    tag_107:\n      swap1\n      0x00\n      mstore\n      keccak256(0x00, 0x20)\n      add\n      0x00\n      swap1\n      sload\n      swap1\n      0x0100\n      exp\n      swap1\n      div\n      0xffffffffffffffffffffffffffffffffffffffff\n      and\n        /* \".deps/npm/@openzeppelin/contracts/finance/PaymentSplitter.sol\":4875:4896  return _payees[index] */\n      swap1\n      pop\n        /* \".deps/npm/@openzeppelin/contracts/finance/PaymentSplitter.sol\":4805:4903  function payee(uint256 index) public view returns (address) {... */\n      swap2\n      swap1\n      pop\n      jump\t// out\n        /* \".deps/npm/@openzeppelin/contracts/finance/PaymentSplitter.sol\":4316:4423  function released(address account) public view returns (uint256) {... */\n    tag_52:\n        /* \".deps/npm/@openzeppelin/contracts/finance/PaymentSplitter.sol\":4372:4379  uint256 */\n      0x00\n        /* \".deps/npm/@openzeppelin/contracts/finance/PaymentSplitter.sol\":4398:4407  _released */\n      0x03\n        /* \".deps/npm/@openzeppelin/contracts/finance/PaymentSplitter.sol\":4398:4416  _released[account] */\n      0x00\n        /* \".deps/npm/@openzeppelin/contracts/finance/PaymentSplitter.sol\":4408:4415  account */\n      dup4\n        /* \".deps/npm/@openzeppelin/contracts/finance/PaymentSplitter.sol\":4398:4416  _released[account] */\n      0xffffffffffffffffffffffffffffffffffffffff\n      and\n      0xffffffffffffffffffffffffffffffffffffffff\n      and\n      dup2\n      mstore\n      0x20\n      add\n      swap1\n      dup2\n      mstore\n      0x20\n      add\n      0x00\n      keccak256\n      sload\n        /* \".deps/npm/@openzeppelin/contracts/finance/PaymentSplitter.sol\":4391:4416  return _released[account] */\n      swap1\n      pop\n        /* \".deps/npm/@openzeppelin/contracts/finance/PaymentSplitter.sol\":4316:4423  function released(address account) public view returns (uint256) {... */\n      swap2\n      swap1\n      pop\n      jump\t// out\n        /* \".deps/npm/@openzeppelin/contracts/finance/PaymentSplitter.sol\":4988:5210  function releasable(address account) public view returns (uint256) {... */\n    tag_57:\n        /* \".deps/npm/@openzeppelin/contracts/finance/PaymentSplitter.sol\":5046:5053  uint256 */\n      0x00\n        /* \".deps/npm/@openzeppelin/contracts/finance/PaymentSplitter.sol\":5065:5086  uint256 totalReceived */\n      dup1\n        /* \".deps/npm/@openzeppelin/contracts/finance/PaymentSplitter.sol\":5113:5128  totalReleased() */\n      tag_113\n        /* \".deps/npm/@openzeppelin/contracts/finance/PaymentSplitter.sol\":5113:5126  totalReleased */\n      tag_77\n        /* \".deps/npm/@openzeppelin/contracts/finance/PaymentSplitter.sol\":5113:5128  totalReleased() */\n      jump\t// in\n    tag_113:\n        /* \".deps/npm/@openzeppelin/contracts/finance/PaymentSplitter.sol\":5089:5110  address(this).balance */\n      selfbalance\n        /* \".deps/npm/@openzeppelin/contracts/finance/PaymentSplitter.sol\":5089:5128  address(this).balance + totalReleased() */\n      tag_114\n      swap2\n      swap1\n      tag_89\n      jump\t// in\n    tag_114:\n        /* \".deps/npm/@openzeppelin/contracts/finance/PaymentSplitter.sol\":5065:5128  uint256 totalReceived = address(this).balance + totalReleased() */\n      swap1\n      pop\n        /* \".deps/npm/@openzeppelin/contracts/finance/PaymentSplitter.sol\":5145:5203  _pendingPayment(account, totalReceived, released(account)) */\n      tag_115\n        /* \".deps/npm/@openzeppelin/contracts/finance/PaymentSplitter.sol\":5161:5168  account */\n      dup4\n        /* \".deps/npm/@openzeppelin/contracts/finance/PaymentSplitter.sol\":5170:5183  totalReceived */\n      dup3\n        /* \".deps/npm/@openzeppelin/contracts/finance/PaymentSplitter.sol\":5185:5202  released(account) */\n      tag_116\n        /* \".deps/npm/@openzeppelin/contracts/finance/PaymentSplitter.sol\":5194:5201  account */\n      dup7\n        /* \".deps/npm/@openzeppelin/contracts/finance/PaymentSplitter.sol\":5185:5193  released */\n      tag_52\n        /* \".deps/npm/@openzeppelin/contracts/finance/PaymentSplitter.sol\":5185:5202  released(account) */\n      jump\t// in\n    tag_116:\n        /* \".deps/npm/@openzeppelin/contracts/finance/PaymentSplitter.sol\":5145:5160  _pendingPayment */\n      tag_117\n        /* \".deps/npm/@openzeppelin/contracts/finance/PaymentSplitter.sol\":5145:5203  _pendingPayment(account, totalReceived, released(account)) */\n      jump\t// in\n    tag_115:\n        /* \".deps/npm/@openzeppelin/contracts/finance/PaymentSplitter.sol\":5138:5203  return _pendingPayment(account, totalReceived, released(account)) */\n      swap2\n      pop\n      pop\n        /* \".deps/npm/@openzeppelin/contracts/finance/PaymentSplitter.sol\":4988:5210  function releasable(address account) public view returns (uint256) {... */\n      swap2\n      swap1\n      pop\n      jump\t// out\n        /* \".deps/npm/@openzeppelin/contracts/finance/PaymentSplitter.sol\":5364:5621  function releasable(IERC20 token, address account) public view returns (uint256) {... */\n    tag_62:\n        /* \".deps/npm/@openzeppelin/contracts/finance/PaymentSplitter.sol\":5436:5443  uint256 */\n      0x00\n        /* \".deps/npm/@openzeppelin/contracts/finance/PaymentSplitter.sol\":5455:5476  uint256 totalReceived */\n      dup1\n        /* \".deps/npm/@openzeppelin/contracts/finance/PaymentSplitter.sol\":5512:5532  totalReleased(token) */\n      tag_119\n        /* \".deps/npm/@openzeppelin/contracts/finance/PaymentSplitter.sol\":5526:5531  token */\n      dup5\n        /* \".deps/npm/@openzeppelin/contracts/finance/PaymentSplitter.sol\":5512:5525  totalReleased */\n      tag_73\n        /* \".deps/npm/@openzeppelin/contracts/finance/PaymentSplitter.sol\":5512:5532  totalReleased(token) */\n      jump\t// in\n    tag_119:\n        /* \".deps/npm/@openzeppelin/contracts/finance/PaymentSplitter.sol\":5479:5484  token */\n      dup5\n        /* \".deps/npm/@openzeppelin/contracts/finance/PaymentSplitter.sol\":5479:5494  token.balanceOf */\n      0xffffffffffffffffffffffffffffffffffffffff\n      and\n      0x70a08231\n        /* \".deps/npm/@openzeppelin/contracts/finance/PaymentSplitter.sol\":5503:5507  this */\n      address\n        /* \".deps/npm/@openzeppelin/contracts/finance/PaymentSplitter.sol\":5479:5509  token.balanceOf(address(this)) */\n      mload(0x40)\n      dup3\n      0xffffffff\n      and\n      0xe0\n      shl\n      dup2\n      mstore\n      0x04\n      add\n      tag_120\n      swap2\n      swap1\n      tag_47\n      jump\t// in\n    tag_120:\n      0x20\n      mload(0x40)\n      dup1\n      dup4\n      sub\n      dup2\n      dup7\n      gas\n      staticcall\n      iszero\n      dup1\n      iszero\n      tag_122\n      jumpi\n      returndatasize\n      0x00\n      dup1\n      returndatacopy\n      revert(0x00, returndatasize)\n    tag_122:\n      pop\n      pop\n      pop\n      pop\n      mload(0x40)\n      returndatasize\n      not(0x1f)\n      0x1f\n      dup3\n      add\n      and\n      dup3\n      add\n      dup1\n      0x40\n      mstore\n      pop\n      dup2\n      add\n      swap1\n      tag_123\n      swap2\n      swap1\n      tag_124\n      jump\t// in\n    tag_123:\n        /* \".deps/npm/@openzeppelin/contracts/finance/PaymentSplitter.sol\":5479:5532  token.balanceOf(address(this)) + totalReleased(token) */\n      tag_125\n      swap2\n      swap1\n      tag_89\n      jump\t// in\n    tag_125:\n        /* \".deps/npm/@openzeppelin/contracts/finance/PaymentSplitter.sol\":5455:5532  uint256 totalReceived = token.balanceOf(address(this)) + totalReleased(token) */\n      swap1\n      pop\n        /* \".deps/npm/@openzeppelin/contracts/finance/PaymentSplitter.sol\":5549:5614  _pendingPayment(account, totalReceived, released(token, account)) */\n      tag_126\n        /* \".deps/npm/@openzeppelin/contracts/finance/PaymentSplitter.sol\":5565:5572  account */\n      dup4\n        /* \".deps/npm/@openzeppelin/contracts/finance/PaymentSplitter.sol\":5574:5587  totalReceived */\n      dup3\n        /* \".deps/npm/@openzeppelin/contracts/finance/PaymentSplitter.sol\":5589:5613  released(token, account) */\n      tag_127\n        /* \".deps/npm/@openzeppelin/contracts/finance/PaymentSplitter.sol\":5598:5603  token */\n      dup8\n        /* \".deps/npm/@openzeppelin/contracts/finance/PaymentSplitter.sol\":5605:5612  account */\n      dup8\n        /* \".deps/npm/@openzeppelin/contracts/finance/PaymentSplitter.sol\":5589:5597  released */\n      tag_35\n        /* \".deps/npm/@openzeppelin/contracts/finance/PaymentSplitter.sol\":5589:5613  released(token, account) */\n      jump\t// in\n    tag_127:\n        /* \".deps/npm/@openzeppelin/contracts/finance/PaymentSplitter.sol\":5549:5564  _pendingPayment */\n      tag_117\n        /* \".deps/npm/@openzeppelin/contracts/finance/PaymentSplitter.sol\":5549:5614  _pendingPayment(account, totalReceived, released(token, account)) */\n      jump\t// in\n    tag_126:\n        /* \".deps/npm/@openzeppelin/contracts/finance/PaymentSplitter.sol\":5542:5614  return _pendingPayment(account, totalReceived, released(token, account)) */\n      swap2\n      pop\n      pop\n        /* \".deps/npm/@openzeppelin/contracts/finance/PaymentSplitter.sol\":5364:5621  function releasable(IERC20 token, address account) public view returns (uint256) {... */\n      swap3\n      swap2\n      pop\n      pop\n      jump\t// out\n        /* \".deps/npm/@openzeppelin/contracts/finance/PaymentSplitter.sol\":4119:4222  function shares(address account) public view returns (uint256) {... */\n    tag_67:\n        /* \".deps/npm/@openzeppelin/contracts/finance/PaymentSplitter.sol\":4173:4180  uint256 */\n      0x00\n        /* \".deps/npm/@openzeppelin/contracts/finance/PaymentSplitter.sol\":4199:4206  _shares */\n      0x02\n        /* \".deps/npm/@openzeppelin/contracts/finance/PaymentSplitter.sol\":4199:4215  _shares[account] */\n      0x00\n        /* \".deps/npm/@openzeppelin/contracts/finance/PaymentSplitter.sol\":4207:4214  account */\n      dup4\n        /* \".deps/npm/@openzeppelin/contracts/finance/PaymentSplitter.sol\":4199:4215  _shares[account] */\n      0xffffffffffffffffffffffffffffffffffffffff\n      and\n      0xffffffffffffffffffffffffffffffffffffffff\n      and\n      dup2\n      mstore\n      0x20\n      add\n      swap1\n      dup2\n      mstore\n      0x20\n      add\n      0x00\n      keccak256\n      sload\n        /* \".deps/npm/@openzeppelin/contracts/finance/PaymentSplitter.sol\":4192:4215  return _shares[account] */\n      swap1\n      pop\n        /* \".deps/npm/@openzeppelin/contracts/finance/PaymentSplitter.sol\":4119:4222  function shares(address account) public view returns (uint256) {... */\n      swap2\n      swap1\n      pop\n      jump\t// out\n        /* \".deps/npm/@openzeppelin/contracts/finance/PaymentSplitter.sol\":3916:4033  function totalReleased(IERC20 token) public view returns (uint256) {... */\n    tag_73:\n        /* \".deps/npm/@openzeppelin/contracts/finance/PaymentSplitter.sol\":3974:3981  uint256 */\n      0x00\n        /* \".deps/npm/@openzeppelin/contracts/finance/PaymentSplitter.sol\":4000:4019  _erc20TotalReleased */\n      0x05\n        /* \".deps/npm/@openzeppelin/contracts/finance/PaymentSplitter.sol\":4000:4026  _erc20TotalReleased[token] */\n      0x00\n        /* \".deps/npm/@openzeppelin/contracts/finance/PaymentSplitter.sol\":4020:4025  token */\n      dup4\n        /* \".deps/npm/@openzeppelin/contracts/finance/PaymentSplitter.sol\":4000:4026  _erc20TotalReleased[token] */\n      0xffffffffffffffffffffffffffffffffffffffff\n      and\n      0xffffffffffffffffffffffffffffffffffffffff\n      and\n      dup2\n      mstore\n      0x20\n      add\n      swap1\n      dup2\n      mstore\n      0x20\n      add\n      0x00\n      keccak256\n      sload\n        /* \".deps/npm/@openzeppelin/contracts/finance/PaymentSplitter.sol\":3993:4026  return _erc20TotalReleased[token] */\n      swap1\n      pop\n        /* \".deps/npm/@openzeppelin/contracts/finance/PaymentSplitter.sol\":3916:4033  function totalReleased(IERC20 token) public view returns (uint256) {... */\n      swap2\n      swap1\n      pop\n      jump\t// out\n        /* \".deps/npm/@openzeppelin/contracts/finance/PaymentSplitter.sol\":3672:3765  function totalReleased() public view returns (uint256) {... */\n    tag_77:\n        /* \".deps/npm/@openzeppelin/contracts/finance/PaymentSplitter.sol\":3718:3725  uint256 */\n      0x00\n        /* \".deps/npm/@openzeppelin/contracts/finance/PaymentSplitter.sol\":3744:3758  _totalReleased */\n      sload(0x01)\n        /* \".deps/npm/@openzeppelin/contracts/finance/PaymentSplitter.sol\":3737:3758  return _totalReleased */\n      swap1\n      pop\n        /* \".deps/npm/@openzeppelin/contracts/finance/PaymentSplitter.sol\":3672:3765  function totalReleased() public view returns (uint256) {... */\n      swap1\n      jump\t// out\n        /* \".deps/npm/@openzeppelin/contracts/utils/Address.sol\":1290:1639  function sendValue(address payable recipient, uint256 amount) internal {... */\n    tag_91:\n        /* \".deps/npm/@openzeppelin/contracts/utils/Address.sol\":1399:1405  amount */\n      dup1\n        /* \".deps/npm/@openzeppelin/contracts/utils/Address.sol\":1375:1396  address(this).balance */\n      selfbalance\n        /* \".deps/npm/@openzeppelin/contracts/utils/Address.sol\":1375:1405  address(this).balance < amount */\n      lt\n        /* \".deps/npm/@openzeppelin/contracts/utils/Address.sol\":1371:1496  if (address(this).balance < amount) {... */\n      iszero\n      tag_132\n      jumpi\n        /* \".deps/npm/@openzeppelin/contracts/utils/Address.sol\":1455:1476  address(this).balance */\n      selfbalance\n        /* \".deps/npm/@openzeppelin/contracts/utils/Address.sol\":1478:1484  amount */\n      dup2\n        /* \".deps/npm/@openzeppelin/contracts/utils/Address.sol\":1428:1485  Errors.InsufficientBalance(address(this).balance, amount) */\n      mload(0x40)\n      0xcf47918100000000000000000000000000000000000000000000000000000000\n      dup2\n      mstore\n      0x04\n      add\n      tag_133\n      swap3\n      swap2\n      swap1\n      tag_134\n      jump\t// in\n    tag_133:\n      mload(0x40)\n      dup1\n      swap2\n      sub\n      swap1\n      revert\n        /* \".deps/npm/@openzeppelin/contracts/utils/Address.sol\":1371:1496  if (address(this).balance < amount) {... */\n    tag_132:\n        /* \".deps/npm/@openzeppelin/contracts/utils/Address.sol\":1507:1519  bool success */\n      0x00\n        /* \".deps/npm/@openzeppelin/contracts/utils/Address.sol\":1525:1534  recipient */\n      dup3\n        /* \".deps/npm/@openzeppelin/contracts/utils/Address.sol\":1525:1539  recipient.call */\n      0xffffffffffffffffffffffffffffffffffffffff\n      and\n        /* \".deps/npm/@openzeppelin/contracts/utils/Address.sol\":1547:1553  amount */\n      dup3\n        /* \".deps/npm/@openzeppelin/contracts/utils/Address.sol\":1525:1558  recipient.call{value: amount}(\"\") */\n      mload(0x40)\n      tag_135\n      swap1\n      tag_136\n      jump\t// in\n    tag_135:\n      0x00\n      mload(0x40)\n      dup1\n      dup4\n      sub\n      dup2\n      dup6\n      dup8\n      gas\n      call\n      swap3\n      pop\n      pop\n      pop\n      returndatasize\n      dup1\n      0x00\n      dup2\n      eq\n      tag_139\n      jumpi\n      mload(0x40)\n      swap2\n      pop\n      and(add(returndatasize, 0x3f), not(0x1f))\n      dup3\n      add\n      0x40\n      mstore\n      returndatasize\n      dup3\n      mstore\n      returndatasize\n      0x00\n      0x20\n      dup5\n      add\n      returndatacopy\n      jump(tag_138)\n    tag_139:\n      0x60\n      swap2\n      pop\n    tag_138:\n      pop\n        /* \".deps/npm/@openzeppelin/contracts/utils/Address.sol\":1506:1558  (bool success, ) = recipient.call{value: amount}(\"\") */\n      pop\n      swap1\n      pop\n        /* \".deps/npm/@openzeppelin/contracts/utils/Address.sol\":1573:1580  success */\n      dup1\n        /* \".deps/npm/@openzeppelin/contracts/utils/Address.sol\":1568:1633  if (!success) {... */\n      tag_140\n      jumpi\n        /* \".deps/npm/@openzeppelin/contracts/utils/Address.sol\":1603:1622  Errors.FailedCall() */\n      mload(0x40)\n      0xd6bda27500000000000000000000000000000000000000000000000000000000\n      dup2\n      mstore\n      0x04\n      add\n      mload(0x40)\n      dup1\n      swap2\n      sub\n      swap1\n      revert\n        /* \".deps/npm/@openzeppelin/contracts/utils/Address.sol\":1568:1633  if (!success) {... */\n    tag_140:\n        /* \".deps/npm/@openzeppelin/contracts/utils/Address.sol\":1361:1639  {... */\n      pop\n        /* \".deps/npm/@openzeppelin/contracts/utils/Address.sol\":1290:1639  function sendValue(address payable recipient, uint256 amount) internal {... */\n      pop\n      pop\n      jump\t// out\n        /* \".deps/npm/@openzeppelin/contracts/token/ERC20/utils/SafeERC20.sol\":1271:1431  function safeTransfer(IERC20 token, address to, uint256 value) internal {... */\n    tag_104:\n        /* \".deps/npm/@openzeppelin/contracts/token/ERC20/utils/SafeERC20.sol\":1353:1424  _callOptionalReturn(token, abi.encodeCall(token.transfer, (to, value))) */\n      tag_142\n        /* \".deps/npm/@openzeppelin/contracts/token/ERC20/utils/SafeERC20.sol\":1373:1378  token */\n      dup4\n        /* \".deps/npm/@openzeppelin/contracts/token/ERC20/utils/SafeERC20.sol\":1395:1400  token */\n      dup5\n        /* \".deps/npm/@openzeppelin/contracts/token/ERC20/utils/SafeERC20.sol\":1395:1409  token.transfer */\n      0xffffffffffffffffffffffffffffffffffffffff\n      and\n      0xa9059cbb\n        /* \".deps/npm/@openzeppelin/contracts/token/ERC20/utils/SafeERC20.sol\":1412:1414  to */\n      dup6\n        /* \".deps/npm/@openzeppelin/contracts/token/ERC20/utils/SafeERC20.sol\":1416:1421  value */\n      dup6\n        /* \".deps/npm/@openzeppelin/contracts/token/ERC20/utils/SafeERC20.sol\":1380:1423  abi.encodeCall(token.transfer, (to, value)) */\n      add(0x24, mload(0x40))\n      tag_143\n      swap3\n      swap2\n      swap1\n      tag_20\n      jump\t// in\n    tag_143:\n      mload(0x40)\n      0x20\n      dup2\n      dup4\n      sub\n      sub\n      dup2\n      mstore\n      swap1\n      0x40\n      mstore\n      swap2\n      pop\n      0xe0\n      shl\n      0x20\n      dup3\n      add\n      dup1\n      mload\n      0xffffffffffffffffffffffffffffffffffffffffffffffffffffffff\n      dup4\n      dup2\n      dup4\n      and\n      or\n      dup4\n      mstore\n      pop\n      pop\n      pop\n      pop\n        /* \".deps/npm/@openzeppelin/contracts/token/ERC20/utils/SafeERC20.sol\":1353:1372  _callOptionalReturn */\n      tag_144\n        /* \".deps/npm/@openzeppelin/contracts/token/ERC20/utils/SafeERC20.sol\":1353:1424  _callOptionalReturn(token, abi.encodeCall(token.transfer, (to, value))) */\n      jump\t// in\n    tag_142:\n        /* \".deps/npm/@openzeppelin/contracts/token/ERC20/utils/SafeERC20.sol\":1271:1431  function safeTransfer(IERC20 token, address to, uint256 value) internal {... */\n      pop\n      pop\n      pop\n      jump\t// out\n        /* \".deps/npm/@openzeppelin/contracts/finance/PaymentSplitter.sol\":7678:7920  function _pendingPayment(... */\n    tag_117:\n        /* \".deps/npm/@openzeppelin/contracts/finance/PaymentSplitter.sol\":7820:7827  uint256 */\n      0x00\n        /* \".deps/npm/@openzeppelin/contracts/finance/PaymentSplitter.sol\":7898:7913  alreadyReleased */\n      dup2\n        /* \".deps/npm/@openzeppelin/contracts/finance/PaymentSplitter.sol\":7883:7895  _totalShares */\n      sload(0x00)\n        /* \".deps/npm/@openzeppelin/contracts/finance/PaymentSplitter.sol\":7863:7870  _shares */\n      0x02\n        /* \".deps/npm/@openzeppelin/contracts/finance/PaymentSplitter.sol\":7863:7879  _shares[account] */\n      0x00\n        /* \".deps/npm/@openzeppelin/contracts/finance/PaymentSplitter.sol\":7871:7878  account */\n      dup8\n        /* \".deps/npm/@openzeppelin/contracts/finance/PaymentSplitter.sol\":7863:7879  _shares[account] */\n      0xffffffffffffffffffffffffffffffffffffffff\n      and\n      0xffffffffffffffffffffffffffffffffffffffff\n      and\n      dup2\n      mstore\n      0x20\n      add\n      swap1\n      dup2\n      mstore\n      0x20\n      add\n      0x00\n      keccak256\n      sload\n        /* \".deps/npm/@openzeppelin/contracts/finance/PaymentSplitter.sol\":7847:7860  totalReceived */\n      dup6\n        /* \".deps/npm/@openzeppelin/contracts/finance/PaymentSplitter.sol\":7847:7879  totalReceived * _shares[account] */\n      tag_146\n      swap2\n      swap1\n      tag_147\n      jump\t// in\n    tag_146:\n        /* \".deps/npm/@openzeppelin/contracts/finance/PaymentSplitter.sol\":7846:7895  (totalReceived * _shares[account]) / _totalShares */\n      tag_148\n      swap2\n      swap1\n      tag_149\n      jump\t// in\n    tag_148:\n        /* \".deps/npm/@openzeppelin/contracts/finance/PaymentSplitter.sol\":7846:7913  (totalReceived * _shares[account]) / _totalShares - alreadyReleased */\n      tag_150\n      swap2\n      swap1\n      tag_151\n      jump\t// in\n    tag_150:\n        /* \".deps/npm/@openzeppelin/contracts/finance/PaymentSplitter.sol\":7839:7913  return (totalReceived * _shares[account]) / _totalShares - alreadyReleased */\n      swap1\n      pop\n        /* \".deps/npm/@openzeppelin/contracts/finance/PaymentSplitter.sol\":7678:7920  function _pendingPayment(... */\n      swap4\n      swap3\n      pop\n      pop\n      pop\n      jump\t// out\n        /* \".deps/npm/@openzeppelin/contracts/token/ERC20/utils/SafeERC20.sol\":7738:8458  function _callOptionalReturn(IERC20 token, bytes memory data) private {... */\n    tag_144:\n        /* \".deps/npm/@openzeppelin/contracts/token/ERC20/utils/SafeERC20.sol\":7818:7836  uint256 returnSize */\n      0x00\n        /* \".deps/npm/@openzeppelin/contracts/token/ERC20/utils/SafeERC20.sol\":7846:7865  uint256 returnValue */\n      dup1\n        /* \".deps/npm/@openzeppelin/contracts/token/ERC20/utils/SafeERC20.sol\":7984:7988  0x20 */\n      0x20\n        /* \".deps/npm/@openzeppelin/contracts/token/ERC20/utils/SafeERC20.sol\":7981:7982  0 */\n      0x00\n        /* \".deps/npm/@openzeppelin/contracts/token/ERC20/utils/SafeERC20.sol\":7974:7978  data */\n      dup5\n        /* \".deps/npm/@openzeppelin/contracts/token/ERC20/utils/SafeERC20.sol\":7968:7979  mload(data) */\n      mload\n        /* \".deps/npm/@openzeppelin/contracts/token/ERC20/utils/SafeERC20.sol\":7961:7965  0x20 */\n      0x20\n        /* \".deps/npm/@openzeppelin/contracts/token/ERC20/utils/SafeERC20.sol\":7955:7959  data */\n      dup7\n        /* \".deps/npm/@openzeppelin/contracts/token/ERC20/utils/SafeERC20.sol\":7951:7966  add(data, 0x20) */\n      add\n        /* \".deps/npm/@openzeppelin/contracts/token/ERC20/utils/SafeERC20.sol\":7948:7949  0 */\n      0x00\n        /* \".deps/npm/@openzeppelin/contracts/token/ERC20/utils/SafeERC20.sol\":7941:7946  token */\n      dup9\n        /* \".deps/npm/@openzeppelin/contracts/token/ERC20/utils/SafeERC20.sol\":7934:7939  gas() */\n      gas\n        /* \".deps/npm/@openzeppelin/contracts/token/ERC20/utils/SafeERC20.sol\":7929:7989  call(gas(), token, 0, add(data, 0x20), mload(data), 0, 0x20) */\n      call\n        /* \".deps/npm/@openzeppelin/contracts/token/ERC20/utils/SafeERC20.sol\":8041:8048  success */\n      dup1\n        /* \".deps/npm/@openzeppelin/contracts/token/ERC20/utils/SafeERC20.sol\":8031:8207  if iszero(success) {... */\n      tag_153\n      jumpi\n        /* \".deps/npm/@openzeppelin/contracts/token/ERC20/utils/SafeERC20.sol\":8085:8089  0x40 */\n      0x40\n        /* \".deps/npm/@openzeppelin/contracts/token/ERC20/utils/SafeERC20.sol\":8079:8090  mload(0x40) */\n      mload\n        /* \".deps/npm/@openzeppelin/contracts/token/ERC20/utils/SafeERC20.sol\":8130:8146  returndatasize() */\n      returndatasize\n        /* \".deps/npm/@openzeppelin/contracts/token/ERC20/utils/SafeERC20.sol\":8127:8128  0 */\n      0x00\n        /* \".deps/npm/@openzeppelin/contracts/token/ERC20/utils/SafeERC20.sol\":8122:8125  ptr */\n      dup3\n        /* \".deps/npm/@openzeppelin/contracts/token/ERC20/utils/SafeERC20.sol\":8107:8147  returndatacopy(ptr, 0, returndatasize()) */\n      returndatacopy\n        /* \".deps/npm/@openzeppelin/contracts/token/ERC20/utils/SafeERC20.sol\":8176:8192  returndatasize() */\n      returndatasize\n        /* \".deps/npm/@openzeppelin/contracts/token/ERC20/utils/SafeERC20.sol\":8171:8174  ptr */\n      dup2\n        /* \".deps/npm/@openzeppelin/contracts/token/ERC20/utils/SafeERC20.sol\":8164:8193  revert(ptr, returndatasize()) */\n      revert\n        /* \".deps/npm/@openzeppelin/contracts/token/ERC20/utils/SafeERC20.sol\":8031:8207  if iszero(success) {... */\n    tag_153:\n        /* \".deps/npm/@openzeppelin/contracts/token/ERC20/utils/SafeERC20.sol\":8234:8250  returndatasize() */\n      returndatasize\n        /* \".deps/npm/@openzeppelin/contracts/token/ERC20/utils/SafeERC20.sol\":8220:8250  returnSize := returndatasize() */\n      swap3\n      pop\n        /* \".deps/npm/@openzeppelin/contracts/token/ERC20/utils/SafeERC20.sol\":8284:8285  0 */\n      0x00\n        /* \".deps/npm/@openzeppelin/contracts/token/ERC20/utils/SafeERC20.sol\":8278:8286  mload(0) */\n      mload\n        /* \".deps/npm/@openzeppelin/contracts/token/ERC20/utils/SafeERC20.sol\":8263:8286  returnValue := mload(0) */\n      swap2\n      pop\n        /* \".deps/npm/@openzeppelin/contracts/token/ERC20/utils/SafeERC20.sol\":7900:8296  {... */\n      pop\n        /* \".deps/npm/@openzeppelin/contracts/token/ERC20/utils/SafeERC20.sol\":8324:8325  0 */\n      0x00\n        /* \".deps/npm/@openzeppelin/contracts/token/ERC20/utils/SafeERC20.sol\":8310:8320  returnSize */\n      dup3\n        /* \".deps/npm/@openzeppelin/contracts/token/ERC20/utils/SafeERC20.sol\":8310:8325  returnSize == 0 */\n      eq\n        /* \".deps/npm/@openzeppelin/contracts/token/ERC20/utils/SafeERC20.sol\":8310:8378  returnSize == 0 ? address(token).code.length == 0 : returnValue != 1 */\n      tag_154\n      jumpi\n        /* \".deps/npm/@openzeppelin/contracts/token/ERC20/utils/SafeERC20.sol\":8377:8378  1 */\n      0x01\n        /* \".deps/npm/@openzeppelin/contracts/token/ERC20/utils/SafeERC20.sol\":8362:8373  returnValue */\n      dup2\n        /* \".deps/npm/@openzeppelin/contracts/token/ERC20/utils/SafeERC20.sol\":8362:8378  returnValue != 1 */\n      eq\n      iszero\n        /* \".deps/npm/@openzeppelin/contracts/token/ERC20/utils/SafeERC20.sol\":8310:8378  returnSize == 0 ? address(token).code.length == 0 : returnValue != 1 */\n      jump(tag_155)\n    tag_154:\n        /* \".deps/npm/@openzeppelin/contracts/token/ERC20/utils/SafeERC20.sol\":8358:8359  0 */\n      0x00\n        /* \".deps/npm/@openzeppelin/contracts/token/ERC20/utils/SafeERC20.sol\":8336:8341  token */\n      dup5\n        /* \".deps/npm/@openzeppelin/contracts/token/ERC20/utils/SafeERC20.sol\":8328:8354  address(token).code.length */\n      0xffffffffffffffffffffffffffffffffffffffff\n      and\n      extcodesize\n        /* \".deps/npm/@openzeppelin/contracts/token/ERC20/utils/SafeERC20.sol\":8328:8359  address(token).code.length == 0 */\n      eq\n        /* \".deps/npm/@openzeppelin/contracts/token/ERC20/utils/SafeERC20.sol\":8310:8378  returnSize == 0 ? address(token).code.length == 0 : returnValue != 1 */\n    tag_155:\n        /* \".deps/npm/@openzeppelin/contracts/token/ERC20/utils/SafeERC20.sol\":8306:8452  if (returnSize == 0 ? address(token).code.length == 0 : returnValue != 1) {... */\n      iszero\n      tag_156\n      jumpi\n        /* \".deps/npm/@openzeppelin/contracts/token/ERC20/utils/SafeERC20.sol\":8434:8439  token */\n      dup4\n        /* \".deps/npm/@openzeppelin/contracts/token/ERC20/utils/SafeERC20.sol\":8401:8441  SafeERC20FailedOperation(address(token)) */\n      mload(0x40)\n      0x5274afe700000000000000000000000000000000000000000000000000000000\n      dup2\n      mstore\n      0x04\n      add\n      tag_157\n      swap2\n      swap1\n      tag_47\n      jump\t// in\n    tag_157:\n      mload(0x40)\n      dup1\n      swap2\n      sub\n      swap1\n      revert\n        /* \".deps/npm/@openzeppelin/contracts/token/ERC20/utils/SafeERC20.sol\":8306:8452  if (returnSize == 0 ? address(token).code.length == 0 : returnValue != 1) {... */\n    tag_156:\n        /* \".deps/npm/@openzeppelin/contracts/token/ERC20/utils/SafeERC20.sol\":7808:8458  {... */\n      pop\n      pop\n        /* \".deps/npm/@openzeppelin/contracts/token/ERC20/utils/SafeERC20.sol\":7738:8458  function _callOptionalReturn(IERC20 token, bytes memory data) private {... */\n      pop\n      pop\n      jump\t// out\n        /* \"#utility.yul\":7:133   */\n    tag_158:\n        /* \"#utility.yul\":44:51   */\n      0x00\n        /* \"#utility.yul\":84:126   */\n      0xffffffffffffffffffffffffffffffffffffffff\n        /* \"#utility.yul\":77:82   */\n      dup3\n        /* \"#utility.yul\":73:127   */\n      and\n        /* \"#utility.yul\":62:127   */\n      swap1\n      pop\n        /* \"#utility.yul\":7:133   */\n      swap2\n      swap1\n      pop\n      jump\t// out\n        /* \"#utility.yul\":139:235   */\n    tag_159:\n        /* \"#utility.yul\":176:183   */\n      0x00\n        /* \"#utility.yul\":205:229   */\n      tag_195\n        /* \"#utility.yul\":223:228   */\n      dup3\n        /* \"#utility.yul\":205:229   */\n      tag_158\n      jump\t// in\n    tag_195:\n        /* \"#utility.yul\":194:229   */\n      swap1\n      pop\n        /* \"#utility.yul\":139:235   */\n      swap2\n      swap1\n      pop\n      jump\t// out\n        /* \"#utility.yul\":241:359   */\n    tag_160:\n        /* \"#utility.yul\":328:352   */\n      tag_197\n        /* \"#utility.yul\":346:351   */\n      dup2\n        /* \"#utility.yul\":328:352   */\n      tag_159\n      jump\t// in\n    tag_197:\n        /* \"#utility.yul\":323:326   */\n      dup3\n        /* \"#utility.yul\":316:353   */\n      mstore\n        /* \"#utility.yul\":241:359   */\n      pop\n      pop\n      jump\t// out\n        /* \"#utility.yul\":365:442   */\n    tag_161:\n        /* \"#utility.yul\":402:409   */\n      0x00\n        /* \"#utility.yul\":431:436   */\n      dup2\n        /* \"#utility.yul\":420:436   */\n      swap1\n      pop\n        /* \"#utility.yul\":365:442   */\n      swap2\n      swap1\n      pop\n      jump\t// out\n        /* \"#utility.yul\":448:566   */\n    tag_162:\n        /* \"#utility.yul\":535:559   */\n      tag_200\n        /* \"#utility.yul\":553:558   */\n      dup2\n        /* \"#utility.yul\":535:559   */\n      tag_161\n      jump\t// in\n    tag_200:\n        /* \"#utility.yul\":530:533   */\n      dup3\n        /* \"#utility.yul\":523:560   */\n      mstore\n        /* \"#utility.yul\":448:566   */\n      pop\n      pop\n      jump\t// out\n        /* \"#utility.yul\":572:904   */\n    tag_20:\n        /* \"#utility.yul\":693:697   */\n      0x00\n        /* \"#utility.yul\":731:733   */\n      0x40\n        /* \"#utility.yul\":720:729   */\n      dup3\n        /* \"#utility.yul\":716:734   */\n      add\n        /* \"#utility.yul\":708:734   */\n      swap1\n      pop\n        /* \"#utility.yul\":744:815   */\n      tag_202\n        /* \"#utility.yul\":812:813   */\n      0x00\n        /* \"#utility.yul\":801:810   */\n      dup4\n        /* \"#utility.yul\":797:814   */\n      add\n        /* \"#utility.yul\":788:794   */\n      dup6\n        /* \"#utility.yul\":744:815   */\n      tag_160\n      jump\t// in\n    tag_202:\n        /* \"#utility.yul\":825:897   */\n      tag_203\n        /* \"#utility.yul\":893:895   */\n      0x20\n        /* \"#utility.yul\":882:891   */\n      dup4\n        /* \"#utility.yul\":878:896   */\n      add\n        /* \"#utility.yul\":869:875   */\n      dup5\n        /* \"#utility.yul\":825:897   */\n      tag_162\n      jump\t// in\n    tag_203:\n        /* \"#utility.yul\":572:904   */\n      swap4\n      swap3\n      pop\n      pop\n      pop\n      jump\t// out\n        /* \"#utility.yul\":991:1108   */\n    tag_164:\n        /* \"#utility.yul\":1100:1101   */\n      0x00\n        /* \"#utility.yul\":1097:1098   */\n      dup1\n        /* \"#utility.yul\":1090:1102   */\n      revert\n        /* \"#utility.yul\":1237:1341   */\n    tag_166:\n        /* \"#utility.yul\":1282:1289   */\n      0x00\n        /* \"#utility.yul\":1311:1335   */\n      tag_208\n        /* \"#utility.yul\":1329:1334   */\n      dup3\n        /* \"#utility.yul\":1311:1335   */\n      tag_158\n      jump\t// in\n    tag_208:\n        /* \"#utility.yul\":1300:1335   */\n      swap1\n      pop\n        /* \"#utility.yul\":1237:1341   */\n      swap2\n      swap1\n      pop\n      jump\t// out\n        /* \"#utility.yul\":1347:1485   */\n    tag_167:\n        /* \"#utility.yul\":1428:1460   */\n      tag_210\n        /* \"#utility.yul\":1454:1459   */\n      dup2\n        /* \"#utility.yul\":1428:1460   */\n      tag_166\n      jump\t// in\n    tag_210:\n        /* \"#utility.yul\":1421:1426   */\n      dup2\n        /* \"#utility.yul\":1418:1461   */\n      eq\n        /* \"#utility.yul\":1408:1479   */\n      tag_211\n      jumpi\n        /* \"#utility.yul\":1475:1476   */\n      0x00\n        /* \"#utility.yul\":1472:1473   */\n      dup1\n        /* \"#utility.yul\":1465:1477   */\n      revert\n        /* \"#utility.yul\":1408:1479   */\n    tag_211:\n        /* \"#utility.yul\":1347:1485   */\n      pop\n      jump\t// out\n        /* \"#utility.yul\":1491:1646   */\n    tag_168:\n        /* \"#utility.yul\":1545:1550   */\n      0x00\n        /* \"#utility.yul\":1583:1589   */\n      dup2\n        /* \"#utility.yul\":1570:1590   */\n      calldataload\n        /* \"#utility.yul\":1561:1590   */\n      swap1\n      pop\n        /* \"#utility.yul\":1599:1640   */\n      tag_213\n        /* \"#utility.yul\":1634:1639   */\n      dup2\n        /* \"#utility.yul\":1599:1640   */\n      tag_167\n      jump\t// in\n    tag_213:\n        /* \"#utility.yul\":1491:1646   */\n      swap3\n      swap2\n      pop\n      pop\n      jump\t// out\n        /* \"#utility.yul\":1652:1997   */\n    tag_24:\n        /* \"#utility.yul\":1719:1725   */\n      0x00\n        /* \"#utility.yul\":1768:1770   */\n      0x20\n        /* \"#utility.yul\":1756:1765   */\n      dup3\n        /* \"#utility.yul\":1747:1754   */\n      dup5\n        /* \"#utility.yul\":1743:1766   */\n      sub\n        /* \"#utility.yul\":1739:1771   */\n      slt\n        /* \"#utility.yul\":1736:1855   */\n      iszero\n      tag_215\n      jumpi\n        /* \"#utility.yul\":1774:1853   */\n      tag_216\n      tag_164\n      jump\t// in\n    tag_216:\n        /* \"#utility.yul\":1736:1855   */\n    tag_215:\n        /* \"#utility.yul\":1894:1895   */\n      0x00\n        /* \"#utility.yul\":1919:1980   */\n      tag_217\n        /* \"#utility.yul\":1972:1979   */\n      dup5\n        /* \"#utility.yul\":1963:1969   */\n      dup3\n        /* \"#utility.yul\":1952:1961   */\n      dup6\n        /* \"#utility.yul\":1948:1970   */\n      add\n        /* \"#utility.yul\":1919:1980   */\n      tag_168\n      jump\t// in\n    tag_217:\n        /* \"#utility.yul\":1909:1980   */\n      swap2\n      pop\n        /* \"#utility.yul\":1865:1990   */\n      pop\n        /* \"#utility.yul\":1652:1997   */\n      swap3\n      swap2\n      pop\n      pop\n      jump\t// out\n        /* \"#utility.yul\":2003:2225   */\n    tag_30:\n        /* \"#utility.yul\":2096:2100   */\n      0x00\n        /* \"#utility.yul\":2134:2136   */\n      0x20\n        /* \"#utility.yul\":2123:2132   */\n      dup3\n        /* \"#utility.yul\":2119:2137   */\n      add\n        /* \"#utility.yul\":2111:2137   */\n      swap1\n      pop\n        /* \"#utility.yul\":2147:2218   */\n      tag_219\n        /* \"#utility.yul\":2215:2216   */\n      0x00\n        /* \"#utility.yul\":2204:2213   */\n      dup4\n        /* \"#utility.yul\":2200:2217   */\n      add\n        /* \"#utility.yul\":2191:2197   */\n      dup5\n        /* \"#utility.yul\":2147:2218   */\n      tag_162\n      jump\t// in\n    tag_219:\n        /* \"#utility.yul\":2003:2225   */\n      swap3\n      swap2\n      pop\n      pop\n      jump\t// out\n        /* \"#utility.yul\":2231:2341   */\n    tag_169:\n        /* \"#utility.yul\":2282:2289   */\n      0x00\n        /* \"#utility.yul\":2311:2335   */\n      tag_221\n        /* \"#utility.yul\":2329:2334   */\n      dup3\n        /* \"#utility.yul\":2311:2335   */\n      tag_159\n      jump\t// in\n    tag_221:\n        /* \"#utility.yul\":2300:2335   */\n      swap1\n      pop\n        /* \"#utility.yul\":2231:2341   */\n      swap2\n      swap1\n      pop\n      jump\t// out\n        /* \"#utility.yul\":2347:2497   */\n    tag_170:\n        /* \"#utility.yul\":2434:2472   */\n      tag_223\n        /* \"#utility.yul\":2466:2471   */\n      dup2\n        /* \"#utility.yul\":2434:2472   */\n      tag_169\n      jump\t// in\n    tag_223:\n        /* \"#utility.yul\":2427:2432   */\n      dup2\n        /* \"#utility.yul\":2424:2473   */\n      eq\n        /* \"#utility.yul\":2414:2491   */\n      tag_224\n      jumpi\n        /* \"#utility.yul\":2487:2488   */\n      0x00\n        /* \"#utility.yul\":2484:2485   */\n      dup1\n        /* \"#utility.yul\":2477:2489   */\n      revert\n        /* \"#utility.yul\":2414:2491   */\n    tag_224:\n        /* \"#utility.yul\":2347:2497   */\n      pop\n      jump\t// out\n        /* \"#utility.yul\":2503:2670   */\n    tag_171:\n        /* \"#utility.yul\":2563:2568   */\n      0x00\n        /* \"#utility.yul\":2601:2607   */\n      dup2\n        /* \"#utility.yul\":2588:2608   */\n      calldataload\n        /* \"#utility.yul\":2579:2608   */\n      swap1\n      pop\n        /* \"#utility.yul\":2617:2664   */\n      tag_226\n        /* \"#utility.yul\":2658:2663   */\n      dup2\n        /* \"#utility.yul\":2617:2664   */\n      tag_170\n      jump\t// in\n    tag_226:\n        /* \"#utility.yul\":2503:2670   */\n      swap3\n      swap2\n      pop\n      pop\n      jump\t// out\n        /* \"#utility.yul\":2676:2798   */\n    tag_172:\n        /* \"#utility.yul\":2749:2773   */\n      tag_228\n        /* \"#utility.yul\":2767:2772   */\n      dup2\n        /* \"#utility.yul\":2749:2773   */\n      tag_159\n      jump\t// in\n    tag_228:\n        /* \"#utility.yul\":2742:2747   */\n      dup2\n        /* \"#utility.yul\":2739:2774   */\n      eq\n        /* \"#utility.yul\":2729:2792   */\n      tag_229\n      jumpi\n        /* \"#utility.yul\":2788:2789   */\n      0x00\n        /* \"#utility.yul\":2785:2786   */\n      dup1\n        /* \"#utility.yul\":2778:2790   */\n      revert\n        /* \"#utility.yul\":2729:2792   */\n    tag_229:\n        /* \"#utility.yul\":2676:2798   */\n      pop\n      jump\t// out\n        /* \"#utility.yul\":2804:2943   */\n    tag_173:\n        /* \"#utility.yul\":2850:2855   */\n      0x00\n        /* \"#utility.yul\":2888:2894   */\n      dup2\n        /* \"#utility.yul\":2875:2895   */\n      calldataload\n        /* \"#utility.yul\":2866:2895   */\n      swap1\n      pop\n        /* \"#utility.yul\":2904:2937   */\n      tag_231\n        /* \"#utility.yul\":2931:2936   */\n      dup2\n        /* \"#utility.yul\":2904:2937   */\n      tag_172\n      jump\t// in\n    tag_231:\n        /* \"#utility.yul\":2804:2943   */\n      swap3\n      swap2\n      pop\n      pop\n      jump\t// out\n        /* \"#utility.yul\":2949:3451   */\n    tag_34:\n        /* \"#utility.yul\":3031:3037   */\n      0x00\n        /* \"#utility.yul\":3039:3045   */\n      dup1\n        /* \"#utility.yul\":3088:3090   */\n      0x40\n        /* \"#utility.yul\":3076:3085   */\n      dup4\n        /* \"#utility.yul\":3067:3074   */\n      dup6\n        /* \"#utility.yul\":3063:3086   */\n      sub\n        /* \"#utility.yul\":3059:3091   */\n      slt\n        /* \"#utility.yul\":3056:3175   */\n      iszero\n      tag_233\n      jumpi\n        /* \"#utility.yul\":3094:3173   */\n      tag_234\n      tag_164\n      jump\t// in\n    tag_234:\n        /* \"#utility.yul\":3056:3175   */\n    tag_233:\n        /* \"#utility.yul\":3214:3215   */\n      0x00\n        /* \"#utility.yul\":3239:3306   */\n      tag_235\n        /* \"#utility.yul\":3298:3305   */\n      dup6\n        /* \"#utility.yul\":3289:3295   */\n      dup3\n        /* \"#utility.yul\":3278:3287   */\n      dup7\n        /* \"#utility.yul\":3274:3296   */\n      add\n        /* \"#utility.yul\":3239:3306   */\n      tag_171\n      jump\t// in\n    tag_235:\n        /* \"#utility.yul\":3229:3306   */\n      swap3\n      pop\n        /* \"#utility.yul\":3185:3316   */\n      pop\n        /* \"#utility.yul\":3355:3357   */\n      0x20\n        /* \"#utility.yul\":3381:3434   */\n      tag_236\n        /* \"#utility.yul\":3426:3433   */\n      dup6\n        /* \"#utility.yul\":3417:3423   */\n      dup3\n        /* \"#utility.yul\":3406:3415   */\n      dup7\n        /* \"#utility.yul\":3402:3424   */\n      add\n        /* \"#utility.yul\":3381:3434   */\n      tag_173\n      jump\t// in\n    tag_236:\n        /* \"#utility.yul\":3371:3434   */\n      swap2\n      pop\n        /* \"#utility.yul\":3326:3444   */\n      pop\n        /* \"#utility.yul\":2949:3451   */\n      swap3\n      pop\n      swap3\n      swap1\n      pop\n      jump\t// out\n        /* \"#utility.yul\":3457:3579   */\n    tag_174:\n        /* \"#utility.yul\":3530:3554   */\n      tag_238\n        /* \"#utility.yul\":3548:3553   */\n      dup2\n        /* \"#utility.yul\":3530:3554   */\n      tag_161\n      jump\t// in\n    tag_238:\n        /* \"#utility.yul\":3523:3528   */\n      dup2\n        /* \"#utility.yul\":3520:3555   */\n      eq\n        /* \"#utility.yul\":3510:3573   */\n      tag_239\n      jumpi\n        /* \"#utility.yul\":3569:3570   */\n      0x00\n        /* \"#utility.yul\":3566:3567   */\n      dup1\n        /* \"#utility.yul\":3559:3571   */\n      revert\n        /* \"#utility.yul\":3510:3573   */\n    tag_239:\n        /* \"#utility.yul\":3457:3579   */\n      pop\n      jump\t// out\n        /* \"#utility.yul\":3585:3724   */\n    tag_175:\n        /* \"#utility.yul\":3631:3636   */\n      0x00\n        /* \"#utility.yul\":3669:3675   */\n      dup2\n        /* \"#utility.yul\":3656:3676   */\n      calldataload\n        /* \"#utility.yul\":3647:3676   */\n      swap1\n      pop\n        /* \"#utility.yul\":3685:3718   */\n      tag_241\n        /* \"#utility.yul\":3712:3717   */\n      dup2\n        /* \"#utility.yul\":3685:3718   */\n      tag_174\n      jump\t// in\n    tag_241:\n        /* \"#utility.yul\":3585:3724   */\n      swap3\n      swap2\n      pop\n      pop\n      jump\t// out\n        /* \"#utility.yul\":3730:4059   */\n    tag_44:\n        /* \"#utility.yul\":3789:3795   */\n      0x00\n        /* \"#utility.yul\":3838:3840   */\n      0x20\n        /* \"#utility.yul\":3826:3835   */\n      dup3\n        /* \"#utility.yul\":3817:3824   */\n      dup5\n        /* \"#utility.yul\":3813:3836   */\n      sub\n        /* \"#utility.yul\":3809:3841   */\n      slt\n        /* \"#utility.yul\":3806:3925   */\n      iszero\n      tag_243\n      jumpi\n        /* \"#utility.yul\":3844:3923   */\n      tag_244\n      tag_164\n      jump\t// in\n    tag_244:\n        /* \"#utility.yul\":3806:3925   */\n    tag_243:\n        /* \"#utility.yul\":3964:3965   */\n      0x00\n        /* \"#utility.yul\":3989:4042   */\n      tag_245\n        /* \"#utility.yul\":4034:4041   */\n      dup5\n        /* \"#utility.yul\":4025:4031   */\n      dup3\n        /* \"#utility.yul\":4014:4023   */\n      dup6\n        /* \"#utility.yul\":4010:4032   */\n      add\n        /* \"#utility.yul\":3989:4042   */\n      tag_175\n      jump\t// in\n    tag_245:\n        /* \"#utility.yul\":3979:4042   */\n      swap2\n      pop\n        /* \"#utility.yul\":3935:4052   */\n      pop\n        /* \"#utility.yul\":3730:4059   */\n      swap3\n      swap2\n      pop\n      pop\n      jump\t// out\n        /* \"#utility.yul\":4065:4287   */\n    tag_47:\n        /* \"#utility.yul\":4158:4162   */\n      0x00\n        /* \"#utility.yul\":4196:4198   */\n      0x20\n        /* \"#utility.yul\":4185:4194   */\n      dup3\n        /* \"#utility.yul\":4181:4199   */\n      add\n        /* \"#utility.yul\":4173:4199   */\n      swap1\n      pop\n        /* \"#utility.yul\":4209:4280   */\n      tag_247\n        /* \"#utility.yul\":4277:4278   */\n      0x00\n        /* \"#utility.yul\":4266:4275   */\n      dup4\n        /* \"#utility.yul\":4262:4279   */\n      add\n        /* \"#utility.yul\":4253:4259   */\n      dup5\n        /* \"#utility.yul\":4209:4280   */\n      tag_160\n      jump\t// in\n    tag_247:\n        /* \"#utility.yul\":4065:4287   */\n      swap3\n      swap2\n      pop\n      pop\n      jump\t// out\n        /* \"#utility.yul\":4293:4622   */\n    tag_51:\n        /* \"#utility.yul\":4352:4358   */\n      0x00\n        /* \"#utility.yul\":4401:4403   */\n      0x20\n        /* \"#utility.yul\":4389:4398   */\n      dup3\n        /* \"#utility.yul\":4380:4387   */\n      dup5\n        /* \"#utility.yul\":4376:4399   */\n      sub\n        /* \"#utility.yul\":4372:4404   */\n      slt\n        /* \"#utility.yul\":4369:4488   */\n      iszero\n      tag_249\n      jumpi\n        /* \"#utility.yul\":4407:4486   */\n      tag_250\n      tag_164\n      jump\t// in\n    tag_250:\n        /* \"#utility.yul\":4369:4488   */\n    tag_249:\n        /* \"#utility.yul\":4527:4528   */\n      0x00\n        /* \"#utility.yul\":4552:4605   */\n      tag_251\n        /* \"#utility.yul\":4597:4604   */\n      dup5\n        /* \"#utility.yul\":4588:4594   */\n      dup3\n        /* \"#utility.yul\":4577:4586   */\n      dup6\n        /* \"#utility.yul\":4573:4595   */\n      add\n        /* \"#utility.yul\":4552:4605   */\n      tag_173\n      jump\t// in\n    tag_251:\n        /* \"#utility.yul\":4542:4605   */\n      swap2\n      pop\n        /* \"#utility.yul\":4498:4615   */\n      pop\n        /* \"#utility.yul\":4293:4622   */\n      swap3\n      swap2\n      pop\n      pop\n      jump\t// out\n        /* \"#utility.yul\":4628:4985   */\n    tag_72:\n        /* \"#utility.yul\":4701:4707   */\n      0x00\n        /* \"#utility.yul\":4750:4752   */\n      0x20\n        /* \"#utility.yul\":4738:4747   */\n      dup3\n        /* \"#utility.yul\":4729:4736   */\n      dup5\n        /* \"#utility.yul\":4725:4748   */\n      sub\n        /* \"#utility.yul\":4721:4753   */\n      slt\n        /* \"#utility.yul\":4718:4837   */\n      iszero\n      tag_253\n      jumpi\n        /* \"#utility.yul\":4756:4835   */\n      tag_254\n      tag_164\n      jump\t// in\n    tag_254:\n        /* \"#utility.yul\":4718:4837   */\n    tag_253:\n        /* \"#utility.yul\":4876:4877   */\n      0x00\n        /* \"#utility.yul\":4901:4968   */\n      tag_255\n        /* \"#utility.yul\":4960:4967   */\n      dup5\n        /* \"#utility.yul\":4951:4957   */\n      dup3\n        /* \"#utility.yul\":4940:4949   */\n      dup6\n        /* \"#utility.yul\":4936:4958   */\n      add\n        /* \"#utility.yul\":4901:4968   */\n      tag_171\n      jump\t// in\n    tag_255:\n        /* \"#utility.yul\":4891:4968   */\n      swap2\n      pop\n        /* \"#utility.yul\":4847:4978   */\n      pop\n        /* \"#utility.yul\":4628:4985   */\n      swap3\n      swap2\n      pop\n      pop\n      jump\t// out\n        /* \"#utility.yul\":4991:5160   */\n    tag_176:\n        /* \"#utility.yul\":5075:5086   */\n      0x00\n        /* \"#utility.yul\":5109:5115   */\n      dup3\n        /* \"#utility.yul\":5104:5107   */\n      dup3\n        /* \"#utility.yul\":5097:5116   */\n      mstore\n        /* \"#utility.yul\":5149:5153   */\n      0x20\n        /* \"#utility.yul\":5144:5147   */\n      dup3\n        /* \"#utility.yul\":5140:5154   */\n      add\n        /* \"#utility.yul\":5125:5154   */\n      swap1\n      pop\n        /* \"#utility.yul\":4991:5160   */\n      swap3\n      swap2\n      pop\n      pop\n      jump\t// out\n        /* \"#utility.yul\":5166:5391   */\n    tag_177:\n        /* \"#utility.yul\":5306:5340   */\n      0x5061796d656e7453706c69747465723a206163636f756e7420686173206e6f20\n        /* \"#utility.yul\":5302:5303   */\n      0x00\n        /* \"#utility.yul\":5294:5300   */\n      dup3\n        /* \"#utility.yul\":5290:5304   */\n      add\n        /* \"#utility.yul\":5283:5341   */\n      mstore\n        /* \"#utility.yul\":5375:5383   */\n      0x7368617265730000000000000000000000000000000000000000000000000000\n        /* \"#utility.yul\":5370:5372   */\n      0x20\n        /* \"#utility.yul\":5362:5368   */\n      dup3\n        /* \"#utility.yul\":5358:5373   */\n      add\n        /* \"#utility.yul\":5351:5384   */\n      mstore\n        /* \"#utility.yul\":5166:5391   */\n      pop\n      jump\t// out\n        /* \"#utility.yul\":5397:5763   */\n    tag_178:\n        /* \"#utility.yul\":5539:5542   */\n      0x00\n        /* \"#utility.yul\":5560:5627   */\n      tag_259\n        /* \"#utility.yul\":5624:5626   */\n      0x26\n        /* \"#utility.yul\":5619:5622   */\n      dup4\n        /* \"#utility.yul\":5560:5627   */\n      tag_176\n      jump\t// in\n    tag_259:\n        /* \"#utility.yul\":5553:5627   */\n      swap2\n      pop\n        /* \"#utility.yul\":5636:5729   */\n      tag_260\n        /* \"#utility.yul\":5725:5728   */\n      dup3\n        /* \"#utility.yul\":5636:5729   */\n      tag_177\n      jump\t// in\n    tag_260:\n        /* \"#utility.yul\":5754:5756   */\n      0x40\n        /* \"#utility.yul\":5749:5752   */\n      dup3\n        /* \"#utility.yul\":5745:5757   */\n      add\n        /* \"#utility.yul\":5738:5757   */\n      swap1\n      pop\n        /* \"#utility.yul\":5397:5763   */\n      swap2\n      swap1\n      pop\n      jump\t// out\n        /* \"#utility.yul\":5769:6188   */\n    tag_83:\n        /* \"#utility.yul\":5935:5939   */\n      0x00\n        /* \"#utility.yul\":5973:5975   */\n      0x20\n        /* \"#utility.yul\":5962:5971   */\n      dup3\n        /* \"#utility.yul\":5958:5976   */\n      add\n        /* \"#utility.yul\":5950:5976   */\n      swap1\n      pop\n        /* \"#utility.yul\":6022:6031   */\n      dup2\n        /* \"#utility.yul\":6016:6020   */\n      dup2\n        /* \"#utility.yul\":6012:6032   */\n      sub\n        /* \"#utility.yul\":6008:6009   */\n      0x00\n        /* \"#utility.yul\":5997:6006   */\n      dup4\n        /* \"#utility.yul\":5993:6010   */\n      add\n        /* \"#utility.yul\":5986:6033   */\n      mstore\n        /* \"#utility.yul\":6050:6181   */\n      tag_262\n        /* \"#utility.yul\":6176:6180   */\n      dup2\n        /* \"#utility.yul\":6050:6181   */\n      tag_178\n      jump\t// in\n    tag_262:\n        /* \"#utility.yul\":6042:6181   */\n      swap1\n      pop\n        /* \"#utility.yul\":5769:6188   */\n      swap2\n      swap1\n      pop\n      jump\t// out\n        /* \"#utility.yul\":6194:6424   */\n    tag_179:\n        /* \"#utility.yul\":6334:6368   */\n      0x5061796d656e7453706c69747465723a206163636f756e74206973206e6f7420\n        /* \"#utility.yul\":6330:6331   */\n      0x00\n        /* \"#utility.yul\":6322:6328   */\n      dup3\n        /* \"#utility.yul\":6318:6332   */\n      add\n        /* \"#utility.yul\":6311:6369   */\n      mstore\n        /* \"#utility.yul\":6403:6416   */\n      0x647565207061796d656e74000000000000000000000000000000000000000000\n        /* \"#utility.yul\":6398:6400   */\n      0x20\n        /* \"#utility.yul\":6390:6396   */\n      dup3\n        /* \"#utility.yul\":6386:6401   */\n      add\n        /* \"#utility.yul\":6379:6417   */\n      mstore\n        /* \"#utility.yul\":6194:6424   */\n      pop\n      jump\t// out\n        /* \"#utility.yul\":6430:6796   */\n    tag_180:\n        /* \"#utility.yul\":6572:6575   */\n      0x00\n        /* \"#utility.yul\":6593:6660   */\n      tag_265\n        /* \"#utility.yul\":6657:6659   */\n      0x2b\n        /* \"#utility.yul\":6652:6655   */\n      dup4\n        /* \"#utility.yul\":6593:6660   */\n      tag_176\n      jump\t// in\n    tag_265:\n        /* \"#utility.yul\":6586:6660   */\n      swap2\n      pop\n        /* \"#utility.yul\":6669:6762   */\n      tag_266\n        /* \"#utility.yul\":6758:6761   */\n      dup3\n        /* \"#utility.yul\":6669:6762   */\n      tag_179\n      jump\t// in\n    tag_266:\n        /* \"#utility.yul\":6787:6789   */\n      0x40\n        /* \"#utility.yul\":6782:6785   */\n      dup3\n        /* \"#utility.yul\":6778:6790   */\n      add\n        /* \"#utility.yul\":6771:6790   */\n      swap1\n      pop\n        /* \"#utility.yul\":6430:6796   */\n      swap2\n      swap1\n      pop\n      jump\t// out\n        /* \"#utility.yul\":6802:7221   */\n    tag_87:\n        /* \"#utility.yul\":6968:6972   */\n      0x00\n        /* \"#utility.yul\":7006:7008   */\n      0x20\n        /* \"#utility.yul\":6995:7004   */\n      dup3\n        /* \"#utility.yul\":6991:7009   */\n      add\n        /* \"#utility.yul\":6983:7009   */\n      swap1\n      pop\n        /* \"#utility.yul\":7055:7064   */\n      dup2\n        /* \"#utility.yul\":7049:7053   */\n      dup2\n        /* \"#utility.yul\":7045:7065   */\n      sub\n        /* \"#utility.yul\":7041:7042   */\n      0x00\n        /* \"#utility.yul\":7030:7039   */\n      dup4\n        /* \"#utility.yul\":7026:7043   */\n      add\n        /* \"#utility.yul\":7019:7066   */\n      mstore\n        /* \"#utility.yul\":7083:7214   */\n      tag_268\n        /* \"#utility.yul\":7209:7213   */\n      dup2\n        /* \"#utility.yul\":7083:7214   */\n      tag_180\n      jump\t// in\n    tag_268:\n        /* \"#utility.yul\":7075:7214   */\n      swap1\n      pop\n        /* \"#utility.yul\":6802:7221   */\n      swap2\n      swap1\n      pop\n      jump\t// out\n        /* \"#utility.yul\":7227:7407   */\n    tag_181:\n        /* \"#utility.yul\":7275:7352   */\n      0x4e487b7100000000000000000000000000000000000000000000000000000000\n        /* \"#utility.yul\":7272:7273   */\n      0x00\n        /* \"#utility.yul\":7265:7353   */\n      mstore\n        /* \"#utility.yul\":7372:7376   */\n      0x11\n        /* \"#utility.yul\":7369:7370   */\n      0x04\n        /* \"#utility.yul\":7362:7377   */\n      mstore\n        /* \"#utility.yul\":7396:7400   */\n      0x24\n        /* \"#utility.yul\":7393:7394   */\n      0x00\n        /* \"#utility.yul\":7386:7401   */\n      revert\n        /* \"#utility.yul\":7413:7604   */\n    tag_89:\n        /* \"#utility.yul\":7453:7456   */\n      0x00\n        /* \"#utility.yul\":7472:7492   */\n      tag_271\n        /* \"#utility.yul\":7490:7491   */\n      dup3\n        /* \"#utility.yul\":7472:7492   */\n      tag_161\n      jump\t// in\n    tag_271:\n        /* \"#utility.yul\":7467:7492   */\n      swap2\n      pop\n        /* \"#utility.yul\":7506:7526   */\n      tag_272\n        /* \"#utility.yul\":7524:7525   */\n      dup4\n        /* \"#utility.yul\":7506:7526   */\n      tag_161\n      jump\t// in\n    tag_272:\n        /* \"#utility.yul\":7501:7526   */\n      swap3\n      pop\n        /* \"#utility.yul\":7549:7550   */\n      dup3\n        /* \"#utility.yul\":7546:7547   */\n      dup3\n        /* \"#utility.yul\":7542:7551   */\n      add\n        /* \"#utility.yul\":7535:7551   */\n      swap1\n      pop\n        /* \"#utility.yul\":7570:7573   */\n      dup1\n        /* \"#utility.yul\":7567:7568   */\n      dup3\n        /* \"#utility.yul\":7564:7574   */\n      gt\n        /* \"#utility.yul\":7561:7597   */\n      iszero\n      tag_273\n      jumpi\n        /* \"#utility.yul\":7577:7595   */\n      tag_274\n      tag_181\n      jump\t// in\n    tag_274:\n        /* \"#utility.yul\":7561:7597   */\n    tag_273:\n        /* \"#utility.yul\":7413:7604   */\n      swap3\n      swap2\n      pop\n      pop\n      jump\t// out\n        /* \"#utility.yul\":7610:7670   */\n    tag_182:\n        /* \"#utility.yul\":7638:7641   */\n      0x00\n        /* \"#utility.yul\":7659:7664   */\n      dup2\n        /* \"#utility.yul\":7652:7664   */\n      swap1\n      pop\n        /* \"#utility.yul\":7610:7670   */\n      swap2\n      swap1\n      pop\n      jump\t// out\n        /* \"#utility.yul\":7676:7818   */\n    tag_183:\n        /* \"#utility.yul\":7726:7735   */\n      0x00\n        /* \"#utility.yul\":7759:7812   */\n      tag_277\n        /* \"#utility.yul\":7777:7811   */\n      tag_278\n        /* \"#utility.yul\":7786:7810   */\n      tag_279\n        /* \"#utility.yul\":7804:7809   */\n      dup5\n        /* \"#utility.yul\":7786:7810   */\n      tag_158\n      jump\t// in\n    tag_279:\n        /* \"#utility.yul\":7777:7811   */\n      tag_182\n      jump\t// in\n    tag_278:\n        /* \"#utility.yul\":7759:7812   */\n      tag_158\n      jump\t// in\n    tag_277:\n        /* \"#utility.yul\":7746:7812   */\n      swap1\n      pop\n        /* \"#utility.yul\":7676:7818   */\n      swap2\n      swap1\n      pop\n      jump\t// out\n        /* \"#utility.yul\":7824:7950   */\n    tag_184:\n        /* \"#utility.yul\":7874:7883   */\n      0x00\n        /* \"#utility.yul\":7907:7944   */\n      tag_281\n        /* \"#utility.yul\":7938:7943   */\n      dup3\n        /* \"#utility.yul\":7907:7944   */\n      tag_183\n      jump\t// in\n    tag_281:\n        /* \"#utility.yul\":7894:7944   */\n      swap1\n      pop\n        /* \"#utility.yul\":7824:7950   */\n      swap2\n      swap1\n      pop\n      jump\t// out\n        /* \"#utility.yul\":7956:8090   */\n    tag_185:\n        /* \"#utility.yul\":8014:8023   */\n      0x00\n        /* \"#utility.yul\":8047:8084   */\n      tag_283\n        /* \"#utility.yul\":8078:8083   */\n      dup3\n        /* \"#utility.yul\":8047:8084   */\n      tag_184\n      jump\t// in\n    tag_283:\n        /* \"#utility.yul\":8034:8084   */\n      swap1\n      pop\n        /* \"#utility.yul\":7956:8090   */\n      swap2\n      swap1\n      pop\n      jump\t// out\n        /* \"#utility.yul\":8096:8243   */\n    tag_186:\n        /* \"#utility.yul\":8191:8236   */\n      tag_285\n        /* \"#utility.yul\":8230:8235   */\n      dup2\n        /* \"#utility.yul\":8191:8236   */\n      tag_185\n      jump\t// in\n    tag_285:\n        /* \"#utility.yul\":8186:8189   */\n      dup3\n        /* \"#utility.yul\":8179:8237   */\n      mstore\n        /* \"#utility.yul\":8096:8243   */\n      pop\n      pop\n      jump\t// out\n        /* \"#utility.yul\":8249:8597   */\n    tag_93:\n        /* \"#utility.yul\":8378:8382   */\n      0x00\n        /* \"#utility.yul\":8416:8418   */\n      0x40\n        /* \"#utility.yul\":8405:8414   */\n      dup3\n        /* \"#utility.yul\":8401:8419   */\n      add\n        /* \"#utility.yul\":8393:8419   */\n      swap1\n      pop\n        /* \"#utility.yul\":8429:8508   */\n      tag_287\n        /* \"#utility.yul\":8505:8506   */\n      0x00\n        /* \"#utility.yul\":8494:8503   */\n      dup4\n        /* \"#utility.yul\":8490:8507   */\n      add\n        /* \"#utility.yul\":8481:8487   */\n      dup6\n        /* \"#utility.yul\":8429:8508   */\n      tag_186\n      jump\t// in\n    tag_287:\n        /* \"#utility.yul\":8518:8590   */\n      tag_288\n        /* \"#utility.yul\":8586:8588   */\n      0x20\n        /* \"#utility.yul\":8575:8584   */\n      dup4\n        /* \"#utility.yul\":8571:8589   */\n      add\n        /* \"#utility.yul\":8562:8568   */\n      dup5\n        /* \"#utility.yul\":8518:8590   */\n      tag_162\n      jump\t// in\n    tag_288:\n        /* \"#utility.yul\":8249:8597   */\n      swap4\n      swap3\n      pop\n      pop\n      pop\n      jump\t// out\n        /* \"#utility.yul\":8603:8783   */\n    tag_109:\n        /* \"#utility.yul\":8651:8728   */\n      0x4e487b7100000000000000000000000000000000000000000000000000000000\n        /* \"#utility.yul\":8648:8649   */\n      0x00\n        /* \"#utility.yul\":8641:8729   */\n      mstore\n        /* \"#utility.yul\":8748:8752   */\n      0x32\n        /* \"#utility.yul\":8745:8746   */\n      0x04\n        /* \"#utility.yul\":8738:8753   */\n      mstore\n        /* \"#utility.yul\":8772:8776   */\n      0x24\n        /* \"#utility.yul\":8769:8770   */\n      0x00\n        /* \"#utility.yul\":8762:8777   */\n      revert\n        /* \"#utility.yul\":8789:8932   */\n    tag_187:\n        /* \"#utility.yul\":8846:8851   */\n      0x00\n        /* \"#utility.yul\":8877:8883   */\n      dup2\n        /* \"#utility.yul\":8871:8884   */\n      mload\n        /* \"#utility.yul\":8862:8884   */\n      swap1\n      pop\n        /* \"#utility.yul\":8893:8926   */\n      tag_291\n        /* \"#utility.yul\":8920:8925   */\n      dup2\n        /* \"#utility.yul\":8893:8926   */\n      tag_174\n      jump\t// in\n    tag_291:\n        /* \"#utility.yul\":8789:8932   */\n      swap3\n      swap2\n      pop\n      pop\n      jump\t// out\n        /* \"#utility.yul\":8938:9289   */\n    tag_124:\n        /* \"#utility.yul\":9008:9014   */\n      0x00\n        /* \"#utility.yul\":9057:9059   */\n      0x20\n        /* \"#utility.yul\":9045:9054   */\n      dup3\n        /* \"#utility.yul\":9036:9043   */\n      dup5\n        /* \"#utility.yul\":9032:9055   */\n      sub\n        /* \"#utility.yul\":9028:9060   */\n      slt\n        /* \"#utility.yul\":9025:9144   */\n      iszero\n      tag_293\n      jumpi\n        /* \"#utility.yul\":9063:9142   */\n      tag_294\n      tag_164\n      jump\t// in\n    tag_294:\n        /* \"#utility.yul\":9025:9144   */\n    tag_293:\n        /* \"#utility.yul\":9183:9184   */\n      0x00\n        /* \"#utility.yul\":9208:9272   */\n      tag_295\n        /* \"#utility.yul\":9264:9271   */\n      dup5\n        /* \"#utility.yul\":9255:9261   */\n      dup3\n        /* \"#utility.yul\":9244:9253   */\n      dup6\n        /* \"#utility.yul\":9240:9262   */\n      add\n        /* \"#utility.yul\":9208:9272   */\n      tag_187\n      jump\t// in\n    tag_295:\n        /* \"#utility.yul\":9198:9272   */\n      swap2\n      pop\n        /* \"#utility.yul\":9154:9282   */\n      pop\n        /* \"#utility.yul\":8938:9289   */\n      swap3\n      swap2\n      pop\n      pop\n      jump\t// out\n        /* \"#utility.yul\":9295:9627   */\n    tag_134:\n        /* \"#utility.yul\":9416:9420   */\n      0x00\n        /* \"#utility.yul\":9454:9456   */\n      0x40\n        /* \"#utility.yul\":9443:9452   */\n      dup3\n        /* \"#utility.yul\":9439:9457   */\n      add\n        /* \"#utility.yul\":9431:9457   */\n      swap1\n      pop\n        /* \"#utility.yul\":9467:9538   */\n      tag_297\n        /* \"#utility.yul\":9535:9536   */\n      0x00\n        /* \"#utility.yul\":9524:9533   */\n      dup4\n        /* \"#utility.yul\":9520:9537   */\n      add\n        /* \"#utility.yul\":9511:9517   */\n      dup6\n        /* \"#utility.yul\":9467:9538   */\n      tag_162\n      jump\t// in\n    tag_297:\n        /* \"#utility.yul\":9548:9620   */\n      tag_298\n        /* \"#utility.yul\":9616:9618   */\n      0x20\n        /* \"#utility.yul\":9605:9614   */\n      dup4\n        /* \"#utility.yul\":9601:9619   */\n      add\n        /* \"#utility.yul\":9592:9598   */\n      dup5\n        /* \"#utility.yul\":9548:9620   */\n      tag_162\n      jump\t// in\n    tag_298:\n        /* \"#utility.yul\":9295:9627   */\n      swap4\n      swap3\n      pop\n      pop\n      pop\n      jump\t// out\n        /* \"#utility.yul\":9633:9780   */\n    tag_188:\n        /* \"#utility.yul\":9734:9745   */\n      0x00\n        /* \"#utility.yul\":9771:9774   */\n      dup2\n        /* \"#utility.yul\":9756:9774   */\n      swap1\n      pop\n        /* \"#utility.yul\":9633:9780   */\n      swap3\n      swap2\n      pop\n      pop\n      jump\t// out\n        /* \"#utility.yul\":9786:9900   */\n    tag_189:\n      pop\n      jump\t// out\n        /* \"#utility.yul\":9906:10304   */\n    tag_190:\n        /* \"#utility.yul\":10065:10068   */\n      0x00\n        /* \"#utility.yul\":10086:10169   */\n      tag_302\n        /* \"#utility.yul\":10167:10168   */\n      0x00\n        /* \"#utility.yul\":10162:10165   */\n      dup4\n        /* \"#utility.yul\":10086:10169   */\n      tag_188\n      jump\t// in\n    tag_302:\n        /* \"#utility.yul\":10079:10169   */\n      swap2\n      pop\n        /* \"#utility.yul\":10178:10271   */\n      tag_303\n        /* \"#utility.yul\":10267:10270   */\n      dup3\n        /* \"#utility.yul\":10178:10271   */\n      tag_189\n      jump\t// in\n    tag_303:\n        /* \"#utility.yul\":10296:10297   */\n      0x00\n        /* \"#utility.yul\":10291:10294   */\n      dup3\n        /* \"#utility.yul\":10287:10298   */\n      add\n        /* \"#utility.yul\":10280:10298   */\n      swap1\n      pop\n        /* \"#utility.yul\":9906:10304   */\n      swap2\n      swap1\n      pop\n      jump\t// out\n        /* \"#utility.yul\":10310:10689   */\n    tag_136:\n        /* \"#utility.yul\":10494:10497   */\n      0x00\n        /* \"#utility.yul\":10516:10663   */\n      tag_305\n        /* \"#utility.yul\":10659:10662   */\n      dup3\n        /* \"#utility.yul\":10516:10663   */\n      tag_190\n      jump\t// in\n    tag_305:\n        /* \"#utility.yul\":10509:10663   */\n      swap2\n      pop\n        /* \"#utility.yul\":10680:10683   */\n      dup2\n        /* \"#utility.yul\":10673:10683   */\n      swap1\n      pop\n        /* \"#utility.yul\":10310:10689   */\n      swap2\n      swap1\n      pop\n      jump\t// out\n        /* \"#utility.yul\":10695:11105   */\n    tag_147:\n        /* \"#utility.yul\":10735:10742   */\n      0x00\n        /* \"#utility.yul\":10758:10778   */\n      tag_307\n        /* \"#utility.yul\":10776:10777   */\n      dup3\n        /* \"#utility.yul\":10758:10778   */\n      tag_161\n      jump\t// in\n    tag_307:\n        /* \"#utility.yul\":10753:10778   */\n      swap2\n      pop\n        /* \"#utility.yul\":10792:10812   */\n      tag_308\n        /* \"#utility.yul\":10810:10811   */\n      dup4\n        /* \"#utility.yul\":10792:10812   */\n      tag_161\n      jump\t// in\n    tag_308:\n        /* \"#utility.yul\":10787:10812   */\n      swap3\n      pop\n        /* \"#utility.yul\":10847:10848   */\n      dup3\n        /* \"#utility.yul\":10844:10845   */\n      dup3\n        /* \"#utility.yul\":10840:10849   */\n      mul\n        /* \"#utility.yul\":10869:10899   */\n      tag_309\n        /* \"#utility.yul\":10887:10898   */\n      dup2\n        /* \"#utility.yul\":10869:10899   */\n      tag_161\n      jump\t// in\n    tag_309:\n        /* \"#utility.yul\":10858:10899   */\n      swap2\n      pop\n        /* \"#utility.yul\":11048:11049   */\n      dup3\n        /* \"#utility.yul\":11039:11046   */\n      dup3\n        /* \"#utility.yul\":11035:11050   */\n      div\n        /* \"#utility.yul\":11032:11033   */\n      dup5\n        /* \"#utility.yul\":11029:11051   */\n      eq\n        /* \"#utility.yul\":11009:11010   */\n      dup4\n        /* \"#utility.yul\":11002:11011   */\n      iszero\n        /* \"#utility.yul\":10982:11065   */\n      or\n        /* \"#utility.yul\":10959:11098   */\n      tag_310\n      jumpi\n        /* \"#utility.yul\":11078:11096   */\n      tag_311\n      tag_181\n      jump\t// in\n    tag_311:\n        /* \"#utility.yul\":10959:11098   */\n    tag_310:\n        /* \"#utility.yul\":10743:11105   */\n      pop\n        /* \"#utility.yul\":10695:11105   */\n      swap3\n      swap2\n      pop\n      pop\n      jump\t// out\n        /* \"#utility.yul\":11111:11291   */\n    tag_191:\n        /* \"#utility.yul\":11159:11236   */\n      0x4e487b7100000000000000000000000000000000000000000000000000000000\n        /* \"#utility.yul\":11156:11157   */\n      0x00\n        /* \"#utility.yul\":11149:11237   */\n      mstore\n        /* \"#utility.yul\":11256:11260   */\n      0x12\n        /* \"#utility.yul\":11253:11254   */\n      0x04\n        /* \"#utility.yul\":11246:11261   */\n      mstore\n        /* \"#utility.yul\":11280:11284   */\n      0x24\n        /* \"#utility.yul\":11277:11278   */\n      0x00\n        /* \"#utility.yul\":11270:11285   */\n      revert\n        /* \"#utility.yul\":11297:11482   */\n    tag_149:\n        /* \"#utility.yul\":11337:11338   */\n      0x00\n        /* \"#utility.yul\":11354:11374   */\n      tag_314\n        /* \"#utility.yul\":11372:11373   */\n      dup3\n        /* \"#utility.yul\":11354:11374   */\n      tag_161\n      jump\t// in\n    tag_314:\n        /* \"#utility.yul\":11349:11374   */\n      swap2\n      pop\n        /* \"#utility.yul\":11388:11408   */\n      tag_315\n        /* \"#utility.yul\":11406:11407   */\n      dup4\n        /* \"#utility.yul\":11388:11408   */\n      tag_161\n      jump\t// in\n    tag_315:\n        /* \"#utility.yul\":11383:11408   */\n      swap3\n      pop\n        /* \"#utility.yul\":11427:11428   */\n      dup3\n        /* \"#utility.yul\":11417:11452   */\n      tag_316\n      jumpi\n        /* \"#utility.yul\":11432:11450   */\n      tag_317\n      tag_191\n      jump\t// in\n    tag_317:\n        /* \"#utility.yul\":11417:11452   */\n    tag_316:\n        /* \"#utility.yul\":11474:11475   */\n      dup3\n        /* \"#utility.yul\":11471:11472   */\n      dup3\n        /* \"#utility.yul\":11467:11476   */\n      div\n        /* \"#utility.yul\":11462:11476   */\n      swap1\n      pop\n        /* \"#utility.yul\":11297:11482   */\n      swap3\n      swap2\n      pop\n      pop\n      jump\t// out\n        /* \"#utility.yul\":11488:11682   */\n    tag_151:\n        /* \"#utility.yul\":11528:11532   */\n      0x00\n        /* \"#utility.yul\":11548:11568   */\n      tag_319\n        /* \"#utility.yul\":11566:11567   */\n      dup3\n        /* \"#utility.yul\":11548:11568   */\n      tag_161\n      jump\t// in\n    tag_319:\n        /* \"#utility.yul\":11543:11568   */\n      swap2\n      pop\n        /* \"#utility.yul\":11582:11602   */\n      tag_320\n        /* \"#utility.yul\":11600:11601   */\n      dup4\n        /* \"#utility.yul\":11582:11602   */\n      tag_161\n      jump\t// in\n    tag_320:\n        /* \"#utility.yul\":11577:11602   */\n      swap3\n      pop\n        /* \"#utility.yul\":11626:11627   */\n      dup3\n        /* \"#utility.yul\":11623:11624   */\n      dup3\n        /* \"#utility.yul\":11619:11628   */\n      sub\n        /* \"#utility.yul\":11611:11628   */\n      swap1\n      pop\n        /* \"#utility.yul\":11650:11651   */\n      dup2\n        /* \"#utility.yul\":11644:11648   */\n      dup2\n        /* \"#utility.yul\":11641:11652   */\n      gt\n        /* \"#utility.yul\":11638:11675   */\n      iszero\n      tag_321\n      jumpi\n        /* \"#utility.yul\":11655:11673   */\n      tag_322\n      tag_181\n      jump\t// in\n    tag_322:\n        /* \"#utility.yul\":11638:11675   */\n    tag_321:\n        /* \"#utility.yul\":11488:11682   */\n      swap3\n      swap2\n      pop\n      pop\n      jump\t// out\n\n    auxdata: 0xa264697066735822122008c00750fdaec5f81e48d8918010d7ad6a1bc7953fae613e525e2910bdc424cf64736f6c634300081a0033\n}\n",
				"bytecode": {
					"linkReferences": {},
					"object": "6080604052604051611bb9380380611bb9833981810160405281019061002591906105de565b8051825114610069576040517f08c379a0000000000000000000000000000000000000000000000000000000008152600401610060906106d4565b60405180910390fd5b5f8251116100ac576040517f08c379a00000000000000000000000000000000000000000000000000000000081526004016100a39061073c565b60405180910390fd5b5f5b8251811015610108576100fb8382815181106100cd576100cc61075a565b5b60200260200101518383815181106100e8576100e761075a565b5b602002602001015161011060201b60201c565b80806001019150506100ae565b5050506109b0565b5f73ffffffffffffffffffffffffffffffffffffffff168273ffffffffffffffffffffffffffffffffffffffff160361017e576040517f08c379a0000000000000000000000000000000000000000000000000000000008152600401610175906107f7565b60405180910390fd5b5f81116101c0576040517f08c379a00000000000000000000000000000000000000000000000000000000081526004016101b79061085f565b60405180910390fd5b5f60025f8473ffffffffffffffffffffffffffffffffffffffff1673ffffffffffffffffffffffffffffffffffffffff1681526020019081526020015f20541461023f576040517f08c379a0000000000000000000000000000000000000000000000000000000008152600401610236906108ed565b60405180910390fd5b600482908060018154018082558091505060019003905f5260205f20015f9091909190916101000a81548173ffffffffffffffffffffffffffffffffffffffff021916908373ffffffffffffffffffffffffffffffffffffffff1602179055508060025f8473ffffffffffffffffffffffffffffffffffffffff1673ffffffffffffffffffffffffffffffffffffffff1681526020019081526020015f2081905550805f546102ee9190610938565b5f819055507f40c340f65e17194d14ddddb073d3c9f888e3cb52b5aae0c6c7706b4fbc905fac8282604051610324929190610989565b60405180910390a15050565b5f604051905090565b5f80fd5b5f80fd5b5f80fd5b5f601f19601f8301169050919050565b7f4e487b71000000000000000000000000000000000000000000000000000000005f52604160045260245ffd5b61038b82610345565b810181811067ffffffffffffffff821117156103aa576103a9610355565b5b80604052505050565b5f6103bc610330565b90506103c88282610382565b919050565b5f67ffffffffffffffff8211156103e7576103e6610355565b5b602082029050602081019050919050565b5f80fd5b5f73ffffffffffffffffffffffffffffffffffffffff82169050919050565b5f610425826103fc565b9050919050565b6104358161041b565b811461043f575f80fd5b50565b5f815190506104508161042c565b92915050565b5f610468610463846103cd565b6103b3565b9050808382526020820190506020840283018581111561048b5761048a6103f8565b5b835b818110156104b457806104a08882610442565b84526020840193505060208101905061048d565b5050509392505050565b5f82601f8301126104d2576104d1610341565b5b81516104e2848260208601610456565b91505092915050565b5f67ffffffffffffffff82111561050557610504610355565b5b602082029050602081019050919050565b5f819050919050565b61052881610516565b8114610532575f80fd5b50565b5f815190506105438161051f565b92915050565b5f61055b610556846104eb565b6103b3565b9050808382526020820190506020840283018581111561057e5761057d6103f8565b5b835b818110156105a757806105938882610535565b845260208401935050602081019050610580565b5050509392505050565b5f82601f8301126105c5576105c4610341565b5b81516105d5848260208601610549565b91505092915050565b5f80604083850312156105f4576105f3610339565b5b5f83015167ffffffffffffffff8111156106115761061061033d565b5b61061d858286016104be565b925050602083015167ffffffffffffffff81111561063e5761063d61033d565b5b61064a858286016105b1565b9150509250929050565b5f82825260208201905092915050565b7f5061796d656e7453706c69747465723a2070617965657320616e6420736861725f8201527f6573206c656e677468206d69736d617463680000000000000000000000000000602082015250565b5f6106be603283610654565b91506106c982610664565b604082019050919050565b5f6020820190508181035f8301526106eb816106b2565b9050919050565b7f5061796d656e7453706c69747465723a206e6f207061796565730000000000005f82015250565b5f610726601a83610654565b9150610731826106f2565b602082019050919050565b5f6020820190508181035f8301526107538161071a565b9050919050565b7f4e487b71000000000000000000000000000000000000000000000000000000005f52603260045260245ffd5b7f5061796d656e7453706c69747465723a206163636f756e7420697320746865205f8201527f7a65726f20616464726573730000000000000000000000000000000000000000602082015250565b5f6107e1602c83610654565b91506107ec82610787565b604082019050919050565b5f6020820190508181035f83015261080e816107d5565b9050919050565b7f5061796d656e7453706c69747465723a207368617265732061726520300000005f82015250565b5f610849601d83610654565b915061085482610815565b602082019050919050565b5f6020820190508181035f8301526108768161083d565b9050919050565b7f5061796d656e7453706c69747465723a206163636f756e7420616c72656164795f8201527f2068617320736861726573000000000000000000000000000000000000000000602082015250565b5f6108d7602b83610654565b91506108e28261087d565b604082019050919050565b5f6020820190508181035f830152610904816108cb565b9050919050565b7f4e487b71000000000000000000000000000000000000000000000000000000005f52601160045260245ffd5b5f61094282610516565b915061094d83610516565b92508282019050808211156109655761096461090b565b5b92915050565b6109748161041b565b82525050565b61098381610516565b82525050565b5f60408201905061099c5f83018561096b565b6109a9602083018461097a565b9392505050565b6111fc806109bd5f395ff3fe60806040526004361061009f575f3560e01c80639852595c116100635780639852595c146101dc578063a3f8eace14610218578063c45ac05014610254578063ce7c2ac214610290578063d79779b2146102cc578063e33b7de314610308576100e6565b806319165587146100ea5780633a98ef3914610112578063406072a91461013c57806348b75044146101785780638b83209b146101a0576100e6565b366100e6577f6ef95f06320e7a25a04a175ca677b7052bdd97131872c2192525a629f51be7706100cd610332565b346040516100dc929190610c02565b60405180910390a1005b5f80fd5b3480156100f5575f80fd5b50610110600480360381019061010b9190610c68565b610339565b005b34801561011d575f80fd5b506101266104af565b6040516101339190610c93565b60405180910390f35b348015610147575f80fd5b50610162600480360381019061015d9190610d11565b6104b7565b60405161016f9190610c93565b60405180910390f35b348015610183575f80fd5b5061019e60048036038101906101999190610d11565b610539565b005b3480156101ab575f80fd5b506101c660048036038101906101c19190610d79565b61073f565b6040516101d39190610da4565b60405180910390f35b3480156101e7575f80fd5b5061020260048036038101906101fd9190610dbd565b610783565b60405161020f9190610c93565b60405180910390f35b348015610223575f80fd5b5061023e60048036038101906102399190610dbd565b6107c9565b60405161024b9190610c93565b60405180910390f35b34801561025f575f80fd5b5061027a60048036038101906102759190610d11565b6107fb565b6040516102879190610c93565b60405180910390f35b34801561029b575f80fd5b506102b660048036038101906102b19190610dbd565b6108a7565b6040516102c39190610c93565b60405180910390f35b3480156102d7575f80fd5b506102f260048036038101906102ed9190610de8565b6108ed565b6040516102ff9190610c93565b60405180910390f35b348015610313575f80fd5b5061031c610933565b6040516103299190610c93565b60405180910390f35b5f33905090565b5f60025f8373ffffffffffffffffffffffffffffffffffffffff1673ffffffffffffffffffffffffffffffffffffffff1681526020019081526020015f2054116103b8576040517f08c379a00000000000000000000000000000000000000000000000000000000081526004016103af90610e93565b60405180910390fd5b5f6103c2826107c9565b90505f8103610406576040517f08c379a00000000000000000000000000000000000000000000000000000000081526004016103fd90610f21565b60405180910390fd5b8060015f8282546104179190610f6c565b925050819055508060035f8473ffffffffffffffffffffffffffffffffffffffff1673ffffffffffffffffffffffffffffffffffffffff1681526020019081526020015f205f8282540192505081905550610472828261093c565b7fdf20fd1e76bc69d672e4814fafb2c449bba3a5369d8359adf9e05e6fde87b05682826040516104a3929190610ffa565b60405180910390a15050565b5f8054905090565b5f60065f8473ffffffffffffffffffffffffffffffffffffffff1673ffffffffffffffffffffffffffffffffffffffff1681526020019081526020015f205f8373ffffffffffffffffffffffffffffffffffffffff1673ffffffffffffffffffffffffffffffffffffffff1681526020019081526020015f2054905092915050565b5f60025f8373ffffffffffffffffffffffffffffffffffffffff1673ffffffffffffffffffffffffffffffffffffffff1681526020019081526020015f2054116105b8576040517f08c379a00000000000000000000000000000000000000000000000000000000081526004016105af90610e93565b60405180910390fd5b5f6105c383836107fb565b90505f8103610607576040517f08c379a00000000000000000000000000000000000000000000000000000000081526004016105fe90610f21565b60405180910390fd5b8060055f8573ffffffffffffffffffffffffffffffffffffffff1673ffffffffffffffffffffffffffffffffffffffff1681526020019081526020015f205f8282546106539190610f6c565b925050819055508060065f8573ffffffffffffffffffffffffffffffffffffffff1673ffffffffffffffffffffffffffffffffffffffff1681526020019081526020015f205f8473ffffffffffffffffffffffffffffffffffffffff1673ffffffffffffffffffffffffffffffffffffffff1681526020019081526020015f205f82825401925050819055506106ea838383610a27565b8273ffffffffffffffffffffffffffffffffffffffff167f3be5b7a71e84ed12875d241991c70855ac5817d847039e17a9d895c1ceb0f18a8383604051610732929190610c02565b60405180910390a2505050565b5f6004828154811061075457610753611021565b5b905f5260205f20015f9054906101000a900473ffffffffffffffffffffffffffffffffffffffff169050919050565b5f60035f8373ffffffffffffffffffffffffffffffffffffffff1673ffffffffffffffffffffffffffffffffffffffff1681526020019081526020015f20549050919050565b5f806107d3610933565b476107de9190610f6c565b90506107f383826107ee86610783565b610aa6565b915050919050565b5f80610806846108ed565b8473ffffffffffffffffffffffffffffffffffffffff166370a08231306040518263ffffffff1660e01b815260040161083f9190610da4565b602060405180830381865afa15801561085a573d5f803e3d5ffd5b505050506040513d601f19601f8201168201806040525081019061087e9190611062565b6108889190610f6c565b905061089e838261089987876104b7565b610aa6565b91505092915050565b5f60025f8373ffffffffffffffffffffffffffffffffffffffff1673ffffffffffffffffffffffffffffffffffffffff1681526020019081526020015f20549050919050565b5f60055f8373ffffffffffffffffffffffffffffffffffffffff1673ffffffffffffffffffffffffffffffffffffffff1681526020019081526020015f20549050919050565b5f600154905090565b804710156109835747816040517fcf47918100000000000000000000000000000000000000000000000000000000815260040161097a92919061108d565b60405180910390fd5b5f8273ffffffffffffffffffffffffffffffffffffffff16826040516109a8906110e1565b5f6040518083038185875af1925050503d805f81146109e2576040519150601f19603f3d011682016040523d82523d5f602084013e6109e7565b606091505b5050905080610a22576040517fd6bda27500000000000000000000000000000000000000000000000000000000815260040160405180910390fd5b505050565b610aa1838473ffffffffffffffffffffffffffffffffffffffff1663a9059cbb8585604051602401610a5a929190610c02565b604051602081830303815290604052915060e01b6020820180517bffffffffffffffffffffffffffffffffffffffffffffffffffffffff8381831617835250505050610b10565b505050565b5f815f5460025f8773ffffffffffffffffffffffffffffffffffffffff1673ffffffffffffffffffffffffffffffffffffffff1681526020019081526020015f205485610af391906110f5565b610afd9190611163565b610b079190611193565b90509392505050565b5f8060205f8451602086015f885af180610b2f576040513d5f823e3d81fd5b3d92505f519150505f8214610b48576001811415610b63565b5f8473ffffffffffffffffffffffffffffffffffffffff163b145b15610ba557836040517f5274afe7000000000000000000000000000000000000000000000000000000008152600401610b9c9190610da4565b60405180910390fd5b50505050565b5f73ffffffffffffffffffffffffffffffffffffffff82169050919050565b5f610bd482610bab565b9050919050565b610be481610bca565b82525050565b5f819050919050565b610bfc81610bea565b82525050565b5f604082019050610c155f830185610bdb565b610c226020830184610bf3565b9392505050565b5f80fd5b5f610c3782610bab565b9050919050565b610c4781610c2d565b8114610c51575f80fd5b50565b5f81359050610c6281610c3e565b92915050565b5f60208284031215610c7d57610c7c610c29565b5b5f610c8a84828501610c54565b91505092915050565b5f602082019050610ca65f830184610bf3565b92915050565b5f610cb682610bca565b9050919050565b610cc681610cac565b8114610cd0575f80fd5b50565b5f81359050610ce181610cbd565b92915050565b610cf081610bca565b8114610cfa575f80fd5b50565b5f81359050610d0b81610ce7565b92915050565b5f8060408385031215610d2757610d26610c29565b5b5f610d3485828601610cd3565b9250506020610d4585828601610cfd565b9150509250929050565b610d5881610bea565b8114610d62575f80fd5b50565b5f81359050610d7381610d4f565b92915050565b5f60208284031215610d8e57610d8d610c29565b5b5f610d9b84828501610d65565b91505092915050565b5f602082019050610db75f830184610bdb565b92915050565b5f60208284031215610dd257610dd1610c29565b5b5f610ddf84828501610cfd565b91505092915050565b5f60208284031215610dfd57610dfc610c29565b5b5f610e0a84828501610cd3565b91505092915050565b5f82825260208201905092915050565b7f5061796d656e7453706c69747465723a206163636f756e7420686173206e6f205f8201527f7368617265730000000000000000000000000000000000000000000000000000602082015250565b5f610e7d602683610e13565b9150610e8882610e23565b604082019050919050565b5f6020820190508181035f830152610eaa81610e71565b9050919050565b7f5061796d656e7453706c69747465723a206163636f756e74206973206e6f74205f8201527f647565207061796d656e74000000000000000000000000000000000000000000602082015250565b5f610f0b602b83610e13565b9150610f1682610eb1565b604082019050919050565b5f6020820190508181035f830152610f3881610eff565b9050919050565b7f4e487b71000000000000000000000000000000000000000000000000000000005f52601160045260245ffd5b5f610f7682610bea565b9150610f8183610bea565b9250828201905080821115610f9957610f98610f3f565b5b92915050565b5f819050919050565b5f610fc2610fbd610fb884610bab565b610f9f565b610bab565b9050919050565b5f610fd382610fa8565b9050919050565b5f610fe482610fc9565b9050919050565b610ff481610fda565b82525050565b5f60408201905061100d5f830185610feb565b61101a6020830184610bf3565b9392505050565b7f4e487b71000000000000000000000000000000000000000000000000000000005f52603260045260245ffd5b5f8151905061105c81610d4f565b92915050565b5f6020828403121561107757611076610c29565b5b5f6110848482850161104e565b91505092915050565b5f6040820190506110a05f830185610bf3565b6110ad6020830184610bf3565b9392505050565b5f81905092915050565b50565b5f6110cc5f836110b4565b91506110d7826110be565b5f82019050919050565b5f6110eb826110c1565b9150819050919050565b5f6110ff82610bea565b915061110a83610bea565b925082820261111881610bea565b9150828204841483151761112f5761112e610f3f565b5b5092915050565b7f4e487b71000000000000000000000000000000000000000000000000000000005f52601260045260245ffd5b5f61116d82610bea565b915061117883610bea565b92508261118857611187611136565b5b828204905092915050565b5f61119d82610bea565b91506111a883610bea565b92508282039050818111156111c0576111bf610f3f565b5b9291505056fea264697066735822122008c00750fdaec5f81e48d8918010d7ad6a1bc7953fae613e525e2910bdc424cf64736f6c634300081a0033",
					"opcodes": "PUSH1 0x80 PUSH1 0x40 MSTORE PUSH1 0x40 MLOAD PUSH2 0x1BB9 CODESIZE SUB DUP1 PUSH2 0x1BB9 DUP4 CODECOPY DUP2 DUP2 ADD PUSH1 0x40 MSTORE DUP2 ADD SWAP1 PUSH2 0x25 SWAP2 SWAP1 PUSH2 0x5DE JUMP JUMPDEST DUP1 MLOAD DUP3 MLOAD EQ PUSH2 0x69 JUMPI PUSH1 0x40 MLOAD PUSH32 0x8C379A000000000000000000000000000000000000000000000000000000000 DUP2 MSTORE PUSH1 0x4 ADD PUSH2 0x60 SWAP1 PUSH2 0x6D4 JUMP JUMPDEST PUSH1 0x40 MLOAD DUP1 SWAP2 SUB SWAP1 REVERT JUMPDEST PUSH0 DUP3 MLOAD GT PUSH2 0xAC JUMPI PUSH1 0x40 MLOAD PUSH32 0x8C379A000000000000000000000000000000000000000000000000000000000 DUP2 MSTORE PUSH1 0x4 ADD PUSH2 0xA3 SWAP1 PUSH2 0x73C JUMP JUMPDEST PUSH1 0x40 MLOAD DUP1 SWAP2 SUB SWAP1 REVERT JUMPDEST PUSH0 JUMPDEST DUP3 MLOAD DUP2 LT ISZERO PUSH2 0x108 JUMPI PUSH2 0xFB DUP4 DUP3 DUP2 MLOAD DUP2 LT PUSH2 0xCD JUMPI PUSH2 0xCC PUSH2 0x75A JUMP JUMPDEST JUMPDEST PUSH1 0x20 MUL PUSH1 0x20 ADD ADD MLOAD DUP4 DUP4 DUP2 MLOAD DUP2 LT PUSH2 0xE8 JUMPI PUSH2 0xE7 PUSH2 0x75A JUMP JUMPDEST JUMPDEST PUSH1 0x20 MUL PUSH1 0x20 ADD ADD MLOAD PUSH2 0x110 PUSH1 0x20 SHL PUSH1 0x20 SHR JUMP JUMPDEST DUP1 DUP1 PUSH1 0x1 ADD SWAP2 POP POP PUSH2 0xAE JUMP JUMPDEST POP POP POP PUSH2 0x9B0 JUMP JUMPDEST PUSH0 PUSH20 0xFFFFFFFFFFFFFFFFFFFFFFFFFFFFFFFFFFFFFFFF AND DUP3 PUSH20 0xFFFFFFFFFFFFFFFFFFFFFFFFFFFFFFFFFFFFFFFF AND SUB PUSH2 0x17E JUMPI PUSH1 0x40 MLOAD PUSH32 0x8C379A000000000000000000000000000000000000000000000000000000000 DUP2 MSTORE PUSH1 0x4 ADD PUSH2 0x175 SWAP1 PUSH2 0x7F7 JUMP JUMPDEST PUSH1 0x40 MLOAD DUP1 SWAP2 SUB SWAP1 REVERT JUMPDEST PUSH0 DUP2 GT PUSH2 0x1C0 JUMPI PUSH1 0x40 MLOAD PUSH32 0x8C379A000000000000000000000000000000000000000000000000000000000 DUP2 MSTORE PUSH1 0x4 ADD PUSH2 0x1B7 SWAP1 PUSH2 0x85F JUMP JUMPDEST PUSH1 0x40 MLOAD DUP1 SWAP2 SUB SWAP1 REVERT JUMPDEST PUSH0 PUSH1 0x2 PUSH0 DUP5 PUSH20 0xFFFFFFFFFFFFFFFFFFFFFFFFFFFFFFFFFFFFFFFF AND PUSH20 0xFFFFFFFFFFFFFFFFFFFFFFFFFFFFFFFFFFFFFFFF AND DUP2 MSTORE PUSH1 0x20 ADD SWAP1 DUP2 MSTORE PUSH1 0x20 ADD PUSH0 KECCAK256 SLOAD EQ PUSH2 0x23F JUMPI PUSH1 0x40 MLOAD PUSH32 0x8C379A000000000000000000000000000000000000000000000000000000000 DUP2 MSTORE PUSH1 0x4 ADD PUSH2 0x236 SWAP1 PUSH2 0x8ED JUMP JUMPDEST PUSH1 0x40 MLOAD DUP1 SWAP2 SUB SWAP1 REVERT JUMPDEST PUSH1 0x4 DUP3 SWAP1 DUP1 PUSH1 0x1 DUP2 SLOAD ADD DUP1 DUP3 SSTORE DUP1 SWAP2 POP POP PUSH1 0x1 SWAP1 SUB SWAP1 PUSH0 MSTORE PUSH1 0x20 PUSH0 KECCAK256 ADD PUSH0 SWAP1 SWAP2 SWAP1 SWAP2 SWAP1 SWAP2 PUSH2 0x100 EXP DUP2 SLOAD DUP2 PUSH20 0xFFFFFFFFFFFFFFFFFFFFFFFFFFFFFFFFFFFFFFFF MUL NOT AND SWAP1 DUP4 PUSH20 0xFFFFFFFFFFFFFFFFFFFFFFFFFFFFFFFFFFFFFFFF AND MUL OR SWAP1 SSTORE POP DUP1 PUSH1 0x2 PUSH0 DUP5 PUSH20 0xFFFFFFFFFFFFFFFFFFFFFFFFFFFFFFFFFFFFFFFF AND PUSH20 0xFFFFFFFFFFFFFFFFFFFFFFFFFFFFFFFFFFFFFFFF AND DUP2 MSTORE PUSH1 0x20 ADD SWAP1 DUP2 MSTORE PUSH1 0x20 ADD PUSH0 KECCAK256 DUP2 SWAP1 SSTORE POP DUP1 PUSH0 SLOAD PUSH2 0x2EE SWAP2 SWAP1 PUSH2 0x938 JUMP JUMPDEST PUSH0 DUP2 SWAP1 SSTORE POP PUSH32 0x40C340F65E17194D14DDDDB073D3C9F888E3CB52B5AAE0C6C7706B4FBC905FAC DUP3 DUP3 PUSH1 0x40 MLOAD PUSH2 0x324 SWAP3 SWAP2 SWAP1 PUSH2 0x989 JUMP JUMPDEST PUSH1 0x40 MLOAD DUP1 SWAP2 SUB SWAP1 LOG1 POP POP JUMP JUMPDEST PUSH0 PUSH1 0x40 MLOAD SWAP1 POP SWAP1 JUMP JUMPDEST PUSH0 DUP1 REVERT JUMPDEST PUSH0 DUP1 REVERT JUMPDEST PUSH0 DUP1 REVERT JUMPDEST PUSH0 PUSH1 0x1F NOT PUSH1 0x1F DUP4 ADD AND SWAP1 POP SWAP2 SWAP1 POP JUMP JUMPDEST PUSH32 0x4E487B7100000000000000000000000000000000000000000000000000000000 PUSH0 MSTORE PUSH1 0x41 PUSH1 0x4 MSTORE PUSH1 0x24 PUSH0 REVERT JUMPDEST PUSH2 0x38B DUP3 PUSH2 0x345 JUMP JUMPDEST DUP2 ADD DUP2 DUP2 LT PUSH8 0xFFFFFFFFFFFFFFFF DUP3 GT OR ISZERO PUSH2 0x3AA JUMPI PUSH2 0x3A9 PUSH2 0x355 JUMP JUMPDEST JUMPDEST DUP1 PUSH1 0x40 MSTORE POP POP POP JUMP JUMPDEST PUSH0 PUSH2 0x3BC PUSH2 0x330 JUMP JUMPDEST SWAP1 POP PUSH2 0x3C8 DUP3 DUP3 PUSH2 0x382 JUMP JUMPDEST SWAP2 SWAP1 POP JUMP JUMPDEST PUSH0 PUSH8 0xFFFFFFFFFFFFFFFF DUP3 GT ISZERO PUSH2 0x3E7 JUMPI PUSH2 0x3E6 PUSH2 0x355 JUMP JUMPDEST JUMPDEST PUSH1 0x20 DUP3 MUL SWAP1 POP PUSH1 0x20 DUP2 ADD SWAP1 POP SWAP2 SWAP1 POP JUMP JUMPDEST PUSH0 DUP1 REVERT JUMPDEST PUSH0 PUSH20 0xFFFFFFFFFFFFFFFFFFFFFFFFFFFFFFFFFFFFFFFF DUP3 AND SWAP1 POP SWAP2 SWAP1 POP JUMP JUMPDEST PUSH0 PUSH2 0x425 DUP3 PUSH2 0x3FC JUMP JUMPDEST SWAP1 POP SWAP2 SWAP1 POP JUMP JUMPDEST PUSH2 0x435 DUP2 PUSH2 0x41B JUMP JUMPDEST DUP2 EQ PUSH2 0x43F JUMPI PUSH0 DUP1 REVERT JUMPDEST POP JUMP JUMPDEST PUSH0 DUP2 MLOAD SWAP1 POP PUSH2 0x450 DUP2 PUSH2 0x42C JUMP JUMPDEST SWAP3 SWAP2 POP POP JUMP JUMPDEST PUSH0 PUSH2 0x468 PUSH2 0x463 DUP5 PUSH2 0x3CD JUMP JUMPDEST PUSH2 0x3B3 JUMP JUMPDEST SWAP1 POP DUP1 DUP4 DUP3 MSTORE PUSH1 0x20 DUP3 ADD SWAP1 POP PUSH1 0x20 DUP5 MUL DUP4 ADD DUP6 DUP2 GT ISZERO PUSH2 0x48B JUMPI PUSH2 0x48A PUSH2 0x3F8 JUMP JUMPDEST JUMPDEST DUP4 JUMPDEST DUP2 DUP2 LT ISZERO PUSH2 0x4B4 JUMPI DUP1 PUSH2 0x4A0 DUP9 DUP3 PUSH2 0x442 JUMP JUMPDEST DUP5 MSTORE PUSH1 0x20 DUP5 ADD SWAP4 POP POP PUSH1 0x20 DUP2 ADD SWAP1 POP PUSH2 0x48D JUMP JUMPDEST POP POP POP SWAP4 SWAP3 POP POP POP JUMP JUMPDEST PUSH0 DUP3 PUSH1 0x1F DUP4 ADD SLT PUSH2 0x4D2 JUMPI PUSH2 0x4D1 PUSH2 0x341 JUMP JUMPDEST JUMPDEST DUP2 MLOAD PUSH2 0x4E2 DUP5 DUP3 PUSH1 0x20 DUP7 ADD PUSH2 0x456 JUMP JUMPDEST SWAP2 POP POP SWAP3 SWAP2 POP POP JUMP JUMPDEST PUSH0 PUSH8 0xFFFFFFFFFFFFFFFF DUP3 GT ISZERO PUSH2 0x505 JUMPI PUSH2 0x504 PUSH2 0x355 JUMP JUMPDEST JUMPDEST PUSH1 0x20 DUP3 MUL SWAP1 POP PUSH1 0x20 DUP2 ADD SWAP1 POP SWAP2 SWAP1 POP JUMP JUMPDEST PUSH0 DUP2 SWAP1 POP SWAP2 SWAP1 POP JUMP JUMPDEST PUSH2 0x528 DUP2 PUSH2 0x516 JUMP JUMPDEST DUP2 EQ PUSH2 0x532 JUMPI PUSH0 DUP1 REVERT JUMPDEST POP JUMP JUMPDEST PUSH0 DUP2 MLOAD SWAP1 POP PUSH2 0x543 DUP2 PUSH2 0x51F JUMP JUMPDEST SWAP3 SWAP2 POP POP JUMP JUMPDEST PUSH0 PUSH2 0x55B PUSH2 0x556 DUP5 PUSH2 0x4EB JUMP JUMPDEST PUSH2 0x3B3 JUMP JUMPDEST SWAP1 POP DUP1 DUP4 DUP3 MSTORE PUSH1 0x20 DUP3 ADD SWAP1 POP PUSH1 0x20 DUP5 MUL DUP4 ADD DUP6 DUP2 GT ISZERO PUSH2 0x57E JUMPI PUSH2 0x57D PUSH2 0x3F8 JUMP JUMPDEST JUMPDEST DUP4 JUMPDEST DUP2 DUP2 LT ISZERO PUSH2 0x5A7 JUMPI DUP1 PUSH2 0x593 DUP9 DUP3 PUSH2 0x535 JUMP JUMPDEST DUP5 MSTORE PUSH1 0x20 DUP5 ADD SWAP4 POP POP PUSH1 0x20 DUP2 ADD SWAP1 POP PUSH2 0x580 JUMP JUMPDEST POP POP POP SWAP4 SWAP3 POP POP POP JUMP JUMPDEST PUSH0 DUP3 PUSH1 0x1F DUP4 ADD SLT PUSH2 0x5C5 JUMPI PUSH2 0x5C4 PUSH2 0x341 JUMP JUMPDEST JUMPDEST DUP2 MLOAD PUSH2 0x5D5 DUP5 DUP3 PUSH1 0x20 DUP7 ADD PUSH2 0x549 JUMP JUMPDEST SWAP2 POP POP SWAP3 SWAP2 POP POP JUMP JUMPDEST PUSH0 DUP1 PUSH1 0x40 DUP4 DUP6 SUB SLT ISZERO PUSH2 0x5F4 JUMPI PUSH2 0x5F3 PUSH2 0x339 JUMP JUMPDEST JUMPDEST PUSH0 DUP4 ADD MLOAD PUSH8 0xFFFFFFFFFFFFFFFF DUP2 GT ISZERO PUSH2 0x611 JUMPI PUSH2 0x610 PUSH2 0x33D JUMP JUMPDEST JUMPDEST PUSH2 0x61D DUP6 DUP3 DUP7 ADD PUSH2 0x4BE JUMP JUMPDEST SWAP3 POP POP PUSH1 0x20 DUP4 ADD MLOAD PUSH8 0xFFFFFFFFFFFFFFFF DUP2 GT ISZERO PUSH2 0x63E JUMPI PUSH2 0x63D PUSH2 0x33D JUMP JUMPDEST JUMPDEST PUSH2 0x64A DUP6 DUP3 DUP7 ADD PUSH2 0x5B1 JUMP JUMPDEST SWAP2 POP POP SWAP3 POP SWAP3 SWAP1 POP JUMP JUMPDEST PUSH0 DUP3 DUP3 MSTORE PUSH1 0x20 DUP3 ADD SWAP1 POP SWAP3 SWAP2 POP POP JUMP JUMPDEST PUSH32 0x5061796D656E7453706C69747465723A2070617965657320616E642073686172 PUSH0 DUP3 ADD MSTORE PUSH32 0x6573206C656E677468206D69736D617463680000000000000000000000000000 PUSH1 0x20 DUP3 ADD MSTORE POP JUMP JUMPDEST PUSH0 PUSH2 0x6BE PUSH1 0x32 DUP4 PUSH2 0x654 JUMP JUMPDEST SWAP2 POP PUSH2 0x6C9 DUP3 PUSH2 0x664 JUMP JUMPDEST PUSH1 0x40 DUP3 ADD SWAP1 POP SWAP2 SWAP1 POP JUMP JUMPDEST PUSH0 PUSH1 0x20 DUP3 ADD SWAP1 POP DUP2 DUP2 SUB PUSH0 DUP4 ADD MSTORE PUSH2 0x6EB DUP2 PUSH2 0x6B2 JUMP JUMPDEST SWAP1 POP SWAP2 SWAP1 POP JUMP JUMPDEST PUSH32 0x5061796D656E7453706C69747465723A206E6F20706179656573000000000000 PUSH0 DUP3 ADD MSTORE POP JUMP JUMPDEST PUSH0 PUSH2 0x726 PUSH1 0x1A DUP4 PUSH2 0x654 JUMP JUMPDEST SWAP2 POP PUSH2 0x731 DUP3 PUSH2 0x6F2 JUMP JUMPDEST PUSH1 0x20 DUP3 ADD SWAP1 POP SWAP2 SWAP1 POP JUMP JUMPDEST PUSH0 PUSH1 0x20 DUP3 ADD SWAP1 POP DUP2 DUP2 SUB PUSH0 DUP4 ADD MSTORE PUSH2 0x753 DUP2 PUSH2 0x71A JUMP JUMPDEST SWAP1 POP SWAP2 SWAP1 POP JUMP JUMPDEST PUSH32 0x4E487B7100000000000000000000000000000000000000000000000000000000 PUSH0 MSTORE PUSH1 0x32 PUSH1 0x4 MSTORE PUSH1 0x24 PUSH0 REVERT JUMPDEST PUSH32 0x5061796D656E7453706C69747465723A206163636F756E742069732074686520 PUSH0 DUP3 ADD MSTORE PUSH32 0x7A65726F20616464726573730000000000000000000000000000000000000000 PUSH1 0x20 DUP3 ADD MSTORE POP JUMP JUMPDEST PUSH0 PUSH2 0x7E1 PUSH1 0x2C DUP4 PUSH2 0x654 JUMP JUMPDEST SWAP2 POP PUSH2 0x7EC DUP3 PUSH2 0x787 JUMP JUMPDEST PUSH1 0x40 DUP3 ADD SWAP1 POP SWAP2 SWAP1 POP JUMP JUMPDEST PUSH0 PUSH1 0x20 DUP3 ADD SWAP1 POP DUP2 DUP2 SUB PUSH0 DUP4 ADD MSTORE PUSH2 0x80E DUP2 PUSH2 0x7D5 JUMP JUMPDEST SWAP1 POP SWAP2 SWAP1 POP JUMP JUMPDEST PUSH32 0x5061796D656E7453706C69747465723A20736861726573206172652030000000 PUSH0 DUP3 ADD MSTORE POP JUMP JUMPDEST PUSH0 PUSH2 0x849 PUSH1 0x1D DUP4 PUSH2 0x654 JUMP JUMPDEST SWAP2 POP PUSH2 0x854 DUP3 PUSH2 0x815 JUMP JUMPDEST PUSH1 0x20 DUP3 ADD SWAP1 POP SWAP2 SWAP1 POP JUMP JUMPDEST PUSH0 PUSH1 0x20 DUP3 ADD SWAP1 POP DUP2 DUP2 SUB PUSH0 DUP4 ADD MSTORE PUSH2 0x876 DUP2 PUSH2 0x83D JUMP JUMPDEST SWAP1 POP SWAP2 SWAP1 POP JUMP JUMPDEST PUSH32 0x5061796D656E7453706C69747465723A206163636F756E7420616C7265616479 PUSH0 DUP3 ADD MSTORE PUSH32 0x2068617320736861726573000000000000000000000000000000000000000000 PUSH1 0x20 DUP3 ADD MSTORE POP JUMP JUMPDEST PUSH0 PUSH2 0x8D7 PUSH1 0x2B DUP4 PUSH2 0x654 JUMP JUMPDEST SWAP2 POP PUSH2 0x8E2 DUP3 PUSH2 0x87D JUMP JUMPDEST PUSH1 0x40 DUP3 ADD SWAP1 POP SWAP2 SWAP1 POP JUMP JUMPDEST PUSH0 PUSH1 0x20 DUP3 ADD SWAP1 POP DUP2 DUP2 SUB PUSH0 DUP4 ADD MSTORE PUSH2 0x904 DUP2 PUSH2 0x8CB JUMP JUMPDEST SWAP1 POP SWAP2 SWAP1 POP JUMP JUMPDEST PUSH32 0x4E487B7100000000000000000000000000000000000000000000000000000000 PUSH0 MSTORE PUSH1 0x11 PUSH1 0x4 MSTORE PUSH1 0x24 PUSH0 REVERT JUMPDEST PUSH0 PUSH2 0x942 DUP3 PUSH2 0x516 JUMP JUMPDEST SWAP2 POP PUSH2 0x94D DUP4 PUSH2 0x516 JUMP JUMPDEST SWAP3 POP DUP3 DUP3 ADD SWAP1 POP DUP1 DUP3 GT ISZERO PUSH2 0x965 JUMPI PUSH2 0x964 PUSH2 0x90B JUMP JUMPDEST JUMPDEST SWAP3 SWAP2 POP POP JUMP JUMPDEST PUSH2 0x974 DUP2 PUSH2 0x41B JUMP JUMPDEST DUP3 MSTORE POP POP JUMP JUMPDEST PUSH2 0x983 DUP2 PUSH2 0x516 JUMP JUMPDEST DUP3 MSTORE POP POP JUMP JUMPDEST PUSH0 PUSH1 0x40 DUP3 ADD SWAP1 POP PUSH2 0x99C PUSH0 DUP4 ADD DUP6 PUSH2 0x96B JUMP JUMPDEST PUSH2 0x9A9 PUSH1 0x20 DUP4 ADD DUP5 PUSH2 0x97A JUMP JUMPDEST SWAP4 SWAP3 POP POP POP JUMP JUMPDEST PUSH2 0x11FC DUP1 PUSH2 0x9BD PUSH0 CODECOPY PUSH0 RETURN INVALID PUSH1 0x80 PUSH1 0x40 MSTORE PUSH1 0x4 CALLDATASIZE LT PUSH2 0x9F JUMPI PUSH0 CALLDATALOAD PUSH1 0xE0 SHR DUP1 PUSH4 0x9852595C GT PUSH2 0x63 JUMPI DUP1 PUSH4 0x9852595C EQ PUSH2 0x1DC JUMPI DUP1 PUSH4 0xA3F8EACE EQ PUSH2 0x218 JUMPI DUP1 PUSH4 0xC45AC050 EQ PUSH2 0x254 JUMPI DUP1 PUSH4 0xCE7C2AC2 EQ PUSH2 0x290 JUMPI DUP1 PUSH4 0xD79779B2 EQ PUSH2 0x2CC JUMPI DUP1 PUSH4 0xE33B7DE3 EQ PUSH2 0x308 JUMPI PUSH2 0xE6 JUMP JUMPDEST DUP1 PUSH4 0x19165587 EQ PUSH2 0xEA JUMPI DUP1 PUSH4 0x3A98EF39 EQ PUSH2 0x112 JUMPI DUP1 PUSH4 0x406072A9 EQ PUSH2 0x13C JUMPI DUP1 PUSH4 0x48B75044 EQ PUSH2 0x178 JUMPI DUP1 PUSH4 0x8B83209B EQ PUSH2 0x1A0 JUMPI PUSH2 0xE6 JUMP JUMPDEST CALLDATASIZE PUSH2 0xE6 JUMPI PUSH32 0x6EF95F06320E7A25A04A175CA677B7052BDD97131872C2192525A629F51BE770 PUSH2 0xCD PUSH2 0x332 JUMP JUMPDEST CALLVALUE PUSH1 0x40 MLOAD PUSH2 0xDC SWAP3 SWAP2 SWAP1 PUSH2 0xC02 JUMP JUMPDEST PUSH1 0x40 MLOAD DUP1 SWAP2 SUB SWAP1 LOG1 STOP JUMPDEST PUSH0 DUP1 REVERT JUMPDEST CALLVALUE DUP1 ISZERO PUSH2 0xF5 JUMPI PUSH0 DUP1 REVERT JUMPDEST POP PUSH2 0x110 PUSH1 0x4 DUP1 CALLDATASIZE SUB DUP2 ADD SWAP1 PUSH2 0x10B SWAP2 SWAP1 PUSH2 0xC68 JUMP JUMPDEST PUSH2 0x339 JUMP JUMPDEST STOP JUMPDEST CALLVALUE DUP1 ISZERO PUSH2 0x11D JUMPI PUSH0 DUP1 REVERT JUMPDEST POP PUSH2 0x126 PUSH2 0x4AF JUMP JUMPDEST PUSH1 0x40 MLOAD PUSH2 0x133 SWAP2 SWAP1 PUSH2 0xC93 JUMP JUMPDEST PUSH1 0x40 MLOAD DUP1 SWAP2 SUB SWAP1 RETURN JUMPDEST CALLVALUE DUP1 ISZERO PUSH2 0x147 JUMPI PUSH0 DUP1 REVERT JUMPDEST POP PUSH2 0x162 PUSH1 0x4 DUP1 CALLDATASIZE SUB DUP2 ADD SWAP1 PUSH2 0x15D SWAP2 SWAP1 PUSH2 0xD11 JUMP JUMPDEST PUSH2 0x4B7 JUMP JUMPDEST PUSH1 0x40 MLOAD PUSH2 0x16F SWAP2 SWAP1 PUSH2 0xC93 JUMP JUMPDEST PUSH1 0x40 MLOAD DUP1 SWAP2 SUB SWAP1 RETURN JUMPDEST CALLVALUE DUP1 ISZERO PUSH2 0x183 JUMPI PUSH0 DUP1 REVERT JUMPDEST POP PUSH2 0x19E PUSH1 0x4 DUP1 CALLDATASIZE SUB DUP2 ADD SWAP1 PUSH2 0x199 SWAP2 SWAP1 PUSH2 0xD11 JUMP JUMPDEST PUSH2 0x539 JUMP JUMPDEST STOP JUMPDEST CALLVALUE DUP1 ISZERO PUSH2 0x1AB JUMPI PUSH0 DUP1 REVERT JUMPDEST POP PUSH2 0x1C6 PUSH1 0x4 DUP1 CALLDATASIZE SUB DUP2 ADD SWAP1 PUSH2 0x1C1 SWAP2 SWAP1 PUSH2 0xD79 JUMP JUMPDEST PUSH2 0x73F JUMP JUMPDEST PUSH1 0x40 MLOAD PUSH2 0x1D3 SWAP2 SWAP1 PUSH2 0xDA4 JUMP JUMPDEST PUSH1 0x40 MLOAD DUP1 SWAP2 SUB SWAP1 RETURN JUMPDEST CALLVALUE DUP1 ISZERO PUSH2 0x1E7 JUMPI PUSH0 DUP1 REVERT JUMPDEST POP PUSH2 0x202 PUSH1 0x4 DUP1 CALLDATASIZE SUB DUP2 ADD SWAP1 PUSH2 0x1FD SWAP2 SWAP1 PUSH2 0xDBD JUMP JUMPDEST PUSH2 0x783 JUMP JUMPDEST PUSH1 0x40 MLOAD PUSH2 0x20F SWAP2 SWAP1 PUSH2 0xC93 JUMP JUMPDEST PUSH1 0x40 MLOAD DUP1 SWAP2 SUB SWAP1 RETURN JUMPDEST CALLVALUE DUP1 ISZERO PUSH2 0x223 JUMPI PUSH0 DUP1 REVERT JUMPDEST POP PUSH2 0x23E PUSH1 0x4 DUP1 CALLDATASIZE SUB DUP2 ADD SWAP1 PUSH2 0x239 SWAP2 SWAP1 PUSH2 0xDBD JUMP JUMPDEST PUSH2 0x7C9 JUMP JUMPDEST PUSH1 0x40 MLOAD PUSH2 0x24B SWAP2 SWAP1 PUSH2 0xC93 JUMP JUMPDEST PUSH1 0x40 MLOAD DUP1 SWAP2 SUB SWAP1 RETURN JUMPDEST CALLVALUE DUP1 ISZERO PUSH2 0x25F JUMPI PUSH0 DUP1 REVERT JUMPDEST POP PUSH2 0x27A PUSH1 0x4 DUP1 CALLDATASIZE SUB DUP2 ADD SWAP1 PUSH2 0x275 SWAP2 SWAP1 PUSH2 0xD11 JUMP JUMPDEST PUSH2 0x7FB JUMP JUMPDEST PUSH1 0x40 MLOAD PUSH2 0x287 SWAP2 SWAP1 PUSH2 0xC93 JUMP JUMPDEST PUSH1 0x40 MLOAD DUP1 SWAP2 SUB SWAP1 RETURN JUMPDEST CALLVALUE DUP1 ISZERO PUSH2 0x29B JUMPI PUSH0 DUP1 REVERT JUMPDEST POP PUSH2 0x2B6 PUSH1 0x4 DUP1 CALLDATASIZE SUB DUP2 ADD SWAP1 PUSH2 0x2B1 SWAP2 SWAP1 PUSH2 0xDBD JUMP JUMPDEST PUSH2 0x8A7 JUMP JUMPDEST PUSH1 0x40 MLOAD PUSH2 0x2C3 SWAP2 SWAP1 PUSH2 0xC93 JUMP JUMPDEST PUSH1 0x40 MLOAD DUP1 SWAP2 SUB SWAP1 RETURN JUMPDEST CALLVALUE DUP1 ISZERO PUSH2 0x2D7 JUMPI PUSH0 DUP1 REVERT JUMPDEST POP PUSH2 0x2F2 PUSH1 0x4 DUP1 CALLDATASIZE SUB DUP2 ADD SWAP1 PUSH2 0x2ED SWAP2 SWAP1 PUSH2 0xDE8 JUMP JUMPDEST PUSH2 0x8ED JUMP JUMPDEST PUSH1 0x40 MLOAD PUSH2 0x2FF SWAP2 SWAP1 PUSH2 0xC93 JUMP JUMPDEST PUSH1 0x40 MLOAD DUP1 SWAP2 SUB SWAP1 RETURN JUMPDEST CALLVALUE DUP1 ISZERO PUSH2 0x313 JUMPI PUSH0 DUP1 REVERT JUMPDEST POP PUSH2 0x31C PUSH2 0x933 JUMP JUMPDEST PUSH1 0x40 MLOAD PUSH2 0x329 SWAP2 SWAP1 PUSH2 0xC93 JUMP JUMPDEST PUSH1 0x40 MLOAD DUP1 SWAP2 SUB SWAP1 RETURN JUMPDEST PUSH0 CALLER SWAP1 POP SWAP1 JUMP JUMPDEST PUSH0 PUSH1 0x2 PUSH0 DUP4 PUSH20 0xFFFFFFFFFFFFFFFFFFFFFFFFFFFFFFFFFFFFFFFF AND PUSH20 0xFFFFFFFFFFFFFFFFFFFFFFFFFFFFFFFFFFFFFFFF AND DUP2 MSTORE PUSH1 0x20 ADD SWAP1 DUP2 MSTORE PUSH1 0x20 ADD PUSH0 KECCAK256 SLOAD GT PUSH2 0x3B8 JUMPI PUSH1 0x40 MLOAD PUSH32 0x8C379A000000000000000000000000000000000000000000000000000000000 DUP2 MSTORE PUSH1 0x4 ADD PUSH2 0x3AF SWAP1 PUSH2 0xE93 JUMP JUMPDEST PUSH1 0x40 MLOAD DUP1 SWAP2 SUB SWAP1 REVERT JUMPDEST PUSH0 PUSH2 0x3C2 DUP3 PUSH2 0x7C9 JUMP JUMPDEST SWAP1 POP PUSH0 DUP2 SUB PUSH2 0x406 JUMPI PUSH1 0x40 MLOAD PUSH32 0x8C379A000000000000000000000000000000000000000000000000000000000 DUP2 MSTORE PUSH1 0x4 ADD PUSH2 0x3FD SWAP1 PUSH2 0xF21 JUMP JUMPDEST PUSH1 0x40 MLOAD DUP1 SWAP2 SUB SWAP1 REVERT JUMPDEST DUP1 PUSH1 0x1 PUSH0 DUP3 DUP3 SLOAD PUSH2 0x417 SWAP2 SWAP1 PUSH2 0xF6C JUMP JUMPDEST SWAP3 POP POP DUP2 SWAP1 SSTORE POP DUP1 PUSH1 0x3 PUSH0 DUP5 PUSH20 0xFFFFFFFFFFFFFFFFFFFFFFFFFFFFFFFFFFFFFFFF AND PUSH20 0xFFFFFFFFFFFFFFFFFFFFFFFFFFFFFFFFFFFFFFFF AND DUP2 MSTORE PUSH1 0x20 ADD SWAP1 DUP2 MSTORE PUSH1 0x20 ADD PUSH0 KECCAK256 PUSH0 DUP3 DUP3 SLOAD ADD SWAP3 POP POP DUP2 SWAP1 SSTORE POP PUSH2 0x472 DUP3 DUP3 PUSH2 0x93C JUMP JUMPDEST PUSH32 0xDF20FD1E76BC69D672E4814FAFB2C449BBA3A5369D8359ADF9E05E6FDE87B056 DUP3 DUP3 PUSH1 0x40 MLOAD PUSH2 0x4A3 SWAP3 SWAP2 SWAP1 PUSH2 0xFFA JUMP JUMPDEST PUSH1 0x40 MLOAD DUP1 SWAP2 SUB SWAP1 LOG1 POP POP JUMP JUMPDEST PUSH0 DUP1 SLOAD SWAP1 POP SWAP1 JUMP JUMPDEST PUSH0 PUSH1 0x6 PUSH0 DUP5 PUSH20 0xFFFFFFFFFFFFFFFFFFFFFFFFFFFFFFFFFFFFFFFF AND PUSH20 0xFFFFFFFFFFFFFFFFFFFFFFFFFFFFFFFFFFFFFFFF AND DUP2 MSTORE PUSH1 0x20 ADD SWAP1 DUP2 MSTORE PUSH1 0x20 ADD PUSH0 KECCAK256 PUSH0 DUP4 PUSH20 0xFFFFFFFFFFFFFFFFFFFFFFFFFFFFFFFFFFFFFFFF AND PUSH20 0xFFFFFFFFFFFFFFFFFFFFFFFFFFFFFFFFFFFFFFFF AND DUP2 MSTORE PUSH1 0x20 ADD SWAP1 DUP2 MSTORE PUSH1 0x20 ADD PUSH0 KECCAK256 SLOAD SWAP1 POP SWAP3 SWAP2 POP POP JUMP JUMPDEST PUSH0 PUSH1 0x2 PUSH0 DUP4 PUSH20 0xFFFFFFFFFFFFFFFFFFFFFFFFFFFFFFFFFFFFFFFF AND PUSH20 0xFFFFFFFFFFFFFFFFFFFFFFFFFFFFFFFFFFFFFFFF AND DUP2 MSTORE PUSH1 0x20 ADD SWAP1 DUP2 MSTORE PUSH1 0x20 ADD PUSH0 KECCAK256 SLOAD GT PUSH2 0x5B8 JUMPI PUSH1 0x40 MLOAD PUSH32 0x8C379A000000000000000000000000000000000000000000000000000000000 DUP2 MSTORE PUSH1 0x4 ADD PUSH2 0x5AF SWAP1 PUSH2 0xE93 JUMP JUMPDEST PUSH1 0x40 MLOAD DUP1 SWAP2 SUB SWAP1 REVERT JUMPDEST PUSH0 PUSH2 0x5C3 DUP4 DUP4 PUSH2 0x7FB JUMP JUMPDEST SWAP1 POP PUSH0 DUP2 SUB PUSH2 0x607 JUMPI PUSH1 0x40 MLOAD PUSH32 0x8C379A000000000000000000000000000000000000000000000000000000000 DUP2 MSTORE PUSH1 0x4 ADD PUSH2 0x5FE SWAP1 PUSH2 0xF21 JUMP JUMPDEST PUSH1 0x40 MLOAD DUP1 SWAP2 SUB SWAP1 REVERT JUMPDEST DUP1 PUSH1 0x5 PUSH0 DUP6 PUSH20 0xFFFFFFFFFFFFFFFFFFFFFFFFFFFFFFFFFFFFFFFF AND PUSH20 0xFFFFFFFFFFFFFFFFFFFFFFFFFFFFFFFFFFFFFFFF AND DUP2 MSTORE PUSH1 0x20 ADD SWAP1 DUP2 MSTORE PUSH1 0x20 ADD PUSH0 KECCAK256 PUSH0 DUP3 DUP3 SLOAD PUSH2 0x653 SWAP2 SWAP1 PUSH2 0xF6C JUMP JUMPDEST SWAP3 POP POP DUP2 SWAP1 SSTORE POP DUP1 PUSH1 0x6 PUSH0 DUP6 PUSH20 0xFFFFFFFFFFFFFFFFFFFFFFFFFFFFFFFFFFFFFFFF AND PUSH20 0xFFFFFFFFFFFFFFFFFFFFFFFFFFFFFFFFFFFFFFFF AND DUP2 MSTORE PUSH1 0x20 ADD SWAP1 DUP2 MSTORE PUSH1 0x20 ADD PUSH0 KECCAK256 PUSH0 DUP5 PUSH20 0xFFFFFFFFFFFFFFFFFFFFFFFFFFFFFFFFFFFFFFFF AND PUSH20 0xFFFFFFFFFFFFFFFFFFFFFFFFFFFFFFFFFFFFFFFF AND DUP2 MSTORE PUSH1 0x20 ADD SWAP1 DUP2 MSTORE PUSH1 0x20 ADD PUSH0 KECCAK256 PUSH0 DUP3 DUP3 SLOAD ADD SWAP3 POP POP DUP2 SWAP1 SSTORE POP PUSH2 0x6EA DUP4 DUP4 DUP4 PUSH2 0xA27 JUMP JUMPDEST DUP3 PUSH20 0xFFFFFFFFFFFFFFFFFFFFFFFFFFFFFFFFFFFFFFFF AND PUSH32 0x3BE5B7A71E84ED12875D241991C70855AC5817D847039E17A9D895C1CEB0F18A DUP4 DUP4 PUSH1 0x40 MLOAD PUSH2 0x732 SWAP3 SWAP2 SWAP1 PUSH2 0xC02 JUMP JUMPDEST PUSH1 0x40 MLOAD DUP1 SWAP2 SUB SWAP1 LOG2 POP POP POP JUMP JUMPDEST PUSH0 PUSH1 0x4 DUP3 DUP2 SLOAD DUP2 LT PUSH2 0x754 JUMPI PUSH2 0x753 PUSH2 0x1021 JUMP JUMPDEST JUMPDEST SWAP1 PUSH0 MSTORE PUSH1 0x20 PUSH0 KECCAK256 ADD PUSH0 SWAP1 SLOAD SWAP1 PUSH2 0x100 EXP SWAP1 DIV PUSH20 0xFFFFFFFFFFFFFFFFFFFFFFFFFFFFFFFFFFFFFFFF AND SWAP1 POP SWAP2 SWAP1 POP JUMP JUMPDEST PUSH0 PUSH1 0x3 PUSH0 DUP4 PUSH20 0xFFFFFFFFFFFFFFFFFFFFFFFFFFFFFFFFFFFFFFFF AND PUSH20 0xFFFFFFFFFFFFFFFFFFFFFFFFFFFFFFFFFFFFFFFF AND DUP2 MSTORE PUSH1 0x20 ADD SWAP1 DUP2 MSTORE PUSH1 0x20 ADD PUSH0 KECCAK256 SLOAD SWAP1 POP SWAP2 SWAP1 POP JUMP JUMPDEST PUSH0 DUP1 PUSH2 0x7D3 PUSH2 0x933 JUMP JUMPDEST SELFBALANCE PUSH2 0x7DE SWAP2 SWAP1 PUSH2 0xF6C JUMP JUMPDEST SWAP1 POP PUSH2 0x7F3 DUP4 DUP3 PUSH2 0x7EE DUP7 PUSH2 0x783 JUMP JUMPDEST PUSH2 0xAA6 JUMP JUMPDEST SWAP2 POP POP SWAP2 SWAP1 POP JUMP JUMPDEST PUSH0 DUP1 PUSH2 0x806 DUP5 PUSH2 0x8ED JUMP JUMPDEST DUP5 PUSH20 0xFFFFFFFFFFFFFFFFFFFFFFFFFFFFFFFFFFFFFFFF AND PUSH4 0x70A08231 ADDRESS PUSH1 0x40 MLOAD DUP3 PUSH4 0xFFFFFFFF AND PUSH1 0xE0 SHL DUP2 MSTORE PUSH1 0x4 ADD PUSH2 0x83F SWAP2 SWAP1 PUSH2 0xDA4 JUMP JUMPDEST PUSH1 0x20 PUSH1 0x40 MLOAD DUP1 DUP4 SUB DUP2 DUP7 GAS STATICCALL ISZERO DUP1 ISZERO PUSH2 0x85A JUMPI RETURNDATASIZE PUSH0 DUP1 RETURNDATACOPY RETURNDATASIZE PUSH0 REVERT JUMPDEST POP POP POP POP PUSH1 0x40 MLOAD RETURNDATASIZE PUSH1 0x1F NOT PUSH1 0x1F DUP3 ADD AND DUP3 ADD DUP1 PUSH1 0x40 MSTORE POP DUP2 ADD SWAP1 PUSH2 0x87E SWAP2 SWAP1 PUSH2 0x1062 JUMP JUMPDEST PUSH2 0x888 SWAP2 SWAP1 PUSH2 0xF6C JUMP JUMPDEST SWAP1 POP PUSH2 0x89E DUP4 DUP3 PUSH2 0x899 DUP8 DUP8 PUSH2 0x4B7 JUMP JUMPDEST PUSH2 0xAA6 JUMP JUMPDEST SWAP2 POP POP SWAP3 SWAP2 POP POP JUMP JUMPDEST PUSH0 PUSH1 0x2 PUSH0 DUP4 PUSH20 0xFFFFFFFFFFFFFFFFFFFFFFFFFFFFFFFFFFFFFFFF AND PUSH20 0xFFFFFFFFFFFFFFFFFFFFFFFFFFFFFFFFFFFFFFFF AND DUP2 MSTORE PUSH1 0x20 ADD SWAP1 DUP2 MSTORE PUSH1 0x20 ADD PUSH0 KECCAK256 SLOAD SWAP1 POP SWAP2 SWAP1 POP JUMP JUMPDEST PUSH0 PUSH1 0x5 PUSH0 DUP4 PUSH20 0xFFFFFFFFFFFFFFFFFFFFFFFFFFFFFFFFFFFFFFFF AND PUSH20 0xFFFFFFFFFFFFFFFFFFFFFFFFFFFFFFFFFFFFFFFF AND DUP2 MSTORE PUSH1 0x20 ADD SWAP1 DUP2 MSTORE PUSH1 0x20 ADD PUSH0 KECCAK256 SLOAD SWAP1 POP SWAP2 SWAP1 POP JUMP JUMPDEST PUSH0 PUSH1 0x1 SLOAD SWAP1 POP SWAP1 JUMP JUMPDEST DUP1 SELFBALANCE LT ISZERO PUSH2 0x983 JUMPI SELFBALANCE DUP2 PUSH1 0x40 MLOAD PUSH32 0xCF47918100000000000000000000000000000000000000000000000000000000 DUP2 MSTORE PUSH1 0x4 ADD PUSH2 0x97A SWAP3 SWAP2 SWAP1 PUSH2 0x108D JUMP JUMPDEST PUSH1 0x40 MLOAD DUP1 SWAP2 SUB SWAP1 REVERT JUMPDEST PUSH0 DUP3 PUSH20 0xFFFFFFFFFFFFFFFFFFFFFFFFFFFFFFFFFFFFFFFF AND DUP3 PUSH1 0x40 MLOAD PUSH2 0x9A8 SWAP1 PUSH2 0x10E1 JUMP JUMPDEST PUSH0 PUSH1 0x40 MLOAD DUP1 DUP4 SUB DUP2 DUP6 DUP8 GAS CALL SWAP3 POP POP POP RETURNDATASIZE DUP1 PUSH0 DUP2 EQ PUSH2 0x9E2 JUMPI PUSH1 0x40 MLOAD SWAP2 POP PUSH1 0x1F NOT PUSH1 0x3F RETURNDATASIZE ADD AND DUP3 ADD PUSH1 0x40 MSTORE RETURNDATASIZE DUP3 MSTORE RETURNDATASIZE PUSH0 PUSH1 0x20 DUP5 ADD RETURNDATACOPY PUSH2 0x9E7 JUMP JUMPDEST PUSH1 0x60 SWAP2 POP JUMPDEST POP POP SWAP1 POP DUP1 PUSH2 0xA22 JUMPI PUSH1 0x40 MLOAD PUSH32 0xD6BDA27500000000000000000000000000000000000000000000000000000000 DUP2 MSTORE PUSH1 0x4 ADD PUSH1 0x40 MLOAD DUP1 SWAP2 SUB SWAP1 REVERT JUMPDEST POP POP POP JUMP JUMPDEST PUSH2 0xAA1 DUP4 DUP5 PUSH20 0xFFFFFFFFFFFFFFFFFFFFFFFFFFFFFFFFFFFFFFFF AND PUSH4 0xA9059CBB DUP6 DUP6 PUSH1 0x40 MLOAD PUSH1 0x24 ADD PUSH2 0xA5A SWAP3 SWAP2 SWAP1 PUSH2 0xC02 JUMP JUMPDEST PUSH1 0x40 MLOAD PUSH1 0x20 DUP2 DUP4 SUB SUB DUP2 MSTORE SWAP1 PUSH1 0x40 MSTORE SWAP2 POP PUSH1 0xE0 SHL PUSH1 0x20 DUP3 ADD DUP1 MLOAD PUSH28 0xFFFFFFFFFFFFFFFFFFFFFFFFFFFFFFFFFFFFFFFFFFFFFFFFFFFFFFFF DUP4 DUP2 DUP4 AND OR DUP4 MSTORE POP POP POP POP PUSH2 0xB10 JUMP JUMPDEST POP POP POP JUMP JUMPDEST PUSH0 DUP2 PUSH0 SLOAD PUSH1 0x2 PUSH0 DUP8 PUSH20 0xFFFFFFFFFFFFFFFFFFFFFFFFFFFFFFFFFFFFFFFF AND PUSH20 0xFFFFFFFFFFFFFFFFFFFFFFFFFFFFFFFFFFFFFFFF AND DUP2 MSTORE PUSH1 0x20 ADD SWAP1 DUP2 MSTORE PUSH1 0x20 ADD PUSH0 KECCAK256 SLOAD DUP6 PUSH2 0xAF3 SWAP2 SWAP1 PUSH2 0x10F5 JUMP JUMPDEST PUSH2 0xAFD SWAP2 SWAP1 PUSH2 0x1163 JUMP JUMPDEST PUSH2 0xB07 SWAP2 SWAP1 PUSH2 0x1193 JUMP JUMPDEST SWAP1 POP SWAP4 SWAP3 POP POP POP JUMP JUMPDEST PUSH0 DUP1 PUSH1 0x20 PUSH0 DUP5 MLOAD PUSH1 0x20 DUP7 ADD PUSH0 DUP9 GAS CALL DUP1 PUSH2 0xB2F JUMPI PUSH1 0x40 MLOAD RETURNDATASIZE PUSH0 DUP3 RETURNDATACOPY RETURNDATASIZE DUP2 REVERT JUMPDEST RETURNDATASIZE SWAP3 POP PUSH0 MLOAD SWAP2 POP POP PUSH0 DUP3 EQ PUSH2 0xB48 JUMPI PUSH1 0x1 DUP2 EQ ISZERO PUSH2 0xB63 JUMP JUMPDEST PUSH0 DUP5 PUSH20 0xFFFFFFFFFFFFFFFFFFFFFFFFFFFFFFFFFFFFFFFF AND EXTCODESIZE EQ JUMPDEST ISZERO PUSH2 0xBA5 JUMPI DUP4 PUSH1 0x40 MLOAD PUSH32 0x5274AFE700000000000000000000000000000000000000000000000000000000 DUP2 MSTORE PUSH1 0x4 ADD PUSH2 0xB9C SWAP2 SWAP1 PUSH2 0xDA4 JUMP JUMPDEST PUSH1 0x40 MLOAD DUP1 SWAP2 SUB SWAP1 REVERT JUMPDEST POP POP POP POP JUMP JUMPDEST PUSH0 PUSH20 0xFFFFFFFFFFFFFFFFFFFFFFFFFFFFFFFFFFFFFFFF DUP3 AND SWAP1 POP SWAP2 SWAP1 POP JUMP JUMPDEST PUSH0 PUSH2 0xBD4 DUP3 PUSH2 0xBAB JUMP JUMPDEST SWAP1 POP SWAP2 SWAP1 POP JUMP JUMPDEST PUSH2 0xBE4 DUP2 PUSH2 0xBCA JUMP JUMPDEST DUP3 MSTORE POP POP JUMP JUMPDEST PUSH0 DUP2 SWAP1 POP SWAP2 SWAP1 POP JUMP JUMPDEST PUSH2 0xBFC DUP2 PUSH2 0xBEA JUMP JUMPDEST DUP3 MSTORE POP POP JUMP JUMPDEST PUSH0 PUSH1 0x40 DUP3 ADD SWAP1 POP PUSH2 0xC15 PUSH0 DUP4 ADD DUP6 PUSH2 0xBDB JUMP JUMPDEST PUSH2 0xC22 PUSH1 0x20 DUP4 ADD DUP5 PUSH2 0xBF3 JUMP JUMPDEST SWAP4 SWAP3 POP POP POP JUMP JUMPDEST PUSH0 DUP1 REVERT JUMPDEST PUSH0 PUSH2 0xC37 DUP3 PUSH2 0xBAB JUMP JUMPDEST SWAP1 POP SWAP2 SWAP1 POP JUMP JUMPDEST PUSH2 0xC47 DUP2 PUSH2 0xC2D JUMP JUMPDEST DUP2 EQ PUSH2 0xC51 JUMPI PUSH0 DUP1 REVERT JUMPDEST POP JUMP JUMPDEST PUSH0 DUP2 CALLDATALOAD SWAP1 POP PUSH2 0xC62 DUP2 PUSH2 0xC3E JUMP JUMPDEST SWAP3 SWAP2 POP POP JUMP JUMPDEST PUSH0 PUSH1 0x20 DUP3 DUP5 SUB SLT ISZERO PUSH2 0xC7D JUMPI PUSH2 0xC7C PUSH2 0xC29 JUMP JUMPDEST JUMPDEST PUSH0 PUSH2 0xC8A DUP5 DUP3 DUP6 ADD PUSH2 0xC54 JUMP JUMPDEST SWAP2 POP POP SWAP3 SWAP2 POP POP JUMP JUMPDEST PUSH0 PUSH1 0x20 DUP3 ADD SWAP1 POP PUSH2 0xCA6 PUSH0 DUP4 ADD DUP5 PUSH2 0xBF3 JUMP JUMPDEST SWAP3 SWAP2 POP POP JUMP JUMPDEST PUSH0 PUSH2 0xCB6 DUP3 PUSH2 0xBCA JUMP JUMPDEST SWAP1 POP SWAP2 SWAP1 POP JUMP JUMPDEST PUSH2 0xCC6 DUP2 PUSH2 0xCAC JUMP JUMPDEST DUP2 EQ PUSH2 0xCD0 JUMPI PUSH0 DUP1 REVERT JUMPDEST POP JUMP JUMPDEST PUSH0 DUP2 CALLDATALOAD SWAP1 POP PUSH2 0xCE1 DUP2 PUSH2 0xCBD JUMP JUMPDEST SWAP3 SWAP2 POP POP JUMP JUMPDEST PUSH2 0xCF0 DUP2 PUSH2 0xBCA JUMP JUMPDEST DUP2 EQ PUSH2 0xCFA JUMPI PUSH0 DUP1 REVERT JUMPDEST POP JUMP JUMPDEST PUSH0 DUP2 CALLDATALOAD SWAP1 POP PUSH2 0xD0B DUP2 PUSH2 0xCE7 JUMP JUMPDEST SWAP3 SWAP2 POP POP JUMP JUMPDEST PUSH0 DUP1 PUSH1 0x40 DUP4 DUP6 SUB SLT ISZERO PUSH2 0xD27 JUMPI PUSH2 0xD26 PUSH2 0xC29 JUMP JUMPDEST JUMPDEST PUSH0 PUSH2 0xD34 DUP6 DUP3 DUP7 ADD PUSH2 0xCD3 JUMP JUMPDEST SWAP3 POP POP PUSH1 0x20 PUSH2 0xD45 DUP6 DUP3 DUP7 ADD PUSH2 0xCFD JUMP JUMPDEST SWAP2 POP POP SWAP3 POP SWAP3 SWAP1 POP JUMP JUMPDEST PUSH2 0xD58 DUP2 PUSH2 0xBEA JUMP JUMPDEST DUP2 EQ PUSH2 0xD62 JUMPI PUSH0 DUP1 REVERT JUMPDEST POP JUMP JUMPDEST PUSH0 DUP2 CALLDATALOAD SWAP1 POP PUSH2 0xD73 DUP2 PUSH2 0xD4F JUMP JUMPDEST SWAP3 SWAP2 POP POP JUMP JUMPDEST PUSH0 PUSH1 0x20 DUP3 DUP5 SUB SLT ISZERO PUSH2 0xD8E JUMPI PUSH2 0xD8D PUSH2 0xC29 JUMP JUMPDEST JUMPDEST PUSH0 PUSH2 0xD9B DUP5 DUP3 DUP6 ADD PUSH2 0xD65 JUMP JUMPDEST SWAP2 POP POP SWAP3 SWAP2 POP POP JUMP JUMPDEST PUSH0 PUSH1 0x20 DUP3 ADD SWAP1 POP PUSH2 0xDB7 PUSH0 DUP4 ADD DUP5 PUSH2 0xBDB JUMP JUMPDEST SWAP3 SWAP2 POP POP JUMP JUMPDEST PUSH0 PUSH1 0x20 DUP3 DUP5 SUB SLT ISZERO PUSH2 0xDD2 JUMPI PUSH2 0xDD1 PUSH2 0xC29 JUMP JUMPDEST JUMPDEST PUSH0 PUSH2 0xDDF DUP5 DUP3 DUP6 ADD PUSH2 0xCFD JUMP JUMPDEST SWAP2 POP POP SWAP3 SWAP2 POP POP JUMP JUMPDEST PUSH0 PUSH1 0x20 DUP3 DUP5 SUB SLT ISZERO PUSH2 0xDFD JUMPI PUSH2 0xDFC PUSH2 0xC29 JUMP JUMPDEST JUMPDEST PUSH0 PUSH2 0xE0A DUP5 DUP3 DUP6 ADD PUSH2 0xCD3 JUMP JUMPDEST SWAP2 POP POP SWAP3 SWAP2 POP POP JUMP JUMPDEST PUSH0 DUP3 DUP3 MSTORE PUSH1 0x20 DUP3 ADD SWAP1 POP SWAP3 SWAP2 POP POP JUMP JUMPDEST PUSH32 0x5061796D656E7453706C69747465723A206163636F756E7420686173206E6F20 PUSH0 DUP3 ADD MSTORE PUSH32 0x7368617265730000000000000000000000000000000000000000000000000000 PUSH1 0x20 DUP3 ADD MSTORE POP JUMP JUMPDEST PUSH0 PUSH2 0xE7D PUSH1 0x26 DUP4 PUSH2 0xE13 JUMP JUMPDEST SWAP2 POP PUSH2 0xE88 DUP3 PUSH2 0xE23 JUMP JUMPDEST PUSH1 0x40 DUP3 ADD SWAP1 POP SWAP2 SWAP1 POP JUMP JUMPDEST PUSH0 PUSH1 0x20 DUP3 ADD SWAP1 POP DUP2 DUP2 SUB PUSH0 DUP4 ADD MSTORE PUSH2 0xEAA DUP2 PUSH2 0xE71 JUMP JUMPDEST SWAP1 POP SWAP2 SWAP1 POP JUMP JUMPDEST PUSH32 0x5061796D656E7453706C69747465723A206163636F756E74206973206E6F7420 PUSH0 DUP3 ADD MSTORE PUSH32 0x647565207061796D656E74000000000000000000000000000000000000000000 PUSH1 0x20 DUP3 ADD MSTORE POP JUMP JUMPDEST PUSH0 PUSH2 0xF0B PUSH1 0x2B DUP4 PUSH2 0xE13 JUMP JUMPDEST SWAP2 POP PUSH2 0xF16 DUP3 PUSH2 0xEB1 JUMP JUMPDEST PUSH1 0x40 DUP3 ADD SWAP1 POP SWAP2 SWAP1 POP JUMP JUMPDEST PUSH0 PUSH1 0x20 DUP3 ADD SWAP1 POP DUP2 DUP2 SUB PUSH0 DUP4 ADD MSTORE PUSH2 0xF38 DUP2 PUSH2 0xEFF JUMP JUMPDEST SWAP1 POP SWAP2 SWAP1 POP JUMP JUMPDEST PUSH32 0x4E487B7100000000000000000000000000000000000000000000000000000000 PUSH0 MSTORE PUSH1 0x11 PUSH1 0x4 MSTORE PUSH1 0x24 PUSH0 REVERT JUMPDEST PUSH0 PUSH2 0xF76 DUP3 PUSH2 0xBEA JUMP JUMPDEST SWAP2 POP PUSH2 0xF81 DUP4 PUSH2 0xBEA JUMP JUMPDEST SWAP3 POP DUP3 DUP3 ADD SWAP1 POP DUP1 DUP3 GT ISZERO PUSH2 0xF99 JUMPI PUSH2 0xF98 PUSH2 0xF3F JUMP JUMPDEST JUMPDEST SWAP3 SWAP2 POP POP JUMP JUMPDEST PUSH0 DUP2 SWAP1 POP SWAP2 SWAP1 POP JUMP JUMPDEST PUSH0 PUSH2 0xFC2 PUSH2 0xFBD PUSH2 0xFB8 DUP5 PUSH2 0xBAB JUMP JUMPDEST PUSH2 0xF9F JUMP JUMPDEST PUSH2 0xBAB JUMP JUMPDEST SWAP1 POP SWAP2 SWAP1 POP JUMP JUMPDEST PUSH0 PUSH2 0xFD3 DUP3 PUSH2 0xFA8 JUMP JUMPDEST SWAP1 POP SWAP2 SWAP1 POP JUMP JUMPDEST PUSH0 PUSH2 0xFE4 DUP3 PUSH2 0xFC9 JUMP JUMPDEST SWAP1 POP SWAP2 SWAP1 POP JUMP JUMPDEST PUSH2 0xFF4 DUP2 PUSH2 0xFDA JUMP JUMPDEST DUP3 MSTORE POP POP JUMP JUMPDEST PUSH0 PUSH1 0x40 DUP3 ADD SWAP1 POP PUSH2 0x100D PUSH0 DUP4 ADD DUP6 PUSH2 0xFEB JUMP JUMPDEST PUSH2 0x101A PUSH1 0x20 DUP4 ADD DUP5 PUSH2 0xBF3 JUMP JUMPDEST SWAP4 SWAP3 POP POP POP JUMP JUMPDEST PUSH32 0x4E487B7100000000000000000000000000000000000000000000000000000000 PUSH0 MSTORE PUSH1 0x32 PUSH1 0x4 MSTORE PUSH1 0x24 PUSH0 REVERT JUMPDEST PUSH0 DUP2 MLOAD SWAP1 POP PUSH2 0x105C DUP2 PUSH2 0xD4F JUMP JUMPDEST SWAP3 SWAP2 POP POP JUMP JUMPDEST PUSH0 PUSH1 0x20 DUP3 DUP5 SUB SLT ISZERO PUSH2 0x1077 JUMPI PUSH2 0x1076 PUSH2 0xC29 JUMP JUMPDEST JUMPDEST PUSH0 PUSH2 0x1084 DUP5 DUP3 DUP6 ADD PUSH2 0x104E JUMP JUMPDEST SWAP2 POP POP SWAP3 SWAP2 POP POP JUMP JUMPDEST PUSH0 PUSH1 0x40 DUP3 ADD SWAP1 POP PUSH2 0x10A0 PUSH0 DUP4 ADD DUP6 PUSH2 0xBF3 JUMP JUMPDEST PUSH2 0x10AD PUSH1 0x20 DUP4 ADD DUP5 PUSH2 0xBF3 JUMP JUMPDEST SWAP4 SWAP3 POP POP POP JUMP JUMPDEST PUSH0 DUP2 SWAP1 POP SWAP3 SWAP2 POP POP JUMP JUMPDEST POP JUMP JUMPDEST PUSH0 PUSH2 0x10CC PUSH0 DUP4 PUSH2 0x10B4 JUMP JUMPDEST SWAP2 POP PUSH2 0x10D7 DUP3 PUSH2 0x10BE JUMP JUMPDEST PUSH0 DUP3 ADD SWAP1 POP SWAP2 SWAP1 POP JUMP JUMPDEST PUSH0 PUSH2 0x10EB DUP3 PUSH2 0x10C1 JUMP JUMPDEST SWAP2 POP DUP2 SWAP1 POP SWAP2 SWAP1 POP JUMP JUMPDEST PUSH0 PUSH2 0x10FF DUP3 PUSH2 0xBEA JUMP JUMPDEST SWAP2 POP PUSH2 0x110A DUP4 PUSH2 0xBEA JUMP JUMPDEST SWAP3 POP DUP3 DUP3 MUL PUSH2 0x1118 DUP2 PUSH2 0xBEA JUMP JUMPDEST SWAP2 POP DUP3 DUP3 DIV DUP5 EQ DUP4 ISZERO OR PUSH2 0x112F JUMPI PUSH2 0x112E PUSH2 0xF3F JUMP JUMPDEST JUMPDEST POP SWAP3 SWAP2 POP POP JUMP JUMPDEST PUSH32 0x4E487B7100000000000000000000000000000000000000000000000000000000 PUSH0 MSTORE PUSH1 0x12 PUSH1 0x4 MSTORE PUSH1 0x24 PUSH0 REVERT JUMPDEST PUSH0 PUSH2 0x116D DUP3 PUSH2 0xBEA JUMP JUMPDEST SWAP2 POP PUSH2 0x1178 DUP4 PUSH2 0xBEA JUMP JUMPDEST SWAP3 POP DUP3 PUSH2 0x1188 JUMPI PUSH2 0x1187 PUSH2 0x1136 JUMP JUMPDEST JUMPDEST DUP3 DUP3 DIV SWAP1 POP SWAP3 SWAP2 POP POP JUMP JUMPDEST PUSH0 PUSH2 0x119D DUP3 PUSH2 0xBEA JUMP JUMPDEST SWAP2 POP PUSH2 0x11A8 DUP4 PUSH2 0xBEA JUMP JUMPDEST SWAP3 POP DUP3 DUP3 SUB SWAP1 POP DUP2 DUP2 GT ISZERO PUSH2 0x11C0 JUMPI PUSH2 0x11BF PUSH2 0xF3F JUMP JUMPDEST JUMPDEST SWAP3 SWAP2 POP POP JUMP INVALID LOG2 PUSH5 0x6970667358 0x22 SLT KECCAK256 ADDMOD 0xC0 SMOD POP REVERT 0xAE 0xC5 0xF8 0x1E BASEFEE 0xD8 SWAP2 DUP1 LT 0xD7 0xAD PUSH11 0x1BC7953FAE613E525E2910 0xBD 0xC4 0x24 0xCF PUSH5 0x736F6C6343 STOP ADDMOD BYTE STOP CALLER "
				},
				"gasEstimates": {
					"creation": {
						"codeDepositCost": "920800",
						"executionCost": "infinite",
						"totalCost": "infinite"
					},
					"external": {
						"payee(uint256)": "5043",
						"releasable(address)": "infinite",
						"releasable(address,address)": "infinite",
						"release(address)": "infinite",
						"release(address,address)": "infinite",
						"released(address)": "2829",
						"released(address,address)": "infinite",
						"shares(address)": "2895",
						"totalReleased()": "2542",
						"totalReleased(address)": "2959",
						"totalShares()": "2455"
					},
					"internal": {
						"_addPayee(address,uint256)": "infinite",
						"_pendingPayment(address,uint256,uint256)": "infinite"
					}
				},
				"methodIdentifiers": {
					"payee(uint256)": "8b83209b",
					"releasable(address)": "a3f8eace",
					"releasable(address,address)": "c45ac050",
					"release(address)": "19165587",
					"release(address,address)": "48b75044",
					"released(address)": "9852595c",
					"released(address,address)": "406072a9",
					"shares(address)": "ce7c2ac2",
					"totalReleased()": "e33b7de3",
					"totalReleased(address)": "d79779b2",
					"totalShares()": "3a98ef39"
				}
			},
			"storageLayout": {
				"storage": [
					{
						"astId": 36,
						"contract": ".deps/npm/@openzeppelin/contracts/finance/PaymentSplitter.sol:PaymentSplitter",
						"label": "_totalShares",
						"offset": 0,
						"slot": "0",
						"type": "t_uint256"
					},
					{
						"astId": 38,
						"contract": ".deps/npm/@openzeppelin/contracts/finance/PaymentSplitter.sol:PaymentSplitter",
						"label": "_totalReleased",
						"offset": 0,
						"slot": "1",
						"type": "t_uint256"
					},
					{
						"astId": 42,
						"contract": ".deps/npm/@openzeppelin/contracts/finance/PaymentSplitter.sol:PaymentSplitter",
						"label": "_shares",
						"offset": 0,
						"slot": "2",
						"type": "t_mapping(t_address,t_uint256)"
					},
					{
						"astId": 46,
						"contract": ".deps/npm/@openzeppelin/contracts/finance/PaymentSplitter.sol:PaymentSplitter",
						"label": "_released",
						"offset": 0,
						"slot": "3",
						"type": "t_mapping(t_address,t_uint256)"
					},
					{
						"astId": 49,
						"contract": ".deps/npm/@openzeppelin/contracts/finance/PaymentSplitter.sol:PaymentSplitter",
						"label": "_payees",
						"offset": 0,
						"slot": "4",
						"type": "t_array(t_address)dyn_storage"
					},
					{
						"astId": 54,
						"contract": ".deps/npm/@openzeppelin/contracts/finance/PaymentSplitter.sol:PaymentSplitter",
						"label": "_erc20TotalReleased",
						"offset": 0,
						"slot": "5",
						"type": "t_mapping(t_contract(IERC20)640,t_uint256)"
					},
					{
						"astId": 61,
						"contract": ".deps/npm/@openzeppelin/contracts/finance/PaymentSplitter.sol:PaymentSplitter",
						"label": "_erc20Released",
						"offset": 0,
						"slot": "6",
						"type": "t_mapping(t_contract(IERC20)640,t_mapping(t_address,t_uint256))"
					}
				],
				"types": {
					"t_address": {
						"encoding": "inplace",
						"label": "address",
						"numberOfBytes": "20"
					},
					"t_array(t_address)dyn_storage": {
						"base": "t_address",
						"encoding": "dynamic_array",
						"label": "address[]",
						"numberOfBytes": "32"
					},
					"t_contract(IERC20)640": {
						"encoding": "inplace",
						"label": "contract IERC20",
						"numberOfBytes": "20"
					},
					"t_mapping(t_address,t_uint256)": {
						"encoding": "mapping",
						"key": "t_address",
						"label": "mapping(address => uint256)",
						"numberOfBytes": "32",
						"value": "t_uint256"
					},
					"t_mapping(t_contract(IERC20)640,t_mapping(t_address,t_uint256))": {
						"encoding": "mapping",
						"key": "t_contract(IERC20)640",
						"label": "mapping(contract IERC20 => mapping(address => uint256))",
						"numberOfBytes": "32",
						"value": "t_mapping(t_address,t_uint256)"
					},
					"t_mapping(t_contract(IERC20)640,t_uint256)": {
						"encoding": "mapping",
						"key": "t_contract(IERC20)640",
						"label": "mapping(contract IERC20 => uint256)",
						"numberOfBytes": "32",
						"value": "t_uint256"
					},
					"t_uint256": {
						"encoding": "inplace",
						"label": "uint256",
						"numberOfBytes": "32"
					}
				}
			},
			"userdoc": {
				"kind": "user",
				"methods": {},
				"version": 1
			}
		}
	}
}